{
	"contracts/gainzilla.sol": {
		"MemeCoin": {
			"abi": [
				{
					"inputs": [],
					"stateMutability": "nonpayable",
					"type": "constructor"
				},
				{
					"anonymous": false,
					"inputs": [
						{
							"indexed": true,
							"internalType": "address",
							"name": "owner",
							"type": "address"
						},
						{
							"indexed": true,
							"internalType": "address",
							"name": "spender",
							"type": "address"
						},
						{
							"indexed": false,
							"internalType": "uint256",
							"name": "value",
							"type": "uint256"
						}
					],
					"name": "Approval",
					"type": "event"
				},
				{
					"anonymous": false,
					"inputs": [
						{
							"indexed": false,
							"internalType": "uint256",
							"name": "tokenAmount",
							"type": "uint256"
						},
						{
							"indexed": false,
							"internalType": "uint256",
							"name": "ethAmount",
							"type": "uint256"
						}
					],
					"name": "LiquidityAdded",
					"type": "event"
				},
				{
					"anonymous": false,
					"inputs": [
						{
							"indexed": true,
							"internalType": "address",
							"name": "previousOwner",
							"type": "address"
						},
						{
							"indexed": true,
							"internalType": "address",
							"name": "newOwner",
							"type": "address"
						}
					],
					"name": "OwnershipTransferred",
					"type": "event"
				},
				{
					"anonymous": false,
					"inputs": [
						{
							"indexed": false,
							"internalType": "address",
							"name": "newRouter",
							"type": "address"
						}
					],
					"name": "RouterUpdated",
					"type": "event"
				},
				{
					"anonymous": false,
					"inputs": [
						{
							"indexed": false,
							"internalType": "uint256",
							"name": "lpAmount",
							"type": "uint256"
						},
						{
							"indexed": false,
							"internalType": "uint256",
							"name": "ecoAmount",
							"type": "uint256"
						}
					],
					"name": "TaxesCollected",
					"type": "event"
				},
				{
					"anonymous": false,
					"inputs": [
						{
							"indexed": true,
							"internalType": "address",
							"name": "from",
							"type": "address"
						},
						{
							"indexed": true,
							"internalType": "address",
							"name": "to",
							"type": "address"
						},
						{
							"indexed": false,
							"internalType": "uint256",
							"name": "value",
							"type": "uint256"
						}
					],
					"name": "Transfer",
					"type": "event"
				},
				{
					"inputs": [],
					"name": "_maxWalletSize",
					"outputs": [
						{
							"internalType": "uint256",
							"name": "",
							"type": "uint256"
						}
					],
					"stateMutability": "view",
					"type": "function"
				},
				{
					"inputs": [],
					"name": "accumulatedEco",
					"outputs": [
						{
							"internalType": "uint256",
							"name": "",
							"type": "uint256"
						}
					],
					"stateMutability": "view",
					"type": "function"
				},
				{
					"inputs": [],
					"name": "accumulatedLp",
					"outputs": [
						{
							"internalType": "uint256",
							"name": "",
							"type": "uint256"
						}
					],
					"stateMutability": "view",
					"type": "function"
				},
				{
					"inputs": [
						{
							"internalType": "address",
							"name": "owner",
							"type": "address"
						},
						{
							"internalType": "address",
							"name": "spender",
							"type": "address"
						}
					],
					"name": "allowance",
					"outputs": [
						{
							"internalType": "uint256",
							"name": "",
							"type": "uint256"
						}
					],
					"stateMutability": "view",
					"type": "function"
				},
				{
					"inputs": [
						{
							"internalType": "address",
							"name": "spender",
							"type": "address"
						},
						{
							"internalType": "uint256",
							"name": "amount",
							"type": "uint256"
						}
					],
					"name": "approve",
					"outputs": [
						{
							"internalType": "bool",
							"name": "",
							"type": "bool"
						}
					],
					"stateMutability": "nonpayable",
					"type": "function"
				},
				{
					"inputs": [
						{
							"internalType": "address",
							"name": "account",
							"type": "address"
						}
					],
					"name": "balanceOf",
					"outputs": [
						{
							"internalType": "uint256",
							"name": "",
							"type": "uint256"
						}
					],
					"stateMutability": "view",
					"type": "function"
				},
				{
					"inputs": [
						{
							"internalType": "bool",
							"name": "enabled",
							"type": "bool"
						},
						{
							"internalType": "uint32",
							"name": "duration",
							"type": "uint32"
						}
					],
					"name": "configureCooldown",
					"outputs": [],
					"stateMutability": "nonpayable",
					"type": "function"
				},
				{
					"inputs": [
						{
							"internalType": "bool",
							"name": "enabled",
							"type": "bool"
						},
						{
							"internalType": "uint16",
							"name": "triggerPercent",
							"type": "uint16"
						}
					],
					"name": "configureDiamondFloor",
					"outputs": [],
					"stateMutability": "nonpayable",
					"type": "function"
				},
				{
					"inputs": [],
					"name": "cooldown",
					"outputs": [
						{
							"internalType": "bool",
							"name": "enabled",
							"type": "bool"
						},
						{
							"internalType": "uint32",
							"name": "duration",
							"type": "uint32"
						}
					],
					"stateMutability": "view",
					"type": "function"
				},
				{
					"inputs": [
						{
							"internalType": "address",
							"name": "account",
							"type": "address"
						}
					],
					"name": "cooldownRemaining",
					"outputs": [
						{
							"internalType": "uint256",
							"name": "days_",
							"type": "uint256"
						},
						{
							"internalType": "uint256",
							"name": "hours_",
							"type": "uint256"
						},
						{
							"internalType": "uint256",
							"name": "minutes_",
							"type": "uint256"
						},
						{
							"internalType": "uint256",
							"name": "seconds_",
							"type": "uint256"
						}
					],
					"stateMutability": "view",
					"type": "function"
				},
				{
					"inputs": [],
					"name": "decimals",
					"outputs": [
						{
							"internalType": "uint8",
							"name": "",
							"type": "uint8"
						}
					],
					"stateMutability": "view",
					"type": "function"
				},
				{
					"inputs": [
						{
							"internalType": "address",
							"name": "spender",
							"type": "address"
						},
						{
							"internalType": "uint256",
							"name": "subtractedValue",
							"type": "uint256"
						}
					],
					"name": "decreaseAllowance",
					"outputs": [
						{
							"internalType": "bool",
							"name": "",
							"type": "bool"
						}
					],
					"stateMutability": "nonpayable",
					"type": "function"
				},
				{
					"inputs": [],
					"name": "diamondFloor",
					"outputs": [
						{
							"internalType": "bool",
							"name": "enabled",
							"type": "bool"
						},
						{
							"internalType": "uint16",
							"name": "triggerPercentage",
							"type": "uint16"
						},
						{
							"internalType": "uint256",
							"name": "athPrice",
							"type": "uint256"
						},
						{
							"internalType": "bool",
							"name": "sellStopped",
							"type": "bool"
						},
						{
							"internalType": "uint256",
							"name": "blockedAth",
							"type": "uint256"
						}
					],
					"stateMutability": "view",
					"type": "function"
				},
				{
					"inputs": [
						{
							"internalType": "address",
							"name": "spender",
							"type": "address"
						},
						{
							"internalType": "uint256",
							"name": "addedValue",
							"type": "uint256"
						}
					],
					"name": "increaseAllowance",
					"outputs": [
						{
							"internalType": "bool",
							"name": "",
							"type": "bool"
						}
					],
					"stateMutability": "nonpayable",
					"type": "function"
				},
				{
					"inputs": [
						{
							"internalType": "address",
							"name": "",
							"type": "address"
						}
					],
					"name": "isExempt",
					"outputs": [
						{
							"internalType": "bool",
							"name": "",
							"type": "bool"
						}
					],
					"stateMutability": "view",
					"type": "function"
				},
				{
					"inputs": [],
					"name": "maxWalletPercentage",
					"outputs": [
						{
							"internalType": "uint256",
							"name": "",
							"type": "uint256"
						}
					],
					"stateMutability": "view",
					"type": "function"
				},
				{
					"inputs": [],
					"name": "name",
					"outputs": [
						{
							"internalType": "string",
							"name": "",
							"type": "string"
						}
					],
					"stateMutability": "view",
					"type": "function"
				},
				{
					"inputs": [],
					"name": "owner",
					"outputs": [
						{
							"internalType": "address",
							"name": "",
							"type": "address"
						}
					],
					"stateMutability": "view",
					"type": "function"
				},
				{
					"inputs": [],
					"name": "pairAddress",
					"outputs": [
						{
							"internalType": "address",
							"name": "",
							"type": "address"
						}
					],
					"stateMutability": "view",
					"type": "function"
				},
				{
					"inputs": [],
					"name": "pairPrice",
					"outputs": [
						{
							"internalType": "uint256",
							"name": "",
							"type": "uint256"
						}
					],
					"stateMutability": "view",
					"type": "function"
				},
				{
					"inputs": [],
					"name": "priceDeviation",
					"outputs": [
						{
							"internalType": "int256",
							"name": "",
							"type": "int256"
						}
					],
					"stateMutability": "view",
					"type": "function"
				},
				{
					"inputs": [],
					"name": "renounceOwnership",
					"outputs": [],
					"stateMutability": "nonpayable",
					"type": "function"
				},
				{
					"inputs": [],
					"name": "routerAddress",
					"outputs": [
						{
							"internalType": "address",
							"name": "",
							"type": "address"
						}
					],
					"stateMutability": "view",
					"type": "function"
				},
				{
					"inputs": [
						{
							"internalType": "address",
							"name": "account",
							"type": "address"
						},
						{
							"internalType": "bool",
							"name": "exempt",
							"type": "bool"
						}
					],
					"name": "setExempt",
					"outputs": [],
					"stateMutability": "nonpayable",
					"type": "function"
				},
				{
					"inputs": [
						{
							"internalType": "address",
							"name": "newRouter",
							"type": "address"
						}
					],
					"name": "setRouter",
					"outputs": [],
					"stateMutability": "nonpayable",
					"type": "function"
				},
				{
					"inputs": [
						{
							"internalType": "uint16",
							"name": "buyLp",
							"type": "uint16"
						},
						{
							"internalType": "uint16",
							"name": "buyEco",
							"type": "uint16"
						},
						{
							"internalType": "uint16",
							"name": "sellLp",
							"type": "uint16"
						},
						{
							"internalType": "uint16",
							"name": "sellEco",
							"type": "uint16"
						}
					],
					"name": "setTaxRates",
					"outputs": [],
					"stateMutability": "nonpayable",
					"type": "function"
				},
				{
					"inputs": [
						{
							"internalType": "uint256",
							"name": "threshold",
							"type": "uint256"
						}
					],
					"name": "setThreshold",
					"outputs": [],
					"stateMutability": "nonpayable",
					"type": "function"
				},
				{
					"inputs": [],
					"name": "swapThreshold",
					"outputs": [
						{
							"internalType": "uint256",
							"name": "",
							"type": "uint256"
						}
					],
					"stateMutability": "view",
					"type": "function"
				},
				{
					"inputs": [],
					"name": "symbol",
					"outputs": [
						{
							"internalType": "string",
							"name": "",
							"type": "string"
						}
					],
					"stateMutability": "view",
					"type": "function"
				},
				{
					"inputs": [],
					"name": "taxRates",
					"outputs": [
						{
							"internalType": "uint16",
							"name": "buyLp",
							"type": "uint16"
						},
						{
							"internalType": "uint16",
							"name": "buyEco",
							"type": "uint16"
						},
						{
							"internalType": "uint16",
							"name": "sellLp",
							"type": "uint16"
						},
						{
							"internalType": "uint16",
							"name": "sellEco",
							"type": "uint16"
						}
					],
					"stateMutability": "view",
					"type": "function"
				},
				{
					"inputs": [],
					"name": "totalSupply",
					"outputs": [
						{
							"internalType": "uint256",
							"name": "",
							"type": "uint256"
						}
					],
					"stateMutability": "view",
					"type": "function"
				},
				{
					"inputs": [
						{
							"internalType": "address",
							"name": "to",
							"type": "address"
						},
						{
							"internalType": "uint256",
							"name": "amount",
							"type": "uint256"
						}
					],
					"name": "transfer",
					"outputs": [
						{
							"internalType": "bool",
							"name": "",
							"type": "bool"
						}
					],
					"stateMutability": "nonpayable",
					"type": "function"
				},
				{
					"inputs": [
						{
							"internalType": "address",
							"name": "from",
							"type": "address"
						},
						{
							"internalType": "address",
							"name": "to",
							"type": "address"
						},
						{
							"internalType": "uint256",
							"name": "amount",
							"type": "uint256"
						}
					],
					"name": "transferFrom",
					"outputs": [
						{
							"internalType": "bool",
							"name": "",
							"type": "bool"
						}
					],
					"stateMutability": "nonpayable",
					"type": "function"
				},
				{
					"inputs": [
						{
							"internalType": "address",
							"name": "newOwner",
							"type": "address"
						}
					],
					"name": "transferOwnership",
					"outputs": [],
					"stateMutability": "nonpayable",
					"type": "function"
				},
				{
					"stateMutability": "payable",
					"type": "receive"
				}
			],
			"devdoc": {
				"events": {
					"Approval(address,address,uint256)": {
						"details": "Emitted when the allowance of a `spender` for an `owner` is set by a call to {approve}. `value` is the new allowance."
					},
					"Transfer(address,address,uint256)": {
						"details": "Emitted when `value` tokens are moved from one account (`from`) to another (`to`). Note that `value` may be zero."
					}
				},
				"kind": "dev",
				"methods": {
					"allowance(address,address)": {
						"details": "See {IERC20-allowance}."
					},
					"approve(address,uint256)": {
						"details": "See {IERC20-approve}. NOTE: If `amount` is the maximum `uint256`, the allowance is not updated on `transferFrom`. This is semantically equivalent to an infinite approval. Requirements: - `spender` cannot be the zero address."
					},
					"balanceOf(address)": {
						"details": "See {IERC20-balanceOf}."
					},
					"decimals()": {
						"details": "Returns the number of decimals used to get its user representation. For example, if `decimals` equals `2`, a balance of `505` tokens should be displayed to a user as `5.05` (`505 / 10 ** 2`). Tokens usually opt for a value of 18, imitating the relationship between Ether and Wei. This is the default value returned by this function, unless it's overridden. NOTE: This information is only used for _display_ purposes: it in no way affects any of the arithmetic of the contract, including {IERC20-balanceOf} and {IERC20-transfer}."
					},
					"decreaseAllowance(address,uint256)": {
						"details": "Atomically decreases the allowance granted to `spender` by the caller. This is an alternative to {approve} that can be used as a mitigation for problems described in {IERC20-approve}. Emits an {Approval} event indicating the updated allowance. Requirements: - `spender` cannot be the zero address. - `spender` must have allowance for the caller of at least `subtractedValue`."
					},
					"increaseAllowance(address,uint256)": {
						"details": "Atomically increases the allowance granted to `spender` by the caller. This is an alternative to {approve} that can be used as a mitigation for problems described in {IERC20-approve}. Emits an {Approval} event indicating the updated allowance. Requirements: - `spender` cannot be the zero address."
					},
					"name()": {
						"details": "Returns the name of the token."
					},
					"owner()": {
						"details": "Returns the address of the current owner."
					},
					"renounceOwnership()": {
						"details": "Leaves the contract without owner. It will not be possible to call `onlyOwner` functions. Can only be called by the current owner. NOTE: Renouncing ownership will leave the contract without an owner, thereby disabling any functionality that is only available to the owner."
					},
					"symbol()": {
						"details": "Returns the symbol of the token, usually a shorter version of the name."
					},
					"totalSupply()": {
						"details": "See {IERC20-totalSupply}."
					},
					"transfer(address,uint256)": {
						"details": "See {IERC20-transfer}. Requirements: - `to` cannot be the zero address. - the caller must have a balance of at least `amount`."
					},
					"transferFrom(address,address,uint256)": {
						"details": "See {IERC20-transferFrom}. Emits an {Approval} event indicating the updated allowance. This is not required by the EIP. See the note at the beginning of {ERC20}. NOTE: Does not update the allowance if the current allowance is the maximum `uint256`. Requirements: - `from` and `to` cannot be the zero address. - `from` must have a balance of at least `amount`. - the caller must have allowance for ``from``'s tokens of at least `amount`."
					},
					"transferOwnership(address)": {
						"details": "Transfers ownership of the contract to a new account (`newOwner`). Can only be called by the current owner."
					}
				},
				"version": 1
			},
			"evm": {
				"assembly": "    /* \"contracts/gainzilla.sol\":1203:11032  contract MemeCoin is ERC20, Ownable {... */\n  mstore(0x40, 0x80)\n    /* \"contracts/gainzilla.sol\":1383:1386  100 */\n  0x64\n    /* \"contracts/gainzilla.sol\":1346:1386  uint256 public maxWalletPercentage = 100 */\n  0x06\n  sstore\n    /* \"contracts/gainzilla.sol\":1630:1632  35 */\n  0x23\n    /* \"contracts/gainzilla.sol\":1593:1632  uint256 private transferMultiplier = 35 */\n  0x08\n  sstore\n    /* \"contracts/gainzilla.sol\":1670:1689  TOTAL_SUPPLY / 1000 */\n  tag_1\n    /* \"contracts/gainzilla.sol\":1685:1689  1000 */\n  0x03e8\n    /* \"contracts/gainzilla.sol\":1318:1340  1_000_000_000 * 10**18 */\n  0x033b2e3c9fd0803ce8000000\n    /* \"contracts/gainzilla.sol\":1670:1689  TOTAL_SUPPLY / 1000 */\n  tag_2\n  jump\t// in\ntag_1:\n    /* \"contracts/gainzilla.sol\":1639:1689  uint256 public swapThreshold = TOTAL_SUPPLY / 1000 */\n  0x09\n  sstore\n    /* \"contracts/gainzilla.sol\":2542:2835  constructor() ERC20(\"Meme Coin\", \"MEME\") Ownable() {... */\n  callvalue\n  dup1\n  iszero\n  tag_3\n  jumpi\n  0x00\n  dup1\n  revert\ntag_3:\n  pop\n    /* \"@openzeppelin/contracts@4.9.3/token/ERC20/ERC20.sol\":1980:2093  constructor(string memory name_, string memory symbol_) {... */\n  mload(0x40)\n  dup1\n  0x40\n  add\n  0x40\n  mstore\n  dup1\n  0x09\n  dup2\n  mstore\n  0x20\n  add\n  shl(0xb9, 0x26b2b6b29021b7b4b7)\n  dup2\n  mstore\n  pop\n  mload(0x40)\n  dup1\n  0x40\n  add\n  0x40\n  mstore\n  dup1\n  0x04\n  dup2\n  mstore\n  0x20\n  add\n  shl(0xe0, 0x4d454d45)\n  dup2\n  mstore\n  pop\n    /* \"@openzeppelin/contracts@4.9.3/token/ERC20/ERC20.sol\":2054:2059  name_ */\n  dup2\n    /* \"@openzeppelin/contracts@4.9.3/token/ERC20/ERC20.sol\":2046:2051  _name */\n  0x03\n    /* \"@openzeppelin/contracts@4.9.3/token/ERC20/ERC20.sol\":2046:2059  _name = name_ */\n  swap1\n  dup2\n  tag_8\n  swap2\n  swap1\n  tag_9\n  jump\t// in\ntag_8:\n  pop\n    /* \"@openzeppelin/contracts@4.9.3/token/ERC20/ERC20.sol\":2069:2076  _symbol */\n  0x04\n    /* \"@openzeppelin/contracts@4.9.3/token/ERC20/ERC20.sol\":2069:2086  _symbol = symbol_ */\n  tag_10\n    /* \"@openzeppelin/contracts@4.9.3/token/ERC20/ERC20.sol\":2079:2086  symbol_ */\n  dup3\n    /* \"@openzeppelin/contracts@4.9.3/token/ERC20/ERC20.sol\":2069:2076  _symbol */\n  dup3\n    /* \"@openzeppelin/contracts@4.9.3/token/ERC20/ERC20.sol\":2069:2086  _symbol = symbol_ */\n  tag_9\n  jump\t// in\ntag_10:\n  pop\n    /* \"@openzeppelin/contracts@4.9.3/token/ERC20/ERC20.sol\":1980:2093  constructor(string memory name_, string memory symbol_) {... */\n  pop\n  pop\n    /* \"@openzeppelin/contracts@4.9.3/access/Ownable.sol\":936:968  _transferOwnership(_msgSender()) */\n  tag_12\n    /* \"@openzeppelin/contracts@4.9.3/access/Ownable.sol\":955:967  _msgSender() */\n  tag_13\n    /* \"@openzeppelin/contracts@4.9.3/access/Ownable.sol\":955:965  _msgSender */\n  shl(0x20, tag_14)\n    /* \"@openzeppelin/contracts@4.9.3/access/Ownable.sol\":955:967  _msgSender() */\n  0x20\n  shr\n  jump\t// in\ntag_13:\n    /* \"@openzeppelin/contracts@4.9.3/access/Ownable.sol\":936:954  _transferOwnership */\n  tag_15\n    /* \"@openzeppelin/contracts@4.9.3/access/Ownable.sol\":936:968  _transferOwnership(_msgSender()) */\n  jump\t// in\ntag_12:\n    /* \"contracts/gainzilla.sol\":2603:2634  _mint(msg.sender, TOTAL_SUPPLY) */\n  tag_17\n    /* \"contracts/gainzilla.sol\":2609:2619  msg.sender */\n  caller\n    /* \"contracts/gainzilla.sol\":1318:1340  1_000_000_000 * 10**18 */\n  0x033b2e3c9fd0803ce8000000\n    /* \"contracts/gainzilla.sol\":2603:2608  _mint */\n  tag_18\n    /* \"contracts/gainzilla.sol\":2603:2634  _mint(msg.sender, TOTAL_SUPPLY) */\n  jump\t// in\ntag_17:\n    /* \"contracts/gainzilla.sol\":2644:2657  routerAddress */\n  0x13\n    /* \"contracts/gainzilla.sol\":2644:2674  routerAddress = DEFAULT_ROUTER */\n  dup1\n  sload\n  not(sub(shl(0xa0, 0x01), 0x01))\n  and\n    /* \"contracts/gainzilla.sol\":2272:2314  0x10ED43C718714eb63d5aA57B78B54704E256024E */\n  0x10ed43c718714eb63d5aa57b78b54704e256024e\n    /* \"contracts/gainzilla.sol\":2644:2674  routerAddress = DEFAULT_ROUTER */\n  or\n  swap1\n  sstore\n    /* \"contracts/gainzilla.sol\":2684:2696  _setupPair() */\n  tag_19\n    /* \"contracts/gainzilla.sol\":2684:2694  _setupPair */\n  tag_20\n    /* \"contracts/gainzilla.sol\":2684:2696  _setupPair() */\n  jump\t// in\ntag_19:\n    /* \"contracts/gainzilla.sol\":2726:2746  TaxRates(0, 0, 0, 0) */\n  0x40\n  dup1\n  mload\n  0x80\n  dup2\n  add\n  dup3\n  mstore\n  0x00\n  dup1\n  dup3\n  mstore\n  0x20\n  dup1\n  dup4\n  add\n  dup3\n  swap1\n  mstore\n  dup3\n  dup5\n  add\n  dup3\n  swap1\n  mstore\n  0x60\n  swap1\n  swap3\n  add\n  dup2\n  swap1\n  mstore\n    /* \"contracts/gainzilla.sol\":2715:2723  taxRates */\n  0x07\n    /* \"contracts/gainzilla.sol\":2715:2746  taxRates = TaxRates(0, 0, 0, 0) */\n  dup1\n  sload\n  not(sub(shl(0x40, 0x01), 0x01))\n  and\n  swap1\n  sstore\n    /* \"contracts/gainzilla.sol\":2770:2780  msg.sender */\n  caller\n    /* \"contracts/gainzilla.sol\":2761:2781  isExempt[msg.sender] */\n  dup2\n  mstore\n    /* \"contracts/gainzilla.sol\":2761:2769  isExempt */\n  0x15\n    /* \"contracts/gainzilla.sol\":2761:2781  isExempt[msg.sender] */\n  swap1\n  swap2\n  mstore\n  dup2\n  dup2\n  keccak256\n    /* \"contracts/gainzilla.sol\":2761:2788  isExempt[msg.sender] = true */\n  dup1\n  sload\n  not(0xff)\n  swap1\n  dup2\n  and\n    /* \"contracts/gainzilla.sol\":2715:2746  taxRates = TaxRates(0, 0, 0, 0) */\n  0x01\n    /* \"contracts/gainzilla.sol\":2761:2788  isExempt[msg.sender] = true */\n  swap1\n  dup2\n  or\n  swap1\n  swap3\n  sstore\n    /* \"contracts/gainzilla.sol\":2815:2819  this */\n  address\n    /* \"contracts/gainzilla.sol\":2798:2821  isExempt[address(this)] */\n  dup4\n  mstore\n  swap3\n  swap1\n  swap2\n  keccak256\n    /* \"contracts/gainzilla.sol\":2798:2828  isExempt[address(this)] = true */\n  dup1\n  sload\n  swap1\n  swap3\n  and\n  or\n  swap1\n  sstore\n    /* \"contracts/gainzilla.sol\":1203:11032  contract MemeCoin is ERC20, Ownable {... */\n  jump(tag_56)\n    /* \"@openzeppelin/contracts@4.9.3/utils/Context.sol\":640:736  function _msgSender() internal view virtual returns (address) {... */\ntag_14:\n    /* \"@openzeppelin/contracts@4.9.3/utils/Context.sol\":719:729  msg.sender */\n  caller\n  swap1\n    /* \"@openzeppelin/contracts@4.9.3/utils/Context.sol\":640:736  function _msgSender() internal view virtual returns (address) {... */\n  jump\t// out\n    /* \"@openzeppelin/contracts@4.9.3/access/Ownable.sol\":2426:2613  function _transferOwnership(address newOwner) internal virtual {... */\ntag_15:\n    /* \"@openzeppelin/contracts@4.9.3/access/Ownable.sol\":2518:2524  _owner */\n  0x05\n  dup1\n  sload\n  sub(shl(0xa0, 0x01), 0x01)\n    /* \"@openzeppelin/contracts@4.9.3/access/Ownable.sol\":2534:2551  _owner = newOwner */\n  dup4\n  dup2\n  and\n  not(sub(shl(0xa0, 0x01), 0x01))\n  dup4\n  and\n  dup2\n  or\n  swap1\n  swap4\n  sstore\n    /* \"@openzeppelin/contracts@4.9.3/access/Ownable.sol\":2566:2606  OwnershipTransferred(oldOwner, newOwner) */\n  mload(0x40)\n    /* \"@openzeppelin/contracts@4.9.3/access/Ownable.sol\":2518:2524  _owner */\n  swap2\n  and\n  swap2\n    /* \"@openzeppelin/contracts@4.9.3/access/Ownable.sol\":2534:2551  _owner = newOwner */\n  swap1\n    /* \"@openzeppelin/contracts@4.9.3/access/Ownable.sol\":2518:2524  _owner */\n  dup3\n  swap1\n    /* \"@openzeppelin/contracts@4.9.3/access/Ownable.sol\":2566:2606  OwnershipTransferred(oldOwner, newOwner) */\n  0x8be0079c531659141344cd1fd0a4f28419497f9722a3daafe3b4186f6b6457e0\n  swap1\n    /* \"@openzeppelin/contracts@4.9.3/access/Ownable.sol\":2499:2515  address oldOwner */\n  0x00\n  swap1\n    /* \"@openzeppelin/contracts@4.9.3/access/Ownable.sol\":2566:2606  OwnershipTransferred(oldOwner, newOwner) */\n  log3\n    /* \"@openzeppelin/contracts@4.9.3/access/Ownable.sol\":2489:2613  {... */\n  pop\n    /* \"@openzeppelin/contracts@4.9.3/access/Ownable.sol\":2426:2613  function _transferOwnership(address newOwner) internal virtual {... */\n  pop\n  jump\t// out\n    /* \"@openzeppelin/contracts@4.9.3/token/ERC20/ERC20.sol\":8520:9055  function _mint(address account, uint256 amount) internal virtual {... */\ntag_18:\n  sub(shl(0xa0, 0x01), 0x01)\n    /* \"@openzeppelin/contracts@4.9.3/token/ERC20/ERC20.sol\":8603:8624  account != address(0) */\n  dup3\n  and\n    /* \"@openzeppelin/contracts@4.9.3/token/ERC20/ERC20.sol\":8595:8660  require(account != address(0), \"ERC20: mint to the zero address\") */\n  tag_25\n  jumpi\n  mload(0x40)\n  shl(0xe5, 0x461bcd)\n  dup2\n  mstore\n    /* \"#utility.yul\":3125:3127   */\n  0x20\n    /* \"@openzeppelin/contracts@4.9.3/token/ERC20/ERC20.sol\":8595:8660  require(account != address(0), \"ERC20: mint to the zero address\") */\n  0x04\n  dup3\n  add\n    /* \"#utility.yul\":3107:3128   */\n  mstore\n    /* \"#utility.yul\":3164:3166   */\n  0x1f\n    /* \"#utility.yul\":3144:3162   */\n  0x24\n  dup3\n  add\n    /* \"#utility.yul\":3137:3167   */\n  mstore\n    /* \"#utility.yul\":3203:3236   */\n  0x45524332303a206d696e7420746f20746865207a65726f206164647265737300\n    /* \"#utility.yul\":3183:3201   */\n  0x44\n  dup3\n  add\n    /* \"#utility.yul\":3176:3237   */\n  mstore\n    /* \"#utility.yul\":3254:3272   */\n  0x64\n  add\n    /* \"@openzeppelin/contracts@4.9.3/token/ERC20/ERC20.sol\":8595:8660  require(account != address(0), \"ERC20: mint to the zero address\") */\n  mload(0x40)\n  dup1\n  swap2\n  sub\n  swap1\n  revert\ntag_25:\n    /* \"@openzeppelin/contracts@4.9.3/token/ERC20/ERC20.sol\":8747:8753  amount */\n  dup1\n    /* \"@openzeppelin/contracts@4.9.3/token/ERC20/ERC20.sol\":8731:8743  _totalSupply */\n  0x02\n  0x00\n    /* \"@openzeppelin/contracts@4.9.3/token/ERC20/ERC20.sol\":8731:8753  _totalSupply += amount */\n  dup3\n  dup3\n  sload\n  tag_30\n  swap2\n  swap1\n  tag_31\n  jump\t// in\ntag_30:\n  swap1\n  swap2\n  sstore\n  pop\n  pop\n  sub(shl(0xa0, 0x01), 0x01)\n    /* \"@openzeppelin/contracts@4.9.3/token/ERC20/ERC20.sol\":8899:8917  _balances[account] */\n  dup3\n  and\n    /* \"@openzeppelin/contracts@4.9.3/token/ERC20/ERC20.sol\":8899:8908  _balances */\n  0x00\n    /* \"@openzeppelin/contracts@4.9.3/token/ERC20/ERC20.sol\":8899:8917  _balances[account] */\n  dup2\n  dup2\n  mstore\n  0x20\n  dup2\n  dup2\n  mstore\n  0x40\n  dup1\n  dup4\n  keccak256\n    /* \"@openzeppelin/contracts@4.9.3/token/ERC20/ERC20.sol\":8899:8927  _balances[account] += amount */\n  dup1\n  sload\n  dup7\n  add\n  swap1\n  sstore\n    /* \"@openzeppelin/contracts@4.9.3/token/ERC20/ERC20.sol\":8952:8989  Transfer(address(0), account, amount) */\n  mload\n    /* \"#utility.yul\":3656:3681   */\n  dup5\n  dup2\n  mstore\n    /* \"@openzeppelin/contracts@4.9.3/token/ERC20/ERC20.sol\":8952:8989  Transfer(address(0), account, amount) */\n  0xddf252ad1be2c89b69c2b068fc378daa952ba7f163c4a11628f55a4df523b3ef\n  swap2\n    /* \"#utility.yul\":3629:3647   */\n  add\n    /* \"@openzeppelin/contracts@4.9.3/token/ERC20/ERC20.sol\":8952:8989  Transfer(address(0), account, amount) */\n  mload(0x40)\n  dup1\n  swap2\n  sub\n  swap1\n  log3\n    /* \"@openzeppelin/contracts@4.9.3/token/ERC20/ERC20.sol\":8520:9055  function _mint(address account, uint256 amount) internal virtual {... */\n  pop\n  pop\n  jump\t// out\n    /* \"contracts/gainzilla.sol\":9596:9796  function _setupPair() private {... */\ntag_20:\n    /* \"contracts/gainzilla.sol\":9685:9698  routerAddress */\n  0x13\n  0x00\n  swap1\n  sload\n  swap1\n  0x0100\n  exp\n  swap1\n  div\n  sub(shl(0xa0, 0x01), 0x01)\n  and\n  sub(shl(0xa0, 0x01), 0x01)\n    /* \"contracts/gainzilla.sol\":9668:9707  IUniswapV2Router(routerAddress).factory */\n  and\n  0xc45a0155\n    /* \"contracts/gainzilla.sol\":9668:9709  IUniswapV2Router(routerAddress).factory() */\n  mload(0x40)\n  dup2\n  0xffffffff\n  and\n  0xe0\n  shl\n  dup2\n  mstore\n  0x04\n  add\n  0x20\n  mload(0x40)\n  dup1\n  dup4\n  sub\n  dup2\n  dup7\n  gas\n  staticcall\n  iszero\n  dup1\n  iszero\n  tag_38\n  jumpi\n  returndatasize\n  0x00\n  dup1\n  returndatacopy\n  revert(0x00, returndatasize)\ntag_38:\n  pop\n  pop\n  pop\n  pop\n  mload(0x40)\n  returndatasize\n  not(0x1f)\n  0x1f\n  dup3\n  add\n  and\n  dup3\n  add\n  dup1\n  0x40\n  mstore\n  pop\n  dup2\n  add\n  swap1\n  tag_39\n  swap2\n  swap1\n  tag_40\n  jump\t// in\ntag_39:\n  sub(shl(0xa0, 0x01), 0x01)\n    /* \"contracts/gainzilla.sol\":9650:9734  IUniswapV2Factory(IUniswapV2Router(routerAddress).factory())... */\n  and\n  0xc9c65396\n    /* \"contracts/gainzilla.sol\":9743:9747  this */\n  address\n    /* \"contracts/gainzilla.sol\":9767:9780  routerAddress */\n  0x13\n  0x00\n  swap1\n  sload\n  swap1\n  0x0100\n  exp\n  swap1\n  div\n  sub(shl(0xa0, 0x01), 0x01)\n  and\n  sub(shl(0xa0, 0x01), 0x01)\n    /* \"contracts/gainzilla.sol\":9750:9786  IUniswapV2Router(routerAddress).WETH */\n  and\n  0xad5c4648\n    /* \"contracts/gainzilla.sol\":9750:9788  IUniswapV2Router(routerAddress).WETH() */\n  mload(0x40)\n  dup2\n  0xffffffff\n  and\n  0xe0\n  shl\n  dup2\n  mstore\n  0x04\n  add\n  0x20\n  mload(0x40)\n  dup1\n  dup4\n  sub\n  dup2\n  dup7\n  gas\n  staticcall\n  iszero\n  dup1\n  iszero\n  tag_42\n  jumpi\n  returndatasize\n  0x00\n  dup1\n  returndatacopy\n  revert(0x00, returndatasize)\ntag_42:\n  pop\n  pop\n  pop\n  pop\n  mload(0x40)\n  returndatasize\n  not(0x1f)\n  0x1f\n  dup3\n  add\n  and\n  dup3\n  add\n  dup1\n  0x40\n  mstore\n  pop\n  dup2\n  add\n  swap1\n  tag_43\n  swap2\n  swap1\n  tag_40\n  jump\t// in\ntag_43:\n    /* \"contracts/gainzilla.sol\":9650:9789  IUniswapV2Factory(IUniswapV2Router(routerAddress).factory())... */\n  mload(0x40)\n  not(sub(shl(0xe0, 0x01), 0x01))\n  0xe0\n  dup6\n  swap1\n  shl\n  and\n  dup2\n  mstore\n  sub(shl(0xa0, 0x01), 0x01)\n    /* \"#utility.yul\":4217:4232   */\n  swap3\n  dup4\n  and\n    /* \"contracts/gainzilla.sol\":9650:9789  IUniswapV2Factory(IUniswapV2Router(routerAddress).factory())... */\n  0x04\n  dup3\n  add\n    /* \"#utility.yul\":4199:4233   */\n  mstore\n    /* \"#utility.yul\":4269:4284   */\n  swap2\n  and\n    /* \"#utility.yul\":4249:4267   */\n  0x24\n  dup3\n  add\n    /* \"#utility.yul\":4242:4285   */\n  mstore\n    /* \"#utility.yul\":4134:4152   */\n  0x44\n  add\n    /* \"contracts/gainzilla.sol\":9650:9789  IUniswapV2Factory(IUniswapV2Router(routerAddress).factory())... */\n  0x20\n  mload(0x40)\n  dup1\n  dup4\n  sub\n  dup2\n  0x00\n  dup8\n  gas\n  call\n  iszero\n  dup1\n  iszero\n  tag_47\n  jumpi\n  returndatasize\n  0x00\n  dup1\n  returndatacopy\n  revert(0x00, returndatasize)\ntag_47:\n  pop\n  pop\n  pop\n  pop\n  mload(0x40)\n  returndatasize\n  not(0x1f)\n  0x1f\n  dup3\n  add\n  and\n  dup3\n  add\n  dup1\n  0x40\n  mstore\n  pop\n  dup2\n  add\n  swap1\n  tag_48\n  swap2\n  swap1\n  tag_40\n  jump\t// in\ntag_48:\n    /* \"contracts/gainzilla.sol\":9636:9647  pairAddress */\n  0x14\n    /* \"contracts/gainzilla.sol\":9636:9789  pairAddress = IUniswapV2Factory(IUniswapV2Router(routerAddress).factory())... */\n  dup1\n  sload\n  not(sub(shl(0xa0, 0x01), 0x01))\n  and\n  sub(shl(0xa0, 0x01), 0x01)\n  swap3\n  swap1\n  swap3\n  and\n  swap2\n  swap1\n  swap2\n  or\n  swap1\n  sstore\n    /* \"contracts/gainzilla.sol\":9596:9796  function _setupPair() private {... */\n  jump\t// out\n    /* \"@openzeppelin/contracts@4.9.3/token/ERC20/ERC20.sol\":12073:12164  function _beforeTokenTransfer(address from, address to, uint256 amount) internal virtual {} */\ntag_29:\n  pop\n  pop\n  pop\n  jump\t// out\n    /* \"#utility.yul\":14:231   */\ntag_2:\n    /* \"#utility.yul\":54:55   */\n  0x00\n    /* \"#utility.yul\":80:81   */\n  dup3\n    /* \"#utility.yul\":70:202   */\n  tag_58\n  jumpi\n    /* \"#utility.yul\":124:134   */\n  0x4e487b71\n    /* \"#utility.yul\":119:122   */\n  0xe0\n    /* \"#utility.yul\":115:135   */\n  shl\n    /* \"#utility.yul\":112:113   */\n  0x00\n    /* \"#utility.yul\":105:136   */\n  mstore\n    /* \"#utility.yul\":159:163   */\n  0x12\n    /* \"#utility.yul\":156:157   */\n  0x04\n    /* \"#utility.yul\":149:164   */\n  mstore\n    /* \"#utility.yul\":187:191   */\n  0x24\n    /* \"#utility.yul\":184:185   */\n  0x00\n    /* \"#utility.yul\":177:192   */\n  revert\n    /* \"#utility.yul\":70:202   */\ntag_58:\n  pop\n    /* \"#utility.yul\":216:225   */\n  div\n  swap1\n    /* \"#utility.yul\":14:231   */\n  jump\t// out\n    /* \"#utility.yul\":236:363   */\ntag_51:\n    /* \"#utility.yul\":297:307   */\n  0x4e487b71\n    /* \"#utility.yul\":292:295   */\n  0xe0\n    /* \"#utility.yul\":288:308   */\n  shl\n    /* \"#utility.yul\":285:286   */\n  0x00\n    /* \"#utility.yul\":278:309   */\n  mstore\n    /* \"#utility.yul\":328:332   */\n  0x41\n    /* \"#utility.yul\":325:326   */\n  0x04\n    /* \"#utility.yul\":318:333   */\n  mstore\n    /* \"#utility.yul\":352:356   */\n  0x24\n    /* \"#utility.yul\":349:350   */\n  0x00\n    /* \"#utility.yul\":342:357   */\n  revert\n    /* \"#utility.yul\":368:748   */\ntag_52:\n    /* \"#utility.yul\":447:448   */\n  0x01\n    /* \"#utility.yul\":443:455   */\n  dup2\n  dup2\n  shr\n  swap1\n    /* \"#utility.yul\":490:502   */\n  dup3\n  and\n  dup1\n    /* \"#utility.yul\":511:572   */\n  tag_61\n  jumpi\n    /* \"#utility.yul\":565:569   */\n  0x7f\n    /* \"#utility.yul\":557:563   */\n  dup3\n    /* \"#utility.yul\":553:570   */\n  and\n    /* \"#utility.yul\":543:570   */\n  swap2\n  pop\n    /* \"#utility.yul\":511:572   */\ntag_61:\n    /* \"#utility.yul\":618:620   */\n  0x20\n    /* \"#utility.yul\":610:616   */\n  dup3\n    /* \"#utility.yul\":607:621   */\n  lt\n    /* \"#utility.yul\":587:605   */\n  dup2\n    /* \"#utility.yul\":584:622   */\n  sub\n    /* \"#utility.yul\":581:742   */\n  tag_62\n  jumpi\n    /* \"#utility.yul\":664:674   */\n  0x4e487b71\n    /* \"#utility.yul\":659:662   */\n  0xe0\n    /* \"#utility.yul\":655:675   */\n  shl\n    /* \"#utility.yul\":652:653   */\n  0x00\n    /* \"#utility.yul\":645:676   */\n  mstore\n    /* \"#utility.yul\":699:703   */\n  0x22\n    /* \"#utility.yul\":696:697   */\n  0x04\n    /* \"#utility.yul\":689:704   */\n  mstore\n    /* \"#utility.yul\":727:731   */\n  0x24\n    /* \"#utility.yul\":724:725   */\n  0x00\n    /* \"#utility.yul\":717:732   */\n  revert\n    /* \"#utility.yul\":581:742   */\ntag_62:\n  pop\n    /* \"#utility.yul\":368:748   */\n  swap2\n  swap1\n  pop\n  jump\t// out\n    /* \"#utility.yul\":879:1397   */\ntag_54:\n    /* \"#utility.yul\":981:983   */\n  0x1f\n    /* \"#utility.yul\":976:979   */\n  dup3\n    /* \"#utility.yul\":973:984   */\n  gt\n    /* \"#utility.yul\":970:1391   */\n  iszero\n  tag_29\n  jumpi\n    /* \"#utility.yul\":1017:1022   */\n  dup1\n    /* \"#utility.yul\":1014:1015   */\n  0x00\n    /* \"#utility.yul\":1007:1023   */\n  mstore\n    /* \"#utility.yul\":1061:1065   */\n  0x20\n    /* \"#utility.yul\":1058:1059   */\n  0x00\n    /* \"#utility.yul\":1048:1066   */\n  keccak256\n    /* \"#utility.yul\":1131:1133   */\n  0x1f\n    /* \"#utility.yul\":1119:1129   */\n  dup5\n    /* \"#utility.yul\":1115:1134   */\n  add\n    /* \"#utility.yul\":1112:1113   */\n  0x05\n    /* \"#utility.yul\":1108:1135   */\n  shr\n    /* \"#utility.yul\":1102:1106   */\n  dup2\n    /* \"#utility.yul\":1098:1136   */\n  add\n    /* \"#utility.yul\":1167:1171   */\n  0x20\n    /* \"#utility.yul\":1155:1165   */\n  dup6\n    /* \"#utility.yul\":1152:1172   */\n  lt\n    /* \"#utility.yul\":1149:1196   */\n  iszero\n  tag_66\n  jumpi\n  pop\n    /* \"#utility.yul\":1190:1194   */\n  dup1\n    /* \"#utility.yul\":1149:1196   */\ntag_66:\n    /* \"#utility.yul\":1245:1247   */\n  0x1f\n    /* \"#utility.yul\":1240:1243   */\n  dup5\n    /* \"#utility.yul\":1236:1248   */\n  add\n    /* \"#utility.yul\":1233:1234   */\n  0x05\n    /* \"#utility.yul\":1229:1249   */\n  shr\n    /* \"#utility.yul\":1223:1227   */\n  dup3\n    /* \"#utility.yul\":1219:1250   */\n  add\n    /* \"#utility.yul\":1209:1250   */\n  swap2\n  pop\n    /* \"#utility.yul\":1300:1381   */\ntag_67:\n    /* \"#utility.yul\":1318:1320   */\n  dup2\n    /* \"#utility.yul\":1311:1316   */\n  dup2\n    /* \"#utility.yul\":1308:1321   */\n  lt\n    /* \"#utility.yul\":1300:1381   */\n  iszero\n  tag_69\n  jumpi\n    /* \"#utility.yul\":1377:1378   */\n  0x00\n    /* \"#utility.yul\":1363:1379   */\n  dup2\n  sstore\n    /* \"#utility.yul\":1344:1345   */\n  0x01\n    /* \"#utility.yul\":1333:1346   */\n  add\n    /* \"#utility.yul\":1300:1381   */\n  jump(tag_67)\ntag_69:\n    /* \"#utility.yul\":1304:1307   */\n  pop\n  pop\n    /* \"#utility.yul\":879:1397   */\n  pop\n  pop\n  pop\n  jump\t// out\n    /* \"#utility.yul\":1573:2918   */\ntag_9:\n    /* \"#utility.yul\":1693:1703   */\n  dup2\n  mload\n  sub(shl(0x40, 0x01), 0x01)\n    /* \"#utility.yul\":1715:1745   */\n  dup2\n  gt\n    /* \"#utility.yul\":1712:1768   */\n  iszero\n  tag_73\n  jumpi\n    /* \"#utility.yul\":1748:1766   */\n  tag_73\n  tag_51\n  jump\t// in\ntag_73:\n    /* \"#utility.yul\":1777:1874   */\n  tag_74\n    /* \"#utility.yul\":1867:1873   */\n  dup2\n    /* \"#utility.yul\":1827:1865   */\n  tag_75\n    /* \"#utility.yul\":1859:1863   */\n  dup5\n    /* \"#utility.yul\":1853:1864   */\n  sload\n    /* \"#utility.yul\":1827:1865   */\n  tag_52\n  jump\t// in\ntag_75:\n    /* \"#utility.yul\":1821:1825   */\n  dup5\n    /* \"#utility.yul\":1777:1874   */\n  tag_54\n  jump\t// in\ntag_74:\n    /* \"#utility.yul\":1929:1933   */\n  0x20\n  dup1\n    /* \"#utility.yul\":1986:1988   */\n  0x1f\n    /* \"#utility.yul\":1975:1989   */\n  dup4\n  gt\n    /* \"#utility.yul\":2003:2004   */\n  0x01\n    /* \"#utility.yul\":1998:2661   */\n  dup2\n  eq\n  tag_77\n  jumpi\n    /* \"#utility.yul\":2705:2706   */\n  0x00\n    /* \"#utility.yul\":2722:2728   */\n  dup5\n    /* \"#utility.yul\":2719:2808   */\n  iszero\n  tag_78\n  jumpi\n  pop\n    /* \"#utility.yul\":2774:2793   */\n  dup6\n  dup4\n  add\n    /* \"#utility.yul\":2768:2794   */\n  mload\n    /* \"#utility.yul\":2719:2808   */\ntag_78:\n  not(0x00)\n    /* \"#utility.yul\":1530:1531   */\n  0x03\n    /* \"#utility.yul\":1526:1537   */\n  dup7\n  swap1\n  shl\n    /* \"#utility.yul\":1522:1546   */\n  shr\n    /* \"#utility.yul\":1518:1547   */\n  not\n    /* \"#utility.yul\":1508:1548   */\n  and\n    /* \"#utility.yul\":1554:1555   */\n  0x01\n    /* \"#utility.yul\":1550:1561   */\n  dup6\n  swap1\n  shl\n    /* \"#utility.yul\":1505:1562   */\n  or\n    /* \"#utility.yul\":2821:2902   */\n  dup6\n  sstore\n    /* \"#utility.yul\":1968:2912   */\n  jump(tag_76)\n    /* \"#utility.yul\":1998:2661   */\ntag_77:\n    /* \"#utility.yul\":826:827   */\n  0x00\n    /* \"#utility.yul\":819:833   */\n  dup6\n  dup2\n  mstore\n    /* \"#utility.yul\":863:867   */\n  0x20\n    /* \"#utility.yul\":850:868   */\n  dup2\n  keccak256\n  not(0x1f)\n    /* \"#utility.yul\":2034:2054   */\n  dup7\n  and\n  swap2\n    /* \"#utility.yul\":2152:2388   */\ntag_81:\n    /* \"#utility.yul\":2166:2173   */\n  dup3\n    /* \"#utility.yul\":2163:2164   */\n  dup2\n    /* \"#utility.yul\":2160:2174   */\n  lt\n    /* \"#utility.yul\":2152:2388   */\n  iszero\n  tag_83\n  jumpi\n    /* \"#utility.yul\":2255:2274   */\n  dup9\n  dup7\n  add\n    /* \"#utility.yul\":2249:2275   */\n  mload\n    /* \"#utility.yul\":2234:2276   */\n  dup3\n  sstore\n    /* \"#utility.yul\":2347:2374   */\n  swap5\n  dup5\n  add\n  swap5\n    /* \"#utility.yul\":2315:2316   */\n  0x01\n    /* \"#utility.yul\":2303:2317   */\n  swap1\n  swap2\n  add\n  swap1\n    /* \"#utility.yul\":2182:2201   */\n  dup5\n  add\n    /* \"#utility.yul\":2152:2388   */\n  jump(tag_81)\ntag_83:\n    /* \"#utility.yul\":2156:2159   */\n  pop\n    /* \"#utility.yul\":2416:2422   */\n  dup6\n    /* \"#utility.yul\":2407:2414   */\n  dup3\n    /* \"#utility.yul\":2404:2423   */\n  lt\n    /* \"#utility.yul\":2401:2602   */\n  iszero\n  tag_84\n  jumpi\n    /* \"#utility.yul\":2477:2496   */\n  dup8\n  dup6\n  add\n    /* \"#utility.yul\":2471:2497   */\n  mload\n  not(0x00)\n    /* \"#utility.yul\":2560:2561   */\n  0x03\n    /* \"#utility.yul\":2556:2570   */\n  dup9\n  swap1\n  shl\n    /* \"#utility.yul\":2572:2575   */\n  0xf8\n    /* \"#utility.yul\":2552:2576   */\n  and\n    /* \"#utility.yul\":2548:2585   */\n  shr\n    /* \"#utility.yul\":2544:2586   */\n  not\n    /* \"#utility.yul\":2529:2587   */\n  and\n    /* \"#utility.yul\":2514:2588   */\n  dup2\n  sstore\n    /* \"#utility.yul\":2401:2602   */\ntag_84:\n  pop\n  pop\n    /* \"#utility.yul\":2648:2649   */\n  0x01\n    /* \"#utility.yul\":2639:2645   */\n  dup5\n    /* \"#utility.yul\":2636:2637   */\n  0x01\n    /* \"#utility.yul\":2632:2646   */\n  shl\n    /* \"#utility.yul\":2628:2650   */\n  add\n    /* \"#utility.yul\":2622:2626   */\n  dup6\n    /* \"#utility.yul\":2615:2651   */\n  sstore\n    /* \"#utility.yul\":1968:2912   */\ntag_76:\n  pop\n  pop\n  pop\n  pop\n    /* \"#utility.yul\":1573:2918   */\n  pop\n  pop\n  jump\t// out\n    /* \"#utility.yul\":3283:3505   */\ntag_31:\n    /* \"#utility.yul\":3348:3357   */\n  dup1\n  dup3\n  add\n    /* \"#utility.yul\":3369:3379   */\n  dup1\n  dup3\n  gt\n    /* \"#utility.yul\":3366:3499   */\n  iszero\n  tag_87\n  jumpi\n    /* \"#utility.yul\":3421:3431   */\n  0x4e487b71\n    /* \"#utility.yul\":3416:3419   */\n  0xe0\n    /* \"#utility.yul\":3412:3432   */\n  shl\n    /* \"#utility.yul\":3409:3410   */\n  0x00\n    /* \"#utility.yul\":3402:3433   */\n  mstore\n    /* \"#utility.yul\":3456:3460   */\n  0x11\n    /* \"#utility.yul\":3453:3454   */\n  0x04\n    /* \"#utility.yul\":3446:3461   */\n  mstore\n    /* \"#utility.yul\":3484:3488   */\n  0x24\n    /* \"#utility.yul\":3481:3482   */\n  0x00\n    /* \"#utility.yul\":3474:3489   */\n  revert\n    /* \"#utility.yul\":3366:3499   */\ntag_87:\n    /* \"#utility.yul\":3283:3505   */\n  swap3\n  swap2\n  pop\n  pop\n  jump\t// out\n    /* \"#utility.yul\":3692:3982   */\ntag_40:\n    /* \"#utility.yul\":3762:3768   */\n  0x00\n    /* \"#utility.yul\":3815:3817   */\n  0x20\n    /* \"#utility.yul\":3803:3812   */\n  dup3\n    /* \"#utility.yul\":3794:3801   */\n  dup5\n    /* \"#utility.yul\":3790:3813   */\n  sub\n    /* \"#utility.yul\":3786:3818   */\n  slt\n    /* \"#utility.yul\":3783:3835   */\n  iszero\n  tag_90\n  jumpi\n    /* \"#utility.yul\":3831:3832   */\n  0x00\n    /* \"#utility.yul\":3828:3829   */\n  dup1\n    /* \"#utility.yul\":3821:3833   */\n  revert\n    /* \"#utility.yul\":3783:3835   */\ntag_90:\n    /* \"#utility.yul\":3857:3873   */\n  dup2\n  mload\n  sub(shl(0xa0, 0x01), 0x01)\n    /* \"#utility.yul\":3902:3933   */\n  dup2\n  and\n    /* \"#utility.yul\":3892:3934   */\n  dup2\n  eq\n    /* \"#utility.yul\":3882:3952   */\n  tag_91\n  jumpi\n    /* \"#utility.yul\":3948:3949   */\n  0x00\n    /* \"#utility.yul\":3945:3946   */\n  dup1\n    /* \"#utility.yul\":3938:3950   */\n  revert\n    /* \"#utility.yul\":3882:3952   */\ntag_91:\n    /* \"#utility.yul\":3971:3976   */\n  swap4\n    /* \"#utility.yul\":3692:3982   */\n  swap3\n  pop\n  pop\n  pop\n  jump\t// out\n    /* \"#utility.yul\":3987:4291   */\ntag_56:\n    /* \"contracts/gainzilla.sol\":1203:11032  contract MemeCoin is ERC20, Ownable {... */\n  dataSize(sub_0)\n  dup1\n  dataOffset(sub_0)\n  0x00\n  codecopy\n  0x00\n  return\nstop\n\nsub_0: assembly {\n        /* \"contracts/gainzilla.sol\":1203:11032  contract MemeCoin is ERC20, Ownable {... */\n      mstore(0x40, 0x80)\n      jumpi(tag_1, lt(calldatasize, 0x04))\n      shr(0xe0, calldataload(0x00))\n      dup1\n      0x9491f94d\n      gt\n      tag_37\n      jumpi\n      dup1\n      0xad5dff73\n      gt\n      tag_38\n      jumpi\n      dup1\n      0xd8d61c40\n      gt\n      tag_39\n      jumpi\n      dup1\n      0xd8d61c40\n      eq\n      tag_32\n      jumpi\n      dup1\n      0xdd62ed3e\n      eq\n      tag_33\n      jumpi\n      dup1\n      0xf2fde38b\n      eq\n      tag_34\n      jumpi\n      dup1\n      0xfe0bb982\n      eq\n      tag_35\n      jumpi\n      dup1\n      0xfe6b751e\n      eq\n      tag_36\n      jumpi\n      0x00\n      dup1\n      revert\n    tag_39:\n      dup1\n      0xad5dff73\n      eq\n      tag_28\n      jumpi\n      dup1\n      0xc0d78655\n      eq\n      tag_29\n      jumpi\n      dup1\n      0xc531b108\n      eq\n      tag_30\n      jumpi\n      dup1\n      0xc95457ff\n      eq\n      tag_31\n      jumpi\n      0x00\n      dup1\n      revert\n    tag_38:\n      dup1\n      0x9fde54f5\n      gt\n      tag_40\n      jumpi\n      dup1\n      0x9fde54f5\n      eq\n      tag_24\n      jumpi\n      dup1\n      0xa457c2d7\n      eq\n      tag_25\n      jumpi\n      dup1\n      0xa8b08982\n      eq\n      tag_26\n      jumpi\n      dup1\n      0xa9059cbb\n      eq\n      tag_27\n      jumpi\n      0x00\n      dup1\n      revert\n    tag_40:\n      dup1\n      0x9491f94d\n      eq\n      tag_20\n      jumpi\n      dup1\n      0x95d89b41\n      eq\n      tag_21\n      jumpi\n      dup1\n      0x960bfe04\n      eq\n      tag_22\n      jumpi\n      dup1\n      0x9d82190f\n      eq\n      tag_23\n      jumpi\n      0x00\n      dup1\n      revert\n    tag_37:\n      dup1\n      0x333f4b3d\n      gt\n      tag_41\n      jumpi\n      dup1\n      0x715018a6\n      gt\n      tag_42\n      jumpi\n      dup1\n      0x715018a6\n      eq\n      tag_15\n      jumpi\n      dup1\n      0x7773168f\n      eq\n      tag_16\n      jumpi\n      dup1\n      0x787a08a6\n      eq\n      tag_17\n      jumpi\n      dup1\n      0x8da5cb5b\n      eq\n      tag_18\n      jumpi\n      dup1\n      0x8f9a55c0\n      eq\n      tag_19\n      jumpi\n      0x00\n      dup1\n      revert\n    tag_42:\n      dup1\n      0x333f4b3d\n      eq\n      tag_11\n      jumpi\n      dup1\n      0x39509351\n      eq\n      tag_12\n      jumpi\n      dup1\n      0x599ca397\n      eq\n      tag_13\n      jumpi\n      dup1\n      0x70a08231\n      eq\n      tag_14\n      jumpi\n      0x00\n      dup1\n      revert\n    tag_41:\n      dup1\n      0x18160ddd\n      gt\n      tag_43\n      jumpi\n      dup1\n      0x18160ddd\n      eq\n      tag_7\n      jumpi\n      dup1\n      0x23b872dd\n      eq\n      tag_8\n      jumpi\n      dup1\n      0x313ce567\n      eq\n      tag_9\n      jumpi\n      dup1\n      0x3268cc56\n      eq\n      tag_10\n      jumpi\n      0x00\n      dup1\n      revert\n    tag_43:\n      dup1\n      0x0445b667\n      eq\n      tag_3\n      jumpi\n      dup1\n      0x06fdde03\n      eq\n      tag_4\n      jumpi\n      dup1\n      0x095ea7b3\n      eq\n      tag_5\n      jumpi\n      dup1\n      0x1569d181\n      eq\n      tag_6\n      jumpi\n      0x00\n      dup1\n      revert\n    tag_1:\n      jumpi(tag_2, calldatasize)\n      stop\n    tag_2:\n      0x00\n      dup1\n      revert\n        /* \"contracts/gainzilla.sol\":1639:1689  uint256 public swapThreshold = TOTAL_SUPPLY / 1000 */\n    tag_3:\n      callvalue\n      dup1\n      iszero\n      tag_46\n      jumpi\n      0x00\n      dup1\n      revert\n    tag_46:\n      pop\n      tag_47\n      sload(0x09)\n      dup2\n      jump\n    tag_47:\n      mload(0x40)\n        /* \"#utility.yul\":160:185   */\n      swap1\n      dup2\n      mstore\n        /* \"#utility.yul\":148:150   */\n      0x20\n        /* \"#utility.yul\":133:151   */\n      add\n        /* \"contracts/gainzilla.sol\":1639:1689  uint256 public swapThreshold = TOTAL_SUPPLY / 1000 */\n    tag_49:\n      mload(0x40)\n      dup1\n      swap2\n      sub\n      swap1\n      return\n        /* \"@openzeppelin/contracts@4.9.3/token/ERC20/ERC20.sol\":2158:2256  function name() public view virtual override returns (string memory) {... */\n    tag_4:\n      callvalue\n      dup1\n      iszero\n      tag_51\n      jumpi\n      0x00\n      dup1\n      revert\n    tag_51:\n      pop\n      tag_52\n      tag_53\n      jump\t// in\n    tag_52:\n      mload(0x40)\n      tag_49\n      swap2\n      swap1\n      tag_55\n      jump\t// in\n        /* \"@openzeppelin/contracts@4.9.3/token/ERC20/ERC20.sol\":4444:4641  function approve(address spender, uint256 amount) public virtual override returns (bool) {... */\n    tag_5:\n      callvalue\n      dup1\n      iszero\n      tag_56\n      jumpi\n      0x00\n      dup1\n      revert\n    tag_56:\n      pop\n      tag_57\n      tag_58\n      calldatasize\n      0x04\n      tag_59\n      jump\t// in\n    tag_58:\n      tag_60\n      jump\t// in\n    tag_57:\n      mload(0x40)\n        /* \"#utility.yul\":1240:1254   */\n      swap1\n      iszero\n        /* \"#utility.yul\":1233:1255   */\n      iszero\n        /* \"#utility.yul\":1215:1256   */\n      dup2\n      mstore\n        /* \"#utility.yul\":1203:1205   */\n      0x20\n        /* \"#utility.yul\":1188:1206   */\n      add\n        /* \"@openzeppelin/contracts@4.9.3/token/ERC20/ERC20.sol\":4444:4641  function approve(address spender, uint256 amount) public virtual override returns (bool) {... */\n      tag_49\n        /* \"#utility.yul\":1075:1262   */\n      jump\n        /* \"contracts/gainzilla.sol\":8699:8992  function setTaxRates(uint16 buyLp, uint16 buyEco, uint16 sellLp, uint16 sellEco) external onlyOwner {... */\n    tag_6:\n      callvalue\n      dup1\n      iszero\n      tag_63\n      jumpi\n      0x00\n      dup1\n      revert\n    tag_63:\n      pop\n      tag_64\n      tag_65\n      calldatasize\n      0x04\n      tag_66\n      jump\t// in\n    tag_65:\n      tag_67\n      jump\t// in\n    tag_64:\n      stop\n        /* \"@openzeppelin/contracts@4.9.3/token/ERC20/ERC20.sol\":3255:3361  function totalSupply() public view virtual override returns (uint256) {... */\n    tag_7:\n      callvalue\n      dup1\n      iszero\n      tag_68\n      jumpi\n      0x00\n      dup1\n      revert\n    tag_68:\n      pop\n        /* \"@openzeppelin/contracts@4.9.3/token/ERC20/ERC20.sol\":3342:3354  _totalSupply */\n      sload(0x02)\n        /* \"@openzeppelin/contracts@4.9.3/token/ERC20/ERC20.sol\":3255:3361  function totalSupply() public view virtual override returns (uint256) {... */\n      jump(tag_47)\n        /* \"@openzeppelin/contracts@4.9.3/token/ERC20/ERC20.sol\":5203:5459  function transferFrom(address from, address to, uint256 amount) public virtual override returns (bool) {... */\n    tag_8:\n      callvalue\n      dup1\n      iszero\n      tag_72\n      jumpi\n      0x00\n      dup1\n      revert\n    tag_72:\n      pop\n      tag_57\n      tag_74\n      calldatasize\n      0x04\n      tag_75\n      jump\t// in\n    tag_74:\n      tag_76\n      jump\t// in\n        /* \"@openzeppelin/contracts@4.9.3/token/ERC20/ERC20.sol\":3104:3195  function decimals() public view virtual override returns (uint8) {... */\n    tag_9:\n      callvalue\n      dup1\n      iszero\n      tag_78\n      jumpi\n      0x00\n      dup1\n      revert\n    tag_78:\n      pop\n      mload(0x40)\n        /* \"@openzeppelin/contracts@4.9.3/token/ERC20/ERC20.sol\":3186:3188  18 */\n      0x12\n        /* \"#utility.yul\":2440:2476   */\n      dup2\n      mstore\n        /* \"#utility.yul\":2428:2430   */\n      0x20\n        /* \"#utility.yul\":2413:2431   */\n      add\n        /* \"@openzeppelin/contracts@4.9.3/token/ERC20/ERC20.sol\":3104:3195  function decimals() public view virtual override returns (uint8) {... */\n      tag_49\n        /* \"#utility.yul\":2298:2482   */\n      jump\n        /* \"contracts/gainzilla.sol\":2164:2192  address public routerAddress */\n    tag_10:\n      callvalue\n      dup1\n      iszero\n      tag_83\n      jumpi\n      0x00\n      dup1\n      revert\n    tag_83:\n      pop\n      sload(0x13)\n      tag_84\n      swap1\n      sub(shl(0xa0, 0x01), 0x01)\n      and\n      dup2\n      jump\n    tag_84:\n      mload(0x40)\n      sub(shl(0xa0, 0x01), 0x01)\n        /* \"#utility.yul\":2651:2683   */\n      swap1\n      swap2\n      and\n        /* \"#utility.yul\":2633:2684   */\n      dup2\n      mstore\n        /* \"#utility.yul\":2621:2623   */\n      0x20\n        /* \"#utility.yul\":2606:2624   */\n      add\n        /* \"contracts/gainzilla.sol\":2164:2192  address public routerAddress */\n      tag_49\n        /* \"#utility.yul\":2487:2690   */\n      jump\n        /* \"contracts/gainzilla.sol\":1563:1587  TaxRates public taxRates */\n    tag_11:\n      callvalue\n      dup1\n      iszero\n      tag_88\n      jumpi\n      0x00\n      dup1\n      revert\n    tag_88:\n      pop\n      sload(0x07)\n      tag_89\n      swap1\n      0xffff\n      dup1\n      dup3\n      and\n      swap2\n      0x010000\n      dup2\n      div\n      dup3\n      and\n      swap2\n      shl(0x20, 0x01)\n      dup3\n      div\n      dup2\n      and\n      swap2\n      shl(0x30, 0x01)\n      swap1\n      div\n      and\n      dup5\n      jump\n    tag_89:\n      0x40\n      dup1\n      mload\n        /* \"#utility.yul\":2928:2934   */\n      0xffff\n        /* \"#utility.yul\":2961:2976   */\n      swap6\n      dup7\n      and\n        /* \"#utility.yul\":2943:2977   */\n      dup2\n      mstore\n        /* \"#utility.yul\":3013:3028   */\n      swap4\n      dup6\n      and\n        /* \"#utility.yul\":3008:3010   */\n      0x20\n        /* \"#utility.yul\":2993:3011   */\n      dup6\n      add\n        /* \"#utility.yul\":2986:3029   */\n      mstore\n        /* \"#utility.yul\":3065:3080   */\n      swap2\n      dup5\n      and\n        /* \"#utility.yul\":3045:3063   */\n      swap2\n      dup4\n      add\n        /* \"#utility.yul\":3038:3081   */\n      swap2\n      swap1\n      swap2\n      mstore\n        /* \"#utility.yul\":3117:3132   */\n      swap1\n      swap2\n      and\n        /* \"#utility.yul\":3112:3114   */\n      0x60\n        /* \"#utility.yul\":3097:3115   */\n      dup3\n      add\n        /* \"#utility.yul\":3090:3133   */\n      mstore\n        /* \"#utility.yul\":2905:2908   */\n      0x80\n        /* \"#utility.yul\":2890:2909   */\n      add\n        /* \"contracts/gainzilla.sol\":1563:1587  TaxRates public taxRates */\n      tag_49\n        /* \"#utility.yul\":2695:3139   */\n      jump\n        /* \"@openzeppelin/contracts@4.9.3/token/ERC20/ERC20.sol\":5854:6088  function increaseAllowance(address spender, uint256 addedValue) public virtual returns (bool) {... */\n    tag_12:\n      callvalue\n      dup1\n      iszero\n      tag_93\n      jumpi\n      0x00\n      dup1\n      revert\n    tag_93:\n      pop\n      tag_57\n      tag_95\n      calldatasize\n      0x04\n      tag_59\n      jump\t// in\n    tag_95:\n      tag_96\n      jump\t// in\n        /* \"contracts/gainzilla.sol\":1346:1386  uint256 public maxWalletPercentage = 100 */\n    tag_13:\n      callvalue\n      dup1\n      iszero\n      tag_98\n      jumpi\n      0x00\n      dup1\n      revert\n    tag_98:\n      pop\n      tag_47\n      sload(0x06)\n      dup2\n      jump\n        /* \"@openzeppelin/contracts@4.9.3/token/ERC20/ERC20.sol\":3419:3544  function balanceOf(address account) public view virtual override returns (uint256) {... */\n    tag_14:\n      callvalue\n      dup1\n      iszero\n      tag_102\n      jumpi\n      0x00\n      dup1\n      revert\n    tag_102:\n      pop\n      tag_47\n      tag_104\n      calldatasize\n      0x04\n      tag_105\n      jump\t// in\n    tag_104:\n      sub(shl(0xa0, 0x01), 0x01)\n        /* \"@openzeppelin/contracts@4.9.3/token/ERC20/ERC20.sol\":3519:3537  _balances[account] */\n      and\n        /* \"@openzeppelin/contracts@4.9.3/token/ERC20/ERC20.sol\":3493:3500  uint256 */\n      0x00\n        /* \"@openzeppelin/contracts@4.9.3/token/ERC20/ERC20.sol\":3519:3537  _balances[account] */\n      swap1\n      dup2\n      mstore\n      0x20\n      dup2\n      swap1\n      mstore\n      0x40\n      swap1\n      keccak256\n      sload\n      swap1\n        /* \"@openzeppelin/contracts@4.9.3/token/ERC20/ERC20.sol\":3419:3544  function balanceOf(address account) public view virtual override returns (uint256) {... */\n      jump\n        /* \"@openzeppelin/contracts@4.9.3/access/Ownable.sol\":1824:1925  function renounceOwnership() public virtual onlyOwner {... */\n    tag_15:\n      callvalue\n      dup1\n      iszero\n      tag_108\n      jumpi\n      0x00\n      dup1\n      revert\n    tag_108:\n      pop\n      tag_64\n      tag_110\n      jump\t// in\n        /* \"contracts/gainzilla.sol\":8119:8527  function priceDeviation() public view returns (int256) {... */\n    tag_16:\n      callvalue\n      dup1\n      iszero\n      tag_111\n      jumpi\n      0x00\n      dup1\n      revert\n    tag_111:\n      pop\n      tag_47\n      tag_113\n      jump\t// in\n        /* \"contracts/gainzilla.sol\":1920:1950  CooldownConfig public cooldown */\n    tag_17:\n      callvalue\n      dup1\n      iszero\n      tag_116\n      jumpi\n      0x00\n      dup1\n      revert\n    tag_116:\n      pop\n      sload(0x0d)\n      tag_117\n      swap1\n      0xff\n      dup2\n      and\n      swap1\n      0x0100\n      swap1\n      div\n      0xffffffff\n      and\n      dup3\n      jump\n    tag_117:\n      0x40\n      dup1\n      mload\n        /* \"#utility.yul\":3767:3781   */\n      swap3\n      iszero\n        /* \"#utility.yul\":3760:3782   */\n      iszero\n        /* \"#utility.yul\":3742:3783   */\n      dup4\n      mstore\n        /* \"#utility.yul\":3831:3841   */\n      0xffffffff\n        /* \"#utility.yul\":3819:3842   */\n      swap1\n      swap2\n      and\n        /* \"#utility.yul\":3814:3816   */\n      0x20\n        /* \"#utility.yul\":3799:3817   */\n      dup4\n      add\n        /* \"#utility.yul\":3792:3843   */\n      mstore\n        /* \"#utility.yul\":3715:3733   */\n      add\n        /* \"contracts/gainzilla.sol\":1920:1950  CooldownConfig public cooldown */\n      tag_49\n        /* \"#utility.yul\":3576:3849   */\n      jump\n        /* \"@openzeppelin/contracts@4.9.3/access/Ownable.sol\":1201:1286  function owner() public view virtual returns (address) {... */\n    tag_18:\n      callvalue\n      dup1\n      iszero\n      tag_121\n      jumpi\n      0x00\n      dup1\n      revert\n    tag_121:\n      pop\n        /* \"@openzeppelin/contracts@4.9.3/access/Ownable.sol\":1273:1279  _owner */\n      and(sub(shl(0xa0, 0x01), 0x01), sload(0x05))\n        /* \"@openzeppelin/contracts@4.9.3/access/Ownable.sol\":1201:1286  function owner() public view virtual returns (address) {... */\n      jump(tag_84)\n        /* \"contracts/gainzilla.sol\":10661:10794  function _maxWalletSize() public view returns (uint256) {... */\n    tag_19:\n      callvalue\n      dup1\n      iszero\n      tag_125\n      jumpi\n      0x00\n      dup1\n      revert\n    tag_125:\n      pop\n      tag_47\n      tag_127\n      jump\t// in\n        /* \"contracts/gainzilla.sol\":7218:7571  function pairPrice() public view returns (uint256) {... */\n    tag_20:\n      callvalue\n      dup1\n      iszero\n      tag_129\n      jumpi\n      0x00\n      dup1\n      revert\n    tag_129:\n      pop\n      tag_47\n      tag_131\n      jump\t// in\n        /* \"@openzeppelin/contracts@4.9.3/token/ERC20/ERC20.sol\":2369:2471  function symbol() public view virtual override returns (string memory) {... */\n    tag_21:\n      callvalue\n      dup1\n      iszero\n      tag_133\n      jumpi\n      0x00\n      dup1\n      revert\n    tag_133:\n      pop\n      tag_52\n      tag_135\n      jump\t// in\n        /* \"contracts/gainzilla.sol\":8998:9100  function setThreshold(uint256 threshold) external onlyOwner {... */\n    tag_22:\n      callvalue\n      dup1\n      iszero\n      tag_137\n      jumpi\n      0x00\n      dup1\n      revert\n    tag_137:\n      pop\n      tag_64\n      tag_139\n      calldatasize\n      0x04\n      tag_140\n      jump\t// in\n    tag_139:\n      tag_141\n      jump\t// in\n        /* \"contracts/gainzilla.sol\":7577:8113  function cooldownRemaining(address account) public view returns (... */\n    tag_23:\n      callvalue\n      dup1\n      iszero\n      tag_142\n      jumpi\n      0x00\n      dup1\n      revert\n    tag_142:\n      pop\n      tag_143\n      tag_144\n      calldatasize\n      0x04\n      tag_105\n      jump\t// in\n    tag_144:\n      tag_145\n      jump\t// in\n    tag_143:\n      0x40\n      dup1\n      mload\n        /* \"#utility.yul\":4270:4295   */\n      swap5\n      dup6\n      mstore\n        /* \"#utility.yul\":4326:4328   */\n      0x20\n        /* \"#utility.yul\":4311:4329   */\n      dup6\n      add\n        /* \"#utility.yul\":4304:4338   */\n      swap4\n      swap1\n      swap4\n      mstore\n        /* \"#utility.yul\":4354:4372   */\n      swap2\n      dup4\n      add\n        /* \"#utility.yul\":4347:4381   */\n      mstore\n        /* \"#utility.yul\":4412:4414   */\n      0x60\n        /* \"#utility.yul\":4397:4415   */\n      dup3\n      add\n        /* \"#utility.yul\":4390:4424   */\n      mstore\n        /* \"#utility.yul\":4257:4260   */\n      0x80\n        /* \"#utility.yul\":4242:4261   */\n      add\n        /* \"contracts/gainzilla.sol\":7577:8113  function cooldownRemaining(address account) public view returns (... */\n      tag_49\n        /* \"#utility.yul\":4039:4430   */\n      jump\n        /* \"contracts/gainzilla.sol\":9479:9590  function setExempt(address account, bool exempt) external onlyOwner {... */\n    tag_24:\n      callvalue\n      dup1\n      iszero\n      tag_148\n      jumpi\n      0x00\n      dup1\n      revert\n    tag_148:\n      pop\n      tag_64\n      tag_150\n      calldatasize\n      0x04\n      tag_151\n      jump\t// in\n    tag_150:\n      tag_152\n      jump\t// in\n        /* \"@openzeppelin/contracts@4.9.3/token/ERC20/ERC20.sol\":6575:7002  function decreaseAllowance(address spender, uint256 subtractedValue) public virtual returns (bool) {... */\n    tag_25:\n      callvalue\n      dup1\n      iszero\n      tag_153\n      jumpi\n      0x00\n      dup1\n      revert\n    tag_153:\n      pop\n      tag_57\n      tag_155\n      calldatasize\n      0x04\n      tag_59\n      jump\t// in\n    tag_155:\n      tag_156\n      jump\t// in\n        /* \"contracts/gainzilla.sol\":2198:2224  address public pairAddress */\n    tag_26:\n      callvalue\n      dup1\n      iszero\n      tag_158\n      jumpi\n      0x00\n      dup1\n      revert\n    tag_158:\n      pop\n      sload(0x14)\n      tag_84\n      swap1\n      sub(shl(0xa0, 0x01), 0x01)\n      and\n      dup2\n      jump\n        /* \"@openzeppelin/contracts@4.9.3/token/ERC20/ERC20.sol\":3740:3929  function transfer(address to, uint256 amount) public virtual override returns (bool) {... */\n    tag_27:\n      callvalue\n      dup1\n      iszero\n      tag_162\n      jumpi\n      0x00\n      dup1\n      revert\n    tag_162:\n      pop\n      tag_57\n      tag_164\n      calldatasize\n      0x04\n      tag_59\n      jump\t// in\n    tag_164:\n      tag_165\n      jump\t// in\n        /* \"contracts/gainzilla.sol\":2321:2361  mapping(address => bool) public isExempt */\n    tag_28:\n      callvalue\n      dup1\n      iszero\n      tag_167\n      jumpi\n      0x00\n      dup1\n      revert\n    tag_167:\n      pop\n      tag_57\n      tag_169\n      calldatasize\n      0x04\n      tag_105\n      jump\t// in\n    tag_169:\n      mstore(0x20, 0x15)\n      0x00\n      swap1\n      dup2\n      mstore\n      0x40\n      swap1\n      keccak256\n      sload\n      0xff\n      and\n      dup2\n      jump\n        /* \"contracts/gainzilla.sol\":8533:8693  function setRouter(address newRouter) external onlyOwner {... */\n    tag_29:\n      callvalue\n      dup1\n      iszero\n      tag_172\n      jumpi\n      0x00\n      dup1\n      revert\n    tag_172:\n      pop\n      tag_64\n      tag_174\n      calldatasize\n      0x04\n      tag_105\n      jump\t// in\n    tag_174:\n      tag_175\n      jump\t// in\n        /* \"contracts/gainzilla.sol\":1729:1758  uint256 public accumulatedEco */\n    tag_30:\n      callvalue\n      dup1\n      iszero\n      tag_176\n      jumpi\n      0x00\n      dup1\n      revert\n    tag_176:\n      pop\n      tag_47\n      sload(0x0b)\n      dup2\n      jump\n        /* \"contracts/gainzilla.sol\":2125:2157  DiamondFloor public diamondFloor */\n    tag_31:\n      callvalue\n      dup1\n      iszero\n      tag_180\n      jumpi\n      0x00\n      dup1\n      revert\n    tag_180:\n      pop\n      sload(0x0f)\n      sload(0x10)\n      sload(0x11)\n      sload(0x12)\n      tag_181\n      swap4\n      0xff\n      dup1\n      dup3\n      and\n      swap5\n      0x0100\n      swap1\n      swap3\n      div\n      0xffff\n      and\n      swap4\n      swap2\n      swap3\n      swap2\n      and\n      swap1\n      dup6\n      jump\n    tag_181:\n      0x40\n      dup1\n      mload\n        /* \"#utility.yul\":5190:5204   */\n      swap6\n      iszero\n        /* \"#utility.yul\":5183:5205   */\n      iszero\n        /* \"#utility.yul\":5165:5206   */\n      dup7\n      mstore\n        /* \"#utility.yul\":5254:5260   */\n      0xffff\n        /* \"#utility.yul\":5242:5261   */\n      swap1\n      swap5\n      and\n        /* \"#utility.yul\":5237:5239   */\n      0x20\n        /* \"#utility.yul\":5222:5240   */\n      dup7\n      add\n        /* \"#utility.yul\":5215:5262   */\n      mstore\n        /* \"#utility.yul\":5278:5296   */\n      swap3\n      dup5\n      add\n        /* \"#utility.yul\":5271:5305   */\n      swap2\n      swap1\n      swap2\n      mstore\n        /* \"#utility.yul\":5348:5362   */\n      iszero\n        /* \"#utility.yul\":5341:5363   */\n      iszero\n        /* \"#utility.yul\":5336:5338   */\n      0x60\n        /* \"#utility.yul\":5321:5339   */\n      dup4\n      add\n        /* \"#utility.yul\":5314:5364   */\n      mstore\n        /* \"#utility.yul\":5395:5398   */\n      0x80\n        /* \"#utility.yul\":5380:5399   */\n      dup3\n      add\n        /* \"#utility.yul\":5373:5408   */\n      mstore\n        /* \"#utility.yul\":5152:5155   */\n      0xa0\n        /* \"#utility.yul\":5137:5156   */\n      add\n        /* \"contracts/gainzilla.sol\":2125:2157  DiamondFloor public diamondFloor */\n      tag_49\n        /* \"#utility.yul\":4920:5414   */\n      jump\n        /* \"contracts/gainzilla.sol\":1695:1723  uint256 public accumulatedLp */\n    tag_32:\n      callvalue\n      dup1\n      iszero\n      tag_185\n      jumpi\n      0x00\n      dup1\n      revert\n    tag_185:\n      pop\n      tag_47\n      sload(0x0a)\n      dup2\n      jump\n        /* \"@openzeppelin/contracts@4.9.3/token/ERC20/ERC20.sol\":3987:4136  function allowance(address owner, address spender) public view virtual override returns (uint256) {... */\n    tag_33:\n      callvalue\n      dup1\n      iszero\n      tag_189\n      jumpi\n      0x00\n      dup1\n      revert\n    tag_189:\n      pop\n      tag_47\n      tag_191\n      calldatasize\n      0x04\n      tag_192\n      jump\t// in\n    tag_191:\n      tag_193\n      jump\t// in\n        /* \"@openzeppelin/contracts@4.9.3/access/Ownable.sol\":2074:2272  function transferOwnership(address newOwner) public virtual onlyOwner {... */\n    tag_34:\n      callvalue\n      dup1\n      iszero\n      tag_195\n      jumpi\n      0x00\n      dup1\n      revert\n    tag_195:\n      pop\n      tag_64\n      tag_197\n      calldatasize\n      0x04\n      tag_105\n      jump\t// in\n    tag_197:\n      tag_198\n      jump\t// in\n        /* \"contracts/gainzilla.sol\":9282:9473  function configureDiamondFloor(bool enabled, uint16 triggerPercent) external onlyOwner {... */\n    tag_35:\n      callvalue\n      dup1\n      iszero\n      tag_199\n      jumpi\n      0x00\n      dup1\n      revert\n    tag_199:\n      pop\n      tag_64\n      tag_201\n      calldatasize\n      0x04\n      tag_202\n      jump\t// in\n    tag_201:\n      tag_203\n      jump\t// in\n        /* \"contracts/gainzilla.sol\":9106:9276  function configureCooldown(bool enabled, uint32 duration) external onlyOwner {... */\n    tag_36:\n      callvalue\n      dup1\n      iszero\n      tag_204\n      jumpi\n      0x00\n      dup1\n      revert\n    tag_204:\n      pop\n      tag_64\n      tag_206\n      calldatasize\n      0x04\n      tag_207\n      jump\t// in\n    tag_206:\n      tag_208\n      jump\t// in\n        /* \"@openzeppelin/contracts@4.9.3/token/ERC20/ERC20.sol\":2158:2256  function name() public view virtual override returns (string memory) {... */\n    tag_53:\n        /* \"@openzeppelin/contracts@4.9.3/token/ERC20/ERC20.sol\":2212:2225  string memory */\n      0x60\n        /* \"@openzeppelin/contracts@4.9.3/token/ERC20/ERC20.sol\":2244:2249  _name */\n      0x03\n        /* \"@openzeppelin/contracts@4.9.3/token/ERC20/ERC20.sol\":2237:2249  return _name */\n      dup1\n      sload\n      tag_210\n      swap1\n      tag_211\n      jump\t// in\n    tag_210:\n      dup1\n      0x1f\n      add\n      0x20\n      dup1\n      swap2\n      div\n      mul\n      0x20\n      add\n      mload(0x40)\n      swap1\n      dup2\n      add\n      0x40\n      mstore\n      dup1\n      swap3\n      swap2\n      swap1\n      dup2\n      dup2\n      mstore\n      0x20\n      add\n      dup3\n      dup1\n      sload\n      tag_212\n      swap1\n      tag_211\n      jump\t// in\n    tag_212:\n      dup1\n      iszero\n      tag_213\n      jumpi\n      dup1\n      0x1f\n      lt\n      tag_214\n      jumpi\n      0x0100\n      dup1\n      dup4\n      sload\n      div\n      mul\n      dup4\n      mstore\n      swap2\n      0x20\n      add\n      swap2\n      jump(tag_213)\n    tag_214:\n      dup3\n      add\n      swap2\n      swap1\n      0x00\n      mstore\n      keccak256(0x00, 0x20)\n      swap1\n    tag_215:\n      dup2\n      sload\n      dup2\n      mstore\n      swap1\n      0x01\n      add\n      swap1\n      0x20\n      add\n      dup1\n      dup4\n      gt\n      tag_215\n      jumpi\n      dup3\n      swap1\n      sub\n      0x1f\n      and\n      dup3\n      add\n      swap2\n    tag_213:\n      pop\n      pop\n      pop\n      pop\n      pop\n      swap1\n      pop\n        /* \"@openzeppelin/contracts@4.9.3/token/ERC20/ERC20.sol\":2158:2256  function name() public view virtual override returns (string memory) {... */\n      swap1\n      jump\t// out\n        /* \"@openzeppelin/contracts@4.9.3/token/ERC20/ERC20.sol\":4444:4641  function approve(address spender, uint256 amount) public virtual override returns (bool) {... */\n    tag_60:\n        /* \"@openzeppelin/contracts@4.9.3/token/ERC20/ERC20.sol\":4527:4531  bool */\n      0x00\n        /* \"@openzeppelin/contracts@4.9.3/utils/Context.sol\":719:729  msg.sender */\n      caller\n        /* \"@openzeppelin/contracts@4.9.3/token/ERC20/ERC20.sol\":4581:4613  _approve(owner, spender, amount) */\n      tag_219\n        /* \"@openzeppelin/contracts@4.9.3/utils/Context.sol\":719:729  msg.sender */\n      dup2\n        /* \"@openzeppelin/contracts@4.9.3/token/ERC20/ERC20.sol\":4597:4604  spender */\n      dup6\n        /* \"@openzeppelin/contracts@4.9.3/token/ERC20/ERC20.sol\":4606:4612  amount */\n      dup6\n        /* \"@openzeppelin/contracts@4.9.3/token/ERC20/ERC20.sol\":4581:4589  _approve */\n      tag_220\n        /* \"@openzeppelin/contracts@4.9.3/token/ERC20/ERC20.sol\":4581:4613  _approve(owner, spender, amount) */\n      jump\t// in\n    tag_219:\n        /* \"@openzeppelin/contracts@4.9.3/token/ERC20/ERC20.sol\":4630:4634  true */\n      0x01\n        /* \"@openzeppelin/contracts@4.9.3/token/ERC20/ERC20.sol\":4623:4634  return true */\n      swap2\n      pop\n      pop\n        /* \"@openzeppelin/contracts@4.9.3/token/ERC20/ERC20.sol\":4444:4641  function approve(address spender, uint256 amount) public virtual override returns (bool) {... */\n    tag_216:\n      swap3\n      swap2\n      pop\n      pop\n      jump\t// out\n        /* \"contracts/gainzilla.sol\":8699:8992  function setTaxRates(uint16 buyLp, uint16 buyEco, uint16 sellLp, uint16 sellEco) external onlyOwner {... */\n    tag_67:\n        /* \"@openzeppelin/contracts@4.9.3/access/Ownable.sol\":1094:1107  _checkOwner() */\n      tag_222\n        /* \"@openzeppelin/contracts@4.9.3/access/Ownable.sol\":1094:1105  _checkOwner */\n      tag_223\n        /* \"@openzeppelin/contracts@4.9.3/access/Ownable.sol\":1094:1107  _checkOwner() */\n      jump\t// in\n    tag_222:\n        /* \"contracts/gainzilla.sol\":8835:8839  2500 */\n      0x09c4\n        /* \"contracts/gainzilla.sol\":8817:8831  buyLp + buyEco */\n      tag_225\n        /* \"contracts/gainzilla.sol\":8825:8831  buyEco */\n      dup5\n        /* \"contracts/gainzilla.sol\":8817:8822  buyLp */\n      dup7\n        /* \"contracts/gainzilla.sol\":8817:8831  buyLp + buyEco */\n      tag_226\n      jump\t// in\n    tag_225:\n        /* \"contracts/gainzilla.sol\":8817:8839  buyLp + buyEco <= 2500 */\n      0xffff\n      and\n      gt\n      iszero\n        /* \"contracts/gainzilla.sol\":8809:8860  require(buyLp + buyEco <= 2500, \"Buy tax too high\") */\n      tag_227\n      jumpi\n      mload(0x40)\n      shl(0xe5, 0x461bcd)\n      dup2\n      mstore\n        /* \"#utility.yul\":7405:7407   */\n      0x20\n        /* \"contracts/gainzilla.sol\":8809:8860  require(buyLp + buyEco <= 2500, \"Buy tax too high\") */\n      0x04\n      dup3\n      add\n        /* \"#utility.yul\":7387:7408   */\n      mstore\n        /* \"#utility.yul\":7444:7446   */\n      0x10\n        /* \"#utility.yul\":7424:7442   */\n      0x24\n      dup3\n      add\n        /* \"#utility.yul\":7417:7447   */\n      mstore\n      shl(0x83, 0x084eaf240e8c2f040e8dede40d0d2ced)\n        /* \"#utility.yul\":7463:7481   */\n      0x44\n      dup3\n      add\n        /* \"#utility.yul\":7456:7502   */\n      mstore\n        /* \"#utility.yul\":7519:7537   */\n      0x64\n      add\n        /* \"contracts/gainzilla.sol\":8809:8860  require(buyLp + buyEco <= 2500, \"Buy tax too high\") */\n    tag_228:\n      mload(0x40)\n      dup1\n      swap2\n      sub\n      swap1\n      revert\n    tag_227:\n        /* \"contracts/gainzilla.sol\":8898:8902  2500 */\n      0x09c4\n        /* \"contracts/gainzilla.sol\":8878:8894  sellLp + sellEco */\n      tag_230\n        /* \"contracts/gainzilla.sol\":8887:8894  sellEco */\n      dup3\n        /* \"contracts/gainzilla.sol\":8878:8884  sellLp */\n      dup5\n        /* \"contracts/gainzilla.sol\":8878:8894  sellLp + sellEco */\n      tag_226\n      jump\t// in\n    tag_230:\n        /* \"contracts/gainzilla.sol\":8878:8902  sellLp + sellEco <= 2500 */\n      0xffff\n      and\n      gt\n      iszero\n        /* \"contracts/gainzilla.sol\":8870:8924  require(sellLp + sellEco <= 2500, \"Sell tax too high\") */\n      tag_231\n      jumpi\n      mload(0x40)\n      shl(0xe5, 0x461bcd)\n      dup2\n      mstore\n        /* \"#utility.yul\":7750:7752   */\n      0x20\n        /* \"contracts/gainzilla.sol\":8870:8924  require(sellLp + sellEco <= 2500, \"Sell tax too high\") */\n      0x04\n      dup3\n      add\n        /* \"#utility.yul\":7732:7753   */\n      mstore\n        /* \"#utility.yul\":7789:7791   */\n      0x11\n        /* \"#utility.yul\":7769:7787   */\n      0x24\n      dup3\n      add\n        /* \"#utility.yul\":7762:7792   */\n      mstore\n      shl(0x7b, 0x0a6cad8d840e8c2f040e8dede40d0d2ced)\n        /* \"#utility.yul\":7808:7826   */\n      0x44\n      dup3\n      add\n        /* \"#utility.yul\":7801:7848   */\n      mstore\n        /* \"#utility.yul\":7865:7883   */\n      0x64\n      add\n        /* \"contracts/gainzilla.sol\":8870:8924  require(sellLp + sellEco <= 2500, \"Sell tax too high\") */\n      tag_228\n        /* \"#utility.yul\":7548:7889   */\n      jump\n        /* \"contracts/gainzilla.sol\":8870:8924  require(sellLp + sellEco <= 2500, \"Sell tax too high\") */\n    tag_231:\n        /* \"contracts/gainzilla.sol\":8945:8985  TaxRates(buyLp, buyEco, sellLp, sellEco) */\n      0x40\n      dup1\n      mload\n      0x80\n      dup2\n      add\n      dup3\n      mstore\n      0xffff\n      swap6\n      dup7\n      and\n      dup1\n      dup3\n      mstore\n      swap5\n      dup7\n      and\n      0x20\n      dup3\n      add\n      dup2\n      swap1\n      mstore\n      swap4\n      dup7\n      and\n      swap2\n      dup2\n      add\n      dup3\n      swap1\n      mstore\n      swap2\n      swap1\n      swap5\n      and\n      0x60\n      swap1\n      swap2\n      add\n      dup2\n      swap1\n      mstore\n        /* \"contracts/gainzilla.sol\":8934:8942  taxRates */\n      0x07\n        /* \"contracts/gainzilla.sol\":8934:8985  taxRates = TaxRates(buyLp, buyEco, sellLp, sellEco) */\n      dup1\n      sload\n      not(0xffffffff)\n      and\n      swap1\n      swap4\n      or\n      0x010000\n      swap1\n      swap3\n      mul\n      swap2\n      swap1\n      swap2\n      or\n      not(0xffffffff00000000)\n      and\n      shl(0x20, 0x01)\n      swap1\n      swap4\n      mul\n      not(0xffff000000000000)\n      and\n      swap3\n      swap1\n      swap3\n      or\n      shl(0x30, 0x01)\n      swap1\n      swap3\n      mul\n      swap2\n      swap1\n      swap2\n      or\n      swap1\n      sstore\n        /* \"contracts/gainzilla.sol\":8699:8992  function setTaxRates(uint16 buyLp, uint16 buyEco, uint16 sellLp, uint16 sellEco) external onlyOwner {... */\n      jump\t// out\n        /* \"@openzeppelin/contracts@4.9.3/token/ERC20/ERC20.sol\":5203:5459  function transferFrom(address from, address to, uint256 amount) public virtual override returns (bool) {... */\n    tag_76:\n        /* \"@openzeppelin/contracts@4.9.3/token/ERC20/ERC20.sol\":5300:5304  bool */\n      0x00\n        /* \"@openzeppelin/contracts@4.9.3/utils/Context.sol\":719:729  msg.sender */\n      caller\n        /* \"@openzeppelin/contracts@4.9.3/token/ERC20/ERC20.sol\":5356:5394  _spendAllowance(from, spender, amount) */\n      tag_237\n        /* \"@openzeppelin/contracts@4.9.3/token/ERC20/ERC20.sol\":5372:5376  from */\n      dup6\n        /* \"@openzeppelin/contracts@4.9.3/utils/Context.sol\":719:729  msg.sender */\n      dup3\n        /* \"@openzeppelin/contracts@4.9.3/token/ERC20/ERC20.sol\":5387:5393  amount */\n      dup6\n        /* \"@openzeppelin/contracts@4.9.3/token/ERC20/ERC20.sol\":5356:5371  _spendAllowance */\n      tag_238\n        /* \"@openzeppelin/contracts@4.9.3/token/ERC20/ERC20.sol\":5356:5394  _spendAllowance(from, spender, amount) */\n      jump\t// in\n    tag_237:\n        /* \"@openzeppelin/contracts@4.9.3/token/ERC20/ERC20.sol\":5404:5431  _transfer(from, to, amount) */\n      tag_239\n        /* \"@openzeppelin/contracts@4.9.3/token/ERC20/ERC20.sol\":5414:5418  from */\n      dup6\n        /* \"@openzeppelin/contracts@4.9.3/token/ERC20/ERC20.sol\":5420:5422  to */\n      dup6\n        /* \"@openzeppelin/contracts@4.9.3/token/ERC20/ERC20.sol\":5424:5430  amount */\n      dup6\n        /* \"@openzeppelin/contracts@4.9.3/token/ERC20/ERC20.sol\":5404:5413  _transfer */\n      tag_240\n        /* \"@openzeppelin/contracts@4.9.3/token/ERC20/ERC20.sol\":5404:5431  _transfer(from, to, amount) */\n      jump\t// in\n    tag_239:\n        /* \"@openzeppelin/contracts@4.9.3/token/ERC20/ERC20.sol\":5448:5452  true */\n      0x01\n        /* \"@openzeppelin/contracts@4.9.3/token/ERC20/ERC20.sol\":5441:5452  return true */\n      swap2\n      pop\n      pop\n        /* \"@openzeppelin/contracts@4.9.3/token/ERC20/ERC20.sol\":5203:5459  function transferFrom(address from, address to, uint256 amount) public virtual override returns (bool) {... */\n    tag_235:\n      swap4\n      swap3\n      pop\n      pop\n      pop\n      jump\t// out\n        /* \"@openzeppelin/contracts@4.9.3/token/ERC20/ERC20.sol\":5854:6088  function increaseAllowance(address spender, uint256 addedValue) public virtual returns (bool) {... */\n    tag_96:\n        /* \"@openzeppelin/contracts@4.9.3/token/ERC20/ERC20.sol\":5942:5946  bool */\n      0x00\n        /* \"@openzeppelin/contracts@4.9.3/utils/Context.sol\":719:729  msg.sender */\n      caller\n        /* \"@openzeppelin/contracts@4.9.3/token/ERC20/ERC20.sol\":5996:6060  _approve(owner, spender, allowance(owner, spender) + addedValue) */\n      tag_219\n        /* \"@openzeppelin/contracts@4.9.3/utils/Context.sol\":719:729  msg.sender */\n      dup2\n        /* \"@openzeppelin/contracts@4.9.3/token/ERC20/ERC20.sol\":6012:6019  spender */\n      dup6\n        /* \"@openzeppelin/contracts@4.9.3/token/ERC20/ERC20.sol\":6049:6059  addedValue */\n      dup6\n        /* \"@openzeppelin/contracts@4.9.3/token/ERC20/ERC20.sol\":6021:6046  allowance(owner, spender) */\n      tag_245\n        /* \"@openzeppelin/contracts@4.9.3/utils/Context.sol\":719:729  msg.sender */\n      dup4\n        /* \"@openzeppelin/contracts@4.9.3/token/ERC20/ERC20.sol\":6012:6019  spender */\n      dup4\n        /* \"@openzeppelin/contracts@4.9.3/token/ERC20/ERC20.sol\":6021:6030  allowance */\n      tag_193\n        /* \"@openzeppelin/contracts@4.9.3/token/ERC20/ERC20.sol\":6021:6046  allowance(owner, spender) */\n      jump\t// in\n    tag_245:\n        /* \"@openzeppelin/contracts@4.9.3/token/ERC20/ERC20.sol\":6021:6059  allowance(owner, spender) + addedValue */\n      tag_246\n      swap2\n      swap1\n      tag_247\n      jump\t// in\n    tag_246:\n        /* \"@openzeppelin/contracts@4.9.3/token/ERC20/ERC20.sol\":5996:6004  _approve */\n      tag_220\n        /* \"@openzeppelin/contracts@4.9.3/token/ERC20/ERC20.sol\":5996:6060  _approve(owner, spender, allowance(owner, spender) + addedValue) */\n      jump\t// in\n        /* \"@openzeppelin/contracts@4.9.3/access/Ownable.sol\":1824:1925  function renounceOwnership() public virtual onlyOwner {... */\n    tag_110:\n        /* \"@openzeppelin/contracts@4.9.3/access/Ownable.sol\":1094:1107  _checkOwner() */\n      tag_250\n        /* \"@openzeppelin/contracts@4.9.3/access/Ownable.sol\":1094:1105  _checkOwner */\n      tag_223\n        /* \"@openzeppelin/contracts@4.9.3/access/Ownable.sol\":1094:1107  _checkOwner() */\n      jump\t// in\n    tag_250:\n        /* \"@openzeppelin/contracts@4.9.3/access/Ownable.sol\":1888:1918  _transferOwnership(address(0)) */\n      tag_252\n        /* \"@openzeppelin/contracts@4.9.3/access/Ownable.sol\":1915:1916  0 */\n      0x00\n        /* \"@openzeppelin/contracts@4.9.3/access/Ownable.sol\":1888:1906  _transferOwnership */\n      tag_253\n        /* \"@openzeppelin/contracts@4.9.3/access/Ownable.sol\":1888:1918  _transferOwnership(address(0)) */\n      jump\t// in\n    tag_252:\n        /* \"@openzeppelin/contracts@4.9.3/access/Ownable.sol\":1824:1925  function renounceOwnership() public virtual onlyOwner {... */\n      jump\t// out\n        /* \"contracts/gainzilla.sol\":8119:8527  function priceDeviation() public view returns (int256) {... */\n    tag_113:\n        /* \"contracts/gainzilla.sol\":8188:8209  diamondFloor.athPrice */\n      sload(0x10)\n        /* \"contracts/gainzilla.sol\":8166:8172  int256 */\n      0x00\n      swap1\n        /* \"contracts/gainzilla.sol\":8188:8214  diamondFloor.athPrice == 0 */\n      dup2\n      sub\n        /* \"contracts/gainzilla.sol\":8184:8224  if (diamondFloor.athPrice == 0) return 0 */\n      tag_255\n      jumpi\n      pop\n        /* \"contracts/gainzilla.sol\":8223:8224  0 */\n      0x00\n      swap1\n        /* \"contracts/gainzilla.sol\":8119:8527  function priceDeviation() public view returns (int256) {... */\n      jump\t// out\n        /* \"contracts/gainzilla.sol\":8184:8224  if (diamondFloor.athPrice == 0) return 0 */\n    tag_255:\n        /* \"contracts/gainzilla.sol\":8234:8254  uint256 currentPrice */\n      0x00\n        /* \"contracts/gainzilla.sol\":8257:8268  pairPrice() */\n      tag_256\n        /* \"contracts/gainzilla.sol\":8257:8266  pairPrice */\n      tag_131\n        /* \"contracts/gainzilla.sol\":8257:8268  pairPrice() */\n      jump\t// in\n    tag_256:\n        /* \"contracts/gainzilla.sol\":8300:8321  diamondFloor.athPrice */\n      sload(0x10)\n        /* \"contracts/gainzilla.sol\":8234:8268  uint256 currentPrice = pairPrice() */\n      swap1\n      swap2\n      pop\n        /* \"contracts/gainzilla.sol\":8285:8321  currentPrice > diamondFloor.athPrice */\n      dup2\n      gt\n        /* \"contracts/gainzilla.sol\":8285:8520  currentPrice > diamondFloor.athPrice ?... */\n      tag_257\n      jumpi\n        /* \"contracts/gainzilla.sol\":8497:8518  diamondFloor.athPrice */\n      sload(0x10)\n        /* \"contracts/gainzilla.sol\":8443:8519  diamondFloor.athPrice.sub(currentPrice).mul(1e18).div(diamondFloor.athPrice) */\n      tag_258\n      swap1\n        /* \"contracts/gainzilla.sol\":8443:8492  diamondFloor.athPrice.sub(currentPrice).mul(1e18) */\n      tag_259\n        /* \"contracts/gainzilla.sol\":8487:8491  1e18 */\n      0x0de0b6b3a7640000\n        /* \"contracts/gainzilla.sol\":8443:8482  diamondFloor.athPrice.sub(currentPrice) */\n      tag_260\n        /* \"contracts/gainzilla.sol\":8497:8518  diamondFloor.athPrice */\n      dup4\n        /* \"contracts/gainzilla.sol\":8469:8481  currentPrice */\n      dup7\n        /* \"contracts/gainzilla.sol\":8443:8468  diamondFloor.athPrice.sub */\n      tag_261\n        /* \"contracts/gainzilla.sol\":8443:8482  diamondFloor.athPrice.sub(currentPrice) */\n      jump\t// in\n    tag_260:\n        /* \"contracts/gainzilla.sol\":8443:8486  diamondFloor.athPrice.sub(currentPrice).mul */\n      swap1\n      tag_262\n        /* \"contracts/gainzilla.sol\":8443:8492  diamondFloor.athPrice.sub(currentPrice).mul(1e18) */\n      jump\t// in\n    tag_259:\n        /* \"contracts/gainzilla.sol\":8443:8496  diamondFloor.athPrice.sub(currentPrice).mul(1e18).div */\n      swap1\n      tag_263\n        /* \"contracts/gainzilla.sol\":8443:8519  diamondFloor.athPrice.sub(currentPrice).mul(1e18).div(diamondFloor.athPrice) */\n      jump\t// in\n    tag_258:\n        /* \"contracts/gainzilla.sol\":8435:8520  -int256(diamondFloor.athPrice.sub(currentPrice).mul(1e18).div(diamondFloor.athPrice)) */\n      tag_264\n      swap1\n      tag_265\n      jump\t// in\n    tag_264:\n        /* \"contracts/gainzilla.sol\":8285:8520  currentPrice > diamondFloor.athPrice ?... */\n      jump(tag_267)\n    tag_257:\n        /* \"contracts/gainzilla.sol\":8397:8418  diamondFloor.athPrice */\n      sload(0x10)\n        /* \"contracts/gainzilla.sol\":8343:8419  currentPrice.sub(diamondFloor.athPrice).mul(1e18).div(diamondFloor.athPrice) */\n      tag_267\n      swap1\n        /* \"contracts/gainzilla.sol\":8343:8392  currentPrice.sub(diamondFloor.athPrice).mul(1e18) */\n      tag_259\n        /* \"contracts/gainzilla.sol\":8387:8391  1e18 */\n      0x0de0b6b3a7640000\n        /* \"contracts/gainzilla.sol\":8343:8382  currentPrice.sub(diamondFloor.athPrice) */\n      tag_260\n        /* \"contracts/gainzilla.sol\":8343:8355  currentPrice */\n      dup6\n        /* \"contracts/gainzilla.sol\":8397:8418  diamondFloor.athPrice */\n      dup5\n        /* \"contracts/gainzilla.sol\":8343:8359  currentPrice.sub */\n      tag_261\n        /* \"contracts/gainzilla.sol\":8343:8382  currentPrice.sub(diamondFloor.athPrice) */\n      jump\t// in\n        /* \"contracts/gainzilla.sol\":8343:8419  currentPrice.sub(diamondFloor.athPrice).mul(1e18).div(diamondFloor.athPrice) */\n    tag_267:\n        /* \"contracts/gainzilla.sol\":8278:8520  return currentPrice > diamondFloor.athPrice ?... */\n      swap2\n      pop\n      pop\n        /* \"contracts/gainzilla.sol\":8119:8527  function priceDeviation() public view returns (int256) {... */\n      swap1\n      jump\t// out\n        /* \"contracts/gainzilla.sol\":10661:10794  function _maxWalletSize() public view returns (uint256) {... */\n    tag_127:\n        /* \"contracts/gainzilla.sol\":10708:10715  uint256 */\n      0x00\n        /* \"contracts/gainzilla.sol\":10734:10787  TOTAL_SUPPLY.mul(maxWalletPercentage).div(BP_DIVISOR) */\n      tag_272\n        /* \"contracts/gainzilla.sol\":1430:1436  10_000 */\n      0x2710\n        /* \"contracts/gainzilla.sol\":10734:10771  TOTAL_SUPPLY.mul(maxWalletPercentage) */\n      tag_259\n        /* \"contracts/gainzilla.sol\":10751:10770  maxWalletPercentage */\n      sload(0x06)\n        /* \"contracts/gainzilla.sol\":1318:1340  1_000_000_000 * 10**18 */\n      0x033b2e3c9fd0803ce8000000\n        /* \"contracts/gainzilla.sol\":10734:10750  TOTAL_SUPPLY.mul */\n      tag_262\n      swap1\n        /* \"contracts/gainzilla.sol\":10734:10771  TOTAL_SUPPLY.mul(maxWalletPercentage) */\n      swap2\n      swap1\n      0xffffffff\n      and\n      jump\t// in\n        /* \"contracts/gainzilla.sol\":10734:10787  TOTAL_SUPPLY.mul(maxWalletPercentage).div(BP_DIVISOR) */\n    tag_272:\n        /* \"contracts/gainzilla.sol\":10727:10787  return TOTAL_SUPPLY.mul(maxWalletPercentage).div(BP_DIVISOR) */\n      swap1\n      pop\n        /* \"contracts/gainzilla.sol\":10661:10794  function _maxWalletSize() public view returns (uint256) {... */\n      swap1\n      jump\t// out\n        /* \"contracts/gainzilla.sol\":7218:7571  function pairPrice() public view returns (uint256) {... */\n    tag_131:\n        /* \"contracts/gainzilla.sol\":7260:7267  uint256 */\n      0x00\n        /* \"contracts/gainzilla.sol\":7280:7296  uint112 reserve0 */\n      dup1\n        /* \"contracts/gainzilla.sol\":7298:7314  uint112 reserve1 */\n      0x00\n        /* \"contracts/gainzilla.sol\":7334:7345  pairAddress */\n      0x14\n      0x00\n      swap1\n      sload\n      swap1\n      0x0100\n      exp\n      swap1\n      div\n      sub(shl(0xa0, 0x01), 0x01)\n      and\n      sub(shl(0xa0, 0x01), 0x01)\n        /* \"contracts/gainzilla.sol\":7319:7358  IUniswapV2Pair(pairAddress).getReserves */\n      and\n      0x0902f1ac\n        /* \"contracts/gainzilla.sol\":7319:7360  IUniswapV2Pair(pairAddress).getReserves() */\n      mload(0x40)\n      dup2\n      0xffffffff\n      and\n      0xe0\n      shl\n      dup2\n      mstore\n      0x04\n      add\n      0x60\n      mload(0x40)\n      dup1\n      dup4\n      sub\n      dup2\n      dup7\n      gas\n      staticcall\n      iszero\n      dup1\n      iszero\n      tag_276\n      jumpi\n      returndatasize\n      0x00\n      dup1\n      returndatacopy\n      revert(0x00, returndatasize)\n    tag_276:\n      pop\n      pop\n      pop\n      pop\n      mload(0x40)\n      returndatasize\n      not(0x1f)\n      0x1f\n      dup3\n      add\n      and\n      dup3\n      add\n      dup1\n      0x40\n      mstore\n      pop\n      dup2\n      add\n      swap1\n      tag_277\n      swap2\n      swap1\n      tag_278\n      jump\t// in\n    tag_277:\n        /* \"contracts/gainzilla.sol\":7279:7360  (uint112 reserve0, uint112 reserve1,) = IUniswapV2Pair(pairAddress).getReserves() */\n      pop\n      swap2\n      pop\n      swap2\n      pop\n        /* \"contracts/gainzilla.sol\":7425:7429  this */\n      address\n      sub(shl(0xa0, 0x01), 0x01)\n        /* \"contracts/gainzilla.sol\":7377:7430  IUniswapV2Pair(pairAddress).token0() == address(this) */\n      and\n        /* \"contracts/gainzilla.sol\":7392:7403  pairAddress */\n      0x14\n      0x00\n      swap1\n      sload\n      swap1\n      0x0100\n      exp\n      swap1\n      div\n      sub(shl(0xa0, 0x01), 0x01)\n      and\n      sub(shl(0xa0, 0x01), 0x01)\n        /* \"contracts/gainzilla.sol\":7377:7411  IUniswapV2Pair(pairAddress).token0 */\n      and\n      0x0dfe1681\n        /* \"contracts/gainzilla.sol\":7377:7413  IUniswapV2Pair(pairAddress).token0() */\n      mload(0x40)\n      dup2\n      0xffffffff\n      and\n      0xe0\n      shl\n      dup2\n      mstore\n      0x04\n      add\n      0x20\n      mload(0x40)\n      dup1\n      dup4\n      sub\n      dup2\n      dup7\n      gas\n      staticcall\n      iszero\n      dup1\n      iszero\n      tag_280\n      jumpi\n      returndatasize\n      0x00\n      dup1\n      returndatacopy\n      revert(0x00, returndatasize)\n    tag_280:\n      pop\n      pop\n      pop\n      pop\n      mload(0x40)\n      returndatasize\n      not(0x1f)\n      0x1f\n      dup3\n      add\n      and\n      dup3\n      add\n      dup1\n      0x40\n      mstore\n      pop\n      dup2\n      add\n      swap1\n      tag_281\n      swap2\n      swap1\n      tag_282\n      jump\t// in\n    tag_281:\n      sub(shl(0xa0, 0x01), 0x01)\n        /* \"contracts/gainzilla.sol\":7377:7430  IUniswapV2Pair(pairAddress).token0() == address(this) */\n      and\n      eq\n        /* \"contracts/gainzilla.sol\":7377:7564  IUniswapV2Pair(pairAddress).token0() == address(this) ?... */\n      tag_283\n      jumpi\n        /* \"contracts/gainzilla.sol\":7512:7564  (uint256(reserve0).mul(1e18)).div(uint256(reserve1)) */\n      tag_284\n      sub(shl(0x70, 0x01), 0x01)\n        /* \"contracts/gainzilla.sol\":7546:7563  uint256(reserve1) */\n      dup1\n      dup4\n      and\n      swap1\n        /* \"contracts/gainzilla.sol\":7513:7540  uint256(reserve0).mul(1e18) */\n      tag_259\n      swap1\n        /* \"contracts/gainzilla.sol\":7513:7530  uint256(reserve0) */\n      dup6\n      and\n        /* \"contracts/gainzilla.sol\":7535:7539  1e18 */\n      0x0de0b6b3a7640000\n        /* \"contracts/gainzilla.sol\":7513:7534  uint256(reserve0).mul */\n      tag_262\n        /* \"contracts/gainzilla.sol\":7513:7540  uint256(reserve0).mul(1e18) */\n      jump\t// in\n        /* \"contracts/gainzilla.sol\":7512:7564  (uint256(reserve0).mul(1e18)).div(uint256(reserve1)) */\n    tag_284:\n        /* \"contracts/gainzilla.sol\":7377:7564  IUniswapV2Pair(pairAddress).token0() == address(this) ?... */\n      jump(tag_287)\n    tag_283:\n        /* \"contracts/gainzilla.sol\":7445:7497  (uint256(reserve1).mul(1e18)).div(uint256(reserve0)) */\n      tag_287\n      sub(shl(0x70, 0x01), 0x01)\n        /* \"contracts/gainzilla.sol\":7479:7496  uint256(reserve0) */\n      dup1\n      dup5\n      and\n      swap1\n        /* \"contracts/gainzilla.sol\":7446:7473  uint256(reserve1).mul(1e18) */\n      tag_259\n      swap1\n        /* \"contracts/gainzilla.sol\":7446:7463  uint256(reserve1) */\n      dup5\n      and\n        /* \"contracts/gainzilla.sol\":7468:7472  1e18 */\n      0x0de0b6b3a7640000\n        /* \"contracts/gainzilla.sol\":7446:7467  uint256(reserve1).mul */\n      tag_262\n        /* \"contracts/gainzilla.sol\":7446:7473  uint256(reserve1).mul(1e18) */\n      jump\t// in\n        /* \"contracts/gainzilla.sol\":7445:7497  (uint256(reserve1).mul(1e18)).div(uint256(reserve0)) */\n    tag_287:\n        /* \"contracts/gainzilla.sol\":7370:7564  return IUniswapV2Pair(pairAddress).token0() == address(this) ?... */\n      swap3\n      pop\n      pop\n      pop\n        /* \"contracts/gainzilla.sol\":7218:7571  function pairPrice() public view returns (uint256) {... */\n      swap1\n      jump\t// out\n        /* \"@openzeppelin/contracts@4.9.3/token/ERC20/ERC20.sol\":2369:2471  function symbol() public view virtual override returns (string memory) {... */\n    tag_135:\n        /* \"@openzeppelin/contracts@4.9.3/token/ERC20/ERC20.sol\":2425:2438  string memory */\n      0x60\n        /* \"@openzeppelin/contracts@4.9.3/token/ERC20/ERC20.sol\":2457:2464  _symbol */\n      0x04\n        /* \"@openzeppelin/contracts@4.9.3/token/ERC20/ERC20.sol\":2450:2464  return _symbol */\n      dup1\n      sload\n      tag_210\n      swap1\n      tag_211\n      jump\t// in\n        /* \"contracts/gainzilla.sol\":8998:9100  function setThreshold(uint256 threshold) external onlyOwner {... */\n    tag_141:\n        /* \"@openzeppelin/contracts@4.9.3/access/Ownable.sol\":1094:1107  _checkOwner() */\n      tag_296\n        /* \"@openzeppelin/contracts@4.9.3/access/Ownable.sol\":1094:1105  _checkOwner */\n      tag_223\n        /* \"@openzeppelin/contracts@4.9.3/access/Ownable.sol\":1094:1107  _checkOwner() */\n      jump\t// in\n    tag_296:\n        /* \"contracts/gainzilla.sol\":9068:9081  swapThreshold */\n      0x09\n        /* \"contracts/gainzilla.sol\":9068:9093  swapThreshold = threshold */\n      sstore\n        /* \"contracts/gainzilla.sol\":8998:9100  function setThreshold(uint256 threshold) external onlyOwner {... */\n      jump\t// out\n        /* \"contracts/gainzilla.sol\":7577:8113  function cooldownRemaining(address account) public view returns (... */\n    tag_145:\n      sub(shl(0xa0, 0x01), 0x01)\n        /* \"contracts/gainzilla.sol\":7780:7807  cooldown.cooldowns[account] */\n      dup2\n      and\n        /* \"contracts/gainzilla.sol\":7651:7664  uint256 days_ */\n      0x00\n        /* \"contracts/gainzilla.sol\":7780:7807  cooldown.cooldowns[account] */\n      swap1\n      dup2\n      mstore\n        /* \"contracts/gainzilla.sol\":7780:7798  cooldown.cooldowns */\n      0x0e\n        /* \"contracts/gainzilla.sol\":7780:7807  cooldown.cooldowns[account] */\n      0x20\n      mstore\n      0x40\n      dup2\n      keccak256\n      sload\n        /* \"contracts/gainzilla.sol\":7651:7664  uint256 days_ */\n      dup2\n      swap1\n      dup2\n      swap1\n      dup2\n      swap1\n      dup2\n      swap1\n        /* \"contracts/gainzilla.sol\":7810:7825  block.timestamp */\n      timestamp\n      lt\n        /* \"contracts/gainzilla.sol\":7780:7893  cooldown.cooldowns[account] > block.timestamp ? ... */\n      tag_299\n      jumpi\n        /* \"contracts/gainzilla.sol\":7892:7893  0 */\n      0x00\n        /* \"contracts/gainzilla.sol\":7780:7893  cooldown.cooldowns[account] > block.timestamp ? ... */\n      jump(tag_301)\n    tag_299:\n      sub(shl(0xa0, 0x01), 0x01)\n        /* \"contracts/gainzilla.sol\":7841:7868  cooldown.cooldowns[account] */\n      dup7\n      and\n      0x00\n      swap1\n      dup2\n      mstore\n        /* \"contracts/gainzilla.sol\":7841:7859  cooldown.cooldowns */\n      0x0e\n        /* \"contracts/gainzilla.sol\":7841:7868  cooldown.cooldowns[account] */\n      0x20\n      mstore\n      0x40\n      swap1\n      keccak256\n      sload\n        /* \"contracts/gainzilla.sol\":7841:7889  cooldown.cooldowns[account].sub(block.timestamp) */\n      tag_301\n      swap1\n        /* \"contracts/gainzilla.sol\":7873:7888  block.timestamp */\n      timestamp\n        /* \"contracts/gainzilla.sol\":7841:7872  cooldown.cooldowns[account].sub */\n      tag_261\n        /* \"contracts/gainzilla.sol\":7841:7889  cooldown.cooldowns[account].sub(block.timestamp) */\n      jump\t// in\n    tag_301:\n        /* \"contracts/gainzilla.sol\":7760:7893  uint256 remaining = cooldown.cooldowns[account] > block.timestamp ? ... */\n      swap1\n      pop\n        /* \"contracts/gainzilla.sol\":7920:7940  remaining.div(86400) */\n      tag_302\n        /* \"contracts/gainzilla.sol\":7760:7893  uint256 remaining = cooldown.cooldowns[account] > block.timestamp ? ... */\n      dup2\n        /* \"contracts/gainzilla.sol\":7934:7939  86400 */\n      0x015180\n        /* \"contracts/gainzilla.sol\":7920:7933  remaining.div */\n      tag_263\n        /* \"contracts/gainzilla.sol\":7920:7940  remaining.div(86400) */\n      jump\t// in\n    tag_302:\n        /* \"contracts/gainzilla.sol\":7912:7940  days_ = remaining.div(86400) */\n      swap5\n      pop\n        /* \"contracts/gainzilla.sol\":7950:7968  remaining %= 86400 */\n      tag_303\n        /* \"contracts/gainzilla.sol\":7963:7968  86400 */\n      0x015180\n        /* \"contracts/gainzilla.sol\":7950:7968  remaining %= 86400 */\n      dup3\n      tag_304\n      jump\t// in\n    tag_303:\n      swap1\n      pop\n        /* \"contracts/gainzilla.sol\":7987:8006  remaining.div(3600) */\n      tag_305\n        /* \"contracts/gainzilla.sol\":7950:7968  remaining %= 86400 */\n      dup2\n        /* \"contracts/gainzilla.sol\":8001:8005  3600 */\n      0x0e10\n        /* \"contracts/gainzilla.sol\":7987:8000  remaining.div */\n      tag_263\n        /* \"contracts/gainzilla.sol\":7987:8006  remaining.div(3600) */\n      jump\t// in\n    tag_305:\n        /* \"contracts/gainzilla.sol\":7978:8006  hours_ = remaining.div(3600) */\n      swap4\n      pop\n        /* \"contracts/gainzilla.sol\":8016:8033  remaining %= 3600 */\n      tag_306\n        /* \"contracts/gainzilla.sol\":8029:8033  3600 */\n      0x0e10\n        /* \"contracts/gainzilla.sol\":8016:8033  remaining %= 3600 */\n      dup3\n      tag_304\n      jump\t// in\n    tag_306:\n      swap1\n      pop\n        /* \"contracts/gainzilla.sol\":8054:8071  remaining.div(60) */\n      tag_307\n        /* \"contracts/gainzilla.sol\":8016:8033  remaining %= 3600 */\n      dup2\n        /* \"contracts/gainzilla.sol\":8068:8070  60 */\n      0x3c\n        /* \"contracts/gainzilla.sol\":8054:8067  remaining.div */\n      tag_263\n        /* \"contracts/gainzilla.sol\":8054:8071  remaining.div(60) */\n      jump\t// in\n    tag_307:\n        /* \"contracts/gainzilla.sol\":8043:8071  minutes_ = remaining.div(60) */\n      swap3\n      pop\n        /* \"contracts/gainzilla.sol\":8092:8106  remaining % 60 */\n      tag_308\n        /* \"contracts/gainzilla.sol\":8104:8106  60 */\n      0x3c\n        /* \"contracts/gainzilla.sol\":8092:8101  remaining */\n      dup3\n        /* \"contracts/gainzilla.sol\":8092:8106  remaining % 60 */\n      tag_304\n      jump\t// in\n    tag_308:\n        /* \"contracts/gainzilla.sol\":8081:8106  seconds_ = remaining % 60 */\n      swap2\n      pop\n        /* \"contracts/gainzilla.sol\":7750:8113  {... */\n      pop\n        /* \"contracts/gainzilla.sol\":7577:8113  function cooldownRemaining(address account) public view returns (... */\n      swap2\n      swap4\n      pop\n      swap2\n      swap4\n      jump\t// out\n        /* \"contracts/gainzilla.sol\":9479:9590  function setExempt(address account, bool exempt) external onlyOwner {... */\n    tag_152:\n        /* \"@openzeppelin/contracts@4.9.3/access/Ownable.sol\":1094:1107  _checkOwner() */\n      tag_310\n        /* \"@openzeppelin/contracts@4.9.3/access/Ownable.sol\":1094:1105  _checkOwner */\n      tag_223\n        /* \"@openzeppelin/contracts@4.9.3/access/Ownable.sol\":1094:1107  _checkOwner() */\n      jump\t// in\n    tag_310:\n      sub(shl(0xa0, 0x01), 0x01)\n        /* \"contracts/gainzilla.sol\":9557:9574  isExempt[account] */\n      swap2\n      swap1\n      swap2\n      and\n      0x00\n      swap1\n      dup2\n      mstore\n        /* \"contracts/gainzilla.sol\":9557:9565  isExempt */\n      0x15\n        /* \"contracts/gainzilla.sol\":9557:9574  isExempt[account] */\n      0x20\n      mstore\n      0x40\n      swap1\n      keccak256\n        /* \"contracts/gainzilla.sol\":9557:9583  isExempt[account] = exempt */\n      dup1\n      sload\n      not(0xff)\n      and\n      swap2\n      iszero\n      iszero\n      swap2\n      swap1\n      swap2\n      or\n      swap1\n      sstore\n        /* \"contracts/gainzilla.sol\":9479:9590  function setExempt(address account, bool exempt) external onlyOwner {... */\n      jump\t// out\n        /* \"@openzeppelin/contracts@4.9.3/token/ERC20/ERC20.sol\":6575:7002  function decreaseAllowance(address spender, uint256 subtractedValue) public virtual returns (bool) {... */\n    tag_156:\n        /* \"@openzeppelin/contracts@4.9.3/token/ERC20/ERC20.sol\":6668:6672  bool */\n      0x00\n        /* \"@openzeppelin/contracts@4.9.3/utils/Context.sol\":719:729  msg.sender */\n      caller\n        /* \"@openzeppelin/contracts@4.9.3/token/ERC20/ERC20.sol\":6668:6672  bool */\n      dup2\n        /* \"@openzeppelin/contracts@4.9.3/token/ERC20/ERC20.sol\":6749:6774  allowance(owner, spender) */\n      tag_314\n        /* \"@openzeppelin/contracts@4.9.3/utils/Context.sol\":719:729  msg.sender */\n      dup3\n        /* \"@openzeppelin/contracts@4.9.3/token/ERC20/ERC20.sol\":6766:6773  spender */\n      dup7\n        /* \"@openzeppelin/contracts@4.9.3/token/ERC20/ERC20.sol\":6749:6758  allowance */\n      tag_193\n        /* \"@openzeppelin/contracts@4.9.3/token/ERC20/ERC20.sol\":6749:6774  allowance(owner, spender) */\n      jump\t// in\n    tag_314:\n        /* \"@openzeppelin/contracts@4.9.3/token/ERC20/ERC20.sol\":6722:6774  uint256 currentAllowance = allowance(owner, spender) */\n      swap1\n      pop\n        /* \"@openzeppelin/contracts@4.9.3/token/ERC20/ERC20.sol\":6812:6827  subtractedValue */\n      dup4\n        /* \"@openzeppelin/contracts@4.9.3/token/ERC20/ERC20.sol\":6792:6808  currentAllowance */\n      dup2\n        /* \"@openzeppelin/contracts@4.9.3/token/ERC20/ERC20.sol\":6792:6827  currentAllowance >= subtractedValue */\n      lt\n      iszero\n        /* \"@openzeppelin/contracts@4.9.3/token/ERC20/ERC20.sol\":6784:6869  require(currentAllowance >= subtractedValue, \"ERC20: decreased allowance below zero\") */\n      tag_315\n      jumpi\n      mload(0x40)\n      shl(0xe5, 0x461bcd)\n      dup2\n      mstore\n        /* \"#utility.yul\":9489:9491   */\n      0x20\n        /* \"@openzeppelin/contracts@4.9.3/token/ERC20/ERC20.sol\":6784:6869  require(currentAllowance >= subtractedValue, \"ERC20: decreased allowance below zero\") */\n      0x04\n      dup3\n      add\n        /* \"#utility.yul\":9471:9492   */\n      mstore\n        /* \"#utility.yul\":9528:9530   */\n      0x25\n        /* \"#utility.yul\":9508:9526   */\n      0x24\n      dup3\n      add\n        /* \"#utility.yul\":9501:9531   */\n      mstore\n        /* \"#utility.yul\":9567:9601   */\n      0x45524332303a2064656372656173656420616c6c6f77616e63652062656c6f77\n        /* \"#utility.yul\":9547:9565   */\n      0x44\n      dup3\n      add\n        /* \"#utility.yul\":9540:9602   */\n      mstore\n      shl(0xd8, 0x207a65726f)\n        /* \"#utility.yul\":9618:9636   */\n      0x64\n      dup3\n      add\n        /* \"#utility.yul\":9611:9646   */\n      mstore\n        /* \"#utility.yul\":9663:9682   */\n      0x84\n      add\n        /* \"@openzeppelin/contracts@4.9.3/token/ERC20/ERC20.sol\":6784:6869  require(currentAllowance >= subtractedValue, \"ERC20: decreased allowance below zero\") */\n      tag_228\n        /* \"#utility.yul\":9287:9688   */\n      jump\n        /* \"@openzeppelin/contracts@4.9.3/token/ERC20/ERC20.sol\":6784:6869  require(currentAllowance >= subtractedValue, \"ERC20: decreased allowance below zero\") */\n    tag_315:\n        /* \"@openzeppelin/contracts@4.9.3/token/ERC20/ERC20.sol\":6903:6963  _approve(owner, spender, currentAllowance - subtractedValue) */\n      tag_318\n        /* \"@openzeppelin/contracts@4.9.3/token/ERC20/ERC20.sol\":6912:6917  owner */\n      dup3\n        /* \"@openzeppelin/contracts@4.9.3/token/ERC20/ERC20.sol\":6919:6926  spender */\n      dup7\n        /* \"@openzeppelin/contracts@4.9.3/token/ERC20/ERC20.sol\":6947:6962  subtractedValue */\n      dup7\n        /* \"@openzeppelin/contracts@4.9.3/token/ERC20/ERC20.sol\":6928:6944  currentAllowance */\n      dup5\n        /* \"@openzeppelin/contracts@4.9.3/token/ERC20/ERC20.sol\":6928:6962  currentAllowance - subtractedValue */\n      sub\n        /* \"@openzeppelin/contracts@4.9.3/token/ERC20/ERC20.sol\":6903:6911  _approve */\n      tag_220\n        /* \"@openzeppelin/contracts@4.9.3/token/ERC20/ERC20.sol\":6903:6963  _approve(owner, spender, currentAllowance - subtractedValue) */\n      jump\t// in\n    tag_318:\n      pop\n        /* \"@openzeppelin/contracts@4.9.3/token/ERC20/ERC20.sol\":6991:6995  true */\n      0x01\n      swap5\n        /* \"@openzeppelin/contracts@4.9.3/token/ERC20/ERC20.sol\":6575:7002  function decreaseAllowance(address spender, uint256 subtractedValue) public virtual returns (bool) {... */\n      swap4\n      pop\n      pop\n      pop\n      pop\n      jump\t// out\n        /* \"@openzeppelin/contracts@4.9.3/token/ERC20/ERC20.sol\":3740:3929  function transfer(address to, uint256 amount) public virtual override returns (bool) {... */\n    tag_165:\n        /* \"@openzeppelin/contracts@4.9.3/token/ERC20/ERC20.sol\":3819:3823  bool */\n      0x00\n        /* \"@openzeppelin/contracts@4.9.3/utils/Context.sol\":719:729  msg.sender */\n      caller\n        /* \"@openzeppelin/contracts@4.9.3/token/ERC20/ERC20.sol\":3873:3901  _transfer(owner, to, amount) */\n      tag_219\n        /* \"@openzeppelin/contracts@4.9.3/utils/Context.sol\":719:729  msg.sender */\n      dup2\n        /* \"@openzeppelin/contracts@4.9.3/token/ERC20/ERC20.sol\":3890:3892  to */\n      dup6\n        /* \"@openzeppelin/contracts@4.9.3/token/ERC20/ERC20.sol\":3894:3900  amount */\n      dup6\n        /* \"@openzeppelin/contracts@4.9.3/token/ERC20/ERC20.sol\":3873:3882  _transfer */\n      tag_240\n        /* \"@openzeppelin/contracts@4.9.3/token/ERC20/ERC20.sol\":3873:3901  _transfer(owner, to, amount) */\n      jump\t// in\n        /* \"contracts/gainzilla.sol\":8533:8693  function setRouter(address newRouter) external onlyOwner {... */\n    tag_175:\n        /* \"@openzeppelin/contracts@4.9.3/access/Ownable.sol\":1094:1107  _checkOwner() */\n      tag_323\n        /* \"@openzeppelin/contracts@4.9.3/access/Ownable.sol\":1094:1105  _checkOwner */\n      tag_223\n        /* \"@openzeppelin/contracts@4.9.3/access/Ownable.sol\":1094:1107  _checkOwner() */\n      jump\t// in\n    tag_323:\n        /* \"contracts/gainzilla.sol\":8600:8613  routerAddress */\n      0x13\n        /* \"contracts/gainzilla.sol\":8600:8625  routerAddress = newRouter */\n      dup1\n      sload\n      not(sub(shl(0xa0, 0x01), 0x01))\n      and\n      sub(shl(0xa0, 0x01), 0x01)\n      dup4\n      and\n      or\n      swap1\n      sstore\n        /* \"contracts/gainzilla.sol\":8635:8647  _setupPair() */\n      tag_325\n        /* \"contracts/gainzilla.sol\":8635:8645  _setupPair */\n      tag_326\n        /* \"contracts/gainzilla.sol\":8635:8647  _setupPair() */\n      jump\t// in\n    tag_325:\n        /* \"contracts/gainzilla.sol\":8662:8686  RouterUpdated(newRouter) */\n      mload(0x40)\n      sub(shl(0xa0, 0x01), 0x01)\n        /* \"#utility.yul\":2651:2683   */\n      dup3\n      and\n        /* \"#utility.yul\":2633:2684   */\n      dup2\n      mstore\n        /* \"contracts/gainzilla.sol\":8662:8686  RouterUpdated(newRouter) */\n      0x7aed1d3e8155a07ccf395e44ea3109a0e2d6c9b29bbbe9f142d9790596f4dc80\n      swap1\n        /* \"#utility.yul\":2621:2623   */\n      0x20\n        /* \"#utility.yul\":2606:2624   */\n      add\n        /* \"contracts/gainzilla.sol\":8662:8686  RouterUpdated(newRouter) */\n      mload(0x40)\n      dup1\n      swap2\n      sub\n      swap1\n      log1\n        /* \"contracts/gainzilla.sol\":8533:8693  function setRouter(address newRouter) external onlyOwner {... */\n      pop\n      jump\t// out\n        /* \"@openzeppelin/contracts@4.9.3/token/ERC20/ERC20.sol\":3987:4136  function allowance(address owner, address spender) public view virtual override returns (uint256) {... */\n    tag_193:\n      sub(shl(0xa0, 0x01), 0x01)\n        /* \"@openzeppelin/contracts@4.9.3/token/ERC20/ERC20.sol\":4102:4120  _allowances[owner] */\n      swap2\n      dup3\n      and\n        /* \"@openzeppelin/contracts@4.9.3/token/ERC20/ERC20.sol\":4076:4083  uint256 */\n      0x00\n        /* \"@openzeppelin/contracts@4.9.3/token/ERC20/ERC20.sol\":4102:4120  _allowances[owner] */\n      swap1\n      dup2\n      mstore\n        /* \"@openzeppelin/contracts@4.9.3/token/ERC20/ERC20.sol\":4102:4113  _allowances */\n      0x01\n        /* \"@openzeppelin/contracts@4.9.3/token/ERC20/ERC20.sol\":4102:4120  _allowances[owner] */\n      0x20\n      swap1\n      dup2\n      mstore\n      0x40\n      dup1\n      dup4\n      keccak256\n        /* \"@openzeppelin/contracts@4.9.3/token/ERC20/ERC20.sol\":4102:4129  _allowances[owner][spender] */\n      swap4\n      swap1\n      swap5\n      and\n      dup3\n      mstore\n      swap2\n      swap1\n      swap2\n      mstore\n      keccak256\n      sload\n      swap1\n        /* \"@openzeppelin/contracts@4.9.3/token/ERC20/ERC20.sol\":3987:4136  function allowance(address owner, address spender) public view virtual override returns (uint256) {... */\n      jump\t// out\n        /* \"@openzeppelin/contracts@4.9.3/access/Ownable.sol\":2074:2272  function transferOwnership(address newOwner) public virtual onlyOwner {... */\n    tag_198:\n        /* \"@openzeppelin/contracts@4.9.3/access/Ownable.sol\":1094:1107  _checkOwner() */\n      tag_330\n        /* \"@openzeppelin/contracts@4.9.3/access/Ownable.sol\":1094:1105  _checkOwner */\n      tag_223\n        /* \"@openzeppelin/contracts@4.9.3/access/Ownable.sol\":1094:1107  _checkOwner() */\n      jump\t// in\n    tag_330:\n      sub(shl(0xa0, 0x01), 0x01)\n        /* \"@openzeppelin/contracts@4.9.3/access/Ownable.sol\":2162:2184  newOwner != address(0) */\n      dup2\n      and\n        /* \"@openzeppelin/contracts@4.9.3/access/Ownable.sol\":2154:2227  require(newOwner != address(0), \"Ownable: new owner is the zero address\") */\n      tag_332\n      jumpi\n      mload(0x40)\n      shl(0xe5, 0x461bcd)\n      dup2\n      mstore\n        /* \"#utility.yul\":9895:9897   */\n      0x20\n        /* \"@openzeppelin/contracts@4.9.3/access/Ownable.sol\":2154:2227  require(newOwner != address(0), \"Ownable: new owner is the zero address\") */\n      0x04\n      dup3\n      add\n        /* \"#utility.yul\":9877:9898   */\n      mstore\n        /* \"#utility.yul\":9934:9936   */\n      0x26\n        /* \"#utility.yul\":9914:9932   */\n      0x24\n      dup3\n      add\n        /* \"#utility.yul\":9907:9937   */\n      mstore\n        /* \"#utility.yul\":9973:10007   */\n      0x4f776e61626c653a206e6577206f776e657220697320746865207a65726f2061\n        /* \"#utility.yul\":9953:9971   */\n      0x44\n      dup3\n      add\n        /* \"#utility.yul\":9946:10008   */\n      mstore\n      shl(0xd0, 0x646472657373)\n        /* \"#utility.yul\":10024:10042   */\n      0x64\n      dup3\n      add\n        /* \"#utility.yul\":10017:10053   */\n      mstore\n        /* \"#utility.yul\":10070:10089   */\n      0x84\n      add\n        /* \"@openzeppelin/contracts@4.9.3/access/Ownable.sol\":2154:2227  require(newOwner != address(0), \"Ownable: new owner is the zero address\") */\n      tag_228\n        /* \"#utility.yul\":9693:10095   */\n      jump\n        /* \"@openzeppelin/contracts@4.9.3/access/Ownable.sol\":2154:2227  require(newOwner != address(0), \"Ownable: new owner is the zero address\") */\n    tag_332:\n        /* \"@openzeppelin/contracts@4.9.3/access/Ownable.sol\":2237:2265  _transferOwnership(newOwner) */\n      tag_335\n        /* \"@openzeppelin/contracts@4.9.3/access/Ownable.sol\":2256:2264  newOwner */\n      dup2\n        /* \"@openzeppelin/contracts@4.9.3/access/Ownable.sol\":2237:2255  _transferOwnership */\n      tag_253\n        /* \"@openzeppelin/contracts@4.9.3/access/Ownable.sol\":2237:2265  _transferOwnership(newOwner) */\n      jump\t// in\n    tag_335:\n        /* \"@openzeppelin/contracts@4.9.3/access/Ownable.sol\":2074:2272  function transferOwnership(address newOwner) public virtual onlyOwner {... */\n      pop\n      jump\t// out\n        /* \"contracts/gainzilla.sol\":9282:9473  function configureDiamondFloor(bool enabled, uint16 triggerPercent) external onlyOwner {... */\n    tag_203:\n        /* \"@openzeppelin/contracts@4.9.3/access/Ownable.sol\":1094:1107  _checkOwner() */\n      tag_337\n        /* \"@openzeppelin/contracts@4.9.3/access/Ownable.sol\":1094:1105  _checkOwner */\n      tag_223\n        /* \"@openzeppelin/contracts@4.9.3/access/Ownable.sol\":1094:1107  _checkOwner() */\n      jump\t// in\n    tag_337:\n        /* \"contracts/gainzilla.sol\":9379:9391  diamondFloor */\n      0x0f\n        /* \"contracts/gainzilla.sol\":9379:9409  diamondFloor.enabled = enabled */\n      dup1\n      sload\n      not(0xffffff)\n        /* \"contracts/gainzilla.sol\":9419:9466  diamondFloor.triggerPercentage = triggerPercent */\n      and\n        /* \"contracts/gainzilla.sol\":9379:9409  diamondFloor.enabled = enabled */\n      swap3\n      iszero\n      iszero\n      not(0xffff00)\n        /* \"contracts/gainzilla.sol\":9419:9466  diamondFloor.triggerPercentage = triggerPercent */\n      and\n      swap3\n      swap1\n      swap3\n      or\n        /* \"contracts/gainzilla.sol\":9379:9409  diamondFloor.enabled = enabled */\n      0x0100\n        /* \"contracts/gainzilla.sol\":9419:9466  diamondFloor.triggerPercentage = triggerPercent */\n      0xffff\n      swap3\n      swap1\n      swap3\n      and\n      swap2\n      swap1\n      swap2\n      mul\n      or\n      swap1\n      sstore\n        /* \"contracts/gainzilla.sol\":9282:9473  function configureDiamondFloor(bool enabled, uint16 triggerPercent) external onlyOwner {... */\n      jump\t// out\n        /* \"contracts/gainzilla.sol\":9106:9276  function configureCooldown(bool enabled, uint32 duration) external onlyOwner {... */\n    tag_208:\n        /* \"@openzeppelin/contracts@4.9.3/access/Ownable.sol\":1094:1107  _checkOwner() */\n      tag_340\n        /* \"@openzeppelin/contracts@4.9.3/access/Ownable.sol\":1094:1105  _checkOwner */\n      tag_223\n        /* \"@openzeppelin/contracts@4.9.3/access/Ownable.sol\":1094:1107  _checkOwner() */\n      jump\t// in\n    tag_340:\n        /* \"contracts/gainzilla.sol\":9193:9201  cooldown */\n      0x0d\n        /* \"contracts/gainzilla.sol\":9193:9219  cooldown.enabled = enabled */\n      dup1\n      sload\n      not(0xff)\n      and\n      dup4\n      iszero\n      iszero\n      or\n      swap1\n      sstore\n        /* \"contracts/gainzilla.sol\":9249:9269  duration * 1 minutes */\n      tag_342\n        /* \"contracts/gainzilla.sol\":9249:9257  duration */\n      dup2\n        /* \"contracts/gainzilla.sol\":9260:9269  1 minutes */\n      0x3c\n        /* \"contracts/gainzilla.sol\":9249:9269  duration * 1 minutes */\n      tag_343\n      jump\t// in\n    tag_342:\n        /* \"contracts/gainzilla.sol\":9229:9237  cooldown */\n      0x0d\n        /* \"contracts/gainzilla.sol\":9229:9269  cooldown.duration = duration * 1 minutes */\n      dup1\n      sload\n      0xffffffff\n      swap3\n      swap1\n      swap3\n      and\n      0x0100\n      mul\n      not(0xffffffff00)\n      swap1\n      swap3\n      and\n      swap2\n      swap1\n      swap2\n      or\n      swap1\n      sstore\n      pop\n      pop\n        /* \"contracts/gainzilla.sol\":9106:9276  function configureCooldown(bool enabled, uint32 duration) external onlyOwner {... */\n      jump\t// out\n        /* \"@openzeppelin/contracts@4.9.3/token/ERC20/ERC20.sol\":10457:10797  function _approve(address owner, address spender, uint256 amount) internal virtual {... */\n    tag_220:\n      sub(shl(0xa0, 0x01), 0x01)\n        /* \"@openzeppelin/contracts@4.9.3/token/ERC20/ERC20.sol\":10558:10577  owner != address(0) */\n      dup4\n      and\n        /* \"@openzeppelin/contracts@4.9.3/token/ERC20/ERC20.sol\":10550:10618  require(owner != address(0), \"ERC20: approve from the zero address\") */\n      tag_346\n      jumpi\n      mload(0x40)\n      shl(0xe5, 0x461bcd)\n      dup2\n      mstore\n        /* \"#utility.yul\":10556:10558   */\n      0x20\n        /* \"@openzeppelin/contracts@4.9.3/token/ERC20/ERC20.sol\":10550:10618  require(owner != address(0), \"ERC20: approve from the zero address\") */\n      0x04\n      dup3\n      add\n        /* \"#utility.yul\":10538:10559   */\n      mstore\n        /* \"#utility.yul\":10595:10597   */\n      0x24\n        /* \"#utility.yul\":10575:10593   */\n      dup1\n      dup3\n      add\n        /* \"#utility.yul\":10568:10598   */\n      mstore\n        /* \"#utility.yul\":10634:10668   */\n      0x45524332303a20617070726f76652066726f6d20746865207a65726f20616464\n        /* \"#utility.yul\":10614:10632   */\n      0x44\n      dup3\n      add\n        /* \"#utility.yul\":10607:10669   */\n      mstore\n      shl(0xe0, 0x72657373)\n        /* \"#utility.yul\":10685:10703   */\n      0x64\n      dup3\n      add\n        /* \"#utility.yul\":10678:10712   */\n      mstore\n        /* \"#utility.yul\":10729:10748   */\n      0x84\n      add\n        /* \"@openzeppelin/contracts@4.9.3/token/ERC20/ERC20.sol\":10550:10618  require(owner != address(0), \"ERC20: approve from the zero address\") */\n      tag_228\n        /* \"#utility.yul\":10354:10754   */\n      jump\n        /* \"@openzeppelin/contracts@4.9.3/token/ERC20/ERC20.sol\":10550:10618  require(owner != address(0), \"ERC20: approve from the zero address\") */\n    tag_346:\n      sub(shl(0xa0, 0x01), 0x01)\n        /* \"@openzeppelin/contracts@4.9.3/token/ERC20/ERC20.sol\":10636:10657  spender != address(0) */\n      dup3\n      and\n        /* \"@openzeppelin/contracts@4.9.3/token/ERC20/ERC20.sol\":10628:10696  require(spender != address(0), \"ERC20: approve to the zero address\") */\n      tag_349\n      jumpi\n      mload(0x40)\n      shl(0xe5, 0x461bcd)\n      dup2\n      mstore\n        /* \"#utility.yul\":10961:10963   */\n      0x20\n        /* \"@openzeppelin/contracts@4.9.3/token/ERC20/ERC20.sol\":10628:10696  require(spender != address(0), \"ERC20: approve to the zero address\") */\n      0x04\n      dup3\n      add\n        /* \"#utility.yul\":10943:10964   */\n      mstore\n        /* \"#utility.yul\":11000:11002   */\n      0x22\n        /* \"#utility.yul\":10980:10998   */\n      0x24\n      dup3\n      add\n        /* \"#utility.yul\":10973:11003   */\n      mstore\n        /* \"#utility.yul\":11039:11073   */\n      0x45524332303a20617070726f766520746f20746865207a65726f206164647265\n        /* \"#utility.yul\":11019:11037   */\n      0x44\n      dup3\n      add\n        /* \"#utility.yul\":11012:11074   */\n      mstore\n      shl(0xf0, 0x7373)\n        /* \"#utility.yul\":11090:11108   */\n      0x64\n      dup3\n      add\n        /* \"#utility.yul\":11083:11115   */\n      mstore\n        /* \"#utility.yul\":11132:11151   */\n      0x84\n      add\n        /* \"@openzeppelin/contracts@4.9.3/token/ERC20/ERC20.sol\":10628:10696  require(spender != address(0), \"ERC20: approve to the zero address\") */\n      tag_228\n        /* \"#utility.yul\":10759:11157   */\n      jump\n        /* \"@openzeppelin/contracts@4.9.3/token/ERC20/ERC20.sol\":10628:10696  require(spender != address(0), \"ERC20: approve to the zero address\") */\n    tag_349:\n      sub(shl(0xa0, 0x01), 0x01)\n        /* \"@openzeppelin/contracts@4.9.3/token/ERC20/ERC20.sol\":10707:10725  _allowances[owner] */\n      dup4\n      dup2\n      and\n      0x00\n      dup2\n      dup2\n      mstore\n        /* \"@openzeppelin/contracts@4.9.3/token/ERC20/ERC20.sol\":10707:10718  _allowances */\n      0x01\n        /* \"@openzeppelin/contracts@4.9.3/token/ERC20/ERC20.sol\":10707:10725  _allowances[owner] */\n      0x20\n      swap1\n      dup2\n      mstore\n      0x40\n      dup1\n      dup4\n      keccak256\n        /* \"@openzeppelin/contracts@4.9.3/token/ERC20/ERC20.sol\":10707:10734  _allowances[owner][spender] */\n      swap5\n      dup8\n      and\n      dup1\n      dup5\n      mstore\n      swap5\n      dup3\n      mstore\n      swap2\n      dup3\n      swap1\n      keccak256\n        /* \"@openzeppelin/contracts@4.9.3/token/ERC20/ERC20.sol\":10707:10743  _allowances[owner][spender] = amount */\n      dup6\n      swap1\n      sstore\n        /* \"@openzeppelin/contracts@4.9.3/token/ERC20/ERC20.sol\":10758:10790  Approval(owner, spender, amount) */\n      swap1\n      mload\n        /* \"#utility.yul\":160:185   */\n      dup5\n      dup2\n      mstore\n        /* \"@openzeppelin/contracts@4.9.3/token/ERC20/ERC20.sol\":10758:10790  Approval(owner, spender, amount) */\n      0x8c5be1e5ebec7d5bd14f71427d1e84f3dd0314c0f7b2291e5b200ac8c7c3b925\n      swap2\n        /* \"#utility.yul\":133:151   */\n      add\n        /* \"@openzeppelin/contracts@4.9.3/token/ERC20/ERC20.sol\":10758:10790  Approval(owner, spender, amount) */\n      mload(0x40)\n      dup1\n      swap2\n      sub\n      swap1\n      log3\n        /* \"@openzeppelin/contracts@4.9.3/token/ERC20/ERC20.sol\":10457:10797  function _approve(address owner, address spender, uint256 amount) internal virtual {... */\n      pop\n      pop\n      pop\n      jump\t// out\n        /* \"@openzeppelin/contracts@4.9.3/access/Ownable.sol\":1359:1489  function _checkOwner() internal view virtual {... */\n    tag_223:\n        /* \"@openzeppelin/contracts@4.9.3/access/Ownable.sol\":1273:1279  _owner */\n      and(sub(shl(0xa0, 0x01), 0x01), sload(0x05))\n        /* \"@openzeppelin/contracts@4.9.3/utils/Context.sol\":719:729  msg.sender */\n      caller\n        /* \"@openzeppelin/contracts@4.9.3/access/Ownable.sol\":1422:1445  owner() == _msgSender() */\n      eq\n        /* \"@openzeppelin/contracts@4.9.3/access/Ownable.sol\":1414:1482  require(owner() == _msgSender(), \"Ownable: caller is not the owner\") */\n      tag_252\n      jumpi\n      mload(0x40)\n      shl(0xe5, 0x461bcd)\n      dup2\n      mstore\n        /* \"#utility.yul\":11364:11366   */\n      0x20\n        /* \"@openzeppelin/contracts@4.9.3/access/Ownable.sol\":1414:1482  require(owner() == _msgSender(), \"Ownable: caller is not the owner\") */\n      0x04\n      dup3\n      add\n        /* \"#utility.yul\":11346:11367   */\n      dup2\n      swap1\n      mstore\n        /* \"#utility.yul\":11383:11401   */\n      0x24\n      dup3\n      add\n        /* \"#utility.yul\":11376:11406   */\n      mstore\n        /* \"#utility.yul\":11442:11476   */\n      0x4f776e61626c653a2063616c6c6572206973206e6f7420746865206f776e6572\n        /* \"#utility.yul\":11422:11440   */\n      0x44\n      dup3\n      add\n        /* \"#utility.yul\":11415:11477   */\n      mstore\n        /* \"#utility.yul\":11494:11512   */\n      0x64\n      add\n        /* \"@openzeppelin/contracts@4.9.3/access/Ownable.sol\":1414:1482  require(owner() == _msgSender(), \"Ownable: caller is not the owner\") */\n      tag_228\n        /* \"#utility.yul\":11162:11518   */\n      jump\n        /* \"@openzeppelin/contracts@4.9.3/token/ERC20/ERC20.sol\":11078:11489  function _spendAllowance(address owner, address spender, uint256 amount) internal virtual {... */\n    tag_238:\n        /* \"@openzeppelin/contracts@4.9.3/token/ERC20/ERC20.sol\":11178:11202  uint256 currentAllowance */\n      0x00\n        /* \"@openzeppelin/contracts@4.9.3/token/ERC20/ERC20.sol\":11205:11230  allowance(owner, spender) */\n      tag_360\n        /* \"@openzeppelin/contracts@4.9.3/token/ERC20/ERC20.sol\":11215:11220  owner */\n      dup5\n        /* \"@openzeppelin/contracts@4.9.3/token/ERC20/ERC20.sol\":11222:11229  spender */\n      dup5\n        /* \"@openzeppelin/contracts@4.9.3/token/ERC20/ERC20.sol\":11205:11214  allowance */\n      tag_193\n        /* \"@openzeppelin/contracts@4.9.3/token/ERC20/ERC20.sol\":11205:11230  allowance(owner, spender) */\n      jump\t// in\n    tag_360:\n        /* \"@openzeppelin/contracts@4.9.3/token/ERC20/ERC20.sol\":11178:11230  uint256 currentAllowance = allowance(owner, spender) */\n      swap1\n      pop\n      not(0x00)\n        /* \"@openzeppelin/contracts@4.9.3/token/ERC20/ERC20.sol\":11244:11260  currentAllowance */\n      dup2\n        /* \"@openzeppelin/contracts@4.9.3/token/ERC20/ERC20.sol\":11244:11281  currentAllowance != type(uint256).max */\n      eq\n        /* \"@openzeppelin/contracts@4.9.3/token/ERC20/ERC20.sol\":11240:11483  if (currentAllowance != type(uint256).max) {... */\n      tag_365\n      jumpi\n        /* \"@openzeppelin/contracts@4.9.3/token/ERC20/ERC20.sol\":11325:11331  amount */\n      dup2\n        /* \"@openzeppelin/contracts@4.9.3/token/ERC20/ERC20.sol\":11305:11321  currentAllowance */\n      dup2\n        /* \"@openzeppelin/contracts@4.9.3/token/ERC20/ERC20.sol\":11305:11331  currentAllowance >= amount */\n      lt\n      iszero\n        /* \"@openzeppelin/contracts@4.9.3/token/ERC20/ERC20.sol\":11297:11365  require(currentAllowance >= amount, \"ERC20: insufficient allowance\") */\n      tag_362\n      jumpi\n      mload(0x40)\n      shl(0xe5, 0x461bcd)\n      dup2\n      mstore\n        /* \"#utility.yul\":11725:11727   */\n      0x20\n        /* \"@openzeppelin/contracts@4.9.3/token/ERC20/ERC20.sol\":11297:11365  require(currentAllowance >= amount, \"ERC20: insufficient allowance\") */\n      0x04\n      dup3\n      add\n        /* \"#utility.yul\":11707:11728   */\n      mstore\n        /* \"#utility.yul\":11764:11766   */\n      0x1d\n        /* \"#utility.yul\":11744:11762   */\n      0x24\n      dup3\n      add\n        /* \"#utility.yul\":11737:11767   */\n      mstore\n        /* \"#utility.yul\":11803:11834   */\n      0x45524332303a20696e73756666696369656e7420616c6c6f77616e6365000000\n        /* \"#utility.yul\":11783:11801   */\n      0x44\n      dup3\n      add\n        /* \"#utility.yul\":11776:11835   */\n      mstore\n        /* \"#utility.yul\":11852:11870   */\n      0x64\n      add\n        /* \"@openzeppelin/contracts@4.9.3/token/ERC20/ERC20.sol\":11297:11365  require(currentAllowance >= amount, \"ERC20: insufficient allowance\") */\n      tag_228\n        /* \"#utility.yul\":11523:11876   */\n      jump\n        /* \"@openzeppelin/contracts@4.9.3/token/ERC20/ERC20.sol\":11297:11365  require(currentAllowance >= amount, \"ERC20: insufficient allowance\") */\n    tag_362:\n        /* \"@openzeppelin/contracts@4.9.3/token/ERC20/ERC20.sol\":11407:11458  _approve(owner, spender, currentAllowance - amount) */\n      tag_365\n        /* \"@openzeppelin/contracts@4.9.3/token/ERC20/ERC20.sol\":11416:11421  owner */\n      dup5\n        /* \"@openzeppelin/contracts@4.9.3/token/ERC20/ERC20.sol\":11423:11430  spender */\n      dup5\n        /* \"@openzeppelin/contracts@4.9.3/token/ERC20/ERC20.sol\":11451:11457  amount */\n      dup5\n        /* \"@openzeppelin/contracts@4.9.3/token/ERC20/ERC20.sol\":11432:11448  currentAllowance */\n      dup5\n        /* \"@openzeppelin/contracts@4.9.3/token/ERC20/ERC20.sol\":11432:11457  currentAllowance - amount */\n      sub\n        /* \"@openzeppelin/contracts@4.9.3/token/ERC20/ERC20.sol\":11407:11415  _approve */\n      tag_220\n        /* \"@openzeppelin/contracts@4.9.3/token/ERC20/ERC20.sol\":11407:11458  _approve(owner, spender, currentAllowance - amount) */\n      jump\t// in\n    tag_365:\n        /* \"@openzeppelin/contracts@4.9.3/token/ERC20/ERC20.sol\":11168:11489  {... */\n      pop\n        /* \"@openzeppelin/contracts@4.9.3/token/ERC20/ERC20.sol\":11078:11489  function _spendAllowance(address owner, address spender, uint256 amount) internal virtual {... */\n      pop\n      pop\n      pop\n      jump\t// out\n        /* \"contracts/gainzilla.sol\":2841:4134  function _transfer(... */\n    tag_240:\n        /* \"contracts/gainzilla.sol\":2994:2995  0 */\n      0x00\n        /* \"contracts/gainzilla.sol\":2985:2991  amount */\n      dup2\n        /* \"contracts/gainzilla.sol\":2985:2995  amount > 0 */\n      gt\n        /* \"contracts/gainzilla.sol\":2977:3026  require(amount > 0, \"Transfer amount must be >0\") */\n      tag_367\n      jumpi\n      mload(0x40)\n      shl(0xe5, 0x461bcd)\n      dup2\n      mstore\n        /* \"#utility.yul\":12083:12085   */\n      0x20\n        /* \"contracts/gainzilla.sol\":2977:3026  require(amount > 0, \"Transfer amount must be >0\") */\n      0x04\n      dup3\n      add\n        /* \"#utility.yul\":12065:12086   */\n      mstore\n        /* \"#utility.yul\":12122:12124   */\n      0x1a\n        /* \"#utility.yul\":12102:12120   */\n      0x24\n      dup3\n      add\n        /* \"#utility.yul\":12095:12125   */\n      mstore\n        /* \"#utility.yul\":12161:12189   */\n      0x5472616e7366657220616d6f756e74206d757374206265203e30000000000000\n        /* \"#utility.yul\":12141:12159   */\n      0x44\n      dup3\n      add\n        /* \"#utility.yul\":12134:12190   */\n      mstore\n        /* \"#utility.yul\":12207:12225   */\n      0x64\n      add\n        /* \"contracts/gainzilla.sol\":2977:3026  require(amount > 0, \"Transfer amount must be >0\") */\n      tag_228\n        /* \"#utility.yul\":11881:12231   */\n      jump\n        /* \"contracts/gainzilla.sol\":2977:3026  require(amount > 0, \"Transfer amount must be >0\") */\n    tag_367:\n        /* \"contracts/gainzilla.sol\":3060:3071  pairAddress */\n      sload(0x14)\n        /* \"contracts/gainzilla.sol\":3037:3047  bool isBuy */\n      0x00\n      swap1\n      sub(shl(0xa0, 0x01), 0x01)\n        /* \"contracts/gainzilla.sol\":3050:3071  sender == pairAddress */\n      dup6\n      dup2\n      and\n        /* \"contracts/gainzilla.sol\":3060:3071  pairAddress */\n      swap2\n      and\n        /* \"contracts/gainzilla.sol\":3050:3071  sender == pairAddress */\n      eq\n        /* \"contracts/gainzilla.sol\":3050:3095  sender == pairAddress && !isExempt[recipient] */\n      dup1\n      iszero\n      tag_370\n      jumpi\n      pop\n      sub(shl(0xa0, 0x01), 0x01)\n        /* \"contracts/gainzilla.sol\":3076:3095  isExempt[recipient] */\n      dup4\n      and\n      0x00\n      swap1\n      dup2\n      mstore\n        /* \"contracts/gainzilla.sol\":3076:3084  isExempt */\n      0x15\n        /* \"contracts/gainzilla.sol\":3076:3095  isExempt[recipient] */\n      0x20\n      mstore\n      0x40\n      swap1\n      keccak256\n      sload\n      0xff\n      and\n        /* \"contracts/gainzilla.sol\":3075:3095  !isExempt[recipient] */\n      iszero\n        /* \"contracts/gainzilla.sol\":3050:3095  sender == pairAddress && !isExempt[recipient] */\n    tag_370:\n        /* \"contracts/gainzilla.sol\":3132:3143  pairAddress */\n      sload(0x14)\n        /* \"contracts/gainzilla.sol\":3037:3095  bool isBuy = sender == pairAddress && !isExempt[recipient] */\n      swap1\n      swap2\n      pop\n        /* \"contracts/gainzilla.sol\":3105:3116  bool isSell */\n      0x00\n      swap1\n      sub(shl(0xa0, 0x01), 0x01)\n        /* \"contracts/gainzilla.sol\":3119:3143  recipient == pairAddress */\n      dup6\n      dup2\n      and\n        /* \"contracts/gainzilla.sol\":3132:3143  pairAddress */\n      swap2\n      and\n        /* \"contracts/gainzilla.sol\":3119:3143  recipient == pairAddress */\n      eq\n        /* \"contracts/gainzilla.sol\":3119:3164  recipient == pairAddress && !isExempt[sender] */\n      dup1\n      iszero\n      tag_371\n      jumpi\n      pop\n      sub(shl(0xa0, 0x01), 0x01)\n        /* \"contracts/gainzilla.sol\":3148:3164  isExempt[sender] */\n      dup6\n      and\n      0x00\n      swap1\n      dup2\n      mstore\n        /* \"contracts/gainzilla.sol\":3148:3156  isExempt */\n      0x15\n        /* \"contracts/gainzilla.sol\":3148:3164  isExempt[sender] */\n      0x20\n      mstore\n      0x40\n      swap1\n      keccak256\n      sload\n      0xff\n      and\n        /* \"contracts/gainzilla.sol\":3147:3164  !isExempt[sender] */\n      iszero\n        /* \"contracts/gainzilla.sol\":3119:3164  recipient == pairAddress && !isExempt[sender] */\n    tag_371:\n        /* \"contracts/gainzilla.sol\":3179:3191  diamondFloor */\n      0x0f\n        /* \"contracts/gainzilla.sol\":3179:3199  diamondFloor.enabled */\n      sload\n        /* \"contracts/gainzilla.sol\":3105:3164  bool isSell = recipient == pairAddress && !isExempt[sender] */\n      swap1\n      swap2\n      pop\n        /* \"contracts/gainzilla.sol\":3179:3199  diamondFloor.enabled */\n      0xff\n      and\n        /* \"contracts/gainzilla.sol\":3179:3209  diamondFloor.enabled && isSell */\n      dup1\n      iszero\n      tag_372\n      jumpi\n      pop\n        /* \"contracts/gainzilla.sol\":3203:3209  isSell */\n      dup1\n        /* \"contracts/gainzilla.sol\":3179:3209  diamondFloor.enabled && isSell */\n    tag_372:\n        /* \"contracts/gainzilla.sol\":3175:3341  if (diamondFloor.enabled && isSell) {... */\n      iszero\n      tag_377\n      jumpi\n        /* \"contracts/gainzilla.sol\":3234:3258  diamondFloor.sellStopped */\n      and(0xff, sload(0x11))\n        /* \"contracts/gainzilla.sol\":3233:3258  !diamondFloor.sellStopped */\n      iszero\n        /* \"contracts/gainzilla.sol\":3225:3293  require(!diamondFloor.sellStopped, \"Sells stopped by Diamond Floor\") */\n      tag_374\n      jumpi\n      mload(0x40)\n      shl(0xe5, 0x461bcd)\n      dup2\n      mstore\n        /* \"#utility.yul\":12438:12440   */\n      0x20\n        /* \"contracts/gainzilla.sol\":3225:3293  require(!diamondFloor.sellStopped, \"Sells stopped by Diamond Floor\") */\n      0x04\n      dup3\n      add\n        /* \"#utility.yul\":12420:12441   */\n      mstore\n        /* \"#utility.yul\":12477:12479   */\n      0x1e\n        /* \"#utility.yul\":12457:12475   */\n      0x24\n      dup3\n      add\n        /* \"#utility.yul\":12450:12480   */\n      mstore\n        /* \"#utility.yul\":12516:12548   */\n      0x53656c6c732073746f70706564206279204469616d6f6e6420466c6f6f720000\n        /* \"#utility.yul\":12496:12514   */\n      0x44\n      dup3\n      add\n        /* \"#utility.yul\":12489:12549   */\n      mstore\n        /* \"#utility.yul\":12566:12584   */\n      0x64\n      add\n        /* \"contracts/gainzilla.sol\":3225:3293  require(!diamondFloor.sellStopped, \"Sells stopped by Diamond Floor\") */\n      tag_228\n        /* \"#utility.yul\":12236:12590   */\n      jump\n        /* \"contracts/gainzilla.sol\":3225:3293  require(!diamondFloor.sellStopped, \"Sells stopped by Diamond Floor\") */\n    tag_374:\n        /* \"contracts/gainzilla.sol\":3307:3330  _checkPriceConditions() */\n      tag_377\n        /* \"contracts/gainzilla.sol\":3307:3328  _checkPriceConditions */\n      tag_378\n        /* \"contracts/gainzilla.sol\":3307:3330  _checkPriceConditions() */\n      jump\t// in\n    tag_377:\n        /* \"contracts/gainzilla.sol\":3355:3363  cooldown */\n      0x0d\n        /* \"contracts/gainzilla.sol\":3355:3371  cooldown.enabled */\n      sload\n      0xff\n      and\n        /* \"contracts/gainzilla.sol\":3355:3381  cooldown.enabled && isSell */\n      dup1\n      iszero\n      tag_379\n      jumpi\n      pop\n        /* \"contracts/gainzilla.sol\":3375:3381  isSell */\n      dup1\n        /* \"contracts/gainzilla.sol\":3355:3381  cooldown.enabled && isSell */\n    tag_379:\n        /* \"contracts/gainzilla.sol\":3351:3559  if (cooldown.enabled && isSell) {... */\n      iszero\n      tag_380\n      jumpi\n      sub(shl(0xa0, 0x01), 0x01)\n        /* \"contracts/gainzilla.sol\":3424:3450  cooldown.cooldowns[sender] */\n      dup6\n      and\n      0x00\n      swap1\n      dup2\n      mstore\n        /* \"contracts/gainzilla.sol\":3424:3442  cooldown.cooldowns */\n      0x0e\n        /* \"contracts/gainzilla.sol\":3424:3450  cooldown.cooldowns[sender] */\n      0x20\n      mstore\n      0x40\n      swap1\n      keccak256\n      sload\n        /* \"contracts/gainzilla.sol\":3405:3420  block.timestamp */\n      timestamp\n        /* \"contracts/gainzilla.sol\":3405:3450  block.timestamp >= cooldown.cooldowns[sender] */\n      lt\n      iszero\n        /* \"contracts/gainzilla.sol\":3397:3470  require(block.timestamp >= cooldown.cooldowns[sender], \"Cooldown active\") */\n      tag_381\n      jumpi\n      mload(0x40)\n      shl(0xe5, 0x461bcd)\n      dup2\n      mstore\n        /* \"#utility.yul\":12797:12799   */\n      0x20\n        /* \"contracts/gainzilla.sol\":3397:3470  require(block.timestamp >= cooldown.cooldowns[sender], \"Cooldown active\") */\n      0x04\n      dup3\n      add\n        /* \"#utility.yul\":12779:12800   */\n      mstore\n        /* \"#utility.yul\":12836:12838   */\n      0x0f\n        /* \"#utility.yul\":12816:12834   */\n      0x24\n      dup3\n      add\n        /* \"#utility.yul\":12809:12839   */\n      mstore\n      shl(0x88, 0x436f6f6c646f776e20616374697665)\n        /* \"#utility.yul\":12855:12873   */\n      0x44\n      dup3\n      add\n        /* \"#utility.yul\":12848:12893   */\n      mstore\n        /* \"#utility.yul\":12910:12928   */\n      0x64\n      add\n        /* \"contracts/gainzilla.sol\":3397:3470  require(block.timestamp >= cooldown.cooldowns[sender], \"Cooldown active\") */\n      tag_228\n        /* \"#utility.yul\":12595:12934   */\n      jump\n        /* \"contracts/gainzilla.sol\":3397:3470  require(block.timestamp >= cooldown.cooldowns[sender], \"Cooldown active\") */\n    tag_381:\n        /* \"contracts/gainzilla.sol\":3531:3539  cooldown */\n      0x0d\n        /* \"contracts/gainzilla.sol\":3531:3548  cooldown.duration */\n      sload\n        /* \"contracts/gainzilla.sol\":3513:3548  block.timestamp + cooldown.duration */\n      tag_384\n      swap1\n        /* \"contracts/gainzilla.sol\":3531:3548  cooldown.duration */\n      0x0100\n      swap1\n      div\n      0xffffffff\n      and\n        /* \"contracts/gainzilla.sol\":3513:3528  block.timestamp */\n      timestamp\n        /* \"contracts/gainzilla.sol\":3513:3548  block.timestamp + cooldown.duration */\n      tag_247\n      jump\t// in\n    tag_384:\n      sub(shl(0xa0, 0x01), 0x01)\n        /* \"contracts/gainzilla.sol\":3484:3510  cooldown.cooldowns[sender] */\n      dup7\n      and\n      0x00\n      swap1\n      dup2\n      mstore\n        /* \"contracts/gainzilla.sol\":3484:3502  cooldown.cooldowns */\n      0x0e\n        /* \"contracts/gainzilla.sol\":3484:3510  cooldown.cooldowns[sender] */\n      0x20\n      mstore\n      0x40\n      swap1\n      keccak256\n        /* \"contracts/gainzilla.sol\":3484:3548  cooldown.cooldowns[sender] = block.timestamp + cooldown.duration */\n      sstore\n        /* \"contracts/gainzilla.sol\":3351:3559  if (cooldown.enabled && isSell) {... */\n    tag_380:\n        /* \"contracts/gainzilla.sol\":3569:3586  uint256 taxAmount */\n      0x00\n        /* \"contracts/gainzilla.sol\":3589:3629  _calculateTax(sender, recipient, amount) */\n      tag_385\n        /* \"contracts/gainzilla.sol\":3603:3609  sender */\n      dup7\n        /* \"contracts/gainzilla.sol\":3611:3620  recipient */\n      dup7\n        /* \"contracts/gainzilla.sol\":3622:3628  amount */\n      dup7\n        /* \"contracts/gainzilla.sol\":3589:3602  _calculateTax */\n      tag_386\n        /* \"contracts/gainzilla.sol\":3589:3629  _calculateTax(sender, recipient, amount) */\n      jump\t// in\n    tag_385:\n        /* \"contracts/gainzilla.sol\":3569:3629  uint256 taxAmount = _calculateTax(sender, recipient, amount) */\n      swap1\n      pop\n        /* \"contracts/gainzilla.sol\":3639:3656  uint256 netAmount */\n      0x00\n        /* \"contracts/gainzilla.sol\":3659:3680  amount.sub(taxAmount) */\n      tag_387\n        /* \"contracts/gainzilla.sol\":3659:3665  amount */\n      dup6\n        /* \"contracts/gainzilla.sol\":3569:3629  uint256 taxAmount = _calculateTax(sender, recipient, amount) */\n      dup4\n        /* \"contracts/gainzilla.sol\":3659:3669  amount.sub */\n      tag_261\n        /* \"contracts/gainzilla.sol\":3659:3680  amount.sub(taxAmount) */\n      jump\t// in\n    tag_387:\n      sub(shl(0xa0, 0x01), 0x01)\n        /* \"contracts/gainzilla.sol\":3696:3715  isExempt[recipient] */\n      dup8\n      and\n      0x00\n      swap1\n      dup2\n      mstore\n        /* \"contracts/gainzilla.sol\":3696:3704  isExempt */\n      0x15\n        /* \"contracts/gainzilla.sol\":3696:3715  isExempt[recipient] */\n      0x20\n      mstore\n      0x40\n      swap1\n      keccak256\n      sload\n        /* \"contracts/gainzilla.sol\":3639:3680  uint256 netAmount = amount.sub(taxAmount) */\n      swap1\n      swap2\n      pop\n        /* \"contracts/gainzilla.sol\":3696:3715  isExempt[recipient] */\n      0xff\n      and\n        /* \"contracts/gainzilla.sol\":3695:3715  !isExempt[recipient] */\n      iszero\n        /* \"contracts/gainzilla.sol\":3695:3726  !isExempt[recipient] && !isSell */\n      dup1\n      iszero\n      tag_388\n      jumpi\n      pop\n        /* \"contracts/gainzilla.sol\":3720:3726  isSell */\n      dup3\n        /* \"contracts/gainzilla.sol\":3719:3726  !isSell */\n      iszero\n        /* \"contracts/gainzilla.sol\":3695:3726  !isExempt[recipient] && !isSell */\n    tag_388:\n        /* \"contracts/gainzilla.sol\":3691:3840  if (!isExempt[recipient] && !isSell) {... */\n      iszero\n      tag_394\n      jumpi\n        /* \"contracts/gainzilla.sol\":3789:3805  _maxWalletSize() */\n      tag_390\n        /* \"contracts/gainzilla.sol\":3789:3803  _maxWalletSize */\n      tag_127\n        /* \"contracts/gainzilla.sol\":3789:3805  _maxWalletSize() */\n      jump\t// in\n    tag_390:\n        /* \"contracts/gainzilla.sol\":3750:3785  balanceOf(recipient).add(netAmount) */\n      tag_391\n        /* \"contracts/gainzilla.sol\":3775:3784  netAmount */\n      dup3\n        /* \"contracts/gainzilla.sol\":3750:3770  balanceOf(recipient) */\n      tag_392\n        /* \"contracts/gainzilla.sol\":3760:3769  recipient */\n      dup10\n      sub(shl(0xa0, 0x01), 0x01)\n        /* \"@openzeppelin/contracts@4.9.3/token/ERC20/ERC20.sol\":3519:3537  _balances[account] */\n      and\n        /* \"@openzeppelin/contracts@4.9.3/token/ERC20/ERC20.sol\":3493:3500  uint256 */\n      0x00\n        /* \"@openzeppelin/contracts@4.9.3/token/ERC20/ERC20.sol\":3519:3537  _balances[account] */\n      swap1\n      dup2\n      mstore\n      0x20\n      dup2\n      swap1\n      mstore\n      0x40\n      swap1\n      keccak256\n      sload\n      swap1\n        /* \"@openzeppelin/contracts@4.9.3/token/ERC20/ERC20.sol\":3419:3544  function balanceOf(address account) public view virtual override returns (uint256) {... */\n      jump\n        /* \"contracts/gainzilla.sol\":3750:3770  balanceOf(recipient) */\n    tag_392:\n        /* \"contracts/gainzilla.sol\":3750:3774  balanceOf(recipient).add */\n      swap1\n      tag_393\n        /* \"contracts/gainzilla.sol\":3750:3785  balanceOf(recipient).add(netAmount) */\n      jump\t// in\n    tag_391:\n        /* \"contracts/gainzilla.sol\":3750:3805  balanceOf(recipient).add(netAmount) <= _maxWalletSize() */\n      gt\n      iszero\n        /* \"contracts/gainzilla.sol\":3742:3829  require(balanceOf(recipient).add(netAmount) <= _maxWalletSize(), \"Max wallet exceeded\") */\n      tag_394\n      jumpi\n      mload(0x40)\n      shl(0xe5, 0x461bcd)\n      dup2\n      mstore\n        /* \"#utility.yul\":13141:13143   */\n      0x20\n        /* \"contracts/gainzilla.sol\":3742:3829  require(balanceOf(recipient).add(netAmount) <= _maxWalletSize(), \"Max wallet exceeded\") */\n      0x04\n      dup3\n      add\n        /* \"#utility.yul\":13123:13144   */\n      mstore\n        /* \"#utility.yul\":13180:13182   */\n      0x13\n        /* \"#utility.yul\":13160:13178   */\n      0x24\n      dup3\n      add\n        /* \"#utility.yul\":13153:13183   */\n      mstore\n      shl(0x6a, 0x13585e081dd85b1b195d08195e18d959591959)\n        /* \"#utility.yul\":13199:13217   */\n      0x44\n      dup3\n      add\n        /* \"#utility.yul\":13192:13241   */\n      mstore\n        /* \"#utility.yul\":13258:13276   */\n      0x64\n      add\n        /* \"contracts/gainzilla.sol\":3742:3829  require(balanceOf(recipient).add(netAmount) <= _maxWalletSize(), \"Max wallet exceeded\") */\n      tag_228\n        /* \"#utility.yul\":12939:13282   */\n      jump\n        /* \"contracts/gainzilla.sol\":3742:3829  require(balanceOf(recipient).add(netAmount) <= _maxWalletSize(), \"Max wallet exceeded\") */\n    tag_394:\n        /* \"contracts/gainzilla.sol\":3854:3867  taxAmount > 0 */\n      dup2\n      iszero\n        /* \"contracts/gainzilla.sol\":3850:3997  if (taxAmount > 0) {... */\n      tag_400\n      jumpi\n        /* \"contracts/gainzilla.sol\":3883:3932  super._transfer(sender, address(this), taxAmount) */\n      tag_398\n        /* \"contracts/gainzilla.sol\":3899:3905  sender */\n      dup8\n        /* \"contracts/gainzilla.sol\":3915:3919  this */\n      address\n        /* \"contracts/gainzilla.sol\":3922:3931  taxAmount */\n      dup5\n        /* \"contracts/gainzilla.sol\":3883:3898  super._transfer */\n      tag_399\n        /* \"contracts/gainzilla.sol\":3883:3932  super._transfer(sender, address(this), taxAmount) */\n      jump\t// in\n    tag_398:\n        /* \"contracts/gainzilla.sol\":3946:3986  _distributeTax(taxAmount, isBuy, isSell) */\n      tag_400\n        /* \"contracts/gainzilla.sol\":3961:3970  taxAmount */\n      dup3\n        /* \"contracts/gainzilla.sol\":3972:3977  isBuy */\n      dup6\n        /* \"contracts/gainzilla.sol\":3979:3985  isSell */\n      dup6\n        /* \"contracts/gainzilla.sol\":3946:3960  _distributeTax */\n      tag_401\n        /* \"contracts/gainzilla.sol\":3946:3986  _distributeTax(taxAmount, isBuy, isSell) */\n      jump\t// in\n    tag_400:\n        /* \"contracts/gainzilla.sol\":4007:4052  super._transfer(sender, recipient, netAmount) */\n      tag_402\n        /* \"contracts/gainzilla.sol\":4023:4029  sender */\n      dup8\n        /* \"contracts/gainzilla.sol\":4031:4040  recipient */\n      dup8\n        /* \"contracts/gainzilla.sol\":4042:4051  netAmount */\n      dup4\n        /* \"contracts/gainzilla.sol\":4007:4022  super._transfer */\n      tag_399\n        /* \"contracts/gainzilla.sol\":4007:4052  super._transfer(sender, recipient, netAmount) */\n      jump\t// in\n    tag_402:\n        /* \"contracts/gainzilla.sol\":4067:4084  _shouldSwapBack() */\n      tag_403\n        /* \"contracts/gainzilla.sol\":4067:4082  _shouldSwapBack */\n      tag_404\n        /* \"contracts/gainzilla.sol\":4067:4084  _shouldSwapBack() */\n      jump\t// in\n    tag_403:\n        /* \"contracts/gainzilla.sol\":4063:4128  if (_shouldSwapBack()) {... */\n      iszero\n      tag_406\n      jumpi\n        /* \"contracts/gainzilla.sol\":4100:4117  _swapAndLiquify() */\n      tag_406\n        /* \"contracts/gainzilla.sol\":4100:4115  _swapAndLiquify */\n      tag_407\n        /* \"contracts/gainzilla.sol\":4100:4117  _swapAndLiquify() */\n      jump\t// in\n    tag_406:\n        /* \"contracts/gainzilla.sol\":2967:4134  {... */\n      pop\n      pop\n      pop\n      pop\n        /* \"contracts/gainzilla.sol\":2841:4134  function _transfer(... */\n      pop\n      pop\n      pop\n      jump\t// out\n        /* \"@openzeppelin/contracts@4.9.3/access/Ownable.sol\":2426:2613  function _transferOwnership(address newOwner) internal virtual {... */\n    tag_253:\n        /* \"@openzeppelin/contracts@4.9.3/access/Ownable.sol\":2518:2524  _owner */\n      0x05\n      dup1\n      sload\n      sub(shl(0xa0, 0x01), 0x01)\n        /* \"@openzeppelin/contracts@4.9.3/access/Ownable.sol\":2534:2551  _owner = newOwner */\n      dup4\n      dup2\n      and\n      not(sub(shl(0xa0, 0x01), 0x01))\n      dup4\n      and\n      dup2\n      or\n      swap1\n      swap4\n      sstore\n        /* \"@openzeppelin/contracts@4.9.3/access/Ownable.sol\":2566:2606  OwnershipTransferred(oldOwner, newOwner) */\n      mload(0x40)\n        /* \"@openzeppelin/contracts@4.9.3/access/Ownable.sol\":2518:2524  _owner */\n      swap2\n      and\n      swap2\n        /* \"@openzeppelin/contracts@4.9.3/access/Ownable.sol\":2534:2551  _owner = newOwner */\n      swap1\n        /* \"@openzeppelin/contracts@4.9.3/access/Ownable.sol\":2518:2524  _owner */\n      dup3\n      swap1\n        /* \"@openzeppelin/contracts@4.9.3/access/Ownable.sol\":2566:2606  OwnershipTransferred(oldOwner, newOwner) */\n      0x8be0079c531659141344cd1fd0a4f28419497f9722a3daafe3b4186f6b6457e0\n      swap1\n        /* \"@openzeppelin/contracts@4.9.3/access/Ownable.sol\":2499:2515  address oldOwner */\n      0x00\n      swap1\n        /* \"@openzeppelin/contracts@4.9.3/access/Ownable.sol\":2566:2606  OwnershipTransferred(oldOwner, newOwner) */\n      log3\n        /* \"@openzeppelin/contracts@4.9.3/access/Ownable.sol\":2489:2613  {... */\n      pop\n        /* \"@openzeppelin/contracts@4.9.3/access/Ownable.sol\":2426:2613  function _transferOwnership(address newOwner) internal virtual {... */\n      pop\n      jump\t// out\n        /* \"@openzeppelin/contracts/utils/math/SafeMath.sol\":3122:3218  function sub(uint256 a, uint256 b) internal pure returns (uint256) {... */\n    tag_261:\n        /* \"@openzeppelin/contracts/utils/math/SafeMath.sol\":3180:3187  uint256 */\n      0x00\n        /* \"@openzeppelin/contracts/utils/math/SafeMath.sol\":3206:3211  a - b */\n      tag_235\n        /* \"@openzeppelin/contracts/utils/math/SafeMath.sol\":3210:3211  b */\n      dup3\n        /* \"@openzeppelin/contracts/utils/math/SafeMath.sol\":3206:3207  a */\n      dup5\n        /* \"@openzeppelin/contracts/utils/math/SafeMath.sol\":3206:3211  a - b */\n      tag_411\n      jump\t// in\n        /* \"@openzeppelin/contracts/utils/math/SafeMath.sol\":3465:3561  function mul(uint256 a, uint256 b) internal pure returns (uint256) {... */\n    tag_262:\n        /* \"@openzeppelin/contracts/utils/math/SafeMath.sol\":3523:3530  uint256 */\n      0x00\n        /* \"@openzeppelin/contracts/utils/math/SafeMath.sol\":3549:3554  a * b */\n      tag_235\n        /* \"@openzeppelin/contracts/utils/math/SafeMath.sol\":3553:3554  b */\n      dup3\n        /* \"@openzeppelin/contracts/utils/math/SafeMath.sol\":3549:3550  a */\n      dup5\n        /* \"@openzeppelin/contracts/utils/math/SafeMath.sol\":3549:3554  a * b */\n      tag_414\n      jump\t// in\n        /* \"@openzeppelin/contracts/utils/math/SafeMath.sol\":3850:3946  function div(uint256 a, uint256 b) internal pure returns (uint256) {... */\n    tag_263:\n        /* \"@openzeppelin/contracts/utils/math/SafeMath.sol\":3908:3915  uint256 */\n      0x00\n        /* \"@openzeppelin/contracts/utils/math/SafeMath.sol\":3934:3939  a / b */\n      tag_235\n        /* \"@openzeppelin/contracts/utils/math/SafeMath.sol\":3938:3939  b */\n      dup3\n        /* \"@openzeppelin/contracts/utils/math/SafeMath.sol\":3934:3935  a */\n      dup5\n        /* \"@openzeppelin/contracts/utils/math/SafeMath.sol\":3934:3939  a / b */\n      tag_417\n      jump\t// in\n        /* \"contracts/gainzilla.sol\":9596:9796  function _setupPair() private {... */\n    tag_326:\n        /* \"contracts/gainzilla.sol\":9685:9698  routerAddress */\n      0x13\n      0x00\n      swap1\n      sload\n      swap1\n      0x0100\n      exp\n      swap1\n      div\n      sub(shl(0xa0, 0x01), 0x01)\n      and\n      sub(shl(0xa0, 0x01), 0x01)\n        /* \"contracts/gainzilla.sol\":9668:9707  IUniswapV2Router(routerAddress).factory */\n      and\n      0xc45a0155\n        /* \"contracts/gainzilla.sol\":9668:9709  IUniswapV2Router(routerAddress).factory() */\n      mload(0x40)\n      dup2\n      0xffffffff\n      and\n      0xe0\n      shl\n      dup2\n      mstore\n      0x04\n      add\n      0x20\n      mload(0x40)\n      dup1\n      dup4\n      sub\n      dup2\n      dup7\n      gas\n      staticcall\n      iszero\n      dup1\n      iszero\n      tag_420\n      jumpi\n      returndatasize\n      0x00\n      dup1\n      returndatacopy\n      revert(0x00, returndatasize)\n    tag_420:\n      pop\n      pop\n      pop\n      pop\n      mload(0x40)\n      returndatasize\n      not(0x1f)\n      0x1f\n      dup3\n      add\n      and\n      dup3\n      add\n      dup1\n      0x40\n      mstore\n      pop\n      dup2\n      add\n      swap1\n      tag_421\n      swap2\n      swap1\n      tag_282\n      jump\t// in\n    tag_421:\n      sub(shl(0xa0, 0x01), 0x01)\n        /* \"contracts/gainzilla.sol\":9650:9734  IUniswapV2Factory(IUniswapV2Router(routerAddress).factory())... */\n      and\n      0xc9c65396\n        /* \"contracts/gainzilla.sol\":9743:9747  this */\n      address\n        /* \"contracts/gainzilla.sol\":9767:9780  routerAddress */\n      0x13\n      0x00\n      swap1\n      sload\n      swap1\n      0x0100\n      exp\n      swap1\n      div\n      sub(shl(0xa0, 0x01), 0x01)\n      and\n      sub(shl(0xa0, 0x01), 0x01)\n        /* \"contracts/gainzilla.sol\":9750:9786  IUniswapV2Router(routerAddress).WETH */\n      and\n      0xad5c4648\n        /* \"contracts/gainzilla.sol\":9750:9788  IUniswapV2Router(routerAddress).WETH() */\n      mload(0x40)\n      dup2\n      0xffffffff\n      and\n      0xe0\n      shl\n      dup2\n      mstore\n      0x04\n      add\n      0x20\n      mload(0x40)\n      dup1\n      dup4\n      sub\n      dup2\n      dup7\n      gas\n      staticcall\n      iszero\n      dup1\n      iszero\n      tag_423\n      jumpi\n      returndatasize\n      0x00\n      dup1\n      returndatacopy\n      revert(0x00, returndatasize)\n    tag_423:\n      pop\n      pop\n      pop\n      pop\n      mload(0x40)\n      returndatasize\n      not(0x1f)\n      0x1f\n      dup3\n      add\n      and\n      dup3\n      add\n      dup1\n      0x40\n      mstore\n      pop\n      dup2\n      add\n      swap1\n      tag_424\n      swap2\n      swap1\n      tag_282\n      jump\t// in\n    tag_424:\n        /* \"contracts/gainzilla.sol\":9650:9789  IUniswapV2Factory(IUniswapV2Router(routerAddress).factory())... */\n      mload(0x40)\n      not(sub(shl(0xe0, 0x01), 0x01))\n      0xe0\n      dup6\n      swap1\n      shl\n      and\n      dup2\n      mstore\n      sub(shl(0xa0, 0x01), 0x01)\n        /* \"#utility.yul\":13948:13963   */\n      swap3\n      dup4\n      and\n        /* \"contracts/gainzilla.sol\":9650:9789  IUniswapV2Factory(IUniswapV2Router(routerAddress).factory())... */\n      0x04\n      dup3\n      add\n        /* \"#utility.yul\":13930:13964   */\n      mstore\n        /* \"#utility.yul\":14000:14015   */\n      swap2\n      and\n        /* \"#utility.yul\":13980:13998   */\n      0x24\n      dup3\n      add\n        /* \"#utility.yul\":13973:14016   */\n      mstore\n        /* \"#utility.yul\":13865:13883   */\n      0x44\n      add\n        /* \"contracts/gainzilla.sol\":9650:9789  IUniswapV2Factory(IUniswapV2Router(routerAddress).factory())... */\n      0x20\n      mload(0x40)\n      dup1\n      dup4\n      sub\n      dup2\n      0x00\n      dup8\n      gas\n      call\n      iszero\n      dup1\n      iszero\n      tag_428\n      jumpi\n      returndatasize\n      0x00\n      dup1\n      returndatacopy\n      revert(0x00, returndatasize)\n    tag_428:\n      pop\n      pop\n      pop\n      pop\n      mload(0x40)\n      returndatasize\n      not(0x1f)\n      0x1f\n      dup3\n      add\n      and\n      dup3\n      add\n      dup1\n      0x40\n      mstore\n      pop\n      dup2\n      add\n      swap1\n      tag_429\n      swap2\n      swap1\n      tag_282\n      jump\t// in\n    tag_429:\n        /* \"contracts/gainzilla.sol\":9636:9647  pairAddress */\n      0x14\n        /* \"contracts/gainzilla.sol\":9636:9789  pairAddress = IUniswapV2Factory(IUniswapV2Router(routerAddress).factory())... */\n      dup1\n      sload\n      not(sub(shl(0xa0, 0x01), 0x01))\n      and\n      sub(shl(0xa0, 0x01), 0x01)\n      swap3\n      swap1\n      swap3\n      and\n      swap2\n      swap1\n      swap2\n      or\n      swap1\n      sstore\n        /* \"contracts/gainzilla.sol\":9596:9796  function _setupPair() private {... */\n      jump\t// out\n        /* \"contracts/gainzilla.sol\":5660:6500  function _checkPriceConditions() private {... */\n    tag_378:\n        /* \"contracts/gainzilla.sol\":5711:5731  uint256 currentPrice */\n      0x00\n        /* \"contracts/gainzilla.sol\":5734:5745  pairPrice() */\n      tag_431\n        /* \"contracts/gainzilla.sol\":5734:5743  pairPrice */\n      tag_131\n        /* \"contracts/gainzilla.sol\":5734:5745  pairPrice() */\n      jump\t// in\n    tag_431:\n        /* \"contracts/gainzilla.sol\":5775:5796  diamondFloor.athPrice */\n      sload(0x10)\n        /* \"contracts/gainzilla.sol\":5711:5745  uint256 currentPrice = pairPrice() */\n      swap1\n      swap2\n      pop\n        /* \"contracts/gainzilla.sol\":5760:5796  currentPrice > diamondFloor.athPrice */\n      dup2\n      gt\n        /* \"contracts/gainzilla.sol\":5756:5987  if (currentPrice > diamondFloor.athPrice) {... */\n      iszero\n      tag_432\n      jumpi\n        /* \"contracts/gainzilla.sol\":5812:5833  diamondFloor.athPrice */\n      0x10\n        /* \"contracts/gainzilla.sol\":5812:5848  diamondFloor.athPrice = currentPrice */\n      dup2\n      swap1\n      sstore\n        /* \"contracts/gainzilla.sol\":5866:5890  diamondFloor.sellStopped */\n      and(0xff, sload(0x11))\n        /* \"contracts/gainzilla.sol\":5862:5957  if (diamondFloor.sellStopped) {... */\n      iszero\n      tag_335\n      jumpi\n        /* \"contracts/gainzilla.sol\":5910:5934  diamondFloor.sellStopped */\n      0x11\n        /* \"contracts/gainzilla.sol\":5910:5942  diamondFloor.sellStopped = false */\n      dup1\n      sload\n      not(0xff)\n      and\n      swap1\n      sstore\n        /* \"contracts/gainzilla.sol\":5970:5977  return; */\n      pop\n        /* \"contracts/gainzilla.sol\":5660:6500  function _checkPriceConditions() private {... */\n      jump\t// out\n        /* \"contracts/gainzilla.sol\":5756:5987  if (currentPrice > diamondFloor.athPrice) {... */\n    tag_432:\n        /* \"contracts/gainzilla.sol\":6074:6086  diamondFloor */\n      0x0f\n        /* \"contracts/gainzilla.sol\":6074:6104  diamondFloor.triggerPercentage */\n      sload\n        /* \"contracts/gainzilla.sol\":5997:6019  uint256 thresholdPrice */\n      0x00\n      swap1\n        /* \"contracts/gainzilla.sol\":6022:6134  diamondFloor.athPrice... */\n      tag_434\n      swap1\n        /* \"contracts/gainzilla.sol\":1430:1436  10_000 */\n      0x2710\n      swap1\n        /* \"contracts/gainzilla.sol\":6022:6105  diamondFloor.athPrice... */\n      tag_259\n      swap1\n        /* \"contracts/gainzilla.sol\":6061:6104  BP_DIVISOR - diamondFloor.triggerPercentage */\n      tag_436\n      swap1\n        /* \"contracts/gainzilla.sol\":6074:6104  diamondFloor.triggerPercentage */\n      0x0100\n      swap1\n      div\n      0xffff\n      and\n        /* \"contracts/gainzilla.sol\":1430:1436  10_000 */\n      dup4\n        /* \"contracts/gainzilla.sol\":6061:6104  BP_DIVISOR - diamondFloor.triggerPercentage */\n      tag_411\n      jump\t// in\n    tag_436:\n        /* \"contracts/gainzilla.sol\":6022:6043  diamondFloor.athPrice */\n      sload(0x10)\n      swap1\n        /* \"contracts/gainzilla.sol\":6022:6060  diamondFloor.athPrice... */\n      tag_262\n        /* \"contracts/gainzilla.sol\":6022:6105  diamondFloor.athPrice... */\n      jump\t// in\n        /* \"contracts/gainzilla.sol\":6022:6134  diamondFloor.athPrice... */\n    tag_434:\n        /* \"contracts/gainzilla.sol\":5997:6134  uint256 thresholdPrice = diamondFloor.athPrice... */\n      swap1\n      pop\n        /* \"contracts/gainzilla.sol\":6164:6178  thresholdPrice */\n      dup1\n        /* \"contracts/gainzilla.sol\":6149:6161  currentPrice */\n      dup3\n        /* \"contracts/gainzilla.sol\":6149:6178  currentPrice < thresholdPrice */\n      lt\n        /* \"contracts/gainzilla.sol\":6145:6297  if (currentPrice < thresholdPrice) {... */\n      iszero\n      tag_437\n      jumpi\n        /* \"contracts/gainzilla.sol\":6194:6218  diamondFloor.sellStopped */\n      0x11\n        /* \"contracts/gainzilla.sol\":6194:6225  diamondFloor.sellStopped = true */\n      dup1\n      sload\n      not(0xff)\n      and\n        /* \"contracts/gainzilla.sol\":6221:6225  true */\n      0x01\n        /* \"contracts/gainzilla.sol\":6194:6225  diamondFloor.sellStopped = true */\n      or\n      swap1\n      sstore\n        /* \"contracts/gainzilla.sol\":6265:6286  diamondFloor.athPrice */\n      sload(0x10)\n        /* \"contracts/gainzilla.sol\":6239:6262  diamondFloor.blockedAth */\n      0x12\n        /* \"contracts/gainzilla.sol\":6239:6286  diamondFloor.blockedAth = diamondFloor.athPrice */\n      sstore\n        /* \"contracts/gainzilla.sol\":6145:6297  if (currentPrice < thresholdPrice) {... */\n    tag_437:\n        /* \"contracts/gainzilla.sol\":6311:6335  diamondFloor.sellStopped */\n      and(0xff, sload(0x11))\n        /* \"contracts/gainzilla.sol\":6311:6385  diamondFloor.sellStopped && currentPrice >= diamondFloor.blockedAth.mul(2) */\n      dup1\n      iszero\n      tag_438\n      jumpi\n      pop\n        /* \"contracts/gainzilla.sol\":6355:6378  diamondFloor.blockedAth */\n      sload(0x12)\n        /* \"contracts/gainzilla.sol\":6355:6385  diamondFloor.blockedAth.mul(2) */\n      tag_439\n      swap1\n        /* \"contracts/gainzilla.sol\":6383:6384  2 */\n      0x02\n        /* \"contracts/gainzilla.sol\":6355:6382  diamondFloor.blockedAth.mul */\n      tag_262\n        /* \"contracts/gainzilla.sol\":6355:6385  diamondFloor.blockedAth.mul(2) */\n      jump\t// in\n    tag_439:\n        /* \"contracts/gainzilla.sol\":6339:6351  currentPrice */\n      dup3\n        /* \"contracts/gainzilla.sol\":6339:6385  currentPrice >= diamondFloor.blockedAth.mul(2) */\n      lt\n      iszero\n        /* \"contracts/gainzilla.sol\":6311:6385  diamondFloor.sellStopped && currentPrice >= diamondFloor.blockedAth.mul(2) */\n    tag_438:\n        /* \"contracts/gainzilla.sol\":6307:6494  if (diamondFloor.sellStopped && currentPrice >= diamondFloor.blockedAth.mul(2)) {... */\n      iszero\n      tag_440\n      jumpi\n        /* \"contracts/gainzilla.sol\":6401:6425  diamondFloor.sellStopped */\n      0x11\n        /* \"contracts/gainzilla.sol\":6401:6433  diamondFloor.sellStopped = false */\n      dup1\n      sload\n      not(0xff)\n      and\n      swap1\n      sstore\n        /* \"contracts/gainzilla.sol\":6447:6468  diamondFloor.athPrice */\n      0x10\n        /* \"contracts/gainzilla.sol\":6447:6483  diamondFloor.athPrice = currentPrice */\n      dup3\n      swap1\n      sstore\n        /* \"contracts/gainzilla.sol\":6307:6494  if (diamondFloor.sellStopped && currentPrice >= diamondFloor.blockedAth.mul(2)) {... */\n    tag_440:\n        /* \"contracts/gainzilla.sol\":5701:6500  {... */\n      pop\n      pop\n        /* \"contracts/gainzilla.sol\":5660:6500  function _checkPriceConditions() private {... */\n      jump\t// out\n        /* \"contracts/gainzilla.sol\":4140:4921  function _calculateTax(... */\n    tag_386:\n      sub(shl(0xa0, 0x01), 0x01)\n        /* \"contracts/gainzilla.sol\":4289:4305  isExempt[sender] */\n      dup4\n      and\n        /* \"contracts/gainzilla.sol\":4266:4273  uint256 */\n      0x00\n        /* \"contracts/gainzilla.sol\":4289:4305  isExempt[sender] */\n      swap1\n      dup2\n      mstore\n        /* \"contracts/gainzilla.sol\":4289:4297  isExempt */\n      0x15\n        /* \"contracts/gainzilla.sol\":4289:4305  isExempt[sender] */\n      0x20\n      mstore\n      0x40\n      dup2\n      keccak256\n      sload\n      0xff\n      and\n      dup1\n        /* \"contracts/gainzilla.sol\":4289:4328  isExempt[sender] || isExempt[recipient] */\n      tag_442\n      jumpi\n      pop\n      sub(shl(0xa0, 0x01), 0x01)\n        /* \"contracts/gainzilla.sol\":4309:4328  isExempt[recipient] */\n      dup4\n      and\n      0x00\n      swap1\n      dup2\n      mstore\n        /* \"contracts/gainzilla.sol\":4309:4317  isExempt */\n      0x15\n        /* \"contracts/gainzilla.sol\":4309:4328  isExempt[recipient] */\n      0x20\n      mstore\n      0x40\n      swap1\n      keccak256\n      sload\n      0xff\n      and\n        /* \"contracts/gainzilla.sol\":4289:4328  isExempt[sender] || isExempt[recipient] */\n    tag_442:\n        /* \"contracts/gainzilla.sol\":4285:4338  if (isExempt[sender] || isExempt[recipient]) return 0 */\n      iszero\n      tag_443\n      jumpi\n      pop\n        /* \"contracts/gainzilla.sol\":4337:4338  0 */\n      0x00\n        /* \"contracts/gainzilla.sol\":4330:4338  return 0 */\n      jump(tag_235)\n        /* \"contracts/gainzilla.sol\":4285:4338  if (isExempt[sender] || isExempt[recipient]) return 0 */\n    tag_443:\n        /* \"contracts/gainzilla.sol\":4372:4383  pairAddress */\n      sload(0x14)\n      sub(shl(0xa0, 0x01), 0x01)\n      swap1\n      dup2\n      and\n        /* \"contracts/gainzilla.sol\":4362:4383  sender == pairAddress */\n      dup6\n      dup3\n      and\n      dup2\n      eq\n      swap2\n        /* \"contracts/gainzilla.sol\":4407:4431  recipient == pairAddress */\n      dup6\n      and\n      eq\n        /* \"contracts/gainzilla.sol\":4442:4915  if (isBuy) {... */\n      dup2\n      iszero\n      tag_444\n      jumpi\n        /* \"contracts/gainzilla.sol\":4513:4521  taxRates */\n      0x07\n        /* \"contracts/gainzilla.sol\":4513:4528  taxRates.buyEco */\n      sload\n        /* \"contracts/gainzilla.sol\":4474:4546  amount.mul(uint256(taxRates.buyLp).add(taxRates.buyEco)).div(BP_DIVISOR) */\n      tag_445\n      swap1\n        /* \"contracts/gainzilla.sol\":1430:1436  10_000 */\n      0x2710\n      swap1\n        /* \"contracts/gainzilla.sol\":4474:4530  amount.mul(uint256(taxRates.buyLp).add(taxRates.buyEco)) */\n      tag_259\n      swap1\n        /* \"contracts/gainzilla.sol\":4485:4529  uint256(taxRates.buyLp).add(taxRates.buyEco) */\n      tag_447\n      swap1\n        /* \"contracts/gainzilla.sol\":4513:4528  taxRates.buyEco */\n      0xffff\n        /* \"contracts/gainzilla.sol\":4493:4507  taxRates.buyLp */\n      dup1\n      dup3\n      and\n      swap2\n        /* \"contracts/gainzilla.sol\":4513:4528  taxRates.buyEco */\n      0x010000\n      swap1\n      div\n      and\n        /* \"contracts/gainzilla.sol\":4485:4512  uint256(taxRates.buyLp).add */\n      tag_393\n        /* \"contracts/gainzilla.sol\":4485:4529  uint256(taxRates.buyLp).add(taxRates.buyEco) */\n      jump\t// in\n    tag_447:\n        /* \"contracts/gainzilla.sol\":4474:4480  amount */\n      dup8\n      swap1\n        /* \"contracts/gainzilla.sol\":4474:4484  amount.mul */\n      tag_262\n        /* \"contracts/gainzilla.sol\":4474:4530  amount.mul(uint256(taxRates.buyLp).add(taxRates.buyEco)) */\n      jump\t// in\n        /* \"contracts/gainzilla.sol\":4474:4546  amount.mul(uint256(taxRates.buyLp).add(taxRates.buyEco)).div(BP_DIVISOR) */\n    tag_445:\n        /* \"contracts/gainzilla.sol\":4467:4546  return amount.mul(uint256(taxRates.buyLp).add(taxRates.buyEco)).div(BP_DIVISOR) */\n      swap3\n      pop\n      pop\n      pop\n      jump(tag_235)\n        /* \"contracts/gainzilla.sol\":4442:4915  if (isBuy) {... */\n    tag_444:\n        /* \"contracts/gainzilla.sol\":4567:4573  isSell */\n      dup1\n        /* \"contracts/gainzilla.sol\":4563:4915  if (isSell) {... */\n      iszero\n      tag_449\n      jumpi\n        /* \"contracts/gainzilla.sol\":4636:4644  taxRates */\n      0x07\n        /* \"contracts/gainzilla.sol\":4636:4652  taxRates.sellEco */\n      sload\n        /* \"contracts/gainzilla.sol\":4596:4670  amount.mul(uint256(taxRates.sellLp).add(taxRates.sellEco)).div(BP_DIVISOR) */\n      tag_445\n      swap1\n        /* \"contracts/gainzilla.sol\":1430:1436  10_000 */\n      0x2710\n      swap1\n        /* \"contracts/gainzilla.sol\":4596:4654  amount.mul(uint256(taxRates.sellLp).add(taxRates.sellEco)) */\n      tag_259\n      swap1\n        /* \"contracts/gainzilla.sol\":4607:4653  uint256(taxRates.sellLp).add(taxRates.sellEco) */\n      tag_447\n      swap1\n        /* \"contracts/gainzilla.sol\":4636:4652  taxRates.sellEco */\n      0xffff\n      shl(0x20, 0x01)\n        /* \"contracts/gainzilla.sol\":4615:4630  taxRates.sellLp */\n      dup3\n      div\n      dup2\n      and\n      swap2\n      shl(0x30, 0x01)\n        /* \"contracts/gainzilla.sol\":4636:4652  taxRates.sellEco */\n      swap1\n      div\n      and\n        /* \"contracts/gainzilla.sol\":4607:4635  uint256(taxRates.sellLp).add */\n      tag_393\n        /* \"contracts/gainzilla.sol\":4607:4653  uint256(taxRates.sellLp).add(taxRates.sellEco) */\n      jump\t// in\n        /* \"contracts/gainzilla.sol\":4563:4915  if (isSell) {... */\n    tag_449:\n        /* \"contracts/gainzilla.sol\":4750:4758  taxRates */\n      0x07\n        /* \"contracts/gainzilla.sol\":4750:4766  taxRates.sellEco */\n      sload\n        /* \"contracts/gainzilla.sol\":4701:4718  uint256 sellTotal */\n      0x00\n      swap1\n        /* \"contracts/gainzilla.sol\":4721:4767  uint256(taxRates.sellLp).add(taxRates.sellEco) */\n      tag_454\n      swap1\n        /* \"contracts/gainzilla.sol\":4750:4766  taxRates.sellEco */\n      0xffff\n      shl(0x20, 0x01)\n        /* \"contracts/gainzilla.sol\":4729:4744  taxRates.sellLp */\n      dup3\n      div\n      dup2\n      and\n      swap2\n      shl(0x30, 0x01)\n        /* \"contracts/gainzilla.sol\":4750:4766  taxRates.sellEco */\n      swap1\n      div\n      and\n        /* \"contracts/gainzilla.sol\":4721:4749  uint256(taxRates.sellLp).add */\n      tag_393\n        /* \"contracts/gainzilla.sol\":4721:4767  uint256(taxRates.sellLp).add(taxRates.sellEco) */\n      jump\t// in\n    tag_454:\n        /* \"contracts/gainzilla.sol\":4701:4767  uint256 sellTotal = uint256(taxRates.sellLp).add(taxRates.sellEco) */\n      swap1\n      pop\n        /* \"contracts/gainzilla.sol\":4781:4800  uint256 transferTax */\n      0x00\n        /* \"contracts/gainzilla.sol\":4803:4844  sellTotal.mul(transferMultiplier).div(10) */\n      tag_455\n        /* \"contracts/gainzilla.sol\":4841:4843  10 */\n      0x0a\n        /* \"contracts/gainzilla.sol\":4803:4836  sellTotal.mul(transferMultiplier) */\n      tag_259\n        /* \"contracts/gainzilla.sol\":4817:4835  transferMultiplier */\n      sload(0x08)\n        /* \"contracts/gainzilla.sol\":4803:4812  sellTotal */\n      dup6\n        /* \"contracts/gainzilla.sol\":4803:4816  sellTotal.mul */\n      tag_262\n      swap1\n        /* \"contracts/gainzilla.sol\":4803:4836  sellTotal.mul(transferMultiplier) */\n      swap2\n      swap1\n      0xffffffff\n      and\n      jump\t// in\n        /* \"contracts/gainzilla.sol\":4803:4844  sellTotal.mul(transferMultiplier).div(10) */\n    tag_455:\n        /* \"contracts/gainzilla.sol\":4781:4844  uint256 transferTax = sellTotal.mul(transferMultiplier).div(10) */\n      swap1\n      pop\n        /* \"contracts/gainzilla.sol\":4865:4904  amount.mul(transferTax).div(BP_DIVISOR) */\n      tag_457\n        /* \"contracts/gainzilla.sol\":1430:1436  10_000 */\n      0x2710\n        /* \"contracts/gainzilla.sol\":4865:4888  amount.mul(transferTax) */\n      tag_259\n        /* \"contracts/gainzilla.sol\":4865:4871  amount */\n      dup9\n        /* \"contracts/gainzilla.sol\":4781:4844  uint256 transferTax = sellTotal.mul(transferMultiplier).div(10) */\n      dup5\n        /* \"contracts/gainzilla.sol\":4865:4875  amount.mul */\n      tag_262\n        /* \"contracts/gainzilla.sol\":4865:4888  amount.mul(transferTax) */\n      jump\t// in\n        /* \"contracts/gainzilla.sol\":4865:4904  amount.mul(transferTax).div(BP_DIVISOR) */\n    tag_457:\n        /* \"contracts/gainzilla.sol\":4858:4904  return amount.mul(transferTax).div(BP_DIVISOR) */\n      swap5\n      pop\n      pop\n      pop\n      pop\n      pop\n      jump(tag_235)\n        /* \"@openzeppelin/contracts/utils/math/SafeMath.sol\":2755:2851  function add(uint256 a, uint256 b) internal pure returns (uint256) {... */\n    tag_393:\n        /* \"@openzeppelin/contracts/utils/math/SafeMath.sol\":2813:2820  uint256 */\n      0x00\n        /* \"@openzeppelin/contracts/utils/math/SafeMath.sol\":2839:2844  a + b */\n      tag_235\n        /* \"@openzeppelin/contracts/utils/math/SafeMath.sol\":2843:2844  b */\n      dup3\n        /* \"@openzeppelin/contracts/utils/math/SafeMath.sol\":2839:2840  a */\n      dup5\n        /* \"@openzeppelin/contracts/utils/math/SafeMath.sol\":2839:2844  a + b */\n      tag_247\n      jump\t// in\n        /* \"@openzeppelin/contracts@4.9.3/token/ERC20/ERC20.sol\":7456:8244  function _transfer(address from, address to, uint256 amount) internal virtual {... */\n    tag_399:\n      sub(shl(0xa0, 0x01), 0x01)\n        /* \"@openzeppelin/contracts@4.9.3/token/ERC20/ERC20.sol\":7552:7570  from != address(0) */\n      dup4\n      and\n        /* \"@openzeppelin/contracts@4.9.3/token/ERC20/ERC20.sol\":7544:7612  require(from != address(0), \"ERC20: transfer from the zero address\") */\n      tag_462\n      jumpi\n      mload(0x40)\n      shl(0xe5, 0x461bcd)\n      dup2\n      mstore\n        /* \"#utility.yul\":14229:14231   */\n      0x20\n        /* \"@openzeppelin/contracts@4.9.3/token/ERC20/ERC20.sol\":7544:7612  require(from != address(0), \"ERC20: transfer from the zero address\") */\n      0x04\n      dup3\n      add\n        /* \"#utility.yul\":14211:14232   */\n      mstore\n        /* \"#utility.yul\":14268:14270   */\n      0x25\n        /* \"#utility.yul\":14248:14266   */\n      0x24\n      dup3\n      add\n        /* \"#utility.yul\":14241:14271   */\n      mstore\n        /* \"#utility.yul\":14307:14341   */\n      0x45524332303a207472616e736665722066726f6d20746865207a65726f206164\n        /* \"#utility.yul\":14287:14305   */\n      0x44\n      dup3\n      add\n        /* \"#utility.yul\":14280:14342   */\n      mstore\n      shl(0xd8, 0x6472657373)\n        /* \"#utility.yul\":14358:14376   */\n      0x64\n      dup3\n      add\n        /* \"#utility.yul\":14351:14386   */\n      mstore\n        /* \"#utility.yul\":14403:14422   */\n      0x84\n      add\n        /* \"@openzeppelin/contracts@4.9.3/token/ERC20/ERC20.sol\":7544:7612  require(from != address(0), \"ERC20: transfer from the zero address\") */\n      tag_228\n        /* \"#utility.yul\":14027:14428   */\n      jump\n        /* \"@openzeppelin/contracts@4.9.3/token/ERC20/ERC20.sol\":7544:7612  require(from != address(0), \"ERC20: transfer from the zero address\") */\n    tag_462:\n      sub(shl(0xa0, 0x01), 0x01)\n        /* \"@openzeppelin/contracts@4.9.3/token/ERC20/ERC20.sol\":7630:7646  to != address(0) */\n      dup3\n      and\n        /* \"@openzeppelin/contracts@4.9.3/token/ERC20/ERC20.sol\":7622:7686  require(to != address(0), \"ERC20: transfer to the zero address\") */\n      tag_465\n      jumpi\n      mload(0x40)\n      shl(0xe5, 0x461bcd)\n      dup2\n      mstore\n        /* \"#utility.yul\":14635:14637   */\n      0x20\n        /* \"@openzeppelin/contracts@4.9.3/token/ERC20/ERC20.sol\":7622:7686  require(to != address(0), \"ERC20: transfer to the zero address\") */\n      0x04\n      dup3\n      add\n        /* \"#utility.yul\":14617:14638   */\n      mstore\n        /* \"#utility.yul\":14674:14676   */\n      0x23\n        /* \"#utility.yul\":14654:14672   */\n      0x24\n      dup3\n      add\n        /* \"#utility.yul\":14647:14677   */\n      mstore\n        /* \"#utility.yul\":14713:14747   */\n      0x45524332303a207472616e7366657220746f20746865207a65726f2061646472\n        /* \"#utility.yul\":14693:14711   */\n      0x44\n      dup3\n      add\n        /* \"#utility.yul\":14686:14748   */\n      mstore\n      shl(0xe8, 0x657373)\n        /* \"#utility.yul\":14764:14782   */\n      0x64\n      dup3\n      add\n        /* \"#utility.yul\":14757:14790   */\n      mstore\n        /* \"#utility.yul\":14807:14826   */\n      0x84\n      add\n        /* \"@openzeppelin/contracts@4.9.3/token/ERC20/ERC20.sol\":7622:7686  require(to != address(0), \"ERC20: transfer to the zero address\") */\n      tag_228\n        /* \"#utility.yul\":14433:14832   */\n      jump\n        /* \"@openzeppelin/contracts@4.9.3/token/ERC20/ERC20.sol\":7622:7686  require(to != address(0), \"ERC20: transfer to the zero address\") */\n    tag_465:\n      sub(shl(0xa0, 0x01), 0x01)\n        /* \"@openzeppelin/contracts@4.9.3/token/ERC20/ERC20.sol\":7768:7783  _balances[from] */\n      dup4\n      and\n        /* \"@openzeppelin/contracts@4.9.3/token/ERC20/ERC20.sol\":7746:7765  uint256 fromBalance */\n      0x00\n        /* \"@openzeppelin/contracts@4.9.3/token/ERC20/ERC20.sol\":7768:7783  _balances[from] */\n      swap1\n      dup2\n      mstore\n      0x20\n      dup2\n      swap1\n      mstore\n      0x40\n      swap1\n      keccak256\n      sload\n        /* \"@openzeppelin/contracts@4.9.3/token/ERC20/ERC20.sol\":7801:7822  fromBalance >= amount */\n      dup2\n      dup2\n      lt\n      iszero\n        /* \"@openzeppelin/contracts@4.9.3/token/ERC20/ERC20.sol\":7793:7865  require(fromBalance >= amount, \"ERC20: transfer amount exceeds balance\") */\n      tag_470\n      jumpi\n      mload(0x40)\n      shl(0xe5, 0x461bcd)\n      dup2\n      mstore\n        /* \"#utility.yul\":15039:15041   */\n      0x20\n        /* \"@openzeppelin/contracts@4.9.3/token/ERC20/ERC20.sol\":7793:7865  require(fromBalance >= amount, \"ERC20: transfer amount exceeds balance\") */\n      0x04\n      dup3\n      add\n        /* \"#utility.yul\":15021:15042   */\n      mstore\n        /* \"#utility.yul\":15078:15080   */\n      0x26\n        /* \"#utility.yul\":15058:15076   */\n      0x24\n      dup3\n      add\n        /* \"#utility.yul\":15051:15081   */\n      mstore\n        /* \"#utility.yul\":15117:15151   */\n      0x45524332303a207472616e7366657220616d6f756e7420657863656564732062\n        /* \"#utility.yul\":15097:15115   */\n      0x44\n      dup3\n      add\n        /* \"#utility.yul\":15090:15152   */\n      mstore\n      shl(0xd0, 0x616c616e6365)\n        /* \"#utility.yul\":15168:15186   */\n      0x64\n      dup3\n      add\n        /* \"#utility.yul\":15161:15197   */\n      mstore\n        /* \"#utility.yul\":15214:15233   */\n      0x84\n      add\n        /* \"@openzeppelin/contracts@4.9.3/token/ERC20/ERC20.sol\":7793:7865  require(fromBalance >= amount, \"ERC20: transfer amount exceeds balance\") */\n      tag_228\n        /* \"#utility.yul\":14837:15239   */\n      jump\n        /* \"@openzeppelin/contracts@4.9.3/token/ERC20/ERC20.sol\":7793:7865  require(fromBalance >= amount, \"ERC20: transfer amount exceeds balance\") */\n    tag_470:\n      sub(shl(0xa0, 0x01), 0x01)\n        /* \"@openzeppelin/contracts@4.9.3/token/ERC20/ERC20.sol\":7899:7914  _balances[from] */\n      dup5\n      dup2\n      and\n        /* \"@openzeppelin/contracts@4.9.3/token/ERC20/ERC20.sol\":7899:7908  _balances */\n      0x00\n        /* \"@openzeppelin/contracts@4.9.3/token/ERC20/ERC20.sol\":7899:7914  _balances[from] */\n      dup2\n      dup2\n      mstore\n      0x20\n      dup2\n      dup2\n      mstore\n      0x40\n      dup1\n      dup4\n      keccak256\n        /* \"@openzeppelin/contracts@4.9.3/token/ERC20/ERC20.sol\":7917:7937  fromBalance - amount */\n      dup8\n      dup8\n      sub\n        /* \"@openzeppelin/contracts@4.9.3/token/ERC20/ERC20.sol\":7899:7937  _balances[from] = fromBalance - amount */\n      swap1\n      sstore\n        /* \"@openzeppelin/contracts@4.9.3/token/ERC20/ERC20.sol\":8114:8127  _balances[to] */\n      swap4\n      dup8\n      and\n      dup1\n      dup4\n      mstore\n      swap2\n      dup5\n      swap1\n      keccak256\n        /* \"@openzeppelin/contracts@4.9.3/token/ERC20/ERC20.sol\":8114:8137  _balances[to] += amount */\n      dup1\n      sload\n      dup8\n      add\n      swap1\n      sstore\n        /* \"@openzeppelin/contracts@4.9.3/token/ERC20/ERC20.sol\":8163:8189  Transfer(from, to, amount) */\n      swap3\n      mload\n        /* \"#utility.yul\":160:185   */\n      dup6\n      dup2\n      mstore\n        /* \"@openzeppelin/contracts@4.9.3/token/ERC20/ERC20.sol\":8114:8127  _balances[to] */\n      swap1\n      swap3\n        /* \"@openzeppelin/contracts@4.9.3/token/ERC20/ERC20.sol\":8163:8189  Transfer(from, to, amount) */\n      0xddf252ad1be2c89b69c2b068fc378daa952ba7f163c4a11628f55a4df523b3ef\n      swap2\n        /* \"#utility.yul\":133:151   */\n      add\n        /* \"@openzeppelin/contracts@4.9.3/token/ERC20/ERC20.sol\":8163:8189  Transfer(from, to, amount) */\n      mload(0x40)\n      dup1\n      swap2\n      sub\n      swap1\n      log3\n        /* \"@openzeppelin/contracts@4.9.3/token/ERC20/ERC20.sol\":8200:8237  _afterTokenTransfer(from, to, amount) */\n      tag_365\n        /* \"@openzeppelin/contracts@4.9.3/token/ERC20/ERC20.sol\":12073:12164  function _beforeTokenTransfer(address from, address to, uint256 amount) internal virtual {} */\n      jump\n        /* \"contracts/gainzilla.sol\":4928:5654  function _distributeTax(uint256 taxAmount, bool isBuy, bool isSell) private {... */\n    tag_401:\n        /* \"contracts/gainzilla.sol\":5014:5029  uint256 lpShare */\n      0x00\n        /* \"contracts/gainzilla.sol\":5039:5055  uint256 ecoShare */\n      dup1\n        /* \"contracts/gainzilla.sol\":5070:5075  isBuy */\n      dup4\n        /* \"contracts/gainzilla.sol\":5066:5488  if (isBuy) {... */\n      iszero\n      tag_477\n      jumpi\n        /* \"contracts/gainzilla.sol\":5152:5160  taxRates */\n      0x07\n        /* \"contracts/gainzilla.sol\":5152:5167  taxRates.buyEco */\n      sload\n        /* \"contracts/gainzilla.sol\":5101:5168  taxAmount.mul(taxRates.buyLp).div(taxRates.buyLp + taxRates.buyEco) */\n      tag_478\n      swap1\n        /* \"contracts/gainzilla.sol\":5135:5167  taxRates.buyLp + taxRates.buyEco */\n      tag_479\n      swap1\n        /* \"contracts/gainzilla.sol\":5152:5167  taxRates.buyEco */\n      0xffff\n      0x010000\n      dup3\n      div\n      dup2\n      and\n      swap2\n        /* \"contracts/gainzilla.sol\":5135:5149  taxRates.buyLp */\n      and\n        /* \"contracts/gainzilla.sol\":5135:5167  taxRates.buyLp + taxRates.buyEco */\n      tag_226\n      jump\t// in\n    tag_479:\n        /* \"contracts/gainzilla.sol\":5115:5123  taxRates */\n      0x07\n        /* \"contracts/gainzilla.sol\":5115:5129  taxRates.buyLp */\n      sload\n        /* \"contracts/gainzilla.sol\":5101:5168  taxAmount.mul(taxRates.buyLp).div(taxRates.buyLp + taxRates.buyEco) */\n      0xffff\n      swap2\n      dup3\n      and\n      swap2\n        /* \"contracts/gainzilla.sol\":5101:5130  taxAmount.mul(taxRates.buyLp) */\n      tag_259\n      swap2\n        /* \"contracts/gainzilla.sol\":5101:5110  taxAmount */\n      dup10\n      swap2\n        /* \"contracts/gainzilla.sol\":5115:5129  taxRates.buyLp */\n      and\n        /* \"contracts/gainzilla.sol\":5101:5114  taxAmount.mul */\n      tag_262\n        /* \"contracts/gainzilla.sol\":5101:5130  taxAmount.mul(taxRates.buyLp) */\n      jump\t// in\n        /* \"contracts/gainzilla.sol\":5101:5168  taxAmount.mul(taxRates.buyLp).div(taxRates.buyLp + taxRates.buyEco) */\n    tag_478:\n        /* \"contracts/gainzilla.sol\":5091:5168  lpShare = taxAmount.mul(taxRates.buyLp).div(taxRates.buyLp + taxRates.buyEco) */\n      swap2\n      pop\n        /* \"contracts/gainzilla.sol\":5066:5488  if (isBuy) {... */\n      jump(tag_486)\n    tag_477:\n        /* \"contracts/gainzilla.sol\":5189:5195  isSell */\n      dup3\n        /* \"contracts/gainzilla.sol\":5185:5488  if (isSell) {... */\n      iszero\n      tag_482\n      jumpi\n        /* \"contracts/gainzilla.sol\":5274:5282  taxRates */\n      0x07\n        /* \"contracts/gainzilla.sol\":5274:5290  taxRates.sellEco */\n      sload\n        /* \"contracts/gainzilla.sol\":5221:5291  taxAmount.mul(taxRates.sellLp).div(taxRates.sellLp + taxRates.sellEco) */\n      tag_478\n      swap1\n        /* \"contracts/gainzilla.sol\":5256:5290  taxRates.sellLp + taxRates.sellEco */\n      tag_484\n      swap1\n        /* \"contracts/gainzilla.sol\":5274:5290  taxRates.sellEco */\n      0xffff\n      shl(0x30, 0x01)\n      dup3\n      div\n      dup2\n      and\n      swap2\n      shl(0x20, 0x01)\n        /* \"contracts/gainzilla.sol\":5256:5271  taxRates.sellLp */\n      swap1\n      div\n      and\n        /* \"contracts/gainzilla.sol\":5256:5290  taxRates.sellLp + taxRates.sellEco */\n      tag_226\n      jump\t// in\n    tag_484:\n        /* \"contracts/gainzilla.sol\":5235:5243  taxRates */\n      0x07\n        /* \"contracts/gainzilla.sol\":5235:5250  taxRates.sellLp */\n      sload\n        /* \"contracts/gainzilla.sol\":5221:5291  taxAmount.mul(taxRates.sellLp).div(taxRates.sellLp + taxRates.sellEco) */\n      0xffff\n      swap2\n      dup3\n      and\n      swap2\n        /* \"contracts/gainzilla.sol\":5221:5251  taxAmount.mul(taxRates.sellLp) */\n      tag_259\n      swap2\n        /* \"contracts/gainzilla.sol\":5221:5230  taxAmount */\n      dup10\n      swap2\n      shl(0x20, 0x01)\n        /* \"contracts/gainzilla.sol\":5235:5250  taxRates.sellLp */\n      swap1\n      swap2\n      div\n      and\n        /* \"contracts/gainzilla.sol\":5221:5234  taxAmount.mul */\n      tag_262\n        /* \"contracts/gainzilla.sol\":5221:5251  taxAmount.mul(taxRates.sellLp) */\n      jump\t// in\n        /* \"contracts/gainzilla.sol\":5185:5488  if (isSell) {... */\n    tag_482:\n        /* \"contracts/gainzilla.sol\":5360:5368  taxRates */\n      0x07\n        /* \"contracts/gainzilla.sol\":5360:5376  taxRates.sellEco */\n      sload\n        /* \"contracts/gainzilla.sol\":5322:5339  uint256 sellTotal */\n      0x00\n      swap1\n        /* \"contracts/gainzilla.sol\":5342:5376  taxRates.sellLp + taxRates.sellEco */\n      tag_487\n      swap1\n        /* \"contracts/gainzilla.sol\":5360:5376  taxRates.sellEco */\n      0xffff\n      shl(0x30, 0x01)\n      dup3\n      div\n      dup2\n      and\n      swap2\n      shl(0x20, 0x01)\n        /* \"contracts/gainzilla.sol\":5342:5357  taxRates.sellLp */\n      swap1\n      div\n      and\n        /* \"contracts/gainzilla.sol\":5342:5376  taxRates.sellLp + taxRates.sellEco */\n      tag_226\n      jump\t// in\n    tag_487:\n        /* \"contracts/gainzilla.sol\":5322:5376  uint256 sellTotal = taxRates.sellLp + taxRates.sellEco */\n      0xffff\n      and\n      swap1\n      pop\n        /* \"contracts/gainzilla.sol\":5400:5477  taxAmount.mul(taxRates.sellLp).div(sellTotal).mul(transferMultiplier).div(10) */\n      tag_488\n        /* \"contracts/gainzilla.sol\":5474:5476  10 */\n      0x0a\n        /* \"contracts/gainzilla.sol\":5400:5469  taxAmount.mul(taxRates.sellLp).div(sellTotal).mul(transferMultiplier) */\n      tag_259\n        /* \"contracts/gainzilla.sol\":5450:5468  transferMultiplier */\n      sload(0x08)\n        /* \"contracts/gainzilla.sol\":5400:5445  taxAmount.mul(taxRates.sellLp).div(sellTotal) */\n      tag_260\n        /* \"contracts/gainzilla.sol\":5435:5444  sellTotal */\n      dup6\n        /* \"contracts/gainzilla.sol\":5400:5430  taxAmount.mul(taxRates.sellLp) */\n      tag_259\n        /* \"contracts/gainzilla.sol\":5414:5422  taxRates */\n      0x07\n        /* \"contracts/gainzilla.sol\":5414:5429  taxRates.sellLp */\n      0x00\n      add\n      0x04\n      swap1\n      sload\n      swap1\n      0x0100\n      exp\n      swap1\n      div\n      0xffff\n      and\n        /* \"contracts/gainzilla.sol\":5400:5430  taxAmount.mul(taxRates.sellLp) */\n      0xffff\n      and\n        /* \"contracts/gainzilla.sol\":5400:5409  taxAmount */\n      dup14\n        /* \"contracts/gainzilla.sol\":5400:5413  taxAmount.mul */\n      tag_262\n      swap1\n        /* \"contracts/gainzilla.sol\":5400:5430  taxAmount.mul(taxRates.sellLp) */\n      swap2\n      swap1\n      0xffffffff\n      and\n      jump\t// in\n        /* \"contracts/gainzilla.sol\":5400:5477  taxAmount.mul(taxRates.sellLp).div(sellTotal).mul(transferMultiplier).div(10) */\n    tag_488:\n        /* \"contracts/gainzilla.sol\":5390:5477  lpShare = taxAmount.mul(taxRates.sellLp).div(sellTotal).mul(transferMultiplier).div(10) */\n      swap3\n      pop\n        /* \"contracts/gainzilla.sol\":5308:5488  {... */\n      pop\n        /* \"contracts/gainzilla.sol\":5185:5488  if (isSell) {... */\n    tag_486:\n        /* \"contracts/gainzilla.sol\":5509:5528  taxAmount - lpShare */\n      tag_492\n        /* \"contracts/gainzilla.sol\":5521:5528  lpShare */\n      dup3\n        /* \"contracts/gainzilla.sol\":5509:5518  taxAmount */\n      dup7\n        /* \"contracts/gainzilla.sol\":5509:5528  taxAmount - lpShare */\n      tag_411\n      jump\t// in\n    tag_492:\n        /* \"contracts/gainzilla.sol\":5498:5528  ecoShare = taxAmount - lpShare */\n      swap1\n      pop\n        /* \"contracts/gainzilla.sol\":5555:5562  lpShare */\n      dup2\n        /* \"contracts/gainzilla.sol\":5538:5551  accumulatedLp */\n      0x0a\n      0x00\n        /* \"contracts/gainzilla.sol\":5538:5562  accumulatedLp += lpShare */\n      dup3\n      dup3\n      sload\n      tag_493\n      swap2\n      swap1\n      tag_247\n      jump\t// in\n    tag_493:\n      swap3\n      pop\n      pop\n      dup2\n      swap1\n      sstore\n      pop\n        /* \"contracts/gainzilla.sol\":5590:5598  ecoShare */\n      dup1\n        /* \"contracts/gainzilla.sol\":5572:5586  accumulatedEco */\n      0x0b\n      0x00\n        /* \"contracts/gainzilla.sol\":5572:5598  accumulatedEco += ecoShare */\n      dup3\n      dup3\n      sload\n      tag_494\n      swap2\n      swap1\n      tag_247\n      jump\t// in\n    tag_494:\n      swap1\n      swap2\n      sstore\n      pop\n      pop\n        /* \"contracts/gainzilla.sol\":5614:5647  TaxesCollected(lpShare, ecoShare) */\n      0x40\n      dup1\n      mload\n        /* \"#utility.yul\":15418:15443   */\n      dup4\n      dup2\n      mstore\n        /* \"#utility.yul\":15474:15476   */\n      0x20\n        /* \"#utility.yul\":15459:15477   */\n      dup2\n      add\n        /* \"#utility.yul\":15452:15486   */\n      dup4\n      swap1\n      mstore\n        /* \"contracts/gainzilla.sol\":5614:5647  TaxesCollected(lpShare, ecoShare) */\n      0xf2d9f3f00fc700757eb74f9aa3dba0e2eb1280e0c6e0cf65962cc055528d7a90\n      swap2\n        /* \"#utility.yul\":15391:15409   */\n      add\n        /* \"contracts/gainzilla.sol\":5614:5647  TaxesCollected(lpShare, ecoShare) */\n      mload(0x40)\n      dup1\n      swap2\n      sub\n      swap1\n      log1\n        /* \"contracts/gainzilla.sol\":5004:5654  {... */\n      pop\n      pop\n        /* \"contracts/gainzilla.sol\":4928:5654  function _distributeTax(uint256 taxAmount, bool isBuy, bool isSell) private {... */\n      pop\n      pop\n      pop\n      jump\t// out\n        /* \"contracts/gainzilla.sol\":10800:10995  function _shouldSwapBack() private view returns (bool) {... */\n    tag_404:\n        /* \"contracts/gainzilla.sol\":10873:10881  swapping */\n      sload(0x0c)\n        /* \"contracts/gainzilla.sol\":10849:10853  bool */\n      0x00\n      swap1\n        /* \"contracts/gainzilla.sol\":10873:10881  swapping */\n      0xff\n      and\n        /* \"contracts/gainzilla.sol\":10872:10881  !swapping */\n      iszero\n        /* \"contracts/gainzilla.sol\":10872:10947  !swapping &&... */\n      dup1\n      iszero\n      tag_498\n      jumpi\n      pop\n        /* \"contracts/gainzilla.sol\":10934:10947  swapThreshold */\n      sload(0x09)\n        /* \"contracts/gainzilla.sol\":10915:10929  accumulatedEco */\n      sload(0x0b)\n        /* \"contracts/gainzilla.sol\":10897:10910  accumulatedLp */\n      sload(0x0a)\n        /* \"contracts/gainzilla.sol\":10897:10930  accumulatedLp.add(accumulatedEco) */\n      tag_499\n      swap2\n        /* \"contracts/gainzilla.sol\":10897:10914  accumulatedLp.add */\n      tag_393\n        /* \"contracts/gainzilla.sol\":10897:10930  accumulatedLp.add(accumulatedEco) */\n      jump\t// in\n    tag_499:\n        /* \"contracts/gainzilla.sol\":10897:10947  accumulatedLp.add(accumulatedEco) >= swapThreshold */\n      lt\n      iszero\n        /* \"contracts/gainzilla.sol\":10872:10947  !swapping &&... */\n    tag_498:\n        /* \"contracts/gainzilla.sol\":10872:10988  !swapping &&... */\n      dup1\n      iszero\n      tag_272\n      jumpi\n      pop\n      pop\n        /* \"contracts/gainzilla.sol\":10977:10988  pairAddress */\n      and(sub(shl(0xa0, 0x01), 0x01), sload(0x14))\n        /* \"contracts/gainzilla.sol\":10963:10973  msg.sender */\n      caller\n        /* \"contracts/gainzilla.sol\":10963:10988  msg.sender != pairAddress */\n      eq\n      iszero\n      swap1\n        /* \"contracts/gainzilla.sol\":10800:10995  function _shouldSwapBack() private view returns (bool) {... */\n      jump\t// out\n        /* \"contracts/gainzilla.sol\":6506:7212  function _swapAndLiquify() private {... */\n    tag_407:\n        /* \"contracts/gainzilla.sol\":6551:6570  uint256 totalTokens */\n      0x00\n        /* \"contracts/gainzilla.sol\":6589:6603  accumulatedEco */\n      sload(0x0b)\n        /* \"contracts/gainzilla.sol\":6573:6586  accumulatedLp */\n      sload(0x0a)\n        /* \"contracts/gainzilla.sol\":6573:6603  accumulatedLp + accumulatedEco */\n      tag_502\n      swap2\n      swap1\n      tag_247\n      jump\t// in\n    tag_502:\n        /* \"contracts/gainzilla.sol\":6551:6603  uint256 totalTokens = accumulatedLp + accumulatedEco */\n      swap1\n      pop\n        /* \"contracts/gainzilla.sol\":6631:6644  swapThreshold */\n      sload(0x09)\n        /* \"contracts/gainzilla.sol\":6617:6628  totalTokens */\n      dup2\n        /* \"contracts/gainzilla.sol\":6617:6644  totalTokens < swapThreshold */\n      lt\n        /* \"contracts/gainzilla.sol\":6613:6653  if (totalTokens < swapThreshold) return; */\n      iszero\n      tag_503\n      jumpi\n        /* \"contracts/gainzilla.sol\":6646:6653  return; */\n      pop\n        /* \"contracts/gainzilla.sol\":6506:7212  function _swapAndLiquify() private {... */\n      jump\t// out\n        /* \"contracts/gainzilla.sol\":6613:6653  if (totalTokens < swapThreshold) return; */\n    tag_503:\n        /* \"contracts/gainzilla.sol\":6663:6671  swapping */\n      0x0c\n        /* \"contracts/gainzilla.sol\":6663:6678  swapping = true */\n      dup1\n      sload\n      not(0xff)\n      and\n        /* \"contracts/gainzilla.sol\":6674:6678  true */\n      0x01\n        /* \"contracts/gainzilla.sol\":6663:6678  swapping = true */\n      or\n      swap1\n      sstore\n        /* \"contracts/gainzilla.sol\":6763:6777  accumulatedEco */\n      sload(0x0b)\n        /* \"contracts/gainzilla.sol\":6713:6734  address(this).balance */\n      selfbalance\n      swap1\n        /* \"contracts/gainzilla.sol\":6745:6778  _swapTokensForETH(accumulatedEco) */\n      tag_504\n      swap1\n        /* \"contracts/gainzilla.sol\":6745:6762  _swapTokensForETH */\n      tag_505\n        /* \"contracts/gainzilla.sol\":6745:6778  _swapTokensForETH(accumulatedEco) */\n      jump\t// in\n    tag_504:\n        /* \"contracts/gainzilla.sol\":6788:6802  uint256 ecoETH */\n      0x00\n        /* \"contracts/gainzilla.sol\":6805:6846  address(this).balance.sub(initialBalance) */\n      tag_506\n        /* \"contracts/gainzilla.sol\":6805:6826  address(this).balance */\n      selfbalance\n        /* \"contracts/gainzilla.sol\":6831:6845  initialBalance */\n      dup4\n        /* \"contracts/gainzilla.sol\":6805:6830  address(this).balance.sub */\n      tag_261\n        /* \"contracts/gainzilla.sol\":6805:6846  address(this).balance.sub(initialBalance) */\n      jump\t// in\n    tag_506:\n        /* \"contracts/gainzilla.sol\":6788:6846  uint256 ecoETH = address(this).balance.sub(initialBalance) */\n      swap1\n      pop\n        /* \"contracts/gainzilla.sol\":6864:6871  owner() */\n      tag_507\n        /* \"@openzeppelin/contracts@4.9.3/access/Ownable.sol\":1273:1279  _owner */\n      and(sub(shl(0xa0, 0x01), 0x01), sload(0x05))\n      swap1\n        /* \"@openzeppelin/contracts@4.9.3/access/Ownable.sol\":1201:1286  function owner() public view virtual returns (address) {... */\n      jump\n        /* \"contracts/gainzilla.sol\":6864:6871  owner() */\n    tag_507:\n      sub(shl(0xa0, 0x01), 0x01)\n        /* \"contracts/gainzilla.sol\":6856:6881  payable(owner()).transfer */\n      and\n        /* \"contracts/gainzilla.sol\":6856:6889  payable(owner()).transfer(ecoETH) */\n      0x08fc\n        /* \"contracts/gainzilla.sol\":6882:6888  ecoETH */\n      dup3\n        /* \"contracts/gainzilla.sol\":6856:6889  payable(owner()).transfer(ecoETH) */\n      swap1\n      dup2\n      iszero\n      mul\n      swap1\n      mload(0x40)\n      0x00\n      mload(0x40)\n      dup1\n      dup4\n      sub\n      dup2\n      dup6\n      dup9\n      dup9\n      call\n      swap4\n      pop\n      pop\n      pop\n      pop\n      iszero\n      dup1\n      iszero\n      tag_509\n      jumpi\n      returndatasize\n      0x00\n      dup1\n      returndatacopy\n      revert(0x00, returndatasize)\n    tag_509:\n      pop\n        /* \"contracts/gainzilla.sol\":6919:6932  accumulatedLp */\n      sload(0x0a)\n        /* \"contracts/gainzilla.sol\":6900:6916  uint256 lpTokens */\n      0x00\n        /* \"contracts/gainzilla.sol\":6957:6972  lpTokens.div(2) */\n      tag_510\n        /* \"contracts/gainzilla.sol\":6919:6932  accumulatedLp */\n      dup3\n        /* \"contracts/gainzilla.sol\":6970:6971  2 */\n      0x02\n        /* \"contracts/gainzilla.sol\":6957:6969  lpTokens.div */\n      tag_263\n        /* \"contracts/gainzilla.sol\":6957:6972  lpTokens.div(2) */\n      jump\t// in\n    tag_510:\n        /* \"contracts/gainzilla.sol\":6942:6972  uint256 half = lpTokens.div(2) */\n      swap1\n      pop\n        /* \"contracts/gainzilla.sol\":6982:7005  _swapTokensForETH(half) */\n      tag_511\n        /* \"contracts/gainzilla.sol\":7000:7004  half */\n      dup2\n        /* \"contracts/gainzilla.sol\":6982:6999  _swapTokensForETH */\n      tag_505\n        /* \"contracts/gainzilla.sol\":6982:7005  _swapTokensForETH(half) */\n      jump\t// in\n    tag_511:\n        /* \"contracts/gainzilla.sol\":7024:7037  uint256 lpETH */\n      0x00\n        /* \"contracts/gainzilla.sol\":7040:7073  address(this).balance.sub(ecoETH) */\n      tag_512\n        /* \"contracts/gainzilla.sol\":7040:7061  address(this).balance */\n      selfbalance\n        /* \"contracts/gainzilla.sol\":7066:7072  ecoETH */\n      dup6\n        /* \"contracts/gainzilla.sol\":7040:7065  address(this).balance.sub */\n      tag_261\n        /* \"contracts/gainzilla.sol\":7040:7073  address(this).balance.sub(ecoETH) */\n      jump\t// in\n    tag_512:\n        /* \"contracts/gainzilla.sol\":7024:7073  uint256 lpETH = address(this).balance.sub(ecoETH) */\n      swap1\n      pop\n        /* \"contracts/gainzilla.sol\":7083:7123  _addLiquidity(lpTokens.sub(half), lpETH) */\n      tag_513\n        /* \"contracts/gainzilla.sol\":7097:7115  lpTokens.sub(half) */\n      tag_514\n        /* \"contracts/gainzilla.sol\":7097:7105  lpTokens */\n      dup5\n        /* \"contracts/gainzilla.sol\":7110:7114  half */\n      dup5\n        /* \"contracts/gainzilla.sol\":7097:7109  lpTokens.sub */\n      tag_261\n        /* \"contracts/gainzilla.sol\":7097:7115  lpTokens.sub(half) */\n      jump\t// in\n    tag_514:\n        /* \"contracts/gainzilla.sol\":7117:7122  lpETH */\n      dup3\n        /* \"contracts/gainzilla.sol\":7083:7096  _addLiquidity */\n      tag_515\n        /* \"contracts/gainzilla.sol\":7083:7123  _addLiquidity(lpTokens.sub(half), lpETH) */\n      jump\t// in\n    tag_513:\n      pop\n      pop\n        /* \"contracts/gainzilla.sol\":7150:7151  0 */\n      0x00\n        /* \"contracts/gainzilla.sol\":7134:7147  accumulatedLp */\n      0x0a\n        /* \"contracts/gainzilla.sol\":7134:7151  accumulatedLp = 0 */\n      dup2\n      swap1\n      sstore\n        /* \"contracts/gainzilla.sol\":7161:7175  accumulatedEco */\n      0x0b\n        /* \"contracts/gainzilla.sol\":7161:7179  accumulatedEco = 0 */\n      sstore\n      pop\n      pop\n        /* \"contracts/gainzilla.sol\":7189:7197  swapping */\n      0x0c\n        /* \"contracts/gainzilla.sol\":7189:7205  swapping = false */\n      dup1\n      sload\n      not(0xff)\n      and\n      swap1\n      sstore\n      pop\n      pop\n        /* \"contracts/gainzilla.sol\":6506:7212  function _swapAndLiquify() private {... */\n      jump\t// out\n        /* \"@openzeppelin/contracts@4.9.3/token/ERC20/ERC20.sol\":12073:12164  function _beforeTokenTransfer(address from, address to, uint256 amount) internal virtual {} */\n    tag_469:\n      pop\n      pop\n      pop\n      jump\t// out\n        /* \"contracts/gainzilla.sol\":9802:10240  function _swapTokensForETH(uint256 amount) private {... */\n    tag_505:\n        /* \"contracts/gainzilla.sol\":9887:9903  new address[](2) */\n      0x40\n      dup1\n      mload\n        /* \"contracts/gainzilla.sol\":9901:9902  2 */\n      0x02\n        /* \"contracts/gainzilla.sol\":9887:9903  new address[](2) */\n      dup1\n      dup3\n      mstore\n      0x60\n      dup3\n      add\n      dup4\n      mstore\n        /* \"contracts/gainzilla.sol\":9863:9884  address[] memory path */\n      0x00\n      swap3\n        /* \"contracts/gainzilla.sol\":9887:9903  new address[](2) */\n      0x20\n      dup4\n      add\n      swap1\n      dup1\n      calldatasize\n      dup4\n      calldatacopy\n      add\n      swap1\n      pop\n      pop\n        /* \"contracts/gainzilla.sol\":9863:9903  address[] memory path = new address[](2) */\n      swap1\n      pop\n        /* \"contracts/gainzilla.sol\":9931:9935  this */\n      address\n        /* \"contracts/gainzilla.sol\":9913:9917  path */\n      dup2\n        /* \"contracts/gainzilla.sol\":9918:9919  0 */\n      0x00\n        /* \"contracts/gainzilla.sol\":9913:9920  path[0] */\n      dup2\n      mload\n      dup2\n      lt\n      tag_524\n      jumpi\n      tag_524\n      tag_525\n      jump\t// in\n    tag_524:\n      sub(shl(0xa0, 0x01), 0x01)\n        /* \"contracts/gainzilla.sol\":9913:9936  path[0] = address(this) */\n      swap3\n      dup4\n      and\n        /* \"contracts/gainzilla.sol\":9913:9920  path[0] */\n      0x20\n      swap2\n      dup3\n      mul\n      swap3\n      swap1\n      swap3\n      add\n      dup2\n      add\n        /* \"contracts/gainzilla.sol\":9913:9936  path[0] = address(this) */\n      swap2\n      swap1\n      swap2\n      mstore\n        /* \"contracts/gainzilla.sol\":9973:9986  routerAddress */\n      sload(0x13)\n        /* \"contracts/gainzilla.sol\":9956:9994  IUniswapV2Router(routerAddress).WETH() */\n      0x40\n      dup1\n      mload\n      shl(0xe3, 0x15ab88c9)\n      dup2\n      mstore\n      swap1\n      mload\n        /* \"contracts/gainzilla.sol\":9973:9986  routerAddress */\n      swap2\n      swap1\n      swap4\n      and\n      swap3\n        /* \"contracts/gainzilla.sol\":9956:9992  IUniswapV2Router(routerAddress).WETH */\n      0xad5c4648\n      swap3\n        /* \"contracts/gainzilla.sol\":9956:9994  IUniswapV2Router(routerAddress).WETH() */\n      0x04\n      dup1\n      dup4\n      add\n      swap4\n        /* \"contracts/gainzilla.sol\":9913:9920  path[0] */\n      swap2\n      swap3\n        /* \"contracts/gainzilla.sol\":9956:9994  IUniswapV2Router(routerAddress).WETH() */\n      dup3\n      swap1\n      sub\n      add\n      dup2\n        /* \"contracts/gainzilla.sol\":9973:9986  routerAddress */\n      dup7\n        /* \"contracts/gainzilla.sol\":9956:9994  IUniswapV2Router(routerAddress).WETH() */\n      gas\n      staticcall\n      iszero\n      dup1\n      iszero\n      tag_527\n      jumpi\n      returndatasize\n      0x00\n      dup1\n      returndatacopy\n      revert(0x00, returndatasize)\n    tag_527:\n      pop\n      pop\n      pop\n      pop\n      mload(0x40)\n      returndatasize\n      not(0x1f)\n      0x1f\n      dup3\n      add\n      and\n      dup3\n      add\n      dup1\n      0x40\n      mstore\n      pop\n      dup2\n      add\n      swap1\n      tag_528\n      swap2\n      swap1\n      tag_282\n      jump\t// in\n    tag_528:\n        /* \"contracts/gainzilla.sol\":9946:9950  path */\n      dup2\n        /* \"contracts/gainzilla.sol\":9951:9952  1 */\n      0x01\n        /* \"contracts/gainzilla.sol\":9946:9953  path[1] */\n      dup2\n      mload\n      dup2\n      lt\n      tag_530\n      jumpi\n      tag_530\n      tag_525\n      jump\t// in\n    tag_530:\n      sub(shl(0xa0, 0x01), 0x01)\n        /* \"contracts/gainzilla.sol\":9946:9994  path[1] = IUniswapV2Router(routerAddress).WETH() */\n      swap3\n      dup4\n      and\n        /* \"contracts/gainzilla.sol\":9946:9953  path[1] */\n      0x20\n      swap2\n      dup3\n      mul\n      swap3\n      swap1\n      swap3\n      add\n      add\n        /* \"contracts/gainzilla.sol\":9946:9994  path[1] = IUniswapV2Router(routerAddress).WETH() */\n      mstore\n        /* \"contracts/gainzilla.sol\":10029:10042  routerAddress */\n      sload(0x13)\n        /* \"contracts/gainzilla.sol\":10005:10051  _approve(address(this), routerAddress, amount) */\n      tag_531\n      swap2\n        /* \"contracts/gainzilla.sol\":10022:10026  this */\n      address\n      swap2\n        /* \"contracts/gainzilla.sol\":10029:10042  routerAddress */\n      and\n        /* \"contracts/gainzilla.sol\":10044:10050  amount */\n      dup5\n        /* \"contracts/gainzilla.sol\":10005:10013  _approve */\n      tag_220\n        /* \"contracts/gainzilla.sol\":10005:10051  _approve(address(this), routerAddress, amount) */\n      jump\t// in\n    tag_531:\n        /* \"contracts/gainzilla.sol\":10078:10091  routerAddress */\n      sload(0x13)\n        /* \"contracts/gainzilla.sol\":10061:10233  IUniswapV2Router(routerAddress).swapExactTokensForETH(... */\n      mload(0x40)\n      shl(0xe0, 0x18cbafe5)\n      dup2\n      mstore\n      sub(shl(0xa0, 0x01), 0x01)\n        /* \"contracts/gainzilla.sol\":10078:10091  routerAddress */\n      swap1\n      swap2\n      and\n      swap1\n        /* \"contracts/gainzilla.sol\":10061:10114  IUniswapV2Router(routerAddress).swapExactTokensForETH */\n      0x18cbafe5\n      swap1\n        /* \"contracts/gainzilla.sol\":10061:10233  IUniswapV2Router(routerAddress).swapExactTokensForETH(... */\n      tag_532\n      swap1\n        /* \"contracts/gainzilla.sol\":10128:10134  amount */\n      dup6\n      swap1\n        /* \"contracts/gainzilla.sol\":10078:10091  routerAddress */\n      0x00\n      swap1\n        /* \"contracts/gainzilla.sol\":10163:10167  path */\n      dup7\n      swap1\n        /* \"contracts/gainzilla.sol\":10189:10193  this */\n      address\n      swap1\n        /* \"contracts/gainzilla.sol\":10208:10223  block.timestamp */\n      timestamp\n      swap1\n        /* \"contracts/gainzilla.sol\":10061:10233  IUniswapV2Router(routerAddress).swapExactTokensForETH(... */\n      0x04\n      add\n      tag_533\n      jump\t// in\n    tag_532:\n      0x00\n      mload(0x40)\n      dup1\n      dup4\n      sub\n      dup2\n      0x00\n      dup8\n      gas\n      call\n      iszero\n      dup1\n      iszero\n      tag_535\n      jumpi\n      returndatasize\n      0x00\n      dup1\n      returndatacopy\n      revert(0x00, returndatasize)\n    tag_535:\n      pop\n      pop\n      pop\n      pop\n      mload(0x40)\n      returndatasize\n      0x00\n      dup3\n      returndatacopy\n      0x1f\n      returndatasize\n      swap1\n      dup2\n      add\n      not(0x1f)\n      and\n      dup3\n      add\n      0x40\n      mstore\n      tag_469\n      swap2\n      swap1\n      dup2\n      add\n      swap1\n      tag_537\n      jump\t// in\n        /* \"contracts/gainzilla.sol\":10246:10655  function _addLiquidity(uint256 tokenAmount, uint256 ethAmount) private {... */\n    tag_515:\n        /* \"contracts/gainzilla.sol\":10351:10364  routerAddress */\n      sload(0x13)\n        /* \"contracts/gainzilla.sol\":10327:10378  _approve(address(this), routerAddress, tokenAmount) */\n      tag_539\n      swap1\n        /* \"contracts/gainzilla.sol\":10344:10348  this */\n      address\n      swap1\n      sub(shl(0xa0, 0x01), 0x01)\n        /* \"contracts/gainzilla.sol\":10351:10364  routerAddress */\n      and\n        /* \"contracts/gainzilla.sol\":10366:10377  tokenAmount */\n      dup5\n        /* \"contracts/gainzilla.sol\":10327:10335  _approve */\n      tag_220\n        /* \"contracts/gainzilla.sol\":10327:10378  _approve(address(this), routerAddress, tokenAmount) */\n      jump\t// in\n    tag_539:\n        /* \"contracts/gainzilla.sol\":10405:10418  routerAddress */\n      and(sub(shl(0xa0, 0x01), 0x01), sload(0x13))\n        /* \"contracts/gainzilla.sol\":10388:10435  IUniswapV2Router(routerAddress).addLiquidityETH */\n      0xf305d719\n        /* \"contracts/gainzilla.sol\":10443:10452  ethAmount */\n      dup3\n        /* \"contracts/gainzilla.sol\":10475:10479  this */\n      address\n        /* \"contracts/gainzilla.sol\":10494:10505  tokenAmount */\n      dup6\n        /* \"contracts/gainzilla.sol\":10405:10418  routerAddress */\n      0x00\n      dup1\n        /* \"contracts/gainzilla.sol\":10549:10556  owner() */\n      tag_540\n        /* \"@openzeppelin/contracts@4.9.3/access/Ownable.sol\":1273:1279  _owner */\n      and(sub(shl(0xa0, 0x01), 0x01), sload(0x05))\n      swap1\n        /* \"@openzeppelin/contracts@4.9.3/access/Ownable.sol\":1201:1286  function owner() public view virtual returns (address) {... */\n      jump\n        /* \"contracts/gainzilla.sol\":10549:10556  owner() */\n    tag_540:\n        /* \"contracts/gainzilla.sol\":10388:10595  IUniswapV2Router(routerAddress).addLiquidityETH{value: ethAmount}(... */\n      mload(0x40)\n      0xe0\n      dup9\n      swap1\n      shl\n      not(sub(shl(0xe0, 0x01), 0x01))\n      and\n      dup2\n      mstore\n      sub(shl(0xa0, 0x01), 0x01)\n        /* \"#utility.yul\":18215:18230   */\n      swap6\n      dup7\n      and\n        /* \"contracts/gainzilla.sol\":10388:10595  IUniswapV2Router(routerAddress).addLiquidityETH{value: ethAmount}(... */\n      0x04\n      dup3\n      add\n        /* \"#utility.yul\":18197:18231   */\n      mstore\n        /* \"#utility.yul\":18247:18265   */\n      0x24\n      dup2\n      add\n        /* \"#utility.yul\":18240:18274   */\n      swap5\n      swap1\n      swap5\n      mstore\n        /* \"#utility.yul\":18290:18308   */\n      0x44\n      dup5\n      add\n        /* \"#utility.yul\":18283:18317   */\n      swap3\n      swap1\n      swap3\n      mstore\n        /* \"#utility.yul\":18333:18351   */\n      0x64\n      dup4\n      add\n        /* \"#utility.yul\":18326:18360   */\n      mstore\n        /* \"#utility.yul\":18397:18412   */\n      swap1\n      swap2\n      and\n        /* \"#utility.yul\":18376:18395   */\n      0x84\n      dup3\n      add\n        /* \"#utility.yul\":18369:18413   */\n      mstore\n        /* \"contracts/gainzilla.sol\":10570:10585  block.timestamp */\n      timestamp\n        /* \"#utility.yul\":18429:18448   */\n      0xa4\n      dup3\n      add\n        /* \"#utility.yul\":18422:18457   */\n      mstore\n        /* \"#utility.yul\":18131:18150   */\n      0xc4\n      add\n        /* \"contracts/gainzilla.sol\":10388:10595  IUniswapV2Router(routerAddress).addLiquidityETH{value: ethAmount}(... */\n      0x60\n      mload(0x40)\n      dup1\n      dup4\n      sub\n      dup2\n      dup6\n      dup9\n      gas\n      call\n      iszero\n      dup1\n      iszero\n      tag_544\n      jumpi\n      returndatasize\n      0x00\n      dup1\n      returndatacopy\n      revert(0x00, returndatasize)\n    tag_544:\n      pop\n      pop\n      pop\n      pop\n      pop\n      mload(0x40)\n      returndatasize\n      not(0x1f)\n      0x1f\n      dup3\n      add\n      and\n      dup3\n      add\n      dup1\n      0x40\n      mstore\n      pop\n      dup2\n      add\n      swap1\n      tag_545\n      swap2\n      swap1\n      tag_546\n      jump\t// in\n    tag_545:\n      pop\n      pop\n        /* \"contracts/gainzilla.sol\":10610:10648  LiquidityAdded(tokenAmount, ethAmount) */\n      0x40\n      dup1\n      mload\n        /* \"#utility.yul\":15418:15443   */\n      dup5\n      dup2\n      mstore\n        /* \"#utility.yul\":15474:15476   */\n      0x20\n        /* \"#utility.yul\":15459:15477   */\n      dup2\n      add\n        /* \"#utility.yul\":15452:15486   */\n      dup5\n      swap1\n      mstore\n        /* \"contracts/gainzilla.sol\":10610:10648  LiquidityAdded(tokenAmount, ethAmount) */\n      0x38f8a0c92f4c5b0b6877f878cb4c0c8d348a47b76d716c8e78f425043df9515b\n      swap3\n      pop\n        /* \"#utility.yul\":15391:15409   */\n      add\n        /* \"contracts/gainzilla.sol\":10610:10648  LiquidityAdded(tokenAmount, ethAmount) */\n      mload(0x40)\n      dup1\n      swap2\n      sub\n      swap1\n      log1\n        /* \"contracts/gainzilla.sol\":10246:10655  function _addLiquidity(uint256 tokenAmount, uint256 ethAmount) private {... */\n      pop\n      pop\n      jump\t// out\n        /* \"#utility.yul\":196:614   */\n    tag_55:\n        /* \"#utility.yul\":345:347   */\n      0x20\n        /* \"#utility.yul\":334:343   */\n      dup2\n        /* \"#utility.yul\":327:348   */\n      mstore\n        /* \"#utility.yul\":308:312   */\n      0x00\n        /* \"#utility.yul\":377:383   */\n      dup3\n        /* \"#utility.yul\":371:384   */\n      mload\n        /* \"#utility.yul\":420:426   */\n      dup1\n        /* \"#utility.yul\":415:417   */\n      0x20\n        /* \"#utility.yul\":404:413   */\n      dup5\n        /* \"#utility.yul\":400:418   */\n      add\n        /* \"#utility.yul\":393:427   */\n      mstore\n        /* \"#utility.yul\":479:485   */\n      dup1\n        /* \"#utility.yul\":474:476   */\n      0x20\n        /* \"#utility.yul\":466:472   */\n      dup6\n        /* \"#utility.yul\":462:477   */\n      add\n        /* \"#utility.yul\":457:459   */\n      0x40\n        /* \"#utility.yul\":446:455   */\n      dup6\n        /* \"#utility.yul\":442:460   */\n      add\n        /* \"#utility.yul\":436:486   */\n      mcopy\n        /* \"#utility.yul\":535:536   */\n      0x00\n        /* \"#utility.yul\":530:532   */\n      0x40\n        /* \"#utility.yul\":521:527   */\n      dup3\n        /* \"#utility.yul\":510:519   */\n      dup6\n        /* \"#utility.yul\":506:528   */\n      add\n        /* \"#utility.yul\":502:533   */\n      add\n        /* \"#utility.yul\":495:537   */\n      mstore\n        /* \"#utility.yul\":605:607   */\n      0x40\n        /* \"#utility.yul\":598:600   */\n      0x1f\n        /* \"#utility.yul\":594:601   */\n      not\n        /* \"#utility.yul\":589:591   */\n      0x1f\n        /* \"#utility.yul\":581:587   */\n      dup4\n        /* \"#utility.yul\":577:592   */\n      add\n        /* \"#utility.yul\":573:602   */\n      and\n        /* \"#utility.yul\":562:571   */\n      dup5\n        /* \"#utility.yul\":558:603   */\n      add\n        /* \"#utility.yul\":554:608   */\n      add\n        /* \"#utility.yul\":546:608   */\n      swap2\n      pop\n      pop\n        /* \"#utility.yul\":196:614   */\n      swap3\n      swap2\n      pop\n      pop\n      jump\t// out\n        /* \"#utility.yul\":619:750   */\n    tag_548:\n      sub(shl(0xa0, 0x01), 0x01)\n        /* \"#utility.yul\":694:725   */\n      dup2\n      and\n        /* \"#utility.yul\":684:726   */\n      dup2\n      eq\n        /* \"#utility.yul\":674:744   */\n      tag_335\n      jumpi\n        /* \"#utility.yul\":740:741   */\n      0x00\n        /* \"#utility.yul\":737:738   */\n      dup1\n        /* \"#utility.yul\":730:742   */\n      revert\n        /* \"#utility.yul\":755:1070   */\n    tag_59:\n        /* \"#utility.yul\":823:829   */\n      0x00\n        /* \"#utility.yul\":831:837   */\n      dup1\n        /* \"#utility.yul\":884:886   */\n      0x40\n        /* \"#utility.yul\":872:881   */\n      dup4\n        /* \"#utility.yul\":863:870   */\n      dup6\n        /* \"#utility.yul\":859:882   */\n      sub\n        /* \"#utility.yul\":855:887   */\n      slt\n        /* \"#utility.yul\":852:904   */\n      iszero\n      tag_561\n      jumpi\n        /* \"#utility.yul\":900:901   */\n      0x00\n        /* \"#utility.yul\":897:898   */\n      dup1\n        /* \"#utility.yul\":890:902   */\n      revert\n        /* \"#utility.yul\":852:904   */\n    tag_561:\n        /* \"#utility.yul\":939:948   */\n      dup3\n        /* \"#utility.yul\":926:949   */\n      calldataload\n        /* \"#utility.yul\":958:989   */\n      tag_562\n        /* \"#utility.yul\":983:988   */\n      dup2\n        /* \"#utility.yul\":958:989   */\n      tag_548\n      jump\t// in\n    tag_562:\n        /* \"#utility.yul\":1008:1013   */\n      swap5\n        /* \"#utility.yul\":1060:1062   */\n      0x20\n        /* \"#utility.yul\":1045:1063   */\n      swap4\n      swap1\n      swap4\n      add\n        /* \"#utility.yul\":1032:1064   */\n      calldataload\n      swap4\n      pop\n      pop\n      pop\n        /* \"#utility.yul\":755:1070   */\n      jump\t// out\n        /* \"#utility.yul\":1267:1426   */\n    tag_549:\n        /* \"#utility.yul\":1334:1354   */\n      dup1\n      calldataload\n        /* \"#utility.yul\":1394:1400   */\n      0xffff\n        /* \"#utility.yul\":1383:1401   */\n      dup2\n      and\n        /* \"#utility.yul\":1373:1402   */\n      dup2\n      eq\n        /* \"#utility.yul\":1363:1420   */\n      tag_565\n      jumpi\n        /* \"#utility.yul\":1416:1417   */\n      0x00\n        /* \"#utility.yul\":1413:1414   */\n      dup1\n        /* \"#utility.yul\":1406:1418   */\n      revert\n        /* \"#utility.yul\":1363:1420   */\n    tag_565:\n        /* \"#utility.yul\":1267:1426   */\n      swap2\n      swap1\n      pop\n      jump\t// out\n        /* \"#utility.yul\":1431:1832   */\n    tag_66:\n        /* \"#utility.yul\":1513:1519   */\n      0x00\n        /* \"#utility.yul\":1521:1527   */\n      dup1\n        /* \"#utility.yul\":1529:1535   */\n      0x00\n        /* \"#utility.yul\":1537:1543   */\n      dup1\n        /* \"#utility.yul\":1590:1593   */\n      0x80\n        /* \"#utility.yul\":1578:1587   */\n      dup6\n        /* \"#utility.yul\":1569:1576   */\n      dup8\n        /* \"#utility.yul\":1565:1588   */\n      sub\n        /* \"#utility.yul\":1561:1594   */\n      slt\n        /* \"#utility.yul\":1558:1611   */\n      iszero\n      tag_567\n      jumpi\n        /* \"#utility.yul\":1607:1608   */\n      0x00\n        /* \"#utility.yul\":1604:1605   */\n      dup1\n        /* \"#utility.yul\":1597:1609   */\n      revert\n        /* \"#utility.yul\":1558:1611   */\n    tag_567:\n        /* \"#utility.yul\":1630:1658   */\n      tag_568\n        /* \"#utility.yul\":1648:1657   */\n      dup6\n        /* \"#utility.yul\":1630:1658   */\n      tag_549\n      jump\t// in\n    tag_568:\n        /* \"#utility.yul\":1620:1658   */\n      swap4\n      pop\n        /* \"#utility.yul\":1677:1714   */\n      tag_569\n        /* \"#utility.yul\":1710:1712   */\n      0x20\n        /* \"#utility.yul\":1699:1708   */\n      dup7\n        /* \"#utility.yul\":1695:1713   */\n      add\n        /* \"#utility.yul\":1677:1714   */\n      tag_549\n      jump\t// in\n    tag_569:\n        /* \"#utility.yul\":1667:1714   */\n      swap3\n      pop\n        /* \"#utility.yul\":1733:1770   */\n      tag_570\n        /* \"#utility.yul\":1766:1768   */\n      0x40\n        /* \"#utility.yul\":1755:1764   */\n      dup7\n        /* \"#utility.yul\":1751:1769   */\n      add\n        /* \"#utility.yul\":1733:1770   */\n      tag_549\n      jump\t// in\n    tag_570:\n        /* \"#utility.yul\":1723:1770   */\n      swap2\n      pop\n        /* \"#utility.yul\":1789:1826   */\n      tag_571\n        /* \"#utility.yul\":1822:1824   */\n      0x60\n        /* \"#utility.yul\":1811:1820   */\n      dup7\n        /* \"#utility.yul\":1807:1825   */\n      add\n        /* \"#utility.yul\":1789:1826   */\n      tag_549\n      jump\t// in\n    tag_571:\n        /* \"#utility.yul\":1779:1826   */\n      swap1\n      pop\n        /* \"#utility.yul\":1431:1832   */\n      swap3\n      swap6\n      swap2\n      swap5\n      pop\n      swap3\n      pop\n      jump\t// out\n        /* \"#utility.yul\":1837:2293   */\n    tag_75:\n        /* \"#utility.yul\":1914:1920   */\n      0x00\n        /* \"#utility.yul\":1922:1928   */\n      dup1\n        /* \"#utility.yul\":1930:1936   */\n      0x00\n        /* \"#utility.yul\":1983:1985   */\n      0x60\n        /* \"#utility.yul\":1971:1980   */\n      dup5\n        /* \"#utility.yul\":1962:1969   */\n      dup7\n        /* \"#utility.yul\":1958:1981   */\n      sub\n        /* \"#utility.yul\":1954:1986   */\n      slt\n        /* \"#utility.yul\":1951:2003   */\n      iszero\n      tag_573\n      jumpi\n        /* \"#utility.yul\":1999:2000   */\n      0x00\n        /* \"#utility.yul\":1996:1997   */\n      dup1\n        /* \"#utility.yul\":1989:2001   */\n      revert\n        /* \"#utility.yul\":1951:2003   */\n    tag_573:\n        /* \"#utility.yul\":2038:2047   */\n      dup4\n        /* \"#utility.yul\":2025:2048   */\n      calldataload\n        /* \"#utility.yul\":2057:2088   */\n      tag_574\n        /* \"#utility.yul\":2082:2087   */\n      dup2\n        /* \"#utility.yul\":2057:2088   */\n      tag_548\n      jump\t// in\n    tag_574:\n        /* \"#utility.yul\":2107:2112   */\n      swap3\n      pop\n        /* \"#utility.yul\":2164:2166   */\n      0x20\n        /* \"#utility.yul\":2149:2167   */\n      dup5\n      add\n        /* \"#utility.yul\":2136:2168   */\n      calldataload\n        /* \"#utility.yul\":2177:2210   */\n      tag_575\n        /* \"#utility.yul\":2136:2168   */\n      dup2\n        /* \"#utility.yul\":2177:2210   */\n      tag_548\n      jump\t// in\n    tag_575:\n        /* \"#utility.yul\":1837:2293   */\n      swap3\n      swap6\n        /* \"#utility.yul\":2229:2236   */\n      swap3\n      swap5\n      pop\n      pop\n      pop\n        /* \"#utility.yul\":2283:2285   */\n      0x40\n        /* \"#utility.yul\":2268:2286   */\n      swap2\n      swap1\n      swap2\n      add\n        /* \"#utility.yul\":2255:2287   */\n      calldataload\n      swap1\n        /* \"#utility.yul\":1837:2293   */\n      jump\t// out\n        /* \"#utility.yul\":3144:3391   */\n    tag_105:\n        /* \"#utility.yul\":3203:3209   */\n      0x00\n        /* \"#utility.yul\":3256:3258   */\n      0x20\n        /* \"#utility.yul\":3244:3253   */\n      dup3\n        /* \"#utility.yul\":3235:3242   */\n      dup5\n        /* \"#utility.yul\":3231:3254   */\n      sub\n        /* \"#utility.yul\":3227:3259   */\n      slt\n        /* \"#utility.yul\":3224:3276   */\n      iszero\n      tag_580\n      jumpi\n        /* \"#utility.yul\":3272:3273   */\n      0x00\n        /* \"#utility.yul\":3269:3270   */\n      dup1\n        /* \"#utility.yul\":3262:3274   */\n      revert\n        /* \"#utility.yul\":3224:3276   */\n    tag_580:\n        /* \"#utility.yul\":3311:3320   */\n      dup2\n        /* \"#utility.yul\":3298:3321   */\n      calldataload\n        /* \"#utility.yul\":3330:3361   */\n      tag_235\n        /* \"#utility.yul\":3355:3360   */\n      dup2\n        /* \"#utility.yul\":3330:3361   */\n      tag_548\n      jump\t// in\n        /* \"#utility.yul\":3854:4034   */\n    tag_140:\n        /* \"#utility.yul\":3913:3919   */\n      0x00\n        /* \"#utility.yul\":3966:3968   */\n      0x20\n        /* \"#utility.yul\":3954:3963   */\n      dup3\n        /* \"#utility.yul\":3945:3952   */\n      dup5\n        /* \"#utility.yul\":3941:3964   */\n      sub\n        /* \"#utility.yul\":3937:3969   */\n      slt\n        /* \"#utility.yul\":3934:3986   */\n      iszero\n      tag_585\n      jumpi\n        /* \"#utility.yul\":3982:3983   */\n      0x00\n        /* \"#utility.yul\":3979:3980   */\n      dup1\n        /* \"#utility.yul\":3972:3984   */\n      revert\n        /* \"#utility.yul\":3934:3986   */\n    tag_585:\n      pop\n        /* \"#utility.yul\":4005:4028   */\n      calldataload\n      swap2\n        /* \"#utility.yul\":3854:4034   */\n      swap1\n      pop\n      jump\t// out\n        /* \"#utility.yul\":4435:4595   */\n    tag_550:\n        /* \"#utility.yul\":4500:4520   */\n      dup1\n      calldataload\n        /* \"#utility.yul\":4556:4569   */\n      dup1\n      iszero\n        /* \"#utility.yul\":4549:4570   */\n      iszero\n        /* \"#utility.yul\":4539:4571   */\n      dup2\n      eq\n        /* \"#utility.yul\":4529:4589   */\n      tag_565\n      jumpi\n        /* \"#utility.yul\":4585:4586   */\n      0x00\n        /* \"#utility.yul\":4582:4583   */\n      dup1\n        /* \"#utility.yul\":4575:4587   */\n      revert\n        /* \"#utility.yul\":4600:4915   */\n    tag_151:\n        /* \"#utility.yul\":4665:4671   */\n      0x00\n        /* \"#utility.yul\":4673:4679   */\n      dup1\n        /* \"#utility.yul\":4726:4728   */\n      0x40\n        /* \"#utility.yul\":4714:4723   */\n      dup4\n        /* \"#utility.yul\":4705:4712   */\n      dup6\n        /* \"#utility.yul\":4701:4724   */\n      sub\n        /* \"#utility.yul\":4697:4729   */\n      slt\n        /* \"#utility.yul\":4694:4746   */\n      iszero\n      tag_590\n      jumpi\n        /* \"#utility.yul\":4742:4743   */\n      0x00\n        /* \"#utility.yul\":4739:4740   */\n      dup1\n        /* \"#utility.yul\":4732:4744   */\n      revert\n        /* \"#utility.yul\":4694:4746   */\n    tag_590:\n        /* \"#utility.yul\":4781:4790   */\n      dup3\n        /* \"#utility.yul\":4768:4791   */\n      calldataload\n        /* \"#utility.yul\":4800:4831   */\n      tag_591\n        /* \"#utility.yul\":4825:4830   */\n      dup2\n        /* \"#utility.yul\":4800:4831   */\n      tag_548\n      jump\t// in\n    tag_591:\n        /* \"#utility.yul\":4850:4855   */\n      swap2\n      pop\n        /* \"#utility.yul\":4874:4909   */\n      tag_592\n        /* \"#utility.yul\":4905:4907   */\n      0x20\n        /* \"#utility.yul\":4890:4908   */\n      dup5\n      add\n        /* \"#utility.yul\":4874:4909   */\n      tag_550\n      jump\t// in\n    tag_592:\n        /* \"#utility.yul\":4864:4909   */\n      swap1\n      pop\n        /* \"#utility.yul\":4600:4915   */\n      swap3\n      pop\n      swap3\n      swap1\n      pop\n      jump\t// out\n        /* \"#utility.yul\":5419:5807   */\n    tag_192:\n        /* \"#utility.yul\":5487:5493   */\n      0x00\n        /* \"#utility.yul\":5495:5501   */\n      dup1\n        /* \"#utility.yul\":5548:5550   */\n      0x40\n        /* \"#utility.yul\":5536:5545   */\n      dup4\n        /* \"#utility.yul\":5527:5534   */\n      dup6\n        /* \"#utility.yul\":5523:5546   */\n      sub\n        /* \"#utility.yul\":5519:5551   */\n      slt\n        /* \"#utility.yul\":5516:5568   */\n      iszero\n      tag_595\n      jumpi\n        /* \"#utility.yul\":5564:5565   */\n      0x00\n        /* \"#utility.yul\":5561:5562   */\n      dup1\n        /* \"#utility.yul\":5554:5566   */\n      revert\n        /* \"#utility.yul\":5516:5568   */\n    tag_595:\n        /* \"#utility.yul\":5603:5612   */\n      dup3\n        /* \"#utility.yul\":5590:5613   */\n      calldataload\n        /* \"#utility.yul\":5622:5653   */\n      tag_596\n        /* \"#utility.yul\":5647:5652   */\n      dup2\n        /* \"#utility.yul\":5622:5653   */\n      tag_548\n      jump\t// in\n    tag_596:\n        /* \"#utility.yul\":5672:5677   */\n      swap2\n      pop\n        /* \"#utility.yul\":5729:5731   */\n      0x20\n        /* \"#utility.yul\":5714:5732   */\n      dup4\n      add\n        /* \"#utility.yul\":5701:5733   */\n      calldataload\n        /* \"#utility.yul\":5742:5775   */\n      tag_597\n        /* \"#utility.yul\":5701:5733   */\n      dup2\n        /* \"#utility.yul\":5742:5775   */\n      tag_548\n      jump\t// in\n    tag_597:\n        /* \"#utility.yul\":5794:5801   */\n      dup1\n        /* \"#utility.yul\":5784:5801   */\n      swap2\n      pop\n      pop\n        /* \"#utility.yul\":5419:5807   */\n      swap3\n      pop\n      swap3\n      swap1\n      pop\n      jump\t// out\n        /* \"#utility.yul\":5812:6064   */\n    tag_202:\n        /* \"#utility.yul\":5876:5882   */\n      0x00\n        /* \"#utility.yul\":5884:5890   */\n      dup1\n        /* \"#utility.yul\":5937:5939   */\n      0x40\n        /* \"#utility.yul\":5925:5934   */\n      dup4\n        /* \"#utility.yul\":5916:5923   */\n      dup6\n        /* \"#utility.yul\":5912:5935   */\n      sub\n        /* \"#utility.yul\":5908:5940   */\n      slt\n        /* \"#utility.yul\":5905:5957   */\n      iszero\n      tag_599\n      jumpi\n        /* \"#utility.yul\":5953:5954   */\n      0x00\n        /* \"#utility.yul\":5950:5951   */\n      dup1\n        /* \"#utility.yul\":5943:5955   */\n      revert\n        /* \"#utility.yul\":5905:5957   */\n    tag_599:\n        /* \"#utility.yul\":5976:6002   */\n      tag_600\n        /* \"#utility.yul\":5992:6001   */\n      dup4\n        /* \"#utility.yul\":5976:6002   */\n      tag_550\n      jump\t// in\n    tag_600:\n        /* \"#utility.yul\":5966:6002   */\n      swap2\n      pop\n        /* \"#utility.yul\":6021:6058   */\n      tag_592\n        /* \"#utility.yul\":6054:6056   */\n      0x20\n        /* \"#utility.yul\":6043:6052   */\n      dup5\n        /* \"#utility.yul\":6039:6057   */\n      add\n        /* \"#utility.yul\":6021:6058   */\n      tag_549\n      jump\t// in\n        /* \"#utility.yul\":6069:6190   */\n    tag_551:\n        /* \"#utility.yul\":6154:6164   */\n      0xffffffff\n        /* \"#utility.yul\":6147:6152   */\n      dup2\n        /* \"#utility.yul\":6143:6165   */\n      and\n        /* \"#utility.yul\":6136:6141   */\n      dup2\n        /* \"#utility.yul\":6133:6166   */\n      eq\n        /* \"#utility.yul\":6123:6184   */\n      tag_335\n      jumpi\n        /* \"#utility.yul\":6180:6181   */\n      0x00\n        /* \"#utility.yul\":6177:6178   */\n      dup1\n        /* \"#utility.yul\":6170:6182   */\n      revert\n        /* \"#utility.yul\":6195:6508   */\n    tag_207:\n        /* \"#utility.yul\":6259:6265   */\n      0x00\n        /* \"#utility.yul\":6267:6273   */\n      dup1\n        /* \"#utility.yul\":6320:6322   */\n      0x40\n        /* \"#utility.yul\":6308:6317   */\n      dup4\n        /* \"#utility.yul\":6299:6306   */\n      dup6\n        /* \"#utility.yul\":6295:6318   */\n      sub\n        /* \"#utility.yul\":6291:6323   */\n      slt\n        /* \"#utility.yul\":6288:6340   */\n      iszero\n      tag_605\n      jumpi\n        /* \"#utility.yul\":6336:6337   */\n      0x00\n        /* \"#utility.yul\":6333:6334   */\n      dup1\n        /* \"#utility.yul\":6326:6338   */\n      revert\n        /* \"#utility.yul\":6288:6340   */\n    tag_605:\n        /* \"#utility.yul\":6359:6385   */\n      tag_606\n        /* \"#utility.yul\":6375:6384   */\n      dup4\n        /* \"#utility.yul\":6359:6385   */\n      tag_550\n      jump\t// in\n    tag_606:\n        /* \"#utility.yul\":6349:6385   */\n      swap2\n      pop\n        /* \"#utility.yul\":6435:6437   */\n      0x20\n        /* \"#utility.yul\":6424:6433   */\n      dup4\n        /* \"#utility.yul\":6420:6438   */\n      add\n        /* \"#utility.yul\":6407:6439   */\n      calldataload\n        /* \"#utility.yul\":6448:6478   */\n      tag_597\n        /* \"#utility.yul\":6472:6477   */\n      dup2\n        /* \"#utility.yul\":6448:6478   */\n      tag_551\n      jump\t// in\n        /* \"#utility.yul\":6513:6893   */\n    tag_211:\n        /* \"#utility.yul\":6592:6593   */\n      0x01\n        /* \"#utility.yul\":6588:6600   */\n      dup2\n      dup2\n      shr\n      swap1\n        /* \"#utility.yul\":6635:6647   */\n      dup3\n      and\n      dup1\n        /* \"#utility.yul\":6656:6717   */\n      tag_609\n      jumpi\n        /* \"#utility.yul\":6710:6714   */\n      0x7f\n        /* \"#utility.yul\":6702:6708   */\n      dup3\n        /* \"#utility.yul\":6698:6715   */\n      and\n        /* \"#utility.yul\":6688:6715   */\n      swap2\n      pop\n        /* \"#utility.yul\":6656:6717   */\n    tag_609:\n        /* \"#utility.yul\":6763:6765   */\n      0x20\n        /* \"#utility.yul\":6755:6761   */\n      dup3\n        /* \"#utility.yul\":6752:6766   */\n      lt\n        /* \"#utility.yul\":6732:6750   */\n      dup2\n        /* \"#utility.yul\":6729:6767   */\n      sub\n        /* \"#utility.yul\":6726:6887   */\n      tag_610\n      jumpi\n        /* \"#utility.yul\":6809:6819   */\n      0x4e487b71\n        /* \"#utility.yul\":6804:6807   */\n      0xe0\n        /* \"#utility.yul\":6800:6820   */\n      shl\n        /* \"#utility.yul\":6797:6798   */\n      0x00\n        /* \"#utility.yul\":6790:6821   */\n      mstore\n        /* \"#utility.yul\":6844:6848   */\n      0x22\n        /* \"#utility.yul\":6841:6842   */\n      0x04\n        /* \"#utility.yul\":6834:6849   */\n      mstore\n        /* \"#utility.yul\":6872:6876   */\n      0x24\n        /* \"#utility.yul\":6869:6870   */\n      0x00\n        /* \"#utility.yul\":6862:6877   */\n      revert\n        /* \"#utility.yul\":6726:6887   */\n    tag_610:\n      pop\n        /* \"#utility.yul\":6513:6893   */\n      swap2\n      swap1\n      pop\n      jump\t// out\n        /* \"#utility.yul\":6898:7025   */\n    tag_552:\n        /* \"#utility.yul\":6959:6969   */\n      0x4e487b71\n        /* \"#utility.yul\":6954:6957   */\n      0xe0\n        /* \"#utility.yul\":6950:6970   */\n      shl\n        /* \"#utility.yul\":6947:6948   */\n      0x00\n        /* \"#utility.yul\":6940:6971   */\n      mstore\n        /* \"#utility.yul\":6990:6994   */\n      0x11\n        /* \"#utility.yul\":6987:6988   */\n      0x04\n        /* \"#utility.yul\":6980:6995   */\n      mstore\n        /* \"#utility.yul\":7014:7018   */\n      0x24\n        /* \"#utility.yul\":7011:7012   */\n      0x00\n        /* \"#utility.yul\":7004:7019   */\n      revert\n        /* \"#utility.yul\":7030:7198   */\n    tag_226:\n        /* \"#utility.yul\":7097:7103   */\n      0xffff\n        /* \"#utility.yul\":7123:7133   */\n      dup2\n      dup2\n      and\n        /* \"#utility.yul\":7135:7145   */\n      dup4\n      dup3\n      and\n        /* \"#utility.yul\":7119:7146   */\n      add\n      swap1\n        /* \"#utility.yul\":7158:7169   */\n      dup1\n      dup3\n      gt\n        /* \"#utility.yul\":7155:7192   */\n      iszero\n      tag_614\n      jumpi\n        /* \"#utility.yul\":7172:7190   */\n      tag_614\n      tag_552\n      jump\t// in\n    tag_614:\n        /* \"#utility.yul\":7155:7192   */\n      pop\n        /* \"#utility.yul\":7030:7198   */\n      swap3\n      swap2\n      pop\n      pop\n      jump\t// out\n        /* \"#utility.yul\":7894:8019   */\n    tag_247:\n        /* \"#utility.yul\":7959:7968   */\n      dup1\n      dup3\n      add\n        /* \"#utility.yul\":7980:7990   */\n      dup1\n      dup3\n      gt\n        /* \"#utility.yul\":7977:8013   */\n      iszero\n      tag_216\n      jumpi\n        /* \"#utility.yul\":7993:8011   */\n      tag_216\n      tag_552\n      jump\t// in\n        /* \"#utility.yul\":8024:8160   */\n    tag_265:\n        /* \"#utility.yul\":8059:8062   */\n      0x00\n      shl(0xff, 0x01)\n        /* \"#utility.yul\":8080:8102   */\n      dup3\n      add\n        /* \"#utility.yul\":8077:8125   */\n      tag_622\n      jumpi\n        /* \"#utility.yul\":8105:8123   */\n      tag_622\n      tag_552\n      jump\t// in\n    tag_622:\n      pop\n        /* \"#utility.yul\":8145:8146   */\n      0x00\n        /* \"#utility.yul\":8141:8154   */\n      sub\n      swap1\n        /* \"#utility.yul\":8024:8160   */\n      jump\t// out\n        /* \"#utility.yul\":8165:8353   */\n    tag_553:\n        /* \"#utility.yul\":8244:8257   */\n      dup1\n      mload\n      sub(shl(0x70, 0x01), 0x01)\n        /* \"#utility.yul\":8286:8328   */\n      dup2\n      and\n        /* \"#utility.yul\":8276:8329   */\n      dup2\n      eq\n        /* \"#utility.yul\":8266:8347   */\n      tag_565\n      jumpi\n        /* \"#utility.yul\":8343:8344   */\n      0x00\n        /* \"#utility.yul\":8340:8341   */\n      dup1\n        /* \"#utility.yul\":8333:8345   */\n      revert\n        /* \"#utility.yul\":8358:8777   */\n    tag_278:\n        /* \"#utility.yul\":8445:8451   */\n      0x00\n        /* \"#utility.yul\":8453:8459   */\n      dup1\n        /* \"#utility.yul\":8461:8467   */\n      0x00\n        /* \"#utility.yul\":8514:8516   */\n      0x60\n        /* \"#utility.yul\":8502:8511   */\n      dup5\n        /* \"#utility.yul\":8493:8500   */\n      dup7\n        /* \"#utility.yul\":8489:8512   */\n      sub\n        /* \"#utility.yul\":8485:8517   */\n      slt\n        /* \"#utility.yul\":8482:8534   */\n      iszero\n      tag_626\n      jumpi\n        /* \"#utility.yul\":8530:8531   */\n      0x00\n        /* \"#utility.yul\":8527:8528   */\n      dup1\n        /* \"#utility.yul\":8520:8532   */\n      revert\n        /* \"#utility.yul\":8482:8534   */\n    tag_626:\n        /* \"#utility.yul\":8553:8593   */\n      tag_627\n        /* \"#utility.yul\":8583:8592   */\n      dup5\n        /* \"#utility.yul\":8553:8593   */\n      tag_553\n      jump\t// in\n    tag_627:\n        /* \"#utility.yul\":8543:8593   */\n      swap3\n      pop\n        /* \"#utility.yul\":8612:8661   */\n      tag_628\n        /* \"#utility.yul\":8657:8659   */\n      0x20\n        /* \"#utility.yul\":8646:8655   */\n      dup6\n        /* \"#utility.yul\":8642:8660   */\n      add\n        /* \"#utility.yul\":8612:8661   */\n      tag_553\n      jump\t// in\n    tag_628:\n        /* \"#utility.yul\":8602:8661   */\n      swap2\n      pop\n        /* \"#utility.yul\":8704:8706   */\n      0x40\n        /* \"#utility.yul\":8693:8702   */\n      dup5\n        /* \"#utility.yul\":8689:8707   */\n      add\n        /* \"#utility.yul\":8683:8708   */\n      mload\n        /* \"#utility.yul\":8717:8747   */\n      tag_629\n        /* \"#utility.yul\":8741:8746   */\n      dup2\n        /* \"#utility.yul\":8717:8747   */\n      tag_551\n      jump\t// in\n    tag_629:\n        /* \"#utility.yul\":8766:8771   */\n      dup1\n        /* \"#utility.yul\":8756:8771   */\n      swap2\n      pop\n      pop\n        /* \"#utility.yul\":8358:8777   */\n      swap3\n      pop\n      swap3\n      pop\n      swap3\n      jump\t// out\n        /* \"#utility.yul\":8782:9033   */\n    tag_282:\n        /* \"#utility.yul\":8852:8858   */\n      0x00\n        /* \"#utility.yul\":8905:8907   */\n      0x20\n        /* \"#utility.yul\":8893:8902   */\n      dup3\n        /* \"#utility.yul\":8884:8891   */\n      dup5\n        /* \"#utility.yul\":8880:8903   */\n      sub\n        /* \"#utility.yul\":8876:8908   */\n      slt\n        /* \"#utility.yul\":8873:8925   */\n      iszero\n      tag_631\n      jumpi\n        /* \"#utility.yul\":8921:8922   */\n      0x00\n        /* \"#utility.yul\":8918:8919   */\n      dup1\n        /* \"#utility.yul\":8911:8923   */\n      revert\n        /* \"#utility.yul\":8873:8925   */\n    tag_631:\n        /* \"#utility.yul\":8953:8962   */\n      dup2\n        /* \"#utility.yul\":8947:8963   */\n      mload\n        /* \"#utility.yul\":8972:9003   */\n      tag_235\n        /* \"#utility.yul\":8997:9002   */\n      dup2\n        /* \"#utility.yul\":8972:9003   */\n      tag_548\n      jump\t// in\n        /* \"#utility.yul\":9038:9165   */\n    tag_554:\n        /* \"#utility.yul\":9099:9109   */\n      0x4e487b71\n        /* \"#utility.yul\":9094:9097   */\n      0xe0\n        /* \"#utility.yul\":9090:9110   */\n      shl\n        /* \"#utility.yul\":9087:9088   */\n      0x00\n        /* \"#utility.yul\":9080:9111   */\n      mstore\n        /* \"#utility.yul\":9130:9134   */\n      0x12\n        /* \"#utility.yul\":9127:9128   */\n      0x04\n        /* \"#utility.yul\":9120:9135   */\n      mstore\n        /* \"#utility.yul\":9154:9158   */\n      0x24\n        /* \"#utility.yul\":9151:9152   */\n      0x00\n        /* \"#utility.yul\":9144:9159   */\n      revert\n        /* \"#utility.yul\":9170:9282   */\n    tag_304:\n        /* \"#utility.yul\":9202:9203   */\n      0x00\n        /* \"#utility.yul\":9228:9229   */\n      dup3\n        /* \"#utility.yul\":9218:9253   */\n      tag_636\n      jumpi\n        /* \"#utility.yul\":9233:9251   */\n      tag_636\n      tag_554\n      jump\t// in\n    tag_636:\n      pop\n        /* \"#utility.yul\":9267:9276   */\n      mod\n      swap1\n        /* \"#utility.yul\":9170:9282   */\n      jump\t// out\n        /* \"#utility.yul\":10100:10349   */\n    tag_343:\n        /* \"#utility.yul\":10171:10181   */\n      0xffffffff\n        /* \"#utility.yul\":10213:10223   */\n      dup2\n      dup2\n      and\n        /* \"#utility.yul\":10225:10235   */\n      dup4\n      dup3\n      and\n        /* \"#utility.yul\":10209:10236   */\n      mul\n        /* \"#utility.yul\":10256:10276   */\n      dup1\n      dup3\n      and\n      swap2\n        /* \"#utility.yul\":10171:10181   */\n      swap1\n        /* \"#utility.yul\":10295:10319   */\n      dup3\n      dup2\n      eq\n        /* \"#utility.yul\":10285:10343   */\n      tag_641\n      jumpi\n        /* \"#utility.yul\":10323:10341   */\n      tag_641\n      tag_552\n      jump\t// in\n    tag_641:\n        /* \"#utility.yul\":10285:10343   */\n      pop\n      pop\n        /* \"#utility.yul\":10100:10349   */\n      swap3\n      swap2\n      pop\n      pop\n      jump\t// out\n        /* \"#utility.yul\":13287:13415   */\n    tag_411:\n        /* \"#utility.yul\":13354:13363   */\n      dup2\n      dup2\n      sub\n        /* \"#utility.yul\":13375:13386   */\n      dup2\n      dup2\n      gt\n        /* \"#utility.yul\":13372:13409   */\n      iszero\n      tag_216\n      jumpi\n        /* \"#utility.yul\":13389:13407   */\n      tag_216\n      tag_552\n      jump\t// in\n        /* \"#utility.yul\":13420:13588   */\n    tag_414:\n        /* \"#utility.yul\":13493:13502   */\n      dup1\n      dup3\n      mul\n        /* \"#utility.yul\":13524:13533   */\n      dup2\n      iszero\n        /* \"#utility.yul\":13541:13556   */\n      dup3\n      dup3\n      div\n        /* \"#utility.yul\":13535:13557   */\n      dup5\n      eq\n        /* \"#utility.yul\":13521:13558   */\n      or\n        /* \"#utility.yul\":13511:13582   */\n      tag_216\n      jumpi\n        /* \"#utility.yul\":13562:13580   */\n      tag_216\n      tag_552\n      jump\t// in\n        /* \"#utility.yul\":13593:13713   */\n    tag_417:\n        /* \"#utility.yul\":13633:13634   */\n      0x00\n        /* \"#utility.yul\":13659:13660   */\n      dup3\n        /* \"#utility.yul\":13649:13684   */\n      tag_658\n      jumpi\n        /* \"#utility.yul\":13664:13682   */\n      tag_658\n      tag_554\n      jump\t// in\n    tag_658:\n      pop\n        /* \"#utility.yul\":13698:13707   */\n      div\n      swap1\n        /* \"#utility.yul\":13593:13713   */\n      jump\t// out\n        /* \"#utility.yul\":15497:15624   */\n    tag_521:\n        /* \"#utility.yul\":15558:15568   */\n      0x4e487b71\n        /* \"#utility.yul\":15553:15556   */\n      0xe0\n        /* \"#utility.yul\":15549:15569   */\n      shl\n        /* \"#utility.yul\":15546:15547   */\n      0x00\n        /* \"#utility.yul\":15539:15570   */\n      mstore\n        /* \"#utility.yul\":15589:15593   */\n      0x41\n        /* \"#utility.yul\":15586:15587   */\n      0x04\n        /* \"#utility.yul\":15579:15594   */\n      mstore\n        /* \"#utility.yul\":15613:15617   */\n      0x24\n        /* \"#utility.yul\":15610:15611   */\n      0x00\n        /* \"#utility.yul\":15603:15618   */\n      revert\n        /* \"#utility.yul\":15629:15756   */\n    tag_525:\n        /* \"#utility.yul\":15690:15700   */\n      0x4e487b71\n        /* \"#utility.yul\":15685:15688   */\n      0xe0\n        /* \"#utility.yul\":15681:15701   */\n      shl\n        /* \"#utility.yul\":15678:15679   */\n      0x00\n        /* \"#utility.yul\":15671:15702   */\n      mstore\n        /* \"#utility.yul\":15721:15725   */\n      0x32\n        /* \"#utility.yul\":15718:15719   */\n      0x04\n        /* \"#utility.yul\":15711:15726   */\n      mstore\n        /* \"#utility.yul\":15745:15749   */\n      0x24\n        /* \"#utility.yul\":15742:15743   */\n      0x00\n        /* \"#utility.yul\":15735:15750   */\n      revert\n        /* \"#utility.yul\":15761:16741   */\n    tag_533:\n        /* \"#utility.yul\":16023:16027   */\n      0x00\n        /* \"#utility.yul\":16071:16074   */\n      0xa0\n        /* \"#utility.yul\":16060:16069   */\n      dup3\n        /* \"#utility.yul\":16056:16075   */\n      add\n        /* \"#utility.yul\":16102:16108   */\n      dup8\n        /* \"#utility.yul\":16091:16100   */\n      dup4\n        /* \"#utility.yul\":16084:16109   */\n      mstore\n        /* \"#utility.yul\":16128:16130   */\n      0x20\n        /* \"#utility.yul\":16166:16172   */\n      dup8\n        /* \"#utility.yul\":16161:16163   */\n      0x20\n        /* \"#utility.yul\":16150:16159   */\n      dup6\n        /* \"#utility.yul\":16146:16164   */\n      add\n        /* \"#utility.yul\":16139:16173   */\n      mstore\n        /* \"#utility.yul\":16209:16212   */\n      0xa0\n        /* \"#utility.yul\":16204:16206   */\n      0x40\n        /* \"#utility.yul\":16193:16202   */\n      dup6\n        /* \"#utility.yul\":16189:16207   */\n      add\n        /* \"#utility.yul\":16182:16213   */\n      mstore\n        /* \"#utility.yul\":16233:16239   */\n      dup2\n        /* \"#utility.yul\":16268:16274   */\n      dup8\n        /* \"#utility.yul\":16262:16275   */\n      mload\n        /* \"#utility.yul\":16299:16305   */\n      dup1\n        /* \"#utility.yul\":16291:16297   */\n      dup5\n        /* \"#utility.yul\":16284:16306   */\n      mstore\n        /* \"#utility.yul\":16337:16340   */\n      0xc0\n        /* \"#utility.yul\":16326:16335   */\n      dup7\n        /* \"#utility.yul\":16322:16341   */\n      add\n        /* \"#utility.yul\":16315:16341   */\n      swap2\n      pop\n        /* \"#utility.yul\":16376:16378   */\n      0x20\n        /* \"#utility.yul\":16368:16374   */\n      dup10\n        /* \"#utility.yul\":16364:16379   */\n      add\n        /* \"#utility.yul\":16350:16379   */\n      swap4\n      pop\n        /* \"#utility.yul\":16397:16398   */\n      0x00\n        /* \"#utility.yul\":16407:16602   */\n    tag_667:\n        /* \"#utility.yul\":16421:16427   */\n      dup2\n        /* \"#utility.yul\":16418:16419   */\n      dup2\n        /* \"#utility.yul\":16415:16428   */\n      lt\n        /* \"#utility.yul\":16407:16602   */\n      iszero\n      tag_669\n      jumpi\n        /* \"#utility.yul\":16486:16499   */\n      dup5\n      mload\n      sub(shl(0xa0, 0x01), 0x01)\n        /* \"#utility.yul\":16482:16521   */\n      and\n        /* \"#utility.yul\":16470:16522   */\n      dup4\n      mstore\n        /* \"#utility.yul\":16577:16592   */\n      swap4\n      dup4\n      add\n      swap4\n        /* \"#utility.yul\":16542:16554   */\n      swap2\n      dup4\n      add\n      swap2\n        /* \"#utility.yul\":16518:16519   */\n      0x01\n        /* \"#utility.yul\":16436:16445   */\n      add\n        /* \"#utility.yul\":16407:16602   */\n      jump(tag_667)\n    tag_669:\n      pop\n      pop\n      sub(shl(0xa0, 0x01), 0x01)\n        /* \"#utility.yul\":16658:16690   */\n      swap7\n      swap1\n      swap7\n      and\n        /* \"#utility.yul\":16653:16655   */\n      0x60\n        /* \"#utility.yul\":16638:16656   */\n      dup6\n      add\n        /* \"#utility.yul\":16631:16691   */\n      mstore\n      pop\n      pop\n      pop\n        /* \"#utility.yul\":16722:16725   */\n      0x80\n        /* \"#utility.yul\":16707:16726   */\n      add\n        /* \"#utility.yul\":16700:16735   */\n      mstore\n        /* \"#utility.yul\":16619:16622   */\n      swap4\n        /* \"#utility.yul\":15761:16741   */\n      swap3\n      pop\n      pop\n      pop\n      jump\t// out\n        /* \"#utility.yul\":16746:17851   */\n    tag_537:\n        /* \"#utility.yul\":16841:16847   */\n      0x00\n        /* \"#utility.yul\":16872:16874   */\n      0x20\n        /* \"#utility.yul\":16915:16917   */\n      dup1\n        /* \"#utility.yul\":16903:16912   */\n      dup4\n        /* \"#utility.yul\":16894:16901   */\n      dup6\n        /* \"#utility.yul\":16890:16913   */\n      sub\n        /* \"#utility.yul\":16886:16918   */\n      slt\n        /* \"#utility.yul\":16883:16935   */\n      iszero\n      tag_671\n      jumpi\n        /* \"#utility.yul\":16931:16932   */\n      0x00\n        /* \"#utility.yul\":16928:16929   */\n      dup1\n        /* \"#utility.yul\":16921:16933   */\n      revert\n        /* \"#utility.yul\":16883:16935   */\n    tag_671:\n        /* \"#utility.yul\":16964:16973   */\n      dup3\n        /* \"#utility.yul\":16958:16974   */\n      mload\n        /* \"#utility.yul\":16993:17011   */\n      0xffffffffffffffff\n        /* \"#utility.yul\":17034:17036   */\n      dup1\n        /* \"#utility.yul\":17026:17032   */\n      dup3\n        /* \"#utility.yul\":17023:17037   */\n      gt\n        /* \"#utility.yul\":17020:17054   */\n      iszero\n      tag_672\n      jumpi\n        /* \"#utility.yul\":17050:17051   */\n      0x00\n        /* \"#utility.yul\":17047:17048   */\n      dup1\n        /* \"#utility.yul\":17040:17052   */\n      revert\n        /* \"#utility.yul\":17020:17054   */\n    tag_672:\n        /* \"#utility.yul\":17088:17094   */\n      dup2\n        /* \"#utility.yul\":17077:17086   */\n      dup6\n        /* \"#utility.yul\":17073:17095   */\n      add\n        /* \"#utility.yul\":17063:17095   */\n      swap2\n      pop\n        /* \"#utility.yul\":17133:17140   */\n      dup6\n        /* \"#utility.yul\":17126:17130   */\n      0x1f\n        /* \"#utility.yul\":17122:17124   */\n      dup4\n        /* \"#utility.yul\":17118:17131   */\n      add\n        /* \"#utility.yul\":17114:17141   */\n      slt\n        /* \"#utility.yul\":17104:17159   */\n      tag_673\n      jumpi\n        /* \"#utility.yul\":17155:17156   */\n      0x00\n        /* \"#utility.yul\":17152:17153   */\n      dup1\n        /* \"#utility.yul\":17145:17157   */\n      revert\n        /* \"#utility.yul\":17104:17159   */\n    tag_673:\n        /* \"#utility.yul\":17184:17186   */\n      dup2\n        /* \"#utility.yul\":17178:17187   */\n      mload\n        /* \"#utility.yul\":17206:17208   */\n      dup2\n        /* \"#utility.yul\":17202:17204   */\n      dup2\n        /* \"#utility.yul\":17199:17209   */\n      gt\n        /* \"#utility.yul\":17196:17232   */\n      iszero\n      tag_675\n      jumpi\n        /* \"#utility.yul\":17212:17230   */\n      tag_675\n      tag_521\n      jump\t// in\n    tag_675:\n        /* \"#utility.yul\":17258:17260   */\n      dup1\n        /* \"#utility.yul\":17255:17256   */\n      0x05\n        /* \"#utility.yul\":17251:17261   */\n      shl\n        /* \"#utility.yul\":17290:17292   */\n      0x40\n        /* \"#utility.yul\":17284:17293   */\n      mload\n        /* \"#utility.yul\":17353:17355   */\n      0x1f\n        /* \"#utility.yul\":17349:17356   */\n      not\n        /* \"#utility.yul\":17344:17346   */\n      0x3f\n        /* \"#utility.yul\":17340:17342   */\n      dup4\n        /* \"#utility.yul\":17336:17347   */\n      add\n        /* \"#utility.yul\":17332:17357   */\n      and\n        /* \"#utility.yul\":17324:17330   */\n      dup2\n        /* \"#utility.yul\":17320:17358   */\n      add\n        /* \"#utility.yul\":17408:17414   */\n      dup2\n        /* \"#utility.yul\":17396:17406   */\n      dup2\n        /* \"#utility.yul\":17393:17415   */\n      lt\n        /* \"#utility.yul\":17388:17390   */\n      dup6\n        /* \"#utility.yul\":17376:17386   */\n      dup3\n        /* \"#utility.yul\":17373:17391   */\n      gt\n        /* \"#utility.yul\":17370:17416   */\n      or\n        /* \"#utility.yul\":17367:17439   */\n      iszero\n      tag_677\n      jumpi\n        /* \"#utility.yul\":17419:17437   */\n      tag_677\n      tag_521\n      jump\t// in\n    tag_677:\n        /* \"#utility.yul\":17455:17457   */\n      0x40\n        /* \"#utility.yul\":17448:17470   */\n      mstore\n        /* \"#utility.yul\":17505:17523   */\n      swap2\n      dup3\n      mstore\n        /* \"#utility.yul\":17539:17554   */\n      dup5\n      dup3\n      add\n      swap3\n      pop\n        /* \"#utility.yul\":17581:17592   */\n      dup4\n      dup2\n      add\n        /* \"#utility.yul\":17577:17597   */\n      dup6\n      add\n      swap2\n        /* \"#utility.yul\":17609:17628   */\n      dup9\n      dup4\n      gt\n        /* \"#utility.yul\":17606:17645   */\n      iszero\n      tag_678\n      jumpi\n        /* \"#utility.yul\":17641:17642   */\n      0x00\n        /* \"#utility.yul\":17638:17639   */\n      dup1\n        /* \"#utility.yul\":17631:17643   */\n      revert\n        /* \"#utility.yul\":17606:17645   */\n    tag_678:\n        /* \"#utility.yul\":17665:17676   */\n      swap4\n      dup6\n      add\n      swap4\n        /* \"#utility.yul\":17685:17820   */\n    tag_679:\n        /* \"#utility.yul\":17701:17707   */\n      dup3\n        /* \"#utility.yul\":17696:17699   */\n      dup6\n        /* \"#utility.yul\":17693:17708   */\n      lt\n        /* \"#utility.yul\":17685:17820   */\n      iszero\n      tag_681\n      jumpi\n        /* \"#utility.yul\":17767:17777   */\n      dup5\n      mload\n        /* \"#utility.yul\":17755:17778   */\n      dup5\n      mstore\n        /* \"#utility.yul\":17718:17730   */\n      swap4\n      dup6\n      add\n      swap4\n        /* \"#utility.yul\":17798:17810   */\n      swap3\n      dup6\n      add\n      swap3\n        /* \"#utility.yul\":17685:17820   */\n      jump(tag_679)\n    tag_681:\n        /* \"#utility.yul\":17839:17845   */\n      swap9\n        /* \"#utility.yul\":16746:17851   */\n      swap8\n      pop\n      pop\n      pop\n      pop\n      pop\n      pop\n      pop\n      pop\n      jump\t// out\n        /* \"#utility.yul\":18468:18774   */\n    tag_546:\n        /* \"#utility.yul\":18556:18562   */\n      0x00\n        /* \"#utility.yul\":18564:18570   */\n      dup1\n        /* \"#utility.yul\":18572:18578   */\n      0x00\n        /* \"#utility.yul\":18625:18627   */\n      0x60\n        /* \"#utility.yul\":18613:18622   */\n      dup5\n        /* \"#utility.yul\":18604:18611   */\n      dup7\n        /* \"#utility.yul\":18600:18623   */\n      sub\n        /* \"#utility.yul\":18596:18628   */\n      slt\n        /* \"#utility.yul\":18593:18645   */\n      iszero\n      tag_684\n      jumpi\n        /* \"#utility.yul\":18641:18642   */\n      0x00\n        /* \"#utility.yul\":18638:18639   */\n      dup1\n        /* \"#utility.yul\":18631:18643   */\n      revert\n        /* \"#utility.yul\":18593:18645   */\n    tag_684:\n        /* \"#utility.yul\":18670:18679   */\n      dup4\n        /* \"#utility.yul\":18664:18680   */\n      mload\n        /* \"#utility.yul\":18654:18680   */\n      swap3\n      pop\n        /* \"#utility.yul\":18720:18722   */\n      0x20\n        /* \"#utility.yul\":18709:18718   */\n      dup5\n        /* \"#utility.yul\":18705:18723   */\n      add\n        /* \"#utility.yul\":18699:18724   */\n      mload\n        /* \"#utility.yul\":18689:18724   */\n      swap2\n      pop\n        /* \"#utility.yul\":18764:18766   */\n      0x40\n        /* \"#utility.yul\":18753:18762   */\n      dup5\n        /* \"#utility.yul\":18749:18767   */\n      add\n        /* \"#utility.yul\":18743:18768   */\n      mload\n        /* \"#utility.yul\":18733:18768   */\n      swap1\n      pop\n        /* \"#utility.yul\":18468:18774   */\n      swap3\n      pop\n      swap3\n      pop\n      swap3\n      jump\t// out\n\n    auxdata: 0xa264697066735822122058ff80e09a44ac810eca1f7ec706d8a9e4d48933c73aacb957ac449dba91ca2564736f6c63430008190033\n}\n",
				"bytecode": {
					"linkReferences": {},
					"object": "6080604052606460065560236008556100266103e86b033b2e3c9fd0803ce80000006103f2565b600955348015610034575f80fd5b506040518060400160405280600981526020016826b2b6b29021b7b4b760b91b815250604051806040016040528060048152602001634d454d4560e01b815250816003908161008391906104a8565b50600461009082826104a8565b5050506100a96100a461015060201b60201c565b610154565b6100bf336b033b2e3c9fd0803ce80000006101a5565b601380546001600160a01b0319167310ed43c718714eb63d5aa57b78b54704e256024e1790556100ed610266565b604080516080810182525f80825260208083018290528284018290526060909201819052600780546001600160401b03191690553381526015909152818120805460ff1990811660019081179092553083529290912080549092161790556105b9565b3390565b600580546001600160a01b038381166001600160a01b0319831681179093556040519116919082907f8be0079c531659141344cd1fd0a4f28419497f9722a3daafe3b4186f6b6457e0905f90a35050565b6001600160a01b0382166101ff5760405162461bcd60e51b815260206004820152601f60248201527f45524332303a206d696e7420746f20746865207a65726f206164647265737300604482015260640160405180910390fd5b8060025f8282546102109190610567565b90915550506001600160a01b0382165f81815260208181526040808320805486019055518481527fddf252ad1be2c89b69c2b068fc378daa952ba7f163c4a11628f55a4df523b3ef910160405180910390a35050565b60135f9054906101000a90046001600160a01b03166001600160a01b031663c45a01556040518163ffffffff1660e01b8152600401602060405180830381865afa1580156102b6573d5f803e3d5ffd5b505050506040513d601f19601f820116820180604052508101906102da919061058c565b6001600160a01b031663c9c653963060135f9054906101000a90046001600160a01b03166001600160a01b031663ad5c46486040518163ffffffff1660e01b8152600401602060405180830381865afa158015610339573d5f803e3d5ffd5b505050506040513d601f19601f8201168201806040525081019061035d919061058c565b6040516001600160e01b031960e085901b1681526001600160a01b039283166004820152911660248201526044016020604051808303815f875af11580156103a7573d5f803e3d5ffd5b505050506040513d601f19601f820116820180604052508101906103cb919061058c565b601480546001600160a01b0319166001600160a01b0392909216919091179055565b505050565b5f8261040c57634e487b7160e01b5f52601260045260245ffd5b500490565b634e487b7160e01b5f52604160045260245ffd5b600181811c9082168061043957607f821691505b60208210810361045757634e487b7160e01b5f52602260045260245ffd5b50919050565b601f8211156103ed57805f5260205f20601f840160051c810160208510156104825750805b601f840160051c820191505b818110156104a1575f815560010161048e565b5050505050565b81516001600160401b038111156104c1576104c1610411565b6104d5816104cf8454610425565b8461045d565b602080601f831160018114610508575f84156104f15750858301515b5f19600386901b1c1916600185901b17855561055f565b5f85815260208120601f198616915b8281101561053657888601518255948401946001909101908401610517565b508582101561055357878501515f19600388901b60f8161c191681555b505060018460011b0185555b505050505050565b8082018082111561058657634e487b7160e01b5f52601160045260245ffd5b92915050565b5f6020828403121561059c575f80fd5b81516001600160a01b03811681146105b2575f80fd5b9392505050565b6122e8806105c65f395ff3fe6080604052600436106101f4575f3560e01c80639491f94d11610108578063ad5dff731161009d578063d8d61c401161006d578063d8d61c401461064e578063dd62ed3e14610663578063f2fde38b14610682578063fe0bb982146106a1578063fe6b751e146106c0575f80fd5b8063ad5dff7314610588578063c0d78655146105b6578063c531b108146105d5578063c95457ff146105ea575f80fd5b80639fde54f5116100d85780639fde54f51461050c578063a457c2d71461052b578063a8b089821461054a578063a9059cbb14610569575f80fd5b80639491f94d1461048657806395d89b411461049a578063960bfe04146104ae5780639d82190f146104cd575f80fd5b8063333f4b3d11610189578063715018a611610159578063715018a6146103eb5780637773168f146103ff578063787a08a6146104135780638da5cb5b146104555780638f9a55c014610472575f80fd5b8063333f4b3d1461031d5780633950935114610383578063599ca397146103a257806370a08231146103b7575f80fd5b806318160ddd116101c457806318160ddd1461029857806323b872dd146102ac578063313ce567146102cb5780633268cc56146102e6575f80fd5b80630445b667146101ff57806306fdde0314610227578063095ea7b3146102485780631569d18114610277575f80fd5b366101fb57005b5f80fd5b34801561020a575f80fd5b5061021460095481565b6040519081526020015b60405180910390f35b348015610232575f80fd5b5061023b6106df565b60405161021e9190611d73565b348015610253575f80fd5b50610267610262366004611dbc565b61076f565b604051901515815260200161021e565b348015610282575f80fd5b50610296610291366004611dfc565b610788565b005b3480156102a3575f80fd5b50600254610214565b3480156102b7575f80fd5b506102676102c6366004611e4d565b6108b7565b3480156102d6575f80fd5b506040516012815260200161021e565b3480156102f1575f80fd5b50601354610305906001600160a01b031681565b6040516001600160a01b03909116815260200161021e565b348015610328575f80fd5b506007546103559061ffff80821691620100008104821691600160201b8204811691600160301b90041684565b6040805161ffff9586168152938516602085015291841691830191909152909116606082015260800161021e565b34801561038e575f80fd5b5061026761039d366004611dbc565b6108dc565b3480156103ad575f80fd5b5061021460065481565b3480156103c2575f80fd5b506102146103d1366004611e8b565b6001600160a01b03165f9081526020819052604090205490565b3480156103f6575f80fd5b506102966108fd565b34801561040a575f80fd5b50610214610910565b34801561041e575f80fd5b50600d546104399060ff811690610100900463ffffffff1682565b60408051921515835263ffffffff90911660208301520161021e565b348015610460575f80fd5b506005546001600160a01b0316610305565b34801561047d575f80fd5b5061021461098f565b348015610491575f80fd5b506102146109bc565b3480156104a5575f80fd5b5061023b610b16565b3480156104b9575f80fd5b506102966104c8366004611ea6565b610b25565b3480156104d8575f80fd5b506104ec6104e7366004611e8b565b610b32565b60408051948552602085019390935291830152606082015260800161021e565b348015610517575f80fd5b50610296610526366004611ecc565b610bde565b348015610536575f80fd5b50610267610545366004611dbc565b610c10565b348015610555575f80fd5b50601454610305906001600160a01b031681565b348015610574575f80fd5b50610267610583366004611dbc565b610c95565b348015610593575f80fd5b506102676105a2366004611e8b565b60156020525f908152604090205460ff1681565b3480156105c1575f80fd5b506102966105d0366004611e8b565b610ca2565b3480156105e0575f80fd5b50610214600b5481565b3480156105f5575f80fd5b50600f5460105460115460125461061f9360ff8082169461010090920461ffff1693919291169085565b60408051951515865261ffff90941660208601529284019190915215156060830152608082015260a00161021e565b348015610659575f80fd5b50610214600a5481565b34801561066e575f80fd5b5061021461067d366004611eff565b610d0c565b34801561068d575f80fd5b5061029661069c366004611e8b565b610d36565b3480156106ac575f80fd5b506102966106bb366004611f36565b610daf565b3480156106cb575f80fd5b506102966106da366004611f6f565b610de1565b6060600380546106ee90611f99565b80601f016020809104026020016040519081016040528092919081815260200182805461071a90611f99565b80156107655780601f1061073c57610100808354040283529160200191610765565b820191905f5260205f20905b81548152906001019060200180831161074857829003601f168201915b5050505050905090565b5f3361077c818585610e27565b60019150505b92915050565b610790610f4a565b6109c461079d8486611fe5565b61ffff1611156107e75760405162461bcd60e51b815260206004820152601060248201526f084eaf240e8c2f040e8dede40d0d2ced60831b60448201526064015b60405180910390fd5b6109c46107f48284611fe5565b61ffff16111561083a5760405162461bcd60e51b81526020600482015260116024820152700a6cad8d840e8c2f040e8dede40d0d2ced607b1b60448201526064016107de565b6040805160808101825261ffff958616808252948616602082018190529386169181018290529190941660609091018190526007805463ffffffff1916909317620100009092029190911767ffffffff000000001916600160201b90930267ffff000000000000191692909217600160301b909202919091179055565b5f336108c4858285610fa4565b6108cf85858561101c565b60019150505b9392505050565b5f3361077c8185856108ee8383610d0c565b6108f89190612007565b610e27565b610905610f4a565b61090e5f6112ec565b565b6010545f90810361092057505f90565b5f6109296109bc565b601054909150811161096c5760105461095e90610958670de0b6b3a7640000610952838661133d565b90611348565b90611353565b6109679061201a565b610989565b60105461098990610958670de0b6b3a7640000610952858461133d565b91505090565b5f6109b76127106109586006546b033b2e3c9fd0803ce800000061134890919063ffffffff16565b905090565b5f805f60145f9054906101000a90046001600160a01b03166001600160a01b0316630902f1ac6040518163ffffffff1660e01b8152600401606060405180830381865afa158015610a0f573d5f803e3d5ffd5b505050506040513d601f19601f82011682018060405250810190610a33919061204a565b5091509150306001600160a01b031660145f9054906101000a90046001600160a01b03166001600160a01b0316630dfe16816040518163ffffffff1660e01b8152600401602060405180830381865afa158015610a92573d5f803e3d5ffd5b505050506040513d601f19601f82011682018060405250810190610ab6919061208e565b6001600160a01b031614610aec57610ae76001600160701b0380831690610958908516670de0b6b3a7640000611348565b610b0f565b610b0f6001600160701b0380841690610958908416670de0b6b3a7640000611348565b9250505090565b6060600480546106ee90611f99565b610b2d610f4a565b600955565b6001600160a01b0381165f908152600e602052604081205481908190819081904210610b5e575f610b80565b6001600160a01b0386165f908152600e6020526040902054610b80904261133d565b9050610b8f8162015180611353565b9450610b9e62015180826120bd565b9050610bac81610e10611353565b9350610bba610e10826120bd565b9050610bc781603c611353565b9250610bd4603c826120bd565b9150509193509193565b610be6610f4a565b6001600160a01b03919091165f908152601560205260409020805460ff1916911515919091179055565b5f3381610c1d8286610d0c565b905083811015610c7d5760405162461bcd60e51b815260206004820152602560248201527f45524332303a2064656372656173656420616c6c6f77616e63652062656c6f77604482015264207a65726f60d81b60648201526084016107de565b610c8a8286868403610e27565b506001949350505050565b5f3361077c81858561101c565b610caa610f4a565b601380546001600160a01b0319166001600160a01b038316179055610ccd61135e565b6040516001600160a01b03821681527f7aed1d3e8155a07ccf395e44ea3109a0e2d6c9b29bbbe9f142d9790596f4dc809060200160405180910390a150565b6001600160a01b039182165f90815260016020908152604080832093909416825291909152205490565b610d3e610f4a565b6001600160a01b038116610da35760405162461bcd60e51b815260206004820152602660248201527f4f776e61626c653a206e6577206f776e657220697320746865207a65726f206160448201526564647265737360d01b60648201526084016107de565b610dac816112ec565b50565b610db7610f4a565b600f805462ffffff191692151562ffff0019169290921761010061ffff9290921691909102179055565b610de9610f4a565b600d805460ff1916831515179055610e0281603c6120d0565b600d805463ffffffff929092166101000264ffffffff00199092169190911790555050565b6001600160a01b038316610e895760405162461bcd60e51b8152602060048201526024808201527f45524332303a20617070726f76652066726f6d20746865207a65726f206164646044820152637265737360e01b60648201526084016107de565b6001600160a01b038216610eea5760405162461bcd60e51b815260206004820152602260248201527f45524332303a20617070726f766520746f20746865207a65726f206164647265604482015261737360f01b60648201526084016107de565b6001600160a01b038381165f8181526001602090815260408083209487168084529482529182902085905590518481527f8c5be1e5ebec7d5bd14f71427d1e84f3dd0314c0f7b2291e5b200ac8c7c3b925910160405180910390a3505050565b6005546001600160a01b0316331461090e5760405162461bcd60e51b815260206004820181905260248201527f4f776e61626c653a2063616c6c6572206973206e6f7420746865206f776e657260448201526064016107de565b5f610faf8484610d0c565b90505f19811461101657818110156110095760405162461bcd60e51b815260206004820152601d60248201527f45524332303a20696e73756666696369656e7420616c6c6f77616e636500000060448201526064016107de565b6110168484848403610e27565b50505050565b5f811161106b5760405162461bcd60e51b815260206004820152601a60248201527f5472616e7366657220616d6f756e74206d757374206265203e3000000000000060448201526064016107de565b6014545f906001600160a01b0385811691161480156110a257506001600160a01b0383165f9081526015602052604090205460ff16155b6014549091505f906001600160a01b0385811691161480156110dc57506001600160a01b0385165f9081526015602052604090205460ff16155b600f5490915060ff1680156110ee5750805b1561114e5760115460ff16156111465760405162461bcd60e51b815260206004820152601e60248201527f53656c6c732073746f70706564206279204469616d6f6e6420466c6f6f72000060448201526064016107de565b61114e6114e5565b600d5460ff16801561115d5750805b156111ec576001600160a01b0385165f908152600e60205260409020544210156111bb5760405162461bcd60e51b815260206004820152600f60248201526e436f6f6c646f776e2061637469766560881b60448201526064016107de565b600d546111d390610100900463ffffffff1642612007565b6001600160a01b0386165f908152600e60205260409020555b5f6111f886868661159b565b90505f611205858361133d565b6001600160a01b0387165f9081526015602052604090205490915060ff1615801561122e575082155b156112a75761123b61098f565b6112638261125d896001600160a01b03165f9081526020819052604090205490565b906116c7565b11156112a75760405162461bcd60e51b815260206004820152601360248201527213585e081dd85b1b195d08195e18d959591959606a1b60448201526064016107de565b81156112c3576112b88730846116d2565b6112c3828585611874565b6112ce8787836116d2565b6112d66119de565b156112e3576112e3611a1d565b50505050505050565b600580546001600160a01b038381166001600160a01b0319831681179093556040519116919082907f8be0079c531659141344cd1fd0a4f28419497f9722a3daafe3b4186f6b6457e0905f90a35050565b5f6108d582846120f8565b5f6108d5828461210b565b5f6108d58284612122565b60135f9054906101000a90046001600160a01b03166001600160a01b031663c45a01556040518163ffffffff1660e01b8152600401602060405180830381865afa1580156113ae573d5f803e3d5ffd5b505050506040513d601f19601f820116820180604052508101906113d2919061208e565b6001600160a01b031663c9c653963060135f9054906101000a90046001600160a01b03166001600160a01b031663ad5c46486040518163ffffffff1660e01b8152600401602060405180830381865afa158015611431573d5f803e3d5ffd5b505050506040513d601f19601f82011682018060405250810190611455919061208e565b6040516001600160e01b031960e085901b1681526001600160a01b039283166004820152911660248201526044016020604051808303815f875af115801561149f573d5f803e3d5ffd5b505050506040513d601f19601f820116820180604052508101906114c3919061208e565b601480546001600160a01b0319166001600160a01b0392909216919091179055565b5f6114ee6109bc565b60105490915081111561151857601081905560115460ff1615610dac576011805460ff1916905550565b600f545f9061154590612710906109589061153c90610100900461ffff16836120f8565b60105490611348565b905080821015611563576011805460ff191660011790556010546012555b60115460ff168015611582575060125461157e906002611348565b8210155b15611597576011805460ff1916905560108290555b5050565b6001600160a01b0383165f9081526015602052604081205460ff16806115d857506001600160a01b0383165f9081526015602052604090205460ff165b156115e457505f6108d5565b6014546001600160a01b0390811685821681149185161481156116375760075461162e9061271090610958906116279061ffff80821691620100009004166116c7565b8790611348565b925050506108d5565b801561166a5760075461162e9061271090610958906116279061ffff600160201b8204811691600160301b9004166116c7565b6007545f9061168d9061ffff600160201b8204811691600160301b9004166116c7565b90505f6116aa600a6109586008548561134890919063ffffffff16565b90506116bc6127106109588884611348565b9450505050506108d5565b5f6108d58284612007565b6001600160a01b0383166117365760405162461bcd60e51b815260206004820152602560248201527f45524332303a207472616e736665722066726f6d20746865207a65726f206164604482015264647265737360d81b60648201526084016107de565b6001600160a01b0382166117985760405162461bcd60e51b815260206004820152602360248201527f45524332303a207472616e7366657220746f20746865207a65726f206164647260448201526265737360e81b60648201526084016107de565b6001600160a01b0383165f908152602081905260409020548181101561180f5760405162461bcd60e51b815260206004820152602660248201527f45524332303a207472616e7366657220616d6f756e7420657863656564732062604482015265616c616e636560d01b60648201526084016107de565b6001600160a01b038481165f81815260208181526040808320878703905593871680835291849020805487019055925185815290927fddf252ad1be2c89b69c2b068fc378daa952ba7f163c4a11628f55a4df523b3ef910160405180910390a3611016565b5f8083156118b6576007546118af906118999061ffff62010000820481169116611fe5565b60075461ffff9182169161095891899116611348565b9150611964565b82156118ff576007546118af906118e19061ffff600160301b8204811691600160201b900416611fe5565b60075461ffff91821691610958918991600160201b90910416611348565b6007545f906119229061ffff600160301b8204811691600160201b900416611fe5565b61ffff169050611960600a6109586008546109528561095860075f0160049054906101000a900461ffff1661ffff168d61134890919063ffffffff16565b9250505b61196e82866120f8565b905081600a5f8282546119819190612007565b9250508190555080600b5f8282546119999190612007565b909155505060408051838152602081018390527ff2d9f3f00fc700757eb74f9aa3dba0e2eb1280e0c6e0cf65962cc055528d7a90910160405180910390a15050505050565b600c545f9060ff16158015611a035750600954600b54600a54611a00916116c7565b10155b80156109b75750506014546001600160a01b031633141590565b5f600b54600a54611a2e9190612007565b9050600954811015611a3d5750565b600c805460ff19166001179055600b544790611a5890611b07565b5f611a63478361133d565b9050611a776005546001600160a01b031690565b6001600160a01b03166108fc8290811502906040515f60405180830381858888f19350505050158015611aac573d5f803e3d5ffd5b50600a545f611abc826002611353565b9050611ac781611b07565b5f611ad2478561133d565b9050611ae7611ae1848461133d565b82611c68565b50505f600a819055600b555050600c805460ff191690555050565b505050565b6040805160028082526060820183525f9260208301908036833701905050905030815f81518110611b3a57611b3a612149565b6001600160a01b03928316602091820292909201810191909152601354604080516315ab88c960e31b81529051919093169263ad5c46489260048083019391928290030181865afa158015611b91573d5f803e3d5ffd5b505050506040513d601f19601f82011682018060405250810190611bb5919061208e565b81600181518110611bc857611bc8612149565b6001600160a01b039283166020918202929092010152601354611bee9130911684610e27565b6013546040516318cbafe560e01b81526001600160a01b03909116906318cbafe590611c269085905f9086903090429060040161215d565b5f604051808303815f875af1158015611c41573d5f803e3d5ffd5b505050506040513d5f823e601f3d908101601f19168201604052611b0291908101906121ce565b601354611c809030906001600160a01b031684610e27565b6013546001600160a01b031663f305d7198230855f80611ca86005546001600160a01b031690565b60405160e088901b6001600160e01b03191681526001600160a01b03958616600482015260248101949094526044840192909252606483015290911660848201524260a482015260c40160606040518083038185885af1158015611d0e573d5f803e3d5ffd5b50505050506040513d601f19601f82011682018060405250810190611d339190612287565b505060408051848152602081018490527f38f8a0c92f4c5b0b6877f878cb4c0c8d348a47b76d716c8e78f425043df9515b92500160405180910390a15050565b602081525f82518060208401528060208501604085015e5f604082850101526040601f19601f83011684010191505092915050565b6001600160a01b0381168114610dac575f80fd5b5f8060408385031215611dcd575f80fd5b8235611dd881611da8565b946020939093013593505050565b803561ffff81168114611df7575f80fd5b919050565b5f805f8060808587031215611e0f575f80fd5b611e1885611de6565b9350611e2660208601611de6565b9250611e3460408601611de6565b9150611e4260608601611de6565b905092959194509250565b5f805f60608486031215611e5f575f80fd5b8335611e6a81611da8565b92506020840135611e7a81611da8565b929592945050506040919091013590565b5f60208284031215611e9b575f80fd5b81356108d581611da8565b5f60208284031215611eb6575f80fd5b5035919050565b80358015158114611df7575f80fd5b5f8060408385031215611edd575f80fd5b8235611ee881611da8565b9150611ef660208401611ebd565b90509250929050565b5f8060408385031215611f10575f80fd5b8235611f1b81611da8565b91506020830135611f2b81611da8565b809150509250929050565b5f8060408385031215611f47575f80fd5b611f5083611ebd565b9150611ef660208401611de6565b63ffffffff81168114610dac575f80fd5b5f8060408385031215611f80575f80fd5b611f8983611ebd565b91506020830135611f2b81611f5e565b600181811c90821680611fad57607f821691505b602082108103611fcb57634e487b7160e01b5f52602260045260245ffd5b50919050565b634e487b7160e01b5f52601160045260245ffd5b61ffff81811683821601908082111561200057612000611fd1565b5092915050565b8082018082111561078257610782611fd1565b5f600160ff1b820161202e5761202e611fd1565b505f0390565b80516001600160701b0381168114611df7575f80fd5b5f805f6060848603121561205c575f80fd5b61206584612034565b925061207360208501612034565b9150604084015161208381611f5e565b809150509250925092565b5f6020828403121561209e575f80fd5b81516108d581611da8565b634e487b7160e01b5f52601260045260245ffd5b5f826120cb576120cb6120a9565b500690565b63ffffffff8181168382160280821691908281146120f0576120f0611fd1565b505092915050565b8181038181111561078257610782611fd1565b808202811582820484141761078257610782611fd1565b5f82612130576121306120a9565b500490565b634e487b7160e01b5f52604160045260245ffd5b634e487b7160e01b5f52603260045260245ffd5b5f60a08201878352602087602085015260a0604085015281875180845260c0860191506020890193505f5b818110156121ad5784516001600160a01b031683529383019391830191600101612188565b50506001600160a01b03969096166060850152505050608001529392505050565b5f60208083850312156121df575f80fd5b825167ffffffffffffffff808211156121f6575f80fd5b818501915085601f830112612209575f80fd5b81518181111561221b5761221b612135565b8060051b604051601f19603f8301168101818110858211171561224057612240612135565b60405291825284820192508381018501918883111561225d575f80fd5b938501935b8285101561227b57845184529385019392850192612262565b98975050505050505050565b5f805f60608486031215612299575f80fd5b835192506020840151915060408401519050925092509256fea264697066735822122058ff80e09a44ac810eca1f7ec706d8a9e4d48933c73aacb957ac449dba91ca2564736f6c63430008190033",
					"opcodes": "PUSH1 0x80 PUSH1 0x40 MSTORE PUSH1 0x64 PUSH1 0x6 SSTORE PUSH1 0x23 PUSH1 0x8 SSTORE PUSH2 0x26 PUSH2 0x3E8 PUSH12 0x33B2E3C9FD0803CE8000000 PUSH2 0x3F2 JUMP JUMPDEST PUSH1 0x9 SSTORE CALLVALUE DUP1 ISZERO PUSH2 0x34 JUMPI PUSH0 DUP1 REVERT JUMPDEST POP PUSH1 0x40 MLOAD DUP1 PUSH1 0x40 ADD PUSH1 0x40 MSTORE DUP1 PUSH1 0x9 DUP2 MSTORE PUSH1 0x20 ADD PUSH9 0x26B2B6B29021B7B4B7 PUSH1 0xB9 SHL DUP2 MSTORE POP PUSH1 0x40 MLOAD DUP1 PUSH1 0x40 ADD PUSH1 0x40 MSTORE DUP1 PUSH1 0x4 DUP2 MSTORE PUSH1 0x20 ADD PUSH4 0x4D454D45 PUSH1 0xE0 SHL DUP2 MSTORE POP DUP2 PUSH1 0x3 SWAP1 DUP2 PUSH2 0x83 SWAP2 SWAP1 PUSH2 0x4A8 JUMP JUMPDEST POP PUSH1 0x4 PUSH2 0x90 DUP3 DUP3 PUSH2 0x4A8 JUMP JUMPDEST POP POP POP PUSH2 0xA9 PUSH2 0xA4 PUSH2 0x150 PUSH1 0x20 SHL PUSH1 0x20 SHR JUMP JUMPDEST PUSH2 0x154 JUMP JUMPDEST PUSH2 0xBF CALLER PUSH12 0x33B2E3C9FD0803CE8000000 PUSH2 0x1A5 JUMP JUMPDEST PUSH1 0x13 DUP1 SLOAD PUSH1 0x1 PUSH1 0x1 PUSH1 0xA0 SHL SUB NOT AND PUSH20 0x10ED43C718714EB63D5AA57B78B54704E256024E OR SWAP1 SSTORE PUSH2 0xED PUSH2 0x266 JUMP JUMPDEST PUSH1 0x40 DUP1 MLOAD PUSH1 0x80 DUP2 ADD DUP3 MSTORE PUSH0 DUP1 DUP3 MSTORE PUSH1 0x20 DUP1 DUP4 ADD DUP3 SWAP1 MSTORE DUP3 DUP5 ADD DUP3 SWAP1 MSTORE PUSH1 0x60 SWAP1 SWAP3 ADD DUP2 SWAP1 MSTORE PUSH1 0x7 DUP1 SLOAD PUSH1 0x1 PUSH1 0x1 PUSH1 0x40 SHL SUB NOT AND SWAP1 SSTORE CALLER DUP2 MSTORE PUSH1 0x15 SWAP1 SWAP2 MSTORE DUP2 DUP2 KECCAK256 DUP1 SLOAD PUSH1 0xFF NOT SWAP1 DUP2 AND PUSH1 0x1 SWAP1 DUP2 OR SWAP1 SWAP3 SSTORE ADDRESS DUP4 MSTORE SWAP3 SWAP1 SWAP2 KECCAK256 DUP1 SLOAD SWAP1 SWAP3 AND OR SWAP1 SSTORE PUSH2 0x5B9 JUMP JUMPDEST CALLER SWAP1 JUMP JUMPDEST PUSH1 0x5 DUP1 SLOAD PUSH1 0x1 PUSH1 0x1 PUSH1 0xA0 SHL SUB DUP4 DUP2 AND PUSH1 0x1 PUSH1 0x1 PUSH1 0xA0 SHL SUB NOT DUP4 AND DUP2 OR SWAP1 SWAP4 SSTORE PUSH1 0x40 MLOAD SWAP2 AND SWAP2 SWAP1 DUP3 SWAP1 PUSH32 0x8BE0079C531659141344CD1FD0A4F28419497F9722A3DAAFE3B4186F6B6457E0 SWAP1 PUSH0 SWAP1 LOG3 POP POP JUMP JUMPDEST PUSH1 0x1 PUSH1 0x1 PUSH1 0xA0 SHL SUB DUP3 AND PUSH2 0x1FF JUMPI PUSH1 0x40 MLOAD PUSH3 0x461BCD PUSH1 0xE5 SHL DUP2 MSTORE PUSH1 0x20 PUSH1 0x4 DUP3 ADD MSTORE PUSH1 0x1F PUSH1 0x24 DUP3 ADD MSTORE PUSH32 0x45524332303A206D696E7420746F20746865207A65726F206164647265737300 PUSH1 0x44 DUP3 ADD MSTORE PUSH1 0x64 ADD PUSH1 0x40 MLOAD DUP1 SWAP2 SUB SWAP1 REVERT JUMPDEST DUP1 PUSH1 0x2 PUSH0 DUP3 DUP3 SLOAD PUSH2 0x210 SWAP2 SWAP1 PUSH2 0x567 JUMP JUMPDEST SWAP1 SWAP2 SSTORE POP POP PUSH1 0x1 PUSH1 0x1 PUSH1 0xA0 SHL SUB DUP3 AND PUSH0 DUP2 DUP2 MSTORE PUSH1 0x20 DUP2 DUP2 MSTORE PUSH1 0x40 DUP1 DUP4 KECCAK256 DUP1 SLOAD DUP7 ADD SWAP1 SSTORE MLOAD DUP5 DUP2 MSTORE PUSH32 0xDDF252AD1BE2C89B69C2B068FC378DAA952BA7F163C4A11628F55A4DF523B3EF SWAP2 ADD PUSH1 0x40 MLOAD DUP1 SWAP2 SUB SWAP1 LOG3 POP POP JUMP JUMPDEST PUSH1 0x13 PUSH0 SWAP1 SLOAD SWAP1 PUSH2 0x100 EXP SWAP1 DIV PUSH1 0x1 PUSH1 0x1 PUSH1 0xA0 SHL SUB AND PUSH1 0x1 PUSH1 0x1 PUSH1 0xA0 SHL SUB AND PUSH4 0xC45A0155 PUSH1 0x40 MLOAD DUP2 PUSH4 0xFFFFFFFF AND PUSH1 0xE0 SHL DUP2 MSTORE PUSH1 0x4 ADD PUSH1 0x20 PUSH1 0x40 MLOAD DUP1 DUP4 SUB DUP2 DUP7 GAS STATICCALL ISZERO DUP1 ISZERO PUSH2 0x2B6 JUMPI RETURNDATASIZE PUSH0 DUP1 RETURNDATACOPY RETURNDATASIZE PUSH0 REVERT JUMPDEST POP POP POP POP PUSH1 0x40 MLOAD RETURNDATASIZE PUSH1 0x1F NOT PUSH1 0x1F DUP3 ADD AND DUP3 ADD DUP1 PUSH1 0x40 MSTORE POP DUP2 ADD SWAP1 PUSH2 0x2DA SWAP2 SWAP1 PUSH2 0x58C JUMP JUMPDEST PUSH1 0x1 PUSH1 0x1 PUSH1 0xA0 SHL SUB AND PUSH4 0xC9C65396 ADDRESS PUSH1 0x13 PUSH0 SWAP1 SLOAD SWAP1 PUSH2 0x100 EXP SWAP1 DIV PUSH1 0x1 PUSH1 0x1 PUSH1 0xA0 SHL SUB AND PUSH1 0x1 PUSH1 0x1 PUSH1 0xA0 SHL SUB AND PUSH4 0xAD5C4648 PUSH1 0x40 MLOAD DUP2 PUSH4 0xFFFFFFFF AND PUSH1 0xE0 SHL DUP2 MSTORE PUSH1 0x4 ADD PUSH1 0x20 PUSH1 0x40 MLOAD DUP1 DUP4 SUB DUP2 DUP7 GAS STATICCALL ISZERO DUP1 ISZERO PUSH2 0x339 JUMPI RETURNDATASIZE PUSH0 DUP1 RETURNDATACOPY RETURNDATASIZE PUSH0 REVERT JUMPDEST POP POP POP POP PUSH1 0x40 MLOAD RETURNDATASIZE PUSH1 0x1F NOT PUSH1 0x1F DUP3 ADD AND DUP3 ADD DUP1 PUSH1 0x40 MSTORE POP DUP2 ADD SWAP1 PUSH2 0x35D SWAP2 SWAP1 PUSH2 0x58C JUMP JUMPDEST PUSH1 0x40 MLOAD PUSH1 0x1 PUSH1 0x1 PUSH1 0xE0 SHL SUB NOT PUSH1 0xE0 DUP6 SWAP1 SHL AND DUP2 MSTORE PUSH1 0x1 PUSH1 0x1 PUSH1 0xA0 SHL SUB SWAP3 DUP4 AND PUSH1 0x4 DUP3 ADD MSTORE SWAP2 AND PUSH1 0x24 DUP3 ADD MSTORE PUSH1 0x44 ADD PUSH1 0x20 PUSH1 0x40 MLOAD DUP1 DUP4 SUB DUP2 PUSH0 DUP8 GAS CALL ISZERO DUP1 ISZERO PUSH2 0x3A7 JUMPI RETURNDATASIZE PUSH0 DUP1 RETURNDATACOPY RETURNDATASIZE PUSH0 REVERT JUMPDEST POP POP POP POP PUSH1 0x40 MLOAD RETURNDATASIZE PUSH1 0x1F NOT PUSH1 0x1F DUP3 ADD AND DUP3 ADD DUP1 PUSH1 0x40 MSTORE POP DUP2 ADD SWAP1 PUSH2 0x3CB SWAP2 SWAP1 PUSH2 0x58C JUMP JUMPDEST PUSH1 0x14 DUP1 SLOAD PUSH1 0x1 PUSH1 0x1 PUSH1 0xA0 SHL SUB NOT AND PUSH1 0x1 PUSH1 0x1 PUSH1 0xA0 SHL SUB SWAP3 SWAP1 SWAP3 AND SWAP2 SWAP1 SWAP2 OR SWAP1 SSTORE JUMP JUMPDEST POP POP POP JUMP JUMPDEST PUSH0 DUP3 PUSH2 0x40C JUMPI PUSH4 0x4E487B71 PUSH1 0xE0 SHL PUSH0 MSTORE PUSH1 0x12 PUSH1 0x4 MSTORE PUSH1 0x24 PUSH0 REVERT JUMPDEST POP DIV SWAP1 JUMP JUMPDEST PUSH4 0x4E487B71 PUSH1 0xE0 SHL PUSH0 MSTORE PUSH1 0x41 PUSH1 0x4 MSTORE PUSH1 0x24 PUSH0 REVERT JUMPDEST PUSH1 0x1 DUP2 DUP2 SHR SWAP1 DUP3 AND DUP1 PUSH2 0x439 JUMPI PUSH1 0x7F DUP3 AND SWAP2 POP JUMPDEST PUSH1 0x20 DUP3 LT DUP2 SUB PUSH2 0x457 JUMPI PUSH4 0x4E487B71 PUSH1 0xE0 SHL PUSH0 MSTORE PUSH1 0x22 PUSH1 0x4 MSTORE PUSH1 0x24 PUSH0 REVERT JUMPDEST POP SWAP2 SWAP1 POP JUMP JUMPDEST PUSH1 0x1F DUP3 GT ISZERO PUSH2 0x3ED JUMPI DUP1 PUSH0 MSTORE PUSH1 0x20 PUSH0 KECCAK256 PUSH1 0x1F DUP5 ADD PUSH1 0x5 SHR DUP2 ADD PUSH1 0x20 DUP6 LT ISZERO PUSH2 0x482 JUMPI POP DUP1 JUMPDEST PUSH1 0x1F DUP5 ADD PUSH1 0x5 SHR DUP3 ADD SWAP2 POP JUMPDEST DUP2 DUP2 LT ISZERO PUSH2 0x4A1 JUMPI PUSH0 DUP2 SSTORE PUSH1 0x1 ADD PUSH2 0x48E JUMP JUMPDEST POP POP POP POP POP JUMP JUMPDEST DUP2 MLOAD PUSH1 0x1 PUSH1 0x1 PUSH1 0x40 SHL SUB DUP2 GT ISZERO PUSH2 0x4C1 JUMPI PUSH2 0x4C1 PUSH2 0x411 JUMP JUMPDEST PUSH2 0x4D5 DUP2 PUSH2 0x4CF DUP5 SLOAD PUSH2 0x425 JUMP JUMPDEST DUP5 PUSH2 0x45D JUMP JUMPDEST PUSH1 0x20 DUP1 PUSH1 0x1F DUP4 GT PUSH1 0x1 DUP2 EQ PUSH2 0x508 JUMPI PUSH0 DUP5 ISZERO PUSH2 0x4F1 JUMPI POP DUP6 DUP4 ADD MLOAD JUMPDEST PUSH0 NOT PUSH1 0x3 DUP7 SWAP1 SHL SHR NOT AND PUSH1 0x1 DUP6 SWAP1 SHL OR DUP6 SSTORE PUSH2 0x55F JUMP JUMPDEST PUSH0 DUP6 DUP2 MSTORE PUSH1 0x20 DUP2 KECCAK256 PUSH1 0x1F NOT DUP7 AND SWAP2 JUMPDEST DUP3 DUP2 LT ISZERO PUSH2 0x536 JUMPI DUP9 DUP7 ADD MLOAD DUP3 SSTORE SWAP5 DUP5 ADD SWAP5 PUSH1 0x1 SWAP1 SWAP2 ADD SWAP1 DUP5 ADD PUSH2 0x517 JUMP JUMPDEST POP DUP6 DUP3 LT ISZERO PUSH2 0x553 JUMPI DUP8 DUP6 ADD MLOAD PUSH0 NOT PUSH1 0x3 DUP9 SWAP1 SHL PUSH1 0xF8 AND SHR NOT AND DUP2 SSTORE JUMPDEST POP POP PUSH1 0x1 DUP5 PUSH1 0x1 SHL ADD DUP6 SSTORE JUMPDEST POP POP POP POP POP POP JUMP JUMPDEST DUP1 DUP3 ADD DUP1 DUP3 GT ISZERO PUSH2 0x586 JUMPI PUSH4 0x4E487B71 PUSH1 0xE0 SHL PUSH0 MSTORE PUSH1 0x11 PUSH1 0x4 MSTORE PUSH1 0x24 PUSH0 REVERT JUMPDEST SWAP3 SWAP2 POP POP JUMP JUMPDEST PUSH0 PUSH1 0x20 DUP3 DUP5 SUB SLT ISZERO PUSH2 0x59C JUMPI PUSH0 DUP1 REVERT JUMPDEST DUP2 MLOAD PUSH1 0x1 PUSH1 0x1 PUSH1 0xA0 SHL SUB DUP2 AND DUP2 EQ PUSH2 0x5B2 JUMPI PUSH0 DUP1 REVERT JUMPDEST SWAP4 SWAP3 POP POP POP JUMP JUMPDEST PUSH2 0x22E8 DUP1 PUSH2 0x5C6 PUSH0 CODECOPY PUSH0 RETURN INVALID PUSH1 0x80 PUSH1 0x40 MSTORE PUSH1 0x4 CALLDATASIZE LT PUSH2 0x1F4 JUMPI PUSH0 CALLDATALOAD PUSH1 0xE0 SHR DUP1 PUSH4 0x9491F94D GT PUSH2 0x108 JUMPI DUP1 PUSH4 0xAD5DFF73 GT PUSH2 0x9D JUMPI DUP1 PUSH4 0xD8D61C40 GT PUSH2 0x6D JUMPI DUP1 PUSH4 0xD8D61C40 EQ PUSH2 0x64E JUMPI DUP1 PUSH4 0xDD62ED3E EQ PUSH2 0x663 JUMPI DUP1 PUSH4 0xF2FDE38B EQ PUSH2 0x682 JUMPI DUP1 PUSH4 0xFE0BB982 EQ PUSH2 0x6A1 JUMPI DUP1 PUSH4 0xFE6B751E EQ PUSH2 0x6C0 JUMPI PUSH0 DUP1 REVERT JUMPDEST DUP1 PUSH4 0xAD5DFF73 EQ PUSH2 0x588 JUMPI DUP1 PUSH4 0xC0D78655 EQ PUSH2 0x5B6 JUMPI DUP1 PUSH4 0xC531B108 EQ PUSH2 0x5D5 JUMPI DUP1 PUSH4 0xC95457FF EQ PUSH2 0x5EA JUMPI PUSH0 DUP1 REVERT JUMPDEST DUP1 PUSH4 0x9FDE54F5 GT PUSH2 0xD8 JUMPI DUP1 PUSH4 0x9FDE54F5 EQ PUSH2 0x50C JUMPI DUP1 PUSH4 0xA457C2D7 EQ PUSH2 0x52B JUMPI DUP1 PUSH4 0xA8B08982 EQ PUSH2 0x54A JUMPI DUP1 PUSH4 0xA9059CBB EQ PUSH2 0x569 JUMPI PUSH0 DUP1 REVERT JUMPDEST DUP1 PUSH4 0x9491F94D EQ PUSH2 0x486 JUMPI DUP1 PUSH4 0x95D89B41 EQ PUSH2 0x49A JUMPI DUP1 PUSH4 0x960BFE04 EQ PUSH2 0x4AE JUMPI DUP1 PUSH4 0x9D82190F EQ PUSH2 0x4CD JUMPI PUSH0 DUP1 REVERT JUMPDEST DUP1 PUSH4 0x333F4B3D GT PUSH2 0x189 JUMPI DUP1 PUSH4 0x715018A6 GT PUSH2 0x159 JUMPI DUP1 PUSH4 0x715018A6 EQ PUSH2 0x3EB JUMPI DUP1 PUSH4 0x7773168F EQ PUSH2 0x3FF JUMPI DUP1 PUSH4 0x787A08A6 EQ PUSH2 0x413 JUMPI DUP1 PUSH4 0x8DA5CB5B EQ PUSH2 0x455 JUMPI DUP1 PUSH4 0x8F9A55C0 EQ PUSH2 0x472 JUMPI PUSH0 DUP1 REVERT JUMPDEST DUP1 PUSH4 0x333F4B3D EQ PUSH2 0x31D JUMPI DUP1 PUSH4 0x39509351 EQ PUSH2 0x383 JUMPI DUP1 PUSH4 0x599CA397 EQ PUSH2 0x3A2 JUMPI DUP1 PUSH4 0x70A08231 EQ PUSH2 0x3B7 JUMPI PUSH0 DUP1 REVERT JUMPDEST DUP1 PUSH4 0x18160DDD GT PUSH2 0x1C4 JUMPI DUP1 PUSH4 0x18160DDD EQ PUSH2 0x298 JUMPI DUP1 PUSH4 0x23B872DD EQ PUSH2 0x2AC JUMPI DUP1 PUSH4 0x313CE567 EQ PUSH2 0x2CB JUMPI DUP1 PUSH4 0x3268CC56 EQ PUSH2 0x2E6 JUMPI PUSH0 DUP1 REVERT JUMPDEST DUP1 PUSH4 0x445B667 EQ PUSH2 0x1FF JUMPI DUP1 PUSH4 0x6FDDE03 EQ PUSH2 0x227 JUMPI DUP1 PUSH4 0x95EA7B3 EQ PUSH2 0x248 JUMPI DUP1 PUSH4 0x1569D181 EQ PUSH2 0x277 JUMPI PUSH0 DUP1 REVERT JUMPDEST CALLDATASIZE PUSH2 0x1FB JUMPI STOP JUMPDEST PUSH0 DUP1 REVERT JUMPDEST CALLVALUE DUP1 ISZERO PUSH2 0x20A JUMPI PUSH0 DUP1 REVERT JUMPDEST POP PUSH2 0x214 PUSH1 0x9 SLOAD DUP2 JUMP JUMPDEST PUSH1 0x40 MLOAD SWAP1 DUP2 MSTORE PUSH1 0x20 ADD JUMPDEST PUSH1 0x40 MLOAD DUP1 SWAP2 SUB SWAP1 RETURN JUMPDEST CALLVALUE DUP1 ISZERO PUSH2 0x232 JUMPI PUSH0 DUP1 REVERT JUMPDEST POP PUSH2 0x23B PUSH2 0x6DF JUMP JUMPDEST PUSH1 0x40 MLOAD PUSH2 0x21E SWAP2 SWAP1 PUSH2 0x1D73 JUMP JUMPDEST CALLVALUE DUP1 ISZERO PUSH2 0x253 JUMPI PUSH0 DUP1 REVERT JUMPDEST POP PUSH2 0x267 PUSH2 0x262 CALLDATASIZE PUSH1 0x4 PUSH2 0x1DBC JUMP JUMPDEST PUSH2 0x76F JUMP JUMPDEST PUSH1 0x40 MLOAD SWAP1 ISZERO ISZERO DUP2 MSTORE PUSH1 0x20 ADD PUSH2 0x21E JUMP JUMPDEST CALLVALUE DUP1 ISZERO PUSH2 0x282 JUMPI PUSH0 DUP1 REVERT JUMPDEST POP PUSH2 0x296 PUSH2 0x291 CALLDATASIZE PUSH1 0x4 PUSH2 0x1DFC JUMP JUMPDEST PUSH2 0x788 JUMP JUMPDEST STOP JUMPDEST CALLVALUE DUP1 ISZERO PUSH2 0x2A3 JUMPI PUSH0 DUP1 REVERT JUMPDEST POP PUSH1 0x2 SLOAD PUSH2 0x214 JUMP JUMPDEST CALLVALUE DUP1 ISZERO PUSH2 0x2B7 JUMPI PUSH0 DUP1 REVERT JUMPDEST POP PUSH2 0x267 PUSH2 0x2C6 CALLDATASIZE PUSH1 0x4 PUSH2 0x1E4D JUMP JUMPDEST PUSH2 0x8B7 JUMP JUMPDEST CALLVALUE DUP1 ISZERO PUSH2 0x2D6 JUMPI PUSH0 DUP1 REVERT JUMPDEST POP PUSH1 0x40 MLOAD PUSH1 0x12 DUP2 MSTORE PUSH1 0x20 ADD PUSH2 0x21E JUMP JUMPDEST CALLVALUE DUP1 ISZERO PUSH2 0x2F1 JUMPI PUSH0 DUP1 REVERT JUMPDEST POP PUSH1 0x13 SLOAD PUSH2 0x305 SWAP1 PUSH1 0x1 PUSH1 0x1 PUSH1 0xA0 SHL SUB AND DUP2 JUMP JUMPDEST PUSH1 0x40 MLOAD PUSH1 0x1 PUSH1 0x1 PUSH1 0xA0 SHL SUB SWAP1 SWAP2 AND DUP2 MSTORE PUSH1 0x20 ADD PUSH2 0x21E JUMP JUMPDEST CALLVALUE DUP1 ISZERO PUSH2 0x328 JUMPI PUSH0 DUP1 REVERT JUMPDEST POP PUSH1 0x7 SLOAD PUSH2 0x355 SWAP1 PUSH2 0xFFFF DUP1 DUP3 AND SWAP2 PUSH3 0x10000 DUP2 DIV DUP3 AND SWAP2 PUSH1 0x1 PUSH1 0x20 SHL DUP3 DIV DUP2 AND SWAP2 PUSH1 0x1 PUSH1 0x30 SHL SWAP1 DIV AND DUP5 JUMP JUMPDEST PUSH1 0x40 DUP1 MLOAD PUSH2 0xFFFF SWAP6 DUP7 AND DUP2 MSTORE SWAP4 DUP6 AND PUSH1 0x20 DUP6 ADD MSTORE SWAP2 DUP5 AND SWAP2 DUP4 ADD SWAP2 SWAP1 SWAP2 MSTORE SWAP1 SWAP2 AND PUSH1 0x60 DUP3 ADD MSTORE PUSH1 0x80 ADD PUSH2 0x21E JUMP JUMPDEST CALLVALUE DUP1 ISZERO PUSH2 0x38E JUMPI PUSH0 DUP1 REVERT JUMPDEST POP PUSH2 0x267 PUSH2 0x39D CALLDATASIZE PUSH1 0x4 PUSH2 0x1DBC JUMP JUMPDEST PUSH2 0x8DC JUMP JUMPDEST CALLVALUE DUP1 ISZERO PUSH2 0x3AD JUMPI PUSH0 DUP1 REVERT JUMPDEST POP PUSH2 0x214 PUSH1 0x6 SLOAD DUP2 JUMP JUMPDEST CALLVALUE DUP1 ISZERO PUSH2 0x3C2 JUMPI PUSH0 DUP1 REVERT JUMPDEST POP PUSH2 0x214 PUSH2 0x3D1 CALLDATASIZE PUSH1 0x4 PUSH2 0x1E8B JUMP JUMPDEST PUSH1 0x1 PUSH1 0x1 PUSH1 0xA0 SHL SUB AND PUSH0 SWAP1 DUP2 MSTORE PUSH1 0x20 DUP2 SWAP1 MSTORE PUSH1 0x40 SWAP1 KECCAK256 SLOAD SWAP1 JUMP JUMPDEST CALLVALUE DUP1 ISZERO PUSH2 0x3F6 JUMPI PUSH0 DUP1 REVERT JUMPDEST POP PUSH2 0x296 PUSH2 0x8FD JUMP JUMPDEST CALLVALUE DUP1 ISZERO PUSH2 0x40A JUMPI PUSH0 DUP1 REVERT JUMPDEST POP PUSH2 0x214 PUSH2 0x910 JUMP JUMPDEST CALLVALUE DUP1 ISZERO PUSH2 0x41E JUMPI PUSH0 DUP1 REVERT JUMPDEST POP PUSH1 0xD SLOAD PUSH2 0x439 SWAP1 PUSH1 0xFF DUP2 AND SWAP1 PUSH2 0x100 SWAP1 DIV PUSH4 0xFFFFFFFF AND DUP3 JUMP JUMPDEST PUSH1 0x40 DUP1 MLOAD SWAP3 ISZERO ISZERO DUP4 MSTORE PUSH4 0xFFFFFFFF SWAP1 SWAP2 AND PUSH1 0x20 DUP4 ADD MSTORE ADD PUSH2 0x21E JUMP JUMPDEST CALLVALUE DUP1 ISZERO PUSH2 0x460 JUMPI PUSH0 DUP1 REVERT JUMPDEST POP PUSH1 0x5 SLOAD PUSH1 0x1 PUSH1 0x1 PUSH1 0xA0 SHL SUB AND PUSH2 0x305 JUMP JUMPDEST CALLVALUE DUP1 ISZERO PUSH2 0x47D JUMPI PUSH0 DUP1 REVERT JUMPDEST POP PUSH2 0x214 PUSH2 0x98F JUMP JUMPDEST CALLVALUE DUP1 ISZERO PUSH2 0x491 JUMPI PUSH0 DUP1 REVERT JUMPDEST POP PUSH2 0x214 PUSH2 0x9BC JUMP JUMPDEST CALLVALUE DUP1 ISZERO PUSH2 0x4A5 JUMPI PUSH0 DUP1 REVERT JUMPDEST POP PUSH2 0x23B PUSH2 0xB16 JUMP JUMPDEST CALLVALUE DUP1 ISZERO PUSH2 0x4B9 JUMPI PUSH0 DUP1 REVERT JUMPDEST POP PUSH2 0x296 PUSH2 0x4C8 CALLDATASIZE PUSH1 0x4 PUSH2 0x1EA6 JUMP JUMPDEST PUSH2 0xB25 JUMP JUMPDEST CALLVALUE DUP1 ISZERO PUSH2 0x4D8 JUMPI PUSH0 DUP1 REVERT JUMPDEST POP PUSH2 0x4EC PUSH2 0x4E7 CALLDATASIZE PUSH1 0x4 PUSH2 0x1E8B JUMP JUMPDEST PUSH2 0xB32 JUMP JUMPDEST PUSH1 0x40 DUP1 MLOAD SWAP5 DUP6 MSTORE PUSH1 0x20 DUP6 ADD SWAP4 SWAP1 SWAP4 MSTORE SWAP2 DUP4 ADD MSTORE PUSH1 0x60 DUP3 ADD MSTORE PUSH1 0x80 ADD PUSH2 0x21E JUMP JUMPDEST CALLVALUE DUP1 ISZERO PUSH2 0x517 JUMPI PUSH0 DUP1 REVERT JUMPDEST POP PUSH2 0x296 PUSH2 0x526 CALLDATASIZE PUSH1 0x4 PUSH2 0x1ECC JUMP JUMPDEST PUSH2 0xBDE JUMP JUMPDEST CALLVALUE DUP1 ISZERO PUSH2 0x536 JUMPI PUSH0 DUP1 REVERT JUMPDEST POP PUSH2 0x267 PUSH2 0x545 CALLDATASIZE PUSH1 0x4 PUSH2 0x1DBC JUMP JUMPDEST PUSH2 0xC10 JUMP JUMPDEST CALLVALUE DUP1 ISZERO PUSH2 0x555 JUMPI PUSH0 DUP1 REVERT JUMPDEST POP PUSH1 0x14 SLOAD PUSH2 0x305 SWAP1 PUSH1 0x1 PUSH1 0x1 PUSH1 0xA0 SHL SUB AND DUP2 JUMP JUMPDEST CALLVALUE DUP1 ISZERO PUSH2 0x574 JUMPI PUSH0 DUP1 REVERT JUMPDEST POP PUSH2 0x267 PUSH2 0x583 CALLDATASIZE PUSH1 0x4 PUSH2 0x1DBC JUMP JUMPDEST PUSH2 0xC95 JUMP JUMPDEST CALLVALUE DUP1 ISZERO PUSH2 0x593 JUMPI PUSH0 DUP1 REVERT JUMPDEST POP PUSH2 0x267 PUSH2 0x5A2 CALLDATASIZE PUSH1 0x4 PUSH2 0x1E8B JUMP JUMPDEST PUSH1 0x15 PUSH1 0x20 MSTORE PUSH0 SWAP1 DUP2 MSTORE PUSH1 0x40 SWAP1 KECCAK256 SLOAD PUSH1 0xFF AND DUP2 JUMP JUMPDEST CALLVALUE DUP1 ISZERO PUSH2 0x5C1 JUMPI PUSH0 DUP1 REVERT JUMPDEST POP PUSH2 0x296 PUSH2 0x5D0 CALLDATASIZE PUSH1 0x4 PUSH2 0x1E8B JUMP JUMPDEST PUSH2 0xCA2 JUMP JUMPDEST CALLVALUE DUP1 ISZERO PUSH2 0x5E0 JUMPI PUSH0 DUP1 REVERT JUMPDEST POP PUSH2 0x214 PUSH1 0xB SLOAD DUP2 JUMP JUMPDEST CALLVALUE DUP1 ISZERO PUSH2 0x5F5 JUMPI PUSH0 DUP1 REVERT JUMPDEST POP PUSH1 0xF SLOAD PUSH1 0x10 SLOAD PUSH1 0x11 SLOAD PUSH1 0x12 SLOAD PUSH2 0x61F SWAP4 PUSH1 0xFF DUP1 DUP3 AND SWAP5 PUSH2 0x100 SWAP1 SWAP3 DIV PUSH2 0xFFFF AND SWAP4 SWAP2 SWAP3 SWAP2 AND SWAP1 DUP6 JUMP JUMPDEST PUSH1 0x40 DUP1 MLOAD SWAP6 ISZERO ISZERO DUP7 MSTORE PUSH2 0xFFFF SWAP1 SWAP5 AND PUSH1 0x20 DUP7 ADD MSTORE SWAP3 DUP5 ADD SWAP2 SWAP1 SWAP2 MSTORE ISZERO ISZERO PUSH1 0x60 DUP4 ADD MSTORE PUSH1 0x80 DUP3 ADD MSTORE PUSH1 0xA0 ADD PUSH2 0x21E JUMP JUMPDEST CALLVALUE DUP1 ISZERO PUSH2 0x659 JUMPI PUSH0 DUP1 REVERT JUMPDEST POP PUSH2 0x214 PUSH1 0xA SLOAD DUP2 JUMP JUMPDEST CALLVALUE DUP1 ISZERO PUSH2 0x66E JUMPI PUSH0 DUP1 REVERT JUMPDEST POP PUSH2 0x214 PUSH2 0x67D CALLDATASIZE PUSH1 0x4 PUSH2 0x1EFF JUMP JUMPDEST PUSH2 0xD0C JUMP JUMPDEST CALLVALUE DUP1 ISZERO PUSH2 0x68D JUMPI PUSH0 DUP1 REVERT JUMPDEST POP PUSH2 0x296 PUSH2 0x69C CALLDATASIZE PUSH1 0x4 PUSH2 0x1E8B JUMP JUMPDEST PUSH2 0xD36 JUMP JUMPDEST CALLVALUE DUP1 ISZERO PUSH2 0x6AC JUMPI PUSH0 DUP1 REVERT JUMPDEST POP PUSH2 0x296 PUSH2 0x6BB CALLDATASIZE PUSH1 0x4 PUSH2 0x1F36 JUMP JUMPDEST PUSH2 0xDAF JUMP JUMPDEST CALLVALUE DUP1 ISZERO PUSH2 0x6CB JUMPI PUSH0 DUP1 REVERT JUMPDEST POP PUSH2 0x296 PUSH2 0x6DA CALLDATASIZE PUSH1 0x4 PUSH2 0x1F6F JUMP JUMPDEST PUSH2 0xDE1 JUMP JUMPDEST PUSH1 0x60 PUSH1 0x3 DUP1 SLOAD PUSH2 0x6EE SWAP1 PUSH2 0x1F99 JUMP JUMPDEST DUP1 PUSH1 0x1F ADD PUSH1 0x20 DUP1 SWAP2 DIV MUL PUSH1 0x20 ADD PUSH1 0x40 MLOAD SWAP1 DUP2 ADD PUSH1 0x40 MSTORE DUP1 SWAP3 SWAP2 SWAP1 DUP2 DUP2 MSTORE PUSH1 0x20 ADD DUP3 DUP1 SLOAD PUSH2 0x71A SWAP1 PUSH2 0x1F99 JUMP JUMPDEST DUP1 ISZERO PUSH2 0x765 JUMPI DUP1 PUSH1 0x1F LT PUSH2 0x73C JUMPI PUSH2 0x100 DUP1 DUP4 SLOAD DIV MUL DUP4 MSTORE SWAP2 PUSH1 0x20 ADD SWAP2 PUSH2 0x765 JUMP JUMPDEST DUP3 ADD SWAP2 SWAP1 PUSH0 MSTORE PUSH1 0x20 PUSH0 KECCAK256 SWAP1 JUMPDEST DUP2 SLOAD DUP2 MSTORE SWAP1 PUSH1 0x1 ADD SWAP1 PUSH1 0x20 ADD DUP1 DUP4 GT PUSH2 0x748 JUMPI DUP3 SWAP1 SUB PUSH1 0x1F AND DUP3 ADD SWAP2 JUMPDEST POP POP POP POP POP SWAP1 POP SWAP1 JUMP JUMPDEST PUSH0 CALLER PUSH2 0x77C DUP2 DUP6 DUP6 PUSH2 0xE27 JUMP JUMPDEST PUSH1 0x1 SWAP2 POP POP JUMPDEST SWAP3 SWAP2 POP POP JUMP JUMPDEST PUSH2 0x790 PUSH2 0xF4A JUMP JUMPDEST PUSH2 0x9C4 PUSH2 0x79D DUP5 DUP7 PUSH2 0x1FE5 JUMP JUMPDEST PUSH2 0xFFFF AND GT ISZERO PUSH2 0x7E7 JUMPI PUSH1 0x40 MLOAD PUSH3 0x461BCD PUSH1 0xE5 SHL DUP2 MSTORE PUSH1 0x20 PUSH1 0x4 DUP3 ADD MSTORE PUSH1 0x10 PUSH1 0x24 DUP3 ADD MSTORE PUSH16 0x84EAF240E8C2F040E8DEDE40D0D2CED PUSH1 0x83 SHL PUSH1 0x44 DUP3 ADD MSTORE PUSH1 0x64 ADD JUMPDEST PUSH1 0x40 MLOAD DUP1 SWAP2 SUB SWAP1 REVERT JUMPDEST PUSH2 0x9C4 PUSH2 0x7F4 DUP3 DUP5 PUSH2 0x1FE5 JUMP JUMPDEST PUSH2 0xFFFF AND GT ISZERO PUSH2 0x83A JUMPI PUSH1 0x40 MLOAD PUSH3 0x461BCD PUSH1 0xE5 SHL DUP2 MSTORE PUSH1 0x20 PUSH1 0x4 DUP3 ADD MSTORE PUSH1 0x11 PUSH1 0x24 DUP3 ADD MSTORE PUSH17 0xA6CAD8D840E8C2F040E8DEDE40D0D2CED PUSH1 0x7B SHL PUSH1 0x44 DUP3 ADD MSTORE PUSH1 0x64 ADD PUSH2 0x7DE JUMP JUMPDEST PUSH1 0x40 DUP1 MLOAD PUSH1 0x80 DUP2 ADD DUP3 MSTORE PUSH2 0xFFFF SWAP6 DUP7 AND DUP1 DUP3 MSTORE SWAP5 DUP7 AND PUSH1 0x20 DUP3 ADD DUP2 SWAP1 MSTORE SWAP4 DUP7 AND SWAP2 DUP2 ADD DUP3 SWAP1 MSTORE SWAP2 SWAP1 SWAP5 AND PUSH1 0x60 SWAP1 SWAP2 ADD DUP2 SWAP1 MSTORE PUSH1 0x7 DUP1 SLOAD PUSH4 0xFFFFFFFF NOT AND SWAP1 SWAP4 OR PUSH3 0x10000 SWAP1 SWAP3 MUL SWAP2 SWAP1 SWAP2 OR PUSH8 0xFFFFFFFF00000000 NOT AND PUSH1 0x1 PUSH1 0x20 SHL SWAP1 SWAP4 MUL PUSH8 0xFFFF000000000000 NOT AND SWAP3 SWAP1 SWAP3 OR PUSH1 0x1 PUSH1 0x30 SHL SWAP1 SWAP3 MUL SWAP2 SWAP1 SWAP2 OR SWAP1 SSTORE JUMP JUMPDEST PUSH0 CALLER PUSH2 0x8C4 DUP6 DUP3 DUP6 PUSH2 0xFA4 JUMP JUMPDEST PUSH2 0x8CF DUP6 DUP6 DUP6 PUSH2 0x101C JUMP JUMPDEST PUSH1 0x1 SWAP2 POP POP JUMPDEST SWAP4 SWAP3 POP POP POP JUMP JUMPDEST PUSH0 CALLER PUSH2 0x77C DUP2 DUP6 DUP6 PUSH2 0x8EE DUP4 DUP4 PUSH2 0xD0C JUMP JUMPDEST PUSH2 0x8F8 SWAP2 SWAP1 PUSH2 0x2007 JUMP JUMPDEST PUSH2 0xE27 JUMP JUMPDEST PUSH2 0x905 PUSH2 0xF4A JUMP JUMPDEST PUSH2 0x90E PUSH0 PUSH2 0x12EC JUMP JUMPDEST JUMP JUMPDEST PUSH1 0x10 SLOAD PUSH0 SWAP1 DUP2 SUB PUSH2 0x920 JUMPI POP PUSH0 SWAP1 JUMP JUMPDEST PUSH0 PUSH2 0x929 PUSH2 0x9BC JUMP JUMPDEST PUSH1 0x10 SLOAD SWAP1 SWAP2 POP DUP2 GT PUSH2 0x96C JUMPI PUSH1 0x10 SLOAD PUSH2 0x95E SWAP1 PUSH2 0x958 PUSH8 0xDE0B6B3A7640000 PUSH2 0x952 DUP4 DUP7 PUSH2 0x133D JUMP JUMPDEST SWAP1 PUSH2 0x1348 JUMP JUMPDEST SWAP1 PUSH2 0x1353 JUMP JUMPDEST PUSH2 0x967 SWAP1 PUSH2 0x201A JUMP JUMPDEST PUSH2 0x989 JUMP JUMPDEST PUSH1 0x10 SLOAD PUSH2 0x989 SWAP1 PUSH2 0x958 PUSH8 0xDE0B6B3A7640000 PUSH2 0x952 DUP6 DUP5 PUSH2 0x133D JUMP JUMPDEST SWAP2 POP POP SWAP1 JUMP JUMPDEST PUSH0 PUSH2 0x9B7 PUSH2 0x2710 PUSH2 0x958 PUSH1 0x6 SLOAD PUSH12 0x33B2E3C9FD0803CE8000000 PUSH2 0x1348 SWAP1 SWAP2 SWAP1 PUSH4 0xFFFFFFFF AND JUMP JUMPDEST SWAP1 POP SWAP1 JUMP JUMPDEST PUSH0 DUP1 PUSH0 PUSH1 0x14 PUSH0 SWAP1 SLOAD SWAP1 PUSH2 0x100 EXP SWAP1 DIV PUSH1 0x1 PUSH1 0x1 PUSH1 0xA0 SHL SUB AND PUSH1 0x1 PUSH1 0x1 PUSH1 0xA0 SHL SUB AND PUSH4 0x902F1AC PUSH1 0x40 MLOAD DUP2 PUSH4 0xFFFFFFFF AND PUSH1 0xE0 SHL DUP2 MSTORE PUSH1 0x4 ADD PUSH1 0x60 PUSH1 0x40 MLOAD DUP1 DUP4 SUB DUP2 DUP7 GAS STATICCALL ISZERO DUP1 ISZERO PUSH2 0xA0F JUMPI RETURNDATASIZE PUSH0 DUP1 RETURNDATACOPY RETURNDATASIZE PUSH0 REVERT JUMPDEST POP POP POP POP PUSH1 0x40 MLOAD RETURNDATASIZE PUSH1 0x1F NOT PUSH1 0x1F DUP3 ADD AND DUP3 ADD DUP1 PUSH1 0x40 MSTORE POP DUP2 ADD SWAP1 PUSH2 0xA33 SWAP2 SWAP1 PUSH2 0x204A JUMP JUMPDEST POP SWAP2 POP SWAP2 POP ADDRESS PUSH1 0x1 PUSH1 0x1 PUSH1 0xA0 SHL SUB AND PUSH1 0x14 PUSH0 SWAP1 SLOAD SWAP1 PUSH2 0x100 EXP SWAP1 DIV PUSH1 0x1 PUSH1 0x1 PUSH1 0xA0 SHL SUB AND PUSH1 0x1 PUSH1 0x1 PUSH1 0xA0 SHL SUB AND PUSH4 0xDFE1681 PUSH1 0x40 MLOAD DUP2 PUSH4 0xFFFFFFFF AND PUSH1 0xE0 SHL DUP2 MSTORE PUSH1 0x4 ADD PUSH1 0x20 PUSH1 0x40 MLOAD DUP1 DUP4 SUB DUP2 DUP7 GAS STATICCALL ISZERO DUP1 ISZERO PUSH2 0xA92 JUMPI RETURNDATASIZE PUSH0 DUP1 RETURNDATACOPY RETURNDATASIZE PUSH0 REVERT JUMPDEST POP POP POP POP PUSH1 0x40 MLOAD RETURNDATASIZE PUSH1 0x1F NOT PUSH1 0x1F DUP3 ADD AND DUP3 ADD DUP1 PUSH1 0x40 MSTORE POP DUP2 ADD SWAP1 PUSH2 0xAB6 SWAP2 SWAP1 PUSH2 0x208E JUMP JUMPDEST PUSH1 0x1 PUSH1 0x1 PUSH1 0xA0 SHL SUB AND EQ PUSH2 0xAEC JUMPI PUSH2 0xAE7 PUSH1 0x1 PUSH1 0x1 PUSH1 0x70 SHL SUB DUP1 DUP4 AND SWAP1 PUSH2 0x958 SWAP1 DUP6 AND PUSH8 0xDE0B6B3A7640000 PUSH2 0x1348 JUMP JUMPDEST PUSH2 0xB0F JUMP JUMPDEST PUSH2 0xB0F PUSH1 0x1 PUSH1 0x1 PUSH1 0x70 SHL SUB DUP1 DUP5 AND SWAP1 PUSH2 0x958 SWAP1 DUP5 AND PUSH8 0xDE0B6B3A7640000 PUSH2 0x1348 JUMP JUMPDEST SWAP3 POP POP POP SWAP1 JUMP JUMPDEST PUSH1 0x60 PUSH1 0x4 DUP1 SLOAD PUSH2 0x6EE SWAP1 PUSH2 0x1F99 JUMP JUMPDEST PUSH2 0xB2D PUSH2 0xF4A JUMP JUMPDEST PUSH1 0x9 SSTORE JUMP JUMPDEST PUSH1 0x1 PUSH1 0x1 PUSH1 0xA0 SHL SUB DUP2 AND PUSH0 SWAP1 DUP2 MSTORE PUSH1 0xE PUSH1 0x20 MSTORE PUSH1 0x40 DUP2 KECCAK256 SLOAD DUP2 SWAP1 DUP2 SWAP1 DUP2 SWAP1 DUP2 SWAP1 TIMESTAMP LT PUSH2 0xB5E JUMPI PUSH0 PUSH2 0xB80 JUMP JUMPDEST PUSH1 0x1 PUSH1 0x1 PUSH1 0xA0 SHL SUB DUP7 AND PUSH0 SWAP1 DUP2 MSTORE PUSH1 0xE PUSH1 0x20 MSTORE PUSH1 0x40 SWAP1 KECCAK256 SLOAD PUSH2 0xB80 SWAP1 TIMESTAMP PUSH2 0x133D JUMP JUMPDEST SWAP1 POP PUSH2 0xB8F DUP2 PUSH3 0x15180 PUSH2 0x1353 JUMP JUMPDEST SWAP5 POP PUSH2 0xB9E PUSH3 0x15180 DUP3 PUSH2 0x20BD JUMP JUMPDEST SWAP1 POP PUSH2 0xBAC DUP2 PUSH2 0xE10 PUSH2 0x1353 JUMP JUMPDEST SWAP4 POP PUSH2 0xBBA PUSH2 0xE10 DUP3 PUSH2 0x20BD JUMP JUMPDEST SWAP1 POP PUSH2 0xBC7 DUP2 PUSH1 0x3C PUSH2 0x1353 JUMP JUMPDEST SWAP3 POP PUSH2 0xBD4 PUSH1 0x3C DUP3 PUSH2 0x20BD JUMP JUMPDEST SWAP2 POP POP SWAP2 SWAP4 POP SWAP2 SWAP4 JUMP JUMPDEST PUSH2 0xBE6 PUSH2 0xF4A JUMP JUMPDEST PUSH1 0x1 PUSH1 0x1 PUSH1 0xA0 SHL SUB SWAP2 SWAP1 SWAP2 AND PUSH0 SWAP1 DUP2 MSTORE PUSH1 0x15 PUSH1 0x20 MSTORE PUSH1 0x40 SWAP1 KECCAK256 DUP1 SLOAD PUSH1 0xFF NOT AND SWAP2 ISZERO ISZERO SWAP2 SWAP1 SWAP2 OR SWAP1 SSTORE JUMP JUMPDEST PUSH0 CALLER DUP2 PUSH2 0xC1D DUP3 DUP7 PUSH2 0xD0C JUMP JUMPDEST SWAP1 POP DUP4 DUP2 LT ISZERO PUSH2 0xC7D JUMPI PUSH1 0x40 MLOAD PUSH3 0x461BCD PUSH1 0xE5 SHL DUP2 MSTORE PUSH1 0x20 PUSH1 0x4 DUP3 ADD MSTORE PUSH1 0x25 PUSH1 0x24 DUP3 ADD MSTORE PUSH32 0x45524332303A2064656372656173656420616C6C6F77616E63652062656C6F77 PUSH1 0x44 DUP3 ADD MSTORE PUSH5 0x207A65726F PUSH1 0xD8 SHL PUSH1 0x64 DUP3 ADD MSTORE PUSH1 0x84 ADD PUSH2 0x7DE JUMP JUMPDEST PUSH2 0xC8A DUP3 DUP7 DUP7 DUP5 SUB PUSH2 0xE27 JUMP JUMPDEST POP PUSH1 0x1 SWAP5 SWAP4 POP POP POP POP JUMP JUMPDEST PUSH0 CALLER PUSH2 0x77C DUP2 DUP6 DUP6 PUSH2 0x101C JUMP JUMPDEST PUSH2 0xCAA PUSH2 0xF4A JUMP JUMPDEST PUSH1 0x13 DUP1 SLOAD PUSH1 0x1 PUSH1 0x1 PUSH1 0xA0 SHL SUB NOT AND PUSH1 0x1 PUSH1 0x1 PUSH1 0xA0 SHL SUB DUP4 AND OR SWAP1 SSTORE PUSH2 0xCCD PUSH2 0x135E JUMP JUMPDEST PUSH1 0x40 MLOAD PUSH1 0x1 PUSH1 0x1 PUSH1 0xA0 SHL SUB DUP3 AND DUP2 MSTORE PUSH32 0x7AED1D3E8155A07CCF395E44EA3109A0E2D6C9B29BBBE9F142D9790596F4DC80 SWAP1 PUSH1 0x20 ADD PUSH1 0x40 MLOAD DUP1 SWAP2 SUB SWAP1 LOG1 POP JUMP JUMPDEST PUSH1 0x1 PUSH1 0x1 PUSH1 0xA0 SHL SUB SWAP2 DUP3 AND PUSH0 SWAP1 DUP2 MSTORE PUSH1 0x1 PUSH1 0x20 SWAP1 DUP2 MSTORE PUSH1 0x40 DUP1 DUP4 KECCAK256 SWAP4 SWAP1 SWAP5 AND DUP3 MSTORE SWAP2 SWAP1 SWAP2 MSTORE KECCAK256 SLOAD SWAP1 JUMP JUMPDEST PUSH2 0xD3E PUSH2 0xF4A JUMP JUMPDEST PUSH1 0x1 PUSH1 0x1 PUSH1 0xA0 SHL SUB DUP2 AND PUSH2 0xDA3 JUMPI PUSH1 0x40 MLOAD PUSH3 0x461BCD PUSH1 0xE5 SHL DUP2 MSTORE PUSH1 0x20 PUSH1 0x4 DUP3 ADD MSTORE PUSH1 0x26 PUSH1 0x24 DUP3 ADD MSTORE PUSH32 0x4F776E61626C653A206E6577206F776E657220697320746865207A65726F2061 PUSH1 0x44 DUP3 ADD MSTORE PUSH6 0x646472657373 PUSH1 0xD0 SHL PUSH1 0x64 DUP3 ADD MSTORE PUSH1 0x84 ADD PUSH2 0x7DE JUMP JUMPDEST PUSH2 0xDAC DUP2 PUSH2 0x12EC JUMP JUMPDEST POP JUMP JUMPDEST PUSH2 0xDB7 PUSH2 0xF4A JUMP JUMPDEST PUSH1 0xF DUP1 SLOAD PUSH3 0xFFFFFF NOT AND SWAP3 ISZERO ISZERO PUSH3 0xFFFF00 NOT AND SWAP3 SWAP1 SWAP3 OR PUSH2 0x100 PUSH2 0xFFFF SWAP3 SWAP1 SWAP3 AND SWAP2 SWAP1 SWAP2 MUL OR SWAP1 SSTORE JUMP JUMPDEST PUSH2 0xDE9 PUSH2 0xF4A JUMP JUMPDEST PUSH1 0xD DUP1 SLOAD PUSH1 0xFF NOT AND DUP4 ISZERO ISZERO OR SWAP1 SSTORE PUSH2 0xE02 DUP2 PUSH1 0x3C PUSH2 0x20D0 JUMP JUMPDEST PUSH1 0xD DUP1 SLOAD PUSH4 0xFFFFFFFF SWAP3 SWAP1 SWAP3 AND PUSH2 0x100 MUL PUSH5 0xFFFFFFFF00 NOT SWAP1 SWAP3 AND SWAP2 SWAP1 SWAP2 OR SWAP1 SSTORE POP POP JUMP JUMPDEST PUSH1 0x1 PUSH1 0x1 PUSH1 0xA0 SHL SUB DUP4 AND PUSH2 0xE89 JUMPI PUSH1 0x40 MLOAD PUSH3 0x461BCD PUSH1 0xE5 SHL DUP2 MSTORE PUSH1 0x20 PUSH1 0x4 DUP3 ADD MSTORE PUSH1 0x24 DUP1 DUP3 ADD MSTORE PUSH32 0x45524332303A20617070726F76652066726F6D20746865207A65726F20616464 PUSH1 0x44 DUP3 ADD MSTORE PUSH4 0x72657373 PUSH1 0xE0 SHL PUSH1 0x64 DUP3 ADD MSTORE PUSH1 0x84 ADD PUSH2 0x7DE JUMP JUMPDEST PUSH1 0x1 PUSH1 0x1 PUSH1 0xA0 SHL SUB DUP3 AND PUSH2 0xEEA JUMPI PUSH1 0x40 MLOAD PUSH3 0x461BCD PUSH1 0xE5 SHL DUP2 MSTORE PUSH1 0x20 PUSH1 0x4 DUP3 ADD MSTORE PUSH1 0x22 PUSH1 0x24 DUP3 ADD MSTORE PUSH32 0x45524332303A20617070726F766520746F20746865207A65726F206164647265 PUSH1 0x44 DUP3 ADD MSTORE PUSH2 0x7373 PUSH1 0xF0 SHL PUSH1 0x64 DUP3 ADD MSTORE PUSH1 0x84 ADD PUSH2 0x7DE JUMP JUMPDEST PUSH1 0x1 PUSH1 0x1 PUSH1 0xA0 SHL SUB DUP4 DUP2 AND PUSH0 DUP2 DUP2 MSTORE PUSH1 0x1 PUSH1 0x20 SWAP1 DUP2 MSTORE PUSH1 0x40 DUP1 DUP4 KECCAK256 SWAP5 DUP8 AND DUP1 DUP5 MSTORE SWAP5 DUP3 MSTORE SWAP2 DUP3 SWAP1 KECCAK256 DUP6 SWAP1 SSTORE SWAP1 MLOAD DUP5 DUP2 MSTORE PUSH32 0x8C5BE1E5EBEC7D5BD14F71427D1E84F3DD0314C0F7B2291E5B200AC8C7C3B925 SWAP2 ADD PUSH1 0x40 MLOAD DUP1 SWAP2 SUB SWAP1 LOG3 POP POP POP JUMP JUMPDEST PUSH1 0x5 SLOAD PUSH1 0x1 PUSH1 0x1 PUSH1 0xA0 SHL SUB AND CALLER EQ PUSH2 0x90E JUMPI PUSH1 0x40 MLOAD PUSH3 0x461BCD PUSH1 0xE5 SHL DUP2 MSTORE PUSH1 0x20 PUSH1 0x4 DUP3 ADD DUP2 SWAP1 MSTORE PUSH1 0x24 DUP3 ADD MSTORE PUSH32 0x4F776E61626C653A2063616C6C6572206973206E6F7420746865206F776E6572 PUSH1 0x44 DUP3 ADD MSTORE PUSH1 0x64 ADD PUSH2 0x7DE JUMP JUMPDEST PUSH0 PUSH2 0xFAF DUP5 DUP5 PUSH2 0xD0C JUMP JUMPDEST SWAP1 POP PUSH0 NOT DUP2 EQ PUSH2 0x1016 JUMPI DUP2 DUP2 LT ISZERO PUSH2 0x1009 JUMPI PUSH1 0x40 MLOAD PUSH3 0x461BCD PUSH1 0xE5 SHL DUP2 MSTORE PUSH1 0x20 PUSH1 0x4 DUP3 ADD MSTORE PUSH1 0x1D PUSH1 0x24 DUP3 ADD MSTORE PUSH32 0x45524332303A20696E73756666696369656E7420616C6C6F77616E6365000000 PUSH1 0x44 DUP3 ADD MSTORE PUSH1 0x64 ADD PUSH2 0x7DE JUMP JUMPDEST PUSH2 0x1016 DUP5 DUP5 DUP5 DUP5 SUB PUSH2 0xE27 JUMP JUMPDEST POP POP POP POP JUMP JUMPDEST PUSH0 DUP2 GT PUSH2 0x106B JUMPI PUSH1 0x40 MLOAD PUSH3 0x461BCD PUSH1 0xE5 SHL DUP2 MSTORE PUSH1 0x20 PUSH1 0x4 DUP3 ADD MSTORE PUSH1 0x1A PUSH1 0x24 DUP3 ADD MSTORE PUSH32 0x5472616E7366657220616D6F756E74206D757374206265203E30000000000000 PUSH1 0x44 DUP3 ADD MSTORE PUSH1 0x64 ADD PUSH2 0x7DE JUMP JUMPDEST PUSH1 0x14 SLOAD PUSH0 SWAP1 PUSH1 0x1 PUSH1 0x1 PUSH1 0xA0 SHL SUB DUP6 DUP2 AND SWAP2 AND EQ DUP1 ISZERO PUSH2 0x10A2 JUMPI POP PUSH1 0x1 PUSH1 0x1 PUSH1 0xA0 SHL SUB DUP4 AND PUSH0 SWAP1 DUP2 MSTORE PUSH1 0x15 PUSH1 0x20 MSTORE PUSH1 0x40 SWAP1 KECCAK256 SLOAD PUSH1 0xFF AND ISZERO JUMPDEST PUSH1 0x14 SLOAD SWAP1 SWAP2 POP PUSH0 SWAP1 PUSH1 0x1 PUSH1 0x1 PUSH1 0xA0 SHL SUB DUP6 DUP2 AND SWAP2 AND EQ DUP1 ISZERO PUSH2 0x10DC JUMPI POP PUSH1 0x1 PUSH1 0x1 PUSH1 0xA0 SHL SUB DUP6 AND PUSH0 SWAP1 DUP2 MSTORE PUSH1 0x15 PUSH1 0x20 MSTORE PUSH1 0x40 SWAP1 KECCAK256 SLOAD PUSH1 0xFF AND ISZERO JUMPDEST PUSH1 0xF SLOAD SWAP1 SWAP2 POP PUSH1 0xFF AND DUP1 ISZERO PUSH2 0x10EE JUMPI POP DUP1 JUMPDEST ISZERO PUSH2 0x114E JUMPI PUSH1 0x11 SLOAD PUSH1 0xFF AND ISZERO PUSH2 0x1146 JUMPI PUSH1 0x40 MLOAD PUSH3 0x461BCD PUSH1 0xE5 SHL DUP2 MSTORE PUSH1 0x20 PUSH1 0x4 DUP3 ADD MSTORE PUSH1 0x1E PUSH1 0x24 DUP3 ADD MSTORE PUSH32 0x53656C6C732073746F70706564206279204469616D6F6E6420466C6F6F720000 PUSH1 0x44 DUP3 ADD MSTORE PUSH1 0x64 ADD PUSH2 0x7DE JUMP JUMPDEST PUSH2 0x114E PUSH2 0x14E5 JUMP JUMPDEST PUSH1 0xD SLOAD PUSH1 0xFF AND DUP1 ISZERO PUSH2 0x115D JUMPI POP DUP1 JUMPDEST ISZERO PUSH2 0x11EC JUMPI PUSH1 0x1 PUSH1 0x1 PUSH1 0xA0 SHL SUB DUP6 AND PUSH0 SWAP1 DUP2 MSTORE PUSH1 0xE PUSH1 0x20 MSTORE PUSH1 0x40 SWAP1 KECCAK256 SLOAD TIMESTAMP LT ISZERO PUSH2 0x11BB JUMPI PUSH1 0x40 MLOAD PUSH3 0x461BCD PUSH1 0xE5 SHL DUP2 MSTORE PUSH1 0x20 PUSH1 0x4 DUP3 ADD MSTORE PUSH1 0xF PUSH1 0x24 DUP3 ADD MSTORE PUSH15 0x436F6F6C646F776E20616374697665 PUSH1 0x88 SHL PUSH1 0x44 DUP3 ADD MSTORE PUSH1 0x64 ADD PUSH2 0x7DE JUMP JUMPDEST PUSH1 0xD SLOAD PUSH2 0x11D3 SWAP1 PUSH2 0x100 SWAP1 DIV PUSH4 0xFFFFFFFF AND TIMESTAMP PUSH2 0x2007 JUMP JUMPDEST PUSH1 0x1 PUSH1 0x1 PUSH1 0xA0 SHL SUB DUP7 AND PUSH0 SWAP1 DUP2 MSTORE PUSH1 0xE PUSH1 0x20 MSTORE PUSH1 0x40 SWAP1 KECCAK256 SSTORE JUMPDEST PUSH0 PUSH2 0x11F8 DUP7 DUP7 DUP7 PUSH2 0x159B JUMP JUMPDEST SWAP1 POP PUSH0 PUSH2 0x1205 DUP6 DUP4 PUSH2 0x133D JUMP JUMPDEST PUSH1 0x1 PUSH1 0x1 PUSH1 0xA0 SHL SUB DUP8 AND PUSH0 SWAP1 DUP2 MSTORE PUSH1 0x15 PUSH1 0x20 MSTORE PUSH1 0x40 SWAP1 KECCAK256 SLOAD SWAP1 SWAP2 POP PUSH1 0xFF AND ISZERO DUP1 ISZERO PUSH2 0x122E JUMPI POP DUP3 ISZERO JUMPDEST ISZERO PUSH2 0x12A7 JUMPI PUSH2 0x123B PUSH2 0x98F JUMP JUMPDEST PUSH2 0x1263 DUP3 PUSH2 0x125D DUP10 PUSH1 0x1 PUSH1 0x1 PUSH1 0xA0 SHL SUB AND PUSH0 SWAP1 DUP2 MSTORE PUSH1 0x20 DUP2 SWAP1 MSTORE PUSH1 0x40 SWAP1 KECCAK256 SLOAD SWAP1 JUMP JUMPDEST SWAP1 PUSH2 0x16C7 JUMP JUMPDEST GT ISZERO PUSH2 0x12A7 JUMPI PUSH1 0x40 MLOAD PUSH3 0x461BCD PUSH1 0xE5 SHL DUP2 MSTORE PUSH1 0x20 PUSH1 0x4 DUP3 ADD MSTORE PUSH1 0x13 PUSH1 0x24 DUP3 ADD MSTORE PUSH19 0x13585E081DD85B1B195D08195E18D959591959 PUSH1 0x6A SHL PUSH1 0x44 DUP3 ADD MSTORE PUSH1 0x64 ADD PUSH2 0x7DE JUMP JUMPDEST DUP2 ISZERO PUSH2 0x12C3 JUMPI PUSH2 0x12B8 DUP8 ADDRESS DUP5 PUSH2 0x16D2 JUMP JUMPDEST PUSH2 0x12C3 DUP3 DUP6 DUP6 PUSH2 0x1874 JUMP JUMPDEST PUSH2 0x12CE DUP8 DUP8 DUP4 PUSH2 0x16D2 JUMP JUMPDEST PUSH2 0x12D6 PUSH2 0x19DE JUMP JUMPDEST ISZERO PUSH2 0x12E3 JUMPI PUSH2 0x12E3 PUSH2 0x1A1D JUMP JUMPDEST POP POP POP POP POP POP POP JUMP JUMPDEST PUSH1 0x5 DUP1 SLOAD PUSH1 0x1 PUSH1 0x1 PUSH1 0xA0 SHL SUB DUP4 DUP2 AND PUSH1 0x1 PUSH1 0x1 PUSH1 0xA0 SHL SUB NOT DUP4 AND DUP2 OR SWAP1 SWAP4 SSTORE PUSH1 0x40 MLOAD SWAP2 AND SWAP2 SWAP1 DUP3 SWAP1 PUSH32 0x8BE0079C531659141344CD1FD0A4F28419497F9722A3DAAFE3B4186F6B6457E0 SWAP1 PUSH0 SWAP1 LOG3 POP POP JUMP JUMPDEST PUSH0 PUSH2 0x8D5 DUP3 DUP5 PUSH2 0x20F8 JUMP JUMPDEST PUSH0 PUSH2 0x8D5 DUP3 DUP5 PUSH2 0x210B JUMP JUMPDEST PUSH0 PUSH2 0x8D5 DUP3 DUP5 PUSH2 0x2122 JUMP JUMPDEST PUSH1 0x13 PUSH0 SWAP1 SLOAD SWAP1 PUSH2 0x100 EXP SWAP1 DIV PUSH1 0x1 PUSH1 0x1 PUSH1 0xA0 SHL SUB AND PUSH1 0x1 PUSH1 0x1 PUSH1 0xA0 SHL SUB AND PUSH4 0xC45A0155 PUSH1 0x40 MLOAD DUP2 PUSH4 0xFFFFFFFF AND PUSH1 0xE0 SHL DUP2 MSTORE PUSH1 0x4 ADD PUSH1 0x20 PUSH1 0x40 MLOAD DUP1 DUP4 SUB DUP2 DUP7 GAS STATICCALL ISZERO DUP1 ISZERO PUSH2 0x13AE JUMPI RETURNDATASIZE PUSH0 DUP1 RETURNDATACOPY RETURNDATASIZE PUSH0 REVERT JUMPDEST POP POP POP POP PUSH1 0x40 MLOAD RETURNDATASIZE PUSH1 0x1F NOT PUSH1 0x1F DUP3 ADD AND DUP3 ADD DUP1 PUSH1 0x40 MSTORE POP DUP2 ADD SWAP1 PUSH2 0x13D2 SWAP2 SWAP1 PUSH2 0x208E JUMP JUMPDEST PUSH1 0x1 PUSH1 0x1 PUSH1 0xA0 SHL SUB AND PUSH4 0xC9C65396 ADDRESS PUSH1 0x13 PUSH0 SWAP1 SLOAD SWAP1 PUSH2 0x100 EXP SWAP1 DIV PUSH1 0x1 PUSH1 0x1 PUSH1 0xA0 SHL SUB AND PUSH1 0x1 PUSH1 0x1 PUSH1 0xA0 SHL SUB AND PUSH4 0xAD5C4648 PUSH1 0x40 MLOAD DUP2 PUSH4 0xFFFFFFFF AND PUSH1 0xE0 SHL DUP2 MSTORE PUSH1 0x4 ADD PUSH1 0x20 PUSH1 0x40 MLOAD DUP1 DUP4 SUB DUP2 DUP7 GAS STATICCALL ISZERO DUP1 ISZERO PUSH2 0x1431 JUMPI RETURNDATASIZE PUSH0 DUP1 RETURNDATACOPY RETURNDATASIZE PUSH0 REVERT JUMPDEST POP POP POP POP PUSH1 0x40 MLOAD RETURNDATASIZE PUSH1 0x1F NOT PUSH1 0x1F DUP3 ADD AND DUP3 ADD DUP1 PUSH1 0x40 MSTORE POP DUP2 ADD SWAP1 PUSH2 0x1455 SWAP2 SWAP1 PUSH2 0x208E JUMP JUMPDEST PUSH1 0x40 MLOAD PUSH1 0x1 PUSH1 0x1 PUSH1 0xE0 SHL SUB NOT PUSH1 0xE0 DUP6 SWAP1 SHL AND DUP2 MSTORE PUSH1 0x1 PUSH1 0x1 PUSH1 0xA0 SHL SUB SWAP3 DUP4 AND PUSH1 0x4 DUP3 ADD MSTORE SWAP2 AND PUSH1 0x24 DUP3 ADD MSTORE PUSH1 0x44 ADD PUSH1 0x20 PUSH1 0x40 MLOAD DUP1 DUP4 SUB DUP2 PUSH0 DUP8 GAS CALL ISZERO DUP1 ISZERO PUSH2 0x149F JUMPI RETURNDATASIZE PUSH0 DUP1 RETURNDATACOPY RETURNDATASIZE PUSH0 REVERT JUMPDEST POP POP POP POP PUSH1 0x40 MLOAD RETURNDATASIZE PUSH1 0x1F NOT PUSH1 0x1F DUP3 ADD AND DUP3 ADD DUP1 PUSH1 0x40 MSTORE POP DUP2 ADD SWAP1 PUSH2 0x14C3 SWAP2 SWAP1 PUSH2 0x208E JUMP JUMPDEST PUSH1 0x14 DUP1 SLOAD PUSH1 0x1 PUSH1 0x1 PUSH1 0xA0 SHL SUB NOT AND PUSH1 0x1 PUSH1 0x1 PUSH1 0xA0 SHL SUB SWAP3 SWAP1 SWAP3 AND SWAP2 SWAP1 SWAP2 OR SWAP1 SSTORE JUMP JUMPDEST PUSH0 PUSH2 0x14EE PUSH2 0x9BC JUMP JUMPDEST PUSH1 0x10 SLOAD SWAP1 SWAP2 POP DUP2 GT ISZERO PUSH2 0x1518 JUMPI PUSH1 0x10 DUP2 SWAP1 SSTORE PUSH1 0x11 SLOAD PUSH1 0xFF AND ISZERO PUSH2 0xDAC JUMPI PUSH1 0x11 DUP1 SLOAD PUSH1 0xFF NOT AND SWAP1 SSTORE POP JUMP JUMPDEST PUSH1 0xF SLOAD PUSH0 SWAP1 PUSH2 0x1545 SWAP1 PUSH2 0x2710 SWAP1 PUSH2 0x958 SWAP1 PUSH2 0x153C SWAP1 PUSH2 0x100 SWAP1 DIV PUSH2 0xFFFF AND DUP4 PUSH2 0x20F8 JUMP JUMPDEST PUSH1 0x10 SLOAD SWAP1 PUSH2 0x1348 JUMP JUMPDEST SWAP1 POP DUP1 DUP3 LT ISZERO PUSH2 0x1563 JUMPI PUSH1 0x11 DUP1 SLOAD PUSH1 0xFF NOT AND PUSH1 0x1 OR SWAP1 SSTORE PUSH1 0x10 SLOAD PUSH1 0x12 SSTORE JUMPDEST PUSH1 0x11 SLOAD PUSH1 0xFF AND DUP1 ISZERO PUSH2 0x1582 JUMPI POP PUSH1 0x12 SLOAD PUSH2 0x157E SWAP1 PUSH1 0x2 PUSH2 0x1348 JUMP JUMPDEST DUP3 LT ISZERO JUMPDEST ISZERO PUSH2 0x1597 JUMPI PUSH1 0x11 DUP1 SLOAD PUSH1 0xFF NOT AND SWAP1 SSTORE PUSH1 0x10 DUP3 SWAP1 SSTORE JUMPDEST POP POP JUMP JUMPDEST PUSH1 0x1 PUSH1 0x1 PUSH1 0xA0 SHL SUB DUP4 AND PUSH0 SWAP1 DUP2 MSTORE PUSH1 0x15 PUSH1 0x20 MSTORE PUSH1 0x40 DUP2 KECCAK256 SLOAD PUSH1 0xFF AND DUP1 PUSH2 0x15D8 JUMPI POP PUSH1 0x1 PUSH1 0x1 PUSH1 0xA0 SHL SUB DUP4 AND PUSH0 SWAP1 DUP2 MSTORE PUSH1 0x15 PUSH1 0x20 MSTORE PUSH1 0x40 SWAP1 KECCAK256 SLOAD PUSH1 0xFF AND JUMPDEST ISZERO PUSH2 0x15E4 JUMPI POP PUSH0 PUSH2 0x8D5 JUMP JUMPDEST PUSH1 0x14 SLOAD PUSH1 0x1 PUSH1 0x1 PUSH1 0xA0 SHL SUB SWAP1 DUP2 AND DUP6 DUP3 AND DUP2 EQ SWAP2 DUP6 AND EQ DUP2 ISZERO PUSH2 0x1637 JUMPI PUSH1 0x7 SLOAD PUSH2 0x162E SWAP1 PUSH2 0x2710 SWAP1 PUSH2 0x958 SWAP1 PUSH2 0x1627 SWAP1 PUSH2 0xFFFF DUP1 DUP3 AND SWAP2 PUSH3 0x10000 SWAP1 DIV AND PUSH2 0x16C7 JUMP JUMPDEST DUP8 SWAP1 PUSH2 0x1348 JUMP JUMPDEST SWAP3 POP POP POP PUSH2 0x8D5 JUMP JUMPDEST DUP1 ISZERO PUSH2 0x166A JUMPI PUSH1 0x7 SLOAD PUSH2 0x162E SWAP1 PUSH2 0x2710 SWAP1 PUSH2 0x958 SWAP1 PUSH2 0x1627 SWAP1 PUSH2 0xFFFF PUSH1 0x1 PUSH1 0x20 SHL DUP3 DIV DUP2 AND SWAP2 PUSH1 0x1 PUSH1 0x30 SHL SWAP1 DIV AND PUSH2 0x16C7 JUMP JUMPDEST PUSH1 0x7 SLOAD PUSH0 SWAP1 PUSH2 0x168D SWAP1 PUSH2 0xFFFF PUSH1 0x1 PUSH1 0x20 SHL DUP3 DIV DUP2 AND SWAP2 PUSH1 0x1 PUSH1 0x30 SHL SWAP1 DIV AND PUSH2 0x16C7 JUMP JUMPDEST SWAP1 POP PUSH0 PUSH2 0x16AA PUSH1 0xA PUSH2 0x958 PUSH1 0x8 SLOAD DUP6 PUSH2 0x1348 SWAP1 SWAP2 SWAP1 PUSH4 0xFFFFFFFF AND JUMP JUMPDEST SWAP1 POP PUSH2 0x16BC PUSH2 0x2710 PUSH2 0x958 DUP9 DUP5 PUSH2 0x1348 JUMP JUMPDEST SWAP5 POP POP POP POP POP PUSH2 0x8D5 JUMP JUMPDEST PUSH0 PUSH2 0x8D5 DUP3 DUP5 PUSH2 0x2007 JUMP JUMPDEST PUSH1 0x1 PUSH1 0x1 PUSH1 0xA0 SHL SUB DUP4 AND PUSH2 0x1736 JUMPI PUSH1 0x40 MLOAD PUSH3 0x461BCD PUSH1 0xE5 SHL DUP2 MSTORE PUSH1 0x20 PUSH1 0x4 DUP3 ADD MSTORE PUSH1 0x25 PUSH1 0x24 DUP3 ADD MSTORE PUSH32 0x45524332303A207472616E736665722066726F6D20746865207A65726F206164 PUSH1 0x44 DUP3 ADD MSTORE PUSH5 0x6472657373 PUSH1 0xD8 SHL PUSH1 0x64 DUP3 ADD MSTORE PUSH1 0x84 ADD PUSH2 0x7DE JUMP JUMPDEST PUSH1 0x1 PUSH1 0x1 PUSH1 0xA0 SHL SUB DUP3 AND PUSH2 0x1798 JUMPI PUSH1 0x40 MLOAD PUSH3 0x461BCD PUSH1 0xE5 SHL DUP2 MSTORE PUSH1 0x20 PUSH1 0x4 DUP3 ADD MSTORE PUSH1 0x23 PUSH1 0x24 DUP3 ADD MSTORE PUSH32 0x45524332303A207472616E7366657220746F20746865207A65726F2061646472 PUSH1 0x44 DUP3 ADD MSTORE PUSH3 0x657373 PUSH1 0xE8 SHL PUSH1 0x64 DUP3 ADD MSTORE PUSH1 0x84 ADD PUSH2 0x7DE JUMP JUMPDEST PUSH1 0x1 PUSH1 0x1 PUSH1 0xA0 SHL SUB DUP4 AND PUSH0 SWAP1 DUP2 MSTORE PUSH1 0x20 DUP2 SWAP1 MSTORE PUSH1 0x40 SWAP1 KECCAK256 SLOAD DUP2 DUP2 LT ISZERO PUSH2 0x180F JUMPI PUSH1 0x40 MLOAD PUSH3 0x461BCD PUSH1 0xE5 SHL DUP2 MSTORE PUSH1 0x20 PUSH1 0x4 DUP3 ADD MSTORE PUSH1 0x26 PUSH1 0x24 DUP3 ADD MSTORE PUSH32 0x45524332303A207472616E7366657220616D6F756E7420657863656564732062 PUSH1 0x44 DUP3 ADD MSTORE PUSH6 0x616C616E6365 PUSH1 0xD0 SHL PUSH1 0x64 DUP3 ADD MSTORE PUSH1 0x84 ADD PUSH2 0x7DE JUMP JUMPDEST PUSH1 0x1 PUSH1 0x1 PUSH1 0xA0 SHL SUB DUP5 DUP2 AND PUSH0 DUP2 DUP2 MSTORE PUSH1 0x20 DUP2 DUP2 MSTORE PUSH1 0x40 DUP1 DUP4 KECCAK256 DUP8 DUP8 SUB SWAP1 SSTORE SWAP4 DUP8 AND DUP1 DUP4 MSTORE SWAP2 DUP5 SWAP1 KECCAK256 DUP1 SLOAD DUP8 ADD SWAP1 SSTORE SWAP3 MLOAD DUP6 DUP2 MSTORE SWAP1 SWAP3 PUSH32 0xDDF252AD1BE2C89B69C2B068FC378DAA952BA7F163C4A11628F55A4DF523B3EF SWAP2 ADD PUSH1 0x40 MLOAD DUP1 SWAP2 SUB SWAP1 LOG3 PUSH2 0x1016 JUMP JUMPDEST PUSH0 DUP1 DUP4 ISZERO PUSH2 0x18B6 JUMPI PUSH1 0x7 SLOAD PUSH2 0x18AF SWAP1 PUSH2 0x1899 SWAP1 PUSH2 0xFFFF PUSH3 0x10000 DUP3 DIV DUP2 AND SWAP2 AND PUSH2 0x1FE5 JUMP JUMPDEST PUSH1 0x7 SLOAD PUSH2 0xFFFF SWAP2 DUP3 AND SWAP2 PUSH2 0x958 SWAP2 DUP10 SWAP2 AND PUSH2 0x1348 JUMP JUMPDEST SWAP2 POP PUSH2 0x1964 JUMP JUMPDEST DUP3 ISZERO PUSH2 0x18FF JUMPI PUSH1 0x7 SLOAD PUSH2 0x18AF SWAP1 PUSH2 0x18E1 SWAP1 PUSH2 0xFFFF PUSH1 0x1 PUSH1 0x30 SHL DUP3 DIV DUP2 AND SWAP2 PUSH1 0x1 PUSH1 0x20 SHL SWAP1 DIV AND PUSH2 0x1FE5 JUMP JUMPDEST PUSH1 0x7 SLOAD PUSH2 0xFFFF SWAP2 DUP3 AND SWAP2 PUSH2 0x958 SWAP2 DUP10 SWAP2 PUSH1 0x1 PUSH1 0x20 SHL SWAP1 SWAP2 DIV AND PUSH2 0x1348 JUMP JUMPDEST PUSH1 0x7 SLOAD PUSH0 SWAP1 PUSH2 0x1922 SWAP1 PUSH2 0xFFFF PUSH1 0x1 PUSH1 0x30 SHL DUP3 DIV DUP2 AND SWAP2 PUSH1 0x1 PUSH1 0x20 SHL SWAP1 DIV AND PUSH2 0x1FE5 JUMP JUMPDEST PUSH2 0xFFFF AND SWAP1 POP PUSH2 0x1960 PUSH1 0xA PUSH2 0x958 PUSH1 0x8 SLOAD PUSH2 0x952 DUP6 PUSH2 0x958 PUSH1 0x7 PUSH0 ADD PUSH1 0x4 SWAP1 SLOAD SWAP1 PUSH2 0x100 EXP SWAP1 DIV PUSH2 0xFFFF AND PUSH2 0xFFFF AND DUP14 PUSH2 0x1348 SWAP1 SWAP2 SWAP1 PUSH4 0xFFFFFFFF AND JUMP JUMPDEST SWAP3 POP POP JUMPDEST PUSH2 0x196E DUP3 DUP7 PUSH2 0x20F8 JUMP JUMPDEST SWAP1 POP DUP2 PUSH1 0xA PUSH0 DUP3 DUP3 SLOAD PUSH2 0x1981 SWAP2 SWAP1 PUSH2 0x2007 JUMP JUMPDEST SWAP3 POP POP DUP2 SWAP1 SSTORE POP DUP1 PUSH1 0xB PUSH0 DUP3 DUP3 SLOAD PUSH2 0x1999 SWAP2 SWAP1 PUSH2 0x2007 JUMP JUMPDEST SWAP1 SWAP2 SSTORE POP POP PUSH1 0x40 DUP1 MLOAD DUP4 DUP2 MSTORE PUSH1 0x20 DUP2 ADD DUP4 SWAP1 MSTORE PUSH32 0xF2D9F3F00FC700757EB74F9AA3DBA0E2EB1280E0C6E0CF65962CC055528D7A90 SWAP2 ADD PUSH1 0x40 MLOAD DUP1 SWAP2 SUB SWAP1 LOG1 POP POP POP POP POP JUMP JUMPDEST PUSH1 0xC SLOAD PUSH0 SWAP1 PUSH1 0xFF AND ISZERO DUP1 ISZERO PUSH2 0x1A03 JUMPI POP PUSH1 0x9 SLOAD PUSH1 0xB SLOAD PUSH1 0xA SLOAD PUSH2 0x1A00 SWAP2 PUSH2 0x16C7 JUMP JUMPDEST LT ISZERO JUMPDEST DUP1 ISZERO PUSH2 0x9B7 JUMPI POP POP PUSH1 0x14 SLOAD PUSH1 0x1 PUSH1 0x1 PUSH1 0xA0 SHL SUB AND CALLER EQ ISZERO SWAP1 JUMP JUMPDEST PUSH0 PUSH1 0xB SLOAD PUSH1 0xA SLOAD PUSH2 0x1A2E SWAP2 SWAP1 PUSH2 0x2007 JUMP JUMPDEST SWAP1 POP PUSH1 0x9 SLOAD DUP2 LT ISZERO PUSH2 0x1A3D JUMPI POP JUMP JUMPDEST PUSH1 0xC DUP1 SLOAD PUSH1 0xFF NOT AND PUSH1 0x1 OR SWAP1 SSTORE PUSH1 0xB SLOAD SELFBALANCE SWAP1 PUSH2 0x1A58 SWAP1 PUSH2 0x1B07 JUMP JUMPDEST PUSH0 PUSH2 0x1A63 SELFBALANCE DUP4 PUSH2 0x133D JUMP JUMPDEST SWAP1 POP PUSH2 0x1A77 PUSH1 0x5 SLOAD PUSH1 0x1 PUSH1 0x1 PUSH1 0xA0 SHL SUB AND SWAP1 JUMP JUMPDEST PUSH1 0x1 PUSH1 0x1 PUSH1 0xA0 SHL SUB AND PUSH2 0x8FC DUP3 SWAP1 DUP2 ISZERO MUL SWAP1 PUSH1 0x40 MLOAD PUSH0 PUSH1 0x40 MLOAD DUP1 DUP4 SUB DUP2 DUP6 DUP9 DUP9 CALL SWAP4 POP POP POP POP ISZERO DUP1 ISZERO PUSH2 0x1AAC JUMPI RETURNDATASIZE PUSH0 DUP1 RETURNDATACOPY RETURNDATASIZE PUSH0 REVERT JUMPDEST POP PUSH1 0xA SLOAD PUSH0 PUSH2 0x1ABC DUP3 PUSH1 0x2 PUSH2 0x1353 JUMP JUMPDEST SWAP1 POP PUSH2 0x1AC7 DUP2 PUSH2 0x1B07 JUMP JUMPDEST PUSH0 PUSH2 0x1AD2 SELFBALANCE DUP6 PUSH2 0x133D JUMP JUMPDEST SWAP1 POP PUSH2 0x1AE7 PUSH2 0x1AE1 DUP5 DUP5 PUSH2 0x133D JUMP JUMPDEST DUP3 PUSH2 0x1C68 JUMP JUMPDEST POP POP PUSH0 PUSH1 0xA DUP2 SWAP1 SSTORE PUSH1 0xB SSTORE POP POP PUSH1 0xC DUP1 SLOAD PUSH1 0xFF NOT AND SWAP1 SSTORE POP POP JUMP JUMPDEST POP POP POP JUMP JUMPDEST PUSH1 0x40 DUP1 MLOAD PUSH1 0x2 DUP1 DUP3 MSTORE PUSH1 0x60 DUP3 ADD DUP4 MSTORE PUSH0 SWAP3 PUSH1 0x20 DUP4 ADD SWAP1 DUP1 CALLDATASIZE DUP4 CALLDATACOPY ADD SWAP1 POP POP SWAP1 POP ADDRESS DUP2 PUSH0 DUP2 MLOAD DUP2 LT PUSH2 0x1B3A JUMPI PUSH2 0x1B3A PUSH2 0x2149 JUMP JUMPDEST PUSH1 0x1 PUSH1 0x1 PUSH1 0xA0 SHL SUB SWAP3 DUP4 AND PUSH1 0x20 SWAP2 DUP3 MUL SWAP3 SWAP1 SWAP3 ADD DUP2 ADD SWAP2 SWAP1 SWAP2 MSTORE PUSH1 0x13 SLOAD PUSH1 0x40 DUP1 MLOAD PUSH4 0x15AB88C9 PUSH1 0xE3 SHL DUP2 MSTORE SWAP1 MLOAD SWAP2 SWAP1 SWAP4 AND SWAP3 PUSH4 0xAD5C4648 SWAP3 PUSH1 0x4 DUP1 DUP4 ADD SWAP4 SWAP2 SWAP3 DUP3 SWAP1 SUB ADD DUP2 DUP7 GAS STATICCALL ISZERO DUP1 ISZERO PUSH2 0x1B91 JUMPI RETURNDATASIZE PUSH0 DUP1 RETURNDATACOPY RETURNDATASIZE PUSH0 REVERT JUMPDEST POP POP POP POP PUSH1 0x40 MLOAD RETURNDATASIZE PUSH1 0x1F NOT PUSH1 0x1F DUP3 ADD AND DUP3 ADD DUP1 PUSH1 0x40 MSTORE POP DUP2 ADD SWAP1 PUSH2 0x1BB5 SWAP2 SWAP1 PUSH2 0x208E JUMP JUMPDEST DUP2 PUSH1 0x1 DUP2 MLOAD DUP2 LT PUSH2 0x1BC8 JUMPI PUSH2 0x1BC8 PUSH2 0x2149 JUMP JUMPDEST PUSH1 0x1 PUSH1 0x1 PUSH1 0xA0 SHL SUB SWAP3 DUP4 AND PUSH1 0x20 SWAP2 DUP3 MUL SWAP3 SWAP1 SWAP3 ADD ADD MSTORE PUSH1 0x13 SLOAD PUSH2 0x1BEE SWAP2 ADDRESS SWAP2 AND DUP5 PUSH2 0xE27 JUMP JUMPDEST PUSH1 0x13 SLOAD PUSH1 0x40 MLOAD PUSH4 0x18CBAFE5 PUSH1 0xE0 SHL DUP2 MSTORE PUSH1 0x1 PUSH1 0x1 PUSH1 0xA0 SHL SUB SWAP1 SWAP2 AND SWAP1 PUSH4 0x18CBAFE5 SWAP1 PUSH2 0x1C26 SWAP1 DUP6 SWAP1 PUSH0 SWAP1 DUP7 SWAP1 ADDRESS SWAP1 TIMESTAMP SWAP1 PUSH1 0x4 ADD PUSH2 0x215D JUMP JUMPDEST PUSH0 PUSH1 0x40 MLOAD DUP1 DUP4 SUB DUP2 PUSH0 DUP8 GAS CALL ISZERO DUP1 ISZERO PUSH2 0x1C41 JUMPI RETURNDATASIZE PUSH0 DUP1 RETURNDATACOPY RETURNDATASIZE PUSH0 REVERT JUMPDEST POP POP POP POP PUSH1 0x40 MLOAD RETURNDATASIZE PUSH0 DUP3 RETURNDATACOPY PUSH1 0x1F RETURNDATASIZE SWAP1 DUP2 ADD PUSH1 0x1F NOT AND DUP3 ADD PUSH1 0x40 MSTORE PUSH2 0x1B02 SWAP2 SWAP1 DUP2 ADD SWAP1 PUSH2 0x21CE JUMP JUMPDEST PUSH1 0x13 SLOAD PUSH2 0x1C80 SWAP1 ADDRESS SWAP1 PUSH1 0x1 PUSH1 0x1 PUSH1 0xA0 SHL SUB AND DUP5 PUSH2 0xE27 JUMP JUMPDEST PUSH1 0x13 SLOAD PUSH1 0x1 PUSH1 0x1 PUSH1 0xA0 SHL SUB AND PUSH4 0xF305D719 DUP3 ADDRESS DUP6 PUSH0 DUP1 PUSH2 0x1CA8 PUSH1 0x5 SLOAD PUSH1 0x1 PUSH1 0x1 PUSH1 0xA0 SHL SUB AND SWAP1 JUMP JUMPDEST PUSH1 0x40 MLOAD PUSH1 0xE0 DUP9 SWAP1 SHL PUSH1 0x1 PUSH1 0x1 PUSH1 0xE0 SHL SUB NOT AND DUP2 MSTORE PUSH1 0x1 PUSH1 0x1 PUSH1 0xA0 SHL SUB SWAP6 DUP7 AND PUSH1 0x4 DUP3 ADD MSTORE PUSH1 0x24 DUP2 ADD SWAP5 SWAP1 SWAP5 MSTORE PUSH1 0x44 DUP5 ADD SWAP3 SWAP1 SWAP3 MSTORE PUSH1 0x64 DUP4 ADD MSTORE SWAP1 SWAP2 AND PUSH1 0x84 DUP3 ADD MSTORE TIMESTAMP PUSH1 0xA4 DUP3 ADD MSTORE PUSH1 0xC4 ADD PUSH1 0x60 PUSH1 0x40 MLOAD DUP1 DUP4 SUB DUP2 DUP6 DUP9 GAS CALL ISZERO DUP1 ISZERO PUSH2 0x1D0E JUMPI RETURNDATASIZE PUSH0 DUP1 RETURNDATACOPY RETURNDATASIZE PUSH0 REVERT JUMPDEST POP POP POP POP POP PUSH1 0x40 MLOAD RETURNDATASIZE PUSH1 0x1F NOT PUSH1 0x1F DUP3 ADD AND DUP3 ADD DUP1 PUSH1 0x40 MSTORE POP DUP2 ADD SWAP1 PUSH2 0x1D33 SWAP2 SWAP1 PUSH2 0x2287 JUMP JUMPDEST POP POP PUSH1 0x40 DUP1 MLOAD DUP5 DUP2 MSTORE PUSH1 0x20 DUP2 ADD DUP5 SWAP1 MSTORE PUSH32 0x38F8A0C92F4C5B0B6877F878CB4C0C8D348A47B76D716C8E78F425043DF9515B SWAP3 POP ADD PUSH1 0x40 MLOAD DUP1 SWAP2 SUB SWAP1 LOG1 POP POP JUMP JUMPDEST PUSH1 0x20 DUP2 MSTORE PUSH0 DUP3 MLOAD DUP1 PUSH1 0x20 DUP5 ADD MSTORE DUP1 PUSH1 0x20 DUP6 ADD PUSH1 0x40 DUP6 ADD MCOPY PUSH0 PUSH1 0x40 DUP3 DUP6 ADD ADD MSTORE PUSH1 0x40 PUSH1 0x1F NOT PUSH1 0x1F DUP4 ADD AND DUP5 ADD ADD SWAP2 POP POP SWAP3 SWAP2 POP POP JUMP JUMPDEST PUSH1 0x1 PUSH1 0x1 PUSH1 0xA0 SHL SUB DUP2 AND DUP2 EQ PUSH2 0xDAC JUMPI PUSH0 DUP1 REVERT JUMPDEST PUSH0 DUP1 PUSH1 0x40 DUP4 DUP6 SUB SLT ISZERO PUSH2 0x1DCD JUMPI PUSH0 DUP1 REVERT JUMPDEST DUP3 CALLDATALOAD PUSH2 0x1DD8 DUP2 PUSH2 0x1DA8 JUMP JUMPDEST SWAP5 PUSH1 0x20 SWAP4 SWAP1 SWAP4 ADD CALLDATALOAD SWAP4 POP POP POP JUMP JUMPDEST DUP1 CALLDATALOAD PUSH2 0xFFFF DUP2 AND DUP2 EQ PUSH2 0x1DF7 JUMPI PUSH0 DUP1 REVERT JUMPDEST SWAP2 SWAP1 POP JUMP JUMPDEST PUSH0 DUP1 PUSH0 DUP1 PUSH1 0x80 DUP6 DUP8 SUB SLT ISZERO PUSH2 0x1E0F JUMPI PUSH0 DUP1 REVERT JUMPDEST PUSH2 0x1E18 DUP6 PUSH2 0x1DE6 JUMP JUMPDEST SWAP4 POP PUSH2 0x1E26 PUSH1 0x20 DUP7 ADD PUSH2 0x1DE6 JUMP JUMPDEST SWAP3 POP PUSH2 0x1E34 PUSH1 0x40 DUP7 ADD PUSH2 0x1DE6 JUMP JUMPDEST SWAP2 POP PUSH2 0x1E42 PUSH1 0x60 DUP7 ADD PUSH2 0x1DE6 JUMP JUMPDEST SWAP1 POP SWAP3 SWAP6 SWAP2 SWAP5 POP SWAP3 POP JUMP JUMPDEST PUSH0 DUP1 PUSH0 PUSH1 0x60 DUP5 DUP7 SUB SLT ISZERO PUSH2 0x1E5F JUMPI PUSH0 DUP1 REVERT JUMPDEST DUP4 CALLDATALOAD PUSH2 0x1E6A DUP2 PUSH2 0x1DA8 JUMP JUMPDEST SWAP3 POP PUSH1 0x20 DUP5 ADD CALLDATALOAD PUSH2 0x1E7A DUP2 PUSH2 0x1DA8 JUMP JUMPDEST SWAP3 SWAP6 SWAP3 SWAP5 POP POP POP PUSH1 0x40 SWAP2 SWAP1 SWAP2 ADD CALLDATALOAD SWAP1 JUMP JUMPDEST PUSH0 PUSH1 0x20 DUP3 DUP5 SUB SLT ISZERO PUSH2 0x1E9B JUMPI PUSH0 DUP1 REVERT JUMPDEST DUP2 CALLDATALOAD PUSH2 0x8D5 DUP2 PUSH2 0x1DA8 JUMP JUMPDEST PUSH0 PUSH1 0x20 DUP3 DUP5 SUB SLT ISZERO PUSH2 0x1EB6 JUMPI PUSH0 DUP1 REVERT JUMPDEST POP CALLDATALOAD SWAP2 SWAP1 POP JUMP JUMPDEST DUP1 CALLDATALOAD DUP1 ISZERO ISZERO DUP2 EQ PUSH2 0x1DF7 JUMPI PUSH0 DUP1 REVERT JUMPDEST PUSH0 DUP1 PUSH1 0x40 DUP4 DUP6 SUB SLT ISZERO PUSH2 0x1EDD JUMPI PUSH0 DUP1 REVERT JUMPDEST DUP3 CALLDATALOAD PUSH2 0x1EE8 DUP2 PUSH2 0x1DA8 JUMP JUMPDEST SWAP2 POP PUSH2 0x1EF6 PUSH1 0x20 DUP5 ADD PUSH2 0x1EBD JUMP JUMPDEST SWAP1 POP SWAP3 POP SWAP3 SWAP1 POP JUMP JUMPDEST PUSH0 DUP1 PUSH1 0x40 DUP4 DUP6 SUB SLT ISZERO PUSH2 0x1F10 JUMPI PUSH0 DUP1 REVERT JUMPDEST DUP3 CALLDATALOAD PUSH2 0x1F1B DUP2 PUSH2 0x1DA8 JUMP JUMPDEST SWAP2 POP PUSH1 0x20 DUP4 ADD CALLDATALOAD PUSH2 0x1F2B DUP2 PUSH2 0x1DA8 JUMP JUMPDEST DUP1 SWAP2 POP POP SWAP3 POP SWAP3 SWAP1 POP JUMP JUMPDEST PUSH0 DUP1 PUSH1 0x40 DUP4 DUP6 SUB SLT ISZERO PUSH2 0x1F47 JUMPI PUSH0 DUP1 REVERT JUMPDEST PUSH2 0x1F50 DUP4 PUSH2 0x1EBD JUMP JUMPDEST SWAP2 POP PUSH2 0x1EF6 PUSH1 0x20 DUP5 ADD PUSH2 0x1DE6 JUMP JUMPDEST PUSH4 0xFFFFFFFF DUP2 AND DUP2 EQ PUSH2 0xDAC JUMPI PUSH0 DUP1 REVERT JUMPDEST PUSH0 DUP1 PUSH1 0x40 DUP4 DUP6 SUB SLT ISZERO PUSH2 0x1F80 JUMPI PUSH0 DUP1 REVERT JUMPDEST PUSH2 0x1F89 DUP4 PUSH2 0x1EBD JUMP JUMPDEST SWAP2 POP PUSH1 0x20 DUP4 ADD CALLDATALOAD PUSH2 0x1F2B DUP2 PUSH2 0x1F5E JUMP JUMPDEST PUSH1 0x1 DUP2 DUP2 SHR SWAP1 DUP3 AND DUP1 PUSH2 0x1FAD JUMPI PUSH1 0x7F DUP3 AND SWAP2 POP JUMPDEST PUSH1 0x20 DUP3 LT DUP2 SUB PUSH2 0x1FCB JUMPI PUSH4 0x4E487B71 PUSH1 0xE0 SHL PUSH0 MSTORE PUSH1 0x22 PUSH1 0x4 MSTORE PUSH1 0x24 PUSH0 REVERT JUMPDEST POP SWAP2 SWAP1 POP JUMP JUMPDEST PUSH4 0x4E487B71 PUSH1 0xE0 SHL PUSH0 MSTORE PUSH1 0x11 PUSH1 0x4 MSTORE PUSH1 0x24 PUSH0 REVERT JUMPDEST PUSH2 0xFFFF DUP2 DUP2 AND DUP4 DUP3 AND ADD SWAP1 DUP1 DUP3 GT ISZERO PUSH2 0x2000 JUMPI PUSH2 0x2000 PUSH2 0x1FD1 JUMP JUMPDEST POP SWAP3 SWAP2 POP POP JUMP JUMPDEST DUP1 DUP3 ADD DUP1 DUP3 GT ISZERO PUSH2 0x782 JUMPI PUSH2 0x782 PUSH2 0x1FD1 JUMP JUMPDEST PUSH0 PUSH1 0x1 PUSH1 0xFF SHL DUP3 ADD PUSH2 0x202E JUMPI PUSH2 0x202E PUSH2 0x1FD1 JUMP JUMPDEST POP PUSH0 SUB SWAP1 JUMP JUMPDEST DUP1 MLOAD PUSH1 0x1 PUSH1 0x1 PUSH1 0x70 SHL SUB DUP2 AND DUP2 EQ PUSH2 0x1DF7 JUMPI PUSH0 DUP1 REVERT JUMPDEST PUSH0 DUP1 PUSH0 PUSH1 0x60 DUP5 DUP7 SUB SLT ISZERO PUSH2 0x205C JUMPI PUSH0 DUP1 REVERT JUMPDEST PUSH2 0x2065 DUP5 PUSH2 0x2034 JUMP JUMPDEST SWAP3 POP PUSH2 0x2073 PUSH1 0x20 DUP6 ADD PUSH2 0x2034 JUMP JUMPDEST SWAP2 POP PUSH1 0x40 DUP5 ADD MLOAD PUSH2 0x2083 DUP2 PUSH2 0x1F5E JUMP JUMPDEST DUP1 SWAP2 POP POP SWAP3 POP SWAP3 POP SWAP3 JUMP JUMPDEST PUSH0 PUSH1 0x20 DUP3 DUP5 SUB SLT ISZERO PUSH2 0x209E JUMPI PUSH0 DUP1 REVERT JUMPDEST DUP2 MLOAD PUSH2 0x8D5 DUP2 PUSH2 0x1DA8 JUMP JUMPDEST PUSH4 0x4E487B71 PUSH1 0xE0 SHL PUSH0 MSTORE PUSH1 0x12 PUSH1 0x4 MSTORE PUSH1 0x24 PUSH0 REVERT JUMPDEST PUSH0 DUP3 PUSH2 0x20CB JUMPI PUSH2 0x20CB PUSH2 0x20A9 JUMP JUMPDEST POP MOD SWAP1 JUMP JUMPDEST PUSH4 0xFFFFFFFF DUP2 DUP2 AND DUP4 DUP3 AND MUL DUP1 DUP3 AND SWAP2 SWAP1 DUP3 DUP2 EQ PUSH2 0x20F0 JUMPI PUSH2 0x20F0 PUSH2 0x1FD1 JUMP JUMPDEST POP POP SWAP3 SWAP2 POP POP JUMP JUMPDEST DUP2 DUP2 SUB DUP2 DUP2 GT ISZERO PUSH2 0x782 JUMPI PUSH2 0x782 PUSH2 0x1FD1 JUMP JUMPDEST DUP1 DUP3 MUL DUP2 ISZERO DUP3 DUP3 DIV DUP5 EQ OR PUSH2 0x782 JUMPI PUSH2 0x782 PUSH2 0x1FD1 JUMP JUMPDEST PUSH0 DUP3 PUSH2 0x2130 JUMPI PUSH2 0x2130 PUSH2 0x20A9 JUMP JUMPDEST POP DIV SWAP1 JUMP JUMPDEST PUSH4 0x4E487B71 PUSH1 0xE0 SHL PUSH0 MSTORE PUSH1 0x41 PUSH1 0x4 MSTORE PUSH1 0x24 PUSH0 REVERT JUMPDEST PUSH4 0x4E487B71 PUSH1 0xE0 SHL PUSH0 MSTORE PUSH1 0x32 PUSH1 0x4 MSTORE PUSH1 0x24 PUSH0 REVERT JUMPDEST PUSH0 PUSH1 0xA0 DUP3 ADD DUP8 DUP4 MSTORE PUSH1 0x20 DUP8 PUSH1 0x20 DUP6 ADD MSTORE PUSH1 0xA0 PUSH1 0x40 DUP6 ADD MSTORE DUP2 DUP8 MLOAD DUP1 DUP5 MSTORE PUSH1 0xC0 DUP7 ADD SWAP2 POP PUSH1 0x20 DUP10 ADD SWAP4 POP PUSH0 JUMPDEST DUP2 DUP2 LT ISZERO PUSH2 0x21AD JUMPI DUP5 MLOAD PUSH1 0x1 PUSH1 0x1 PUSH1 0xA0 SHL SUB AND DUP4 MSTORE SWAP4 DUP4 ADD SWAP4 SWAP2 DUP4 ADD SWAP2 PUSH1 0x1 ADD PUSH2 0x2188 JUMP JUMPDEST POP POP PUSH1 0x1 PUSH1 0x1 PUSH1 0xA0 SHL SUB SWAP7 SWAP1 SWAP7 AND PUSH1 0x60 DUP6 ADD MSTORE POP POP POP PUSH1 0x80 ADD MSTORE SWAP4 SWAP3 POP POP POP JUMP JUMPDEST PUSH0 PUSH1 0x20 DUP1 DUP4 DUP6 SUB SLT ISZERO PUSH2 0x21DF JUMPI PUSH0 DUP1 REVERT JUMPDEST DUP3 MLOAD PUSH8 0xFFFFFFFFFFFFFFFF DUP1 DUP3 GT ISZERO PUSH2 0x21F6 JUMPI PUSH0 DUP1 REVERT JUMPDEST DUP2 DUP6 ADD SWAP2 POP DUP6 PUSH1 0x1F DUP4 ADD SLT PUSH2 0x2209 JUMPI PUSH0 DUP1 REVERT JUMPDEST DUP2 MLOAD DUP2 DUP2 GT ISZERO PUSH2 0x221B JUMPI PUSH2 0x221B PUSH2 0x2135 JUMP JUMPDEST DUP1 PUSH1 0x5 SHL PUSH1 0x40 MLOAD PUSH1 0x1F NOT PUSH1 0x3F DUP4 ADD AND DUP2 ADD DUP2 DUP2 LT DUP6 DUP3 GT OR ISZERO PUSH2 0x2240 JUMPI PUSH2 0x2240 PUSH2 0x2135 JUMP JUMPDEST PUSH1 0x40 MSTORE SWAP2 DUP3 MSTORE DUP5 DUP3 ADD SWAP3 POP DUP4 DUP2 ADD DUP6 ADD SWAP2 DUP9 DUP4 GT ISZERO PUSH2 0x225D JUMPI PUSH0 DUP1 REVERT JUMPDEST SWAP4 DUP6 ADD SWAP4 JUMPDEST DUP3 DUP6 LT ISZERO PUSH2 0x227B JUMPI DUP5 MLOAD DUP5 MSTORE SWAP4 DUP6 ADD SWAP4 SWAP3 DUP6 ADD SWAP3 PUSH2 0x2262 JUMP JUMPDEST SWAP9 SWAP8 POP POP POP POP POP POP POP POP JUMP JUMPDEST PUSH0 DUP1 PUSH0 PUSH1 0x60 DUP5 DUP7 SUB SLT ISZERO PUSH2 0x2299 JUMPI PUSH0 DUP1 REVERT JUMPDEST DUP4 MLOAD SWAP3 POP PUSH1 0x20 DUP5 ADD MLOAD SWAP2 POP PUSH1 0x40 DUP5 ADD MLOAD SWAP1 POP SWAP3 POP SWAP3 POP SWAP3 JUMP INVALID LOG2 PUSH5 0x6970667358 0x22 SLT KECCAK256 PC SELFDESTRUCT DUP1 0xE0 SWAP11 PREVRANDAO 0xAC DUP2 0xE 0xCA 0x1F PUSH31 0xC706D8A9E4D48933C73AACB957AC449DBA91CA2564736F6C63430008190033 "
				},
				"gasEstimates": {
					"creation": {
						"codeDepositCost": "1787200",
						"executionCost": "infinite",
						"totalCost": "infinite"
					},
					"external": {
						"_maxWalletSize()": "infinite",
						"accumulatedEco()": "2372",
						"accumulatedLp()": "2327",
						"allowance(address,address)": "infinite",
						"approve(address,uint256)": "24686",
						"balanceOf(address)": "2632",
						"configureCooldown(bool,uint32)": "51274",
						"configureDiamondFloor(bool,uint16)": "infinite",
						"cooldown()": "2448",
						"cooldownRemaining(address)": "infinite",
						"decimals()": "266",
						"decreaseAllowance(address,uint256)": "27006",
						"diamondFloor()": "8866",
						"increaseAllowance(address,uint256)": "infinite",
						"isExempt(address)": "2567",
						"maxWalletPercentage()": "2373",
						"name()": "infinite",
						"owner()": "2441",
						"pairAddress()": "2425",
						"pairPrice()": "infinite",
						"priceDeviation()": "infinite",
						"renounceOwnership()": "infinite",
						"routerAddress()": "2448",
						"setExempt(address,bool)": "26924",
						"setRouter(address)": "infinite",
						"setTaxRates(uint16,uint16,uint16,uint16)": "infinite",
						"setThreshold(uint256)": "24576",
						"swapThreshold()": "2330",
						"symbol()": "infinite",
						"taxRates()": "2517",
						"totalSupply()": "2326",
						"transfer(address,uint256)": "infinite",
						"transferFrom(address,address,uint256)": "infinite",
						"transferOwnership(address)": "infinite"
					},
					"internal": {
						"_addLiquidity(uint256,uint256)": "infinite",
						"_calculateTax(address,address,uint256)": "infinite",
						"_checkPriceConditions()": "infinite",
						"_distributeTax(uint256,bool,bool)": "infinite",
						"_setupPair()": "infinite",
						"_shouldSwapBack()": "10734",
						"_swapAndLiquify()": "infinite",
						"_swapTokensForETH(uint256)": "infinite",
						"_transfer(address,address,uint256)": "infinite"
					}
				},
				"methodIdentifiers": {
					"_maxWalletSize()": "8f9a55c0",
					"accumulatedEco()": "c531b108",
					"accumulatedLp()": "d8d61c40",
					"allowance(address,address)": "dd62ed3e",
					"approve(address,uint256)": "095ea7b3",
					"balanceOf(address)": "70a08231",
					"configureCooldown(bool,uint32)": "fe6b751e",
					"configureDiamondFloor(bool,uint16)": "fe0bb982",
					"cooldown()": "787a08a6",
					"cooldownRemaining(address)": "9d82190f",
					"decimals()": "313ce567",
					"decreaseAllowance(address,uint256)": "a457c2d7",
					"diamondFloor()": "c95457ff",
					"increaseAllowance(address,uint256)": "39509351",
					"isExempt(address)": "ad5dff73",
					"maxWalletPercentage()": "599ca397",
					"name()": "06fdde03",
					"owner()": "8da5cb5b",
					"pairAddress()": "a8b08982",
					"pairPrice()": "9491f94d",
					"priceDeviation()": "7773168f",
					"renounceOwnership()": "715018a6",
					"routerAddress()": "3268cc56",
					"setExempt(address,bool)": "9fde54f5",
					"setRouter(address)": "c0d78655",
					"setTaxRates(uint16,uint16,uint16,uint16)": "1569d181",
					"setThreshold(uint256)": "960bfe04",
					"swapThreshold()": "0445b667",
					"symbol()": "95d89b41",
					"taxRates()": "333f4b3d",
					"totalSupply()": "18160ddd",
					"transfer(address,uint256)": "a9059cbb",
					"transferFrom(address,address,uint256)": "23b872dd",
					"transferOwnership(address)": "f2fde38b"
				}
			},
			"storageLayout": {
				"storage": [
					{
						"astId": 440,
						"contract": "contracts/gainzilla.sol:MemeCoin",
						"label": "_balances",
						"offset": 0,
						"slot": "0",
						"type": "t_mapping(t_address,t_uint256)"
					},
					{
						"astId": 446,
						"contract": "contracts/gainzilla.sol:MemeCoin",
						"label": "_allowances",
						"offset": 0,
						"slot": "1",
						"type": "t_mapping(t_address,t_mapping(t_address,t_uint256))"
					},
					{
						"astId": 448,
						"contract": "contracts/gainzilla.sol:MemeCoin",
						"label": "_totalSupply",
						"offset": 0,
						"slot": "2",
						"type": "t_uint256"
					},
					{
						"astId": 450,
						"contract": "contracts/gainzilla.sol:MemeCoin",
						"label": "_name",
						"offset": 0,
						"slot": "3",
						"type": "t_string_storage"
					},
					{
						"astId": 452,
						"contract": "contracts/gainzilla.sol:MemeCoin",
						"label": "_symbol",
						"offset": 0,
						"slot": "4",
						"type": "t_string_storage"
					},
					{
						"astId": 319,
						"contract": "contracts/gainzilla.sol:MemeCoin",
						"label": "_owner",
						"offset": 0,
						"slot": "5",
						"type": "t_address"
					},
					{
						"astId": 1237,
						"contract": "contracts/gainzilla.sol:MemeCoin",
						"label": "maxWalletPercentage",
						"offset": 0,
						"slot": "6",
						"type": "t_uint256"
					},
					{
						"astId": 1252,
						"contract": "contracts/gainzilla.sol:MemeCoin",
						"label": "taxRates",
						"offset": 0,
						"slot": "7",
						"type": "t_struct(TaxRates)1249_storage"
					},
					{
						"astId": 1255,
						"contract": "contracts/gainzilla.sol:MemeCoin",
						"label": "transferMultiplier",
						"offset": 0,
						"slot": "8",
						"type": "t_uint256"
					},
					{
						"astId": 1260,
						"contract": "contracts/gainzilla.sol:MemeCoin",
						"label": "swapThreshold",
						"offset": 0,
						"slot": "9",
						"type": "t_uint256"
					},
					{
						"astId": 1262,
						"contract": "contracts/gainzilla.sol:MemeCoin",
						"label": "accumulatedLp",
						"offset": 0,
						"slot": "10",
						"type": "t_uint256"
					},
					{
						"astId": 1264,
						"contract": "contracts/gainzilla.sol:MemeCoin",
						"label": "accumulatedEco",
						"offset": 0,
						"slot": "11",
						"type": "t_uint256"
					},
					{
						"astId": 1266,
						"contract": "contracts/gainzilla.sol:MemeCoin",
						"label": "swapping",
						"offset": 0,
						"slot": "12",
						"type": "t_bool"
					},
					{
						"astId": 1278,
						"contract": "contracts/gainzilla.sol:MemeCoin",
						"label": "cooldown",
						"offset": 0,
						"slot": "13",
						"type": "t_struct(CooldownConfig)1275_storage"
					},
					{
						"astId": 1292,
						"contract": "contracts/gainzilla.sol:MemeCoin",
						"label": "diamondFloor",
						"offset": 0,
						"slot": "15",
						"type": "t_struct(DiamondFloor)1289_storage"
					},
					{
						"astId": 1294,
						"contract": "contracts/gainzilla.sol:MemeCoin",
						"label": "routerAddress",
						"offset": 0,
						"slot": "19",
						"type": "t_address"
					},
					{
						"astId": 1296,
						"contract": "contracts/gainzilla.sol:MemeCoin",
						"label": "pairAddress",
						"offset": 0,
						"slot": "20",
						"type": "t_address"
					},
					{
						"astId": 1303,
						"contract": "contracts/gainzilla.sol:MemeCoin",
						"label": "isExempt",
						"offset": 0,
						"slot": "21",
						"type": "t_mapping(t_address,t_bool)"
					}
				],
				"types": {
					"t_address": {
						"encoding": "inplace",
						"label": "address",
						"numberOfBytes": "20"
					},
					"t_bool": {
						"encoding": "inplace",
						"label": "bool",
						"numberOfBytes": "1"
					},
					"t_mapping(t_address,t_bool)": {
						"encoding": "mapping",
						"key": "t_address",
						"label": "mapping(address => bool)",
						"numberOfBytes": "32",
						"value": "t_bool"
					},
					"t_mapping(t_address,t_mapping(t_address,t_uint256))": {
						"encoding": "mapping",
						"key": "t_address",
						"label": "mapping(address => mapping(address => uint256))",
						"numberOfBytes": "32",
						"value": "t_mapping(t_address,t_uint256)"
					},
					"t_mapping(t_address,t_uint256)": {
						"encoding": "mapping",
						"key": "t_address",
						"label": "mapping(address => uint256)",
						"numberOfBytes": "32",
						"value": "t_uint256"
					},
					"t_string_storage": {
						"encoding": "bytes",
						"label": "string",
						"numberOfBytes": "32"
					},
					"t_struct(CooldownConfig)1275_storage": {
						"encoding": "inplace",
						"label": "struct MemeCoin.CooldownConfig",
						"members": [
							{
								"astId": 1268,
								"contract": "contracts/gainzilla.sol:MemeCoin",
								"label": "enabled",
								"offset": 0,
								"slot": "0",
								"type": "t_bool"
							},
							{
								"astId": 1270,
								"contract": "contracts/gainzilla.sol:MemeCoin",
								"label": "duration",
								"offset": 1,
								"slot": "0",
								"type": "t_uint32"
							},
							{
								"astId": 1274,
								"contract": "contracts/gainzilla.sol:MemeCoin",
								"label": "cooldowns",
								"offset": 0,
								"slot": "1",
								"type": "t_mapping(t_address,t_uint256)"
							}
						],
						"numberOfBytes": "64"
					},
					"t_struct(DiamondFloor)1289_storage": {
						"encoding": "inplace",
						"label": "struct MemeCoin.DiamondFloor",
						"members": [
							{
								"astId": 1280,
								"contract": "contracts/gainzilla.sol:MemeCoin",
								"label": "enabled",
								"offset": 0,
								"slot": "0",
								"type": "t_bool"
							},
							{
								"astId": 1282,
								"contract": "contracts/gainzilla.sol:MemeCoin",
								"label": "triggerPercentage",
								"offset": 1,
								"slot": "0",
								"type": "t_uint16"
							},
							{
								"astId": 1284,
								"contract": "contracts/gainzilla.sol:MemeCoin",
								"label": "athPrice",
								"offset": 0,
								"slot": "1",
								"type": "t_uint256"
							},
							{
								"astId": 1286,
								"contract": "contracts/gainzilla.sol:MemeCoin",
								"label": "sellStopped",
								"offset": 0,
								"slot": "2",
								"type": "t_bool"
							},
							{
								"astId": 1288,
								"contract": "contracts/gainzilla.sol:MemeCoin",
								"label": "blockedAth",
								"offset": 0,
								"slot": "3",
								"type": "t_uint256"
							}
						],
						"numberOfBytes": "128"
					},
					"t_struct(TaxRates)1249_storage": {
						"encoding": "inplace",
						"label": "struct MemeCoin.TaxRates",
						"members": [
							{
								"astId": 1242,
								"contract": "contracts/gainzilla.sol:MemeCoin",
								"label": "buyLp",
								"offset": 0,
								"slot": "0",
								"type": "t_uint16"
							},
							{
								"astId": 1244,
								"contract": "contracts/gainzilla.sol:MemeCoin",
								"label": "buyEco",
								"offset": 2,
								"slot": "0",
								"type": "t_uint16"
							},
							{
								"astId": 1246,
								"contract": "contracts/gainzilla.sol:MemeCoin",
								"label": "sellLp",
								"offset": 4,
								"slot": "0",
								"type": "t_uint16"
							},
							{
								"astId": 1248,
								"contract": "contracts/gainzilla.sol:MemeCoin",
								"label": "sellEco",
								"offset": 6,
								"slot": "0",
								"type": "t_uint16"
							}
						],
						"numberOfBytes": "32"
					},
					"t_uint16": {
						"encoding": "inplace",
						"label": "uint16",
						"numberOfBytes": "2"
					},
					"t_uint256": {
						"encoding": "inplace",
						"label": "uint256",
						"numberOfBytes": "32"
					},
					"t_uint32": {
						"encoding": "inplace",
						"label": "uint32",
						"numberOfBytes": "4"
					}
				}
			},
			"userdoc": {
				"kind": "user",
				"methods": {},
				"version": 1
			}
		}
	}
}