{
	"contracts/gainzilla.sol": {
		"gainZilla": {
			"abi": [
				{
					"inputs": [],
					"stateMutability": "nonpayable",
					"type": "constructor"
				},
				{
					"anonymous": false,
					"inputs": [
						{
							"indexed": true,
							"internalType": "address",
							"name": "owner",
							"type": "address"
						},
						{
							"indexed": true,
							"internalType": "address",
							"name": "spender",
							"type": "address"
						},
						{
							"indexed": false,
							"internalType": "uint256",
							"name": "value",
							"type": "uint256"
						}
					],
					"name": "Approval",
					"type": "event"
				},
				{
					"anonymous": false,
					"inputs": [
						{
							"indexed": false,
							"internalType": "uint256",
							"name": "_buyMarketingFee",
							"type": "uint256"
						},
						{
							"indexed": false,
							"internalType": "uint256",
							"name": "_buyLiquidityFee",
							"type": "uint256"
						},
						{
							"indexed": false,
							"internalType": "uint256",
							"name": "_buyTeamFee",
							"type": "uint256"
						},
						{
							"indexed": false,
							"internalType": "uint256",
							"name": "_buyEcosystemFee",
							"type": "uint256"
						}
					],
					"name": "BuyFeesUpdated",
					"type": "event"
				},
				{
					"anonymous": false,
					"inputs": [
						{
							"indexed": false,
							"internalType": "uint256",
							"name": "_maxTxAmount",
							"type": "uint256"
						}
					],
					"name": "MaxTxAmountUpdated",
					"type": "event"
				},
				{
					"anonymous": false,
					"inputs": [
						{
							"indexed": true,
							"internalType": "address",
							"name": "previousOwner",
							"type": "address"
						},
						{
							"indexed": true,
							"internalType": "address",
							"name": "newOwner",
							"type": "address"
						}
					],
					"name": "OwnershipTransferred",
					"type": "event"
				},
				{
					"anonymous": false,
					"inputs": [
						{
							"indexed": false,
							"internalType": "uint256",
							"name": "_sellMarketingFee",
							"type": "uint256"
						},
						{
							"indexed": false,
							"internalType": "uint256",
							"name": "_sellLiquidityFee",
							"type": "uint256"
						},
						{
							"indexed": false,
							"internalType": "uint256",
							"name": "_sellTeamFee",
							"type": "uint256"
						},
						{
							"indexed": false,
							"internalType": "uint256",
							"name": "_sellEcosystemFee",
							"type": "uint256"
						}
					],
					"name": "SellFeesUpdated",
					"type": "event"
				},
				{
					"anonymous": false,
					"inputs": [
						{
							"indexed": true,
							"internalType": "address",
							"name": "from",
							"type": "address"
						},
						{
							"indexed": true,
							"internalType": "address",
							"name": "to",
							"type": "address"
						},
						{
							"indexed": false,
							"internalType": "uint256",
							"name": "value",
							"type": "uint256"
						}
					],
					"name": "Transfer",
					"type": "event"
				},
				{
					"inputs": [],
					"name": "ATHvariance",
					"outputs": [
						{
							"internalType": "int256",
							"name": "",
							"type": "int256"
						}
					],
					"stateMutability": "view",
					"type": "function"
				},
				{
					"inputs": [],
					"name": "_buyEcosystemFee",
					"outputs": [
						{
							"internalType": "uint256",
							"name": "",
							"type": "uint256"
						}
					],
					"stateMutability": "view",
					"type": "function"
				},
				{
					"inputs": [],
					"name": "_buyLiquidityFee",
					"outputs": [
						{
							"internalType": "uint256",
							"name": "",
							"type": "uint256"
						}
					],
					"stateMutability": "view",
					"type": "function"
				},
				{
					"inputs": [],
					"name": "_buyMarketingFee",
					"outputs": [
						{
							"internalType": "uint256",
							"name": "",
							"type": "uint256"
						}
					],
					"stateMutability": "view",
					"type": "function"
				},
				{
					"inputs": [],
					"name": "_buyTeamFee",
					"outputs": [
						{
							"internalType": "uint256",
							"name": "",
							"type": "uint256"
						}
					],
					"stateMutability": "view",
					"type": "function"
				},
				{
					"inputs": [],
					"name": "_maxWalletAmount",
					"outputs": [
						{
							"internalType": "uint256",
							"name": "",
							"type": "uint256"
						}
					],
					"stateMutability": "view",
					"type": "function"
				},
				{
					"inputs": [],
					"name": "_sellEcosystemFee",
					"outputs": [
						{
							"internalType": "uint256",
							"name": "",
							"type": "uint256"
						}
					],
					"stateMutability": "view",
					"type": "function"
				},
				{
					"inputs": [],
					"name": "_sellLiquidityFee",
					"outputs": [
						{
							"internalType": "uint256",
							"name": "",
							"type": "uint256"
						}
					],
					"stateMutability": "view",
					"type": "function"
				},
				{
					"inputs": [],
					"name": "_sellMarketingFee",
					"outputs": [
						{
							"internalType": "uint256",
							"name": "",
							"type": "uint256"
						}
					],
					"stateMutability": "view",
					"type": "function"
				},
				{
					"inputs": [],
					"name": "_sellTeamFee",
					"outputs": [
						{
							"internalType": "uint256",
							"name": "",
							"type": "uint256"
						}
					],
					"stateMutability": "view",
					"type": "function"
				},
				{
					"inputs": [
						{
							"internalType": "address",
							"name": "account",
							"type": "address"
						}
					],
					"name": "addBot",
					"outputs": [],
					"stateMutability": "nonpayable",
					"type": "function"
				},
				{
					"inputs": [
						{
							"internalType": "address",
							"name": "owner",
							"type": "address"
						},
						{
							"internalType": "address",
							"name": "spender",
							"type": "address"
						}
					],
					"name": "allowance",
					"outputs": [
						{
							"internalType": "uint256",
							"name": "",
							"type": "uint256"
						}
					],
					"stateMutability": "view",
					"type": "function"
				},
				{
					"inputs": [
						{
							"internalType": "address",
							"name": "spender",
							"type": "address"
						},
						{
							"internalType": "uint256",
							"name": "amount",
							"type": "uint256"
						}
					],
					"name": "approve",
					"outputs": [
						{
							"internalType": "bool",
							"name": "",
							"type": "bool"
						}
					],
					"stateMutability": "nonpayable",
					"type": "function"
				},
				{
					"inputs": [
						{
							"internalType": "address",
							"name": "account",
							"type": "address"
						}
					],
					"name": "balanceOf",
					"outputs": [
						{
							"internalType": "uint256",
							"name": "",
							"type": "uint256"
						}
					],
					"stateMutability": "view",
					"type": "function"
				},
				{
					"inputs": [],
					"name": "canBlackList",
					"outputs": [
						{
							"internalType": "bool",
							"name": "",
							"type": "bool"
						}
					],
					"stateMutability": "view",
					"type": "function"
				},
				{
					"inputs": [],
					"name": "canChangeTax",
					"outputs": [
						{
							"internalType": "bool",
							"name": "",
							"type": "bool"
						}
					],
					"stateMutability": "view",
					"type": "function"
				},
				{
					"inputs": [],
					"name": "canPause",
					"outputs": [
						{
							"internalType": "bool",
							"name": "",
							"type": "bool"
						}
					],
					"stateMutability": "view",
					"type": "function"
				},
				{
					"inputs": [
						{
							"internalType": "bool",
							"name": "enabled",
							"type": "bool"
						},
						{
							"internalType": "uint16",
							"name": "triggerPercentage",
							"type": "uint16"
						}
					],
					"name": "configureDiamondFloor",
					"outputs": [],
					"stateMutability": "nonpayable",
					"type": "function"
				},
				{
					"inputs": [
						{
							"internalType": "bool",
							"name": "enabled",
							"type": "bool"
						},
						{
							"internalType": "uint32",
							"name": "duration",
							"type": "uint32"
						}
					],
					"name": "configureStrongHands",
					"outputs": [],
					"stateMutability": "nonpayable",
					"type": "function"
				},
				{
					"inputs": [],
					"name": "cooldown",
					"outputs": [
						{
							"internalType": "bool",
							"name": "enabled",
							"type": "bool"
						},
						{
							"internalType": "uint32",
							"name": "duration",
							"type": "uint32"
						}
					],
					"stateMutability": "view",
					"type": "function"
				},
				{
					"inputs": [
						{
							"internalType": "address",
							"name": "account",
							"type": "address"
						}
					],
					"name": "cooldownRemaining",
					"outputs": [
						{
							"internalType": "uint256",
							"name": "days_",
							"type": "uint256"
						},
						{
							"internalType": "uint256",
							"name": "hours_",
							"type": "uint256"
						},
						{
							"internalType": "uint256",
							"name": "minutes_",
							"type": "uint256"
						},
						{
							"internalType": "uint256",
							"name": "seconds_",
							"type": "uint256"
						}
					],
					"stateMutability": "view",
					"type": "function"
				},
				{
					"inputs": [],
					"name": "decimals",
					"outputs": [
						{
							"internalType": "uint8",
							"name": "",
							"type": "uint8"
						}
					],
					"stateMutability": "pure",
					"type": "function"
				},
				{
					"inputs": [],
					"name": "diamondFloor",
					"outputs": [
						{
							"internalType": "bool",
							"name": "enabled",
							"type": "bool"
						},
						{
							"internalType": "uint16",
							"name": "triggerPercentage",
							"type": "uint16"
						},
						{
							"internalType": "uint256",
							"name": "athPrice",
							"type": "uint256"
						},
						{
							"internalType": "bool",
							"name": "sellStopped",
							"type": "bool"
						},
						{
							"internalType": "uint256",
							"name": "blockedAth",
							"type": "uint256"
						}
					],
					"stateMutability": "view",
					"type": "function"
				},
				{
					"inputs": [],
					"name": "disableBlackListing",
					"outputs": [],
					"stateMutability": "nonpayable",
					"type": "function"
				},
				{
					"inputs": [],
					"name": "disablePauseAbility",
					"outputs": [],
					"stateMutability": "nonpayable",
					"type": "function"
				},
				{
					"inputs": [],
					"name": "disableTaxChange",
					"outputs": [],
					"stateMutability": "nonpayable",
					"type": "function"
				},
				{
					"inputs": [],
					"name": "disableToken",
					"outputs": [],
					"stateMutability": "nonpayable",
					"type": "function"
				},
				{
					"inputs": [],
					"name": "enableToken",
					"outputs": [],
					"stateMutability": "nonpayable",
					"type": "function"
				},
				{
					"inputs": [
						{
							"internalType": "address",
							"name": "account",
							"type": "address"
						}
					],
					"name": "excludeFromFee",
					"outputs": [],
					"stateMutability": "nonpayable",
					"type": "function"
				},
				{
					"inputs": [
						{
							"internalType": "address",
							"name": "account",
							"type": "address"
						}
					],
					"name": "includeInFee",
					"outputs": [],
					"stateMutability": "nonpayable",
					"type": "function"
				},
				{
					"inputs": [
						{
							"internalType": "address",
							"name": "account",
							"type": "address"
						}
					],
					"name": "isBot",
					"outputs": [
						{
							"internalType": "bool",
							"name": "",
							"type": "bool"
						}
					],
					"stateMutability": "view",
					"type": "function"
				},
				{
					"inputs": [
						{
							"internalType": "address",
							"name": "token",
							"type": "address"
						}
					],
					"name": "manualSendToken",
					"outputs": [],
					"stateMutability": "nonpayable",
					"type": "function"
				},
				{
					"inputs": [],
					"name": "manualsend",
					"outputs": [],
					"stateMutability": "nonpayable",
					"type": "function"
				},
				{
					"inputs": [],
					"name": "manualswap",
					"outputs": [],
					"stateMutability": "nonpayable",
					"type": "function"
				},
				{
					"inputs": [],
					"name": "name",
					"outputs": [
						{
							"internalType": "string",
							"name": "",
							"type": "string"
						}
					],
					"stateMutability": "pure",
					"type": "function"
				},
				{
					"inputs": [],
					"name": "numTokensToSwap",
					"outputs": [
						{
							"internalType": "uint256",
							"name": "",
							"type": "uint256"
						}
					],
					"stateMutability": "view",
					"type": "function"
				},
				{
					"inputs": [
						{
							"internalType": "uint256",
							"name": "botBlocks",
							"type": "uint256"
						}
					],
					"name": "openTrading",
					"outputs": [],
					"stateMutability": "nonpayable",
					"type": "function"
				},
				{
					"inputs": [],
					"name": "owner",
					"outputs": [
						{
							"internalType": "address",
							"name": "",
							"type": "address"
						}
					],
					"stateMutability": "view",
					"type": "function"
				},
				{
					"inputs": [],
					"name": "pairPrice",
					"outputs": [
						{
							"internalType": "uint256",
							"name": "",
							"type": "uint256"
						}
					],
					"stateMutability": "view",
					"type": "function"
				},
				{
					"inputs": [
						{
							"internalType": "address",
							"name": "account",
							"type": "address"
						}
					],
					"name": "removeBot",
					"outputs": [],
					"stateMutability": "nonpayable",
					"type": "function"
				},
				{
					"inputs": [],
					"name": "renounceOwnership",
					"outputs": [],
					"stateMutability": "nonpayable",
					"type": "function"
				},
				{
					"inputs": [
						{
							"internalType": "uint256",
							"name": "marketingFee",
							"type": "uint256"
						},
						{
							"internalType": "uint256",
							"name": "liquidityFee",
							"type": "uint256"
						},
						{
							"internalType": "uint256",
							"name": "teamFee",
							"type": "uint256"
						},
						{
							"internalType": "uint256",
							"name": "ecosystemFee",
							"type": "uint256"
						}
					],
					"name": "setBuyTaxes",
					"outputs": [],
					"stateMutability": "nonpayable",
					"type": "function"
				},
				{
					"inputs": [
						{
							"internalType": "uint256",
							"name": "maxWalletAmount",
							"type": "uint256"
						}
					],
					"name": "setMaxWalletAmount",
					"outputs": [],
					"stateMutability": "nonpayable",
					"type": "function"
				},
				{
					"inputs": [
						{
							"internalType": "uint256",
							"name": "marketingFee",
							"type": "uint256"
						},
						{
							"internalType": "uint256",
							"name": "liquidityFee",
							"type": "uint256"
						},
						{
							"internalType": "uint256",
							"name": "teamFee",
							"type": "uint256"
						},
						{
							"internalType": "uint256",
							"name": "ecosystemFee",
							"type": "uint256"
						}
					],
					"name": "setSellTaxes",
					"outputs": [],
					"stateMutability": "nonpayable",
					"type": "function"
				},
				{
					"inputs": [
						{
							"internalType": "uint256",
							"name": "_multiplier",
							"type": "uint256"
						}
					],
					"name": "setTransferTransactionMultiplier",
					"outputs": [],
					"stateMutability": "nonpayable",
					"type": "function"
				},
				{
					"inputs": [],
					"name": "symbol",
					"outputs": [
						{
							"internalType": "string",
							"name": "",
							"type": "string"
						}
					],
					"stateMutability": "pure",
					"type": "function"
				},
				{
					"inputs": [],
					"name": "totalSupply",
					"outputs": [
						{
							"internalType": "uint256",
							"name": "",
							"type": "uint256"
						}
					],
					"stateMutability": "pure",
					"type": "function"
				},
				{
					"inputs": [],
					"name": "tradingOpen",
					"outputs": [
						{
							"internalType": "bool",
							"name": "",
							"type": "bool"
						}
					],
					"stateMutability": "view",
					"type": "function"
				},
				{
					"inputs": [
						{
							"internalType": "address",
							"name": "recipient",
							"type": "address"
						},
						{
							"internalType": "uint256",
							"name": "amount",
							"type": "uint256"
						}
					],
					"name": "transfer",
					"outputs": [
						{
							"internalType": "bool",
							"name": "",
							"type": "bool"
						}
					],
					"stateMutability": "nonpayable",
					"type": "function"
				},
				{
					"inputs": [],
					"name": "transferFeeIncreaseFactor",
					"outputs": [
						{
							"internalType": "uint256",
							"name": "",
							"type": "uint256"
						}
					],
					"stateMutability": "view",
					"type": "function"
				},
				{
					"inputs": [
						{
							"internalType": "address",
							"name": "sender",
							"type": "address"
						},
						{
							"internalType": "address",
							"name": "recipient",
							"type": "address"
						},
						{
							"internalType": "uint256",
							"name": "amount",
							"type": "uint256"
						}
					],
					"name": "transferFrom",
					"outputs": [
						{
							"internalType": "bool",
							"name": "",
							"type": "bool"
						}
					],
					"stateMutability": "nonpayable",
					"type": "function"
				},
				{
					"inputs": [
						{
							"internalType": "address",
							"name": "newOwner",
							"type": "address"
						}
					],
					"name": "transferOwnership",
					"outputs": [],
					"stateMutability": "nonpayable",
					"type": "function"
				},
				{
					"inputs": [],
					"name": "uniswapV2Pair",
					"outputs": [
						{
							"internalType": "address",
							"name": "",
							"type": "address"
						}
					],
					"stateMutability": "view",
					"type": "function"
				},
				{
					"inputs": [
						{
							"internalType": "address payable",
							"name": "ecosystemAddress",
							"type": "address"
						}
					],
					"name": "updateEcosystemAddress",
					"outputs": [],
					"stateMutability": "nonpayable",
					"type": "function"
				},
				{
					"inputs": [
						{
							"internalType": "address payable",
							"name": "lpRecipient",
							"type": "address"
						}
					],
					"name": "updateLpRecipient",
					"outputs": [],
					"stateMutability": "nonpayable",
					"type": "function"
				},
				{
					"inputs": [
						{
							"internalType": "address payable",
							"name": "marketingAddress",
							"type": "address"
						}
					],
					"name": "updateMarketingAddress",
					"outputs": [],
					"stateMutability": "nonpayable",
					"type": "function"
				},
				{
					"inputs": [
						{
							"internalType": "uint256",
							"name": "numTokens",
							"type": "uint256"
						}
					],
					"name": "updateNumTokensToSwap",
					"outputs": [],
					"stateMutability": "nonpayable",
					"type": "function"
				},
				{
					"inputs": [
						{
							"internalType": "address payable",
							"name": "teamAddress",
							"type": "address"
						}
					],
					"name": "updateTeamAddress",
					"outputs": [],
					"stateMutability": "nonpayable",
					"type": "function"
				},
				{
					"stateMutability": "payable",
					"type": "receive"
				}
			],
			"devdoc": {
				"kind": "dev",
				"methods": {
					"transferOwnership(address)": {
						"details": "Transfers ownership of the contract to a new account (`newOwner`). Can only be called by the current owner."
					}
				},
				"version": 1
			},
			"evm": {
				"assembly": "    /* \"contracts/gainzilla.sol\":8181:30551  contract gainZilla is Context, IERC20, IERC20Extented, Ownable {... */\n  mstore(0x40, 0x80)\n    /* \"contracts/gainzilla.sol\":8779:8795  10000001 * 10**9 */\n  0x2386f2ab5bca00\n    /* \"contracts/gainzilla.sol\":8745:8795  uint256 public _maxWalletAmount = 10000001 * 10**9 */\n  0x07\n  sstore\n    /* \"contracts/gainzilla.sol\":8834:8849  1000000 * 10**9 */\n  0x038d7ea4c68000\n    /* \"contracts/gainzilla.sol\":8801:8849  uint256 public numTokensToSwap = 1000000 * 10**9 */\n  0x08\n  sstore\n    /* \"contracts/gainzilla.sol\":8945:8946  0 */\n  0x00\n    /* \"contracts/gainzilla.sol\":8911:8946  uint256 public _buyLiquidityFee = 0 */\n  0x09\n  sstore\n    /* \"contracts/gainzilla.sol\":9014:9030  _buyLiquidityFee */\n  sload(0x09)\n    /* \"contracts/gainzilla.sol\":8971:9030  uint256 private _previousBuyLiquidityFee = _buyLiquidityFee */\n  0x0a\n  sstore\n    /* \"contracts/gainzilla.sol\":9070:9071  0 */\n  0x00\n    /* \"contracts/gainzilla.sol\":9036:9071  uint256 public _buyEcosystemFee = 0 */\n  0x0b\n  sstore\n    /* \"contracts/gainzilla.sol\":9139:9155  _buyEcosystemFee */\n  sload(0x0b)\n    /* \"contracts/gainzilla.sol\":9096:9155  uint256 private _previousBuyEcosystemFee = _buyEcosystemFee */\n  0x0c\n  sstore\n    /* \"contracts/gainzilla.sol\":9195:9196  0 */\n  0x00\n    /* \"contracts/gainzilla.sol\":9161:9196  uint256 public _buyMarketingFee = 0 */\n  0x0d\n  sstore\n    /* \"contracts/gainzilla.sol\":9264:9280  _buyMarketingFee */\n  sload(0x0d)\n    /* \"contracts/gainzilla.sol\":9221:9280  uint256 private _previousBuyMarketingFee = _buyMarketingFee */\n  0x0e\n  sstore\n    /* \"contracts/gainzilla.sol\":9315:9316  0 */\n  0x00\n    /* \"contracts/gainzilla.sol\":9286:9316  uint256 public _buyTeamFee = 0 */\n  0x0f\n  sstore\n    /* \"contracts/gainzilla.sol\":9379:9390  _buyTeamFee */\n  sload(0x0f)\n    /* \"contracts/gainzilla.sol\":9341:9390  uint256 private _previousBuyTeamFee = _buyTeamFee */\n  0x10\n  sstore\n    /* \"contracts/gainzilla.sol\":9449:9450  0 */\n  0x00\n    /* \"contracts/gainzilla.sol\":9414:9450  uint256 public _sellLiquidityFee = 0 */\n  0x11\n  sstore\n    /* \"contracts/gainzilla.sol\":9519:9536  _sellLiquidityFee */\n  sload(0x11)\n    /* \"contracts/gainzilla.sol\":9475:9536  uint256 private _previousSellLiquidityFee = _sellLiquidityFee */\n  0x12\n  sstore\n    /* \"contracts/gainzilla.sol\":9577:9578  0 */\n  0x00\n    /* \"contracts/gainzilla.sol\":9542:9578  uint256 public _sellEcosystemFee = 0 */\n  0x13\n  sstore\n    /* \"contracts/gainzilla.sol\":9647:9664  _sellEcosystemFee */\n  sload(0x13)\n    /* \"contracts/gainzilla.sol\":9603:9664  uint256 private _previousSellEcosystemFee = _sellEcosystemFee */\n  0x14\n  sstore\n    /* \"contracts/gainzilla.sol\":9705:9706  0 */\n  0x00\n    /* \"contracts/gainzilla.sol\":9670:9706  uint256 public _sellMarketingFee = 0 */\n  0x15\n  sstore\n    /* \"contracts/gainzilla.sol\":9775:9792  _sellMarketingFee */\n  sload(0x15)\n    /* \"contracts/gainzilla.sol\":9731:9792  uint256 private _previousSellMarketingFee = _sellMarketingFee */\n  0x16\n  sstore\n    /* \"contracts/gainzilla.sol\":9828:9829  0 */\n  0x00\n    /* \"contracts/gainzilla.sol\":9798:9829  uint256 public _sellTeamFee = 0 */\n  0x17\n  sstore\n    /* \"contracts/gainzilla.sol\":9893:9905  _sellTeamFee */\n  sload(0x17)\n    /* \"contracts/gainzilla.sol\":9854:9905  uint256 private _previousSellTeamFee = _sellTeamFee */\n  0x18\n  sstore\n    /* \"contracts/gainzilla.sol\":9954:9955  0 */\n  0x00\n    /* \"contracts/gainzilla.sol\":9911:9955  uint256 public transferFeeIncreaseFactor = 0 */\n  0x19\n  sstore\n    /* \"contracts/gainzilla.sol\":10619:10626  owner() */\n  tag_1\n    /* \"contracts/gainzilla.sol\":10619:10624  owner */\n  shl(0x20, tag_2)\n    /* \"contracts/gainzilla.sol\":10619:10626  owner() */\n  0x20\n  shr\n  jump\t// in\ntag_1:\n    /* \"contracts/gainzilla.sol\":10567:10627  address payable private _marketingAddress = payable(owner()) */\n  0x21\n  dup1\n  sload\n  not(sub(shl(0xa0, 0x01), 0x01))\n  swap1\n  dup2\n  and\n  sub(shl(0xa0, 0x01), 0x01)\n  swap4\n  dup5\n  and\n  or\n  swap1\n  swap2\n  sstore\n  0x00\n    /* \"contracts/gainzilla.sol\":3018:3024  _owner */\n  sload\n    /* \"contracts/gainzilla.sol\":10633:10688  address payable private _teamAddress = payable(owner()) */\n  0x22\n  dup1\n  sload\n    /* \"contracts/gainzilla.sol\":3018:3024  _owner */\n  swap2\n  swap1\n  swap4\n  and\n    /* \"contracts/gainzilla.sol\":10633:10688  address payable private _teamAddress = payable(owner()) */\n  swap1\n  dup3\n  and\n  dup2\n  or\n  swap1\n  swap3\n  sstore\n    /* \"contracts/gainzilla.sol\":10694:10754  address payable private _ecosystemAddress = payable(owner()) */\n  0x23\n  dup1\n  sload\n  dup3\n  and\n  dup4\n  or\n  swap1\n  sstore\n    /* \"contracts/gainzilla.sol\":10760:10815  address payable private _lpRecipient = payable(owner()) */\n  0x24\n  dup1\n  sload\n  swap1\n  swap2\n  and\n  swap1\n  swap2\n  or\n  swap1\n  sstore\n    /* \"contracts/gainzilla.sol\":10938:10969  bool public tradingOpen = false */\n  0x28\n  dup1\n  sload\n  not(0xffffffffff)\n    /* \"contracts/gainzilla.sol\":11078:11109  bool public canChangeTax = true */\n  and\n  0x0101010000\n  or\n  swap1\n  sstore\n    /* \"contracts/gainzilla.sol\":11515:12247  constructor() {... */\n  callvalue\n  dup1\n  iszero\n  tag_6\n  jumpi\n  0x00\n  dup1\n  revert\ntag_6:\n  pop\n    /* \"contracts/gainzilla.sol\":2823:2840  address msgSender */\n  0x00\n    /* \"contracts/gainzilla.sol\":2865:2883  _owner = msgSender */\n  dup1\n  sload\n  not(sub(shl(0xa0, 0x01), 0x01))\n  and\n    /* \"contracts/gainzilla.sol\":818:828  msg.sender */\n  caller\n    /* \"contracts/gainzilla.sol\":2865:2883  _owner = msgSender */\n  swap1\n  dup2\n  or\n  dup3\n  sstore\n    /* \"contracts/gainzilla.sol\":2898:2941  OwnershipTransferred(address(0), msgSender) */\n  mload(0x40)\n    /* \"contracts/gainzilla.sol\":818:828  msg.sender */\n  swap1\n  swap2\n  dup3\n  swap2\n    /* \"contracts/gainzilla.sol\":2898:2941  OwnershipTransferred(address(0), msgSender) */\n  0x8be0079c531659141344cd1fd0a4f28419497f9722a3daafe3b4186f6b6457e0\n  swap1\n    /* \"contracts/gainzilla.sol\":2823:2840  address msgSender */\n  dup3\n  swap1\n    /* \"contracts/gainzilla.sol\":2898:2941  OwnershipTransferred(address(0), msgSender) */\n  log3\n  pop\n    /* \"contracts/gainzilla.sol\":11649:11664  uniswapV2Router */\n  0x25\n    /* \"contracts/gainzilla.sol\":11649:11683  uniswapV2Router = _uniswapV2Router */\n  dup1\n  sload\n  not(sub(shl(0xa0, 0x01), 0x01))\n  and\n    /* \"contracts/gainzilla.sol\":11596:11638  0x10ED43C718714eb63d5aA57B78B54704E256024E */\n  0x10ed43c718714eb63d5aa57b78b54704e256024e\n    /* \"contracts/gainzilla.sol\":11649:11683  uniswapV2Router = _uniswapV2Router */\n  swap1\n  dup2\n  or\n  swap1\n  swap2\n  sstore\n    /* \"contracts/gainzilla.sol\":11693:11751  _approve(address(this), address(uniswapV2Router), _tTotal) */\n  tag_13\n    /* \"contracts/gainzilla.sol\":11710:11714  this */\n  address\n    /* \"contracts/gainzilla.sol\":11596:11638  0x10ED43C718714eb63d5aA57B78B54704E256024E */\n  dup3\n    /* \"contracts/gainzilla.sol\":8636:8654  1000000000 * 10**9 */\n  0x0de0b6b3a7640000\n    /* \"contracts/gainzilla.sol\":11693:11701  _approve */\n  tag_14\n    /* \"contracts/gainzilla.sol\":11693:11751  _approve(address(this), address(uniswapV2Router), _tTotal) */\n  jump\t// in\ntag_13:\n    /* \"contracts/gainzilla.sol\":11795:11811  _uniswapV2Router */\n  dup1\n  sub(shl(0xa0, 0x01), 0x01)\n    /* \"contracts/gainzilla.sol\":11795:11819  _uniswapV2Router.factory */\n  and\n  0xc45a0155\n    /* \"contracts/gainzilla.sol\":11795:11821  _uniswapV2Router.factory() */\n  mload(0x40)\n  dup2\n  0xffffffff\n  and\n  0xe0\n  shl\n  dup2\n  mstore\n  0x04\n  add\n  0x20\n  mload(0x40)\n  dup1\n  dup4\n  sub\n  dup2\n  dup7\n  dup1\n  extcodesize\n  iszero\n  dup1\n  iszero\n  tag_15\n  jumpi\n  0x00\n  dup1\n  revert\ntag_15:\n  pop\n  gas\n  staticcall\n  iszero\n  dup1\n  iszero\n  tag_17\n  jumpi\n  returndatasize\n  0x00\n  dup1\n  returndatacopy\n  revert(0x00, returndatasize)\ntag_17:\n  pop\n  pop\n  pop\n  pop\n  mload(0x40)\n  returndatasize\n  not(0x1f)\n  0x1f\n  dup3\n  add\n  and\n  dup3\n  add\n  dup1\n  0x40\n  mstore\n  pop\n  dup2\n  add\n  swap1\n  tag_18\n  swap2\n  swap1\n  tag_19\n  jump\t// in\ntag_18:\n  sub(shl(0xa0, 0x01), 0x01)\n    /* \"contracts/gainzilla.sol\":11777:11833  IUniswapV2Factory(_uniswapV2Router.factory()).createPair */\n  and\n  0xc9c65396\n    /* \"contracts/gainzilla.sol\":11842:11846  this */\n  address\n    /* \"contracts/gainzilla.sol\":11849:11865  _uniswapV2Router */\n  dup4\n  sub(shl(0xa0, 0x01), 0x01)\n    /* \"contracts/gainzilla.sol\":11849:11870  _uniswapV2Router.WETH */\n  and\n  0xad5c4648\n    /* \"contracts/gainzilla.sol\":11849:11872  _uniswapV2Router.WETH() */\n  mload(0x40)\n  dup2\n  0xffffffff\n  and\n  0xe0\n  shl\n  dup2\n  mstore\n  0x04\n  add\n  0x20\n  mload(0x40)\n  dup1\n  dup4\n  sub\n  dup2\n  dup7\n  dup1\n  extcodesize\n  iszero\n  dup1\n  iszero\n  tag_20\n  jumpi\n  0x00\n  dup1\n  revert\ntag_20:\n  pop\n  gas\n  staticcall\n  iszero\n  dup1\n  iszero\n  tag_22\n  jumpi\n  returndatasize\n  0x00\n  dup1\n  returndatacopy\n  revert(0x00, returndatasize)\ntag_22:\n  pop\n  pop\n  pop\n  pop\n  mload(0x40)\n  returndatasize\n  not(0x1f)\n  0x1f\n  dup3\n  add\n  and\n  dup3\n  add\n  dup1\n  0x40\n  mstore\n  pop\n  dup2\n  add\n  swap1\n  tag_23\n  swap2\n  swap1\n  tag_19\n  jump\t// in\ntag_23:\n    /* \"contracts/gainzilla.sol\":11777:11873  IUniswapV2Factory(_uniswapV2Router.factory()).createPair(address(this), _uniswapV2Router.WETH()) */\n  mload(0x40)\n  not(sub(shl(0xe0, 0x01), 0x01))\n  0xe0\n  dup6\n  swap1\n  shl\n  and\n  dup2\n  mstore\n  sub(shl(0xa0, 0x01), 0x01)\n    /* \"#utility.yul\":861:876   */\n  swap3\n  dup4\n  and\n    /* \"contracts/gainzilla.sol\":11777:11873  IUniswapV2Factory(_uniswapV2Router.factory()).createPair(address(this), _uniswapV2Router.WETH()) */\n  0x04\n  dup3\n  add\n    /* \"#utility.yul\":843:877   */\n  mstore\n    /* \"#utility.yul\":913:928   */\n  swap2\n  and\n    /* \"#utility.yul\":893:911   */\n  0x24\n  dup3\n  add\n    /* \"#utility.yul\":886:929   */\n  mstore\n    /* \"#utility.yul\":778:796   */\n  0x44\n  add\n    /* \"contracts/gainzilla.sol\":11777:11873  IUniswapV2Factory(_uniswapV2Router.factory()).createPair(address(this), _uniswapV2Router.WETH()) */\n  0x20\n  mload(0x40)\n  dup1\n  dup4\n  sub\n  dup2\n  0x00\n  dup8\n  dup1\n  extcodesize\n  iszero\n  dup1\n  iszero\n  tag_26\n  jumpi\n  0x00\n  dup1\n  revert\ntag_26:\n  pop\n  gas\n  call\n  iszero\n  dup1\n  iszero\n  tag_28\n  jumpi\n  returndatasize\n  0x00\n  dup1\n  returndatacopy\n  revert(0x00, returndatasize)\ntag_28:\n  pop\n  pop\n  pop\n  pop\n  mload(0x40)\n  returndatasize\n  not(0x1f)\n  0x1f\n  dup3\n  add\n  and\n  dup3\n  add\n  dup1\n  0x40\n  mstore\n  pop\n  dup2\n  add\n  swap1\n  tag_29\n  swap2\n  swap1\n  tag_19\n  jump\t// in\ntag_29:\n    /* \"contracts/gainzilla.sol\":11761:11774  uniswapV2Pair */\n  0x26\n    /* \"contracts/gainzilla.sol\":11761:11873  uniswapV2Pair = IUniswapV2Factory(_uniswapV2Router.factory()).createPair(address(this), _uniswapV2Router.WETH()) */\n  dup1\n  sload\n  not(sub(shl(0xa0, 0x01), 0x01))\n  and\n  sub(shl(0xa0, 0x01), 0x01)\n  swap3\n  dup4\n  and\n  swap1\n  dup2\n  or\n  swap1\n  swap2\n  sstore\n    /* \"contracts/gainzilla.sol\":11921:11936  uniswapV2Router */\n  sload(0x25)\n    /* \"contracts/gainzilla.sol\":11883:11956  IERC20(uniswapV2Pair).approve(address(uniswapV2Router),type(uint256).max) */\n  mload(0x40)\n  shl(0xe0, 0x095ea7b3)\n  dup2\n  mstore\n    /* \"contracts/gainzilla.sol\":11921:11936  uniswapV2Router */\n  swap3\n  and\n    /* \"contracts/gainzilla.sol\":11883:11956  IERC20(uniswapV2Pair).approve(address(uniswapV2Router),type(uint256).max) */\n  0x04\n  dup4\n  add\n    /* \"#utility.yul\":1114:1165   */\n  mstore\n  not(0x00)\n    /* \"#utility.yul\":1181:1199   */\n  0x24\n  dup4\n  add\n    /* \"#utility.yul\":1174:1208   */\n  mstore\n    /* \"contracts/gainzilla.sol\":11761:11873  uniswapV2Pair = IUniswapV2Factory(_uniswapV2Router.factory()).createPair(address(this), _uniswapV2Router.WETH()) */\n  swap1\n    /* \"contracts/gainzilla.sol\":11883:11912  IERC20(uniswapV2Pair).approve */\n  0x095ea7b3\n  swap1\n    /* \"#utility.yul\":1087:1105   */\n  0x44\n  add\n    /* \"contracts/gainzilla.sol\":11883:11956  IERC20(uniswapV2Pair).approve(address(uniswapV2Router),type(uint256).max) */\n  0x20\n  mload(0x40)\n  dup1\n  dup4\n  sub\n  dup2\n  0x00\n  dup8\n  dup1\n  extcodesize\n  iszero\n  dup1\n  iszero\n  tag_32\n  jumpi\n  0x00\n  dup1\n  revert\ntag_32:\n  pop\n  gas\n  call\n  iszero\n  dup1\n  iszero\n  tag_34\n  jumpi\n  returndatasize\n  0x00\n  dup1\n  returndatacopy\n  revert(0x00, returndatasize)\ntag_34:\n  pop\n  pop\n  pop\n  pop\n  mload(0x40)\n  returndatasize\n  not(0x1f)\n  0x1f\n  dup3\n  add\n  and\n  dup3\n  add\n  dup1\n  0x40\n  mstore\n  pop\n  dup2\n  add\n  swap1\n  tag_35\n  swap2\n  swap1\n  tag_36\n  jump\t// in\ntag_35:\n  pop\n    /* \"contracts/gainzilla.sol\":8636:8654  1000000000 * 10**9 */\n  0x0de0b6b3a7640000\n    /* \"contracts/gainzilla.sol\":11967:11979  _maxTxAmount */\n  0x27\n    /* \"contracts/gainzilla.sol\":11967:11989  _maxTxAmount = _tTotal */\n  dup2\n  swap1\n  sstore\n    /* \"contracts/gainzilla.sol\":818:828  msg.sender */\n  caller\n    /* \"contracts/gainzilla.sol\":12055:12078  _balances[_msgSender()] */\n  0x00\n  dup2\n  dup2\n  mstore\n    /* \"contracts/gainzilla.sol\":12055:12064  _balances */\n  0x02\n    /* \"contracts/gainzilla.sol\":12055:12078  _balances[_msgSender()] */\n  0x20\n  swap1\n  dup2\n  mstore\n  0x40\n  dup1\n  dup4\n  keccak256\n    /* \"contracts/gainzilla.sol\":12055:12088  _balances[_msgSender()] = _tTotal */\n  dup6\n  swap1\n  sstore\n    /* \"contracts/gainzilla.sol\":3018:3024  _owner */\n  dup3\n  sload\n  sub(shl(0xa0, 0x01), 0x01)\n  and\n    /* \"contracts/gainzilla.sol\":12098:12125  _isExcludedFromFee[owner()] */\n  dup4\n  mstore\n    /* \"contracts/gainzilla.sol\":12098:12116  _isExcludedFromFee */\n  0x04\n    /* \"contracts/gainzilla.sol\":12098:12125  _isExcludedFromFee[owner()] */\n  dup3\n  mstore\n  dup1\n  dup4\n  keccak256\n    /* \"contracts/gainzilla.sol\":12098:12132  _isExcludedFromFee[owner()] = true */\n  dup1\n  sload\n    /* \"contracts/gainzilla.sol\":12128:12132  true */\n  0x01\n  not(0xff)\n    /* \"contracts/gainzilla.sol\":12098:12132  _isExcludedFromFee[owner()] = true */\n  swap2\n  dup3\n  and\n  dup2\n  or\n  swap1\n  swap3\n  sstore\n    /* \"contracts/gainzilla.sol\":12169:12173  this */\n  address\n    /* \"contracts/gainzilla.sol\":12142:12175  _isExcludedFromFee[address(this)] */\n  dup6\n  mstore\n  dup3\n  dup6\n  keccak256\n    /* \"contracts/gainzilla.sol\":12142:12182  _isExcludedFromFee[address(this)] = true */\n  dup1\n  sload\n  swap1\n  swap2\n  and\n  swap1\n  swap2\n  or\n  swap1\n  sstore\n    /* \"contracts/gainzilla.sol\":12197:12240  Transfer(address(0), _msgSender(), _tTotal) */\n  mload\n    /* \"#utility.yul\":2173:2198   */\n  swap4\n  dup5\n  mstore\n    /* \"contracts/gainzilla.sol\":818:828  msg.sender */\n  swap2\n  swap3\n    /* \"contracts/gainzilla.sol\":12055:12078  _balances[_msgSender()] */\n  swap1\n  swap2\n    /* \"contracts/gainzilla.sol\":12197:12240  Transfer(address(0), _msgSender(), _tTotal) */\n  0xddf252ad1be2c89b69c2b068fc378daa952ba7f163c4a11628f55a4df523b3ef\n  swap2\n    /* \"#utility.yul\":2146:2164   */\n  add\n    /* \"contracts/gainzilla.sol\":12197:12240  Transfer(address(0), _msgSender(), _tTotal) */\n  mload(0x40)\n  dup1\n  swap2\n  sub\n  swap1\n  log3\n    /* \"contracts/gainzilla.sol\":11515:12247  constructor() {... */\n  pop\n    /* \"contracts/gainzilla.sol\":8181:30551  contract gainZilla is Context, IERC20, IERC20Extented, Ownable {... */\n  jump(tag_53)\n    /* \"contracts/gainzilla.sol\":2954:3031  function owner() public view returns (address) {... */\ntag_2:\n    /* \"contracts/gainzilla.sol\":2992:2999  address */\n  0x00\n    /* \"contracts/gainzilla.sol\":3018:3024  _owner */\n  sload\n  sub(shl(0xa0, 0x01), 0x01)\n  and\n  swap1\n    /* \"contracts/gainzilla.sol\":2954:3031  function owner() public view returns (address) {... */\n  jump\t// out\n    /* \"contracts/gainzilla.sol\":14855:15185  function _approve(address owner, address spender, uint256 amount) private {... */\ntag_14:\n  sub(shl(0xa0, 0x01), 0x01)\n    /* \"contracts/gainzilla.sol\":14947:14966  owner != address(0) */\n  dup4\n  and\n    /* \"contracts/gainzilla.sol\":14939:15007  require(owner != address(0), \"ERC20: approve from the zero address\") */\n  tag_46\n  jumpi\n  mload(0x40)\n  shl(0xe5, 0x461bcd)\n  dup2\n  mstore\n    /* \"#utility.yul\":1824:1826   */\n  0x20\n    /* \"contracts/gainzilla.sol\":14939:15007  require(owner != address(0), \"ERC20: approve from the zero address\") */\n  0x04\n  dup3\n  add\n    /* \"#utility.yul\":1806:1827   */\n  mstore\n    /* \"#utility.yul\":1863:1865   */\n  0x24\n    /* \"#utility.yul\":1843:1861   */\n  dup1\n  dup3\n  add\n    /* \"#utility.yul\":1836:1866   */\n  mstore\n    /* \"#utility.yul\":1902:1936   */\n  0x45524332303a20617070726f76652066726f6d20746865207a65726f20616464\n    /* \"#utility.yul\":1882:1900   */\n  0x44\n  dup3\n  add\n    /* \"#utility.yul\":1875:1937   */\n  mstore\n  shl(0xe0, 0x72657373)\n    /* \"#utility.yul\":1953:1971   */\n  0x64\n  dup3\n  add\n    /* \"#utility.yul\":1946:1980   */\n  mstore\n    /* \"#utility.yul\":1997:2016   */\n  0x84\n  add\n    /* \"contracts/gainzilla.sol\":14939:15007  require(owner != address(0), \"ERC20: approve from the zero address\") */\ntag_47:\n  mload(0x40)\n  dup1\n  swap2\n  sub\n  swap1\n  revert\ntag_46:\n  sub(shl(0xa0, 0x01), 0x01)\n    /* \"contracts/gainzilla.sol\":15025:15046  spender != address(0) */\n  dup3\n  and\n    /* \"contracts/gainzilla.sol\":15017:15085  require(spender != address(0), \"ERC20: approve to the zero address\") */\n  tag_49\n  jumpi\n  mload(0x40)\n  shl(0xe5, 0x461bcd)\n  dup2\n  mstore\n    /* \"#utility.yul\":1421:1423   */\n  0x20\n    /* \"contracts/gainzilla.sol\":15017:15085  require(spender != address(0), \"ERC20: approve to the zero address\") */\n  0x04\n  dup3\n  add\n    /* \"#utility.yul\":1403:1424   */\n  mstore\n    /* \"#utility.yul\":1460:1462   */\n  0x22\n    /* \"#utility.yul\":1440:1458   */\n  0x24\n  dup3\n  add\n    /* \"#utility.yul\":1433:1463   */\n  mstore\n    /* \"#utility.yul\":1499:1533   */\n  0x45524332303a20617070726f766520746f20746865207a65726f206164647265\n    /* \"#utility.yul\":1479:1497   */\n  0x44\n  dup3\n  add\n    /* \"#utility.yul\":1472:1534   */\n  mstore\n  shl(0xf0, 0x7373)\n    /* \"#utility.yul\":1550:1568   */\n  0x64\n  dup3\n  add\n    /* \"#utility.yul\":1543:1575   */\n  mstore\n    /* \"#utility.yul\":1592:1611   */\n  0x84\n  add\n    /* \"contracts/gainzilla.sol\":15017:15085  require(spender != address(0), \"ERC20: approve to the zero address\") */\n  tag_47\n    /* \"#utility.yul\":1393:1617   */\n  jump\n    /* \"contracts/gainzilla.sol\":15017:15085  require(spender != address(0), \"ERC20: approve to the zero address\") */\ntag_49:\n  sub(shl(0xa0, 0x01), 0x01)\n    /* \"contracts/gainzilla.sol\":15095:15113  _allowances[owner] */\n  dup4\n  dup2\n  and\n  0x00\n  dup2\n  dup2\n  mstore\n    /* \"contracts/gainzilla.sol\":15095:15106  _allowances */\n  0x03\n    /* \"contracts/gainzilla.sol\":15095:15113  _allowances[owner] */\n  0x20\n  swap1\n  dup2\n  mstore\n  0x40\n  dup1\n  dup4\n  keccak256\n    /* \"contracts/gainzilla.sol\":15095:15122  _allowances[owner][spender] */\n  swap5\n  dup8\n  and\n  dup1\n  dup5\n  mstore\n  swap5\n  dup3\n  mstore\n  swap2\n  dup3\n  swap1\n  keccak256\n    /* \"contracts/gainzilla.sol\":15095:15131  _allowances[owner][spender] = amount */\n  dup6\n  swap1\n  sstore\n    /* \"contracts/gainzilla.sol\":15146:15178  Approval(owner, spender, amount) */\n  swap1\n  mload\n    /* \"#utility.yul\":2173:2198   */\n  dup5\n  dup2\n  mstore\n    /* \"contracts/gainzilla.sol\":15146:15178  Approval(owner, spender, amount) */\n  0x8c5be1e5ebec7d5bd14f71427d1e84f3dd0314c0f7b2291e5b200ac8c7c3b925\n  swap2\n    /* \"#utility.yul\":2146:2164   */\n  add\n    /* \"contracts/gainzilla.sol\":15146:15178  Approval(owner, spender, amount) */\n  mload(0x40)\n  dup1\n  swap2\n  sub\n  swap1\n  log3\n    /* \"contracts/gainzilla.sol\":14855:15185  function _approve(address owner, address spender, uint256 amount) private {... */\n  pop\n  pop\n  pop\n  jump\t// out\n    /* \"#utility.yul\":14:324   */\ntag_19:\n    /* \"#utility.yul\":84:90   */\n  0x00\n    /* \"#utility.yul\":137:139   */\n  0x20\n    /* \"#utility.yul\":125:134   */\n  dup3\n    /* \"#utility.yul\":116:123   */\n  dup5\n    /* \"#utility.yul\":112:135   */\n  sub\n    /* \"#utility.yul\":108:140   */\n  slt\n    /* \"#utility.yul\":105:107   */\n  iszero\n  tag_55\n  jumpi\n    /* \"#utility.yul\":158:164   */\n  dup1\n    /* \"#utility.yul\":150:156   */\n  dup2\n    /* \"#utility.yul\":143:165   */\n  revert\n    /* \"#utility.yul\":105:107   */\ntag_55:\n    /* \"#utility.yul\":189:205   */\n  dup2\n  mload\n  sub(shl(0xa0, 0x01), 0x01)\n    /* \"#utility.yul\":234:265   */\n  dup2\n  and\n    /* \"#utility.yul\":224:266   */\n  dup2\n  eq\n    /* \"#utility.yul\":214:216   */\n  tag_56\n  jumpi\n    /* \"#utility.yul\":285:291   */\n  dup2\n    /* \"#utility.yul\":277:283   */\n  dup3\n    /* \"#utility.yul\":270:292   */\n  revert\n    /* \"#utility.yul\":214:216   */\ntag_56:\n    /* \"#utility.yul\":313:318   */\n  swap4\n    /* \"#utility.yul\":95:324   */\n  swap3\n  pop\n  pop\n  pop\n  jump\t// out\n    /* \"#utility.yul\":329:626   */\ntag_36:\n    /* \"#utility.yul\":396:402   */\n  0x00\n    /* \"#utility.yul\":449:451   */\n  0x20\n    /* \"#utility.yul\":437:446   */\n  dup3\n    /* \"#utility.yul\":428:435   */\n  dup5\n    /* \"#utility.yul\":424:447   */\n  sub\n    /* \"#utility.yul\":420:452   */\n  slt\n    /* \"#utility.yul\":417:419   */\n  iszero\n  tag_58\n  jumpi\n    /* \"#utility.yul\":470:476   */\n  dup1\n    /* \"#utility.yul\":462:468   */\n  dup2\n    /* \"#utility.yul\":455:477   */\n  revert\n    /* \"#utility.yul\":417:419   */\ntag_58:\n    /* \"#utility.yul\":507:516   */\n  dup2\n    /* \"#utility.yul\":501:517   */\n  mload\n    /* \"#utility.yul\":560:565   */\n  dup1\n    /* \"#utility.yul\":553:566   */\n  iszero\n    /* \"#utility.yul\":546:567   */\n  iszero\n    /* \"#utility.yul\":539:544   */\n  dup2\n    /* \"#utility.yul\":536:568   */\n  eq\n    /* \"#utility.yul\":526:528   */\n  tag_56\n  jumpi\n    /* \"#utility.yul\":587:593   */\n  dup2\n    /* \"#utility.yul\":579:585   */\n  dup3\n    /* \"#utility.yul\":572:594   */\n  revert\n    /* \"#utility.yul\":2128:2204   */\ntag_53:\n    /* \"contracts/gainzilla.sol\":8181:30551  contract gainZilla is Context, IERC20, IERC20Extented, Ownable {... */\n  dataSize(sub_0)\n  dup1\n  dataOffset(sub_0)\n  0x00\n  codecopy\n  0x00\n  return\nstop\n\nsub_0: assembly {\n        /* \"contracts/gainzilla.sol\":8181:30551  contract gainZilla is Context, IERC20, IERC20Extented, Ownable {... */\n      mstore(0x40, 0x80)\n      jumpi(tag_1, lt(calldatasize, 0x04))\n      shr(0xe0, calldataload(0x00))\n      dup1\n      0x88790a68\n      gt\n      tag_61\n      jumpi\n      dup1\n      0xcab03471\n      gt\n      tag_62\n      jumpi\n      dup1\n      0xe315a6da\n      gt\n      tag_63\n      jumpi\n      dup1\n      0xf480fec2\n      gt\n      tag_64\n      jumpi\n      dup1\n      0xf480fec2\n      eq\n      tag_57\n      jumpi\n      dup1\n      0xfe0bb982\n      eq\n      tag_58\n      jumpi\n      dup1\n      0xffb54a99\n      eq\n      tag_59\n      jumpi\n      dup1\n      0xffecf516\n      eq\n      tag_60\n      jumpi\n      0x00\n      dup1\n      revert\n    tag_64:\n      dup1\n      0xe315a6da\n      eq\n      tag_53\n      jumpi\n      dup1\n      0xe4bf1bed\n      eq\n      tag_54\n      jumpi\n      dup1\n      0xea2f0b37\n      eq\n      tag_55\n      jumpi\n      dup1\n      0xf2fde38b\n      eq\n      tag_56\n      jumpi\n      0x00\n      dup1\n      revert\n    tag_63:\n      dup1\n      0xd55cb78a\n      gt\n      tag_65\n      jumpi\n      dup1\n      0xd55cb78a\n      eq\n      tag_49\n      jumpi\n      dup1\n      0xdb0045ec\n      eq\n      tag_50\n      jumpi\n      dup1\n      0xdc44b6a0\n      eq\n      tag_51\n      jumpi\n      dup1\n      0xdd62ed3e\n      eq\n      tag_52\n      jumpi\n      0x00\n      dup1\n      revert\n    tag_65:\n      dup1\n      0xcab03471\n      eq\n      tag_46\n      jumpi\n      dup1\n      0xcdb3858f\n      eq\n      tag_47\n      jumpi\n      dup1\n      0xd1633649\n      eq\n      tag_48\n      jumpi\n      0x00\n      dup1\n      revert\n    tag_62:\n      dup1\n      0xa850673d\n      gt\n      tag_66\n      jumpi\n      dup1\n      0xc469b6dd\n      gt\n      tag_67\n      jumpi\n      dup1\n      0xc469b6dd\n      eq\n      tag_42\n      jumpi\n      dup1\n      0xc5d24189\n      eq\n      tag_43\n      jumpi\n      dup1\n      0xc8607952\n      eq\n      tag_44\n      jumpi\n      dup1\n      0xc95457ff\n      eq\n      tag_45\n      jumpi\n      0x00\n      dup1\n      revert\n    tag_67:\n      dup1\n      0xa850673d\n      eq\n      tag_39\n      jumpi\n      dup1\n      0xa9059cbb\n      eq\n      tag_40\n      jumpi\n      dup1\n      0xc3c8cd80\n      eq\n      tag_41\n      jumpi\n      0x00\n      dup1\n      revert\n    tag_66:\n      dup1\n      0x9491f94d\n      gt\n      tag_68\n      jumpi\n      dup1\n      0x9491f94d\n      eq\n      tag_35\n      jumpi\n      dup1\n      0x95d89b41\n      eq\n      tag_36\n      jumpi\n      dup1\n      0x99a7b9bc\n      eq\n      tag_37\n      jumpi\n      dup1\n      0x9d82190f\n      eq\n      tag_38\n      jumpi\n      0x00\n      dup1\n      revert\n    tag_68:\n      dup1\n      0x88790a68\n      eq\n      tag_32\n      jumpi\n      dup1\n      0x8da5cb5b\n      eq\n      tag_33\n      jumpi\n      dup1\n      0x8e360253\n      eq\n      tag_34\n      jumpi\n      0x00\n      dup1\n      revert\n    tag_61:\n      dup1\n      0x39a53c4e\n      gt\n      tag_69\n      jumpi\n      dup1\n      0x6c0a24eb\n      gt\n      tag_70\n      jumpi\n      dup1\n      0x729cb3f2\n      gt\n      tag_71\n      jumpi\n      dup1\n      0x729cb3f2\n      eq\n      tag_28\n      jumpi\n      dup1\n      0x72b2aecc\n      eq\n      tag_29\n      jumpi\n      dup1\n      0x787a08a6\n      eq\n      tag_30\n      jumpi\n      dup1\n      0x80670f3c\n      eq\n      tag_31\n      jumpi\n      0x00\n      dup1\n      revert\n    tag_71:\n      dup1\n      0x6c0a24eb\n      eq\n      tag_24\n      jumpi\n      dup1\n      0x6fc3eaec\n      eq\n      tag_25\n      jumpi\n      dup1\n      0x70a08231\n      eq\n      tag_26\n      jumpi\n      dup1\n      0x715018a6\n      eq\n      tag_27\n      jumpi\n      0x00\n      dup1\n      revert\n    tag_70:\n      dup1\n      0x437823ec\n      gt\n      tag_72\n      jumpi\n      dup1\n      0x437823ec\n      eq\n      tag_20\n      jumpi\n      dup1\n      0x49bd5a5e\n      eq\n      tag_21\n      jumpi\n      dup1\n      0x5fecd926\n      eq\n      tag_22\n      jumpi\n      dup1\n      0x6aabff3f\n      eq\n      tag_23\n      jumpi\n      0x00\n      dup1\n      revert\n    tag_72:\n      dup1\n      0x39a53c4e\n      eq\n      tag_17\n      jumpi\n      dup1\n      0x3bbac579\n      eq\n      tag_18\n      jumpi\n      dup1\n      0x3e0f966d\n      eq\n      tag_19\n      jumpi\n      0x00\n      dup1\n      revert\n    tag_69:\n      dup1\n      0x248dd232\n      gt\n      tag_73\n      jumpi\n      dup1\n      0x29409395\n      gt\n      tag_74\n      jumpi\n      dup1\n      0x29409395\n      eq\n      tag_13\n      jumpi\n      dup1\n      0x301ad558\n      eq\n      tag_14\n      jumpi\n      dup1\n      0x313ce567\n      eq\n      tag_15\n      jumpi\n      dup1\n      0x323be1c5\n      eq\n      tag_16\n      jumpi\n      0x00\n      dup1\n      revert\n    tag_74:\n      dup1\n      0x248dd232\n      eq\n      tag_10\n      jumpi\n      dup1\n      0x27a14fc2\n      eq\n      tag_11\n      jumpi\n      dup1\n      0x2843631d\n      eq\n      tag_12\n      jumpi\n      0x00\n      dup1\n      revert\n    tag_73:\n      dup1\n      0x14eb76ac\n      gt\n      tag_75\n      jumpi\n      dup1\n      0x14eb76ac\n      eq\n      tag_6\n      jumpi\n      dup1\n      0x18160ddd\n      eq\n      tag_7\n      jumpi\n      dup1\n      0x2369bf83\n      eq\n      tag_8\n      jumpi\n      dup1\n      0x23b872dd\n      eq\n      tag_9\n      jumpi\n      0x00\n      dup1\n      revert\n    tag_75:\n      dup1\n      0x01a6c43b\n      eq\n      tag_3\n      jumpi\n      dup1\n      0x06fdde03\n      eq\n      tag_4\n      jumpi\n      dup1\n      0x095ea7b3\n      eq\n      tag_5\n      jumpi\n      0x00\n      dup1\n      revert\n    tag_1:\n      jumpi(tag_2, calldatasize)\n      stop\n    tag_2:\n      0x00\n      dup1\n      revert\n        /* \"contracts/gainzilla.sol\":8801:8849  uint256 public numTokensToSwap = 1000000 * 10**9 */\n    tag_3:\n      callvalue\n      dup1\n      iszero\n      tag_78\n      jumpi\n      0x00\n      dup1\n      revert\n    tag_78:\n      pop\n      tag_79\n      sload(0x08)\n      dup2\n      jump\n    tag_79:\n      mload(0x40)\n        /* \"#utility.yul\":7136:7161   */\n      swap1\n      dup2\n      mstore\n        /* \"#utility.yul\":7124:7126   */\n      0x20\n        /* \"#utility.yul\":7109:7127   */\n      add\n        /* \"contracts/gainzilla.sol\":8801:8849  uint256 public numTokensToSwap = 1000000 * 10**9 */\n    tag_81:\n      mload(0x40)\n      dup1\n      swap2\n      sub\n      swap1\n      return\n        /* \"contracts/gainzilla.sol\":12253:12345  function name() override external pure returns (string memory) {... */\n    tag_4:\n      callvalue\n      dup1\n      iszero\n      tag_83\n      jumpi\n      0x00\n      dup1\n      revert\n    tag_83:\n      pop\n        /* \"contracts/gainzilla.sol\":12333:12338  _name */\n      0x40\n      dup1\n      mload\n      dup1\n      dup3\n      add\n      swap1\n      swap2\n      mstore\n      0x09\n      dup2\n      mstore\n      0x4761696e5a696c6c610000000000000000000000000000000000000000000000\n      0x20\n      dup3\n      add\n      mstore\n        /* \"contracts/gainzilla.sol\":12253:12345  function name() override external pure returns (string memory) {... */\n    tag_84:\n      mload(0x40)\n      tag_81\n      swap2\n      swap1\n      tag_87\n      jump\t// in\n        /* \"contracts/gainzilla.sol\":13202:13362  function approve(address spender, uint256 amount) external override returns (bool) {... */\n    tag_5:\n      callvalue\n      dup1\n      iszero\n      tag_88\n      jumpi\n      0x00\n      dup1\n      revert\n    tag_88:\n      pop\n      tag_89\n      tag_90\n      calldatasize\n      0x04\n      tag_91\n      jump\t// in\n    tag_90:\n      tag_92\n      jump\t// in\n    tag_89:\n      mload(0x40)\n        /* \"#utility.yul\":6188:6202   */\n      swap1\n      iszero\n        /* \"#utility.yul\":6181:6203   */\n      iszero\n        /* \"#utility.yul\":6163:6204   */\n      dup2\n      mstore\n        /* \"#utility.yul\":6151:6153   */\n      0x20\n        /* \"#utility.yul\":6136:6154   */\n      add\n        /* \"contracts/gainzilla.sol\":13202:13362  function approve(address spender, uint256 amount) external override returns (bool) {... */\n      tag_81\n        /* \"#utility.yul\":6118:6210   */\n      jump\n        /* \"contracts/gainzilla.sol\":28204:28324  function updateTeamAddress(address payable teamAddress) external onlyOwner() {... */\n    tag_6:\n      callvalue\n      dup1\n      iszero\n      tag_95\n      jumpi\n      0x00\n      dup1\n      revert\n    tag_95:\n      pop\n      tag_96\n      tag_97\n      calldatasize\n      0x04\n      tag_130\n      jump\t// in\n    tag_97:\n      tag_99\n      jump\t// in\n    tag_96:\n      stop\n        /* \"contracts/gainzilla.sol\":12551:12646  function totalSupply() external pure override returns (uint256) {... */\n    tag_7:\n      callvalue\n      dup1\n      iszero\n      tag_100\n      jumpi\n      0x00\n      dup1\n      revert\n    tag_100:\n      pop\n        /* \"contracts/gainzilla.sol\":8636:8654  1000000000 * 10**9 */\n      0x0de0b6b3a7640000\n        /* \"contracts/gainzilla.sol\":12551:12646  function totalSupply() external pure override returns (uint256) {... */\n      jump(tag_79)\n        /* \"contracts/gainzilla.sol\":28054:28194  function updateMarketingAddress(address payable marketingAddress) external onlyOwner() {... */\n    tag_8:\n      callvalue\n      dup1\n      iszero\n      tag_104\n      jumpi\n      0x00\n      dup1\n      revert\n    tag_104:\n      pop\n      tag_96\n      tag_106\n      calldatasize\n      0x04\n      tag_130\n      jump\t// in\n    tag_106:\n      tag_107\n      jump\t// in\n        /* \"contracts/gainzilla.sol\":13368:13676  function transferFrom(address sender, address recipient, uint256 amount) external override returns (bool) {... */\n    tag_9:\n      callvalue\n      dup1\n      iszero\n      tag_108\n      jumpi\n      0x00\n      dup1\n      revert\n    tag_108:\n      pop\n      tag_89\n      tag_110\n      calldatasize\n      0x04\n      tag_111\n      jump\t// in\n    tag_110:\n      tag_112\n      jump\t// in\n        /* \"contracts/gainzilla.sol\":9542:9578  uint256 public _sellEcosystemFee = 0 */\n    tag_10:\n      callvalue\n      dup1\n      iszero\n      tag_114\n      jumpi\n      0x00\n      dup1\n      revert\n    tag_114:\n      pop\n      tag_79\n      sload(0x13)\n      dup2\n      jump\n        /* \"contracts/gainzilla.sol\":25810:26133  function setMaxWalletAmount(uint256 maxWalletAmount) external onlyOwner() {... */\n    tag_11:\n      callvalue\n      dup1\n      iszero\n      tag_118\n      jumpi\n      0x00\n      dup1\n      revert\n    tag_118:\n      pop\n      tag_96\n      tag_120\n      calldatasize\n      0x04\n      tag_121\n      jump\t// in\n    tag_120:\n      tag_122\n      jump\t// in\n        /* \"contracts/gainzilla.sol\":9036:9071  uint256 public _buyEcosystemFee = 0 */\n    tag_12:\n      callvalue\n      dup1\n      iszero\n      tag_123\n      jumpi\n      0x00\n      dup1\n      revert\n    tag_123:\n      pop\n      tag_79\n      sload(0x0b)\n      dup2\n      jump\n        /* \"contracts/gainzilla.sol\":22717:22899  function manualSendToken(address token) external onlyOwner() {... */\n    tag_13:\n      callvalue\n      dup1\n      iszero\n      tag_127\n      jumpi\n      0x00\n      dup1\n      revert\n    tag_127:\n      pop\n      tag_96\n      tag_129\n      calldatasize\n      0x04\n      tag_130\n      jump\t// in\n    tag_129:\n      tag_131\n      jump\t// in\n        /* \"contracts/gainzilla.sol\":11041:11072  bool public canBlackList = true */\n    tag_14:\n      callvalue\n      dup1\n      iszero\n      tag_132\n      jumpi\n      0x00\n      dup1\n      revert\n    tag_132:\n      pop\n      sload(0x28)\n      tag_89\n      swap1\n      0x01000000\n      swap1\n      div\n      0xff\n      and\n      dup2\n      jump\n        /* \"contracts/gainzilla.sol\":12453:12545  function decimals() override external pure returns (uint8) {... */\n    tag_15:\n      callvalue\n      dup1\n      iszero\n      tag_136\n      jumpi\n      0x00\n      dup1\n      revert\n    tag_136:\n      pop\n      mload(0x40)\n        /* \"contracts/gainzilla.sol\":8412:8413  9 */\n      0x09\n        /* \"#utility.yul\":17883:17919   */\n      dup2\n      mstore\n        /* \"#utility.yul\":17871:17873   */\n      0x20\n        /* \"#utility.yul\":17856:17874   */\n      add\n        /* \"contracts/gainzilla.sol\":12453:12545  function decimals() override external pure returns (uint8) {... */\n      tag_81\n        /* \"#utility.yul\":17838:17925   */\n      jump\n        /* \"contracts/gainzilla.sol\":11008:11035  bool public canPause = true */\n    tag_16:\n      callvalue\n      dup1\n      iszero\n      tag_141\n      jumpi\n      0x00\n      dup1\n      revert\n    tag_141:\n      pop\n      sload(0x28)\n      tag_89\n      swap1\n      0x010000\n      swap1\n      div\n      0xff\n      and\n      dup2\n      jump\n        /* \"contracts/gainzilla.sol\":11078:11109  bool public canChangeTax = true */\n    tag_17:\n      callvalue\n      dup1\n      iszero\n      tag_145\n      jumpi\n      0x00\n      dup1\n      revert\n    tag_145:\n      pop\n      sload(0x28)\n      tag_89\n      swap1\n      0x0100000000\n      swap1\n      div\n      0xff\n      and\n      dup2\n      jump\n        /* \"contracts/gainzilla.sol\":12775:12871  function isBot(address account) public view returns (bool) {... */\n    tag_18:\n      callvalue\n      dup1\n      iszero\n      tag_149\n      jumpi\n      0x00\n      dup1\n      revert\n    tag_149:\n      pop\n      tag_89\n      tag_151\n      calldatasize\n      0x04\n      tag_130\n      jump\t// in\n    tag_151:\n      sub(shl(0xa0, 0x01), 0x01)\n        /* \"contracts/gainzilla.sol\":12851:12864  bots[account] */\n      and\n        /* \"contracts/gainzilla.sol\":12828:12832  bool */\n      0x00\n        /* \"contracts/gainzilla.sol\":12851:12864  bots[account] */\n      swap1\n      dup2\n      mstore\n        /* \"contracts/gainzilla.sol\":12851:12855  bots */\n      0x20\n        /* \"contracts/gainzilla.sol\":12851:12864  bots[account] */\n      dup1\n      mstore\n      0x40\n      swap1\n      keccak256\n      sload\n      0xff\n      and\n      swap1\n        /* \"contracts/gainzilla.sol\":12775:12871  function isBot(address account) public view returns (bool) {... */\n      jump\n        /* \"contracts/gainzilla.sol\":22038:22180  function disableToken() external onlyOwner() {... */\n    tag_19:\n      callvalue\n      dup1\n      iszero\n      tag_154\n      jumpi\n      0x00\n      dup1\n      revert\n    tag_154:\n      pop\n      tag_96\n      tag_156\n      jump\t// in\n        /* \"contracts/gainzilla.sol\":25053:25164  function excludeFromFee(address account) public onlyOwner() {... */\n    tag_20:\n      callvalue\n      dup1\n      iszero\n      tag_157\n      jumpi\n      0x00\n      dup1\n      revert\n    tag_157:\n      pop\n      tag_96\n      tag_159\n      calldatasize\n      0x04\n      tag_130\n      jump\t// in\n    tag_159:\n      tag_160\n      jump\t// in\n        /* \"contracts/gainzilla.sol\":10869:10897  address public uniswapV2Pair */\n    tag_21:\n      callvalue\n      dup1\n      iszero\n      tag_161\n      jumpi\n      0x00\n      dup1\n      revert\n    tag_161:\n      pop\n      sload(0x26)\n      tag_162\n      swap1\n      sub(shl(0xa0, 0x01), 0x01)\n      and\n      dup2\n      jump\n    tag_162:\n      mload(0x40)\n      sub(shl(0xa0, 0x01), 0x01)\n        /* \"#utility.yul\":5011:5066   */\n      swap1\n      swap2\n      and\n        /* \"#utility.yul\":4993:5067   */\n      dup2\n      mstore\n        /* \"#utility.yul\":4981:4983   */\n      0x20\n        /* \"#utility.yul\":4966:4984   */\n      add\n        /* \"contracts/gainzilla.sol\":10869:10897  address public uniswapV2Pair */\n      tag_81\n        /* \"#utility.yul\":4948:5073   */\n      jump\n        /* \"contracts/gainzilla.sol\":25292:25387  function removeBot(address account) external onlyOwner() {... */\n    tag_22:\n      callvalue\n      dup1\n      iszero\n      tag_166\n      jumpi\n      0x00\n      dup1\n      revert\n    tag_166:\n      pop\n      tag_96\n      tag_168\n      calldatasize\n      0x04\n      tag_130\n      jump\t// in\n    tag_168:\n      tag_169\n      jump\t// in\n        /* \"contracts/gainzilla.sol\":22186:22271  function disablePauseAbility() onlyOwner() external {... */\n    tag_23:\n      callvalue\n      dup1\n      iszero\n      tag_170\n      jumpi\n      0x00\n      dup1\n      revert\n    tag_170:\n      pop\n      tag_96\n      tag_172\n      jump\t// in\n        /* \"contracts/gainzilla.sol\":8745:8795  uint256 public _maxWalletAmount = 10000001 * 10**9 */\n    tag_24:\n      callvalue\n      dup1\n      iszero\n      tag_173\n      jumpi\n      0x00\n      dup1\n      revert\n    tag_173:\n      pop\n      tag_79\n      sload(0x07)\n      dup2\n      jump\n        /* \"contracts/gainzilla.sol\":22485:22711  function manualsend() external onlyOwner() {... */\n    tag_25:\n      callvalue\n      dup1\n      iszero\n      tag_177\n      jumpi\n      0x00\n      dup1\n      revert\n    tag_177:\n      pop\n      tag_96\n      tag_179\n      jump\t// in\n        /* \"contracts/gainzilla.sol\":12652:12769  function balanceOf(address account) public view override returns (uint256) {... */\n    tag_26:\n      callvalue\n      dup1\n      iszero\n      tag_180\n      jumpi\n      0x00\n      dup1\n      revert\n    tag_180:\n      pop\n      tag_79\n      tag_182\n      calldatasize\n      0x04\n      tag_130\n      jump\t// in\n    tag_182:\n      sub(shl(0xa0, 0x01), 0x01)\n        /* \"contracts/gainzilla.sol\":12744:12762  _balances[account] */\n      and\n        /* \"contracts/gainzilla.sol\":12718:12725  uint256 */\n      0x00\n        /* \"contracts/gainzilla.sol\":12744:12762  _balances[account] */\n      swap1\n      dup2\n      mstore\n        /* \"contracts/gainzilla.sol\":12744:12753  _balances */\n      0x02\n        /* \"contracts/gainzilla.sol\":12744:12762  _balances[account] */\n      0x20\n      mstore\n      0x40\n      swap1\n      keccak256\n      sload\n      swap1\n        /* \"contracts/gainzilla.sol\":12652:12769  function balanceOf(address account) public view override returns (uint256) {... */\n      jump\n        /* \"contracts/gainzilla.sol\":3851:3998  function renounceOwnership() public virtual onlyOwner() {... */\n    tag_27:\n      callvalue\n      dup1\n      iszero\n      tag_185\n      jumpi\n      0x00\n      dup1\n      revert\n    tag_185:\n      pop\n      tag_96\n      tag_187\n      jump\t// in\n        /* \"contracts/gainzilla.sol\":28578:28751  function configureStrongHands(bool enabled, uint32 duration) external onlyOwner {... */\n    tag_28:\n      callvalue\n      dup1\n      iszero\n      tag_188\n      jumpi\n      0x00\n      dup1\n      revert\n    tag_188:\n      pop\n      tag_96\n      tag_190\n      calldatasize\n      0x04\n      tag_191\n      jump\t// in\n    tag_190:\n      tag_192\n      jump\t// in\n        /* \"contracts/gainzilla.sol\":9911:9955  uint256 public transferFeeIncreaseFactor = 0 */\n    tag_29:\n      callvalue\n      dup1\n      iszero\n      tag_193\n      jumpi\n      0x00\n      dup1\n      revert\n    tag_193:\n      pop\n      tag_79\n      sload(0x19)\n      dup2\n      jump\n        /* \"contracts/gainzilla.sol\":10277:10310  StrongHandsConfig public cooldown */\n    tag_30:\n      callvalue\n      dup1\n      iszero\n      tag_197\n      jumpi\n      0x00\n      dup1\n      revert\n    tag_197:\n      pop\n      sload(0x1a)\n      tag_198\n      swap1\n      0xff\n      dup2\n      and\n      swap1\n      0x0100\n      swap1\n      div\n      0xffffffff\n      and\n      dup3\n      jump\n    tag_198:\n      0x40\n      dup1\n      mload\n        /* \"#utility.yul\":6905:6919   */\n      swap3\n      iszero\n        /* \"#utility.yul\":6898:6920   */\n      iszero\n        /* \"#utility.yul\":6880:6921   */\n      dup4\n      mstore\n        /* \"#utility.yul\":6969:6979   */\n      0xffffffff\n        /* \"#utility.yul\":6957:6980   */\n      swap1\n      swap2\n      and\n        /* \"#utility.yul\":6952:6954   */\n      0x20\n        /* \"#utility.yul\":6937:6955   */\n      dup4\n      add\n        /* \"#utility.yul\":6930:6981   */\n      mstore\n        /* \"#utility.yul\":6853:6871   */\n      add\n        /* \"contracts/gainzilla.sol\":10277:10310  StrongHandsConfig public cooldown */\n      tag_81\n        /* \"#utility.yul\":6835:6987   */\n      jump\n        /* \"contracts/gainzilla.sol\":29861:30549  function ATHvariance() public view returns (int256) {... */\n    tag_31:\n      callvalue\n      dup1\n      iszero\n      tag_202\n      jumpi\n      0x00\n      dup1\n      revert\n    tag_202:\n      pop\n      tag_79\n      tag_204\n      jump\t// in\n        /* \"contracts/gainzilla.sol\":9414:9450  uint256 public _sellLiquidityFee = 0 */\n    tag_32:\n      callvalue\n      dup1\n      iszero\n      tag_207\n      jumpi\n      0x00\n      dup1\n      revert\n    tag_207:\n      pop\n      tag_79\n      sload(0x11)\n      dup2\n      jump\n        /* \"contracts/gainzilla.sol\":2954:3031  function owner() public view returns (address) {... */\n    tag_33:\n      callvalue\n      dup1\n      iszero\n      tag_211\n      jumpi\n      0x00\n      dup1\n      revert\n    tag_211:\n      pop\n        /* \"contracts/gainzilla.sol\":2992:2999  address */\n      0x00\n        /* \"contracts/gainzilla.sol\":3018:3024  _owner */\n      sload\n      sub(shl(0xa0, 0x01), 0x01)\n      and\n        /* \"contracts/gainzilla.sol\":2954:3031  function owner() public view returns (address) {... */\n      jump(tag_162)\n        /* \"contracts/gainzilla.sol\":21953:22032  function enableToken() external onlyOwner() {... */\n    tag_34:\n      callvalue\n      dup1\n      iszero\n      tag_215\n      jumpi\n      0x00\n      dup1\n      revert\n    tag_215:\n      pop\n      tag_96\n      tag_217\n      jump\t// in\n        /* \"contracts/gainzilla.sol\":19632:20048  function pairPrice() public view returns (uint256) {... */\n    tag_35:\n      callvalue\n      dup1\n      iszero\n      tag_218\n      jumpi\n      0x00\n      dup1\n      revert\n    tag_218:\n      pop\n      tag_79\n      tag_220\n      jump\t// in\n        /* \"contracts/gainzilla.sol\":12351:12447  function symbol() override external pure returns (string memory) {... */\n    tag_36:\n      callvalue\n      dup1\n      iszero\n      tag_222\n      jumpi\n      0x00\n      dup1\n      revert\n    tag_222:\n      pop\n        /* \"contracts/gainzilla.sol\":12433:12440  _symbol */\n      0x40\n      dup1\n      mload\n      dup1\n      dup3\n      add\n      swap1\n      swap2\n      mstore\n      0x04\n      dup2\n      mstore\n      0x5241575200000000000000000000000000000000000000000000000000000000\n      0x20\n      dup3\n      add\n      mstore\n        /* \"contracts/gainzilla.sol\":12351:12447  function symbol() override external pure returns (string memory) {... */\n      jump(tag_84)\n        /* \"contracts/gainzilla.sol\":27812:27898  function disableTaxChange() onlyOwner() external {... */\n    tag_37:\n      callvalue\n      dup1\n      iszero\n      tag_226\n      jumpi\n      0x00\n      dup1\n      revert\n    tag_226:\n      pop\n      tag_96\n      tag_228\n      jump\t// in\n        /* \"contracts/gainzilla.sol\":28757:29295  function cooldownRemaining(address account) public view returns (... */\n    tag_38:\n      callvalue\n      dup1\n      iszero\n      tag_229\n      jumpi\n      0x00\n      dup1\n      revert\n    tag_229:\n      pop\n      tag_230\n      tag_231\n      calldatasize\n      0x04\n      tag_130\n      jump\t// in\n    tag_231:\n      tag_232\n      jump\t// in\n    tag_230:\n      0x40\n      dup1\n      mload\n        /* \"#utility.yul\":17576:17601   */\n      swap5\n      dup6\n      mstore\n        /* \"#utility.yul\":17632:17634   */\n      0x20\n        /* \"#utility.yul\":17617:17635   */\n      dup6\n      add\n        /* \"#utility.yul\":17610:17644   */\n      swap4\n      swap1\n      swap4\n      mstore\n        /* \"#utility.yul\":17660:17678   */\n      swap2\n      dup4\n      add\n        /* \"#utility.yul\":17653:17687   */\n      mstore\n        /* \"#utility.yul\":17718:17720   */\n      0x60\n        /* \"#utility.yul\":17703:17721   */\n      dup3\n      add\n        /* \"#utility.yul\":17696:17730   */\n      mstore\n        /* \"#utility.yul\":17563:17566   */\n      0x80\n        /* \"#utility.yul\":17548:17567   */\n      add\n        /* \"contracts/gainzilla.sol\":28757:29295  function cooldownRemaining(address account) public view returns (... */\n      tag_81\n        /* \"#utility.yul\":17530:17736   */\n      jump\n        /* \"contracts/gainzilla.sol\":25664:25804  function setTransferTransactionMultiplier(uint256 _multiplier) external onlyOwner() {... */\n    tag_39:\n      callvalue\n      dup1\n      iszero\n      tag_235\n      jumpi\n      0x00\n      dup1\n      revert\n    tag_235:\n      pop\n      tag_96\n      tag_237\n      calldatasize\n      0x04\n      tag_121\n      jump\t// in\n    tag_237:\n      tag_238\n      jump\t// in\n        /* \"contracts/gainzilla.sol\":12881:13047  function transfer(address recipient, uint256 amount) external override returns (bool) {... */\n    tag_40:\n      callvalue\n      dup1\n      iszero\n      tag_239\n      jumpi\n      0x00\n      dup1\n      revert\n    tag_239:\n      pop\n      tag_89\n      tag_241\n      calldatasize\n      0x04\n      tag_91\n      jump\t// in\n    tag_241:\n      tag_242\n      jump\t// in\n        /* \"contracts/gainzilla.sol\":22277:22479  function manualswap() external onlyOwner() {... */\n    tag_41:\n      callvalue\n      dup1\n      iszero\n      tag_244\n      jumpi\n      0x00\n      dup1\n      revert\n    tag_244:\n      pop\n      tag_96\n      tag_246\n      jump\t// in\n        /* \"contracts/gainzilla.sol\":9286:9316  uint256 public _buyTeamFee = 0 */\n    tag_42:\n      callvalue\n      dup1\n      iszero\n      tag_247\n      jumpi\n      0x00\n      dup1\n      revert\n    tag_247:\n      pop\n      tag_79\n      sload(0x0f)\n      dup2\n      jump\n        /* \"contracts/gainzilla.sol\":9161:9196  uint256 public _buyMarketingFee = 0 */\n    tag_43:\n      callvalue\n      dup1\n      iszero\n      tag_251\n      jumpi\n      0x00\n      dup1\n      revert\n    tag_251:\n      pop\n      tag_79\n      sload(0x0d)\n      dup2\n      jump\n        /* \"contracts/gainzilla.sol\":9670:9706  uint256 public _sellMarketingFee = 0 */\n    tag_44:\n      callvalue\n      dup1\n      iszero\n      tag_255\n      jumpi\n      0x00\n      dup1\n      revert\n    tag_255:\n      pop\n      tag_79\n      sload(0x15)\n      dup2\n      jump\n        /* \"contracts/gainzilla.sol\":10485:10517  DiamondFloor public diamondFloor */\n    tag_45:\n      callvalue\n      dup1\n      iszero\n      tag_259\n      jumpi\n      0x00\n      dup1\n      revert\n    tag_259:\n      pop\n      sload(0x1c)\n      sload(0x1d)\n      sload(0x1e)\n      sload(0x1f)\n      tag_260\n      swap4\n      0xff\n      dup1\n      dup3\n      and\n      swap5\n      0x0100\n      swap1\n      swap3\n      div\n      0xffff\n      and\n      swap4\n      swap2\n      swap3\n      swap2\n      and\n      swap1\n      dup6\n      jump\n    tag_260:\n      0x40\n      dup1\n      mload\n        /* \"#utility.yul\":6485:6499   */\n      swap6\n      iszero\n        /* \"#utility.yul\":6478:6500   */\n      iszero\n        /* \"#utility.yul\":6460:6501   */\n      dup7\n      mstore\n        /* \"#utility.yul\":6549:6555   */\n      0xffff\n        /* \"#utility.yul\":6537:6556   */\n      swap1\n      swap5\n      and\n        /* \"#utility.yul\":6532:6534   */\n      0x20\n        /* \"#utility.yul\":6517:6535   */\n      dup7\n      add\n        /* \"#utility.yul\":6510:6557   */\n      mstore\n        /* \"#utility.yul\":6573:6591   */\n      swap3\n      dup5\n      add\n        /* \"#utility.yul\":6566:6600   */\n      swap2\n      swap1\n      swap2\n      mstore\n        /* \"#utility.yul\":6643:6657   */\n      iszero\n        /* \"#utility.yul\":6636:6658   */\n      iszero\n        /* \"#utility.yul\":6631:6633   */\n      0x60\n        /* \"#utility.yul\":6616:6634   */\n      dup4\n      add\n        /* \"#utility.yul\":6609:6659   */\n      mstore\n        /* \"#utility.yul\":6690:6693   */\n      0x80\n        /* \"#utility.yul\":6675:6694   */\n      dup3\n      add\n        /* \"#utility.yul\":6668:6703   */\n      mstore\n        /* \"#utility.yul\":6447:6450   */\n      0xa0\n        /* \"#utility.yul\":6432:6451   */\n      add\n        /* \"contracts/gainzilla.sol\":10485:10517  DiamondFloor public diamondFloor */\n      tag_81\n        /* \"#utility.yul\":6414:6709   */\n      jump\n        /* \"contracts/gainzilla.sol\":9798:9829  uint256 public _sellTeamFee = 0 */\n    tag_46:\n      callvalue\n      dup1\n      iszero\n      tag_264\n      jumpi\n      0x00\n      dup1\n      revert\n    tag_264:\n      pop\n      tag_79\n      sload(0x17)\n      dup2\n      jump\n        /* \"contracts/gainzilla.sol\":28331:28451  function updateLpRecipient(address payable lpRecipient) external onlyOwner() {... */\n    tag_47:\n      callvalue\n      dup1\n      iszero\n      tag_268\n      jumpi\n      0x00\n      dup1\n      revert\n    tag_268:\n      pop\n      tag_96\n      tag_270\n      calldatasize\n      0x04\n      tag_130\n      jump\t// in\n    tag_270:\n      tag_271\n      jump\t// in\n        /* \"contracts/gainzilla.sol\":21780:21947  function openTrading(uint256 botBlocks) external onlyOwner() {... */\n    tag_48:\n      callvalue\n      dup1\n      iszero\n      tag_272\n      jumpi\n      0x00\n      dup1\n      revert\n    tag_272:\n      pop\n      tag_96\n      tag_274\n      calldatasize\n      0x04\n      tag_121\n      jump\t// in\n    tag_274:\n      tag_275\n      jump\t// in\n        /* \"contracts/gainzilla.sol\":25565:25654  function disableBlackListing() onlyOwner() external {... */\n    tag_49:\n      callvalue\n      dup1\n      iszero\n      tag_276\n      jumpi\n      0x00\n      dup1\n      revert\n    tag_276:\n      pop\n      tag_96\n      tag_278\n      jump\t// in\n        /* \"contracts/gainzilla.sol\":27904:28044  function updateEcosystemAddress(address payable ecosystemAddress) external onlyOwner() {... */\n    tag_50:\n      callvalue\n      dup1\n      iszero\n      tag_279\n      jumpi\n      0x00\n      dup1\n      revert\n    tag_279:\n      pop\n      tag_96\n      tag_281\n      calldatasize\n      0x04\n      tag_130\n      jump\t// in\n    tag_281:\n      tag_282\n      jump\t// in\n        /* \"contracts/gainzilla.sol\":8911:8946  uint256 public _buyLiquidityFee = 0 */\n    tag_51:\n      callvalue\n      dup1\n      iszero\n      tag_283\n      jumpi\n      0x00\n      dup1\n      revert\n    tag_283:\n      pop\n      tag_79\n      sload(0x09)\n      dup2\n      jump\n        /* \"contracts/gainzilla.sol\":13053:13196  function allowance(address owner, address spender) external view override returns (uint256) {... */\n    tag_52:\n      callvalue\n      dup1\n      iszero\n      tag_287\n      jumpi\n      0x00\n      dup1\n      revert\n    tag_287:\n      pop\n      tag_79\n      tag_289\n      calldatasize\n      0x04\n      tag_290\n      jump\t// in\n    tag_289:\n      sub(shl(0xa0, 0x01), 0x01)\n        /* \"contracts/gainzilla.sol\":13162:13180  _allowances[owner] */\n      swap2\n      dup3\n      and\n        /* \"contracts/gainzilla.sol\":13136:13143  uint256 */\n      0x00\n        /* \"contracts/gainzilla.sol\":13162:13180  _allowances[owner] */\n      swap1\n      dup2\n      mstore\n        /* \"contracts/gainzilla.sol\":13162:13173  _allowances */\n      0x03\n        /* \"contracts/gainzilla.sol\":13162:13180  _allowances[owner] */\n      0x20\n      swap1\n      dup2\n      mstore\n      0x40\n      dup1\n      dup4\n      keccak256\n        /* \"contracts/gainzilla.sol\":13162:13189  _allowances[owner][spender] */\n      swap4\n      swap1\n      swap5\n      and\n      dup3\n      mstore\n      swap2\n      swap1\n      swap2\n      mstore\n      keccak256\n      sload\n      swap1\n        /* \"contracts/gainzilla.sol\":13053:13196  function allowance(address owner, address spender) external view override returns (uint256) {... */\n      jump\n        /* \"contracts/gainzilla.sol\":28457:28572  function updateNumTokensToSwap(uint256 numTokens) external onlyOwner() {... */\n    tag_53:\n      callvalue\n      dup1\n      iszero\n      tag_293\n      jumpi\n      0x00\n      dup1\n      revert\n    tag_293:\n      pop\n      tag_96\n      tag_295\n      calldatasize\n      0x04\n      tag_121\n      jump\t// in\n    tag_295:\n      tag_296\n      jump\t// in\n        /* \"contracts/gainzilla.sol\":26139:26962  function setBuyTaxes(uint256 marketingFee, uint256 liquidityFee, uint256 teamFee, uint256 ecosystemFee) external onlyOwner() {... */\n    tag_54:\n      callvalue\n      dup1\n      iszero\n      tag_297\n      jumpi\n      0x00\n      dup1\n      revert\n    tag_297:\n      pop\n      tag_96\n      tag_299\n      calldatasize\n      0x04\n      tag_300\n      jump\t// in\n    tag_299:\n      tag_301\n      jump\t// in\n        /* \"contracts/gainzilla.sol\":25170:25282  function includeInFee(address account) external onlyOwner() {... */\n    tag_55:\n      callvalue\n      dup1\n      iszero\n      tag_302\n      jumpi\n      0x00\n      dup1\n      revert\n    tag_302:\n      pop\n      tag_96\n      tag_304\n      calldatasize\n      0x04\n      tag_130\n      jump\t// in\n    tag_304:\n      tag_305\n      jump\t// in\n        /* \"contracts/gainzilla.sol\":3302:3500  function transferOwnership(address newOwner) public virtual onlyOwner {... */\n    tag_56:\n      callvalue\n      dup1\n      iszero\n      tag_306\n      jumpi\n      0x00\n      dup1\n      revert\n    tag_306:\n      pop\n      tag_96\n      tag_308\n      calldatasize\n      0x04\n      tag_130\n      jump\t// in\n    tag_308:\n      tag_309\n      jump\t// in\n        /* \"contracts/gainzilla.sol\":26968:27806  function setSellTaxes(uint256 marketingFee, uint256 liquidityFee, uint256 teamFee, uint256 ecosystemFee) external onlyOwner() {... */\n    tag_57:\n      callvalue\n      dup1\n      iszero\n      tag_310\n      jumpi\n      0x00\n      dup1\n      revert\n    tag_310:\n      pop\n      tag_96\n      tag_312\n      calldatasize\n      0x04\n      tag_300\n      jump\t// in\n    tag_312:\n      tag_313\n      jump\t// in\n        /* \"contracts/gainzilla.sol\":29301:29855  function configureDiamondFloor(bool enabled, uint16 triggerPercentage) external onlyOwner {... */\n    tag_58:\n      callvalue\n      dup1\n      iszero\n      tag_314\n      jumpi\n      0x00\n      dup1\n      revert\n    tag_314:\n      pop\n      tag_96\n      tag_316\n      calldatasize\n      0x04\n      tag_317\n      jump\t// in\n    tag_316:\n      tag_318\n      jump\t// in\n        /* \"contracts/gainzilla.sol\":10938:10969  bool public tradingOpen = false */\n    tag_59:\n      callvalue\n      dup1\n      iszero\n      tag_319\n      jumpi\n      0x00\n      dup1\n      revert\n    tag_319:\n      pop\n      sload(0x28)\n      tag_89\n      swap1\n      0xff\n      and\n      dup2\n      jump\n        /* \"contracts/gainzilla.sol\":25393:25559  function addBot(address account) external onlyOwner() {... */\n    tag_60:\n      callvalue\n      dup1\n      iszero\n      tag_323\n      jumpi\n      0x00\n      dup1\n      revert\n    tag_323:\n      pop\n      tag_96\n      tag_325\n      calldatasize\n      0x04\n      tag_130\n      jump\t// in\n    tag_325:\n      tag_326\n      jump\t// in\n        /* \"contracts/gainzilla.sol\":13202:13362  function approve(address spender, uint256 amount) external override returns (bool) {... */\n    tag_92:\n        /* \"contracts/gainzilla.sol\":13279:13283  bool */\n      0x00\n        /* \"contracts/gainzilla.sol\":13295:13334  _approve(_msgSender(), spender, amount) */\n      tag_329\n        /* \"contracts/gainzilla.sol\":818:828  msg.sender */\n      caller\n        /* \"contracts/gainzilla.sol\":13318:13325  spender */\n      dup5\n        /* \"contracts/gainzilla.sol\":13327:13333  amount */\n      dup5\n        /* \"contracts/gainzilla.sol\":13295:13303  _approve */\n      tag_332\n        /* \"contracts/gainzilla.sol\":13295:13334  _approve(_msgSender(), spender, amount) */\n      jump\t// in\n    tag_329:\n      pop\n        /* \"contracts/gainzilla.sol\":13351:13355  true */\n      0x01\n        /* \"contracts/gainzilla.sol\":13202:13362  function approve(address spender, uint256 amount) external override returns (bool) {... */\n    tag_328:\n      swap3\n      swap2\n      pop\n      pop\n      jump\t// out\n        /* \"contracts/gainzilla.sol\":28204:28324  function updateTeamAddress(address payable teamAddress) external onlyOwner() {... */\n    tag_99:\n        /* \"contracts/gainzilla.sol\":3076:3082  _owner */\n      and(sub(shl(0xa0, 0x01), 0x01), sload(0x00))\n        /* \"contracts/gainzilla.sol\":818:828  msg.sender */\n      caller\n        /* \"contracts/gainzilla.sol\":3076:3098  _owner == _msgSender() */\n      eq\n        /* \"contracts/gainzilla.sol\":3068:3135  require(_owner == _msgSender(), \"Ownable: caller is not the owner\") */\n      tag_335\n      jumpi\n      mload(0x40)\n      shl(0xe5, 0x461bcd)\n      dup2\n      mstore\n        /* \"#utility.yul\":13095:13097   */\n      0x20\n        /* \"contracts/gainzilla.sol\":3068:3135  require(_owner == _msgSender(), \"Ownable: caller is not the owner\") */\n      0x04\n      dup3\n      add\n        /* \"#utility.yul\":13077:13098   */\n      dup2\n      swap1\n      mstore\n        /* \"#utility.yul\":13114:13132   */\n      0x24\n      dup3\n      add\n        /* \"#utility.yul\":13107:13137   */\n      mstore\n        /* \"#utility.yul\":13173:13207   */\n      0x4f776e61626c653a2063616c6c6572206973206e6f7420746865206f776e6572\n        /* \"#utility.yul\":13153:13171   */\n      0x44\n      dup3\n      add\n        /* \"#utility.yul\":13146:13208   */\n      mstore\n        /* \"#utility.yul\":13225:13243   */\n      0x64\n      add\n        /* \"contracts/gainzilla.sol\":3068:3135  require(_owner == _msgSender(), \"Ownable: caller is not the owner\") */\n    tag_336:\n      mload(0x40)\n      dup1\n      swap2\n      sub\n      swap1\n      revert\n    tag_335:\n        /* \"contracts/gainzilla.sol\":28291:28303  _teamAddress */\n      0x22\n        /* \"contracts/gainzilla.sol\":28291:28317  _teamAddress = teamAddress */\n      dup1\n      sload\n      0xffffffffffffffffffffffff0000000000000000000000000000000000000000\n      and\n      sub(shl(0xa0, 0x01), 0x01)\n      swap3\n      swap1\n      swap3\n      and\n      swap2\n      swap1\n      swap2\n      or\n      swap1\n      sstore\n        /* \"contracts/gainzilla.sol\":28204:28324  function updateTeamAddress(address payable teamAddress) external onlyOwner() {... */\n      jump\t// out\n        /* \"contracts/gainzilla.sol\":28054:28194  function updateMarketingAddress(address payable marketingAddress) external onlyOwner() {... */\n    tag_107:\n        /* \"contracts/gainzilla.sol\":3076:3082  _owner */\n      and(sub(shl(0xa0, 0x01), 0x01), sload(0x00))\n        /* \"contracts/gainzilla.sol\":818:828  msg.sender */\n      caller\n        /* \"contracts/gainzilla.sol\":3076:3098  _owner == _msgSender() */\n      eq\n        /* \"contracts/gainzilla.sol\":3068:3135  require(_owner == _msgSender(), \"Ownable: caller is not the owner\") */\n      tag_342\n      jumpi\n      mload(0x40)\n      shl(0xe5, 0x461bcd)\n      dup2\n      mstore\n        /* \"#utility.yul\":13095:13097   */\n      0x20\n        /* \"contracts/gainzilla.sol\":3068:3135  require(_owner == _msgSender(), \"Ownable: caller is not the owner\") */\n      0x04\n      dup3\n      add\n        /* \"#utility.yul\":13077:13098   */\n      dup2\n      swap1\n      mstore\n        /* \"#utility.yul\":13114:13132   */\n      0x24\n      dup3\n      add\n        /* \"#utility.yul\":13107:13137   */\n      mstore\n        /* \"#utility.yul\":13173:13207   */\n      0x4f776e61626c653a2063616c6c6572206973206e6f7420746865206f776e6572\n        /* \"#utility.yul\":13153:13171   */\n      0x44\n      dup3\n      add\n        /* \"#utility.yul\":13146:13208   */\n      mstore\n        /* \"#utility.yul\":13225:13243   */\n      0x64\n      add\n        /* \"contracts/gainzilla.sol\":3068:3135  require(_owner == _msgSender(), \"Ownable: caller is not the owner\") */\n      tag_336\n        /* \"#utility.yul\":13067:13249   */\n      jump\n        /* \"contracts/gainzilla.sol\":3068:3135  require(_owner == _msgSender(), \"Ownable: caller is not the owner\") */\n    tag_342:\n        /* \"contracts/gainzilla.sol\":28151:28168  _marketingAddress */\n      0x21\n        /* \"contracts/gainzilla.sol\":28151:28187  _marketingAddress = marketingAddress */\n      dup1\n      sload\n      0xffffffffffffffffffffffff0000000000000000000000000000000000000000\n      and\n      sub(shl(0xa0, 0x01), 0x01)\n      swap3\n      swap1\n      swap3\n      and\n      swap2\n      swap1\n      swap2\n      or\n      swap1\n      sstore\n        /* \"contracts/gainzilla.sol\":28054:28194  function updateMarketingAddress(address payable marketingAddress) external onlyOwner() {... */\n      jump\t// out\n        /* \"contracts/gainzilla.sol\":13368:13676  function transferFrom(address sender, address recipient, uint256 amount) external override returns (bool) {... */\n    tag_112:\n        /* \"contracts/gainzilla.sol\":13468:13472  bool */\n      0x00\n        /* \"contracts/gainzilla.sol\":13484:13520  _transfer(sender, recipient, amount) */\n      tag_346\n        /* \"contracts/gainzilla.sol\":13494:13500  sender */\n      dup5\n        /* \"contracts/gainzilla.sol\":13502:13511  recipient */\n      dup5\n        /* \"contracts/gainzilla.sol\":13513:13519  amount */\n      dup5\n        /* \"contracts/gainzilla.sol\":13484:13493  _transfer */\n      tag_347\n        /* \"contracts/gainzilla.sol\":13484:13520  _transfer(sender, recipient, amount) */\n      jump\t// in\n    tag_346:\n        /* \"contracts/gainzilla.sol\":13530:13648  _approve(sender,_msgSender(),_allowances[sender][_msgSender()].sub(amount,\"ERC20: transfer amount exceeds allowance\")) */\n      tag_348\n        /* \"contracts/gainzilla.sol\":13539:13545  sender */\n      dup5\n        /* \"contracts/gainzilla.sol\":818:828  msg.sender */\n      caller\n        /* \"contracts/gainzilla.sol\":13559:13647  _allowances[sender][_msgSender()].sub(amount,\"ERC20: transfer amount exceeds allowance\") */\n      tag_350\n        /* \"contracts/gainzilla.sol\":13597:13603  amount */\n      dup6\n        /* \"contracts/gainzilla.sol\":13559:13647  _allowances[sender][_msgSender()].sub(amount,\"ERC20: transfer amount exceeds allowance\") */\n      mload(0x40)\n      dup1\n      0x60\n      add\n      0x40\n      mstore\n      dup1\n      0x28\n      dup2\n      mstore\n      0x20\n      add\n      data_974d1b4421da69cc60b481194f0dad36a5bb4e23da810da7a7fb30cdba178330\n      0x28\n      swap2\n      codecopy\n      sub(shl(0xa0, 0x01), 0x01)\n        /* \"contracts/gainzilla.sol\":13559:13578  _allowances[sender] */\n      dup11\n      and\n      0x00\n      swap1\n      dup2\n      mstore\n        /* \"contracts/gainzilla.sol\":13559:13570  _allowances */\n      0x03\n        /* \"contracts/gainzilla.sol\":13559:13578  _allowances[sender] */\n      0x20\n      swap1\n      dup2\n      mstore\n      0x40\n      dup1\n      dup4\n      keccak256\n        /* \"contracts/gainzilla.sol\":818:828  msg.sender */\n      caller\n        /* \"contracts/gainzilla.sol\":13559:13592  _allowances[sender][_msgSender()] */\n      dup5\n      mstore\n      swap1\n      swap2\n      mstore\n      swap1\n      keccak256\n      sload\n      swap2\n      swap1\n        /* \"contracts/gainzilla.sol\":13559:13596  _allowances[sender][_msgSender()].sub */\n      tag_352\n        /* \"contracts/gainzilla.sol\":13559:13647  _allowances[sender][_msgSender()].sub(amount,\"ERC20: transfer amount exceeds allowance\") */\n      jump\t// in\n    tag_350:\n        /* \"contracts/gainzilla.sol\":13530:13538  _approve */\n      tag_332\n        /* \"contracts/gainzilla.sol\":13530:13648  _approve(sender,_msgSender(),_allowances[sender][_msgSender()].sub(amount,\"ERC20: transfer amount exceeds allowance\")) */\n      jump\t// in\n    tag_348:\n      pop\n        /* \"contracts/gainzilla.sol\":13665:13669  true */\n      0x01\n        /* \"contracts/gainzilla.sol\":13368:13676  function transferFrom(address sender, address recipient, uint256 amount) external override returns (bool) {... */\n      swap4\n      swap3\n      pop\n      pop\n      pop\n      jump\t// out\n        /* \"contracts/gainzilla.sol\":25810:26133  function setMaxWalletAmount(uint256 maxWalletAmount) external onlyOwner() {... */\n    tag_122:\n        /* \"contracts/gainzilla.sol\":3076:3082  _owner */\n      and(sub(shl(0xa0, 0x01), 0x01), sload(0x00))\n        /* \"contracts/gainzilla.sol\":818:828  msg.sender */\n      caller\n        /* \"contracts/gainzilla.sol\":3076:3098  _owner == _msgSender() */\n      eq\n        /* \"contracts/gainzilla.sol\":3068:3135  require(_owner == _msgSender(), \"Ownable: caller is not the owner\") */\n      tag_355\n      jumpi\n      mload(0x40)\n      shl(0xe5, 0x461bcd)\n      dup2\n      mstore\n        /* \"#utility.yul\":13095:13097   */\n      0x20\n        /* \"contracts/gainzilla.sol\":3068:3135  require(_owner == _msgSender(), \"Ownable: caller is not the owner\") */\n      0x04\n      dup3\n      add\n        /* \"#utility.yul\":13077:13098   */\n      dup2\n      swap1\n      mstore\n        /* \"#utility.yul\":13114:13132   */\n      0x24\n      dup3\n      add\n        /* \"#utility.yul\":13107:13137   */\n      mstore\n        /* \"#utility.yul\":13173:13207   */\n      0x4f776e61626c653a2063616c6c6572206973206e6f7420746865206f776e6572\n        /* \"#utility.yul\":13153:13171   */\n      0x44\n      dup3\n      add\n        /* \"#utility.yul\":13146:13208   */\n      mstore\n        /* \"#utility.yul\":13225:13243   */\n      0x64\n      add\n        /* \"contracts/gainzilla.sol\":3068:3135  require(_owner == _msgSender(), \"Ownable: caller is not the owner\") */\n      tag_336\n        /* \"#utility.yul\":13067:13249   */\n      jump\n        /* \"contracts/gainzilla.sol\":3068:3135  require(_owner == _msgSender(), \"Ownable: caller is not the owner\") */\n    tag_355:\n        /* \"contracts/gainzilla.sol\":25921:25938  _tTotal.div(1000) */\n      tag_358\n        /* \"contracts/gainzilla.sol\":8636:8654  1000000000 * 10**9 */\n      0x0de0b6b3a7640000\n        /* \"contracts/gainzilla.sol\":25933:25937  1000 */\n      0x03e8\n        /* \"contracts/gainzilla.sol\":25921:25932  _tTotal.div */\n      tag_359\n        /* \"contracts/gainzilla.sol\":25921:25938  _tTotal.div(1000) */\n      jump\t// in\n    tag_358:\n        /* \"contracts/gainzilla.sol\":25902:25917  maxWalletAmount */\n      dup2\n        /* \"contracts/gainzilla.sol\":25902:25938  maxWalletAmount >= _tTotal.div(1000) */\n      lt\n      iszero\n        /* \"contracts/gainzilla.sol\":25894:25985  require(maxWalletAmount >= _tTotal.div(1000), \"Amount must be greater than 0.1% of supply\") */\n      tag_360\n      jumpi\n      mload(0x40)\n      shl(0xe5, 0x461bcd)\n      dup2\n      mstore\n        /* \"#utility.yul\":12282:12284   */\n      0x20\n        /* \"contracts/gainzilla.sol\":25894:25985  require(maxWalletAmount >= _tTotal.div(1000), \"Amount must be greater than 0.1% of supply\") */\n      0x04\n      dup3\n      add\n        /* \"#utility.yul\":12264:12285   */\n      mstore\n        /* \"#utility.yul\":12321:12323   */\n      0x2a\n        /* \"#utility.yul\":12301:12319   */\n      0x24\n      dup3\n      add\n        /* \"#utility.yul\":12294:12324   */\n      mstore\n        /* \"#utility.yul\":12360:12394   */\n      0x416d6f756e74206d7573742062652067726561746572207468616e20302e3125\n        /* \"#utility.yul\":12340:12358   */\n      0x44\n      dup3\n      add\n        /* \"#utility.yul\":12333:12395   */\n      mstore\n        /* \"#utility.yul\":12431:12443   */\n      0x206f6620737570706c7900000000000000000000000000000000000000000000\n        /* \"#utility.yul\":12411:12429   */\n      0x64\n      dup3\n      add\n        /* \"#utility.yul\":12404:12444   */\n      mstore\n        /* \"#utility.yul\":12461:12480   */\n      0x84\n      add\n        /* \"contracts/gainzilla.sol\":25894:25985  require(maxWalletAmount >= _tTotal.div(1000), \"Amount must be greater than 0.1% of supply\") */\n      tag_336\n        /* \"#utility.yul\":12254:12486   */\n      jump\n        /* \"contracts/gainzilla.sol\":25894:25985  require(maxWalletAmount >= _tTotal.div(1000), \"Amount must be greater than 0.1% of supply\") */\n    tag_360:\n        /* \"contracts/gainzilla.sol\":8636:8654  1000000000 * 10**9 */\n      0x0de0b6b3a7640000\n        /* \"contracts/gainzilla.sol\":26003:26018  maxWalletAmount */\n      dup2\n        /* \"contracts/gainzilla.sol\":26003:26029  maxWalletAmount <= _tTotal */\n      gt\n      iszero\n        /* \"contracts/gainzilla.sol\":25995:26082  require(maxWalletAmount <= _tTotal, \"Amount must be less than or equal to totalSupply\") */\n      tag_363\n      jumpi\n      mload(0x40)\n      shl(0xe5, 0x461bcd)\n      dup2\n      mstore\n        /* \"#utility.yul\":13866:13868   */\n      0x20\n        /* \"contracts/gainzilla.sol\":25995:26082  require(maxWalletAmount <= _tTotal, \"Amount must be less than or equal to totalSupply\") */\n      0x04\n      dup3\n      add\n        /* \"#utility.yul\":13848:13869   */\n      mstore\n        /* \"#utility.yul\":13905:13907   */\n      0x30\n        /* \"#utility.yul\":13885:13903   */\n      0x24\n      dup3\n      add\n        /* \"#utility.yul\":13878:13908   */\n      mstore\n        /* \"#utility.yul\":13944:13978   */\n      0x416d6f756e74206d757374206265206c657373207468616e206f722065717561\n        /* \"#utility.yul\":13924:13942   */\n      0x44\n      dup3\n      add\n        /* \"#utility.yul\":13917:13979   */\n      mstore\n        /* \"#utility.yul\":14015:14033   */\n      0x6c20746f20746f74616c537570706c7900000000000000000000000000000000\n        /* \"#utility.yul\":13995:14013   */\n      0x64\n      dup3\n      add\n        /* \"#utility.yul\":13988:14034   */\n      mstore\n        /* \"#utility.yul\":14051:14070   */\n      0x84\n      add\n        /* \"contracts/gainzilla.sol\":25995:26082  require(maxWalletAmount <= _tTotal, \"Amount must be less than or equal to totalSupply\") */\n      tag_336\n        /* \"#utility.yul\":13838:14076   */\n      jump\n        /* \"contracts/gainzilla.sol\":25995:26082  require(maxWalletAmount <= _tTotal, \"Amount must be less than or equal to totalSupply\") */\n    tag_363:\n        /* \"contracts/gainzilla.sol\":26092:26108  _maxWalletAmount */\n      0x07\n        /* \"contracts/gainzilla.sol\":26092:26126  _maxWalletAmount = maxWalletAmount */\n      sstore\n        /* \"contracts/gainzilla.sol\":25810:26133  function setMaxWalletAmount(uint256 maxWalletAmount) external onlyOwner() {... */\n      jump\t// out\n        /* \"contracts/gainzilla.sol\":22717:22899  function manualSendToken(address token) external onlyOwner() {... */\n    tag_131:\n        /* \"contracts/gainzilla.sol\":3076:3082  _owner */\n      and(sub(shl(0xa0, 0x01), 0x01), sload(0x00))\n        /* \"contracts/gainzilla.sol\":818:828  msg.sender */\n      caller\n        /* \"contracts/gainzilla.sol\":3076:3098  _owner == _msgSender() */\n      eq\n        /* \"contracts/gainzilla.sol\":3068:3135  require(_owner == _msgSender(), \"Ownable: caller is not the owner\") */\n      tag_368\n      jumpi\n      mload(0x40)\n      shl(0xe5, 0x461bcd)\n      dup2\n      mstore\n        /* \"#utility.yul\":13095:13097   */\n      0x20\n        /* \"contracts/gainzilla.sol\":3068:3135  require(_owner == _msgSender(), \"Ownable: caller is not the owner\") */\n      0x04\n      dup3\n      add\n        /* \"#utility.yul\":13077:13098   */\n      dup2\n      swap1\n      mstore\n        /* \"#utility.yul\":13114:13132   */\n      0x24\n      dup3\n      add\n        /* \"#utility.yul\":13107:13137   */\n      mstore\n        /* \"#utility.yul\":13173:13207   */\n      0x4f776e61626c653a2063616c6c6572206973206e6f7420746865206f776e6572\n        /* \"#utility.yul\":13153:13171   */\n      0x44\n      dup3\n      add\n        /* \"#utility.yul\":13146:13208   */\n      mstore\n        /* \"#utility.yul\":13225:13243   */\n      0x64\n      add\n        /* \"contracts/gainzilla.sol\":3068:3135  require(_owner == _msgSender(), \"Ownable: caller is not the owner\") */\n      tag_336\n        /* \"#utility.yul\":13067:13249   */\n      jump\n        /* \"contracts/gainzilla.sol\":3068:3135  require(_owner == _msgSender(), \"Ownable: caller is not the owner\") */\n    tag_368:\n        /* \"contracts/gainzilla.sol\":22805:22843  IERC20(token).balanceOf(address(this)) */\n      mload(0x40)\n      0x70a0823100000000000000000000000000000000000000000000000000000000\n      dup2\n      mstore\n        /* \"contracts/gainzilla.sol\":22837:22841  this */\n      address\n        /* \"contracts/gainzilla.sol\":22805:22843  IERC20(token).balanceOf(address(this)) */\n      0x04\n      dup3\n      add\n        /* \"#utility.yul\":4993:5067   */\n      mstore\n        /* \"contracts/gainzilla.sol\":22788:22802  uint256 amount */\n      0x00\n      swap1\n      sub(shl(0xa0, 0x01), 0x01)\n        /* \"contracts/gainzilla.sol\":22805:22828  IERC20(token).balanceOf */\n      dup4\n      and\n      swap1\n      0x70a08231\n      swap1\n        /* \"#utility.yul\":4966:4984   */\n      0x24\n      add\n        /* \"contracts/gainzilla.sol\":22805:22843  IERC20(token).balanceOf(address(this)) */\n      0x20\n      mload(0x40)\n      dup1\n      dup4\n      sub\n      dup2\n      dup7\n      dup1\n      extcodesize\n      iszero\n      dup1\n      iszero\n      tag_372\n      jumpi\n      0x00\n      dup1\n      revert\n    tag_372:\n      pop\n      gas\n      staticcall\n      iszero\n      dup1\n      iszero\n      tag_374\n      jumpi\n      returndatasize\n      0x00\n      dup1\n      returndatacopy\n      revert(0x00, returndatasize)\n    tag_374:\n      pop\n      pop\n      pop\n      pop\n      mload(0x40)\n      returndatasize\n      not(0x1f)\n      0x1f\n      dup3\n      add\n      and\n      dup3\n      add\n      dup1\n      0x40\n      mstore\n      pop\n      dup2\n      add\n      swap1\n      tag_375\n      swap2\n      swap1\n      tag_376\n      jump\t// in\n    tag_375:\n        /* \"contracts/gainzilla.sol\":22788:22843  uint256 amount = IERC20(token).balanceOf(address(this)) */\n      swap1\n      pop\n        /* \"contracts/gainzilla.sol\":22860:22865  token */\n      dup2\n      sub(shl(0xa0, 0x01), 0x01)\n        /* \"contracts/gainzilla.sol\":22853:22875  IERC20(token).transfer */\n      and\n      0xa9059cbb\n        /* \"contracts/gainzilla.sol\":22876:22883  owner() */\n      tag_377\n        /* \"contracts/gainzilla.sol\":2992:2999  address */\n      0x00\n        /* \"contracts/gainzilla.sol\":3018:3024  _owner */\n      sload\n      sub(shl(0xa0, 0x01), 0x01)\n      and\n      swap1\n        /* \"contracts/gainzilla.sol\":2954:3031  function owner() public view returns (address) {... */\n      jump\n        /* \"contracts/gainzilla.sol\":22876:22883  owner() */\n    tag_377:\n        /* \"contracts/gainzilla.sol\":22853:22892  IERC20(token).transfer(owner(), amount) */\n      mload(0x40)\n      0xffffffff00000000000000000000000000000000000000000000000000000000\n      0xe0\n      dup5\n      swap1\n      shl\n      and\n      dup2\n      mstore\n      sub(shl(0xa0, 0x01), 0x01)\n        /* \"#utility.yul\":5270:5325   */\n      swap1\n      swap2\n      and\n        /* \"contracts/gainzilla.sol\":22853:22892  IERC20(token).transfer(owner(), amount) */\n      0x04\n      dup3\n      add\n        /* \"#utility.yul\":5252:5326   */\n      mstore\n        /* \"#utility.yul\":5342:5360   */\n      0x24\n      dup2\n      add\n        /* \"#utility.yul\":5335:5369   */\n      dup5\n      swap1\n      mstore\n        /* \"#utility.yul\":5225:5243   */\n      0x44\n      add\n        /* \"contracts/gainzilla.sol\":22853:22892  IERC20(token).transfer(owner(), amount) */\n      0x20\n      mload(0x40)\n      dup1\n      dup4\n      sub\n      dup2\n      0x00\n      dup8\n      dup1\n      extcodesize\n      iszero\n      dup1\n      iszero\n      tag_380\n      jumpi\n      0x00\n      dup1\n      revert\n    tag_380:\n      pop\n      gas\n      call\n      iszero\n      dup1\n      iszero\n      tag_382\n      jumpi\n      returndatasize\n      0x00\n      dup1\n      returndatacopy\n      revert(0x00, returndatasize)\n    tag_382:\n      pop\n      pop\n      pop\n      pop\n      mload(0x40)\n      returndatasize\n      not(0x1f)\n      0x1f\n      dup3\n      add\n      and\n      dup3\n      add\n      dup1\n      0x40\n      mstore\n      pop\n      dup2\n      add\n      swap1\n      tag_383\n      swap2\n      swap1\n      tag_384\n      jump\t// in\n    tag_383:\n      pop\n        /* \"contracts/gainzilla.sol\":3145:3146  _ */\n      pop\n        /* \"contracts/gainzilla.sol\":22717:22899  function manualSendToken(address token) external onlyOwner() {... */\n      pop\n      jump\t// out\n        /* \"contracts/gainzilla.sol\":22038:22180  function disableToken() external onlyOwner() {... */\n    tag_156:\n        /* \"contracts/gainzilla.sol\":3076:3082  _owner */\n      and(sub(shl(0xa0, 0x01), 0x01), sload(0x00))\n        /* \"contracts/gainzilla.sol\":818:828  msg.sender */\n      caller\n        /* \"contracts/gainzilla.sol\":3076:3098  _owner == _msgSender() */\n      eq\n        /* \"contracts/gainzilla.sol\":3068:3135  require(_owner == _msgSender(), \"Ownable: caller is not the owner\") */\n      tag_389\n      jumpi\n      mload(0x40)\n      shl(0xe5, 0x461bcd)\n      dup2\n      mstore\n        /* \"#utility.yul\":13095:13097   */\n      0x20\n        /* \"contracts/gainzilla.sol\":3068:3135  require(_owner == _msgSender(), \"Ownable: caller is not the owner\") */\n      0x04\n      dup3\n      add\n        /* \"#utility.yul\":13077:13098   */\n      dup2\n      swap1\n      mstore\n        /* \"#utility.yul\":13114:13132   */\n      0x24\n      dup3\n      add\n        /* \"#utility.yul\":13107:13137   */\n      mstore\n        /* \"#utility.yul\":13173:13207   */\n      0x4f776e61626c653a2063616c6c6572206973206e6f7420746865206f776e6572\n        /* \"#utility.yul\":13153:13171   */\n      0x44\n      dup3\n      add\n        /* \"#utility.yul\":13146:13208   */\n      mstore\n        /* \"#utility.yul\":13225:13243   */\n      0x64\n      add\n        /* \"contracts/gainzilla.sol\":3068:3135  require(_owner == _msgSender(), \"Ownable: caller is not the owner\") */\n      tag_336\n        /* \"#utility.yul\":13067:13249   */\n      jump\n        /* \"contracts/gainzilla.sol\":3068:3135  require(_owner == _msgSender(), \"Ownable: caller is not the owner\") */\n    tag_389:\n        /* \"contracts/gainzilla.sol\":22101:22109  canPause */\n      sload(0x28)\n      0x010000\n      swap1\n      div\n      0xff\n      and\n        /* \"contracts/gainzilla.sol\":22093:22144  require(canPause, \"this contract cannot be paused\") */\n      tag_392\n      jumpi\n      mload(0x40)\n      shl(0xe5, 0x461bcd)\n      dup2\n      mstore\n        /* \"#utility.yul\":8041:8043   */\n      0x20\n        /* \"contracts/gainzilla.sol\":22093:22144  require(canPause, \"this contract cannot be paused\") */\n      0x04\n      dup3\n      add\n        /* \"#utility.yul\":8023:8044   */\n      mstore\n        /* \"#utility.yul\":8080:8082   */\n      0x1e\n        /* \"#utility.yul\":8060:8078   */\n      0x24\n      dup3\n      add\n        /* \"#utility.yul\":8053:8083   */\n      mstore\n        /* \"#utility.yul\":8119:8151   */\n      0x7468697320636f6e74726163742063616e6e6f74206265207061757365640000\n        /* \"#utility.yul\":8099:8117   */\n      0x44\n      dup3\n      add\n        /* \"#utility.yul\":8092:8152   */\n      mstore\n        /* \"#utility.yul\":8169:8187   */\n      0x64\n      add\n        /* \"contracts/gainzilla.sol\":22093:22144  require(canPause, \"this contract cannot be paused\") */\n      tag_336\n        /* \"#utility.yul\":8013:8193   */\n      jump\n        /* \"contracts/gainzilla.sol\":22093:22144  require(canPause, \"this contract cannot be paused\") */\n    tag_392:\n        /* \"contracts/gainzilla.sol\":22154:22165  tradingOpen */\n      0x28\n        /* \"contracts/gainzilla.sol\":22154:22173  tradingOpen = false */\n      dup1\n      sload\n      not(0xff)\n      and\n      swap1\n      sstore\n        /* \"contracts/gainzilla.sol\":22038:22180  function disableToken() external onlyOwner() {... */\n      jump\t// out\n        /* \"contracts/gainzilla.sol\":25053:25164  function excludeFromFee(address account) public onlyOwner() {... */\n    tag_160:\n        /* \"contracts/gainzilla.sol\":3076:3082  _owner */\n      and(sub(shl(0xa0, 0x01), 0x01), sload(0x00))\n        /* \"contracts/gainzilla.sol\":818:828  msg.sender */\n      caller\n        /* \"contracts/gainzilla.sol\":3076:3098  _owner == _msgSender() */\n      eq\n        /* \"contracts/gainzilla.sol\":3068:3135  require(_owner == _msgSender(), \"Ownable: caller is not the owner\") */\n      tag_397\n      jumpi\n      mload(0x40)\n      shl(0xe5, 0x461bcd)\n      dup2\n      mstore\n        /* \"#utility.yul\":13095:13097   */\n      0x20\n        /* \"contracts/gainzilla.sol\":3068:3135  require(_owner == _msgSender(), \"Ownable: caller is not the owner\") */\n      0x04\n      dup3\n      add\n        /* \"#utility.yul\":13077:13098   */\n      dup2\n      swap1\n      mstore\n        /* \"#utility.yul\":13114:13132   */\n      0x24\n      dup3\n      add\n        /* \"#utility.yul\":13107:13137   */\n      mstore\n        /* \"#utility.yul\":13173:13207   */\n      0x4f776e61626c653a2063616c6c6572206973206e6f7420746865206f776e6572\n        /* \"#utility.yul\":13153:13171   */\n      0x44\n      dup3\n      add\n        /* \"#utility.yul\":13146:13208   */\n      mstore\n        /* \"#utility.yul\":13225:13243   */\n      0x64\n      add\n        /* \"contracts/gainzilla.sol\":3068:3135  require(_owner == _msgSender(), \"Ownable: caller is not the owner\") */\n      tag_336\n        /* \"#utility.yul\":13067:13249   */\n      jump\n        /* \"contracts/gainzilla.sol\":3068:3135  require(_owner == _msgSender(), \"Ownable: caller is not the owner\") */\n    tag_397:\n      sub(shl(0xa0, 0x01), 0x01)\n        /* \"contracts/gainzilla.sol\":25123:25150  _isExcludedFromFee[account] */\n      and\n      0x00\n      swap1\n      dup2\n      mstore\n        /* \"contracts/gainzilla.sol\":25123:25141  _isExcludedFromFee */\n      0x04\n        /* \"contracts/gainzilla.sol\":25123:25150  _isExcludedFromFee[account] */\n      0x20\n      mstore\n      0x40\n      swap1\n      keccak256\n        /* \"contracts/gainzilla.sol\":25123:25157  _isExcludedFromFee[account] = true */\n      dup1\n      sload\n      not(0xff)\n      and\n        /* \"contracts/gainzilla.sol\":25153:25157  true */\n      0x01\n        /* \"contracts/gainzilla.sol\":25123:25157  _isExcludedFromFee[account] = true */\n      or\n      swap1\n      sstore\n        /* \"contracts/gainzilla.sol\":25053:25164  function excludeFromFee(address account) public onlyOwner() {... */\n      jump\t// out\n        /* \"contracts/gainzilla.sol\":25292:25387  function removeBot(address account) external onlyOwner() {... */\n    tag_169:\n        /* \"contracts/gainzilla.sol\":3076:3082  _owner */\n      and(sub(shl(0xa0, 0x01), 0x01), sload(0x00))\n        /* \"contracts/gainzilla.sol\":818:828  msg.sender */\n      caller\n        /* \"contracts/gainzilla.sol\":3076:3098  _owner == _msgSender() */\n      eq\n        /* \"contracts/gainzilla.sol\":3068:3135  require(_owner == _msgSender(), \"Ownable: caller is not the owner\") */\n      tag_402\n      jumpi\n      mload(0x40)\n      shl(0xe5, 0x461bcd)\n      dup2\n      mstore\n        /* \"#utility.yul\":13095:13097   */\n      0x20\n        /* \"contracts/gainzilla.sol\":3068:3135  require(_owner == _msgSender(), \"Ownable: caller is not the owner\") */\n      0x04\n      dup3\n      add\n        /* \"#utility.yul\":13077:13098   */\n      dup2\n      swap1\n      mstore\n        /* \"#utility.yul\":13114:13132   */\n      0x24\n      dup3\n      add\n        /* \"#utility.yul\":13107:13137   */\n      mstore\n        /* \"#utility.yul\":13173:13207   */\n      0x4f776e61626c653a2063616c6c6572206973206e6f7420746865206f776e6572\n        /* \"#utility.yul\":13153:13171   */\n      0x44\n      dup3\n      add\n        /* \"#utility.yul\":13146:13208   */\n      mstore\n        /* \"#utility.yul\":13225:13243   */\n      0x64\n      add\n        /* \"contracts/gainzilla.sol\":3068:3135  require(_owner == _msgSender(), \"Ownable: caller is not the owner\") */\n      tag_336\n        /* \"#utility.yul\":13067:13249   */\n      jump\n        /* \"contracts/gainzilla.sol\":3068:3135  require(_owner == _msgSender(), \"Ownable: caller is not the owner\") */\n    tag_402:\n      sub(shl(0xa0, 0x01), 0x01)\n        /* \"contracts/gainzilla.sol\":25359:25372  bots[account] */\n      and\n        /* \"contracts/gainzilla.sol\":25375:25380  false */\n      0x00\n        /* \"contracts/gainzilla.sol\":25359:25372  bots[account] */\n      swap1\n      dup2\n      mstore\n        /* \"contracts/gainzilla.sol\":25359:25363  bots */\n      0x20\n        /* \"contracts/gainzilla.sol\":25359:25372  bots[account] */\n      dup1\n      mstore\n      0x40\n      swap1\n      keccak256\n        /* \"contracts/gainzilla.sol\":25359:25380  bots[account] = false */\n      dup1\n      sload\n      not(0xff)\n      and\n      swap1\n      sstore\n        /* \"contracts/gainzilla.sol\":25292:25387  function removeBot(address account) external onlyOwner() {... */\n      jump\t// out\n        /* \"contracts/gainzilla.sol\":22186:22271  function disablePauseAbility() onlyOwner() external {... */\n    tag_172:\n        /* \"contracts/gainzilla.sol\":3076:3082  _owner */\n      and(sub(shl(0xa0, 0x01), 0x01), sload(0x00))\n        /* \"contracts/gainzilla.sol\":818:828  msg.sender */\n      caller\n        /* \"contracts/gainzilla.sol\":3076:3098  _owner == _msgSender() */\n      eq\n        /* \"contracts/gainzilla.sol\":3068:3135  require(_owner == _msgSender(), \"Ownable: caller is not the owner\") */\n      tag_407\n      jumpi\n      mload(0x40)\n      shl(0xe5, 0x461bcd)\n      dup2\n      mstore\n        /* \"#utility.yul\":13095:13097   */\n      0x20\n        /* \"contracts/gainzilla.sol\":3068:3135  require(_owner == _msgSender(), \"Ownable: caller is not the owner\") */\n      0x04\n      dup3\n      add\n        /* \"#utility.yul\":13077:13098   */\n      dup2\n      swap1\n      mstore\n        /* \"#utility.yul\":13114:13132   */\n      0x24\n      dup3\n      add\n        /* \"#utility.yul\":13107:13137   */\n      mstore\n        /* \"#utility.yul\":13173:13207   */\n      0x4f776e61626c653a2063616c6c6572206973206e6f7420746865206f776e6572\n        /* \"#utility.yul\":13153:13171   */\n      0x44\n      dup3\n      add\n        /* \"#utility.yul\":13146:13208   */\n      mstore\n        /* \"#utility.yul\":13225:13243   */\n      0x64\n      add\n        /* \"contracts/gainzilla.sol\":3068:3135  require(_owner == _msgSender(), \"Ownable: caller is not the owner\") */\n      tag_336\n        /* \"#utility.yul\":13067:13249   */\n      jump\n        /* \"contracts/gainzilla.sol\":3068:3135  require(_owner == _msgSender(), \"Ownable: caller is not the owner\") */\n    tag_407:\n        /* \"contracts/gainzilla.sol\":22248:22256  canPause */\n      0x28\n        /* \"contracts/gainzilla.sol\":22248:22264  canPause = false */\n      dup1\n      sload\n      0xffffffffffffffffffffffffffffffffffffffffffffffffffffffffff00ffff\n      and\n      swap1\n      sstore\n        /* \"contracts/gainzilla.sol\":22186:22271  function disablePauseAbility() onlyOwner() external {... */\n      jump\t// out\n        /* \"contracts/gainzilla.sol\":22485:22711  function manualsend() external onlyOwner() {... */\n    tag_179:\n        /* \"contracts/gainzilla.sol\":3076:3082  _owner */\n      and(sub(shl(0xa0, 0x01), 0x01), sload(0x00))\n        /* \"contracts/gainzilla.sol\":818:828  msg.sender */\n      caller\n        /* \"contracts/gainzilla.sol\":3076:3098  _owner == _msgSender() */\n      eq\n        /* \"contracts/gainzilla.sol\":3068:3135  require(_owner == _msgSender(), \"Ownable: caller is not the owner\") */\n      tag_412\n      jumpi\n      mload(0x40)\n      shl(0xe5, 0x461bcd)\n      dup2\n      mstore\n        /* \"#utility.yul\":13095:13097   */\n      0x20\n        /* \"contracts/gainzilla.sol\":3068:3135  require(_owner == _msgSender(), \"Ownable: caller is not the owner\") */\n      0x04\n      dup3\n      add\n        /* \"#utility.yul\":13077:13098   */\n      dup2\n      swap1\n      mstore\n        /* \"#utility.yul\":13114:13132   */\n      0x24\n      dup3\n      add\n        /* \"#utility.yul\":13107:13137   */\n      mstore\n        /* \"#utility.yul\":13173:13207   */\n      0x4f776e61626c653a2063616c6c6572206973206e6f7420746865206f776e6572\n        /* \"#utility.yul\":13153:13171   */\n      0x44\n      dup3\n      add\n        /* \"#utility.yul\":13146:13208   */\n      mstore\n        /* \"#utility.yul\":13225:13243   */\n      0x64\n      add\n        /* \"contracts/gainzilla.sol\":3068:3135  require(_owner == _msgSender(), \"Ownable: caller is not the owner\") */\n      tag_336\n        /* \"#utility.yul\":13067:13249   */\n      jump\n        /* \"contracts/gainzilla.sol\":3068:3135  require(_owner == _msgSender(), \"Ownable: caller is not the owner\") */\n    tag_412:\n        /* \"contracts/gainzilla.sol\":22567:22588  address(this).balance */\n      selfbalance\n        /* \"contracts/gainzilla.sol\":22602:22624  contractETHBalance > 0 */\n      dup1\n      iszero\n        /* \"contracts/gainzilla.sol\":22598:22705  if (contractETHBalance > 0) {... */\n      tag_415\n      jumpi\n        /* \"contracts/gainzilla.sol\":2992:2999  address */\n      0x00\n        /* \"contracts/gainzilla.sol\":3018:3024  _owner */\n      dup1\n      sload\n        /* \"contracts/gainzilla.sol\":22640:22694  payable(address(owner())).transfer(contractETHBalance) */\n      mload(0x40)\n      sub(shl(0xa0, 0x01), 0x01)\n        /* \"contracts/gainzilla.sol\":3018:3024  _owner */\n      swap1\n      swap2\n      and\n      swap2\n        /* \"contracts/gainzilla.sol\":22640:22694  payable(address(owner())).transfer(contractETHBalance) */\n      dup4\n      iszero\n      0x08fc\n      mul\n      swap2\n        /* \"contracts/gainzilla.sol\":22675:22693  contractETHBalance */\n      dup5\n      swap2\n        /* \"contracts/gainzilla.sol\":22640:22694  payable(address(owner())).transfer(contractETHBalance) */\n      dup2\n        /* \"contracts/gainzilla.sol\":2992:2999  address */\n      dup2\n        /* \"contracts/gainzilla.sol\":22640:22694  payable(address(owner())).transfer(contractETHBalance) */\n      dup2\n        /* \"contracts/gainzilla.sol\":22675:22693  contractETHBalance */\n      dup6\n        /* \"contracts/gainzilla.sol\":3018:3024  _owner */\n      dup9\n        /* \"contracts/gainzilla.sol\":22640:22694  payable(address(owner())).transfer(contractETHBalance) */\n      dup9\n      call\n      swap4\n      pop\n      pop\n      pop\n      pop\n      iszero\n      dup1\n      iszero\n      tag_418\n      jumpi\n      returndatasize\n      0x00\n      dup1\n      returndatacopy\n      revert(0x00, returndatasize)\n    tag_418:\n      pop\n        /* \"contracts/gainzilla.sol\":22598:22705  if (contractETHBalance > 0) {... */\n    tag_415:\n        /* \"contracts/gainzilla.sol\":3145:3146  _ */\n      pop\n        /* \"contracts/gainzilla.sol\":22485:22711  function manualsend() external onlyOwner() {... */\n      jump\t// out\n        /* \"contracts/gainzilla.sol\":3851:3998  function renounceOwnership() public virtual onlyOwner() {... */\n    tag_187:\n        /* \"contracts/gainzilla.sol\":3076:3082  _owner */\n      and(sub(shl(0xa0, 0x01), 0x01), sload(0x00))\n        /* \"contracts/gainzilla.sol\":818:828  msg.sender */\n      caller\n        /* \"contracts/gainzilla.sol\":3076:3098  _owner == _msgSender() */\n      eq\n        /* \"contracts/gainzilla.sol\":3068:3135  require(_owner == _msgSender(), \"Ownable: caller is not the owner\") */\n      tag_422\n      jumpi\n      mload(0x40)\n      shl(0xe5, 0x461bcd)\n      dup2\n      mstore\n        /* \"#utility.yul\":13095:13097   */\n      0x20\n        /* \"contracts/gainzilla.sol\":3068:3135  require(_owner == _msgSender(), \"Ownable: caller is not the owner\") */\n      0x04\n      dup3\n      add\n        /* \"#utility.yul\":13077:13098   */\n      dup2\n      swap1\n      mstore\n        /* \"#utility.yul\":13114:13132   */\n      0x24\n      dup3\n      add\n        /* \"#utility.yul\":13107:13137   */\n      mstore\n        /* \"#utility.yul\":13173:13207   */\n      0x4f776e61626c653a2063616c6c6572206973206e6f7420746865206f776e6572\n        /* \"#utility.yul\":13153:13171   */\n      0x44\n      dup3\n      add\n        /* \"#utility.yul\":13146:13208   */\n      mstore\n        /* \"#utility.yul\":13225:13243   */\n      0x64\n      add\n        /* \"contracts/gainzilla.sol\":3068:3135  require(_owner == _msgSender(), \"Ownable: caller is not the owner\") */\n      tag_336\n        /* \"#utility.yul\":13067:13249   */\n      jump\n        /* \"contracts/gainzilla.sol\":3068:3135  require(_owner == _msgSender(), \"Ownable: caller is not the owner\") */\n    tag_422:\n        /* \"contracts/gainzilla.sol\":3959:3960  0 */\n      0x00\n        /* \"contracts/gainzilla.sol\":3943:3949  _owner */\n      dup1\n      sload\n        /* \"contracts/gainzilla.sol\":3922:3962  OwnershipTransferred(_owner, address(0)) */\n      mload(0x40)\n      sub(shl(0xa0, 0x01), 0x01)\n        /* \"contracts/gainzilla.sol\":3943:3949  _owner */\n      swap1\n      swap2\n      and\n      swap1\n        /* \"contracts/gainzilla.sol\":3922:3962  OwnershipTransferred(_owner, address(0)) */\n      0x8be0079c531659141344cd1fd0a4f28419497f9722a3daafe3b4186f6b6457e0\n      swap1\n        /* \"contracts/gainzilla.sol\":3959:3960  0 */\n      dup4\n      swap1\n        /* \"contracts/gainzilla.sol\":3922:3962  OwnershipTransferred(_owner, address(0)) */\n      log3\n        /* \"contracts/gainzilla.sol\":3989:3990  0 */\n      0x00\n        /* \"contracts/gainzilla.sol\":3972:3991  _owner = address(0) */\n      dup1\n      sload\n      0xffffffffffffffffffffffff0000000000000000000000000000000000000000\n      and\n      swap1\n      sstore\n        /* \"contracts/gainzilla.sol\":3851:3998  function renounceOwnership() public virtual onlyOwner() {... */\n      jump\t// out\n        /* \"contracts/gainzilla.sol\":28578:28751  function configureStrongHands(bool enabled, uint32 duration) external onlyOwner {... */\n    tag_192:\n        /* \"contracts/gainzilla.sol\":3076:3082  _owner */\n      and(sub(shl(0xa0, 0x01), 0x01), sload(0x00))\n        /* \"contracts/gainzilla.sol\":818:828  msg.sender */\n      caller\n        /* \"contracts/gainzilla.sol\":3076:3098  _owner == _msgSender() */\n      eq\n        /* \"contracts/gainzilla.sol\":3068:3135  require(_owner == _msgSender(), \"Ownable: caller is not the owner\") */\n      tag_427\n      jumpi\n      mload(0x40)\n      shl(0xe5, 0x461bcd)\n      dup2\n      mstore\n        /* \"#utility.yul\":13095:13097   */\n      0x20\n        /* \"contracts/gainzilla.sol\":3068:3135  require(_owner == _msgSender(), \"Ownable: caller is not the owner\") */\n      0x04\n      dup3\n      add\n        /* \"#utility.yul\":13077:13098   */\n      dup2\n      swap1\n      mstore\n        /* \"#utility.yul\":13114:13132   */\n      0x24\n      dup3\n      add\n        /* \"#utility.yul\":13107:13137   */\n      mstore\n        /* \"#utility.yul\":13173:13207   */\n      0x4f776e61626c653a2063616c6c6572206973206e6f7420746865206f776e6572\n        /* \"#utility.yul\":13153:13171   */\n      0x44\n      dup3\n      add\n        /* \"#utility.yul\":13146:13208   */\n      mstore\n        /* \"#utility.yul\":13225:13243   */\n      0x64\n      add\n        /* \"contracts/gainzilla.sol\":3068:3135  require(_owner == _msgSender(), \"Ownable: caller is not the owner\") */\n      tag_336\n        /* \"#utility.yul\":13067:13249   */\n      jump\n        /* \"contracts/gainzilla.sol\":3068:3135  require(_owner == _msgSender(), \"Ownable: caller is not the owner\") */\n    tag_427:\n        /* \"contracts/gainzilla.sol\":28668:28676  cooldown */\n      0x1a\n        /* \"contracts/gainzilla.sol\":28668:28694  cooldown.enabled = enabled */\n      dup1\n      sload\n      not(0xff)\n      and\n      dup4\n      iszero\n      iszero\n      or\n      swap1\n      sstore\n        /* \"contracts/gainzilla.sol\":28724:28744  duration * 1 minutes */\n      tag_430\n        /* \"contracts/gainzilla.sol\":28724:28732  duration */\n      dup2\n        /* \"contracts/gainzilla.sol\":28735:28744  1 minutes */\n      0x3c\n        /* \"contracts/gainzilla.sol\":28724:28744  duration * 1 minutes */\n      tag_431\n      jump\t// in\n    tag_430:\n        /* \"contracts/gainzilla.sol\":28704:28712  cooldown */\n      0x1a\n        /* \"contracts/gainzilla.sol\":28704:28744  cooldown.duration = duration * 1 minutes */\n      dup1\n      sload\n      0xffffffff\n      swap3\n      swap1\n      swap3\n      and\n      0x0100\n      mul\n      0xffffffffffffffffffffffffffffffffffffffffffffffffffffff00000000ff\n      swap1\n      swap3\n      and\n      swap2\n      swap1\n      swap2\n      or\n      swap1\n      sstore\n      pop\n      pop\n        /* \"contracts/gainzilla.sol\":28578:28751  function configureStrongHands(bool enabled, uint32 duration) external onlyOwner {... */\n      jump\t// out\n        /* \"contracts/gainzilla.sol\":29861:30549  function ATHvariance() public view returns (int256) {... */\n    tag_204:\n        /* \"contracts/gainzilla.sol\":29923:29944  diamondFloor.athPrice */\n      sload(0x1d)\n        /* \"contracts/gainzilla.sol\":29905:29911  int256 */\n      0x00\n      swap1\n        /* \"contracts/gainzilla.sol\":29919:29959  if (diamondFloor.athPrice == 0) return 0 */\n      tag_433\n      jumpi\n      pop\n        /* \"contracts/gainzilla.sol\":29958:29959  0 */\n      0x00\n      swap1\n        /* \"contracts/gainzilla.sol\":29861:30549  function ATHvariance() public view returns (int256) {... */\n      jump\t// out\n        /* \"contracts/gainzilla.sol\":29919:29959  if (diamondFloor.athPrice == 0) return 0 */\n    tag_433:\n        /* \"contracts/gainzilla.sol\":29965:29985  uint256 currentPrice */\n      0x00\n        /* \"contracts/gainzilla.sol\":29988:29999  pairPrice() */\n      tag_434\n        /* \"contracts/gainzilla.sol\":29988:29997  pairPrice */\n      tag_220\n        /* \"contracts/gainzilla.sol\":29988:29999  pairPrice() */\n      jump\t// in\n    tag_434:\n        /* \"contracts/gainzilla.sol\":30032:30053  diamondFloor.athPrice */\n      sload(0x1d)\n        /* \"contracts/gainzilla.sol\":29965:29999  uint256 currentPrice = pairPrice() */\n      swap1\n      swap2\n      pop\n        /* \"contracts/gainzilla.sol\":30017:30053  currentPrice > diamondFloor.athPrice */\n      dup2\n      gt\n        /* \"contracts/gainzilla.sol\":30017:30542  currentPrice > diamondFloor.athPrice ?... */\n      tag_435\n      jumpi\n        /* \"contracts/gainzilla.sol\":30510:30531  diamondFloor.athPrice */\n      sload(0x1d)\n        /* \"contracts/gainzilla.sol\":30371:30532  diamondFloor.athPrice.sub(currentPrice)... */\n      tag_436\n      swap1\n        /* \"contracts/gainzilla.sol\":30371:30434  diamondFloor.athPrice.sub(currentPrice)... */\n      tag_437\n        /* \"contracts/gainzilla.sol\":30428:30433  100e1 */\n      0x03e8\n        /* \"contracts/gainzilla.sol\":30371:30410  diamondFloor.athPrice.sub(currentPrice) */\n      tag_438\n        /* \"contracts/gainzilla.sol\":30510:30531  diamondFloor.athPrice */\n      dup4\n        /* \"contracts/gainzilla.sol\":30397:30409  currentPrice */\n      dup7\n        /* \"contracts/gainzilla.sol\":30371:30396  diamondFloor.athPrice.sub */\n      tag_439\n        /* \"contracts/gainzilla.sol\":30371:30410  diamondFloor.athPrice.sub(currentPrice) */\n      jump\t// in\n    tag_438:\n        /* \"contracts/gainzilla.sol\":30371:30427  diamondFloor.athPrice.sub(currentPrice)... */\n      swap1\n      tag_440\n        /* \"contracts/gainzilla.sol\":30371:30434  diamondFloor.athPrice.sub(currentPrice)... */\n      jump\t// in\n    tag_437:\n        /* \"contracts/gainzilla.sol\":30371:30509  diamondFloor.athPrice.sub(currentPrice)... */\n      swap1\n      tag_359\n        /* \"contracts/gainzilla.sol\":30371:30532  diamondFloor.athPrice.sub(currentPrice)... */\n      jump\t// in\n    tag_436:\n        /* \"contracts/gainzilla.sol\":30350:30542  -int256(... */\n      tag_441\n      swap1\n      tag_442\n      jump\t// in\n    tag_441:\n        /* \"contracts/gainzilla.sol\":30017:30542  currentPrice > diamondFloor.athPrice ?... */\n      jump(tag_444)\n    tag_435:\n        /* \"contracts/gainzilla.sol\":30265:30286  diamondFloor.athPrice */\n      sload(0x1d)\n        /* \"contracts/gainzilla.sol\":30126:30287  currentPrice.sub(diamondFloor.athPrice)... */\n      tag_444\n      swap1\n        /* \"contracts/gainzilla.sol\":30126:30189  currentPrice.sub(diamondFloor.athPrice)... */\n      tag_437\n        /* \"contracts/gainzilla.sol\":30183:30188  100e1 */\n      0x03e8\n        /* \"contracts/gainzilla.sol\":30126:30165  currentPrice.sub(diamondFloor.athPrice) */\n      tag_438\n        /* \"contracts/gainzilla.sol\":30126:30138  currentPrice */\n      dup6\n        /* \"contracts/gainzilla.sol\":30265:30286  diamondFloor.athPrice */\n      dup5\n        /* \"contracts/gainzilla.sol\":30126:30142  currentPrice.sub */\n      tag_439\n        /* \"contracts/gainzilla.sol\":30126:30165  currentPrice.sub(diamondFloor.athPrice) */\n      jump\t// in\n        /* \"contracts/gainzilla.sol\":30126:30287  currentPrice.sub(diamondFloor.athPrice)... */\n    tag_444:\n        /* \"contracts/gainzilla.sol\":30010:30542  return currentPrice > diamondFloor.athPrice ?... */\n      swap2\n      pop\n      pop\n        /* \"contracts/gainzilla.sol\":29861:30549  function ATHvariance() public view returns (int256) {... */\n      swap1\n      jump\t// out\n        /* \"contracts/gainzilla.sol\":21953:22032  function enableToken() external onlyOwner() {... */\n    tag_217:\n        /* \"contracts/gainzilla.sol\":3076:3082  _owner */\n      and(sub(shl(0xa0, 0x01), 0x01), sload(0x00))\n        /* \"contracts/gainzilla.sol\":818:828  msg.sender */\n      caller\n        /* \"contracts/gainzilla.sol\":3076:3098  _owner == _msgSender() */\n      eq\n        /* \"contracts/gainzilla.sol\":3068:3135  require(_owner == _msgSender(), \"Ownable: caller is not the owner\") */\n      tag_450\n      jumpi\n      mload(0x40)\n      shl(0xe5, 0x461bcd)\n      dup2\n      mstore\n        /* \"#utility.yul\":13095:13097   */\n      0x20\n        /* \"contracts/gainzilla.sol\":3068:3135  require(_owner == _msgSender(), \"Ownable: caller is not the owner\") */\n      0x04\n      dup3\n      add\n        /* \"#utility.yul\":13077:13098   */\n      dup2\n      swap1\n      mstore\n        /* \"#utility.yul\":13114:13132   */\n      0x24\n      dup3\n      add\n        /* \"#utility.yul\":13107:13137   */\n      mstore\n        /* \"#utility.yul\":13173:13207   */\n      0x4f776e61626c653a2063616c6c6572206973206e6f7420746865206f776e6572\n        /* \"#utility.yul\":13153:13171   */\n      0x44\n      dup3\n      add\n        /* \"#utility.yul\":13146:13208   */\n      mstore\n        /* \"#utility.yul\":13225:13243   */\n      0x64\n      add\n        /* \"contracts/gainzilla.sol\":3068:3135  require(_owner == _msgSender(), \"Ownable: caller is not the owner\") */\n      tag_336\n        /* \"#utility.yul\":13067:13249   */\n      jump\n        /* \"contracts/gainzilla.sol\":3068:3135  require(_owner == _msgSender(), \"Ownable: caller is not the owner\") */\n    tag_450:\n        /* \"contracts/gainzilla.sol\":22007:22018  tradingOpen */\n      0x28\n        /* \"contracts/gainzilla.sol\":22007:22025  tradingOpen = true */\n      dup1\n      sload\n      not(0xff)\n      and\n        /* \"contracts/gainzilla.sol\":22021:22025  true */\n      0x01\n        /* \"contracts/gainzilla.sol\":22007:22025  tradingOpen = true */\n      or\n      swap1\n      sstore\n        /* \"contracts/gainzilla.sol\":21953:22032  function enableToken() external onlyOwner() {... */\n      jump\t// out\n        /* \"contracts/gainzilla.sol\":19632:20048  function pairPrice() public view returns (uint256) {... */\n    tag_220:\n        /* \"contracts/gainzilla.sol\":19674:19681  uint256 */\n      0x00\n        /* \"contracts/gainzilla.sol\":19694:19710  uint112 reserve0 */\n      dup1\n        /* \"contracts/gainzilla.sol\":19712:19728  uint112 reserve1 */\n      0x00\n        /* \"contracts/gainzilla.sol\":19748:19761  uniswapV2Pair */\n      0x26\n      0x00\n      swap1\n      sload\n      swap1\n      0x0100\n      exp\n      swap1\n      div\n      sub(shl(0xa0, 0x01), 0x01)\n      and\n      sub(shl(0xa0, 0x01), 0x01)\n        /* \"contracts/gainzilla.sol\":19733:19774  IUniswapV2Pair(uniswapV2Pair).getReserves */\n      and\n      0x0902f1ac\n        /* \"contracts/gainzilla.sol\":19733:19776  IUniswapV2Pair(uniswapV2Pair).getReserves() */\n      mload(0x40)\n      dup2\n      0xffffffff\n      and\n      0xe0\n      shl\n      dup2\n      mstore\n      0x04\n      add\n      0x60\n      mload(0x40)\n      dup1\n      dup4\n      sub\n      dup2\n      dup7\n      dup1\n      extcodesize\n      iszero\n      dup1\n      iszero\n      tag_454\n      jumpi\n      0x00\n      dup1\n      revert\n    tag_454:\n      pop\n      gas\n      staticcall\n      iszero\n      dup1\n      iszero\n      tag_456\n      jumpi\n      returndatasize\n      0x00\n      dup1\n      returndatacopy\n      revert(0x00, returndatasize)\n    tag_456:\n      pop\n      pop\n      pop\n      pop\n      mload(0x40)\n      returndatasize\n      not(0x1f)\n      0x1f\n      dup3\n      add\n      and\n      dup3\n      add\n      dup1\n      0x40\n      mstore\n      pop\n      dup2\n      add\n      swap1\n      tag_457\n      swap2\n      swap1\n      tag_458\n      jump\t// in\n    tag_457:\n        /* \"contracts/gainzilla.sol\":19693:19776  (uint112 reserve0, uint112 reserve1,) = IUniswapV2Pair(uniswapV2Pair).getReserves() */\n      pop\n      swap2\n      pop\n      swap2\n      pop\n        /* \"contracts/gainzilla.sol\":19790:19798  reserve0 */\n      dup2\n        /* \"contracts/gainzilla.sol\":19790:19803  reserve0 == 0 */\n      0xffffffffffffffffffffffffffff\n      and\n        /* \"contracts/gainzilla.sol\":19802:19803  0 */\n      0x00\n        /* \"contracts/gainzilla.sol\":19790:19803  reserve0 == 0 */\n      eq\n        /* \"contracts/gainzilla.sol\":19790:19820  reserve0 == 0 || reserve1 == 0 */\n      dup1\n      tag_459\n      jumpi\n      pop\n        /* \"contracts/gainzilla.sol\":19807:19820  reserve1 == 0 */\n      0xffffffffffffffffffffffffffff\n      dup2\n      and\n      iszero\n        /* \"contracts/gainzilla.sol\":19790:19820  reserve0 == 0 || reserve1 == 0 */\n    tag_459:\n        /* \"contracts/gainzilla.sol\":19786:19830  if (reserve0 == 0 || reserve1 == 0) return 0 */\n      iszero\n      tag_460\n      jumpi\n        /* \"contracts/gainzilla.sol\":19829:19830  0 */\n      0x00\n        /* \"contracts/gainzilla.sol\":19822:19830  return 0 */\n      swap3\n      pop\n      pop\n      pop\n        /* \"contracts/gainzilla.sol\":19632:20048  function pairPrice() public view returns (uint256) {... */\n      swap1\n      jump\t// out\n        /* \"contracts/gainzilla.sol\":19786:19830  if (reserve0 == 0 || reserve1 == 0) return 0 */\n    tag_460:\n        /* \"contracts/gainzilla.sol\":19871:19884  uniswapV2Pair */\n      sload(0x26)\n        /* \"contracts/gainzilla.sol\":19856:19894  IUniswapV2Pair(uniswapV2Pair).token0() */\n      0x40\n      dup1\n      mload\n      0x0dfe168100000000000000000000000000000000000000000000000000000000\n      dup2\n      mstore\n      swap1\n      mload\n        /* \"contracts/gainzilla.sol\":19906:19910  this */\n      address\n      swap3\n      sub(shl(0xa0, 0x01), 0x01)\n        /* \"contracts/gainzilla.sol\":19871:19884  uniswapV2Pair */\n      and\n      swap2\n        /* \"contracts/gainzilla.sol\":19856:19892  IUniswapV2Pair(uniswapV2Pair).token0 */\n      0x0dfe1681\n      swap2\n        /* \"contracts/gainzilla.sol\":19856:19894  IUniswapV2Pair(uniswapV2Pair).token0() */\n      0x04\n      dup1\n      dup4\n      add\n      swap3\n      0x20\n      swap3\n      swap2\n      swap1\n      dup3\n      swap1\n      sub\n      add\n      dup2\n        /* \"contracts/gainzilla.sol\":19871:19884  uniswapV2Pair */\n      dup7\n        /* \"contracts/gainzilla.sol\":19856:19894  IUniswapV2Pair(uniswapV2Pair).token0() */\n      dup1\n      extcodesize\n      iszero\n      dup1\n      iszero\n      tag_461\n      jumpi\n      0x00\n      dup1\n      revert\n    tag_461:\n      pop\n      gas\n      staticcall\n      iszero\n      dup1\n      iszero\n      tag_463\n      jumpi\n      returndatasize\n      0x00\n      dup1\n      returndatacopy\n      revert(0x00, returndatasize)\n    tag_463:\n      pop\n      pop\n      pop\n      pop\n      mload(0x40)\n      returndatasize\n      not(0x1f)\n      0x1f\n      dup3\n      add\n      and\n      dup3\n      add\n      dup1\n      0x40\n      mstore\n      pop\n      dup2\n      add\n      swap1\n      tag_464\n      swap2\n      swap1\n      tag_465\n      jump\t// in\n    tag_464:\n      sub(shl(0xa0, 0x01), 0x01)\n        /* \"contracts/gainzilla.sol\":19856:19911  IUniswapV2Pair(uniswapV2Pair).token0() == address(this) */\n      and\n      eq\n        /* \"contracts/gainzilla.sol\":19856:20041  IUniswapV2Pair(uniswapV2Pair).token0() == address(this) ?... */\n      tag_466\n      jumpi\n        /* \"contracts/gainzilla.sol\":19991:20041  uint256(reserve0).mul(1e18).div(uint256(reserve1)) */\n      tag_467\n        /* \"contracts/gainzilla.sol\":20023:20040  uint256(reserve1) */\n      0xffffffffffffffffffffffffffff\n      dup1\n      dup4\n      and\n      swap1\n        /* \"contracts/gainzilla.sol\":19991:20018  uint256(reserve0).mul(1e18) */\n      tag_437\n      swap1\n        /* \"contracts/gainzilla.sol\":19991:20008  uint256(reserve0) */\n      dup6\n      and\n        /* \"contracts/gainzilla.sol\":20013:20017  1e18 */\n      0x0de0b6b3a7640000\n        /* \"contracts/gainzilla.sol\":19991:20012  uint256(reserve0).mul */\n      tag_440\n        /* \"contracts/gainzilla.sol\":19991:20018  uint256(reserve0).mul(1e18) */\n      jump\t// in\n        /* \"contracts/gainzilla.sol\":19991:20041  uint256(reserve0).mul(1e18).div(uint256(reserve1)) */\n    tag_467:\n        /* \"contracts/gainzilla.sol\":19856:20041  IUniswapV2Pair(uniswapV2Pair).token0() == address(this) ?... */\n      jump(tag_470)\n    tag_466:\n        /* \"contracts/gainzilla.sol\":19926:19976  uint256(reserve1).mul(1e18).div(uint256(reserve0)) */\n      tag_470\n        /* \"contracts/gainzilla.sol\":19958:19975  uint256(reserve0) */\n      0xffffffffffffffffffffffffffff\n      dup1\n      dup5\n      and\n      swap1\n        /* \"contracts/gainzilla.sol\":19926:19953  uint256(reserve1).mul(1e18) */\n      tag_437\n      swap1\n        /* \"contracts/gainzilla.sol\":19926:19943  uint256(reserve1) */\n      dup5\n      and\n        /* \"contracts/gainzilla.sol\":19948:19952  1e18 */\n      0x0de0b6b3a7640000\n        /* \"contracts/gainzilla.sol\":19926:19947  uint256(reserve1).mul */\n      tag_440\n        /* \"contracts/gainzilla.sol\":19926:19953  uint256(reserve1).mul(1e18) */\n      jump\t// in\n        /* \"contracts/gainzilla.sol\":19926:19976  uint256(reserve1).mul(1e18).div(uint256(reserve0)) */\n    tag_470:\n        /* \"contracts/gainzilla.sol\":19849:20041  return IUniswapV2Pair(uniswapV2Pair).token0() == address(this) ?... */\n      swap3\n      pop\n      pop\n      pop\n        /* \"contracts/gainzilla.sol\":19632:20048  function pairPrice() public view returns (uint256) {... */\n      swap1\n      jump\t// out\n        /* \"contracts/gainzilla.sol\":27812:27898  function disableTaxChange() onlyOwner() external {... */\n    tag_228:\n        /* \"contracts/gainzilla.sol\":3076:3082  _owner */\n      and(sub(shl(0xa0, 0x01), 0x01), sload(0x00))\n        /* \"contracts/gainzilla.sol\":818:828  msg.sender */\n      caller\n        /* \"contracts/gainzilla.sol\":3076:3098  _owner == _msgSender() */\n      eq\n        /* \"contracts/gainzilla.sol\":3068:3135  require(_owner == _msgSender(), \"Ownable: caller is not the owner\") */\n      tag_475\n      jumpi\n      mload(0x40)\n      shl(0xe5, 0x461bcd)\n      dup2\n      mstore\n        /* \"#utility.yul\":13095:13097   */\n      0x20\n        /* \"contracts/gainzilla.sol\":3068:3135  require(_owner == _msgSender(), \"Ownable: caller is not the owner\") */\n      0x04\n      dup3\n      add\n        /* \"#utility.yul\":13077:13098   */\n      dup2\n      swap1\n      mstore\n        /* \"#utility.yul\":13114:13132   */\n      0x24\n      dup3\n      add\n        /* \"#utility.yul\":13107:13137   */\n      mstore\n        /* \"#utility.yul\":13173:13207   */\n      0x4f776e61626c653a2063616c6c6572206973206e6f7420746865206f776e6572\n        /* \"#utility.yul\":13153:13171   */\n      0x44\n      dup3\n      add\n        /* \"#utility.yul\":13146:13208   */\n      mstore\n        /* \"#utility.yul\":13225:13243   */\n      0x64\n      add\n        /* \"contracts/gainzilla.sol\":3068:3135  require(_owner == _msgSender(), \"Ownable: caller is not the owner\") */\n      tag_336\n        /* \"#utility.yul\":13067:13249   */\n      jump\n        /* \"contracts/gainzilla.sol\":3068:3135  require(_owner == _msgSender(), \"Ownable: caller is not the owner\") */\n    tag_475:\n        /* \"contracts/gainzilla.sol\":27871:27883  canChangeTax */\n      0x28\n        /* \"contracts/gainzilla.sol\":27871:27891  canChangeTax = false */\n      dup1\n      sload\n      0xffffffffffffffffffffffffffffffffffffffffffffffffffffff00ffffffff\n      and\n      swap1\n      sstore\n        /* \"contracts/gainzilla.sol\":27812:27898  function disableTaxChange() onlyOwner() external {... */\n      jump\t// out\n        /* \"contracts/gainzilla.sol\":28757:29295  function cooldownRemaining(address account) public view returns (... */\n    tag_232:\n      sub(shl(0xa0, 0x01), 0x01)\n        /* \"contracts/gainzilla.sol\":28960:28988  cooldown.walletList[account] */\n      dup2\n      and\n        /* \"contracts/gainzilla.sol\":28831:28844  uint256 days_ */\n      0x00\n        /* \"contracts/gainzilla.sol\":28960:28988  cooldown.walletList[account] */\n      swap1\n      dup2\n      mstore\n        /* \"contracts/gainzilla.sol\":28960:28979  cooldown.walletList */\n      0x1b\n        /* \"contracts/gainzilla.sol\":28960:28988  cooldown.walletList[account] */\n      0x20\n      mstore\n      0x40\n      dup2\n      keccak256\n      sload\n        /* \"contracts/gainzilla.sol\":28831:28844  uint256 days_ */\n      dup2\n      swap1\n      dup2\n      swap1\n      dup2\n      swap1\n      dup2\n      swap1\n        /* \"contracts/gainzilla.sol\":28991:29006  block.timestamp */\n      timestamp\n      lt\n        /* \"contracts/gainzilla.sol\":28960:29075  cooldown.walletList[account] > block.timestamp ? ... */\n      tag_479\n      jumpi\n        /* \"contracts/gainzilla.sol\":29074:29075  0 */\n      0x00\n        /* \"contracts/gainzilla.sol\":28960:29075  cooldown.walletList[account] > block.timestamp ? ... */\n      jump(tag_481)\n    tag_479:\n      sub(shl(0xa0, 0x01), 0x01)\n        /* \"contracts/gainzilla.sol\":29022:29050  cooldown.walletList[account] */\n      dup7\n      and\n      0x00\n      swap1\n      dup2\n      mstore\n        /* \"contracts/gainzilla.sol\":29022:29041  cooldown.walletList */\n      0x1b\n        /* \"contracts/gainzilla.sol\":29022:29050  cooldown.walletList[account] */\n      0x20\n      mstore\n      0x40\n      swap1\n      keccak256\n      sload\n        /* \"contracts/gainzilla.sol\":29022:29071  cooldown.walletList[account].sub(block.timestamp) */\n      tag_481\n      swap1\n        /* \"contracts/gainzilla.sol\":29055:29070  block.timestamp */\n      timestamp\n        /* \"contracts/gainzilla.sol\":29022:29054  cooldown.walletList[account].sub */\n      tag_439\n        /* \"contracts/gainzilla.sol\":29022:29071  cooldown.walletList[account].sub(block.timestamp) */\n      jump\t// in\n    tag_481:\n        /* \"contracts/gainzilla.sol\":28940:29075  uint256 remaining = cooldown.walletList[account] > block.timestamp ? ... */\n      swap1\n      pop\n        /* \"contracts/gainzilla.sol\":29102:29122  remaining.div(86400) */\n      tag_482\n        /* \"contracts/gainzilla.sol\":28940:29075  uint256 remaining = cooldown.walletList[account] > block.timestamp ? ... */\n      dup2\n        /* \"contracts/gainzilla.sol\":29116:29121  86400 */\n      0x015180\n        /* \"contracts/gainzilla.sol\":29102:29115  remaining.div */\n      tag_359\n        /* \"contracts/gainzilla.sol\":29102:29122  remaining.div(86400) */\n      jump\t// in\n    tag_482:\n        /* \"contracts/gainzilla.sol\":29094:29122  days_ = remaining.div(86400) */\n      swap5\n      pop\n        /* \"contracts/gainzilla.sol\":29132:29150  remaining %= 86400 */\n      tag_483\n        /* \"contracts/gainzilla.sol\":29145:29150  86400 */\n      0x015180\n        /* \"contracts/gainzilla.sol\":29132:29150  remaining %= 86400 */\n      dup3\n      tag_484\n      jump\t// in\n    tag_483:\n      swap1\n      pop\n        /* \"contracts/gainzilla.sol\":29169:29188  remaining.div(3600) */\n      tag_485\n        /* \"contracts/gainzilla.sol\":29132:29150  remaining %= 86400 */\n      dup2\n        /* \"contracts/gainzilla.sol\":29183:29187  3600 */\n      0x0e10\n        /* \"contracts/gainzilla.sol\":29169:29182  remaining.div */\n      tag_359\n        /* \"contracts/gainzilla.sol\":29169:29188  remaining.div(3600) */\n      jump\t// in\n    tag_485:\n        /* \"contracts/gainzilla.sol\":29160:29188  hours_ = remaining.div(3600) */\n      swap4\n      pop\n        /* \"contracts/gainzilla.sol\":29198:29215  remaining %= 3600 */\n      tag_486\n        /* \"contracts/gainzilla.sol\":29211:29215  3600 */\n      0x0e10\n        /* \"contracts/gainzilla.sol\":29198:29215  remaining %= 3600 */\n      dup3\n      tag_484\n      jump\t// in\n    tag_486:\n      swap1\n      pop\n        /* \"contracts/gainzilla.sol\":29236:29253  remaining.div(60) */\n      tag_487\n        /* \"contracts/gainzilla.sol\":29198:29215  remaining %= 3600 */\n      dup2\n        /* \"contracts/gainzilla.sol\":29250:29252  60 */\n      0x3c\n        /* \"contracts/gainzilla.sol\":29236:29249  remaining.div */\n      tag_359\n        /* \"contracts/gainzilla.sol\":29236:29253  remaining.div(60) */\n      jump\t// in\n    tag_487:\n        /* \"contracts/gainzilla.sol\":29225:29253  minutes_ = remaining.div(60) */\n      swap3\n      pop\n        /* \"contracts/gainzilla.sol\":29274:29288  remaining % 60 */\n      tag_488\n        /* \"contracts/gainzilla.sol\":29286:29288  60 */\n      0x3c\n        /* \"contracts/gainzilla.sol\":29274:29283  remaining */\n      dup3\n        /* \"contracts/gainzilla.sol\":29274:29288  remaining % 60 */\n      tag_484\n      jump\t// in\n    tag_488:\n        /* \"contracts/gainzilla.sol\":29263:29288  seconds_ = remaining % 60 */\n      swap2\n      pop\n        /* \"contracts/gainzilla.sol\":28757:29295  function cooldownRemaining(address account) public view returns (... */\n      pop\n      swap2\n      swap4\n      pop\n      swap2\n      swap4\n      jump\t// out\n        /* \"contracts/gainzilla.sol\":25664:25804  function setTransferTransactionMultiplier(uint256 _multiplier) external onlyOwner() {... */\n    tag_238:\n        /* \"contracts/gainzilla.sol\":3076:3082  _owner */\n      and(sub(shl(0xa0, 0x01), 0x01), sload(0x00))\n        /* \"contracts/gainzilla.sol\":818:828  msg.sender */\n      caller\n        /* \"contracts/gainzilla.sol\":3076:3098  _owner == _msgSender() */\n      eq\n        /* \"contracts/gainzilla.sol\":3068:3135  require(_owner == _msgSender(), \"Ownable: caller is not the owner\") */\n      tag_491\n      jumpi\n      mload(0x40)\n      shl(0xe5, 0x461bcd)\n      dup2\n      mstore\n        /* \"#utility.yul\":13095:13097   */\n      0x20\n        /* \"contracts/gainzilla.sol\":3068:3135  require(_owner == _msgSender(), \"Ownable: caller is not the owner\") */\n      0x04\n      dup3\n      add\n        /* \"#utility.yul\":13077:13098   */\n      dup2\n      swap1\n      mstore\n        /* \"#utility.yul\":13114:13132   */\n      0x24\n      dup3\n      add\n        /* \"#utility.yul\":13107:13137   */\n      mstore\n        /* \"#utility.yul\":13173:13207   */\n      0x4f776e61626c653a2063616c6c6572206973206e6f7420746865206f776e6572\n        /* \"#utility.yul\":13153:13171   */\n      0x44\n      dup3\n      add\n        /* \"#utility.yul\":13146:13208   */\n      mstore\n        /* \"#utility.yul\":13225:13243   */\n      0x64\n      add\n        /* \"contracts/gainzilla.sol\":3068:3135  require(_owner == _msgSender(), \"Ownable: caller is not the owner\") */\n      tag_336\n        /* \"#utility.yul\":13067:13249   */\n      jump\n        /* \"contracts/gainzilla.sol\":3068:3135  require(_owner == _msgSender(), \"Ownable: caller is not the owner\") */\n    tag_491:\n        /* \"contracts/gainzilla.sol\":25758:25783  transferFeeIncreaseFactor */\n      0x19\n        /* \"contracts/gainzilla.sol\":25758:25797  transferFeeIncreaseFactor = _multiplier */\n      sstore\n        /* \"contracts/gainzilla.sol\":25664:25804  function setTransferTransactionMultiplier(uint256 _multiplier) external onlyOwner() {... */\n      jump\t// out\n        /* \"contracts/gainzilla.sol\":12881:13047  function transfer(address recipient, uint256 amount) external override returns (bool) {... */\n    tag_242:\n        /* \"contracts/gainzilla.sol\":12961:12965  bool */\n      0x00\n        /* \"contracts/gainzilla.sol\":12977:13019  _transfer(_msgSender(), recipient, amount) */\n      tag_329\n        /* \"contracts/gainzilla.sol\":818:828  msg.sender */\n      caller\n        /* \"contracts/gainzilla.sol\":13001:13010  recipient */\n      dup5\n        /* \"contracts/gainzilla.sol\":13012:13018  amount */\n      dup5\n        /* \"contracts/gainzilla.sol\":12977:12986  _transfer */\n      tag_347\n        /* \"contracts/gainzilla.sol\":12977:13019  _transfer(_msgSender(), recipient, amount) */\n      jump\t// in\n        /* \"contracts/gainzilla.sol\":22277:22479  function manualswap() external onlyOwner() {... */\n    tag_246:\n        /* \"contracts/gainzilla.sol\":3076:3082  _owner */\n      and(sub(shl(0xa0, 0x01), 0x01), sload(0x00))\n        /* \"contracts/gainzilla.sol\":818:828  msg.sender */\n      caller\n        /* \"contracts/gainzilla.sol\":3076:3098  _owner == _msgSender() */\n      eq\n        /* \"contracts/gainzilla.sol\":3068:3135  require(_owner == _msgSender(), \"Ownable: caller is not the owner\") */\n      tag_499\n      jumpi\n      mload(0x40)\n      shl(0xe5, 0x461bcd)\n      dup2\n      mstore\n        /* \"#utility.yul\":13095:13097   */\n      0x20\n        /* \"contracts/gainzilla.sol\":3068:3135  require(_owner == _msgSender(), \"Ownable: caller is not the owner\") */\n      0x04\n      dup3\n      add\n        /* \"#utility.yul\":13077:13098   */\n      dup2\n      swap1\n      mstore\n        /* \"#utility.yul\":13114:13132   */\n      0x24\n      dup3\n      add\n        /* \"#utility.yul\":13107:13137   */\n      mstore\n        /* \"#utility.yul\":13173:13207   */\n      0x4f776e61626c653a2063616c6c6572206973206e6f7420746865206f776e6572\n        /* \"#utility.yul\":13153:13171   */\n      0x44\n      dup3\n      add\n        /* \"#utility.yul\":13146:13208   */\n      mstore\n        /* \"#utility.yul\":13225:13243   */\n      0x64\n      add\n        /* \"contracts/gainzilla.sol\":3068:3135  require(_owner == _msgSender(), \"Ownable: caller is not the owner\") */\n      tag_336\n        /* \"#utility.yul\":13067:13249   */\n      jump\n        /* \"contracts/gainzilla.sol\":3068:3135  require(_owner == _msgSender(), \"Ownable: caller is not the owner\") */\n    tag_499:\n        /* \"contracts/gainzilla.sol\":22374:22378  this */\n      address\n        /* \"contracts/gainzilla.sol\":22330:22353  uint256 contractBalance */\n      0x00\n        /* \"contracts/gainzilla.sol\":12744:12762  _balances[account] */\n      swap1\n      dup2\n      mstore\n        /* \"contracts/gainzilla.sol\":12744:12753  _balances */\n      0x02\n        /* \"contracts/gainzilla.sol\":12744:12762  _balances[account] */\n      0x20\n      mstore\n      0x40\n      swap1\n      keccak256\n      sload\n        /* \"contracts/gainzilla.sol\":22394:22413  contractBalance > 0 */\n      dup1\n      iszero\n        /* \"contracts/gainzilla.sol\":22390:22473  if (contractBalance > 0) {... */\n      tag_415\n      jumpi\n        /* \"contracts/gainzilla.sol\":22429:22462  swapTokensForEth(contractBalance) */\n      tag_415\n        /* \"contracts/gainzilla.sol\":22446:22461  contractBalance */\n      dup2\n        /* \"contracts/gainzilla.sol\":22429:22445  swapTokensForEth */\n      tag_505\n        /* \"contracts/gainzilla.sol\":22429:22462  swapTokensForEth(contractBalance) */\n      jump\t// in\n        /* \"contracts/gainzilla.sol\":28331:28451  function updateLpRecipient(address payable lpRecipient) external onlyOwner() {... */\n    tag_271:\n        /* \"contracts/gainzilla.sol\":3076:3082  _owner */\n      and(sub(shl(0xa0, 0x01), 0x01), sload(0x00))\n        /* \"contracts/gainzilla.sol\":818:828  msg.sender */\n      caller\n        /* \"contracts/gainzilla.sol\":3076:3098  _owner == _msgSender() */\n      eq\n        /* \"contracts/gainzilla.sol\":3068:3135  require(_owner == _msgSender(), \"Ownable: caller is not the owner\") */\n      tag_508\n      jumpi\n      mload(0x40)\n      shl(0xe5, 0x461bcd)\n      dup2\n      mstore\n        /* \"#utility.yul\":13095:13097   */\n      0x20\n        /* \"contracts/gainzilla.sol\":3068:3135  require(_owner == _msgSender(), \"Ownable: caller is not the owner\") */\n      0x04\n      dup3\n      add\n        /* \"#utility.yul\":13077:13098   */\n      dup2\n      swap1\n      mstore\n        /* \"#utility.yul\":13114:13132   */\n      0x24\n      dup3\n      add\n        /* \"#utility.yul\":13107:13137   */\n      mstore\n        /* \"#utility.yul\":13173:13207   */\n      0x4f776e61626c653a2063616c6c6572206973206e6f7420746865206f776e6572\n        /* \"#utility.yul\":13153:13171   */\n      0x44\n      dup3\n      add\n        /* \"#utility.yul\":13146:13208   */\n      mstore\n        /* \"#utility.yul\":13225:13243   */\n      0x64\n      add\n        /* \"contracts/gainzilla.sol\":3068:3135  require(_owner == _msgSender(), \"Ownable: caller is not the owner\") */\n      tag_336\n        /* \"#utility.yul\":13067:13249   */\n      jump\n        /* \"contracts/gainzilla.sol\":3068:3135  require(_owner == _msgSender(), \"Ownable: caller is not the owner\") */\n    tag_508:\n        /* \"contracts/gainzilla.sol\":28418:28430  _lpRecipient */\n      0x24\n        /* \"contracts/gainzilla.sol\":28418:28444  _lpRecipient = lpRecipient */\n      dup1\n      sload\n      0xffffffffffffffffffffffff0000000000000000000000000000000000000000\n      and\n      sub(shl(0xa0, 0x01), 0x01)\n      swap3\n      swap1\n      swap3\n      and\n      swap2\n      swap1\n      swap2\n      or\n      swap1\n      sstore\n        /* \"contracts/gainzilla.sol\":28331:28451  function updateLpRecipient(address payable lpRecipient) external onlyOwner() {... */\n      jump\t// out\n        /* \"contracts/gainzilla.sol\":21780:21947  function openTrading(uint256 botBlocks) external onlyOwner() {... */\n    tag_275:\n        /* \"contracts/gainzilla.sol\":3076:3082  _owner */\n      and(sub(shl(0xa0, 0x01), 0x01), sload(0x00))\n        /* \"contracts/gainzilla.sol\":818:828  msg.sender */\n      caller\n        /* \"contracts/gainzilla.sol\":3076:3098  _owner == _msgSender() */\n      eq\n        /* \"contracts/gainzilla.sol\":3068:3135  require(_owner == _msgSender(), \"Ownable: caller is not the owner\") */\n      tag_513\n      jumpi\n      mload(0x40)\n      shl(0xe5, 0x461bcd)\n      dup2\n      mstore\n        /* \"#utility.yul\":13095:13097   */\n      0x20\n        /* \"contracts/gainzilla.sol\":3068:3135  require(_owner == _msgSender(), \"Ownable: caller is not the owner\") */\n      0x04\n      dup3\n      add\n        /* \"#utility.yul\":13077:13098   */\n      dup2\n      swap1\n      mstore\n        /* \"#utility.yul\":13114:13132   */\n      0x24\n      dup3\n      add\n        /* \"#utility.yul\":13107:13137   */\n      mstore\n        /* \"#utility.yul\":13173:13207   */\n      0x4f776e61626c653a2063616c6c6572206973206e6f7420746865206f776e6572\n        /* \"#utility.yul\":13153:13171   */\n      0x44\n      dup3\n      add\n        /* \"#utility.yul\":13146:13208   */\n      mstore\n        /* \"#utility.yul\":13225:13243   */\n      0x64\n      add\n        /* \"contracts/gainzilla.sol\":3068:3135  require(_owner == _msgSender(), \"Ownable: caller is not the owner\") */\n      tag_336\n        /* \"#utility.yul\":13067:13249   */\n      jump\n        /* \"contracts/gainzilla.sol\":3068:3135  require(_owner == _msgSender(), \"Ownable: caller is not the owner\") */\n    tag_513:\n        /* \"contracts/gainzilla.sol\":21865:21880  block.timestamp */\n      timestamp\n        /* \"contracts/gainzilla.sol\":21851:21862  _firstBlock */\n      0x05\n        /* \"contracts/gainzilla.sol\":21851:21880  _firstBlock = block.timestamp */\n      sstore\n        /* \"contracts/gainzilla.sol\":21890:21900  _botBlocks */\n      0x06\n        /* \"contracts/gainzilla.sol\":21890:21912  _botBlocks = botBlocks */\n      sstore\n        /* \"contracts/gainzilla.sol\":21922:21933  tradingOpen */\n      0x28\n        /* \"contracts/gainzilla.sol\":21922:21940  tradingOpen = true */\n      dup1\n      sload\n      not(0xff)\n      and\n        /* \"contracts/gainzilla.sol\":21936:21940  true */\n      0x01\n        /* \"contracts/gainzilla.sol\":21922:21940  tradingOpen = true */\n      or\n      swap1\n      sstore\n        /* \"contracts/gainzilla.sol\":21780:21947  function openTrading(uint256 botBlocks) external onlyOwner() {... */\n      jump\t// out\n        /* \"contracts/gainzilla.sol\":25565:25654  function disableBlackListing() onlyOwner() external {... */\n    tag_278:\n        /* \"contracts/gainzilla.sol\":3076:3082  _owner */\n      and(sub(shl(0xa0, 0x01), 0x01), sload(0x00))\n        /* \"contracts/gainzilla.sol\":818:828  msg.sender */\n      caller\n        /* \"contracts/gainzilla.sol\":3076:3098  _owner == _msgSender() */\n      eq\n        /* \"contracts/gainzilla.sol\":3068:3135  require(_owner == _msgSender(), \"Ownable: caller is not the owner\") */\n      tag_518\n      jumpi\n      mload(0x40)\n      shl(0xe5, 0x461bcd)\n      dup2\n      mstore\n        /* \"#utility.yul\":13095:13097   */\n      0x20\n        /* \"contracts/gainzilla.sol\":3068:3135  require(_owner == _msgSender(), \"Ownable: caller is not the owner\") */\n      0x04\n      dup3\n      add\n        /* \"#utility.yul\":13077:13098   */\n      dup2\n      swap1\n      mstore\n        /* \"#utility.yul\":13114:13132   */\n      0x24\n      dup3\n      add\n        /* \"#utility.yul\":13107:13137   */\n      mstore\n        /* \"#utility.yul\":13173:13207   */\n      0x4f776e61626c653a2063616c6c6572206973206e6f7420746865206f776e6572\n        /* \"#utility.yul\":13153:13171   */\n      0x44\n      dup3\n      add\n        /* \"#utility.yul\":13146:13208   */\n      mstore\n        /* \"#utility.yul\":13225:13243   */\n      0x64\n      add\n        /* \"contracts/gainzilla.sol\":3068:3135  require(_owner == _msgSender(), \"Ownable: caller is not the owner\") */\n      tag_336\n        /* \"#utility.yul\":13067:13249   */\n      jump\n        /* \"contracts/gainzilla.sol\":3068:3135  require(_owner == _msgSender(), \"Ownable: caller is not the owner\") */\n    tag_518:\n        /* \"contracts/gainzilla.sol\":25627:25639  canBlackList */\n      0x28\n        /* \"contracts/gainzilla.sol\":25627:25647  canBlackList = false */\n      dup1\n      sload\n      0xffffffffffffffffffffffffffffffffffffffffffffffffffffffff00ffffff\n      and\n      swap1\n      sstore\n        /* \"contracts/gainzilla.sol\":25565:25654  function disableBlackListing() onlyOwner() external {... */\n      jump\t// out\n        /* \"contracts/gainzilla.sol\":27904:28044  function updateEcosystemAddress(address payable ecosystemAddress) external onlyOwner() {... */\n    tag_282:\n        /* \"contracts/gainzilla.sol\":3076:3082  _owner */\n      and(sub(shl(0xa0, 0x01), 0x01), sload(0x00))\n        /* \"contracts/gainzilla.sol\":818:828  msg.sender */\n      caller\n        /* \"contracts/gainzilla.sol\":3076:3098  _owner == _msgSender() */\n      eq\n        /* \"contracts/gainzilla.sol\":3068:3135  require(_owner == _msgSender(), \"Ownable: caller is not the owner\") */\n      tag_523\n      jumpi\n      mload(0x40)\n      shl(0xe5, 0x461bcd)\n      dup2\n      mstore\n        /* \"#utility.yul\":13095:13097   */\n      0x20\n        /* \"contracts/gainzilla.sol\":3068:3135  require(_owner == _msgSender(), \"Ownable: caller is not the owner\") */\n      0x04\n      dup3\n      add\n        /* \"#utility.yul\":13077:13098   */\n      dup2\n      swap1\n      mstore\n        /* \"#utility.yul\":13114:13132   */\n      0x24\n      dup3\n      add\n        /* \"#utility.yul\":13107:13137   */\n      mstore\n        /* \"#utility.yul\":13173:13207   */\n      0x4f776e61626c653a2063616c6c6572206973206e6f7420746865206f776e6572\n        /* \"#utility.yul\":13153:13171   */\n      0x44\n      dup3\n      add\n        /* \"#utility.yul\":13146:13208   */\n      mstore\n        /* \"#utility.yul\":13225:13243   */\n      0x64\n      add\n        /* \"contracts/gainzilla.sol\":3068:3135  require(_owner == _msgSender(), \"Ownable: caller is not the owner\") */\n      tag_336\n        /* \"#utility.yul\":13067:13249   */\n      jump\n        /* \"contracts/gainzilla.sol\":3068:3135  require(_owner == _msgSender(), \"Ownable: caller is not the owner\") */\n    tag_523:\n        /* \"contracts/gainzilla.sol\":28001:28018  _ecosystemAddress */\n      0x23\n        /* \"contracts/gainzilla.sol\":28001:28037  _ecosystemAddress = ecosystemAddress */\n      dup1\n      sload\n      0xffffffffffffffffffffffff0000000000000000000000000000000000000000\n      and\n      sub(shl(0xa0, 0x01), 0x01)\n      swap3\n      swap1\n      swap3\n      and\n      swap2\n      swap1\n      swap2\n      or\n      swap1\n      sstore\n        /* \"contracts/gainzilla.sol\":27904:28044  function updateEcosystemAddress(address payable ecosystemAddress) external onlyOwner() {... */\n      jump\t// out\n        /* \"contracts/gainzilla.sol\":28457:28572  function updateNumTokensToSwap(uint256 numTokens) external onlyOwner() {... */\n    tag_296:\n        /* \"contracts/gainzilla.sol\":3076:3082  _owner */\n      and(sub(shl(0xa0, 0x01), 0x01), sload(0x00))\n        /* \"contracts/gainzilla.sol\":818:828  msg.sender */\n      caller\n        /* \"contracts/gainzilla.sol\":3076:3098  _owner == _msgSender() */\n      eq\n        /* \"contracts/gainzilla.sol\":3068:3135  require(_owner == _msgSender(), \"Ownable: caller is not the owner\") */\n      tag_529\n      jumpi\n      mload(0x40)\n      shl(0xe5, 0x461bcd)\n      dup2\n      mstore\n        /* \"#utility.yul\":13095:13097   */\n      0x20\n        /* \"contracts/gainzilla.sol\":3068:3135  require(_owner == _msgSender(), \"Ownable: caller is not the owner\") */\n      0x04\n      dup3\n      add\n        /* \"#utility.yul\":13077:13098   */\n      dup2\n      swap1\n      mstore\n        /* \"#utility.yul\":13114:13132   */\n      0x24\n      dup3\n      add\n        /* \"#utility.yul\":13107:13137   */\n      mstore\n        /* \"#utility.yul\":13173:13207   */\n      0x4f776e61626c653a2063616c6c6572206973206e6f7420746865206f776e6572\n        /* \"#utility.yul\":13153:13171   */\n      0x44\n      dup3\n      add\n        /* \"#utility.yul\":13146:13208   */\n      mstore\n        /* \"#utility.yul\":13225:13243   */\n      0x64\n      add\n        /* \"contracts/gainzilla.sol\":3068:3135  require(_owner == _msgSender(), \"Ownable: caller is not the owner\") */\n      tag_336\n        /* \"#utility.yul\":13067:13249   */\n      jump\n        /* \"contracts/gainzilla.sol\":3068:3135  require(_owner == _msgSender(), \"Ownable: caller is not the owner\") */\n    tag_529:\n        /* \"contracts/gainzilla.sol\":28538:28553  numTokensToSwap */\n      0x08\n        /* \"contracts/gainzilla.sol\":28538:28565  numTokensToSwap = numTokens */\n      sstore\n        /* \"contracts/gainzilla.sol\":28457:28572  function updateNumTokensToSwap(uint256 numTokens) external onlyOwner() {... */\n      jump\t// out\n        /* \"contracts/gainzilla.sol\":26139:26962  function setBuyTaxes(uint256 marketingFee, uint256 liquidityFee, uint256 teamFee, uint256 ecosystemFee) external onlyOwner() {... */\n    tag_301:\n        /* \"contracts/gainzilla.sol\":3076:3082  _owner */\n      and(sub(shl(0xa0, 0x01), 0x01), sload(0x00))\n        /* \"contracts/gainzilla.sol\":818:828  msg.sender */\n      caller\n        /* \"contracts/gainzilla.sol\":3076:3098  _owner == _msgSender() */\n      eq\n        /* \"contracts/gainzilla.sol\":3068:3135  require(_owner == _msgSender(), \"Ownable: caller is not the owner\") */\n      tag_534\n      jumpi\n      mload(0x40)\n      shl(0xe5, 0x461bcd)\n      dup2\n      mstore\n        /* \"#utility.yul\":13095:13097   */\n      0x20\n        /* \"contracts/gainzilla.sol\":3068:3135  require(_owner == _msgSender(), \"Ownable: caller is not the owner\") */\n      0x04\n      dup3\n      add\n        /* \"#utility.yul\":13077:13098   */\n      dup2\n      swap1\n      mstore\n        /* \"#utility.yul\":13114:13132   */\n      0x24\n      dup3\n      add\n        /* \"#utility.yul\":13107:13137   */\n      mstore\n        /* \"#utility.yul\":13173:13207   */\n      0x4f776e61626c653a2063616c6c6572206973206e6f7420746865206f776e6572\n        /* \"#utility.yul\":13153:13171   */\n      0x44\n      dup3\n      add\n        /* \"#utility.yul\":13146:13208   */\n      mstore\n        /* \"#utility.yul\":13225:13243   */\n      0x64\n      add\n        /* \"contracts/gainzilla.sol\":3068:3135  require(_owner == _msgSender(), \"Ownable: caller is not the owner\") */\n      tag_336\n        /* \"#utility.yul\":13067:13249   */\n      jump\n        /* \"contracts/gainzilla.sol\":3068:3135  require(_owner == _msgSender(), \"Ownable: caller is not the owner\") */\n    tag_534:\n        /* \"contracts/gainzilla.sol\":26274:26290  uint256 totalFee */\n      0x00\n        /* \"contracts/gainzilla.sol\":26293:26354  marketingFee.add(liquidityFee).add(teamFee).add(ecosystemFee) */\n      tag_537\n        /* \"contracts/gainzilla.sol\":26341:26353  ecosystemFee */\n      dup3\n        /* \"contracts/gainzilla.sol\":26293:26336  marketingFee.add(liquidityFee).add(teamFee) */\n      tag_539\n        /* \"contracts/gainzilla.sol\":26328:26335  teamFee */\n      dup6\n        /* \"contracts/gainzilla.sol\":26293:26336  marketingFee.add(liquidityFee).add(teamFee) */\n      dup2\n        /* \"contracts/gainzilla.sol\":26293:26305  marketingFee */\n      dup10\n        /* \"contracts/gainzilla.sol\":26310:26322  liquidityFee */\n      dup10\n        /* \"contracts/gainzilla.sol\":26293:26309  marketingFee.add */\n      tag_540\n        /* \"contracts/gainzilla.sol\":26293:26323  marketingFee.add(liquidityFee) */\n      jump\t// in\n    tag_539:\n        /* \"contracts/gainzilla.sol\":26293:26327  marketingFee.add(liquidityFee).add */\n      swap1\n      tag_540\n        /* \"contracts/gainzilla.sol\":26293:26336  marketingFee.add(liquidityFee).add(teamFee) */\n      jump\t// in\n        /* \"contracts/gainzilla.sol\":26293:26354  marketingFee.add(liquidityFee).add(teamFee).add(ecosystemFee) */\n    tag_537:\n        /* \"contracts/gainzilla.sol\":26274:26354  uint256 totalFee = marketingFee.add(liquidityFee).add(teamFee).add(ecosystemFee) */\n      swap1\n      pop\n        /* \"contracts/gainzilla.sol\":26384:26387  250 */\n      0xfa\n        /* \"contracts/gainzilla.sol\":26372:26380  totalFee */\n      dup2\n        /* \"contracts/gainzilla.sol\":26372:26387  totalFee <= 250 */\n      gt\n      iszero\n        /* \"contracts/gainzilla.sol\":26364:26441  require(totalFee <= 250, \"Sum of buy fees must be less than or equal to 25%\") */\n      tag_541\n      jumpi\n      mload(0x40)\n      shl(0xe5, 0x461bcd)\n      dup2\n      mstore\n        /* \"#utility.yul\":8804:8806   */\n      0x20\n        /* \"contracts/gainzilla.sol\":26364:26441  require(totalFee <= 250, \"Sum of buy fees must be less than or equal to 25%\") */\n      0x04\n      dup3\n      add\n        /* \"#utility.yul\":8786:8807   */\n      mstore\n        /* \"#utility.yul\":8843:8845   */\n      0x31\n        /* \"#utility.yul\":8823:8841   */\n      0x24\n      dup3\n      add\n        /* \"#utility.yul\":8816:8846   */\n      mstore\n        /* \"#utility.yul\":8882:8916   */\n      0x53756d206f66206275792066656573206d757374206265206c65737320746861\n        /* \"#utility.yul\":8862:8880   */\n      0x44\n      dup3\n      add\n        /* \"#utility.yul\":8855:8917   */\n      mstore\n        /* \"#utility.yul\":8953:8972   */\n      0x6e206f7220657175616c20746f20323525000000000000000000000000000000\n        /* \"#utility.yul\":8933:8951   */\n      0x64\n      dup3\n      add\n        /* \"#utility.yul\":8926:8973   */\n      mstore\n        /* \"#utility.yul\":8990:9009   */\n      0x84\n      add\n        /* \"contracts/gainzilla.sol\":26364:26441  require(totalFee <= 250, \"Sum of buy fees must be less than or equal to 25%\") */\n      tag_336\n        /* \"#utility.yul\":8776:9015   */\n      jump\n        /* \"contracts/gainzilla.sol\":26364:26441  require(totalFee <= 250, \"Sum of buy fees must be less than or equal to 25%\") */\n    tag_541:\n        /* \"contracts/gainzilla.sol\":26459:26471  canChangeTax */\n      sload(0x28)\n      0x0100000000\n      swap1\n      div\n      0xff\n      and\n        /* \"contracts/gainzilla.sol\":26451:26500  require(canChangeTax, \"This function is diabled\") */\n      tag_544\n      jumpi\n      mload(0x40)\n      shl(0xe5, 0x461bcd)\n      dup2\n      mstore\n        /* \"#utility.yul\":15098:15100   */\n      0x20\n        /* \"contracts/gainzilla.sol\":26451:26500  require(canChangeTax, \"This function is diabled\") */\n      0x04\n      dup3\n      add\n        /* \"#utility.yul\":15080:15101   */\n      mstore\n        /* \"#utility.yul\":15137:15139   */\n      0x18\n        /* \"#utility.yul\":15117:15135   */\n      0x24\n      dup3\n      add\n        /* \"#utility.yul\":15110:15140   */\n      mstore\n        /* \"#utility.yul\":15176:15202   */\n      0x546869732066756e6374696f6e20697320646961626c65640000000000000000\n        /* \"#utility.yul\":15156:15174   */\n      0x44\n      dup3\n      add\n        /* \"#utility.yul\":15149:15203   */\n      mstore\n        /* \"#utility.yul\":15220:15238   */\n      0x64\n      add\n        /* \"contracts/gainzilla.sol\":26451:26500  require(canChangeTax, \"This function is diabled\") */\n      tag_336\n        /* \"#utility.yul\":15070:15244   */\n      jump\n        /* \"contracts/gainzilla.sol\":26451:26500  require(canChangeTax, \"This function is diabled\") */\n    tag_544:\n        /* \"contracts/gainzilla.sol\":26511:26527  _buyMarketingFee */\n      0x0d\n        /* \"contracts/gainzilla.sol\":26511:26542  _buyMarketingFee = marketingFee */\n      dup6\n      swap1\n      sstore\n        /* \"contracts/gainzilla.sol\":26552:26568  _buyLiquidityFee */\n      0x09\n        /* \"contracts/gainzilla.sol\":26552:26583  _buyLiquidityFee = liquidityFee */\n      dup5\n      swap1\n      sstore\n        /* \"contracts/gainzilla.sol\":26593:26604  _buyTeamFee */\n      0x0f\n        /* \"contracts/gainzilla.sol\":26593:26614  _buyTeamFee = teamFee */\n      dup4\n      swap1\n      sstore\n        /* \"contracts/gainzilla.sol\":26624:26640  _buyEcosystemFee */\n      0x0b\n        /* \"contracts/gainzilla.sol\":26624:26655  _buyEcosystemFee = ecosystemFee */\n      dup3\n      swap1\n      sstore\n        /* \"contracts/gainzilla.sol\":26674:26698  _previousBuyMarketingFee */\n      0x0e\n        /* \"contracts/gainzilla.sol\":26674:26717  _previousBuyMarketingFee = _buyMarketingFee */\n      dup6\n      swap1\n      sstore\n        /* \"contracts/gainzilla.sol\":26727:26751  _previousBuyLiquidityFee */\n      0x0a\n        /* \"contracts/gainzilla.sol\":26727:26770  _previousBuyLiquidityFee = _buyLiquidityFee */\n      dup5\n      swap1\n      sstore\n        /* \"contracts/gainzilla.sol\":26780:26799  _previousBuyTeamFee */\n      0x10\n        /* \"contracts/gainzilla.sol\":26780:26813  _previousBuyTeamFee = _buyTeamFee */\n      dup4\n      swap1\n      sstore\n        /* \"contracts/gainzilla.sol\":26823:26847  _previousBuyEcosystemFee */\n      0x0c\n        /* \"contracts/gainzilla.sol\":26823:26866  _previousBuyEcosystemFee = _buyEcosystemFee */\n      dup3\n      swap1\n      sstore\n        /* \"contracts/gainzilla.sol\":26890:26955  BuyFeesUpdated(marketingFee, liquidityFee, teamFee, ecosystemFee) */\n      0x40\n      dup1\n      mload\n        /* \"#utility.yul\":17576:17601   */\n      dup7\n      dup2\n      mstore\n        /* \"#utility.yul\":17632:17634   */\n      0x20\n        /* \"#utility.yul\":17617:17635   */\n      dup2\n      add\n        /* \"#utility.yul\":17610:17644   */\n      dup7\n      swap1\n      mstore\n        /* \"#utility.yul\":17660:17678   */\n      swap1\n      dup2\n      add\n        /* \"#utility.yul\":17653:17687   */\n      dup5\n      swap1\n      mstore\n        /* \"#utility.yul\":17718:17720   */\n      0x60\n        /* \"#utility.yul\":17703:17721   */\n      dup2\n      add\n        /* \"#utility.yul\":17696:17730   */\n      dup4\n      swap1\n      mstore\n        /* \"contracts/gainzilla.sol\":26890:26955  BuyFeesUpdated(marketingFee, liquidityFee, teamFee, ecosystemFee) */\n      0x892b2caa2d791bf7b8d9a49c4db7a4513ff1ae2e0e068ed217f9d5ab4c1a28f0\n      swap1\n        /* \"#utility.yul\":17563:17566   */\n      0x80\n        /* \"#utility.yul\":17548:17567   */\n      add\n        /* \"contracts/gainzilla.sol\":26890:26955  BuyFeesUpdated(marketingFee, liquidityFee, teamFee, ecosystemFee) */\n    tag_547:\n      mload(0x40)\n      dup1\n      swap2\n      sub\n      swap1\n      log1\n        /* \"contracts/gainzilla.sol\":3145:3146  _ */\n      pop\n        /* \"contracts/gainzilla.sol\":26139:26962  function setBuyTaxes(uint256 marketingFee, uint256 liquidityFee, uint256 teamFee, uint256 ecosystemFee) external onlyOwner() {... */\n      pop\n      pop\n      pop\n      pop\n      jump\t// out\n        /* \"contracts/gainzilla.sol\":25170:25282  function includeInFee(address account) external onlyOwner() {... */\n    tag_305:\n        /* \"contracts/gainzilla.sol\":3076:3082  _owner */\n      and(sub(shl(0xa0, 0x01), 0x01), sload(0x00))\n        /* \"contracts/gainzilla.sol\":818:828  msg.sender */\n      caller\n        /* \"contracts/gainzilla.sol\":3076:3098  _owner == _msgSender() */\n      eq\n        /* \"contracts/gainzilla.sol\":3068:3135  require(_owner == _msgSender(), \"Ownable: caller is not the owner\") */\n      tag_550\n      jumpi\n      mload(0x40)\n      shl(0xe5, 0x461bcd)\n      dup2\n      mstore\n        /* \"#utility.yul\":13095:13097   */\n      0x20\n        /* \"contracts/gainzilla.sol\":3068:3135  require(_owner == _msgSender(), \"Ownable: caller is not the owner\") */\n      0x04\n      dup3\n      add\n        /* \"#utility.yul\":13077:13098   */\n      dup2\n      swap1\n      mstore\n        /* \"#utility.yul\":13114:13132   */\n      0x24\n      dup3\n      add\n        /* \"#utility.yul\":13107:13137   */\n      mstore\n        /* \"#utility.yul\":13173:13207   */\n      0x4f776e61626c653a2063616c6c6572206973206e6f7420746865206f776e6572\n        /* \"#utility.yul\":13153:13171   */\n      0x44\n      dup3\n      add\n        /* \"#utility.yul\":13146:13208   */\n      mstore\n        /* \"#utility.yul\":13225:13243   */\n      0x64\n      add\n        /* \"contracts/gainzilla.sol\":3068:3135  require(_owner == _msgSender(), \"Ownable: caller is not the owner\") */\n      tag_336\n        /* \"#utility.yul\":13067:13249   */\n      jump\n        /* \"contracts/gainzilla.sol\":3068:3135  require(_owner == _msgSender(), \"Ownable: caller is not the owner\") */\n    tag_550:\n      sub(shl(0xa0, 0x01), 0x01)\n        /* \"contracts/gainzilla.sol\":25240:25267  _isExcludedFromFee[account] */\n      and\n        /* \"contracts/gainzilla.sol\":25270:25275  false */\n      0x00\n        /* \"contracts/gainzilla.sol\":25240:25267  _isExcludedFromFee[account] */\n      swap1\n      dup2\n      mstore\n        /* \"contracts/gainzilla.sol\":25240:25258  _isExcludedFromFee */\n      0x04\n        /* \"contracts/gainzilla.sol\":25240:25267  _isExcludedFromFee[account] */\n      0x20\n      mstore\n      0x40\n      swap1\n      keccak256\n        /* \"contracts/gainzilla.sol\":25240:25275  _isExcludedFromFee[account] = false */\n      dup1\n      sload\n      not(0xff)\n      and\n      swap1\n      sstore\n        /* \"contracts/gainzilla.sol\":25170:25282  function includeInFee(address account) external onlyOwner() {... */\n      jump\t// out\n        /* \"contracts/gainzilla.sol\":3302:3500  function transferOwnership(address newOwner) public virtual onlyOwner {... */\n    tag_309:\n        /* \"contracts/gainzilla.sol\":3076:3082  _owner */\n      and(sub(shl(0xa0, 0x01), 0x01), sload(0x00))\n        /* \"contracts/gainzilla.sol\":818:828  msg.sender */\n      caller\n        /* \"contracts/gainzilla.sol\":3076:3098  _owner == _msgSender() */\n      eq\n        /* \"contracts/gainzilla.sol\":3068:3135  require(_owner == _msgSender(), \"Ownable: caller is not the owner\") */\n      tag_555\n      jumpi\n      mload(0x40)\n      shl(0xe5, 0x461bcd)\n      dup2\n      mstore\n        /* \"#utility.yul\":13095:13097   */\n      0x20\n        /* \"contracts/gainzilla.sol\":3068:3135  require(_owner == _msgSender(), \"Ownable: caller is not the owner\") */\n      0x04\n      dup3\n      add\n        /* \"#utility.yul\":13077:13098   */\n      dup2\n      swap1\n      mstore\n        /* \"#utility.yul\":13114:13132   */\n      0x24\n      dup3\n      add\n        /* \"#utility.yul\":13107:13137   */\n      mstore\n        /* \"#utility.yul\":13173:13207   */\n      0x4f776e61626c653a2063616c6c6572206973206e6f7420746865206f776e6572\n        /* \"#utility.yul\":13153:13171   */\n      0x44\n      dup3\n      add\n        /* \"#utility.yul\":13146:13208   */\n      mstore\n        /* \"#utility.yul\":13225:13243   */\n      0x64\n      add\n        /* \"contracts/gainzilla.sol\":3068:3135  require(_owner == _msgSender(), \"Ownable: caller is not the owner\") */\n      tag_336\n        /* \"#utility.yul\":13067:13249   */\n      jump\n        /* \"contracts/gainzilla.sol\":3068:3135  require(_owner == _msgSender(), \"Ownable: caller is not the owner\") */\n    tag_555:\n      sub(shl(0xa0, 0x01), 0x01)\n        /* \"contracts/gainzilla.sol\":3390:3412  newOwner != address(0) */\n      dup2\n      and\n        /* \"contracts/gainzilla.sol\":3382:3455  require(newOwner != address(0), \"Ownable: new owner is the zero address\") */\n      tag_558\n      jumpi\n      mload(0x40)\n      shl(0xe5, 0x461bcd)\n      dup2\n      mstore\n        /* \"#utility.yul\":9572:9574   */\n      0x20\n        /* \"contracts/gainzilla.sol\":3382:3455  require(newOwner != address(0), \"Ownable: new owner is the zero address\") */\n      0x04\n      dup3\n      add\n        /* \"#utility.yul\":9554:9575   */\n      mstore\n        /* \"#utility.yul\":9611:9613   */\n      0x26\n        /* \"#utility.yul\":9591:9609   */\n      0x24\n      dup3\n      add\n        /* \"#utility.yul\":9584:9614   */\n      mstore\n        /* \"#utility.yul\":9650:9684   */\n      0x4f776e61626c653a206e6577206f776e657220697320746865207a65726f2061\n        /* \"#utility.yul\":9630:9648   */\n      0x44\n      dup3\n      add\n        /* \"#utility.yul\":9623:9685   */\n      mstore\n        /* \"#utility.yul\":9721:9729   */\n      0x6464726573730000000000000000000000000000000000000000000000000000\n        /* \"#utility.yul\":9701:9719   */\n      0x64\n      dup3\n      add\n        /* \"#utility.yul\":9694:9730   */\n      mstore\n        /* \"#utility.yul\":9747:9766   */\n      0x84\n      add\n        /* \"contracts/gainzilla.sol\":3382:3455  require(newOwner != address(0), \"Ownable: new owner is the zero address\") */\n      tag_336\n        /* \"#utility.yul\":9544:9772   */\n      jump\n        /* \"contracts/gainzilla.sol\":3382:3455  require(newOwner != address(0), \"Ownable: new owner is the zero address\") */\n    tag_558:\n        /* \"contracts/gainzilla.sol\":3465:3493  _transferOwnership(newOwner) */\n      tag_415\n        /* \"contracts/gainzilla.sol\":3484:3492  newOwner */\n      dup2\n        /* \"contracts/gainzilla.sol\":3465:3483  _transferOwnership */\n      tag_562\n        /* \"contracts/gainzilla.sol\":3465:3493  _transferOwnership(newOwner) */\n      jump\t// in\n        /* \"contracts/gainzilla.sol\":26968:27806  function setSellTaxes(uint256 marketingFee, uint256 liquidityFee, uint256 teamFee, uint256 ecosystemFee) external onlyOwner() {... */\n    tag_313:\n        /* \"contracts/gainzilla.sol\":3076:3082  _owner */\n      and(sub(shl(0xa0, 0x01), 0x01), sload(0x00))\n        /* \"contracts/gainzilla.sol\":818:828  msg.sender */\n      caller\n        /* \"contracts/gainzilla.sol\":3076:3098  _owner == _msgSender() */\n      eq\n        /* \"contracts/gainzilla.sol\":3068:3135  require(_owner == _msgSender(), \"Ownable: caller is not the owner\") */\n      tag_565\n      jumpi\n      mload(0x40)\n      shl(0xe5, 0x461bcd)\n      dup2\n      mstore\n        /* \"#utility.yul\":13095:13097   */\n      0x20\n        /* \"contracts/gainzilla.sol\":3068:3135  require(_owner == _msgSender(), \"Ownable: caller is not the owner\") */\n      0x04\n      dup3\n      add\n        /* \"#utility.yul\":13077:13098   */\n      dup2\n      swap1\n      mstore\n        /* \"#utility.yul\":13114:13132   */\n      0x24\n      dup3\n      add\n        /* \"#utility.yul\":13107:13137   */\n      mstore\n        /* \"#utility.yul\":13173:13207   */\n      0x4f776e61626c653a2063616c6c6572206973206e6f7420746865206f776e6572\n        /* \"#utility.yul\":13153:13171   */\n      0x44\n      dup3\n      add\n        /* \"#utility.yul\":13146:13208   */\n      mstore\n        /* \"#utility.yul\":13225:13243   */\n      0x64\n      add\n        /* \"contracts/gainzilla.sol\":3068:3135  require(_owner == _msgSender(), \"Ownable: caller is not the owner\") */\n      tag_336\n        /* \"#utility.yul\":13067:13249   */\n      jump\n        /* \"contracts/gainzilla.sol\":3068:3135  require(_owner == _msgSender(), \"Ownable: caller is not the owner\") */\n    tag_565:\n        /* \"contracts/gainzilla.sol\":27104:27120  uint256 totalFee */\n      0x00\n        /* \"contracts/gainzilla.sol\":27123:27184  marketingFee.add(liquidityFee).add(teamFee).add(ecosystemFee) */\n      tag_568\n        /* \"contracts/gainzilla.sol\":27171:27183  ecosystemFee */\n      dup3\n        /* \"contracts/gainzilla.sol\":27123:27166  marketingFee.add(liquidityFee).add(teamFee) */\n      tag_539\n        /* \"contracts/gainzilla.sol\":27158:27165  teamFee */\n      dup6\n        /* \"contracts/gainzilla.sol\":27123:27166  marketingFee.add(liquidityFee).add(teamFee) */\n      dup2\n        /* \"contracts/gainzilla.sol\":27123:27135  marketingFee */\n      dup10\n        /* \"contracts/gainzilla.sol\":27140:27152  liquidityFee */\n      dup10\n        /* \"contracts/gainzilla.sol\":27123:27139  marketingFee.add */\n      tag_540\n        /* \"contracts/gainzilla.sol\":27123:27153  marketingFee.add(liquidityFee) */\n      jump\t// in\n        /* \"contracts/gainzilla.sol\":27123:27184  marketingFee.add(liquidityFee).add(teamFee).add(ecosystemFee) */\n    tag_568:\n        /* \"contracts/gainzilla.sol\":27104:27184  uint256 totalFee = marketingFee.add(liquidityFee).add(teamFee).add(ecosystemFee) */\n      swap1\n      pop\n        /* \"contracts/gainzilla.sol\":27214:27217  250 */\n      0xfa\n        /* \"contracts/gainzilla.sol\":27202:27210  totalFee */\n      dup2\n        /* \"contracts/gainzilla.sol\":27202:27217  totalFee <= 250 */\n      gt\n      iszero\n        /* \"contracts/gainzilla.sol\":27194:27272  require(totalFee <= 250, \"Sum of sell fees must be less than or equal to 25%\") */\n      tag_571\n      jumpi\n      mload(0x40)\n      shl(0xe5, 0x461bcd)\n      dup2\n      mstore\n        /* \"#utility.yul\":11863:11865   */\n      0x20\n        /* \"contracts/gainzilla.sol\":27194:27272  require(totalFee <= 250, \"Sum of sell fees must be less than or equal to 25%\") */\n      0x04\n      dup3\n      add\n        /* \"#utility.yul\":11845:11866   */\n      mstore\n        /* \"#utility.yul\":11902:11904   */\n      0x32\n        /* \"#utility.yul\":11882:11900   */\n      0x24\n      dup3\n      add\n        /* \"#utility.yul\":11875:11905   */\n      mstore\n        /* \"#utility.yul\":11941:11975   */\n      0x53756d206f662073656c6c2066656573206d757374206265206c657373207468\n        /* \"#utility.yul\":11921:11939   */\n      0x44\n      dup3\n      add\n        /* \"#utility.yul\":11914:11976   */\n      mstore\n        /* \"#utility.yul\":12012:12032   */\n      0x616e206f7220657175616c20746f203235250000000000000000000000000000\n        /* \"#utility.yul\":11992:12010   */\n      0x64\n      dup3\n      add\n        /* \"#utility.yul\":11985:12033   */\n      mstore\n        /* \"#utility.yul\":12050:12069   */\n      0x84\n      add\n        /* \"contracts/gainzilla.sol\":27194:27272  require(totalFee <= 250, \"Sum of sell fees must be less than or equal to 25%\") */\n      tag_336\n        /* \"#utility.yul\":11835:12075   */\n      jump\n        /* \"contracts/gainzilla.sol\":27194:27272  require(totalFee <= 250, \"Sum of sell fees must be less than or equal to 25%\") */\n    tag_571:\n        /* \"contracts/gainzilla.sol\":27290:27302  canChangeTax */\n      sload(0x28)\n      0x0100000000\n      swap1\n      div\n      0xff\n      and\n        /* \"contracts/gainzilla.sol\":27282:27331  require(canChangeTax, \"This function is diabled\") */\n      tag_574\n      jumpi\n      mload(0x40)\n      shl(0xe5, 0x461bcd)\n      dup2\n      mstore\n        /* \"#utility.yul\":15098:15100   */\n      0x20\n        /* \"contracts/gainzilla.sol\":27282:27331  require(canChangeTax, \"This function is diabled\") */\n      0x04\n      dup3\n      add\n        /* \"#utility.yul\":15080:15101   */\n      mstore\n        /* \"#utility.yul\":15137:15139   */\n      0x18\n        /* \"#utility.yul\":15117:15135   */\n      0x24\n      dup3\n      add\n        /* \"#utility.yul\":15110:15140   */\n      mstore\n        /* \"#utility.yul\":15176:15202   */\n      0x546869732066756e6374696f6e20697320646961626c65640000000000000000\n        /* \"#utility.yul\":15156:15174   */\n      0x44\n      dup3\n      add\n        /* \"#utility.yul\":15149:15203   */\n      mstore\n        /* \"#utility.yul\":15220:15238   */\n      0x64\n      add\n        /* \"contracts/gainzilla.sol\":27282:27331  require(canChangeTax, \"This function is diabled\") */\n      tag_336\n        /* \"#utility.yul\":15070:15244   */\n      jump\n        /* \"contracts/gainzilla.sol\":27282:27331  require(canChangeTax, \"This function is diabled\") */\n    tag_574:\n        /* \"contracts/gainzilla.sol\":27342:27359  _sellMarketingFee */\n      0x15\n        /* \"contracts/gainzilla.sol\":27342:27374  _sellMarketingFee = marketingFee */\n      dup6\n      swap1\n      sstore\n        /* \"contracts/gainzilla.sol\":27384:27401  _sellLiquidityFee */\n      0x11\n        /* \"contracts/gainzilla.sol\":27384:27416  _sellLiquidityFee = liquidityFee */\n      dup5\n      swap1\n      sstore\n        /* \"contracts/gainzilla.sol\":27426:27438  _sellTeamFee */\n      0x17\n        /* \"contracts/gainzilla.sol\":27426:27448  _sellTeamFee = teamFee */\n      dup4\n      swap1\n      sstore\n        /* \"contracts/gainzilla.sol\":27458:27475  _sellEcosystemFee */\n      0x13\n        /* \"contracts/gainzilla.sol\":27458:27490  _sellEcosystemFee = ecosystemFee */\n      dup3\n      swap1\n      sstore\n        /* \"contracts/gainzilla.sol\":27509:27534  _previousSellMarketingFee */\n      0x16\n        /* \"contracts/gainzilla.sol\":27509:27554  _previousSellMarketingFee = _sellMarketingFee */\n      dup6\n      swap1\n      sstore\n        /* \"contracts/gainzilla.sol\":27564:27589  _previousSellLiquidityFee */\n      0x12\n        /* \"contracts/gainzilla.sol\":27564:27609  _previousSellLiquidityFee = _sellLiquidityFee */\n      dup5\n      swap1\n      sstore\n        /* \"contracts/gainzilla.sol\":27619:27639  _previousSellTeamFee */\n      0x18\n        /* \"contracts/gainzilla.sol\":27619:27654  _previousSellTeamFee = _sellTeamFee */\n      dup4\n      swap1\n      sstore\n        /* \"contracts/gainzilla.sol\":27664:27689  _previousSellEcosystemFee */\n      0x14\n        /* \"contracts/gainzilla.sol\":27664:27709  _previousSellEcosystemFee = _sellEcosystemFee */\n      dup3\n      swap1\n      sstore\n        /* \"contracts/gainzilla.sol\":27733:27799  SellFeesUpdated(marketingFee, liquidityFee, teamFee, ecosystemFee) */\n      0x40\n      dup1\n      mload\n        /* \"#utility.yul\":17576:17601   */\n      dup7\n      dup2\n      mstore\n        /* \"#utility.yul\":17632:17634   */\n      0x20\n        /* \"#utility.yul\":17617:17635   */\n      dup2\n      add\n        /* \"#utility.yul\":17610:17644   */\n      dup7\n      swap1\n      mstore\n        /* \"#utility.yul\":17660:17678   */\n      swap1\n      dup2\n      add\n        /* \"#utility.yul\":17653:17687   */\n      dup5\n      swap1\n      mstore\n        /* \"#utility.yul\":17718:17720   */\n      0x60\n        /* \"#utility.yul\":17703:17721   */\n      dup2\n      add\n        /* \"#utility.yul\":17696:17730   */\n      dup4\n      swap1\n      mstore\n        /* \"contracts/gainzilla.sol\":27733:27799  SellFeesUpdated(marketingFee, liquidityFee, teamFee, ecosystemFee) */\n      0x439932620c72dddea29980c098bca1a482729646d1216b226d723c6d278a30d1\n      swap1\n        /* \"#utility.yul\":17563:17566   */\n      0x80\n        /* \"#utility.yul\":17548:17567   */\n      add\n        /* \"contracts/gainzilla.sol\":27733:27799  SellFeesUpdated(marketingFee, liquidityFee, teamFee, ecosystemFee) */\n      tag_547\n        /* \"#utility.yul\":17530:17736   */\n      jump\n        /* \"contracts/gainzilla.sol\":29301:29855  function configureDiamondFloor(bool enabled, uint16 triggerPercentage) external onlyOwner {... */\n    tag_318:\n        /* \"contracts/gainzilla.sol\":3076:3082  _owner */\n      and(sub(shl(0xa0, 0x01), 0x01), sload(0x00))\n        /* \"contracts/gainzilla.sol\":818:828  msg.sender */\n      caller\n        /* \"contracts/gainzilla.sol\":3076:3098  _owner == _msgSender() */\n      eq\n        /* \"contracts/gainzilla.sol\":3068:3135  require(_owner == _msgSender(), \"Ownable: caller is not the owner\") */\n      tag_579\n      jumpi\n      mload(0x40)\n      shl(0xe5, 0x461bcd)\n      dup2\n      mstore\n        /* \"#utility.yul\":13095:13097   */\n      0x20\n        /* \"contracts/gainzilla.sol\":3068:3135  require(_owner == _msgSender(), \"Ownable: caller is not the owner\") */\n      0x04\n      dup3\n      add\n        /* \"#utility.yul\":13077:13098   */\n      dup2\n      swap1\n      mstore\n        /* \"#utility.yul\":13114:13132   */\n      0x24\n      dup3\n      add\n        /* \"#utility.yul\":13107:13137   */\n      mstore\n        /* \"#utility.yul\":13173:13207   */\n      0x4f776e61626c653a2063616c6c6572206973206e6f7420746865206f776e6572\n        /* \"#utility.yul\":13153:13171   */\n      0x44\n      dup3\n      add\n        /* \"#utility.yul\":13146:13208   */\n      mstore\n        /* \"#utility.yul\":13225:13243   */\n      0x64\n      add\n        /* \"contracts/gainzilla.sol\":3068:3135  require(_owner == _msgSender(), \"Ownable: caller is not the owner\") */\n      tag_336\n        /* \"#utility.yul\":13067:13249   */\n      jump\n        /* \"contracts/gainzilla.sol\":3068:3135  require(_owner == _msgSender(), \"Ownable: caller is not the owner\") */\n    tag_579:\n        /* \"contracts/gainzilla.sol\":29429:29433  1000 */\n      0x03e8\n        /* \"contracts/gainzilla.sol\":29409:29426  triggerPercentage */\n      dup2\n        /* \"contracts/gainzilla.sol\":29409:29433  triggerPercentage < 1000 */\n      0xffff\n      and\n      lt\n        /* \"contracts/gainzilla.sol\":29401:29478  require(triggerPercentage < 1000, \"Trigger percentage must be < 1000 (100%)\") */\n      tag_582\n      jumpi\n      mload(0x40)\n      shl(0xe5, 0x461bcd)\n      dup2\n      mstore\n        /* \"#utility.yul\":10739:10741   */\n      0x20\n        /* \"contracts/gainzilla.sol\":29401:29478  require(triggerPercentage < 1000, \"Trigger percentage must be < 1000 (100%)\") */\n      0x04\n      dup3\n      add\n        /* \"#utility.yul\":10721:10742   */\n      mstore\n        /* \"#utility.yul\":10778:10780   */\n      0x28\n        /* \"#utility.yul\":10758:10776   */\n      0x24\n      dup3\n      add\n        /* \"#utility.yul\":10751:10781   */\n      mstore\n        /* \"#utility.yul\":10817:10851   */\n      0x547269676765722070657263656e74616765206d757374206265203c20313030\n        /* \"#utility.yul\":10797:10815   */\n      0x44\n      dup3\n      add\n        /* \"#utility.yul\":10790:10852   */\n      mstore\n        /* \"#utility.yul\":10888:10898   */\n      0x3020283130302529000000000000000000000000000000000000000000000000\n        /* \"#utility.yul\":10868:10886   */\n      0x64\n      dup3\n      add\n        /* \"#utility.yul\":10861:10899   */\n      mstore\n        /* \"#utility.yul\":10916:10935   */\n      0x84\n      add\n        /* \"contracts/gainzilla.sol\":29401:29478  require(triggerPercentage < 1000, \"Trigger percentage must be < 1000 (100%)\") */\n      tag_336\n        /* \"#utility.yul\":10711:10941   */\n      jump\n        /* \"contracts/gainzilla.sol\":29401:29478  require(triggerPercentage < 1000, \"Trigger percentage must be < 1000 (100%)\") */\n    tag_582:\n        /* \"contracts/gainzilla.sol\":29488:29500  diamondFloor */\n      0x1c\n        /* \"contracts/gainzilla.sol\":29488:29518  diamondFloor.enabled = enabled */\n      dup1\n      sload\n        /* \"contracts/gainzilla.sol\":29528:29578  diamondFloor.triggerPercentage = triggerPercentage */\n      0xffffffffffffffffffffffffffffffffffffffffffffffffffffffffff000000\n      and\n        /* \"contracts/gainzilla.sol\":29488:29518  diamondFloor.enabled = enabled */\n      dup4\n      iszero\n      dup1\n      iszero\n        /* \"contracts/gainzilla.sol\":29528:29578  diamondFloor.triggerPercentage = triggerPercentage */\n      0xffffffffffffffffffffffffffffffffffffffffffffffffffffffffff0000ff\n      and\n      swap2\n      swap1\n      swap2\n      or\n        /* \"contracts/gainzilla.sol\":29488:29518  diamondFloor.enabled = enabled */\n      0x0100\n        /* \"contracts/gainzilla.sol\":29528:29578  diamondFloor.triggerPercentage = triggerPercentage */\n      0xffff\n      dup6\n      and\n      mul\n      or\n      swap1\n      swap2\n      sstore\n        /* \"contracts/gainzilla.sol\":29488:29518  diamondFloor.enabled = enabled */\n      dup3\n      swap1\n        /* \"contracts/gainzilla.sol\":29647:29684  enabled && diamondFloor.athPrice == 0 */\n      tag_585\n      jumpi\n      pop\n        /* \"contracts/gainzilla.sol\":29658:29679  diamondFloor.athPrice */\n      sload(0x1d)\n        /* \"contracts/gainzilla.sol\":29658:29684  diamondFloor.athPrice == 0 */\n      iszero\n        /* \"contracts/gainzilla.sol\":29647:29684  enabled && diamondFloor.athPrice == 0 */\n    tag_585:\n        /* \"contracts/gainzilla.sol\":29643:29849  if (enabled && diamondFloor.athPrice == 0) {... */\n      iszero\n      tag_418\n      jumpi\n        /* \"contracts/gainzilla.sol\":29700:29720  uint256 currentPrice */\n      0x00\n        /* \"contracts/gainzilla.sol\":29723:29734  pairPrice() */\n      tag_587\n        /* \"contracts/gainzilla.sol\":29723:29732  pairPrice */\n      tag_220\n        /* \"contracts/gainzilla.sol\":29723:29734  pairPrice() */\n      jump\t// in\n    tag_587:\n        /* \"contracts/gainzilla.sol\":29700:29734  uint256 currentPrice = pairPrice() */\n      swap1\n      pop\n        /* \"contracts/gainzilla.sol\":29752:29768  currentPrice > 0 */\n      dup1\n      iszero\n        /* \"contracts/gainzilla.sol\":29748:29839  if (currentPrice > 0) {... */\n      tag_383\n      jumpi\n        /* \"contracts/gainzilla.sol\":29788:29809  diamondFloor.athPrice */\n      0x1d\n        /* \"contracts/gainzilla.sol\":29788:29824  diamondFloor.athPrice = currentPrice */\n      sstore\n      pop\n      pop\n        /* \"contracts/gainzilla.sol\":29301:29855  function configureDiamondFloor(bool enabled, uint16 triggerPercentage) external onlyOwner {... */\n      jump\t// out\n        /* \"contracts/gainzilla.sol\":25393:25559  function addBot(address account) external onlyOwner() {... */\n    tag_326:\n        /* \"contracts/gainzilla.sol\":3076:3082  _owner */\n      and(sub(shl(0xa0, 0x01), 0x01), sload(0x00))\n        /* \"contracts/gainzilla.sol\":818:828  msg.sender */\n      caller\n        /* \"contracts/gainzilla.sol\":3076:3098  _owner == _msgSender() */\n      eq\n        /* \"contracts/gainzilla.sol\":3068:3135  require(_owner == _msgSender(), \"Ownable: caller is not the owner\") */\n      tag_591\n      jumpi\n      mload(0x40)\n      shl(0xe5, 0x461bcd)\n      dup2\n      mstore\n        /* \"#utility.yul\":13095:13097   */\n      0x20\n        /* \"contracts/gainzilla.sol\":3068:3135  require(_owner == _msgSender(), \"Ownable: caller is not the owner\") */\n      0x04\n      dup3\n      add\n        /* \"#utility.yul\":13077:13098   */\n      dup2\n      swap1\n      mstore\n        /* \"#utility.yul\":13114:13132   */\n      0x24\n      dup3\n      add\n        /* \"#utility.yul\":13107:13137   */\n      mstore\n        /* \"#utility.yul\":13173:13207   */\n      0x4f776e61626c653a2063616c6c6572206973206e6f7420746865206f776e6572\n        /* \"#utility.yul\":13153:13171   */\n      0x44\n      dup3\n      add\n        /* \"#utility.yul\":13146:13208   */\n      mstore\n        /* \"#utility.yul\":13225:13243   */\n      0x64\n      add\n        /* \"contracts/gainzilla.sol\":3068:3135  require(_owner == _msgSender(), \"Ownable: caller is not the owner\") */\n      tag_336\n        /* \"#utility.yul\":13067:13249   */\n      jump\n        /* \"contracts/gainzilla.sol\":3068:3135  require(_owner == _msgSender(), \"Ownable: caller is not the owner\") */\n    tag_591:\n        /* \"contracts/gainzilla.sol\":25465:25477  canBlackList */\n      sload(0x28)\n      0x01000000\n      swap1\n      div\n      0xff\n      and\n        /* \"contracts/gainzilla.sol\":25457:25522  require(canBlackList, \"this contract cannot blacklist addresses\") */\n      tag_594\n      jumpi\n      mload(0x40)\n      shl(0xe5, 0x461bcd)\n      dup2\n      mstore\n        /* \"#utility.yul\":14283:14285   */\n      0x20\n        /* \"contracts/gainzilla.sol\":25457:25522  require(canBlackList, \"this contract cannot blacklist addresses\") */\n      0x04\n      dup3\n      add\n        /* \"#utility.yul\":14265:14286   */\n      mstore\n        /* \"#utility.yul\":14322:14324   */\n      0x28\n        /* \"#utility.yul\":14302:14320   */\n      0x24\n      dup3\n      add\n        /* \"#utility.yul\":14295:14325   */\n      mstore\n        /* \"#utility.yul\":14361:14395   */\n      0x7468697320636f6e74726163742063616e6e6f7420626c61636b6c6973742061\n        /* \"#utility.yul\":14341:14359   */\n      0x44\n      dup3\n      add\n        /* \"#utility.yul\":14334:14396   */\n      mstore\n        /* \"#utility.yul\":14432:14442   */\n      0x6464726573736573000000000000000000000000000000000000000000000000\n        /* \"#utility.yul\":14412:14430   */\n      0x64\n      dup3\n      add\n        /* \"#utility.yul\":14405:14443   */\n      mstore\n        /* \"#utility.yul\":14460:14479   */\n      0x84\n      add\n        /* \"contracts/gainzilla.sol\":25457:25522  require(canBlackList, \"this contract cannot blacklist addresses\") */\n      tag_336\n        /* \"#utility.yul\":14255:14485   */\n      jump\n        /* \"contracts/gainzilla.sol\":25457:25522  require(canBlackList, \"this contract cannot blacklist addresses\") */\n    tag_594:\n      sub(shl(0xa0, 0x01), 0x01)\n        /* \"contracts/gainzilla.sol\":25532:25545  bots[account] */\n      and\n      0x00\n      swap1\n      dup2\n      mstore\n        /* \"contracts/gainzilla.sol\":25532:25536  bots */\n      0x20\n        /* \"contracts/gainzilla.sol\":25532:25545  bots[account] */\n      dup1\n      mstore\n      0x40\n      swap1\n      keccak256\n        /* \"contracts/gainzilla.sol\":25532:25552  bots[account] = true */\n      dup1\n      sload\n      not(0xff)\n      and\n        /* \"contracts/gainzilla.sol\":25548:25552  true */\n      0x01\n        /* \"contracts/gainzilla.sol\":25532:25552  bots[account] = true */\n      or\n      swap1\n      sstore\n        /* \"contracts/gainzilla.sol\":25393:25559  function addBot(address account) external onlyOwner() {... */\n      jump\t// out\n        /* \"contracts/gainzilla.sol\":14855:15185  function _approve(address owner, address spender, uint256 amount) private {... */\n    tag_332:\n      sub(shl(0xa0, 0x01), 0x01)\n        /* \"contracts/gainzilla.sol\":14947:14966  owner != address(0) */\n      dup4\n      and\n        /* \"contracts/gainzilla.sol\":14939:15007  require(owner != address(0), \"ERC20: approve from the zero address\") */\n      tag_599\n      jumpi\n      mload(0x40)\n      shl(0xe5, 0x461bcd)\n      dup2\n      mstore\n        /* \"#utility.yul\":15451:15453   */\n      0x20\n        /* \"contracts/gainzilla.sol\":14939:15007  require(owner != address(0), \"ERC20: approve from the zero address\") */\n      0x04\n      dup3\n      add\n        /* \"#utility.yul\":15433:15454   */\n      mstore\n        /* \"#utility.yul\":15490:15492   */\n      0x24\n        /* \"#utility.yul\":15470:15488   */\n      dup1\n      dup3\n      add\n        /* \"#utility.yul\":15463:15493   */\n      mstore\n        /* \"#utility.yul\":15529:15563   */\n      0x45524332303a20617070726f76652066726f6d20746865207a65726f20616464\n        /* \"#utility.yul\":15509:15527   */\n      0x44\n      dup3\n      add\n        /* \"#utility.yul\":15502:15564   */\n      mstore\n        /* \"#utility.yul\":15600:15606   */\n      0x7265737300000000000000000000000000000000000000000000000000000000\n        /* \"#utility.yul\":15580:15598   */\n      0x64\n      dup3\n      add\n        /* \"#utility.yul\":15573:15607   */\n      mstore\n        /* \"#utility.yul\":15624:15643   */\n      0x84\n      add\n        /* \"contracts/gainzilla.sol\":14939:15007  require(owner != address(0), \"ERC20: approve from the zero address\") */\n      tag_336\n        /* \"#utility.yul\":15423:15649   */\n      jump\n        /* \"contracts/gainzilla.sol\":14939:15007  require(owner != address(0), \"ERC20: approve from the zero address\") */\n    tag_599:\n      sub(shl(0xa0, 0x01), 0x01)\n        /* \"contracts/gainzilla.sol\":15025:15046  spender != address(0) */\n      dup3\n      and\n        /* \"contracts/gainzilla.sol\":15017:15085  require(spender != address(0), \"ERC20: approve to the zero address\") */\n      tag_602\n      jumpi\n      mload(0x40)\n      shl(0xe5, 0x461bcd)\n      dup2\n      mstore\n        /* \"#utility.yul\":9979:9981   */\n      0x20\n        /* \"contracts/gainzilla.sol\":15017:15085  require(spender != address(0), \"ERC20: approve to the zero address\") */\n      0x04\n      dup3\n      add\n        /* \"#utility.yul\":9961:9982   */\n      mstore\n        /* \"#utility.yul\":10018:10020   */\n      0x22\n        /* \"#utility.yul\":9998:10016   */\n      0x24\n      dup3\n      add\n        /* \"#utility.yul\":9991:10021   */\n      mstore\n        /* \"#utility.yul\":10057:10091   */\n      0x45524332303a20617070726f766520746f20746865207a65726f206164647265\n        /* \"#utility.yul\":10037:10055   */\n      0x44\n      dup3\n      add\n        /* \"#utility.yul\":10030:10092   */\n      mstore\n        /* \"#utility.yul\":10128:10132   */\n      0x7373000000000000000000000000000000000000000000000000000000000000\n        /* \"#utility.yul\":10108:10126   */\n      0x64\n      dup3\n      add\n        /* \"#utility.yul\":10101:10133   */\n      mstore\n        /* \"#utility.yul\":10150:10169   */\n      0x84\n      add\n        /* \"contracts/gainzilla.sol\":15017:15085  require(spender != address(0), \"ERC20: approve to the zero address\") */\n      tag_336\n        /* \"#utility.yul\":9951:10175   */\n      jump\n        /* \"contracts/gainzilla.sol\":15017:15085  require(spender != address(0), \"ERC20: approve to the zero address\") */\n    tag_602:\n      sub(shl(0xa0, 0x01), 0x01)\n        /* \"contracts/gainzilla.sol\":15095:15113  _allowances[owner] */\n      dup4\n      dup2\n      and\n      0x00\n      dup2\n      dup2\n      mstore\n        /* \"contracts/gainzilla.sol\":15095:15106  _allowances */\n      0x03\n        /* \"contracts/gainzilla.sol\":15095:15113  _allowances[owner] */\n      0x20\n      swap1\n      dup2\n      mstore\n      0x40\n      dup1\n      dup4\n      keccak256\n        /* \"contracts/gainzilla.sol\":15095:15122  _allowances[owner][spender] */\n      swap5\n      dup8\n      and\n      dup1\n      dup5\n      mstore\n      swap5\n      dup3\n      mstore\n      swap2\n      dup3\n      swap1\n      keccak256\n        /* \"contracts/gainzilla.sol\":15095:15131  _allowances[owner][spender] = amount */\n      dup6\n      swap1\n      sstore\n        /* \"contracts/gainzilla.sol\":15146:15178  Approval(owner, spender, amount) */\n      swap1\n      mload\n        /* \"#utility.yul\":7136:7161   */\n      dup5\n      dup2\n      mstore\n        /* \"contracts/gainzilla.sol\":15146:15178  Approval(owner, spender, amount) */\n      0x8c5be1e5ebec7d5bd14f71427d1e84f3dd0314c0f7b2291e5b200ac8c7c3b925\n      swap2\n        /* \"#utility.yul\":7109:7127   */\n      add\n        /* \"contracts/gainzilla.sol\":15146:15178  Approval(owner, spender, amount) */\n      mload(0x40)\n      dup1\n      swap2\n      sub\n      swap1\n      log3\n        /* \"contracts/gainzilla.sol\":14855:15185  function _approve(address owner, address spender, uint256 amount) private {... */\n      pop\n      pop\n      pop\n      jump\t// out\n        /* \"contracts/gainzilla.sol\":15195:18402  function _transfer(address from, address to, uint256 amount) private {... */\n    tag_347:\n      sub(shl(0xa0, 0x01), 0x01)\n        /* \"contracts/gainzilla.sol\":15282:15300  from != address(0) */\n      dup4\n      and\n        /* \"contracts/gainzilla.sol\":15274:15342  require(from != address(0), \"ERC20: transfer from the zero address\") */\n      tag_607\n      jumpi\n      mload(0x40)\n      shl(0xe5, 0x461bcd)\n      dup2\n      mstore\n        /* \"#utility.yul\":14692:14694   */\n      0x20\n        /* \"contracts/gainzilla.sol\":15274:15342  require(from != address(0), \"ERC20: transfer from the zero address\") */\n      0x04\n      dup3\n      add\n        /* \"#utility.yul\":14674:14695   */\n      mstore\n        /* \"#utility.yul\":14731:14733   */\n      0x25\n        /* \"#utility.yul\":14711:14729   */\n      0x24\n      dup3\n      add\n        /* \"#utility.yul\":14704:14734   */\n      mstore\n        /* \"#utility.yul\":14770:14804   */\n      0x45524332303a207472616e736665722066726f6d20746865207a65726f206164\n        /* \"#utility.yul\":14750:14768   */\n      0x44\n      dup3\n      add\n        /* \"#utility.yul\":14743:14805   */\n      mstore\n        /* \"#utility.yul\":14841:14848   */\n      0x6472657373000000000000000000000000000000000000000000000000000000\n        /* \"#utility.yul\":14821:14839   */\n      0x64\n      dup3\n      add\n        /* \"#utility.yul\":14814:14849   */\n      mstore\n        /* \"#utility.yul\":14866:14885   */\n      0x84\n      add\n        /* \"contracts/gainzilla.sol\":15274:15342  require(from != address(0), \"ERC20: transfer from the zero address\") */\n      tag_336\n        /* \"#utility.yul\":14664:14891   */\n      jump\n        /* \"contracts/gainzilla.sol\":15274:15342  require(from != address(0), \"ERC20: transfer from the zero address\") */\n    tag_607:\n      sub(shl(0xa0, 0x01), 0x01)\n        /* \"contracts/gainzilla.sol\":15360:15376  to != address(0) */\n      dup3\n      and\n        /* \"contracts/gainzilla.sol\":15352:15416  require(to != address(0), \"ERC20: transfer to the zero address\") */\n      tag_610\n      jumpi\n      mload(0x40)\n      shl(0xe5, 0x461bcd)\n      dup2\n      mstore\n        /* \"#utility.yul\":8400:8402   */\n      0x20\n        /* \"contracts/gainzilla.sol\":15352:15416  require(to != address(0), \"ERC20: transfer to the zero address\") */\n      0x04\n      dup3\n      add\n        /* \"#utility.yul\":8382:8403   */\n      mstore\n        /* \"#utility.yul\":8439:8441   */\n      0x23\n        /* \"#utility.yul\":8419:8437   */\n      0x24\n      dup3\n      add\n        /* \"#utility.yul\":8412:8442   */\n      mstore\n        /* \"#utility.yul\":8478:8512   */\n      0x45524332303a207472616e7366657220746f20746865207a65726f2061646472\n        /* \"#utility.yul\":8458:8476   */\n      0x44\n      dup3\n      add\n        /* \"#utility.yul\":8451:8513   */\n      mstore\n        /* \"#utility.yul\":8549:8554   */\n      0x6573730000000000000000000000000000000000000000000000000000000000\n        /* \"#utility.yul\":8529:8547   */\n      0x64\n      dup3\n      add\n        /* \"#utility.yul\":8522:8555   */\n      mstore\n        /* \"#utility.yul\":8572:8591   */\n      0x84\n      add\n        /* \"contracts/gainzilla.sol\":15352:15416  require(to != address(0), \"ERC20: transfer to the zero address\") */\n      tag_336\n        /* \"#utility.yul\":8372:8597   */\n      jump\n        /* \"contracts/gainzilla.sol\":15352:15416  require(to != address(0), \"ERC20: transfer to the zero address\") */\n    tag_610:\n        /* \"contracts/gainzilla.sol\":15443:15444  0 */\n      0x00\n        /* \"contracts/gainzilla.sol\":15434:15440  amount */\n      dup2\n        /* \"contracts/gainzilla.sol\":15434:15444  amount > 0 */\n      gt\n        /* \"contracts/gainzilla.sol\":15426:15490  require(amount > 0, \"Transfer amount must be greater than zero\") */\n      tag_613\n      jumpi\n      mload(0x40)\n      shl(0xe5, 0x461bcd)\n      dup2\n      mstore\n        /* \"#utility.yul\":13456:13458   */\n      0x20\n        /* \"contracts/gainzilla.sol\":15426:15490  require(amount > 0, \"Transfer amount must be greater than zero\") */\n      0x04\n      dup3\n      add\n        /* \"#utility.yul\":13438:13459   */\n      mstore\n        /* \"#utility.yul\":13495:13497   */\n      0x29\n        /* \"#utility.yul\":13475:13493   */\n      0x24\n      dup3\n      add\n        /* \"#utility.yul\":13468:13498   */\n      mstore\n        /* \"#utility.yul\":13534:13568   */\n      0x5472616e7366657220616d6f756e74206d757374206265206772656174657220\n        /* \"#utility.yul\":13514:13532   */\n      0x44\n      dup3\n      add\n        /* \"#utility.yul\":13507:13569   */\n      mstore\n        /* \"#utility.yul\":13605:13616   */\n      0x7468616e207a65726f0000000000000000000000000000000000000000000000\n        /* \"#utility.yul\":13585:13603   */\n      0x64\n      dup3\n      add\n        /* \"#utility.yul\":13578:13617   */\n      mstore\n        /* \"#utility.yul\":13634:13653   */\n      0x84\n      add\n        /* \"contracts/gainzilla.sol\":15426:15490  require(amount > 0, \"Transfer amount must be greater than zero\") */\n      tag_336\n        /* \"#utility.yul\":13428:13659   */\n      jump\n        /* \"contracts/gainzilla.sol\":15426:15490  require(amount > 0, \"Transfer amount must be greater than zero\") */\n    tag_613:\n        /* \"contracts/gainzilla.sol\":15516:15520  true */\n      0x01\n        /* \"contracts/gainzilla.sol\":15543:15550  owner() */\n      tag_616\n        /* \"contracts/gainzilla.sol\":2992:2999  address */\n      0x00\n        /* \"contracts/gainzilla.sol\":3018:3024  _owner */\n      sload\n      sub(shl(0xa0, 0x01), 0x01)\n      and\n      swap1\n        /* \"contracts/gainzilla.sol\":2954:3031  function owner() public view returns (address) {... */\n      jump\n        /* \"contracts/gainzilla.sol\":15543:15550  owner() */\n    tag_616:\n      sub(shl(0xa0, 0x01), 0x01)\n        /* \"contracts/gainzilla.sol\":15535:15550  from != owner() */\n      and\n        /* \"contracts/gainzilla.sol\":15535:15539  from */\n      dup5\n      sub(shl(0xa0, 0x01), 0x01)\n        /* \"contracts/gainzilla.sol\":15535:15550  from != owner() */\n      and\n      eq\n      iszero\n        /* \"contracts/gainzilla.sol\":15535:15567  from != owner() && to != owner() */\n      dup1\n      iszero\n      tag_617\n      jumpi\n      pop\n        /* \"contracts/gainzilla.sol\":2992:2999  address */\n      0x00\n        /* \"contracts/gainzilla.sol\":3018:3024  _owner */\n      sload\n      sub(shl(0xa0, 0x01), 0x01)\n        /* \"contracts/gainzilla.sol\":15554:15567  to != owner() */\n      dup5\n      dup2\n      and\n        /* \"contracts/gainzilla.sol\":3018:3024  _owner */\n      swap2\n      and\n        /* \"contracts/gainzilla.sol\":15554:15567  to != owner() */\n      eq\n      iszero\n        /* \"contracts/gainzilla.sol\":15535:15567  from != owner() && to != owner() */\n    tag_617:\n        /* \"contracts/gainzilla.sol\":15535:15592  from != owner() && to != owner() && from != address(this) */\n      dup1\n      iszero\n      tag_619\n      jumpi\n      pop\n      sub(shl(0xa0, 0x01), 0x01)\n        /* \"contracts/gainzilla.sol\":15571:15592  from != address(this) */\n      dup5\n      and\n        /* \"contracts/gainzilla.sol\":15587:15591  this */\n      address\n        /* \"contracts/gainzilla.sol\":15571:15592  from != address(this) */\n      eq\n      iszero\n        /* \"contracts/gainzilla.sol\":15535:15592  from != owner() && to != owner() && from != address(this) */\n    tag_619:\n        /* \"contracts/gainzilla.sol\":15535:15615  from != owner() && to != owner() && from != address(this) && to != address(this) */\n      dup1\n      iszero\n      tag_620\n      jumpi\n      pop\n      sub(shl(0xa0, 0x01), 0x01)\n        /* \"contracts/gainzilla.sol\":15596:15615  to != address(this) */\n      dup4\n      and\n        /* \"contracts/gainzilla.sol\":15610:15614  this */\n      address\n        /* \"contracts/gainzilla.sol\":15596:15615  to != address(this) */\n      eq\n      iszero\n        /* \"contracts/gainzilla.sol\":15535:15615  from != owner() && to != owner() && from != address(this) && to != address(this) */\n    tag_620:\n        /* \"contracts/gainzilla.sol\":15531:18230  if (from != owner() && to != owner() && from != address(this) && to != address(this)) {... */\n      iszero\n      tag_676\n      jumpi\n        /* \"contracts/gainzilla.sol\":15639:15650  tradingOpen */\n      and(0xff, sload(0x28))\n        /* \"contracts/gainzilla.sol\":15631:15676  require(tradingOpen, \"Trading is not active\") */\n      tag_622\n      jumpi\n      mload(0x40)\n      shl(0xe5, 0x461bcd)\n      dup2\n      mstore\n        /* \"#utility.yul\":9222:9224   */\n      0x20\n        /* \"contracts/gainzilla.sol\":15631:15676  require(tradingOpen, \"Trading is not active\") */\n      0x04\n      dup3\n      add\n        /* \"#utility.yul\":9204:9225   */\n      mstore\n        /* \"#utility.yul\":9261:9263   */\n      0x15\n        /* \"#utility.yul\":9241:9259   */\n      0x24\n      dup3\n      add\n        /* \"#utility.yul\":9234:9264   */\n      mstore\n        /* \"#utility.yul\":9300:9323   */\n      0x54726164696e67206973206e6f74206163746976650000000000000000000000\n        /* \"#utility.yul\":9280:9298   */\n      0x44\n      dup3\n      add\n        /* \"#utility.yul\":9273:9324   */\n      mstore\n        /* \"#utility.yul\":9341:9359   */\n      0x64\n      add\n        /* \"contracts/gainzilla.sol\":15631:15676  require(tradingOpen, \"Trading is not active\") */\n      tag_336\n        /* \"#utility.yul\":9194:9365   */\n      jump\n        /* \"contracts/gainzilla.sol\":15631:15676  require(tradingOpen, \"Trading is not active\") */\n    tag_622:\n        /* \"contracts/gainzilla.sol\":15702:15715  uniswapV2Pair */\n      sload(0x26)\n      sub(shl(0xa0, 0x01), 0x01)\n        /* \"contracts/gainzilla.sol\":15694:15715  from == uniswapV2Pair */\n      dup6\n      dup2\n      and\n        /* \"contracts/gainzilla.sol\":15702:15715  uniswapV2Pair */\n      swap2\n      and\n        /* \"contracts/gainzilla.sol\":15694:15715  from == uniswapV2Pair */\n      eq\n        /* \"contracts/gainzilla.sol\":15694:15749  from == uniswapV2Pair && to != address(uniswapV2Router) */\n      dup1\n      iszero\n      tag_625\n      jumpi\n      pop\n        /* \"contracts/gainzilla.sol\":15733:15748  uniswapV2Router */\n      sload(0x25)\n      sub(shl(0xa0, 0x01), 0x01)\n        /* \"contracts/gainzilla.sol\":15719:15749  to != address(uniswapV2Router) */\n      dup5\n      dup2\n      and\n        /* \"contracts/gainzilla.sol\":15733:15748  uniswapV2Router */\n      swap2\n      and\n        /* \"contracts/gainzilla.sol\":15719:15749  to != address(uniswapV2Router) */\n      eq\n      iszero\n        /* \"contracts/gainzilla.sol\":15694:15749  from == uniswapV2Pair && to != address(uniswapV2Router) */\n    tag_625:\n        /* \"contracts/gainzilla.sol\":15690:16110  if (from == uniswapV2Pair && to != address(uniswapV2Router)) {//buys... */\n      iszero\n      tag_632\n      jumpi\n        /* \"contracts/gainzilla.sol\":15815:15825  _botBlocks */\n      sload(0x06)\n        /* \"contracts/gainzilla.sol\":15799:15810  _firstBlock */\n      sload(0x05)\n        /* \"contracts/gainzilla.sol\":15799:15826  _firstBlock.add(_botBlocks) */\n      tag_627\n      swap2\n        /* \"contracts/gainzilla.sol\":15799:15814  _firstBlock.add */\n      tag_540\n        /* \"contracts/gainzilla.sol\":15799:15826  _firstBlock.add(_botBlocks) */\n      jump\t// in\n    tag_627:\n        /* \"contracts/gainzilla.sol\":15780:15795  block.timestamp */\n      timestamp\n        /* \"contracts/gainzilla.sol\":15780:15826  block.timestamp <= _firstBlock.add(_botBlocks) */\n      gt\n        /* \"contracts/gainzilla.sol\":15776:15884  if (block.timestamp <= _firstBlock.add(_botBlocks)) {... */\n      tag_628\n      jumpi\n      sub(shl(0xa0, 0x01), 0x01)\n        /* \"contracts/gainzilla.sol\":15850:15858  bots[to] */\n      dup4\n      and\n      0x00\n      swap1\n      dup2\n      mstore\n        /* \"contracts/gainzilla.sol\":15850:15854  bots */\n      0x20\n        /* \"contracts/gainzilla.sol\":15850:15858  bots[to] */\n      dup1\n      mstore\n      0x40\n      swap1\n      keccak256\n        /* \"contracts/gainzilla.sol\":15850:15865  bots[to] = true */\n      dup1\n      sload\n      not(0xff)\n      and\n        /* \"contracts/gainzilla.sol\":15861:15865  true */\n      0x01\n        /* \"contracts/gainzilla.sol\":15850:15865  bots[to] = true */\n      or\n      swap1\n      sstore\n        /* \"contracts/gainzilla.sol\":15776:15884  if (block.timestamp <= _firstBlock.add(_botBlocks)) {... */\n    tag_628:\n      sub(shl(0xa0, 0x01), 0x01)\n        /* \"contracts/gainzilla.sol\":15907:15929  _isExcludedFromFee[to] */\n      dup4\n      and\n      0x00\n      swap1\n      dup2\n      mstore\n        /* \"contracts/gainzilla.sol\":15907:15925  _isExcludedFromFee */\n      0x04\n        /* \"contracts/gainzilla.sol\":15907:15929  _isExcludedFromFee[to] */\n      0x20\n      mstore\n      0x40\n      swap1\n      keccak256\n      sload\n      0xff\n      and\n        /* \"contracts/gainzilla.sol\":15902:16096  if (!_isExcludedFromFee[to]) {... */\n      tag_632\n      jumpi\n        /* \"contracts/gainzilla.sol\":15990:16006  _maxWalletAmount */\n      sload(0x07)\n        /* \"contracts/gainzilla.sol\":15961:15986  balanceOf(to).add(amount) */\n      tag_630\n        /* \"contracts/gainzilla.sol\":15979:15985  amount */\n      dup4\n        /* \"contracts/gainzilla.sol\":15961:15974  balanceOf(to) */\n      tag_539\n        /* \"contracts/gainzilla.sol\":15971:15973  to */\n      dup7\n      sub(shl(0xa0, 0x01), 0x01)\n        /* \"contracts/gainzilla.sol\":12744:12762  _balances[account] */\n      and\n        /* \"contracts/gainzilla.sol\":12718:12725  uint256 */\n      0x00\n        /* \"contracts/gainzilla.sol\":12744:12762  _balances[account] */\n      swap1\n      dup2\n      mstore\n        /* \"contracts/gainzilla.sol\":12744:12753  _balances */\n      0x02\n        /* \"contracts/gainzilla.sol\":12744:12762  _balances[account] */\n      0x20\n      mstore\n      0x40\n      swap1\n      keccak256\n      sload\n      swap1\n        /* \"contracts/gainzilla.sol\":12652:12769  function balanceOf(address account) public view override returns (uint256) {... */\n      jump\n        /* \"contracts/gainzilla.sol\":15961:15986  balanceOf(to).add(amount) */\n    tag_630:\n        /* \"contracts/gainzilla.sol\":15961:16006  balanceOf(to).add(amount) <= _maxWalletAmount */\n      gt\n      iszero\n        /* \"contracts/gainzilla.sol\":15953:16077  require(balanceOf(to).add(amount) <= _maxWalletAmount, \".wallet balance after transfer must be less than max wallet amount\") */\n      tag_632\n      jumpi\n      mload(0x40)\n      shl(0xe5, 0x461bcd)\n      dup2\n      mstore\n        /* \"#utility.yul\":15856:15858   */\n      0x20\n        /* \"contracts/gainzilla.sol\":15953:16077  require(balanceOf(to).add(amount) <= _maxWalletAmount, \".wallet balance after transfer must be less than max wallet amount\") */\n      0x04\n      dup3\n      add\n        /* \"#utility.yul\":15838:15859   */\n      mstore\n        /* \"#utility.yul\":15895:15897   */\n      0x42\n        /* \"#utility.yul\":15875:15893   */\n      0x24\n      dup3\n      add\n        /* \"#utility.yul\":15868:15898   */\n      mstore\n        /* \"#utility.yul\":15934:15968   */\n      0x2e77616c6c65742062616c616e6365206166746572207472616e73666572206d\n        /* \"#utility.yul\":15914:15932   */\n      0x44\n      dup3\n      add\n        /* \"#utility.yul\":15907:15969   */\n      mstore\n        /* \"#utility.yul\":16005:16039   */\n      0x757374206265206c657373207468616e206d61782077616c6c657420616d6f75\n        /* \"#utility.yul\":15985:16003   */\n      0x64\n      dup3\n      add\n        /* \"#utility.yul\":15978:16040   */\n      mstore\n        /* \"#utility.yul\":16077:16081   */\n      0x6e74000000000000000000000000000000000000000000000000000000000000\n        /* \"#utility.yul\":16056:16075   */\n      0x84\n      dup3\n      add\n        /* \"#utility.yul\":16049:16082   */\n      mstore\n        /* \"#utility.yul\":16099:16118   */\n      0xa4\n      add\n        /* \"contracts/gainzilla.sol\":15953:16077  require(balanceOf(to).add(amount) <= _maxWalletAmount, \".wallet balance after transfer must be less than max wallet amount\") */\n      tag_336\n        /* \"#utility.yul\":15828:16124   */\n      jump\n        /* \"contracts/gainzilla.sol\":15953:16077  require(balanceOf(to).add(amount) <= _maxWalletAmount, \".wallet balance after transfer must be less than max wallet amount\") */\n    tag_632:\n        /* \"contracts/gainzilla.sol\":16141:16147  inSwap */\n      sload(0x28)\n      0x0100\n      swap1\n      div\n      0xff\n      and\n        /* \"contracts/gainzilla.sol\":16140:16147  !inSwap */\n      iszero\n        /* \"contracts/gainzilla.sol\":16140:16172  !inSwap && from != uniswapV2Pair */\n      dup1\n      iszero\n      tag_635\n      jumpi\n      pop\n        /* \"contracts/gainzilla.sol\":16159:16172  uniswapV2Pair */\n      sload(0x26)\n      sub(shl(0xa0, 0x01), 0x01)\n        /* \"contracts/gainzilla.sol\":16151:16172  from != uniswapV2Pair */\n      dup6\n      dup2\n      and\n        /* \"contracts/gainzilla.sol\":16159:16172  uniswapV2Pair */\n      swap2\n      and\n        /* \"contracts/gainzilla.sol\":16151:16172  from != uniswapV2Pair */\n      eq\n      iszero\n        /* \"contracts/gainzilla.sol\":16140:16172  !inSwap && from != uniswapV2Pair */\n    tag_635:\n        /* \"contracts/gainzilla.sol\":16140:16195  !inSwap && from != uniswapV2Pair && to == uniswapV2Pair */\n      dup1\n      iszero\n      tag_636\n      jumpi\n      pop\n        /* \"contracts/gainzilla.sol\":16182:16195  uniswapV2Pair */\n      sload(0x26)\n      sub(shl(0xa0, 0x01), 0x01)\n        /* \"contracts/gainzilla.sol\":16176:16195  to == uniswapV2Pair */\n      dup5\n      dup2\n      and\n        /* \"contracts/gainzilla.sol\":16182:16195  uniswapV2Pair */\n      swap2\n      and\n        /* \"contracts/gainzilla.sol\":16176:16195  to == uniswapV2Pair */\n      eq\n        /* \"contracts/gainzilla.sol\":16140:16195  !inSwap && from != uniswapV2Pair && to == uniswapV2Pair */\n    tag_636:\n        /* \"contracts/gainzilla.sol\":16136:17902  if (!inSwap && from != uniswapV2Pair && to == uniswapV2Pair) { //sells... */\n      iszero\n      tag_637\n      jumpi\n      sub(shl(0xa0, 0x01), 0x01)\n        /* \"contracts/gainzilla.sol\":16232:16242  bots[from] */\n      dup5\n      and\n      0x00\n      swap1\n      dup2\n      mstore\n        /* \"contracts/gainzilla.sol\":16232:16236  bots */\n      0x20\n        /* \"contracts/gainzilla.sol\":16232:16242  bots[from] */\n      dup1\n      mstore\n      0x40\n      swap1\n      keccak256\n      sload\n      0xff\n      and\n        /* \"contracts/gainzilla.sol\":16231:16242  !bots[from] */\n      iszero\n        /* \"contracts/gainzilla.sol\":16231:16255  !bots[from] && !bots[to] */\n      dup1\n      iszero\n      tag_638\n      jumpi\n      pop\n      sub(shl(0xa0, 0x01), 0x01)\n        /* \"contracts/gainzilla.sol\":16247:16255  bots[to] */\n      dup4\n      and\n      0x00\n      swap1\n      dup2\n      mstore\n        /* \"contracts/gainzilla.sol\":16247:16251  bots */\n      0x20\n        /* \"contracts/gainzilla.sol\":16247:16255  bots[to] */\n      dup1\n      mstore\n      0x40\n      swap1\n      keccak256\n      sload\n      0xff\n      and\n        /* \"contracts/gainzilla.sol\":16246:16255  !bots[to] */\n      iszero\n        /* \"contracts/gainzilla.sol\":16231:16255  !bots[from] && !bots[to] */\n    tag_638:\n        /* \"contracts/gainzilla.sol\":16223:16256  require(!bots[from] && !bots[to]) */\n      tag_639\n      jumpi\n      0x00\n      dup1\n      revert\n    tag_639:\n        /* \"contracts/gainzilla.sol\":16324:16332  cooldown */\n      0x1a\n        /* \"contracts/gainzilla.sol\":16324:16340  cooldown.enabled */\n      sload\n      0xff\n      and\n        /* \"contracts/gainzilla.sol\":16320:16553  if (cooldown.enabled) {... */\n      iszero\n      tag_640\n      jumpi\n      sub(shl(0xa0, 0x01), 0x01)\n        /* \"contracts/gainzilla.sol\":16391:16416  cooldown.walletList[from] */\n      dup5\n      and\n      0x00\n      swap1\n      dup2\n      mstore\n        /* \"contracts/gainzilla.sol\":16391:16410  cooldown.walletList */\n      0x1b\n        /* \"contracts/gainzilla.sol\":16391:16416  cooldown.walletList[from] */\n      0x20\n      mstore\n      0x40\n      swap1\n      keccak256\n      sload\n        /* \"contracts/gainzilla.sol\":16372:16387  block.timestamp */\n      timestamp\n        /* \"contracts/gainzilla.sol\":16372:16416  block.timestamp >= cooldown.walletList[from] */\n      lt\n      iszero\n        /* \"contracts/gainzilla.sol\":16364:16449  require(block.timestamp >= cooldown.walletList[from], \"Strong Hands Protocol active\") */\n      tag_641\n      jumpi\n      mload(0x40)\n      shl(0xe5, 0x461bcd)\n      dup2\n      mstore\n        /* \"#utility.yul\":10382:10384   */\n      0x20\n        /* \"contracts/gainzilla.sol\":16364:16449  require(block.timestamp >= cooldown.walletList[from], \"Strong Hands Protocol active\") */\n      0x04\n      dup3\n      add\n        /* \"#utility.yul\":10364:10385   */\n      mstore\n        /* \"#utility.yul\":10421:10423   */\n      0x1c\n        /* \"#utility.yul\":10401:10419   */\n      0x24\n      dup3\n      add\n        /* \"#utility.yul\":10394:10424   */\n      mstore\n        /* \"#utility.yul\":10460:10490   */\n      0x5374726f6e672048616e64732050726f746f636f6c2061637469766500000000\n        /* \"#utility.yul\":10440:10458   */\n      0x44\n      dup3\n      add\n        /* \"#utility.yul\":10433:10491   */\n      mstore\n        /* \"#utility.yul\":10508:10526   */\n      0x64\n      add\n        /* \"contracts/gainzilla.sol\":16364:16449  require(block.timestamp >= cooldown.walletList[from], \"Strong Hands Protocol active\") */\n      tag_336\n        /* \"#utility.yul\":10354:10532   */\n      jump\n        /* \"contracts/gainzilla.sol\":16364:16449  require(block.timestamp >= cooldown.walletList[from], \"Strong Hands Protocol active\") */\n    tag_641:\n        /* \"contracts/gainzilla.sol\":16517:16525  cooldown */\n      0x1a\n        /* \"contracts/gainzilla.sol\":16517:16534  cooldown.duration */\n      sload\n        /* \"contracts/gainzilla.sol\":16499:16534  block.timestamp + cooldown.duration */\n      tag_644\n      swap1\n        /* \"contracts/gainzilla.sol\":16517:16534  cooldown.duration */\n      0x0100\n      swap1\n      div\n      0xffffffff\n      and\n        /* \"contracts/gainzilla.sol\":16499:16514  block.timestamp */\n      timestamp\n        /* \"contracts/gainzilla.sol\":16499:16534  block.timestamp + cooldown.duration */\n      tag_645\n      jump\t// in\n    tag_644:\n      sub(shl(0xa0, 0x01), 0x01)\n        /* \"contracts/gainzilla.sol\":16471:16496  cooldown.walletList[from] */\n      dup6\n      and\n      0x00\n      swap1\n      dup2\n      mstore\n        /* \"contracts/gainzilla.sol\":16471:16490  cooldown.walletList */\n      0x1b\n        /* \"contracts/gainzilla.sol\":16471:16496  cooldown.walletList[from] */\n      0x20\n      mstore\n      0x40\n      swap1\n      keccak256\n        /* \"contracts/gainzilla.sol\":16471:16534  cooldown.walletList[from] = block.timestamp + cooldown.duration */\n      sstore\n        /* \"contracts/gainzilla.sol\":16320:16553  if (cooldown.enabled) {... */\n    tag_640:\n        /* \"contracts/gainzilla.sol\":16614:16626  diamondFloor */\n      0x1c\n        /* \"contracts/gainzilla.sol\":16614:16634  diamondFloor.enabled */\n      sload\n      0xff\n      and\n        /* \"contracts/gainzilla.sol\":16610:16790  if (diamondFloor.enabled) {... */\n      iszero\n      tag_650\n      jumpi\n        /* \"contracts/gainzilla.sol\":16667:16691  diamondFloor.sellStopped */\n      and(0xff, sload(0x1e))\n        /* \"contracts/gainzilla.sol\":16666:16691  !diamondFloor.sellStopped */\n      iszero\n        /* \"contracts/gainzilla.sol\":16658:16726  require(!diamondFloor.sellStopped, \"Sells stopped by Diamond Floor\") */\n      tag_647\n      jumpi\n      mload(0x40)\n      shl(0xe5, 0x461bcd)\n      dup2\n      mstore\n        /* \"#utility.yul\":11504:11506   */\n      0x20\n        /* \"contracts/gainzilla.sol\":16658:16726  require(!diamondFloor.sellStopped, \"Sells stopped by Diamond Floor\") */\n      0x04\n      dup3\n      add\n        /* \"#utility.yul\":11486:11507   */\n      mstore\n        /* \"#utility.yul\":11543:11545   */\n      0x1e\n        /* \"#utility.yul\":11523:11541   */\n      0x24\n      dup3\n      add\n        /* \"#utility.yul\":11516:11546   */\n      mstore\n        /* \"#utility.yul\":11582:11614   */\n      0x53656c6c732073746f70706564206279204469616d6f6e6420466c6f6f720000\n        /* \"#utility.yul\":11562:11580   */\n      0x44\n      dup3\n      add\n        /* \"#utility.yul\":11555:11615   */\n      mstore\n        /* \"#utility.yul\":11632:11650   */\n      0x64\n      add\n        /* \"contracts/gainzilla.sol\":16658:16726  require(!diamondFloor.sellStopped, \"Sells stopped by Diamond Floor\") */\n      tag_336\n        /* \"#utility.yul\":11476:11656   */\n      jump\n        /* \"contracts/gainzilla.sol\":16658:16726  require(!diamondFloor.sellStopped, \"Sells stopped by Diamond Floor\") */\n    tag_647:\n        /* \"contracts/gainzilla.sol\":16748:16771  _checkPriceConditions() */\n      tag_650\n        /* \"contracts/gainzilla.sol\":16748:16769  _checkPriceConditions */\n      tag_651\n        /* \"contracts/gainzilla.sol\":16748:16771  _checkPriceConditions() */\n      jump\t// in\n    tag_650:\n        /* \"contracts/gainzilla.sol\":16873:16877  this */\n      address\n        /* \"contracts/gainzilla.sol\":16824:16852  uint256 contractTokenBalance */\n      0x00\n        /* \"contracts/gainzilla.sol\":12744:12762  _balances[account] */\n      swap1\n      dup2\n      mstore\n        /* \"contracts/gainzilla.sol\":12744:12753  _balances */\n      0x02\n        /* \"contracts/gainzilla.sol\":12744:12762  _balances[account] */\n      0x20\n      mstore\n      0x40\n      swap1\n      keccak256\n      sload\n        /* \"contracts/gainzilla.sol\":16926:16941  numTokensToSwap */\n      sload(0x08)\n        /* \"contracts/gainzilla.sol\":16902:16941  contractTokenBalance >= numTokensToSwap */\n      dup2\n      lt\n        /* \"contracts/gainzilla.sol\":16898:17867  if (contractTokenBalance >= numTokensToSwap) {... */\n      tag_653\n      jumpi\n        /* \"contracts/gainzilla.sol\":16969:16993  contractTokenBalance > 0 */\n      dup1\n      iszero\n        /* \"contracts/gainzilla.sol\":16965:17644  if (contractTokenBalance > 0) {... */\n      tag_658\n      jumpi\n        /* \"contracts/gainzilla.sol\":17109:17110  0 */\n      0x00\n        /* \"contracts/gainzilla.sol\":17025:17106  _sellMarketingFee.add(_sellTeamFee).add(_sellEcosystemFee).add(_sellLiquidityFee) */\n      tag_655\n        /* \"contracts/gainzilla.sol\":17088:17105  _sellLiquidityFee */\n      sload(0x11)\n        /* \"contracts/gainzilla.sol\":17025:17083  _sellMarketingFee.add(_sellTeamFee).add(_sellEcosystemFee) */\n      tag_539\n        /* \"contracts/gainzilla.sol\":17065:17082  _sellEcosystemFee */\n      sload(0x13)\n        /* \"contracts/gainzilla.sol\":17025:17060  _sellMarketingFee.add(_sellTeamFee) */\n      tag_539\n        /* \"contracts/gainzilla.sol\":17047:17059  _sellTeamFee */\n      sload(0x17)\n        /* \"contracts/gainzilla.sol\":17025:17042  _sellMarketingFee */\n      sload(0x15)\n        /* \"contracts/gainzilla.sol\":17025:17046  _sellMarketingFee.add */\n      tag_540\n      swap1\n        /* \"contracts/gainzilla.sol\":17025:17060  _sellMarketingFee.add(_sellTeamFee) */\n      swap2\n      swap1\n      0xffffffff\n      and\n      jump\t// in\n        /* \"contracts/gainzilla.sol\":17025:17106  _sellMarketingFee.add(_sellTeamFee).add(_sellEcosystemFee).add(_sellLiquidityFee) */\n    tag_655:\n        /* \"contracts/gainzilla.sol\":17025:17110  _sellMarketingFee.add(_sellTeamFee).add(_sellEcosystemFee).add(_sellLiquidityFee) > 0 */\n      gt\n        /* \"contracts/gainzilla.sol\":17021:17622  if (_sellMarketingFee.add(_sellTeamFee).add(_sellEcosystemFee).add(_sellLiquidityFee) > 0) {... */\n      iszero\n      tag_658\n      jumpi\n        /* \"contracts/gainzilla.sol\":17142:17162  uint256 autoLPamount */\n      0x00\n        /* \"contracts/gainzilla.sol\":17165:17295  _sellLiquidityFee.mul(contractTokenBalance).div(_sellMarketingFee.add(_sellTeamFee).add(_sellEcosystemFee).add(_sellLiquidityFee)) */\n      tag_659\n        /* \"contracts/gainzilla.sol\":17213:17294  _sellMarketingFee.add(_sellTeamFee).add(_sellEcosystemFee).add(_sellLiquidityFee) */\n      tag_660\n        /* \"contracts/gainzilla.sol\":17276:17293  _sellLiquidityFee */\n      sload(0x11)\n        /* \"contracts/gainzilla.sol\":17213:17271  _sellMarketingFee.add(_sellTeamFee).add(_sellEcosystemFee) */\n      tag_539\n        /* \"contracts/gainzilla.sol\":17253:17270  _sellEcosystemFee */\n      sload(0x13)\n        /* \"contracts/gainzilla.sol\":17213:17248  _sellMarketingFee.add(_sellTeamFee) */\n      tag_539\n        /* \"contracts/gainzilla.sol\":17235:17247  _sellTeamFee */\n      sload(0x17)\n        /* \"contracts/gainzilla.sol\":17213:17230  _sellMarketingFee */\n      sload(0x15)\n        /* \"contracts/gainzilla.sol\":17213:17234  _sellMarketingFee.add */\n      tag_540\n      swap1\n        /* \"contracts/gainzilla.sol\":17213:17248  _sellMarketingFee.add(_sellTeamFee) */\n      swap2\n      swap1\n      0xffffffff\n      and\n      jump\t// in\n        /* \"contracts/gainzilla.sol\":17213:17294  _sellMarketingFee.add(_sellTeamFee).add(_sellEcosystemFee).add(_sellLiquidityFee) */\n    tag_660:\n        /* \"contracts/gainzilla.sol\":17165:17182  _sellLiquidityFee */\n      sload(0x11)\n        /* \"contracts/gainzilla.sol\":17165:17208  _sellLiquidityFee.mul(contractTokenBalance) */\n      tag_437\n      swap1\n        /* \"contracts/gainzilla.sol\":17187:17207  contractTokenBalance */\n      dup6\n        /* \"contracts/gainzilla.sol\":17165:17186  _sellLiquidityFee.mul */\n      tag_440\n        /* \"contracts/gainzilla.sol\":17165:17208  _sellLiquidityFee.mul(contractTokenBalance) */\n      jump\t// in\n        /* \"contracts/gainzilla.sol\":17165:17295  _sellLiquidityFee.mul(contractTokenBalance).div(_sellMarketingFee.add(_sellTeamFee).add(_sellEcosystemFee).add(_sellLiquidityFee)) */\n    tag_659:\n        /* \"contracts/gainzilla.sol\":17142:17295  uint256 autoLPamount = _sellLiquidityFee.mul(contractTokenBalance).div(_sellMarketingFee.add(_sellTeamFee).add(_sellEcosystemFee).add(_sellLiquidityFee)) */\n      swap1\n      pop\n        /* \"contracts/gainzilla.sol\":17325:17340  uint256 minusLP */\n      0x00\n        /* \"contracts/gainzilla.sol\":17402:17414  autoLPamount */\n      dup2\n        /* \"contracts/gainzilla.sol\":17378:17398  contractTokenBalance */\n      dup4\n        /* \"contracts/gainzilla.sol\":17378:17414  contractTokenBalance >= autoLPamount */\n      lt\n        /* \"contracts/gainzilla.sol\":17374:17529  if (contractTokenBalance >= autoLPamount) {... */\n      tag_664\n      jumpi\n        /* \"contracts/gainzilla.sol\":17460:17498  contractTokenBalance.sub(autoLPamount) */\n      tag_665\n        /* \"contracts/gainzilla.sol\":17460:17480  contractTokenBalance */\n      dup4\n        /* \"contracts/gainzilla.sol\":17485:17497  autoLPamount */\n      dup4\n        /* \"contracts/gainzilla.sol\":17460:17484  contractTokenBalance.sub */\n      tag_439\n        /* \"contracts/gainzilla.sol\":17460:17498  contractTokenBalance.sub(autoLPamount) */\n      jump\t// in\n    tag_665:\n        /* \"contracts/gainzilla.sol\":17450:17498  minusLP = contractTokenBalance.sub(autoLPamount) */\n      swap1\n      pop\n        /* \"contracts/gainzilla.sol\":17374:17529  if (contractTokenBalance >= autoLPamount) {... */\n    tag_664:\n        /* \"contracts/gainzilla.sol\":17558:17595  swapAndLiquify(autoLPamount, minusLP) */\n      tag_666\n        /* \"contracts/gainzilla.sol\":17573:17585  autoLPamount */\n      dup3\n        /* \"contracts/gainzilla.sol\":17587:17594  minusLP */\n      dup3\n        /* \"contracts/gainzilla.sol\":17558:17572  swapAndLiquify */\n      tag_667\n        /* \"contracts/gainzilla.sol\":17558:17595  swapAndLiquify(autoLPamount, minusLP) */\n      jump\t// in\n    tag_666:\n        /* \"contracts/gainzilla.sol\":17021:17622  if (_sellMarketingFee.add(_sellTeamFee).add(_sellEcosystemFee).add(_sellLiquidityFee) > 0) {... */\n      pop\n      pop\n    tag_658:\n        /* \"contracts/gainzilla.sol\":17694:17715  address(this).balance */\n      selfbalance\n        /* \"contracts/gainzilla.sol\":17741:17763  contractETHBalance > 0 */\n      dup1\n      iszero\n        /* \"contracts/gainzilla.sol\":17737:17849  if (contractETHBalance > 0) {... */\n      tag_669\n      jumpi\n        /* \"contracts/gainzilla.sol\":17791:17826  sendETHToFee(address(this).balance) */\n      tag_669\n        /* \"contracts/gainzilla.sol\":17804:17825  address(this).balance */\n      selfbalance\n        /* \"contracts/gainzilla.sol\":17791:17803  sendETHToFee */\n      tag_670\n        /* \"contracts/gainzilla.sol\":17791:17826  sendETHToFee(address(this).balance) */\n      jump\t// in\n    tag_669:\n        /* \"contracts/gainzilla.sol\":16898:17867  if (contractTokenBalance >= numTokensToSwap) {... */\n      pop\n    tag_653:\n        /* \"contracts/gainzilla.sol\":16136:17902  if (!inSwap && from != uniswapV2Pair && to == uniswapV2Pair) { //sells... */\n      pop\n    tag_637:\n        /* \"contracts/gainzilla.sol\":17927:17940  uniswapV2Pair */\n      sload(0x26)\n      sub(shl(0xa0, 0x01), 0x01)\n        /* \"contracts/gainzilla.sol\":17919:17940  from != uniswapV2Pair */\n      dup6\n      dup2\n      and\n        /* \"contracts/gainzilla.sol\":17927:17940  uniswapV2Pair */\n      swap2\n      and\n        /* \"contracts/gainzilla.sol\":17919:17940  from != uniswapV2Pair */\n      eq\n      dup1\n      iszero\n      swap1\n        /* \"contracts/gainzilla.sol\":17919:17963  from != uniswapV2Pair && to != uniswapV2Pair */\n      tag_671\n      jumpi\n      pop\n        /* \"contracts/gainzilla.sol\":17950:17963  uniswapV2Pair */\n      sload(0x26)\n      sub(shl(0xa0, 0x01), 0x01)\n        /* \"contracts/gainzilla.sol\":17944:17963  to != uniswapV2Pair */\n      dup5\n      dup2\n      and\n        /* \"contracts/gainzilla.sol\":17950:17963  uniswapV2Pair */\n      swap2\n      and\n        /* \"contracts/gainzilla.sol\":17944:17963  to != uniswapV2Pair */\n      eq\n      iszero\n        /* \"contracts/gainzilla.sol\":17919:17963  from != uniswapV2Pair && to != uniswapV2Pair */\n    tag_671:\n        /* \"contracts/gainzilla.sol\":17916:18220  if(from != uniswapV2Pair && to != uniswapV2Pair) { //transfers... */\n      iszero\n      tag_676\n      jumpi\n      sub(shl(0xa0, 0x01), 0x01)\n        /* \"contracts/gainzilla.sol\":18017:18039  _isExcludedFromFee[to] */\n      dup4\n      and\n      0x00\n      swap1\n      dup2\n      mstore\n        /* \"contracts/gainzilla.sol\":18017:18035  _isExcludedFromFee */\n      0x04\n        /* \"contracts/gainzilla.sol\":18017:18039  _isExcludedFromFee[to] */\n      0x20\n      mstore\n      0x40\n      swap1\n      keccak256\n      sload\n      0xff\n      and\n        /* \"contracts/gainzilla.sol\":18012:18206  if (!_isExcludedFromFee[to]) {... */\n      tag_676\n      jumpi\n        /* \"contracts/gainzilla.sol\":18100:18116  _maxWalletAmount */\n      sload(0x07)\n        /* \"contracts/gainzilla.sol\":18071:18096  balanceOf(to).add(amount) */\n      tag_674\n        /* \"contracts/gainzilla.sol\":18089:18095  amount */\n      dup4\n        /* \"contracts/gainzilla.sol\":18071:18084  balanceOf(to) */\n      tag_539\n        /* \"contracts/gainzilla.sol\":18081:18083  to */\n      dup7\n      sub(shl(0xa0, 0x01), 0x01)\n        /* \"contracts/gainzilla.sol\":12744:12762  _balances[account] */\n      and\n        /* \"contracts/gainzilla.sol\":12718:12725  uint256 */\n      0x00\n        /* \"contracts/gainzilla.sol\":12744:12762  _balances[account] */\n      swap1\n      dup2\n      mstore\n        /* \"contracts/gainzilla.sol\":12744:12753  _balances */\n      0x02\n        /* \"contracts/gainzilla.sol\":12744:12762  _balances[account] */\n      0x20\n      mstore\n      0x40\n      swap1\n      keccak256\n      sload\n      swap1\n        /* \"contracts/gainzilla.sol\":12652:12769  function balanceOf(address account) public view override returns (uint256) {... */\n      jump\n        /* \"contracts/gainzilla.sol\":18071:18096  balanceOf(to).add(amount) */\n    tag_674:\n        /* \"contracts/gainzilla.sol\":18071:18116  balanceOf(to).add(amount) <= _maxWalletAmount */\n      gt\n      iszero\n        /* \"contracts/gainzilla.sol\":18063:18187  require(balanceOf(to).add(amount) <= _maxWalletAmount, \".wallet balance after transfer must be less than max wallet amount\") */\n      tag_676\n      jumpi\n      mload(0x40)\n      shl(0xe5, 0x461bcd)\n      dup2\n      mstore\n        /* \"#utility.yul\":15856:15858   */\n      0x20\n        /* \"contracts/gainzilla.sol\":18063:18187  require(balanceOf(to).add(amount) <= _maxWalletAmount, \".wallet balance after transfer must be less than max wallet amount\") */\n      0x04\n      dup3\n      add\n        /* \"#utility.yul\":15838:15859   */\n      mstore\n        /* \"#utility.yul\":15895:15897   */\n      0x42\n        /* \"#utility.yul\":15875:15893   */\n      0x24\n      dup3\n      add\n        /* \"#utility.yul\":15868:15898   */\n      mstore\n        /* \"#utility.yul\":15934:15968   */\n      0x2e77616c6c65742062616c616e6365206166746572207472616e73666572206d\n        /* \"#utility.yul\":15914:15932   */\n      0x44\n      dup3\n      add\n        /* \"#utility.yul\":15907:15969   */\n      mstore\n        /* \"#utility.yul\":16005:16039   */\n      0x757374206265206c657373207468616e206d61782077616c6c657420616d6f75\n        /* \"#utility.yul\":15985:16003   */\n      0x64\n      dup3\n      add\n        /* \"#utility.yul\":15978:16040   */\n      mstore\n        /* \"#utility.yul\":16077:16081   */\n      0x6e74000000000000000000000000000000000000000000000000000000000000\n        /* \"#utility.yul\":16056:16075   */\n      0x84\n      dup3\n      add\n        /* \"#utility.yul\":16049:16082   */\n      mstore\n        /* \"#utility.yul\":16099:16118   */\n      0xa4\n      add\n        /* \"contracts/gainzilla.sol\":18063:18187  require(balanceOf(to).add(amount) <= _maxWalletAmount, \".wallet balance after transfer must be less than max wallet amount\") */\n      tag_336\n        /* \"#utility.yul\":15828:16124   */\n      jump\n        /* \"contracts/gainzilla.sol\":18063:18187  require(balanceOf(to).add(amount) <= _maxWalletAmount, \".wallet balance after transfer must be less than max wallet amount\") */\n    tag_676:\n      sub(shl(0xa0, 0x01), 0x01)\n        /* \"contracts/gainzilla.sol\":18244:18268  _isExcludedFromFee[from] */\n      dup5\n      and\n      0x00\n      swap1\n      dup2\n      mstore\n        /* \"contracts/gainzilla.sol\":18244:18262  _isExcludedFromFee */\n      0x04\n        /* \"contracts/gainzilla.sol\":18244:18268  _isExcludedFromFee[from] */\n      0x20\n      mstore\n      0x40\n      swap1\n      keccak256\n      sload\n      0xff\n      and\n      dup1\n        /* \"contracts/gainzilla.sol\":18244:18294  _isExcludedFromFee[from] || _isExcludedFromFee[to] */\n      tag_678\n      jumpi\n      pop\n      sub(shl(0xa0, 0x01), 0x01)\n        /* \"contracts/gainzilla.sol\":18272:18294  _isExcludedFromFee[to] */\n      dup4\n      and\n      0x00\n      swap1\n      dup2\n      mstore\n        /* \"contracts/gainzilla.sol\":18272:18290  _isExcludedFromFee */\n      0x04\n        /* \"contracts/gainzilla.sol\":18272:18294  _isExcludedFromFee[to] */\n      0x20\n      mstore\n      0x40\n      swap1\n      keccak256\n      sload\n      0xff\n      and\n        /* \"contracts/gainzilla.sol\":18244:18294  _isExcludedFromFee[from] || _isExcludedFromFee[to] */\n    tag_678:\n        /* \"contracts/gainzilla.sol\":18240:18336  if (_isExcludedFromFee[from] || _isExcludedFromFee[to]) {... */\n      iszero\n      tag_679\n      jumpi\n      pop\n        /* \"contracts/gainzilla.sol\":18320:18325  false */\n      0x00\n        /* \"contracts/gainzilla.sol\":18240:18336  if (_isExcludedFromFee[from] || _isExcludedFromFee[to]) {... */\n    tag_679:\n        /* \"contracts/gainzilla.sol\":18354:18395  _tokenTransfer(from, to, amount, takeFee) */\n      tag_680\n        /* \"contracts/gainzilla.sol\":18369:18373  from */\n      dup5\n        /* \"contracts/gainzilla.sol\":18375:18377  to */\n      dup5\n        /* \"contracts/gainzilla.sol\":18379:18385  amount */\n      dup5\n        /* \"contracts/gainzilla.sol\":18387:18394  takeFee */\n      dup5\n        /* \"contracts/gainzilla.sol\":18354:18368  _tokenTransfer */\n      tag_681\n        /* \"contracts/gainzilla.sol\":18354:18395  _tokenTransfer(from, to, amount, takeFee) */\n      jump\t// in\n    tag_680:\n        /* \"contracts/gainzilla.sol\":15195:18402  function _transfer(address from, address to, uint256 amount) private {... */\n      pop\n      pop\n      pop\n      pop\n      jump\t// out\n        /* \"contracts/gainzilla.sol\":1849:2035  function sub(uint256 a, uint256 b, string memory errorMessage) internal pure returns (uint256) {... */\n    tag_352:\n        /* \"contracts/gainzilla.sol\":1935:1942  uint256 */\n      0x00\n        /* \"contracts/gainzilla.sol\":1970:1982  errorMessage */\n      dup2\n        /* \"contracts/gainzilla.sol\":1962:1968  b <= a */\n      dup5\n      dup5\n      gt\n      iszero\n        /* \"contracts/gainzilla.sol\":1954:1983  require(b <= a, errorMessage) */\n      tag_683\n      jumpi\n      mload(0x40)\n      shl(0xe5, 0x461bcd)\n      dup2\n      mstore\n      0x04\n      add\n      tag_336\n      swap2\n      swap1\n      tag_87\n      jump\t// in\n    tag_683:\n      pop\n        /* \"contracts/gainzilla.sol\":1993:2002  uint256 c */\n      0x00\n        /* \"contracts/gainzilla.sol\":2005:2010  a - b */\n      tag_685\n        /* \"contracts/gainzilla.sol\":2009:2010  b */\n      dup5\n        /* \"contracts/gainzilla.sol\":2005:2006  a */\n      dup7\n        /* \"contracts/gainzilla.sol\":2005:2010  a - b */\n      tag_686\n      jump\t// in\n    tag_685:\n        /* \"contracts/gainzilla.sol\":1993:2010  uint256 c = a - b */\n      swap6\n        /* \"contracts/gainzilla.sol\":1849:2035  function sub(uint256 a, uint256 b, string memory errorMessage) internal pure returns (uint256) {... */\n      swap5\n      pop\n      pop\n      pop\n      pop\n      pop\n      jump\t// out\n        /* \"contracts/gainzilla.sol\":2286:2416  function div(uint256 a, uint256 b) internal pure returns (uint256) {... */\n    tag_359:\n        /* \"contracts/gainzilla.sol\":2344:2351  uint256 */\n      0x00\n        /* \"contracts/gainzilla.sol\":2370:2409  div(a, b, \"SafeMath: division by zero\") */\n      tag_688\n        /* \"contracts/gainzilla.sol\":2374:2375  a */\n      dup4\n        /* \"contracts/gainzilla.sol\":2377:2378  b */\n      dup4\n        /* \"contracts/gainzilla.sol\":2370:2409  div(a, b, \"SafeMath: division by zero\") */\n      mload(0x40)\n      dup1\n      0x40\n      add\n      0x40\n      mstore\n      dup1\n      0x1a\n      dup2\n      mstore\n      0x20\n      add\n      0x536166654d6174683a206469766973696f6e206279207a65726f000000000000\n      dup2\n      mstore\n      pop\n        /* \"contracts/gainzilla.sol\":2370:2373  div */\n      tag_689\n        /* \"contracts/gainzilla.sol\":2370:2409  div(a, b, \"SafeMath: division by zero\") */\n      jump\t// in\n    tag_688:\n        /* \"contracts/gainzilla.sol\":2363:2409  return div(a, b, \"SafeMath: division by zero\") */\n      swap4\n        /* \"contracts/gainzilla.sol\":2286:2416  function div(uint256 a, uint256 b) internal pure returns (uint256) {... */\n      swap3\n      pop\n      pop\n      pop\n      jump\t// out\n        /* \"contracts/gainzilla.sol\":1709:1843  function sub(uint256 a, uint256 b) internal pure returns (uint256) {... */\n    tag_439:\n        /* \"contracts/gainzilla.sol\":1767:1774  uint256 */\n      0x00\n        /* \"contracts/gainzilla.sol\":1793:1836  sub(a, b, \"SafeMath: subtraction overflow\") */\n      tag_688\n        /* \"contracts/gainzilla.sol\":1797:1798  a */\n      dup4\n        /* \"contracts/gainzilla.sol\":1800:1801  b */\n      dup4\n        /* \"contracts/gainzilla.sol\":1793:1836  sub(a, b, \"SafeMath: subtraction overflow\") */\n      mload(0x40)\n      dup1\n      0x40\n      add\n      0x40\n      mstore\n      dup1\n      0x1e\n      dup2\n      mstore\n      0x20\n      add\n      0x536166654d6174683a207375627472616374696f6e206f766572666c6f770000\n      dup2\n      mstore\n      pop\n        /* \"contracts/gainzilla.sol\":1793:1796  sub */\n      tag_352\n        /* \"contracts/gainzilla.sol\":1793:1836  sub(a, b, \"SafeMath: subtraction overflow\") */\n      jump\t// in\n        /* \"contracts/gainzilla.sol\":2041:2280  function mul(uint256 a, uint256 b) internal pure returns (uint256) {... */\n    tag_440:\n        /* \"contracts/gainzilla.sol\":2099:2106  uint256 */\n      0x00\n        /* \"contracts/gainzilla.sol\":2122:2128  a == 0 */\n      dup3\n        /* \"contracts/gainzilla.sol\":2118:2163  if (a == 0) {... */\n      tag_693\n      jumpi\n      pop\n        /* \"contracts/gainzilla.sol\":2151:2152  0 */\n      0x00\n        /* \"contracts/gainzilla.sol\":2144:2152  return 0 */\n      jump(tag_328)\n        /* \"contracts/gainzilla.sol\":2118:2163  if (a == 0) {... */\n    tag_693:\n        /* \"contracts/gainzilla.sol\":2172:2181  uint256 c */\n      0x00\n        /* \"contracts/gainzilla.sol\":2184:2189  a * b */\n      tag_694\n        /* \"contracts/gainzilla.sol\":2188:2189  b */\n      dup4\n        /* \"contracts/gainzilla.sol\":2184:2185  a */\n      dup6\n        /* \"contracts/gainzilla.sol\":2184:2189  a * b */\n      tag_695\n      jump\t// in\n    tag_694:\n        /* \"contracts/gainzilla.sol\":2172:2189  uint256 c = a * b */\n      swap1\n      pop\n        /* \"contracts/gainzilla.sol\":2216:2217  b */\n      dup3\n        /* \"contracts/gainzilla.sol\":2207:2212  c / a */\n      tag_696\n        /* \"contracts/gainzilla.sol\":2211:2212  a */\n      dup6\n        /* \"contracts/gainzilla.sol\":2172:2189  uint256 c = a * b */\n      dup4\n        /* \"contracts/gainzilla.sol\":2207:2212  c / a */\n      tag_697\n      jump\t// in\n    tag_696:\n        /* \"contracts/gainzilla.sol\":2207:2217  c / a == b */\n      eq\n        /* \"contracts/gainzilla.sol\":2199:2255  require(c / a == b, \"SafeMath: multiplication overflow\") */\n      tag_688\n      jumpi\n      mload(0x40)\n      shl(0xe5, 0x461bcd)\n      dup2\n      mstore\n        /* \"#utility.yul\":12693:12695   */\n      0x20\n        /* \"contracts/gainzilla.sol\":2199:2255  require(c / a == b, \"SafeMath: multiplication overflow\") */\n      0x04\n      dup3\n      add\n        /* \"#utility.yul\":12675:12696   */\n      mstore\n        /* \"#utility.yul\":12732:12734   */\n      0x21\n        /* \"#utility.yul\":12712:12730   */\n      0x24\n      dup3\n      add\n        /* \"#utility.yul\":12705:12735   */\n      mstore\n        /* \"#utility.yul\":12771:12805   */\n      0x536166654d6174683a206d756c7469706c69636174696f6e206f766572666c6f\n        /* \"#utility.yul\":12751:12769   */\n      0x44\n      dup3\n      add\n        /* \"#utility.yul\":12744:12806   */\n      mstore\n        /* \"#utility.yul\":12842:12845   */\n      0x7700000000000000000000000000000000000000000000000000000000000000\n        /* \"#utility.yul\":12822:12840   */\n      0x64\n      dup3\n      add\n        /* \"#utility.yul\":12815:12846   */\n      mstore\n        /* \"#utility.yul\":12863:12882   */\n      0x84\n      add\n        /* \"contracts/gainzilla.sol\":2199:2255  require(c / a == b, \"SafeMath: multiplication overflow\") */\n      tag_336\n        /* \"#utility.yul\":12665:12888   */\n      jump\n        /* \"contracts/gainzilla.sol\":18411:18812  function swapTokensForEth(uint256 tokenAmount) private lockTheSwap {... */\n    tag_505:\n        /* \"contracts/gainzilla.sol\":11455:11461  inSwap */\n      0x28\n        /* \"contracts/gainzilla.sol\":11455:11468  inSwap = true */\n      dup1\n      sload\n      0xffffffffffffffffffffffffffffffffffffffffffffffffffffffffffff00ff\n      and\n      0x0100\n      or\n      swap1\n      sstore\n        /* \"contracts/gainzilla.sol\":18512:18528  new address[](2) */\n      0x40\n      dup1\n      mload\n        /* \"contracts/gainzilla.sol\":18526:18527  2 */\n      0x02\n        /* \"contracts/gainzilla.sol\":18512:18528  new address[](2) */\n      dup1\n      dup3\n      mstore\n      0x60\n      dup3\n      add\n      dup4\n      mstore\n      0x00\n      swap3\n      0x20\n      dup4\n      add\n      swap1\n      dup1\n      calldatasize\n      dup4\n      calldatacopy\n      add\n      swap1\n      pop\n      pop\n        /* \"contracts/gainzilla.sol\":18488:18528  address[] memory path = new address[](2) */\n      swap1\n      pop\n        /* \"contracts/gainzilla.sol\":18556:18560  this */\n      address\n        /* \"contracts/gainzilla.sol\":18538:18542  path */\n      dup2\n        /* \"contracts/gainzilla.sol\":18543:18544  0 */\n      0x00\n        /* \"contracts/gainzilla.sol\":18538:18545  path[0] */\n      dup2\n      mload\n      dup2\n      lt\n      tag_705\n      jumpi\n      mstore(0x00, 0x4e487b7100000000000000000000000000000000000000000000000000000000)\n      mstore(0x04, 0x32)\n      revert(0x00, 0x24)\n    tag_705:\n      sub(shl(0xa0, 0x01), 0x01)\n        /* \"contracts/gainzilla.sol\":18538:18561  path[0] = address(this) */\n      swap3\n      dup4\n      and\n        /* \"contracts/gainzilla.sol\":18538:18545  path[0] */\n      0x20\n      swap2\n      dup3\n      mul\n      swap3\n      swap1\n      swap3\n      add\n      dup2\n      add\n        /* \"contracts/gainzilla.sol\":18538:18561  path[0] = address(this) */\n      swap2\n      swap1\n      swap2\n      mstore\n        /* \"contracts/gainzilla.sol\":18581:18596  uniswapV2Router */\n      sload(0x25)\n        /* \"contracts/gainzilla.sol\":18581:18603  uniswapV2Router.WETH() */\n      0x40\n      dup1\n      mload\n      0xad5c464800000000000000000000000000000000000000000000000000000000\n      dup2\n      mstore\n      swap1\n      mload\n        /* \"contracts/gainzilla.sol\":18581:18596  uniswapV2Router */\n      swap2\n      swap1\n      swap4\n      and\n      swap3\n        /* \"contracts/gainzilla.sol\":18581:18601  uniswapV2Router.WETH */\n      0xad5c4648\n      swap3\n        /* \"contracts/gainzilla.sol\":18581:18603  uniswapV2Router.WETH() */\n      0x04\n      dup1\n      dup4\n      add\n      swap4\n        /* \"contracts/gainzilla.sol\":18538:18545  path[0] */\n      swap2\n      swap3\n        /* \"contracts/gainzilla.sol\":18581:18603  uniswapV2Router.WETH() */\n      dup3\n      swap1\n      sub\n      add\n      dup2\n        /* \"contracts/gainzilla.sol\":18581:18596  uniswapV2Router */\n      dup7\n        /* \"contracts/gainzilla.sol\":18581:18603  uniswapV2Router.WETH() */\n      dup1\n      extcodesize\n      iszero\n      dup1\n      iszero\n      tag_706\n      jumpi\n      0x00\n      dup1\n      revert\n    tag_706:\n      pop\n      gas\n      staticcall\n      iszero\n      dup1\n      iszero\n      tag_708\n      jumpi\n      returndatasize\n      0x00\n      dup1\n      returndatacopy\n      revert(0x00, returndatasize)\n    tag_708:\n      pop\n      pop\n      pop\n      pop\n      mload(0x40)\n      returndatasize\n      not(0x1f)\n      0x1f\n      dup3\n      add\n      and\n      dup3\n      add\n      dup1\n      0x40\n      mstore\n      pop\n      dup2\n      add\n      swap1\n      tag_709\n      swap2\n      swap1\n      tag_465\n      jump\t// in\n    tag_709:\n        /* \"contracts/gainzilla.sol\":18571:18575  path */\n      dup2\n        /* \"contracts/gainzilla.sol\":18576:18577  1 */\n      0x01\n        /* \"contracts/gainzilla.sol\":18571:18578  path[1] */\n      dup2\n      mload\n      dup2\n      lt\n      tag_710\n      jumpi\n      mstore(0x00, 0x4e487b7100000000000000000000000000000000000000000000000000000000)\n      mstore(0x04, 0x32)\n      revert(0x00, 0x24)\n    tag_710:\n      sub(shl(0xa0, 0x01), 0x01)\n        /* \"contracts/gainzilla.sol\":18571:18603  path[1] = uniswapV2Router.WETH() */\n      swap3\n      dup4\n      and\n        /* \"contracts/gainzilla.sol\":18571:18578  path[1] */\n      0x20\n      swap2\n      dup3\n      mul\n      swap3\n      swap1\n      swap3\n      add\n      add\n        /* \"contracts/gainzilla.sol\":18571:18603  path[1] = uniswapV2Router.WETH() */\n      mstore\n        /* \"contracts/gainzilla.sol\":18645:18660  uniswapV2Router */\n      sload(0x25)\n        /* \"contracts/gainzilla.sol\":18613:18675  _approve(address(this), address(uniswapV2Router), tokenAmount) */\n      tag_711\n      swap2\n        /* \"contracts/gainzilla.sol\":18630:18634  this */\n      address\n      swap2\n        /* \"contracts/gainzilla.sol\":18645:18660  uniswapV2Router */\n      and\n        /* \"contracts/gainzilla.sol\":18663:18674  tokenAmount */\n      dup5\n        /* \"contracts/gainzilla.sol\":18613:18621  _approve */\n      tag_332\n        /* \"contracts/gainzilla.sol\":18613:18675  _approve(address(this), address(uniswapV2Router), tokenAmount) */\n      jump\t// in\n    tag_711:\n        /* \"contracts/gainzilla.sol\":18685:18700  uniswapV2Router */\n      sload(0x25)\n        /* \"contracts/gainzilla.sol\":18685:18805  uniswapV2Router.swapExactTokensForETHSupportingFeeOnTransferTokens(tokenAmount, 0, path, address(this), block.timestamp) */\n      mload(0x40)\n      0x791ac94700000000000000000000000000000000000000000000000000000000\n      dup2\n      mstore\n      sub(shl(0xa0, 0x01), 0x01)\n        /* \"contracts/gainzilla.sol\":18685:18700  uniswapV2Router */\n      swap1\n      swap2\n      and\n      swap1\n        /* \"contracts/gainzilla.sol\":18685:18751  uniswapV2Router.swapExactTokensForETHSupportingFeeOnTransferTokens */\n      0x791ac947\n      swap1\n        /* \"contracts/gainzilla.sol\":18685:18805  uniswapV2Router.swapExactTokensForETHSupportingFeeOnTransferTokens(tokenAmount, 0, path, address(this), block.timestamp) */\n      tag_712\n      swap1\n        /* \"contracts/gainzilla.sol\":18752:18763  tokenAmount */\n      dup6\n      swap1\n        /* \"contracts/gainzilla.sol\":18685:18700  uniswapV2Router */\n      0x00\n      swap1\n        /* \"contracts/gainzilla.sol\":18768:18772  path */\n      dup7\n      swap1\n        /* \"contracts/gainzilla.sol\":18782:18786  this */\n      address\n      swap1\n        /* \"contracts/gainzilla.sol\":18789:18804  block.timestamp */\n      timestamp\n      swap1\n        /* \"contracts/gainzilla.sol\":18685:18805  uniswapV2Router.swapExactTokensForETHSupportingFeeOnTransferTokens(tokenAmount, 0, path, address(this), block.timestamp) */\n      0x04\n      add\n      tag_713\n      jump\t// in\n    tag_712:\n      0x00\n      mload(0x40)\n      dup1\n      dup4\n      sub\n      dup2\n      0x00\n      dup8\n      dup1\n      extcodesize\n      iszero\n      dup1\n      iszero\n      tag_714\n      jumpi\n      0x00\n      dup1\n      revert\n    tag_714:\n      pop\n      gas\n      call\n      iszero\n      dup1\n      iszero\n      tag_716\n      jumpi\n      returndatasize\n      0x00\n      dup1\n      returndatacopy\n      revert(0x00, returndatasize)\n    tag_716:\n      pop\n      pop\n        /* \"contracts/gainzilla.sol\":11489:11495  inSwap */\n      0x28\n        /* \"contracts/gainzilla.sol\":11489:11503  inSwap = false */\n      dup1\n      sload\n      0xffffffffffffffffffffffffffffffffffffffffffffffffffffffffffff00ff\n      and\n      swap1\n      sstore\n      pop\n      pop\n      pop\n      pop\n        /* \"contracts/gainzilla.sol\":18411:18812  function swapTokensForEth(uint256 tokenAmount) private lockTheSwap {... */\n      jump\t// out\n        /* \"contracts/gainzilla.sol\":1528:1703  function add(uint256 a, uint256 b) internal pure returns (uint256) {... */\n    tag_540:\n        /* \"contracts/gainzilla.sol\":1586:1593  uint256 */\n      0x00\n      dup1\n        /* \"contracts/gainzilla.sol\":1617:1622  a + b */\n      tag_718\n        /* \"contracts/gainzilla.sol\":1621:1622  b */\n      dup4\n        /* \"contracts/gainzilla.sol\":1617:1618  a */\n      dup6\n        /* \"contracts/gainzilla.sol\":1617:1622  a + b */\n      tag_645\n      jump\t// in\n    tag_718:\n        /* \"contracts/gainzilla.sol\":1605:1622  uint256 c = a + b */\n      swap1\n      pop\n        /* \"contracts/gainzilla.sol\":1645:1646  a */\n      dup4\n        /* \"contracts/gainzilla.sol\":1640:1641  c */\n      dup2\n        /* \"contracts/gainzilla.sol\":1640:1646  c >= a */\n      lt\n      iszero\n        /* \"contracts/gainzilla.sol\":1632:1678  require(c >= a, \"SafeMath: addition overflow\") */\n      tag_688\n      jumpi\n      mload(0x40)\n      shl(0xe5, 0x461bcd)\n      dup2\n      mstore\n        /* \"#utility.yul\":11148:11150   */\n      0x20\n        /* \"contracts/gainzilla.sol\":1632:1678  require(c >= a, \"SafeMath: addition overflow\") */\n      0x04\n      dup3\n      add\n        /* \"#utility.yul\":11130:11151   */\n      mstore\n        /* \"#utility.yul\":11187:11189   */\n      0x1b\n        /* \"#utility.yul\":11167:11185   */\n      0x24\n      dup3\n      add\n        /* \"#utility.yul\":11160:11190   */\n      mstore\n        /* \"#utility.yul\":11226:11255   */\n      0x536166654d6174683a206164646974696f6e206f766572666c6f770000000000\n        /* \"#utility.yul\":11206:11224   */\n      0x44\n      dup3\n      add\n        /* \"#utility.yul\":11199:11256   */\n      mstore\n        /* \"#utility.yul\":11273:11291   */\n      0x64\n      add\n        /* \"contracts/gainzilla.sol\":1632:1678  require(c >= a, \"SafeMath: addition overflow\") */\n      tag_336\n        /* \"#utility.yul\":11120:11297   */\n      jump\n        /* \"contracts/gainzilla.sol\":3654:3841  function _transferOwnership(address newOwner) internal virtual {... */\n    tag_562:\n        /* \"contracts/gainzilla.sol\":3727:3743  address oldOwner */\n      0x00\n        /* \"contracts/gainzilla.sol\":3746:3752  _owner */\n      dup1\n      sload\n      sub(shl(0xa0, 0x01), 0x01)\n        /* \"contracts/gainzilla.sol\":3762:3779  _owner = newOwner */\n      dup4\n      dup2\n      and\n      0xffffffffffffffffffffffff0000000000000000000000000000000000000000\n      dup4\n      and\n      dup2\n      or\n      dup5\n      sstore\n        /* \"contracts/gainzilla.sol\":3794:3834  OwnershipTransferred(oldOwner, newOwner) */\n      mload(0x40)\n        /* \"contracts/gainzilla.sol\":3746:3752  _owner */\n      swap2\n      swap1\n      swap3\n      and\n      swap3\n      dup4\n      swap2\n        /* \"contracts/gainzilla.sol\":3794:3834  OwnershipTransferred(oldOwner, newOwner) */\n      0x8be0079c531659141344cd1fd0a4f28419497f9722a3daafe3b4186f6b6457e0\n      swap2\n        /* \"contracts/gainzilla.sol\":3727:3743  address oldOwner */\n      swap1\n        /* \"contracts/gainzilla.sol\":3794:3834  OwnershipTransferred(oldOwner, newOwner) */\n      log3\n        /* \"contracts/gainzilla.sol\":3654:3841  function _transferOwnership(address newOwner) internal virtual {... */\n      pop\n      pop\n      jump\t// out\n        /* \"contracts/gainzilla.sol\":18818:19626  function _checkPriceConditions() private {... */\n    tag_651:\n        /* \"contracts/gainzilla.sol\":18869:18889  uint256 currentPrice */\n      0x00\n        /* \"contracts/gainzilla.sol\":18892:18903  pairPrice() */\n      tag_724\n        /* \"contracts/gainzilla.sol\":18892:18901  pairPrice */\n      tag_220\n        /* \"contracts/gainzilla.sol\":18892:18903  pairPrice() */\n      jump\t// in\n    tag_724:\n        /* \"contracts/gainzilla.sol\":18869:18903  uint256 currentPrice = pairPrice() */\n      swap1\n      pop\n        /* \"contracts/gainzilla.sol\":18917:18934  currentPrice == 0 */\n      dup1\n        /* \"contracts/gainzilla.sol\":18913:18943  if (currentPrice == 0) return; */\n      tag_725\n      jumpi\n        /* \"contracts/gainzilla.sol\":18936:18943  return; */\n      pop\n        /* \"contracts/gainzilla.sol\":18818:19626  function _checkPriceConditions() private {... */\n      jump\t// out\n        /* \"contracts/gainzilla.sol\":18913:18943  if (currentPrice == 0) return; */\n    tag_725:\n        /* \"contracts/gainzilla.sol\":18972:18993  diamondFloor.athPrice */\n      sload(0x1d)\n        /* \"contracts/gainzilla.sol\":18957:18993  currentPrice > diamondFloor.athPrice */\n      dup2\n      gt\n        /* \"contracts/gainzilla.sol\":18953:19122  if (currentPrice > diamondFloor.athPrice) {... */\n      iszero\n      tag_726\n      jumpi\n        /* \"contracts/gainzilla.sol\":19009:19030  diamondFloor.athPrice */\n      0x1d\n        /* \"contracts/gainzilla.sol\":19009:19045  diamondFloor.athPrice = currentPrice */\n      sstore\n        /* \"contracts/gainzilla.sol\":19059:19083  diamondFloor.sellStopped */\n      0x1e\n        /* \"contracts/gainzilla.sol\":19059:19091  diamondFloor.sellStopped = false */\n      dup1\n      sload\n      not(0xff)\n      and\n      swap1\n      sstore\n        /* \"contracts/gainzilla.sol\":18818:19626  function _checkPriceConditions() private {... */\n      jump\t// out\n        /* \"contracts/gainzilla.sol\":18953:19122  if (currentPrice > diamondFloor.athPrice) {... */\n    tag_726:\n        /* \"contracts/gainzilla.sol\":19206:19218  diamondFloor */\n      0x1c\n        /* \"contracts/gainzilla.sol\":19206:19236  diamondFloor.triggerPercentage */\n      sload\n        /* \"contracts/gainzilla.sol\":19157:19178  diamondFloor.athPrice */\n      sload(0x1d)\n        /* \"contracts/gainzilla.sol\":19132:19154  uint256 thresholdPrice */\n      0x00\n      swap2\n        /* \"contracts/gainzilla.sol\":19157:19260  diamondFloor.athPrice... */\n      tag_727\n      swap2\n        /* \"contracts/gainzilla.sol\":19255:19259  1000 */\n      0x03e8\n      swap2\n        /* \"contracts/gainzilla.sol\":19157:19237  diamondFloor.athPrice... */\n      tag_437\n      swap2\n        /* \"contracts/gainzilla.sol\":19206:19236  diamondFloor.triggerPercentage */\n      0x0100\n      swap1\n      swap2\n      div\n      0xffff\n      and\n      swap1\n        /* \"contracts/gainzilla.sol\":19157:19201  diamondFloor.athPrice... */\n      tag_729\n      swap1\n        /* \"contracts/gainzilla.sol\":19255:19259  1000 */\n      dup5\n        /* \"contracts/gainzilla.sol\":19157:19195  diamondFloor.athPrice... */\n      tag_440\n        /* \"contracts/gainzilla.sol\":19157:19201  diamondFloor.athPrice... */\n      jump\t// in\n    tag_729:\n        /* \"contracts/gainzilla.sol\":19157:19205  diamondFloor.athPrice... */\n      swap1\n      tag_439\n        /* \"contracts/gainzilla.sol\":19157:19237  diamondFloor.athPrice... */\n      jump\t// in\n        /* \"contracts/gainzilla.sol\":19157:19260  diamondFloor.athPrice... */\n    tag_727:\n        /* \"contracts/gainzilla.sol\":19132:19260  uint256 thresholdPrice = diamondFloor.athPrice... */\n      swap1\n      pop\n        /* \"contracts/gainzilla.sol\":19290:19304  thresholdPrice */\n      dup1\n        /* \"contracts/gainzilla.sol\":19275:19287  currentPrice */\n      dup3\n        /* \"contracts/gainzilla.sol\":19275:19304  currentPrice < thresholdPrice */\n      lt\n        /* \"contracts/gainzilla.sol\":19271:19423  if (currentPrice < thresholdPrice) {... */\n      iszero\n      tag_730\n      jumpi\n        /* \"contracts/gainzilla.sol\":19320:19344  diamondFloor.sellStopped */\n      0x1e\n        /* \"contracts/gainzilla.sol\":19320:19351  diamondFloor.sellStopped = true */\n      dup1\n      sload\n      not(0xff)\n      and\n        /* \"contracts/gainzilla.sol\":19347:19351  true */\n      0x01\n        /* \"contracts/gainzilla.sol\":19320:19351  diamondFloor.sellStopped = true */\n      or\n      swap1\n      sstore\n        /* \"contracts/gainzilla.sol\":19391:19412  diamondFloor.athPrice */\n      sload(0x1d)\n        /* \"contracts/gainzilla.sol\":19365:19388  diamondFloor.blockedAth */\n      0x1f\n        /* \"contracts/gainzilla.sol\":19365:19412  diamondFloor.blockedAth = diamondFloor.athPrice */\n      sstore\n        /* \"contracts/gainzilla.sol\":19271:19423  if (currentPrice < thresholdPrice) {... */\n    tag_730:\n        /* \"contracts/gainzilla.sol\":19437:19461  diamondFloor.sellStopped */\n      and(0xff, sload(0x1e))\n        /* \"contracts/gainzilla.sol\":19437:19511  diamondFloor.sellStopped && currentPrice >= diamondFloor.blockedAth.mul(2) */\n      dup1\n      iszero\n      tag_731\n      jumpi\n      pop\n        /* \"contracts/gainzilla.sol\":19481:19504  diamondFloor.blockedAth */\n      sload(0x1f)\n        /* \"contracts/gainzilla.sol\":19481:19511  diamondFloor.blockedAth.mul(2) */\n      tag_732\n      swap1\n        /* \"contracts/gainzilla.sol\":19509:19510  2 */\n      0x02\n        /* \"contracts/gainzilla.sol\":19481:19508  diamondFloor.blockedAth.mul */\n      tag_440\n        /* \"contracts/gainzilla.sol\":19481:19511  diamondFloor.blockedAth.mul(2) */\n      jump\t// in\n    tag_732:\n        /* \"contracts/gainzilla.sol\":19465:19477  currentPrice */\n      dup3\n        /* \"contracts/gainzilla.sol\":19465:19511  currentPrice >= diamondFloor.blockedAth.mul(2) */\n      lt\n      iszero\n        /* \"contracts/gainzilla.sol\":19437:19511  diamondFloor.sellStopped && currentPrice >= diamondFloor.blockedAth.mul(2) */\n    tag_731:\n        /* \"contracts/gainzilla.sol\":19433:19620  if (diamondFloor.sellStopped && currentPrice >= diamondFloor.blockedAth.mul(2)) {... */\n      iszero\n      tag_418\n      jumpi\n      pop\n        /* \"contracts/gainzilla.sol\":19527:19551  diamondFloor.sellStopped */\n      0x1e\n        /* \"contracts/gainzilla.sol\":19527:19559  diamondFloor.sellStopped = false */\n      dup1\n      sload\n      not(0xff)\n      and\n      swap1\n      sstore\n        /* \"contracts/gainzilla.sol\":19573:19594  diamondFloor.athPrice */\n      0x1d\n        /* \"contracts/gainzilla.sol\":19573:19609  diamondFloor.athPrice = currentPrice */\n      sstore\n        /* \"contracts/gainzilla.sol\":18818:19626  function _checkPriceConditions() private {... */\n      jump\t// out\n        /* \"contracts/gainzilla.sol\":20519:21026  function swapAndLiquify(uint256 lpAmount, uint256 contractTokenBalance) private lockTheSwap {... */\n    tag_667:\n        /* \"contracts/gainzilla.sol\":11455:11461  inSwap */\n      0x28\n        /* \"contracts/gainzilla.sol\":11455:11468  inSwap = true */\n      dup1\n      sload\n      0xffffffffffffffffffffffffffffffffffffffffffffffffffffffffffff00ff\n      and\n      0x0100\n      or\n      swap1\n      sstore\n      0x00\n        /* \"contracts/gainzilla.sol\":20636:20651  lpAmount.div(2) */\n      tag_736\n        /* \"contracts/gainzilla.sol\":20636:20644  lpAmount */\n      dup4\n        /* \"contracts/gainzilla.sol\":20649:20650  2 */\n      0x02\n        /* \"contracts/gainzilla.sol\":20636:20648  lpAmount.div */\n      tag_359\n        /* \"contracts/gainzilla.sol\":20636:20651  lpAmount.div(2) */\n      jump\t// in\n    tag_736:\n        /* \"contracts/gainzilla.sol\":20621:20651  uint256 half = lpAmount.div(2) */\n      swap1\n      pop\n        /* \"contracts/gainzilla.sol\":20661:20678  uint256 otherHalf */\n      0x00\n        /* \"contracts/gainzilla.sol\":20681:20699  lpAmount.sub(half) */\n      tag_737\n        /* \"contracts/gainzilla.sol\":20681:20689  lpAmount */\n      dup5\n        /* \"contracts/gainzilla.sol\":20621:20651  uint256 half = lpAmount.div(2) */\n      dup4\n        /* \"contracts/gainzilla.sol\":20681:20693  lpAmount.sub */\n      tag_439\n        /* \"contracts/gainzilla.sol\":20681:20699  lpAmount.sub(half) */\n      jump\t// in\n    tag_737:\n        /* \"contracts/gainzilla.sol\":20661:20699  uint256 otherHalf = lpAmount.sub(half) */\n      swap1\n      pop\n        /* \"contracts/gainzilla.sol\":20734:20755  address(this).balance */\n      selfbalance\n        /* \"contracts/gainzilla.sol\":20765:20813  swapTokensForEth(contractTokenBalance.add(half)) */\n      tag_738\n        /* \"contracts/gainzilla.sol\":20782:20812  contractTokenBalance.add(half) */\n      tag_739\n        /* \"contracts/gainzilla.sol\":20782:20802  contractTokenBalance */\n      dup6\n        /* \"contracts/gainzilla.sol\":20807:20811  half */\n      dup6\n        /* \"contracts/gainzilla.sol\":20782:20806  contractTokenBalance.add */\n      tag_540\n        /* \"contracts/gainzilla.sol\":20782:20812  contractTokenBalance.add(half) */\n      jump\t// in\n    tag_739:\n        /* \"contracts/gainzilla.sol\":20765:20781  swapTokensForEth */\n      tag_505\n        /* \"contracts/gainzilla.sol\":20765:20813  swapTokensForEth(contractTokenBalance.add(half)) */\n      jump\t// in\n    tag_738:\n        /* \"contracts/gainzilla.sol\":20823:20841  uint256 newBalance */\n      0x00\n        /* \"contracts/gainzilla.sol\":20844:20885  address(this).balance.sub(initialBalance) */\n      tag_740\n        /* \"contracts/gainzilla.sol\":20844:20865  address(this).balance */\n      selfbalance\n        /* \"contracts/gainzilla.sol\":20870:20884  initialBalance */\n      dup4\n        /* \"contracts/gainzilla.sol\":20844:20869  address(this).balance.sub */\n      tag_439\n        /* \"contracts/gainzilla.sol\":20844:20885  address(this).balance.sub(initialBalance) */\n      jump\t// in\n    tag_740:\n        /* \"contracts/gainzilla.sol\":20823:20885  uint256 newBalance = address(this).balance.sub(initialBalance) */\n      swap1\n      pop\n        /* \"contracts/gainzilla.sol\":20899:20912  otherHalf > 0 */\n      dup3\n      iszero\n        /* \"contracts/gainzilla.sol\":20895:21020  if (otherHalf > 0) {... */\n      tag_716\n      jumpi\n        /* \"contracts/gainzilla.sol\":20928:21009  addLiquidity(otherHalf, newBalance.mul(half).div(contractTokenBalance.add(half))) */\n      tag_716\n        /* \"contracts/gainzilla.sol\":20941:20950  otherHalf */\n      dup4\n        /* \"contracts/gainzilla.sol\":20952:21008  newBalance.mul(half).div(contractTokenBalance.add(half)) */\n      tag_743\n        /* \"contracts/gainzilla.sol\":20977:21007  contractTokenBalance.add(half) */\n      tag_744\n        /* \"contracts/gainzilla.sol\":20977:20997  contractTokenBalance */\n      dup9\n        /* \"contracts/gainzilla.sol\":21002:21006  half */\n      dup9\n        /* \"contracts/gainzilla.sol\":20977:21001  contractTokenBalance.add */\n      tag_540\n        /* \"contracts/gainzilla.sol\":20977:21007  contractTokenBalance.add(half) */\n      jump\t// in\n    tag_744:\n        /* \"contracts/gainzilla.sol\":20952:20972  newBalance.mul(half) */\n      tag_437\n        /* \"contracts/gainzilla.sol\":20952:20962  newBalance */\n      dup6\n        /* \"contracts/gainzilla.sol\":20967:20971  half */\n      dup10\n        /* \"contracts/gainzilla.sol\":20952:20966  newBalance.mul */\n      tag_440\n        /* \"contracts/gainzilla.sol\":20952:20972  newBalance.mul(half) */\n      jump\t// in\n        /* \"contracts/gainzilla.sol\":20952:21008  newBalance.mul(half).div(contractTokenBalance.add(half)) */\n    tag_743:\n        /* \"contracts/gainzilla.sol\":20928:20940  addLiquidity */\n      tag_746\n        /* \"contracts/gainzilla.sol\":20928:21009  addLiquidity(otherHalf, newBalance.mul(half).div(contractTokenBalance.add(half))) */\n      jump\t// in\n        /* \"contracts/gainzilla.sol\":21032:21774  function sendETHToFee(uint256 amount) private {... */\n    tag_670:\n        /* \"contracts/gainzilla.sol\":21088:21105  uint256 totalFees */\n      0x00\n        /* \"contracts/gainzilla.sol\":21108:21166  _sellMarketingFee.add(_sellEcosystemFee).add(_sellTeamFee) */\n      tag_748\n        /* \"contracts/gainzilla.sol\":21153:21165  _sellTeamFee */\n      sload(0x17)\n        /* \"contracts/gainzilla.sol\":21108:21148  _sellMarketingFee.add(_sellEcosystemFee) */\n      tag_539\n        /* \"contracts/gainzilla.sol\":21130:21147  _sellEcosystemFee */\n      sload(0x13)\n        /* \"contracts/gainzilla.sol\":21108:21125  _sellMarketingFee */\n      sload(0x15)\n        /* \"contracts/gainzilla.sol\":21108:21129  _sellMarketingFee.add */\n      tag_540\n      swap1\n        /* \"contracts/gainzilla.sol\":21108:21148  _sellMarketingFee.add(_sellEcosystemFee) */\n      swap2\n      swap1\n      0xffffffff\n      and\n      jump\t// in\n        /* \"contracts/gainzilla.sol\":21108:21166  _sellMarketingFee.add(_sellEcosystemFee).add(_sellTeamFee) */\n    tag_748:\n        /* \"contracts/gainzilla.sol\":21088:21166  uint256 totalFees = _sellMarketingFee.add(_sellEcosystemFee).add(_sellTeamFee) */\n      swap1\n      pop\n        /* \"contracts/gainzilla.sol\":21180:21194  totalFees != 0 */\n      dup1\n      iszero\n        /* \"contracts/gainzilla.sol\":21176:21768  if (totalFees != 0) {... */\n      tag_418\n      jumpi\n        /* \"contracts/gainzilla.sol\":21210:21234  uint256 marketingPortion */\n      0x00\n        /* \"contracts/gainzilla.sol\":21237:21281  amount.mul(_sellMarketingFee).div(totalFees) */\n      tag_751\n        /* \"contracts/gainzilla.sol\":21271:21280  totalFees */\n      dup3\n        /* \"contracts/gainzilla.sol\":21237:21266  amount.mul(_sellMarketingFee) */\n      tag_437\n        /* \"contracts/gainzilla.sol\":21248:21265  _sellMarketingFee */\n      sload(0x15)\n        /* \"contracts/gainzilla.sol\":21237:21243  amount */\n      dup7\n        /* \"contracts/gainzilla.sol\":21237:21247  amount.mul */\n      tag_440\n      swap1\n        /* \"contracts/gainzilla.sol\":21237:21266  amount.mul(_sellMarketingFee) */\n      swap2\n      swap1\n      0xffffffff\n      and\n      jump\t// in\n        /* \"contracts/gainzilla.sol\":21237:21281  amount.mul(_sellMarketingFee).div(totalFees) */\n    tag_751:\n        /* \"contracts/gainzilla.sol\":21210:21281  uint256 marketingPortion = amount.mul(_sellMarketingFee).div(totalFees) */\n      swap1\n      pop\n        /* \"contracts/gainzilla.sol\":21295:21314  uint256 teamPortion */\n      0x00\n        /* \"contracts/gainzilla.sol\":21317:21356  amount.mul(_sellTeamFee).div(totalFees) */\n      tag_753\n        /* \"contracts/gainzilla.sol\":21346:21355  totalFees */\n      dup4\n        /* \"contracts/gainzilla.sol\":21317:21341  amount.mul(_sellTeamFee) */\n      tag_437\n        /* \"contracts/gainzilla.sol\":21328:21340  _sellTeamFee */\n      sload(0x17)\n        /* \"contracts/gainzilla.sol\":21317:21323  amount */\n      dup8\n        /* \"contracts/gainzilla.sol\":21317:21327  amount.mul */\n      tag_440\n      swap1\n        /* \"contracts/gainzilla.sol\":21317:21341  amount.mul(_sellTeamFee) */\n      swap2\n      swap1\n      0xffffffff\n      and\n      jump\t// in\n        /* \"contracts/gainzilla.sol\":21317:21356  amount.mul(_sellTeamFee).div(totalFees) */\n    tag_753:\n        /* \"contracts/gainzilla.sol\":21295:21356  uint256 teamPortion = amount.mul(_sellTeamFee).div(totalFees) */\n      swap1\n      pop\n        /* \"contracts/gainzilla.sol\":21370:21388  uint256 ecoPortion */\n      0x00\n        /* \"contracts/gainzilla.sol\":21391:21436  amount.sub(marketingPortion).sub(teamPortion) */\n      tag_755\n        /* \"contracts/gainzilla.sol\":21295:21356  uint256 teamPortion = amount.mul(_sellTeamFee).div(totalFees) */\n      dup3\n        /* \"contracts/gainzilla.sol\":21391:21419  amount.sub(marketingPortion) */\n      tag_729\n        /* \"contracts/gainzilla.sol\":21391:21397  amount */\n      dup8\n        /* \"contracts/gainzilla.sol\":21402:21418  marketingPortion */\n      dup7\n        /* \"contracts/gainzilla.sol\":21391:21401  amount.sub */\n      tag_439\n        /* \"contracts/gainzilla.sol\":21391:21419  amount.sub(marketingPortion) */\n      jump\t// in\n        /* \"contracts/gainzilla.sol\":21391:21436  amount.sub(marketingPortion).sub(teamPortion) */\n    tag_755:\n        /* \"contracts/gainzilla.sol\":21370:21436  uint256 ecoPortion = amount.sub(marketingPortion).sub(teamPortion) */\n      swap1\n      pop\n        /* \"contracts/gainzilla.sol\":21454:21474  marketingPortion > 0 */\n      dup3\n      iszero\n        /* \"contracts/gainzilla.sol\":21450:21553  if (marketingPortion > 0) {... */\n      tag_757\n      jumpi\n        /* \"contracts/gainzilla.sol\":21494:21511  _marketingAddress */\n      sload(0x21)\n        /* \"contracts/gainzilla.sol\":21494:21538  _marketingAddress.transfer(marketingPortion) */\n      mload(0x40)\n      sub(shl(0xa0, 0x01), 0x01)\n        /* \"contracts/gainzilla.sol\":21494:21511  _marketingAddress */\n      swap1\n      swap2\n      and\n      swap1\n        /* \"contracts/gainzilla.sol\":21494:21538  _marketingAddress.transfer(marketingPortion) */\n      dup5\n      iszero\n      0x08fc\n      mul\n      swap1\n        /* \"contracts/gainzilla.sol\":21521:21537  marketingPortion */\n      dup6\n      swap1\n        /* \"contracts/gainzilla.sol\":21494:21511  _marketingAddress */\n      0x00\n        /* \"contracts/gainzilla.sol\":21494:21538  _marketingAddress.transfer(marketingPortion) */\n      dup2\n        /* \"contracts/gainzilla.sol\":21494:21511  _marketingAddress */\n      dup2\n        /* \"contracts/gainzilla.sol\":21494:21538  _marketingAddress.transfer(marketingPortion) */\n      dup2\n        /* \"contracts/gainzilla.sol\":21521:21537  marketingPortion */\n      dup6\n        /* \"contracts/gainzilla.sol\":21494:21511  _marketingAddress */\n      dup9\n        /* \"contracts/gainzilla.sol\":21494:21538  _marketingAddress.transfer(marketingPortion) */\n      dup9\n      call\n      swap4\n      pop\n      pop\n      pop\n      pop\n      iszero\n      dup1\n      iszero\n      tag_759\n      jumpi\n      returndatasize\n      0x00\n      dup1\n      returndatacopy\n      revert(0x00, returndatasize)\n    tag_759:\n      pop\n        /* \"contracts/gainzilla.sol\":21450:21553  if (marketingPortion > 0) {... */\n    tag_757:\n        /* \"contracts/gainzilla.sol\":21570:21585  teamPortion > 0 */\n      dup2\n      iszero\n        /* \"contracts/gainzilla.sol\":21566:21654  if (teamPortion > 0) {... */\n      tag_760\n      jumpi\n        /* \"contracts/gainzilla.sol\":21605:21617  _teamAddress */\n      sload(0x22)\n        /* \"contracts/gainzilla.sol\":21605:21639  _teamAddress.transfer(teamPortion) */\n      mload(0x40)\n      sub(shl(0xa0, 0x01), 0x01)\n        /* \"contracts/gainzilla.sol\":21605:21617  _teamAddress */\n      swap1\n      swap2\n      and\n      swap1\n        /* \"contracts/gainzilla.sol\":21605:21639  _teamAddress.transfer(teamPortion) */\n      dup4\n      iszero\n      0x08fc\n      mul\n      swap1\n        /* \"contracts/gainzilla.sol\":21627:21638  teamPortion */\n      dup5\n      swap1\n        /* \"contracts/gainzilla.sol\":21605:21617  _teamAddress */\n      0x00\n        /* \"contracts/gainzilla.sol\":21605:21639  _teamAddress.transfer(teamPortion) */\n      dup2\n        /* \"contracts/gainzilla.sol\":21605:21617  _teamAddress */\n      dup2\n        /* \"contracts/gainzilla.sol\":21605:21639  _teamAddress.transfer(teamPortion) */\n      dup2\n        /* \"contracts/gainzilla.sol\":21627:21638  teamPortion */\n      dup6\n        /* \"contracts/gainzilla.sol\":21605:21617  _teamAddress */\n      dup9\n        /* \"contracts/gainzilla.sol\":21605:21639  _teamAddress.transfer(teamPortion) */\n      dup9\n      call\n      swap4\n      pop\n      pop\n      pop\n      pop\n      iszero\n      dup1\n      iszero\n      tag_762\n      jumpi\n      returndatasize\n      0x00\n      dup1\n      returndatacopy\n      revert(0x00, returndatasize)\n    tag_762:\n      pop\n        /* \"contracts/gainzilla.sol\":21566:21654  if (teamPortion > 0) {... */\n    tag_760:\n        /* \"contracts/gainzilla.sol\":21671:21685  ecoPortion > 0 */\n      dup1\n      iszero\n        /* \"contracts/gainzilla.sol\":21667:21758  if (ecoPortion > 0) {... */\n      tag_763\n      jumpi\n        /* \"contracts/gainzilla.sol\":21705:21722  _ecosystemAddress */\n      sload(0x23)\n        /* \"contracts/gainzilla.sol\":21705:21743  _ecosystemAddress.transfer(ecoPortion) */\n      mload(0x40)\n      sub(shl(0xa0, 0x01), 0x01)\n        /* \"contracts/gainzilla.sol\":21705:21722  _ecosystemAddress */\n      swap1\n      swap2\n      and\n      swap1\n        /* \"contracts/gainzilla.sol\":21705:21743  _ecosystemAddress.transfer(ecoPortion) */\n      dup3\n      iszero\n      0x08fc\n      mul\n      swap1\n        /* \"contracts/gainzilla.sol\":21732:21742  ecoPortion */\n      dup4\n      swap1\n        /* \"contracts/gainzilla.sol\":21705:21722  _ecosystemAddress */\n      0x00\n        /* \"contracts/gainzilla.sol\":21705:21743  _ecosystemAddress.transfer(ecoPortion) */\n      dup2\n        /* \"contracts/gainzilla.sol\":21705:21722  _ecosystemAddress */\n      dup2\n        /* \"contracts/gainzilla.sol\":21705:21743  _ecosystemAddress.transfer(ecoPortion) */\n      dup2\n        /* \"contracts/gainzilla.sol\":21732:21742  ecoPortion */\n      dup6\n        /* \"contracts/gainzilla.sol\":21705:21722  _ecosystemAddress */\n      dup9\n        /* \"contracts/gainzilla.sol\":21705:21743  _ecosystemAddress.transfer(ecoPortion) */\n      dup9\n      call\n      swap4\n      pop\n      pop\n      pop\n      pop\n      iszero\n      dup1\n      iszero\n      tag_765\n      jumpi\n      returndatasize\n      0x00\n      dup1\n      returndatacopy\n      revert(0x00, returndatasize)\n    tag_765:\n      pop\n        /* \"contracts/gainzilla.sol\":21667:21758  if (ecoPortion > 0) {... */\n    tag_763:\n        /* \"contracts/gainzilla.sol\":21176:21768  if (totalFees != 0) {... */\n      pop\n      pop\n      pop\n        /* \"contracts/gainzilla.sol\":21032:21774  function sendETHToFee(uint256 amount) private {... */\n      pop\n      pop\n      jump\t// out\n        /* \"contracts/gainzilla.sol\":22905:23155  function _tokenTransfer(address sender, address recipient, uint256 amount, bool takeFee) private {... */\n    tag_681:\n        /* \"contracts/gainzilla.sol\":23017:23024  takeFee */\n      dup1\n        /* \"contracts/gainzilla.sol\":23012:23070  if (!takeFee) { ... */\n      tag_768\n      jumpi\n        /* \"contracts/gainzilla.sol\":23045:23059  removeAllFee() */\n      tag_768\n        /* \"contracts/gainzilla.sol\":13751:13767  _buyMarketingFee */\n      0x0d\n      dup1\n      sload\n        /* \"contracts/gainzilla.sol\":13724:13748  _previousBuyMarketingFee */\n      0x0e\n        /* \"contracts/gainzilla.sol\":13724:13767  _previousBuyMarketingFee = _buyMarketingFee */\n      sstore\n        /* \"contracts/gainzilla.sol\":13804:13820  _buyLiquidityFee */\n      0x09\n      dup1\n      sload\n        /* \"contracts/gainzilla.sol\":13777:13801  _previousBuyLiquidityFee */\n      0x0a\n        /* \"contracts/gainzilla.sol\":13777:13820  _previousBuyLiquidityFee = _buyLiquidityFee */\n      sstore\n        /* \"contracts/gainzilla.sol\":13852:13863  _buyTeamFee */\n      0x0f\n      dup1\n      sload\n        /* \"contracts/gainzilla.sol\":13830:13849  _previousBuyTeamFee */\n      0x10\n        /* \"contracts/gainzilla.sol\":13830:13863  _previousBuyTeamFee = _buyTeamFee */\n      sstore\n        /* \"contracts/gainzilla.sol\":13900:13916  _buyEcosystemFee */\n      0x0b\n      dup1\n      sload\n        /* \"contracts/gainzilla.sol\":13873:13897  _previousBuyEcosystemFee */\n      0x0c\n        /* \"contracts/gainzilla.sol\":13873:13916  _previousBuyEcosystemFee = _buyEcosystemFee */\n      sstore\n      0x00\n        /* \"contracts/gainzilla.sol\":13935:13955  _buyMarketingFee = 0 */\n      swap4\n      dup5\n      swap1\n      sstore\n        /* \"contracts/gainzilla.sol\":13965:13985  _buyLiquidityFee = 0 */\n      swap2\n      dup4\n      swap1\n      sstore\n        /* \"contracts/gainzilla.sol\":13995:14010  _buyTeamFee = 0 */\n      dup3\n      swap1\n      sstore\n        /* \"contracts/gainzilla.sol\":14020:14040  _buyEcosystemFee = 0 */\n      dup2\n      swap1\n      sstore\n        /* \"contracts/gainzilla.sol\":14079:14096  _sellMarketingFee */\n      0x15\n      dup1\n      sload\n        /* \"contracts/gainzilla.sol\":14051:14076  _previousSellMarketingFee */\n      0x16\n        /* \"contracts/gainzilla.sol\":14051:14096  _previousSellMarketingFee = _sellMarketingFee */\n      sstore\n        /* \"contracts/gainzilla.sol\":14134:14151  _sellLiquidityFee */\n      0x11\n      dup1\n      sload\n        /* \"contracts/gainzilla.sol\":14106:14131  _previousSellLiquidityFee */\n      0x12\n        /* \"contracts/gainzilla.sol\":14106:14151  _previousSellLiquidityFee = _sellLiquidityFee */\n      sstore\n        /* \"contracts/gainzilla.sol\":14184:14196  _sellTeamFee */\n      0x17\n      dup1\n      sload\n        /* \"contracts/gainzilla.sol\":14161:14181  _previousSellTeamFee */\n      0x18\n        /* \"contracts/gainzilla.sol\":14161:14196  _previousSellTeamFee = _sellTeamFee */\n      sstore\n        /* \"contracts/gainzilla.sol\":14234:14251  _sellEcosystemFee */\n      0x13\n      dup1\n      sload\n        /* \"contracts/gainzilla.sol\":14206:14231  _previousSellEcosystemFee */\n      0x14\n        /* \"contracts/gainzilla.sol\":14206:14251  _previousSellEcosystemFee = _sellEcosystemFee */\n      sstore\n        /* \"contracts/gainzilla.sol\":14270:14291  _sellMarketingFee = 0 */\n      swap3\n      dup5\n      swap1\n      sstore\n        /* \"contracts/gainzilla.sol\":14301:14322  _sellLiquidityFee = 0 */\n      swap1\n      dup4\n      swap1\n      sstore\n        /* \"contracts/gainzilla.sol\":14332:14348  _sellTeamFee = 0 */\n      dup3\n      swap1\n      sstore\n        /* \"contracts/gainzilla.sol\":14358:14379  _sellEcosystemFee = 0 */\n      sstore\n        /* \"contracts/gainzilla.sol\":13682:14386  function removeAllFee() private {... */\n      jump\n        /* \"contracts/gainzilla.sol\":23045:23059  removeAllFee() */\n    tag_768:\n        /* \"contracts/gainzilla.sol\":23079:23123  _transferStandard(sender, recipient, amount) */\n      tag_770\n        /* \"contracts/gainzilla.sol\":23097:23103  sender */\n      dup5\n        /* \"contracts/gainzilla.sol\":23105:23114  recipient */\n      dup5\n        /* \"contracts/gainzilla.sol\":23116:23122  amount */\n      dup5\n        /* \"contracts/gainzilla.sol\":23079:23096  _transferStandard */\n      tag_771\n        /* \"contracts/gainzilla.sol\":23079:23123  _transferStandard(sender, recipient, amount) */\n      jump\t// in\n    tag_770:\n        /* \"contracts/gainzilla.sol\":23133:23148  restoreAllFee() */\n      tag_680\n        /* \"contracts/gainzilla.sol\":14458:14482  _previousBuyMarketingFee */\n      sload(0x0e)\n        /* \"contracts/gainzilla.sol\":14439:14455  _buyMarketingFee */\n      0x0d\n        /* \"contracts/gainzilla.sol\":14439:14482  _buyMarketingFee = _previousBuyMarketingFee */\n      sstore\n        /* \"contracts/gainzilla.sol\":14511:14535  _previousBuyLiquidityFee */\n      sload(0x0a)\n        /* \"contracts/gainzilla.sol\":14492:14508  _buyLiquidityFee */\n      0x09\n        /* \"contracts/gainzilla.sol\":14492:14535  _buyLiquidityFee = _previousBuyLiquidityFee */\n      sstore\n        /* \"contracts/gainzilla.sol\":14559:14578  _previousBuyTeamFee */\n      sload(0x10)\n        /* \"contracts/gainzilla.sol\":14545:14556  _buyTeamFee */\n      0x0f\n        /* \"contracts/gainzilla.sol\":14545:14578  _buyTeamFee = _previousBuyTeamFee */\n      sstore\n        /* \"contracts/gainzilla.sol\":14607:14631  _previousBuyEcosystemFee */\n      sload(0x0c)\n        /* \"contracts/gainzilla.sol\":14588:14604  _buyEcosystemFee */\n      0x0b\n        /* \"contracts/gainzilla.sol\":14588:14631  _buyEcosystemFee = _previousBuyEcosystemFee */\n      sstore\n        /* \"contracts/gainzilla.sol\":14662:14687  _previousSellMarketingFee */\n      sload(0x16)\n        /* \"contracts/gainzilla.sol\":14642:14659  _sellMarketingFee */\n      0x15\n        /* \"contracts/gainzilla.sol\":14642:14687  _sellMarketingFee = _previousSellMarketingFee */\n      sstore\n        /* \"contracts/gainzilla.sol\":14717:14742  _previousSellLiquidityFee */\n      sload(0x12)\n        /* \"contracts/gainzilla.sol\":14697:14714  _sellLiquidityFee */\n      0x11\n        /* \"contracts/gainzilla.sol\":14697:14742  _sellLiquidityFee = _previousSellLiquidityFee */\n      sstore\n        /* \"contracts/gainzilla.sol\":14767:14787  _previousSellTeamFee */\n      sload(0x18)\n        /* \"contracts/gainzilla.sol\":14752:14764  _sellTeamFee */\n      0x17\n        /* \"contracts/gainzilla.sol\":14752:14787  _sellTeamFee = _previousSellTeamFee */\n      sstore\n        /* \"contracts/gainzilla.sol\":14817:14842  _previousSellEcosystemFee */\n      sload(0x14)\n        /* \"contracts/gainzilla.sol\":14797:14814  _sellEcosystemFee */\n      0x13\n        /* \"contracts/gainzilla.sol\":14797:14842  _sellEcosystemFee = _previousSellEcosystemFee */\n      sstore\n        /* \"contracts/gainzilla.sol\":14396:14849  function restoreAllFee() private {... */\n      jump\n        /* \"contracts/gainzilla.sol\":2422:2607  function div(uint256 a, uint256 b, string memory errorMessage) internal pure returns (uint256) {... */\n    tag_689:\n        /* \"contracts/gainzilla.sol\":2508:2515  uint256 */\n      0x00\n        /* \"contracts/gainzilla.sol\":2542:2554  errorMessage */\n      dup2\n        /* \"contracts/gainzilla.sol\":2535:2540  b > 0 */\n      dup4\n        /* \"contracts/gainzilla.sol\":2527:2555  require(b > 0, errorMessage) */\n      tag_775\n      jumpi\n      mload(0x40)\n      shl(0xe5, 0x461bcd)\n      dup2\n      mstore\n      0x04\n      add\n      tag_336\n      swap2\n      swap1\n      tag_87\n      jump\t// in\n    tag_775:\n      pop\n        /* \"contracts/gainzilla.sol\":2565:2574  uint256 c */\n      0x00\n        /* \"contracts/gainzilla.sol\":2577:2582  a / b */\n      tag_685\n        /* \"contracts/gainzilla.sol\":2581:2582  b */\n      dup5\n        /* \"contracts/gainzilla.sol\":2577:2578  a */\n      dup7\n        /* \"contracts/gainzilla.sol\":2577:2582  a / b */\n      tag_697\n      jump\t// in\n        /* \"contracts/gainzilla.sol\":20058:20511  function addLiquidity(uint256 tokenAmount, uint256 ethAmount) private {... */\n    tag_746:\n        /* \"contracts/gainzilla.sol\":20170:20185  uniswapV2Router */\n      sload(0x25)\n        /* \"contracts/gainzilla.sol\":20138:20200  _approve(address(this), address(uniswapV2Router), tokenAmount) */\n      tag_779\n      swap1\n        /* \"contracts/gainzilla.sol\":20155:20159  this */\n      address\n      swap1\n      sub(shl(0xa0, 0x01), 0x01)\n        /* \"contracts/gainzilla.sol\":20170:20185  uniswapV2Router */\n      and\n        /* \"contracts/gainzilla.sol\":20188:20199  tokenAmount */\n      dup5\n        /* \"contracts/gainzilla.sol\":20138:20146  _approve */\n      tag_332\n        /* \"contracts/gainzilla.sol\":20138:20200  _approve(address(this), address(uniswapV2Router), tokenAmount) */\n      jump\t// in\n    tag_779:\n        /* \"contracts/gainzilla.sol\":20240:20255  uniswapV2Router */\n      sload(0x25)\n        /* \"contracts/gainzilla.sol\":20449:20461  _lpRecipient */\n      0x24\n      dup1\n      sload\n        /* \"contracts/gainzilla.sol\":20240:20504  uniswapV2Router.addLiquidityETH{value: ethAmount}(... */\n      mload(0x40)\n      0xf305d71900000000000000000000000000000000000000000000000000000000\n      dup2\n      mstore\n        /* \"contracts/gainzilla.sol\":20313:20317  this */\n      address\n        /* \"contracts/gainzilla.sol\":20240:20504  uniswapV2Router.addLiquidityETH{value: ethAmount}(... */\n      0x04\n      dup3\n      add\n        /* \"#utility.yul\":5752:5786   */\n      mstore\n        /* \"#utility.yul\":5802:5820   */\n      swap2\n      dup3\n      add\n        /* \"#utility.yul\":5795:5829   */\n      dup6\n      swap1\n      mstore\n        /* \"contracts/gainzilla.sol\":20240:20255  uniswapV2Router */\n      0x00\n        /* \"#utility.yul\":5845:5863   */\n      0x44\n      dup4\n      add\n        /* \"#utility.yul\":5838:5872   */\n      dup2\n      swap1\n      mstore\n        /* \"#utility.yul\":5888:5906   */\n      0x64\n      dup4\n      add\n        /* \"#utility.yul\":5881:5915   */\n      mstore\n      sub(shl(0xa0, 0x01), 0x01)\n        /* \"contracts/gainzilla.sol\":20449:20461  _lpRecipient */\n      swap1\n      dup2\n      and\n        /* \"#utility.yul\":5931:5950   */\n      0x84\n      dup4\n      add\n        /* \"#utility.yul\":5924:5968   */\n      mstore\n        /* \"contracts/gainzilla.sol\":20477:20492  block.timestamp */\n      timestamp\n        /* \"#utility.yul\":5984:6003   */\n      0xa4\n      dup4\n      add\n        /* \"#utility.yul\":5977:6012   */\n      mstore\n        /* \"contracts/gainzilla.sol\":20240:20255  uniswapV2Router */\n      swap1\n      swap2\n      and\n      swap1\n        /* \"contracts/gainzilla.sol\":20240:20271  uniswapV2Router.addLiquidityETH */\n      0xf305d719\n      swap1\n        /* \"contracts/gainzilla.sol\":20279:20288  ethAmount */\n      dup4\n      swap1\n        /* \"#utility.yul\":5663:5682   */\n      0xc4\n      add\n        /* \"contracts/gainzilla.sol\":20240:20504  uniswapV2Router.addLiquidityETH{value: ethAmount}(... */\n      0x60\n      mload(0x40)\n      dup1\n      dup4\n      sub\n      dup2\n      dup6\n      dup9\n      dup1\n      extcodesize\n      iszero\n      dup1\n      iszero\n      tag_782\n      jumpi\n      0x00\n      dup1\n      revert\n    tag_782:\n      pop\n      gas\n      call\n      iszero\n      dup1\n      iszero\n      tag_784\n      jumpi\n      returndatasize\n      0x00\n      dup1\n      returndatacopy\n      revert(0x00, returndatasize)\n    tag_784:\n      pop\n      pop\n      pop\n      pop\n      pop\n      mload(0x40)\n      returndatasize\n      not(0x1f)\n      0x1f\n      dup3\n      add\n      and\n      dup3\n      add\n      dup1\n      0x40\n      mstore\n      pop\n      dup2\n      add\n      swap1\n      tag_763\n      swap2\n      swap1\n      tag_786\n      jump\t// in\n        /* \"contracts/gainzilla.sol\":23161:25008  function _transferStandard(address sender, address recipient, uint256 amount) private {... */\n    tag_771:\n        /* \"contracts/gainzilla.sol\":23257:23281  FeeBreakdown memory fees */\n      tag_789\n      mload(0x40)\n      dup1\n      0xa0\n      add\n      0x40\n      mstore\n      dup1\n      0x00\n      dup2\n      mstore\n      0x20\n      add\n      0x00\n      dup2\n      mstore\n      0x20\n      add\n      0x00\n      dup2\n      mstore\n      0x20\n      add\n      0x00\n      dup2\n      mstore\n      0x20\n      add\n      0x00\n      dup2\n      mstore\n      pop\n      swap1\n      jump\n    tag_789:\n        /* \"contracts/gainzilla.sol\":23305:23318  uniswapV2Pair */\n      sload(0x26)\n      sub(shl(0xa0, 0x01), 0x01)\n        /* \"contracts/gainzilla.sol\":23295:23318  sender == uniswapV2Pair */\n      dup6\n      dup2\n      and\n        /* \"contracts/gainzilla.sol\":23305:23318  uniswapV2Pair */\n      swap2\n      and\n        /* \"contracts/gainzilla.sol\":23295:23318  sender == uniswapV2Pair */\n      eq\n        /* \"contracts/gainzilla.sol\":23295:23359  sender == uniswapV2Pair && recipient != address(uniswapV2Router) */\n      dup1\n      iszero\n      tag_791\n      jumpi\n      pop\n        /* \"contracts/gainzilla.sol\":23343:23358  uniswapV2Router */\n      sload(0x25)\n      sub(shl(0xa0, 0x01), 0x01)\n        /* \"contracts/gainzilla.sol\":23322:23359  recipient != address(uniswapV2Router) */\n      dup5\n      dup2\n      and\n        /* \"contracts/gainzilla.sol\":23343:23358  uniswapV2Router */\n      swap2\n      and\n        /* \"contracts/gainzilla.sol\":23322:23359  recipient != address(uniswapV2Router) */\n      eq\n      iszero\n        /* \"contracts/gainzilla.sol\":23295:23359  sender == uniswapV2Pair && recipient != address(uniswapV2Router) */\n    tag_791:\n        /* \"contracts/gainzilla.sol\":23291:23648  if (sender == uniswapV2Pair && recipient != address(uniswapV2Router)) {//buys... */\n      iszero\n      tag_792\n      jumpi\n        /* \"contracts/gainzilla.sol\":23399:23437  amount.mul(_buyMarketingFee).div(1000) */\n      tag_793\n        /* \"contracts/gainzilla.sol\":23432:23436  1000 */\n      0x03e8\n        /* \"contracts/gainzilla.sol\":23399:23427  amount.mul(_buyMarketingFee) */\n      tag_437\n        /* \"contracts/gainzilla.sol\":23410:23426  _buyMarketingFee */\n      sload(0x0d)\n        /* \"contracts/gainzilla.sol\":23399:23405  amount */\n      dup6\n        /* \"contracts/gainzilla.sol\":23399:23409  amount.mul */\n      tag_440\n      swap1\n        /* \"contracts/gainzilla.sol\":23399:23427  amount.mul(_buyMarketingFee) */\n      swap2\n      swap1\n      0xffffffff\n      and\n      jump\t// in\n        /* \"contracts/gainzilla.sol\":23399:23437  amount.mul(_buyMarketingFee).div(1000) */\n    tag_793:\n        /* \"contracts/gainzilla.sol\":23381:23396  fees.tMarketing */\n      0x20\n      dup3\n      add\n        /* \"contracts/gainzilla.sol\":23381:23437  fees.tMarketing = amount.mul(_buyMarketingFee).div(1000) */\n      mstore\n        /* \"contracts/gainzilla.sol\":23480:23496  _buyLiquidityFee */\n      sload(0x09)\n        /* \"contracts/gainzilla.sol\":23469:23507  amount.mul(_buyLiquidityFee).div(1000) */\n      tag_795\n      swap1\n        /* \"contracts/gainzilla.sol\":23502:23506  1000 */\n      0x03e8\n      swap1\n        /* \"contracts/gainzilla.sol\":23469:23497  amount.mul(_buyLiquidityFee) */\n      tag_437\n      swap1\n        /* \"contracts/gainzilla.sol\":23469:23475  amount */\n      dup6\n      swap1\n        /* \"contracts/gainzilla.sol\":23469:23479  amount.mul */\n      tag_440\n        /* \"contracts/gainzilla.sol\":23469:23497  amount.mul(_buyLiquidityFee) */\n      jump\t// in\n        /* \"contracts/gainzilla.sol\":23469:23507  amount.mul(_buyLiquidityFee).div(1000) */\n    tag_795:\n        /* \"contracts/gainzilla.sol\":23451:23507  fees.tLiquidity = amount.mul(_buyLiquidityFee).div(1000) */\n      dup2\n      mstore\n        /* \"contracts/gainzilla.sol\":23545:23556  _buyTeamFee */\n      sload(0x0f)\n        /* \"contracts/gainzilla.sol\":23534:23567  amount.mul(_buyTeamFee).div(1000) */\n      tag_797\n      swap1\n        /* \"contracts/gainzilla.sol\":23562:23566  1000 */\n      0x03e8\n      swap1\n        /* \"contracts/gainzilla.sol\":23534:23557  amount.mul(_buyTeamFee) */\n      tag_437\n      swap1\n        /* \"contracts/gainzilla.sol\":23534:23540  amount */\n      dup6\n      swap1\n        /* \"contracts/gainzilla.sol\":23534:23544  amount.mul */\n      tag_440\n        /* \"contracts/gainzilla.sol\":23534:23557  amount.mul(_buyTeamFee) */\n      jump\t// in\n        /* \"contracts/gainzilla.sol\":23534:23567  amount.mul(_buyTeamFee).div(1000) */\n    tag_797:\n        /* \"contracts/gainzilla.sol\":23521:23531  fees.tTeam */\n      0x40\n      dup3\n      add\n        /* \"contracts/gainzilla.sol\":23521:23567  fees.tTeam = amount.mul(_buyTeamFee).div(1000) */\n      mstore\n        /* \"contracts/gainzilla.sol\":23610:23626  _buyEcosystemFee */\n      sload(0x0b)\n        /* \"contracts/gainzilla.sol\":23599:23637  amount.mul(_buyEcosystemFee).div(1000) */\n      tag_799\n      swap1\n        /* \"contracts/gainzilla.sol\":23632:23636  1000 */\n      0x03e8\n      swap1\n        /* \"contracts/gainzilla.sol\":23599:23627  amount.mul(_buyEcosystemFee) */\n      tag_437\n      swap1\n        /* \"contracts/gainzilla.sol\":23599:23605  amount */\n      dup6\n      swap1\n        /* \"contracts/gainzilla.sol\":23599:23609  amount.mul */\n      tag_440\n        /* \"contracts/gainzilla.sol\":23599:23627  amount.mul(_buyEcosystemFee) */\n      jump\t// in\n        /* \"contracts/gainzilla.sol\":23599:23637  amount.mul(_buyEcosystemFee).div(1000) */\n    tag_799:\n        /* \"contracts/gainzilla.sol\":23581:23596  fees.tEcosystem */\n      0x60\n      dup3\n      add\n        /* \"contracts/gainzilla.sol\":23581:23637  fees.tEcosystem = amount.mul(_buyEcosystemFee).div(1000) */\n      mstore\n        /* \"contracts/gainzilla.sol\":23291:23648  if (sender == uniswapV2Pair && recipient != address(uniswapV2Router)) {//buys... */\n    tag_792:\n        /* \"contracts/gainzilla.sol\":23671:23684  uniswapV2Pair */\n      sload(0x26)\n      sub(shl(0xa0, 0x01), 0x01)\n        /* \"contracts/gainzilla.sol\":23661:23684  sender != uniswapV2Pair */\n      dup6\n      dup2\n      and\n        /* \"contracts/gainzilla.sol\":23671:23684  uniswapV2Pair */\n      swap2\n      and\n        /* \"contracts/gainzilla.sol\":23661:23684  sender != uniswapV2Pair */\n      eq\n      dup1\n      iszero\n      swap1\n        /* \"contracts/gainzilla.sol\":23661:23714  sender != uniswapV2Pair && recipient == uniswapV2Pair */\n      tag_801\n      jumpi\n      pop\n        /* \"contracts/gainzilla.sol\":23701:23714  uniswapV2Pair */\n      sload(0x26)\n      sub(shl(0xa0, 0x01), 0x01)\n        /* \"contracts/gainzilla.sol\":23688:23714  recipient == uniswapV2Pair */\n      dup5\n      dup2\n      and\n        /* \"contracts/gainzilla.sol\":23701:23714  uniswapV2Pair */\n      swap2\n      and\n        /* \"contracts/gainzilla.sol\":23688:23714  recipient == uniswapV2Pair */\n      eq\n        /* \"contracts/gainzilla.sol\":23661:23714  sender != uniswapV2Pair && recipient == uniswapV2Pair */\n    tag_801:\n        /* \"contracts/gainzilla.sol\":23657:24008  if (sender != uniswapV2Pair && recipient == uniswapV2Pair) {//sells... */\n      iszero\n      tag_802\n      jumpi\n        /* \"contracts/gainzilla.sol\":23755:23794  amount.mul(_sellMarketingFee).div(1000) */\n      tag_803\n        /* \"contracts/gainzilla.sol\":23789:23793  1000 */\n      0x03e8\n        /* \"contracts/gainzilla.sol\":23755:23784  amount.mul(_sellMarketingFee) */\n      tag_437\n        /* \"contracts/gainzilla.sol\":23766:23783  _sellMarketingFee */\n      sload(0x15)\n        /* \"contracts/gainzilla.sol\":23755:23761  amount */\n      dup6\n        /* \"contracts/gainzilla.sol\":23755:23765  amount.mul */\n      tag_440\n      swap1\n        /* \"contracts/gainzilla.sol\":23755:23784  amount.mul(_sellMarketingFee) */\n      swap2\n      swap1\n      0xffffffff\n      and\n      jump\t// in\n        /* \"contracts/gainzilla.sol\":23755:23794  amount.mul(_sellMarketingFee).div(1000) */\n    tag_803:\n        /* \"contracts/gainzilla.sol\":23737:23752  fees.tMarketing */\n      0x20\n      dup3\n      add\n        /* \"contracts/gainzilla.sol\":23737:23794  fees.tMarketing = amount.mul(_sellMarketingFee).div(1000) */\n      mstore\n        /* \"contracts/gainzilla.sol\":23837:23854  _sellLiquidityFee */\n      sload(0x11)\n        /* \"contracts/gainzilla.sol\":23826:23865  amount.mul(_sellLiquidityFee).div(1000) */\n      tag_805\n      swap1\n        /* \"contracts/gainzilla.sol\":23860:23864  1000 */\n      0x03e8\n      swap1\n        /* \"contracts/gainzilla.sol\":23826:23855  amount.mul(_sellLiquidityFee) */\n      tag_437\n      swap1\n        /* \"contracts/gainzilla.sol\":23826:23832  amount */\n      dup6\n      swap1\n        /* \"contracts/gainzilla.sol\":23826:23836  amount.mul */\n      tag_440\n        /* \"contracts/gainzilla.sol\":23826:23855  amount.mul(_sellLiquidityFee) */\n      jump\t// in\n        /* \"contracts/gainzilla.sol\":23826:23865  amount.mul(_sellLiquidityFee).div(1000) */\n    tag_805:\n        /* \"contracts/gainzilla.sol\":23808:23865  fees.tLiquidity = amount.mul(_sellLiquidityFee).div(1000) */\n      dup2\n      mstore\n        /* \"contracts/gainzilla.sol\":23903:23915  _sellTeamFee */\n      sload(0x17)\n        /* \"contracts/gainzilla.sol\":23892:23926  amount.mul(_sellTeamFee).div(1000) */\n      tag_807\n      swap1\n        /* \"contracts/gainzilla.sol\":23921:23925  1000 */\n      0x03e8\n      swap1\n        /* \"contracts/gainzilla.sol\":23892:23916  amount.mul(_sellTeamFee) */\n      tag_437\n      swap1\n        /* \"contracts/gainzilla.sol\":23892:23898  amount */\n      dup6\n      swap1\n        /* \"contracts/gainzilla.sol\":23892:23902  amount.mul */\n      tag_440\n        /* \"contracts/gainzilla.sol\":23892:23916  amount.mul(_sellTeamFee) */\n      jump\t// in\n        /* \"contracts/gainzilla.sol\":23892:23926  amount.mul(_sellTeamFee).div(1000) */\n    tag_807:\n        /* \"contracts/gainzilla.sol\":23879:23889  fees.tTeam */\n      0x40\n      dup3\n      add\n        /* \"contracts/gainzilla.sol\":23879:23926  fees.tTeam = amount.mul(_sellTeamFee).div(1000) */\n      mstore\n        /* \"contracts/gainzilla.sol\":23969:23986  _sellEcosystemFee */\n      sload(0x13)\n        /* \"contracts/gainzilla.sol\":23958:23997  amount.mul(_sellEcosystemFee).div(1000) */\n      tag_809\n      swap1\n        /* \"contracts/gainzilla.sol\":23992:23996  1000 */\n      0x03e8\n      swap1\n        /* \"contracts/gainzilla.sol\":23958:23987  amount.mul(_sellEcosystemFee) */\n      tag_437\n      swap1\n        /* \"contracts/gainzilla.sol\":23958:23964  amount */\n      dup6\n      swap1\n        /* \"contracts/gainzilla.sol\":23958:23968  amount.mul */\n      tag_440\n        /* \"contracts/gainzilla.sol\":23958:23987  amount.mul(_sellEcosystemFee) */\n      jump\t// in\n        /* \"contracts/gainzilla.sol\":23958:23997  amount.mul(_sellEcosystemFee).div(1000) */\n    tag_809:\n        /* \"contracts/gainzilla.sol\":23940:23955  fees.tEcosystem */\n      0x60\n      dup3\n      add\n        /* \"contracts/gainzilla.sol\":23940:23997  fees.tEcosystem = amount.mul(_sellEcosystemFee).div(1000) */\n      mstore\n        /* \"contracts/gainzilla.sol\":23657:24008  if (sender != uniswapV2Pair && recipient == uniswapV2Pair) {//sells... */\n    tag_802:\n        /* \"contracts/gainzilla.sol\":24031:24044  uniswapV2Pair */\n      sload(0x26)\n      sub(shl(0xa0, 0x01), 0x01)\n        /* \"contracts/gainzilla.sol\":24021:24044  sender != uniswapV2Pair */\n      dup6\n      dup2\n      and\n        /* \"contracts/gainzilla.sol\":24031:24044  uniswapV2Pair */\n      swap2\n      and\n        /* \"contracts/gainzilla.sol\":24021:24044  sender != uniswapV2Pair */\n      eq\n      dup1\n      iszero\n      swap1\n        /* \"contracts/gainzilla.sol\":24021:24074  sender != uniswapV2Pair && recipient != uniswapV2Pair */\n      tag_811\n      jumpi\n      pop\n        /* \"contracts/gainzilla.sol\":24061:24074  uniswapV2Pair */\n      sload(0x26)\n      sub(shl(0xa0, 0x01), 0x01)\n        /* \"contracts/gainzilla.sol\":24048:24074  recipient != uniswapV2Pair */\n      dup5\n      dup2\n      and\n        /* \"contracts/gainzilla.sol\":24061:24074  uniswapV2Pair */\n      swap2\n      and\n        /* \"contracts/gainzilla.sol\":24048:24074  recipient != uniswapV2Pair */\n      eq\n      iszero\n        /* \"contracts/gainzilla.sol\":24021:24074  sender != uniswapV2Pair && recipient != uniswapV2Pair */\n    tag_811:\n        /* \"contracts/gainzilla.sol\":24017:24539  if (sender != uniswapV2Pair && recipient != uniswapV2Pair) {//transfer... */\n      iszero\n      tag_812\n      jumpi\n        /* \"contracts/gainzilla.sol\":24118:24199  (amount.mul(_sellMarketingFee).div(1000)).mul(transferFeeIncreaseFactor).div(100) */\n      tag_813\n        /* \"contracts/gainzilla.sol\":24195:24198  100 */\n      0x64\n        /* \"contracts/gainzilla.sol\":24118:24190  (amount.mul(_sellMarketingFee).div(1000)).mul(transferFeeIncreaseFactor) */\n      tag_437\n        /* \"contracts/gainzilla.sol\":24164:24189  transferFeeIncreaseFactor */\n      sload(0x19)\n        /* \"contracts/gainzilla.sol\":24119:24158  amount.mul(_sellMarketingFee).div(1000) */\n      tag_438\n        /* \"contracts/gainzilla.sol\":24153:24157  1000 */\n      0x03e8\n        /* \"contracts/gainzilla.sol\":24119:24148  amount.mul(_sellMarketingFee) */\n      tag_437\n        /* \"contracts/gainzilla.sol\":24130:24147  _sellMarketingFee */\n      sload(0x15)\n        /* \"contracts/gainzilla.sol\":24119:24125  amount */\n      dup10\n        /* \"contracts/gainzilla.sol\":24119:24129  amount.mul */\n      tag_440\n      swap1\n        /* \"contracts/gainzilla.sol\":24119:24148  amount.mul(_sellMarketingFee) */\n      swap2\n      swap1\n      0xffffffff\n      and\n      jump\t// in\n        /* \"contracts/gainzilla.sol\":24118:24199  (amount.mul(_sellMarketingFee).div(1000)).mul(transferFeeIncreaseFactor).div(100) */\n    tag_813:\n        /* \"contracts/gainzilla.sol\":24100:24104  fees */\n      dup2\n        /* \"contracts/gainzilla.sol\":24100:24115  fees.tMarketing */\n      0x20\n      add\n        /* \"contracts/gainzilla.sol\":24100:24199  fees.tMarketing = (amount.mul(_sellMarketingFee).div(1000)).mul(transferFeeIncreaseFactor).div(100) */\n      dup2\n      dup2\n      mstore\n      pop\n      pop\n        /* \"contracts/gainzilla.sol\":24231:24312  (amount.mul(_sellLiquidityFee).div(1000)).mul(transferFeeIncreaseFactor).div(100) */\n      tag_817\n        /* \"contracts/gainzilla.sol\":24308:24311  100 */\n      0x64\n        /* \"contracts/gainzilla.sol\":24231:24303  (amount.mul(_sellLiquidityFee).div(1000)).mul(transferFeeIncreaseFactor) */\n      tag_437\n        /* \"contracts/gainzilla.sol\":24277:24302  transferFeeIncreaseFactor */\n      sload(0x19)\n        /* \"contracts/gainzilla.sol\":24232:24271  amount.mul(_sellLiquidityFee).div(1000) */\n      tag_438\n        /* \"contracts/gainzilla.sol\":24266:24270  1000 */\n      0x03e8\n        /* \"contracts/gainzilla.sol\":24232:24261  amount.mul(_sellLiquidityFee) */\n      tag_437\n        /* \"contracts/gainzilla.sol\":24243:24260  _sellLiquidityFee */\n      sload(0x11)\n        /* \"contracts/gainzilla.sol\":24232:24238  amount */\n      dup10\n        /* \"contracts/gainzilla.sol\":24232:24242  amount.mul */\n      tag_440\n      swap1\n        /* \"contracts/gainzilla.sol\":24232:24261  amount.mul(_sellLiquidityFee) */\n      swap2\n      swap1\n      0xffffffff\n      and\n      jump\t// in\n        /* \"contracts/gainzilla.sol\":24231:24312  (amount.mul(_sellLiquidityFee).div(1000)).mul(transferFeeIncreaseFactor).div(100) */\n    tag_817:\n        /* \"contracts/gainzilla.sol\":24213:24312  fees.tLiquidity = (amount.mul(_sellLiquidityFee).div(1000)).mul(transferFeeIncreaseFactor).div(100) */\n      dup2\n      mstore\n        /* \"contracts/gainzilla.sol\":24380:24405  transferFeeIncreaseFactor */\n      sload(0x19)\n        /* \"contracts/gainzilla.sol\":24351:24363  _sellTeamFee */\n      sload(0x17)\n        /* \"contracts/gainzilla.sol\":24339:24415  (amount.mul(_sellTeamFee).div(1000)).mul(transferFeeIncreaseFactor).div(100) */\n      tag_821\n      swap2\n        /* \"contracts/gainzilla.sol\":24411:24414  100 */\n      0x64\n      swap2\n        /* \"contracts/gainzilla.sol\":24339:24406  (amount.mul(_sellTeamFee).div(1000)).mul(transferFeeIncreaseFactor) */\n      tag_437\n      swap2\n        /* \"contracts/gainzilla.sol\":24380:24405  transferFeeIncreaseFactor */\n      swap1\n        /* \"contracts/gainzilla.sol\":24340:24374  amount.mul(_sellTeamFee).div(1000) */\n      tag_438\n      swap1\n        /* \"contracts/gainzilla.sol\":24369:24373  1000 */\n      0x03e8\n      swap1\n        /* \"contracts/gainzilla.sol\":24339:24406  (amount.mul(_sellTeamFee).div(1000)).mul(transferFeeIncreaseFactor) */\n      dup5\n      swap1\n        /* \"contracts/gainzilla.sol\":24340:24346  amount */\n      dup10\n      swap1\n        /* \"contracts/gainzilla.sol\":24340:24350  amount.mul */\n      tag_440\n        /* \"contracts/gainzilla.sol\":24340:24364  amount.mul(_sellTeamFee) */\n      jump\t// in\n        /* \"contracts/gainzilla.sol\":24339:24415  (amount.mul(_sellTeamFee).div(1000)).mul(transferFeeIncreaseFactor).div(100) */\n    tag_821:\n        /* \"contracts/gainzilla.sol\":24326:24330  fees */\n      dup2\n        /* \"contracts/gainzilla.sol\":24326:24336  fees.tTeam */\n      0x40\n      add\n        /* \"contracts/gainzilla.sol\":24326:24415  fees.tTeam = (amount.mul(_sellTeamFee).div(1000)).mul(transferFeeIncreaseFactor).div(100) */\n      dup2\n      dup2\n      mstore\n      pop\n      pop\n        /* \"contracts/gainzilla.sol\":24447:24528  (amount.mul(_sellEcosystemFee).div(1000)).mul(transferFeeIncreaseFactor).div(100) */\n      tag_825\n        /* \"contracts/gainzilla.sol\":24524:24527  100 */\n      0x64\n        /* \"contracts/gainzilla.sol\":24447:24519  (amount.mul(_sellEcosystemFee).div(1000)).mul(transferFeeIncreaseFactor) */\n      tag_437\n        /* \"contracts/gainzilla.sol\":24493:24518  transferFeeIncreaseFactor */\n      sload(0x19)\n        /* \"contracts/gainzilla.sol\":24448:24487  amount.mul(_sellEcosystemFee).div(1000) */\n      tag_438\n        /* \"contracts/gainzilla.sol\":24482:24486  1000 */\n      0x03e8\n        /* \"contracts/gainzilla.sol\":24448:24477  amount.mul(_sellEcosystemFee) */\n      tag_437\n        /* \"contracts/gainzilla.sol\":24459:24476  _sellEcosystemFee */\n      sload(0x13)\n        /* \"contracts/gainzilla.sol\":24448:24454  amount */\n      dup10\n        /* \"contracts/gainzilla.sol\":24448:24458  amount.mul */\n      tag_440\n      swap1\n        /* \"contracts/gainzilla.sol\":24448:24477  amount.mul(_sellEcosystemFee) */\n      swap2\n      swap1\n      0xffffffff\n      and\n      jump\t// in\n        /* \"contracts/gainzilla.sol\":24447:24528  (amount.mul(_sellEcosystemFee).div(1000)).mul(transferFeeIncreaseFactor).div(100) */\n    tag_825:\n        /* \"contracts/gainzilla.sol\":24429:24444  fees.tEcosystem */\n      0x60\n      dup3\n      add\n        /* \"contracts/gainzilla.sol\":24429:24528  fees.tEcosystem = (amount.mul(_sellEcosystemFee).div(1000)).mul(transferFeeIncreaseFactor).div(100) */\n      mstore\n        /* \"contracts/gainzilla.sol\":24017:24539  if (sender != uniswapV2Pair && recipient != uniswapV2Pair) {//transfer... */\n    tag_812:\n        /* \"contracts/gainzilla.sol\":24572:24657  amount.sub(fees.tMarketing).sub(fees.tLiquidity).sub(fees.tTeam).sub(fees.tEcosystem) */\n      tag_829\n        /* \"contracts/gainzilla.sol\":24641:24645  fees */\n      dup2\n        /* \"contracts/gainzilla.sol\":24641:24656  fees.tEcosystem */\n      0x60\n      add\n      mload\n        /* \"contracts/gainzilla.sol\":24572:24636  amount.sub(fees.tMarketing).sub(fees.tLiquidity).sub(fees.tTeam) */\n      tag_729\n        /* \"contracts/gainzilla.sol\":24625:24629  fees */\n      dup4\n        /* \"contracts/gainzilla.sol\":24625:24635  fees.tTeam */\n      0x40\n      add\n      mload\n        /* \"contracts/gainzilla.sol\":24572:24620  amount.sub(fees.tMarketing).sub(fees.tLiquidity) */\n      tag_729\n        /* \"contracts/gainzilla.sol\":24604:24608  fees */\n      dup6\n        /* \"contracts/gainzilla.sol\":24604:24619  fees.tLiquidity */\n      0x00\n      add\n      mload\n        /* \"contracts/gainzilla.sol\":24572:24599  amount.sub(fees.tMarketing) */\n      tag_729\n        /* \"contracts/gainzilla.sol\":24583:24587  fees */\n      dup8\n        /* \"contracts/gainzilla.sol\":24583:24598  fees.tMarketing */\n      0x20\n      add\n      mload\n        /* \"contracts/gainzilla.sol\":24572:24578  amount */\n      dup10\n        /* \"contracts/gainzilla.sol\":24572:24582  amount.sub */\n      tag_439\n      swap1\n        /* \"contracts/gainzilla.sol\":24572:24599  amount.sub(fees.tMarketing) */\n      swap2\n      swap1\n      0xffffffff\n      and\n      jump\t// in\n        /* \"contracts/gainzilla.sol\":24572:24657  amount.sub(fees.tMarketing).sub(fees.tLiquidity).sub(fees.tTeam).sub(fees.tEcosystem) */\n    tag_829:\n        /* \"contracts/gainzilla.sol\":24557:24569  fees.tAmount */\n      0x80\n      dup3\n      add\n        /* \"contracts/gainzilla.sol\":24557:24657  fees.tAmount = amount.sub(fees.tMarketing).sub(fees.tLiquidity).sub(fees.tTeam).sub(fees.tEcosystem) */\n      mstore\n      sub(shl(0xa0, 0x01), 0x01)\n        /* \"contracts/gainzilla.sol\":24696:24713  _balances[sender] */\n      dup5\n      and\n      0x00\n      swap1\n      dup2\n      mstore\n        /* \"contracts/gainzilla.sol\":24696:24705  _balances */\n      0x02\n        /* \"contracts/gainzilla.sol\":24696:24713  _balances[sender] */\n      0x20\n      mstore\n      0x40\n      swap1\n      keccak256\n      sload\n        /* \"contracts/gainzilla.sol\":24696:24725  _balances[sender].sub(amount) */\n      tag_833\n      swap1\n        /* \"contracts/gainzilla.sol\":24718:24724  amount */\n      dup4\n        /* \"contracts/gainzilla.sol\":24696:24717  _balances[sender].sub */\n      tag_439\n        /* \"contracts/gainzilla.sol\":24696:24725  _balances[sender].sub(amount) */\n      jump\t// in\n    tag_833:\n      sub(shl(0xa0, 0x01), 0x01)\n        /* \"contracts/gainzilla.sol\":24676:24693  _balances[sender] */\n      dup1\n      dup7\n      and\n      0x00\n      swap1\n      dup2\n      mstore\n        /* \"contracts/gainzilla.sol\":24676:24685  _balances */\n      0x02\n        /* \"contracts/gainzilla.sol\":24676:24693  _balances[sender] */\n      0x20\n      mstore\n      0x40\n      dup1\n      dup3\n      keccak256\n        /* \"contracts/gainzilla.sol\":24676:24725  _balances[sender] = _balances[sender].sub(amount) */\n      swap4\n      swap1\n      swap4\n      sstore\n        /* \"contracts/gainzilla.sol\":24783:24795  fees.tAmount */\n      0x80\n      dup5\n      add\n      mload\n        /* \"contracts/gainzilla.sol\":24758:24778  _balances[recipient] */\n      swap2\n      dup7\n      and\n      dup2\n      mstore\n      swap2\n      swap1\n      swap2\n      keccak256\n      sload\n        /* \"contracts/gainzilla.sol\":24758:24796  _balances[recipient].add(fees.tAmount) */\n      tag_834\n      swap2\n        /* \"contracts/gainzilla.sol\":24758:24782  _balances[recipient].add */\n      tag_540\n        /* \"contracts/gainzilla.sol\":24758:24796  _balances[recipient].add(fees.tAmount) */\n      jump\t// in\n    tag_834:\n        /* \"contracts/gainzilla.sol\":24735:24744  _balances */\n      0x02\n        /* \"contracts/gainzilla.sol\":24735:24755  _balances[recipient] */\n      0x00\n        /* \"contracts/gainzilla.sol\":24745:24754  recipient */\n      dup6\n      sub(shl(0xa0, 0x01), 0x01)\n        /* \"contracts/gainzilla.sol\":24735:24755  _balances[recipient] */\n      and\n      sub(shl(0xa0, 0x01), 0x01)\n      and\n      dup2\n      mstore\n      0x20\n      add\n      swap1\n      dup2\n      mstore\n      0x20\n      add\n      0x00\n      keccak256\n        /* \"contracts/gainzilla.sol\":24735:24796  _balances[recipient] = _balances[recipient].add(fees.tAmount) */\n      dup2\n      swap1\n      sstore\n      pop\n        /* \"contracts/gainzilla.sol\":24833:24936  _balances[address(this)].add(fees.tMarketing.add(fees.tLiquidity).add(fees.tTeam).add(fees.tEcosystem)) */\n      tag_835\n        /* \"contracts/gainzilla.sol\":24862:24935  fees.tMarketing.add(fees.tLiquidity).add(fees.tTeam).add(fees.tEcosystem) */\n      tag_836\n        /* \"contracts/gainzilla.sol\":24919:24923  fees */\n      dup3\n        /* \"contracts/gainzilla.sol\":24919:24934  fees.tEcosystem */\n      0x60\n      add\n      mload\n        /* \"contracts/gainzilla.sol\":24862:24914  fees.tMarketing.add(fees.tLiquidity).add(fees.tTeam) */\n      tag_539\n        /* \"contracts/gainzilla.sol\":24903:24907  fees */\n      dup5\n        /* \"contracts/gainzilla.sol\":24903:24913  fees.tTeam */\n      0x40\n      add\n      mload\n        /* \"contracts/gainzilla.sol\":24862:24898  fees.tMarketing.add(fees.tLiquidity) */\n      tag_539\n        /* \"contracts/gainzilla.sol\":24882:24886  fees */\n      dup7\n        /* \"contracts/gainzilla.sol\":24882:24897  fees.tLiquidity */\n      0x00\n      add\n      mload\n        /* \"contracts/gainzilla.sol\":24862:24866  fees */\n      dup8\n        /* \"contracts/gainzilla.sol\":24862:24877  fees.tMarketing */\n      0x20\n      add\n      mload\n        /* \"contracts/gainzilla.sol\":24862:24881  fees.tMarketing.add */\n      tag_540\n      swap1\n        /* \"contracts/gainzilla.sol\":24862:24898  fees.tMarketing.add(fees.tLiquidity) */\n      swap2\n      swap1\n      0xffffffff\n      and\n      jump\t// in\n        /* \"contracts/gainzilla.sol\":24862:24935  fees.tMarketing.add(fees.tLiquidity).add(fees.tTeam).add(fees.tEcosystem) */\n    tag_836:\n        /* \"contracts/gainzilla.sol\":24851:24855  this */\n      address\n        /* \"contracts/gainzilla.sol\":24833:24857  _balances[address(this)] */\n      0x00\n      swap1\n      dup2\n      mstore\n        /* \"contracts/gainzilla.sol\":24833:24842  _balances */\n      0x02\n        /* \"contracts/gainzilla.sol\":24833:24857  _balances[address(this)] */\n      0x20\n      mstore\n      0x40\n      swap1\n      keccak256\n      sload\n      swap1\n        /* \"contracts/gainzilla.sol\":24833:24861  _balances[address(this)].add */\n      tag_540\n        /* \"contracts/gainzilla.sol\":24833:24936  _balances[address(this)].add(fees.tMarketing.add(fees.tLiquidity).add(fees.tTeam).add(fees.tEcosystem)) */\n      jump\t// in\n    tag_835:\n        /* \"contracts/gainzilla.sol\":24824:24828  this */\n      address\n        /* \"contracts/gainzilla.sol\":24806:24830  _balances[address(this)] */\n      0x00\n      swap1\n      dup2\n      mstore\n        /* \"contracts/gainzilla.sol\":24806:24815  _balances */\n      0x02\n        /* \"contracts/gainzilla.sol\":24806:24830  _balances[address(this)] */\n      0x20\n      swap1\n      dup2\n      mstore\n      0x40\n      swap2\n      dup3\n      swap1\n      keccak256\n        /* \"contracts/gainzilla.sol\":24806:24936  _balances[address(this)] = _balances[address(this)].add(fees.tMarketing.add(fees.tLiquidity).add(fees.tTeam).add(fees.tEcosystem)) */\n      swap3\n      swap1\n      swap3\n      sstore\n        /* \"contracts/gainzilla.sol\":24988:25000  fees.tAmount */\n      0x80\n      dup4\n      add\n      mload\n        /* \"contracts/gainzilla.sol\":24960:25001  Transfer(sender, recipient, fees.tAmount) */\n      swap1\n      mload\n        /* \"#utility.yul\":7136:7161   */\n      swap1\n      dup2\n      mstore\n      sub(shl(0xa0, 0x01), 0x01)\n        /* \"contracts/gainzilla.sol\":24960:25001  Transfer(sender, recipient, fees.tAmount) */\n      dup6\n      dup2\n      and\n      swap3\n      swap1\n      dup8\n      and\n      swap2\n      0xddf252ad1be2c89b69c2b068fc378daa952ba7f163c4a11628f55a4df523b3ef\n      swap2\n        /* \"#utility.yul\":7109:7127   */\n      add\n        /* \"contracts/gainzilla.sol\":24960:25001  Transfer(sender, recipient, fees.tAmount) */\n      mload(0x40)\n      dup1\n      swap2\n      sub\n      swap1\n      log3\n        /* \"contracts/gainzilla.sol\":23161:25008  function _transferStandard(address sender, address recipient, uint256 amount) private {... */\n      pop\n      pop\n      pop\n      pop\n      jump\t// out\n        /* \"#utility.yul\":14:202   */\n    tag_842:\n        /* \"#utility.yul\":93:106   */\n      dup1\n      mload\n        /* \"#utility.yul\":146:176   */\n      0xffffffffffffffffffffffffffff\n        /* \"#utility.yul\":135:177   */\n      dup2\n      and\n        /* \"#utility.yul\":125:178   */\n      dup2\n      eq\n        /* \"#utility.yul\":115:117   */\n      tag_844\n      jumpi\n        /* \"#utility.yul\":192:193   */\n      0x00\n        /* \"#utility.yul\":189:190   */\n      dup1\n        /* \"#utility.yul\":182:194   */\n      revert\n        /* \"#utility.yul\":115:117   */\n    tag_844:\n        /* \"#utility.yul\":74:202   */\n      swap2\n      swap1\n      pop\n      jump\t// out\n        /* \"#utility.yul\":207:464   */\n    tag_130:\n        /* \"#utility.yul\":266:272   */\n      0x00\n        /* \"#utility.yul\":319:321   */\n      0x20\n        /* \"#utility.yul\":307:316   */\n      dup3\n        /* \"#utility.yul\":298:305   */\n      dup5\n        /* \"#utility.yul\":294:317   */\n      sub\n        /* \"#utility.yul\":290:322   */\n      slt\n        /* \"#utility.yul\":287:289   */\n      iszero\n      tag_846\n      jumpi\n        /* \"#utility.yul\":340:346   */\n      dup1\n        /* \"#utility.yul\":332:338   */\n      dup2\n        /* \"#utility.yul\":325:347   */\n      revert\n        /* \"#utility.yul\":287:289   */\n    tag_846:\n        /* \"#utility.yul\":384:393   */\n      dup2\n        /* \"#utility.yul\":371:394   */\n      calldataload\n        /* \"#utility.yul\":403:434   */\n      tag_688\n        /* \"#utility.yul\":428:433   */\n      dup2\n        /* \"#utility.yul\":403:434   */\n      tag_848\n      jump\t// in\n        /* \"#utility.yul\":469:730   */\n    tag_465:\n        /* \"#utility.yul\":539:545   */\n      0x00\n        /* \"#utility.yul\":592:594   */\n      0x20\n        /* \"#utility.yul\":580:589   */\n      dup3\n        /* \"#utility.yul\":571:578   */\n      dup5\n        /* \"#utility.yul\":567:590   */\n      sub\n        /* \"#utility.yul\":563:595   */\n      slt\n        /* \"#utility.yul\":560:562   */\n      iszero\n      tag_850\n      jumpi\n        /* \"#utility.yul\":613:619   */\n      dup1\n        /* \"#utility.yul\":605:611   */\n      dup2\n        /* \"#utility.yul\":598:620   */\n      revert\n        /* \"#utility.yul\":560:562   */\n    tag_850:\n        /* \"#utility.yul\":650:659   */\n      dup2\n        /* \"#utility.yul\":644:660   */\n      mload\n        /* \"#utility.yul\":669:700   */\n      tag_688\n        /* \"#utility.yul\":694:699   */\n      dup2\n        /* \"#utility.yul\":669:700   */\n      tag_848\n      jump\t// in\n        /* \"#utility.yul\":1005:1403   */\n    tag_290:\n        /* \"#utility.yul\":1073:1079   */\n      0x00\n        /* \"#utility.yul\":1081:1087   */\n      dup1\n        /* \"#utility.yul\":1134:1136   */\n      0x40\n        /* \"#utility.yul\":1122:1131   */\n      dup4\n        /* \"#utility.yul\":1113:1120   */\n      dup6\n        /* \"#utility.yul\":1109:1132   */\n      sub\n        /* \"#utility.yul\":1105:1137   */\n      slt\n        /* \"#utility.yul\":1102:1104   */\n      iszero\n      tag_856\n      jumpi\n        /* \"#utility.yul\":1155:1161   */\n      dup1\n        /* \"#utility.yul\":1147:1153   */\n      dup2\n        /* \"#utility.yul\":1140:1162   */\n      revert\n        /* \"#utility.yul\":1102:1104   */\n    tag_856:\n        /* \"#utility.yul\":1199:1208   */\n      dup3\n        /* \"#utility.yul\":1186:1209   */\n      calldataload\n        /* \"#utility.yul\":1218:1249   */\n      tag_857\n        /* \"#utility.yul\":1243:1248   */\n      dup2\n        /* \"#utility.yul\":1218:1249   */\n      tag_848\n      jump\t// in\n    tag_857:\n        /* \"#utility.yul\":1268:1273   */\n      swap2\n      pop\n        /* \"#utility.yul\":1325:1327   */\n      0x20\n        /* \"#utility.yul\":1310:1328   */\n      dup4\n      add\n        /* \"#utility.yul\":1297:1329   */\n      calldataload\n        /* \"#utility.yul\":1338:1371   */\n      tag_858\n        /* \"#utility.yul\":1297:1329   */\n      dup2\n        /* \"#utility.yul\":1338:1371   */\n      tag_848\n      jump\t// in\n    tag_858:\n        /* \"#utility.yul\":1390:1397   */\n      dup1\n        /* \"#utility.yul\":1380:1397   */\n      swap2\n      pop\n      pop\n        /* \"#utility.yul\":1092:1403   */\n      swap3\n      pop\n      swap3\n      swap1\n      pop\n      jump\t// out\n        /* \"#utility.yul\":1408:1874   */\n    tag_111:\n        /* \"#utility.yul\":1485:1491   */\n      0x00\n        /* \"#utility.yul\":1493:1499   */\n      dup1\n        /* \"#utility.yul\":1501:1507   */\n      0x00\n        /* \"#utility.yul\":1554:1556   */\n      0x60\n        /* \"#utility.yul\":1542:1551   */\n      dup5\n        /* \"#utility.yul\":1533:1540   */\n      dup7\n        /* \"#utility.yul\":1529:1552   */\n      sub\n        /* \"#utility.yul\":1525:1557   */\n      slt\n        /* \"#utility.yul\":1522:1524   */\n      iszero\n      tag_860\n      jumpi\n        /* \"#utility.yul\":1575:1581   */\n      dup1\n        /* \"#utility.yul\":1567:1573   */\n      dup2\n        /* \"#utility.yul\":1560:1582   */\n      revert\n        /* \"#utility.yul\":1522:1524   */\n    tag_860:\n        /* \"#utility.yul\":1619:1628   */\n      dup4\n        /* \"#utility.yul\":1606:1629   */\n      calldataload\n        /* \"#utility.yul\":1638:1669   */\n      tag_861\n        /* \"#utility.yul\":1663:1668   */\n      dup2\n        /* \"#utility.yul\":1638:1669   */\n      tag_848\n      jump\t// in\n    tag_861:\n        /* \"#utility.yul\":1688:1693   */\n      swap3\n      pop\n        /* \"#utility.yul\":1745:1747   */\n      0x20\n        /* \"#utility.yul\":1730:1748   */\n      dup5\n      add\n        /* \"#utility.yul\":1717:1749   */\n      calldataload\n        /* \"#utility.yul\":1758:1791   */\n      tag_862\n        /* \"#utility.yul\":1717:1749   */\n      dup2\n        /* \"#utility.yul\":1758:1791   */\n      tag_848\n      jump\t// in\n    tag_862:\n        /* \"#utility.yul\":1512:1874   */\n      swap3\n      swap6\n        /* \"#utility.yul\":1810:1817   */\n      swap3\n      swap5\n      pop\n      pop\n      pop\n        /* \"#utility.yul\":1864:1866   */\n      0x40\n        /* \"#utility.yul\":1849:1867   */\n      swap2\n      swap1\n      swap2\n      add\n        /* \"#utility.yul\":1836:1868   */\n      calldataload\n      swap1\n        /* \"#utility.yul\":1512:1874   */\n      jump\t// out\n        /* \"#utility.yul\":1879:2204   */\n    tag_91:\n        /* \"#utility.yul\":1947:1953   */\n      0x00\n        /* \"#utility.yul\":1955:1961   */\n      dup1\n        /* \"#utility.yul\":2008:2010   */\n      0x40\n        /* \"#utility.yul\":1996:2005   */\n      dup4\n        /* \"#utility.yul\":1987:1994   */\n      dup6\n        /* \"#utility.yul\":1983:2006   */\n      sub\n        /* \"#utility.yul\":1979:2011   */\n      slt\n        /* \"#utility.yul\":1976:1978   */\n      iszero\n      tag_864\n      jumpi\n        /* \"#utility.yul\":2029:2035   */\n      dup2\n        /* \"#utility.yul\":2021:2027   */\n      dup3\n        /* \"#utility.yul\":2014:2036   */\n      revert\n        /* \"#utility.yul\":1976:1978   */\n    tag_864:\n        /* \"#utility.yul\":2073:2082   */\n      dup3\n        /* \"#utility.yul\":2060:2083   */\n      calldataload\n        /* \"#utility.yul\":2092:2123   */\n      tag_865\n        /* \"#utility.yul\":2117:2122   */\n      dup2\n        /* \"#utility.yul\":2092:2123   */\n      tag_848\n      jump\t// in\n    tag_865:\n        /* \"#utility.yul\":2142:2147   */\n      swap5\n        /* \"#utility.yul\":2194:2196   */\n      0x20\n        /* \"#utility.yul\":2179:2197   */\n      swap4\n      swap1\n      swap4\n      add\n        /* \"#utility.yul\":2166:2198   */\n      calldataload\n      swap4\n      pop\n      pop\n      pop\n        /* \"#utility.yul\":1966:2204   */\n      jump\t// out\n        /* \"#utility.yul\":2209:2464   */\n    tag_384:\n        /* \"#utility.yul\":2276:2282   */\n      0x00\n        /* \"#utility.yul\":2329:2331   */\n      0x20\n        /* \"#utility.yul\":2317:2326   */\n      dup3\n        /* \"#utility.yul\":2308:2315   */\n      dup5\n        /* \"#utility.yul\":2304:2327   */\n      sub\n        /* \"#utility.yul\":2300:2332   */\n      slt\n        /* \"#utility.yul\":2297:2299   */\n      iszero\n      tag_867\n      jumpi\n        /* \"#utility.yul\":2350:2356   */\n      dup1\n        /* \"#utility.yul\":2342:2348   */\n      dup2\n        /* \"#utility.yul\":2335:2357   */\n      revert\n        /* \"#utility.yul\":2297:2299   */\n    tag_867:\n        /* \"#utility.yul\":2387:2396   */\n      dup2\n        /* \"#utility.yul\":2381:2397   */\n      mload\n        /* \"#utility.yul\":2406:2434   */\n      tag_688\n        /* \"#utility.yul\":2428:2433   */\n      dup2\n        /* \"#utility.yul\":2406:2434   */\n      tag_869\n      jump\t// in\n        /* \"#utility.yul\":2469:2898   */\n    tag_317:\n        /* \"#utility.yul\":2533:2539   */\n      0x00\n        /* \"#utility.yul\":2541:2547   */\n      dup1\n        /* \"#utility.yul\":2594:2596   */\n      0x40\n        /* \"#utility.yul\":2582:2591   */\n      dup4\n        /* \"#utility.yul\":2573:2580   */\n      dup6\n        /* \"#utility.yul\":2569:2592   */\n      sub\n        /* \"#utility.yul\":2565:2597   */\n      slt\n        /* \"#utility.yul\":2562:2564   */\n      iszero\n      tag_871\n      jumpi\n        /* \"#utility.yul\":2615:2621   */\n      dup2\n        /* \"#utility.yul\":2607:2613   */\n      dup3\n        /* \"#utility.yul\":2600:2622   */\n      revert\n        /* \"#utility.yul\":2562:2564   */\n    tag_871:\n        /* \"#utility.yul\":2659:2668   */\n      dup3\n        /* \"#utility.yul\":2646:2669   */\n      calldataload\n        /* \"#utility.yul\":2678:2706   */\n      tag_872\n        /* \"#utility.yul\":2700:2705   */\n      dup2\n        /* \"#utility.yul\":2678:2706   */\n      tag_869\n      jump\t// in\n    tag_872:\n        /* \"#utility.yul\":2725:2730   */\n      swap2\n      pop\n        /* \"#utility.yul\":2782:2784   */\n      0x20\n        /* \"#utility.yul\":2767:2785   */\n      dup4\n      add\n        /* \"#utility.yul\":2754:2786   */\n      calldataload\n        /* \"#utility.yul\":2830:2836   */\n      0xffff\n        /* \"#utility.yul\":2817:2837   */\n      dup2\n      and\n        /* \"#utility.yul\":2805:2838   */\n      dup2\n      eq\n        /* \"#utility.yul\":2795:2797   */\n      tag_858\n      jumpi\n        /* \"#utility.yul\":2857:2863   */\n      dup2\n        /* \"#utility.yul\":2849:2855   */\n      dup3\n        /* \"#utility.yul\":2842:2864   */\n      revert\n        /* \"#utility.yul\":2903:3293   */\n    tag_191:\n        /* \"#utility.yul\":2967:2973   */\n      0x00\n        /* \"#utility.yul\":2975:2981   */\n      dup1\n        /* \"#utility.yul\":3028:3030   */\n      0x40\n        /* \"#utility.yul\":3016:3025   */\n      dup4\n        /* \"#utility.yul\":3007:3014   */\n      dup6\n        /* \"#utility.yul\":3003:3026   */\n      sub\n        /* \"#utility.yul\":2999:3031   */\n      slt\n        /* \"#utility.yul\":2996:2998   */\n      iszero\n      tag_875\n      jumpi\n        /* \"#utility.yul\":3049:3055   */\n      dup2\n        /* \"#utility.yul\":3041:3047   */\n      dup3\n        /* \"#utility.yul\":3034:3056   */\n      revert\n        /* \"#utility.yul\":2996:2998   */\n    tag_875:\n        /* \"#utility.yul\":3093:3102   */\n      dup3\n        /* \"#utility.yul\":3080:3103   */\n      calldataload\n        /* \"#utility.yul\":3112:3140   */\n      tag_876\n        /* \"#utility.yul\":3134:3139   */\n      dup2\n        /* \"#utility.yul\":3112:3140   */\n      tag_869\n      jump\t// in\n    tag_876:\n        /* \"#utility.yul\":3159:3164   */\n      swap2\n      pop\n        /* \"#utility.yul\":3216:3218   */\n      0x20\n        /* \"#utility.yul\":3201:3219   */\n      dup4\n      add\n        /* \"#utility.yul\":3188:3220   */\n      calldataload\n        /* \"#utility.yul\":3229:3261   */\n      tag_858\n        /* \"#utility.yul\":3188:3220   */\n      dup2\n        /* \"#utility.yul\":3229:3261   */\n      tag_878\n      jump\t// in\n        /* \"#utility.yul\":3298:3727   */\n    tag_458:\n        /* \"#utility.yul\":3385:3391   */\n      0x00\n        /* \"#utility.yul\":3393:3399   */\n      dup1\n        /* \"#utility.yul\":3401:3407   */\n      0x00\n        /* \"#utility.yul\":3454:3456   */\n      0x60\n        /* \"#utility.yul\":3442:3451   */\n      dup5\n        /* \"#utility.yul\":3433:3440   */\n      dup7\n        /* \"#utility.yul\":3429:3452   */\n      sub\n        /* \"#utility.yul\":3425:3457   */\n      slt\n        /* \"#utility.yul\":3422:3424   */\n      iszero\n      tag_880\n      jumpi\n        /* \"#utility.yul\":3475:3481   */\n      dup3\n        /* \"#utility.yul\":3467:3473   */\n      dup4\n        /* \"#utility.yul\":3460:3482   */\n      revert\n        /* \"#utility.yul\":3422:3424   */\n    tag_880:\n        /* \"#utility.yul\":3503:3543   */\n      tag_881\n        /* \"#utility.yul\":3533:3542   */\n      dup5\n        /* \"#utility.yul\":3503:3543   */\n      tag_842\n      jump\t// in\n    tag_881:\n        /* \"#utility.yul\":3493:3543   */\n      swap3\n      pop\n        /* \"#utility.yul\":3562:3611   */\n      tag_882\n        /* \"#utility.yul\":3607:3609   */\n      0x20\n        /* \"#utility.yul\":3596:3605   */\n      dup6\n        /* \"#utility.yul\":3592:3610   */\n      add\n        /* \"#utility.yul\":3562:3611   */\n      tag_842\n      jump\t// in\n    tag_882:\n        /* \"#utility.yul\":3552:3611   */\n      swap2\n      pop\n        /* \"#utility.yul\":3654:3656   */\n      0x40\n        /* \"#utility.yul\":3643:3652   */\n      dup5\n        /* \"#utility.yul\":3639:3657   */\n      add\n        /* \"#utility.yul\":3633:3658   */\n      mload\n        /* \"#utility.yul\":3667:3697   */\n      tag_883\n        /* \"#utility.yul\":3691:3696   */\n      dup2\n        /* \"#utility.yul\":3667:3697   */\n      tag_878\n      jump\t// in\n    tag_883:\n        /* \"#utility.yul\":3716:3721   */\n      dup1\n        /* \"#utility.yul\":3706:3721   */\n      swap2\n      pop\n      pop\n        /* \"#utility.yul\":3412:3727   */\n      swap3\n      pop\n      swap3\n      pop\n      swap3\n      jump\t// out\n        /* \"#utility.yul\":3732:3922   */\n    tag_121:\n        /* \"#utility.yul\":3791:3797   */\n      0x00\n        /* \"#utility.yul\":3844:3846   */\n      0x20\n        /* \"#utility.yul\":3832:3841   */\n      dup3\n        /* \"#utility.yul\":3823:3830   */\n      dup5\n        /* \"#utility.yul\":3819:3842   */\n      sub\n        /* \"#utility.yul\":3815:3847   */\n      slt\n        /* \"#utility.yul\":3812:3814   */\n      iszero\n      tag_885\n      jumpi\n        /* \"#utility.yul\":3865:3871   */\n      dup1\n        /* \"#utility.yul\":3857:3863   */\n      dup2\n        /* \"#utility.yul\":3850:3872   */\n      revert\n        /* \"#utility.yul\":3812:3814   */\n    tag_885:\n      pop\n        /* \"#utility.yul\":3893:3916   */\n      calldataload\n      swap2\n        /* \"#utility.yul\":3802:3922   */\n      swap1\n      pop\n      jump\t// out\n        /* \"#utility.yul\":3927:4121   */\n    tag_376:\n        /* \"#utility.yul\":3997:4003   */\n      0x00\n        /* \"#utility.yul\":4050:4052   */\n      0x20\n        /* \"#utility.yul\":4038:4047   */\n      dup3\n        /* \"#utility.yul\":4029:4036   */\n      dup5\n        /* \"#utility.yul\":4025:4048   */\n      sub\n        /* \"#utility.yul\":4021:4053   */\n      slt\n        /* \"#utility.yul\":4018:4020   */\n      iszero\n      tag_887\n      jumpi\n        /* \"#utility.yul\":4071:4077   */\n      dup1\n        /* \"#utility.yul\":4063:4069   */\n      dup2\n        /* \"#utility.yul\":4056:4078   */\n      revert\n        /* \"#utility.yul\":4018:4020   */\n    tag_887:\n      pop\n        /* \"#utility.yul\":4099:4115   */\n      mload\n      swap2\n        /* \"#utility.yul\":4008:4121   */\n      swap1\n      pop\n      jump\t// out\n        /* \"#utility.yul\":4126:4442   */\n    tag_786:\n        /* \"#utility.yul\":4214:4220   */\n      0x00\n        /* \"#utility.yul\":4222:4228   */\n      dup1\n        /* \"#utility.yul\":4230:4236   */\n      0x00\n        /* \"#utility.yul\":4283:4285   */\n      0x60\n        /* \"#utility.yul\":4271:4280   */\n      dup5\n        /* \"#utility.yul\":4262:4269   */\n      dup7\n        /* \"#utility.yul\":4258:4281   */\n      sub\n        /* \"#utility.yul\":4254:4286   */\n      slt\n        /* \"#utility.yul\":4251:4253   */\n      iszero\n      tag_889\n      jumpi\n        /* \"#utility.yul\":4304:4310   */\n      dup3\n        /* \"#utility.yul\":4296:4302   */\n      dup4\n        /* \"#utility.yul\":4289:4311   */\n      revert\n        /* \"#utility.yul\":4251:4253   */\n    tag_889:\n        /* \"#utility.yul\":4338:4347   */\n      dup4\n        /* \"#utility.yul\":4332:4348   */\n      mload\n        /* \"#utility.yul\":4322:4348   */\n      swap3\n      pop\n        /* \"#utility.yul\":4388:4390   */\n      0x20\n        /* \"#utility.yul\":4377:4386   */\n      dup5\n        /* \"#utility.yul\":4373:4391   */\n      add\n        /* \"#utility.yul\":4367:4392   */\n      mload\n        /* \"#utility.yul\":4357:4392   */\n      swap2\n      pop\n        /* \"#utility.yul\":4432:4434   */\n      0x40\n        /* \"#utility.yul\":4421:4430   */\n      dup5\n        /* \"#utility.yul\":4417:4435   */\n      add\n        /* \"#utility.yul\":4411:4436   */\n      mload\n        /* \"#utility.yul\":4401:4436   */\n      swap1\n      pop\n        /* \"#utility.yul\":4241:4442   */\n      swap3\n      pop\n      swap3\n      pop\n      swap3\n      jump\t// out\n        /* \"#utility.yul\":4447:4842   */\n    tag_300:\n        /* \"#utility.yul\":4533:4539   */\n      0x00\n        /* \"#utility.yul\":4541:4547   */\n      dup1\n        /* \"#utility.yul\":4549:4555   */\n      0x00\n        /* \"#utility.yul\":4557:4563   */\n      dup1\n        /* \"#utility.yul\":4610:4613   */\n      0x80\n        /* \"#utility.yul\":4598:4607   */\n      dup6\n        /* \"#utility.yul\":4589:4596   */\n      dup8\n        /* \"#utility.yul\":4585:4608   */\n      sub\n        /* \"#utility.yul\":4581:4614   */\n      slt\n        /* \"#utility.yul\":4578:4580   */\n      iszero\n      tag_891\n      jumpi\n        /* \"#utility.yul\":4632:4638   */\n      dup2\n        /* \"#utility.yul\":4624:4630   */\n      dup3\n        /* \"#utility.yul\":4617:4639   */\n      revert\n        /* \"#utility.yul\":4578:4580   */\n    tag_891:\n      pop\n      pop\n        /* \"#utility.yul\":4660:4683   */\n      dup3\n      calldataload\n      swap5\n        /* \"#utility.yul\":4730:4732   */\n      0x20\n        /* \"#utility.yul\":4715:4733   */\n      dup5\n      add\n        /* \"#utility.yul\":4702:4734   */\n      calldataload\n      swap5\n      pop\n        /* \"#utility.yul\":4781:4783   */\n      0x40\n        /* \"#utility.yul\":4766:4784   */\n      dup5\n      add\n        /* \"#utility.yul\":4753:4785   */\n      calldataload\n      swap4\n        /* \"#utility.yul\":4832:4834   */\n      0x60\n        /* \"#utility.yul\":4817:4835   */\n      add\n        /* \"#utility.yul\":4804:4836   */\n      calldataload\n      swap3\n      pop\n        /* \"#utility.yul\":4568:4842   */\n      swap1\n      pop\n      jump\t// out\n        /* \"#utility.yul\":7172:7834   */\n    tag_87:\n        /* \"#utility.yul\":7284:7288   */\n      0x00\n        /* \"#utility.yul\":7313:7315   */\n      0x20\n        /* \"#utility.yul\":7342:7344   */\n      dup1\n        /* \"#utility.yul\":7331:7340   */\n      dup4\n        /* \"#utility.yul\":7324:7345   */\n      mstore\n        /* \"#utility.yul\":7374:7380   */\n      dup4\n        /* \"#utility.yul\":7368:7381   */\n      mload\n        /* \"#utility.yul\":7417:7423   */\n      dup1\n        /* \"#utility.yul\":7412:7414   */\n      dup3\n        /* \"#utility.yul\":7401:7410   */\n      dup6\n        /* \"#utility.yul\":7397:7415   */\n      add\n        /* \"#utility.yul\":7390:7424   */\n      mstore\n        /* \"#utility.yul\":7442:7446   */\n      dup3\n        /* \"#utility.yul\":7455:7595   */\n    tag_900:\n        /* \"#utility.yul\":7469:7475   */\n      dup2\n        /* \"#utility.yul\":7466:7467   */\n      dup2\n        /* \"#utility.yul\":7463:7476   */\n      lt\n        /* \"#utility.yul\":7455:7595   */\n      iszero\n      tag_902\n      jumpi\n        /* \"#utility.yul\":7564:7578   */\n      dup6\n      dup2\n      add\n        /* \"#utility.yul\":7560:7583   */\n      dup4\n      add\n        /* \"#utility.yul\":7554:7584   */\n      mload\n        /* \"#utility.yul\":7530:7547   */\n      dup6\n      dup3\n      add\n        /* \"#utility.yul\":7549:7551   */\n      0x40\n        /* \"#utility.yul\":7526:7552   */\n      add\n        /* \"#utility.yul\":7519:7585   */\n      mstore\n        /* \"#utility.yul\":7484:7494   */\n      dup3\n      add\n        /* \"#utility.yul\":7455:7595   */\n      jump(tag_900)\n    tag_902:\n        /* \"#utility.yul\":7613:7619   */\n      dup2\n        /* \"#utility.yul\":7610:7611   */\n      dup2\n        /* \"#utility.yul\":7607:7620   */\n      gt\n        /* \"#utility.yul\":7604:7606   */\n      iszero\n      tag_903\n      jumpi\n        /* \"#utility.yul\":7683:7687   */\n      dup4\n        /* \"#utility.yul\":7678:7680   */\n      0x40\n        /* \"#utility.yul\":7669:7675   */\n      dup4\n        /* \"#utility.yul\":7658:7667   */\n      dup8\n        /* \"#utility.yul\":7654:7676   */\n      add\n        /* \"#utility.yul\":7650:7681   */\n      add\n        /* \"#utility.yul\":7643:7688   */\n      mstore\n        /* \"#utility.yul\":7604:7606   */\n    tag_903:\n      pop\n        /* \"#utility.yul\":7750:7752   */\n      0x1f\n        /* \"#utility.yul\":7738:7753   */\n      add\n        /* \"#utility.yul\":7755:7821   */\n      0xffffffffffffffffffffffffffffffffffffffffffffffffffffffffffffffe0\n        /* \"#utility.yul\":7734:7822   */\n      and\n        /* \"#utility.yul\":7719:7823   */\n      swap3\n      swap1\n      swap3\n      add\n        /* \"#utility.yul\":7825:7827   */\n      0x40\n        /* \"#utility.yul\":7715:7828   */\n      add\n      swap4\n        /* \"#utility.yul\":7293:7834   */\n      swap3\n      pop\n      pop\n      pop\n      jump\t// out\n        /* \"#utility.yul\":16311:17340   */\n    tag_713:\n        /* \"#utility.yul\":16573:16577   */\n      0x00\n        /* \"#utility.yul\":16621:16624   */\n      0xa0\n        /* \"#utility.yul\":16610:16619   */\n      dup3\n        /* \"#utility.yul\":16606:16625   */\n      add\n        /* \"#utility.yul\":16652:16658   */\n      dup8\n        /* \"#utility.yul\":16641:16650   */\n      dup4\n        /* \"#utility.yul\":16634:16659   */\n      mstore\n        /* \"#utility.yul\":16678:16680   */\n      0x20\n        /* \"#utility.yul\":16716:16722   */\n      dup8\n        /* \"#utility.yul\":16711:16713   */\n      dup2\n        /* \"#utility.yul\":16700:16709   */\n      dup6\n        /* \"#utility.yul\":16696:16714   */\n      add\n        /* \"#utility.yul\":16689:16723   */\n      mstore\n        /* \"#utility.yul\":16759:16762   */\n      0xa0\n        /* \"#utility.yul\":16754:16756   */\n      0x40\n        /* \"#utility.yul\":16743:16752   */\n      dup6\n        /* \"#utility.yul\":16739:16757   */\n      add\n        /* \"#utility.yul\":16732:16763   */\n      mstore\n        /* \"#utility.yul\":16783:16789   */\n      dup2\n        /* \"#utility.yul\":16818:16824   */\n      dup8\n        /* \"#utility.yul\":16812:16825   */\n      mload\n        /* \"#utility.yul\":16849:16855   */\n      dup1\n        /* \"#utility.yul\":16841:16847   */\n      dup5\n        /* \"#utility.yul\":16834:16856   */\n      mstore\n        /* \"#utility.yul\":16887:16890   */\n      0xc0\n        /* \"#utility.yul\":16876:16885   */\n      dup7\n        /* \"#utility.yul\":16872:16891   */\n      add\n        /* \"#utility.yul\":16865:16891   */\n      swap2\n      pop\n        /* \"#utility.yul\":16926:16928   */\n      dup3\n        /* \"#utility.yul\":16918:16924   */\n      dup10\n        /* \"#utility.yul\":16914:16929   */\n      add\n        /* \"#utility.yul\":16900:16929   */\n      swap4\n      pop\n        /* \"#utility.yul\":16947:16951   */\n      dup5\n        /* \"#utility.yul\":16960:17178   */\n    tag_927:\n        /* \"#utility.yul\":16974:16980   */\n      dup2\n        /* \"#utility.yul\":16971:16972   */\n      dup2\n        /* \"#utility.yul\":16968:16981   */\n      lt\n        /* \"#utility.yul\":16960:17178   */\n      iszero\n      tag_929\n      jumpi\n        /* \"#utility.yul\":17039:17052   */\n      dup5\n      mload\n      sub(shl(0xa0, 0x01), 0x01)\n        /* \"#utility.yul\":17035:17097   */\n      and\n        /* \"#utility.yul\":17023:17098   */\n      dup4\n      mstore\n        /* \"#utility.yul\":17153:17168   */\n      swap4\n      dup4\n      add\n      swap4\n        /* \"#utility.yul\":17118:17130   */\n      swap2\n      dup4\n      add\n      swap2\n        /* \"#utility.yul\":16996:16997   */\n      0x01\n        /* \"#utility.yul\":16989:16998   */\n      add\n        /* \"#utility.yul\":16960:17178   */\n      jump(tag_927)\n    tag_929:\n      pop\n      pop\n      sub(shl(0xa0, 0x01), 0x01)\n        /* \"#utility.yul\":17234:17289   */\n      swap7\n      swap1\n      swap7\n      and\n        /* \"#utility.yul\":17229:17231   */\n      0x60\n        /* \"#utility.yul\":17214:17232   */\n      dup6\n      add\n        /* \"#utility.yul\":17207:17290   */\n      mstore\n      pop\n      pop\n      pop\n        /* \"#utility.yul\":17321:17324   */\n      0x80\n        /* \"#utility.yul\":17306:17325   */\n      add\n        /* \"#utility.yul\":17299:17334   */\n      mstore\n        /* \"#utility.yul\":17195:17198   */\n      swap4\n        /* \"#utility.yul\":16582:17340   */\n      swap3\n      pop\n      pop\n      pop\n      jump\t// out\n        /* \"#utility.yul\":17930:18058   */\n    tag_645:\n        /* \"#utility.yul\":17970:17973   */\n      0x00\n        /* \"#utility.yul\":18001:18002   */\n      dup3\n        /* \"#utility.yul\":17997:18003   */\n      not\n        /* \"#utility.yul\":17994:17995   */\n      dup3\n        /* \"#utility.yul\":17991:18004   */\n      gt\n        /* \"#utility.yul\":17988:17990   */\n      iszero\n      tag_934\n      jumpi\n        /* \"#utility.yul\":18007:18025   */\n      tag_934\n      tag_935\n      jump\t// in\n    tag_934:\n      pop\n        /* \"#utility.yul\":18043:18052   */\n      add\n      swap1\n        /* \"#utility.yul\":17978:18058   */\n      jump\t// out\n        /* \"#utility.yul\":18063:18183   */\n    tag_697:\n        /* \"#utility.yul\":18103:18104   */\n      0x00\n        /* \"#utility.yul\":18129:18130   */\n      dup3\n        /* \"#utility.yul\":18119:18121   */\n      tag_938\n      jumpi\n        /* \"#utility.yul\":18134:18152   */\n      tag_938\n      tag_939\n      jump\t// in\n    tag_938:\n      pop\n        /* \"#utility.yul\":18168:18177   */\n      div\n      swap1\n        /* \"#utility.yul\":18109:18183   */\n      jump\t// out\n        /* \"#utility.yul\":18188:18416   */\n    tag_695:\n        /* \"#utility.yul\":18228:18235   */\n      0x00\n        /* \"#utility.yul\":18354:18355   */\n      dup2\n        /* \"#utility.yul\":18286:18352   */\n      0xffffffffffffffffffffffffffffffffffffffffffffffffffffffffffffffff\n        /* \"#utility.yul\":18282:18356   */\n      div\n        /* \"#utility.yul\":18279:18280   */\n      dup4\n        /* \"#utility.yul\":18276:18357   */\n      gt\n        /* \"#utility.yul\":18271:18272   */\n      dup3\n        /* \"#utility.yul\":18264:18273   */\n      iszero\n        /* \"#utility.yul\":18257:18274   */\n      iszero\n        /* \"#utility.yul\":18253:18358   */\n      and\n        /* \"#utility.yul\":18250:18252   */\n      iszero\n      tag_942\n      jumpi\n        /* \"#utility.yul\":18361:18379   */\n      tag_942\n      tag_935\n      jump\t// in\n    tag_942:\n      pop\n        /* \"#utility.yul\":18401:18410   */\n      mul\n      swap1\n        /* \"#utility.yul\":18240:18416   */\n      jump\t// out\n        /* \"#utility.yul\":18421:18683   */\n    tag_431:\n        /* \"#utility.yul\":18460:18467   */\n      0x00\n        /* \"#utility.yul\":18492:18502   */\n      0xffffffff\n        /* \"#utility.yul\":18529:18531   */\n      dup1\n        /* \"#utility.yul\":18526:18527   */\n      dup4\n        /* \"#utility.yul\":18522:18532   */\n      and\n        /* \"#utility.yul\":18559:18561   */\n      dup2\n        /* \"#utility.yul\":18556:18557   */\n      dup6\n        /* \"#utility.yul\":18552:18562   */\n      and\n        /* \"#utility.yul\":18615:18618   */\n      dup2\n        /* \"#utility.yul\":18611:18613   */\n      dup4\n        /* \"#utility.yul\":18607:18619   */\n      div\n        /* \"#utility.yul\":18602:18605   */\n      dup2\n        /* \"#utility.yul\":18599:18620   */\n      gt\n        /* \"#utility.yul\":18592:18595   */\n      dup3\n        /* \"#utility.yul\":18585:18596   */\n      iszero\n        /* \"#utility.yul\":18578:18597   */\n      iszero\n        /* \"#utility.yul\":18574:18621   */\n      and\n        /* \"#utility.yul\":18571:18573   */\n      iszero\n      tag_945\n      jumpi\n        /* \"#utility.yul\":18624:18642   */\n      tag_945\n      tag_935\n      jump\t// in\n    tag_945:\n        /* \"#utility.yul\":18664:18677   */\n      mul\n      swap5\n        /* \"#utility.yul\":18472:18683   */\n      swap4\n      pop\n      pop\n      pop\n      pop\n      jump\t// out\n        /* \"#utility.yul\":18688:18813   */\n    tag_686:\n        /* \"#utility.yul\":18728:18732   */\n      0x00\n        /* \"#utility.yul\":18756:18757   */\n      dup3\n        /* \"#utility.yul\":18753:18754   */\n      dup3\n        /* \"#utility.yul\":18750:18758   */\n      lt\n        /* \"#utility.yul\":18747:18749   */\n      iszero\n      tag_948\n      jumpi\n        /* \"#utility.yul\":18761:18779   */\n      tag_948\n      tag_935\n      jump\t// in\n    tag_948:\n      pop\n        /* \"#utility.yul\":18798:18807   */\n      sub\n      swap1\n        /* \"#utility.yul\":18737:18813   */\n      jump\t// out\n        /* \"#utility.yul\":18818:18930   */\n    tag_484:\n        /* \"#utility.yul\":18850:18851   */\n      0x00\n        /* \"#utility.yul\":18876:18877   */\n      dup3\n        /* \"#utility.yul\":18866:18868   */\n      tag_951\n      jumpi\n        /* \"#utility.yul\":18881:18899   */\n      tag_951\n      tag_939\n      jump\t// in\n    tag_951:\n      pop\n        /* \"#utility.yul\":18915:18924   */\n      mod\n      swap1\n        /* \"#utility.yul\":18856:18930   */\n      jump\t// out\n        /* \"#utility.yul\":18935:19128   */\n    tag_442:\n        /* \"#utility.yul\":18970:18973   */\n      0x00\n        /* \"#utility.yul\":19001:19067   */\n      0x8000000000000000000000000000000000000000000000000000000000000000\n        /* \"#utility.yul\":18994:18999   */\n      dup3\n        /* \"#utility.yul\":18991:19068   */\n      eq\n        /* \"#utility.yul\":18988:18990   */\n      iszero\n      tag_954\n      jumpi\n        /* \"#utility.yul\":19071:19089   */\n      tag_954\n      tag_935\n      jump\t// in\n    tag_954:\n        /* \"#utility.yul\":19107:19122   */\n      sub\n      swap1\n        /* \"#utility.yul\":18978:19128   */\n      jump\t// out\n        /* \"#utility.yul\":19133:19317   */\n    tag_935:\n        /* \"#utility.yul\":19185:19262   */\n      0x4e487b7100000000000000000000000000000000000000000000000000000000\n        /* \"#utility.yul\":19182:19183   */\n      0x00\n        /* \"#utility.yul\":19175:19263   */\n      mstore\n        /* \"#utility.yul\":19282:19286   */\n      0x11\n        /* \"#utility.yul\":19279:19280   */\n      0x04\n        /* \"#utility.yul\":19272:19287   */\n      mstore\n        /* \"#utility.yul\":19306:19310   */\n      0x24\n        /* \"#utility.yul\":19303:19304   */\n      0x00\n        /* \"#utility.yul\":19296:19311   */\n      revert\n        /* \"#utility.yul\":19322:19506   */\n    tag_939:\n        /* \"#utility.yul\":19374:19451   */\n      0x4e487b7100000000000000000000000000000000000000000000000000000000\n        /* \"#utility.yul\":19371:19372   */\n      0x00\n        /* \"#utility.yul\":19364:19452   */\n      mstore\n        /* \"#utility.yul\":19471:19475   */\n      0x12\n        /* \"#utility.yul\":19468:19469   */\n      0x04\n        /* \"#utility.yul\":19461:19476   */\n      mstore\n        /* \"#utility.yul\":19495:19499   */\n      0x24\n        /* \"#utility.yul\":19492:19493   */\n      0x00\n        /* \"#utility.yul\":19485:19500   */\n      revert\n        /* \"#utility.yul\":19511:19665   */\n    tag_848:\n      sub(shl(0xa0, 0x01), 0x01)\n        /* \"#utility.yul\":19590:19595   */\n      dup2\n        /* \"#utility.yul\":19586:19640   */\n      and\n        /* \"#utility.yul\":19579:19584   */\n      dup2\n        /* \"#utility.yul\":19576:19641   */\n      eq\n        /* \"#utility.yul\":19566:19568   */\n      tag_415\n      jumpi\n        /* \"#utility.yul\":19655:19656   */\n      0x00\n        /* \"#utility.yul\":19652:19653   */\n      dup1\n        /* \"#utility.yul\":19645:19657   */\n      revert\n        /* \"#utility.yul\":19670:19788   */\n    tag_869:\n        /* \"#utility.yul\":19756:19761   */\n      dup1\n        /* \"#utility.yul\":19749:19762   */\n      iszero\n        /* \"#utility.yul\":19742:19763   */\n      iszero\n        /* \"#utility.yul\":19735:19740   */\n      dup2\n        /* \"#utility.yul\":19732:19764   */\n      eq\n        /* \"#utility.yul\":19722:19724   */\n      tag_415\n      jumpi\n        /* \"#utility.yul\":19778:19779   */\n      0x00\n        /* \"#utility.yul\":19775:19776   */\n      dup1\n        /* \"#utility.yul\":19768:19780   */\n      revert\n        /* \"#utility.yul\":19793:19914   */\n    tag_878:\n        /* \"#utility.yul\":19878:19888   */\n      0xffffffff\n        /* \"#utility.yul\":19871:19876   */\n      dup2\n        /* \"#utility.yul\":19867:19889   */\n      and\n        /* \"#utility.yul\":19860:19865   */\n      dup2\n        /* \"#utility.yul\":19857:19890   */\n      eq\n        /* \"#utility.yul\":19847:19849   */\n      tag_415\n      jumpi\n        /* \"#utility.yul\":19904:19905   */\n      0x00\n        /* \"#utility.yul\":19901:19902   */\n      dup1\n        /* \"#utility.yul\":19894:19906   */\n      revert\n    stop\n    data_974d1b4421da69cc60b481194f0dad36a5bb4e23da810da7a7fb30cdba178330 45524332303a207472616e7366657220616d6f756e74206578636565647320616c6c6f77616e6365\n\n    auxdata: 0xa2646970667358221220d445ba2fdba51cb8d3ee4bed2cedb6e9cd1b69c0317a471ad158af8fc12f109b64736f6c63430008040033\n}\n",
				"bytecode": {
					"linkReferences": {},
					"object": "6080604052662386f2ab5bca0060075566038d7ea4c680006008556000600955600954600a556000600b55600b54600c556000600d55600d54600e556000600f55600f5460105560006011556011546012556000601355601354601455600060155560155460165560006017556017546018556000601955620000876200041d60201b60201c565b602180546001600160a01b03199081166001600160a01b039384161790915560005460228054919093169082168117909255602380548216831790556024805490911690911790556028805464ffffffffff1916640101010000179055348015620000f157600080fd5b50600080546001600160a01b031916339081178255604051909182917f8be0079c531659141344cd1fd0a4f28419497f9722a3daafe3b4186f6b6457e0908290a350602580546001600160a01b0319167310ed43c718714eb63d5aa57b78b54704e256024e908117909155620001713082670de0b6b3a76400006200042c565b806001600160a01b031663c45a01556040518163ffffffff1660e01b815260040160206040518083038186803b158015620001ab57600080fd5b505afa158015620001c0573d6000803e3d6000fd5b505050506040513d601f19601f82011682018060405250810190620001e6919062000558565b6001600160a01b031663c9c6539630836001600160a01b031663ad5c46486040518163ffffffff1660e01b815260040160206040518083038186803b1580156200022f57600080fd5b505afa15801562000244573d6000803e3d6000fd5b505050506040513d601f19601f820116820180604052508101906200026a919062000558565b6040516001600160e01b031960e085901b1681526001600160a01b03928316600482015291166024820152604401602060405180830381600087803b158015620002b357600080fd5b505af1158015620002c8573d6000803e3d6000fd5b505050506040513d601f19601f82011682018060405250810190620002ee919062000558565b602680546001600160a01b0319166001600160a01b0392831690811790915560255460405163095ea7b360e01b81529216600483015260001960248301529063095ea7b390604401602060405180830381600087803b1580156200035157600080fd5b505af115801562000366573d6000803e3d6000fd5b505050506040513d601f19601f820116820180604052508101906200038c919062000588565b50670de0b6b3a7640000602781905533600081815260026020908152604080832085905582546001600160a01b03168352600482528083208054600160ff1991821681179092553085528285208054909116909117905551938452919290917fddf252ad1be2c89b69c2b068fc378daa952ba7f163c4a11628f55a4df523b3ef910160405180910390a350620005aa565b6000546001600160a01b031690565b6001600160a01b038316620004945760405162461bcd60e51b8152602060048201526024808201527f45524332303a20617070726f76652066726f6d20746865207a65726f206164646044820152637265737360e01b60648201526084015b60405180910390fd5b6001600160a01b038216620004f75760405162461bcd60e51b815260206004820152602260248201527f45524332303a20617070726f766520746f20746865207a65726f206164647265604482015261737360f01b60648201526084016200048b565b6001600160a01b0383811660008181526003602090815260408083209487168084529482529182902085905590518481527f8c5be1e5ebec7d5bd14f71427d1e84f3dd0314c0f7b2291e5b200ac8c7c3b925910160405180910390a3505050565b6000602082840312156200056a578081fd5b81516001600160a01b038116811462000581578182fd5b9392505050565b6000602082840312156200059a578081fd5b8151801515811462000581578182fd5b613c8980620005ba6000396000f3fe6080604052600436106103855760003560e01c806388790a68116101d1578063cab0347111610102578063e315a6da116100a0578063f480fec21161006f578063f480fec214610adb578063fe0bb98214610afb578063ffb54a9914610b1b578063ffecf51614610b3557600080fd5b8063e315a6da14610a5b578063e4bf1bed14610a7b578063ea2f0b3714610a9b578063f2fde38b14610abb57600080fd5b8063d55cb78a116100dc578063d55cb78a146109ca578063db0045ec146109df578063dc44b6a0146109ff578063dd62ed3e14610a1557600080fd5b8063cab0347114610974578063cdb3858f1461098a578063d1633649146109aa57600080fd5b8063a850673d1161016f578063c469b6dd11610149578063c469b6dd146108cd578063c5d24189146108e3578063c8607952146108f9578063c95457ff1461090f57600080fd5b8063a850673d14610878578063a9059cbb14610898578063c3c8cd80146108b857600080fd5b80639491f94d116101ab5780639491f94d146107c857806395d89b41146107dd57806399a7b9bc146108235780639d82190f1461083857600080fd5b806388790a681461077f5780638da5cb5b146107955780638e360253146107b357600080fd5b806339a53c4e116102b65780636c0a24eb11610254578063729cb3f211610223578063729cb3f2146106f157806372b2aecc14610711578063787a08a61461072757806380670f3c1461076a57600080fd5b80636c0a24eb1461067b5780636fc3eaec1461069157806370a08231146106a6578063715018a6146106dc57600080fd5b8063437823ec11610290578063437823ec146105ee57806349bd5a5e1461060e5780635fecd926146106465780636aabff3f1461066657600080fd5b806339a53c4e1461057f5780633bbac579146105a15780633e0f966d146105d957600080fd5b8063248dd2321161032357806329409395116102fd5780632940939514610502578063301ad55814610522578063313ce56714610543578063323be1c51461055f57600080fd5b8063248dd232146104b657806327a14fc2146104cc5780632843631d146104ec57600080fd5b806314eb76ac1161035f57806314eb76ac1461043957806318160ddd1461045b5780632369bf831461047657806323b872dd1461049657600080fd5b806301a6c43b1461039157806306fdde03146103ba578063095ea7b31461040957600080fd5b3661038c57005b600080fd5b34801561039d57600080fd5b506103a760085481565b6040519081526020015b60405180910390f35b3480156103c657600080fd5b5060408051808201909152600981527f4761696e5a696c6c61000000000000000000000000000000000000000000000060208201525b6040516103b191906139c1565b34801561041557600080fd5b50610429610424366004613846565b610b55565b60405190151581526020016103b1565b34801561044557600080fd5b50610459610454366004613796565b610b6c565b005b34801561046757600080fd5b50670de0b6b3a76400006103a7565b34801561048257600080fd5b50610459610491366004613796565b610c05565b3480156104a257600080fd5b506104296104b1366004613806565b610c99565b3480156104c257600080fd5b506103a760135481565b3480156104d857600080fd5b506104596104e7366004613933565b610d02565b3480156104f857600080fd5b506103a7600b5481565b34801561050e57600080fd5b5061045961051d366004613796565b610e68565b34801561052e57600080fd5b50602854610429906301000000900460ff1681565b34801561054f57600080fd5b50604051600981526020016103b1565b34801561056b57600080fd5b506028546104299062010000900460ff1681565b34801561058b57600080fd5b5060285461042990640100000000900460ff1681565b3480156105ad57600080fd5b506104296105bc366004613796565b6001600160a01b0316600090815260208052604090205460ff1690565b3480156105e557600080fd5b50610459611015565b3480156105fa57600080fd5b50610459610609366004613796565b6110d3565b34801561061a57600080fd5b5060265461062e906001600160a01b031681565b6040516001600160a01b0390911681526020016103b1565b34801561065257600080fd5b50610459610661366004613796565b611151565b34801561067257600080fd5b506104596111cb565b34801561068757600080fd5b506103a760075481565b34801561069d57600080fd5b5061045961124f565b3480156106b257600080fd5b506103a76106c1366004613796565b6001600160a01b031660009081526002602052604090205490565b3480156106e857600080fd5b506104596112ee565b3480156106fd57600080fd5b5061045961070c3660046138c0565b6113aa565b34801561071d57600080fd5b506103a760195481565b34801561073357600080fd5b50601a5461074e9060ff811690610100900463ffffffff1682565b60408051921515835263ffffffff9091166020830152016103b1565b34801561077657600080fd5b506103a761145c565b34801561078b57600080fd5b506103a760115481565b3480156107a157600080fd5b506000546001600160a01b031661062e565b3480156107bf57600080fd5b506104596114d0565b3480156107d457600080fd5b506103a7611539565b3480156107e957600080fd5b5060408051808201909152600481527f524157520000000000000000000000000000000000000000000000000000000060208201526103fc565b34801561082f57600080fd5b50610459611707565b34801561084457600080fd5b50610858610853366004613796565b61178b565b6040805194855260208501939093529183015260608201526080016103b1565b34801561088457600080fd5b50610459610893366004613933565b61183a565b3480156108a457600080fd5b506104296108b3366004613846565b611899565b3480156108c457600080fd5b506104596118a6565b3480156108d957600080fd5b506103a7600f5481565b3480156108ef57600080fd5b506103a7600d5481565b34801561090557600080fd5b506103a760155481565b34801561091b57600080fd5b50601c54601d54601e54601f546109459360ff8082169461010090920461ffff1693919291169085565b60408051951515865261ffff90941660208601529284019190915215156060830152608082015260a0016103b1565b34801561098057600080fd5b506103a760175481565b34801561099657600080fd5b506104596109a5366004613796565b61191f565b3480156109b657600080fd5b506104596109c5366004613933565b6119b3565b3480156109d657600080fd5b50610459611a23565b3480156109eb57600080fd5b506104596109fa366004613796565b611aa7565b348015610a0b57600080fd5b506103a760095481565b348015610a2157600080fd5b506103a7610a303660046137ce565b6001600160a01b03918216600090815260036020908152604080832093909416825291909152205490565b348015610a6757600080fd5b50610459610a76366004613933565b611b3b565b348015610a8757600080fd5b50610459610a96366004613990565b611b9a565b348015610aa757600080fd5b50610459610ab6366004613796565b611d57565b348015610ac757600080fd5b50610459610ad6366004613796565b611dd2565b348015610ae757600080fd5b50610459610af6366004613990565b611eb1565b348015610b0757600080fd5b50610459610b1636600461388d565b61205d565b348015610b2757600080fd5b506028546104299060ff1681565b348015610b4157600080fd5b50610459610b50366004613796565b6121b9565b6000610b623384846122b5565b5060015b92915050565b6000546001600160a01b03163314610bcb5760405162461bcd60e51b815260206004820181905260248201527f4f776e61626c653a2063616c6c6572206973206e6f7420746865206f776e657260448201526064015b60405180910390fd5b602280547fffffffffffffffffffffffff0000000000000000000000000000000000000000166001600160a01b0392909216919091179055565b6000546001600160a01b03163314610c5f5760405162461bcd60e51b815260206004820181905260248201527f4f776e61626c653a2063616c6c6572206973206e6f7420746865206f776e65726044820152606401610bc2565b602180547fffffffffffffffffffffffff0000000000000000000000000000000000000000166001600160a01b0392909216919091179055565b6000610ca684848461240d565b610cf88433610cf385604051806060016040528060288152602001613c2c602891396001600160a01b038a1660009081526003602090815260408083203384529091529020549190612b42565b6122b5565b5060019392505050565b6000546001600160a01b03163314610d5c5760405162461bcd60e51b815260206004820181905260248201527f4f776e61626c653a2063616c6c6572206973206e6f7420746865206f776e65726044820152606401610bc2565b610d70670de0b6b3a76400006103e8612b7c565b811015610de55760405162461bcd60e51b815260206004820152602a60248201527f416d6f756e74206d7573742062652067726561746572207468616e20302e312560448201527f206f6620737570706c79000000000000000000000000000000000000000000006064820152608401610bc2565b670de0b6b3a7640000811115610e635760405162461bcd60e51b815260206004820152603060248201527f416d6f756e74206d757374206265206c657373207468616e206f72206571756160448201527f6c20746f20746f74616c537570706c79000000000000000000000000000000006064820152608401610bc2565b600755565b6000546001600160a01b03163314610ec25760405162461bcd60e51b815260206004820181905260248201527f4f776e61626c653a2063616c6c6572206973206e6f7420746865206f776e65726044820152606401610bc2565b6040517f70a082310000000000000000000000000000000000000000000000000000000081523060048201526000906001600160a01b038316906370a082319060240160206040518083038186803b158015610f1d57600080fd5b505afa158015610f31573d6000803e3d6000fd5b505050506040513d601f19601f82011682018060405250810190610f55919061394b565b9050816001600160a01b031663a9059cbb610f786000546001600160a01b031690565b6040517fffffffff0000000000000000000000000000000000000000000000000000000060e084901b1681526001600160a01b03909116600482015260248101849052604401602060405180830381600087803b158015610fd857600080fd5b505af1158015610fec573d6000803e3d6000fd5b505050506040513d601f19601f820116820180604052508101906110109190613871565b505050565b6000546001600160a01b0316331461106f5760405162461bcd60e51b815260206004820181905260248201527f4f776e61626c653a2063616c6c6572206973206e6f7420746865206f776e65726044820152606401610bc2565b60285462010000900460ff166110c75760405162461bcd60e51b815260206004820152601e60248201527f7468697320636f6e74726163742063616e6e6f742062652070617573656400006044820152606401610bc2565b6028805460ff19169055565b6000546001600160a01b0316331461112d5760405162461bcd60e51b815260206004820181905260248201527f4f776e61626c653a2063616c6c6572206973206e6f7420746865206f776e65726044820152606401610bc2565b6001600160a01b03166000908152600460205260409020805460ff19166001179055565b6000546001600160a01b031633146111ab5760405162461bcd60e51b815260206004820181905260248201527f4f776e61626c653a2063616c6c6572206973206e6f7420746865206f776e65726044820152606401610bc2565b6001600160a01b031660009081526020805260409020805460ff19169055565b6000546001600160a01b031633146112255760405162461bcd60e51b815260206004820181905260248201527f4f776e61626c653a2063616c6c6572206973206e6f7420746865206f776e65726044820152606401610bc2565b602880547fffffffffffffffffffffffffffffffffffffffffffffffffffffffffff00ffff169055565b6000546001600160a01b031633146112a95760405162461bcd60e51b815260206004820181905260248201527f4f776e61626c653a2063616c6c6572206973206e6f7420746865206f776e65726044820152606401610bc2565b4780156112eb57600080546040516001600160a01b039091169183156108fc02918491818181858888f193505050501580156112e9573d6000803e3d6000fd5b505b50565b6000546001600160a01b031633146113485760405162461bcd60e51b815260206004820181905260248201527f4f776e61626c653a2063616c6c6572206973206e6f7420746865206f776e65726044820152606401610bc2565b600080546040516001600160a01b03909116907f8be0079c531659141344cd1fd0a4f28419497f9722a3daafe3b4186f6b6457e0908390a3600080547fffffffffffffffffffffffff0000000000000000000000000000000000000000169055565b6000546001600160a01b031633146114045760405162461bcd60e51b815260206004820181905260248201527f4f776e61626c653a2063616c6c6572206973206e6f7420746865206f776e65726044820152606401610bc2565b601a805460ff191683151517905561141d81603c613b0b565b601a805463ffffffff92909216610100027fffffffffffffffffffffffffffffffffffffffffffffffffffffff00000000ff9092169190911790555050565b601d5460009061146c5750600090565b6000611476611539565b601d5490915081116114b357601d546114a59061149f6103e86114998386612bc5565b90612c07565b90612b7c565b6114ae90613b62565b6114ca565b601d546114ca9061149f6103e86114998584612bc5565b91505090565b6000546001600160a01b0316331461152a5760405162461bcd60e51b815260206004820181905260248201527f4f776e61626c653a2063616c6c6572206973206e6f7420746865206f776e65726044820152606401610bc2565b6028805460ff19166001179055565b6000806000602660009054906101000a90046001600160a01b03166001600160a01b0316630902f1ac6040518163ffffffff1660e01b815260040160606040518083038186803b15801561158c57600080fd5b505afa1580156115a0573d6000803e3d6000fd5b505050506040513d601f19601f820116820180604052508101906115c491906138ed565b5091509150816dffffffffffffffffffffffffffff16600014806115f657506dffffffffffffffffffffffffffff8116155b156116045760009250505090565b602654604080517f0dfe1681000000000000000000000000000000000000000000000000000000008152905130926001600160a01b031691630dfe1681916004808301926020929190829003018186803b15801561166157600080fd5b505afa158015611675573d6000803e3d6000fd5b505050506040513d601f19601f8201168201806040525081019061169991906137b2565b6001600160a01b0316146116d6576116d16dffffffffffffffffffffffffffff8083169061149f908516670de0b6b3a7640000612c07565b611700565b6117006dffffffffffffffffffffffffffff8084169061149f908416670de0b6b3a7640000612c07565b9250505090565b6000546001600160a01b031633146117615760405162461bcd60e51b815260206004820181905260248201527f4f776e61626c653a2063616c6c6572206973206e6f7420746865206f776e65726044820152606401610bc2565b602880547fffffffffffffffffffffffffffffffffffffffffffffffffffffff00ffffffff169055565b6001600160a01b0381166000908152601b6020526040812054819081908190819042106117b95760006117dc565b6001600160a01b0386166000908152601b60205260409020546117dc9042612bc5565b90506117eb8162015180612b7c565b94506117fa6201518082613b4e565b905061180881610e10612b7c565b9350611816610e1082613b4e565b905061182381603c612b7c565b9250611830603c82613b4e565b9150509193509193565b6000546001600160a01b031633146118945760405162461bcd60e51b815260206004820181905260248201527f4f776e61626c653a2063616c6c6572206973206e6f7420746865206f776e65726044820152606401610bc2565b601955565b6000610b6233848461240d565b6000546001600160a01b031633146119005760405162461bcd60e51b815260206004820181905260248201527f4f776e61626c653a2063616c6c6572206973206e6f7420746865206f776e65726044820152606401610bc2565b3060009081526002602052604090205480156112eb576112eb81612ca2565b6000546001600160a01b031633146119795760405162461bcd60e51b815260206004820181905260248201527f4f776e61626c653a2063616c6c6572206973206e6f7420746865206f776e65726044820152606401610bc2565b602480547fffffffffffffffffffffffff0000000000000000000000000000000000000000166001600160a01b0392909216919091179055565b6000546001600160a01b03163314611a0d5760405162461bcd60e51b815260206004820181905260248201527f4f776e61626c653a2063616c6c6572206973206e6f7420746865206f776e65726044820152606401610bc2565b426005556006556028805460ff19166001179055565b6000546001600160a01b03163314611a7d5760405162461bcd60e51b815260206004820181905260248201527f4f776e61626c653a2063616c6c6572206973206e6f7420746865206f776e65726044820152606401610bc2565b602880547fffffffffffffffffffffffffffffffffffffffffffffffffffffffff00ffffff169055565b6000546001600160a01b03163314611b015760405162461bcd60e51b815260206004820181905260248201527f4f776e61626c653a2063616c6c6572206973206e6f7420746865206f776e65726044820152606401610bc2565b602380547fffffffffffffffffffffffff0000000000000000000000000000000000000000166001600160a01b0392909216919091179055565b6000546001600160a01b03163314611b955760405162461bcd60e51b815260206004820181905260248201527f4f776e61626c653a2063616c6c6572206973206e6f7420746865206f776e65726044820152606401610bc2565b600855565b6000546001600160a01b03163314611bf45760405162461bcd60e51b815260206004820181905260248201527f4f776e61626c653a2063616c6c6572206973206e6f7420746865206f776e65726044820152606401610bc2565b6000611c0c82611c0685818989612edf565b90612edf565b905060fa811115611c855760405162461bcd60e51b815260206004820152603160248201527f53756d206f66206275792066656573206d757374206265206c6573732074686160448201527f6e206f7220657175616c20746f203235250000000000000000000000000000006064820152608401610bc2565b602854640100000000900460ff16611cdf5760405162461bcd60e51b815260206004820152601860248201527f546869732066756e6374696f6e20697320646961626c656400000000000000006044820152606401610bc2565b600d8590556009849055600f839055600b829055600e859055600a8490556010839055600c8290556040805186815260208101869052908101849052606081018390527f892b2caa2d791bf7b8d9a49c4db7a4513ff1ae2e0e068ed217f9d5ab4c1a28f0906080015b60405180910390a15050505050565b6000546001600160a01b03163314611db15760405162461bcd60e51b815260206004820181905260248201527f4f776e61626c653a2063616c6c6572206973206e6f7420746865206f776e65726044820152606401610bc2565b6001600160a01b03166000908152600460205260409020805460ff19169055565b6000546001600160a01b03163314611e2c5760405162461bcd60e51b815260206004820181905260248201527f4f776e61626c653a2063616c6c6572206973206e6f7420746865206f776e65726044820152606401610bc2565b6001600160a01b038116611ea85760405162461bcd60e51b815260206004820152602660248201527f4f776e61626c653a206e6577206f776e657220697320746865207a65726f206160448201527f64647265737300000000000000000000000000000000000000000000000000006064820152608401610bc2565b6112eb81612f3e565b6000546001600160a01b03163314611f0b5760405162461bcd60e51b815260206004820181905260248201527f4f776e61626c653a2063616c6c6572206973206e6f7420746865206f776e65726044820152606401610bc2565b6000611f1d82611c0685818989612edf565b905060fa811115611f965760405162461bcd60e51b815260206004820152603260248201527f53756d206f662073656c6c2066656573206d757374206265206c65737320746860448201527f616e206f7220657175616c20746f2032352500000000000000000000000000006064820152608401610bc2565b602854640100000000900460ff16611ff05760405162461bcd60e51b815260206004820152601860248201527f546869732066756e6374696f6e20697320646961626c656400000000000000006044820152606401610bc2565b601585905560118490556017839055601382905560168590556012849055601883905560148290556040805186815260208101869052908101849052606081018390527f439932620c72dddea29980c098bca1a482729646d1216b226d723c6d278a30d190608001611d48565b6000546001600160a01b031633146120b75760405162461bcd60e51b815260206004820181905260248201527f4f776e61626c653a2063616c6c6572206973206e6f7420746865206f776e65726044820152606401610bc2565b6103e88161ffff16106121325760405162461bcd60e51b815260206004820152602860248201527f547269676765722070657263656e74616765206d757374206265203c2031303060448201527f30202831303025290000000000000000000000000000000000000000000000006064820152608401610bc2565b601c80547fffffffffffffffffffffffffffffffffffffffffffffffffffffffffff00000016831580157fffffffffffffffffffffffffffffffffffffffffffffffffffffffffff0000ff169190911761010061ffff85160217909155829061219b5750601d54155b156112e95760006121aa611539565b9050801561101057601d555050565b6000546001600160a01b031633146122135760405162461bcd60e51b815260206004820181905260248201527f4f776e61626c653a2063616c6c6572206973206e6f7420746865206f776e65726044820152606401610bc2565b6028546301000000900460ff166122925760405162461bcd60e51b815260206004820152602860248201527f7468697320636f6e74726163742063616e6e6f7420626c61636b6c697374206160448201527f64647265737365730000000000000000000000000000000000000000000000006064820152608401610bc2565b6001600160a01b031660009081526020805260409020805460ff19166001179055565b6001600160a01b0383166123305760405162461bcd60e51b8152602060048201526024808201527f45524332303a20617070726f76652066726f6d20746865207a65726f2061646460448201527f72657373000000000000000000000000000000000000000000000000000000006064820152608401610bc2565b6001600160a01b0382166123ac5760405162461bcd60e51b815260206004820152602260248201527f45524332303a20617070726f766520746f20746865207a65726f20616464726560448201527f73730000000000000000000000000000000000000000000000000000000000006064820152608401610bc2565b6001600160a01b0383811660008181526003602090815260408083209487168084529482529182902085905590518481527f8c5be1e5ebec7d5bd14f71427d1e84f3dd0314c0f7b2291e5b200ac8c7c3b925910160405180910390a3505050565b6001600160a01b0383166124895760405162461bcd60e51b815260206004820152602560248201527f45524332303a207472616e736665722066726f6d20746865207a65726f20616460448201527f64726573730000000000000000000000000000000000000000000000000000006064820152608401610bc2565b6001600160a01b0382166125055760405162461bcd60e51b815260206004820152602360248201527f45524332303a207472616e7366657220746f20746865207a65726f206164647260448201527f65737300000000000000000000000000000000000000000000000000000000006064820152608401610bc2565b6000811161257b5760405162461bcd60e51b815260206004820152602960248201527f5472616e7366657220616d6f756e74206d75737420626520677265617465722060448201527f7468616e207a65726f00000000000000000000000000000000000000000000006064820152608401610bc2565b600161258f6000546001600160a01b031690565b6001600160a01b0316846001600160a01b0316141580156125be57506000546001600160a01b03848116911614155b80156125d357506001600160a01b0384163014155b80156125e857506001600160a01b0383163014155b15612ae85760285460ff1661263f5760405162461bcd60e51b815260206004820152601560248201527f54726164696e67206973206e6f742061637469766500000000000000000000006044820152606401610bc2565b6026546001600160a01b03858116911614801561266a57506025546001600160a01b03848116911614155b156127875760065460055461267e91612edf565b42116126a7576001600160a01b03831660009081526020805260409020805460ff191660011790555b6001600160a01b03831660009081526004602052604090205460ff16612787576007546126ed83611c06866001600160a01b031660009081526002602052604090205490565b11156127875760405162461bcd60e51b815260206004820152604260248201527f2e77616c6c65742062616c616e6365206166746572207472616e73666572206d60448201527f757374206265206c657373207468616e206d61782077616c6c657420616d6f7560648201527f6e74000000000000000000000000000000000000000000000000000000000000608482015260a401610bc2565b602854610100900460ff161580156127ad57506026546001600160a01b03858116911614155b80156127c657506026546001600160a01b038481169116145b156129d7576001600160a01b038416600090815260208052604090205460ff1615801561280b57506001600160a01b038316600090815260208052604090205460ff16155b61281457600080fd5b601a5460ff16156128b9576001600160a01b0384166000908152601b60205260409020544210156128875760405162461bcd60e51b815260206004820152601c60248201527f5374726f6e672048616e64732050726f746f636f6c20616374697665000000006044820152606401610bc2565b601a5461289f90610100900463ffffffff1642613aa2565b6001600160a01b0385166000908152601b60205260409020555b601c5460ff161561291f57601e5460ff16156129175760405162461bcd60e51b815260206004820152601e60248201527f53656c6c732073746f70706564206279204469616d6f6e6420466c6f6f7200006044820152606401610bc2565b61291f612fa6565b3060009081526002602052604090205460085481106129d55780156129c3576000612963601154611c06601354611c06601754601554612edf90919063ffffffff16565b11156129c357600061299e612991601154611c06601354611c06601754601554612edf90919063ffffffff16565b60115461149f9085612c07565b905060008183106129b6576129b38383612bc5565b90505b6129c08282613055565b50505b4780156129d3576129d3476130e5565b505b505b6026546001600160a01b03858116911614801590612a0357506026546001600160a01b03848116911614155b15612ae8576001600160a01b03831660009081526004602052604090205460ff16612ae857600754612a4e83611c06866001600160a01b031660009081526002602052604090205490565b1115612ae85760405162461bcd60e51b815260206004820152604260248201527f2e77616c6c65742062616c616e6365206166746572207472616e73666572206d60448201527f757374206265206c657373207468616e206d61782077616c6c657420616d6f7560648201527f6e74000000000000000000000000000000000000000000000000000000000000608482015260a401610bc2565b6001600160a01b03841660009081526004602052604090205460ff1680612b2757506001600160a01b03831660009081526004602052604090205460ff165b15612b30575060005b612b3c84848484613225565b50505050565b60008184841115612b665760405162461bcd60e51b8152600401610bc291906139c1565b506000612b738486613b37565b95945050505050565b6000612bbe83836040518060400160405280601a81526020017f536166654d6174683a206469766973696f6e206279207a65726f0000000000008152506132c3565b9392505050565b6000612bbe83836040518060400160405280601e81526020017f536166654d6174683a207375627472616374696f6e206f766572666c6f770000815250612b42565b600082612c1657506000610b66565b6000612c228385613ace565b905082612c2f8583613aba565b14612bbe5760405162461bcd60e51b815260206004820152602160248201527f536166654d6174683a206d756c7469706c69636174696f6e206f766572666c6f60448201527f77000000000000000000000000000000000000000000000000000000000000006064820152608401610bc2565b602880547fffffffffffffffffffffffffffffffffffffffffffffffffffffffffffff00ff166101001790556040805160028082526060820183526000926020830190803683370190505090503081600081518110612d2a577f4e487b7100000000000000000000000000000000000000000000000000000000600052603260045260246000fd5b6001600160a01b03928316602091820292909201810191909152602554604080517fad5c46480000000000000000000000000000000000000000000000000000000081529051919093169263ad5c4648926004808301939192829003018186803b158015612d9757600080fd5b505afa158015612dab573d6000803e3d6000fd5b505050506040513d601f19601f82011682018060405250810190612dcf91906137b2565b81600181518110612e09577f4e487b7100000000000000000000000000000000000000000000000000000000600052603260045260246000fd5b6001600160a01b039283166020918202929092010152602554612e2f91309116846122b5565b6025546040517f791ac9470000000000000000000000000000000000000000000000000000000081526001600160a01b039091169063791ac94790612e81908590600090869030904290600401613a32565b600060405180830381600087803b158015612e9b57600080fd5b505af1158015612eaf573d6000803e3d6000fd5b5050602880547fffffffffffffffffffffffffffffffffffffffffffffffffffffffffffff00ff16905550505050565b600080612eec8385613aa2565b905083811015612bbe5760405162461bcd60e51b815260206004820152601b60248201527f536166654d6174683a206164646974696f6e206f766572666c6f7700000000006044820152606401610bc2565b600080546001600160a01b038381167fffffffffffffffffffffffff0000000000000000000000000000000000000000831681178455604051919092169283917f8be0079c531659141344cd1fd0a4f28419497f9722a3daafe3b4186f6b6457e09190a35050565b6000612fb0611539565b905080612fba5750565b601d54811115612fd357601d55601e805460ff19169055565b601c54601d54600091613003916103e89161149f9161010090910461ffff1690612ffd9084612c07565b90612bc5565b90508082101561302157601e805460ff19166001179055601d54601f555b601e5460ff1680156130405750601f5461303c906002612c07565b8210155b156112e95750601e805460ff19169055601d55565b602880547fffffffffffffffffffffffffffffffffffffffffffffffffffffffffffff00ff16610100179055600061308e836002612b7c565b9050600061309c8483612bc5565b9050476130b16130ac8585612edf565b612ca2565b60006130bd4783612bc5565b90508215612eaf57612eaf836130e06130d68888612edf565b61149f8589612c07565b6132f1565b6000613104601754611c06601354601554612edf90919063ffffffff16565b905080156112e95760006131278261149f60155486612c0790919063ffffffff16565b905060006131448361149f60175487612c0790919063ffffffff16565b9050600061315682612ffd8786612bc5565b9050821561319a576021546040516001600160a01b039091169084156108fc029085906000818181858888f19350505050158015613198573d6000803e3d6000fd5b505b81156131dc576022546040516001600160a01b039091169083156108fc029084906000818181858888f193505050501580156131da573d6000803e3d6000fd5b505b801561321e576023546040516001600160a01b039091169082156108fc029083906000818181858888f1935050505015801561321c573d6000803e3d6000fd5b505b5050505050565b8061328357613283600d8054600e5560098054600a55600f8054601055600b8054600c556000938490559183905582905581905560158054601655601180546012556017805460185560138054601455928490559083905582905555565b61328e8484846133c7565b612b3c600e54600d55600a54600955601054600f55600c54600b55601654601555601254601155601854601755601454601355565b600081836132e45760405162461bcd60e51b8152600401610bc291906139c1565b506000612b738486613aba565b6025546133099030906001600160a01b0316846122b5565b602554602480546040517ff305d71900000000000000000000000000000000000000000000000000000000815230600482015291820185905260006044830181905260648301526001600160a01b0390811660848301524260a48301529091169063f305d71990839060c4016060604051808303818588803b15801561338e57600080fd5b505af11580156133a2573d6000803e3d6000fd5b50505050506040513d601f19601f8201168201806040525081019061321e9190613963565b6133f96040518060a0016040528060008152602001600081526020016000815260200160008152602001600081525090565b6026546001600160a01b03858116911614801561342457506025546001600160a01b03848116911614155b15613498576134446103e861149f600d5485612c0790919063ffffffff16565b602082015260095461345f906103e89061149f908590612c07565b8152600f54613477906103e89061149f908590612c07565b6040820152600b54613492906103e89061149f908590612c07565b60608201525b6026546001600160a01b038581169116148015906134c357506026546001600160a01b038481169116145b15613537576134e36103e861149f60155485612c0790919063ffffffff16565b60208201526011546134fe906103e89061149f908590612c07565b8152601754613516906103e89061149f908590612c07565b6040820152601354613531906103e89061149f908590612c07565b60608201525b6026546001600160a01b0385811691161480159061356357506026546001600160a01b03848116911614155b156136175761358e606461149f6019546114996103e861149f60155489612c0790919063ffffffff16565b8160200181815250506135bd606461149f6019546114996103e861149f60115489612c0790919063ffffffff16565b81526019546017546135e29160649161149f9190611499906103e89084908990612c07565b816040018181525050613611606461149f6019546114996103e861149f60135489612c0790919063ffffffff16565b60608201525b6136468160600151612ffd8360400151612ffd8560000151612ffd876020015189612bc590919063ffffffff16565b60808201526001600160a01b03841660009081526002602052604090205461366e9083612bc5565b6001600160a01b03808616600090815260026020526040808220939093556080840151918616815291909120546136a491612edf565b60026000856001600160a01b03166001600160a01b03168152602001908152602001600020819055506137116136fb8260600151611c068460400151611c0686600001518760200151612edf90919063ffffffff16565b3060009081526002602052604090205490612edf565b3060009081526002602090815260409182902092909255608083015190519081526001600160a01b0385811692908716917fddf252ad1be2c89b69c2b068fc378daa952ba7f163c4a11628f55a4df523b3ef910160405180910390a350505050565b80516dffffffffffffffffffffffffffff8116811461379157600080fd5b919050565b6000602082840312156137a7578081fd5b8135612bbe81613bf6565b6000602082840312156137c3578081fd5b8151612bbe81613bf6565b600080604083850312156137e0578081fd5b82356137eb81613bf6565b915060208301356137fb81613bf6565b809150509250929050565b60008060006060848603121561381a578081fd5b833561382581613bf6565b9250602084013561383581613bf6565b929592945050506040919091013590565b60008060408385031215613858578182fd5b823561386381613bf6565b946020939093013593505050565b600060208284031215613882578081fd5b8151612bbe81613c0b565b6000806040838503121561389f578182fd5b82356138aa81613c0b565b9150602083013561ffff811681146137fb578182fd5b600080604083850312156138d2578182fd5b82356138dd81613c0b565b915060208301356137fb81613c19565b600080600060608486031215613901578283fd5b61390a84613773565b925061391860208501613773565b9150604084015161392881613c19565b809150509250925092565b600060208284031215613944578081fd5b5035919050565b60006020828403121561395c578081fd5b5051919050565b600080600060608486031215613977578283fd5b8351925060208401519150604084015190509250925092565b600080600080608085870312156139a5578182fd5b5050823594602084013594506040840135936060013592509050565b6000602080835283518082850152825b818110156139ed578581018301518582016040015282016139d1565b818111156139fe5783604083870101525b50601f017fffffffffffffffffffffffffffffffffffffffffffffffffffffffffffffffe016929092016040019392505050565b600060a082018783526020878185015260a0604085015281875180845260c0860191508289019350845b81811015613a815784516001600160a01b031683529383019391830191600101613a5c565b50506001600160a01b03969096166060850152505050608001529392505050565b60008219821115613ab557613ab5613b98565b500190565b600082613ac957613ac9613bc7565b500490565b6000817fffffffffffffffffffffffffffffffffffffffffffffffffffffffffffffffff0483118215151615613b0657613b06613b98565b500290565b600063ffffffff80831681851681830481118215151615613b2e57613b2e613b98565b02949350505050565b600082821015613b4957613b49613b98565b500390565b600082613b5d57613b5d613bc7565b500690565b60007f8000000000000000000000000000000000000000000000000000000000000000821415613b9457613b94613b98565b0390565b7f4e487b7100000000000000000000000000000000000000000000000000000000600052601160045260246000fd5b7f4e487b7100000000000000000000000000000000000000000000000000000000600052601260045260246000fd5b6001600160a01b03811681146112eb57600080fd5b80151581146112eb57600080fd5b63ffffffff811681146112eb57600080fdfe45524332303a207472616e7366657220616d6f756e74206578636565647320616c6c6f77616e6365a2646970667358221220d445ba2fdba51cb8d3ee4bed2cedb6e9cd1b69c0317a471ad158af8fc12f109b64736f6c63430008040033",
					"opcodes": "PUSH1 0x80 PUSH1 0x40 MSTORE PUSH7 0x2386F2AB5BCA00 PUSH1 0x7 SSTORE PUSH7 0x38D7EA4C68000 PUSH1 0x8 SSTORE PUSH1 0x0 PUSH1 0x9 SSTORE PUSH1 0x9 SLOAD PUSH1 0xA SSTORE PUSH1 0x0 PUSH1 0xB SSTORE PUSH1 0xB SLOAD PUSH1 0xC SSTORE PUSH1 0x0 PUSH1 0xD SSTORE PUSH1 0xD SLOAD PUSH1 0xE SSTORE PUSH1 0x0 PUSH1 0xF SSTORE PUSH1 0xF SLOAD PUSH1 0x10 SSTORE PUSH1 0x0 PUSH1 0x11 SSTORE PUSH1 0x11 SLOAD PUSH1 0x12 SSTORE PUSH1 0x0 PUSH1 0x13 SSTORE PUSH1 0x13 SLOAD PUSH1 0x14 SSTORE PUSH1 0x0 PUSH1 0x15 SSTORE PUSH1 0x15 SLOAD PUSH1 0x16 SSTORE PUSH1 0x0 PUSH1 0x17 SSTORE PUSH1 0x17 SLOAD PUSH1 0x18 SSTORE PUSH1 0x0 PUSH1 0x19 SSTORE PUSH3 0x87 PUSH3 0x41D PUSH1 0x20 SHL PUSH1 0x20 SHR JUMP JUMPDEST PUSH1 0x21 DUP1 SLOAD PUSH1 0x1 PUSH1 0x1 PUSH1 0xA0 SHL SUB NOT SWAP1 DUP2 AND PUSH1 0x1 PUSH1 0x1 PUSH1 0xA0 SHL SUB SWAP4 DUP5 AND OR SWAP1 SWAP2 SSTORE PUSH1 0x0 SLOAD PUSH1 0x22 DUP1 SLOAD SWAP2 SWAP1 SWAP4 AND SWAP1 DUP3 AND DUP2 OR SWAP1 SWAP3 SSTORE PUSH1 0x23 DUP1 SLOAD DUP3 AND DUP4 OR SWAP1 SSTORE PUSH1 0x24 DUP1 SLOAD SWAP1 SWAP2 AND SWAP1 SWAP2 OR SWAP1 SSTORE PUSH1 0x28 DUP1 SLOAD PUSH5 0xFFFFFFFFFF NOT AND PUSH5 0x101010000 OR SWAP1 SSTORE CALLVALUE DUP1 ISZERO PUSH3 0xF1 JUMPI PUSH1 0x0 DUP1 REVERT JUMPDEST POP PUSH1 0x0 DUP1 SLOAD PUSH1 0x1 PUSH1 0x1 PUSH1 0xA0 SHL SUB NOT AND CALLER SWAP1 DUP2 OR DUP3 SSTORE PUSH1 0x40 MLOAD SWAP1 SWAP2 DUP3 SWAP2 PUSH32 0x8BE0079C531659141344CD1FD0A4F28419497F9722A3DAAFE3B4186F6B6457E0 SWAP1 DUP3 SWAP1 LOG3 POP PUSH1 0x25 DUP1 SLOAD PUSH1 0x1 PUSH1 0x1 PUSH1 0xA0 SHL SUB NOT AND PUSH20 0x10ED43C718714EB63D5AA57B78B54704E256024E SWAP1 DUP2 OR SWAP1 SWAP2 SSTORE PUSH3 0x171 ADDRESS DUP3 PUSH8 0xDE0B6B3A7640000 PUSH3 0x42C JUMP JUMPDEST DUP1 PUSH1 0x1 PUSH1 0x1 PUSH1 0xA0 SHL SUB AND PUSH4 0xC45A0155 PUSH1 0x40 MLOAD DUP2 PUSH4 0xFFFFFFFF AND PUSH1 0xE0 SHL DUP2 MSTORE PUSH1 0x4 ADD PUSH1 0x20 PUSH1 0x40 MLOAD DUP1 DUP4 SUB DUP2 DUP7 DUP1 EXTCODESIZE ISZERO DUP1 ISZERO PUSH3 0x1AB JUMPI PUSH1 0x0 DUP1 REVERT JUMPDEST POP GAS STATICCALL ISZERO DUP1 ISZERO PUSH3 0x1C0 JUMPI RETURNDATASIZE PUSH1 0x0 DUP1 RETURNDATACOPY RETURNDATASIZE PUSH1 0x0 REVERT JUMPDEST POP POP POP POP PUSH1 0x40 MLOAD RETURNDATASIZE PUSH1 0x1F NOT PUSH1 0x1F DUP3 ADD AND DUP3 ADD DUP1 PUSH1 0x40 MSTORE POP DUP2 ADD SWAP1 PUSH3 0x1E6 SWAP2 SWAP1 PUSH3 0x558 JUMP JUMPDEST PUSH1 0x1 PUSH1 0x1 PUSH1 0xA0 SHL SUB AND PUSH4 0xC9C65396 ADDRESS DUP4 PUSH1 0x1 PUSH1 0x1 PUSH1 0xA0 SHL SUB AND PUSH4 0xAD5C4648 PUSH1 0x40 MLOAD DUP2 PUSH4 0xFFFFFFFF AND PUSH1 0xE0 SHL DUP2 MSTORE PUSH1 0x4 ADD PUSH1 0x20 PUSH1 0x40 MLOAD DUP1 DUP4 SUB DUP2 DUP7 DUP1 EXTCODESIZE ISZERO DUP1 ISZERO PUSH3 0x22F JUMPI PUSH1 0x0 DUP1 REVERT JUMPDEST POP GAS STATICCALL ISZERO DUP1 ISZERO PUSH3 0x244 JUMPI RETURNDATASIZE PUSH1 0x0 DUP1 RETURNDATACOPY RETURNDATASIZE PUSH1 0x0 REVERT JUMPDEST POP POP POP POP PUSH1 0x40 MLOAD RETURNDATASIZE PUSH1 0x1F NOT PUSH1 0x1F DUP3 ADD AND DUP3 ADD DUP1 PUSH1 0x40 MSTORE POP DUP2 ADD SWAP1 PUSH3 0x26A SWAP2 SWAP1 PUSH3 0x558 JUMP JUMPDEST PUSH1 0x40 MLOAD PUSH1 0x1 PUSH1 0x1 PUSH1 0xE0 SHL SUB NOT PUSH1 0xE0 DUP6 SWAP1 SHL AND DUP2 MSTORE PUSH1 0x1 PUSH1 0x1 PUSH1 0xA0 SHL SUB SWAP3 DUP4 AND PUSH1 0x4 DUP3 ADD MSTORE SWAP2 AND PUSH1 0x24 DUP3 ADD MSTORE PUSH1 0x44 ADD PUSH1 0x20 PUSH1 0x40 MLOAD DUP1 DUP4 SUB DUP2 PUSH1 0x0 DUP8 DUP1 EXTCODESIZE ISZERO DUP1 ISZERO PUSH3 0x2B3 JUMPI PUSH1 0x0 DUP1 REVERT JUMPDEST POP GAS CALL ISZERO DUP1 ISZERO PUSH3 0x2C8 JUMPI RETURNDATASIZE PUSH1 0x0 DUP1 RETURNDATACOPY RETURNDATASIZE PUSH1 0x0 REVERT JUMPDEST POP POP POP POP PUSH1 0x40 MLOAD RETURNDATASIZE PUSH1 0x1F NOT PUSH1 0x1F DUP3 ADD AND DUP3 ADD DUP1 PUSH1 0x40 MSTORE POP DUP2 ADD SWAP1 PUSH3 0x2EE SWAP2 SWAP1 PUSH3 0x558 JUMP JUMPDEST PUSH1 0x26 DUP1 SLOAD PUSH1 0x1 PUSH1 0x1 PUSH1 0xA0 SHL SUB NOT AND PUSH1 0x1 PUSH1 0x1 PUSH1 0xA0 SHL SUB SWAP3 DUP4 AND SWAP1 DUP2 OR SWAP1 SWAP2 SSTORE PUSH1 0x25 SLOAD PUSH1 0x40 MLOAD PUSH4 0x95EA7B3 PUSH1 0xE0 SHL DUP2 MSTORE SWAP3 AND PUSH1 0x4 DUP4 ADD MSTORE PUSH1 0x0 NOT PUSH1 0x24 DUP4 ADD MSTORE SWAP1 PUSH4 0x95EA7B3 SWAP1 PUSH1 0x44 ADD PUSH1 0x20 PUSH1 0x40 MLOAD DUP1 DUP4 SUB DUP2 PUSH1 0x0 DUP8 DUP1 EXTCODESIZE ISZERO DUP1 ISZERO PUSH3 0x351 JUMPI PUSH1 0x0 DUP1 REVERT JUMPDEST POP GAS CALL ISZERO DUP1 ISZERO PUSH3 0x366 JUMPI RETURNDATASIZE PUSH1 0x0 DUP1 RETURNDATACOPY RETURNDATASIZE PUSH1 0x0 REVERT JUMPDEST POP POP POP POP PUSH1 0x40 MLOAD RETURNDATASIZE PUSH1 0x1F NOT PUSH1 0x1F DUP3 ADD AND DUP3 ADD DUP1 PUSH1 0x40 MSTORE POP DUP2 ADD SWAP1 PUSH3 0x38C SWAP2 SWAP1 PUSH3 0x588 JUMP JUMPDEST POP PUSH8 0xDE0B6B3A7640000 PUSH1 0x27 DUP2 SWAP1 SSTORE CALLER PUSH1 0x0 DUP2 DUP2 MSTORE PUSH1 0x2 PUSH1 0x20 SWAP1 DUP2 MSTORE PUSH1 0x40 DUP1 DUP4 KECCAK256 DUP6 SWAP1 SSTORE DUP3 SLOAD PUSH1 0x1 PUSH1 0x1 PUSH1 0xA0 SHL SUB AND DUP4 MSTORE PUSH1 0x4 DUP3 MSTORE DUP1 DUP4 KECCAK256 DUP1 SLOAD PUSH1 0x1 PUSH1 0xFF NOT SWAP2 DUP3 AND DUP2 OR SWAP1 SWAP3 SSTORE ADDRESS DUP6 MSTORE DUP3 DUP6 KECCAK256 DUP1 SLOAD SWAP1 SWAP2 AND SWAP1 SWAP2 OR SWAP1 SSTORE MLOAD SWAP4 DUP5 MSTORE SWAP2 SWAP3 SWAP1 SWAP2 PUSH32 0xDDF252AD1BE2C89B69C2B068FC378DAA952BA7F163C4A11628F55A4DF523B3EF SWAP2 ADD PUSH1 0x40 MLOAD DUP1 SWAP2 SUB SWAP1 LOG3 POP PUSH3 0x5AA JUMP JUMPDEST PUSH1 0x0 SLOAD PUSH1 0x1 PUSH1 0x1 PUSH1 0xA0 SHL SUB AND SWAP1 JUMP JUMPDEST PUSH1 0x1 PUSH1 0x1 PUSH1 0xA0 SHL SUB DUP4 AND PUSH3 0x494 JUMPI PUSH1 0x40 MLOAD PUSH3 0x461BCD PUSH1 0xE5 SHL DUP2 MSTORE PUSH1 0x20 PUSH1 0x4 DUP3 ADD MSTORE PUSH1 0x24 DUP1 DUP3 ADD MSTORE PUSH32 0x45524332303A20617070726F76652066726F6D20746865207A65726F20616464 PUSH1 0x44 DUP3 ADD MSTORE PUSH4 0x72657373 PUSH1 0xE0 SHL PUSH1 0x64 DUP3 ADD MSTORE PUSH1 0x84 ADD JUMPDEST PUSH1 0x40 MLOAD DUP1 SWAP2 SUB SWAP1 REVERT JUMPDEST PUSH1 0x1 PUSH1 0x1 PUSH1 0xA0 SHL SUB DUP3 AND PUSH3 0x4F7 JUMPI PUSH1 0x40 MLOAD PUSH3 0x461BCD PUSH1 0xE5 SHL DUP2 MSTORE PUSH1 0x20 PUSH1 0x4 DUP3 ADD MSTORE PUSH1 0x22 PUSH1 0x24 DUP3 ADD MSTORE PUSH32 0x45524332303A20617070726F766520746F20746865207A65726F206164647265 PUSH1 0x44 DUP3 ADD MSTORE PUSH2 0x7373 PUSH1 0xF0 SHL PUSH1 0x64 DUP3 ADD MSTORE PUSH1 0x84 ADD PUSH3 0x48B JUMP JUMPDEST PUSH1 0x1 PUSH1 0x1 PUSH1 0xA0 SHL SUB DUP4 DUP2 AND PUSH1 0x0 DUP2 DUP2 MSTORE PUSH1 0x3 PUSH1 0x20 SWAP1 DUP2 MSTORE PUSH1 0x40 DUP1 DUP4 KECCAK256 SWAP5 DUP8 AND DUP1 DUP5 MSTORE SWAP5 DUP3 MSTORE SWAP2 DUP3 SWAP1 KECCAK256 DUP6 SWAP1 SSTORE SWAP1 MLOAD DUP5 DUP2 MSTORE PUSH32 0x8C5BE1E5EBEC7D5BD14F71427D1E84F3DD0314C0F7B2291E5B200AC8C7C3B925 SWAP2 ADD PUSH1 0x40 MLOAD DUP1 SWAP2 SUB SWAP1 LOG3 POP POP POP JUMP JUMPDEST PUSH1 0x0 PUSH1 0x20 DUP3 DUP5 SUB SLT ISZERO PUSH3 0x56A JUMPI DUP1 DUP2 REVERT JUMPDEST DUP2 MLOAD PUSH1 0x1 PUSH1 0x1 PUSH1 0xA0 SHL SUB DUP2 AND DUP2 EQ PUSH3 0x581 JUMPI DUP2 DUP3 REVERT JUMPDEST SWAP4 SWAP3 POP POP POP JUMP JUMPDEST PUSH1 0x0 PUSH1 0x20 DUP3 DUP5 SUB SLT ISZERO PUSH3 0x59A JUMPI DUP1 DUP2 REVERT JUMPDEST DUP2 MLOAD DUP1 ISZERO ISZERO DUP2 EQ PUSH3 0x581 JUMPI DUP2 DUP3 REVERT JUMPDEST PUSH2 0x3C89 DUP1 PUSH3 0x5BA PUSH1 0x0 CODECOPY PUSH1 0x0 RETURN INVALID PUSH1 0x80 PUSH1 0x40 MSTORE PUSH1 0x4 CALLDATASIZE LT PUSH2 0x385 JUMPI PUSH1 0x0 CALLDATALOAD PUSH1 0xE0 SHR DUP1 PUSH4 0x88790A68 GT PUSH2 0x1D1 JUMPI DUP1 PUSH4 0xCAB03471 GT PUSH2 0x102 JUMPI DUP1 PUSH4 0xE315A6DA GT PUSH2 0xA0 JUMPI DUP1 PUSH4 0xF480FEC2 GT PUSH2 0x6F JUMPI DUP1 PUSH4 0xF480FEC2 EQ PUSH2 0xADB JUMPI DUP1 PUSH4 0xFE0BB982 EQ PUSH2 0xAFB JUMPI DUP1 PUSH4 0xFFB54A99 EQ PUSH2 0xB1B JUMPI DUP1 PUSH4 0xFFECF516 EQ PUSH2 0xB35 JUMPI PUSH1 0x0 DUP1 REVERT JUMPDEST DUP1 PUSH4 0xE315A6DA EQ PUSH2 0xA5B JUMPI DUP1 PUSH4 0xE4BF1BED EQ PUSH2 0xA7B JUMPI DUP1 PUSH4 0xEA2F0B37 EQ PUSH2 0xA9B JUMPI DUP1 PUSH4 0xF2FDE38B EQ PUSH2 0xABB JUMPI PUSH1 0x0 DUP1 REVERT JUMPDEST DUP1 PUSH4 0xD55CB78A GT PUSH2 0xDC JUMPI DUP1 PUSH4 0xD55CB78A EQ PUSH2 0x9CA JUMPI DUP1 PUSH4 0xDB0045EC EQ PUSH2 0x9DF JUMPI DUP1 PUSH4 0xDC44B6A0 EQ PUSH2 0x9FF JUMPI DUP1 PUSH4 0xDD62ED3E EQ PUSH2 0xA15 JUMPI PUSH1 0x0 DUP1 REVERT JUMPDEST DUP1 PUSH4 0xCAB03471 EQ PUSH2 0x974 JUMPI DUP1 PUSH4 0xCDB3858F EQ PUSH2 0x98A JUMPI DUP1 PUSH4 0xD1633649 EQ PUSH2 0x9AA JUMPI PUSH1 0x0 DUP1 REVERT JUMPDEST DUP1 PUSH4 0xA850673D GT PUSH2 0x16F JUMPI DUP1 PUSH4 0xC469B6DD GT PUSH2 0x149 JUMPI DUP1 PUSH4 0xC469B6DD EQ PUSH2 0x8CD JUMPI DUP1 PUSH4 0xC5D24189 EQ PUSH2 0x8E3 JUMPI DUP1 PUSH4 0xC8607952 EQ PUSH2 0x8F9 JUMPI DUP1 PUSH4 0xC95457FF EQ PUSH2 0x90F JUMPI PUSH1 0x0 DUP1 REVERT JUMPDEST DUP1 PUSH4 0xA850673D EQ PUSH2 0x878 JUMPI DUP1 PUSH4 0xA9059CBB EQ PUSH2 0x898 JUMPI DUP1 PUSH4 0xC3C8CD80 EQ PUSH2 0x8B8 JUMPI PUSH1 0x0 DUP1 REVERT JUMPDEST DUP1 PUSH4 0x9491F94D GT PUSH2 0x1AB JUMPI DUP1 PUSH4 0x9491F94D EQ PUSH2 0x7C8 JUMPI DUP1 PUSH4 0x95D89B41 EQ PUSH2 0x7DD JUMPI DUP1 PUSH4 0x99A7B9BC EQ PUSH2 0x823 JUMPI DUP1 PUSH4 0x9D82190F EQ PUSH2 0x838 JUMPI PUSH1 0x0 DUP1 REVERT JUMPDEST DUP1 PUSH4 0x88790A68 EQ PUSH2 0x77F JUMPI DUP1 PUSH4 0x8DA5CB5B EQ PUSH2 0x795 JUMPI DUP1 PUSH4 0x8E360253 EQ PUSH2 0x7B3 JUMPI PUSH1 0x0 DUP1 REVERT JUMPDEST DUP1 PUSH4 0x39A53C4E GT PUSH2 0x2B6 JUMPI DUP1 PUSH4 0x6C0A24EB GT PUSH2 0x254 JUMPI DUP1 PUSH4 0x729CB3F2 GT PUSH2 0x223 JUMPI DUP1 PUSH4 0x729CB3F2 EQ PUSH2 0x6F1 JUMPI DUP1 PUSH4 0x72B2AECC EQ PUSH2 0x711 JUMPI DUP1 PUSH4 0x787A08A6 EQ PUSH2 0x727 JUMPI DUP1 PUSH4 0x80670F3C EQ PUSH2 0x76A JUMPI PUSH1 0x0 DUP1 REVERT JUMPDEST DUP1 PUSH4 0x6C0A24EB EQ PUSH2 0x67B JUMPI DUP1 PUSH4 0x6FC3EAEC EQ PUSH2 0x691 JUMPI DUP1 PUSH4 0x70A08231 EQ PUSH2 0x6A6 JUMPI DUP1 PUSH4 0x715018A6 EQ PUSH2 0x6DC JUMPI PUSH1 0x0 DUP1 REVERT JUMPDEST DUP1 PUSH4 0x437823EC GT PUSH2 0x290 JUMPI DUP1 PUSH4 0x437823EC EQ PUSH2 0x5EE JUMPI DUP1 PUSH4 0x49BD5A5E EQ PUSH2 0x60E JUMPI DUP1 PUSH4 0x5FECD926 EQ PUSH2 0x646 JUMPI DUP1 PUSH4 0x6AABFF3F EQ PUSH2 0x666 JUMPI PUSH1 0x0 DUP1 REVERT JUMPDEST DUP1 PUSH4 0x39A53C4E EQ PUSH2 0x57F JUMPI DUP1 PUSH4 0x3BBAC579 EQ PUSH2 0x5A1 JUMPI DUP1 PUSH4 0x3E0F966D EQ PUSH2 0x5D9 JUMPI PUSH1 0x0 DUP1 REVERT JUMPDEST DUP1 PUSH4 0x248DD232 GT PUSH2 0x323 JUMPI DUP1 PUSH4 0x29409395 GT PUSH2 0x2FD JUMPI DUP1 PUSH4 0x29409395 EQ PUSH2 0x502 JUMPI DUP1 PUSH4 0x301AD558 EQ PUSH2 0x522 JUMPI DUP1 PUSH4 0x313CE567 EQ PUSH2 0x543 JUMPI DUP1 PUSH4 0x323BE1C5 EQ PUSH2 0x55F JUMPI PUSH1 0x0 DUP1 REVERT JUMPDEST DUP1 PUSH4 0x248DD232 EQ PUSH2 0x4B6 JUMPI DUP1 PUSH4 0x27A14FC2 EQ PUSH2 0x4CC JUMPI DUP1 PUSH4 0x2843631D EQ PUSH2 0x4EC JUMPI PUSH1 0x0 DUP1 REVERT JUMPDEST DUP1 PUSH4 0x14EB76AC GT PUSH2 0x35F JUMPI DUP1 PUSH4 0x14EB76AC EQ PUSH2 0x439 JUMPI DUP1 PUSH4 0x18160DDD EQ PUSH2 0x45B JUMPI DUP1 PUSH4 0x2369BF83 EQ PUSH2 0x476 JUMPI DUP1 PUSH4 0x23B872DD EQ PUSH2 0x496 JUMPI PUSH1 0x0 DUP1 REVERT JUMPDEST DUP1 PUSH4 0x1A6C43B EQ PUSH2 0x391 JUMPI DUP1 PUSH4 0x6FDDE03 EQ PUSH2 0x3BA JUMPI DUP1 PUSH4 0x95EA7B3 EQ PUSH2 0x409 JUMPI PUSH1 0x0 DUP1 REVERT JUMPDEST CALLDATASIZE PUSH2 0x38C JUMPI STOP JUMPDEST PUSH1 0x0 DUP1 REVERT JUMPDEST CALLVALUE DUP1 ISZERO PUSH2 0x39D JUMPI PUSH1 0x0 DUP1 REVERT JUMPDEST POP PUSH2 0x3A7 PUSH1 0x8 SLOAD DUP2 JUMP JUMPDEST PUSH1 0x40 MLOAD SWAP1 DUP2 MSTORE PUSH1 0x20 ADD JUMPDEST PUSH1 0x40 MLOAD DUP1 SWAP2 SUB SWAP1 RETURN JUMPDEST CALLVALUE DUP1 ISZERO PUSH2 0x3C6 JUMPI PUSH1 0x0 DUP1 REVERT JUMPDEST POP PUSH1 0x40 DUP1 MLOAD DUP1 DUP3 ADD SWAP1 SWAP2 MSTORE PUSH1 0x9 DUP2 MSTORE PUSH32 0x4761696E5A696C6C610000000000000000000000000000000000000000000000 PUSH1 0x20 DUP3 ADD MSTORE JUMPDEST PUSH1 0x40 MLOAD PUSH2 0x3B1 SWAP2 SWAP1 PUSH2 0x39C1 JUMP JUMPDEST CALLVALUE DUP1 ISZERO PUSH2 0x415 JUMPI PUSH1 0x0 DUP1 REVERT JUMPDEST POP PUSH2 0x429 PUSH2 0x424 CALLDATASIZE PUSH1 0x4 PUSH2 0x3846 JUMP JUMPDEST PUSH2 0xB55 JUMP JUMPDEST PUSH1 0x40 MLOAD SWAP1 ISZERO ISZERO DUP2 MSTORE PUSH1 0x20 ADD PUSH2 0x3B1 JUMP JUMPDEST CALLVALUE DUP1 ISZERO PUSH2 0x445 JUMPI PUSH1 0x0 DUP1 REVERT JUMPDEST POP PUSH2 0x459 PUSH2 0x454 CALLDATASIZE PUSH1 0x4 PUSH2 0x3796 JUMP JUMPDEST PUSH2 0xB6C JUMP JUMPDEST STOP JUMPDEST CALLVALUE DUP1 ISZERO PUSH2 0x467 JUMPI PUSH1 0x0 DUP1 REVERT JUMPDEST POP PUSH8 0xDE0B6B3A7640000 PUSH2 0x3A7 JUMP JUMPDEST CALLVALUE DUP1 ISZERO PUSH2 0x482 JUMPI PUSH1 0x0 DUP1 REVERT JUMPDEST POP PUSH2 0x459 PUSH2 0x491 CALLDATASIZE PUSH1 0x4 PUSH2 0x3796 JUMP JUMPDEST PUSH2 0xC05 JUMP JUMPDEST CALLVALUE DUP1 ISZERO PUSH2 0x4A2 JUMPI PUSH1 0x0 DUP1 REVERT JUMPDEST POP PUSH2 0x429 PUSH2 0x4B1 CALLDATASIZE PUSH1 0x4 PUSH2 0x3806 JUMP JUMPDEST PUSH2 0xC99 JUMP JUMPDEST CALLVALUE DUP1 ISZERO PUSH2 0x4C2 JUMPI PUSH1 0x0 DUP1 REVERT JUMPDEST POP PUSH2 0x3A7 PUSH1 0x13 SLOAD DUP2 JUMP JUMPDEST CALLVALUE DUP1 ISZERO PUSH2 0x4D8 JUMPI PUSH1 0x0 DUP1 REVERT JUMPDEST POP PUSH2 0x459 PUSH2 0x4E7 CALLDATASIZE PUSH1 0x4 PUSH2 0x3933 JUMP JUMPDEST PUSH2 0xD02 JUMP JUMPDEST CALLVALUE DUP1 ISZERO PUSH2 0x4F8 JUMPI PUSH1 0x0 DUP1 REVERT JUMPDEST POP PUSH2 0x3A7 PUSH1 0xB SLOAD DUP2 JUMP JUMPDEST CALLVALUE DUP1 ISZERO PUSH2 0x50E JUMPI PUSH1 0x0 DUP1 REVERT JUMPDEST POP PUSH2 0x459 PUSH2 0x51D CALLDATASIZE PUSH1 0x4 PUSH2 0x3796 JUMP JUMPDEST PUSH2 0xE68 JUMP JUMPDEST CALLVALUE DUP1 ISZERO PUSH2 0x52E JUMPI PUSH1 0x0 DUP1 REVERT JUMPDEST POP PUSH1 0x28 SLOAD PUSH2 0x429 SWAP1 PUSH4 0x1000000 SWAP1 DIV PUSH1 0xFF AND DUP2 JUMP JUMPDEST CALLVALUE DUP1 ISZERO PUSH2 0x54F JUMPI PUSH1 0x0 DUP1 REVERT JUMPDEST POP PUSH1 0x40 MLOAD PUSH1 0x9 DUP2 MSTORE PUSH1 0x20 ADD PUSH2 0x3B1 JUMP JUMPDEST CALLVALUE DUP1 ISZERO PUSH2 0x56B JUMPI PUSH1 0x0 DUP1 REVERT JUMPDEST POP PUSH1 0x28 SLOAD PUSH2 0x429 SWAP1 PUSH3 0x10000 SWAP1 DIV PUSH1 0xFF AND DUP2 JUMP JUMPDEST CALLVALUE DUP1 ISZERO PUSH2 0x58B JUMPI PUSH1 0x0 DUP1 REVERT JUMPDEST POP PUSH1 0x28 SLOAD PUSH2 0x429 SWAP1 PUSH5 0x100000000 SWAP1 DIV PUSH1 0xFF AND DUP2 JUMP JUMPDEST CALLVALUE DUP1 ISZERO PUSH2 0x5AD JUMPI PUSH1 0x0 DUP1 REVERT JUMPDEST POP PUSH2 0x429 PUSH2 0x5BC CALLDATASIZE PUSH1 0x4 PUSH2 0x3796 JUMP JUMPDEST PUSH1 0x1 PUSH1 0x1 PUSH1 0xA0 SHL SUB AND PUSH1 0x0 SWAP1 DUP2 MSTORE PUSH1 0x20 DUP1 MSTORE PUSH1 0x40 SWAP1 KECCAK256 SLOAD PUSH1 0xFF AND SWAP1 JUMP JUMPDEST CALLVALUE DUP1 ISZERO PUSH2 0x5E5 JUMPI PUSH1 0x0 DUP1 REVERT JUMPDEST POP PUSH2 0x459 PUSH2 0x1015 JUMP JUMPDEST CALLVALUE DUP1 ISZERO PUSH2 0x5FA JUMPI PUSH1 0x0 DUP1 REVERT JUMPDEST POP PUSH2 0x459 PUSH2 0x609 CALLDATASIZE PUSH1 0x4 PUSH2 0x3796 JUMP JUMPDEST PUSH2 0x10D3 JUMP JUMPDEST CALLVALUE DUP1 ISZERO PUSH2 0x61A JUMPI PUSH1 0x0 DUP1 REVERT JUMPDEST POP PUSH1 0x26 SLOAD PUSH2 0x62E SWAP1 PUSH1 0x1 PUSH1 0x1 PUSH1 0xA0 SHL SUB AND DUP2 JUMP JUMPDEST PUSH1 0x40 MLOAD PUSH1 0x1 PUSH1 0x1 PUSH1 0xA0 SHL SUB SWAP1 SWAP2 AND DUP2 MSTORE PUSH1 0x20 ADD PUSH2 0x3B1 JUMP JUMPDEST CALLVALUE DUP1 ISZERO PUSH2 0x652 JUMPI PUSH1 0x0 DUP1 REVERT JUMPDEST POP PUSH2 0x459 PUSH2 0x661 CALLDATASIZE PUSH1 0x4 PUSH2 0x3796 JUMP JUMPDEST PUSH2 0x1151 JUMP JUMPDEST CALLVALUE DUP1 ISZERO PUSH2 0x672 JUMPI PUSH1 0x0 DUP1 REVERT JUMPDEST POP PUSH2 0x459 PUSH2 0x11CB JUMP JUMPDEST CALLVALUE DUP1 ISZERO PUSH2 0x687 JUMPI PUSH1 0x0 DUP1 REVERT JUMPDEST POP PUSH2 0x3A7 PUSH1 0x7 SLOAD DUP2 JUMP JUMPDEST CALLVALUE DUP1 ISZERO PUSH2 0x69D JUMPI PUSH1 0x0 DUP1 REVERT JUMPDEST POP PUSH2 0x459 PUSH2 0x124F JUMP JUMPDEST CALLVALUE DUP1 ISZERO PUSH2 0x6B2 JUMPI PUSH1 0x0 DUP1 REVERT JUMPDEST POP PUSH2 0x3A7 PUSH2 0x6C1 CALLDATASIZE PUSH1 0x4 PUSH2 0x3796 JUMP JUMPDEST PUSH1 0x1 PUSH1 0x1 PUSH1 0xA0 SHL SUB AND PUSH1 0x0 SWAP1 DUP2 MSTORE PUSH1 0x2 PUSH1 0x20 MSTORE PUSH1 0x40 SWAP1 KECCAK256 SLOAD SWAP1 JUMP JUMPDEST CALLVALUE DUP1 ISZERO PUSH2 0x6E8 JUMPI PUSH1 0x0 DUP1 REVERT JUMPDEST POP PUSH2 0x459 PUSH2 0x12EE JUMP JUMPDEST CALLVALUE DUP1 ISZERO PUSH2 0x6FD JUMPI PUSH1 0x0 DUP1 REVERT JUMPDEST POP PUSH2 0x459 PUSH2 0x70C CALLDATASIZE PUSH1 0x4 PUSH2 0x38C0 JUMP JUMPDEST PUSH2 0x13AA JUMP JUMPDEST CALLVALUE DUP1 ISZERO PUSH2 0x71D JUMPI PUSH1 0x0 DUP1 REVERT JUMPDEST POP PUSH2 0x3A7 PUSH1 0x19 SLOAD DUP2 JUMP JUMPDEST CALLVALUE DUP1 ISZERO PUSH2 0x733 JUMPI PUSH1 0x0 DUP1 REVERT JUMPDEST POP PUSH1 0x1A SLOAD PUSH2 0x74E SWAP1 PUSH1 0xFF DUP2 AND SWAP1 PUSH2 0x100 SWAP1 DIV PUSH4 0xFFFFFFFF AND DUP3 JUMP JUMPDEST PUSH1 0x40 DUP1 MLOAD SWAP3 ISZERO ISZERO DUP4 MSTORE PUSH4 0xFFFFFFFF SWAP1 SWAP2 AND PUSH1 0x20 DUP4 ADD MSTORE ADD PUSH2 0x3B1 JUMP JUMPDEST CALLVALUE DUP1 ISZERO PUSH2 0x776 JUMPI PUSH1 0x0 DUP1 REVERT JUMPDEST POP PUSH2 0x3A7 PUSH2 0x145C JUMP JUMPDEST CALLVALUE DUP1 ISZERO PUSH2 0x78B JUMPI PUSH1 0x0 DUP1 REVERT JUMPDEST POP PUSH2 0x3A7 PUSH1 0x11 SLOAD DUP2 JUMP JUMPDEST CALLVALUE DUP1 ISZERO PUSH2 0x7A1 JUMPI PUSH1 0x0 DUP1 REVERT JUMPDEST POP PUSH1 0x0 SLOAD PUSH1 0x1 PUSH1 0x1 PUSH1 0xA0 SHL SUB AND PUSH2 0x62E JUMP JUMPDEST CALLVALUE DUP1 ISZERO PUSH2 0x7BF JUMPI PUSH1 0x0 DUP1 REVERT JUMPDEST POP PUSH2 0x459 PUSH2 0x14D0 JUMP JUMPDEST CALLVALUE DUP1 ISZERO PUSH2 0x7D4 JUMPI PUSH1 0x0 DUP1 REVERT JUMPDEST POP PUSH2 0x3A7 PUSH2 0x1539 JUMP JUMPDEST CALLVALUE DUP1 ISZERO PUSH2 0x7E9 JUMPI PUSH1 0x0 DUP1 REVERT JUMPDEST POP PUSH1 0x40 DUP1 MLOAD DUP1 DUP3 ADD SWAP1 SWAP2 MSTORE PUSH1 0x4 DUP2 MSTORE PUSH32 0x5241575200000000000000000000000000000000000000000000000000000000 PUSH1 0x20 DUP3 ADD MSTORE PUSH2 0x3FC JUMP JUMPDEST CALLVALUE DUP1 ISZERO PUSH2 0x82F JUMPI PUSH1 0x0 DUP1 REVERT JUMPDEST POP PUSH2 0x459 PUSH2 0x1707 JUMP JUMPDEST CALLVALUE DUP1 ISZERO PUSH2 0x844 JUMPI PUSH1 0x0 DUP1 REVERT JUMPDEST POP PUSH2 0x858 PUSH2 0x853 CALLDATASIZE PUSH1 0x4 PUSH2 0x3796 JUMP JUMPDEST PUSH2 0x178B JUMP JUMPDEST PUSH1 0x40 DUP1 MLOAD SWAP5 DUP6 MSTORE PUSH1 0x20 DUP6 ADD SWAP4 SWAP1 SWAP4 MSTORE SWAP2 DUP4 ADD MSTORE PUSH1 0x60 DUP3 ADD MSTORE PUSH1 0x80 ADD PUSH2 0x3B1 JUMP JUMPDEST CALLVALUE DUP1 ISZERO PUSH2 0x884 JUMPI PUSH1 0x0 DUP1 REVERT JUMPDEST POP PUSH2 0x459 PUSH2 0x893 CALLDATASIZE PUSH1 0x4 PUSH2 0x3933 JUMP JUMPDEST PUSH2 0x183A JUMP JUMPDEST CALLVALUE DUP1 ISZERO PUSH2 0x8A4 JUMPI PUSH1 0x0 DUP1 REVERT JUMPDEST POP PUSH2 0x429 PUSH2 0x8B3 CALLDATASIZE PUSH1 0x4 PUSH2 0x3846 JUMP JUMPDEST PUSH2 0x1899 JUMP JUMPDEST CALLVALUE DUP1 ISZERO PUSH2 0x8C4 JUMPI PUSH1 0x0 DUP1 REVERT JUMPDEST POP PUSH2 0x459 PUSH2 0x18A6 JUMP JUMPDEST CALLVALUE DUP1 ISZERO PUSH2 0x8D9 JUMPI PUSH1 0x0 DUP1 REVERT JUMPDEST POP PUSH2 0x3A7 PUSH1 0xF SLOAD DUP2 JUMP JUMPDEST CALLVALUE DUP1 ISZERO PUSH2 0x8EF JUMPI PUSH1 0x0 DUP1 REVERT JUMPDEST POP PUSH2 0x3A7 PUSH1 0xD SLOAD DUP2 JUMP JUMPDEST CALLVALUE DUP1 ISZERO PUSH2 0x905 JUMPI PUSH1 0x0 DUP1 REVERT JUMPDEST POP PUSH2 0x3A7 PUSH1 0x15 SLOAD DUP2 JUMP JUMPDEST CALLVALUE DUP1 ISZERO PUSH2 0x91B JUMPI PUSH1 0x0 DUP1 REVERT JUMPDEST POP PUSH1 0x1C SLOAD PUSH1 0x1D SLOAD PUSH1 0x1E SLOAD PUSH1 0x1F SLOAD PUSH2 0x945 SWAP4 PUSH1 0xFF DUP1 DUP3 AND SWAP5 PUSH2 0x100 SWAP1 SWAP3 DIV PUSH2 0xFFFF AND SWAP4 SWAP2 SWAP3 SWAP2 AND SWAP1 DUP6 JUMP JUMPDEST PUSH1 0x40 DUP1 MLOAD SWAP6 ISZERO ISZERO DUP7 MSTORE PUSH2 0xFFFF SWAP1 SWAP5 AND PUSH1 0x20 DUP7 ADD MSTORE SWAP3 DUP5 ADD SWAP2 SWAP1 SWAP2 MSTORE ISZERO ISZERO PUSH1 0x60 DUP4 ADD MSTORE PUSH1 0x80 DUP3 ADD MSTORE PUSH1 0xA0 ADD PUSH2 0x3B1 JUMP JUMPDEST CALLVALUE DUP1 ISZERO PUSH2 0x980 JUMPI PUSH1 0x0 DUP1 REVERT JUMPDEST POP PUSH2 0x3A7 PUSH1 0x17 SLOAD DUP2 JUMP JUMPDEST CALLVALUE DUP1 ISZERO PUSH2 0x996 JUMPI PUSH1 0x0 DUP1 REVERT JUMPDEST POP PUSH2 0x459 PUSH2 0x9A5 CALLDATASIZE PUSH1 0x4 PUSH2 0x3796 JUMP JUMPDEST PUSH2 0x191F JUMP JUMPDEST CALLVALUE DUP1 ISZERO PUSH2 0x9B6 JUMPI PUSH1 0x0 DUP1 REVERT JUMPDEST POP PUSH2 0x459 PUSH2 0x9C5 CALLDATASIZE PUSH1 0x4 PUSH2 0x3933 JUMP JUMPDEST PUSH2 0x19B3 JUMP JUMPDEST CALLVALUE DUP1 ISZERO PUSH2 0x9D6 JUMPI PUSH1 0x0 DUP1 REVERT JUMPDEST POP PUSH2 0x459 PUSH2 0x1A23 JUMP JUMPDEST CALLVALUE DUP1 ISZERO PUSH2 0x9EB JUMPI PUSH1 0x0 DUP1 REVERT JUMPDEST POP PUSH2 0x459 PUSH2 0x9FA CALLDATASIZE PUSH1 0x4 PUSH2 0x3796 JUMP JUMPDEST PUSH2 0x1AA7 JUMP JUMPDEST CALLVALUE DUP1 ISZERO PUSH2 0xA0B JUMPI PUSH1 0x0 DUP1 REVERT JUMPDEST POP PUSH2 0x3A7 PUSH1 0x9 SLOAD DUP2 JUMP JUMPDEST CALLVALUE DUP1 ISZERO PUSH2 0xA21 JUMPI PUSH1 0x0 DUP1 REVERT JUMPDEST POP PUSH2 0x3A7 PUSH2 0xA30 CALLDATASIZE PUSH1 0x4 PUSH2 0x37CE JUMP JUMPDEST PUSH1 0x1 PUSH1 0x1 PUSH1 0xA0 SHL SUB SWAP2 DUP3 AND PUSH1 0x0 SWAP1 DUP2 MSTORE PUSH1 0x3 PUSH1 0x20 SWAP1 DUP2 MSTORE PUSH1 0x40 DUP1 DUP4 KECCAK256 SWAP4 SWAP1 SWAP5 AND DUP3 MSTORE SWAP2 SWAP1 SWAP2 MSTORE KECCAK256 SLOAD SWAP1 JUMP JUMPDEST CALLVALUE DUP1 ISZERO PUSH2 0xA67 JUMPI PUSH1 0x0 DUP1 REVERT JUMPDEST POP PUSH2 0x459 PUSH2 0xA76 CALLDATASIZE PUSH1 0x4 PUSH2 0x3933 JUMP JUMPDEST PUSH2 0x1B3B JUMP JUMPDEST CALLVALUE DUP1 ISZERO PUSH2 0xA87 JUMPI PUSH1 0x0 DUP1 REVERT JUMPDEST POP PUSH2 0x459 PUSH2 0xA96 CALLDATASIZE PUSH1 0x4 PUSH2 0x3990 JUMP JUMPDEST PUSH2 0x1B9A JUMP JUMPDEST CALLVALUE DUP1 ISZERO PUSH2 0xAA7 JUMPI PUSH1 0x0 DUP1 REVERT JUMPDEST POP PUSH2 0x459 PUSH2 0xAB6 CALLDATASIZE PUSH1 0x4 PUSH2 0x3796 JUMP JUMPDEST PUSH2 0x1D57 JUMP JUMPDEST CALLVALUE DUP1 ISZERO PUSH2 0xAC7 JUMPI PUSH1 0x0 DUP1 REVERT JUMPDEST POP PUSH2 0x459 PUSH2 0xAD6 CALLDATASIZE PUSH1 0x4 PUSH2 0x3796 JUMP JUMPDEST PUSH2 0x1DD2 JUMP JUMPDEST CALLVALUE DUP1 ISZERO PUSH2 0xAE7 JUMPI PUSH1 0x0 DUP1 REVERT JUMPDEST POP PUSH2 0x459 PUSH2 0xAF6 CALLDATASIZE PUSH1 0x4 PUSH2 0x3990 JUMP JUMPDEST PUSH2 0x1EB1 JUMP JUMPDEST CALLVALUE DUP1 ISZERO PUSH2 0xB07 JUMPI PUSH1 0x0 DUP1 REVERT JUMPDEST POP PUSH2 0x459 PUSH2 0xB16 CALLDATASIZE PUSH1 0x4 PUSH2 0x388D JUMP JUMPDEST PUSH2 0x205D JUMP JUMPDEST CALLVALUE DUP1 ISZERO PUSH2 0xB27 JUMPI PUSH1 0x0 DUP1 REVERT JUMPDEST POP PUSH1 0x28 SLOAD PUSH2 0x429 SWAP1 PUSH1 0xFF AND DUP2 JUMP JUMPDEST CALLVALUE DUP1 ISZERO PUSH2 0xB41 JUMPI PUSH1 0x0 DUP1 REVERT JUMPDEST POP PUSH2 0x459 PUSH2 0xB50 CALLDATASIZE PUSH1 0x4 PUSH2 0x3796 JUMP JUMPDEST PUSH2 0x21B9 JUMP JUMPDEST PUSH1 0x0 PUSH2 0xB62 CALLER DUP5 DUP5 PUSH2 0x22B5 JUMP JUMPDEST POP PUSH1 0x1 JUMPDEST SWAP3 SWAP2 POP POP JUMP JUMPDEST PUSH1 0x0 SLOAD PUSH1 0x1 PUSH1 0x1 PUSH1 0xA0 SHL SUB AND CALLER EQ PUSH2 0xBCB JUMPI PUSH1 0x40 MLOAD PUSH3 0x461BCD PUSH1 0xE5 SHL DUP2 MSTORE PUSH1 0x20 PUSH1 0x4 DUP3 ADD DUP2 SWAP1 MSTORE PUSH1 0x24 DUP3 ADD MSTORE PUSH32 0x4F776E61626C653A2063616C6C6572206973206E6F7420746865206F776E6572 PUSH1 0x44 DUP3 ADD MSTORE PUSH1 0x64 ADD JUMPDEST PUSH1 0x40 MLOAD DUP1 SWAP2 SUB SWAP1 REVERT JUMPDEST PUSH1 0x22 DUP1 SLOAD PUSH32 0xFFFFFFFFFFFFFFFFFFFFFFFF0000000000000000000000000000000000000000 AND PUSH1 0x1 PUSH1 0x1 PUSH1 0xA0 SHL SUB SWAP3 SWAP1 SWAP3 AND SWAP2 SWAP1 SWAP2 OR SWAP1 SSTORE JUMP JUMPDEST PUSH1 0x0 SLOAD PUSH1 0x1 PUSH1 0x1 PUSH1 0xA0 SHL SUB AND CALLER EQ PUSH2 0xC5F JUMPI PUSH1 0x40 MLOAD PUSH3 0x461BCD PUSH1 0xE5 SHL DUP2 MSTORE PUSH1 0x20 PUSH1 0x4 DUP3 ADD DUP2 SWAP1 MSTORE PUSH1 0x24 DUP3 ADD MSTORE PUSH32 0x4F776E61626C653A2063616C6C6572206973206E6F7420746865206F776E6572 PUSH1 0x44 DUP3 ADD MSTORE PUSH1 0x64 ADD PUSH2 0xBC2 JUMP JUMPDEST PUSH1 0x21 DUP1 SLOAD PUSH32 0xFFFFFFFFFFFFFFFFFFFFFFFF0000000000000000000000000000000000000000 AND PUSH1 0x1 PUSH1 0x1 PUSH1 0xA0 SHL SUB SWAP3 SWAP1 SWAP3 AND SWAP2 SWAP1 SWAP2 OR SWAP1 SSTORE JUMP JUMPDEST PUSH1 0x0 PUSH2 0xCA6 DUP5 DUP5 DUP5 PUSH2 0x240D JUMP JUMPDEST PUSH2 0xCF8 DUP5 CALLER PUSH2 0xCF3 DUP6 PUSH1 0x40 MLOAD DUP1 PUSH1 0x60 ADD PUSH1 0x40 MSTORE DUP1 PUSH1 0x28 DUP2 MSTORE PUSH1 0x20 ADD PUSH2 0x3C2C PUSH1 0x28 SWAP2 CODECOPY PUSH1 0x1 PUSH1 0x1 PUSH1 0xA0 SHL SUB DUP11 AND PUSH1 0x0 SWAP1 DUP2 MSTORE PUSH1 0x3 PUSH1 0x20 SWAP1 DUP2 MSTORE PUSH1 0x40 DUP1 DUP4 KECCAK256 CALLER DUP5 MSTORE SWAP1 SWAP2 MSTORE SWAP1 KECCAK256 SLOAD SWAP2 SWAP1 PUSH2 0x2B42 JUMP JUMPDEST PUSH2 0x22B5 JUMP JUMPDEST POP PUSH1 0x1 SWAP4 SWAP3 POP POP POP JUMP JUMPDEST PUSH1 0x0 SLOAD PUSH1 0x1 PUSH1 0x1 PUSH1 0xA0 SHL SUB AND CALLER EQ PUSH2 0xD5C JUMPI PUSH1 0x40 MLOAD PUSH3 0x461BCD PUSH1 0xE5 SHL DUP2 MSTORE PUSH1 0x20 PUSH1 0x4 DUP3 ADD DUP2 SWAP1 MSTORE PUSH1 0x24 DUP3 ADD MSTORE PUSH32 0x4F776E61626C653A2063616C6C6572206973206E6F7420746865206F776E6572 PUSH1 0x44 DUP3 ADD MSTORE PUSH1 0x64 ADD PUSH2 0xBC2 JUMP JUMPDEST PUSH2 0xD70 PUSH8 0xDE0B6B3A7640000 PUSH2 0x3E8 PUSH2 0x2B7C JUMP JUMPDEST DUP2 LT ISZERO PUSH2 0xDE5 JUMPI PUSH1 0x40 MLOAD PUSH3 0x461BCD PUSH1 0xE5 SHL DUP2 MSTORE PUSH1 0x20 PUSH1 0x4 DUP3 ADD MSTORE PUSH1 0x2A PUSH1 0x24 DUP3 ADD MSTORE PUSH32 0x416D6F756E74206D7573742062652067726561746572207468616E20302E3125 PUSH1 0x44 DUP3 ADD MSTORE PUSH32 0x206F6620737570706C7900000000000000000000000000000000000000000000 PUSH1 0x64 DUP3 ADD MSTORE PUSH1 0x84 ADD PUSH2 0xBC2 JUMP JUMPDEST PUSH8 0xDE0B6B3A7640000 DUP2 GT ISZERO PUSH2 0xE63 JUMPI PUSH1 0x40 MLOAD PUSH3 0x461BCD PUSH1 0xE5 SHL DUP2 MSTORE PUSH1 0x20 PUSH1 0x4 DUP3 ADD MSTORE PUSH1 0x30 PUSH1 0x24 DUP3 ADD MSTORE PUSH32 0x416D6F756E74206D757374206265206C657373207468616E206F722065717561 PUSH1 0x44 DUP3 ADD MSTORE PUSH32 0x6C20746F20746F74616C537570706C7900000000000000000000000000000000 PUSH1 0x64 DUP3 ADD MSTORE PUSH1 0x84 ADD PUSH2 0xBC2 JUMP JUMPDEST PUSH1 0x7 SSTORE JUMP JUMPDEST PUSH1 0x0 SLOAD PUSH1 0x1 PUSH1 0x1 PUSH1 0xA0 SHL SUB AND CALLER EQ PUSH2 0xEC2 JUMPI PUSH1 0x40 MLOAD PUSH3 0x461BCD PUSH1 0xE5 SHL DUP2 MSTORE PUSH1 0x20 PUSH1 0x4 DUP3 ADD DUP2 SWAP1 MSTORE PUSH1 0x24 DUP3 ADD MSTORE PUSH32 0x4F776E61626C653A2063616C6C6572206973206E6F7420746865206F776E6572 PUSH1 0x44 DUP3 ADD MSTORE PUSH1 0x64 ADD PUSH2 0xBC2 JUMP JUMPDEST PUSH1 0x40 MLOAD PUSH32 0x70A0823100000000000000000000000000000000000000000000000000000000 DUP2 MSTORE ADDRESS PUSH1 0x4 DUP3 ADD MSTORE PUSH1 0x0 SWAP1 PUSH1 0x1 PUSH1 0x1 PUSH1 0xA0 SHL SUB DUP4 AND SWAP1 PUSH4 0x70A08231 SWAP1 PUSH1 0x24 ADD PUSH1 0x20 PUSH1 0x40 MLOAD DUP1 DUP4 SUB DUP2 DUP7 DUP1 EXTCODESIZE ISZERO DUP1 ISZERO PUSH2 0xF1D JUMPI PUSH1 0x0 DUP1 REVERT JUMPDEST POP GAS STATICCALL ISZERO DUP1 ISZERO PUSH2 0xF31 JUMPI RETURNDATASIZE PUSH1 0x0 DUP1 RETURNDATACOPY RETURNDATASIZE PUSH1 0x0 REVERT JUMPDEST POP POP POP POP PUSH1 0x40 MLOAD RETURNDATASIZE PUSH1 0x1F NOT PUSH1 0x1F DUP3 ADD AND DUP3 ADD DUP1 PUSH1 0x40 MSTORE POP DUP2 ADD SWAP1 PUSH2 0xF55 SWAP2 SWAP1 PUSH2 0x394B JUMP JUMPDEST SWAP1 POP DUP2 PUSH1 0x1 PUSH1 0x1 PUSH1 0xA0 SHL SUB AND PUSH4 0xA9059CBB PUSH2 0xF78 PUSH1 0x0 SLOAD PUSH1 0x1 PUSH1 0x1 PUSH1 0xA0 SHL SUB AND SWAP1 JUMP JUMPDEST PUSH1 0x40 MLOAD PUSH32 0xFFFFFFFF00000000000000000000000000000000000000000000000000000000 PUSH1 0xE0 DUP5 SWAP1 SHL AND DUP2 MSTORE PUSH1 0x1 PUSH1 0x1 PUSH1 0xA0 SHL SUB SWAP1 SWAP2 AND PUSH1 0x4 DUP3 ADD MSTORE PUSH1 0x24 DUP2 ADD DUP5 SWAP1 MSTORE PUSH1 0x44 ADD PUSH1 0x20 PUSH1 0x40 MLOAD DUP1 DUP4 SUB DUP2 PUSH1 0x0 DUP8 DUP1 EXTCODESIZE ISZERO DUP1 ISZERO PUSH2 0xFD8 JUMPI PUSH1 0x0 DUP1 REVERT JUMPDEST POP GAS CALL ISZERO DUP1 ISZERO PUSH2 0xFEC JUMPI RETURNDATASIZE PUSH1 0x0 DUP1 RETURNDATACOPY RETURNDATASIZE PUSH1 0x0 REVERT JUMPDEST POP POP POP POP PUSH1 0x40 MLOAD RETURNDATASIZE PUSH1 0x1F NOT PUSH1 0x1F DUP3 ADD AND DUP3 ADD DUP1 PUSH1 0x40 MSTORE POP DUP2 ADD SWAP1 PUSH2 0x1010 SWAP2 SWAP1 PUSH2 0x3871 JUMP JUMPDEST POP POP POP JUMP JUMPDEST PUSH1 0x0 SLOAD PUSH1 0x1 PUSH1 0x1 PUSH1 0xA0 SHL SUB AND CALLER EQ PUSH2 0x106F JUMPI PUSH1 0x40 MLOAD PUSH3 0x461BCD PUSH1 0xE5 SHL DUP2 MSTORE PUSH1 0x20 PUSH1 0x4 DUP3 ADD DUP2 SWAP1 MSTORE PUSH1 0x24 DUP3 ADD MSTORE PUSH32 0x4F776E61626C653A2063616C6C6572206973206E6F7420746865206F776E6572 PUSH1 0x44 DUP3 ADD MSTORE PUSH1 0x64 ADD PUSH2 0xBC2 JUMP JUMPDEST PUSH1 0x28 SLOAD PUSH3 0x10000 SWAP1 DIV PUSH1 0xFF AND PUSH2 0x10C7 JUMPI PUSH1 0x40 MLOAD PUSH3 0x461BCD PUSH1 0xE5 SHL DUP2 MSTORE PUSH1 0x20 PUSH1 0x4 DUP3 ADD MSTORE PUSH1 0x1E PUSH1 0x24 DUP3 ADD MSTORE PUSH32 0x7468697320636F6E74726163742063616E6E6F74206265207061757365640000 PUSH1 0x44 DUP3 ADD MSTORE PUSH1 0x64 ADD PUSH2 0xBC2 JUMP JUMPDEST PUSH1 0x28 DUP1 SLOAD PUSH1 0xFF NOT AND SWAP1 SSTORE JUMP JUMPDEST PUSH1 0x0 SLOAD PUSH1 0x1 PUSH1 0x1 PUSH1 0xA0 SHL SUB AND CALLER EQ PUSH2 0x112D JUMPI PUSH1 0x40 MLOAD PUSH3 0x461BCD PUSH1 0xE5 SHL DUP2 MSTORE PUSH1 0x20 PUSH1 0x4 DUP3 ADD DUP2 SWAP1 MSTORE PUSH1 0x24 DUP3 ADD MSTORE PUSH32 0x4F776E61626C653A2063616C6C6572206973206E6F7420746865206F776E6572 PUSH1 0x44 DUP3 ADD MSTORE PUSH1 0x64 ADD PUSH2 0xBC2 JUMP JUMPDEST PUSH1 0x1 PUSH1 0x1 PUSH1 0xA0 SHL SUB AND PUSH1 0x0 SWAP1 DUP2 MSTORE PUSH1 0x4 PUSH1 0x20 MSTORE PUSH1 0x40 SWAP1 KECCAK256 DUP1 SLOAD PUSH1 0xFF NOT AND PUSH1 0x1 OR SWAP1 SSTORE JUMP JUMPDEST PUSH1 0x0 SLOAD PUSH1 0x1 PUSH1 0x1 PUSH1 0xA0 SHL SUB AND CALLER EQ PUSH2 0x11AB JUMPI PUSH1 0x40 MLOAD PUSH3 0x461BCD PUSH1 0xE5 SHL DUP2 MSTORE PUSH1 0x20 PUSH1 0x4 DUP3 ADD DUP2 SWAP1 MSTORE PUSH1 0x24 DUP3 ADD MSTORE PUSH32 0x4F776E61626C653A2063616C6C6572206973206E6F7420746865206F776E6572 PUSH1 0x44 DUP3 ADD MSTORE PUSH1 0x64 ADD PUSH2 0xBC2 JUMP JUMPDEST PUSH1 0x1 PUSH1 0x1 PUSH1 0xA0 SHL SUB AND PUSH1 0x0 SWAP1 DUP2 MSTORE PUSH1 0x20 DUP1 MSTORE PUSH1 0x40 SWAP1 KECCAK256 DUP1 SLOAD PUSH1 0xFF NOT AND SWAP1 SSTORE JUMP JUMPDEST PUSH1 0x0 SLOAD PUSH1 0x1 PUSH1 0x1 PUSH1 0xA0 SHL SUB AND CALLER EQ PUSH2 0x1225 JUMPI PUSH1 0x40 MLOAD PUSH3 0x461BCD PUSH1 0xE5 SHL DUP2 MSTORE PUSH1 0x20 PUSH1 0x4 DUP3 ADD DUP2 SWAP1 MSTORE PUSH1 0x24 DUP3 ADD MSTORE PUSH32 0x4F776E61626C653A2063616C6C6572206973206E6F7420746865206F776E6572 PUSH1 0x44 DUP3 ADD MSTORE PUSH1 0x64 ADD PUSH2 0xBC2 JUMP JUMPDEST PUSH1 0x28 DUP1 SLOAD PUSH32 0xFFFFFFFFFFFFFFFFFFFFFFFFFFFFFFFFFFFFFFFFFFFFFFFFFFFFFFFFFF00FFFF AND SWAP1 SSTORE JUMP JUMPDEST PUSH1 0x0 SLOAD PUSH1 0x1 PUSH1 0x1 PUSH1 0xA0 SHL SUB AND CALLER EQ PUSH2 0x12A9 JUMPI PUSH1 0x40 MLOAD PUSH3 0x461BCD PUSH1 0xE5 SHL DUP2 MSTORE PUSH1 0x20 PUSH1 0x4 DUP3 ADD DUP2 SWAP1 MSTORE PUSH1 0x24 DUP3 ADD MSTORE PUSH32 0x4F776E61626C653A2063616C6C6572206973206E6F7420746865206F776E6572 PUSH1 0x44 DUP3 ADD MSTORE PUSH1 0x64 ADD PUSH2 0xBC2 JUMP JUMPDEST SELFBALANCE DUP1 ISZERO PUSH2 0x12EB JUMPI PUSH1 0x0 DUP1 SLOAD PUSH1 0x40 MLOAD PUSH1 0x1 PUSH1 0x1 PUSH1 0xA0 SHL SUB SWAP1 SWAP2 AND SWAP2 DUP4 ISZERO PUSH2 0x8FC MUL SWAP2 DUP5 SWAP2 DUP2 DUP2 DUP2 DUP6 DUP9 DUP9 CALL SWAP4 POP POP POP POP ISZERO DUP1 ISZERO PUSH2 0x12E9 JUMPI RETURNDATASIZE PUSH1 0x0 DUP1 RETURNDATACOPY RETURNDATASIZE PUSH1 0x0 REVERT JUMPDEST POP JUMPDEST POP JUMP JUMPDEST PUSH1 0x0 SLOAD PUSH1 0x1 PUSH1 0x1 PUSH1 0xA0 SHL SUB AND CALLER EQ PUSH2 0x1348 JUMPI PUSH1 0x40 MLOAD PUSH3 0x461BCD PUSH1 0xE5 SHL DUP2 MSTORE PUSH1 0x20 PUSH1 0x4 DUP3 ADD DUP2 SWAP1 MSTORE PUSH1 0x24 DUP3 ADD MSTORE PUSH32 0x4F776E61626C653A2063616C6C6572206973206E6F7420746865206F776E6572 PUSH1 0x44 DUP3 ADD MSTORE PUSH1 0x64 ADD PUSH2 0xBC2 JUMP JUMPDEST PUSH1 0x0 DUP1 SLOAD PUSH1 0x40 MLOAD PUSH1 0x1 PUSH1 0x1 PUSH1 0xA0 SHL SUB SWAP1 SWAP2 AND SWAP1 PUSH32 0x8BE0079C531659141344CD1FD0A4F28419497F9722A3DAAFE3B4186F6B6457E0 SWAP1 DUP4 SWAP1 LOG3 PUSH1 0x0 DUP1 SLOAD PUSH32 0xFFFFFFFFFFFFFFFFFFFFFFFF0000000000000000000000000000000000000000 AND SWAP1 SSTORE JUMP JUMPDEST PUSH1 0x0 SLOAD PUSH1 0x1 PUSH1 0x1 PUSH1 0xA0 SHL SUB AND CALLER EQ PUSH2 0x1404 JUMPI PUSH1 0x40 MLOAD PUSH3 0x461BCD PUSH1 0xE5 SHL DUP2 MSTORE PUSH1 0x20 PUSH1 0x4 DUP3 ADD DUP2 SWAP1 MSTORE PUSH1 0x24 DUP3 ADD MSTORE PUSH32 0x4F776E61626C653A2063616C6C6572206973206E6F7420746865206F776E6572 PUSH1 0x44 DUP3 ADD MSTORE PUSH1 0x64 ADD PUSH2 0xBC2 JUMP JUMPDEST PUSH1 0x1A DUP1 SLOAD PUSH1 0xFF NOT AND DUP4 ISZERO ISZERO OR SWAP1 SSTORE PUSH2 0x141D DUP2 PUSH1 0x3C PUSH2 0x3B0B JUMP JUMPDEST PUSH1 0x1A DUP1 SLOAD PUSH4 0xFFFFFFFF SWAP3 SWAP1 SWAP3 AND PUSH2 0x100 MUL PUSH32 0xFFFFFFFFFFFFFFFFFFFFFFFFFFFFFFFFFFFFFFFFFFFFFFFFFFFFFF00000000FF SWAP1 SWAP3 AND SWAP2 SWAP1 SWAP2 OR SWAP1 SSTORE POP POP JUMP JUMPDEST PUSH1 0x1D SLOAD PUSH1 0x0 SWAP1 PUSH2 0x146C JUMPI POP PUSH1 0x0 SWAP1 JUMP JUMPDEST PUSH1 0x0 PUSH2 0x1476 PUSH2 0x1539 JUMP JUMPDEST PUSH1 0x1D SLOAD SWAP1 SWAP2 POP DUP2 GT PUSH2 0x14B3 JUMPI PUSH1 0x1D SLOAD PUSH2 0x14A5 SWAP1 PUSH2 0x149F PUSH2 0x3E8 PUSH2 0x1499 DUP4 DUP7 PUSH2 0x2BC5 JUMP JUMPDEST SWAP1 PUSH2 0x2C07 JUMP JUMPDEST SWAP1 PUSH2 0x2B7C JUMP JUMPDEST PUSH2 0x14AE SWAP1 PUSH2 0x3B62 JUMP JUMPDEST PUSH2 0x14CA JUMP JUMPDEST PUSH1 0x1D SLOAD PUSH2 0x14CA SWAP1 PUSH2 0x149F PUSH2 0x3E8 PUSH2 0x1499 DUP6 DUP5 PUSH2 0x2BC5 JUMP JUMPDEST SWAP2 POP POP SWAP1 JUMP JUMPDEST PUSH1 0x0 SLOAD PUSH1 0x1 PUSH1 0x1 PUSH1 0xA0 SHL SUB AND CALLER EQ PUSH2 0x152A JUMPI PUSH1 0x40 MLOAD PUSH3 0x461BCD PUSH1 0xE5 SHL DUP2 MSTORE PUSH1 0x20 PUSH1 0x4 DUP3 ADD DUP2 SWAP1 MSTORE PUSH1 0x24 DUP3 ADD MSTORE PUSH32 0x4F776E61626C653A2063616C6C6572206973206E6F7420746865206F776E6572 PUSH1 0x44 DUP3 ADD MSTORE PUSH1 0x64 ADD PUSH2 0xBC2 JUMP JUMPDEST PUSH1 0x28 DUP1 SLOAD PUSH1 0xFF NOT AND PUSH1 0x1 OR SWAP1 SSTORE JUMP JUMPDEST PUSH1 0x0 DUP1 PUSH1 0x0 PUSH1 0x26 PUSH1 0x0 SWAP1 SLOAD SWAP1 PUSH2 0x100 EXP SWAP1 DIV PUSH1 0x1 PUSH1 0x1 PUSH1 0xA0 SHL SUB AND PUSH1 0x1 PUSH1 0x1 PUSH1 0xA0 SHL SUB AND PUSH4 0x902F1AC PUSH1 0x40 MLOAD DUP2 PUSH4 0xFFFFFFFF AND PUSH1 0xE0 SHL DUP2 MSTORE PUSH1 0x4 ADD PUSH1 0x60 PUSH1 0x40 MLOAD DUP1 DUP4 SUB DUP2 DUP7 DUP1 EXTCODESIZE ISZERO DUP1 ISZERO PUSH2 0x158C JUMPI PUSH1 0x0 DUP1 REVERT JUMPDEST POP GAS STATICCALL ISZERO DUP1 ISZERO PUSH2 0x15A0 JUMPI RETURNDATASIZE PUSH1 0x0 DUP1 RETURNDATACOPY RETURNDATASIZE PUSH1 0x0 REVERT JUMPDEST POP POP POP POP PUSH1 0x40 MLOAD RETURNDATASIZE PUSH1 0x1F NOT PUSH1 0x1F DUP3 ADD AND DUP3 ADD DUP1 PUSH1 0x40 MSTORE POP DUP2 ADD SWAP1 PUSH2 0x15C4 SWAP2 SWAP1 PUSH2 0x38ED JUMP JUMPDEST POP SWAP2 POP SWAP2 POP DUP2 PUSH14 0xFFFFFFFFFFFFFFFFFFFFFFFFFFFF AND PUSH1 0x0 EQ DUP1 PUSH2 0x15F6 JUMPI POP PUSH14 0xFFFFFFFFFFFFFFFFFFFFFFFFFFFF DUP2 AND ISZERO JUMPDEST ISZERO PUSH2 0x1604 JUMPI PUSH1 0x0 SWAP3 POP POP POP SWAP1 JUMP JUMPDEST PUSH1 0x26 SLOAD PUSH1 0x40 DUP1 MLOAD PUSH32 0xDFE168100000000000000000000000000000000000000000000000000000000 DUP2 MSTORE SWAP1 MLOAD ADDRESS SWAP3 PUSH1 0x1 PUSH1 0x1 PUSH1 0xA0 SHL SUB AND SWAP2 PUSH4 0xDFE1681 SWAP2 PUSH1 0x4 DUP1 DUP4 ADD SWAP3 PUSH1 0x20 SWAP3 SWAP2 SWAP1 DUP3 SWAP1 SUB ADD DUP2 DUP7 DUP1 EXTCODESIZE ISZERO DUP1 ISZERO PUSH2 0x1661 JUMPI PUSH1 0x0 DUP1 REVERT JUMPDEST POP GAS STATICCALL ISZERO DUP1 ISZERO PUSH2 0x1675 JUMPI RETURNDATASIZE PUSH1 0x0 DUP1 RETURNDATACOPY RETURNDATASIZE PUSH1 0x0 REVERT JUMPDEST POP POP POP POP PUSH1 0x40 MLOAD RETURNDATASIZE PUSH1 0x1F NOT PUSH1 0x1F DUP3 ADD AND DUP3 ADD DUP1 PUSH1 0x40 MSTORE POP DUP2 ADD SWAP1 PUSH2 0x1699 SWAP2 SWAP1 PUSH2 0x37B2 JUMP JUMPDEST PUSH1 0x1 PUSH1 0x1 PUSH1 0xA0 SHL SUB AND EQ PUSH2 0x16D6 JUMPI PUSH2 0x16D1 PUSH14 0xFFFFFFFFFFFFFFFFFFFFFFFFFFFF DUP1 DUP4 AND SWAP1 PUSH2 0x149F SWAP1 DUP6 AND PUSH8 0xDE0B6B3A7640000 PUSH2 0x2C07 JUMP JUMPDEST PUSH2 0x1700 JUMP JUMPDEST PUSH2 0x1700 PUSH14 0xFFFFFFFFFFFFFFFFFFFFFFFFFFFF DUP1 DUP5 AND SWAP1 PUSH2 0x149F SWAP1 DUP5 AND PUSH8 0xDE0B6B3A7640000 PUSH2 0x2C07 JUMP JUMPDEST SWAP3 POP POP POP SWAP1 JUMP JUMPDEST PUSH1 0x0 SLOAD PUSH1 0x1 PUSH1 0x1 PUSH1 0xA0 SHL SUB AND CALLER EQ PUSH2 0x1761 JUMPI PUSH1 0x40 MLOAD PUSH3 0x461BCD PUSH1 0xE5 SHL DUP2 MSTORE PUSH1 0x20 PUSH1 0x4 DUP3 ADD DUP2 SWAP1 MSTORE PUSH1 0x24 DUP3 ADD MSTORE PUSH32 0x4F776E61626C653A2063616C6C6572206973206E6F7420746865206F776E6572 PUSH1 0x44 DUP3 ADD MSTORE PUSH1 0x64 ADD PUSH2 0xBC2 JUMP JUMPDEST PUSH1 0x28 DUP1 SLOAD PUSH32 0xFFFFFFFFFFFFFFFFFFFFFFFFFFFFFFFFFFFFFFFFFFFFFFFFFFFFFF00FFFFFFFF AND SWAP1 SSTORE JUMP JUMPDEST PUSH1 0x1 PUSH1 0x1 PUSH1 0xA0 SHL SUB DUP2 AND PUSH1 0x0 SWAP1 DUP2 MSTORE PUSH1 0x1B PUSH1 0x20 MSTORE PUSH1 0x40 DUP2 KECCAK256 SLOAD DUP2 SWAP1 DUP2 SWAP1 DUP2 SWAP1 DUP2 SWAP1 TIMESTAMP LT PUSH2 0x17B9 JUMPI PUSH1 0x0 PUSH2 0x17DC JUMP JUMPDEST PUSH1 0x1 PUSH1 0x1 PUSH1 0xA0 SHL SUB DUP7 AND PUSH1 0x0 SWAP1 DUP2 MSTORE PUSH1 0x1B PUSH1 0x20 MSTORE PUSH1 0x40 SWAP1 KECCAK256 SLOAD PUSH2 0x17DC SWAP1 TIMESTAMP PUSH2 0x2BC5 JUMP JUMPDEST SWAP1 POP PUSH2 0x17EB DUP2 PUSH3 0x15180 PUSH2 0x2B7C JUMP JUMPDEST SWAP5 POP PUSH2 0x17FA PUSH3 0x15180 DUP3 PUSH2 0x3B4E JUMP JUMPDEST SWAP1 POP PUSH2 0x1808 DUP2 PUSH2 0xE10 PUSH2 0x2B7C JUMP JUMPDEST SWAP4 POP PUSH2 0x1816 PUSH2 0xE10 DUP3 PUSH2 0x3B4E JUMP JUMPDEST SWAP1 POP PUSH2 0x1823 DUP2 PUSH1 0x3C PUSH2 0x2B7C JUMP JUMPDEST SWAP3 POP PUSH2 0x1830 PUSH1 0x3C DUP3 PUSH2 0x3B4E JUMP JUMPDEST SWAP2 POP POP SWAP2 SWAP4 POP SWAP2 SWAP4 JUMP JUMPDEST PUSH1 0x0 SLOAD PUSH1 0x1 PUSH1 0x1 PUSH1 0xA0 SHL SUB AND CALLER EQ PUSH2 0x1894 JUMPI PUSH1 0x40 MLOAD PUSH3 0x461BCD PUSH1 0xE5 SHL DUP2 MSTORE PUSH1 0x20 PUSH1 0x4 DUP3 ADD DUP2 SWAP1 MSTORE PUSH1 0x24 DUP3 ADD MSTORE PUSH32 0x4F776E61626C653A2063616C6C6572206973206E6F7420746865206F776E6572 PUSH1 0x44 DUP3 ADD MSTORE PUSH1 0x64 ADD PUSH2 0xBC2 JUMP JUMPDEST PUSH1 0x19 SSTORE JUMP JUMPDEST PUSH1 0x0 PUSH2 0xB62 CALLER DUP5 DUP5 PUSH2 0x240D JUMP JUMPDEST PUSH1 0x0 SLOAD PUSH1 0x1 PUSH1 0x1 PUSH1 0xA0 SHL SUB AND CALLER EQ PUSH2 0x1900 JUMPI PUSH1 0x40 MLOAD PUSH3 0x461BCD PUSH1 0xE5 SHL DUP2 MSTORE PUSH1 0x20 PUSH1 0x4 DUP3 ADD DUP2 SWAP1 MSTORE PUSH1 0x24 DUP3 ADD MSTORE PUSH32 0x4F776E61626C653A2063616C6C6572206973206E6F7420746865206F776E6572 PUSH1 0x44 DUP3 ADD MSTORE PUSH1 0x64 ADD PUSH2 0xBC2 JUMP JUMPDEST ADDRESS PUSH1 0x0 SWAP1 DUP2 MSTORE PUSH1 0x2 PUSH1 0x20 MSTORE PUSH1 0x40 SWAP1 KECCAK256 SLOAD DUP1 ISZERO PUSH2 0x12EB JUMPI PUSH2 0x12EB DUP2 PUSH2 0x2CA2 JUMP JUMPDEST PUSH1 0x0 SLOAD PUSH1 0x1 PUSH1 0x1 PUSH1 0xA0 SHL SUB AND CALLER EQ PUSH2 0x1979 JUMPI PUSH1 0x40 MLOAD PUSH3 0x461BCD PUSH1 0xE5 SHL DUP2 MSTORE PUSH1 0x20 PUSH1 0x4 DUP3 ADD DUP2 SWAP1 MSTORE PUSH1 0x24 DUP3 ADD MSTORE PUSH32 0x4F776E61626C653A2063616C6C6572206973206E6F7420746865206F776E6572 PUSH1 0x44 DUP3 ADD MSTORE PUSH1 0x64 ADD PUSH2 0xBC2 JUMP JUMPDEST PUSH1 0x24 DUP1 SLOAD PUSH32 0xFFFFFFFFFFFFFFFFFFFFFFFF0000000000000000000000000000000000000000 AND PUSH1 0x1 PUSH1 0x1 PUSH1 0xA0 SHL SUB SWAP3 SWAP1 SWAP3 AND SWAP2 SWAP1 SWAP2 OR SWAP1 SSTORE JUMP JUMPDEST PUSH1 0x0 SLOAD PUSH1 0x1 PUSH1 0x1 PUSH1 0xA0 SHL SUB AND CALLER EQ PUSH2 0x1A0D JUMPI PUSH1 0x40 MLOAD PUSH3 0x461BCD PUSH1 0xE5 SHL DUP2 MSTORE PUSH1 0x20 PUSH1 0x4 DUP3 ADD DUP2 SWAP1 MSTORE PUSH1 0x24 DUP3 ADD MSTORE PUSH32 0x4F776E61626C653A2063616C6C6572206973206E6F7420746865206F776E6572 PUSH1 0x44 DUP3 ADD MSTORE PUSH1 0x64 ADD PUSH2 0xBC2 JUMP JUMPDEST TIMESTAMP PUSH1 0x5 SSTORE PUSH1 0x6 SSTORE PUSH1 0x28 DUP1 SLOAD PUSH1 0xFF NOT AND PUSH1 0x1 OR SWAP1 SSTORE JUMP JUMPDEST PUSH1 0x0 SLOAD PUSH1 0x1 PUSH1 0x1 PUSH1 0xA0 SHL SUB AND CALLER EQ PUSH2 0x1A7D JUMPI PUSH1 0x40 MLOAD PUSH3 0x461BCD PUSH1 0xE5 SHL DUP2 MSTORE PUSH1 0x20 PUSH1 0x4 DUP3 ADD DUP2 SWAP1 MSTORE PUSH1 0x24 DUP3 ADD MSTORE PUSH32 0x4F776E61626C653A2063616C6C6572206973206E6F7420746865206F776E6572 PUSH1 0x44 DUP3 ADD MSTORE PUSH1 0x64 ADD PUSH2 0xBC2 JUMP JUMPDEST PUSH1 0x28 DUP1 SLOAD PUSH32 0xFFFFFFFFFFFFFFFFFFFFFFFFFFFFFFFFFFFFFFFFFFFFFFFFFFFFFFFF00FFFFFF AND SWAP1 SSTORE JUMP JUMPDEST PUSH1 0x0 SLOAD PUSH1 0x1 PUSH1 0x1 PUSH1 0xA0 SHL SUB AND CALLER EQ PUSH2 0x1B01 JUMPI PUSH1 0x40 MLOAD PUSH3 0x461BCD PUSH1 0xE5 SHL DUP2 MSTORE PUSH1 0x20 PUSH1 0x4 DUP3 ADD DUP2 SWAP1 MSTORE PUSH1 0x24 DUP3 ADD MSTORE PUSH32 0x4F776E61626C653A2063616C6C6572206973206E6F7420746865206F776E6572 PUSH1 0x44 DUP3 ADD MSTORE PUSH1 0x64 ADD PUSH2 0xBC2 JUMP JUMPDEST PUSH1 0x23 DUP1 SLOAD PUSH32 0xFFFFFFFFFFFFFFFFFFFFFFFF0000000000000000000000000000000000000000 AND PUSH1 0x1 PUSH1 0x1 PUSH1 0xA0 SHL SUB SWAP3 SWAP1 SWAP3 AND SWAP2 SWAP1 SWAP2 OR SWAP1 SSTORE JUMP JUMPDEST PUSH1 0x0 SLOAD PUSH1 0x1 PUSH1 0x1 PUSH1 0xA0 SHL SUB AND CALLER EQ PUSH2 0x1B95 JUMPI PUSH1 0x40 MLOAD PUSH3 0x461BCD PUSH1 0xE5 SHL DUP2 MSTORE PUSH1 0x20 PUSH1 0x4 DUP3 ADD DUP2 SWAP1 MSTORE PUSH1 0x24 DUP3 ADD MSTORE PUSH32 0x4F776E61626C653A2063616C6C6572206973206E6F7420746865206F776E6572 PUSH1 0x44 DUP3 ADD MSTORE PUSH1 0x64 ADD PUSH2 0xBC2 JUMP JUMPDEST PUSH1 0x8 SSTORE JUMP JUMPDEST PUSH1 0x0 SLOAD PUSH1 0x1 PUSH1 0x1 PUSH1 0xA0 SHL SUB AND CALLER EQ PUSH2 0x1BF4 JUMPI PUSH1 0x40 MLOAD PUSH3 0x461BCD PUSH1 0xE5 SHL DUP2 MSTORE PUSH1 0x20 PUSH1 0x4 DUP3 ADD DUP2 SWAP1 MSTORE PUSH1 0x24 DUP3 ADD MSTORE PUSH32 0x4F776E61626C653A2063616C6C6572206973206E6F7420746865206F776E6572 PUSH1 0x44 DUP3 ADD MSTORE PUSH1 0x64 ADD PUSH2 0xBC2 JUMP JUMPDEST PUSH1 0x0 PUSH2 0x1C0C DUP3 PUSH2 0x1C06 DUP6 DUP2 DUP10 DUP10 PUSH2 0x2EDF JUMP JUMPDEST SWAP1 PUSH2 0x2EDF JUMP JUMPDEST SWAP1 POP PUSH1 0xFA DUP2 GT ISZERO PUSH2 0x1C85 JUMPI PUSH1 0x40 MLOAD PUSH3 0x461BCD PUSH1 0xE5 SHL DUP2 MSTORE PUSH1 0x20 PUSH1 0x4 DUP3 ADD MSTORE PUSH1 0x31 PUSH1 0x24 DUP3 ADD MSTORE PUSH32 0x53756D206F66206275792066656573206D757374206265206C65737320746861 PUSH1 0x44 DUP3 ADD MSTORE PUSH32 0x6E206F7220657175616C20746F20323525000000000000000000000000000000 PUSH1 0x64 DUP3 ADD MSTORE PUSH1 0x84 ADD PUSH2 0xBC2 JUMP JUMPDEST PUSH1 0x28 SLOAD PUSH5 0x100000000 SWAP1 DIV PUSH1 0xFF AND PUSH2 0x1CDF JUMPI PUSH1 0x40 MLOAD PUSH3 0x461BCD PUSH1 0xE5 SHL DUP2 MSTORE PUSH1 0x20 PUSH1 0x4 DUP3 ADD MSTORE PUSH1 0x18 PUSH1 0x24 DUP3 ADD MSTORE PUSH32 0x546869732066756E6374696F6E20697320646961626C65640000000000000000 PUSH1 0x44 DUP3 ADD MSTORE PUSH1 0x64 ADD PUSH2 0xBC2 JUMP JUMPDEST PUSH1 0xD DUP6 SWAP1 SSTORE PUSH1 0x9 DUP5 SWAP1 SSTORE PUSH1 0xF DUP4 SWAP1 SSTORE PUSH1 0xB DUP3 SWAP1 SSTORE PUSH1 0xE DUP6 SWAP1 SSTORE PUSH1 0xA DUP5 SWAP1 SSTORE PUSH1 0x10 DUP4 SWAP1 SSTORE PUSH1 0xC DUP3 SWAP1 SSTORE PUSH1 0x40 DUP1 MLOAD DUP7 DUP2 MSTORE PUSH1 0x20 DUP2 ADD DUP7 SWAP1 MSTORE SWAP1 DUP2 ADD DUP5 SWAP1 MSTORE PUSH1 0x60 DUP2 ADD DUP4 SWAP1 MSTORE PUSH32 0x892B2CAA2D791BF7B8D9A49C4DB7A4513FF1AE2E0E068ED217F9D5AB4C1A28F0 SWAP1 PUSH1 0x80 ADD JUMPDEST PUSH1 0x40 MLOAD DUP1 SWAP2 SUB SWAP1 LOG1 POP POP POP POP POP JUMP JUMPDEST PUSH1 0x0 SLOAD PUSH1 0x1 PUSH1 0x1 PUSH1 0xA0 SHL SUB AND CALLER EQ PUSH2 0x1DB1 JUMPI PUSH1 0x40 MLOAD PUSH3 0x461BCD PUSH1 0xE5 SHL DUP2 MSTORE PUSH1 0x20 PUSH1 0x4 DUP3 ADD DUP2 SWAP1 MSTORE PUSH1 0x24 DUP3 ADD MSTORE PUSH32 0x4F776E61626C653A2063616C6C6572206973206E6F7420746865206F776E6572 PUSH1 0x44 DUP3 ADD MSTORE PUSH1 0x64 ADD PUSH2 0xBC2 JUMP JUMPDEST PUSH1 0x1 PUSH1 0x1 PUSH1 0xA0 SHL SUB AND PUSH1 0x0 SWAP1 DUP2 MSTORE PUSH1 0x4 PUSH1 0x20 MSTORE PUSH1 0x40 SWAP1 KECCAK256 DUP1 SLOAD PUSH1 0xFF NOT AND SWAP1 SSTORE JUMP JUMPDEST PUSH1 0x0 SLOAD PUSH1 0x1 PUSH1 0x1 PUSH1 0xA0 SHL SUB AND CALLER EQ PUSH2 0x1E2C JUMPI PUSH1 0x40 MLOAD PUSH3 0x461BCD PUSH1 0xE5 SHL DUP2 MSTORE PUSH1 0x20 PUSH1 0x4 DUP3 ADD DUP2 SWAP1 MSTORE PUSH1 0x24 DUP3 ADD MSTORE PUSH32 0x4F776E61626C653A2063616C6C6572206973206E6F7420746865206F776E6572 PUSH1 0x44 DUP3 ADD MSTORE PUSH1 0x64 ADD PUSH2 0xBC2 JUMP JUMPDEST PUSH1 0x1 PUSH1 0x1 PUSH1 0xA0 SHL SUB DUP2 AND PUSH2 0x1EA8 JUMPI PUSH1 0x40 MLOAD PUSH3 0x461BCD PUSH1 0xE5 SHL DUP2 MSTORE PUSH1 0x20 PUSH1 0x4 DUP3 ADD MSTORE PUSH1 0x26 PUSH1 0x24 DUP3 ADD MSTORE PUSH32 0x4F776E61626C653A206E6577206F776E657220697320746865207A65726F2061 PUSH1 0x44 DUP3 ADD MSTORE PUSH32 0x6464726573730000000000000000000000000000000000000000000000000000 PUSH1 0x64 DUP3 ADD MSTORE PUSH1 0x84 ADD PUSH2 0xBC2 JUMP JUMPDEST PUSH2 0x12EB DUP2 PUSH2 0x2F3E JUMP JUMPDEST PUSH1 0x0 SLOAD PUSH1 0x1 PUSH1 0x1 PUSH1 0xA0 SHL SUB AND CALLER EQ PUSH2 0x1F0B JUMPI PUSH1 0x40 MLOAD PUSH3 0x461BCD PUSH1 0xE5 SHL DUP2 MSTORE PUSH1 0x20 PUSH1 0x4 DUP3 ADD DUP2 SWAP1 MSTORE PUSH1 0x24 DUP3 ADD MSTORE PUSH32 0x4F776E61626C653A2063616C6C6572206973206E6F7420746865206F776E6572 PUSH1 0x44 DUP3 ADD MSTORE PUSH1 0x64 ADD PUSH2 0xBC2 JUMP JUMPDEST PUSH1 0x0 PUSH2 0x1F1D DUP3 PUSH2 0x1C06 DUP6 DUP2 DUP10 DUP10 PUSH2 0x2EDF JUMP JUMPDEST SWAP1 POP PUSH1 0xFA DUP2 GT ISZERO PUSH2 0x1F96 JUMPI PUSH1 0x40 MLOAD PUSH3 0x461BCD PUSH1 0xE5 SHL DUP2 MSTORE PUSH1 0x20 PUSH1 0x4 DUP3 ADD MSTORE PUSH1 0x32 PUSH1 0x24 DUP3 ADD MSTORE PUSH32 0x53756D206F662073656C6C2066656573206D757374206265206C657373207468 PUSH1 0x44 DUP3 ADD MSTORE PUSH32 0x616E206F7220657175616C20746F203235250000000000000000000000000000 PUSH1 0x64 DUP3 ADD MSTORE PUSH1 0x84 ADD PUSH2 0xBC2 JUMP JUMPDEST PUSH1 0x28 SLOAD PUSH5 0x100000000 SWAP1 DIV PUSH1 0xFF AND PUSH2 0x1FF0 JUMPI PUSH1 0x40 MLOAD PUSH3 0x461BCD PUSH1 0xE5 SHL DUP2 MSTORE PUSH1 0x20 PUSH1 0x4 DUP3 ADD MSTORE PUSH1 0x18 PUSH1 0x24 DUP3 ADD MSTORE PUSH32 0x546869732066756E6374696F6E20697320646961626C65640000000000000000 PUSH1 0x44 DUP3 ADD MSTORE PUSH1 0x64 ADD PUSH2 0xBC2 JUMP JUMPDEST PUSH1 0x15 DUP6 SWAP1 SSTORE PUSH1 0x11 DUP5 SWAP1 SSTORE PUSH1 0x17 DUP4 SWAP1 SSTORE PUSH1 0x13 DUP3 SWAP1 SSTORE PUSH1 0x16 DUP6 SWAP1 SSTORE PUSH1 0x12 DUP5 SWAP1 SSTORE PUSH1 0x18 DUP4 SWAP1 SSTORE PUSH1 0x14 DUP3 SWAP1 SSTORE PUSH1 0x40 DUP1 MLOAD DUP7 DUP2 MSTORE PUSH1 0x20 DUP2 ADD DUP7 SWAP1 MSTORE SWAP1 DUP2 ADD DUP5 SWAP1 MSTORE PUSH1 0x60 DUP2 ADD DUP4 SWAP1 MSTORE PUSH32 0x439932620C72DDDEA29980C098BCA1A482729646D1216B226D723C6D278A30D1 SWAP1 PUSH1 0x80 ADD PUSH2 0x1D48 JUMP JUMPDEST PUSH1 0x0 SLOAD PUSH1 0x1 PUSH1 0x1 PUSH1 0xA0 SHL SUB AND CALLER EQ PUSH2 0x20B7 JUMPI PUSH1 0x40 MLOAD PUSH3 0x461BCD PUSH1 0xE5 SHL DUP2 MSTORE PUSH1 0x20 PUSH1 0x4 DUP3 ADD DUP2 SWAP1 MSTORE PUSH1 0x24 DUP3 ADD MSTORE PUSH32 0x4F776E61626C653A2063616C6C6572206973206E6F7420746865206F776E6572 PUSH1 0x44 DUP3 ADD MSTORE PUSH1 0x64 ADD PUSH2 0xBC2 JUMP JUMPDEST PUSH2 0x3E8 DUP2 PUSH2 0xFFFF AND LT PUSH2 0x2132 JUMPI PUSH1 0x40 MLOAD PUSH3 0x461BCD PUSH1 0xE5 SHL DUP2 MSTORE PUSH1 0x20 PUSH1 0x4 DUP3 ADD MSTORE PUSH1 0x28 PUSH1 0x24 DUP3 ADD MSTORE PUSH32 0x547269676765722070657263656E74616765206D757374206265203C20313030 PUSH1 0x44 DUP3 ADD MSTORE PUSH32 0x3020283130302529000000000000000000000000000000000000000000000000 PUSH1 0x64 DUP3 ADD MSTORE PUSH1 0x84 ADD PUSH2 0xBC2 JUMP JUMPDEST PUSH1 0x1C DUP1 SLOAD PUSH32 0xFFFFFFFFFFFFFFFFFFFFFFFFFFFFFFFFFFFFFFFFFFFFFFFFFFFFFFFFFF000000 AND DUP4 ISZERO DUP1 ISZERO PUSH32 0xFFFFFFFFFFFFFFFFFFFFFFFFFFFFFFFFFFFFFFFFFFFFFFFFFFFFFFFFFF0000FF AND SWAP2 SWAP1 SWAP2 OR PUSH2 0x100 PUSH2 0xFFFF DUP6 AND MUL OR SWAP1 SWAP2 SSTORE DUP3 SWAP1 PUSH2 0x219B JUMPI POP PUSH1 0x1D SLOAD ISZERO JUMPDEST ISZERO PUSH2 0x12E9 JUMPI PUSH1 0x0 PUSH2 0x21AA PUSH2 0x1539 JUMP JUMPDEST SWAP1 POP DUP1 ISZERO PUSH2 0x1010 JUMPI PUSH1 0x1D SSTORE POP POP JUMP JUMPDEST PUSH1 0x0 SLOAD PUSH1 0x1 PUSH1 0x1 PUSH1 0xA0 SHL SUB AND CALLER EQ PUSH2 0x2213 JUMPI PUSH1 0x40 MLOAD PUSH3 0x461BCD PUSH1 0xE5 SHL DUP2 MSTORE PUSH1 0x20 PUSH1 0x4 DUP3 ADD DUP2 SWAP1 MSTORE PUSH1 0x24 DUP3 ADD MSTORE PUSH32 0x4F776E61626C653A2063616C6C6572206973206E6F7420746865206F776E6572 PUSH1 0x44 DUP3 ADD MSTORE PUSH1 0x64 ADD PUSH2 0xBC2 JUMP JUMPDEST PUSH1 0x28 SLOAD PUSH4 0x1000000 SWAP1 DIV PUSH1 0xFF AND PUSH2 0x2292 JUMPI PUSH1 0x40 MLOAD PUSH3 0x461BCD PUSH1 0xE5 SHL DUP2 MSTORE PUSH1 0x20 PUSH1 0x4 DUP3 ADD MSTORE PUSH1 0x28 PUSH1 0x24 DUP3 ADD MSTORE PUSH32 0x7468697320636F6E74726163742063616E6E6F7420626C61636B6C6973742061 PUSH1 0x44 DUP3 ADD MSTORE PUSH32 0x6464726573736573000000000000000000000000000000000000000000000000 PUSH1 0x64 DUP3 ADD MSTORE PUSH1 0x84 ADD PUSH2 0xBC2 JUMP JUMPDEST PUSH1 0x1 PUSH1 0x1 PUSH1 0xA0 SHL SUB AND PUSH1 0x0 SWAP1 DUP2 MSTORE PUSH1 0x20 DUP1 MSTORE PUSH1 0x40 SWAP1 KECCAK256 DUP1 SLOAD PUSH1 0xFF NOT AND PUSH1 0x1 OR SWAP1 SSTORE JUMP JUMPDEST PUSH1 0x1 PUSH1 0x1 PUSH1 0xA0 SHL SUB DUP4 AND PUSH2 0x2330 JUMPI PUSH1 0x40 MLOAD PUSH3 0x461BCD PUSH1 0xE5 SHL DUP2 MSTORE PUSH1 0x20 PUSH1 0x4 DUP3 ADD MSTORE PUSH1 0x24 DUP1 DUP3 ADD MSTORE PUSH32 0x45524332303A20617070726F76652066726F6D20746865207A65726F20616464 PUSH1 0x44 DUP3 ADD MSTORE PUSH32 0x7265737300000000000000000000000000000000000000000000000000000000 PUSH1 0x64 DUP3 ADD MSTORE PUSH1 0x84 ADD PUSH2 0xBC2 JUMP JUMPDEST PUSH1 0x1 PUSH1 0x1 PUSH1 0xA0 SHL SUB DUP3 AND PUSH2 0x23AC JUMPI PUSH1 0x40 MLOAD PUSH3 0x461BCD PUSH1 0xE5 SHL DUP2 MSTORE PUSH1 0x20 PUSH1 0x4 DUP3 ADD MSTORE PUSH1 0x22 PUSH1 0x24 DUP3 ADD MSTORE PUSH32 0x45524332303A20617070726F766520746F20746865207A65726F206164647265 PUSH1 0x44 DUP3 ADD MSTORE PUSH32 0x7373000000000000000000000000000000000000000000000000000000000000 PUSH1 0x64 DUP3 ADD MSTORE PUSH1 0x84 ADD PUSH2 0xBC2 JUMP JUMPDEST PUSH1 0x1 PUSH1 0x1 PUSH1 0xA0 SHL SUB DUP4 DUP2 AND PUSH1 0x0 DUP2 DUP2 MSTORE PUSH1 0x3 PUSH1 0x20 SWAP1 DUP2 MSTORE PUSH1 0x40 DUP1 DUP4 KECCAK256 SWAP5 DUP8 AND DUP1 DUP5 MSTORE SWAP5 DUP3 MSTORE SWAP2 DUP3 SWAP1 KECCAK256 DUP6 SWAP1 SSTORE SWAP1 MLOAD DUP5 DUP2 MSTORE PUSH32 0x8C5BE1E5EBEC7D5BD14F71427D1E84F3DD0314C0F7B2291E5B200AC8C7C3B925 SWAP2 ADD PUSH1 0x40 MLOAD DUP1 SWAP2 SUB SWAP1 LOG3 POP POP POP JUMP JUMPDEST PUSH1 0x1 PUSH1 0x1 PUSH1 0xA0 SHL SUB DUP4 AND PUSH2 0x2489 JUMPI PUSH1 0x40 MLOAD PUSH3 0x461BCD PUSH1 0xE5 SHL DUP2 MSTORE PUSH1 0x20 PUSH1 0x4 DUP3 ADD MSTORE PUSH1 0x25 PUSH1 0x24 DUP3 ADD MSTORE PUSH32 0x45524332303A207472616E736665722066726F6D20746865207A65726F206164 PUSH1 0x44 DUP3 ADD MSTORE PUSH32 0x6472657373000000000000000000000000000000000000000000000000000000 PUSH1 0x64 DUP3 ADD MSTORE PUSH1 0x84 ADD PUSH2 0xBC2 JUMP JUMPDEST PUSH1 0x1 PUSH1 0x1 PUSH1 0xA0 SHL SUB DUP3 AND PUSH2 0x2505 JUMPI PUSH1 0x40 MLOAD PUSH3 0x461BCD PUSH1 0xE5 SHL DUP2 MSTORE PUSH1 0x20 PUSH1 0x4 DUP3 ADD MSTORE PUSH1 0x23 PUSH1 0x24 DUP3 ADD MSTORE PUSH32 0x45524332303A207472616E7366657220746F20746865207A65726F2061646472 PUSH1 0x44 DUP3 ADD MSTORE PUSH32 0x6573730000000000000000000000000000000000000000000000000000000000 PUSH1 0x64 DUP3 ADD MSTORE PUSH1 0x84 ADD PUSH2 0xBC2 JUMP JUMPDEST PUSH1 0x0 DUP2 GT PUSH2 0x257B JUMPI PUSH1 0x40 MLOAD PUSH3 0x461BCD PUSH1 0xE5 SHL DUP2 MSTORE PUSH1 0x20 PUSH1 0x4 DUP3 ADD MSTORE PUSH1 0x29 PUSH1 0x24 DUP3 ADD MSTORE PUSH32 0x5472616E7366657220616D6F756E74206D757374206265206772656174657220 PUSH1 0x44 DUP3 ADD MSTORE PUSH32 0x7468616E207A65726F0000000000000000000000000000000000000000000000 PUSH1 0x64 DUP3 ADD MSTORE PUSH1 0x84 ADD PUSH2 0xBC2 JUMP JUMPDEST PUSH1 0x1 PUSH2 0x258F PUSH1 0x0 SLOAD PUSH1 0x1 PUSH1 0x1 PUSH1 0xA0 SHL SUB AND SWAP1 JUMP JUMPDEST PUSH1 0x1 PUSH1 0x1 PUSH1 0xA0 SHL SUB AND DUP5 PUSH1 0x1 PUSH1 0x1 PUSH1 0xA0 SHL SUB AND EQ ISZERO DUP1 ISZERO PUSH2 0x25BE JUMPI POP PUSH1 0x0 SLOAD PUSH1 0x1 PUSH1 0x1 PUSH1 0xA0 SHL SUB DUP5 DUP2 AND SWAP2 AND EQ ISZERO JUMPDEST DUP1 ISZERO PUSH2 0x25D3 JUMPI POP PUSH1 0x1 PUSH1 0x1 PUSH1 0xA0 SHL SUB DUP5 AND ADDRESS EQ ISZERO JUMPDEST DUP1 ISZERO PUSH2 0x25E8 JUMPI POP PUSH1 0x1 PUSH1 0x1 PUSH1 0xA0 SHL SUB DUP4 AND ADDRESS EQ ISZERO JUMPDEST ISZERO PUSH2 0x2AE8 JUMPI PUSH1 0x28 SLOAD PUSH1 0xFF AND PUSH2 0x263F JUMPI PUSH1 0x40 MLOAD PUSH3 0x461BCD PUSH1 0xE5 SHL DUP2 MSTORE PUSH1 0x20 PUSH1 0x4 DUP3 ADD MSTORE PUSH1 0x15 PUSH1 0x24 DUP3 ADD MSTORE PUSH32 0x54726164696E67206973206E6F74206163746976650000000000000000000000 PUSH1 0x44 DUP3 ADD MSTORE PUSH1 0x64 ADD PUSH2 0xBC2 JUMP JUMPDEST PUSH1 0x26 SLOAD PUSH1 0x1 PUSH1 0x1 PUSH1 0xA0 SHL SUB DUP6 DUP2 AND SWAP2 AND EQ DUP1 ISZERO PUSH2 0x266A JUMPI POP PUSH1 0x25 SLOAD PUSH1 0x1 PUSH1 0x1 PUSH1 0xA0 SHL SUB DUP5 DUP2 AND SWAP2 AND EQ ISZERO JUMPDEST ISZERO PUSH2 0x2787 JUMPI PUSH1 0x6 SLOAD PUSH1 0x5 SLOAD PUSH2 0x267E SWAP2 PUSH2 0x2EDF JUMP JUMPDEST TIMESTAMP GT PUSH2 0x26A7 JUMPI PUSH1 0x1 PUSH1 0x1 PUSH1 0xA0 SHL SUB DUP4 AND PUSH1 0x0 SWAP1 DUP2 MSTORE PUSH1 0x20 DUP1 MSTORE PUSH1 0x40 SWAP1 KECCAK256 DUP1 SLOAD PUSH1 0xFF NOT AND PUSH1 0x1 OR SWAP1 SSTORE JUMPDEST PUSH1 0x1 PUSH1 0x1 PUSH1 0xA0 SHL SUB DUP4 AND PUSH1 0x0 SWAP1 DUP2 MSTORE PUSH1 0x4 PUSH1 0x20 MSTORE PUSH1 0x40 SWAP1 KECCAK256 SLOAD PUSH1 0xFF AND PUSH2 0x2787 JUMPI PUSH1 0x7 SLOAD PUSH2 0x26ED DUP4 PUSH2 0x1C06 DUP7 PUSH1 0x1 PUSH1 0x1 PUSH1 0xA0 SHL SUB AND PUSH1 0x0 SWAP1 DUP2 MSTORE PUSH1 0x2 PUSH1 0x20 MSTORE PUSH1 0x40 SWAP1 KECCAK256 SLOAD SWAP1 JUMP JUMPDEST GT ISZERO PUSH2 0x2787 JUMPI PUSH1 0x40 MLOAD PUSH3 0x461BCD PUSH1 0xE5 SHL DUP2 MSTORE PUSH1 0x20 PUSH1 0x4 DUP3 ADD MSTORE PUSH1 0x42 PUSH1 0x24 DUP3 ADD MSTORE PUSH32 0x2E77616C6C65742062616C616E6365206166746572207472616E73666572206D PUSH1 0x44 DUP3 ADD MSTORE PUSH32 0x757374206265206C657373207468616E206D61782077616C6C657420616D6F75 PUSH1 0x64 DUP3 ADD MSTORE PUSH32 0x6E74000000000000000000000000000000000000000000000000000000000000 PUSH1 0x84 DUP3 ADD MSTORE PUSH1 0xA4 ADD PUSH2 0xBC2 JUMP JUMPDEST PUSH1 0x28 SLOAD PUSH2 0x100 SWAP1 DIV PUSH1 0xFF AND ISZERO DUP1 ISZERO PUSH2 0x27AD JUMPI POP PUSH1 0x26 SLOAD PUSH1 0x1 PUSH1 0x1 PUSH1 0xA0 SHL SUB DUP6 DUP2 AND SWAP2 AND EQ ISZERO JUMPDEST DUP1 ISZERO PUSH2 0x27C6 JUMPI POP PUSH1 0x26 SLOAD PUSH1 0x1 PUSH1 0x1 PUSH1 0xA0 SHL SUB DUP5 DUP2 AND SWAP2 AND EQ JUMPDEST ISZERO PUSH2 0x29D7 JUMPI PUSH1 0x1 PUSH1 0x1 PUSH1 0xA0 SHL SUB DUP5 AND PUSH1 0x0 SWAP1 DUP2 MSTORE PUSH1 0x20 DUP1 MSTORE PUSH1 0x40 SWAP1 KECCAK256 SLOAD PUSH1 0xFF AND ISZERO DUP1 ISZERO PUSH2 0x280B JUMPI POP PUSH1 0x1 PUSH1 0x1 PUSH1 0xA0 SHL SUB DUP4 AND PUSH1 0x0 SWAP1 DUP2 MSTORE PUSH1 0x20 DUP1 MSTORE PUSH1 0x40 SWAP1 KECCAK256 SLOAD PUSH1 0xFF AND ISZERO JUMPDEST PUSH2 0x2814 JUMPI PUSH1 0x0 DUP1 REVERT JUMPDEST PUSH1 0x1A SLOAD PUSH1 0xFF AND ISZERO PUSH2 0x28B9 JUMPI PUSH1 0x1 PUSH1 0x1 PUSH1 0xA0 SHL SUB DUP5 AND PUSH1 0x0 SWAP1 DUP2 MSTORE PUSH1 0x1B PUSH1 0x20 MSTORE PUSH1 0x40 SWAP1 KECCAK256 SLOAD TIMESTAMP LT ISZERO PUSH2 0x2887 JUMPI PUSH1 0x40 MLOAD PUSH3 0x461BCD PUSH1 0xE5 SHL DUP2 MSTORE PUSH1 0x20 PUSH1 0x4 DUP3 ADD MSTORE PUSH1 0x1C PUSH1 0x24 DUP3 ADD MSTORE PUSH32 0x5374726F6E672048616E64732050726F746F636F6C2061637469766500000000 PUSH1 0x44 DUP3 ADD MSTORE PUSH1 0x64 ADD PUSH2 0xBC2 JUMP JUMPDEST PUSH1 0x1A SLOAD PUSH2 0x289F SWAP1 PUSH2 0x100 SWAP1 DIV PUSH4 0xFFFFFFFF AND TIMESTAMP PUSH2 0x3AA2 JUMP JUMPDEST PUSH1 0x1 PUSH1 0x1 PUSH1 0xA0 SHL SUB DUP6 AND PUSH1 0x0 SWAP1 DUP2 MSTORE PUSH1 0x1B PUSH1 0x20 MSTORE PUSH1 0x40 SWAP1 KECCAK256 SSTORE JUMPDEST PUSH1 0x1C SLOAD PUSH1 0xFF AND ISZERO PUSH2 0x291F JUMPI PUSH1 0x1E SLOAD PUSH1 0xFF AND ISZERO PUSH2 0x2917 JUMPI PUSH1 0x40 MLOAD PUSH3 0x461BCD PUSH1 0xE5 SHL DUP2 MSTORE PUSH1 0x20 PUSH1 0x4 DUP3 ADD MSTORE PUSH1 0x1E PUSH1 0x24 DUP3 ADD MSTORE PUSH32 0x53656C6C732073746F70706564206279204469616D6F6E6420466C6F6F720000 PUSH1 0x44 DUP3 ADD MSTORE PUSH1 0x64 ADD PUSH2 0xBC2 JUMP JUMPDEST PUSH2 0x291F PUSH2 0x2FA6 JUMP JUMPDEST ADDRESS PUSH1 0x0 SWAP1 DUP2 MSTORE PUSH1 0x2 PUSH1 0x20 MSTORE PUSH1 0x40 SWAP1 KECCAK256 SLOAD PUSH1 0x8 SLOAD DUP2 LT PUSH2 0x29D5 JUMPI DUP1 ISZERO PUSH2 0x29C3 JUMPI PUSH1 0x0 PUSH2 0x2963 PUSH1 0x11 SLOAD PUSH2 0x1C06 PUSH1 0x13 SLOAD PUSH2 0x1C06 PUSH1 0x17 SLOAD PUSH1 0x15 SLOAD PUSH2 0x2EDF SWAP1 SWAP2 SWAP1 PUSH4 0xFFFFFFFF AND JUMP JUMPDEST GT ISZERO PUSH2 0x29C3 JUMPI PUSH1 0x0 PUSH2 0x299E PUSH2 0x2991 PUSH1 0x11 SLOAD PUSH2 0x1C06 PUSH1 0x13 SLOAD PUSH2 0x1C06 PUSH1 0x17 SLOAD PUSH1 0x15 SLOAD PUSH2 0x2EDF SWAP1 SWAP2 SWAP1 PUSH4 0xFFFFFFFF AND JUMP JUMPDEST PUSH1 0x11 SLOAD PUSH2 0x149F SWAP1 DUP6 PUSH2 0x2C07 JUMP JUMPDEST SWAP1 POP PUSH1 0x0 DUP2 DUP4 LT PUSH2 0x29B6 JUMPI PUSH2 0x29B3 DUP4 DUP4 PUSH2 0x2BC5 JUMP JUMPDEST SWAP1 POP JUMPDEST PUSH2 0x29C0 DUP3 DUP3 PUSH2 0x3055 JUMP JUMPDEST POP POP JUMPDEST SELFBALANCE DUP1 ISZERO PUSH2 0x29D3 JUMPI PUSH2 0x29D3 SELFBALANCE PUSH2 0x30E5 JUMP JUMPDEST POP JUMPDEST POP JUMPDEST PUSH1 0x26 SLOAD PUSH1 0x1 PUSH1 0x1 PUSH1 0xA0 SHL SUB DUP6 DUP2 AND SWAP2 AND EQ DUP1 ISZERO SWAP1 PUSH2 0x2A03 JUMPI POP PUSH1 0x26 SLOAD PUSH1 0x1 PUSH1 0x1 PUSH1 0xA0 SHL SUB DUP5 DUP2 AND SWAP2 AND EQ ISZERO JUMPDEST ISZERO PUSH2 0x2AE8 JUMPI PUSH1 0x1 PUSH1 0x1 PUSH1 0xA0 SHL SUB DUP4 AND PUSH1 0x0 SWAP1 DUP2 MSTORE PUSH1 0x4 PUSH1 0x20 MSTORE PUSH1 0x40 SWAP1 KECCAK256 SLOAD PUSH1 0xFF AND PUSH2 0x2AE8 JUMPI PUSH1 0x7 SLOAD PUSH2 0x2A4E DUP4 PUSH2 0x1C06 DUP7 PUSH1 0x1 PUSH1 0x1 PUSH1 0xA0 SHL SUB AND PUSH1 0x0 SWAP1 DUP2 MSTORE PUSH1 0x2 PUSH1 0x20 MSTORE PUSH1 0x40 SWAP1 KECCAK256 SLOAD SWAP1 JUMP JUMPDEST GT ISZERO PUSH2 0x2AE8 JUMPI PUSH1 0x40 MLOAD PUSH3 0x461BCD PUSH1 0xE5 SHL DUP2 MSTORE PUSH1 0x20 PUSH1 0x4 DUP3 ADD MSTORE PUSH1 0x42 PUSH1 0x24 DUP3 ADD MSTORE PUSH32 0x2E77616C6C65742062616C616E6365206166746572207472616E73666572206D PUSH1 0x44 DUP3 ADD MSTORE PUSH32 0x757374206265206C657373207468616E206D61782077616C6C657420616D6F75 PUSH1 0x64 DUP3 ADD MSTORE PUSH32 0x6E74000000000000000000000000000000000000000000000000000000000000 PUSH1 0x84 DUP3 ADD MSTORE PUSH1 0xA4 ADD PUSH2 0xBC2 JUMP JUMPDEST PUSH1 0x1 PUSH1 0x1 PUSH1 0xA0 SHL SUB DUP5 AND PUSH1 0x0 SWAP1 DUP2 MSTORE PUSH1 0x4 PUSH1 0x20 MSTORE PUSH1 0x40 SWAP1 KECCAK256 SLOAD PUSH1 0xFF AND DUP1 PUSH2 0x2B27 JUMPI POP PUSH1 0x1 PUSH1 0x1 PUSH1 0xA0 SHL SUB DUP4 AND PUSH1 0x0 SWAP1 DUP2 MSTORE PUSH1 0x4 PUSH1 0x20 MSTORE PUSH1 0x40 SWAP1 KECCAK256 SLOAD PUSH1 0xFF AND JUMPDEST ISZERO PUSH2 0x2B30 JUMPI POP PUSH1 0x0 JUMPDEST PUSH2 0x2B3C DUP5 DUP5 DUP5 DUP5 PUSH2 0x3225 JUMP JUMPDEST POP POP POP POP JUMP JUMPDEST PUSH1 0x0 DUP2 DUP5 DUP5 GT ISZERO PUSH2 0x2B66 JUMPI PUSH1 0x40 MLOAD PUSH3 0x461BCD PUSH1 0xE5 SHL DUP2 MSTORE PUSH1 0x4 ADD PUSH2 0xBC2 SWAP2 SWAP1 PUSH2 0x39C1 JUMP JUMPDEST POP PUSH1 0x0 PUSH2 0x2B73 DUP5 DUP7 PUSH2 0x3B37 JUMP JUMPDEST SWAP6 SWAP5 POP POP POP POP POP JUMP JUMPDEST PUSH1 0x0 PUSH2 0x2BBE DUP4 DUP4 PUSH1 0x40 MLOAD DUP1 PUSH1 0x40 ADD PUSH1 0x40 MSTORE DUP1 PUSH1 0x1A DUP2 MSTORE PUSH1 0x20 ADD PUSH32 0x536166654D6174683A206469766973696F6E206279207A65726F000000000000 DUP2 MSTORE POP PUSH2 0x32C3 JUMP JUMPDEST SWAP4 SWAP3 POP POP POP JUMP JUMPDEST PUSH1 0x0 PUSH2 0x2BBE DUP4 DUP4 PUSH1 0x40 MLOAD DUP1 PUSH1 0x40 ADD PUSH1 0x40 MSTORE DUP1 PUSH1 0x1E DUP2 MSTORE PUSH1 0x20 ADD PUSH32 0x536166654D6174683A207375627472616374696F6E206F766572666C6F770000 DUP2 MSTORE POP PUSH2 0x2B42 JUMP JUMPDEST PUSH1 0x0 DUP3 PUSH2 0x2C16 JUMPI POP PUSH1 0x0 PUSH2 0xB66 JUMP JUMPDEST PUSH1 0x0 PUSH2 0x2C22 DUP4 DUP6 PUSH2 0x3ACE JUMP JUMPDEST SWAP1 POP DUP3 PUSH2 0x2C2F DUP6 DUP4 PUSH2 0x3ABA JUMP JUMPDEST EQ PUSH2 0x2BBE JUMPI PUSH1 0x40 MLOAD PUSH3 0x461BCD PUSH1 0xE5 SHL DUP2 MSTORE PUSH1 0x20 PUSH1 0x4 DUP3 ADD MSTORE PUSH1 0x21 PUSH1 0x24 DUP3 ADD MSTORE PUSH32 0x536166654D6174683A206D756C7469706C69636174696F6E206F766572666C6F PUSH1 0x44 DUP3 ADD MSTORE PUSH32 0x7700000000000000000000000000000000000000000000000000000000000000 PUSH1 0x64 DUP3 ADD MSTORE PUSH1 0x84 ADD PUSH2 0xBC2 JUMP JUMPDEST PUSH1 0x28 DUP1 SLOAD PUSH32 0xFFFFFFFFFFFFFFFFFFFFFFFFFFFFFFFFFFFFFFFFFFFFFFFFFFFFFFFFFFFF00FF AND PUSH2 0x100 OR SWAP1 SSTORE PUSH1 0x40 DUP1 MLOAD PUSH1 0x2 DUP1 DUP3 MSTORE PUSH1 0x60 DUP3 ADD DUP4 MSTORE PUSH1 0x0 SWAP3 PUSH1 0x20 DUP4 ADD SWAP1 DUP1 CALLDATASIZE DUP4 CALLDATACOPY ADD SWAP1 POP POP SWAP1 POP ADDRESS DUP2 PUSH1 0x0 DUP2 MLOAD DUP2 LT PUSH2 0x2D2A JUMPI PUSH32 0x4E487B7100000000000000000000000000000000000000000000000000000000 PUSH1 0x0 MSTORE PUSH1 0x32 PUSH1 0x4 MSTORE PUSH1 0x24 PUSH1 0x0 REVERT JUMPDEST PUSH1 0x1 PUSH1 0x1 PUSH1 0xA0 SHL SUB SWAP3 DUP4 AND PUSH1 0x20 SWAP2 DUP3 MUL SWAP3 SWAP1 SWAP3 ADD DUP2 ADD SWAP2 SWAP1 SWAP2 MSTORE PUSH1 0x25 SLOAD PUSH1 0x40 DUP1 MLOAD PUSH32 0xAD5C464800000000000000000000000000000000000000000000000000000000 DUP2 MSTORE SWAP1 MLOAD SWAP2 SWAP1 SWAP4 AND SWAP3 PUSH4 0xAD5C4648 SWAP3 PUSH1 0x4 DUP1 DUP4 ADD SWAP4 SWAP2 SWAP3 DUP3 SWAP1 SUB ADD DUP2 DUP7 DUP1 EXTCODESIZE ISZERO DUP1 ISZERO PUSH2 0x2D97 JUMPI PUSH1 0x0 DUP1 REVERT JUMPDEST POP GAS STATICCALL ISZERO DUP1 ISZERO PUSH2 0x2DAB JUMPI RETURNDATASIZE PUSH1 0x0 DUP1 RETURNDATACOPY RETURNDATASIZE PUSH1 0x0 REVERT JUMPDEST POP POP POP POP PUSH1 0x40 MLOAD RETURNDATASIZE PUSH1 0x1F NOT PUSH1 0x1F DUP3 ADD AND DUP3 ADD DUP1 PUSH1 0x40 MSTORE POP DUP2 ADD SWAP1 PUSH2 0x2DCF SWAP2 SWAP1 PUSH2 0x37B2 JUMP JUMPDEST DUP2 PUSH1 0x1 DUP2 MLOAD DUP2 LT PUSH2 0x2E09 JUMPI PUSH32 0x4E487B7100000000000000000000000000000000000000000000000000000000 PUSH1 0x0 MSTORE PUSH1 0x32 PUSH1 0x4 MSTORE PUSH1 0x24 PUSH1 0x0 REVERT JUMPDEST PUSH1 0x1 PUSH1 0x1 PUSH1 0xA0 SHL SUB SWAP3 DUP4 AND PUSH1 0x20 SWAP2 DUP3 MUL SWAP3 SWAP1 SWAP3 ADD ADD MSTORE PUSH1 0x25 SLOAD PUSH2 0x2E2F SWAP2 ADDRESS SWAP2 AND DUP5 PUSH2 0x22B5 JUMP JUMPDEST PUSH1 0x25 SLOAD PUSH1 0x40 MLOAD PUSH32 0x791AC94700000000000000000000000000000000000000000000000000000000 DUP2 MSTORE PUSH1 0x1 PUSH1 0x1 PUSH1 0xA0 SHL SUB SWAP1 SWAP2 AND SWAP1 PUSH4 0x791AC947 SWAP1 PUSH2 0x2E81 SWAP1 DUP6 SWAP1 PUSH1 0x0 SWAP1 DUP7 SWAP1 ADDRESS SWAP1 TIMESTAMP SWAP1 PUSH1 0x4 ADD PUSH2 0x3A32 JUMP JUMPDEST PUSH1 0x0 PUSH1 0x40 MLOAD DUP1 DUP4 SUB DUP2 PUSH1 0x0 DUP8 DUP1 EXTCODESIZE ISZERO DUP1 ISZERO PUSH2 0x2E9B JUMPI PUSH1 0x0 DUP1 REVERT JUMPDEST POP GAS CALL ISZERO DUP1 ISZERO PUSH2 0x2EAF JUMPI RETURNDATASIZE PUSH1 0x0 DUP1 RETURNDATACOPY RETURNDATASIZE PUSH1 0x0 REVERT JUMPDEST POP POP PUSH1 0x28 DUP1 SLOAD PUSH32 0xFFFFFFFFFFFFFFFFFFFFFFFFFFFFFFFFFFFFFFFFFFFFFFFFFFFFFFFFFFFF00FF AND SWAP1 SSTORE POP POP POP POP JUMP JUMPDEST PUSH1 0x0 DUP1 PUSH2 0x2EEC DUP4 DUP6 PUSH2 0x3AA2 JUMP JUMPDEST SWAP1 POP DUP4 DUP2 LT ISZERO PUSH2 0x2BBE JUMPI PUSH1 0x40 MLOAD PUSH3 0x461BCD PUSH1 0xE5 SHL DUP2 MSTORE PUSH1 0x20 PUSH1 0x4 DUP3 ADD MSTORE PUSH1 0x1B PUSH1 0x24 DUP3 ADD MSTORE PUSH32 0x536166654D6174683A206164646974696F6E206F766572666C6F770000000000 PUSH1 0x44 DUP3 ADD MSTORE PUSH1 0x64 ADD PUSH2 0xBC2 JUMP JUMPDEST PUSH1 0x0 DUP1 SLOAD PUSH1 0x1 PUSH1 0x1 PUSH1 0xA0 SHL SUB DUP4 DUP2 AND PUSH32 0xFFFFFFFFFFFFFFFFFFFFFFFF0000000000000000000000000000000000000000 DUP4 AND DUP2 OR DUP5 SSTORE PUSH1 0x40 MLOAD SWAP2 SWAP1 SWAP3 AND SWAP3 DUP4 SWAP2 PUSH32 0x8BE0079C531659141344CD1FD0A4F28419497F9722A3DAAFE3B4186F6B6457E0 SWAP2 SWAP1 LOG3 POP POP JUMP JUMPDEST PUSH1 0x0 PUSH2 0x2FB0 PUSH2 0x1539 JUMP JUMPDEST SWAP1 POP DUP1 PUSH2 0x2FBA JUMPI POP JUMP JUMPDEST PUSH1 0x1D SLOAD DUP2 GT ISZERO PUSH2 0x2FD3 JUMPI PUSH1 0x1D SSTORE PUSH1 0x1E DUP1 SLOAD PUSH1 0xFF NOT AND SWAP1 SSTORE JUMP JUMPDEST PUSH1 0x1C SLOAD PUSH1 0x1D SLOAD PUSH1 0x0 SWAP2 PUSH2 0x3003 SWAP2 PUSH2 0x3E8 SWAP2 PUSH2 0x149F SWAP2 PUSH2 0x100 SWAP1 SWAP2 DIV PUSH2 0xFFFF AND SWAP1 PUSH2 0x2FFD SWAP1 DUP5 PUSH2 0x2C07 JUMP JUMPDEST SWAP1 PUSH2 0x2BC5 JUMP JUMPDEST SWAP1 POP DUP1 DUP3 LT ISZERO PUSH2 0x3021 JUMPI PUSH1 0x1E DUP1 SLOAD PUSH1 0xFF NOT AND PUSH1 0x1 OR SWAP1 SSTORE PUSH1 0x1D SLOAD PUSH1 0x1F SSTORE JUMPDEST PUSH1 0x1E SLOAD PUSH1 0xFF AND DUP1 ISZERO PUSH2 0x3040 JUMPI POP PUSH1 0x1F SLOAD PUSH2 0x303C SWAP1 PUSH1 0x2 PUSH2 0x2C07 JUMP JUMPDEST DUP3 LT ISZERO JUMPDEST ISZERO PUSH2 0x12E9 JUMPI POP PUSH1 0x1E DUP1 SLOAD PUSH1 0xFF NOT AND SWAP1 SSTORE PUSH1 0x1D SSTORE JUMP JUMPDEST PUSH1 0x28 DUP1 SLOAD PUSH32 0xFFFFFFFFFFFFFFFFFFFFFFFFFFFFFFFFFFFFFFFFFFFFFFFFFFFFFFFFFFFF00FF AND PUSH2 0x100 OR SWAP1 SSTORE PUSH1 0x0 PUSH2 0x308E DUP4 PUSH1 0x2 PUSH2 0x2B7C JUMP JUMPDEST SWAP1 POP PUSH1 0x0 PUSH2 0x309C DUP5 DUP4 PUSH2 0x2BC5 JUMP JUMPDEST SWAP1 POP SELFBALANCE PUSH2 0x30B1 PUSH2 0x30AC DUP6 DUP6 PUSH2 0x2EDF JUMP JUMPDEST PUSH2 0x2CA2 JUMP JUMPDEST PUSH1 0x0 PUSH2 0x30BD SELFBALANCE DUP4 PUSH2 0x2BC5 JUMP JUMPDEST SWAP1 POP DUP3 ISZERO PUSH2 0x2EAF JUMPI PUSH2 0x2EAF DUP4 PUSH2 0x30E0 PUSH2 0x30D6 DUP9 DUP9 PUSH2 0x2EDF JUMP JUMPDEST PUSH2 0x149F DUP6 DUP10 PUSH2 0x2C07 JUMP JUMPDEST PUSH2 0x32F1 JUMP JUMPDEST PUSH1 0x0 PUSH2 0x3104 PUSH1 0x17 SLOAD PUSH2 0x1C06 PUSH1 0x13 SLOAD PUSH1 0x15 SLOAD PUSH2 0x2EDF SWAP1 SWAP2 SWAP1 PUSH4 0xFFFFFFFF AND JUMP JUMPDEST SWAP1 POP DUP1 ISZERO PUSH2 0x12E9 JUMPI PUSH1 0x0 PUSH2 0x3127 DUP3 PUSH2 0x149F PUSH1 0x15 SLOAD DUP7 PUSH2 0x2C07 SWAP1 SWAP2 SWAP1 PUSH4 0xFFFFFFFF AND JUMP JUMPDEST SWAP1 POP PUSH1 0x0 PUSH2 0x3144 DUP4 PUSH2 0x149F PUSH1 0x17 SLOAD DUP8 PUSH2 0x2C07 SWAP1 SWAP2 SWAP1 PUSH4 0xFFFFFFFF AND JUMP JUMPDEST SWAP1 POP PUSH1 0x0 PUSH2 0x3156 DUP3 PUSH2 0x2FFD DUP8 DUP7 PUSH2 0x2BC5 JUMP JUMPDEST SWAP1 POP DUP3 ISZERO PUSH2 0x319A JUMPI PUSH1 0x21 SLOAD PUSH1 0x40 MLOAD PUSH1 0x1 PUSH1 0x1 PUSH1 0xA0 SHL SUB SWAP1 SWAP2 AND SWAP1 DUP5 ISZERO PUSH2 0x8FC MUL SWAP1 DUP6 SWAP1 PUSH1 0x0 DUP2 DUP2 DUP2 DUP6 DUP9 DUP9 CALL SWAP4 POP POP POP POP ISZERO DUP1 ISZERO PUSH2 0x3198 JUMPI RETURNDATASIZE PUSH1 0x0 DUP1 RETURNDATACOPY RETURNDATASIZE PUSH1 0x0 REVERT JUMPDEST POP JUMPDEST DUP2 ISZERO PUSH2 0x31DC JUMPI PUSH1 0x22 SLOAD PUSH1 0x40 MLOAD PUSH1 0x1 PUSH1 0x1 PUSH1 0xA0 SHL SUB SWAP1 SWAP2 AND SWAP1 DUP4 ISZERO PUSH2 0x8FC MUL SWAP1 DUP5 SWAP1 PUSH1 0x0 DUP2 DUP2 DUP2 DUP6 DUP9 DUP9 CALL SWAP4 POP POP POP POP ISZERO DUP1 ISZERO PUSH2 0x31DA JUMPI RETURNDATASIZE PUSH1 0x0 DUP1 RETURNDATACOPY RETURNDATASIZE PUSH1 0x0 REVERT JUMPDEST POP JUMPDEST DUP1 ISZERO PUSH2 0x321E JUMPI PUSH1 0x23 SLOAD PUSH1 0x40 MLOAD PUSH1 0x1 PUSH1 0x1 PUSH1 0xA0 SHL SUB SWAP1 SWAP2 AND SWAP1 DUP3 ISZERO PUSH2 0x8FC MUL SWAP1 DUP4 SWAP1 PUSH1 0x0 DUP2 DUP2 DUP2 DUP6 DUP9 DUP9 CALL SWAP4 POP POP POP POP ISZERO DUP1 ISZERO PUSH2 0x321C JUMPI RETURNDATASIZE PUSH1 0x0 DUP1 RETURNDATACOPY RETURNDATASIZE PUSH1 0x0 REVERT JUMPDEST POP JUMPDEST POP POP POP POP POP JUMP JUMPDEST DUP1 PUSH2 0x3283 JUMPI PUSH2 0x3283 PUSH1 0xD DUP1 SLOAD PUSH1 0xE SSTORE PUSH1 0x9 DUP1 SLOAD PUSH1 0xA SSTORE PUSH1 0xF DUP1 SLOAD PUSH1 0x10 SSTORE PUSH1 0xB DUP1 SLOAD PUSH1 0xC SSTORE PUSH1 0x0 SWAP4 DUP5 SWAP1 SSTORE SWAP2 DUP4 SWAP1 SSTORE DUP3 SWAP1 SSTORE DUP2 SWAP1 SSTORE PUSH1 0x15 DUP1 SLOAD PUSH1 0x16 SSTORE PUSH1 0x11 DUP1 SLOAD PUSH1 0x12 SSTORE PUSH1 0x17 DUP1 SLOAD PUSH1 0x18 SSTORE PUSH1 0x13 DUP1 SLOAD PUSH1 0x14 SSTORE SWAP3 DUP5 SWAP1 SSTORE SWAP1 DUP4 SWAP1 SSTORE DUP3 SWAP1 SSTORE SSTORE JUMP JUMPDEST PUSH2 0x328E DUP5 DUP5 DUP5 PUSH2 0x33C7 JUMP JUMPDEST PUSH2 0x2B3C PUSH1 0xE SLOAD PUSH1 0xD SSTORE PUSH1 0xA SLOAD PUSH1 0x9 SSTORE PUSH1 0x10 SLOAD PUSH1 0xF SSTORE PUSH1 0xC SLOAD PUSH1 0xB SSTORE PUSH1 0x16 SLOAD PUSH1 0x15 SSTORE PUSH1 0x12 SLOAD PUSH1 0x11 SSTORE PUSH1 0x18 SLOAD PUSH1 0x17 SSTORE PUSH1 0x14 SLOAD PUSH1 0x13 SSTORE JUMP JUMPDEST PUSH1 0x0 DUP2 DUP4 PUSH2 0x32E4 JUMPI PUSH1 0x40 MLOAD PUSH3 0x461BCD PUSH1 0xE5 SHL DUP2 MSTORE PUSH1 0x4 ADD PUSH2 0xBC2 SWAP2 SWAP1 PUSH2 0x39C1 JUMP JUMPDEST POP PUSH1 0x0 PUSH2 0x2B73 DUP5 DUP7 PUSH2 0x3ABA JUMP JUMPDEST PUSH1 0x25 SLOAD PUSH2 0x3309 SWAP1 ADDRESS SWAP1 PUSH1 0x1 PUSH1 0x1 PUSH1 0xA0 SHL SUB AND DUP5 PUSH2 0x22B5 JUMP JUMPDEST PUSH1 0x25 SLOAD PUSH1 0x24 DUP1 SLOAD PUSH1 0x40 MLOAD PUSH32 0xF305D71900000000000000000000000000000000000000000000000000000000 DUP2 MSTORE ADDRESS PUSH1 0x4 DUP3 ADD MSTORE SWAP2 DUP3 ADD DUP6 SWAP1 MSTORE PUSH1 0x0 PUSH1 0x44 DUP4 ADD DUP2 SWAP1 MSTORE PUSH1 0x64 DUP4 ADD MSTORE PUSH1 0x1 PUSH1 0x1 PUSH1 0xA0 SHL SUB SWAP1 DUP2 AND PUSH1 0x84 DUP4 ADD MSTORE TIMESTAMP PUSH1 0xA4 DUP4 ADD MSTORE SWAP1 SWAP2 AND SWAP1 PUSH4 0xF305D719 SWAP1 DUP4 SWAP1 PUSH1 0xC4 ADD PUSH1 0x60 PUSH1 0x40 MLOAD DUP1 DUP4 SUB DUP2 DUP6 DUP9 DUP1 EXTCODESIZE ISZERO DUP1 ISZERO PUSH2 0x338E JUMPI PUSH1 0x0 DUP1 REVERT JUMPDEST POP GAS CALL ISZERO DUP1 ISZERO PUSH2 0x33A2 JUMPI RETURNDATASIZE PUSH1 0x0 DUP1 RETURNDATACOPY RETURNDATASIZE PUSH1 0x0 REVERT JUMPDEST POP POP POP POP POP PUSH1 0x40 MLOAD RETURNDATASIZE PUSH1 0x1F NOT PUSH1 0x1F DUP3 ADD AND DUP3 ADD DUP1 PUSH1 0x40 MSTORE POP DUP2 ADD SWAP1 PUSH2 0x321E SWAP2 SWAP1 PUSH2 0x3963 JUMP JUMPDEST PUSH2 0x33F9 PUSH1 0x40 MLOAD DUP1 PUSH1 0xA0 ADD PUSH1 0x40 MSTORE DUP1 PUSH1 0x0 DUP2 MSTORE PUSH1 0x20 ADD PUSH1 0x0 DUP2 MSTORE PUSH1 0x20 ADD PUSH1 0x0 DUP2 MSTORE PUSH1 0x20 ADD PUSH1 0x0 DUP2 MSTORE PUSH1 0x20 ADD PUSH1 0x0 DUP2 MSTORE POP SWAP1 JUMP JUMPDEST PUSH1 0x26 SLOAD PUSH1 0x1 PUSH1 0x1 PUSH1 0xA0 SHL SUB DUP6 DUP2 AND SWAP2 AND EQ DUP1 ISZERO PUSH2 0x3424 JUMPI POP PUSH1 0x25 SLOAD PUSH1 0x1 PUSH1 0x1 PUSH1 0xA0 SHL SUB DUP5 DUP2 AND SWAP2 AND EQ ISZERO JUMPDEST ISZERO PUSH2 0x3498 JUMPI PUSH2 0x3444 PUSH2 0x3E8 PUSH2 0x149F PUSH1 0xD SLOAD DUP6 PUSH2 0x2C07 SWAP1 SWAP2 SWAP1 PUSH4 0xFFFFFFFF AND JUMP JUMPDEST PUSH1 0x20 DUP3 ADD MSTORE PUSH1 0x9 SLOAD PUSH2 0x345F SWAP1 PUSH2 0x3E8 SWAP1 PUSH2 0x149F SWAP1 DUP6 SWAP1 PUSH2 0x2C07 JUMP JUMPDEST DUP2 MSTORE PUSH1 0xF SLOAD PUSH2 0x3477 SWAP1 PUSH2 0x3E8 SWAP1 PUSH2 0x149F SWAP1 DUP6 SWAP1 PUSH2 0x2C07 JUMP JUMPDEST PUSH1 0x40 DUP3 ADD MSTORE PUSH1 0xB SLOAD PUSH2 0x3492 SWAP1 PUSH2 0x3E8 SWAP1 PUSH2 0x149F SWAP1 DUP6 SWAP1 PUSH2 0x2C07 JUMP JUMPDEST PUSH1 0x60 DUP3 ADD MSTORE JUMPDEST PUSH1 0x26 SLOAD PUSH1 0x1 PUSH1 0x1 PUSH1 0xA0 SHL SUB DUP6 DUP2 AND SWAP2 AND EQ DUP1 ISZERO SWAP1 PUSH2 0x34C3 JUMPI POP PUSH1 0x26 SLOAD PUSH1 0x1 PUSH1 0x1 PUSH1 0xA0 SHL SUB DUP5 DUP2 AND SWAP2 AND EQ JUMPDEST ISZERO PUSH2 0x3537 JUMPI PUSH2 0x34E3 PUSH2 0x3E8 PUSH2 0x149F PUSH1 0x15 SLOAD DUP6 PUSH2 0x2C07 SWAP1 SWAP2 SWAP1 PUSH4 0xFFFFFFFF AND JUMP JUMPDEST PUSH1 0x20 DUP3 ADD MSTORE PUSH1 0x11 SLOAD PUSH2 0x34FE SWAP1 PUSH2 0x3E8 SWAP1 PUSH2 0x149F SWAP1 DUP6 SWAP1 PUSH2 0x2C07 JUMP JUMPDEST DUP2 MSTORE PUSH1 0x17 SLOAD PUSH2 0x3516 SWAP1 PUSH2 0x3E8 SWAP1 PUSH2 0x149F SWAP1 DUP6 SWAP1 PUSH2 0x2C07 JUMP JUMPDEST PUSH1 0x40 DUP3 ADD MSTORE PUSH1 0x13 SLOAD PUSH2 0x3531 SWAP1 PUSH2 0x3E8 SWAP1 PUSH2 0x149F SWAP1 DUP6 SWAP1 PUSH2 0x2C07 JUMP JUMPDEST PUSH1 0x60 DUP3 ADD MSTORE JUMPDEST PUSH1 0x26 SLOAD PUSH1 0x1 PUSH1 0x1 PUSH1 0xA0 SHL SUB DUP6 DUP2 AND SWAP2 AND EQ DUP1 ISZERO SWAP1 PUSH2 0x3563 JUMPI POP PUSH1 0x26 SLOAD PUSH1 0x1 PUSH1 0x1 PUSH1 0xA0 SHL SUB DUP5 DUP2 AND SWAP2 AND EQ ISZERO JUMPDEST ISZERO PUSH2 0x3617 JUMPI PUSH2 0x358E PUSH1 0x64 PUSH2 0x149F PUSH1 0x19 SLOAD PUSH2 0x1499 PUSH2 0x3E8 PUSH2 0x149F PUSH1 0x15 SLOAD DUP10 PUSH2 0x2C07 SWAP1 SWAP2 SWAP1 PUSH4 0xFFFFFFFF AND JUMP JUMPDEST DUP2 PUSH1 0x20 ADD DUP2 DUP2 MSTORE POP POP PUSH2 0x35BD PUSH1 0x64 PUSH2 0x149F PUSH1 0x19 SLOAD PUSH2 0x1499 PUSH2 0x3E8 PUSH2 0x149F PUSH1 0x11 SLOAD DUP10 PUSH2 0x2C07 SWAP1 SWAP2 SWAP1 PUSH4 0xFFFFFFFF AND JUMP JUMPDEST DUP2 MSTORE PUSH1 0x19 SLOAD PUSH1 0x17 SLOAD PUSH2 0x35E2 SWAP2 PUSH1 0x64 SWAP2 PUSH2 0x149F SWAP2 SWAP1 PUSH2 0x1499 SWAP1 PUSH2 0x3E8 SWAP1 DUP5 SWAP1 DUP10 SWAP1 PUSH2 0x2C07 JUMP JUMPDEST DUP2 PUSH1 0x40 ADD DUP2 DUP2 MSTORE POP POP PUSH2 0x3611 PUSH1 0x64 PUSH2 0x149F PUSH1 0x19 SLOAD PUSH2 0x1499 PUSH2 0x3E8 PUSH2 0x149F PUSH1 0x13 SLOAD DUP10 PUSH2 0x2C07 SWAP1 SWAP2 SWAP1 PUSH4 0xFFFFFFFF AND JUMP JUMPDEST PUSH1 0x60 DUP3 ADD MSTORE JUMPDEST PUSH2 0x3646 DUP2 PUSH1 0x60 ADD MLOAD PUSH2 0x2FFD DUP4 PUSH1 0x40 ADD MLOAD PUSH2 0x2FFD DUP6 PUSH1 0x0 ADD MLOAD PUSH2 0x2FFD DUP8 PUSH1 0x20 ADD MLOAD DUP10 PUSH2 0x2BC5 SWAP1 SWAP2 SWAP1 PUSH4 0xFFFFFFFF AND JUMP JUMPDEST PUSH1 0x80 DUP3 ADD MSTORE PUSH1 0x1 PUSH1 0x1 PUSH1 0xA0 SHL SUB DUP5 AND PUSH1 0x0 SWAP1 DUP2 MSTORE PUSH1 0x2 PUSH1 0x20 MSTORE PUSH1 0x40 SWAP1 KECCAK256 SLOAD PUSH2 0x366E SWAP1 DUP4 PUSH2 0x2BC5 JUMP JUMPDEST PUSH1 0x1 PUSH1 0x1 PUSH1 0xA0 SHL SUB DUP1 DUP7 AND PUSH1 0x0 SWAP1 DUP2 MSTORE PUSH1 0x2 PUSH1 0x20 MSTORE PUSH1 0x40 DUP1 DUP3 KECCAK256 SWAP4 SWAP1 SWAP4 SSTORE PUSH1 0x80 DUP5 ADD MLOAD SWAP2 DUP7 AND DUP2 MSTORE SWAP2 SWAP1 SWAP2 KECCAK256 SLOAD PUSH2 0x36A4 SWAP2 PUSH2 0x2EDF JUMP JUMPDEST PUSH1 0x2 PUSH1 0x0 DUP6 PUSH1 0x1 PUSH1 0x1 PUSH1 0xA0 SHL SUB AND PUSH1 0x1 PUSH1 0x1 PUSH1 0xA0 SHL SUB AND DUP2 MSTORE PUSH1 0x20 ADD SWAP1 DUP2 MSTORE PUSH1 0x20 ADD PUSH1 0x0 KECCAK256 DUP2 SWAP1 SSTORE POP PUSH2 0x3711 PUSH2 0x36FB DUP3 PUSH1 0x60 ADD MLOAD PUSH2 0x1C06 DUP5 PUSH1 0x40 ADD MLOAD PUSH2 0x1C06 DUP7 PUSH1 0x0 ADD MLOAD DUP8 PUSH1 0x20 ADD MLOAD PUSH2 0x2EDF SWAP1 SWAP2 SWAP1 PUSH4 0xFFFFFFFF AND JUMP JUMPDEST ADDRESS PUSH1 0x0 SWAP1 DUP2 MSTORE PUSH1 0x2 PUSH1 0x20 MSTORE PUSH1 0x40 SWAP1 KECCAK256 SLOAD SWAP1 PUSH2 0x2EDF JUMP JUMPDEST ADDRESS PUSH1 0x0 SWAP1 DUP2 MSTORE PUSH1 0x2 PUSH1 0x20 SWAP1 DUP2 MSTORE PUSH1 0x40 SWAP2 DUP3 SWAP1 KECCAK256 SWAP3 SWAP1 SWAP3 SSTORE PUSH1 0x80 DUP4 ADD MLOAD SWAP1 MLOAD SWAP1 DUP2 MSTORE PUSH1 0x1 PUSH1 0x1 PUSH1 0xA0 SHL SUB DUP6 DUP2 AND SWAP3 SWAP1 DUP8 AND SWAP2 PUSH32 0xDDF252AD1BE2C89B69C2B068FC378DAA952BA7F163C4A11628F55A4DF523B3EF SWAP2 ADD PUSH1 0x40 MLOAD DUP1 SWAP2 SUB SWAP1 LOG3 POP POP POP POP JUMP JUMPDEST DUP1 MLOAD PUSH14 0xFFFFFFFFFFFFFFFFFFFFFFFFFFFF DUP2 AND DUP2 EQ PUSH2 0x3791 JUMPI PUSH1 0x0 DUP1 REVERT JUMPDEST SWAP2 SWAP1 POP JUMP JUMPDEST PUSH1 0x0 PUSH1 0x20 DUP3 DUP5 SUB SLT ISZERO PUSH2 0x37A7 JUMPI DUP1 DUP2 REVERT JUMPDEST DUP2 CALLDATALOAD PUSH2 0x2BBE DUP2 PUSH2 0x3BF6 JUMP JUMPDEST PUSH1 0x0 PUSH1 0x20 DUP3 DUP5 SUB SLT ISZERO PUSH2 0x37C3 JUMPI DUP1 DUP2 REVERT JUMPDEST DUP2 MLOAD PUSH2 0x2BBE DUP2 PUSH2 0x3BF6 JUMP JUMPDEST PUSH1 0x0 DUP1 PUSH1 0x40 DUP4 DUP6 SUB SLT ISZERO PUSH2 0x37E0 JUMPI DUP1 DUP2 REVERT JUMPDEST DUP3 CALLDATALOAD PUSH2 0x37EB DUP2 PUSH2 0x3BF6 JUMP JUMPDEST SWAP2 POP PUSH1 0x20 DUP4 ADD CALLDATALOAD PUSH2 0x37FB DUP2 PUSH2 0x3BF6 JUMP JUMPDEST DUP1 SWAP2 POP POP SWAP3 POP SWAP3 SWAP1 POP JUMP JUMPDEST PUSH1 0x0 DUP1 PUSH1 0x0 PUSH1 0x60 DUP5 DUP7 SUB SLT ISZERO PUSH2 0x381A JUMPI DUP1 DUP2 REVERT JUMPDEST DUP4 CALLDATALOAD PUSH2 0x3825 DUP2 PUSH2 0x3BF6 JUMP JUMPDEST SWAP3 POP PUSH1 0x20 DUP5 ADD CALLDATALOAD PUSH2 0x3835 DUP2 PUSH2 0x3BF6 JUMP JUMPDEST SWAP3 SWAP6 SWAP3 SWAP5 POP POP POP PUSH1 0x40 SWAP2 SWAP1 SWAP2 ADD CALLDATALOAD SWAP1 JUMP JUMPDEST PUSH1 0x0 DUP1 PUSH1 0x40 DUP4 DUP6 SUB SLT ISZERO PUSH2 0x3858 JUMPI DUP2 DUP3 REVERT JUMPDEST DUP3 CALLDATALOAD PUSH2 0x3863 DUP2 PUSH2 0x3BF6 JUMP JUMPDEST SWAP5 PUSH1 0x20 SWAP4 SWAP1 SWAP4 ADD CALLDATALOAD SWAP4 POP POP POP JUMP JUMPDEST PUSH1 0x0 PUSH1 0x20 DUP3 DUP5 SUB SLT ISZERO PUSH2 0x3882 JUMPI DUP1 DUP2 REVERT JUMPDEST DUP2 MLOAD PUSH2 0x2BBE DUP2 PUSH2 0x3C0B JUMP JUMPDEST PUSH1 0x0 DUP1 PUSH1 0x40 DUP4 DUP6 SUB SLT ISZERO PUSH2 0x389F JUMPI DUP2 DUP3 REVERT JUMPDEST DUP3 CALLDATALOAD PUSH2 0x38AA DUP2 PUSH2 0x3C0B JUMP JUMPDEST SWAP2 POP PUSH1 0x20 DUP4 ADD CALLDATALOAD PUSH2 0xFFFF DUP2 AND DUP2 EQ PUSH2 0x37FB JUMPI DUP2 DUP3 REVERT JUMPDEST PUSH1 0x0 DUP1 PUSH1 0x40 DUP4 DUP6 SUB SLT ISZERO PUSH2 0x38D2 JUMPI DUP2 DUP3 REVERT JUMPDEST DUP3 CALLDATALOAD PUSH2 0x38DD DUP2 PUSH2 0x3C0B JUMP JUMPDEST SWAP2 POP PUSH1 0x20 DUP4 ADD CALLDATALOAD PUSH2 0x37FB DUP2 PUSH2 0x3C19 JUMP JUMPDEST PUSH1 0x0 DUP1 PUSH1 0x0 PUSH1 0x60 DUP5 DUP7 SUB SLT ISZERO PUSH2 0x3901 JUMPI DUP3 DUP4 REVERT JUMPDEST PUSH2 0x390A DUP5 PUSH2 0x3773 JUMP JUMPDEST SWAP3 POP PUSH2 0x3918 PUSH1 0x20 DUP6 ADD PUSH2 0x3773 JUMP JUMPDEST SWAP2 POP PUSH1 0x40 DUP5 ADD MLOAD PUSH2 0x3928 DUP2 PUSH2 0x3C19 JUMP JUMPDEST DUP1 SWAP2 POP POP SWAP3 POP SWAP3 POP SWAP3 JUMP JUMPDEST PUSH1 0x0 PUSH1 0x20 DUP3 DUP5 SUB SLT ISZERO PUSH2 0x3944 JUMPI DUP1 DUP2 REVERT JUMPDEST POP CALLDATALOAD SWAP2 SWAP1 POP JUMP JUMPDEST PUSH1 0x0 PUSH1 0x20 DUP3 DUP5 SUB SLT ISZERO PUSH2 0x395C JUMPI DUP1 DUP2 REVERT JUMPDEST POP MLOAD SWAP2 SWAP1 POP JUMP JUMPDEST PUSH1 0x0 DUP1 PUSH1 0x0 PUSH1 0x60 DUP5 DUP7 SUB SLT ISZERO PUSH2 0x3977 JUMPI DUP3 DUP4 REVERT JUMPDEST DUP4 MLOAD SWAP3 POP PUSH1 0x20 DUP5 ADD MLOAD SWAP2 POP PUSH1 0x40 DUP5 ADD MLOAD SWAP1 POP SWAP3 POP SWAP3 POP SWAP3 JUMP JUMPDEST PUSH1 0x0 DUP1 PUSH1 0x0 DUP1 PUSH1 0x80 DUP6 DUP8 SUB SLT ISZERO PUSH2 0x39A5 JUMPI DUP2 DUP3 REVERT JUMPDEST POP POP DUP3 CALLDATALOAD SWAP5 PUSH1 0x20 DUP5 ADD CALLDATALOAD SWAP5 POP PUSH1 0x40 DUP5 ADD CALLDATALOAD SWAP4 PUSH1 0x60 ADD CALLDATALOAD SWAP3 POP SWAP1 POP JUMP JUMPDEST PUSH1 0x0 PUSH1 0x20 DUP1 DUP4 MSTORE DUP4 MLOAD DUP1 DUP3 DUP6 ADD MSTORE DUP3 JUMPDEST DUP2 DUP2 LT ISZERO PUSH2 0x39ED JUMPI DUP6 DUP2 ADD DUP4 ADD MLOAD DUP6 DUP3 ADD PUSH1 0x40 ADD MSTORE DUP3 ADD PUSH2 0x39D1 JUMP JUMPDEST DUP2 DUP2 GT ISZERO PUSH2 0x39FE JUMPI DUP4 PUSH1 0x40 DUP4 DUP8 ADD ADD MSTORE JUMPDEST POP PUSH1 0x1F ADD PUSH32 0xFFFFFFFFFFFFFFFFFFFFFFFFFFFFFFFFFFFFFFFFFFFFFFFFFFFFFFFFFFFFFFE0 AND SWAP3 SWAP1 SWAP3 ADD PUSH1 0x40 ADD SWAP4 SWAP3 POP POP POP JUMP JUMPDEST PUSH1 0x0 PUSH1 0xA0 DUP3 ADD DUP8 DUP4 MSTORE PUSH1 0x20 DUP8 DUP2 DUP6 ADD MSTORE PUSH1 0xA0 PUSH1 0x40 DUP6 ADD MSTORE DUP2 DUP8 MLOAD DUP1 DUP5 MSTORE PUSH1 0xC0 DUP7 ADD SWAP2 POP DUP3 DUP10 ADD SWAP4 POP DUP5 JUMPDEST DUP2 DUP2 LT ISZERO PUSH2 0x3A81 JUMPI DUP5 MLOAD PUSH1 0x1 PUSH1 0x1 PUSH1 0xA0 SHL SUB AND DUP4 MSTORE SWAP4 DUP4 ADD SWAP4 SWAP2 DUP4 ADD SWAP2 PUSH1 0x1 ADD PUSH2 0x3A5C JUMP JUMPDEST POP POP PUSH1 0x1 PUSH1 0x1 PUSH1 0xA0 SHL SUB SWAP7 SWAP1 SWAP7 AND PUSH1 0x60 DUP6 ADD MSTORE POP POP POP PUSH1 0x80 ADD MSTORE SWAP4 SWAP3 POP POP POP JUMP JUMPDEST PUSH1 0x0 DUP3 NOT DUP3 GT ISZERO PUSH2 0x3AB5 JUMPI PUSH2 0x3AB5 PUSH2 0x3B98 JUMP JUMPDEST POP ADD SWAP1 JUMP JUMPDEST PUSH1 0x0 DUP3 PUSH2 0x3AC9 JUMPI PUSH2 0x3AC9 PUSH2 0x3BC7 JUMP JUMPDEST POP DIV SWAP1 JUMP JUMPDEST PUSH1 0x0 DUP2 PUSH32 0xFFFFFFFFFFFFFFFFFFFFFFFFFFFFFFFFFFFFFFFFFFFFFFFFFFFFFFFFFFFFFFFF DIV DUP4 GT DUP3 ISZERO ISZERO AND ISZERO PUSH2 0x3B06 JUMPI PUSH2 0x3B06 PUSH2 0x3B98 JUMP JUMPDEST POP MUL SWAP1 JUMP JUMPDEST PUSH1 0x0 PUSH4 0xFFFFFFFF DUP1 DUP4 AND DUP2 DUP6 AND DUP2 DUP4 DIV DUP2 GT DUP3 ISZERO ISZERO AND ISZERO PUSH2 0x3B2E JUMPI PUSH2 0x3B2E PUSH2 0x3B98 JUMP JUMPDEST MUL SWAP5 SWAP4 POP POP POP POP JUMP JUMPDEST PUSH1 0x0 DUP3 DUP3 LT ISZERO PUSH2 0x3B49 JUMPI PUSH2 0x3B49 PUSH2 0x3B98 JUMP JUMPDEST POP SUB SWAP1 JUMP JUMPDEST PUSH1 0x0 DUP3 PUSH2 0x3B5D JUMPI PUSH2 0x3B5D PUSH2 0x3BC7 JUMP JUMPDEST POP MOD SWAP1 JUMP JUMPDEST PUSH1 0x0 PUSH32 0x8000000000000000000000000000000000000000000000000000000000000000 DUP3 EQ ISZERO PUSH2 0x3B94 JUMPI PUSH2 0x3B94 PUSH2 0x3B98 JUMP JUMPDEST SUB SWAP1 JUMP JUMPDEST PUSH32 0x4E487B7100000000000000000000000000000000000000000000000000000000 PUSH1 0x0 MSTORE PUSH1 0x11 PUSH1 0x4 MSTORE PUSH1 0x24 PUSH1 0x0 REVERT JUMPDEST PUSH32 0x4E487B7100000000000000000000000000000000000000000000000000000000 PUSH1 0x0 MSTORE PUSH1 0x12 PUSH1 0x4 MSTORE PUSH1 0x24 PUSH1 0x0 REVERT JUMPDEST PUSH1 0x1 PUSH1 0x1 PUSH1 0xA0 SHL SUB DUP2 AND DUP2 EQ PUSH2 0x12EB JUMPI PUSH1 0x0 DUP1 REVERT JUMPDEST DUP1 ISZERO ISZERO DUP2 EQ PUSH2 0x12EB JUMPI PUSH1 0x0 DUP1 REVERT JUMPDEST PUSH4 0xFFFFFFFF DUP2 AND DUP2 EQ PUSH2 0x12EB JUMPI PUSH1 0x0 DUP1 REVERT INVALID GASLIMIT MSTORE NUMBER ORIGIN ADDRESS GASPRICE KECCAK256 PUSH21 0x72616E7366657220616D6F756E7420657863656564 PUSH20 0x20616C6C6F77616E6365A2646970667358221220 0xD4 GASLIMIT 0xBA 0x2F 0xDB 0xA5 SHR 0xB8 0xD3 0xEE 0x4B 0xED 0x2C 0xED 0xB6 0xE9 0xCD SHL PUSH10 0xC0317A471AD158AF8FC1 0x2F LT SWAP12 PUSH5 0x736F6C6343 STOP ADDMOD DIV STOP CALLER "
				},
				"gasEstimates": {
					"creation": {
						"codeDepositCost": "3099400",
						"executionCost": "infinite",
						"totalCost": "infinite"
					},
					"external": {
						"ATHvariance()": "infinite",
						"_buyEcosystemFee()": "1097",
						"_buyLiquidityFee()": "1095",
						"_buyMarketingFee()": "1073",
						"_buyTeamFee()": "1051",
						"_maxWalletAmount()": "1052",
						"_sellEcosystemFee()": "1053",
						"_sellLiquidityFee()": "1053",
						"_sellMarketingFee()": "1095",
						"_sellTeamFee()": "1052",
						"addBot(address)": "23010",
						"allowance(address,address)": "infinite",
						"approve(address,uint256)": "22605",
						"balanceOf(address)": "1332",
						"canBlackList()": "1111",
						"canChangeTax()": "1090",
						"canPause()": "1155",
						"configureDiamondFloor(bool,uint16)": "infinite",
						"configureStrongHands(bool,uint32)": "infinite",
						"cooldown()": "1171",
						"cooldownRemaining(address)": "infinite",
						"decimals()": "289",
						"diamondFloor()": "3689",
						"disableBlackListing()": "21866",
						"disablePauseAbility()": "21933",
						"disableTaxChange()": "21911",
						"disableToken()": "22749",
						"enableToken()": "21921",
						"excludeFromFee(address)": "22112",
						"includeInFee(address)": "22149",
						"isBot(address)": "1334",
						"manualSendToken(address)": "infinite",
						"manualsend()": "infinite",
						"manualswap()": "infinite",
						"name()": "infinite",
						"numTokensToSwap()": "1054",
						"openTrading(uint256)": "62005",
						"owner()": "1122",
						"pairPrice()": "infinite",
						"removeBot(address)": "22150",
						"renounceOwnership()": "24284",
						"setBuyTaxes(uint256,uint256,uint256,uint256)": "infinite",
						"setMaxWalletAmount(uint256)": "21442",
						"setSellTaxes(uint256,uint256,uint256,uint256)": "infinite",
						"setTransferTransactionMultiplier(uint256)": "21132",
						"symbol()": "infinite",
						"totalSupply()": "272",
						"tradingOpen()": "1120",
						"transfer(address,uint256)": "infinite",
						"transferFeeIncreaseFactor()": "1073",
						"transferFrom(address,address,uint256)": "infinite",
						"transferOwnership(address)": "infinite",
						"uniswapV2Pair()": "1127",
						"updateEcosystemAddress(address)": "22079",
						"updateLpRecipient(address)": "22080",
						"updateMarketingAddress(address)": "22103",
						"updateNumTokensToSwap(uint256)": "21131",
						"updateTeamAddress(address)": "22059"
					},
					"internal": {
						"_approve(address,address,uint256)": "infinite",
						"_checkPriceConditions()": "infinite",
						"_tokenTransfer(address,address,uint256,bool)": "infinite",
						"_transfer(address,address,uint256)": "infinite",
						"_transferStandard(address,address,uint256)": "infinite",
						"addLiquidity(uint256,uint256)": "infinite",
						"removeAllFee()": "infinite",
						"restoreAllFee()": "infinite",
						"sendETHToFee(uint256)": "infinite",
						"swapAndLiquify(uint256,uint256)": "infinite",
						"swapTokensForEth(uint256)": "infinite"
					}
				},
				"methodIdentifiers": {
					"ATHvariance()": "80670f3c",
					"_buyEcosystemFee()": "2843631d",
					"_buyLiquidityFee()": "dc44b6a0",
					"_buyMarketingFee()": "c5d24189",
					"_buyTeamFee()": "c469b6dd",
					"_maxWalletAmount()": "6c0a24eb",
					"_sellEcosystemFee()": "248dd232",
					"_sellLiquidityFee()": "88790a68",
					"_sellMarketingFee()": "c8607952",
					"_sellTeamFee()": "cab03471",
					"addBot(address)": "ffecf516",
					"allowance(address,address)": "dd62ed3e",
					"approve(address,uint256)": "095ea7b3",
					"balanceOf(address)": "70a08231",
					"canBlackList()": "301ad558",
					"canChangeTax()": "39a53c4e",
					"canPause()": "323be1c5",
					"configureDiamondFloor(bool,uint16)": "fe0bb982",
					"configureStrongHands(bool,uint32)": "729cb3f2",
					"cooldown()": "787a08a6",
					"cooldownRemaining(address)": "9d82190f",
					"decimals()": "313ce567",
					"diamondFloor()": "c95457ff",
					"disableBlackListing()": "d55cb78a",
					"disablePauseAbility()": "6aabff3f",
					"disableTaxChange()": "99a7b9bc",
					"disableToken()": "3e0f966d",
					"enableToken()": "8e360253",
					"excludeFromFee(address)": "437823ec",
					"includeInFee(address)": "ea2f0b37",
					"isBot(address)": "3bbac579",
					"manualSendToken(address)": "29409395",
					"manualsend()": "6fc3eaec",
					"manualswap()": "c3c8cd80",
					"name()": "06fdde03",
					"numTokensToSwap()": "01a6c43b",
					"openTrading(uint256)": "d1633649",
					"owner()": "8da5cb5b",
					"pairPrice()": "9491f94d",
					"removeBot(address)": "5fecd926",
					"renounceOwnership()": "715018a6",
					"setBuyTaxes(uint256,uint256,uint256,uint256)": "e4bf1bed",
					"setMaxWalletAmount(uint256)": "27a14fc2",
					"setSellTaxes(uint256,uint256,uint256,uint256)": "f480fec2",
					"setTransferTransactionMultiplier(uint256)": "a850673d",
					"symbol()": "95d89b41",
					"totalSupply()": "18160ddd",
					"tradingOpen()": "ffb54a99",
					"transfer(address,uint256)": "a9059cbb",
					"transferFeeIncreaseFactor()": "72b2aecc",
					"transferFrom(address,address,uint256)": "23b872dd",
					"transferOwnership(address)": "f2fde38b",
					"uniswapV2Pair()": "49bd5a5e",
					"updateEcosystemAddress(address)": "db0045ec",
					"updateLpRecipient(address)": "cdb3858f",
					"updateMarketingAddress(address)": "2369bf83",
					"updateNumTokensToSwap(uint256)": "e315a6da",
					"updateTeamAddress(address)": "14eb76ac"
				}
			},
			"storageLayout": {
				"storage": [
					{
						"astId": 228,
						"contract": "contracts/gainzilla.sol:gainZilla",
						"label": "_owner",
						"offset": 0,
						"slot": "0",
						"type": "t_address"
					},
					{
						"astId": 230,
						"contract": "contracts/gainzilla.sol:gainZilla",
						"label": "_previousOwner",
						"offset": 0,
						"slot": "1",
						"type": "t_address"
					},
					{
						"astId": 749,
						"contract": "contracts/gainzilla.sol:gainZilla",
						"label": "_balances",
						"offset": 0,
						"slot": "2",
						"type": "t_mapping(t_address,t_uint256)"
					},
					{
						"astId": 755,
						"contract": "contracts/gainzilla.sol:gainZilla",
						"label": "_allowances",
						"offset": 0,
						"slot": "3",
						"type": "t_mapping(t_address,t_mapping(t_address,t_uint256))"
					},
					{
						"astId": 759,
						"contract": "contracts/gainzilla.sol:gainZilla",
						"label": "_isExcludedFromFee",
						"offset": 0,
						"slot": "4",
						"type": "t_mapping(t_address,t_bool)"
					},
					{
						"astId": 768,
						"contract": "contracts/gainzilla.sol:gainZilla",
						"label": "_firstBlock",
						"offset": 0,
						"slot": "5",
						"type": "t_uint256"
					},
					{
						"astId": 770,
						"contract": "contracts/gainzilla.sol:gainZilla",
						"label": "_botBlocks",
						"offset": 0,
						"slot": "6",
						"type": "t_uint256"
					},
					{
						"astId": 777,
						"contract": "contracts/gainzilla.sol:gainZilla",
						"label": "_maxWalletAmount",
						"offset": 0,
						"slot": "7",
						"type": "t_uint256"
					},
					{
						"astId": 784,
						"contract": "contracts/gainzilla.sol:gainZilla",
						"label": "numTokensToSwap",
						"offset": 0,
						"slot": "8",
						"type": "t_uint256"
					},
					{
						"astId": 787,
						"contract": "contracts/gainzilla.sol:gainZilla",
						"label": "_buyLiquidityFee",
						"offset": 0,
						"slot": "9",
						"type": "t_uint256"
					},
					{
						"astId": 790,
						"contract": "contracts/gainzilla.sol:gainZilla",
						"label": "_previousBuyLiquidityFee",
						"offset": 0,
						"slot": "10",
						"type": "t_uint256"
					},
					{
						"astId": 793,
						"contract": "contracts/gainzilla.sol:gainZilla",
						"label": "_buyEcosystemFee",
						"offset": 0,
						"slot": "11",
						"type": "t_uint256"
					},
					{
						"astId": 796,
						"contract": "contracts/gainzilla.sol:gainZilla",
						"label": "_previousBuyEcosystemFee",
						"offset": 0,
						"slot": "12",
						"type": "t_uint256"
					},
					{
						"astId": 799,
						"contract": "contracts/gainzilla.sol:gainZilla",
						"label": "_buyMarketingFee",
						"offset": 0,
						"slot": "13",
						"type": "t_uint256"
					},
					{
						"astId": 802,
						"contract": "contracts/gainzilla.sol:gainZilla",
						"label": "_previousBuyMarketingFee",
						"offset": 0,
						"slot": "14",
						"type": "t_uint256"
					},
					{
						"astId": 805,
						"contract": "contracts/gainzilla.sol:gainZilla",
						"label": "_buyTeamFee",
						"offset": 0,
						"slot": "15",
						"type": "t_uint256"
					},
					{
						"astId": 808,
						"contract": "contracts/gainzilla.sol:gainZilla",
						"label": "_previousBuyTeamFee",
						"offset": 0,
						"slot": "16",
						"type": "t_uint256"
					},
					{
						"astId": 811,
						"contract": "contracts/gainzilla.sol:gainZilla",
						"label": "_sellLiquidityFee",
						"offset": 0,
						"slot": "17",
						"type": "t_uint256"
					},
					{
						"astId": 814,
						"contract": "contracts/gainzilla.sol:gainZilla",
						"label": "_previousSellLiquidityFee",
						"offset": 0,
						"slot": "18",
						"type": "t_uint256"
					},
					{
						"astId": 817,
						"contract": "contracts/gainzilla.sol:gainZilla",
						"label": "_sellEcosystemFee",
						"offset": 0,
						"slot": "19",
						"type": "t_uint256"
					},
					{
						"astId": 820,
						"contract": "contracts/gainzilla.sol:gainZilla",
						"label": "_previousSellEcosystemFee",
						"offset": 0,
						"slot": "20",
						"type": "t_uint256"
					},
					{
						"astId": 823,
						"contract": "contracts/gainzilla.sol:gainZilla",
						"label": "_sellMarketingFee",
						"offset": 0,
						"slot": "21",
						"type": "t_uint256"
					},
					{
						"astId": 826,
						"contract": "contracts/gainzilla.sol:gainZilla",
						"label": "_previousSellMarketingFee",
						"offset": 0,
						"slot": "22",
						"type": "t_uint256"
					},
					{
						"astId": 829,
						"contract": "contracts/gainzilla.sol:gainZilla",
						"label": "_sellTeamFee",
						"offset": 0,
						"slot": "23",
						"type": "t_uint256"
					},
					{
						"astId": 832,
						"contract": "contracts/gainzilla.sol:gainZilla",
						"label": "_previousSellTeamFee",
						"offset": 0,
						"slot": "24",
						"type": "t_uint256"
					},
					{
						"astId": 835,
						"contract": "contracts/gainzilla.sol:gainZilla",
						"label": "transferFeeIncreaseFactor",
						"offset": 0,
						"slot": "25",
						"type": "t_uint256"
					},
					{
						"astId": 858,
						"contract": "contracts/gainzilla.sol:gainZilla",
						"label": "cooldown",
						"offset": 0,
						"slot": "26",
						"type": "t_struct(StrongHandsConfig)855_storage"
					},
					{
						"astId": 872,
						"contract": "contracts/gainzilla.sol:gainZilla",
						"label": "diamondFloor",
						"offset": 0,
						"slot": "28",
						"type": "t_struct(DiamondFloor)869_storage"
					},
					{
						"astId": 876,
						"contract": "contracts/gainzilla.sol:gainZilla",
						"label": "bots",
						"offset": 0,
						"slot": "32",
						"type": "t_mapping(t_address,t_bool)"
					},
					{
						"astId": 883,
						"contract": "contracts/gainzilla.sol:gainZilla",
						"label": "_marketingAddress",
						"offset": 0,
						"slot": "33",
						"type": "t_address_payable"
					},
					{
						"astId": 890,
						"contract": "contracts/gainzilla.sol:gainZilla",
						"label": "_teamAddress",
						"offset": 0,
						"slot": "34",
						"type": "t_address_payable"
					},
					{
						"astId": 897,
						"contract": "contracts/gainzilla.sol:gainZilla",
						"label": "_ecosystemAddress",
						"offset": 0,
						"slot": "35",
						"type": "t_address_payable"
					},
					{
						"astId": 904,
						"contract": "contracts/gainzilla.sol:gainZilla",
						"label": "_lpRecipient",
						"offset": 0,
						"slot": "36",
						"type": "t_address_payable"
					},
					{
						"astId": 907,
						"contract": "contracts/gainzilla.sol:gainZilla",
						"label": "uniswapV2Router",
						"offset": 0,
						"slot": "37",
						"type": "t_contract(IUniswapV2Router02)707"
					},
					{
						"astId": 909,
						"contract": "contracts/gainzilla.sol:gainZilla",
						"label": "uniswapV2Pair",
						"offset": 0,
						"slot": "38",
						"type": "t_address"
					},
					{
						"astId": 911,
						"contract": "contracts/gainzilla.sol:gainZilla",
						"label": "_maxTxAmount",
						"offset": 0,
						"slot": "39",
						"type": "t_uint256"
					},
					{
						"astId": 914,
						"contract": "contracts/gainzilla.sol:gainZilla",
						"label": "tradingOpen",
						"offset": 0,
						"slot": "40",
						"type": "t_bool"
					},
					{
						"astId": 917,
						"contract": "contracts/gainzilla.sol:gainZilla",
						"label": "inSwap",
						"offset": 1,
						"slot": "40",
						"type": "t_bool"
					},
					{
						"astId": 920,
						"contract": "contracts/gainzilla.sol:gainZilla",
						"label": "canPause",
						"offset": 2,
						"slot": "40",
						"type": "t_bool"
					},
					{
						"astId": 923,
						"contract": "contracts/gainzilla.sol:gainZilla",
						"label": "canBlackList",
						"offset": 3,
						"slot": "40",
						"type": "t_bool"
					},
					{
						"astId": 926,
						"contract": "contracts/gainzilla.sol:gainZilla",
						"label": "canChangeTax",
						"offset": 4,
						"slot": "40",
						"type": "t_bool"
					}
				],
				"types": {
					"t_address": {
						"encoding": "inplace",
						"label": "address",
						"numberOfBytes": "20"
					},
					"t_address_payable": {
						"encoding": "inplace",
						"label": "address payable",
						"numberOfBytes": "20"
					},
					"t_bool": {
						"encoding": "inplace",
						"label": "bool",
						"numberOfBytes": "1"
					},
					"t_contract(IUniswapV2Router02)707": {
						"encoding": "inplace",
						"label": "contract IUniswapV2Router02",
						"numberOfBytes": "20"
					},
					"t_mapping(t_address,t_bool)": {
						"encoding": "mapping",
						"key": "t_address",
						"label": "mapping(address => bool)",
						"numberOfBytes": "32",
						"value": "t_bool"
					},
					"t_mapping(t_address,t_mapping(t_address,t_uint256))": {
						"encoding": "mapping",
						"key": "t_address",
						"label": "mapping(address => mapping(address => uint256))",
						"numberOfBytes": "32",
						"value": "t_mapping(t_address,t_uint256)"
					},
					"t_mapping(t_address,t_uint256)": {
						"encoding": "mapping",
						"key": "t_address",
						"label": "mapping(address => uint256)",
						"numberOfBytes": "32",
						"value": "t_uint256"
					},
					"t_struct(DiamondFloor)869_storage": {
						"encoding": "inplace",
						"label": "struct gainZilla.DiamondFloor",
						"members": [
							{
								"astId": 860,
								"contract": "contracts/gainzilla.sol:gainZilla",
								"label": "enabled",
								"offset": 0,
								"slot": "0",
								"type": "t_bool"
							},
							{
								"astId": 862,
								"contract": "contracts/gainzilla.sol:gainZilla",
								"label": "triggerPercentage",
								"offset": 1,
								"slot": "0",
								"type": "t_uint16"
							},
							{
								"astId": 864,
								"contract": "contracts/gainzilla.sol:gainZilla",
								"label": "athPrice",
								"offset": 0,
								"slot": "1",
								"type": "t_uint256"
							},
							{
								"astId": 866,
								"contract": "contracts/gainzilla.sol:gainZilla",
								"label": "sellStopped",
								"offset": 0,
								"slot": "2",
								"type": "t_bool"
							},
							{
								"astId": 868,
								"contract": "contracts/gainzilla.sol:gainZilla",
								"label": "blockedAth",
								"offset": 0,
								"slot": "3",
								"type": "t_uint256"
							}
						],
						"numberOfBytes": "128"
					},
					"t_struct(StrongHandsConfig)855_storage": {
						"encoding": "inplace",
						"label": "struct gainZilla.StrongHandsConfig",
						"members": [
							{
								"astId": 848,
								"contract": "contracts/gainzilla.sol:gainZilla",
								"label": "enabled",
								"offset": 0,
								"slot": "0",
								"type": "t_bool"
							},
							{
								"astId": 850,
								"contract": "contracts/gainzilla.sol:gainZilla",
								"label": "duration",
								"offset": 1,
								"slot": "0",
								"type": "t_uint32"
							},
							{
								"astId": 854,
								"contract": "contracts/gainzilla.sol:gainZilla",
								"label": "walletList",
								"offset": 0,
								"slot": "1",
								"type": "t_mapping(t_address,t_uint256)"
							}
						],
						"numberOfBytes": "64"
					},
					"t_uint16": {
						"encoding": "inplace",
						"label": "uint16",
						"numberOfBytes": "2"
					},
					"t_uint256": {
						"encoding": "inplace",
						"label": "uint256",
						"numberOfBytes": "32"
					},
					"t_uint32": {
						"encoding": "inplace",
						"label": "uint32",
						"numberOfBytes": "4"
					}
				}
			},
			"userdoc": {
				"kind": "user",
				"methods": {},
				"version": 1
			}
		}
	}
}