{
	"contracts/gainzilla.sol": {
		"MemeCoin": {
			"abi": [
				{
					"inputs": [],
					"stateMutability": "nonpayable",
					"type": "constructor"
				},
				{
					"anonymous": false,
					"inputs": [
						{
							"indexed": true,
							"internalType": "address",
							"name": "owner",
							"type": "address"
						},
						{
							"indexed": true,
							"internalType": "address",
							"name": "spender",
							"type": "address"
						},
						{
							"indexed": false,
							"internalType": "uint256",
							"name": "value",
							"type": "uint256"
						}
					],
					"name": "Approval",
					"type": "event"
				},
				{
					"anonymous": false,
					"inputs": [
						{
							"indexed": false,
							"internalType": "uint256",
							"name": "tokenAmount",
							"type": "uint256"
						},
						{
							"indexed": false,
							"internalType": "uint256",
							"name": "ethAmount",
							"type": "uint256"
						}
					],
					"name": "LiquidityAdded",
					"type": "event"
				},
				{
					"anonymous": false,
					"inputs": [
						{
							"indexed": false,
							"internalType": "uint256",
							"name": "newPercentage",
							"type": "uint256"
						}
					],
					"name": "MaxWalletUpdated",
					"type": "event"
				},
				{
					"anonymous": false,
					"inputs": [
						{
							"indexed": true,
							"internalType": "address",
							"name": "previousOwner",
							"type": "address"
						},
						{
							"indexed": true,
							"internalType": "address",
							"name": "newOwner",
							"type": "address"
						}
					],
					"name": "OwnershipTransferred",
					"type": "event"
				},
				{
					"anonymous": false,
					"inputs": [
						{
							"indexed": false,
							"internalType": "address",
							"name": "newRouter",
							"type": "address"
						}
					],
					"name": "RouterUpdated",
					"type": "event"
				},
				{
					"anonymous": false,
					"inputs": [
						{
							"indexed": false,
							"internalType": "uint256",
							"name": "lpAmount",
							"type": "uint256"
						},
						{
							"indexed": false,
							"internalType": "uint256",
							"name": "ecoAmount",
							"type": "uint256"
						}
					],
					"name": "TaxesCollected",
					"type": "event"
				},
				{
					"anonymous": false,
					"inputs": [
						{
							"indexed": true,
							"internalType": "address",
							"name": "from",
							"type": "address"
						},
						{
							"indexed": true,
							"internalType": "address",
							"name": "to",
							"type": "address"
						},
						{
							"indexed": false,
							"internalType": "uint256",
							"name": "value",
							"type": "uint256"
						}
					],
					"name": "Transfer",
					"type": "event"
				},
				{
					"inputs": [],
					"name": "_maxWalletSize",
					"outputs": [
						{
							"internalType": "uint256",
							"name": "",
							"type": "uint256"
						}
					],
					"stateMutability": "view",
					"type": "function"
				},
				{
					"inputs": [],
					"name": "accumulatedEco",
					"outputs": [
						{
							"internalType": "uint256",
							"name": "",
							"type": "uint256"
						}
					],
					"stateMutability": "view",
					"type": "function"
				},
				{
					"inputs": [],
					"name": "accumulatedLp",
					"outputs": [
						{
							"internalType": "uint256",
							"name": "",
							"type": "uint256"
						}
					],
					"stateMutability": "view",
					"type": "function"
				},
				{
					"inputs": [
						{
							"internalType": "address",
							"name": "owner",
							"type": "address"
						},
						{
							"internalType": "address",
							"name": "spender",
							"type": "address"
						}
					],
					"name": "allowance",
					"outputs": [
						{
							"internalType": "uint256",
							"name": "",
							"type": "uint256"
						}
					],
					"stateMutability": "view",
					"type": "function"
				},
				{
					"inputs": [
						{
							"internalType": "address",
							"name": "spender",
							"type": "address"
						},
						{
							"internalType": "uint256",
							"name": "amount",
							"type": "uint256"
						}
					],
					"name": "approve",
					"outputs": [
						{
							"internalType": "bool",
							"name": "",
							"type": "bool"
						}
					],
					"stateMutability": "nonpayable",
					"type": "function"
				},
				{
					"inputs": [
						{
							"internalType": "address",
							"name": "account",
							"type": "address"
						}
					],
					"name": "balanceOf",
					"outputs": [
						{
							"internalType": "uint256",
							"name": "",
							"type": "uint256"
						}
					],
					"stateMutability": "view",
					"type": "function"
				},
				{
					"inputs": [
						{
							"internalType": "bool",
							"name": "enabled",
							"type": "bool"
						},
						{
							"internalType": "uint32",
							"name": "duration",
							"type": "uint32"
						}
					],
					"name": "configureCooldown",
					"outputs": [],
					"stateMutability": "nonpayable",
					"type": "function"
				},
				{
					"inputs": [
						{
							"internalType": "bool",
							"name": "enabled",
							"type": "bool"
						},
						{
							"internalType": "uint16",
							"name": "triggerPercent",
							"type": "uint16"
						}
					],
					"name": "configureDiamondFloor",
					"outputs": [],
					"stateMutability": "nonpayable",
					"type": "function"
				},
				{
					"inputs": [],
					"name": "cooldown",
					"outputs": [
						{
							"internalType": "bool",
							"name": "enabled",
							"type": "bool"
						},
						{
							"internalType": "uint32",
							"name": "duration",
							"type": "uint32"
						}
					],
					"stateMutability": "view",
					"type": "function"
				},
				{
					"inputs": [
						{
							"internalType": "address",
							"name": "account",
							"type": "address"
						}
					],
					"name": "cooldownRemaining",
					"outputs": [
						{
							"internalType": "uint256",
							"name": "days_",
							"type": "uint256"
						},
						{
							"internalType": "uint256",
							"name": "hours_",
							"type": "uint256"
						},
						{
							"internalType": "uint256",
							"name": "minutes_",
							"type": "uint256"
						},
						{
							"internalType": "uint256",
							"name": "seconds_",
							"type": "uint256"
						}
					],
					"stateMutability": "view",
					"type": "function"
				},
				{
					"inputs": [],
					"name": "decimals",
					"outputs": [
						{
							"internalType": "uint8",
							"name": "",
							"type": "uint8"
						}
					],
					"stateMutability": "view",
					"type": "function"
				},
				{
					"inputs": [
						{
							"internalType": "address",
							"name": "spender",
							"type": "address"
						},
						{
							"internalType": "uint256",
							"name": "subtractedValue",
							"type": "uint256"
						}
					],
					"name": "decreaseAllowance",
					"outputs": [
						{
							"internalType": "bool",
							"name": "",
							"type": "bool"
						}
					],
					"stateMutability": "nonpayable",
					"type": "function"
				},
				{
					"inputs": [],
					"name": "diamondFloor",
					"outputs": [
						{
							"internalType": "bool",
							"name": "enabled",
							"type": "bool"
						},
						{
							"internalType": "uint16",
							"name": "triggerPercentage",
							"type": "uint16"
						},
						{
							"internalType": "uint256",
							"name": "athPrice",
							"type": "uint256"
						},
						{
							"internalType": "bool",
							"name": "sellStopped",
							"type": "bool"
						},
						{
							"internalType": "uint256",
							"name": "blockedAth",
							"type": "uint256"
						}
					],
					"stateMutability": "view",
					"type": "function"
				},
				{
					"inputs": [
						{
							"internalType": "address",
							"name": "spender",
							"type": "address"
						},
						{
							"internalType": "uint256",
							"name": "addedValue",
							"type": "uint256"
						}
					],
					"name": "increaseAllowance",
					"outputs": [
						{
							"internalType": "bool",
							"name": "",
							"type": "bool"
						}
					],
					"stateMutability": "nonpayable",
					"type": "function"
				},
				{
					"inputs": [
						{
							"internalType": "address",
							"name": "",
							"type": "address"
						}
					],
					"name": "isExempt",
					"outputs": [
						{
							"internalType": "bool",
							"name": "",
							"type": "bool"
						}
					],
					"stateMutability": "view",
					"type": "function"
				},
				{
					"inputs": [],
					"name": "maxWalletPercentage",
					"outputs": [
						{
							"internalType": "uint256",
							"name": "",
							"type": "uint256"
						}
					],
					"stateMutability": "view",
					"type": "function"
				},
				{
					"inputs": [],
					"name": "name",
					"outputs": [
						{
							"internalType": "string",
							"name": "",
							"type": "string"
						}
					],
					"stateMutability": "view",
					"type": "function"
				},
				{
					"inputs": [],
					"name": "owner",
					"outputs": [
						{
							"internalType": "address",
							"name": "",
							"type": "address"
						}
					],
					"stateMutability": "view",
					"type": "function"
				},
				{
					"inputs": [],
					"name": "pairAddress",
					"outputs": [
						{
							"internalType": "address",
							"name": "",
							"type": "address"
						}
					],
					"stateMutability": "view",
					"type": "function"
				},
				{
					"inputs": [],
					"name": "pairPrice",
					"outputs": [
						{
							"internalType": "uint256",
							"name": "",
							"type": "uint256"
						}
					],
					"stateMutability": "view",
					"type": "function"
				},
				{
					"inputs": [],
					"name": "priceDeviation",
					"outputs": [
						{
							"internalType": "int256",
							"name": "",
							"type": "int256"
						}
					],
					"stateMutability": "view",
					"type": "function"
				},
				{
					"inputs": [],
					"name": "renounceOwnership",
					"outputs": [],
					"stateMutability": "nonpayable",
					"type": "function"
				},
				{
					"inputs": [],
					"name": "routerAddress",
					"outputs": [
						{
							"internalType": "address",
							"name": "",
							"type": "address"
						}
					],
					"stateMutability": "view",
					"type": "function"
				},
				{
					"inputs": [
						{
							"internalType": "address",
							"name": "account",
							"type": "address"
						},
						{
							"internalType": "bool",
							"name": "exempt",
							"type": "bool"
						}
					],
					"name": "setExempt",
					"outputs": [],
					"stateMutability": "nonpayable",
					"type": "function"
				},
				{
					"inputs": [
						{
							"internalType": "uint256",
							"name": "percentage",
							"type": "uint256"
						}
					],
					"name": "setMaxWalletPercentage",
					"outputs": [],
					"stateMutability": "nonpayable",
					"type": "function"
				},
				{
					"inputs": [
						{
							"internalType": "address",
							"name": "newRouter",
							"type": "address"
						}
					],
					"name": "setRouter",
					"outputs": [],
					"stateMutability": "nonpayable",
					"type": "function"
				},
				{
					"inputs": [
						{
							"internalType": "uint16",
							"name": "buyLp",
							"type": "uint16"
						},
						{
							"internalType": "uint16",
							"name": "buyEco",
							"type": "uint16"
						},
						{
							"internalType": "uint16",
							"name": "sellLp",
							"type": "uint16"
						},
						{
							"internalType": "uint16",
							"name": "sellEco",
							"type": "uint16"
						}
					],
					"name": "setTaxRates",
					"outputs": [],
					"stateMutability": "nonpayable",
					"type": "function"
				},
				{
					"inputs": [
						{
							"internalType": "uint256",
							"name": "threshold",
							"type": "uint256"
						}
					],
					"name": "setThreshold",
					"outputs": [],
					"stateMutability": "nonpayable",
					"type": "function"
				},
				{
					"inputs": [],
					"name": "swapThreshold",
					"outputs": [
						{
							"internalType": "uint256",
							"name": "",
							"type": "uint256"
						}
					],
					"stateMutability": "view",
					"type": "function"
				},
				{
					"inputs": [],
					"name": "symbol",
					"outputs": [
						{
							"internalType": "string",
							"name": "",
							"type": "string"
						}
					],
					"stateMutability": "view",
					"type": "function"
				},
				{
					"inputs": [],
					"name": "taxRates",
					"outputs": [
						{
							"internalType": "uint16",
							"name": "buyLp",
							"type": "uint16"
						},
						{
							"internalType": "uint16",
							"name": "buyEco",
							"type": "uint16"
						},
						{
							"internalType": "uint16",
							"name": "sellLp",
							"type": "uint16"
						},
						{
							"internalType": "uint16",
							"name": "sellEco",
							"type": "uint16"
						}
					],
					"stateMutability": "view",
					"type": "function"
				},
				{
					"inputs": [],
					"name": "totalSupply",
					"outputs": [
						{
							"internalType": "uint256",
							"name": "",
							"type": "uint256"
						}
					],
					"stateMutability": "view",
					"type": "function"
				},
				{
					"inputs": [
						{
							"internalType": "address",
							"name": "to",
							"type": "address"
						},
						{
							"internalType": "uint256",
							"name": "amount",
							"type": "uint256"
						}
					],
					"name": "transfer",
					"outputs": [
						{
							"internalType": "bool",
							"name": "",
							"type": "bool"
						}
					],
					"stateMutability": "nonpayable",
					"type": "function"
				},
				{
					"inputs": [
						{
							"internalType": "address",
							"name": "from",
							"type": "address"
						},
						{
							"internalType": "address",
							"name": "to",
							"type": "address"
						},
						{
							"internalType": "uint256",
							"name": "amount",
							"type": "uint256"
						}
					],
					"name": "transferFrom",
					"outputs": [
						{
							"internalType": "bool",
							"name": "",
							"type": "bool"
						}
					],
					"stateMutability": "nonpayable",
					"type": "function"
				},
				{
					"inputs": [
						{
							"internalType": "address",
							"name": "newOwner",
							"type": "address"
						}
					],
					"name": "transferOwnership",
					"outputs": [],
					"stateMutability": "nonpayable",
					"type": "function"
				},
				{
					"stateMutability": "payable",
					"type": "receive"
				}
			],
			"devdoc": {
				"events": {
					"Approval(address,address,uint256)": {
						"details": "Emitted when the allowance of a `spender` for an `owner` is set by a call to {approve}. `value` is the new allowance."
					},
					"Transfer(address,address,uint256)": {
						"details": "Emitted when `value` tokens are moved from one account (`from`) to another (`to`). Note that `value` may be zero."
					}
				},
				"kind": "dev",
				"methods": {
					"allowance(address,address)": {
						"details": "See {IERC20-allowance}."
					},
					"approve(address,uint256)": {
						"details": "See {IERC20-approve}. NOTE: If `amount` is the maximum `uint256`, the allowance is not updated on `transferFrom`. This is semantically equivalent to an infinite approval. Requirements: - `spender` cannot be the zero address."
					},
					"balanceOf(address)": {
						"details": "See {IERC20-balanceOf}."
					},
					"decimals()": {
						"details": "Returns the number of decimals used to get its user representation. For example, if `decimals` equals `2`, a balance of `505` tokens should be displayed to a user as `5.05` (`505 / 10 ** 2`). Tokens usually opt for a value of 18, imitating the relationship between Ether and Wei. This is the default value returned by this function, unless it's overridden. NOTE: This information is only used for _display_ purposes: it in no way affects any of the arithmetic of the contract, including {IERC20-balanceOf} and {IERC20-transfer}."
					},
					"decreaseAllowance(address,uint256)": {
						"details": "Atomically decreases the allowance granted to `spender` by the caller. This is an alternative to {approve} that can be used as a mitigation for problems described in {IERC20-approve}. Emits an {Approval} event indicating the updated allowance. Requirements: - `spender` cannot be the zero address. - `spender` must have allowance for the caller of at least `subtractedValue`."
					},
					"increaseAllowance(address,uint256)": {
						"details": "Atomically increases the allowance granted to `spender` by the caller. This is an alternative to {approve} that can be used as a mitigation for problems described in {IERC20-approve}. Emits an {Approval} event indicating the updated allowance. Requirements: - `spender` cannot be the zero address."
					},
					"name()": {
						"details": "Returns the name of the token."
					},
					"owner()": {
						"details": "Returns the address of the current owner."
					},
					"renounceOwnership()": {
						"details": "Leaves the contract without owner. It will not be possible to call `onlyOwner` functions. Can only be called by the current owner. NOTE: Renouncing ownership will leave the contract without an owner, thereby disabling any functionality that is only available to the owner."
					},
					"symbol()": {
						"details": "Returns the symbol of the token, usually a shorter version of the name."
					},
					"totalSupply()": {
						"details": "See {IERC20-totalSupply}."
					},
					"transfer(address,uint256)": {
						"details": "See {IERC20-transfer}. Requirements: - `to` cannot be the zero address. - the caller must have a balance of at least `amount`."
					},
					"transferFrom(address,address,uint256)": {
						"details": "See {IERC20-transferFrom}. Emits an {Approval} event indicating the updated allowance. This is not required by the EIP. See the note at the beginning of {ERC20}. NOTE: Does not update the allowance if the current allowance is the maximum `uint256`. Requirements: - `from` and `to` cannot be the zero address. - `from` must have a balance of at least `amount`. - the caller must have allowance for ``from``'s tokens of at least `amount`."
					},
					"transferOwnership(address)": {
						"details": "Transfers ownership of the contract to a new account (`newOwner`). Can only be called by the current owner."
					}
				},
				"version": 1
			},
			"evm": {
				"assembly": "    /* \"contracts/gainzilla.sol\":1203:12034  contract MemeCoin is ERC20, Ownable {... */\n  mstore(0x40, 0x80)\n    /* \"contracts/gainzilla.sol\":1383:1386  100 */\n  0x64\n    /* \"contracts/gainzilla.sol\":1346:1386  uint256 public maxWalletPercentage = 100 */\n  0x06\n  sstore\n    /* \"contracts/gainzilla.sol\":1697:1716  TOTAL_SUPPLY / 1000 */\n  tag_1\n    /* \"contracts/gainzilla.sol\":1712:1716  1000 */\n  0x03e8\n    /* \"contracts/gainzilla.sol\":1318:1340  1_000_000_000 * 10**18 */\n  0x033b2e3c9fd0803ce8000000\n    /* \"contracts/gainzilla.sol\":1697:1716  TOTAL_SUPPLY / 1000 */\n  tag_2\n  jump\t// in\ntag_1:\n    /* \"contracts/gainzilla.sol\":1666:1716  uint256 public swapThreshold = TOTAL_SUPPLY / 1000 */\n  0x08\n  sstore\n    /* \"contracts/gainzilla.sol\":2620:2947  constructor() ERC20(\"Meme Coin\", \"MEME\") {... */\n  callvalue\n  dup1\n  iszero\n  tag_3\n  jumpi\n  0x00\n  dup1\n  revert\ntag_3:\n  pop\n    /* \"@openzeppelin/contracts@4.9.3/token/ERC20/ERC20.sol\":1980:2093  constructor(string memory name_, string memory symbol_) {... */\n  mload(0x40)\n  dup1\n  0x40\n  add\n  0x40\n  mstore\n  dup1\n  0x09\n  dup2\n  mstore\n  0x20\n  add\n  shl(0xb9, 0x26b2b6b29021b7b4b7)\n  dup2\n  mstore\n  pop\n  mload(0x40)\n  dup1\n  0x40\n  add\n  0x40\n  mstore\n  dup1\n  0x04\n  dup2\n  mstore\n  0x20\n  add\n  shl(0xe0, 0x4d454d45)\n  dup2\n  mstore\n  pop\n    /* \"@openzeppelin/contracts@4.9.3/token/ERC20/ERC20.sol\":2054:2059  name_ */\n  dup2\n    /* \"@openzeppelin/contracts@4.9.3/token/ERC20/ERC20.sol\":2046:2051  _name */\n  0x03\n    /* \"@openzeppelin/contracts@4.9.3/token/ERC20/ERC20.sol\":2046:2059  _name = name_ */\n  swap1\n  dup2\n  tag_8\n  swap2\n  swap1\n  tag_9\n  jump\t// in\ntag_8:\n  pop\n    /* \"@openzeppelin/contracts@4.9.3/token/ERC20/ERC20.sol\":2069:2076  _symbol */\n  0x04\n    /* \"@openzeppelin/contracts@4.9.3/token/ERC20/ERC20.sol\":2069:2086  _symbol = symbol_ */\n  tag_10\n    /* \"@openzeppelin/contracts@4.9.3/token/ERC20/ERC20.sol\":2079:2086  symbol_ */\n  dup3\n    /* \"@openzeppelin/contracts@4.9.3/token/ERC20/ERC20.sol\":2069:2076  _symbol */\n  dup3\n    /* \"@openzeppelin/contracts@4.9.3/token/ERC20/ERC20.sol\":2069:2086  _symbol = symbol_ */\n  tag_9\n  jump\t// in\ntag_10:\n  pop\n    /* \"@openzeppelin/contracts@4.9.3/token/ERC20/ERC20.sol\":1980:2093  constructor(string memory name_, string memory symbol_) {... */\n  pop\n  pop\n    /* \"@openzeppelin/contracts@4.9.3/access/Ownable.sol\":936:968  _transferOwnership(_msgSender()) */\n  tag_12\n    /* \"@openzeppelin/contracts@4.9.3/access/Ownable.sol\":955:967  _msgSender() */\n  tag_13\n    /* \"@openzeppelin/contracts@4.9.3/access/Ownable.sol\":955:965  _msgSender */\n  shl(0x20, tag_14)\n    /* \"@openzeppelin/contracts@4.9.3/access/Ownable.sol\":955:967  _msgSender() */\n  0x20\n  shr\n  jump\t// in\ntag_13:\n    /* \"@openzeppelin/contracts@4.9.3/access/Ownable.sol\":936:954  _transferOwnership */\n  tag_15\n    /* \"@openzeppelin/contracts@4.9.3/access/Ownable.sol\":936:968  _transferOwnership(_msgSender()) */\n  jump\t// in\ntag_12:\n    /* \"contracts/gainzilla.sol\":2671:2701  _transferOwnership(msg.sender) */\n  tag_17\n    /* \"contracts/gainzilla.sol\":2690:2700  msg.sender */\n  caller\n    /* \"contracts/gainzilla.sol\":2671:2689  _transferOwnership */\n  tag_15\n    /* \"contracts/gainzilla.sol\":2671:2701  _transferOwnership(msg.sender) */\n  jump\t// in\ntag_17:\n    /* \"contracts/gainzilla.sol\":2711:2742  _mint(msg.sender, TOTAL_SUPPLY) */\n  tag_18\n    /* \"contracts/gainzilla.sol\":2717:2727  msg.sender */\n  caller\n    /* \"contracts/gainzilla.sol\":1318:1340  1_000_000_000 * 10**18 */\n  0x033b2e3c9fd0803ce8000000\n    /* \"contracts/gainzilla.sol\":2711:2716  _mint */\n  tag_19\n    /* \"contracts/gainzilla.sol\":2711:2742  _mint(msg.sender, TOTAL_SUPPLY) */\n  jump\t// in\ntag_18:\n    /* \"contracts/gainzilla.sol\":2752:2765  routerAddress */\n  0x12\n    /* \"contracts/gainzilla.sol\":2752:2782  routerAddress = DEFAULT_ROUTER */\n  dup1\n  sload\n  not(sub(shl(0xa0, 0x01), 0x01))\n  and\n    /* \"contracts/gainzilla.sol\":2299:2341  0x10ED43C718714eb63d5aA57B78B54704E256024E */\n  0x10ed43c718714eb63d5aa57b78b54704e256024e\n    /* \"contracts/gainzilla.sol\":2752:2782  routerAddress = DEFAULT_ROUTER */\n  or\n  swap1\n  sstore\n    /* \"contracts/gainzilla.sol\":2792:2804  _setupPair() */\n  tag_20\n    /* \"contracts/gainzilla.sol\":2792:2802  _setupPair */\n  tag_21\n    /* \"contracts/gainzilla.sol\":2792:2804  _setupPair() */\n  jump\t// in\ntag_20:\n    /* \"contracts/gainzilla.sol\":2834:2854  TaxRates(0, 0, 0, 0) */\n  0x40\n  dup1\n  mload\n  0x80\n  dup2\n  add\n  dup3\n  mstore\n  0x00\n  dup1\n  dup3\n  mstore\n  0x20\n  dup1\n  dup4\n  add\n  dup3\n  swap1\n  mstore\n  dup3\n  dup5\n  add\n  dup3\n  swap1\n  mstore\n  0x60\n  swap1\n  swap3\n  add\n  dup2\n  swap1\n  mstore\n    /* \"contracts/gainzilla.sol\":2823:2831  taxRates */\n  0x07\n    /* \"contracts/gainzilla.sol\":2823:2854  taxRates = TaxRates(0, 0, 0, 0) */\n  dup1\n  sload\n  not(sub(shl(0x40, 0x01), 0x01))\n  and\n  swap1\n  sstore\n    /* \"contracts/gainzilla.sol\":2882:2892  msg.sender */\n  caller\n    /* \"contracts/gainzilla.sol\":2873:2893  isExempt[msg.sender] */\n  dup2\n  mstore\n    /* \"contracts/gainzilla.sol\":2873:2881  isExempt */\n  0x14\n    /* \"contracts/gainzilla.sol\":2873:2893  isExempt[msg.sender] */\n  swap1\n  swap2\n  mstore\n  dup2\n  dup2\n  keccak256\n    /* \"contracts/gainzilla.sol\":2873:2900  isExempt[msg.sender] = true */\n  dup1\n  sload\n  not(0xff)\n  swap1\n  dup2\n  and\n    /* \"contracts/gainzilla.sol\":2823:2854  taxRates = TaxRates(0, 0, 0, 0) */\n  0x01\n    /* \"contracts/gainzilla.sol\":2873:2900  isExempt[msg.sender] = true */\n  swap1\n  dup2\n  or\n  swap1\n  swap3\n  sstore\n    /* \"contracts/gainzilla.sol\":2927:2931  this */\n  address\n    /* \"contracts/gainzilla.sol\":2910:2933  isExempt[address(this)] */\n  dup4\n  mstore\n  swap3\n  swap1\n  swap2\n  keccak256\n    /* \"contracts/gainzilla.sol\":2910:2940  isExempt[address(this)] = true */\n  dup1\n  sload\n  swap1\n  swap3\n  and\n  or\n  swap1\n  sstore\n    /* \"contracts/gainzilla.sol\":1203:12034  contract MemeCoin is ERC20, Ownable {... */\n  jump(tag_57)\n    /* \"@openzeppelin/contracts@4.9.3/utils/Context.sol\":640:736  function _msgSender() internal view virtual returns (address) {... */\ntag_14:\n    /* \"@openzeppelin/contracts@4.9.3/utils/Context.sol\":719:729  msg.sender */\n  caller\n  swap1\n    /* \"@openzeppelin/contracts@4.9.3/utils/Context.sol\":640:736  function _msgSender() internal view virtual returns (address) {... */\n  jump\t// out\n    /* \"@openzeppelin/contracts@4.9.3/access/Ownable.sol\":2426:2613  function _transferOwnership(address newOwner) internal virtual {... */\ntag_15:\n    /* \"@openzeppelin/contracts@4.9.3/access/Ownable.sol\":2518:2524  _owner */\n  0x05\n  dup1\n  sload\n  sub(shl(0xa0, 0x01), 0x01)\n    /* \"@openzeppelin/contracts@4.9.3/access/Ownable.sol\":2534:2551  _owner = newOwner */\n  dup4\n  dup2\n  and\n  not(sub(shl(0xa0, 0x01), 0x01))\n  dup4\n  and\n  dup2\n  or\n  swap1\n  swap4\n  sstore\n    /* \"@openzeppelin/contracts@4.9.3/access/Ownable.sol\":2566:2606  OwnershipTransferred(oldOwner, newOwner) */\n  mload(0x40)\n    /* \"@openzeppelin/contracts@4.9.3/access/Ownable.sol\":2518:2524  _owner */\n  swap2\n  and\n  swap2\n    /* \"@openzeppelin/contracts@4.9.3/access/Ownable.sol\":2534:2551  _owner = newOwner */\n  swap1\n    /* \"@openzeppelin/contracts@4.9.3/access/Ownable.sol\":2518:2524  _owner */\n  dup3\n  swap1\n    /* \"@openzeppelin/contracts@4.9.3/access/Ownable.sol\":2566:2606  OwnershipTransferred(oldOwner, newOwner) */\n  0x8be0079c531659141344cd1fd0a4f28419497f9722a3daafe3b4186f6b6457e0\n  swap1\n    /* \"@openzeppelin/contracts@4.9.3/access/Ownable.sol\":2499:2515  address oldOwner */\n  0x00\n  swap1\n    /* \"@openzeppelin/contracts@4.9.3/access/Ownable.sol\":2566:2606  OwnershipTransferred(oldOwner, newOwner) */\n  log3\n    /* \"@openzeppelin/contracts@4.9.3/access/Ownable.sol\":2489:2613  {... */\n  pop\n    /* \"@openzeppelin/contracts@4.9.3/access/Ownable.sol\":2426:2613  function _transferOwnership(address newOwner) internal virtual {... */\n  pop\n  jump\t// out\n    /* \"@openzeppelin/contracts@4.9.3/token/ERC20/ERC20.sol\":8520:9055  function _mint(address account, uint256 amount) internal virtual {... */\ntag_19:\n  sub(shl(0xa0, 0x01), 0x01)\n    /* \"@openzeppelin/contracts@4.9.3/token/ERC20/ERC20.sol\":8603:8624  account != address(0) */\n  dup3\n  and\n    /* \"@openzeppelin/contracts@4.9.3/token/ERC20/ERC20.sol\":8595:8660  require(account != address(0), \"ERC20: mint to the zero address\") */\n  tag_26\n  jumpi\n  mload(0x40)\n  shl(0xe5, 0x461bcd)\n  dup2\n  mstore\n    /* \"#utility.yul\":3125:3127   */\n  0x20\n    /* \"@openzeppelin/contracts@4.9.3/token/ERC20/ERC20.sol\":8595:8660  require(account != address(0), \"ERC20: mint to the zero address\") */\n  0x04\n  dup3\n  add\n    /* \"#utility.yul\":3107:3128   */\n  mstore\n    /* \"#utility.yul\":3164:3166   */\n  0x1f\n    /* \"#utility.yul\":3144:3162   */\n  0x24\n  dup3\n  add\n    /* \"#utility.yul\":3137:3167   */\n  mstore\n    /* \"#utility.yul\":3203:3236   */\n  0x45524332303a206d696e7420746f20746865207a65726f206164647265737300\n    /* \"#utility.yul\":3183:3201   */\n  0x44\n  dup3\n  add\n    /* \"#utility.yul\":3176:3237   */\n  mstore\n    /* \"#utility.yul\":3254:3272   */\n  0x64\n  add\n    /* \"@openzeppelin/contracts@4.9.3/token/ERC20/ERC20.sol\":8595:8660  require(account != address(0), \"ERC20: mint to the zero address\") */\n  mload(0x40)\n  dup1\n  swap2\n  sub\n  swap1\n  revert\ntag_26:\n    /* \"@openzeppelin/contracts@4.9.3/token/ERC20/ERC20.sol\":8747:8753  amount */\n  dup1\n    /* \"@openzeppelin/contracts@4.9.3/token/ERC20/ERC20.sol\":8731:8743  _totalSupply */\n  0x02\n  0x00\n    /* \"@openzeppelin/contracts@4.9.3/token/ERC20/ERC20.sol\":8731:8753  _totalSupply += amount */\n  dup3\n  dup3\n  sload\n  tag_31\n  swap2\n  swap1\n  tag_32\n  jump\t// in\ntag_31:\n  swap1\n  swap2\n  sstore\n  pop\n  pop\n  sub(shl(0xa0, 0x01), 0x01)\n    /* \"@openzeppelin/contracts@4.9.3/token/ERC20/ERC20.sol\":8899:8917  _balances[account] */\n  dup3\n  and\n    /* \"@openzeppelin/contracts@4.9.3/token/ERC20/ERC20.sol\":8899:8908  _balances */\n  0x00\n    /* \"@openzeppelin/contracts@4.9.3/token/ERC20/ERC20.sol\":8899:8917  _balances[account] */\n  dup2\n  dup2\n  mstore\n  0x20\n  dup2\n  dup2\n  mstore\n  0x40\n  dup1\n  dup4\n  keccak256\n    /* \"@openzeppelin/contracts@4.9.3/token/ERC20/ERC20.sol\":8899:8927  _balances[account] += amount */\n  dup1\n  sload\n  dup7\n  add\n  swap1\n  sstore\n    /* \"@openzeppelin/contracts@4.9.3/token/ERC20/ERC20.sol\":8952:8989  Transfer(address(0), account, amount) */\n  mload\n    /* \"#utility.yul\":3656:3681   */\n  dup5\n  dup2\n  mstore\n    /* \"@openzeppelin/contracts@4.9.3/token/ERC20/ERC20.sol\":8952:8989  Transfer(address(0), account, amount) */\n  0xddf252ad1be2c89b69c2b068fc378daa952ba7f163c4a11628f55a4df523b3ef\n  swap2\n    /* \"#utility.yul\":3629:3647   */\n  add\n    /* \"@openzeppelin/contracts@4.9.3/token/ERC20/ERC20.sol\":8952:8989  Transfer(address(0), account, amount) */\n  mload(0x40)\n  dup1\n  swap2\n  sub\n  swap1\n  log3\n    /* \"@openzeppelin/contracts@4.9.3/token/ERC20/ERC20.sol\":8520:9055  function _mint(address account, uint256 amount) internal virtual {... */\n  pop\n  pop\n  jump\t// out\n    /* \"contracts/gainzilla.sol\":10370:10570  function _setupPair() private {... */\ntag_21:\n    /* \"contracts/gainzilla.sol\":10459:10472  routerAddress */\n  0x12\n  0x00\n  swap1\n  sload\n  swap1\n  0x0100\n  exp\n  swap1\n  div\n  sub(shl(0xa0, 0x01), 0x01)\n  and\n  sub(shl(0xa0, 0x01), 0x01)\n    /* \"contracts/gainzilla.sol\":10442:10481  IUniswapV2Router(routerAddress).factory */\n  and\n  0xc45a0155\n    /* \"contracts/gainzilla.sol\":10442:10483  IUniswapV2Router(routerAddress).factory() */\n  mload(0x40)\n  dup2\n  0xffffffff\n  and\n  0xe0\n  shl\n  dup2\n  mstore\n  0x04\n  add\n  0x20\n  mload(0x40)\n  dup1\n  dup4\n  sub\n  dup2\n  dup7\n  gas\n  staticcall\n  iszero\n  dup1\n  iszero\n  tag_39\n  jumpi\n  returndatasize\n  0x00\n  dup1\n  returndatacopy\n  revert(0x00, returndatasize)\ntag_39:\n  pop\n  pop\n  pop\n  pop\n  mload(0x40)\n  returndatasize\n  not(0x1f)\n  0x1f\n  dup3\n  add\n  and\n  dup3\n  add\n  dup1\n  0x40\n  mstore\n  pop\n  dup2\n  add\n  swap1\n  tag_40\n  swap2\n  swap1\n  tag_41\n  jump\t// in\ntag_40:\n  sub(shl(0xa0, 0x01), 0x01)\n    /* \"contracts/gainzilla.sol\":10424:10508  IUniswapV2Factory(IUniswapV2Router(routerAddress).factory())... */\n  and\n  0xc9c65396\n    /* \"contracts/gainzilla.sol\":10517:10521  this */\n  address\n    /* \"contracts/gainzilla.sol\":10541:10554  routerAddress */\n  0x12\n  0x00\n  swap1\n  sload\n  swap1\n  0x0100\n  exp\n  swap1\n  div\n  sub(shl(0xa0, 0x01), 0x01)\n  and\n  sub(shl(0xa0, 0x01), 0x01)\n    /* \"contracts/gainzilla.sol\":10524:10560  IUniswapV2Router(routerAddress).WETH */\n  and\n  0xad5c4648\n    /* \"contracts/gainzilla.sol\":10524:10562  IUniswapV2Router(routerAddress).WETH() */\n  mload(0x40)\n  dup2\n  0xffffffff\n  and\n  0xe0\n  shl\n  dup2\n  mstore\n  0x04\n  add\n  0x20\n  mload(0x40)\n  dup1\n  dup4\n  sub\n  dup2\n  dup7\n  gas\n  staticcall\n  iszero\n  dup1\n  iszero\n  tag_43\n  jumpi\n  returndatasize\n  0x00\n  dup1\n  returndatacopy\n  revert(0x00, returndatasize)\ntag_43:\n  pop\n  pop\n  pop\n  pop\n  mload(0x40)\n  returndatasize\n  not(0x1f)\n  0x1f\n  dup3\n  add\n  and\n  dup3\n  add\n  dup1\n  0x40\n  mstore\n  pop\n  dup2\n  add\n  swap1\n  tag_44\n  swap2\n  swap1\n  tag_41\n  jump\t// in\ntag_44:\n    /* \"contracts/gainzilla.sol\":10424:10563  IUniswapV2Factory(IUniswapV2Router(routerAddress).factory())... */\n  mload(0x40)\n  not(sub(shl(0xe0, 0x01), 0x01))\n  0xe0\n  dup6\n  swap1\n  shl\n  and\n  dup2\n  mstore\n  sub(shl(0xa0, 0x01), 0x01)\n    /* \"#utility.yul\":4217:4232   */\n  swap3\n  dup4\n  and\n    /* \"contracts/gainzilla.sol\":10424:10563  IUniswapV2Factory(IUniswapV2Router(routerAddress).factory())... */\n  0x04\n  dup3\n  add\n    /* \"#utility.yul\":4199:4233   */\n  mstore\n    /* \"#utility.yul\":4269:4284   */\n  swap2\n  and\n    /* \"#utility.yul\":4249:4267   */\n  0x24\n  dup3\n  add\n    /* \"#utility.yul\":4242:4285   */\n  mstore\n    /* \"#utility.yul\":4134:4152   */\n  0x44\n  add\n    /* \"contracts/gainzilla.sol\":10424:10563  IUniswapV2Factory(IUniswapV2Router(routerAddress).factory())... */\n  0x20\n  mload(0x40)\n  dup1\n  dup4\n  sub\n  dup2\n  0x00\n  dup8\n  gas\n  call\n  iszero\n  dup1\n  iszero\n  tag_48\n  jumpi\n  returndatasize\n  0x00\n  dup1\n  returndatacopy\n  revert(0x00, returndatasize)\ntag_48:\n  pop\n  pop\n  pop\n  pop\n  mload(0x40)\n  returndatasize\n  not(0x1f)\n  0x1f\n  dup3\n  add\n  and\n  dup3\n  add\n  dup1\n  0x40\n  mstore\n  pop\n  dup2\n  add\n  swap1\n  tag_49\n  swap2\n  swap1\n  tag_41\n  jump\t// in\ntag_49:\n    /* \"contracts/gainzilla.sol\":10410:10421  pairAddress */\n  0x13\n    /* \"contracts/gainzilla.sol\":10410:10563  pairAddress = IUniswapV2Factory(IUniswapV2Router(routerAddress).factory())... */\n  dup1\n  sload\n  not(sub(shl(0xa0, 0x01), 0x01))\n  and\n  sub(shl(0xa0, 0x01), 0x01)\n  swap3\n  swap1\n  swap3\n  and\n  swap2\n  swap1\n  swap2\n  or\n  swap1\n  sstore\n    /* \"contracts/gainzilla.sol\":10370:10570  function _setupPair() private {... */\n  jump\t// out\n    /* \"@openzeppelin/contracts@4.9.3/token/ERC20/ERC20.sol\":12073:12164  function _beforeTokenTransfer(address from, address to, uint256 amount) internal virtual {} */\ntag_30:\n  pop\n  pop\n  pop\n  jump\t// out\n    /* \"#utility.yul\":14:231   */\ntag_2:\n    /* \"#utility.yul\":54:55   */\n  0x00\n    /* \"#utility.yul\":80:81   */\n  dup3\n    /* \"#utility.yul\":70:202   */\n  tag_59\n  jumpi\n    /* \"#utility.yul\":124:134   */\n  0x4e487b71\n    /* \"#utility.yul\":119:122   */\n  0xe0\n    /* \"#utility.yul\":115:135   */\n  shl\n    /* \"#utility.yul\":112:113   */\n  0x00\n    /* \"#utility.yul\":105:136   */\n  mstore\n    /* \"#utility.yul\":159:163   */\n  0x12\n    /* \"#utility.yul\":156:157   */\n  0x04\n    /* \"#utility.yul\":149:164   */\n  mstore\n    /* \"#utility.yul\":187:191   */\n  0x24\n    /* \"#utility.yul\":184:185   */\n  0x00\n    /* \"#utility.yul\":177:192   */\n  revert\n    /* \"#utility.yul\":70:202   */\ntag_59:\n  pop\n    /* \"#utility.yul\":216:225   */\n  div\n  swap1\n    /* \"#utility.yul\":14:231   */\n  jump\t// out\n    /* \"#utility.yul\":236:363   */\ntag_52:\n    /* \"#utility.yul\":297:307   */\n  0x4e487b71\n    /* \"#utility.yul\":292:295   */\n  0xe0\n    /* \"#utility.yul\":288:308   */\n  shl\n    /* \"#utility.yul\":285:286   */\n  0x00\n    /* \"#utility.yul\":278:309   */\n  mstore\n    /* \"#utility.yul\":328:332   */\n  0x41\n    /* \"#utility.yul\":325:326   */\n  0x04\n    /* \"#utility.yul\":318:333   */\n  mstore\n    /* \"#utility.yul\":352:356   */\n  0x24\n    /* \"#utility.yul\":349:350   */\n  0x00\n    /* \"#utility.yul\":342:357   */\n  revert\n    /* \"#utility.yul\":368:748   */\ntag_53:\n    /* \"#utility.yul\":447:448   */\n  0x01\n    /* \"#utility.yul\":443:455   */\n  dup2\n  dup2\n  shr\n  swap1\n    /* \"#utility.yul\":490:502   */\n  dup3\n  and\n  dup1\n    /* \"#utility.yul\":511:572   */\n  tag_62\n  jumpi\n    /* \"#utility.yul\":565:569   */\n  0x7f\n    /* \"#utility.yul\":557:563   */\n  dup3\n    /* \"#utility.yul\":553:570   */\n  and\n    /* \"#utility.yul\":543:570   */\n  swap2\n  pop\n    /* \"#utility.yul\":511:572   */\ntag_62:\n    /* \"#utility.yul\":618:620   */\n  0x20\n    /* \"#utility.yul\":610:616   */\n  dup3\n    /* \"#utility.yul\":607:621   */\n  lt\n    /* \"#utility.yul\":587:605   */\n  dup2\n    /* \"#utility.yul\":584:622   */\n  sub\n    /* \"#utility.yul\":581:742   */\n  tag_63\n  jumpi\n    /* \"#utility.yul\":664:674   */\n  0x4e487b71\n    /* \"#utility.yul\":659:662   */\n  0xe0\n    /* \"#utility.yul\":655:675   */\n  shl\n    /* \"#utility.yul\":652:653   */\n  0x00\n    /* \"#utility.yul\":645:676   */\n  mstore\n    /* \"#utility.yul\":699:703   */\n  0x22\n    /* \"#utility.yul\":696:697   */\n  0x04\n    /* \"#utility.yul\":689:704   */\n  mstore\n    /* \"#utility.yul\":727:731   */\n  0x24\n    /* \"#utility.yul\":724:725   */\n  0x00\n    /* \"#utility.yul\":717:732   */\n  revert\n    /* \"#utility.yul\":581:742   */\ntag_63:\n  pop\n    /* \"#utility.yul\":368:748   */\n  swap2\n  swap1\n  pop\n  jump\t// out\n    /* \"#utility.yul\":879:1397   */\ntag_55:\n    /* \"#utility.yul\":981:983   */\n  0x1f\n    /* \"#utility.yul\":976:979   */\n  dup3\n    /* \"#utility.yul\":973:984   */\n  gt\n    /* \"#utility.yul\":970:1391   */\n  iszero\n  tag_30\n  jumpi\n    /* \"#utility.yul\":1017:1022   */\n  dup1\n    /* \"#utility.yul\":1014:1015   */\n  0x00\n    /* \"#utility.yul\":1007:1023   */\n  mstore\n    /* \"#utility.yul\":1061:1065   */\n  0x20\n    /* \"#utility.yul\":1058:1059   */\n  0x00\n    /* \"#utility.yul\":1048:1066   */\n  keccak256\n    /* \"#utility.yul\":1131:1133   */\n  0x1f\n    /* \"#utility.yul\":1119:1129   */\n  dup5\n    /* \"#utility.yul\":1115:1134   */\n  add\n    /* \"#utility.yul\":1112:1113   */\n  0x05\n    /* \"#utility.yul\":1108:1135   */\n  shr\n    /* \"#utility.yul\":1102:1106   */\n  dup2\n    /* \"#utility.yul\":1098:1136   */\n  add\n    /* \"#utility.yul\":1167:1171   */\n  0x20\n    /* \"#utility.yul\":1155:1165   */\n  dup6\n    /* \"#utility.yul\":1152:1172   */\n  lt\n    /* \"#utility.yul\":1149:1196   */\n  iszero\n  tag_67\n  jumpi\n  pop\n    /* \"#utility.yul\":1190:1194   */\n  dup1\n    /* \"#utility.yul\":1149:1196   */\ntag_67:\n    /* \"#utility.yul\":1245:1247   */\n  0x1f\n    /* \"#utility.yul\":1240:1243   */\n  dup5\n    /* \"#utility.yul\":1236:1248   */\n  add\n    /* \"#utility.yul\":1233:1234   */\n  0x05\n    /* \"#utility.yul\":1229:1249   */\n  shr\n    /* \"#utility.yul\":1223:1227   */\n  dup3\n    /* \"#utility.yul\":1219:1250   */\n  add\n    /* \"#utility.yul\":1209:1250   */\n  swap2\n  pop\n    /* \"#utility.yul\":1300:1381   */\ntag_68:\n    /* \"#utility.yul\":1318:1320   */\n  dup2\n    /* \"#utility.yul\":1311:1316   */\n  dup2\n    /* \"#utility.yul\":1308:1321   */\n  lt\n    /* \"#utility.yul\":1300:1381   */\n  iszero\n  tag_70\n  jumpi\n    /* \"#utility.yul\":1377:1378   */\n  0x00\n    /* \"#utility.yul\":1363:1379   */\n  dup2\n  sstore\n    /* \"#utility.yul\":1344:1345   */\n  0x01\n    /* \"#utility.yul\":1333:1346   */\n  add\n    /* \"#utility.yul\":1300:1381   */\n  jump(tag_68)\ntag_70:\n    /* \"#utility.yul\":1304:1307   */\n  pop\n  pop\n    /* \"#utility.yul\":879:1397   */\n  pop\n  pop\n  pop\n  jump\t// out\n    /* \"#utility.yul\":1573:2918   */\ntag_9:\n    /* \"#utility.yul\":1693:1703   */\n  dup2\n  mload\n  sub(shl(0x40, 0x01), 0x01)\n    /* \"#utility.yul\":1715:1745   */\n  dup2\n  gt\n    /* \"#utility.yul\":1712:1768   */\n  iszero\n  tag_74\n  jumpi\n    /* \"#utility.yul\":1748:1766   */\n  tag_74\n  tag_52\n  jump\t// in\ntag_74:\n    /* \"#utility.yul\":1777:1874   */\n  tag_75\n    /* \"#utility.yul\":1867:1873   */\n  dup2\n    /* \"#utility.yul\":1827:1865   */\n  tag_76\n    /* \"#utility.yul\":1859:1863   */\n  dup5\n    /* \"#utility.yul\":1853:1864   */\n  sload\n    /* \"#utility.yul\":1827:1865   */\n  tag_53\n  jump\t// in\ntag_76:\n    /* \"#utility.yul\":1821:1825   */\n  dup5\n    /* \"#utility.yul\":1777:1874   */\n  tag_55\n  jump\t// in\ntag_75:\n    /* \"#utility.yul\":1929:1933   */\n  0x20\n  dup1\n    /* \"#utility.yul\":1986:1988   */\n  0x1f\n    /* \"#utility.yul\":1975:1989   */\n  dup4\n  gt\n    /* \"#utility.yul\":2003:2004   */\n  0x01\n    /* \"#utility.yul\":1998:2661   */\n  dup2\n  eq\n  tag_78\n  jumpi\n    /* \"#utility.yul\":2705:2706   */\n  0x00\n    /* \"#utility.yul\":2722:2728   */\n  dup5\n    /* \"#utility.yul\":2719:2808   */\n  iszero\n  tag_79\n  jumpi\n  pop\n    /* \"#utility.yul\":2774:2793   */\n  dup6\n  dup4\n  add\n    /* \"#utility.yul\":2768:2794   */\n  mload\n    /* \"#utility.yul\":2719:2808   */\ntag_79:\n  not(0x00)\n    /* \"#utility.yul\":1530:1531   */\n  0x03\n    /* \"#utility.yul\":1526:1537   */\n  dup7\n  swap1\n  shl\n    /* \"#utility.yul\":1522:1546   */\n  shr\n    /* \"#utility.yul\":1518:1547   */\n  not\n    /* \"#utility.yul\":1508:1548   */\n  and\n    /* \"#utility.yul\":1554:1555   */\n  0x01\n    /* \"#utility.yul\":1550:1561   */\n  dup6\n  swap1\n  shl\n    /* \"#utility.yul\":1505:1562   */\n  or\n    /* \"#utility.yul\":2821:2902   */\n  dup6\n  sstore\n    /* \"#utility.yul\":1968:2912   */\n  jump(tag_77)\n    /* \"#utility.yul\":1998:2661   */\ntag_78:\n    /* \"#utility.yul\":826:827   */\n  0x00\n    /* \"#utility.yul\":819:833   */\n  dup6\n  dup2\n  mstore\n    /* \"#utility.yul\":863:867   */\n  0x20\n    /* \"#utility.yul\":850:868   */\n  dup2\n  keccak256\n  not(0x1f)\n    /* \"#utility.yul\":2034:2054   */\n  dup7\n  and\n  swap2\n    /* \"#utility.yul\":2152:2388   */\ntag_82:\n    /* \"#utility.yul\":2166:2173   */\n  dup3\n    /* \"#utility.yul\":2163:2164   */\n  dup2\n    /* \"#utility.yul\":2160:2174   */\n  lt\n    /* \"#utility.yul\":2152:2388   */\n  iszero\n  tag_84\n  jumpi\n    /* \"#utility.yul\":2255:2274   */\n  dup9\n  dup7\n  add\n    /* \"#utility.yul\":2249:2275   */\n  mload\n    /* \"#utility.yul\":2234:2276   */\n  dup3\n  sstore\n    /* \"#utility.yul\":2347:2374   */\n  swap5\n  dup5\n  add\n  swap5\n    /* \"#utility.yul\":2315:2316   */\n  0x01\n    /* \"#utility.yul\":2303:2317   */\n  swap1\n  swap2\n  add\n  swap1\n    /* \"#utility.yul\":2182:2201   */\n  dup5\n  add\n    /* \"#utility.yul\":2152:2388   */\n  jump(tag_82)\ntag_84:\n    /* \"#utility.yul\":2156:2159   */\n  pop\n    /* \"#utility.yul\":2416:2422   */\n  dup6\n    /* \"#utility.yul\":2407:2414   */\n  dup3\n    /* \"#utility.yul\":2404:2423   */\n  lt\n    /* \"#utility.yul\":2401:2602   */\n  iszero\n  tag_85\n  jumpi\n    /* \"#utility.yul\":2477:2496   */\n  dup8\n  dup6\n  add\n    /* \"#utility.yul\":2471:2497   */\n  mload\n  not(0x00)\n    /* \"#utility.yul\":2560:2561   */\n  0x03\n    /* \"#utility.yul\":2556:2570   */\n  dup9\n  swap1\n  shl\n    /* \"#utility.yul\":2572:2575   */\n  0xf8\n    /* \"#utility.yul\":2552:2576   */\n  and\n    /* \"#utility.yul\":2548:2585   */\n  shr\n    /* \"#utility.yul\":2544:2586   */\n  not\n    /* \"#utility.yul\":2529:2587   */\n  and\n    /* \"#utility.yul\":2514:2588   */\n  dup2\n  sstore\n    /* \"#utility.yul\":2401:2602   */\ntag_85:\n  pop\n  pop\n    /* \"#utility.yul\":2648:2649   */\n  0x01\n    /* \"#utility.yul\":2639:2645   */\n  dup5\n    /* \"#utility.yul\":2636:2637   */\n  0x01\n    /* \"#utility.yul\":2632:2646   */\n  shl\n    /* \"#utility.yul\":2628:2650   */\n  add\n    /* \"#utility.yul\":2622:2626   */\n  dup6\n    /* \"#utility.yul\":2615:2651   */\n  sstore\n    /* \"#utility.yul\":1968:2912   */\ntag_77:\n  pop\n  pop\n  pop\n  pop\n    /* \"#utility.yul\":1573:2918   */\n  pop\n  pop\n  jump\t// out\n    /* \"#utility.yul\":3283:3505   */\ntag_32:\n    /* \"#utility.yul\":3348:3357   */\n  dup1\n  dup3\n  add\n    /* \"#utility.yul\":3369:3379   */\n  dup1\n  dup3\n  gt\n    /* \"#utility.yul\":3366:3499   */\n  iszero\n  tag_88\n  jumpi\n    /* \"#utility.yul\":3421:3431   */\n  0x4e487b71\n    /* \"#utility.yul\":3416:3419   */\n  0xe0\n    /* \"#utility.yul\":3412:3432   */\n  shl\n    /* \"#utility.yul\":3409:3410   */\n  0x00\n    /* \"#utility.yul\":3402:3433   */\n  mstore\n    /* \"#utility.yul\":3456:3460   */\n  0x11\n    /* \"#utility.yul\":3453:3454   */\n  0x04\n    /* \"#utility.yul\":3446:3461   */\n  mstore\n    /* \"#utility.yul\":3484:3488   */\n  0x24\n    /* \"#utility.yul\":3481:3482   */\n  0x00\n    /* \"#utility.yul\":3474:3489   */\n  revert\n    /* \"#utility.yul\":3366:3499   */\ntag_88:\n    /* \"#utility.yul\":3283:3505   */\n  swap3\n  swap2\n  pop\n  pop\n  jump\t// out\n    /* \"#utility.yul\":3692:3982   */\ntag_41:\n    /* \"#utility.yul\":3762:3768   */\n  0x00\n    /* \"#utility.yul\":3815:3817   */\n  0x20\n    /* \"#utility.yul\":3803:3812   */\n  dup3\n    /* \"#utility.yul\":3794:3801   */\n  dup5\n    /* \"#utility.yul\":3790:3813   */\n  sub\n    /* \"#utility.yul\":3786:3818   */\n  slt\n    /* \"#utility.yul\":3783:3835   */\n  iszero\n  tag_91\n  jumpi\n    /* \"#utility.yul\":3831:3832   */\n  0x00\n    /* \"#utility.yul\":3828:3829   */\n  dup1\n    /* \"#utility.yul\":3821:3833   */\n  revert\n    /* \"#utility.yul\":3783:3835   */\ntag_91:\n    /* \"#utility.yul\":3857:3873   */\n  dup2\n  mload\n  sub(shl(0xa0, 0x01), 0x01)\n    /* \"#utility.yul\":3902:3933   */\n  dup2\n  and\n    /* \"#utility.yul\":3892:3934   */\n  dup2\n  eq\n    /* \"#utility.yul\":3882:3952   */\n  tag_92\n  jumpi\n    /* \"#utility.yul\":3948:3949   */\n  0x00\n    /* \"#utility.yul\":3945:3946   */\n  dup1\n    /* \"#utility.yul\":3938:3950   */\n  revert\n    /* \"#utility.yul\":3882:3952   */\ntag_92:\n    /* \"#utility.yul\":3971:3976   */\n  swap4\n    /* \"#utility.yul\":3692:3982   */\n  swap3\n  pop\n  pop\n  pop\n  jump\t// out\n    /* \"#utility.yul\":3987:4291   */\ntag_57:\n    /* \"contracts/gainzilla.sol\":1203:12034  contract MemeCoin is ERC20, Ownable {... */\n  dataSize(sub_0)\n  dup1\n  dataOffset(sub_0)\n  0x00\n  codecopy\n  0x00\n  return\nstop\n\nsub_0: assembly {\n        /* \"contracts/gainzilla.sol\":1203:12034  contract MemeCoin is ERC20, Ownable {... */\n      mstore(0x40, 0x80)\n      jumpi(tag_1, lt(calldatasize, 0x04))\n      shr(0xe0, calldataload(0x00))\n      dup1\n      0x8f9a55c0\n      gt\n      tag_38\n      jumpi\n      dup1\n      0xad5dff73\n      gt\n      tag_39\n      jumpi\n      dup1\n      0xd8d61c40\n      gt\n      tag_40\n      jumpi\n      dup1\n      0xd8d61c40\n      eq\n      tag_33\n      jumpi\n      dup1\n      0xdd62ed3e\n      eq\n      tag_34\n      jumpi\n      dup1\n      0xf2fde38b\n      eq\n      tag_35\n      jumpi\n      dup1\n      0xfe0bb982\n      eq\n      tag_36\n      jumpi\n      dup1\n      0xfe6b751e\n      eq\n      tag_37\n      jumpi\n      0x00\n      dup1\n      revert\n    tag_40:\n      dup1\n      0xad5dff73\n      eq\n      tag_29\n      jumpi\n      dup1\n      0xc0d78655\n      eq\n      tag_30\n      jumpi\n      dup1\n      0xc531b108\n      eq\n      tag_31\n      jumpi\n      dup1\n      0xc95457ff\n      eq\n      tag_32\n      jumpi\n      0x00\n      dup1\n      revert\n    tag_39:\n      dup1\n      0x9d82190f\n      gt\n      tag_41\n      jumpi\n      dup1\n      0x9d82190f\n      eq\n      tag_24\n      jumpi\n      dup1\n      0x9fde54f5\n      eq\n      tag_25\n      jumpi\n      dup1\n      0xa457c2d7\n      eq\n      tag_26\n      jumpi\n      dup1\n      0xa8b08982\n      eq\n      tag_27\n      jumpi\n      dup1\n      0xa9059cbb\n      eq\n      tag_28\n      jumpi\n      0x00\n      dup1\n      revert\n    tag_41:\n      dup1\n      0x8f9a55c0\n      eq\n      tag_20\n      jumpi\n      dup1\n      0x9491f94d\n      eq\n      tag_21\n      jumpi\n      dup1\n      0x95d89b41\n      eq\n      tag_22\n      jumpi\n      dup1\n      0x960bfe04\n      eq\n      tag_23\n      jumpi\n      0x00\n      dup1\n      revert\n    tag_38:\n      dup1\n      0x333f4b3d\n      gt\n      tag_42\n      jumpi\n      dup1\n      0x715018a6\n      gt\n      tag_43\n      jumpi\n      dup1\n      0x715018a6\n      eq\n      tag_15\n      jumpi\n      dup1\n      0x7773168f\n      eq\n      tag_16\n      jumpi\n      dup1\n      0x787a08a6\n      eq\n      tag_17\n      jumpi\n      dup1\n      0x7a845ece\n      eq\n      tag_18\n      jumpi\n      dup1\n      0x8da5cb5b\n      eq\n      tag_19\n      jumpi\n      0x00\n      dup1\n      revert\n    tag_43:\n      dup1\n      0x333f4b3d\n      eq\n      tag_11\n      jumpi\n      dup1\n      0x39509351\n      eq\n      tag_12\n      jumpi\n      dup1\n      0x599ca397\n      eq\n      tag_13\n      jumpi\n      dup1\n      0x70a08231\n      eq\n      tag_14\n      jumpi\n      0x00\n      dup1\n      revert\n    tag_42:\n      dup1\n      0x18160ddd\n      gt\n      tag_44\n      jumpi\n      dup1\n      0x18160ddd\n      eq\n      tag_7\n      jumpi\n      dup1\n      0x23b872dd\n      eq\n      tag_8\n      jumpi\n      dup1\n      0x313ce567\n      eq\n      tag_9\n      jumpi\n      dup1\n      0x3268cc56\n      eq\n      tag_10\n      jumpi\n      0x00\n      dup1\n      revert\n    tag_44:\n      dup1\n      0x0445b667\n      eq\n      tag_3\n      jumpi\n      dup1\n      0x06fdde03\n      eq\n      tag_4\n      jumpi\n      dup1\n      0x095ea7b3\n      eq\n      tag_5\n      jumpi\n      dup1\n      0x1569d181\n      eq\n      tag_6\n      jumpi\n      0x00\n      dup1\n      revert\n    tag_1:\n      jumpi(tag_2, calldatasize)\n      stop\n    tag_2:\n      0x00\n      dup1\n      revert\n        /* \"contracts/gainzilla.sol\":1666:1716  uint256 public swapThreshold = TOTAL_SUPPLY / 1000 */\n    tag_3:\n      callvalue\n      dup1\n      iszero\n      tag_47\n      jumpi\n      0x00\n      dup1\n      revert\n    tag_47:\n      pop\n      tag_48\n      sload(0x08)\n      dup2\n      jump\n    tag_48:\n      mload(0x40)\n        /* \"#utility.yul\":160:185   */\n      swap1\n      dup2\n      mstore\n        /* \"#utility.yul\":148:150   */\n      0x20\n        /* \"#utility.yul\":133:151   */\n      add\n        /* \"contracts/gainzilla.sol\":1666:1716  uint256 public swapThreshold = TOTAL_SUPPLY / 1000 */\n    tag_50:\n      mload(0x40)\n      dup1\n      swap2\n      sub\n      swap1\n      return\n        /* \"@openzeppelin/contracts@4.9.3/token/ERC20/ERC20.sol\":2158:2256  function name() public view virtual override returns (string memory) {... */\n    tag_4:\n      callvalue\n      dup1\n      iszero\n      tag_52\n      jumpi\n      0x00\n      dup1\n      revert\n    tag_52:\n      pop\n      tag_53\n      tag_54\n      jump\t// in\n    tag_53:\n      mload(0x40)\n      tag_50\n      swap2\n      swap1\n      tag_56\n      jump\t// in\n        /* \"@openzeppelin/contracts@4.9.3/token/ERC20/ERC20.sol\":4444:4641  function approve(address spender, uint256 amount) public virtual override returns (bool) {... */\n    tag_5:\n      callvalue\n      dup1\n      iszero\n      tag_57\n      jumpi\n      0x00\n      dup1\n      revert\n    tag_57:\n      pop\n      tag_58\n      tag_59\n      calldatasize\n      0x04\n      tag_60\n      jump\t// in\n    tag_59:\n      tag_61\n      jump\t// in\n    tag_58:\n      mload(0x40)\n        /* \"#utility.yul\":1240:1254   */\n      swap1\n      iszero\n        /* \"#utility.yul\":1233:1255   */\n      iszero\n        /* \"#utility.yul\":1215:1256   */\n      dup2\n      mstore\n        /* \"#utility.yul\":1203:1205   */\n      0x20\n        /* \"#utility.yul\":1188:1206   */\n      add\n        /* \"@openzeppelin/contracts@4.9.3/token/ERC20/ERC20.sol\":4444:4641  function approve(address spender, uint256 amount) public virtual override returns (bool) {... */\n      tag_50\n        /* \"#utility.yul\":1075:1262   */\n      jump\n        /* \"contracts/gainzilla.sol\":9406:9697  function setTaxRates(uint16 buyLp, uint16 buyEco, uint16 sellLp, uint16 sellEco) external onlyOwner {... */\n    tag_6:\n      callvalue\n      dup1\n      iszero\n      tag_64\n      jumpi\n      0x00\n      dup1\n      revert\n    tag_64:\n      pop\n      tag_65\n      tag_66\n      calldatasize\n      0x04\n      tag_67\n      jump\t// in\n    tag_66:\n      tag_68\n      jump\t// in\n    tag_65:\n      stop\n        /* \"@openzeppelin/contracts@4.9.3/token/ERC20/ERC20.sol\":3255:3361  function totalSupply() public view virtual override returns (uint256) {... */\n    tag_7:\n      callvalue\n      dup1\n      iszero\n      tag_69\n      jumpi\n      0x00\n      dup1\n      revert\n    tag_69:\n      pop\n        /* \"@openzeppelin/contracts@4.9.3/token/ERC20/ERC20.sol\":3342:3354  _totalSupply */\n      sload(0x02)\n        /* \"@openzeppelin/contracts@4.9.3/token/ERC20/ERC20.sol\":3255:3361  function totalSupply() public view virtual override returns (uint256) {... */\n      jump(tag_48)\n        /* \"@openzeppelin/contracts@4.9.3/token/ERC20/ERC20.sol\":5203:5459  function transferFrom(address from, address to, uint256 amount) public virtual override returns (bool) {... */\n    tag_8:\n      callvalue\n      dup1\n      iszero\n      tag_73\n      jumpi\n      0x00\n      dup1\n      revert\n    tag_73:\n      pop\n      tag_58\n      tag_75\n      calldatasize\n      0x04\n      tag_76\n      jump\t// in\n    tag_75:\n      tag_77\n      jump\t// in\n        /* \"@openzeppelin/contracts@4.9.3/token/ERC20/ERC20.sol\":3104:3195  function decimals() public view virtual override returns (uint8) {... */\n    tag_9:\n      callvalue\n      dup1\n      iszero\n      tag_79\n      jumpi\n      0x00\n      dup1\n      revert\n    tag_79:\n      pop\n      mload(0x40)\n        /* \"@openzeppelin/contracts@4.9.3/token/ERC20/ERC20.sol\":3186:3188  18 */\n      0x12\n        /* \"#utility.yul\":2440:2476   */\n      dup2\n      mstore\n        /* \"#utility.yul\":2428:2430   */\n      0x20\n        /* \"#utility.yul\":2413:2431   */\n      add\n        /* \"@openzeppelin/contracts@4.9.3/token/ERC20/ERC20.sol\":3104:3195  function decimals() public view virtual override returns (uint8) {... */\n      tag_50\n        /* \"#utility.yul\":2298:2482   */\n      jump\n        /* \"contracts/gainzilla.sol\":2191:2219  address public routerAddress */\n    tag_10:\n      callvalue\n      dup1\n      iszero\n      tag_84\n      jumpi\n      0x00\n      dup1\n      revert\n    tag_84:\n      pop\n      sload(0x12)\n      tag_85\n      swap1\n      sub(shl(0xa0, 0x01), 0x01)\n      and\n      dup2\n      jump\n    tag_85:\n      mload(0x40)\n      sub(shl(0xa0, 0x01), 0x01)\n        /* \"#utility.yul\":2651:2683   */\n      swap1\n      swap2\n      and\n        /* \"#utility.yul\":2633:2684   */\n      dup2\n      mstore\n        /* \"#utility.yul\":2621:2623   */\n      0x20\n        /* \"#utility.yul\":2606:2624   */\n      add\n        /* \"contracts/gainzilla.sol\":2191:2219  address public routerAddress */\n      tag_50\n        /* \"#utility.yul\":2487:2690   */\n      jump\n        /* \"contracts/gainzilla.sol\":1563:1587  TaxRates public taxRates */\n    tag_11:\n      callvalue\n      dup1\n      iszero\n      tag_89\n      jumpi\n      0x00\n      dup1\n      revert\n    tag_89:\n      pop\n      sload(0x07)\n      tag_90\n      swap1\n      0xffff\n      dup1\n      dup3\n      and\n      swap2\n      0x010000\n      dup2\n      div\n      dup3\n      and\n      swap2\n      shl(0x20, 0x01)\n      dup3\n      div\n      dup2\n      and\n      swap2\n      shl(0x30, 0x01)\n      swap1\n      div\n      and\n      dup5\n      jump\n    tag_90:\n      0x40\n      dup1\n      mload\n        /* \"#utility.yul\":2928:2934   */\n      0xffff\n        /* \"#utility.yul\":2961:2976   */\n      swap6\n      dup7\n      and\n        /* \"#utility.yul\":2943:2977   */\n      dup2\n      mstore\n        /* \"#utility.yul\":3013:3028   */\n      swap4\n      dup6\n      and\n        /* \"#utility.yul\":3008:3010   */\n      0x20\n        /* \"#utility.yul\":2993:3011   */\n      dup6\n      add\n        /* \"#utility.yul\":2986:3029   */\n      mstore\n        /* \"#utility.yul\":3065:3080   */\n      swap2\n      dup5\n      and\n        /* \"#utility.yul\":3045:3063   */\n      swap2\n      dup4\n      add\n        /* \"#utility.yul\":3038:3081   */\n      swap2\n      swap1\n      swap2\n      mstore\n        /* \"#utility.yul\":3117:3132   */\n      swap1\n      swap2\n      and\n        /* \"#utility.yul\":3112:3114   */\n      0x60\n        /* \"#utility.yul\":3097:3115   */\n      dup3\n      add\n        /* \"#utility.yul\":3090:3133   */\n      mstore\n        /* \"#utility.yul\":2905:2908   */\n      0x80\n        /* \"#utility.yul\":2890:2909   */\n      add\n        /* \"contracts/gainzilla.sol\":1563:1587  TaxRates public taxRates */\n      tag_50\n        /* \"#utility.yul\":2695:3139   */\n      jump\n        /* \"@openzeppelin/contracts@4.9.3/token/ERC20/ERC20.sol\":5854:6088  function increaseAllowance(address spender, uint256 addedValue) public virtual returns (bool) {... */\n    tag_12:\n      callvalue\n      dup1\n      iszero\n      tag_94\n      jumpi\n      0x00\n      dup1\n      revert\n    tag_94:\n      pop\n      tag_58\n      tag_96\n      calldatasize\n      0x04\n      tag_60\n      jump\t// in\n    tag_96:\n      tag_97\n      jump\t// in\n        /* \"contracts/gainzilla.sol\":1346:1386  uint256 public maxWalletPercentage = 100 */\n    tag_13:\n      callvalue\n      dup1\n      iszero\n      tag_99\n      jumpi\n      0x00\n      dup1\n      revert\n    tag_99:\n      pop\n      tag_48\n      sload(0x06)\n      dup2\n      jump\n        /* \"@openzeppelin/contracts@4.9.3/token/ERC20/ERC20.sol\":3419:3544  function balanceOf(address account) public view virtual override returns (uint256) {... */\n    tag_14:\n      callvalue\n      dup1\n      iszero\n      tag_103\n      jumpi\n      0x00\n      dup1\n      revert\n    tag_103:\n      pop\n      tag_48\n      tag_105\n      calldatasize\n      0x04\n      tag_106\n      jump\t// in\n    tag_105:\n      sub(shl(0xa0, 0x01), 0x01)\n        /* \"@openzeppelin/contracts@4.9.3/token/ERC20/ERC20.sol\":3519:3537  _balances[account] */\n      and\n        /* \"@openzeppelin/contracts@4.9.3/token/ERC20/ERC20.sol\":3493:3500  uint256 */\n      0x00\n        /* \"@openzeppelin/contracts@4.9.3/token/ERC20/ERC20.sol\":3519:3537  _balances[account] */\n      swap1\n      dup2\n      mstore\n      0x20\n      dup2\n      swap1\n      mstore\n      0x40\n      swap1\n      keccak256\n      sload\n      swap1\n        /* \"@openzeppelin/contracts@4.9.3/token/ERC20/ERC20.sol\":3419:3544  function balanceOf(address account) public view virtual override returns (uint256) {... */\n      jump\n        /* \"@openzeppelin/contracts@4.9.3/access/Ownable.sol\":1824:1925  function renounceOwnership() public virtual onlyOwner {... */\n    tag_15:\n      callvalue\n      dup1\n      iszero\n      tag_109\n      jumpi\n      0x00\n      dup1\n      revert\n    tag_109:\n      pop\n      tag_65\n      tag_111\n      jump\t// in\n        /* \"contracts/gainzilla.sol\":8826:9234  function priceDeviation() public view returns (int256) {... */\n    tag_16:\n      callvalue\n      dup1\n      iszero\n      tag_112\n      jumpi\n      0x00\n      dup1\n      revert\n    tag_112:\n      pop\n      tag_48\n      tag_114\n      jump\t// in\n        /* \"contracts/gainzilla.sol\":1947:1977  CooldownConfig public cooldown */\n    tag_17:\n      callvalue\n      dup1\n      iszero\n      tag_117\n      jumpi\n      0x00\n      dup1\n      revert\n    tag_117:\n      pop\n      sload(0x0c)\n      tag_118\n      swap1\n      0xff\n      dup2\n      and\n      swap1\n      0x0100\n      swap1\n      div\n      0xffffffff\n      and\n      dup3\n      jump\n    tag_118:\n      0x40\n      dup1\n      mload\n        /* \"#utility.yul\":3767:3781   */\n      swap3\n      iszero\n        /* \"#utility.yul\":3760:3782   */\n      iszero\n        /* \"#utility.yul\":3742:3783   */\n      dup4\n      mstore\n        /* \"#utility.yul\":3831:3841   */\n      0xffffffff\n        /* \"#utility.yul\":3819:3842   */\n      swap1\n      swap2\n      and\n        /* \"#utility.yul\":3814:3816   */\n      0x20\n        /* \"#utility.yul\":3799:3817   */\n      dup4\n      add\n        /* \"#utility.yul\":3792:3843   */\n      mstore\n        /* \"#utility.yul\":3715:3733   */\n      add\n        /* \"contracts/gainzilla.sol\":1947:1977  CooldownConfig public cooldown */\n      tag_50\n        /* \"#utility.yul\":3576:3849   */\n      jump\n        /* \"contracts/gainzilla.sol\":11775:11997  function setMaxWalletPercentage(uint256 percentage) external onlyOwner {... */\n    tag_18:\n      callvalue\n      dup1\n      iszero\n      tag_122\n      jumpi\n      0x00\n      dup1\n      revert\n    tag_122:\n      pop\n      tag_65\n      tag_124\n      calldatasize\n      0x04\n      tag_125\n      jump\t// in\n    tag_124:\n      tag_126\n      jump\t// in\n        /* \"@openzeppelin/contracts@4.9.3/access/Ownable.sol\":1201:1286  function owner() public view virtual returns (address) {... */\n    tag_19:\n      callvalue\n      dup1\n      iszero\n      tag_127\n      jumpi\n      0x00\n      dup1\n      revert\n    tag_127:\n      pop\n        /* \"@openzeppelin/contracts@4.9.3/access/Ownable.sol\":1273:1279  _owner */\n      and(sub(shl(0xa0, 0x01), 0x01), sload(0x05))\n        /* \"@openzeppelin/contracts@4.9.3/access/Ownable.sol\":1201:1286  function owner() public view virtual returns (address) {... */\n      jump(tag_85)\n        /* \"contracts/gainzilla.sol\":11435:11568  function _maxWalletSize() public view returns (uint256) {... */\n    tag_20:\n      callvalue\n      dup1\n      iszero\n      tag_131\n      jumpi\n      0x00\n      dup1\n      revert\n    tag_131:\n      pop\n      tag_48\n      tag_133\n      jump\t// in\n        /* \"contracts/gainzilla.sol\":7866:8278  function pairPrice() public view returns (uint256) {... */\n    tag_21:\n      callvalue\n      dup1\n      iszero\n      tag_135\n      jumpi\n      0x00\n      dup1\n      revert\n    tag_135:\n      pop\n      tag_48\n      tag_137\n      jump\t// in\n        /* \"@openzeppelin/contracts@4.9.3/token/ERC20/ERC20.sol\":2369:2471  function symbol() public view virtual override returns (string memory) {... */\n    tag_22:\n      callvalue\n      dup1\n      iszero\n      tag_139\n      jumpi\n      0x00\n      dup1\n      revert\n    tag_139:\n      pop\n      tag_53\n      tag_141\n      jump\t// in\n        /* \"contracts/gainzilla.sol\":9703:9805  function setThreshold(uint256 threshold) external onlyOwner {... */\n    tag_23:\n      callvalue\n      dup1\n      iszero\n      tag_143\n      jumpi\n      0x00\n      dup1\n      revert\n    tag_143:\n      pop\n      tag_65\n      tag_145\n      calldatasize\n      0x04\n      tag_125\n      jump\t// in\n    tag_145:\n      tag_146\n      jump\t// in\n        /* \"contracts/gainzilla.sol\":8284:8820  function cooldownRemaining(address account) public view returns (... */\n    tag_24:\n      callvalue\n      dup1\n      iszero\n      tag_147\n      jumpi\n      0x00\n      dup1\n      revert\n    tag_147:\n      pop\n      tag_148\n      tag_149\n      calldatasize\n      0x04\n      tag_106\n      jump\t// in\n    tag_149:\n      tag_150\n      jump\t// in\n    tag_148:\n      0x40\n      dup1\n      mload\n        /* \"#utility.yul\":4270:4295   */\n      swap5\n      dup6\n      mstore\n        /* \"#utility.yul\":4326:4328   */\n      0x20\n        /* \"#utility.yul\":4311:4329   */\n      dup6\n      add\n        /* \"#utility.yul\":4304:4338   */\n      swap4\n      swap1\n      swap4\n      mstore\n        /* \"#utility.yul\":4354:4372   */\n      swap2\n      dup4\n      add\n        /* \"#utility.yul\":4347:4381   */\n      mstore\n        /* \"#utility.yul\":4412:4414   */\n      0x60\n        /* \"#utility.yul\":4397:4415   */\n      dup3\n      add\n        /* \"#utility.yul\":4390:4424   */\n      mstore\n        /* \"#utility.yul\":4257:4260   */\n      0x80\n        /* \"#utility.yul\":4242:4261   */\n      add\n        /* \"contracts/gainzilla.sol\":8284:8820  function cooldownRemaining(address account) public view returns (... */\n      tag_50\n        /* \"#utility.yul\":4039:4430   */\n      jump\n        /* \"contracts/gainzilla.sol\":10253:10364  function setExempt(address account, bool exempt) external onlyOwner {... */\n    tag_25:\n      callvalue\n      dup1\n      iszero\n      tag_153\n      jumpi\n      0x00\n      dup1\n      revert\n    tag_153:\n      pop\n      tag_65\n      tag_155\n      calldatasize\n      0x04\n      tag_156\n      jump\t// in\n    tag_155:\n      tag_157\n      jump\t// in\n        /* \"@openzeppelin/contracts@4.9.3/token/ERC20/ERC20.sol\":6575:7002  function decreaseAllowance(address spender, uint256 subtractedValue) public virtual returns (bool) {... */\n    tag_26:\n      callvalue\n      dup1\n      iszero\n      tag_158\n      jumpi\n      0x00\n      dup1\n      revert\n    tag_158:\n      pop\n      tag_58\n      tag_160\n      calldatasize\n      0x04\n      tag_60\n      jump\t// in\n    tag_160:\n      tag_161\n      jump\t// in\n        /* \"contracts/gainzilla.sol\":2225:2251  address public pairAddress */\n    tag_27:\n      callvalue\n      dup1\n      iszero\n      tag_163\n      jumpi\n      0x00\n      dup1\n      revert\n    tag_163:\n      pop\n      sload(0x13)\n      tag_85\n      swap1\n      sub(shl(0xa0, 0x01), 0x01)\n      and\n      dup2\n      jump\n        /* \"@openzeppelin/contracts@4.9.3/token/ERC20/ERC20.sol\":3740:3929  function transfer(address to, uint256 amount) public virtual override returns (bool) {... */\n    tag_28:\n      callvalue\n      dup1\n      iszero\n      tag_167\n      jumpi\n      0x00\n      dup1\n      revert\n    tag_167:\n      pop\n      tag_58\n      tag_169\n      calldatasize\n      0x04\n      tag_60\n      jump\t// in\n    tag_169:\n      tag_170\n      jump\t// in\n        /* \"contracts/gainzilla.sol\":2348:2388  mapping(address => bool) public isExempt */\n    tag_29:\n      callvalue\n      dup1\n      iszero\n      tag_172\n      jumpi\n      0x00\n      dup1\n      revert\n    tag_172:\n      pop\n      tag_58\n      tag_174\n      calldatasize\n      0x04\n      tag_106\n      jump\t// in\n    tag_174:\n      mstore(0x20, 0x14)\n      0x00\n      swap1\n      dup2\n      mstore\n      0x40\n      swap1\n      keccak256\n      sload\n      0xff\n      and\n      dup2\n      jump\n        /* \"contracts/gainzilla.sol\":9240:9400  function setRouter(address newRouter) external onlyOwner {... */\n    tag_30:\n      callvalue\n      dup1\n      iszero\n      tag_177\n      jumpi\n      0x00\n      dup1\n      revert\n    tag_177:\n      pop\n      tag_65\n      tag_179\n      calldatasize\n      0x04\n      tag_106\n      jump\t// in\n    tag_179:\n      tag_180\n      jump\t// in\n        /* \"contracts/gainzilla.sol\":1756:1785  uint256 public accumulatedEco */\n    tag_31:\n      callvalue\n      dup1\n      iszero\n      tag_181\n      jumpi\n      0x00\n      dup1\n      revert\n    tag_181:\n      pop\n      tag_48\n      sload(0x0a)\n      dup2\n      jump\n        /* \"contracts/gainzilla.sol\":2152:2184  DiamondFloor public diamondFloor */\n    tag_32:\n      callvalue\n      dup1\n      iszero\n      tag_185\n      jumpi\n      0x00\n      dup1\n      revert\n    tag_185:\n      pop\n      sload(0x0e)\n      sload(0x0f)\n      sload(0x10)\n      sload(0x11)\n      tag_186\n      swap4\n      0xff\n      dup1\n      dup3\n      and\n      swap5\n      0x0100\n      swap1\n      swap3\n      div\n      0xffff\n      and\n      swap4\n      swap2\n      swap3\n      swap2\n      and\n      swap1\n      dup6\n      jump\n    tag_186:\n      0x40\n      dup1\n      mload\n        /* \"#utility.yul\":5190:5204   */\n      swap6\n      iszero\n        /* \"#utility.yul\":5183:5205   */\n      iszero\n        /* \"#utility.yul\":5165:5206   */\n      dup7\n      mstore\n        /* \"#utility.yul\":5254:5260   */\n      0xffff\n        /* \"#utility.yul\":5242:5261   */\n      swap1\n      swap5\n      and\n        /* \"#utility.yul\":5237:5239   */\n      0x20\n        /* \"#utility.yul\":5222:5240   */\n      dup7\n      add\n        /* \"#utility.yul\":5215:5262   */\n      mstore\n        /* \"#utility.yul\":5278:5296   */\n      swap3\n      dup5\n      add\n        /* \"#utility.yul\":5271:5305   */\n      swap2\n      swap1\n      swap2\n      mstore\n        /* \"#utility.yul\":5348:5362   */\n      iszero\n        /* \"#utility.yul\":5341:5363   */\n      iszero\n        /* \"#utility.yul\":5336:5338   */\n      0x60\n        /* \"#utility.yul\":5321:5339   */\n      dup4\n      add\n        /* \"#utility.yul\":5314:5364   */\n      mstore\n        /* \"#utility.yul\":5395:5398   */\n      0x80\n        /* \"#utility.yul\":5380:5399   */\n      dup3\n      add\n        /* \"#utility.yul\":5373:5408   */\n      mstore\n        /* \"#utility.yul\":5152:5155   */\n      0xa0\n        /* \"#utility.yul\":5137:5156   */\n      add\n        /* \"contracts/gainzilla.sol\":2152:2184  DiamondFloor public diamondFloor */\n      tag_50\n        /* \"#utility.yul\":4920:5414   */\n      jump\n        /* \"contracts/gainzilla.sol\":1722:1750  uint256 public accumulatedLp */\n    tag_33:\n      callvalue\n      dup1\n      iszero\n      tag_190\n      jumpi\n      0x00\n      dup1\n      revert\n    tag_190:\n      pop\n      tag_48\n      sload(0x09)\n      dup2\n      jump\n        /* \"@openzeppelin/contracts@4.9.3/token/ERC20/ERC20.sol\":3987:4136  function allowance(address owner, address spender) public view virtual override returns (uint256) {... */\n    tag_34:\n      callvalue\n      dup1\n      iszero\n      tag_194\n      jumpi\n      0x00\n      dup1\n      revert\n    tag_194:\n      pop\n      tag_48\n      tag_196\n      calldatasize\n      0x04\n      tag_197\n      jump\t// in\n    tag_196:\n      tag_198\n      jump\t// in\n        /* \"@openzeppelin/contracts@4.9.3/access/Ownable.sol\":2074:2272  function transferOwnership(address newOwner) public virtual onlyOwner {... */\n    tag_35:\n      callvalue\n      dup1\n      iszero\n      tag_200\n      jumpi\n      0x00\n      dup1\n      revert\n    tag_200:\n      pop\n      tag_65\n      tag_202\n      calldatasize\n      0x04\n      tag_106\n      jump\t// in\n    tag_202:\n      tag_203\n      jump\t// in\n        /* \"contracts/gainzilla.sol\":9987:10247  function configureDiamondFloor(bool enabled, uint16 triggerPercent) external onlyOwner {... */\n    tag_36:\n      callvalue\n      dup1\n      iszero\n      tag_204\n      jumpi\n      0x00\n      dup1\n      revert\n    tag_204:\n      pop\n      tag_65\n      tag_206\n      calldatasize\n      0x04\n      tag_207\n      jump\t// in\n    tag_206:\n      tag_208\n      jump\t// in\n        /* \"contracts/gainzilla.sol\":9811:9981  function configureCooldown(bool enabled, uint32 duration) external onlyOwner {... */\n    tag_37:\n      callvalue\n      dup1\n      iszero\n      tag_209\n      jumpi\n      0x00\n      dup1\n      revert\n    tag_209:\n      pop\n      tag_65\n      tag_211\n      calldatasize\n      0x04\n      tag_212\n      jump\t// in\n    tag_211:\n      tag_213\n      jump\t// in\n        /* \"@openzeppelin/contracts@4.9.3/token/ERC20/ERC20.sol\":2158:2256  function name() public view virtual override returns (string memory) {... */\n    tag_54:\n        /* \"@openzeppelin/contracts@4.9.3/token/ERC20/ERC20.sol\":2212:2225  string memory */\n      0x60\n        /* \"@openzeppelin/contracts@4.9.3/token/ERC20/ERC20.sol\":2244:2249  _name */\n      0x03\n        /* \"@openzeppelin/contracts@4.9.3/token/ERC20/ERC20.sol\":2237:2249  return _name */\n      dup1\n      sload\n      tag_215\n      swap1\n      tag_216\n      jump\t// in\n    tag_215:\n      dup1\n      0x1f\n      add\n      0x20\n      dup1\n      swap2\n      div\n      mul\n      0x20\n      add\n      mload(0x40)\n      swap1\n      dup2\n      add\n      0x40\n      mstore\n      dup1\n      swap3\n      swap2\n      swap1\n      dup2\n      dup2\n      mstore\n      0x20\n      add\n      dup3\n      dup1\n      sload\n      tag_217\n      swap1\n      tag_216\n      jump\t// in\n    tag_217:\n      dup1\n      iszero\n      tag_218\n      jumpi\n      dup1\n      0x1f\n      lt\n      tag_219\n      jumpi\n      0x0100\n      dup1\n      dup4\n      sload\n      div\n      mul\n      dup4\n      mstore\n      swap2\n      0x20\n      add\n      swap2\n      jump(tag_218)\n    tag_219:\n      dup3\n      add\n      swap2\n      swap1\n      0x00\n      mstore\n      keccak256(0x00, 0x20)\n      swap1\n    tag_220:\n      dup2\n      sload\n      dup2\n      mstore\n      swap1\n      0x01\n      add\n      swap1\n      0x20\n      add\n      dup1\n      dup4\n      gt\n      tag_220\n      jumpi\n      dup3\n      swap1\n      sub\n      0x1f\n      and\n      dup3\n      add\n      swap2\n    tag_218:\n      pop\n      pop\n      pop\n      pop\n      pop\n      swap1\n      pop\n        /* \"@openzeppelin/contracts@4.9.3/token/ERC20/ERC20.sol\":2158:2256  function name() public view virtual override returns (string memory) {... */\n      swap1\n      jump\t// out\n        /* \"@openzeppelin/contracts@4.9.3/token/ERC20/ERC20.sol\":4444:4641  function approve(address spender, uint256 amount) public virtual override returns (bool) {... */\n    tag_61:\n        /* \"@openzeppelin/contracts@4.9.3/token/ERC20/ERC20.sol\":4527:4531  bool */\n      0x00\n        /* \"@openzeppelin/contracts@4.9.3/utils/Context.sol\":719:729  msg.sender */\n      caller\n        /* \"@openzeppelin/contracts@4.9.3/token/ERC20/ERC20.sol\":4581:4613  _approve(owner, spender, amount) */\n      tag_224\n        /* \"@openzeppelin/contracts@4.9.3/utils/Context.sol\":719:729  msg.sender */\n      dup2\n        /* \"@openzeppelin/contracts@4.9.3/token/ERC20/ERC20.sol\":4597:4604  spender */\n      dup6\n        /* \"@openzeppelin/contracts@4.9.3/token/ERC20/ERC20.sol\":4606:4612  amount */\n      dup6\n        /* \"@openzeppelin/contracts@4.9.3/token/ERC20/ERC20.sol\":4581:4589  _approve */\n      tag_225\n        /* \"@openzeppelin/contracts@4.9.3/token/ERC20/ERC20.sol\":4581:4613  _approve(owner, spender, amount) */\n      jump\t// in\n    tag_224:\n        /* \"@openzeppelin/contracts@4.9.3/token/ERC20/ERC20.sol\":4630:4634  true */\n      0x01\n        /* \"@openzeppelin/contracts@4.9.3/token/ERC20/ERC20.sol\":4623:4634  return true */\n      swap2\n      pop\n      pop\n        /* \"@openzeppelin/contracts@4.9.3/token/ERC20/ERC20.sol\":4444:4641  function approve(address spender, uint256 amount) public virtual override returns (bool) {... */\n    tag_221:\n      swap3\n      swap2\n      pop\n      pop\n      jump\t// out\n        /* \"contracts/gainzilla.sol\":9406:9697  function setTaxRates(uint16 buyLp, uint16 buyEco, uint16 sellLp, uint16 sellEco) external onlyOwner {... */\n    tag_68:\n        /* \"@openzeppelin/contracts@4.9.3/access/Ownable.sol\":1094:1107  _checkOwner() */\n      tag_227\n        /* \"@openzeppelin/contracts@4.9.3/access/Ownable.sol\":1094:1105  _checkOwner */\n      tag_228\n        /* \"@openzeppelin/contracts@4.9.3/access/Ownable.sol\":1094:1107  _checkOwner() */\n      jump\t// in\n    tag_227:\n        /* \"contracts/gainzilla.sol\":9542:9546  2500 */\n      0x09c4\n        /* \"contracts/gainzilla.sol\":9524:9538  buyLp + buyEco */\n      tag_230\n        /* \"contracts/gainzilla.sol\":9532:9538  buyEco */\n      dup5\n        /* \"contracts/gainzilla.sol\":9524:9529  buyLp */\n      dup7\n        /* \"contracts/gainzilla.sol\":9524:9538  buyLp + buyEco */\n      tag_231\n      jump\t// in\n    tag_230:\n        /* \"contracts/gainzilla.sol\":9524:9546  buyLp + buyEco <= 2500 */\n      0xffff\n      and\n      gt\n      iszero\n        /* \"contracts/gainzilla.sol\":9516:9566  require(buyLp + buyEco <= 2500, \"Max 25% buy tax\") */\n      tag_232\n      jumpi\n      mload(0x40)\n      shl(0xe5, 0x461bcd)\n      dup2\n      mstore\n        /* \"#utility.yul\":7405:7407   */\n      0x20\n        /* \"contracts/gainzilla.sol\":9516:9566  require(buyLp + buyEco <= 2500, \"Max 25% buy tax\") */\n      0x04\n      dup3\n      add\n        /* \"#utility.yul\":7387:7408   */\n      mstore\n        /* \"#utility.yul\":7444:7446   */\n      0x0f\n        /* \"#utility.yul\":7424:7442   */\n      0x24\n      dup3\n      add\n        /* \"#utility.yul\":7417:7447   */\n      mstore\n      shl(0x8b, 0x09ac2f040646a4a40c4eaf240e8c2f)\n        /* \"#utility.yul\":7463:7481   */\n      0x44\n      dup3\n      add\n        /* \"#utility.yul\":7456:7501   */\n      mstore\n        /* \"#utility.yul\":7518:7536   */\n      0x64\n      add\n        /* \"contracts/gainzilla.sol\":9516:9566  require(buyLp + buyEco <= 2500, \"Max 25% buy tax\") */\n    tag_233:\n      mload(0x40)\n      dup1\n      swap2\n      sub\n      swap1\n      revert\n    tag_232:\n        /* \"contracts/gainzilla.sol\":9604:9608  2500 */\n      0x09c4\n        /* \"contracts/gainzilla.sol\":9584:9600  sellLp + sellEco */\n      tag_235\n        /* \"contracts/gainzilla.sol\":9593:9600  sellEco */\n      dup3\n        /* \"contracts/gainzilla.sol\":9584:9590  sellLp */\n      dup5\n        /* \"contracts/gainzilla.sol\":9584:9600  sellLp + sellEco */\n      tag_231\n      jump\t// in\n    tag_235:\n        /* \"contracts/gainzilla.sol\":9584:9608  sellLp + sellEco <= 2500 */\n      0xffff\n      and\n      gt\n      iszero\n        /* \"contracts/gainzilla.sol\":9576:9629  require(sellLp + sellEco <= 2500, \"Max 25% sell tax\") */\n      tag_236\n      jumpi\n      mload(0x40)\n      shl(0xe5, 0x461bcd)\n      dup2\n      mstore\n        /* \"#utility.yul\":7749:7751   */\n      0x20\n        /* \"contracts/gainzilla.sol\":9576:9629  require(sellLp + sellEco <= 2500, \"Max 25% sell tax\") */\n      0x04\n      dup3\n      add\n        /* \"#utility.yul\":7731:7752   */\n      mstore\n        /* \"#utility.yul\":7788:7790   */\n      0x10\n        /* \"#utility.yul\":7768:7786   */\n      0x24\n      dup3\n      add\n        /* \"#utility.yul\":7761:7791   */\n      mstore\n      shl(0x83, 0x09ac2f040646a4a40e6cad8d840e8c2f)\n        /* \"#utility.yul\":7807:7825   */\n      0x44\n      dup3\n      add\n        /* \"#utility.yul\":7800:7846   */\n      mstore\n        /* \"#utility.yul\":7863:7881   */\n      0x64\n      add\n        /* \"contracts/gainzilla.sol\":9576:9629  require(sellLp + sellEco <= 2500, \"Max 25% sell tax\") */\n      tag_233\n        /* \"#utility.yul\":7547:7887   */\n      jump\n        /* \"contracts/gainzilla.sol\":9576:9629  require(sellLp + sellEco <= 2500, \"Max 25% sell tax\") */\n    tag_236:\n        /* \"contracts/gainzilla.sol\":9650:9690  TaxRates(buyLp, buyEco, sellLp, sellEco) */\n      0x40\n      dup1\n      mload\n      0x80\n      dup2\n      add\n      dup3\n      mstore\n      0xffff\n      swap6\n      dup7\n      and\n      dup1\n      dup3\n      mstore\n      swap5\n      dup7\n      and\n      0x20\n      dup3\n      add\n      dup2\n      swap1\n      mstore\n      swap4\n      dup7\n      and\n      swap2\n      dup2\n      add\n      dup3\n      swap1\n      mstore\n      swap2\n      swap1\n      swap5\n      and\n      0x60\n      swap1\n      swap2\n      add\n      dup2\n      swap1\n      mstore\n        /* \"contracts/gainzilla.sol\":9639:9647  taxRates */\n      0x07\n        /* \"contracts/gainzilla.sol\":9639:9690  taxRates = TaxRates(buyLp, buyEco, sellLp, sellEco) */\n      dup1\n      sload\n      not(0xffffffff)\n      and\n      swap1\n      swap4\n      or\n      0x010000\n      swap1\n      swap3\n      mul\n      swap2\n      swap1\n      swap2\n      or\n      not(0xffffffff00000000)\n      and\n      shl(0x20, 0x01)\n      swap1\n      swap4\n      mul\n      not(0xffff000000000000)\n      and\n      swap3\n      swap1\n      swap3\n      or\n      shl(0x30, 0x01)\n      swap1\n      swap3\n      mul\n      swap2\n      swap1\n      swap2\n      or\n      swap1\n      sstore\n        /* \"contracts/gainzilla.sol\":9406:9697  function setTaxRates(uint16 buyLp, uint16 buyEco, uint16 sellLp, uint16 sellEco) external onlyOwner {... */\n      jump\t// out\n        /* \"@openzeppelin/contracts@4.9.3/token/ERC20/ERC20.sol\":5203:5459  function transferFrom(address from, address to, uint256 amount) public virtual override returns (bool) {... */\n    tag_77:\n        /* \"@openzeppelin/contracts@4.9.3/token/ERC20/ERC20.sol\":5300:5304  bool */\n      0x00\n        /* \"@openzeppelin/contracts@4.9.3/utils/Context.sol\":719:729  msg.sender */\n      caller\n        /* \"@openzeppelin/contracts@4.9.3/token/ERC20/ERC20.sol\":5356:5394  _spendAllowance(from, spender, amount) */\n      tag_242\n        /* \"@openzeppelin/contracts@4.9.3/token/ERC20/ERC20.sol\":5372:5376  from */\n      dup6\n        /* \"@openzeppelin/contracts@4.9.3/utils/Context.sol\":719:729  msg.sender */\n      dup3\n        /* \"@openzeppelin/contracts@4.9.3/token/ERC20/ERC20.sol\":5387:5393  amount */\n      dup6\n        /* \"@openzeppelin/contracts@4.9.3/token/ERC20/ERC20.sol\":5356:5371  _spendAllowance */\n      tag_243\n        /* \"@openzeppelin/contracts@4.9.3/token/ERC20/ERC20.sol\":5356:5394  _spendAllowance(from, spender, amount) */\n      jump\t// in\n    tag_242:\n        /* \"@openzeppelin/contracts@4.9.3/token/ERC20/ERC20.sol\":5404:5431  _transfer(from, to, amount) */\n      tag_244\n        /* \"@openzeppelin/contracts@4.9.3/token/ERC20/ERC20.sol\":5414:5418  from */\n      dup6\n        /* \"@openzeppelin/contracts@4.9.3/token/ERC20/ERC20.sol\":5420:5422  to */\n      dup6\n        /* \"@openzeppelin/contracts@4.9.3/token/ERC20/ERC20.sol\":5424:5430  amount */\n      dup6\n        /* \"@openzeppelin/contracts@4.9.3/token/ERC20/ERC20.sol\":5404:5413  _transfer */\n      tag_245\n        /* \"@openzeppelin/contracts@4.9.3/token/ERC20/ERC20.sol\":5404:5431  _transfer(from, to, amount) */\n      jump\t// in\n    tag_244:\n        /* \"@openzeppelin/contracts@4.9.3/token/ERC20/ERC20.sol\":5448:5452  true */\n      0x01\n        /* \"@openzeppelin/contracts@4.9.3/token/ERC20/ERC20.sol\":5441:5452  return true */\n      swap2\n      pop\n      pop\n        /* \"@openzeppelin/contracts@4.9.3/token/ERC20/ERC20.sol\":5203:5459  function transferFrom(address from, address to, uint256 amount) public virtual override returns (bool) {... */\n    tag_240:\n      swap4\n      swap3\n      pop\n      pop\n      pop\n      jump\t// out\n        /* \"@openzeppelin/contracts@4.9.3/token/ERC20/ERC20.sol\":5854:6088  function increaseAllowance(address spender, uint256 addedValue) public virtual returns (bool) {... */\n    tag_97:\n        /* \"@openzeppelin/contracts@4.9.3/token/ERC20/ERC20.sol\":5942:5946  bool */\n      0x00\n        /* \"@openzeppelin/contracts@4.9.3/utils/Context.sol\":719:729  msg.sender */\n      caller\n        /* \"@openzeppelin/contracts@4.9.3/token/ERC20/ERC20.sol\":5996:6060  _approve(owner, spender, allowance(owner, spender) + addedValue) */\n      tag_224\n        /* \"@openzeppelin/contracts@4.9.3/utils/Context.sol\":719:729  msg.sender */\n      dup2\n        /* \"@openzeppelin/contracts@4.9.3/token/ERC20/ERC20.sol\":6012:6019  spender */\n      dup6\n        /* \"@openzeppelin/contracts@4.9.3/token/ERC20/ERC20.sol\":6049:6059  addedValue */\n      dup6\n        /* \"@openzeppelin/contracts@4.9.3/token/ERC20/ERC20.sol\":6021:6046  allowance(owner, spender) */\n      tag_250\n        /* \"@openzeppelin/contracts@4.9.3/utils/Context.sol\":719:729  msg.sender */\n      dup4\n        /* \"@openzeppelin/contracts@4.9.3/token/ERC20/ERC20.sol\":6012:6019  spender */\n      dup4\n        /* \"@openzeppelin/contracts@4.9.3/token/ERC20/ERC20.sol\":6021:6030  allowance */\n      tag_198\n        /* \"@openzeppelin/contracts@4.9.3/token/ERC20/ERC20.sol\":6021:6046  allowance(owner, spender) */\n      jump\t// in\n    tag_250:\n        /* \"@openzeppelin/contracts@4.9.3/token/ERC20/ERC20.sol\":6021:6059  allowance(owner, spender) + addedValue */\n      tag_251\n      swap2\n      swap1\n      tag_252\n      jump\t// in\n    tag_251:\n        /* \"@openzeppelin/contracts@4.9.3/token/ERC20/ERC20.sol\":5996:6004  _approve */\n      tag_225\n        /* \"@openzeppelin/contracts@4.9.3/token/ERC20/ERC20.sol\":5996:6060  _approve(owner, spender, allowance(owner, spender) + addedValue) */\n      jump\t// in\n        /* \"@openzeppelin/contracts@4.9.3/access/Ownable.sol\":1824:1925  function renounceOwnership() public virtual onlyOwner {... */\n    tag_111:\n        /* \"@openzeppelin/contracts@4.9.3/access/Ownable.sol\":1094:1107  _checkOwner() */\n      tag_255\n        /* \"@openzeppelin/contracts@4.9.3/access/Ownable.sol\":1094:1105  _checkOwner */\n      tag_228\n        /* \"@openzeppelin/contracts@4.9.3/access/Ownable.sol\":1094:1107  _checkOwner() */\n      jump\t// in\n    tag_255:\n        /* \"@openzeppelin/contracts@4.9.3/access/Ownable.sol\":1888:1918  _transferOwnership(address(0)) */\n      tag_257\n        /* \"@openzeppelin/contracts@4.9.3/access/Ownable.sol\":1915:1916  0 */\n      0x00\n        /* \"@openzeppelin/contracts@4.9.3/access/Ownable.sol\":1888:1906  _transferOwnership */\n      tag_258\n        /* \"@openzeppelin/contracts@4.9.3/access/Ownable.sol\":1888:1918  _transferOwnership(address(0)) */\n      jump\t// in\n    tag_257:\n        /* \"@openzeppelin/contracts@4.9.3/access/Ownable.sol\":1824:1925  function renounceOwnership() public virtual onlyOwner {... */\n      jump\t// out\n        /* \"contracts/gainzilla.sol\":8826:9234  function priceDeviation() public view returns (int256) {... */\n    tag_114:\n        /* \"contracts/gainzilla.sol\":8895:8916  diamondFloor.athPrice */\n      sload(0x0f)\n        /* \"contracts/gainzilla.sol\":8873:8879  int256 */\n      0x00\n      swap1\n        /* \"contracts/gainzilla.sol\":8895:8921  diamondFloor.athPrice == 0 */\n      dup2\n      sub\n        /* \"contracts/gainzilla.sol\":8891:8931  if (diamondFloor.athPrice == 0) return 0 */\n      tag_260\n      jumpi\n      pop\n        /* \"contracts/gainzilla.sol\":8930:8931  0 */\n      0x00\n      swap1\n        /* \"contracts/gainzilla.sol\":8826:9234  function priceDeviation() public view returns (int256) {... */\n      jump\t// out\n        /* \"contracts/gainzilla.sol\":8891:8931  if (diamondFloor.athPrice == 0) return 0 */\n    tag_260:\n        /* \"contracts/gainzilla.sol\":8941:8961  uint256 currentPrice */\n      0x00\n        /* \"contracts/gainzilla.sol\":8964:8975  pairPrice() */\n      tag_261\n        /* \"contracts/gainzilla.sol\":8964:8973  pairPrice */\n      tag_137\n        /* \"contracts/gainzilla.sol\":8964:8975  pairPrice() */\n      jump\t// in\n    tag_261:\n        /* \"contracts/gainzilla.sol\":9007:9028  diamondFloor.athPrice */\n      sload(0x0f)\n        /* \"contracts/gainzilla.sol\":8941:8975  uint256 currentPrice = pairPrice() */\n      swap1\n      swap2\n      pop\n        /* \"contracts/gainzilla.sol\":8992:9028  currentPrice > diamondFloor.athPrice */\n      dup2\n      gt\n        /* \"contracts/gainzilla.sol\":8992:9227  currentPrice > diamondFloor.athPrice ?... */\n      tag_262\n      jumpi\n        /* \"contracts/gainzilla.sol\":9204:9225  diamondFloor.athPrice */\n      sload(0x0f)\n        /* \"contracts/gainzilla.sol\":9150:9226  diamondFloor.athPrice.sub(currentPrice).mul(1e18).div(diamondFloor.athPrice) */\n      tag_263\n      swap1\n        /* \"contracts/gainzilla.sol\":9150:9199  diamondFloor.athPrice.sub(currentPrice).mul(1e18) */\n      tag_264\n        /* \"contracts/gainzilla.sol\":9194:9198  1e18 */\n      0x0de0b6b3a7640000\n        /* \"contracts/gainzilla.sol\":9150:9189  diamondFloor.athPrice.sub(currentPrice) */\n      tag_265\n        /* \"contracts/gainzilla.sol\":9204:9225  diamondFloor.athPrice */\n      dup4\n        /* \"contracts/gainzilla.sol\":9176:9188  currentPrice */\n      dup7\n        /* \"contracts/gainzilla.sol\":9150:9175  diamondFloor.athPrice.sub */\n      tag_266\n        /* \"contracts/gainzilla.sol\":9150:9189  diamondFloor.athPrice.sub(currentPrice) */\n      jump\t// in\n    tag_265:\n        /* \"contracts/gainzilla.sol\":9150:9193  diamondFloor.athPrice.sub(currentPrice).mul */\n      swap1\n      tag_267\n        /* \"contracts/gainzilla.sol\":9150:9199  diamondFloor.athPrice.sub(currentPrice).mul(1e18) */\n      jump\t// in\n    tag_264:\n        /* \"contracts/gainzilla.sol\":9150:9203  diamondFloor.athPrice.sub(currentPrice).mul(1e18).div */\n      swap1\n      tag_268\n        /* \"contracts/gainzilla.sol\":9150:9226  diamondFloor.athPrice.sub(currentPrice).mul(1e18).div(diamondFloor.athPrice) */\n      jump\t// in\n    tag_263:\n        /* \"contracts/gainzilla.sol\":9142:9227  -int256(diamondFloor.athPrice.sub(currentPrice).mul(1e18).div(diamondFloor.athPrice)) */\n      tag_269\n      swap1\n      tag_270\n      jump\t// in\n    tag_269:\n        /* \"contracts/gainzilla.sol\":8992:9227  currentPrice > diamondFloor.athPrice ?... */\n      jump(tag_272)\n    tag_262:\n        /* \"contracts/gainzilla.sol\":9104:9125  diamondFloor.athPrice */\n      sload(0x0f)\n        /* \"contracts/gainzilla.sol\":9050:9126  currentPrice.sub(diamondFloor.athPrice).mul(1e18).div(diamondFloor.athPrice) */\n      tag_272\n      swap1\n        /* \"contracts/gainzilla.sol\":9050:9099  currentPrice.sub(diamondFloor.athPrice).mul(1e18) */\n      tag_264\n        /* \"contracts/gainzilla.sol\":9094:9098  1e18 */\n      0x0de0b6b3a7640000\n        /* \"contracts/gainzilla.sol\":9050:9089  currentPrice.sub(diamondFloor.athPrice) */\n      tag_265\n        /* \"contracts/gainzilla.sol\":9050:9062  currentPrice */\n      dup6\n        /* \"contracts/gainzilla.sol\":9104:9125  diamondFloor.athPrice */\n      dup5\n        /* \"contracts/gainzilla.sol\":9050:9066  currentPrice.sub */\n      tag_266\n        /* \"contracts/gainzilla.sol\":9050:9089  currentPrice.sub(diamondFloor.athPrice) */\n      jump\t// in\n        /* \"contracts/gainzilla.sol\":9050:9126  currentPrice.sub(diamondFloor.athPrice).mul(1e18).div(diamondFloor.athPrice) */\n    tag_272:\n        /* \"contracts/gainzilla.sol\":8985:9227  return currentPrice > diamondFloor.athPrice ?... */\n      swap2\n      pop\n      pop\n        /* \"contracts/gainzilla.sol\":8826:9234  function priceDeviation() public view returns (int256) {... */\n      swap1\n      jump\t// out\n        /* \"contracts/gainzilla.sol\":11775:11997  function setMaxWalletPercentage(uint256 percentage) external onlyOwner {... */\n    tag_126:\n        /* \"@openzeppelin/contracts@4.9.3/access/Ownable.sol\":1094:1107  _checkOwner() */\n      tag_276\n        /* \"@openzeppelin/contracts@4.9.3/access/Ownable.sol\":1094:1105  _checkOwner */\n      tag_228\n        /* \"@openzeppelin/contracts@4.9.3/access/Ownable.sol\":1094:1107  _checkOwner() */\n      jump\t// in\n    tag_276:\n        /* \"contracts/gainzilla.sol\":11878:11881  100 */\n      0x64\n        /* \"contracts/gainzilla.sol\":11864:11874  percentage */\n      dup2\n        /* \"contracts/gainzilla.sol\":11864:11881  percentage >= 100 */\n      lt\n      iszero\n        /* \"contracts/gainzilla.sol\":11856:11905  require(percentage >= 100, \"Max 1% wallet limit\") */\n      tag_278\n      jumpi\n      mload(0x40)\n      shl(0xe5, 0x461bcd)\n      dup2\n      mstore\n        /* \"#utility.yul\":8365:8367   */\n      0x20\n        /* \"contracts/gainzilla.sol\":11856:11905  require(percentage >= 100, \"Max 1% wallet limit\") */\n      0x04\n      dup3\n      add\n        /* \"#utility.yul\":8347:8368   */\n      mstore\n        /* \"#utility.yul\":8404:8406   */\n      0x13\n        /* \"#utility.yul\":8384:8402   */\n      0x24\n      dup3\n      add\n        /* \"#utility.yul\":8377:8407   */\n      mstore\n      shl(0x6a, 0x13585e080c49481dd85b1b195d081b1a5b5a5d)\n        /* \"#utility.yul\":8423:8441   */\n      0x44\n      dup3\n      add\n        /* \"#utility.yul\":8416:8465   */\n      mstore\n        /* \"#utility.yul\":8482:8500   */\n      0x64\n      add\n        /* \"contracts/gainzilla.sol\":11856:11905  require(percentage >= 100, \"Max 1% wallet limit\") */\n      tag_233\n        /* \"#utility.yul\":8163:8506   */\n      jump\n        /* \"contracts/gainzilla.sol\":11856:11905  require(percentage >= 100, \"Max 1% wallet limit\") */\n    tag_278:\n        /* \"contracts/gainzilla.sol\":11915:11934  maxWalletPercentage */\n      0x06\n        /* \"contracts/gainzilla.sol\":11915:11947  maxWalletPercentage = percentage */\n      dup2\n      swap1\n      sstore\n        /* \"contracts/gainzilla.sol\":11962:11990  MaxWalletUpdated(percentage) */\n      mload(0x40)\n        /* \"#utility.yul\":160:185   */\n      dup2\n      dup2\n      mstore\n        /* \"contracts/gainzilla.sol\":11962:11990  MaxWalletUpdated(percentage) */\n      0x12528a3c61e0f3b2d6fc707a9fc58b1af86e252cad0d7f4c154ebeabb162dace\n      swap1\n        /* \"#utility.yul\":148:150   */\n      0x20\n        /* \"#utility.yul\":133:151   */\n      add\n        /* \"contracts/gainzilla.sol\":11962:11990  MaxWalletUpdated(percentage) */\n    tag_281:\n      mload(0x40)\n      dup1\n      swap2\n      sub\n      swap1\n      log1\n        /* \"contracts/gainzilla.sol\":11775:11997  function setMaxWalletPercentage(uint256 percentage) external onlyOwner {... */\n      pop\n      jump\t// out\n        /* \"contracts/gainzilla.sol\":11435:11568  function _maxWalletSize() public view returns (uint256) {... */\n    tag_133:\n        /* \"contracts/gainzilla.sol\":11482:11489  uint256 */\n      0x00\n        /* \"contracts/gainzilla.sol\":11508:11561  TOTAL_SUPPLY.mul(maxWalletPercentage).div(BP_DIVISOR) */\n      tag_284\n        /* \"contracts/gainzilla.sol\":1430:1436  10_000 */\n      0x2710\n        /* \"contracts/gainzilla.sol\":11508:11545  TOTAL_SUPPLY.mul(maxWalletPercentage) */\n      tag_264\n        /* \"contracts/gainzilla.sol\":11525:11544  maxWalletPercentage */\n      sload(0x06)\n        /* \"contracts/gainzilla.sol\":1318:1340  1_000_000_000 * 10**18 */\n      0x033b2e3c9fd0803ce8000000\n        /* \"contracts/gainzilla.sol\":11508:11524  TOTAL_SUPPLY.mul */\n      tag_267\n      swap1\n        /* \"contracts/gainzilla.sol\":11508:11545  TOTAL_SUPPLY.mul(maxWalletPercentage) */\n      swap2\n      swap1\n      0xffffffff\n      and\n      jump\t// in\n        /* \"contracts/gainzilla.sol\":11508:11561  TOTAL_SUPPLY.mul(maxWalletPercentage).div(BP_DIVISOR) */\n    tag_284:\n        /* \"contracts/gainzilla.sol\":11501:11561  return TOTAL_SUPPLY.mul(maxWalletPercentage).div(BP_DIVISOR) */\n      swap1\n      pop\n        /* \"contracts/gainzilla.sol\":11435:11568  function _maxWalletSize() public view returns (uint256) {... */\n      swap1\n      jump\t// out\n        /* \"contracts/gainzilla.sol\":7866:8278  function pairPrice() public view returns (uint256) {... */\n    tag_137:\n        /* \"contracts/gainzilla.sol\":7908:7915  uint256 */\n      0x00\n        /* \"contracts/gainzilla.sol\":7928:7944  uint112 reserve0 */\n      dup1\n        /* \"contracts/gainzilla.sol\":7946:7962  uint112 reserve1 */\n      0x00\n        /* \"contracts/gainzilla.sol\":7982:7993  pairAddress */\n      0x13\n      0x00\n      swap1\n      sload\n      swap1\n      0x0100\n      exp\n      swap1\n      div\n      sub(shl(0xa0, 0x01), 0x01)\n      and\n      sub(shl(0xa0, 0x01), 0x01)\n        /* \"contracts/gainzilla.sol\":7967:8006  IUniswapV2Pair(pairAddress).getReserves */\n      and\n      0x0902f1ac\n        /* \"contracts/gainzilla.sol\":7967:8008  IUniswapV2Pair(pairAddress).getReserves() */\n      mload(0x40)\n      dup2\n      0xffffffff\n      and\n      0xe0\n      shl\n      dup2\n      mstore\n      0x04\n      add\n      0x60\n      mload(0x40)\n      dup1\n      dup4\n      sub\n      dup2\n      dup7\n      gas\n      staticcall\n      iszero\n      dup1\n      iszero\n      tag_288\n      jumpi\n      returndatasize\n      0x00\n      dup1\n      returndatacopy\n      revert(0x00, returndatasize)\n    tag_288:\n      pop\n      pop\n      pop\n      pop\n      mload(0x40)\n      returndatasize\n      not(0x1f)\n      0x1f\n      dup3\n      add\n      and\n      dup3\n      add\n      dup1\n      0x40\n      mstore\n      pop\n      dup2\n      add\n      swap1\n      tag_289\n      swap2\n      swap1\n      tag_290\n      jump\t// in\n    tag_289:\n        /* \"contracts/gainzilla.sol\":7927:8008  (uint112 reserve0, uint112 reserve1,) = IUniswapV2Pair(pairAddress).getReserves() */\n      pop\n      swap2\n      pop\n      swap2\n      pop\n        /* \"contracts/gainzilla.sol\":8022:8030  reserve0 */\n      dup2\n      sub(shl(0x70, 0x01), 0x01)\n        /* \"contracts/gainzilla.sol\":8022:8035  reserve0 == 0 */\n      and\n        /* \"contracts/gainzilla.sol\":8034:8035  0 */\n      0x00\n        /* \"contracts/gainzilla.sol\":8022:8035  reserve0 == 0 */\n      eq\n        /* \"contracts/gainzilla.sol\":8022:8052  reserve0 == 0 || reserve1 == 0 */\n      dup1\n      tag_291\n      jumpi\n      pop\n      sub(shl(0x70, 0x01), 0x01)\n        /* \"contracts/gainzilla.sol\":8039:8052  reserve1 == 0 */\n      dup2\n      and\n      iszero\n        /* \"contracts/gainzilla.sol\":8022:8052  reserve0 == 0 || reserve1 == 0 */\n    tag_291:\n        /* \"contracts/gainzilla.sol\":8018:8062  if (reserve0 == 0 || reserve1 == 0) return 0 */\n      iszero\n      tag_292\n      jumpi\n        /* \"contracts/gainzilla.sol\":8061:8062  0 */\n      0x00\n        /* \"contracts/gainzilla.sol\":8054:8062  return 0 */\n      swap3\n      pop\n      pop\n      pop\n        /* \"contracts/gainzilla.sol\":7866:8278  function pairPrice() public view returns (uint256) {... */\n      swap1\n      jump\t// out\n        /* \"contracts/gainzilla.sol\":8018:8062  if (reserve0 == 0 || reserve1 == 0) return 0 */\n    tag_292:\n        /* \"contracts/gainzilla.sol\":8103:8114  pairAddress */\n      sload(0x13)\n        /* \"contracts/gainzilla.sol\":8088:8124  IUniswapV2Pair(pairAddress).token0() */\n      0x40\n      dup1\n      mload\n      shl(0xe0, 0x0dfe1681)\n      dup2\n      mstore\n      swap1\n      mload\n        /* \"contracts/gainzilla.sol\":8136:8140  this */\n      address\n      swap3\n      sub(shl(0xa0, 0x01), 0x01)\n        /* \"contracts/gainzilla.sol\":8103:8114  pairAddress */\n      and\n      swap2\n        /* \"contracts/gainzilla.sol\":8088:8122  IUniswapV2Pair(pairAddress).token0 */\n      0x0dfe1681\n      swap2\n        /* \"contracts/gainzilla.sol\":8088:8124  IUniswapV2Pair(pairAddress).token0() */\n      0x04\n      dup1\n      dup4\n      add\n      swap3\n      0x20\n      swap3\n      swap2\n      swap1\n      dup3\n      swap1\n      sub\n      add\n      dup2\n        /* \"contracts/gainzilla.sol\":8103:8114  pairAddress */\n      dup7\n        /* \"contracts/gainzilla.sol\":8088:8124  IUniswapV2Pair(pairAddress).token0() */\n      gas\n      staticcall\n      iszero\n      dup1\n      iszero\n      tag_294\n      jumpi\n      returndatasize\n      0x00\n      dup1\n      returndatacopy\n      revert(0x00, returndatasize)\n    tag_294:\n      pop\n      pop\n      pop\n      pop\n      mload(0x40)\n      returndatasize\n      not(0x1f)\n      0x1f\n      dup3\n      add\n      and\n      dup3\n      add\n      dup1\n      0x40\n      mstore\n      pop\n      dup2\n      add\n      swap1\n      tag_295\n      swap2\n      swap1\n      tag_296\n      jump\t// in\n    tag_295:\n      sub(shl(0xa0, 0x01), 0x01)\n        /* \"contracts/gainzilla.sol\":8088:8141  IUniswapV2Pair(pairAddress).token0() == address(this) */\n      and\n      eq\n        /* \"contracts/gainzilla.sol\":8088:8271  IUniswapV2Pair(pairAddress).token0() == address(this) ?... */\n      tag_297\n      jumpi\n        /* \"contracts/gainzilla.sol\":8221:8271  uint256(reserve0).mul(1e18).div(uint256(reserve1)) */\n      tag_298\n      sub(shl(0x70, 0x01), 0x01)\n        /* \"contracts/gainzilla.sol\":8253:8270  uint256(reserve1) */\n      dup1\n      dup4\n      and\n      swap1\n        /* \"contracts/gainzilla.sol\":8221:8248  uint256(reserve0).mul(1e18) */\n      tag_264\n      swap1\n        /* \"contracts/gainzilla.sol\":8221:8238  uint256(reserve0) */\n      dup6\n      and\n        /* \"contracts/gainzilla.sol\":8243:8247  1e18 */\n      0x0de0b6b3a7640000\n        /* \"contracts/gainzilla.sol\":8221:8242  uint256(reserve0).mul */\n      tag_267\n        /* \"contracts/gainzilla.sol\":8221:8248  uint256(reserve0).mul(1e18) */\n      jump\t// in\n        /* \"contracts/gainzilla.sol\":8221:8271  uint256(reserve0).mul(1e18).div(uint256(reserve1)) */\n    tag_298:\n        /* \"contracts/gainzilla.sol\":8088:8271  IUniswapV2Pair(pairAddress).token0() == address(this) ?... */\n      jump(tag_301)\n    tag_297:\n        /* \"contracts/gainzilla.sol\":8156:8206  uint256(reserve1).mul(1e18).div(uint256(reserve0)) */\n      tag_301\n      sub(shl(0x70, 0x01), 0x01)\n        /* \"contracts/gainzilla.sol\":8188:8205  uint256(reserve0) */\n      dup1\n      dup5\n      and\n      swap1\n        /* \"contracts/gainzilla.sol\":8156:8183  uint256(reserve1).mul(1e18) */\n      tag_264\n      swap1\n        /* \"contracts/gainzilla.sol\":8156:8173  uint256(reserve1) */\n      dup5\n      and\n        /* \"contracts/gainzilla.sol\":8178:8182  1e18 */\n      0x0de0b6b3a7640000\n        /* \"contracts/gainzilla.sol\":8156:8177  uint256(reserve1).mul */\n      tag_267\n        /* \"contracts/gainzilla.sol\":8156:8183  uint256(reserve1).mul(1e18) */\n      jump\t// in\n        /* \"contracts/gainzilla.sol\":8156:8206  uint256(reserve1).mul(1e18).div(uint256(reserve0)) */\n    tag_301:\n        /* \"contracts/gainzilla.sol\":8081:8271  return IUniswapV2Pair(pairAddress).token0() == address(this) ?... */\n      swap3\n      pop\n      pop\n      pop\n        /* \"contracts/gainzilla.sol\":7866:8278  function pairPrice() public view returns (uint256) {... */\n      swap1\n      jump\t// out\n        /* \"@openzeppelin/contracts@4.9.3/token/ERC20/ERC20.sol\":2369:2471  function symbol() public view virtual override returns (string memory) {... */\n    tag_141:\n        /* \"@openzeppelin/contracts@4.9.3/token/ERC20/ERC20.sol\":2425:2438  string memory */\n      0x60\n        /* \"@openzeppelin/contracts@4.9.3/token/ERC20/ERC20.sol\":2457:2464  _symbol */\n      0x04\n        /* \"@openzeppelin/contracts@4.9.3/token/ERC20/ERC20.sol\":2450:2464  return _symbol */\n      dup1\n      sload\n      tag_215\n      swap1\n      tag_216\n      jump\t// in\n        /* \"contracts/gainzilla.sol\":9703:9805  function setThreshold(uint256 threshold) external onlyOwner {... */\n    tag_146:\n        /* \"@openzeppelin/contracts@4.9.3/access/Ownable.sol\":1094:1107  _checkOwner() */\n      tag_310\n        /* \"@openzeppelin/contracts@4.9.3/access/Ownable.sol\":1094:1105  _checkOwner */\n      tag_228\n        /* \"@openzeppelin/contracts@4.9.3/access/Ownable.sol\":1094:1107  _checkOwner() */\n      jump\t// in\n    tag_310:\n        /* \"contracts/gainzilla.sol\":9773:9786  swapThreshold */\n      0x08\n        /* \"contracts/gainzilla.sol\":9773:9798  swapThreshold = threshold */\n      sstore\n        /* \"contracts/gainzilla.sol\":9703:9805  function setThreshold(uint256 threshold) external onlyOwner {... */\n      jump\t// out\n        /* \"contracts/gainzilla.sol\":8284:8820  function cooldownRemaining(address account) public view returns (... */\n    tag_150:\n      sub(shl(0xa0, 0x01), 0x01)\n        /* \"contracts/gainzilla.sol\":8487:8514  cooldown.cooldowns[account] */\n      dup2\n      and\n        /* \"contracts/gainzilla.sol\":8358:8371  uint256 days_ */\n      0x00\n        /* \"contracts/gainzilla.sol\":8487:8514  cooldown.cooldowns[account] */\n      swap1\n      dup2\n      mstore\n        /* \"contracts/gainzilla.sol\":8487:8505  cooldown.cooldowns */\n      0x0d\n        /* \"contracts/gainzilla.sol\":8487:8514  cooldown.cooldowns[account] */\n      0x20\n      mstore\n      0x40\n      dup2\n      keccak256\n      sload\n        /* \"contracts/gainzilla.sol\":8358:8371  uint256 days_ */\n      dup2\n      swap1\n      dup2\n      swap1\n      dup2\n      swap1\n      dup2\n      swap1\n        /* \"contracts/gainzilla.sol\":8517:8532  block.timestamp */\n      timestamp\n      lt\n        /* \"contracts/gainzilla.sol\":8487:8600  cooldown.cooldowns[account] > block.timestamp ? ... */\n      tag_313\n      jumpi\n        /* \"contracts/gainzilla.sol\":8599:8600  0 */\n      0x00\n        /* \"contracts/gainzilla.sol\":8487:8600  cooldown.cooldowns[account] > block.timestamp ? ... */\n      jump(tag_315)\n    tag_313:\n      sub(shl(0xa0, 0x01), 0x01)\n        /* \"contracts/gainzilla.sol\":8548:8575  cooldown.cooldowns[account] */\n      dup7\n      and\n      0x00\n      swap1\n      dup2\n      mstore\n        /* \"contracts/gainzilla.sol\":8548:8566  cooldown.cooldowns */\n      0x0d\n        /* \"contracts/gainzilla.sol\":8548:8575  cooldown.cooldowns[account] */\n      0x20\n      mstore\n      0x40\n      swap1\n      keccak256\n      sload\n        /* \"contracts/gainzilla.sol\":8548:8596  cooldown.cooldowns[account].sub(block.timestamp) */\n      tag_315\n      swap1\n        /* \"contracts/gainzilla.sol\":8580:8595  block.timestamp */\n      timestamp\n        /* \"contracts/gainzilla.sol\":8548:8579  cooldown.cooldowns[account].sub */\n      tag_266\n        /* \"contracts/gainzilla.sol\":8548:8596  cooldown.cooldowns[account].sub(block.timestamp) */\n      jump\t// in\n    tag_315:\n        /* \"contracts/gainzilla.sol\":8467:8600  uint256 remaining = cooldown.cooldowns[account] > block.timestamp ? ... */\n      swap1\n      pop\n        /* \"contracts/gainzilla.sol\":8627:8647  remaining.div(86400) */\n      tag_316\n        /* \"contracts/gainzilla.sol\":8467:8600  uint256 remaining = cooldown.cooldowns[account] > block.timestamp ? ... */\n      dup2\n        /* \"contracts/gainzilla.sol\":8641:8646  86400 */\n      0x015180\n        /* \"contracts/gainzilla.sol\":8627:8640  remaining.div */\n      tag_268\n        /* \"contracts/gainzilla.sol\":8627:8647  remaining.div(86400) */\n      jump\t// in\n    tag_316:\n        /* \"contracts/gainzilla.sol\":8619:8647  days_ = remaining.div(86400) */\n      swap5\n      pop\n        /* \"contracts/gainzilla.sol\":8657:8675  remaining %= 86400 */\n      tag_317\n        /* \"contracts/gainzilla.sol\":8670:8675  86400 */\n      0x015180\n        /* \"contracts/gainzilla.sol\":8657:8675  remaining %= 86400 */\n      dup3\n      tag_318\n      jump\t// in\n    tag_317:\n      swap1\n      pop\n        /* \"contracts/gainzilla.sol\":8694:8713  remaining.div(3600) */\n      tag_319\n        /* \"contracts/gainzilla.sol\":8657:8675  remaining %= 86400 */\n      dup2\n        /* \"contracts/gainzilla.sol\":8708:8712  3600 */\n      0x0e10\n        /* \"contracts/gainzilla.sol\":8694:8707  remaining.div */\n      tag_268\n        /* \"contracts/gainzilla.sol\":8694:8713  remaining.div(3600) */\n      jump\t// in\n    tag_319:\n        /* \"contracts/gainzilla.sol\":8685:8713  hours_ = remaining.div(3600) */\n      swap4\n      pop\n        /* \"contracts/gainzilla.sol\":8723:8740  remaining %= 3600 */\n      tag_320\n        /* \"contracts/gainzilla.sol\":8736:8740  3600 */\n      0x0e10\n        /* \"contracts/gainzilla.sol\":8723:8740  remaining %= 3600 */\n      dup3\n      tag_318\n      jump\t// in\n    tag_320:\n      swap1\n      pop\n        /* \"contracts/gainzilla.sol\":8761:8778  remaining.div(60) */\n      tag_321\n        /* \"contracts/gainzilla.sol\":8723:8740  remaining %= 3600 */\n      dup2\n        /* \"contracts/gainzilla.sol\":8775:8777  60 */\n      0x3c\n        /* \"contracts/gainzilla.sol\":8761:8774  remaining.div */\n      tag_268\n        /* \"contracts/gainzilla.sol\":8761:8778  remaining.div(60) */\n      jump\t// in\n    tag_321:\n        /* \"contracts/gainzilla.sol\":8750:8778  minutes_ = remaining.div(60) */\n      swap3\n      pop\n        /* \"contracts/gainzilla.sol\":8799:8813  remaining % 60 */\n      tag_322\n        /* \"contracts/gainzilla.sol\":8811:8813  60 */\n      0x3c\n        /* \"contracts/gainzilla.sol\":8799:8808  remaining */\n      dup3\n        /* \"contracts/gainzilla.sol\":8799:8813  remaining % 60 */\n      tag_318\n      jump\t// in\n    tag_322:\n        /* \"contracts/gainzilla.sol\":8788:8813  seconds_ = remaining % 60 */\n      swap2\n      pop\n        /* \"contracts/gainzilla.sol\":8457:8820  {... */\n      pop\n        /* \"contracts/gainzilla.sol\":8284:8820  function cooldownRemaining(address account) public view returns (... */\n      swap2\n      swap4\n      pop\n      swap2\n      swap4\n      jump\t// out\n        /* \"contracts/gainzilla.sol\":10253:10364  function setExempt(address account, bool exempt) external onlyOwner {... */\n    tag_157:\n        /* \"@openzeppelin/contracts@4.9.3/access/Ownable.sol\":1094:1107  _checkOwner() */\n      tag_324\n        /* \"@openzeppelin/contracts@4.9.3/access/Ownable.sol\":1094:1105  _checkOwner */\n      tag_228\n        /* \"@openzeppelin/contracts@4.9.3/access/Ownable.sol\":1094:1107  _checkOwner() */\n      jump\t// in\n    tag_324:\n      sub(shl(0xa0, 0x01), 0x01)\n        /* \"contracts/gainzilla.sol\":10331:10348  isExempt[account] */\n      swap2\n      swap1\n      swap2\n      and\n      0x00\n      swap1\n      dup2\n      mstore\n        /* \"contracts/gainzilla.sol\":10331:10339  isExempt */\n      0x14\n        /* \"contracts/gainzilla.sol\":10331:10348  isExempt[account] */\n      0x20\n      mstore\n      0x40\n      swap1\n      keccak256\n        /* \"contracts/gainzilla.sol\":10331:10357  isExempt[account] = exempt */\n      dup1\n      sload\n      not(0xff)\n      and\n      swap2\n      iszero\n      iszero\n      swap2\n      swap1\n      swap2\n      or\n      swap1\n      sstore\n        /* \"contracts/gainzilla.sol\":10253:10364  function setExempt(address account, bool exempt) external onlyOwner {... */\n      jump\t// out\n        /* \"@openzeppelin/contracts@4.9.3/token/ERC20/ERC20.sol\":6575:7002  function decreaseAllowance(address spender, uint256 subtractedValue) public virtual returns (bool) {... */\n    tag_161:\n        /* \"@openzeppelin/contracts@4.9.3/token/ERC20/ERC20.sol\":6668:6672  bool */\n      0x00\n        /* \"@openzeppelin/contracts@4.9.3/utils/Context.sol\":719:729  msg.sender */\n      caller\n        /* \"@openzeppelin/contracts@4.9.3/token/ERC20/ERC20.sol\":6668:6672  bool */\n      dup2\n        /* \"@openzeppelin/contracts@4.9.3/token/ERC20/ERC20.sol\":6749:6774  allowance(owner, spender) */\n      tag_328\n        /* \"@openzeppelin/contracts@4.9.3/utils/Context.sol\":719:729  msg.sender */\n      dup3\n        /* \"@openzeppelin/contracts@4.9.3/token/ERC20/ERC20.sol\":6766:6773  spender */\n      dup7\n        /* \"@openzeppelin/contracts@4.9.3/token/ERC20/ERC20.sol\":6749:6758  allowance */\n      tag_198\n        /* \"@openzeppelin/contracts@4.9.3/token/ERC20/ERC20.sol\":6749:6774  allowance(owner, spender) */\n      jump\t// in\n    tag_328:\n        /* \"@openzeppelin/contracts@4.9.3/token/ERC20/ERC20.sol\":6722:6774  uint256 currentAllowance = allowance(owner, spender) */\n      swap1\n      pop\n        /* \"@openzeppelin/contracts@4.9.3/token/ERC20/ERC20.sol\":6812:6827  subtractedValue */\n      dup4\n        /* \"@openzeppelin/contracts@4.9.3/token/ERC20/ERC20.sol\":6792:6808  currentAllowance */\n      dup2\n        /* \"@openzeppelin/contracts@4.9.3/token/ERC20/ERC20.sol\":6792:6827  currentAllowance >= subtractedValue */\n      lt\n      iszero\n        /* \"@openzeppelin/contracts@4.9.3/token/ERC20/ERC20.sol\":6784:6869  require(currentAllowance >= subtractedValue, \"ERC20: decreased allowance below zero\") */\n      tag_329\n      jumpi\n      mload(0x40)\n      shl(0xe5, 0x461bcd)\n      dup2\n      mstore\n        /* \"#utility.yul\":9835:9837   */\n      0x20\n        /* \"@openzeppelin/contracts@4.9.3/token/ERC20/ERC20.sol\":6784:6869  require(currentAllowance >= subtractedValue, \"ERC20: decreased allowance below zero\") */\n      0x04\n      dup3\n      add\n        /* \"#utility.yul\":9817:9838   */\n      mstore\n        /* \"#utility.yul\":9874:9876   */\n      0x25\n        /* \"#utility.yul\":9854:9872   */\n      0x24\n      dup3\n      add\n        /* \"#utility.yul\":9847:9877   */\n      mstore\n        /* \"#utility.yul\":9913:9947   */\n      0x45524332303a2064656372656173656420616c6c6f77616e63652062656c6f77\n        /* \"#utility.yul\":9893:9911   */\n      0x44\n      dup3\n      add\n        /* \"#utility.yul\":9886:9948   */\n      mstore\n      shl(0xd8, 0x207a65726f)\n        /* \"#utility.yul\":9964:9982   */\n      0x64\n      dup3\n      add\n        /* \"#utility.yul\":9957:9992   */\n      mstore\n        /* \"#utility.yul\":10009:10028   */\n      0x84\n      add\n        /* \"@openzeppelin/contracts@4.9.3/token/ERC20/ERC20.sol\":6784:6869  require(currentAllowance >= subtractedValue, \"ERC20: decreased allowance below zero\") */\n      tag_233\n        /* \"#utility.yul\":9633:10034   */\n      jump\n        /* \"@openzeppelin/contracts@4.9.3/token/ERC20/ERC20.sol\":6784:6869  require(currentAllowance >= subtractedValue, \"ERC20: decreased allowance below zero\") */\n    tag_329:\n        /* \"@openzeppelin/contracts@4.9.3/token/ERC20/ERC20.sol\":6903:6963  _approve(owner, spender, currentAllowance - subtractedValue) */\n      tag_332\n        /* \"@openzeppelin/contracts@4.9.3/token/ERC20/ERC20.sol\":6912:6917  owner */\n      dup3\n        /* \"@openzeppelin/contracts@4.9.3/token/ERC20/ERC20.sol\":6919:6926  spender */\n      dup7\n        /* \"@openzeppelin/contracts@4.9.3/token/ERC20/ERC20.sol\":6947:6962  subtractedValue */\n      dup7\n        /* \"@openzeppelin/contracts@4.9.3/token/ERC20/ERC20.sol\":6928:6944  currentAllowance */\n      dup5\n        /* \"@openzeppelin/contracts@4.9.3/token/ERC20/ERC20.sol\":6928:6962  currentAllowance - subtractedValue */\n      sub\n        /* \"@openzeppelin/contracts@4.9.3/token/ERC20/ERC20.sol\":6903:6911  _approve */\n      tag_225\n        /* \"@openzeppelin/contracts@4.9.3/token/ERC20/ERC20.sol\":6903:6963  _approve(owner, spender, currentAllowance - subtractedValue) */\n      jump\t// in\n    tag_332:\n      pop\n        /* \"@openzeppelin/contracts@4.9.3/token/ERC20/ERC20.sol\":6991:6995  true */\n      0x01\n      swap5\n        /* \"@openzeppelin/contracts@4.9.3/token/ERC20/ERC20.sol\":6575:7002  function decreaseAllowance(address spender, uint256 subtractedValue) public virtual returns (bool) {... */\n      swap4\n      pop\n      pop\n      pop\n      pop\n      jump\t// out\n        /* \"@openzeppelin/contracts@4.9.3/token/ERC20/ERC20.sol\":3740:3929  function transfer(address to, uint256 amount) public virtual override returns (bool) {... */\n    tag_170:\n        /* \"@openzeppelin/contracts@4.9.3/token/ERC20/ERC20.sol\":3819:3823  bool */\n      0x00\n        /* \"@openzeppelin/contracts@4.9.3/utils/Context.sol\":719:729  msg.sender */\n      caller\n        /* \"@openzeppelin/contracts@4.9.3/token/ERC20/ERC20.sol\":3873:3901  _transfer(owner, to, amount) */\n      tag_224\n        /* \"@openzeppelin/contracts@4.9.3/utils/Context.sol\":719:729  msg.sender */\n      dup2\n        /* \"@openzeppelin/contracts@4.9.3/token/ERC20/ERC20.sol\":3890:3892  to */\n      dup6\n        /* \"@openzeppelin/contracts@4.9.3/token/ERC20/ERC20.sol\":3894:3900  amount */\n      dup6\n        /* \"@openzeppelin/contracts@4.9.3/token/ERC20/ERC20.sol\":3873:3882  _transfer */\n      tag_245\n        /* \"@openzeppelin/contracts@4.9.3/token/ERC20/ERC20.sol\":3873:3901  _transfer(owner, to, amount) */\n      jump\t// in\n        /* \"contracts/gainzilla.sol\":9240:9400  function setRouter(address newRouter) external onlyOwner {... */\n    tag_180:\n        /* \"@openzeppelin/contracts@4.9.3/access/Ownable.sol\":1094:1107  _checkOwner() */\n      tag_337\n        /* \"@openzeppelin/contracts@4.9.3/access/Ownable.sol\":1094:1105  _checkOwner */\n      tag_228\n        /* \"@openzeppelin/contracts@4.9.3/access/Ownable.sol\":1094:1107  _checkOwner() */\n      jump\t// in\n    tag_337:\n        /* \"contracts/gainzilla.sol\":9307:9320  routerAddress */\n      0x12\n        /* \"contracts/gainzilla.sol\":9307:9332  routerAddress = newRouter */\n      dup1\n      sload\n      not(sub(shl(0xa0, 0x01), 0x01))\n      and\n      sub(shl(0xa0, 0x01), 0x01)\n      dup4\n      and\n      or\n      swap1\n      sstore\n        /* \"contracts/gainzilla.sol\":9342:9354  _setupPair() */\n      tag_339\n        /* \"contracts/gainzilla.sol\":9342:9352  _setupPair */\n      tag_340\n        /* \"contracts/gainzilla.sol\":9342:9354  _setupPair() */\n      jump\t// in\n    tag_339:\n        /* \"contracts/gainzilla.sol\":9369:9393  RouterUpdated(newRouter) */\n      mload(0x40)\n      sub(shl(0xa0, 0x01), 0x01)\n        /* \"#utility.yul\":2651:2683   */\n      dup3\n      and\n        /* \"#utility.yul\":2633:2684   */\n      dup2\n      mstore\n        /* \"contracts/gainzilla.sol\":9369:9393  RouterUpdated(newRouter) */\n      0x7aed1d3e8155a07ccf395e44ea3109a0e2d6c9b29bbbe9f142d9790596f4dc80\n      swap1\n        /* \"#utility.yul\":2621:2623   */\n      0x20\n        /* \"#utility.yul\":2606:2624   */\n      add\n        /* \"contracts/gainzilla.sol\":9369:9393  RouterUpdated(newRouter) */\n      tag_281\n        /* \"#utility.yul\":2487:2690   */\n      jump\n        /* \"@openzeppelin/contracts@4.9.3/token/ERC20/ERC20.sol\":3987:4136  function allowance(address owner, address spender) public view virtual override returns (uint256) {... */\n    tag_198:\n      sub(shl(0xa0, 0x01), 0x01)\n        /* \"@openzeppelin/contracts@4.9.3/token/ERC20/ERC20.sol\":4102:4120  _allowances[owner] */\n      swap2\n      dup3\n      and\n        /* \"@openzeppelin/contracts@4.9.3/token/ERC20/ERC20.sol\":4076:4083  uint256 */\n      0x00\n        /* \"@openzeppelin/contracts@4.9.3/token/ERC20/ERC20.sol\":4102:4120  _allowances[owner] */\n      swap1\n      dup2\n      mstore\n        /* \"@openzeppelin/contracts@4.9.3/token/ERC20/ERC20.sol\":4102:4113  _allowances */\n      0x01\n        /* \"@openzeppelin/contracts@4.9.3/token/ERC20/ERC20.sol\":4102:4120  _allowances[owner] */\n      0x20\n      swap1\n      dup2\n      mstore\n      0x40\n      dup1\n      dup4\n      keccak256\n        /* \"@openzeppelin/contracts@4.9.3/token/ERC20/ERC20.sol\":4102:4129  _allowances[owner][spender] */\n      swap4\n      swap1\n      swap5\n      and\n      dup3\n      mstore\n      swap2\n      swap1\n      swap2\n      mstore\n      keccak256\n      sload\n      swap1\n        /* \"@openzeppelin/contracts@4.9.3/token/ERC20/ERC20.sol\":3987:4136  function allowance(address owner, address spender) public view virtual override returns (uint256) {... */\n      jump\t// out\n        /* \"@openzeppelin/contracts@4.9.3/access/Ownable.sol\":2074:2272  function transferOwnership(address newOwner) public virtual onlyOwner {... */\n    tag_203:\n        /* \"@openzeppelin/contracts@4.9.3/access/Ownable.sol\":1094:1107  _checkOwner() */\n      tag_344\n        /* \"@openzeppelin/contracts@4.9.3/access/Ownable.sol\":1094:1105  _checkOwner */\n      tag_228\n        /* \"@openzeppelin/contracts@4.9.3/access/Ownable.sol\":1094:1107  _checkOwner() */\n      jump\t// in\n    tag_344:\n      sub(shl(0xa0, 0x01), 0x01)\n        /* \"@openzeppelin/contracts@4.9.3/access/Ownable.sol\":2162:2184  newOwner != address(0) */\n      dup2\n      and\n        /* \"@openzeppelin/contracts@4.9.3/access/Ownable.sol\":2154:2227  require(newOwner != address(0), \"Ownable: new owner is the zero address\") */\n      tag_346\n      jumpi\n      mload(0x40)\n      shl(0xe5, 0x461bcd)\n      dup2\n      mstore\n        /* \"#utility.yul\":10241:10243   */\n      0x20\n        /* \"@openzeppelin/contracts@4.9.3/access/Ownable.sol\":2154:2227  require(newOwner != address(0), \"Ownable: new owner is the zero address\") */\n      0x04\n      dup3\n      add\n        /* \"#utility.yul\":10223:10244   */\n      mstore\n        /* \"#utility.yul\":10280:10282   */\n      0x26\n        /* \"#utility.yul\":10260:10278   */\n      0x24\n      dup3\n      add\n        /* \"#utility.yul\":10253:10283   */\n      mstore\n        /* \"#utility.yul\":10319:10353   */\n      0x4f776e61626c653a206e6577206f776e657220697320746865207a65726f2061\n        /* \"#utility.yul\":10299:10317   */\n      0x44\n      dup3\n      add\n        /* \"#utility.yul\":10292:10354   */\n      mstore\n      shl(0xd0, 0x646472657373)\n        /* \"#utility.yul\":10370:10388   */\n      0x64\n      dup3\n      add\n        /* \"#utility.yul\":10363:10399   */\n      mstore\n        /* \"#utility.yul\":10416:10435   */\n      0x84\n      add\n        /* \"@openzeppelin/contracts@4.9.3/access/Ownable.sol\":2154:2227  require(newOwner != address(0), \"Ownable: new owner is the zero address\") */\n      tag_233\n        /* \"#utility.yul\":10039:10441   */\n      jump\n        /* \"@openzeppelin/contracts@4.9.3/access/Ownable.sol\":2154:2227  require(newOwner != address(0), \"Ownable: new owner is the zero address\") */\n    tag_346:\n        /* \"@openzeppelin/contracts@4.9.3/access/Ownable.sol\":2237:2265  _transferOwnership(newOwner) */\n      tag_349\n        /* \"@openzeppelin/contracts@4.9.3/access/Ownable.sol\":2256:2264  newOwner */\n      dup2\n        /* \"@openzeppelin/contracts@4.9.3/access/Ownable.sol\":2237:2255  _transferOwnership */\n      tag_258\n        /* \"@openzeppelin/contracts@4.9.3/access/Ownable.sol\":2237:2265  _transferOwnership(newOwner) */\n      jump\t// in\n    tag_349:\n        /* \"@openzeppelin/contracts@4.9.3/access/Ownable.sol\":2074:2272  function transferOwnership(address newOwner) public virtual onlyOwner {... */\n      pop\n      jump\t// out\n        /* \"contracts/gainzilla.sol\":9987:10247  function configureDiamondFloor(bool enabled, uint16 triggerPercent) external onlyOwner {... */\n    tag_208:\n        /* \"@openzeppelin/contracts@4.9.3/access/Ownable.sol\":1094:1107  _checkOwner() */\n      tag_351\n        /* \"@openzeppelin/contracts@4.9.3/access/Ownable.sol\":1094:1105  _checkOwner */\n      tag_228\n        /* \"@openzeppelin/contracts@4.9.3/access/Ownable.sol\":1094:1107  _checkOwner() */\n      jump\t// in\n    tag_351:\n        /* \"contracts/gainzilla.sol\":1430:1436  10_000 */\n      0x2710\n        /* \"contracts/gainzilla.sol\":10092:10106  triggerPercent */\n      dup2\n        /* \"contracts/gainzilla.sol\":10092:10120  triggerPercent <= BP_DIVISOR */\n      0xffff\n      and\n      gt\n      iszero\n        /* \"contracts/gainzilla.sol\":10084:10143  require(triggerPercent <= BP_DIVISOR, \"Invalid percentage\") */\n      tag_353\n      jumpi\n      mload(0x40)\n      shl(0xe5, 0x461bcd)\n      dup2\n      mstore\n        /* \"#utility.yul\":10648:10650   */\n      0x20\n        /* \"contracts/gainzilla.sol\":10084:10143  require(triggerPercent <= BP_DIVISOR, \"Invalid percentage\") */\n      0x04\n      dup3\n      add\n        /* \"#utility.yul\":10630:10651   */\n      mstore\n        /* \"#utility.yul\":10687:10689   */\n      0x12\n        /* \"#utility.yul\":10667:10685   */\n      0x24\n      dup3\n      add\n        /* \"#utility.yul\":10660:10690   */\n      mstore\n      shl(0x70, 0x496e76616c69642070657263656e74616765)\n        /* \"#utility.yul\":10706:10724   */\n      0x44\n      dup3\n      add\n        /* \"#utility.yul\":10699:10747   */\n      mstore\n        /* \"#utility.yul\":10764:10782   */\n      0x64\n      add\n        /* \"contracts/gainzilla.sol\":10084:10143  require(triggerPercent <= BP_DIVISOR, \"Invalid percentage\") */\n      tag_233\n        /* \"#utility.yul\":10446:10788   */\n      jump\n        /* \"contracts/gainzilla.sol\":10084:10143  require(triggerPercent <= BP_DIVISOR, \"Invalid percentage\") */\n    tag_353:\n        /* \"contracts/gainzilla.sol\":10153:10165  diamondFloor */\n      0x0e\n        /* \"contracts/gainzilla.sol\":10153:10183  diamondFloor.enabled = enabled */\n      dup1\n      sload\n      not(0xffffff)\n        /* \"contracts/gainzilla.sol\":10193:10240  diamondFloor.triggerPercentage = triggerPercent */\n      and\n        /* \"contracts/gainzilla.sol\":10153:10183  diamondFloor.enabled = enabled */\n      swap3\n      iszero\n      iszero\n      not(0xffff00)\n        /* \"contracts/gainzilla.sol\":10193:10240  diamondFloor.triggerPercentage = triggerPercent */\n      and\n      swap3\n      swap1\n      swap3\n      or\n        /* \"contracts/gainzilla.sol\":10153:10183  diamondFloor.enabled = enabled */\n      0x0100\n        /* \"contracts/gainzilla.sol\":10193:10240  diamondFloor.triggerPercentage = triggerPercent */\n      0xffff\n      swap3\n      swap1\n      swap3\n      and\n      swap2\n      swap1\n      swap2\n      mul\n      or\n      swap1\n      sstore\n        /* \"contracts/gainzilla.sol\":9987:10247  function configureDiamondFloor(bool enabled, uint16 triggerPercent) external onlyOwner {... */\n      jump\t// out\n        /* \"contracts/gainzilla.sol\":9811:9981  function configureCooldown(bool enabled, uint32 duration) external onlyOwner {... */\n    tag_213:\n        /* \"@openzeppelin/contracts@4.9.3/access/Ownable.sol\":1094:1107  _checkOwner() */\n      tag_357\n        /* \"@openzeppelin/contracts@4.9.3/access/Ownable.sol\":1094:1105  _checkOwner */\n      tag_228\n        /* \"@openzeppelin/contracts@4.9.3/access/Ownable.sol\":1094:1107  _checkOwner() */\n      jump\t// in\n    tag_357:\n        /* \"contracts/gainzilla.sol\":9898:9906  cooldown */\n      0x0c\n        /* \"contracts/gainzilla.sol\":9898:9924  cooldown.enabled = enabled */\n      dup1\n      sload\n      not(0xff)\n      and\n      dup4\n      iszero\n      iszero\n      or\n      swap1\n      sstore\n        /* \"contracts/gainzilla.sol\":9954:9974  duration * 1 minutes */\n      tag_359\n        /* \"contracts/gainzilla.sol\":9954:9962  duration */\n      dup2\n        /* \"contracts/gainzilla.sol\":9965:9974  1 minutes */\n      0x3c\n        /* \"contracts/gainzilla.sol\":9954:9974  duration * 1 minutes */\n      tag_360\n      jump\t// in\n    tag_359:\n        /* \"contracts/gainzilla.sol\":9934:9942  cooldown */\n      0x0c\n        /* \"contracts/gainzilla.sol\":9934:9974  cooldown.duration = duration * 1 minutes */\n      dup1\n      sload\n      0xffffffff\n      swap3\n      swap1\n      swap3\n      and\n      0x0100\n      mul\n      not(0xffffffff00)\n      swap1\n      swap3\n      and\n      swap2\n      swap1\n      swap2\n      or\n      swap1\n      sstore\n      pop\n      pop\n        /* \"contracts/gainzilla.sol\":9811:9981  function configureCooldown(bool enabled, uint32 duration) external onlyOwner {... */\n      jump\t// out\n        /* \"@openzeppelin/contracts@4.9.3/token/ERC20/ERC20.sol\":10457:10797  function _approve(address owner, address spender, uint256 amount) internal virtual {... */\n    tag_225:\n      sub(shl(0xa0, 0x01), 0x01)\n        /* \"@openzeppelin/contracts@4.9.3/token/ERC20/ERC20.sol\":10558:10577  owner != address(0) */\n      dup4\n      and\n        /* \"@openzeppelin/contracts@4.9.3/token/ERC20/ERC20.sol\":10550:10618  require(owner != address(0), \"ERC20: approve from the zero address\") */\n      tag_363\n      jumpi\n      mload(0x40)\n      shl(0xe5, 0x461bcd)\n      dup2\n      mstore\n        /* \"#utility.yul\":11249:11251   */\n      0x20\n        /* \"@openzeppelin/contracts@4.9.3/token/ERC20/ERC20.sol\":10550:10618  require(owner != address(0), \"ERC20: approve from the zero address\") */\n      0x04\n      dup3\n      add\n        /* \"#utility.yul\":11231:11252   */\n      mstore\n        /* \"#utility.yul\":11288:11290   */\n      0x24\n        /* \"#utility.yul\":11268:11286   */\n      dup1\n      dup3\n      add\n        /* \"#utility.yul\":11261:11291   */\n      mstore\n        /* \"#utility.yul\":11327:11361   */\n      0x45524332303a20617070726f76652066726f6d20746865207a65726f20616464\n        /* \"#utility.yul\":11307:11325   */\n      0x44\n      dup3\n      add\n        /* \"#utility.yul\":11300:11362   */\n      mstore\n      shl(0xe0, 0x72657373)\n        /* \"#utility.yul\":11378:11396   */\n      0x64\n      dup3\n      add\n        /* \"#utility.yul\":11371:11405   */\n      mstore\n        /* \"#utility.yul\":11422:11441   */\n      0x84\n      add\n        /* \"@openzeppelin/contracts@4.9.3/token/ERC20/ERC20.sol\":10550:10618  require(owner != address(0), \"ERC20: approve from the zero address\") */\n      tag_233\n        /* \"#utility.yul\":11047:11447   */\n      jump\n        /* \"@openzeppelin/contracts@4.9.3/token/ERC20/ERC20.sol\":10550:10618  require(owner != address(0), \"ERC20: approve from the zero address\") */\n    tag_363:\n      sub(shl(0xa0, 0x01), 0x01)\n        /* \"@openzeppelin/contracts@4.9.3/token/ERC20/ERC20.sol\":10636:10657  spender != address(0) */\n      dup3\n      and\n        /* \"@openzeppelin/contracts@4.9.3/token/ERC20/ERC20.sol\":10628:10696  require(spender != address(0), \"ERC20: approve to the zero address\") */\n      tag_366\n      jumpi\n      mload(0x40)\n      shl(0xe5, 0x461bcd)\n      dup2\n      mstore\n        /* \"#utility.yul\":11654:11656   */\n      0x20\n        /* \"@openzeppelin/contracts@4.9.3/token/ERC20/ERC20.sol\":10628:10696  require(spender != address(0), \"ERC20: approve to the zero address\") */\n      0x04\n      dup3\n      add\n        /* \"#utility.yul\":11636:11657   */\n      mstore\n        /* \"#utility.yul\":11693:11695   */\n      0x22\n        /* \"#utility.yul\":11673:11691   */\n      0x24\n      dup3\n      add\n        /* \"#utility.yul\":11666:11696   */\n      mstore\n        /* \"#utility.yul\":11732:11766   */\n      0x45524332303a20617070726f766520746f20746865207a65726f206164647265\n        /* \"#utility.yul\":11712:11730   */\n      0x44\n      dup3\n      add\n        /* \"#utility.yul\":11705:11767   */\n      mstore\n      shl(0xf0, 0x7373)\n        /* \"#utility.yul\":11783:11801   */\n      0x64\n      dup3\n      add\n        /* \"#utility.yul\":11776:11808   */\n      mstore\n        /* \"#utility.yul\":11825:11844   */\n      0x84\n      add\n        /* \"@openzeppelin/contracts@4.9.3/token/ERC20/ERC20.sol\":10628:10696  require(spender != address(0), \"ERC20: approve to the zero address\") */\n      tag_233\n        /* \"#utility.yul\":11452:11850   */\n      jump\n        /* \"@openzeppelin/contracts@4.9.3/token/ERC20/ERC20.sol\":10628:10696  require(spender != address(0), \"ERC20: approve to the zero address\") */\n    tag_366:\n      sub(shl(0xa0, 0x01), 0x01)\n        /* \"@openzeppelin/contracts@4.9.3/token/ERC20/ERC20.sol\":10707:10725  _allowances[owner] */\n      dup4\n      dup2\n      and\n      0x00\n      dup2\n      dup2\n      mstore\n        /* \"@openzeppelin/contracts@4.9.3/token/ERC20/ERC20.sol\":10707:10718  _allowances */\n      0x01\n        /* \"@openzeppelin/contracts@4.9.3/token/ERC20/ERC20.sol\":10707:10725  _allowances[owner] */\n      0x20\n      swap1\n      dup2\n      mstore\n      0x40\n      dup1\n      dup4\n      keccak256\n        /* \"@openzeppelin/contracts@4.9.3/token/ERC20/ERC20.sol\":10707:10734  _allowances[owner][spender] */\n      swap5\n      dup8\n      and\n      dup1\n      dup5\n      mstore\n      swap5\n      dup3\n      mstore\n      swap2\n      dup3\n      swap1\n      keccak256\n        /* \"@openzeppelin/contracts@4.9.3/token/ERC20/ERC20.sol\":10707:10743  _allowances[owner][spender] = amount */\n      dup6\n      swap1\n      sstore\n        /* \"@openzeppelin/contracts@4.9.3/token/ERC20/ERC20.sol\":10758:10790  Approval(owner, spender, amount) */\n      swap1\n      mload\n        /* \"#utility.yul\":160:185   */\n      dup5\n      dup2\n      mstore\n        /* \"@openzeppelin/contracts@4.9.3/token/ERC20/ERC20.sol\":10758:10790  Approval(owner, spender, amount) */\n      0x8c5be1e5ebec7d5bd14f71427d1e84f3dd0314c0f7b2291e5b200ac8c7c3b925\n      swap2\n        /* \"#utility.yul\":133:151   */\n      add\n        /* \"@openzeppelin/contracts@4.9.3/token/ERC20/ERC20.sol\":10758:10790  Approval(owner, spender, amount) */\n      mload(0x40)\n      dup1\n      swap2\n      sub\n      swap1\n      log3\n        /* \"@openzeppelin/contracts@4.9.3/token/ERC20/ERC20.sol\":10457:10797  function _approve(address owner, address spender, uint256 amount) internal virtual {... */\n      pop\n      pop\n      pop\n      jump\t// out\n        /* \"@openzeppelin/contracts@4.9.3/access/Ownable.sol\":1359:1489  function _checkOwner() internal view virtual {... */\n    tag_228:\n        /* \"@openzeppelin/contracts@4.9.3/access/Ownable.sol\":1273:1279  _owner */\n      and(sub(shl(0xa0, 0x01), 0x01), sload(0x05))\n        /* \"@openzeppelin/contracts@4.9.3/utils/Context.sol\":719:729  msg.sender */\n      caller\n        /* \"@openzeppelin/contracts@4.9.3/access/Ownable.sol\":1422:1445  owner() == _msgSender() */\n      eq\n        /* \"@openzeppelin/contracts@4.9.3/access/Ownable.sol\":1414:1482  require(owner() == _msgSender(), \"Ownable: caller is not the owner\") */\n      tag_257\n      jumpi\n      mload(0x40)\n      shl(0xe5, 0x461bcd)\n      dup2\n      mstore\n        /* \"#utility.yul\":12057:12059   */\n      0x20\n        /* \"@openzeppelin/contracts@4.9.3/access/Ownable.sol\":1414:1482  require(owner() == _msgSender(), \"Ownable: caller is not the owner\") */\n      0x04\n      dup3\n      add\n        /* \"#utility.yul\":12039:12060   */\n      dup2\n      swap1\n      mstore\n        /* \"#utility.yul\":12076:12094   */\n      0x24\n      dup3\n      add\n        /* \"#utility.yul\":12069:12099   */\n      mstore\n        /* \"#utility.yul\":12135:12169   */\n      0x4f776e61626c653a2063616c6c6572206973206e6f7420746865206f776e6572\n        /* \"#utility.yul\":12115:12133   */\n      0x44\n      dup3\n      add\n        /* \"#utility.yul\":12108:12170   */\n      mstore\n        /* \"#utility.yul\":12187:12205   */\n      0x64\n      add\n        /* \"@openzeppelin/contracts@4.9.3/access/Ownable.sol\":1414:1482  require(owner() == _msgSender(), \"Ownable: caller is not the owner\") */\n      tag_233\n        /* \"#utility.yul\":11855:12211   */\n      jump\n        /* \"@openzeppelin/contracts@4.9.3/token/ERC20/ERC20.sol\":11078:11489  function _spendAllowance(address owner, address spender, uint256 amount) internal virtual {... */\n    tag_243:\n        /* \"@openzeppelin/contracts@4.9.3/token/ERC20/ERC20.sol\":11178:11202  uint256 currentAllowance */\n      0x00\n        /* \"@openzeppelin/contracts@4.9.3/token/ERC20/ERC20.sol\":11205:11230  allowance(owner, spender) */\n      tag_377\n        /* \"@openzeppelin/contracts@4.9.3/token/ERC20/ERC20.sol\":11215:11220  owner */\n      dup5\n        /* \"@openzeppelin/contracts@4.9.3/token/ERC20/ERC20.sol\":11222:11229  spender */\n      dup5\n        /* \"@openzeppelin/contracts@4.9.3/token/ERC20/ERC20.sol\":11205:11214  allowance */\n      tag_198\n        /* \"@openzeppelin/contracts@4.9.3/token/ERC20/ERC20.sol\":11205:11230  allowance(owner, spender) */\n      jump\t// in\n    tag_377:\n        /* \"@openzeppelin/contracts@4.9.3/token/ERC20/ERC20.sol\":11178:11230  uint256 currentAllowance = allowance(owner, spender) */\n      swap1\n      pop\n      not(0x00)\n        /* \"@openzeppelin/contracts@4.9.3/token/ERC20/ERC20.sol\":11244:11260  currentAllowance */\n      dup2\n        /* \"@openzeppelin/contracts@4.9.3/token/ERC20/ERC20.sol\":11244:11281  currentAllowance != type(uint256).max */\n      eq\n        /* \"@openzeppelin/contracts@4.9.3/token/ERC20/ERC20.sol\":11240:11483  if (currentAllowance != type(uint256).max) {... */\n      tag_382\n      jumpi\n        /* \"@openzeppelin/contracts@4.9.3/token/ERC20/ERC20.sol\":11325:11331  amount */\n      dup2\n        /* \"@openzeppelin/contracts@4.9.3/token/ERC20/ERC20.sol\":11305:11321  currentAllowance */\n      dup2\n        /* \"@openzeppelin/contracts@4.9.3/token/ERC20/ERC20.sol\":11305:11331  currentAllowance >= amount */\n      lt\n      iszero\n        /* \"@openzeppelin/contracts@4.9.3/token/ERC20/ERC20.sol\":11297:11365  require(currentAllowance >= amount, \"ERC20: insufficient allowance\") */\n      tag_379\n      jumpi\n      mload(0x40)\n      shl(0xe5, 0x461bcd)\n      dup2\n      mstore\n        /* \"#utility.yul\":12418:12420   */\n      0x20\n        /* \"@openzeppelin/contracts@4.9.3/token/ERC20/ERC20.sol\":11297:11365  require(currentAllowance >= amount, \"ERC20: insufficient allowance\") */\n      0x04\n      dup3\n      add\n        /* \"#utility.yul\":12400:12421   */\n      mstore\n        /* \"#utility.yul\":12457:12459   */\n      0x1d\n        /* \"#utility.yul\":12437:12455   */\n      0x24\n      dup3\n      add\n        /* \"#utility.yul\":12430:12460   */\n      mstore\n        /* \"#utility.yul\":12496:12527   */\n      0x45524332303a20696e73756666696369656e7420616c6c6f77616e6365000000\n        /* \"#utility.yul\":12476:12494   */\n      0x44\n      dup3\n      add\n        /* \"#utility.yul\":12469:12528   */\n      mstore\n        /* \"#utility.yul\":12545:12563   */\n      0x64\n      add\n        /* \"@openzeppelin/contracts@4.9.3/token/ERC20/ERC20.sol\":11297:11365  require(currentAllowance >= amount, \"ERC20: insufficient allowance\") */\n      tag_233\n        /* \"#utility.yul\":12216:12569   */\n      jump\n        /* \"@openzeppelin/contracts@4.9.3/token/ERC20/ERC20.sol\":11297:11365  require(currentAllowance >= amount, \"ERC20: insufficient allowance\") */\n    tag_379:\n        /* \"@openzeppelin/contracts@4.9.3/token/ERC20/ERC20.sol\":11407:11458  _approve(owner, spender, currentAllowance - amount) */\n      tag_382\n        /* \"@openzeppelin/contracts@4.9.3/token/ERC20/ERC20.sol\":11416:11421  owner */\n      dup5\n        /* \"@openzeppelin/contracts@4.9.3/token/ERC20/ERC20.sol\":11423:11430  spender */\n      dup5\n        /* \"@openzeppelin/contracts@4.9.3/token/ERC20/ERC20.sol\":11451:11457  amount */\n      dup5\n        /* \"@openzeppelin/contracts@4.9.3/token/ERC20/ERC20.sol\":11432:11448  currentAllowance */\n      dup5\n        /* \"@openzeppelin/contracts@4.9.3/token/ERC20/ERC20.sol\":11432:11457  currentAllowance - amount */\n      sub\n        /* \"@openzeppelin/contracts@4.9.3/token/ERC20/ERC20.sol\":11407:11415  _approve */\n      tag_225\n        /* \"@openzeppelin/contracts@4.9.3/token/ERC20/ERC20.sol\":11407:11458  _approve(owner, spender, currentAllowance - amount) */\n      jump\t// in\n    tag_382:\n        /* \"@openzeppelin/contracts@4.9.3/token/ERC20/ERC20.sol\":11168:11489  {... */\n      pop\n        /* \"@openzeppelin/contracts@4.9.3/token/ERC20/ERC20.sol\":11078:11489  function _spendAllowance(address owner, address spender, uint256 amount) internal virtual {... */\n      pop\n      pop\n      pop\n      jump\t// out\n        /* \"contracts/gainzilla.sol\":2953:4458  function _transfer(... */\n    tag_245:\n        /* \"contracts/gainzilla.sol\":3106:3107  0 */\n      0x00\n        /* \"contracts/gainzilla.sol\":3097:3103  amount */\n      dup2\n        /* \"contracts/gainzilla.sol\":3097:3107  amount > 0 */\n      gt\n        /* \"contracts/gainzilla.sol\":3089:3138  require(amount > 0, \"Transfer amount must be >0\") */\n      tag_384\n      jumpi\n      mload(0x40)\n      shl(0xe5, 0x461bcd)\n      dup2\n      mstore\n        /* \"#utility.yul\":12776:12778   */\n      0x20\n        /* \"contracts/gainzilla.sol\":3089:3138  require(amount > 0, \"Transfer amount must be >0\") */\n      0x04\n      dup3\n      add\n        /* \"#utility.yul\":12758:12779   */\n      mstore\n        /* \"#utility.yul\":12815:12817   */\n      0x1a\n        /* \"#utility.yul\":12795:12813   */\n      0x24\n      dup3\n      add\n        /* \"#utility.yul\":12788:12818   */\n      mstore\n        /* \"#utility.yul\":12854:12882   */\n      0x5472616e7366657220616d6f756e74206d757374206265203e30000000000000\n        /* \"#utility.yul\":12834:12852   */\n      0x44\n      dup3\n      add\n        /* \"#utility.yul\":12827:12883   */\n      mstore\n        /* \"#utility.yul\":12900:12918   */\n      0x64\n      add\n        /* \"contracts/gainzilla.sol\":3089:3138  require(amount > 0, \"Transfer amount must be >0\") */\n      tag_233\n        /* \"#utility.yul\":12574:12924   */\n      jump\n        /* \"contracts/gainzilla.sol\":3089:3138  require(amount > 0, \"Transfer amount must be >0\") */\n    tag_384:\n        /* \"contracts/gainzilla.sol\":3172:3183  pairAddress */\n      sload(0x13)\n        /* \"contracts/gainzilla.sol\":3149:3159  bool isBuy */\n      0x00\n      swap1\n      sub(shl(0xa0, 0x01), 0x01)\n        /* \"contracts/gainzilla.sol\":3162:3183  sender == pairAddress */\n      dup6\n      dup2\n      and\n        /* \"contracts/gainzilla.sol\":3172:3183  pairAddress */\n      swap2\n      and\n        /* \"contracts/gainzilla.sol\":3162:3183  sender == pairAddress */\n      eq\n        /* \"contracts/gainzilla.sol\":3162:3207  sender == pairAddress && !isExempt[recipient] */\n      dup1\n      iszero\n      tag_387\n      jumpi\n      pop\n      sub(shl(0xa0, 0x01), 0x01)\n        /* \"contracts/gainzilla.sol\":3188:3207  isExempt[recipient] */\n      dup4\n      and\n      0x00\n      swap1\n      dup2\n      mstore\n        /* \"contracts/gainzilla.sol\":3188:3196  isExempt */\n      0x14\n        /* \"contracts/gainzilla.sol\":3188:3207  isExempt[recipient] */\n      0x20\n      mstore\n      0x40\n      swap1\n      keccak256\n      sload\n      0xff\n      and\n        /* \"contracts/gainzilla.sol\":3187:3207  !isExempt[recipient] */\n      iszero\n        /* \"contracts/gainzilla.sol\":3162:3207  sender == pairAddress && !isExempt[recipient] */\n    tag_387:\n        /* \"contracts/gainzilla.sol\":3244:3255  pairAddress */\n      sload(0x13)\n        /* \"contracts/gainzilla.sol\":3149:3207  bool isBuy = sender == pairAddress && !isExempt[recipient] */\n      swap1\n      swap2\n      pop\n        /* \"contracts/gainzilla.sol\":3217:3228  bool isSell */\n      0x00\n      swap1\n      sub(shl(0xa0, 0x01), 0x01)\n        /* \"contracts/gainzilla.sol\":3231:3255  recipient == pairAddress */\n      dup6\n      dup2\n      and\n        /* \"contracts/gainzilla.sol\":3244:3255  pairAddress */\n      swap2\n      and\n        /* \"contracts/gainzilla.sol\":3231:3255  recipient == pairAddress */\n      eq\n        /* \"contracts/gainzilla.sol\":3231:3276  recipient == pairAddress && !isExempt[sender] */\n      dup1\n      iszero\n      tag_388\n      jumpi\n      pop\n      sub(shl(0xa0, 0x01), 0x01)\n        /* \"contracts/gainzilla.sol\":3260:3276  isExempt[sender] */\n      dup6\n      and\n      0x00\n      swap1\n      dup2\n      mstore\n        /* \"contracts/gainzilla.sol\":3260:3268  isExempt */\n      0x14\n        /* \"contracts/gainzilla.sol\":3260:3276  isExempt[sender] */\n      0x20\n      mstore\n      0x40\n      swap1\n      keccak256\n      sload\n      0xff\n      and\n        /* \"contracts/gainzilla.sol\":3259:3276  !isExempt[sender] */\n      iszero\n        /* \"contracts/gainzilla.sol\":3231:3276  recipient == pairAddress && !isExempt[sender] */\n    tag_388:\n        /* \"contracts/gainzilla.sol\":3322:3334  diamondFloor */\n      0x0e\n        /* \"contracts/gainzilla.sol\":3322:3342  diamondFloor.enabled */\n      sload\n        /* \"contracts/gainzilla.sol\":3217:3276  bool isSell = recipient == pairAddress && !isExempt[sender] */\n      swap1\n      swap2\n      pop\n        /* \"contracts/gainzilla.sol\":3322:3342  diamondFloor.enabled */\n      0xff\n      and\n        /* \"contracts/gainzilla.sol\":3322:3352  diamondFloor.enabled && isSell */\n      dup1\n      iszero\n      tag_389\n      jumpi\n      pop\n        /* \"contracts/gainzilla.sol\":3346:3352  isSell */\n      dup1\n        /* \"contracts/gainzilla.sol\":3322:3352  diamondFloor.enabled && isSell */\n    tag_389:\n        /* \"contracts/gainzilla.sol\":3318:3484  if (diamondFloor.enabled && isSell) {... */\n      iszero\n      tag_394\n      jumpi\n        /* \"contracts/gainzilla.sol\":3377:3401  diamondFloor.sellStopped */\n      and(0xff, sload(0x10))\n        /* \"contracts/gainzilla.sol\":3376:3401  !diamondFloor.sellStopped */\n      iszero\n        /* \"contracts/gainzilla.sol\":3368:3436  require(!diamondFloor.sellStopped, \"Sells stopped by Diamond Floor\") */\n      tag_391\n      jumpi\n      mload(0x40)\n      shl(0xe5, 0x461bcd)\n      dup2\n      mstore\n        /* \"#utility.yul\":13131:13133   */\n      0x20\n        /* \"contracts/gainzilla.sol\":3368:3436  require(!diamondFloor.sellStopped, \"Sells stopped by Diamond Floor\") */\n      0x04\n      dup3\n      add\n        /* \"#utility.yul\":13113:13134   */\n      mstore\n        /* \"#utility.yul\":13170:13172   */\n      0x1e\n        /* \"#utility.yul\":13150:13168   */\n      0x24\n      dup3\n      add\n        /* \"#utility.yul\":13143:13173   */\n      mstore\n        /* \"#utility.yul\":13209:13241   */\n      0x53656c6c732073746f70706564206279204469616d6f6e6420466c6f6f720000\n        /* \"#utility.yul\":13189:13207   */\n      0x44\n      dup3\n      add\n        /* \"#utility.yul\":13182:13242   */\n      mstore\n        /* \"#utility.yul\":13259:13277   */\n      0x64\n      add\n        /* \"contracts/gainzilla.sol\":3368:3436  require(!diamondFloor.sellStopped, \"Sells stopped by Diamond Floor\") */\n      tag_233\n        /* \"#utility.yul\":12929:13283   */\n      jump\n        /* \"contracts/gainzilla.sol\":3368:3436  require(!diamondFloor.sellStopped, \"Sells stopped by Diamond Floor\") */\n    tag_391:\n        /* \"contracts/gainzilla.sol\":3450:3473  _checkPriceConditions() */\n      tag_394\n        /* \"contracts/gainzilla.sol\":3450:3471  _checkPriceConditions */\n      tag_395\n        /* \"contracts/gainzilla.sol\":3450:3473  _checkPriceConditions() */\n      jump\t// in\n    tag_394:\n        /* \"contracts/gainzilla.sol\":3524:3532  cooldown */\n      0x0c\n        /* \"contracts/gainzilla.sol\":3524:3540  cooldown.enabled */\n      sload\n      0xff\n      and\n        /* \"contracts/gainzilla.sol\":3524:3550  cooldown.enabled && isSell */\n      dup1\n      iszero\n      tag_396\n      jumpi\n      pop\n        /* \"contracts/gainzilla.sol\":3544:3550  isSell */\n      dup1\n        /* \"contracts/gainzilla.sol\":3524:3550  cooldown.enabled && isSell */\n    tag_396:\n        /* \"contracts/gainzilla.sol\":3520:3728  if (cooldown.enabled && isSell) {... */\n      iszero\n      tag_397\n      jumpi\n      sub(shl(0xa0, 0x01), 0x01)\n        /* \"contracts/gainzilla.sol\":3593:3619  cooldown.cooldowns[sender] */\n      dup6\n      and\n      0x00\n      swap1\n      dup2\n      mstore\n        /* \"contracts/gainzilla.sol\":3593:3611  cooldown.cooldowns */\n      0x0d\n        /* \"contracts/gainzilla.sol\":3593:3619  cooldown.cooldowns[sender] */\n      0x20\n      mstore\n      0x40\n      swap1\n      keccak256\n      sload\n        /* \"contracts/gainzilla.sol\":3574:3589  block.timestamp */\n      timestamp\n        /* \"contracts/gainzilla.sol\":3574:3619  block.timestamp >= cooldown.cooldowns[sender] */\n      lt\n      iszero\n        /* \"contracts/gainzilla.sol\":3566:3639  require(block.timestamp >= cooldown.cooldowns[sender], \"Cooldown active\") */\n      tag_398\n      jumpi\n      mload(0x40)\n      shl(0xe5, 0x461bcd)\n      dup2\n      mstore\n        /* \"#utility.yul\":13490:13492   */\n      0x20\n        /* \"contracts/gainzilla.sol\":3566:3639  require(block.timestamp >= cooldown.cooldowns[sender], \"Cooldown active\") */\n      0x04\n      dup3\n      add\n        /* \"#utility.yul\":13472:13493   */\n      mstore\n        /* \"#utility.yul\":13529:13531   */\n      0x0f\n        /* \"#utility.yul\":13509:13527   */\n      0x24\n      dup3\n      add\n        /* \"#utility.yul\":13502:13532   */\n      mstore\n      shl(0x88, 0x436f6f6c646f776e20616374697665)\n        /* \"#utility.yul\":13548:13566   */\n      0x44\n      dup3\n      add\n        /* \"#utility.yul\":13541:13586   */\n      mstore\n        /* \"#utility.yul\":13603:13621   */\n      0x64\n      add\n        /* \"contracts/gainzilla.sol\":3566:3639  require(block.timestamp >= cooldown.cooldowns[sender], \"Cooldown active\") */\n      tag_233\n        /* \"#utility.yul\":13288:13627   */\n      jump\n        /* \"contracts/gainzilla.sol\":3566:3639  require(block.timestamp >= cooldown.cooldowns[sender], \"Cooldown active\") */\n    tag_398:\n        /* \"contracts/gainzilla.sol\":3700:3708  cooldown */\n      0x0c\n        /* \"contracts/gainzilla.sol\":3700:3717  cooldown.duration */\n      sload\n        /* \"contracts/gainzilla.sol\":3682:3717  block.timestamp + cooldown.duration */\n      tag_401\n      swap1\n        /* \"contracts/gainzilla.sol\":3700:3717  cooldown.duration */\n      0x0100\n      swap1\n      div\n      0xffffffff\n      and\n        /* \"contracts/gainzilla.sol\":3682:3697  block.timestamp */\n      timestamp\n        /* \"contracts/gainzilla.sol\":3682:3717  block.timestamp + cooldown.duration */\n      tag_252\n      jump\t// in\n    tag_401:\n      sub(shl(0xa0, 0x01), 0x01)\n        /* \"contracts/gainzilla.sol\":3653:3679  cooldown.cooldowns[sender] */\n      dup7\n      and\n      0x00\n      swap1\n      dup2\n      mstore\n        /* \"contracts/gainzilla.sol\":3653:3671  cooldown.cooldowns */\n      0x0d\n        /* \"contracts/gainzilla.sol\":3653:3679  cooldown.cooldowns[sender] */\n      0x20\n      mstore\n      0x40\n      swap1\n      keccak256\n        /* \"contracts/gainzilla.sol\":3653:3717  cooldown.cooldowns[sender] = block.timestamp + cooldown.duration */\n      sstore\n        /* \"contracts/gainzilla.sol\":3520:3728  if (cooldown.enabled && isSell) {... */\n    tag_397:\n        /* \"contracts/gainzilla.sol\":3738:3755  uint256 taxAmount */\n      0x00\n        /* \"contracts/gainzilla.sol\":3758:3798  _calculateTax(sender, recipient, amount) */\n      tag_402\n        /* \"contracts/gainzilla.sol\":3772:3778  sender */\n      dup7\n        /* \"contracts/gainzilla.sol\":3780:3789  recipient */\n      dup7\n        /* \"contracts/gainzilla.sol\":3791:3797  amount */\n      dup7\n        /* \"contracts/gainzilla.sol\":3758:3771  _calculateTax */\n      tag_403\n        /* \"contracts/gainzilla.sol\":3758:3798  _calculateTax(sender, recipient, amount) */\n      jump\t// in\n    tag_402:\n        /* \"contracts/gainzilla.sol\":3738:3798  uint256 taxAmount = _calculateTax(sender, recipient, amount) */\n      swap1\n      pop\n        /* \"contracts/gainzilla.sol\":3808:3825  uint256 netAmount */\n      0x00\n        /* \"contracts/gainzilla.sol\":3828:3849  amount.sub(taxAmount) */\n      tag_404\n        /* \"contracts/gainzilla.sol\":3828:3834  amount */\n      dup6\n        /* \"contracts/gainzilla.sol\":3738:3798  uint256 taxAmount = _calculateTax(sender, recipient, amount) */\n      dup4\n        /* \"contracts/gainzilla.sol\":3828:3838  amount.sub */\n      tag_266\n        /* \"contracts/gainzilla.sol\":3828:3849  amount.sub(taxAmount) */\n      jump\t// in\n    tag_404:\n      sub(shl(0xa0, 0x01), 0x01)\n        /* \"contracts/gainzilla.sol\":3893:3912  isExempt[recipient] */\n      dup8\n      and\n      0x00\n      swap1\n      dup2\n      mstore\n        /* \"contracts/gainzilla.sol\":3893:3901  isExempt */\n      0x14\n        /* \"contracts/gainzilla.sol\":3893:3912  isExempt[recipient] */\n      0x20\n      mstore\n      0x40\n      swap1\n      keccak256\n      sload\n        /* \"contracts/gainzilla.sol\":3808:3849  uint256 netAmount = amount.sub(taxAmount) */\n      swap1\n      swap2\n      pop\n        /* \"contracts/gainzilla.sol\":3893:3912  isExempt[recipient] */\n      0xff\n      and\n        /* \"contracts/gainzilla.sol\":3892:3912  !isExempt[recipient] */\n      iszero\n        /* \"contracts/gainzilla.sol\":3892:3923  !isExempt[recipient] && !isSell */\n      dup1\n      iszero\n      tag_405\n      jumpi\n      pop\n        /* \"contracts/gainzilla.sol\":3917:3923  isSell */\n      dup3\n        /* \"contracts/gainzilla.sol\":3916:3923  !isSell */\n      iszero\n        /* \"contracts/gainzilla.sol\":3892:3923  !isExempt[recipient] && !isSell */\n    tag_405:\n        /* \"contracts/gainzilla.sol\":3888:4083  if (!isExempt[recipient] && !isSell) {... */\n      iszero\n      tag_411\n      jumpi\n        /* \"contracts/gainzilla.sol\":4003:4019  _maxWalletSize() */\n      tag_407\n        /* \"contracts/gainzilla.sol\":4003:4017  _maxWalletSize */\n      tag_133\n        /* \"contracts/gainzilla.sol\":4003:4019  _maxWalletSize() */\n      jump\t// in\n    tag_407:\n        /* \"contracts/gainzilla.sol\":3964:3999  balanceOf(recipient).add(netAmount) */\n      tag_408\n        /* \"contracts/gainzilla.sol\":3989:3998  netAmount */\n      dup3\n        /* \"contracts/gainzilla.sol\":3964:3984  balanceOf(recipient) */\n      tag_409\n        /* \"contracts/gainzilla.sol\":3974:3983  recipient */\n      dup10\n      sub(shl(0xa0, 0x01), 0x01)\n        /* \"@openzeppelin/contracts@4.9.3/token/ERC20/ERC20.sol\":3519:3537  _balances[account] */\n      and\n        /* \"@openzeppelin/contracts@4.9.3/token/ERC20/ERC20.sol\":3493:3500  uint256 */\n      0x00\n        /* \"@openzeppelin/contracts@4.9.3/token/ERC20/ERC20.sol\":3519:3537  _balances[account] */\n      swap1\n      dup2\n      mstore\n      0x20\n      dup2\n      swap1\n      mstore\n      0x40\n      swap1\n      keccak256\n      sload\n      swap1\n        /* \"@openzeppelin/contracts@4.9.3/token/ERC20/ERC20.sol\":3419:3544  function balanceOf(address account) public view virtual override returns (uint256) {... */\n      jump\n        /* \"contracts/gainzilla.sol\":3964:3984  balanceOf(recipient) */\n    tag_409:\n        /* \"contracts/gainzilla.sol\":3964:3988  balanceOf(recipient).add */\n      swap1\n      tag_410\n        /* \"contracts/gainzilla.sol\":3964:3999  balanceOf(recipient).add(netAmount) */\n      jump\t// in\n    tag_408:\n        /* \"contracts/gainzilla.sol\":3964:4019  balanceOf(recipient).add(netAmount) <= _maxWalletSize() */\n      gt\n      iszero\n        /* \"contracts/gainzilla.sol\":3939:4072  require(... */\n      tag_411\n      jumpi\n      mload(0x40)\n      shl(0xe5, 0x461bcd)\n      dup2\n      mstore\n        /* \"#utility.yul\":13834:13836   */\n      0x20\n        /* \"contracts/gainzilla.sol\":3939:4072  require(... */\n      0x04\n      dup3\n      add\n        /* \"#utility.yul\":13816:13837   */\n      mstore\n        /* \"#utility.yul\":13873:13875   */\n      0x13\n        /* \"#utility.yul\":13853:13871   */\n      0x24\n      dup3\n      add\n        /* \"#utility.yul\":13846:13876   */\n      mstore\n      shl(0x6a, 0x13585e081dd85b1b195d08195e18d959591959)\n        /* \"#utility.yul\":13892:13910   */\n      0x44\n      dup3\n      add\n        /* \"#utility.yul\":13885:13934   */\n      mstore\n        /* \"#utility.yul\":13951:13969   */\n      0x64\n      add\n        /* \"contracts/gainzilla.sol\":3939:4072  require(... */\n      tag_233\n        /* \"#utility.yul\":13632:13975   */\n      jump\n        /* \"contracts/gainzilla.sol\":3939:4072  require(... */\n    tag_411:\n        /* \"contracts/gainzilla.sol\":4122:4135  taxAmount > 0 */\n      dup2\n      iszero\n        /* \"contracts/gainzilla.sol\":4118:4265  if (taxAmount > 0) {... */\n      tag_417\n      jumpi\n        /* \"contracts/gainzilla.sol\":4151:4200  super._transfer(sender, address(this), taxAmount) */\n      tag_415\n        /* \"contracts/gainzilla.sol\":4167:4173  sender */\n      dup8\n        /* \"contracts/gainzilla.sol\":4183:4187  this */\n      address\n        /* \"contracts/gainzilla.sol\":4190:4199  taxAmount */\n      dup5\n        /* \"contracts/gainzilla.sol\":4151:4166  super._transfer */\n      tag_416\n        /* \"contracts/gainzilla.sol\":4151:4200  super._transfer(sender, address(this), taxAmount) */\n      jump\t// in\n    tag_415:\n        /* \"contracts/gainzilla.sol\":4214:4254  _distributeTax(taxAmount, isBuy, isSell) */\n      tag_417\n        /* \"contracts/gainzilla.sol\":4229:4238  taxAmount */\n      dup3\n        /* \"contracts/gainzilla.sol\":4240:4245  isBuy */\n      dup6\n        /* \"contracts/gainzilla.sol\":4247:4253  isSell */\n      dup6\n        /* \"contracts/gainzilla.sol\":4214:4228  _distributeTax */\n      tag_418\n        /* \"contracts/gainzilla.sol\":4214:4254  _distributeTax(taxAmount, isBuy, isSell) */\n      jump\t// in\n    tag_417:\n        /* \"contracts/gainzilla.sol\":4303:4348  super._transfer(sender, recipient, netAmount) */\n      tag_419\n        /* \"contracts/gainzilla.sol\":4319:4325  sender */\n      dup8\n        /* \"contracts/gainzilla.sol\":4327:4336  recipient */\n      dup8\n        /* \"contracts/gainzilla.sol\":4338:4347  netAmount */\n      dup4\n        /* \"contracts/gainzilla.sol\":4303:4318  super._transfer */\n      tag_416\n        /* \"contracts/gainzilla.sol\":4303:4348  super._transfer(sender, recipient, netAmount) */\n      jump\t// in\n    tag_419:\n        /* \"contracts/gainzilla.sol\":4391:4408  _shouldSwapBack() */\n      tag_420\n        /* \"contracts/gainzilla.sol\":4391:4406  _shouldSwapBack */\n      tag_421\n        /* \"contracts/gainzilla.sol\":4391:4408  _shouldSwapBack() */\n      jump\t// in\n    tag_420:\n        /* \"contracts/gainzilla.sol\":4387:4452  if (_shouldSwapBack()) {... */\n      iszero\n      tag_423\n      jumpi\n        /* \"contracts/gainzilla.sol\":4424:4441  _swapAndLiquify() */\n      tag_423\n        /* \"contracts/gainzilla.sol\":4424:4439  _swapAndLiquify */\n      tag_424\n        /* \"contracts/gainzilla.sol\":4424:4441  _swapAndLiquify() */\n      jump\t// in\n    tag_423:\n        /* \"contracts/gainzilla.sol\":3079:4458  {... */\n      pop\n      pop\n      pop\n      pop\n        /* \"contracts/gainzilla.sol\":2953:4458  function _transfer(... */\n      pop\n      pop\n      pop\n      jump\t// out\n        /* \"@openzeppelin/contracts@4.9.3/access/Ownable.sol\":2426:2613  function _transferOwnership(address newOwner) internal virtual {... */\n    tag_258:\n        /* \"@openzeppelin/contracts@4.9.3/access/Ownable.sol\":2518:2524  _owner */\n      0x05\n      dup1\n      sload\n      sub(shl(0xa0, 0x01), 0x01)\n        /* \"@openzeppelin/contracts@4.9.3/access/Ownable.sol\":2534:2551  _owner = newOwner */\n      dup4\n      dup2\n      and\n      not(sub(shl(0xa0, 0x01), 0x01))\n      dup4\n      and\n      dup2\n      or\n      swap1\n      swap4\n      sstore\n        /* \"@openzeppelin/contracts@4.9.3/access/Ownable.sol\":2566:2606  OwnershipTransferred(oldOwner, newOwner) */\n      mload(0x40)\n        /* \"@openzeppelin/contracts@4.9.3/access/Ownable.sol\":2518:2524  _owner */\n      swap2\n      and\n      swap2\n        /* \"@openzeppelin/contracts@4.9.3/access/Ownable.sol\":2534:2551  _owner = newOwner */\n      swap1\n        /* \"@openzeppelin/contracts@4.9.3/access/Ownable.sol\":2518:2524  _owner */\n      dup3\n      swap1\n        /* \"@openzeppelin/contracts@4.9.3/access/Ownable.sol\":2566:2606  OwnershipTransferred(oldOwner, newOwner) */\n      0x8be0079c531659141344cd1fd0a4f28419497f9722a3daafe3b4186f6b6457e0\n      swap1\n        /* \"@openzeppelin/contracts@4.9.3/access/Ownable.sol\":2499:2515  address oldOwner */\n      0x00\n      swap1\n        /* \"@openzeppelin/contracts@4.9.3/access/Ownable.sol\":2566:2606  OwnershipTransferred(oldOwner, newOwner) */\n      log3\n        /* \"@openzeppelin/contracts@4.9.3/access/Ownable.sol\":2489:2613  {... */\n      pop\n        /* \"@openzeppelin/contracts@4.9.3/access/Ownable.sol\":2426:2613  function _transferOwnership(address newOwner) internal virtual {... */\n      pop\n      jump\t// out\n        /* \"@openzeppelin/contracts/utils/math/SafeMath.sol\":3122:3218  function sub(uint256 a, uint256 b) internal pure returns (uint256) {... */\n    tag_266:\n        /* \"@openzeppelin/contracts/utils/math/SafeMath.sol\":3180:3187  uint256 */\n      0x00\n        /* \"@openzeppelin/contracts/utils/math/SafeMath.sol\":3206:3211  a - b */\n      tag_240\n        /* \"@openzeppelin/contracts/utils/math/SafeMath.sol\":3210:3211  b */\n      dup3\n        /* \"@openzeppelin/contracts/utils/math/SafeMath.sol\":3206:3207  a */\n      dup5\n        /* \"@openzeppelin/contracts/utils/math/SafeMath.sol\":3206:3211  a - b */\n      tag_428\n      jump\t// in\n        /* \"@openzeppelin/contracts/utils/math/SafeMath.sol\":3465:3561  function mul(uint256 a, uint256 b) internal pure returns (uint256) {... */\n    tag_267:\n        /* \"@openzeppelin/contracts/utils/math/SafeMath.sol\":3523:3530  uint256 */\n      0x00\n        /* \"@openzeppelin/contracts/utils/math/SafeMath.sol\":3549:3554  a * b */\n      tag_240\n        /* \"@openzeppelin/contracts/utils/math/SafeMath.sol\":3553:3554  b */\n      dup3\n        /* \"@openzeppelin/contracts/utils/math/SafeMath.sol\":3549:3550  a */\n      dup5\n        /* \"@openzeppelin/contracts/utils/math/SafeMath.sol\":3549:3554  a * b */\n      tag_431\n      jump\t// in\n        /* \"@openzeppelin/contracts/utils/math/SafeMath.sol\":3850:3946  function div(uint256 a, uint256 b) internal pure returns (uint256) {... */\n    tag_268:\n        /* \"@openzeppelin/contracts/utils/math/SafeMath.sol\":3908:3915  uint256 */\n      0x00\n        /* \"@openzeppelin/contracts/utils/math/SafeMath.sol\":3934:3939  a / b */\n      tag_240\n        /* \"@openzeppelin/contracts/utils/math/SafeMath.sol\":3938:3939  b */\n      dup3\n        /* \"@openzeppelin/contracts/utils/math/SafeMath.sol\":3934:3935  a */\n      dup5\n        /* \"@openzeppelin/contracts/utils/math/SafeMath.sol\":3934:3939  a / b */\n      tag_434\n      jump\t// in\n        /* \"contracts/gainzilla.sol\":10370:10570  function _setupPair() private {... */\n    tag_340:\n        /* \"contracts/gainzilla.sol\":10459:10472  routerAddress */\n      0x12\n      0x00\n      swap1\n      sload\n      swap1\n      0x0100\n      exp\n      swap1\n      div\n      sub(shl(0xa0, 0x01), 0x01)\n      and\n      sub(shl(0xa0, 0x01), 0x01)\n        /* \"contracts/gainzilla.sol\":10442:10481  IUniswapV2Router(routerAddress).factory */\n      and\n      0xc45a0155\n        /* \"contracts/gainzilla.sol\":10442:10483  IUniswapV2Router(routerAddress).factory() */\n      mload(0x40)\n      dup2\n      0xffffffff\n      and\n      0xe0\n      shl\n      dup2\n      mstore\n      0x04\n      add\n      0x20\n      mload(0x40)\n      dup1\n      dup4\n      sub\n      dup2\n      dup7\n      gas\n      staticcall\n      iszero\n      dup1\n      iszero\n      tag_437\n      jumpi\n      returndatasize\n      0x00\n      dup1\n      returndatacopy\n      revert(0x00, returndatasize)\n    tag_437:\n      pop\n      pop\n      pop\n      pop\n      mload(0x40)\n      returndatasize\n      not(0x1f)\n      0x1f\n      dup3\n      add\n      and\n      dup3\n      add\n      dup1\n      0x40\n      mstore\n      pop\n      dup2\n      add\n      swap1\n      tag_438\n      swap2\n      swap1\n      tag_296\n      jump\t// in\n    tag_438:\n      sub(shl(0xa0, 0x01), 0x01)\n        /* \"contracts/gainzilla.sol\":10424:10508  IUniswapV2Factory(IUniswapV2Router(routerAddress).factory())... */\n      and\n      0xc9c65396\n        /* \"contracts/gainzilla.sol\":10517:10521  this */\n      address\n        /* \"contracts/gainzilla.sol\":10541:10554  routerAddress */\n      0x12\n      0x00\n      swap1\n      sload\n      swap1\n      0x0100\n      exp\n      swap1\n      div\n      sub(shl(0xa0, 0x01), 0x01)\n      and\n      sub(shl(0xa0, 0x01), 0x01)\n        /* \"contracts/gainzilla.sol\":10524:10560  IUniswapV2Router(routerAddress).WETH */\n      and\n      0xad5c4648\n        /* \"contracts/gainzilla.sol\":10524:10562  IUniswapV2Router(routerAddress).WETH() */\n      mload(0x40)\n      dup2\n      0xffffffff\n      and\n      0xe0\n      shl\n      dup2\n      mstore\n      0x04\n      add\n      0x20\n      mload(0x40)\n      dup1\n      dup4\n      sub\n      dup2\n      dup7\n      gas\n      staticcall\n      iszero\n      dup1\n      iszero\n      tag_440\n      jumpi\n      returndatasize\n      0x00\n      dup1\n      returndatacopy\n      revert(0x00, returndatasize)\n    tag_440:\n      pop\n      pop\n      pop\n      pop\n      mload(0x40)\n      returndatasize\n      not(0x1f)\n      0x1f\n      dup3\n      add\n      and\n      dup3\n      add\n      dup1\n      0x40\n      mstore\n      pop\n      dup2\n      add\n      swap1\n      tag_441\n      swap2\n      swap1\n      tag_296\n      jump\t// in\n    tag_441:\n        /* \"contracts/gainzilla.sol\":10424:10563  IUniswapV2Factory(IUniswapV2Router(routerAddress).factory())... */\n      mload(0x40)\n      not(sub(shl(0xe0, 0x01), 0x01))\n      0xe0\n      dup6\n      swap1\n      shl\n      and\n      dup2\n      mstore\n      sub(shl(0xa0, 0x01), 0x01)\n        /* \"#utility.yul\":14641:14656   */\n      swap3\n      dup4\n      and\n        /* \"contracts/gainzilla.sol\":10424:10563  IUniswapV2Factory(IUniswapV2Router(routerAddress).factory())... */\n      0x04\n      dup3\n      add\n        /* \"#utility.yul\":14623:14657   */\n      mstore\n        /* \"#utility.yul\":14693:14708   */\n      swap2\n      and\n        /* \"#utility.yul\":14673:14691   */\n      0x24\n      dup3\n      add\n        /* \"#utility.yul\":14666:14709   */\n      mstore\n        /* \"#utility.yul\":14558:14576   */\n      0x44\n      add\n        /* \"contracts/gainzilla.sol\":10424:10563  IUniswapV2Factory(IUniswapV2Router(routerAddress).factory())... */\n      0x20\n      mload(0x40)\n      dup1\n      dup4\n      sub\n      dup2\n      0x00\n      dup8\n      gas\n      call\n      iszero\n      dup1\n      iszero\n      tag_445\n      jumpi\n      returndatasize\n      0x00\n      dup1\n      returndatacopy\n      revert(0x00, returndatasize)\n    tag_445:\n      pop\n      pop\n      pop\n      pop\n      mload(0x40)\n      returndatasize\n      not(0x1f)\n      0x1f\n      dup3\n      add\n      and\n      dup3\n      add\n      dup1\n      0x40\n      mstore\n      pop\n      dup2\n      add\n      swap1\n      tag_446\n      swap2\n      swap1\n      tag_296\n      jump\t// in\n    tag_446:\n        /* \"contracts/gainzilla.sol\":10410:10421  pairAddress */\n      0x13\n        /* \"contracts/gainzilla.sol\":10410:10563  pairAddress = IUniswapV2Factory(IUniswapV2Router(routerAddress).factory())... */\n      dup1\n      sload\n      not(sub(shl(0xa0, 0x01), 0x01))\n      and\n      sub(shl(0xa0, 0x01), 0x01)\n      swap3\n      swap1\n      swap3\n      and\n      swap2\n      swap1\n      swap2\n      or\n      swap1\n      sstore\n        /* \"contracts/gainzilla.sol\":10370:10570  function _setupPair() private {... */\n      jump\t// out\n        /* \"contracts/gainzilla.sol\":6266:7086  function _checkPriceConditions() private {... */\n    tag_395:\n        /* \"contracts/gainzilla.sol\":6317:6337  uint256 currentPrice */\n      0x00\n        /* \"contracts/gainzilla.sol\":6340:6351  pairPrice() */\n      tag_448\n        /* \"contracts/gainzilla.sol\":6340:6349  pairPrice */\n      tag_137\n        /* \"contracts/gainzilla.sol\":6340:6351  pairPrice() */\n      jump\t// in\n    tag_448:\n        /* \"contracts/gainzilla.sol\":6317:6351  uint256 currentPrice = pairPrice() */\n      swap1\n      pop\n        /* \"contracts/gainzilla.sol\":6365:6377  currentPrice */\n      dup1\n        /* \"contracts/gainzilla.sol\":6381:6382  0 */\n      0x00\n        /* \"contracts/gainzilla.sol\":6365:6382  currentPrice == 0 */\n      sub\n        /* \"contracts/gainzilla.sol\":6361:6391  if (currentPrice == 0) return; */\n      tag_449\n      jumpi\n        /* \"contracts/gainzilla.sol\":6384:6391  return; */\n      pop\n        /* \"contracts/gainzilla.sol\":6266:7086  function _checkPriceConditions() private {... */\n      jump\t// out\n        /* \"contracts/gainzilla.sol\":6361:6391  if (currentPrice == 0) return; */\n    tag_449:\n        /* \"contracts/gainzilla.sol\":6420:6441  diamondFloor.athPrice */\n      sload(0x0f)\n        /* \"contracts/gainzilla.sol\":6405:6441  currentPrice > diamondFloor.athPrice */\n      dup2\n      gt\n        /* \"contracts/gainzilla.sol\":6401:6570  if (currentPrice > diamondFloor.athPrice) {... */\n      iszero\n      tag_450\n      jumpi\n        /* \"contracts/gainzilla.sol\":6457:6478  diamondFloor.athPrice */\n      0x0f\n        /* \"contracts/gainzilla.sol\":6457:6493  diamondFloor.athPrice = currentPrice */\n      sstore\n        /* \"contracts/gainzilla.sol\":6507:6531  diamondFloor.sellStopped */\n      0x10\n        /* \"contracts/gainzilla.sol\":6507:6539  diamondFloor.sellStopped = false */\n      dup1\n      sload\n      not(0xff)\n      and\n      swap1\n      sstore\n        /* \"contracts/gainzilla.sol\":6266:7086  function _checkPriceConditions() private {... */\n      jump\t// out\n        /* \"contracts/gainzilla.sol\":6401:6570  if (currentPrice > diamondFloor.athPrice) {... */\n    tag_450:\n        /* \"contracts/gainzilla.sol\":6659:6671  diamondFloor */\n      0x0e\n        /* \"contracts/gainzilla.sol\":6659:6689  diamondFloor.triggerPercentage */\n      sload\n        /* \"contracts/gainzilla.sol\":6580:6602  uint256 thresholdPrice */\n      0x00\n      swap1\n        /* \"contracts/gainzilla.sol\":6605:6720  diamondFloor.athPrice... */\n      tag_451\n      swap1\n        /* \"contracts/gainzilla.sol\":1430:1436  10_000 */\n      0x2710\n      swap1\n        /* \"contracts/gainzilla.sol\":6605:6691  diamondFloor.athPrice... */\n      tag_264\n      swap1\n        /* \"contracts/gainzilla.sol\":6644:6690  BP_DIVISOR.sub(diamondFloor.triggerPercentage) */\n      tag_453\n      swap1\n        /* \"contracts/gainzilla.sol\":1430:1436  10_000 */\n      dup4\n      swap1\n        /* \"contracts/gainzilla.sol\":6659:6689  diamondFloor.triggerPercentage */\n      0x0100\n      swap1\n      div\n      0xffff\n      and\n        /* \"contracts/gainzilla.sol\":6644:6658  BP_DIVISOR.sub */\n      tag_266\n        /* \"contracts/gainzilla.sol\":6644:6690  BP_DIVISOR.sub(diamondFloor.triggerPercentage) */\n      jump\t// in\n    tag_453:\n        /* \"contracts/gainzilla.sol\":6605:6626  diamondFloor.athPrice */\n      sload(0x0f)\n      swap1\n        /* \"contracts/gainzilla.sol\":6605:6643  diamondFloor.athPrice... */\n      tag_267\n        /* \"contracts/gainzilla.sol\":6605:6691  diamondFloor.athPrice... */\n      jump\t// in\n        /* \"contracts/gainzilla.sol\":6605:6720  diamondFloor.athPrice... */\n    tag_451:\n        /* \"contracts/gainzilla.sol\":6580:6720  uint256 thresholdPrice = diamondFloor.athPrice... */\n      swap1\n      pop\n        /* \"contracts/gainzilla.sol\":6750:6764  thresholdPrice */\n      dup1\n        /* \"contracts/gainzilla.sol\":6735:6747  currentPrice */\n      dup3\n        /* \"contracts/gainzilla.sol\":6735:6764  currentPrice < thresholdPrice */\n      lt\n        /* \"contracts/gainzilla.sol\":6731:6883  if (currentPrice < thresholdPrice) {... */\n      iszero\n      tag_454\n      jumpi\n        /* \"contracts/gainzilla.sol\":6780:6804  diamondFloor.sellStopped */\n      0x10\n        /* \"contracts/gainzilla.sol\":6780:6811  diamondFloor.sellStopped = true */\n      dup1\n      sload\n      not(0xff)\n      and\n        /* \"contracts/gainzilla.sol\":6807:6811  true */\n      0x01\n        /* \"contracts/gainzilla.sol\":6780:6811  diamondFloor.sellStopped = true */\n      or\n      swap1\n      sstore\n        /* \"contracts/gainzilla.sol\":6851:6872  diamondFloor.athPrice */\n      sload(0x0f)\n        /* \"contracts/gainzilla.sol\":6825:6848  diamondFloor.blockedAth */\n      0x11\n        /* \"contracts/gainzilla.sol\":6825:6872  diamondFloor.blockedAth = diamondFloor.athPrice */\n      sstore\n        /* \"contracts/gainzilla.sol\":6731:6883  if (currentPrice < thresholdPrice) {... */\n    tag_454:\n        /* \"contracts/gainzilla.sol\":6897:6921  diamondFloor.sellStopped */\n      and(0xff, sload(0x10))\n        /* \"contracts/gainzilla.sol\":6897:6971  diamondFloor.sellStopped && currentPrice >= diamondFloor.blockedAth.mul(2) */\n      dup1\n      iszero\n      tag_455\n      jumpi\n      pop\n        /* \"contracts/gainzilla.sol\":6941:6964  diamondFloor.blockedAth */\n      sload(0x11)\n        /* \"contracts/gainzilla.sol\":6941:6971  diamondFloor.blockedAth.mul(2) */\n      tag_456\n      swap1\n        /* \"contracts/gainzilla.sol\":6969:6970  2 */\n      0x02\n        /* \"contracts/gainzilla.sol\":6941:6968  diamondFloor.blockedAth.mul */\n      tag_267\n        /* \"contracts/gainzilla.sol\":6941:6971  diamondFloor.blockedAth.mul(2) */\n      jump\t// in\n    tag_456:\n        /* \"contracts/gainzilla.sol\":6925:6937  currentPrice */\n      dup3\n        /* \"contracts/gainzilla.sol\":6925:6971  currentPrice >= diamondFloor.blockedAth.mul(2) */\n      lt\n      iszero\n        /* \"contracts/gainzilla.sol\":6897:6971  diamondFloor.sellStopped && currentPrice >= diamondFloor.blockedAth.mul(2) */\n    tag_455:\n        /* \"contracts/gainzilla.sol\":6893:7080  if (diamondFloor.sellStopped && currentPrice >= diamondFloor.blockedAth.mul(2)) {... */\n      iszero\n      tag_457\n      jumpi\n        /* \"contracts/gainzilla.sol\":6987:7011  diamondFloor.sellStopped */\n      0x10\n        /* \"contracts/gainzilla.sol\":6987:7019  diamondFloor.sellStopped = false */\n      dup1\n      sload\n      not(0xff)\n      and\n      swap1\n      sstore\n        /* \"contracts/gainzilla.sol\":7033:7054  diamondFloor.athPrice */\n      0x0f\n        /* \"contracts/gainzilla.sol\":7033:7069  diamondFloor.athPrice = currentPrice */\n      dup3\n      swap1\n      sstore\n        /* \"contracts/gainzilla.sol\":6893:7080  if (diamondFloor.sellStopped && currentPrice >= diamondFloor.blockedAth.mul(2)) {... */\n    tag_457:\n        /* \"contracts/gainzilla.sol\":6307:7086  {... */\n      pop\n      pop\n        /* \"contracts/gainzilla.sol\":6266:7086  function _checkPriceConditions() private {... */\n      jump\t// out\n        /* \"contracts/gainzilla.sol\":4464:5230  function _calculateTax(... */\n    tag_403:\n      sub(shl(0xa0, 0x01), 0x01)\n        /* \"contracts/gainzilla.sol\":4613:4629  isExempt[sender] */\n      dup4\n      and\n        /* \"contracts/gainzilla.sol\":4590:4597  uint256 */\n      0x00\n        /* \"contracts/gainzilla.sol\":4613:4629  isExempt[sender] */\n      swap1\n      dup2\n      mstore\n        /* \"contracts/gainzilla.sol\":4613:4621  isExempt */\n      0x14\n        /* \"contracts/gainzilla.sol\":4613:4629  isExempt[sender] */\n      0x20\n      mstore\n      0x40\n      dup2\n      keccak256\n      sload\n      0xff\n      and\n      dup1\n        /* \"contracts/gainzilla.sol\":4613:4652  isExempt[sender] || isExempt[recipient] */\n      tag_459\n      jumpi\n      pop\n      sub(shl(0xa0, 0x01), 0x01)\n        /* \"contracts/gainzilla.sol\":4633:4652  isExempt[recipient] */\n      dup4\n      and\n      0x00\n      swap1\n      dup2\n      mstore\n        /* \"contracts/gainzilla.sol\":4633:4641  isExempt */\n      0x14\n        /* \"contracts/gainzilla.sol\":4633:4652  isExempt[recipient] */\n      0x20\n      mstore\n      0x40\n      swap1\n      keccak256\n      sload\n      0xff\n      and\n        /* \"contracts/gainzilla.sol\":4613:4652  isExempt[sender] || isExempt[recipient] */\n    tag_459:\n        /* \"contracts/gainzilla.sol\":4609:4662  if (isExempt[sender] || isExempt[recipient]) return 0 */\n      iszero\n      tag_460\n      jumpi\n      pop\n        /* \"contracts/gainzilla.sol\":4661:4662  0 */\n      0x00\n        /* \"contracts/gainzilla.sol\":4654:4662  return 0 */\n      jump(tag_240)\n        /* \"contracts/gainzilla.sol\":4609:4662  if (isExempt[sender] || isExempt[recipient]) return 0 */\n    tag_460:\n        /* \"contracts/gainzilla.sol\":4696:4707  pairAddress */\n      sload(0x13)\n      sub(shl(0xa0, 0x01), 0x01)\n      swap1\n      dup2\n      and\n        /* \"contracts/gainzilla.sol\":4686:4707  sender == pairAddress */\n      dup6\n      dup3\n      and\n      dup2\n      eq\n      swap2\n        /* \"contracts/gainzilla.sol\":4731:4755  recipient == pairAddress */\n      dup6\n      and\n      eq\n        /* \"contracts/gainzilla.sol\":4766:4881  if (isBuy) {... */\n      dup2\n      iszero\n      tag_461\n      jumpi\n        /* \"contracts/gainzilla.sol\":4837:4845  taxRates */\n      0x07\n        /* \"contracts/gainzilla.sol\":4837:4852  taxRates.buyEco */\n      sload\n        /* \"contracts/gainzilla.sol\":4798:4870  amount.mul(uint256(taxRates.buyLp).add(taxRates.buyEco)).div(BP_DIVISOR) */\n      tag_462\n      swap1\n        /* \"contracts/gainzilla.sol\":1430:1436  10_000 */\n      0x2710\n      swap1\n        /* \"contracts/gainzilla.sol\":4798:4854  amount.mul(uint256(taxRates.buyLp).add(taxRates.buyEco)) */\n      tag_264\n      swap1\n        /* \"contracts/gainzilla.sol\":4809:4853  uint256(taxRates.buyLp).add(taxRates.buyEco) */\n      tag_464\n      swap1\n        /* \"contracts/gainzilla.sol\":4837:4852  taxRates.buyEco */\n      0xffff\n        /* \"contracts/gainzilla.sol\":4817:4831  taxRates.buyLp */\n      dup1\n      dup3\n      and\n      swap2\n        /* \"contracts/gainzilla.sol\":4837:4852  taxRates.buyEco */\n      0x010000\n      swap1\n      div\n      and\n        /* \"contracts/gainzilla.sol\":4809:4836  uint256(taxRates.buyLp).add */\n      tag_410\n        /* \"contracts/gainzilla.sol\":4809:4853  uint256(taxRates.buyLp).add(taxRates.buyEco) */\n      jump\t// in\n    tag_464:\n        /* \"contracts/gainzilla.sol\":4798:4804  amount */\n      dup8\n      swap1\n        /* \"contracts/gainzilla.sol\":4798:4808  amount.mul */\n      tag_267\n        /* \"contracts/gainzilla.sol\":4798:4854  amount.mul(uint256(taxRates.buyLp).add(taxRates.buyEco)) */\n      jump\t// in\n        /* \"contracts/gainzilla.sol\":4798:4870  amount.mul(uint256(taxRates.buyLp).add(taxRates.buyEco)).div(BP_DIVISOR) */\n    tag_462:\n        /* \"contracts/gainzilla.sol\":4791:4870  return amount.mul(uint256(taxRates.buyLp).add(taxRates.buyEco)).div(BP_DIVISOR) */\n      swap3\n      pop\n      pop\n      pop\n      jump(tag_240)\n        /* \"contracts/gainzilla.sol\":4766:4881  if (isBuy) {... */\n    tag_461:\n        /* \"contracts/gainzilla.sol\":4895:4901  isSell */\n      dup1\n        /* \"contracts/gainzilla.sol\":4891:5009  if (isSell) {... */\n      iszero\n      tag_465\n      jumpi\n        /* \"contracts/gainzilla.sol\":4964:4972  taxRates */\n      0x07\n        /* \"contracts/gainzilla.sol\":4964:4980  taxRates.sellEco */\n      sload\n        /* \"contracts/gainzilla.sol\":4924:4998  amount.mul(uint256(taxRates.sellLp).add(taxRates.sellEco)).div(BP_DIVISOR) */\n      tag_462\n      swap1\n        /* \"contracts/gainzilla.sol\":1430:1436  10_000 */\n      0x2710\n      swap1\n        /* \"contracts/gainzilla.sol\":4924:4982  amount.mul(uint256(taxRates.sellLp).add(taxRates.sellEco)) */\n      tag_264\n      swap1\n        /* \"contracts/gainzilla.sol\":4935:4981  uint256(taxRates.sellLp).add(taxRates.sellEco) */\n      tag_464\n      swap1\n        /* \"contracts/gainzilla.sol\":4964:4980  taxRates.sellEco */\n      0xffff\n      shl(0x20, 0x01)\n        /* \"contracts/gainzilla.sol\":4943:4958  taxRates.sellLp */\n      dup3\n      div\n      dup2\n      and\n      swap2\n      shl(0x30, 0x01)\n        /* \"contracts/gainzilla.sol\":4964:4980  taxRates.sellEco */\n      swap1\n      div\n      and\n        /* \"contracts/gainzilla.sol\":4935:4963  uint256(taxRates.sellLp).add */\n      tag_410\n        /* \"contracts/gainzilla.sol\":4935:4981  uint256(taxRates.sellLp).add(taxRates.sellEco) */\n      jump\t// in\n        /* \"contracts/gainzilla.sol\":4891:5009  if (isSell) {... */\n    tag_465:\n        /* \"contracts/gainzilla.sol\":5076:5084  taxRates */\n      0x07\n        /* \"contracts/gainzilla.sol\":5076:5092  taxRates.sellEco */\n      sload\n        /* \"contracts/gainzilla.sol\":5027:5044  uint256 sellTotal */\n      0x00\n      swap1\n        /* \"contracts/gainzilla.sol\":5047:5093  uint256(taxRates.sellLp).add(taxRates.sellEco) */\n      tag_469\n      swap1\n        /* \"contracts/gainzilla.sol\":5076:5092  taxRates.sellEco */\n      0xffff\n      shl(0x20, 0x01)\n        /* \"contracts/gainzilla.sol\":5055:5070  taxRates.sellLp */\n      dup3\n      div\n      dup2\n      and\n      swap2\n      shl(0x30, 0x01)\n        /* \"contracts/gainzilla.sol\":5076:5092  taxRates.sellEco */\n      swap1\n      div\n      and\n        /* \"contracts/gainzilla.sol\":5047:5075  uint256(taxRates.sellLp).add */\n      tag_410\n        /* \"contracts/gainzilla.sol\":5047:5093  uint256(taxRates.sellLp).add(taxRates.sellEco) */\n      jump\t// in\n    tag_469:\n        /* \"contracts/gainzilla.sol\":5027:5093  uint256 sellTotal = uint256(taxRates.sellLp).add(taxRates.sellEco) */\n      swap1\n      pop\n        /* \"contracts/gainzilla.sol\":5103:5122  uint256 transferTax */\n      0x00\n        /* \"contracts/gainzilla.sol\":5125:5167  sellTotal.mul(TRANSFER_MULTIPLIER).div(10) */\n      tag_470\n        /* \"contracts/gainzilla.sol\":5164:5166  10 */\n      0x0a\n        /* \"contracts/gainzilla.sol\":5125:5159  sellTotal.mul(TRANSFER_MULTIPLIER) */\n      tag_264\n        /* \"contracts/gainzilla.sol\":5027:5093  uint256 sellTotal = uint256(taxRates.sellLp).add(taxRates.sellEco) */\n      dup5\n        /* \"contracts/gainzilla.sol\":1640:1642  35 */\n      0x23\n        /* \"contracts/gainzilla.sol\":5125:5138  sellTotal.mul */\n      tag_267\n        /* \"contracts/gainzilla.sol\":5125:5159  sellTotal.mul(TRANSFER_MULTIPLIER) */\n      jump\t// in\n        /* \"contracts/gainzilla.sol\":5125:5167  sellTotal.mul(TRANSFER_MULTIPLIER).div(10) */\n    tag_470:\n        /* \"contracts/gainzilla.sol\":5103:5167  uint256 transferTax = sellTotal.mul(TRANSFER_MULTIPLIER).div(10) */\n      swap1\n      pop\n        /* \"contracts/gainzilla.sol\":5184:5223  amount.mul(transferTax).div(BP_DIVISOR) */\n      tag_472\n        /* \"contracts/gainzilla.sol\":1430:1436  10_000 */\n      0x2710\n        /* \"contracts/gainzilla.sol\":5184:5207  amount.mul(transferTax) */\n      tag_264\n        /* \"contracts/gainzilla.sol\":5184:5190  amount */\n      dup9\n        /* \"contracts/gainzilla.sol\":5103:5167  uint256 transferTax = sellTotal.mul(TRANSFER_MULTIPLIER).div(10) */\n      dup5\n        /* \"contracts/gainzilla.sol\":5184:5194  amount.mul */\n      tag_267\n        /* \"contracts/gainzilla.sol\":5184:5207  amount.mul(transferTax) */\n      jump\t// in\n        /* \"contracts/gainzilla.sol\":5184:5223  amount.mul(transferTax).div(BP_DIVISOR) */\n    tag_472:\n        /* \"contracts/gainzilla.sol\":5177:5223  return amount.mul(transferTax).div(BP_DIVISOR) */\n      swap9\n        /* \"contracts/gainzilla.sol\":4464:5230  function _calculateTax(... */\n      swap8\n      pop\n      pop\n      pop\n      pop\n      pop\n      pop\n      pop\n      pop\n      jump\t// out\n        /* \"@openzeppelin/contracts/utils/math/SafeMath.sol\":2755:2851  function add(uint256 a, uint256 b) internal pure returns (uint256) {... */\n    tag_410:\n        /* \"@openzeppelin/contracts/utils/math/SafeMath.sol\":2813:2820  uint256 */\n      0x00\n        /* \"@openzeppelin/contracts/utils/math/SafeMath.sol\":2839:2844  a + b */\n      tag_240\n        /* \"@openzeppelin/contracts/utils/math/SafeMath.sol\":2843:2844  b */\n      dup3\n        /* \"@openzeppelin/contracts/utils/math/SafeMath.sol\":2839:2840  a */\n      dup5\n        /* \"@openzeppelin/contracts/utils/math/SafeMath.sol\":2839:2844  a + b */\n      tag_252\n      jump\t// in\n        /* \"@openzeppelin/contracts@4.9.3/token/ERC20/ERC20.sol\":7456:8244  function _transfer(address from, address to, uint256 amount) internal virtual {... */\n    tag_416:\n      sub(shl(0xa0, 0x01), 0x01)\n        /* \"@openzeppelin/contracts@4.9.3/token/ERC20/ERC20.sol\":7552:7570  from != address(0) */\n      dup4\n      and\n        /* \"@openzeppelin/contracts@4.9.3/token/ERC20/ERC20.sol\":7544:7612  require(from != address(0), \"ERC20: transfer from the zero address\") */\n      tag_477\n      jumpi\n      mload(0x40)\n      shl(0xe5, 0x461bcd)\n      dup2\n      mstore\n        /* \"#utility.yul\":14922:14924   */\n      0x20\n        /* \"@openzeppelin/contracts@4.9.3/token/ERC20/ERC20.sol\":7544:7612  require(from != address(0), \"ERC20: transfer from the zero address\") */\n      0x04\n      dup3\n      add\n        /* \"#utility.yul\":14904:14925   */\n      mstore\n        /* \"#utility.yul\":14961:14963   */\n      0x25\n        /* \"#utility.yul\":14941:14959   */\n      0x24\n      dup3\n      add\n        /* \"#utility.yul\":14934:14964   */\n      mstore\n        /* \"#utility.yul\":15000:15034   */\n      0x45524332303a207472616e736665722066726f6d20746865207a65726f206164\n        /* \"#utility.yul\":14980:14998   */\n      0x44\n      dup3\n      add\n        /* \"#utility.yul\":14973:15035   */\n      mstore\n      shl(0xd8, 0x6472657373)\n        /* \"#utility.yul\":15051:15069   */\n      0x64\n      dup3\n      add\n        /* \"#utility.yul\":15044:15079   */\n      mstore\n        /* \"#utility.yul\":15096:15115   */\n      0x84\n      add\n        /* \"@openzeppelin/contracts@4.9.3/token/ERC20/ERC20.sol\":7544:7612  require(from != address(0), \"ERC20: transfer from the zero address\") */\n      tag_233\n        /* \"#utility.yul\":14720:15121   */\n      jump\n        /* \"@openzeppelin/contracts@4.9.3/token/ERC20/ERC20.sol\":7544:7612  require(from != address(0), \"ERC20: transfer from the zero address\") */\n    tag_477:\n      sub(shl(0xa0, 0x01), 0x01)\n        /* \"@openzeppelin/contracts@4.9.3/token/ERC20/ERC20.sol\":7630:7646  to != address(0) */\n      dup3\n      and\n        /* \"@openzeppelin/contracts@4.9.3/token/ERC20/ERC20.sol\":7622:7686  require(to != address(0), \"ERC20: transfer to the zero address\") */\n      tag_480\n      jumpi\n      mload(0x40)\n      shl(0xe5, 0x461bcd)\n      dup2\n      mstore\n        /* \"#utility.yul\":15328:15330   */\n      0x20\n        /* \"@openzeppelin/contracts@4.9.3/token/ERC20/ERC20.sol\":7622:7686  require(to != address(0), \"ERC20: transfer to the zero address\") */\n      0x04\n      dup3\n      add\n        /* \"#utility.yul\":15310:15331   */\n      mstore\n        /* \"#utility.yul\":15367:15369   */\n      0x23\n        /* \"#utility.yul\":15347:15365   */\n      0x24\n      dup3\n      add\n        /* \"#utility.yul\":15340:15370   */\n      mstore\n        /* \"#utility.yul\":15406:15440   */\n      0x45524332303a207472616e7366657220746f20746865207a65726f2061646472\n        /* \"#utility.yul\":15386:15404   */\n      0x44\n      dup3\n      add\n        /* \"#utility.yul\":15379:15441   */\n      mstore\n      shl(0xe8, 0x657373)\n        /* \"#utility.yul\":15457:15475   */\n      0x64\n      dup3\n      add\n        /* \"#utility.yul\":15450:15483   */\n      mstore\n        /* \"#utility.yul\":15500:15519   */\n      0x84\n      add\n        /* \"@openzeppelin/contracts@4.9.3/token/ERC20/ERC20.sol\":7622:7686  require(to != address(0), \"ERC20: transfer to the zero address\") */\n      tag_233\n        /* \"#utility.yul\":15126:15525   */\n      jump\n        /* \"@openzeppelin/contracts@4.9.3/token/ERC20/ERC20.sol\":7622:7686  require(to != address(0), \"ERC20: transfer to the zero address\") */\n    tag_480:\n      sub(shl(0xa0, 0x01), 0x01)\n        /* \"@openzeppelin/contracts@4.9.3/token/ERC20/ERC20.sol\":7768:7783  _balances[from] */\n      dup4\n      and\n        /* \"@openzeppelin/contracts@4.9.3/token/ERC20/ERC20.sol\":7746:7765  uint256 fromBalance */\n      0x00\n        /* \"@openzeppelin/contracts@4.9.3/token/ERC20/ERC20.sol\":7768:7783  _balances[from] */\n      swap1\n      dup2\n      mstore\n      0x20\n      dup2\n      swap1\n      mstore\n      0x40\n      swap1\n      keccak256\n      sload\n        /* \"@openzeppelin/contracts@4.9.3/token/ERC20/ERC20.sol\":7801:7822  fromBalance >= amount */\n      dup2\n      dup2\n      lt\n      iszero\n        /* \"@openzeppelin/contracts@4.9.3/token/ERC20/ERC20.sol\":7793:7865  require(fromBalance >= amount, \"ERC20: transfer amount exceeds balance\") */\n      tag_485\n      jumpi\n      mload(0x40)\n      shl(0xe5, 0x461bcd)\n      dup2\n      mstore\n        /* \"#utility.yul\":15732:15734   */\n      0x20\n        /* \"@openzeppelin/contracts@4.9.3/token/ERC20/ERC20.sol\":7793:7865  require(fromBalance >= amount, \"ERC20: transfer amount exceeds balance\") */\n      0x04\n      dup3\n      add\n        /* \"#utility.yul\":15714:15735   */\n      mstore\n        /* \"#utility.yul\":15771:15773   */\n      0x26\n        /* \"#utility.yul\":15751:15769   */\n      0x24\n      dup3\n      add\n        /* \"#utility.yul\":15744:15774   */\n      mstore\n        /* \"#utility.yul\":15810:15844   */\n      0x45524332303a207472616e7366657220616d6f756e7420657863656564732062\n        /* \"#utility.yul\":15790:15808   */\n      0x44\n      dup3\n      add\n        /* \"#utility.yul\":15783:15845   */\n      mstore\n      shl(0xd0, 0x616c616e6365)\n        /* \"#utility.yul\":15861:15879   */\n      0x64\n      dup3\n      add\n        /* \"#utility.yul\":15854:15890   */\n      mstore\n        /* \"#utility.yul\":15907:15926   */\n      0x84\n      add\n        /* \"@openzeppelin/contracts@4.9.3/token/ERC20/ERC20.sol\":7793:7865  require(fromBalance >= amount, \"ERC20: transfer amount exceeds balance\") */\n      tag_233\n        /* \"#utility.yul\":15530:15932   */\n      jump\n        /* \"@openzeppelin/contracts@4.9.3/token/ERC20/ERC20.sol\":7793:7865  require(fromBalance >= amount, \"ERC20: transfer amount exceeds balance\") */\n    tag_485:\n      sub(shl(0xa0, 0x01), 0x01)\n        /* \"@openzeppelin/contracts@4.9.3/token/ERC20/ERC20.sol\":7899:7914  _balances[from] */\n      dup5\n      dup2\n      and\n        /* \"@openzeppelin/contracts@4.9.3/token/ERC20/ERC20.sol\":7899:7908  _balances */\n      0x00\n        /* \"@openzeppelin/contracts@4.9.3/token/ERC20/ERC20.sol\":7899:7914  _balances[from] */\n      dup2\n      dup2\n      mstore\n      0x20\n      dup2\n      dup2\n      mstore\n      0x40\n      dup1\n      dup4\n      keccak256\n        /* \"@openzeppelin/contracts@4.9.3/token/ERC20/ERC20.sol\":7917:7937  fromBalance - amount */\n      dup8\n      dup8\n      sub\n        /* \"@openzeppelin/contracts@4.9.3/token/ERC20/ERC20.sol\":7899:7937  _balances[from] = fromBalance - amount */\n      swap1\n      sstore\n        /* \"@openzeppelin/contracts@4.9.3/token/ERC20/ERC20.sol\":8114:8127  _balances[to] */\n      swap4\n      dup8\n      and\n      dup1\n      dup4\n      mstore\n      swap2\n      dup5\n      swap1\n      keccak256\n        /* \"@openzeppelin/contracts@4.9.3/token/ERC20/ERC20.sol\":8114:8137  _balances[to] += amount */\n      dup1\n      sload\n      dup8\n      add\n      swap1\n      sstore\n        /* \"@openzeppelin/contracts@4.9.3/token/ERC20/ERC20.sol\":8163:8189  Transfer(from, to, amount) */\n      swap3\n      mload\n        /* \"#utility.yul\":160:185   */\n      dup6\n      dup2\n      mstore\n        /* \"@openzeppelin/contracts@4.9.3/token/ERC20/ERC20.sol\":8114:8127  _balances[to] */\n      swap1\n      swap3\n        /* \"@openzeppelin/contracts@4.9.3/token/ERC20/ERC20.sol\":8163:8189  Transfer(from, to, amount) */\n      0xddf252ad1be2c89b69c2b068fc378daa952ba7f163c4a11628f55a4df523b3ef\n      swap2\n        /* \"#utility.yul\":133:151   */\n      add\n        /* \"@openzeppelin/contracts@4.9.3/token/ERC20/ERC20.sol\":8163:8189  Transfer(from, to, amount) */\n      mload(0x40)\n      dup1\n      swap2\n      sub\n      swap1\n      log3\n        /* \"@openzeppelin/contracts@4.9.3/token/ERC20/ERC20.sol\":8200:8237  _afterTokenTransfer(from, to, amount) */\n      tag_382\n        /* \"@openzeppelin/contracts@4.9.3/token/ERC20/ERC20.sol\":12073:12164  function _beforeTokenTransfer(address from, address to, uint256 amount) internal virtual {} */\n      jump\n        /* \"contracts/gainzilla.sol\":5236:6260  function _distributeTax(uint256 taxAmount, bool isBuy, bool isSell) private {... */\n    tag_418:\n        /* \"contracts/gainzilla.sol\":5322:5337  uint256 lpShare */\n      0x00\n        /* \"contracts/gainzilla.sol\":5347:5363  uint256 ecoShare */\n      dup1\n        /* \"contracts/gainzilla.sol\":5378:5383  isBuy */\n      dup4\n        /* \"contracts/gainzilla.sol\":5374:6054  if (isBuy) {... */\n      iszero\n      tag_492\n      jumpi\n        /* \"contracts/gainzilla.sol\":5443:5451  taxRates */\n      0x07\n        /* \"contracts/gainzilla.sol\":5443:5458  taxRates.buyEco */\n      sload\n        /* \"contracts/gainzilla.sol\":5399:5412  uint256 total */\n      0x00\n      swap1\n        /* \"contracts/gainzilla.sol\":5415:5459  uint256(taxRates.buyLp).add(taxRates.buyEco) */\n      tag_493\n      swap1\n        /* \"contracts/gainzilla.sol\":5443:5458  taxRates.buyEco */\n      0xffff\n        /* \"contracts/gainzilla.sol\":5423:5437  taxRates.buyLp */\n      dup1\n      dup3\n      and\n      swap2\n        /* \"contracts/gainzilla.sol\":5443:5458  taxRates.buyEco */\n      0x010000\n      swap1\n      div\n      and\n        /* \"contracts/gainzilla.sol\":5415:5442  uint256(taxRates.buyLp).add */\n      tag_410\n        /* \"contracts/gainzilla.sol\":5415:5459  uint256(taxRates.buyLp).add(taxRates.buyEco) */\n      jump\t// in\n    tag_493:\n        /* \"contracts/gainzilla.sol\":5399:5459  uint256 total = uint256(taxRates.buyLp).add(taxRates.buyEco) */\n      swap1\n      pop\n        /* \"contracts/gainzilla.sol\":5489:5490  0 */\n      0x00\n        /* \"contracts/gainzilla.sol\":5481:5486  total */\n      dup2\n        /* \"contracts/gainzilla.sol\":5481:5490  total > 0 */\n      gt\n        /* \"contracts/gainzilla.sol\":5473:5510  require(total > 0, \"Buy tax not set\") */\n      tag_494\n      jumpi\n      mload(0x40)\n      shl(0xe5, 0x461bcd)\n      dup2\n      mstore\n        /* \"#utility.yul\":16139:16141   */\n      0x20\n        /* \"contracts/gainzilla.sol\":5473:5510  require(total > 0, \"Buy tax not set\") */\n      0x04\n      dup3\n      add\n        /* \"#utility.yul\":16121:16142   */\n      mstore\n        /* \"#utility.yul\":16178:16180   */\n      0x0f\n        /* \"#utility.yul\":16158:16176   */\n      0x24\n      dup3\n      add\n        /* \"#utility.yul\":16151:16181   */\n      mstore\n      shl(0x8a, 0x109d5e481d185e081b9bdd081cd95d)\n        /* \"#utility.yul\":16197:16215   */\n      0x44\n      dup3\n      add\n        /* \"#utility.yul\":16190:16235   */\n      mstore\n        /* \"#utility.yul\":16252:16270   */\n      0x64\n      add\n        /* \"contracts/gainzilla.sol\":5473:5510  require(total > 0, \"Buy tax not set\") */\n      tag_233\n        /* \"#utility.yul\":15937:16276   */\n      jump\n        /* \"contracts/gainzilla.sol\":5473:5510  require(total > 0, \"Buy tax not set\") */\n    tag_494:\n        /* \"contracts/gainzilla.sol\":5548:5556  taxRates */\n      0x07\n        /* \"contracts/gainzilla.sol\":5548:5562  taxRates.buyLp */\n      sload\n        /* \"contracts/gainzilla.sol\":5534:5574  taxAmount.mul(taxRates.buyLp).div(total) */\n      tag_497\n      swap1\n        /* \"contracts/gainzilla.sol\":5568:5573  total */\n      dup3\n      swap1\n        /* \"contracts/gainzilla.sol\":5534:5563  taxAmount.mul(taxRates.buyLp) */\n      tag_264\n      swap1\n        /* \"contracts/gainzilla.sol\":5534:5543  taxAmount */\n      dup10\n      swap1\n        /* \"contracts/gainzilla.sol\":5548:5562  taxRates.buyLp */\n      0xffff\n      and\n        /* \"contracts/gainzilla.sol\":5534:5547  taxAmount.mul */\n      tag_267\n        /* \"contracts/gainzilla.sol\":5534:5563  taxAmount.mul(taxRates.buyLp) */\n      jump\t// in\n        /* \"contracts/gainzilla.sol\":5534:5574  taxAmount.mul(taxRates.buyLp).div(total) */\n    tag_497:\n        /* \"contracts/gainzilla.sol\":5524:5574  lpShare = taxAmount.mul(taxRates.buyLp).div(total) */\n      swap3\n      pop\n        /* \"contracts/gainzilla.sol\":5385:5585  {... */\n      pop\n        /* \"contracts/gainzilla.sol\":5374:6054  if (isBuy) {... */\n      jump(tag_507)\n    tag_492:\n        /* \"contracts/gainzilla.sol\":5595:5601  isSell */\n      dup3\n        /* \"contracts/gainzilla.sol\":5591:6054  if (isSell) {... */\n      iszero\n      tag_500\n      jumpi\n        /* \"contracts/gainzilla.sol\":5662:5670  taxRates */\n      0x07\n        /* \"contracts/gainzilla.sol\":5662:5678  taxRates.sellEco */\n      sload\n        /* \"contracts/gainzilla.sol\":5617:5630  uint256 total */\n      0x00\n      swap1\n        /* \"contracts/gainzilla.sol\":5633:5679  uint256(taxRates.sellLp).add(taxRates.sellEco) */\n      tag_501\n      swap1\n        /* \"contracts/gainzilla.sol\":5662:5678  taxRates.sellEco */\n      0xffff\n      shl(0x20, 0x01)\n        /* \"contracts/gainzilla.sol\":5641:5656  taxRates.sellLp */\n      dup3\n      div\n      dup2\n      and\n      swap2\n      shl(0x30, 0x01)\n        /* \"contracts/gainzilla.sol\":5662:5678  taxRates.sellEco */\n      swap1\n      div\n      and\n        /* \"contracts/gainzilla.sol\":5633:5661  uint256(taxRates.sellLp).add */\n      tag_410\n        /* \"contracts/gainzilla.sol\":5633:5679  uint256(taxRates.sellLp).add(taxRates.sellEco) */\n      jump\t// in\n    tag_501:\n        /* \"contracts/gainzilla.sol\":5617:5679  uint256 total = uint256(taxRates.sellLp).add(taxRates.sellEco) */\n      swap1\n      pop\n        /* \"contracts/gainzilla.sol\":5709:5710  0 */\n      0x00\n        /* \"contracts/gainzilla.sol\":5701:5706  total */\n      dup2\n        /* \"contracts/gainzilla.sol\":5701:5710  total > 0 */\n      gt\n        /* \"contracts/gainzilla.sol\":5693:5731  require(total > 0, \"Sell tax not set\") */\n      tag_502\n      jumpi\n      mload(0x40)\n      shl(0xe5, 0x461bcd)\n      dup2\n      mstore\n        /* \"#utility.yul\":16483:16485   */\n      0x20\n        /* \"contracts/gainzilla.sol\":5693:5731  require(total > 0, \"Sell tax not set\") */\n      0x04\n      dup3\n      add\n        /* \"#utility.yul\":16465:16486   */\n      mstore\n        /* \"#utility.yul\":16522:16524   */\n      0x10\n        /* \"#utility.yul\":16502:16520   */\n      0x24\n      dup3\n      add\n        /* \"#utility.yul\":16495:16525   */\n      mstore\n      shl(0x82, 0x14d95b1b081d185e081b9bdd081cd95d)\n        /* \"#utility.yul\":16541:16559   */\n      0x44\n      dup3\n      add\n        /* \"#utility.yul\":16534:16580   */\n      mstore\n        /* \"#utility.yul\":16597:16615   */\n      0x64\n      add\n        /* \"contracts/gainzilla.sol\":5693:5731  require(total > 0, \"Sell tax not set\") */\n      tag_233\n        /* \"#utility.yul\":16281:16621   */\n      jump\n        /* \"contracts/gainzilla.sol\":5693:5731  require(total > 0, \"Sell tax not set\") */\n    tag_502:\n        /* \"contracts/gainzilla.sol\":5769:5777  taxRates */\n      0x07\n        /* \"contracts/gainzilla.sol\":5769:5784  taxRates.sellLp */\n      sload\n        /* \"contracts/gainzilla.sol\":5755:5796  taxAmount.mul(taxRates.sellLp).div(total) */\n      tag_497\n      swap1\n        /* \"contracts/gainzilla.sol\":5790:5795  total */\n      dup3\n      swap1\n        /* \"contracts/gainzilla.sol\":5755:5785  taxAmount.mul(taxRates.sellLp) */\n      tag_264\n      swap1\n        /* \"contracts/gainzilla.sol\":5755:5764  taxAmount */\n      dup10\n      swap1\n      shl(0x20, 0x01)\n        /* \"contracts/gainzilla.sol\":5769:5784  taxRates.sellLp */\n      swap1\n      div\n      0xffff\n      and\n        /* \"contracts/gainzilla.sol\":5755:5768  taxAmount.mul */\n      tag_267\n        /* \"contracts/gainzilla.sol\":5755:5785  taxAmount.mul(taxRates.sellLp) */\n      jump\t// in\n        /* \"contracts/gainzilla.sol\":5591:6054  if (isSell) {... */\n    tag_500:\n        /* \"contracts/gainzilla.sol\":5872:5880  taxRates */\n      0x07\n        /* \"contracts/gainzilla.sol\":5872:5888  taxRates.sellEco */\n      sload\n        /* \"contracts/gainzilla.sol\":5827:5840  uint256 total */\n      0x00\n      swap1\n        /* \"contracts/gainzilla.sol\":5843:5889  uint256(taxRates.sellLp).add(taxRates.sellEco) */\n      tag_508\n      swap1\n        /* \"contracts/gainzilla.sol\":5872:5888  taxRates.sellEco */\n      0xffff\n      shl(0x20, 0x01)\n        /* \"contracts/gainzilla.sol\":5851:5866  taxRates.sellLp */\n      dup3\n      div\n      dup2\n      and\n      swap2\n      shl(0x30, 0x01)\n        /* \"contracts/gainzilla.sol\":5872:5888  taxRates.sellEco */\n      swap1\n      div\n      and\n        /* \"contracts/gainzilla.sol\":5843:5871  uint256(taxRates.sellLp).add */\n      tag_410\n        /* \"contracts/gainzilla.sol\":5843:5889  uint256(taxRates.sellLp).add(taxRates.sellEco) */\n      jump\t// in\n    tag_508:\n        /* \"contracts/gainzilla.sol\":5827:5889  uint256 total = uint256(taxRates.sellLp).add(taxRates.sellEco) */\n      swap1\n      pop\n        /* \"contracts/gainzilla.sol\":5919:5920  0 */\n      0x00\n        /* \"contracts/gainzilla.sol\":5911:5916  total */\n      dup2\n        /* \"contracts/gainzilla.sol\":5911:5920  total > 0 */\n      gt\n        /* \"contracts/gainzilla.sol\":5903:5945  require(total > 0, \"Transfer tax not set\") */\n      tag_509\n      jumpi\n      mload(0x40)\n      shl(0xe5, 0x461bcd)\n      dup2\n      mstore\n        /* \"#utility.yul\":16828:16830   */\n      0x20\n        /* \"contracts/gainzilla.sol\":5903:5945  require(total > 0, \"Transfer tax not set\") */\n      0x04\n      dup3\n      add\n        /* \"#utility.yul\":16810:16831   */\n      mstore\n        /* \"#utility.yul\":16867:16869   */\n      0x14\n        /* \"#utility.yul\":16847:16865   */\n      0x24\n      dup3\n      add\n        /* \"#utility.yul\":16840:16870   */\n      mstore\n      shl(0x62, 0x151c985b9cd9995c881d185e081b9bdd081cd95d)\n        /* \"#utility.yul\":16886:16904   */\n      0x44\n      dup3\n      add\n        /* \"#utility.yul\":16879:16929   */\n      mstore\n        /* \"#utility.yul\":16946:16964   */\n      0x64\n      add\n        /* \"contracts/gainzilla.sol\":5903:5945  require(total > 0, \"Transfer tax not set\") */\n      tag_233\n        /* \"#utility.yul\":16626:16970   */\n      jump\n        /* \"contracts/gainzilla.sol\":5903:5945  require(total > 0, \"Transfer tax not set\") */\n    tag_509:\n        /* \"contracts/gainzilla.sol\":5983:5991  taxRates */\n      0x07\n        /* \"contracts/gainzilla.sol\":5983:5998  taxRates.sellLp */\n      sload\n        /* \"contracts/gainzilla.sol\":5969:6043  taxAmount.mul(taxRates.sellLp).div(total).mul(TRANSFER_MULTIPLIER).div(10) */\n      tag_512\n      swap1\n        /* \"contracts/gainzilla.sol\":6040:6042  10 */\n      0x0a\n      swap1\n        /* \"contracts/gainzilla.sol\":5969:6035  taxAmount.mul(taxRates.sellLp).div(total).mul(TRANSFER_MULTIPLIER) */\n      tag_264\n      swap1\n        /* \"contracts/gainzilla.sol\":1640:1642  35 */\n      0x23\n      swap1\n        /* \"contracts/gainzilla.sol\":5969:6010  taxAmount.mul(taxRates.sellLp).div(total) */\n      tag_265\n      swap1\n        /* \"contracts/gainzilla.sol\":6004:6009  total */\n      dup7\n      swap1\n        /* \"contracts/gainzilla.sol\":5969:6035  taxAmount.mul(taxRates.sellLp).div(total).mul(TRANSFER_MULTIPLIER) */\n      dup5\n      swap1\n        /* \"contracts/gainzilla.sol\":5969:5978  taxAmount */\n      dup14\n      swap1\n      shl(0x20, 0x01)\n        /* \"contracts/gainzilla.sol\":5983:5998  taxRates.sellLp */\n      swap1\n      div\n      0xffff\n      and\n        /* \"contracts/gainzilla.sol\":5969:5982  taxAmount.mul */\n      tag_267\n        /* \"contracts/gainzilla.sol\":5969:5999  taxAmount.mul(taxRates.sellLp) */\n      jump\t// in\n        /* \"contracts/gainzilla.sol\":5969:6043  taxAmount.mul(taxRates.sellLp).div(total).mul(TRANSFER_MULTIPLIER).div(10) */\n    tag_512:\n        /* \"contracts/gainzilla.sol\":5959:6043  lpShare = taxAmount.mul(taxRates.sellLp).div(total).mul(TRANSFER_MULTIPLIER).div(10) */\n      swap3\n      pop\n        /* \"contracts/gainzilla.sol\":5813:6054  {... */\n      pop\n        /* \"contracts/gainzilla.sol\":5591:6054  if (isSell) {... */\n    tag_507:\n        /* \"contracts/gainzilla.sol\":6075:6097  taxAmount.sub(lpShare) */\n      tag_516\n        /* \"contracts/gainzilla.sol\":6075:6084  taxAmount */\n      dup6\n        /* \"contracts/gainzilla.sol\":6089:6096  lpShare */\n      dup4\n        /* \"contracts/gainzilla.sol\":6075:6088  taxAmount.sub */\n      tag_266\n        /* \"contracts/gainzilla.sol\":6075:6097  taxAmount.sub(lpShare) */\n      jump\t// in\n    tag_516:\n        /* \"contracts/gainzilla.sol\":6123:6136  accumulatedLp */\n      sload(0x09)\n        /* \"contracts/gainzilla.sol\":6064:6097  ecoShare = taxAmount.sub(lpShare) */\n      swap1\n      swap2\n      pop\n        /* \"contracts/gainzilla.sol\":6123:6149  accumulatedLp.add(lpShare) */\n      tag_517\n      swap1\n        /* \"contracts/gainzilla.sol\":6141:6148  lpShare */\n      dup4\n        /* \"contracts/gainzilla.sol\":6123:6140  accumulatedLp.add */\n      tag_410\n        /* \"contracts/gainzilla.sol\":6123:6149  accumulatedLp.add(lpShare) */\n      jump\t// in\n    tag_517:\n        /* \"contracts/gainzilla.sol\":6107:6120  accumulatedLp */\n      0x09\n        /* \"contracts/gainzilla.sol\":6107:6149  accumulatedLp = accumulatedLp.add(lpShare) */\n      sstore\n        /* \"contracts/gainzilla.sol\":6176:6190  accumulatedEco */\n      sload(0x0a)\n        /* \"contracts/gainzilla.sol\":6176:6204  accumulatedEco.add(ecoShare) */\n      tag_518\n      swap1\n        /* \"contracts/gainzilla.sol\":6195:6203  ecoShare */\n      dup3\n        /* \"contracts/gainzilla.sol\":6176:6194  accumulatedEco.add */\n      tag_410\n        /* \"contracts/gainzilla.sol\":6176:6204  accumulatedEco.add(ecoShare) */\n      jump\t// in\n    tag_518:\n        /* \"contracts/gainzilla.sol\":6159:6173  accumulatedEco */\n      0x0a\n        /* \"contracts/gainzilla.sol\":6159:6204  accumulatedEco = accumulatedEco.add(ecoShare) */\n      sstore\n        /* \"contracts/gainzilla.sol\":6220:6253  TaxesCollected(lpShare, ecoShare) */\n      0x40\n      dup1\n      mload\n        /* \"#utility.yul\":17149:17174   */\n      dup4\n      dup2\n      mstore\n        /* \"#utility.yul\":17205:17207   */\n      0x20\n        /* \"#utility.yul\":17190:17208   */\n      dup2\n      add\n        /* \"#utility.yul\":17183:17217   */\n      dup4\n      swap1\n      mstore\n        /* \"contracts/gainzilla.sol\":6220:6253  TaxesCollected(lpShare, ecoShare) */\n      0xf2d9f3f00fc700757eb74f9aa3dba0e2eb1280e0c6e0cf65962cc055528d7a90\n      swap2\n        /* \"#utility.yul\":17122:17140   */\n      add\n        /* \"contracts/gainzilla.sol\":6220:6253  TaxesCollected(lpShare, ecoShare) */\n      mload(0x40)\n      dup1\n      swap2\n      sub\n      swap1\n      log1\n        /* \"contracts/gainzilla.sol\":5312:6260  {... */\n      pop\n      pop\n        /* \"contracts/gainzilla.sol\":5236:6260  function _distributeTax(uint256 taxAmount, bool isBuy, bool isSell) private {... */\n      pop\n      pop\n      pop\n      jump\t// out\n        /* \"contracts/gainzilla.sol\":11574:11769  function _shouldSwapBack() private view returns (bool) {... */\n    tag_421:\n        /* \"contracts/gainzilla.sol\":11647:11655  swapping */\n      sload(0x0b)\n        /* \"contracts/gainzilla.sol\":11623:11627  bool */\n      0x00\n      swap1\n        /* \"contracts/gainzilla.sol\":11647:11655  swapping */\n      0xff\n      and\n        /* \"contracts/gainzilla.sol\":11646:11655  !swapping */\n      iszero\n        /* \"contracts/gainzilla.sol\":11646:11721  !swapping &&... */\n      dup1\n      iszero\n      tag_522\n      jumpi\n      pop\n        /* \"contracts/gainzilla.sol\":11708:11721  swapThreshold */\n      sload(0x08)\n        /* \"contracts/gainzilla.sol\":11689:11703  accumulatedEco */\n      sload(0x0a)\n        /* \"contracts/gainzilla.sol\":11671:11684  accumulatedLp */\n      sload(0x09)\n        /* \"contracts/gainzilla.sol\":11671:11704  accumulatedLp.add(accumulatedEco) */\n      tag_523\n      swap2\n        /* \"contracts/gainzilla.sol\":11671:11688  accumulatedLp.add */\n      tag_410\n        /* \"contracts/gainzilla.sol\":11671:11704  accumulatedLp.add(accumulatedEco) */\n      jump\t// in\n    tag_523:\n        /* \"contracts/gainzilla.sol\":11671:11721  accumulatedLp.add(accumulatedEco) >= swapThreshold */\n      lt\n      iszero\n        /* \"contracts/gainzilla.sol\":11646:11721  !swapping &&... */\n    tag_522:\n        /* \"contracts/gainzilla.sol\":11646:11762  !swapping &&... */\n      dup1\n      iszero\n      tag_284\n      jumpi\n      pop\n      pop\n        /* \"contracts/gainzilla.sol\":11751:11762  pairAddress */\n      and(sub(shl(0xa0, 0x01), 0x01), sload(0x13))\n        /* \"contracts/gainzilla.sol\":11737:11747  msg.sender */\n      caller\n        /* \"contracts/gainzilla.sol\":11737:11762  msg.sender != pairAddress */\n      eq\n      iszero\n      swap1\n        /* \"contracts/gainzilla.sol\":11574:11769  function _shouldSwapBack() private view returns (bool) {... */\n      jump\t// out\n        /* \"contracts/gainzilla.sol\":7092:7860  function _swapAndLiquify() private {... */\n    tag_424:\n        /* \"contracts/gainzilla.sol\":7137:7156  uint256 totalTokens */\n      0x00\n        /* \"contracts/gainzilla.sol\":7159:7192  accumulatedLp.add(accumulatedEco) */\n      tag_526\n        /* \"contracts/gainzilla.sol\":7177:7191  accumulatedEco */\n      sload(0x0a)\n        /* \"contracts/gainzilla.sol\":7159:7172  accumulatedLp */\n      sload(0x09)\n        /* \"contracts/gainzilla.sol\":7159:7176  accumulatedLp.add */\n      tag_410\n      swap1\n        /* \"contracts/gainzilla.sol\":7159:7192  accumulatedLp.add(accumulatedEco) */\n      swap2\n      swap1\n      0xffffffff\n      and\n      jump\t// in\n    tag_526:\n        /* \"contracts/gainzilla.sol\":7137:7192  uint256 totalTokens = accumulatedLp.add(accumulatedEco) */\n      swap1\n      pop\n        /* \"contracts/gainzilla.sol\":7220:7233  swapThreshold */\n      sload(0x08)\n        /* \"contracts/gainzilla.sol\":7206:7217  totalTokens */\n      dup2\n        /* \"contracts/gainzilla.sol\":7206:7233  totalTokens < swapThreshold */\n      lt\n        /* \"contracts/gainzilla.sol\":7202:7242  if (totalTokens < swapThreshold) return; */\n      iszero\n      tag_527\n      jumpi\n        /* \"contracts/gainzilla.sol\":7235:7242  return; */\n      pop\n        /* \"contracts/gainzilla.sol\":7092:7860  function _swapAndLiquify() private {... */\n      jump\t// out\n        /* \"contracts/gainzilla.sol\":7202:7242  if (totalTokens < swapThreshold) return; */\n    tag_527:\n        /* \"contracts/gainzilla.sol\":7252:7260  swapping */\n      0x0b\n        /* \"contracts/gainzilla.sol\":7252:7267  swapping = true */\n      dup1\n      sload\n      not(0xff)\n      and\n        /* \"contracts/gainzilla.sol\":7263:7267  true */\n      0x01\n        /* \"contracts/gainzilla.sol\":7252:7267  swapping = true */\n      or\n      swap1\n      sstore\n        /* \"contracts/gainzilla.sol\":7385:7399  accumulatedEco */\n      sload(0x0a)\n        /* \"contracts/gainzilla.sol\":7302:7323  address(this).balance */\n      selfbalance\n      swap1\n        /* \"contracts/gainzilla.sol\":7367:7400  _swapTokensForETH(accumulatedEco) */\n      tag_528\n      swap1\n        /* \"contracts/gainzilla.sol\":7367:7384  _swapTokensForETH */\n      tag_529\n        /* \"contracts/gainzilla.sol\":7367:7400  _swapTokensForETH(accumulatedEco) */\n      jump\t// in\n    tag_528:\n        /* \"contracts/gainzilla.sol\":7410:7424  uint256 ecoETH */\n      0x00\n        /* \"contracts/gainzilla.sol\":7427:7468  address(this).balance.sub(initialBalance) */\n      tag_530\n        /* \"contracts/gainzilla.sol\":7427:7448  address(this).balance */\n      selfbalance\n        /* \"contracts/gainzilla.sol\":7453:7467  initialBalance */\n      dup4\n        /* \"contracts/gainzilla.sol\":7427:7452  address(this).balance.sub */\n      tag_266\n        /* \"contracts/gainzilla.sol\":7427:7468  address(this).balance.sub(initialBalance) */\n      jump\t// in\n    tag_530:\n        /* \"contracts/gainzilla.sol\":7410:7468  uint256 ecoETH = address(this).balance.sub(initialBalance) */\n      swap1\n      pop\n        /* \"contracts/gainzilla.sol\":7486:7493  owner() */\n      tag_531\n        /* \"@openzeppelin/contracts@4.9.3/access/Ownable.sol\":1273:1279  _owner */\n      and(sub(shl(0xa0, 0x01), 0x01), sload(0x05))\n      swap1\n        /* \"@openzeppelin/contracts@4.9.3/access/Ownable.sol\":1201:1286  function owner() public view virtual returns (address) {... */\n      jump\n        /* \"contracts/gainzilla.sol\":7486:7493  owner() */\n    tag_531:\n      sub(shl(0xa0, 0x01), 0x01)\n        /* \"contracts/gainzilla.sol\":7478:7503  payable(owner()).transfer */\n      and\n        /* \"contracts/gainzilla.sol\":7478:7511  payable(owner()).transfer(ecoETH) */\n      0x08fc\n        /* \"contracts/gainzilla.sol\":7504:7510  ecoETH */\n      dup3\n        /* \"contracts/gainzilla.sol\":7478:7511  payable(owner()).transfer(ecoETH) */\n      swap1\n      dup2\n      iszero\n      mul\n      swap1\n      mload(0x40)\n      0x00\n      mload(0x40)\n      dup1\n      dup4\n      sub\n      dup2\n      dup6\n      dup9\n      dup9\n      call\n      swap4\n      pop\n      pop\n      pop\n      pop\n      iszero\n      dup1\n      iszero\n      tag_533\n      jumpi\n      returndatasize\n      0x00\n      dup1\n      returndatacopy\n      revert(0x00, returndatasize)\n    tag_533:\n      pop\n        /* \"contracts/gainzilla.sol\":7567:7580  accumulatedLp */\n      sload(0x09)\n        /* \"contracts/gainzilla.sol\":7548:7564  uint256 lpTokens */\n      0x00\n        /* \"contracts/gainzilla.sol\":7605:7620  lpTokens.div(2) */\n      tag_534\n        /* \"contracts/gainzilla.sol\":7567:7580  accumulatedLp */\n      dup3\n        /* \"contracts/gainzilla.sol\":7618:7619  2 */\n      0x02\n        /* \"contracts/gainzilla.sol\":7605:7617  lpTokens.div */\n      tag_268\n        /* \"contracts/gainzilla.sol\":7605:7620  lpTokens.div(2) */\n      jump\t// in\n    tag_534:\n        /* \"contracts/gainzilla.sol\":7590:7620  uint256 half = lpTokens.div(2) */\n      swap1\n      pop\n        /* \"contracts/gainzilla.sol\":7630:7653  _swapTokensForETH(half) */\n      tag_535\n        /* \"contracts/gainzilla.sol\":7648:7652  half */\n      dup2\n        /* \"contracts/gainzilla.sol\":7630:7647  _swapTokensForETH */\n      tag_529\n        /* \"contracts/gainzilla.sol\":7630:7653  _swapTokensForETH(half) */\n      jump\t// in\n    tag_535:\n        /* \"contracts/gainzilla.sol\":7672:7685  uint256 lpETH */\n      0x00\n        /* \"contracts/gainzilla.sol\":7688:7721  address(this).balance.sub(ecoETH) */\n      tag_536\n        /* \"contracts/gainzilla.sol\":7688:7709  address(this).balance */\n      selfbalance\n        /* \"contracts/gainzilla.sol\":7714:7720  ecoETH */\n      dup6\n        /* \"contracts/gainzilla.sol\":7688:7713  address(this).balance.sub */\n      tag_266\n        /* \"contracts/gainzilla.sol\":7688:7721  address(this).balance.sub(ecoETH) */\n      jump\t// in\n    tag_536:\n        /* \"contracts/gainzilla.sol\":7672:7721  uint256 lpETH = address(this).balance.sub(ecoETH) */\n      swap1\n      pop\n        /* \"contracts/gainzilla.sol\":7731:7771  _addLiquidity(lpTokens.sub(half), lpETH) */\n      tag_537\n        /* \"contracts/gainzilla.sol\":7745:7763  lpTokens.sub(half) */\n      tag_538\n        /* \"contracts/gainzilla.sol\":7745:7753  lpTokens */\n      dup5\n        /* \"contracts/gainzilla.sol\":7758:7762  half */\n      dup5\n        /* \"contracts/gainzilla.sol\":7745:7757  lpTokens.sub */\n      tag_266\n        /* \"contracts/gainzilla.sol\":7745:7763  lpTokens.sub(half) */\n      jump\t// in\n    tag_538:\n        /* \"contracts/gainzilla.sol\":7765:7770  lpETH */\n      dup3\n        /* \"contracts/gainzilla.sol\":7731:7744  _addLiquidity */\n      tag_539\n        /* \"contracts/gainzilla.sol\":7731:7771  _addLiquidity(lpTokens.sub(half), lpETH) */\n      jump\t// in\n    tag_537:\n      pop\n      pop\n        /* \"contracts/gainzilla.sol\":7798:7799  0 */\n      0x00\n        /* \"contracts/gainzilla.sol\":7782:7795  accumulatedLp */\n      0x09\n        /* \"contracts/gainzilla.sol\":7782:7799  accumulatedLp = 0 */\n      dup2\n      swap1\n      sstore\n        /* \"contracts/gainzilla.sol\":7809:7823  accumulatedEco */\n      0x0a\n        /* \"contracts/gainzilla.sol\":7809:7827  accumulatedEco = 0 */\n      sstore\n      pop\n      pop\n        /* \"contracts/gainzilla.sol\":7837:7845  swapping */\n      0x0b\n        /* \"contracts/gainzilla.sol\":7837:7853  swapping = false */\n      dup1\n      sload\n      not(0xff)\n      and\n      swap1\n      sstore\n      pop\n      pop\n        /* \"contracts/gainzilla.sol\":7092:7860  function _swapAndLiquify() private {... */\n      jump\t// out\n        /* \"@openzeppelin/contracts@4.9.3/token/ERC20/ERC20.sol\":12073:12164  function _beforeTokenTransfer(address from, address to, uint256 amount) internal virtual {} */\n    tag_484:\n      pop\n      pop\n      pop\n      jump\t// out\n        /* \"contracts/gainzilla.sol\":10576:11014  function _swapTokensForETH(uint256 amount) private {... */\n    tag_529:\n        /* \"contracts/gainzilla.sol\":10661:10677  new address[](2) */\n      0x40\n      dup1\n      mload\n        /* \"contracts/gainzilla.sol\":10675:10676  2 */\n      0x02\n        /* \"contracts/gainzilla.sol\":10661:10677  new address[](2) */\n      dup1\n      dup3\n      mstore\n      0x60\n      dup3\n      add\n      dup4\n      mstore\n        /* \"contracts/gainzilla.sol\":10637:10658  address[] memory path */\n      0x00\n      swap3\n        /* \"contracts/gainzilla.sol\":10661:10677  new address[](2) */\n      0x20\n      dup4\n      add\n      swap1\n      dup1\n      calldatasize\n      dup4\n      calldatacopy\n      add\n      swap1\n      pop\n      pop\n        /* \"contracts/gainzilla.sol\":10637:10677  address[] memory path = new address[](2) */\n      swap1\n      pop\n        /* \"contracts/gainzilla.sol\":10705:10709  this */\n      address\n        /* \"contracts/gainzilla.sol\":10687:10691  path */\n      dup2\n        /* \"contracts/gainzilla.sol\":10692:10693  0 */\n      0x00\n        /* \"contracts/gainzilla.sol\":10687:10694  path[0] */\n      dup2\n      mload\n      dup2\n      lt\n      tag_548\n      jumpi\n      tag_548\n      tag_549\n      jump\t// in\n    tag_548:\n      sub(shl(0xa0, 0x01), 0x01)\n        /* \"contracts/gainzilla.sol\":10687:10710  path[0] = address(this) */\n      swap3\n      dup4\n      and\n        /* \"contracts/gainzilla.sol\":10687:10694  path[0] */\n      0x20\n      swap2\n      dup3\n      mul\n      swap3\n      swap1\n      swap3\n      add\n      dup2\n      add\n        /* \"contracts/gainzilla.sol\":10687:10710  path[0] = address(this) */\n      swap2\n      swap1\n      swap2\n      mstore\n        /* \"contracts/gainzilla.sol\":10747:10760  routerAddress */\n      sload(0x12)\n        /* \"contracts/gainzilla.sol\":10730:10768  IUniswapV2Router(routerAddress).WETH() */\n      0x40\n      dup1\n      mload\n      shl(0xe3, 0x15ab88c9)\n      dup2\n      mstore\n      swap1\n      mload\n        /* \"contracts/gainzilla.sol\":10747:10760  routerAddress */\n      swap2\n      swap1\n      swap4\n      and\n      swap3\n        /* \"contracts/gainzilla.sol\":10730:10766  IUniswapV2Router(routerAddress).WETH */\n      0xad5c4648\n      swap3\n        /* \"contracts/gainzilla.sol\":10730:10768  IUniswapV2Router(routerAddress).WETH() */\n      0x04\n      dup1\n      dup4\n      add\n      swap4\n        /* \"contracts/gainzilla.sol\":10687:10694  path[0] */\n      swap2\n      swap3\n        /* \"contracts/gainzilla.sol\":10730:10768  IUniswapV2Router(routerAddress).WETH() */\n      dup3\n      swap1\n      sub\n      add\n      dup2\n        /* \"contracts/gainzilla.sol\":10747:10760  routerAddress */\n      dup7\n        /* \"contracts/gainzilla.sol\":10730:10768  IUniswapV2Router(routerAddress).WETH() */\n      gas\n      staticcall\n      iszero\n      dup1\n      iszero\n      tag_551\n      jumpi\n      returndatasize\n      0x00\n      dup1\n      returndatacopy\n      revert(0x00, returndatasize)\n    tag_551:\n      pop\n      pop\n      pop\n      pop\n      mload(0x40)\n      returndatasize\n      not(0x1f)\n      0x1f\n      dup3\n      add\n      and\n      dup3\n      add\n      dup1\n      0x40\n      mstore\n      pop\n      dup2\n      add\n      swap1\n      tag_552\n      swap2\n      swap1\n      tag_296\n      jump\t// in\n    tag_552:\n        /* \"contracts/gainzilla.sol\":10720:10724  path */\n      dup2\n        /* \"contracts/gainzilla.sol\":10725:10726  1 */\n      0x01\n        /* \"contracts/gainzilla.sol\":10720:10727  path[1] */\n      dup2\n      mload\n      dup2\n      lt\n      tag_554\n      jumpi\n      tag_554\n      tag_549\n      jump\t// in\n    tag_554:\n      sub(shl(0xa0, 0x01), 0x01)\n        /* \"contracts/gainzilla.sol\":10720:10768  path[1] = IUniswapV2Router(routerAddress).WETH() */\n      swap3\n      dup4\n      and\n        /* \"contracts/gainzilla.sol\":10720:10727  path[1] */\n      0x20\n      swap2\n      dup3\n      mul\n      swap3\n      swap1\n      swap3\n      add\n      add\n        /* \"contracts/gainzilla.sol\":10720:10768  path[1] = IUniswapV2Router(routerAddress).WETH() */\n      mstore\n        /* \"contracts/gainzilla.sol\":10803:10816  routerAddress */\n      sload(0x12)\n        /* \"contracts/gainzilla.sol\":10779:10825  _approve(address(this), routerAddress, amount) */\n      tag_555\n      swap2\n        /* \"contracts/gainzilla.sol\":10796:10800  this */\n      address\n      swap2\n        /* \"contracts/gainzilla.sol\":10803:10816  routerAddress */\n      and\n        /* \"contracts/gainzilla.sol\":10818:10824  amount */\n      dup5\n        /* \"contracts/gainzilla.sol\":10779:10787  _approve */\n      tag_225\n        /* \"contracts/gainzilla.sol\":10779:10825  _approve(address(this), routerAddress, amount) */\n      jump\t// in\n    tag_555:\n        /* \"contracts/gainzilla.sol\":10852:10865  routerAddress */\n      sload(0x12)\n        /* \"contracts/gainzilla.sol\":10835:11007  IUniswapV2Router(routerAddress).swapExactTokensForETH(... */\n      mload(0x40)\n      shl(0xe0, 0x18cbafe5)\n      dup2\n      mstore\n      sub(shl(0xa0, 0x01), 0x01)\n        /* \"contracts/gainzilla.sol\":10852:10865  routerAddress */\n      swap1\n      swap2\n      and\n      swap1\n        /* \"contracts/gainzilla.sol\":10835:10888  IUniswapV2Router(routerAddress).swapExactTokensForETH */\n      0x18cbafe5\n      swap1\n        /* \"contracts/gainzilla.sol\":10835:11007  IUniswapV2Router(routerAddress).swapExactTokensForETH(... */\n      tag_556\n      swap1\n        /* \"contracts/gainzilla.sol\":10902:10908  amount */\n      dup6\n      swap1\n        /* \"contracts/gainzilla.sol\":10852:10865  routerAddress */\n      0x00\n      swap1\n        /* \"contracts/gainzilla.sol\":10937:10941  path */\n      dup7\n      swap1\n        /* \"contracts/gainzilla.sol\":10963:10967  this */\n      address\n      swap1\n        /* \"contracts/gainzilla.sol\":10982:10997  block.timestamp */\n      timestamp\n      swap1\n        /* \"contracts/gainzilla.sol\":10835:11007  IUniswapV2Router(routerAddress).swapExactTokensForETH(... */\n      0x04\n      add\n      tag_557\n      jump\t// in\n    tag_556:\n      0x00\n      mload(0x40)\n      dup1\n      dup4\n      sub\n      dup2\n      0x00\n      dup8\n      gas\n      call\n      iszero\n      dup1\n      iszero\n      tag_559\n      jumpi\n      returndatasize\n      0x00\n      dup1\n      returndatacopy\n      revert(0x00, returndatasize)\n    tag_559:\n      pop\n      pop\n      pop\n      pop\n      mload(0x40)\n      returndatasize\n      0x00\n      dup3\n      returndatacopy\n      0x1f\n      returndatasize\n      swap1\n      dup2\n      add\n      not(0x1f)\n      and\n      dup3\n      add\n      0x40\n      mstore\n      tag_484\n      swap2\n      swap1\n      dup2\n      add\n      swap1\n      tag_561\n      jump\t// in\n        /* \"contracts/gainzilla.sol\":11020:11429  function _addLiquidity(uint256 tokenAmount, uint256 ethAmount) private {... */\n    tag_539:\n        /* \"contracts/gainzilla.sol\":11125:11138  routerAddress */\n      sload(0x12)\n        /* \"contracts/gainzilla.sol\":11101:11152  _approve(address(this), routerAddress, tokenAmount) */\n      tag_563\n      swap1\n        /* \"contracts/gainzilla.sol\":11118:11122  this */\n      address\n      swap1\n      sub(shl(0xa0, 0x01), 0x01)\n        /* \"contracts/gainzilla.sol\":11125:11138  routerAddress */\n      and\n        /* \"contracts/gainzilla.sol\":11140:11151  tokenAmount */\n      dup5\n        /* \"contracts/gainzilla.sol\":11101:11109  _approve */\n      tag_225\n        /* \"contracts/gainzilla.sol\":11101:11152  _approve(address(this), routerAddress, tokenAmount) */\n      jump\t// in\n    tag_563:\n        /* \"contracts/gainzilla.sol\":11179:11192  routerAddress */\n      and(sub(shl(0xa0, 0x01), 0x01), sload(0x12))\n        /* \"contracts/gainzilla.sol\":11162:11209  IUniswapV2Router(routerAddress).addLiquidityETH */\n      0xf305d719\n        /* \"contracts/gainzilla.sol\":11217:11226  ethAmount */\n      dup3\n        /* \"contracts/gainzilla.sol\":11249:11253  this */\n      address\n        /* \"contracts/gainzilla.sol\":11268:11279  tokenAmount */\n      dup6\n        /* \"contracts/gainzilla.sol\":11179:11192  routerAddress */\n      0x00\n      dup1\n        /* \"contracts/gainzilla.sol\":11323:11330  owner() */\n      tag_564\n        /* \"@openzeppelin/contracts@4.9.3/access/Ownable.sol\":1273:1279  _owner */\n      and(sub(shl(0xa0, 0x01), 0x01), sload(0x05))\n      swap1\n        /* \"@openzeppelin/contracts@4.9.3/access/Ownable.sol\":1201:1286  function owner() public view virtual returns (address) {... */\n      jump\n        /* \"contracts/gainzilla.sol\":11323:11330  owner() */\n    tag_564:\n        /* \"contracts/gainzilla.sol\":11162:11369  IUniswapV2Router(routerAddress).addLiquidityETH{value: ethAmount}(... */\n      mload(0x40)\n      0xe0\n      dup9\n      swap1\n      shl\n      not(sub(shl(0xe0, 0x01), 0x01))\n      and\n      dup2\n      mstore\n      sub(shl(0xa0, 0x01), 0x01)\n        /* \"#utility.yul\":19946:19961   */\n      swap6\n      dup7\n      and\n        /* \"contracts/gainzilla.sol\":11162:11369  IUniswapV2Router(routerAddress).addLiquidityETH{value: ethAmount}(... */\n      0x04\n      dup3\n      add\n        /* \"#utility.yul\":19928:19962   */\n      mstore\n        /* \"#utility.yul\":19978:19996   */\n      0x24\n      dup2\n      add\n        /* \"#utility.yul\":19971:20005   */\n      swap5\n      swap1\n      swap5\n      mstore\n        /* \"#utility.yul\":20021:20039   */\n      0x44\n      dup5\n      add\n        /* \"#utility.yul\":20014:20048   */\n      swap3\n      swap1\n      swap3\n      mstore\n        /* \"#utility.yul\":20064:20082   */\n      0x64\n      dup4\n      add\n        /* \"#utility.yul\":20057:20091   */\n      mstore\n        /* \"#utility.yul\":20128:20143   */\n      swap1\n      swap2\n      and\n        /* \"#utility.yul\":20107:20126   */\n      0x84\n      dup3\n      add\n        /* \"#utility.yul\":20100:20144   */\n      mstore\n        /* \"contracts/gainzilla.sol\":11344:11359  block.timestamp */\n      timestamp\n        /* \"#utility.yul\":20160:20179   */\n      0xa4\n      dup3\n      add\n        /* \"#utility.yul\":20153:20188   */\n      mstore\n        /* \"#utility.yul\":19862:19881   */\n      0xc4\n      add\n        /* \"contracts/gainzilla.sol\":11162:11369  IUniswapV2Router(routerAddress).addLiquidityETH{value: ethAmount}(... */\n      0x60\n      mload(0x40)\n      dup1\n      dup4\n      sub\n      dup2\n      dup6\n      dup9\n      gas\n      call\n      iszero\n      dup1\n      iszero\n      tag_568\n      jumpi\n      returndatasize\n      0x00\n      dup1\n      returndatacopy\n      revert(0x00, returndatasize)\n    tag_568:\n      pop\n      pop\n      pop\n      pop\n      pop\n      mload(0x40)\n      returndatasize\n      not(0x1f)\n      0x1f\n      dup3\n      add\n      and\n      dup3\n      add\n      dup1\n      0x40\n      mstore\n      pop\n      dup2\n      add\n      swap1\n      tag_569\n      swap2\n      swap1\n      tag_570\n      jump\t// in\n    tag_569:\n      pop\n      pop\n        /* \"contracts/gainzilla.sol\":11384:11422  LiquidityAdded(tokenAmount, ethAmount) */\n      0x40\n      dup1\n      mload\n        /* \"#utility.yul\":17149:17174   */\n      dup5\n      dup2\n      mstore\n        /* \"#utility.yul\":17205:17207   */\n      0x20\n        /* \"#utility.yul\":17190:17208   */\n      dup2\n      add\n        /* \"#utility.yul\":17183:17217   */\n      dup5\n      swap1\n      mstore\n        /* \"contracts/gainzilla.sol\":11384:11422  LiquidityAdded(tokenAmount, ethAmount) */\n      0x38f8a0c92f4c5b0b6877f878cb4c0c8d348a47b76d716c8e78f425043df9515b\n      swap3\n      pop\n        /* \"#utility.yul\":17122:17140   */\n      add\n        /* \"contracts/gainzilla.sol\":11384:11422  LiquidityAdded(tokenAmount, ethAmount) */\n      mload(0x40)\n      dup1\n      swap2\n      sub\n      swap1\n      log1\n        /* \"contracts/gainzilla.sol\":11020:11429  function _addLiquidity(uint256 tokenAmount, uint256 ethAmount) private {... */\n      pop\n      pop\n      jump\t// out\n        /* \"#utility.yul\":196:614   */\n    tag_56:\n        /* \"#utility.yul\":345:347   */\n      0x20\n        /* \"#utility.yul\":334:343   */\n      dup2\n        /* \"#utility.yul\":327:348   */\n      mstore\n        /* \"#utility.yul\":308:312   */\n      0x00\n        /* \"#utility.yul\":377:383   */\n      dup3\n        /* \"#utility.yul\":371:384   */\n      mload\n        /* \"#utility.yul\":420:426   */\n      dup1\n        /* \"#utility.yul\":415:417   */\n      0x20\n        /* \"#utility.yul\":404:413   */\n      dup5\n        /* \"#utility.yul\":400:418   */\n      add\n        /* \"#utility.yul\":393:427   */\n      mstore\n        /* \"#utility.yul\":479:485   */\n      dup1\n        /* \"#utility.yul\":474:476   */\n      0x20\n        /* \"#utility.yul\":466:472   */\n      dup6\n        /* \"#utility.yul\":462:477   */\n      add\n        /* \"#utility.yul\":457:459   */\n      0x40\n        /* \"#utility.yul\":446:455   */\n      dup6\n        /* \"#utility.yul\":442:460   */\n      add\n        /* \"#utility.yul\":436:486   */\n      mcopy\n        /* \"#utility.yul\":535:536   */\n      0x00\n        /* \"#utility.yul\":530:532   */\n      0x40\n        /* \"#utility.yul\":521:527   */\n      dup3\n        /* \"#utility.yul\":510:519   */\n      dup6\n        /* \"#utility.yul\":506:528   */\n      add\n        /* \"#utility.yul\":502:533   */\n      add\n        /* \"#utility.yul\":495:537   */\n      mstore\n        /* \"#utility.yul\":605:607   */\n      0x40\n        /* \"#utility.yul\":598:600   */\n      0x1f\n        /* \"#utility.yul\":594:601   */\n      not\n        /* \"#utility.yul\":589:591   */\n      0x1f\n        /* \"#utility.yul\":581:587   */\n      dup4\n        /* \"#utility.yul\":577:592   */\n      add\n        /* \"#utility.yul\":573:602   */\n      and\n        /* \"#utility.yul\":562:571   */\n      dup5\n        /* \"#utility.yul\":558:603   */\n      add\n        /* \"#utility.yul\":554:608   */\n      add\n        /* \"#utility.yul\":546:608   */\n      swap2\n      pop\n      pop\n        /* \"#utility.yul\":196:614   */\n      swap3\n      swap2\n      pop\n      pop\n      jump\t// out\n        /* \"#utility.yul\":619:750   */\n    tag_572:\n      sub(shl(0xa0, 0x01), 0x01)\n        /* \"#utility.yul\":694:725   */\n      dup2\n      and\n        /* \"#utility.yul\":684:726   */\n      dup2\n      eq\n        /* \"#utility.yul\":674:744   */\n      tag_349\n      jumpi\n        /* \"#utility.yul\":740:741   */\n      0x00\n        /* \"#utility.yul\":737:738   */\n      dup1\n        /* \"#utility.yul\":730:742   */\n      revert\n        /* \"#utility.yul\":755:1070   */\n    tag_60:\n        /* \"#utility.yul\":823:829   */\n      0x00\n        /* \"#utility.yul\":831:837   */\n      dup1\n        /* \"#utility.yul\":884:886   */\n      0x40\n        /* \"#utility.yul\":872:881   */\n      dup4\n        /* \"#utility.yul\":863:870   */\n      dup6\n        /* \"#utility.yul\":859:882   */\n      sub\n        /* \"#utility.yul\":855:887   */\n      slt\n        /* \"#utility.yul\":852:904   */\n      iszero\n      tag_585\n      jumpi\n        /* \"#utility.yul\":900:901   */\n      0x00\n        /* \"#utility.yul\":897:898   */\n      dup1\n        /* \"#utility.yul\":890:902   */\n      revert\n        /* \"#utility.yul\":852:904   */\n    tag_585:\n        /* \"#utility.yul\":939:948   */\n      dup3\n        /* \"#utility.yul\":926:949   */\n      calldataload\n        /* \"#utility.yul\":958:989   */\n      tag_586\n        /* \"#utility.yul\":983:988   */\n      dup2\n        /* \"#utility.yul\":958:989   */\n      tag_572\n      jump\t// in\n    tag_586:\n        /* \"#utility.yul\":1008:1013   */\n      swap5\n        /* \"#utility.yul\":1060:1062   */\n      0x20\n        /* \"#utility.yul\":1045:1063   */\n      swap4\n      swap1\n      swap4\n      add\n        /* \"#utility.yul\":1032:1064   */\n      calldataload\n      swap4\n      pop\n      pop\n      pop\n        /* \"#utility.yul\":755:1070   */\n      jump\t// out\n        /* \"#utility.yul\":1267:1426   */\n    tag_573:\n        /* \"#utility.yul\":1334:1354   */\n      dup1\n      calldataload\n        /* \"#utility.yul\":1394:1400   */\n      0xffff\n        /* \"#utility.yul\":1383:1401   */\n      dup2\n      and\n        /* \"#utility.yul\":1373:1402   */\n      dup2\n      eq\n        /* \"#utility.yul\":1363:1420   */\n      tag_589\n      jumpi\n        /* \"#utility.yul\":1416:1417   */\n      0x00\n        /* \"#utility.yul\":1413:1414   */\n      dup1\n        /* \"#utility.yul\":1406:1418   */\n      revert\n        /* \"#utility.yul\":1363:1420   */\n    tag_589:\n        /* \"#utility.yul\":1267:1426   */\n      swap2\n      swap1\n      pop\n      jump\t// out\n        /* \"#utility.yul\":1431:1832   */\n    tag_67:\n        /* \"#utility.yul\":1513:1519   */\n      0x00\n        /* \"#utility.yul\":1521:1527   */\n      dup1\n        /* \"#utility.yul\":1529:1535   */\n      0x00\n        /* \"#utility.yul\":1537:1543   */\n      dup1\n        /* \"#utility.yul\":1590:1593   */\n      0x80\n        /* \"#utility.yul\":1578:1587   */\n      dup6\n        /* \"#utility.yul\":1569:1576   */\n      dup8\n        /* \"#utility.yul\":1565:1588   */\n      sub\n        /* \"#utility.yul\":1561:1594   */\n      slt\n        /* \"#utility.yul\":1558:1611   */\n      iszero\n      tag_591\n      jumpi\n        /* \"#utility.yul\":1607:1608   */\n      0x00\n        /* \"#utility.yul\":1604:1605   */\n      dup1\n        /* \"#utility.yul\":1597:1609   */\n      revert\n        /* \"#utility.yul\":1558:1611   */\n    tag_591:\n        /* \"#utility.yul\":1630:1658   */\n      tag_592\n        /* \"#utility.yul\":1648:1657   */\n      dup6\n        /* \"#utility.yul\":1630:1658   */\n      tag_573\n      jump\t// in\n    tag_592:\n        /* \"#utility.yul\":1620:1658   */\n      swap4\n      pop\n        /* \"#utility.yul\":1677:1714   */\n      tag_593\n        /* \"#utility.yul\":1710:1712   */\n      0x20\n        /* \"#utility.yul\":1699:1708   */\n      dup7\n        /* \"#utility.yul\":1695:1713   */\n      add\n        /* \"#utility.yul\":1677:1714   */\n      tag_573\n      jump\t// in\n    tag_593:\n        /* \"#utility.yul\":1667:1714   */\n      swap3\n      pop\n        /* \"#utility.yul\":1733:1770   */\n      tag_594\n        /* \"#utility.yul\":1766:1768   */\n      0x40\n        /* \"#utility.yul\":1755:1764   */\n      dup7\n        /* \"#utility.yul\":1751:1769   */\n      add\n        /* \"#utility.yul\":1733:1770   */\n      tag_573\n      jump\t// in\n    tag_594:\n        /* \"#utility.yul\":1723:1770   */\n      swap2\n      pop\n        /* \"#utility.yul\":1789:1826   */\n      tag_595\n        /* \"#utility.yul\":1822:1824   */\n      0x60\n        /* \"#utility.yul\":1811:1820   */\n      dup7\n        /* \"#utility.yul\":1807:1825   */\n      add\n        /* \"#utility.yul\":1789:1826   */\n      tag_573\n      jump\t// in\n    tag_595:\n        /* \"#utility.yul\":1779:1826   */\n      swap1\n      pop\n        /* \"#utility.yul\":1431:1832   */\n      swap3\n      swap6\n      swap2\n      swap5\n      pop\n      swap3\n      pop\n      jump\t// out\n        /* \"#utility.yul\":1837:2293   */\n    tag_76:\n        /* \"#utility.yul\":1914:1920   */\n      0x00\n        /* \"#utility.yul\":1922:1928   */\n      dup1\n        /* \"#utility.yul\":1930:1936   */\n      0x00\n        /* \"#utility.yul\":1983:1985   */\n      0x60\n        /* \"#utility.yul\":1971:1980   */\n      dup5\n        /* \"#utility.yul\":1962:1969   */\n      dup7\n        /* \"#utility.yul\":1958:1981   */\n      sub\n        /* \"#utility.yul\":1954:1986   */\n      slt\n        /* \"#utility.yul\":1951:2003   */\n      iszero\n      tag_597\n      jumpi\n        /* \"#utility.yul\":1999:2000   */\n      0x00\n        /* \"#utility.yul\":1996:1997   */\n      dup1\n        /* \"#utility.yul\":1989:2001   */\n      revert\n        /* \"#utility.yul\":1951:2003   */\n    tag_597:\n        /* \"#utility.yul\":2038:2047   */\n      dup4\n        /* \"#utility.yul\":2025:2048   */\n      calldataload\n        /* \"#utility.yul\":2057:2088   */\n      tag_598\n        /* \"#utility.yul\":2082:2087   */\n      dup2\n        /* \"#utility.yul\":2057:2088   */\n      tag_572\n      jump\t// in\n    tag_598:\n        /* \"#utility.yul\":2107:2112   */\n      swap3\n      pop\n        /* \"#utility.yul\":2164:2166   */\n      0x20\n        /* \"#utility.yul\":2149:2167   */\n      dup5\n      add\n        /* \"#utility.yul\":2136:2168   */\n      calldataload\n        /* \"#utility.yul\":2177:2210   */\n      tag_599\n        /* \"#utility.yul\":2136:2168   */\n      dup2\n        /* \"#utility.yul\":2177:2210   */\n      tag_572\n      jump\t// in\n    tag_599:\n        /* \"#utility.yul\":1837:2293   */\n      swap3\n      swap6\n        /* \"#utility.yul\":2229:2236   */\n      swap3\n      swap5\n      pop\n      pop\n      pop\n        /* \"#utility.yul\":2283:2285   */\n      0x40\n        /* \"#utility.yul\":2268:2286   */\n      swap2\n      swap1\n      swap2\n      add\n        /* \"#utility.yul\":2255:2287   */\n      calldataload\n      swap1\n        /* \"#utility.yul\":1837:2293   */\n      jump\t// out\n        /* \"#utility.yul\":3144:3391   */\n    tag_106:\n        /* \"#utility.yul\":3203:3209   */\n      0x00\n        /* \"#utility.yul\":3256:3258   */\n      0x20\n        /* \"#utility.yul\":3244:3253   */\n      dup3\n        /* \"#utility.yul\":3235:3242   */\n      dup5\n        /* \"#utility.yul\":3231:3254   */\n      sub\n        /* \"#utility.yul\":3227:3259   */\n      slt\n        /* \"#utility.yul\":3224:3276   */\n      iszero\n      tag_604\n      jumpi\n        /* \"#utility.yul\":3272:3273   */\n      0x00\n        /* \"#utility.yul\":3269:3270   */\n      dup1\n        /* \"#utility.yul\":3262:3274   */\n      revert\n        /* \"#utility.yul\":3224:3276   */\n    tag_604:\n        /* \"#utility.yul\":3311:3320   */\n      dup2\n        /* \"#utility.yul\":3298:3321   */\n      calldataload\n        /* \"#utility.yul\":3330:3361   */\n      tag_240\n        /* \"#utility.yul\":3355:3360   */\n      dup2\n        /* \"#utility.yul\":3330:3361   */\n      tag_572\n      jump\t// in\n        /* \"#utility.yul\":3854:4034   */\n    tag_125:\n        /* \"#utility.yul\":3913:3919   */\n      0x00\n        /* \"#utility.yul\":3966:3968   */\n      0x20\n        /* \"#utility.yul\":3954:3963   */\n      dup3\n        /* \"#utility.yul\":3945:3952   */\n      dup5\n        /* \"#utility.yul\":3941:3964   */\n      sub\n        /* \"#utility.yul\":3937:3969   */\n      slt\n        /* \"#utility.yul\":3934:3986   */\n      iszero\n      tag_609\n      jumpi\n        /* \"#utility.yul\":3982:3983   */\n      0x00\n        /* \"#utility.yul\":3979:3980   */\n      dup1\n        /* \"#utility.yul\":3972:3984   */\n      revert\n        /* \"#utility.yul\":3934:3986   */\n    tag_609:\n      pop\n        /* \"#utility.yul\":4005:4028   */\n      calldataload\n      swap2\n        /* \"#utility.yul\":3854:4034   */\n      swap1\n      pop\n      jump\t// out\n        /* \"#utility.yul\":4435:4595   */\n    tag_574:\n        /* \"#utility.yul\":4500:4520   */\n      dup1\n      calldataload\n        /* \"#utility.yul\":4556:4569   */\n      dup1\n      iszero\n        /* \"#utility.yul\":4549:4570   */\n      iszero\n        /* \"#utility.yul\":4539:4571   */\n      dup2\n      eq\n        /* \"#utility.yul\":4529:4589   */\n      tag_589\n      jumpi\n        /* \"#utility.yul\":4585:4586   */\n      0x00\n        /* \"#utility.yul\":4582:4583   */\n      dup1\n        /* \"#utility.yul\":4575:4587   */\n      revert\n        /* \"#utility.yul\":4600:4915   */\n    tag_156:\n        /* \"#utility.yul\":4665:4671   */\n      0x00\n        /* \"#utility.yul\":4673:4679   */\n      dup1\n        /* \"#utility.yul\":4726:4728   */\n      0x40\n        /* \"#utility.yul\":4714:4723   */\n      dup4\n        /* \"#utility.yul\":4705:4712   */\n      dup6\n        /* \"#utility.yul\":4701:4724   */\n      sub\n        /* \"#utility.yul\":4697:4729   */\n      slt\n        /* \"#utility.yul\":4694:4746   */\n      iszero\n      tag_614\n      jumpi\n        /* \"#utility.yul\":4742:4743   */\n      0x00\n        /* \"#utility.yul\":4739:4740   */\n      dup1\n        /* \"#utility.yul\":4732:4744   */\n      revert\n        /* \"#utility.yul\":4694:4746   */\n    tag_614:\n        /* \"#utility.yul\":4781:4790   */\n      dup3\n        /* \"#utility.yul\":4768:4791   */\n      calldataload\n        /* \"#utility.yul\":4800:4831   */\n      tag_615\n        /* \"#utility.yul\":4825:4830   */\n      dup2\n        /* \"#utility.yul\":4800:4831   */\n      tag_572\n      jump\t// in\n    tag_615:\n        /* \"#utility.yul\":4850:4855   */\n      swap2\n      pop\n        /* \"#utility.yul\":4874:4909   */\n      tag_616\n        /* \"#utility.yul\":4905:4907   */\n      0x20\n        /* \"#utility.yul\":4890:4908   */\n      dup5\n      add\n        /* \"#utility.yul\":4874:4909   */\n      tag_574\n      jump\t// in\n    tag_616:\n        /* \"#utility.yul\":4864:4909   */\n      swap1\n      pop\n        /* \"#utility.yul\":4600:4915   */\n      swap3\n      pop\n      swap3\n      swap1\n      pop\n      jump\t// out\n        /* \"#utility.yul\":5419:5807   */\n    tag_197:\n        /* \"#utility.yul\":5487:5493   */\n      0x00\n        /* \"#utility.yul\":5495:5501   */\n      dup1\n        /* \"#utility.yul\":5548:5550   */\n      0x40\n        /* \"#utility.yul\":5536:5545   */\n      dup4\n        /* \"#utility.yul\":5527:5534   */\n      dup6\n        /* \"#utility.yul\":5523:5546   */\n      sub\n        /* \"#utility.yul\":5519:5551   */\n      slt\n        /* \"#utility.yul\":5516:5568   */\n      iszero\n      tag_619\n      jumpi\n        /* \"#utility.yul\":5564:5565   */\n      0x00\n        /* \"#utility.yul\":5561:5562   */\n      dup1\n        /* \"#utility.yul\":5554:5566   */\n      revert\n        /* \"#utility.yul\":5516:5568   */\n    tag_619:\n        /* \"#utility.yul\":5603:5612   */\n      dup3\n        /* \"#utility.yul\":5590:5613   */\n      calldataload\n        /* \"#utility.yul\":5622:5653   */\n      tag_620\n        /* \"#utility.yul\":5647:5652   */\n      dup2\n        /* \"#utility.yul\":5622:5653   */\n      tag_572\n      jump\t// in\n    tag_620:\n        /* \"#utility.yul\":5672:5677   */\n      swap2\n      pop\n        /* \"#utility.yul\":5729:5731   */\n      0x20\n        /* \"#utility.yul\":5714:5732   */\n      dup4\n      add\n        /* \"#utility.yul\":5701:5733   */\n      calldataload\n        /* \"#utility.yul\":5742:5775   */\n      tag_621\n        /* \"#utility.yul\":5701:5733   */\n      dup2\n        /* \"#utility.yul\":5742:5775   */\n      tag_572\n      jump\t// in\n    tag_621:\n        /* \"#utility.yul\":5794:5801   */\n      dup1\n        /* \"#utility.yul\":5784:5801   */\n      swap2\n      pop\n      pop\n        /* \"#utility.yul\":5419:5807   */\n      swap3\n      pop\n      swap3\n      swap1\n      pop\n      jump\t// out\n        /* \"#utility.yul\":5812:6064   */\n    tag_207:\n        /* \"#utility.yul\":5876:5882   */\n      0x00\n        /* \"#utility.yul\":5884:5890   */\n      dup1\n        /* \"#utility.yul\":5937:5939   */\n      0x40\n        /* \"#utility.yul\":5925:5934   */\n      dup4\n        /* \"#utility.yul\":5916:5923   */\n      dup6\n        /* \"#utility.yul\":5912:5935   */\n      sub\n        /* \"#utility.yul\":5908:5940   */\n      slt\n        /* \"#utility.yul\":5905:5957   */\n      iszero\n      tag_623\n      jumpi\n        /* \"#utility.yul\":5953:5954   */\n      0x00\n        /* \"#utility.yul\":5950:5951   */\n      dup1\n        /* \"#utility.yul\":5943:5955   */\n      revert\n        /* \"#utility.yul\":5905:5957   */\n    tag_623:\n        /* \"#utility.yul\":5976:6002   */\n      tag_624\n        /* \"#utility.yul\":5992:6001   */\n      dup4\n        /* \"#utility.yul\":5976:6002   */\n      tag_574\n      jump\t// in\n    tag_624:\n        /* \"#utility.yul\":5966:6002   */\n      swap2\n      pop\n        /* \"#utility.yul\":6021:6058   */\n      tag_616\n        /* \"#utility.yul\":6054:6056   */\n      0x20\n        /* \"#utility.yul\":6043:6052   */\n      dup5\n        /* \"#utility.yul\":6039:6057   */\n      add\n        /* \"#utility.yul\":6021:6058   */\n      tag_573\n      jump\t// in\n        /* \"#utility.yul\":6069:6190   */\n    tag_575:\n        /* \"#utility.yul\":6154:6164   */\n      0xffffffff\n        /* \"#utility.yul\":6147:6152   */\n      dup2\n        /* \"#utility.yul\":6143:6165   */\n      and\n        /* \"#utility.yul\":6136:6141   */\n      dup2\n        /* \"#utility.yul\":6133:6166   */\n      eq\n        /* \"#utility.yul\":6123:6184   */\n      tag_349\n      jumpi\n        /* \"#utility.yul\":6180:6181   */\n      0x00\n        /* \"#utility.yul\":6177:6178   */\n      dup1\n        /* \"#utility.yul\":6170:6182   */\n      revert\n        /* \"#utility.yul\":6195:6508   */\n    tag_212:\n        /* \"#utility.yul\":6259:6265   */\n      0x00\n        /* \"#utility.yul\":6267:6273   */\n      dup1\n        /* \"#utility.yul\":6320:6322   */\n      0x40\n        /* \"#utility.yul\":6308:6317   */\n      dup4\n        /* \"#utility.yul\":6299:6306   */\n      dup6\n        /* \"#utility.yul\":6295:6318   */\n      sub\n        /* \"#utility.yul\":6291:6323   */\n      slt\n        /* \"#utility.yul\":6288:6340   */\n      iszero\n      tag_629\n      jumpi\n        /* \"#utility.yul\":6336:6337   */\n      0x00\n        /* \"#utility.yul\":6333:6334   */\n      dup1\n        /* \"#utility.yul\":6326:6338   */\n      revert\n        /* \"#utility.yul\":6288:6340   */\n    tag_629:\n        /* \"#utility.yul\":6359:6385   */\n      tag_630\n        /* \"#utility.yul\":6375:6384   */\n      dup4\n        /* \"#utility.yul\":6359:6385   */\n      tag_574\n      jump\t// in\n    tag_630:\n        /* \"#utility.yul\":6349:6385   */\n      swap2\n      pop\n        /* \"#utility.yul\":6435:6437   */\n      0x20\n        /* \"#utility.yul\":6424:6433   */\n      dup4\n        /* \"#utility.yul\":6420:6438   */\n      add\n        /* \"#utility.yul\":6407:6439   */\n      calldataload\n        /* \"#utility.yul\":6448:6478   */\n      tag_621\n        /* \"#utility.yul\":6472:6477   */\n      dup2\n        /* \"#utility.yul\":6448:6478   */\n      tag_575\n      jump\t// in\n        /* \"#utility.yul\":6513:6893   */\n    tag_216:\n        /* \"#utility.yul\":6592:6593   */\n      0x01\n        /* \"#utility.yul\":6588:6600   */\n      dup2\n      dup2\n      shr\n      swap1\n        /* \"#utility.yul\":6635:6647   */\n      dup3\n      and\n      dup1\n        /* \"#utility.yul\":6656:6717   */\n      tag_633\n      jumpi\n        /* \"#utility.yul\":6710:6714   */\n      0x7f\n        /* \"#utility.yul\":6702:6708   */\n      dup3\n        /* \"#utility.yul\":6698:6715   */\n      and\n        /* \"#utility.yul\":6688:6715   */\n      swap2\n      pop\n        /* \"#utility.yul\":6656:6717   */\n    tag_633:\n        /* \"#utility.yul\":6763:6765   */\n      0x20\n        /* \"#utility.yul\":6755:6761   */\n      dup3\n        /* \"#utility.yul\":6752:6766   */\n      lt\n        /* \"#utility.yul\":6732:6750   */\n      dup2\n        /* \"#utility.yul\":6729:6767   */\n      sub\n        /* \"#utility.yul\":6726:6887   */\n      tag_634\n      jumpi\n        /* \"#utility.yul\":6809:6819   */\n      0x4e487b71\n        /* \"#utility.yul\":6804:6807   */\n      0xe0\n        /* \"#utility.yul\":6800:6820   */\n      shl\n        /* \"#utility.yul\":6797:6798   */\n      0x00\n        /* \"#utility.yul\":6790:6821   */\n      mstore\n        /* \"#utility.yul\":6844:6848   */\n      0x22\n        /* \"#utility.yul\":6841:6842   */\n      0x04\n        /* \"#utility.yul\":6834:6849   */\n      mstore\n        /* \"#utility.yul\":6872:6876   */\n      0x24\n        /* \"#utility.yul\":6869:6870   */\n      0x00\n        /* \"#utility.yul\":6862:6877   */\n      revert\n        /* \"#utility.yul\":6726:6887   */\n    tag_634:\n      pop\n        /* \"#utility.yul\":6513:6893   */\n      swap2\n      swap1\n      pop\n      jump\t// out\n        /* \"#utility.yul\":6898:7025   */\n    tag_576:\n        /* \"#utility.yul\":6959:6969   */\n      0x4e487b71\n        /* \"#utility.yul\":6954:6957   */\n      0xe0\n        /* \"#utility.yul\":6950:6970   */\n      shl\n        /* \"#utility.yul\":6947:6948   */\n      0x00\n        /* \"#utility.yul\":6940:6971   */\n      mstore\n        /* \"#utility.yul\":6990:6994   */\n      0x11\n        /* \"#utility.yul\":6987:6988   */\n      0x04\n        /* \"#utility.yul\":6980:6995   */\n      mstore\n        /* \"#utility.yul\":7014:7018   */\n      0x24\n        /* \"#utility.yul\":7011:7012   */\n      0x00\n        /* \"#utility.yul\":7004:7019   */\n      revert\n        /* \"#utility.yul\":7030:7198   */\n    tag_231:\n        /* \"#utility.yul\":7097:7103   */\n      0xffff\n        /* \"#utility.yul\":7123:7133   */\n      dup2\n      dup2\n      and\n        /* \"#utility.yul\":7135:7145   */\n      dup4\n      dup3\n      and\n        /* \"#utility.yul\":7119:7146   */\n      add\n      swap1\n        /* \"#utility.yul\":7158:7169   */\n      dup1\n      dup3\n      gt\n        /* \"#utility.yul\":7155:7192   */\n      iszero\n      tag_638\n      jumpi\n        /* \"#utility.yul\":7172:7190   */\n      tag_638\n      tag_576\n      jump\t// in\n    tag_638:\n        /* \"#utility.yul\":7155:7192   */\n      pop\n        /* \"#utility.yul\":7030:7198   */\n      swap3\n      swap2\n      pop\n      pop\n      jump\t// out\n        /* \"#utility.yul\":7892:8017   */\n    tag_252:\n        /* \"#utility.yul\":7957:7966   */\n      dup1\n      dup3\n      add\n        /* \"#utility.yul\":7978:7988   */\n      dup1\n      dup3\n      gt\n        /* \"#utility.yul\":7975:8011   */\n      iszero\n      tag_221\n      jumpi\n        /* \"#utility.yul\":7991:8009   */\n      tag_221\n      tag_576\n      jump\t// in\n        /* \"#utility.yul\":8022:8158   */\n    tag_270:\n        /* \"#utility.yul\":8057:8060   */\n      0x00\n      shl(0xff, 0x01)\n        /* \"#utility.yul\":8078:8100   */\n      dup3\n      add\n        /* \"#utility.yul\":8075:8123   */\n      tag_646\n      jumpi\n        /* \"#utility.yul\":8103:8121   */\n      tag_646\n      tag_576\n      jump\t// in\n    tag_646:\n      pop\n        /* \"#utility.yul\":8143:8144   */\n      0x00\n        /* \"#utility.yul\":8139:8152   */\n      sub\n      swap1\n        /* \"#utility.yul\":8022:8158   */\n      jump\t// out\n        /* \"#utility.yul\":8511:8699   */\n    tag_577:\n        /* \"#utility.yul\":8590:8603   */\n      dup1\n      mload\n      sub(shl(0x70, 0x01), 0x01)\n        /* \"#utility.yul\":8632:8674   */\n      dup2\n      and\n        /* \"#utility.yul\":8622:8675   */\n      dup2\n      eq\n        /* \"#utility.yul\":8612:8693   */\n      tag_589\n      jumpi\n        /* \"#utility.yul\":8689:8690   */\n      0x00\n        /* \"#utility.yul\":8686:8687   */\n      dup1\n        /* \"#utility.yul\":8679:8691   */\n      revert\n        /* \"#utility.yul\":8704:9123   */\n    tag_290:\n        /* \"#utility.yul\":8791:8797   */\n      0x00\n        /* \"#utility.yul\":8799:8805   */\n      dup1\n        /* \"#utility.yul\":8807:8813   */\n      0x00\n        /* \"#utility.yul\":8860:8862   */\n      0x60\n        /* \"#utility.yul\":8848:8857   */\n      dup5\n        /* \"#utility.yul\":8839:8846   */\n      dup7\n        /* \"#utility.yul\":8835:8858   */\n      sub\n        /* \"#utility.yul\":8831:8863   */\n      slt\n        /* \"#utility.yul\":8828:8880   */\n      iszero\n      tag_651\n      jumpi\n        /* \"#utility.yul\":8876:8877   */\n      0x00\n        /* \"#utility.yul\":8873:8874   */\n      dup1\n        /* \"#utility.yul\":8866:8878   */\n      revert\n        /* \"#utility.yul\":8828:8880   */\n    tag_651:\n        /* \"#utility.yul\":8899:8939   */\n      tag_652\n        /* \"#utility.yul\":8929:8938   */\n      dup5\n        /* \"#utility.yul\":8899:8939   */\n      tag_577\n      jump\t// in\n    tag_652:\n        /* \"#utility.yul\":8889:8939   */\n      swap3\n      pop\n        /* \"#utility.yul\":8958:9007   */\n      tag_653\n        /* \"#utility.yul\":9003:9005   */\n      0x20\n        /* \"#utility.yul\":8992:9001   */\n      dup6\n        /* \"#utility.yul\":8988:9006   */\n      add\n        /* \"#utility.yul\":8958:9007   */\n      tag_577\n      jump\t// in\n    tag_653:\n        /* \"#utility.yul\":8948:9007   */\n      swap2\n      pop\n        /* \"#utility.yul\":9050:9052   */\n      0x40\n        /* \"#utility.yul\":9039:9048   */\n      dup5\n        /* \"#utility.yul\":9035:9053   */\n      add\n        /* \"#utility.yul\":9029:9054   */\n      mload\n        /* \"#utility.yul\":9063:9093   */\n      tag_654\n        /* \"#utility.yul\":9087:9092   */\n      dup2\n        /* \"#utility.yul\":9063:9093   */\n      tag_575\n      jump\t// in\n    tag_654:\n        /* \"#utility.yul\":9112:9117   */\n      dup1\n        /* \"#utility.yul\":9102:9117   */\n      swap2\n      pop\n      pop\n        /* \"#utility.yul\":8704:9123   */\n      swap3\n      pop\n      swap3\n      pop\n      swap3\n      jump\t// out\n        /* \"#utility.yul\":9128:9379   */\n    tag_296:\n        /* \"#utility.yul\":9198:9204   */\n      0x00\n        /* \"#utility.yul\":9251:9253   */\n      0x20\n        /* \"#utility.yul\":9239:9248   */\n      dup3\n        /* \"#utility.yul\":9230:9237   */\n      dup5\n        /* \"#utility.yul\":9226:9249   */\n      sub\n        /* \"#utility.yul\":9222:9254   */\n      slt\n        /* \"#utility.yul\":9219:9271   */\n      iszero\n      tag_656\n      jumpi\n        /* \"#utility.yul\":9267:9268   */\n      0x00\n        /* \"#utility.yul\":9264:9265   */\n      dup1\n        /* \"#utility.yul\":9257:9269   */\n      revert\n        /* \"#utility.yul\":9219:9271   */\n    tag_656:\n        /* \"#utility.yul\":9299:9308   */\n      dup2\n        /* \"#utility.yul\":9293:9309   */\n      mload\n        /* \"#utility.yul\":9318:9349   */\n      tag_240\n        /* \"#utility.yul\":9343:9348   */\n      dup2\n        /* \"#utility.yul\":9318:9349   */\n      tag_572\n      jump\t// in\n        /* \"#utility.yul\":9384:9511   */\n    tag_578:\n        /* \"#utility.yul\":9445:9455   */\n      0x4e487b71\n        /* \"#utility.yul\":9440:9443   */\n      0xe0\n        /* \"#utility.yul\":9436:9456   */\n      shl\n        /* \"#utility.yul\":9433:9434   */\n      0x00\n        /* \"#utility.yul\":9426:9457   */\n      mstore\n        /* \"#utility.yul\":9476:9480   */\n      0x12\n        /* \"#utility.yul\":9473:9474   */\n      0x04\n        /* \"#utility.yul\":9466:9481   */\n      mstore\n        /* \"#utility.yul\":9500:9504   */\n      0x24\n        /* \"#utility.yul\":9497:9498   */\n      0x00\n        /* \"#utility.yul\":9490:9505   */\n      revert\n        /* \"#utility.yul\":9516:9628   */\n    tag_318:\n        /* \"#utility.yul\":9548:9549   */\n      0x00\n        /* \"#utility.yul\":9574:9575   */\n      dup3\n        /* \"#utility.yul\":9564:9599   */\n      tag_661\n      jumpi\n        /* \"#utility.yul\":9579:9597   */\n      tag_661\n      tag_578\n      jump\t// in\n    tag_661:\n      pop\n        /* \"#utility.yul\":9613:9622   */\n      mod\n      swap1\n        /* \"#utility.yul\":9516:9628   */\n      jump\t// out\n        /* \"#utility.yul\":10793:11042   */\n    tag_360:\n        /* \"#utility.yul\":10864:10874   */\n      0xffffffff\n        /* \"#utility.yul\":10906:10916   */\n      dup2\n      dup2\n      and\n        /* \"#utility.yul\":10918:10928   */\n      dup4\n      dup3\n      and\n        /* \"#utility.yul\":10902:10929   */\n      mul\n        /* \"#utility.yul\":10949:10969   */\n      dup1\n      dup3\n      and\n      swap2\n        /* \"#utility.yul\":10864:10874   */\n      swap1\n        /* \"#utility.yul\":10988:11012   */\n      dup3\n      dup2\n      eq\n        /* \"#utility.yul\":10978:11036   */\n      tag_667\n      jumpi\n        /* \"#utility.yul\":11016:11034   */\n      tag_667\n      tag_576\n      jump\t// in\n    tag_667:\n        /* \"#utility.yul\":10978:11036   */\n      pop\n      pop\n        /* \"#utility.yul\":10793:11042   */\n      swap3\n      swap2\n      pop\n      pop\n      jump\t// out\n        /* \"#utility.yul\":13980:14108   */\n    tag_428:\n        /* \"#utility.yul\":14047:14056   */\n      dup2\n      dup2\n      sub\n        /* \"#utility.yul\":14068:14079   */\n      dup2\n      dup2\n      gt\n        /* \"#utility.yul\":14065:14102   */\n      iszero\n      tag_221\n      jumpi\n        /* \"#utility.yul\":14082:14100   */\n      tag_221\n      tag_576\n      jump\t// in\n        /* \"#utility.yul\":14113:14281   */\n    tag_431:\n        /* \"#utility.yul\":14186:14195   */\n      dup1\n      dup3\n      mul\n        /* \"#utility.yul\":14217:14226   */\n      dup2\n      iszero\n        /* \"#utility.yul\":14234:14249   */\n      dup3\n      dup3\n      div\n        /* \"#utility.yul\":14228:14250   */\n      dup5\n      eq\n        /* \"#utility.yul\":14214:14251   */\n      or\n        /* \"#utility.yul\":14204:14275   */\n      tag_221\n      jumpi\n        /* \"#utility.yul\":14255:14273   */\n      tag_221\n      tag_576\n      jump\t// in\n        /* \"#utility.yul\":14286:14406   */\n    tag_434:\n        /* \"#utility.yul\":14326:14327   */\n      0x00\n        /* \"#utility.yul\":14352:14353   */\n      dup3\n        /* \"#utility.yul\":14342:14377   */\n      tag_684\n      jumpi\n        /* \"#utility.yul\":14357:14375   */\n      tag_684\n      tag_578\n      jump\t// in\n    tag_684:\n      pop\n        /* \"#utility.yul\":14391:14400   */\n      div\n      swap1\n        /* \"#utility.yul\":14286:14406   */\n      jump\t// out\n        /* \"#utility.yul\":17228:17355   */\n    tag_545:\n        /* \"#utility.yul\":17289:17299   */\n      0x4e487b71\n        /* \"#utility.yul\":17284:17287   */\n      0xe0\n        /* \"#utility.yul\":17280:17300   */\n      shl\n        /* \"#utility.yul\":17277:17278   */\n      0x00\n        /* \"#utility.yul\":17270:17301   */\n      mstore\n        /* \"#utility.yul\":17320:17324   */\n      0x41\n        /* \"#utility.yul\":17317:17318   */\n      0x04\n        /* \"#utility.yul\":17310:17325   */\n      mstore\n        /* \"#utility.yul\":17344:17348   */\n      0x24\n        /* \"#utility.yul\":17341:17342   */\n      0x00\n        /* \"#utility.yul\":17334:17349   */\n      revert\n        /* \"#utility.yul\":17360:17487   */\n    tag_549:\n        /* \"#utility.yul\":17421:17431   */\n      0x4e487b71\n        /* \"#utility.yul\":17416:17419   */\n      0xe0\n        /* \"#utility.yul\":17412:17432   */\n      shl\n        /* \"#utility.yul\":17409:17410   */\n      0x00\n        /* \"#utility.yul\":17402:17433   */\n      mstore\n        /* \"#utility.yul\":17452:17456   */\n      0x32\n        /* \"#utility.yul\":17449:17450   */\n      0x04\n        /* \"#utility.yul\":17442:17457   */\n      mstore\n        /* \"#utility.yul\":17476:17480   */\n      0x24\n        /* \"#utility.yul\":17473:17474   */\n      0x00\n        /* \"#utility.yul\":17466:17481   */\n      revert\n        /* \"#utility.yul\":17492:18472   */\n    tag_557:\n        /* \"#utility.yul\":17754:17758   */\n      0x00\n        /* \"#utility.yul\":17802:17805   */\n      0xa0\n        /* \"#utility.yul\":17791:17800   */\n      dup3\n        /* \"#utility.yul\":17787:17806   */\n      add\n        /* \"#utility.yul\":17833:17839   */\n      dup8\n        /* \"#utility.yul\":17822:17831   */\n      dup4\n        /* \"#utility.yul\":17815:17840   */\n      mstore\n        /* \"#utility.yul\":17859:17861   */\n      0x20\n        /* \"#utility.yul\":17897:17903   */\n      dup8\n        /* \"#utility.yul\":17892:17894   */\n      0x20\n        /* \"#utility.yul\":17881:17890   */\n      dup6\n        /* \"#utility.yul\":17877:17895   */\n      add\n        /* \"#utility.yul\":17870:17904   */\n      mstore\n        /* \"#utility.yul\":17940:17943   */\n      0xa0\n        /* \"#utility.yul\":17935:17937   */\n      0x40\n        /* \"#utility.yul\":17924:17933   */\n      dup6\n        /* \"#utility.yul\":17920:17938   */\n      add\n        /* \"#utility.yul\":17913:17944   */\n      mstore\n        /* \"#utility.yul\":17964:17970   */\n      dup2\n        /* \"#utility.yul\":17999:18005   */\n      dup8\n        /* \"#utility.yul\":17993:18006   */\n      mload\n        /* \"#utility.yul\":18030:18036   */\n      dup1\n        /* \"#utility.yul\":18022:18028   */\n      dup5\n        /* \"#utility.yul\":18015:18037   */\n      mstore\n        /* \"#utility.yul\":18068:18071   */\n      0xc0\n        /* \"#utility.yul\":18057:18066   */\n      dup7\n        /* \"#utility.yul\":18053:18072   */\n      add\n        /* \"#utility.yul\":18046:18072   */\n      swap2\n      pop\n        /* \"#utility.yul\":18107:18109   */\n      0x20\n        /* \"#utility.yul\":18099:18105   */\n      dup10\n        /* \"#utility.yul\":18095:18110   */\n      add\n        /* \"#utility.yul\":18081:18110   */\n      swap4\n      pop\n        /* \"#utility.yul\":18128:18129   */\n      0x00\n        /* \"#utility.yul\":18138:18333   */\n    tag_696:\n        /* \"#utility.yul\":18152:18158   */\n      dup2\n        /* \"#utility.yul\":18149:18150   */\n      dup2\n        /* \"#utility.yul\":18146:18159   */\n      lt\n        /* \"#utility.yul\":18138:18333   */\n      iszero\n      tag_698\n      jumpi\n        /* \"#utility.yul\":18217:18230   */\n      dup5\n      mload\n      sub(shl(0xa0, 0x01), 0x01)\n        /* \"#utility.yul\":18213:18252   */\n      and\n        /* \"#utility.yul\":18201:18253   */\n      dup4\n      mstore\n        /* \"#utility.yul\":18308:18323   */\n      swap4\n      dup4\n      add\n      swap4\n        /* \"#utility.yul\":18273:18285   */\n      swap2\n      dup4\n      add\n      swap2\n        /* \"#utility.yul\":18249:18250   */\n      0x01\n        /* \"#utility.yul\":18167:18176   */\n      add\n        /* \"#utility.yul\":18138:18333   */\n      jump(tag_696)\n    tag_698:\n      pop\n      pop\n      sub(shl(0xa0, 0x01), 0x01)\n        /* \"#utility.yul\":18389:18421   */\n      swap7\n      swap1\n      swap7\n      and\n        /* \"#utility.yul\":18384:18386   */\n      0x60\n        /* \"#utility.yul\":18369:18387   */\n      dup6\n      add\n        /* \"#utility.yul\":18362:18422   */\n      mstore\n      pop\n      pop\n      pop\n        /* \"#utility.yul\":18453:18456   */\n      0x80\n        /* \"#utility.yul\":18438:18457   */\n      add\n        /* \"#utility.yul\":18431:18466   */\n      mstore\n        /* \"#utility.yul\":18350:18353   */\n      swap4\n        /* \"#utility.yul\":17492:18472   */\n      swap3\n      pop\n      pop\n      pop\n      jump\t// out\n        /* \"#utility.yul\":18477:19582   */\n    tag_561:\n        /* \"#utility.yul\":18572:18578   */\n      0x00\n        /* \"#utility.yul\":18603:18605   */\n      0x20\n        /* \"#utility.yul\":18646:18648   */\n      dup1\n        /* \"#utility.yul\":18634:18643   */\n      dup4\n        /* \"#utility.yul\":18625:18632   */\n      dup6\n        /* \"#utility.yul\":18621:18644   */\n      sub\n        /* \"#utility.yul\":18617:18649   */\n      slt\n        /* \"#utility.yul\":18614:18666   */\n      iszero\n      tag_700\n      jumpi\n        /* \"#utility.yul\":18662:18663   */\n      0x00\n        /* \"#utility.yul\":18659:18660   */\n      dup1\n        /* \"#utility.yul\":18652:18664   */\n      revert\n        /* \"#utility.yul\":18614:18666   */\n    tag_700:\n        /* \"#utility.yul\":18695:18704   */\n      dup3\n        /* \"#utility.yul\":18689:18705   */\n      mload\n        /* \"#utility.yul\":18724:18742   */\n      0xffffffffffffffff\n        /* \"#utility.yul\":18765:18767   */\n      dup1\n        /* \"#utility.yul\":18757:18763   */\n      dup3\n        /* \"#utility.yul\":18754:18768   */\n      gt\n        /* \"#utility.yul\":18751:18785   */\n      iszero\n      tag_701\n      jumpi\n        /* \"#utility.yul\":18781:18782   */\n      0x00\n        /* \"#utility.yul\":18778:18779   */\n      dup1\n        /* \"#utility.yul\":18771:18783   */\n      revert\n        /* \"#utility.yul\":18751:18785   */\n    tag_701:\n        /* \"#utility.yul\":18819:18825   */\n      dup2\n        /* \"#utility.yul\":18808:18817   */\n      dup6\n        /* \"#utility.yul\":18804:18826   */\n      add\n        /* \"#utility.yul\":18794:18826   */\n      swap2\n      pop\n        /* \"#utility.yul\":18864:18871   */\n      dup6\n        /* \"#utility.yul\":18857:18861   */\n      0x1f\n        /* \"#utility.yul\":18853:18855   */\n      dup4\n        /* \"#utility.yul\":18849:18862   */\n      add\n        /* \"#utility.yul\":18845:18872   */\n      slt\n        /* \"#utility.yul\":18835:18890   */\n      tag_702\n      jumpi\n        /* \"#utility.yul\":18886:18887   */\n      0x00\n        /* \"#utility.yul\":18883:18884   */\n      dup1\n        /* \"#utility.yul\":18876:18888   */\n      revert\n        /* \"#utility.yul\":18835:18890   */\n    tag_702:\n        /* \"#utility.yul\":18915:18917   */\n      dup2\n        /* \"#utility.yul\":18909:18918   */\n      mload\n        /* \"#utility.yul\":18937:18939   */\n      dup2\n        /* \"#utility.yul\":18933:18935   */\n      dup2\n        /* \"#utility.yul\":18930:18940   */\n      gt\n        /* \"#utility.yul\":18927:18963   */\n      iszero\n      tag_704\n      jumpi\n        /* \"#utility.yul\":18943:18961   */\n      tag_704\n      tag_545\n      jump\t// in\n    tag_704:\n        /* \"#utility.yul\":18989:18991   */\n      dup1\n        /* \"#utility.yul\":18986:18987   */\n      0x05\n        /* \"#utility.yul\":18982:18992   */\n      shl\n        /* \"#utility.yul\":19021:19023   */\n      0x40\n        /* \"#utility.yul\":19015:19024   */\n      mload\n        /* \"#utility.yul\":19084:19086   */\n      0x1f\n        /* \"#utility.yul\":19080:19087   */\n      not\n        /* \"#utility.yul\":19075:19077   */\n      0x3f\n        /* \"#utility.yul\":19071:19073   */\n      dup4\n        /* \"#utility.yul\":19067:19078   */\n      add\n        /* \"#utility.yul\":19063:19088   */\n      and\n        /* \"#utility.yul\":19055:19061   */\n      dup2\n        /* \"#utility.yul\":19051:19089   */\n      add\n        /* \"#utility.yul\":19139:19145   */\n      dup2\n        /* \"#utility.yul\":19127:19137   */\n      dup2\n        /* \"#utility.yul\":19124:19146   */\n      lt\n        /* \"#utility.yul\":19119:19121   */\n      dup6\n        /* \"#utility.yul\":19107:19117   */\n      dup3\n        /* \"#utility.yul\":19104:19122   */\n      gt\n        /* \"#utility.yul\":19101:19147   */\n      or\n        /* \"#utility.yul\":19098:19170   */\n      iszero\n      tag_706\n      jumpi\n        /* \"#utility.yul\":19150:19168   */\n      tag_706\n      tag_545\n      jump\t// in\n    tag_706:\n        /* \"#utility.yul\":19186:19188   */\n      0x40\n        /* \"#utility.yul\":19179:19201   */\n      mstore\n        /* \"#utility.yul\":19236:19254   */\n      swap2\n      dup3\n      mstore\n        /* \"#utility.yul\":19270:19285   */\n      dup5\n      dup3\n      add\n      swap3\n      pop\n        /* \"#utility.yul\":19312:19323   */\n      dup4\n      dup2\n      add\n        /* \"#utility.yul\":19308:19328   */\n      dup6\n      add\n      swap2\n        /* \"#utility.yul\":19340:19359   */\n      dup9\n      dup4\n      gt\n        /* \"#utility.yul\":19337:19376   */\n      iszero\n      tag_707\n      jumpi\n        /* \"#utility.yul\":19372:19373   */\n      0x00\n        /* \"#utility.yul\":19369:19370   */\n      dup1\n        /* \"#utility.yul\":19362:19374   */\n      revert\n        /* \"#utility.yul\":19337:19376   */\n    tag_707:\n        /* \"#utility.yul\":19396:19407   */\n      swap4\n      dup6\n      add\n      swap4\n        /* \"#utility.yul\":19416:19551   */\n    tag_708:\n        /* \"#utility.yul\":19432:19438   */\n      dup3\n        /* \"#utility.yul\":19427:19430   */\n      dup6\n        /* \"#utility.yul\":19424:19439   */\n      lt\n        /* \"#utility.yul\":19416:19551   */\n      iszero\n      tag_472\n      jumpi\n        /* \"#utility.yul\":19498:19508   */\n      dup5\n      mload\n        /* \"#utility.yul\":19486:19509   */\n      dup5\n      mstore\n        /* \"#utility.yul\":19449:19461   */\n      swap4\n      dup6\n      add\n      swap4\n        /* \"#utility.yul\":19529:19541   */\n      swap3\n      dup6\n      add\n      swap3\n        /* \"#utility.yul\":19416:19551   */\n      jump(tag_708)\n        /* \"#utility.yul\":20199:20505   */\n    tag_570:\n        /* \"#utility.yul\":20287:20293   */\n      0x00\n        /* \"#utility.yul\":20295:20301   */\n      dup1\n        /* \"#utility.yul\":20303:20309   */\n      0x00\n        /* \"#utility.yul\":20356:20358   */\n      0x60\n        /* \"#utility.yul\":20344:20353   */\n      dup5\n        /* \"#utility.yul\":20335:20342   */\n      dup7\n        /* \"#utility.yul\":20331:20354   */\n      sub\n        /* \"#utility.yul\":20327:20359   */\n      slt\n        /* \"#utility.yul\":20324:20376   */\n      iszero\n      tag_713\n      jumpi\n        /* \"#utility.yul\":20372:20373   */\n      0x00\n        /* \"#utility.yul\":20369:20370   */\n      dup1\n        /* \"#utility.yul\":20362:20374   */\n      revert\n        /* \"#utility.yul\":20324:20376   */\n    tag_713:\n        /* \"#utility.yul\":20401:20410   */\n      dup4\n        /* \"#utility.yul\":20395:20411   */\n      mload\n        /* \"#utility.yul\":20385:20411   */\n      swap3\n      pop\n        /* \"#utility.yul\":20451:20453   */\n      0x20\n        /* \"#utility.yul\":20440:20449   */\n      dup5\n        /* \"#utility.yul\":20436:20454   */\n      add\n        /* \"#utility.yul\":20430:20455   */\n      mload\n        /* \"#utility.yul\":20420:20455   */\n      swap2\n      pop\n        /* \"#utility.yul\":20495:20497   */\n      0x40\n        /* \"#utility.yul\":20484:20493   */\n      dup5\n        /* \"#utility.yul\":20480:20498   */\n      add\n        /* \"#utility.yul\":20474:20499   */\n      mload\n        /* \"#utility.yul\":20464:20499   */\n      swap1\n      pop\n        /* \"#utility.yul\":20199:20505   */\n      swap3\n      pop\n      swap3\n      pop\n      swap3\n      jump\t// out\n\n    auxdata: 0xa26469706673582212209064509e96eb5ad31add3e9439730d8e3bca74dffe7f1b1ff9ec2c52023a7d4264736f6c63430008190033\n}\n",
				"bytecode": {
					"linkReferences": {},
					"object": "608060405260646006556100216103e86b033b2e3c9fd0803ce80000006103f6565b60085534801561002f575f80fd5b506040518060400160405280600981526020016826b2b6b29021b7b4b760b91b815250604051806040016040528060048152602001634d454d4560e01b815250816003908161007e91906104ac565b50600461008b82826104ac565b5050506100a461009f61015460201b60201c565b610158565b6100ad33610158565b6100c3336b033b2e3c9fd0803ce80000006101a9565b601280546001600160a01b0319167310ed43c718714eb63d5aa57b78b54704e256024e1790556100f161026a565b604080516080810182525f80825260208083018290528284018290526060909201819052600780546001600160401b03191690553381526014909152818120805460ff1990811660019081179092553083529290912080549092161790556105bd565b3390565b600580546001600160a01b038381166001600160a01b0319831681179093556040519116919082907f8be0079c531659141344cd1fd0a4f28419497f9722a3daafe3b4186f6b6457e0905f90a35050565b6001600160a01b0382166102035760405162461bcd60e51b815260206004820152601f60248201527f45524332303a206d696e7420746f20746865207a65726f206164647265737300604482015260640160405180910390fd5b8060025f828254610214919061056b565b90915550506001600160a01b0382165f81815260208181526040808320805486019055518481527fddf252ad1be2c89b69c2b068fc378daa952ba7f163c4a11628f55a4df523b3ef910160405180910390a35050565b60125f9054906101000a90046001600160a01b03166001600160a01b031663c45a01556040518163ffffffff1660e01b8152600401602060405180830381865afa1580156102ba573d5f803e3d5ffd5b505050506040513d601f19601f820116820180604052508101906102de9190610590565b6001600160a01b031663c9c653963060125f9054906101000a90046001600160a01b03166001600160a01b031663ad5c46486040518163ffffffff1660e01b8152600401602060405180830381865afa15801561033d573d5f803e3d5ffd5b505050506040513d601f19601f820116820180604052508101906103619190610590565b6040516001600160e01b031960e085901b1681526001600160a01b039283166004820152911660248201526044016020604051808303815f875af11580156103ab573d5f803e3d5ffd5b505050506040513d601f19601f820116820180604052508101906103cf9190610590565b601380546001600160a01b0319166001600160a01b0392909216919091179055565b505050565b5f8261041057634e487b7160e01b5f52601260045260245ffd5b500490565b634e487b7160e01b5f52604160045260245ffd5b600181811c9082168061043d57607f821691505b60208210810361045b57634e487b7160e01b5f52602260045260245ffd5b50919050565b601f8211156103f157805f5260205f20601f840160051c810160208510156104865750805b601f840160051c820191505b818110156104a5575f8155600101610492565b5050505050565b81516001600160401b038111156104c5576104c5610415565b6104d9816104d38454610429565b84610461565b602080601f83116001811461050c575f84156104f55750858301515b5f19600386901b1c1916600185901b178555610563565b5f85815260208120601f198616915b8281101561053a5788860151825594840194600190910190840161051b565b508582101561055757878501515f19600388901b60f8161c191681555b505060018460011b0185555b505050505050565b8082018082111561058a57634e487b7160e01b5f52601160045260245ffd5b92915050565b5f602082840312156105a0575f80fd5b81516001600160a01b03811681146105b6575f80fd5b9392505050565b612496806105ca5f395ff3fe6080604052600436106101ff575f3560e01c80638f9a55c011610113578063ad5dff731161009d578063d8d61c401161006d578063d8d61c4014610678578063dd62ed3e1461068d578063f2fde38b146106ac578063fe0bb982146106cb578063fe6b751e146106ea575f80fd5b8063ad5dff73146105b2578063c0d78655146105e0578063c531b108146105ff578063c95457ff14610614575f80fd5b80639d82190f116100e35780639d82190f146104f75780639fde54f514610536578063a457c2d714610555578063a8b0898214610574578063a9059cbb14610593575f80fd5b80638f9a55c01461049c5780639491f94d146104b057806395d89b41146104c4578063960bfe04146104d8575f80fd5b8063333f4b3d11610194578063715018a611610164578063715018a6146103f65780637773168f1461040a578063787a08a61461041e5780637a845ece146104605780638da5cb5b1461047f575f80fd5b8063333f4b3d14610328578063395093511461038e578063599ca397146103ad57806370a08231146103c2575f80fd5b806318160ddd116101cf57806318160ddd146102a357806323b872dd146102b7578063313ce567146102d65780633268cc56146102f1575f80fd5b80630445b6671461020a57806306fdde0314610232578063095ea7b3146102535780631569d18114610282575f80fd5b3661020657005b5f80fd5b348015610215575f80fd5b5061021f60085481565b6040519081526020015b60405180910390f35b34801561023d575f80fd5b50610246610709565b6040516102299190611f2d565b34801561025e575f80fd5b5061027261026d366004611f76565b610799565b6040519015158152602001610229565b34801561028d575f80fd5b506102a161029c366004611fb6565b6107b2565b005b3480156102ae575f80fd5b5060025461021f565b3480156102c2575f80fd5b506102726102d1366004612007565b6108df565b3480156102e1575f80fd5b5060405160128152602001610229565b3480156102fc575f80fd5b50601254610310906001600160a01b031681565b6040516001600160a01b039091168152602001610229565b348015610333575f80fd5b506007546103609061ffff80821691620100008104821691600160201b8204811691600160301b90041684565b6040805161ffff95861681529385166020850152918416918301919091529091166060820152608001610229565b348015610399575f80fd5b506102726103a8366004611f76565b610904565b3480156103b8575f80fd5b5061021f60065481565b3480156103cd575f80fd5b5061021f6103dc366004612045565b6001600160a01b03165f9081526020819052604090205490565b348015610401575f80fd5b506102a1610925565b348015610415575f80fd5b5061021f610938565b348015610429575f80fd5b50600c546104449060ff811690610100900463ffffffff1682565b60408051921515835263ffffffff909116602083015201610229565b34801561046b575f80fd5b506102a161047a366004612060565b6109b7565b34801561048a575f80fd5b506005546001600160a01b0316610310565b3480156104a7575f80fd5b5061021f610a42565b3480156104bb575f80fd5b5061021f610a6f565b3480156104cf575f80fd5b50610246610be1565b3480156104e3575f80fd5b506102a16104f2366004612060565b610bf0565b348015610502575f80fd5b50610516610511366004612045565b610bfd565b604080519485526020850193909352918301526060820152608001610229565b348015610541575f80fd5b506102a1610550366004612086565b610ca9565b348015610560575f80fd5b5061027261056f366004611f76565b610cdb565b34801561057f575f80fd5b50601354610310906001600160a01b031681565b34801561059e575f80fd5b506102726105ad366004611f76565b610d60565b3480156105bd575f80fd5b506102726105cc366004612045565b60146020525f908152604090205460ff1681565b3480156105eb575f80fd5b506102a16105fa366004612045565b610d6d565b34801561060a575f80fd5b5061021f600a5481565b34801561061f575f80fd5b50600e54600f546010546011546106499360ff8082169461010090920461ffff1693919291169085565b60408051951515865261ffff90941660208601529284019190915215156060830152608082015260a001610229565b348015610683575f80fd5b5061021f60095481565b348015610698575f80fd5b5061021f6106a73660046120b9565b610dd1565b3480156106b7575f80fd5b506102a16106c6366004612045565b610dfb565b3480156106d6575f80fd5b506102a16106e53660046120f0565b610e74565b3480156106f5575f80fd5b506102a1610704366004612129565b610ef1565b60606003805461071890612153565b80601f016020809104026020016040519081016040528092919081815260200182805461074490612153565b801561078f5780601f106107665761010080835404028352916020019161078f565b820191905f5260205f20905b81548152906001019060200180831161077257829003601f168201915b5050505050905090565b5f336107a6818585610f37565b60019150505b92915050565b6107ba61105a565b6109c46107c7848661219f565b61ffff1611156108105760405162461bcd60e51b815260206004820152600f60248201526e09ac2f040646a4a40c4eaf240e8c2f608b1b60448201526064015b60405180910390fd5b6109c461081d828461219f565b61ffff1611156108625760405162461bcd60e51b815260206004820152601060248201526f09ac2f040646a4a40e6cad8d840e8c2f60831b6044820152606401610807565b6040805160808101825261ffff958616808252948616602082018190529386169181018290529190941660609091018190526007805463ffffffff1916909317620100009092029190911767ffffffff000000001916600160201b90930267ffff000000000000191692909217600160301b909202919091179055565b5f336108ec8582856110b4565b6108f785858561112c565b60019150505b9392505050565b5f336107a68185856109168383610dd1565b61092091906121c1565b610f37565b61092d61105a565b6109365f6113fc565b565b600f545f90810361094857505f90565b5f610951610a6f565b600f54909150811161099457600f5461098690610980670de0b6b3a764000061097a838661144d565b90611458565b90611463565b61098f906121d4565b6109b1565b600f546109b190610980670de0b6b3a764000061097a858461144d565b91505090565b6109bf61105a565b6064811015610a065760405162461bcd60e51b815260206004820152601360248201527213585e080c49481dd85b1b195d081b1a5b5a5d606a1b6044820152606401610807565b60068190556040518181527f12528a3c61e0f3b2d6fc707a9fc58b1af86e252cad0d7f4c154ebeabb162dace906020015b60405180910390a150565b5f610a6a6127106109806006546b033b2e3c9fd0803ce800000061145890919063ffffffff16565b905090565b5f805f60135f9054906101000a90046001600160a01b03166001600160a01b0316630902f1ac6040518163ffffffff1660e01b8152600401606060405180830381865afa158015610ac2573d5f803e3d5ffd5b505050506040513d601f19601f82011682018060405250810190610ae69190612204565b5091509150816001600160701b03165f1480610b0957506001600160701b038116155b15610b16575f9250505090565b60135460408051630dfe168160e01b8152905130926001600160a01b031691630dfe16819160048083019260209291908290030181865afa158015610b5d573d5f803e3d5ffd5b505050506040513d601f19601f82011682018060405250810190610b819190612248565b6001600160a01b031614610bb757610bb26001600160701b0380831690610980908516670de0b6b3a7640000611458565b610bda565b610bda6001600160701b0380841690610980908416670de0b6b3a7640000611458565b9250505090565b60606004805461071890612153565b610bf861105a565b600855565b6001600160a01b0381165f908152600d602052604081205481908190819081904210610c29575f610c4b565b6001600160a01b0386165f908152600d6020526040902054610c4b904261144d565b9050610c5a8162015180611463565b9450610c696201518082612277565b9050610c7781610e10611463565b9350610c85610e1082612277565b9050610c9281603c611463565b9250610c9f603c82612277565b9150509193509193565b610cb161105a565b6001600160a01b03919091165f908152601460205260409020805460ff1916911515919091179055565b5f3381610ce88286610dd1565b905083811015610d485760405162461bcd60e51b815260206004820152602560248201527f45524332303a2064656372656173656420616c6c6f77616e63652062656c6f77604482015264207a65726f60d81b6064820152608401610807565b610d558286868403610f37565b506001949350505050565b5f336107a681858561112c565b610d7561105a565b601280546001600160a01b0319166001600160a01b038316179055610d9861146e565b6040516001600160a01b03821681527f7aed1d3e8155a07ccf395e44ea3109a0e2d6c9b29bbbe9f142d9790596f4dc8090602001610a37565b6001600160a01b039182165f90815260016020908152604080832093909416825291909152205490565b610e0361105a565b6001600160a01b038116610e685760405162461bcd60e51b815260206004820152602660248201527f4f776e61626c653a206e6577206f776e657220697320746865207a65726f206160448201526564647265737360d01b6064820152608401610807565b610e71816113fc565b50565b610e7c61105a565b6127108161ffff161115610ec75760405162461bcd60e51b8152602060048201526012602482015271496e76616c69642070657263656e7461676560701b6044820152606401610807565b600e805462ffffff191692151562ffff0019169290921761010061ffff9290921691909102179055565b610ef961105a565b600c805460ff1916831515179055610f1281603c61228a565b600c805463ffffffff929092166101000264ffffffff00199092169190911790555050565b6001600160a01b038316610f995760405162461bcd60e51b8152602060048201526024808201527f45524332303a20617070726f76652066726f6d20746865207a65726f206164646044820152637265737360e01b6064820152608401610807565b6001600160a01b038216610ffa5760405162461bcd60e51b815260206004820152602260248201527f45524332303a20617070726f766520746f20746865207a65726f206164647265604482015261737360f01b6064820152608401610807565b6001600160a01b038381165f8181526001602090815260408083209487168084529482529182902085905590518481527f8c5be1e5ebec7d5bd14f71427d1e84f3dd0314c0f7b2291e5b200ac8c7c3b925910160405180910390a3505050565b6005546001600160a01b031633146109365760405162461bcd60e51b815260206004820181905260248201527f4f776e61626c653a2063616c6c6572206973206e6f7420746865206f776e65726044820152606401610807565b5f6110bf8484610dd1565b90505f19811461112657818110156111195760405162461bcd60e51b815260206004820152601d60248201527f45524332303a20696e73756666696369656e7420616c6c6f77616e63650000006044820152606401610807565b6111268484848403610f37565b50505050565b5f811161117b5760405162461bcd60e51b815260206004820152601a60248201527f5472616e7366657220616d6f756e74206d757374206265203e300000000000006044820152606401610807565b6013545f906001600160a01b0385811691161480156111b257506001600160a01b0383165f9081526014602052604090205460ff16155b6013549091505f906001600160a01b0385811691161480156111ec57506001600160a01b0385165f9081526014602052604090205460ff16155b600e5490915060ff1680156111fe5750805b1561125e5760105460ff16156112565760405162461bcd60e51b815260206004820152601e60248201527f53656c6c732073746f70706564206279204469616d6f6e6420466c6f6f7200006044820152606401610807565b61125e6115f5565b600c5460ff16801561126d5750805b156112fc576001600160a01b0385165f908152600d60205260409020544210156112cb5760405162461bcd60e51b815260206004820152600f60248201526e436f6f6c646f776e2061637469766560881b6044820152606401610807565b600c546112e390610100900463ffffffff16426121c1565b6001600160a01b0386165f908152600d60205260409020555b5f6113088686866116a7565b90505f611315858361144d565b6001600160a01b0387165f9081526014602052604090205490915060ff1615801561133e575082155b156113b75761134b610a42565b6113738261136d896001600160a01b03165f9081526020819052604090205490565b906117ca565b11156113b75760405162461bcd60e51b815260206004820152601360248201527213585e081dd85b1b195d08195e18d959591959606a1b6044820152606401610807565b81156113d3576113c88730846117d5565b6113d3828585611977565b6113de8787836117d5565b6113e6611b91565b156113f3576113f3611bd0565b50505050505050565b600580546001600160a01b038381166001600160a01b0319831681179093556040519116919082907f8be0079c531659141344cd1fd0a4f28419497f9722a3daafe3b4186f6b6457e0905f90a35050565b5f6108fd82846122b2565b5f6108fd82846122c5565b5f6108fd82846122dc565b60125f9054906101000a90046001600160a01b03166001600160a01b031663c45a01556040518163ffffffff1660e01b8152600401602060405180830381865afa1580156114be573d5f803e3d5ffd5b505050506040513d601f19601f820116820180604052508101906114e29190612248565b6001600160a01b031663c9c653963060125f9054906101000a90046001600160a01b03166001600160a01b031663ad5c46486040518163ffffffff1660e01b8152600401602060405180830381865afa158015611541573d5f803e3d5ffd5b505050506040513d601f19601f820116820180604052508101906115659190612248565b6040516001600160e01b031960e085901b1681526001600160a01b039283166004820152911660248201526044016020604051808303815f875af11580156115af573d5f803e3d5ffd5b505050506040513d601f19601f820116820180604052508101906115d39190612248565b601380546001600160a01b0319166001600160a01b0392909216919091179055565b5f6115fe610a6f565b9050805f0361160a5750565b600f5481111561162357600f556010805460ff19169055565b600e545f90611651906127109061098090611648908390610100900461ffff1661144d565b600f5490611458565b90508082101561166f576010805460ff19166001179055600f546011555b60105460ff16801561168e575060115461168a906002611458565b8210155b156116a3576010805460ff19169055600f8290555b5050565b6001600160a01b0383165f9081526014602052604081205460ff16806116e457506001600160a01b0383165f9081526014602052604090205460ff165b156116f057505f6108fd565b6013546001600160a01b0390811685821681149185161481156117435760075461173a9061271090610980906117339061ffff80821691620100009004166117ca565b8790611458565b925050506108fd565b80156117765760075461173a9061271090610980906117339061ffff600160201b8204811691600160301b9004166117ca565b6007545f906117999061ffff600160201b8204811691600160301b9004166117ca565b90505f6117ac600a610980846023611458565b90506117be6127106109808884611458565b98975050505050505050565b5f6108fd82846121c1565b6001600160a01b0383166118395760405162461bcd60e51b815260206004820152602560248201527f45524332303a207472616e736665722066726f6d20746865207a65726f206164604482015264647265737360d81b6064820152608401610807565b6001600160a01b03821661189b5760405162461bcd60e51b815260206004820152602360248201527f45524332303a207472616e7366657220746f20746865207a65726f206164647260448201526265737360e81b6064820152608401610807565b6001600160a01b0383165f90815260208190526040902054818110156119125760405162461bcd60e51b815260206004820152602660248201527f45524332303a207472616e7366657220616d6f756e7420657863656564732062604482015265616c616e636560d01b6064820152608401610807565b6001600160a01b038481165f81815260208181526040808320878703905593871680835291849020805487019055925185815290927fddf252ad1be2c89b69c2b068fc378daa952ba7f163c4a11628f55a4df523b3ef910160405180910390a3611126565b5f8083156119fe576007545f9061199b9061ffff80821691620100009004166117ca565b90505f81116119de5760405162461bcd60e51b815260206004820152600f60248201526e109d5e481d185e081b9bdd081cd95d608a1b6044820152606401610807565b6007546119f690829061098090899061ffff16611458565b925050611b24565b8215611a8a576007545f90611a279061ffff600160201b8204811691600160301b9004166117ca565b90505f8111611a6b5760405162461bcd60e51b815260206004820152601060248201526f14d95b1b081d185e081b9bdd081cd95d60821b6044820152606401610807565b6007546119f6908290610980908990600160201b900461ffff16611458565b6007545f90611aad9061ffff600160201b8204811691600160301b9004166117ca565b90505f8111611af55760405162461bcd60e51b8152602060048201526014602482015273151c985b9cd9995c881d185e081b9bdd081cd95d60621b6044820152606401610807565b600754611b2090600a906109809060239061097a90869084908d90600160201b900461ffff16611458565b9250505b611b2e858361144d565b600954909150611b3e90836117ca565b600955600a54611b4e90826117ca565b600a5560408051838152602081018390527ff2d9f3f00fc700757eb74f9aa3dba0e2eb1280e0c6e0cf65962cc055528d7a90910160405180910390a15050505050565b600b545f9060ff16158015611bb65750600854600a54600954611bb3916117ca565b10155b8015610a6a5750506013546001600160a01b031633141590565b5f611be8600a546009546117ca90919063ffffffff16565b9050600854811015611bf75750565b600b805460ff19166001179055600a544790611c1290611cc1565b5f611c1d478361144d565b9050611c316005546001600160a01b031690565b6001600160a01b03166108fc8290811502906040515f60405180830381858888f19350505050158015611c66573d5f803e3d5ffd5b506009545f611c76826002611463565b9050611c8181611cc1565b5f611c8c478561144d565b9050611ca1611c9b848461144d565b82611e22565b50505f6009819055600a555050600b805460ff191690555050565b505050565b6040805160028082526060820183525f9260208301908036833701905050905030815f81518110611cf457611cf4612303565b6001600160a01b03928316602091820292909201810191909152601254604080516315ab88c960e31b81529051919093169263ad5c46489260048083019391928290030181865afa158015611d4b573d5f803e3d5ffd5b505050506040513d601f19601f82011682018060405250810190611d6f9190612248565b81600181518110611d8257611d82612303565b6001600160a01b039283166020918202929092010152601254611da89130911684610f37565b6012546040516318cbafe560e01b81526001600160a01b03909116906318cbafe590611de09085905f90869030904290600401612317565b5f604051808303815f875af1158015611dfb573d5f803e3d5ffd5b505050506040513d5f823e601f3d908101601f19168201604052611cbc9190810190612388565b601254611e3a9030906001600160a01b031684610f37565b6012546001600160a01b031663f305d7198230855f80611e626005546001600160a01b031690565b60405160e088901b6001600160e01b03191681526001600160a01b03958616600482015260248101949094526044840192909252606483015290911660848201524260a482015260c40160606040518083038185885af1158015611ec8573d5f803e3d5ffd5b50505050506040513d601f19601f82011682018060405250810190611eed9190612435565b505060408051848152602081018490527f38f8a0c92f4c5b0b6877f878cb4c0c8d348a47b76d716c8e78f425043df9515b92500160405180910390a15050565b602081525f82518060208401528060208501604085015e5f604082850101526040601f19601f83011684010191505092915050565b6001600160a01b0381168114610e71575f80fd5b5f8060408385031215611f87575f80fd5b8235611f9281611f62565b946020939093013593505050565b803561ffff81168114611fb1575f80fd5b919050565b5f805f8060808587031215611fc9575f80fd5b611fd285611fa0565b9350611fe060208601611fa0565b9250611fee60408601611fa0565b9150611ffc60608601611fa0565b905092959194509250565b5f805f60608486031215612019575f80fd5b833561202481611f62565b9250602084013561203481611f62565b929592945050506040919091013590565b5f60208284031215612055575f80fd5b81356108fd81611f62565b5f60208284031215612070575f80fd5b5035919050565b80358015158114611fb1575f80fd5b5f8060408385031215612097575f80fd5b82356120a281611f62565b91506120b060208401612077565b90509250929050565b5f80604083850312156120ca575f80fd5b82356120d581611f62565b915060208301356120e581611f62565b809150509250929050565b5f8060408385031215612101575f80fd5b61210a83612077565b91506120b060208401611fa0565b63ffffffff81168114610e71575f80fd5b5f806040838503121561213a575f80fd5b61214383612077565b915060208301356120e581612118565b600181811c9082168061216757607f821691505b60208210810361218557634e487b7160e01b5f52602260045260245ffd5b50919050565b634e487b7160e01b5f52601160045260245ffd5b61ffff8181168382160190808211156121ba576121ba61218b565b5092915050565b808201808211156107ac576107ac61218b565b5f600160ff1b82016121e8576121e861218b565b505f0390565b80516001600160701b0381168114611fb1575f80fd5b5f805f60608486031215612216575f80fd5b61221f846121ee565b925061222d602085016121ee565b9150604084015161223d81612118565b809150509250925092565b5f60208284031215612258575f80fd5b81516108fd81611f62565b634e487b7160e01b5f52601260045260245ffd5b5f8261228557612285612263565b500690565b63ffffffff8181168382160280821691908281146122aa576122aa61218b565b505092915050565b818103818111156107ac576107ac61218b565b80820281158282048414176107ac576107ac61218b565b5f826122ea576122ea612263565b500490565b634e487b7160e01b5f52604160045260245ffd5b634e487b7160e01b5f52603260045260245ffd5b5f60a08201878352602087602085015260a0604085015281875180845260c0860191506020890193505f5b818110156123675784516001600160a01b031683529383019391830191600101612342565b50506001600160a01b03969096166060850152505050608001529392505050565b5f6020808385031215612399575f80fd5b825167ffffffffffffffff808211156123b0575f80fd5b818501915085601f8301126123c3575f80fd5b8151818111156123d5576123d56122ef565b8060051b604051601f19603f830116810181811085821117156123fa576123fa6122ef565b604052918252848201925083810185019188831115612417575f80fd5b938501935b828510156117be5784518452938501939285019261241c565b5f805f60608486031215612447575f80fd5b835192506020840151915060408401519050925092509256fea26469706673582212209064509e96eb5ad31add3e9439730d8e3bca74dffe7f1b1ff9ec2c52023a7d4264736f6c63430008190033",
					"opcodes": "PUSH1 0x80 PUSH1 0x40 MSTORE PUSH1 0x64 PUSH1 0x6 SSTORE PUSH2 0x21 PUSH2 0x3E8 PUSH12 0x33B2E3C9FD0803CE8000000 PUSH2 0x3F6 JUMP JUMPDEST PUSH1 0x8 SSTORE CALLVALUE DUP1 ISZERO PUSH2 0x2F JUMPI PUSH0 DUP1 REVERT JUMPDEST POP PUSH1 0x40 MLOAD DUP1 PUSH1 0x40 ADD PUSH1 0x40 MSTORE DUP1 PUSH1 0x9 DUP2 MSTORE PUSH1 0x20 ADD PUSH9 0x26B2B6B29021B7B4B7 PUSH1 0xB9 SHL DUP2 MSTORE POP PUSH1 0x40 MLOAD DUP1 PUSH1 0x40 ADD PUSH1 0x40 MSTORE DUP1 PUSH1 0x4 DUP2 MSTORE PUSH1 0x20 ADD PUSH4 0x4D454D45 PUSH1 0xE0 SHL DUP2 MSTORE POP DUP2 PUSH1 0x3 SWAP1 DUP2 PUSH2 0x7E SWAP2 SWAP1 PUSH2 0x4AC JUMP JUMPDEST POP PUSH1 0x4 PUSH2 0x8B DUP3 DUP3 PUSH2 0x4AC JUMP JUMPDEST POP POP POP PUSH2 0xA4 PUSH2 0x9F PUSH2 0x154 PUSH1 0x20 SHL PUSH1 0x20 SHR JUMP JUMPDEST PUSH2 0x158 JUMP JUMPDEST PUSH2 0xAD CALLER PUSH2 0x158 JUMP JUMPDEST PUSH2 0xC3 CALLER PUSH12 0x33B2E3C9FD0803CE8000000 PUSH2 0x1A9 JUMP JUMPDEST PUSH1 0x12 DUP1 SLOAD PUSH1 0x1 PUSH1 0x1 PUSH1 0xA0 SHL SUB NOT AND PUSH20 0x10ED43C718714EB63D5AA57B78B54704E256024E OR SWAP1 SSTORE PUSH2 0xF1 PUSH2 0x26A JUMP JUMPDEST PUSH1 0x40 DUP1 MLOAD PUSH1 0x80 DUP2 ADD DUP3 MSTORE PUSH0 DUP1 DUP3 MSTORE PUSH1 0x20 DUP1 DUP4 ADD DUP3 SWAP1 MSTORE DUP3 DUP5 ADD DUP3 SWAP1 MSTORE PUSH1 0x60 SWAP1 SWAP3 ADD DUP2 SWAP1 MSTORE PUSH1 0x7 DUP1 SLOAD PUSH1 0x1 PUSH1 0x1 PUSH1 0x40 SHL SUB NOT AND SWAP1 SSTORE CALLER DUP2 MSTORE PUSH1 0x14 SWAP1 SWAP2 MSTORE DUP2 DUP2 KECCAK256 DUP1 SLOAD PUSH1 0xFF NOT SWAP1 DUP2 AND PUSH1 0x1 SWAP1 DUP2 OR SWAP1 SWAP3 SSTORE ADDRESS DUP4 MSTORE SWAP3 SWAP1 SWAP2 KECCAK256 DUP1 SLOAD SWAP1 SWAP3 AND OR SWAP1 SSTORE PUSH2 0x5BD JUMP JUMPDEST CALLER SWAP1 JUMP JUMPDEST PUSH1 0x5 DUP1 SLOAD PUSH1 0x1 PUSH1 0x1 PUSH1 0xA0 SHL SUB DUP4 DUP2 AND PUSH1 0x1 PUSH1 0x1 PUSH1 0xA0 SHL SUB NOT DUP4 AND DUP2 OR SWAP1 SWAP4 SSTORE PUSH1 0x40 MLOAD SWAP2 AND SWAP2 SWAP1 DUP3 SWAP1 PUSH32 0x8BE0079C531659141344CD1FD0A4F28419497F9722A3DAAFE3B4186F6B6457E0 SWAP1 PUSH0 SWAP1 LOG3 POP POP JUMP JUMPDEST PUSH1 0x1 PUSH1 0x1 PUSH1 0xA0 SHL SUB DUP3 AND PUSH2 0x203 JUMPI PUSH1 0x40 MLOAD PUSH3 0x461BCD PUSH1 0xE5 SHL DUP2 MSTORE PUSH1 0x20 PUSH1 0x4 DUP3 ADD MSTORE PUSH1 0x1F PUSH1 0x24 DUP3 ADD MSTORE PUSH32 0x45524332303A206D696E7420746F20746865207A65726F206164647265737300 PUSH1 0x44 DUP3 ADD MSTORE PUSH1 0x64 ADD PUSH1 0x40 MLOAD DUP1 SWAP2 SUB SWAP1 REVERT JUMPDEST DUP1 PUSH1 0x2 PUSH0 DUP3 DUP3 SLOAD PUSH2 0x214 SWAP2 SWAP1 PUSH2 0x56B JUMP JUMPDEST SWAP1 SWAP2 SSTORE POP POP PUSH1 0x1 PUSH1 0x1 PUSH1 0xA0 SHL SUB DUP3 AND PUSH0 DUP2 DUP2 MSTORE PUSH1 0x20 DUP2 DUP2 MSTORE PUSH1 0x40 DUP1 DUP4 KECCAK256 DUP1 SLOAD DUP7 ADD SWAP1 SSTORE MLOAD DUP5 DUP2 MSTORE PUSH32 0xDDF252AD1BE2C89B69C2B068FC378DAA952BA7F163C4A11628F55A4DF523B3EF SWAP2 ADD PUSH1 0x40 MLOAD DUP1 SWAP2 SUB SWAP1 LOG3 POP POP JUMP JUMPDEST PUSH1 0x12 PUSH0 SWAP1 SLOAD SWAP1 PUSH2 0x100 EXP SWAP1 DIV PUSH1 0x1 PUSH1 0x1 PUSH1 0xA0 SHL SUB AND PUSH1 0x1 PUSH1 0x1 PUSH1 0xA0 SHL SUB AND PUSH4 0xC45A0155 PUSH1 0x40 MLOAD DUP2 PUSH4 0xFFFFFFFF AND PUSH1 0xE0 SHL DUP2 MSTORE PUSH1 0x4 ADD PUSH1 0x20 PUSH1 0x40 MLOAD DUP1 DUP4 SUB DUP2 DUP7 GAS STATICCALL ISZERO DUP1 ISZERO PUSH2 0x2BA JUMPI RETURNDATASIZE PUSH0 DUP1 RETURNDATACOPY RETURNDATASIZE PUSH0 REVERT JUMPDEST POP POP POP POP PUSH1 0x40 MLOAD RETURNDATASIZE PUSH1 0x1F NOT PUSH1 0x1F DUP3 ADD AND DUP3 ADD DUP1 PUSH1 0x40 MSTORE POP DUP2 ADD SWAP1 PUSH2 0x2DE SWAP2 SWAP1 PUSH2 0x590 JUMP JUMPDEST PUSH1 0x1 PUSH1 0x1 PUSH1 0xA0 SHL SUB AND PUSH4 0xC9C65396 ADDRESS PUSH1 0x12 PUSH0 SWAP1 SLOAD SWAP1 PUSH2 0x100 EXP SWAP1 DIV PUSH1 0x1 PUSH1 0x1 PUSH1 0xA0 SHL SUB AND PUSH1 0x1 PUSH1 0x1 PUSH1 0xA0 SHL SUB AND PUSH4 0xAD5C4648 PUSH1 0x40 MLOAD DUP2 PUSH4 0xFFFFFFFF AND PUSH1 0xE0 SHL DUP2 MSTORE PUSH1 0x4 ADD PUSH1 0x20 PUSH1 0x40 MLOAD DUP1 DUP4 SUB DUP2 DUP7 GAS STATICCALL ISZERO DUP1 ISZERO PUSH2 0x33D JUMPI RETURNDATASIZE PUSH0 DUP1 RETURNDATACOPY RETURNDATASIZE PUSH0 REVERT JUMPDEST POP POP POP POP PUSH1 0x40 MLOAD RETURNDATASIZE PUSH1 0x1F NOT PUSH1 0x1F DUP3 ADD AND DUP3 ADD DUP1 PUSH1 0x40 MSTORE POP DUP2 ADD SWAP1 PUSH2 0x361 SWAP2 SWAP1 PUSH2 0x590 JUMP JUMPDEST PUSH1 0x40 MLOAD PUSH1 0x1 PUSH1 0x1 PUSH1 0xE0 SHL SUB NOT PUSH1 0xE0 DUP6 SWAP1 SHL AND DUP2 MSTORE PUSH1 0x1 PUSH1 0x1 PUSH1 0xA0 SHL SUB SWAP3 DUP4 AND PUSH1 0x4 DUP3 ADD MSTORE SWAP2 AND PUSH1 0x24 DUP3 ADD MSTORE PUSH1 0x44 ADD PUSH1 0x20 PUSH1 0x40 MLOAD DUP1 DUP4 SUB DUP2 PUSH0 DUP8 GAS CALL ISZERO DUP1 ISZERO PUSH2 0x3AB JUMPI RETURNDATASIZE PUSH0 DUP1 RETURNDATACOPY RETURNDATASIZE PUSH0 REVERT JUMPDEST POP POP POP POP PUSH1 0x40 MLOAD RETURNDATASIZE PUSH1 0x1F NOT PUSH1 0x1F DUP3 ADD AND DUP3 ADD DUP1 PUSH1 0x40 MSTORE POP DUP2 ADD SWAP1 PUSH2 0x3CF SWAP2 SWAP1 PUSH2 0x590 JUMP JUMPDEST PUSH1 0x13 DUP1 SLOAD PUSH1 0x1 PUSH1 0x1 PUSH1 0xA0 SHL SUB NOT AND PUSH1 0x1 PUSH1 0x1 PUSH1 0xA0 SHL SUB SWAP3 SWAP1 SWAP3 AND SWAP2 SWAP1 SWAP2 OR SWAP1 SSTORE JUMP JUMPDEST POP POP POP JUMP JUMPDEST PUSH0 DUP3 PUSH2 0x410 JUMPI PUSH4 0x4E487B71 PUSH1 0xE0 SHL PUSH0 MSTORE PUSH1 0x12 PUSH1 0x4 MSTORE PUSH1 0x24 PUSH0 REVERT JUMPDEST POP DIV SWAP1 JUMP JUMPDEST PUSH4 0x4E487B71 PUSH1 0xE0 SHL PUSH0 MSTORE PUSH1 0x41 PUSH1 0x4 MSTORE PUSH1 0x24 PUSH0 REVERT JUMPDEST PUSH1 0x1 DUP2 DUP2 SHR SWAP1 DUP3 AND DUP1 PUSH2 0x43D JUMPI PUSH1 0x7F DUP3 AND SWAP2 POP JUMPDEST PUSH1 0x20 DUP3 LT DUP2 SUB PUSH2 0x45B JUMPI PUSH4 0x4E487B71 PUSH1 0xE0 SHL PUSH0 MSTORE PUSH1 0x22 PUSH1 0x4 MSTORE PUSH1 0x24 PUSH0 REVERT JUMPDEST POP SWAP2 SWAP1 POP JUMP JUMPDEST PUSH1 0x1F DUP3 GT ISZERO PUSH2 0x3F1 JUMPI DUP1 PUSH0 MSTORE PUSH1 0x20 PUSH0 KECCAK256 PUSH1 0x1F DUP5 ADD PUSH1 0x5 SHR DUP2 ADD PUSH1 0x20 DUP6 LT ISZERO PUSH2 0x486 JUMPI POP DUP1 JUMPDEST PUSH1 0x1F DUP5 ADD PUSH1 0x5 SHR DUP3 ADD SWAP2 POP JUMPDEST DUP2 DUP2 LT ISZERO PUSH2 0x4A5 JUMPI PUSH0 DUP2 SSTORE PUSH1 0x1 ADD PUSH2 0x492 JUMP JUMPDEST POP POP POP POP POP JUMP JUMPDEST DUP2 MLOAD PUSH1 0x1 PUSH1 0x1 PUSH1 0x40 SHL SUB DUP2 GT ISZERO PUSH2 0x4C5 JUMPI PUSH2 0x4C5 PUSH2 0x415 JUMP JUMPDEST PUSH2 0x4D9 DUP2 PUSH2 0x4D3 DUP5 SLOAD PUSH2 0x429 JUMP JUMPDEST DUP5 PUSH2 0x461 JUMP JUMPDEST PUSH1 0x20 DUP1 PUSH1 0x1F DUP4 GT PUSH1 0x1 DUP2 EQ PUSH2 0x50C JUMPI PUSH0 DUP5 ISZERO PUSH2 0x4F5 JUMPI POP DUP6 DUP4 ADD MLOAD JUMPDEST PUSH0 NOT PUSH1 0x3 DUP7 SWAP1 SHL SHR NOT AND PUSH1 0x1 DUP6 SWAP1 SHL OR DUP6 SSTORE PUSH2 0x563 JUMP JUMPDEST PUSH0 DUP6 DUP2 MSTORE PUSH1 0x20 DUP2 KECCAK256 PUSH1 0x1F NOT DUP7 AND SWAP2 JUMPDEST DUP3 DUP2 LT ISZERO PUSH2 0x53A JUMPI DUP9 DUP7 ADD MLOAD DUP3 SSTORE SWAP5 DUP5 ADD SWAP5 PUSH1 0x1 SWAP1 SWAP2 ADD SWAP1 DUP5 ADD PUSH2 0x51B JUMP JUMPDEST POP DUP6 DUP3 LT ISZERO PUSH2 0x557 JUMPI DUP8 DUP6 ADD MLOAD PUSH0 NOT PUSH1 0x3 DUP9 SWAP1 SHL PUSH1 0xF8 AND SHR NOT AND DUP2 SSTORE JUMPDEST POP POP PUSH1 0x1 DUP5 PUSH1 0x1 SHL ADD DUP6 SSTORE JUMPDEST POP POP POP POP POP POP JUMP JUMPDEST DUP1 DUP3 ADD DUP1 DUP3 GT ISZERO PUSH2 0x58A JUMPI PUSH4 0x4E487B71 PUSH1 0xE0 SHL PUSH0 MSTORE PUSH1 0x11 PUSH1 0x4 MSTORE PUSH1 0x24 PUSH0 REVERT JUMPDEST SWAP3 SWAP2 POP POP JUMP JUMPDEST PUSH0 PUSH1 0x20 DUP3 DUP5 SUB SLT ISZERO PUSH2 0x5A0 JUMPI PUSH0 DUP1 REVERT JUMPDEST DUP2 MLOAD PUSH1 0x1 PUSH1 0x1 PUSH1 0xA0 SHL SUB DUP2 AND DUP2 EQ PUSH2 0x5B6 JUMPI PUSH0 DUP1 REVERT JUMPDEST SWAP4 SWAP3 POP POP POP JUMP JUMPDEST PUSH2 0x2496 DUP1 PUSH2 0x5CA PUSH0 CODECOPY PUSH0 RETURN INVALID PUSH1 0x80 PUSH1 0x40 MSTORE PUSH1 0x4 CALLDATASIZE LT PUSH2 0x1FF JUMPI PUSH0 CALLDATALOAD PUSH1 0xE0 SHR DUP1 PUSH4 0x8F9A55C0 GT PUSH2 0x113 JUMPI DUP1 PUSH4 0xAD5DFF73 GT PUSH2 0x9D JUMPI DUP1 PUSH4 0xD8D61C40 GT PUSH2 0x6D JUMPI DUP1 PUSH4 0xD8D61C40 EQ PUSH2 0x678 JUMPI DUP1 PUSH4 0xDD62ED3E EQ PUSH2 0x68D JUMPI DUP1 PUSH4 0xF2FDE38B EQ PUSH2 0x6AC JUMPI DUP1 PUSH4 0xFE0BB982 EQ PUSH2 0x6CB JUMPI DUP1 PUSH4 0xFE6B751E EQ PUSH2 0x6EA JUMPI PUSH0 DUP1 REVERT JUMPDEST DUP1 PUSH4 0xAD5DFF73 EQ PUSH2 0x5B2 JUMPI DUP1 PUSH4 0xC0D78655 EQ PUSH2 0x5E0 JUMPI DUP1 PUSH4 0xC531B108 EQ PUSH2 0x5FF JUMPI DUP1 PUSH4 0xC95457FF EQ PUSH2 0x614 JUMPI PUSH0 DUP1 REVERT JUMPDEST DUP1 PUSH4 0x9D82190F GT PUSH2 0xE3 JUMPI DUP1 PUSH4 0x9D82190F EQ PUSH2 0x4F7 JUMPI DUP1 PUSH4 0x9FDE54F5 EQ PUSH2 0x536 JUMPI DUP1 PUSH4 0xA457C2D7 EQ PUSH2 0x555 JUMPI DUP1 PUSH4 0xA8B08982 EQ PUSH2 0x574 JUMPI DUP1 PUSH4 0xA9059CBB EQ PUSH2 0x593 JUMPI PUSH0 DUP1 REVERT JUMPDEST DUP1 PUSH4 0x8F9A55C0 EQ PUSH2 0x49C JUMPI DUP1 PUSH4 0x9491F94D EQ PUSH2 0x4B0 JUMPI DUP1 PUSH4 0x95D89B41 EQ PUSH2 0x4C4 JUMPI DUP1 PUSH4 0x960BFE04 EQ PUSH2 0x4D8 JUMPI PUSH0 DUP1 REVERT JUMPDEST DUP1 PUSH4 0x333F4B3D GT PUSH2 0x194 JUMPI DUP1 PUSH4 0x715018A6 GT PUSH2 0x164 JUMPI DUP1 PUSH4 0x715018A6 EQ PUSH2 0x3F6 JUMPI DUP1 PUSH4 0x7773168F EQ PUSH2 0x40A JUMPI DUP1 PUSH4 0x787A08A6 EQ PUSH2 0x41E JUMPI DUP1 PUSH4 0x7A845ECE EQ PUSH2 0x460 JUMPI DUP1 PUSH4 0x8DA5CB5B EQ PUSH2 0x47F JUMPI PUSH0 DUP1 REVERT JUMPDEST DUP1 PUSH4 0x333F4B3D EQ PUSH2 0x328 JUMPI DUP1 PUSH4 0x39509351 EQ PUSH2 0x38E JUMPI DUP1 PUSH4 0x599CA397 EQ PUSH2 0x3AD JUMPI DUP1 PUSH4 0x70A08231 EQ PUSH2 0x3C2 JUMPI PUSH0 DUP1 REVERT JUMPDEST DUP1 PUSH4 0x18160DDD GT PUSH2 0x1CF JUMPI DUP1 PUSH4 0x18160DDD EQ PUSH2 0x2A3 JUMPI DUP1 PUSH4 0x23B872DD EQ PUSH2 0x2B7 JUMPI DUP1 PUSH4 0x313CE567 EQ PUSH2 0x2D6 JUMPI DUP1 PUSH4 0x3268CC56 EQ PUSH2 0x2F1 JUMPI PUSH0 DUP1 REVERT JUMPDEST DUP1 PUSH4 0x445B667 EQ PUSH2 0x20A JUMPI DUP1 PUSH4 0x6FDDE03 EQ PUSH2 0x232 JUMPI DUP1 PUSH4 0x95EA7B3 EQ PUSH2 0x253 JUMPI DUP1 PUSH4 0x1569D181 EQ PUSH2 0x282 JUMPI PUSH0 DUP1 REVERT JUMPDEST CALLDATASIZE PUSH2 0x206 JUMPI STOP JUMPDEST PUSH0 DUP1 REVERT JUMPDEST CALLVALUE DUP1 ISZERO PUSH2 0x215 JUMPI PUSH0 DUP1 REVERT JUMPDEST POP PUSH2 0x21F PUSH1 0x8 SLOAD DUP2 JUMP JUMPDEST PUSH1 0x40 MLOAD SWAP1 DUP2 MSTORE PUSH1 0x20 ADD JUMPDEST PUSH1 0x40 MLOAD DUP1 SWAP2 SUB SWAP1 RETURN JUMPDEST CALLVALUE DUP1 ISZERO PUSH2 0x23D JUMPI PUSH0 DUP1 REVERT JUMPDEST POP PUSH2 0x246 PUSH2 0x709 JUMP JUMPDEST PUSH1 0x40 MLOAD PUSH2 0x229 SWAP2 SWAP1 PUSH2 0x1F2D JUMP JUMPDEST CALLVALUE DUP1 ISZERO PUSH2 0x25E JUMPI PUSH0 DUP1 REVERT JUMPDEST POP PUSH2 0x272 PUSH2 0x26D CALLDATASIZE PUSH1 0x4 PUSH2 0x1F76 JUMP JUMPDEST PUSH2 0x799 JUMP JUMPDEST PUSH1 0x40 MLOAD SWAP1 ISZERO ISZERO DUP2 MSTORE PUSH1 0x20 ADD PUSH2 0x229 JUMP JUMPDEST CALLVALUE DUP1 ISZERO PUSH2 0x28D JUMPI PUSH0 DUP1 REVERT JUMPDEST POP PUSH2 0x2A1 PUSH2 0x29C CALLDATASIZE PUSH1 0x4 PUSH2 0x1FB6 JUMP JUMPDEST PUSH2 0x7B2 JUMP JUMPDEST STOP JUMPDEST CALLVALUE DUP1 ISZERO PUSH2 0x2AE JUMPI PUSH0 DUP1 REVERT JUMPDEST POP PUSH1 0x2 SLOAD PUSH2 0x21F JUMP JUMPDEST CALLVALUE DUP1 ISZERO PUSH2 0x2C2 JUMPI PUSH0 DUP1 REVERT JUMPDEST POP PUSH2 0x272 PUSH2 0x2D1 CALLDATASIZE PUSH1 0x4 PUSH2 0x2007 JUMP JUMPDEST PUSH2 0x8DF JUMP JUMPDEST CALLVALUE DUP1 ISZERO PUSH2 0x2E1 JUMPI PUSH0 DUP1 REVERT JUMPDEST POP PUSH1 0x40 MLOAD PUSH1 0x12 DUP2 MSTORE PUSH1 0x20 ADD PUSH2 0x229 JUMP JUMPDEST CALLVALUE DUP1 ISZERO PUSH2 0x2FC JUMPI PUSH0 DUP1 REVERT JUMPDEST POP PUSH1 0x12 SLOAD PUSH2 0x310 SWAP1 PUSH1 0x1 PUSH1 0x1 PUSH1 0xA0 SHL SUB AND DUP2 JUMP JUMPDEST PUSH1 0x40 MLOAD PUSH1 0x1 PUSH1 0x1 PUSH1 0xA0 SHL SUB SWAP1 SWAP2 AND DUP2 MSTORE PUSH1 0x20 ADD PUSH2 0x229 JUMP JUMPDEST CALLVALUE DUP1 ISZERO PUSH2 0x333 JUMPI PUSH0 DUP1 REVERT JUMPDEST POP PUSH1 0x7 SLOAD PUSH2 0x360 SWAP1 PUSH2 0xFFFF DUP1 DUP3 AND SWAP2 PUSH3 0x10000 DUP2 DIV DUP3 AND SWAP2 PUSH1 0x1 PUSH1 0x20 SHL DUP3 DIV DUP2 AND SWAP2 PUSH1 0x1 PUSH1 0x30 SHL SWAP1 DIV AND DUP5 JUMP JUMPDEST PUSH1 0x40 DUP1 MLOAD PUSH2 0xFFFF SWAP6 DUP7 AND DUP2 MSTORE SWAP4 DUP6 AND PUSH1 0x20 DUP6 ADD MSTORE SWAP2 DUP5 AND SWAP2 DUP4 ADD SWAP2 SWAP1 SWAP2 MSTORE SWAP1 SWAP2 AND PUSH1 0x60 DUP3 ADD MSTORE PUSH1 0x80 ADD PUSH2 0x229 JUMP JUMPDEST CALLVALUE DUP1 ISZERO PUSH2 0x399 JUMPI PUSH0 DUP1 REVERT JUMPDEST POP PUSH2 0x272 PUSH2 0x3A8 CALLDATASIZE PUSH1 0x4 PUSH2 0x1F76 JUMP JUMPDEST PUSH2 0x904 JUMP JUMPDEST CALLVALUE DUP1 ISZERO PUSH2 0x3B8 JUMPI PUSH0 DUP1 REVERT JUMPDEST POP PUSH2 0x21F PUSH1 0x6 SLOAD DUP2 JUMP JUMPDEST CALLVALUE DUP1 ISZERO PUSH2 0x3CD JUMPI PUSH0 DUP1 REVERT JUMPDEST POP PUSH2 0x21F PUSH2 0x3DC CALLDATASIZE PUSH1 0x4 PUSH2 0x2045 JUMP JUMPDEST PUSH1 0x1 PUSH1 0x1 PUSH1 0xA0 SHL SUB AND PUSH0 SWAP1 DUP2 MSTORE PUSH1 0x20 DUP2 SWAP1 MSTORE PUSH1 0x40 SWAP1 KECCAK256 SLOAD SWAP1 JUMP JUMPDEST CALLVALUE DUP1 ISZERO PUSH2 0x401 JUMPI PUSH0 DUP1 REVERT JUMPDEST POP PUSH2 0x2A1 PUSH2 0x925 JUMP JUMPDEST CALLVALUE DUP1 ISZERO PUSH2 0x415 JUMPI PUSH0 DUP1 REVERT JUMPDEST POP PUSH2 0x21F PUSH2 0x938 JUMP JUMPDEST CALLVALUE DUP1 ISZERO PUSH2 0x429 JUMPI PUSH0 DUP1 REVERT JUMPDEST POP PUSH1 0xC SLOAD PUSH2 0x444 SWAP1 PUSH1 0xFF DUP2 AND SWAP1 PUSH2 0x100 SWAP1 DIV PUSH4 0xFFFFFFFF AND DUP3 JUMP JUMPDEST PUSH1 0x40 DUP1 MLOAD SWAP3 ISZERO ISZERO DUP4 MSTORE PUSH4 0xFFFFFFFF SWAP1 SWAP2 AND PUSH1 0x20 DUP4 ADD MSTORE ADD PUSH2 0x229 JUMP JUMPDEST CALLVALUE DUP1 ISZERO PUSH2 0x46B JUMPI PUSH0 DUP1 REVERT JUMPDEST POP PUSH2 0x2A1 PUSH2 0x47A CALLDATASIZE PUSH1 0x4 PUSH2 0x2060 JUMP JUMPDEST PUSH2 0x9B7 JUMP JUMPDEST CALLVALUE DUP1 ISZERO PUSH2 0x48A JUMPI PUSH0 DUP1 REVERT JUMPDEST POP PUSH1 0x5 SLOAD PUSH1 0x1 PUSH1 0x1 PUSH1 0xA0 SHL SUB AND PUSH2 0x310 JUMP JUMPDEST CALLVALUE DUP1 ISZERO PUSH2 0x4A7 JUMPI PUSH0 DUP1 REVERT JUMPDEST POP PUSH2 0x21F PUSH2 0xA42 JUMP JUMPDEST CALLVALUE DUP1 ISZERO PUSH2 0x4BB JUMPI PUSH0 DUP1 REVERT JUMPDEST POP PUSH2 0x21F PUSH2 0xA6F JUMP JUMPDEST CALLVALUE DUP1 ISZERO PUSH2 0x4CF JUMPI PUSH0 DUP1 REVERT JUMPDEST POP PUSH2 0x246 PUSH2 0xBE1 JUMP JUMPDEST CALLVALUE DUP1 ISZERO PUSH2 0x4E3 JUMPI PUSH0 DUP1 REVERT JUMPDEST POP PUSH2 0x2A1 PUSH2 0x4F2 CALLDATASIZE PUSH1 0x4 PUSH2 0x2060 JUMP JUMPDEST PUSH2 0xBF0 JUMP JUMPDEST CALLVALUE DUP1 ISZERO PUSH2 0x502 JUMPI PUSH0 DUP1 REVERT JUMPDEST POP PUSH2 0x516 PUSH2 0x511 CALLDATASIZE PUSH1 0x4 PUSH2 0x2045 JUMP JUMPDEST PUSH2 0xBFD JUMP JUMPDEST PUSH1 0x40 DUP1 MLOAD SWAP5 DUP6 MSTORE PUSH1 0x20 DUP6 ADD SWAP4 SWAP1 SWAP4 MSTORE SWAP2 DUP4 ADD MSTORE PUSH1 0x60 DUP3 ADD MSTORE PUSH1 0x80 ADD PUSH2 0x229 JUMP JUMPDEST CALLVALUE DUP1 ISZERO PUSH2 0x541 JUMPI PUSH0 DUP1 REVERT JUMPDEST POP PUSH2 0x2A1 PUSH2 0x550 CALLDATASIZE PUSH1 0x4 PUSH2 0x2086 JUMP JUMPDEST PUSH2 0xCA9 JUMP JUMPDEST CALLVALUE DUP1 ISZERO PUSH2 0x560 JUMPI PUSH0 DUP1 REVERT JUMPDEST POP PUSH2 0x272 PUSH2 0x56F CALLDATASIZE PUSH1 0x4 PUSH2 0x1F76 JUMP JUMPDEST PUSH2 0xCDB JUMP JUMPDEST CALLVALUE DUP1 ISZERO PUSH2 0x57F JUMPI PUSH0 DUP1 REVERT JUMPDEST POP PUSH1 0x13 SLOAD PUSH2 0x310 SWAP1 PUSH1 0x1 PUSH1 0x1 PUSH1 0xA0 SHL SUB AND DUP2 JUMP JUMPDEST CALLVALUE DUP1 ISZERO PUSH2 0x59E JUMPI PUSH0 DUP1 REVERT JUMPDEST POP PUSH2 0x272 PUSH2 0x5AD CALLDATASIZE PUSH1 0x4 PUSH2 0x1F76 JUMP JUMPDEST PUSH2 0xD60 JUMP JUMPDEST CALLVALUE DUP1 ISZERO PUSH2 0x5BD JUMPI PUSH0 DUP1 REVERT JUMPDEST POP PUSH2 0x272 PUSH2 0x5CC CALLDATASIZE PUSH1 0x4 PUSH2 0x2045 JUMP JUMPDEST PUSH1 0x14 PUSH1 0x20 MSTORE PUSH0 SWAP1 DUP2 MSTORE PUSH1 0x40 SWAP1 KECCAK256 SLOAD PUSH1 0xFF AND DUP2 JUMP JUMPDEST CALLVALUE DUP1 ISZERO PUSH2 0x5EB JUMPI PUSH0 DUP1 REVERT JUMPDEST POP PUSH2 0x2A1 PUSH2 0x5FA CALLDATASIZE PUSH1 0x4 PUSH2 0x2045 JUMP JUMPDEST PUSH2 0xD6D JUMP JUMPDEST CALLVALUE DUP1 ISZERO PUSH2 0x60A JUMPI PUSH0 DUP1 REVERT JUMPDEST POP PUSH2 0x21F PUSH1 0xA SLOAD DUP2 JUMP JUMPDEST CALLVALUE DUP1 ISZERO PUSH2 0x61F JUMPI PUSH0 DUP1 REVERT JUMPDEST POP PUSH1 0xE SLOAD PUSH1 0xF SLOAD PUSH1 0x10 SLOAD PUSH1 0x11 SLOAD PUSH2 0x649 SWAP4 PUSH1 0xFF DUP1 DUP3 AND SWAP5 PUSH2 0x100 SWAP1 SWAP3 DIV PUSH2 0xFFFF AND SWAP4 SWAP2 SWAP3 SWAP2 AND SWAP1 DUP6 JUMP JUMPDEST PUSH1 0x40 DUP1 MLOAD SWAP6 ISZERO ISZERO DUP7 MSTORE PUSH2 0xFFFF SWAP1 SWAP5 AND PUSH1 0x20 DUP7 ADD MSTORE SWAP3 DUP5 ADD SWAP2 SWAP1 SWAP2 MSTORE ISZERO ISZERO PUSH1 0x60 DUP4 ADD MSTORE PUSH1 0x80 DUP3 ADD MSTORE PUSH1 0xA0 ADD PUSH2 0x229 JUMP JUMPDEST CALLVALUE DUP1 ISZERO PUSH2 0x683 JUMPI PUSH0 DUP1 REVERT JUMPDEST POP PUSH2 0x21F PUSH1 0x9 SLOAD DUP2 JUMP JUMPDEST CALLVALUE DUP1 ISZERO PUSH2 0x698 JUMPI PUSH0 DUP1 REVERT JUMPDEST POP PUSH2 0x21F PUSH2 0x6A7 CALLDATASIZE PUSH1 0x4 PUSH2 0x20B9 JUMP JUMPDEST PUSH2 0xDD1 JUMP JUMPDEST CALLVALUE DUP1 ISZERO PUSH2 0x6B7 JUMPI PUSH0 DUP1 REVERT JUMPDEST POP PUSH2 0x2A1 PUSH2 0x6C6 CALLDATASIZE PUSH1 0x4 PUSH2 0x2045 JUMP JUMPDEST PUSH2 0xDFB JUMP JUMPDEST CALLVALUE DUP1 ISZERO PUSH2 0x6D6 JUMPI PUSH0 DUP1 REVERT JUMPDEST POP PUSH2 0x2A1 PUSH2 0x6E5 CALLDATASIZE PUSH1 0x4 PUSH2 0x20F0 JUMP JUMPDEST PUSH2 0xE74 JUMP JUMPDEST CALLVALUE DUP1 ISZERO PUSH2 0x6F5 JUMPI PUSH0 DUP1 REVERT JUMPDEST POP PUSH2 0x2A1 PUSH2 0x704 CALLDATASIZE PUSH1 0x4 PUSH2 0x2129 JUMP JUMPDEST PUSH2 0xEF1 JUMP JUMPDEST PUSH1 0x60 PUSH1 0x3 DUP1 SLOAD PUSH2 0x718 SWAP1 PUSH2 0x2153 JUMP JUMPDEST DUP1 PUSH1 0x1F ADD PUSH1 0x20 DUP1 SWAP2 DIV MUL PUSH1 0x20 ADD PUSH1 0x40 MLOAD SWAP1 DUP2 ADD PUSH1 0x40 MSTORE DUP1 SWAP3 SWAP2 SWAP1 DUP2 DUP2 MSTORE PUSH1 0x20 ADD DUP3 DUP1 SLOAD PUSH2 0x744 SWAP1 PUSH2 0x2153 JUMP JUMPDEST DUP1 ISZERO PUSH2 0x78F JUMPI DUP1 PUSH1 0x1F LT PUSH2 0x766 JUMPI PUSH2 0x100 DUP1 DUP4 SLOAD DIV MUL DUP4 MSTORE SWAP2 PUSH1 0x20 ADD SWAP2 PUSH2 0x78F JUMP JUMPDEST DUP3 ADD SWAP2 SWAP1 PUSH0 MSTORE PUSH1 0x20 PUSH0 KECCAK256 SWAP1 JUMPDEST DUP2 SLOAD DUP2 MSTORE SWAP1 PUSH1 0x1 ADD SWAP1 PUSH1 0x20 ADD DUP1 DUP4 GT PUSH2 0x772 JUMPI DUP3 SWAP1 SUB PUSH1 0x1F AND DUP3 ADD SWAP2 JUMPDEST POP POP POP POP POP SWAP1 POP SWAP1 JUMP JUMPDEST PUSH0 CALLER PUSH2 0x7A6 DUP2 DUP6 DUP6 PUSH2 0xF37 JUMP JUMPDEST PUSH1 0x1 SWAP2 POP POP JUMPDEST SWAP3 SWAP2 POP POP JUMP JUMPDEST PUSH2 0x7BA PUSH2 0x105A JUMP JUMPDEST PUSH2 0x9C4 PUSH2 0x7C7 DUP5 DUP7 PUSH2 0x219F JUMP JUMPDEST PUSH2 0xFFFF AND GT ISZERO PUSH2 0x810 JUMPI PUSH1 0x40 MLOAD PUSH3 0x461BCD PUSH1 0xE5 SHL DUP2 MSTORE PUSH1 0x20 PUSH1 0x4 DUP3 ADD MSTORE PUSH1 0xF PUSH1 0x24 DUP3 ADD MSTORE PUSH15 0x9AC2F040646A4A40C4EAF240E8C2F PUSH1 0x8B SHL PUSH1 0x44 DUP3 ADD MSTORE PUSH1 0x64 ADD JUMPDEST PUSH1 0x40 MLOAD DUP1 SWAP2 SUB SWAP1 REVERT JUMPDEST PUSH2 0x9C4 PUSH2 0x81D DUP3 DUP5 PUSH2 0x219F JUMP JUMPDEST PUSH2 0xFFFF AND GT ISZERO PUSH2 0x862 JUMPI PUSH1 0x40 MLOAD PUSH3 0x461BCD PUSH1 0xE5 SHL DUP2 MSTORE PUSH1 0x20 PUSH1 0x4 DUP3 ADD MSTORE PUSH1 0x10 PUSH1 0x24 DUP3 ADD MSTORE PUSH16 0x9AC2F040646A4A40E6CAD8D840E8C2F PUSH1 0x83 SHL PUSH1 0x44 DUP3 ADD MSTORE PUSH1 0x64 ADD PUSH2 0x807 JUMP JUMPDEST PUSH1 0x40 DUP1 MLOAD PUSH1 0x80 DUP2 ADD DUP3 MSTORE PUSH2 0xFFFF SWAP6 DUP7 AND DUP1 DUP3 MSTORE SWAP5 DUP7 AND PUSH1 0x20 DUP3 ADD DUP2 SWAP1 MSTORE SWAP4 DUP7 AND SWAP2 DUP2 ADD DUP3 SWAP1 MSTORE SWAP2 SWAP1 SWAP5 AND PUSH1 0x60 SWAP1 SWAP2 ADD DUP2 SWAP1 MSTORE PUSH1 0x7 DUP1 SLOAD PUSH4 0xFFFFFFFF NOT AND SWAP1 SWAP4 OR PUSH3 0x10000 SWAP1 SWAP3 MUL SWAP2 SWAP1 SWAP2 OR PUSH8 0xFFFFFFFF00000000 NOT AND PUSH1 0x1 PUSH1 0x20 SHL SWAP1 SWAP4 MUL PUSH8 0xFFFF000000000000 NOT AND SWAP3 SWAP1 SWAP3 OR PUSH1 0x1 PUSH1 0x30 SHL SWAP1 SWAP3 MUL SWAP2 SWAP1 SWAP2 OR SWAP1 SSTORE JUMP JUMPDEST PUSH0 CALLER PUSH2 0x8EC DUP6 DUP3 DUP6 PUSH2 0x10B4 JUMP JUMPDEST PUSH2 0x8F7 DUP6 DUP6 DUP6 PUSH2 0x112C JUMP JUMPDEST PUSH1 0x1 SWAP2 POP POP JUMPDEST SWAP4 SWAP3 POP POP POP JUMP JUMPDEST PUSH0 CALLER PUSH2 0x7A6 DUP2 DUP6 DUP6 PUSH2 0x916 DUP4 DUP4 PUSH2 0xDD1 JUMP JUMPDEST PUSH2 0x920 SWAP2 SWAP1 PUSH2 0x21C1 JUMP JUMPDEST PUSH2 0xF37 JUMP JUMPDEST PUSH2 0x92D PUSH2 0x105A JUMP JUMPDEST PUSH2 0x936 PUSH0 PUSH2 0x13FC JUMP JUMPDEST JUMP JUMPDEST PUSH1 0xF SLOAD PUSH0 SWAP1 DUP2 SUB PUSH2 0x948 JUMPI POP PUSH0 SWAP1 JUMP JUMPDEST PUSH0 PUSH2 0x951 PUSH2 0xA6F JUMP JUMPDEST PUSH1 0xF SLOAD SWAP1 SWAP2 POP DUP2 GT PUSH2 0x994 JUMPI PUSH1 0xF SLOAD PUSH2 0x986 SWAP1 PUSH2 0x980 PUSH8 0xDE0B6B3A7640000 PUSH2 0x97A DUP4 DUP7 PUSH2 0x144D JUMP JUMPDEST SWAP1 PUSH2 0x1458 JUMP JUMPDEST SWAP1 PUSH2 0x1463 JUMP JUMPDEST PUSH2 0x98F SWAP1 PUSH2 0x21D4 JUMP JUMPDEST PUSH2 0x9B1 JUMP JUMPDEST PUSH1 0xF SLOAD PUSH2 0x9B1 SWAP1 PUSH2 0x980 PUSH8 0xDE0B6B3A7640000 PUSH2 0x97A DUP6 DUP5 PUSH2 0x144D JUMP JUMPDEST SWAP2 POP POP SWAP1 JUMP JUMPDEST PUSH2 0x9BF PUSH2 0x105A JUMP JUMPDEST PUSH1 0x64 DUP2 LT ISZERO PUSH2 0xA06 JUMPI PUSH1 0x40 MLOAD PUSH3 0x461BCD PUSH1 0xE5 SHL DUP2 MSTORE PUSH1 0x20 PUSH1 0x4 DUP3 ADD MSTORE PUSH1 0x13 PUSH1 0x24 DUP3 ADD MSTORE PUSH19 0x13585E080C49481DD85B1B195D081B1A5B5A5D PUSH1 0x6A SHL PUSH1 0x44 DUP3 ADD MSTORE PUSH1 0x64 ADD PUSH2 0x807 JUMP JUMPDEST PUSH1 0x6 DUP2 SWAP1 SSTORE PUSH1 0x40 MLOAD DUP2 DUP2 MSTORE PUSH32 0x12528A3C61E0F3B2D6FC707A9FC58B1AF86E252CAD0D7F4C154EBEABB162DACE SWAP1 PUSH1 0x20 ADD JUMPDEST PUSH1 0x40 MLOAD DUP1 SWAP2 SUB SWAP1 LOG1 POP JUMP JUMPDEST PUSH0 PUSH2 0xA6A PUSH2 0x2710 PUSH2 0x980 PUSH1 0x6 SLOAD PUSH12 0x33B2E3C9FD0803CE8000000 PUSH2 0x1458 SWAP1 SWAP2 SWAP1 PUSH4 0xFFFFFFFF AND JUMP JUMPDEST SWAP1 POP SWAP1 JUMP JUMPDEST PUSH0 DUP1 PUSH0 PUSH1 0x13 PUSH0 SWAP1 SLOAD SWAP1 PUSH2 0x100 EXP SWAP1 DIV PUSH1 0x1 PUSH1 0x1 PUSH1 0xA0 SHL SUB AND PUSH1 0x1 PUSH1 0x1 PUSH1 0xA0 SHL SUB AND PUSH4 0x902F1AC PUSH1 0x40 MLOAD DUP2 PUSH4 0xFFFFFFFF AND PUSH1 0xE0 SHL DUP2 MSTORE PUSH1 0x4 ADD PUSH1 0x60 PUSH1 0x40 MLOAD DUP1 DUP4 SUB DUP2 DUP7 GAS STATICCALL ISZERO DUP1 ISZERO PUSH2 0xAC2 JUMPI RETURNDATASIZE PUSH0 DUP1 RETURNDATACOPY RETURNDATASIZE PUSH0 REVERT JUMPDEST POP POP POP POP PUSH1 0x40 MLOAD RETURNDATASIZE PUSH1 0x1F NOT PUSH1 0x1F DUP3 ADD AND DUP3 ADD DUP1 PUSH1 0x40 MSTORE POP DUP2 ADD SWAP1 PUSH2 0xAE6 SWAP2 SWAP1 PUSH2 0x2204 JUMP JUMPDEST POP SWAP2 POP SWAP2 POP DUP2 PUSH1 0x1 PUSH1 0x1 PUSH1 0x70 SHL SUB AND PUSH0 EQ DUP1 PUSH2 0xB09 JUMPI POP PUSH1 0x1 PUSH1 0x1 PUSH1 0x70 SHL SUB DUP2 AND ISZERO JUMPDEST ISZERO PUSH2 0xB16 JUMPI PUSH0 SWAP3 POP POP POP SWAP1 JUMP JUMPDEST PUSH1 0x13 SLOAD PUSH1 0x40 DUP1 MLOAD PUSH4 0xDFE1681 PUSH1 0xE0 SHL DUP2 MSTORE SWAP1 MLOAD ADDRESS SWAP3 PUSH1 0x1 PUSH1 0x1 PUSH1 0xA0 SHL SUB AND SWAP2 PUSH4 0xDFE1681 SWAP2 PUSH1 0x4 DUP1 DUP4 ADD SWAP3 PUSH1 0x20 SWAP3 SWAP2 SWAP1 DUP3 SWAP1 SUB ADD DUP2 DUP7 GAS STATICCALL ISZERO DUP1 ISZERO PUSH2 0xB5D JUMPI RETURNDATASIZE PUSH0 DUP1 RETURNDATACOPY RETURNDATASIZE PUSH0 REVERT JUMPDEST POP POP POP POP PUSH1 0x40 MLOAD RETURNDATASIZE PUSH1 0x1F NOT PUSH1 0x1F DUP3 ADD AND DUP3 ADD DUP1 PUSH1 0x40 MSTORE POP DUP2 ADD SWAP1 PUSH2 0xB81 SWAP2 SWAP1 PUSH2 0x2248 JUMP JUMPDEST PUSH1 0x1 PUSH1 0x1 PUSH1 0xA0 SHL SUB AND EQ PUSH2 0xBB7 JUMPI PUSH2 0xBB2 PUSH1 0x1 PUSH1 0x1 PUSH1 0x70 SHL SUB DUP1 DUP4 AND SWAP1 PUSH2 0x980 SWAP1 DUP6 AND PUSH8 0xDE0B6B3A7640000 PUSH2 0x1458 JUMP JUMPDEST PUSH2 0xBDA JUMP JUMPDEST PUSH2 0xBDA PUSH1 0x1 PUSH1 0x1 PUSH1 0x70 SHL SUB DUP1 DUP5 AND SWAP1 PUSH2 0x980 SWAP1 DUP5 AND PUSH8 0xDE0B6B3A7640000 PUSH2 0x1458 JUMP JUMPDEST SWAP3 POP POP POP SWAP1 JUMP JUMPDEST PUSH1 0x60 PUSH1 0x4 DUP1 SLOAD PUSH2 0x718 SWAP1 PUSH2 0x2153 JUMP JUMPDEST PUSH2 0xBF8 PUSH2 0x105A JUMP JUMPDEST PUSH1 0x8 SSTORE JUMP JUMPDEST PUSH1 0x1 PUSH1 0x1 PUSH1 0xA0 SHL SUB DUP2 AND PUSH0 SWAP1 DUP2 MSTORE PUSH1 0xD PUSH1 0x20 MSTORE PUSH1 0x40 DUP2 KECCAK256 SLOAD DUP2 SWAP1 DUP2 SWAP1 DUP2 SWAP1 DUP2 SWAP1 TIMESTAMP LT PUSH2 0xC29 JUMPI PUSH0 PUSH2 0xC4B JUMP JUMPDEST PUSH1 0x1 PUSH1 0x1 PUSH1 0xA0 SHL SUB DUP7 AND PUSH0 SWAP1 DUP2 MSTORE PUSH1 0xD PUSH1 0x20 MSTORE PUSH1 0x40 SWAP1 KECCAK256 SLOAD PUSH2 0xC4B SWAP1 TIMESTAMP PUSH2 0x144D JUMP JUMPDEST SWAP1 POP PUSH2 0xC5A DUP2 PUSH3 0x15180 PUSH2 0x1463 JUMP JUMPDEST SWAP5 POP PUSH2 0xC69 PUSH3 0x15180 DUP3 PUSH2 0x2277 JUMP JUMPDEST SWAP1 POP PUSH2 0xC77 DUP2 PUSH2 0xE10 PUSH2 0x1463 JUMP JUMPDEST SWAP4 POP PUSH2 0xC85 PUSH2 0xE10 DUP3 PUSH2 0x2277 JUMP JUMPDEST SWAP1 POP PUSH2 0xC92 DUP2 PUSH1 0x3C PUSH2 0x1463 JUMP JUMPDEST SWAP3 POP PUSH2 0xC9F PUSH1 0x3C DUP3 PUSH2 0x2277 JUMP JUMPDEST SWAP2 POP POP SWAP2 SWAP4 POP SWAP2 SWAP4 JUMP JUMPDEST PUSH2 0xCB1 PUSH2 0x105A JUMP JUMPDEST PUSH1 0x1 PUSH1 0x1 PUSH1 0xA0 SHL SUB SWAP2 SWAP1 SWAP2 AND PUSH0 SWAP1 DUP2 MSTORE PUSH1 0x14 PUSH1 0x20 MSTORE PUSH1 0x40 SWAP1 KECCAK256 DUP1 SLOAD PUSH1 0xFF NOT AND SWAP2 ISZERO ISZERO SWAP2 SWAP1 SWAP2 OR SWAP1 SSTORE JUMP JUMPDEST PUSH0 CALLER DUP2 PUSH2 0xCE8 DUP3 DUP7 PUSH2 0xDD1 JUMP JUMPDEST SWAP1 POP DUP4 DUP2 LT ISZERO PUSH2 0xD48 JUMPI PUSH1 0x40 MLOAD PUSH3 0x461BCD PUSH1 0xE5 SHL DUP2 MSTORE PUSH1 0x20 PUSH1 0x4 DUP3 ADD MSTORE PUSH1 0x25 PUSH1 0x24 DUP3 ADD MSTORE PUSH32 0x45524332303A2064656372656173656420616C6C6F77616E63652062656C6F77 PUSH1 0x44 DUP3 ADD MSTORE PUSH5 0x207A65726F PUSH1 0xD8 SHL PUSH1 0x64 DUP3 ADD MSTORE PUSH1 0x84 ADD PUSH2 0x807 JUMP JUMPDEST PUSH2 0xD55 DUP3 DUP7 DUP7 DUP5 SUB PUSH2 0xF37 JUMP JUMPDEST POP PUSH1 0x1 SWAP5 SWAP4 POP POP POP POP JUMP JUMPDEST PUSH0 CALLER PUSH2 0x7A6 DUP2 DUP6 DUP6 PUSH2 0x112C JUMP JUMPDEST PUSH2 0xD75 PUSH2 0x105A JUMP JUMPDEST PUSH1 0x12 DUP1 SLOAD PUSH1 0x1 PUSH1 0x1 PUSH1 0xA0 SHL SUB NOT AND PUSH1 0x1 PUSH1 0x1 PUSH1 0xA0 SHL SUB DUP4 AND OR SWAP1 SSTORE PUSH2 0xD98 PUSH2 0x146E JUMP JUMPDEST PUSH1 0x40 MLOAD PUSH1 0x1 PUSH1 0x1 PUSH1 0xA0 SHL SUB DUP3 AND DUP2 MSTORE PUSH32 0x7AED1D3E8155A07CCF395E44EA3109A0E2D6C9B29BBBE9F142D9790596F4DC80 SWAP1 PUSH1 0x20 ADD PUSH2 0xA37 JUMP JUMPDEST PUSH1 0x1 PUSH1 0x1 PUSH1 0xA0 SHL SUB SWAP2 DUP3 AND PUSH0 SWAP1 DUP2 MSTORE PUSH1 0x1 PUSH1 0x20 SWAP1 DUP2 MSTORE PUSH1 0x40 DUP1 DUP4 KECCAK256 SWAP4 SWAP1 SWAP5 AND DUP3 MSTORE SWAP2 SWAP1 SWAP2 MSTORE KECCAK256 SLOAD SWAP1 JUMP JUMPDEST PUSH2 0xE03 PUSH2 0x105A JUMP JUMPDEST PUSH1 0x1 PUSH1 0x1 PUSH1 0xA0 SHL SUB DUP2 AND PUSH2 0xE68 JUMPI PUSH1 0x40 MLOAD PUSH3 0x461BCD PUSH1 0xE5 SHL DUP2 MSTORE PUSH1 0x20 PUSH1 0x4 DUP3 ADD MSTORE PUSH1 0x26 PUSH1 0x24 DUP3 ADD MSTORE PUSH32 0x4F776E61626C653A206E6577206F776E657220697320746865207A65726F2061 PUSH1 0x44 DUP3 ADD MSTORE PUSH6 0x646472657373 PUSH1 0xD0 SHL PUSH1 0x64 DUP3 ADD MSTORE PUSH1 0x84 ADD PUSH2 0x807 JUMP JUMPDEST PUSH2 0xE71 DUP2 PUSH2 0x13FC JUMP JUMPDEST POP JUMP JUMPDEST PUSH2 0xE7C PUSH2 0x105A JUMP JUMPDEST PUSH2 0x2710 DUP2 PUSH2 0xFFFF AND GT ISZERO PUSH2 0xEC7 JUMPI PUSH1 0x40 MLOAD PUSH3 0x461BCD PUSH1 0xE5 SHL DUP2 MSTORE PUSH1 0x20 PUSH1 0x4 DUP3 ADD MSTORE PUSH1 0x12 PUSH1 0x24 DUP3 ADD MSTORE PUSH18 0x496E76616C69642070657263656E74616765 PUSH1 0x70 SHL PUSH1 0x44 DUP3 ADD MSTORE PUSH1 0x64 ADD PUSH2 0x807 JUMP JUMPDEST PUSH1 0xE DUP1 SLOAD PUSH3 0xFFFFFF NOT AND SWAP3 ISZERO ISZERO PUSH3 0xFFFF00 NOT AND SWAP3 SWAP1 SWAP3 OR PUSH2 0x100 PUSH2 0xFFFF SWAP3 SWAP1 SWAP3 AND SWAP2 SWAP1 SWAP2 MUL OR SWAP1 SSTORE JUMP JUMPDEST PUSH2 0xEF9 PUSH2 0x105A JUMP JUMPDEST PUSH1 0xC DUP1 SLOAD PUSH1 0xFF NOT AND DUP4 ISZERO ISZERO OR SWAP1 SSTORE PUSH2 0xF12 DUP2 PUSH1 0x3C PUSH2 0x228A JUMP JUMPDEST PUSH1 0xC DUP1 SLOAD PUSH4 0xFFFFFFFF SWAP3 SWAP1 SWAP3 AND PUSH2 0x100 MUL PUSH5 0xFFFFFFFF00 NOT SWAP1 SWAP3 AND SWAP2 SWAP1 SWAP2 OR SWAP1 SSTORE POP POP JUMP JUMPDEST PUSH1 0x1 PUSH1 0x1 PUSH1 0xA0 SHL SUB DUP4 AND PUSH2 0xF99 JUMPI PUSH1 0x40 MLOAD PUSH3 0x461BCD PUSH1 0xE5 SHL DUP2 MSTORE PUSH1 0x20 PUSH1 0x4 DUP3 ADD MSTORE PUSH1 0x24 DUP1 DUP3 ADD MSTORE PUSH32 0x45524332303A20617070726F76652066726F6D20746865207A65726F20616464 PUSH1 0x44 DUP3 ADD MSTORE PUSH4 0x72657373 PUSH1 0xE0 SHL PUSH1 0x64 DUP3 ADD MSTORE PUSH1 0x84 ADD PUSH2 0x807 JUMP JUMPDEST PUSH1 0x1 PUSH1 0x1 PUSH1 0xA0 SHL SUB DUP3 AND PUSH2 0xFFA JUMPI PUSH1 0x40 MLOAD PUSH3 0x461BCD PUSH1 0xE5 SHL DUP2 MSTORE PUSH1 0x20 PUSH1 0x4 DUP3 ADD MSTORE PUSH1 0x22 PUSH1 0x24 DUP3 ADD MSTORE PUSH32 0x45524332303A20617070726F766520746F20746865207A65726F206164647265 PUSH1 0x44 DUP3 ADD MSTORE PUSH2 0x7373 PUSH1 0xF0 SHL PUSH1 0x64 DUP3 ADD MSTORE PUSH1 0x84 ADD PUSH2 0x807 JUMP JUMPDEST PUSH1 0x1 PUSH1 0x1 PUSH1 0xA0 SHL SUB DUP4 DUP2 AND PUSH0 DUP2 DUP2 MSTORE PUSH1 0x1 PUSH1 0x20 SWAP1 DUP2 MSTORE PUSH1 0x40 DUP1 DUP4 KECCAK256 SWAP5 DUP8 AND DUP1 DUP5 MSTORE SWAP5 DUP3 MSTORE SWAP2 DUP3 SWAP1 KECCAK256 DUP6 SWAP1 SSTORE SWAP1 MLOAD DUP5 DUP2 MSTORE PUSH32 0x8C5BE1E5EBEC7D5BD14F71427D1E84F3DD0314C0F7B2291E5B200AC8C7C3B925 SWAP2 ADD PUSH1 0x40 MLOAD DUP1 SWAP2 SUB SWAP1 LOG3 POP POP POP JUMP JUMPDEST PUSH1 0x5 SLOAD PUSH1 0x1 PUSH1 0x1 PUSH1 0xA0 SHL SUB AND CALLER EQ PUSH2 0x936 JUMPI PUSH1 0x40 MLOAD PUSH3 0x461BCD PUSH1 0xE5 SHL DUP2 MSTORE PUSH1 0x20 PUSH1 0x4 DUP3 ADD DUP2 SWAP1 MSTORE PUSH1 0x24 DUP3 ADD MSTORE PUSH32 0x4F776E61626C653A2063616C6C6572206973206E6F7420746865206F776E6572 PUSH1 0x44 DUP3 ADD MSTORE PUSH1 0x64 ADD PUSH2 0x807 JUMP JUMPDEST PUSH0 PUSH2 0x10BF DUP5 DUP5 PUSH2 0xDD1 JUMP JUMPDEST SWAP1 POP PUSH0 NOT DUP2 EQ PUSH2 0x1126 JUMPI DUP2 DUP2 LT ISZERO PUSH2 0x1119 JUMPI PUSH1 0x40 MLOAD PUSH3 0x461BCD PUSH1 0xE5 SHL DUP2 MSTORE PUSH1 0x20 PUSH1 0x4 DUP3 ADD MSTORE PUSH1 0x1D PUSH1 0x24 DUP3 ADD MSTORE PUSH32 0x45524332303A20696E73756666696369656E7420616C6C6F77616E6365000000 PUSH1 0x44 DUP3 ADD MSTORE PUSH1 0x64 ADD PUSH2 0x807 JUMP JUMPDEST PUSH2 0x1126 DUP5 DUP5 DUP5 DUP5 SUB PUSH2 0xF37 JUMP JUMPDEST POP POP POP POP JUMP JUMPDEST PUSH0 DUP2 GT PUSH2 0x117B JUMPI PUSH1 0x40 MLOAD PUSH3 0x461BCD PUSH1 0xE5 SHL DUP2 MSTORE PUSH1 0x20 PUSH1 0x4 DUP3 ADD MSTORE PUSH1 0x1A PUSH1 0x24 DUP3 ADD MSTORE PUSH32 0x5472616E7366657220616D6F756E74206D757374206265203E30000000000000 PUSH1 0x44 DUP3 ADD MSTORE PUSH1 0x64 ADD PUSH2 0x807 JUMP JUMPDEST PUSH1 0x13 SLOAD PUSH0 SWAP1 PUSH1 0x1 PUSH1 0x1 PUSH1 0xA0 SHL SUB DUP6 DUP2 AND SWAP2 AND EQ DUP1 ISZERO PUSH2 0x11B2 JUMPI POP PUSH1 0x1 PUSH1 0x1 PUSH1 0xA0 SHL SUB DUP4 AND PUSH0 SWAP1 DUP2 MSTORE PUSH1 0x14 PUSH1 0x20 MSTORE PUSH1 0x40 SWAP1 KECCAK256 SLOAD PUSH1 0xFF AND ISZERO JUMPDEST PUSH1 0x13 SLOAD SWAP1 SWAP2 POP PUSH0 SWAP1 PUSH1 0x1 PUSH1 0x1 PUSH1 0xA0 SHL SUB DUP6 DUP2 AND SWAP2 AND EQ DUP1 ISZERO PUSH2 0x11EC JUMPI POP PUSH1 0x1 PUSH1 0x1 PUSH1 0xA0 SHL SUB DUP6 AND PUSH0 SWAP1 DUP2 MSTORE PUSH1 0x14 PUSH1 0x20 MSTORE PUSH1 0x40 SWAP1 KECCAK256 SLOAD PUSH1 0xFF AND ISZERO JUMPDEST PUSH1 0xE SLOAD SWAP1 SWAP2 POP PUSH1 0xFF AND DUP1 ISZERO PUSH2 0x11FE JUMPI POP DUP1 JUMPDEST ISZERO PUSH2 0x125E JUMPI PUSH1 0x10 SLOAD PUSH1 0xFF AND ISZERO PUSH2 0x1256 JUMPI PUSH1 0x40 MLOAD PUSH3 0x461BCD PUSH1 0xE5 SHL DUP2 MSTORE PUSH1 0x20 PUSH1 0x4 DUP3 ADD MSTORE PUSH1 0x1E PUSH1 0x24 DUP3 ADD MSTORE PUSH32 0x53656C6C732073746F70706564206279204469616D6F6E6420466C6F6F720000 PUSH1 0x44 DUP3 ADD MSTORE PUSH1 0x64 ADD PUSH2 0x807 JUMP JUMPDEST PUSH2 0x125E PUSH2 0x15F5 JUMP JUMPDEST PUSH1 0xC SLOAD PUSH1 0xFF AND DUP1 ISZERO PUSH2 0x126D JUMPI POP DUP1 JUMPDEST ISZERO PUSH2 0x12FC JUMPI PUSH1 0x1 PUSH1 0x1 PUSH1 0xA0 SHL SUB DUP6 AND PUSH0 SWAP1 DUP2 MSTORE PUSH1 0xD PUSH1 0x20 MSTORE PUSH1 0x40 SWAP1 KECCAK256 SLOAD TIMESTAMP LT ISZERO PUSH2 0x12CB JUMPI PUSH1 0x40 MLOAD PUSH3 0x461BCD PUSH1 0xE5 SHL DUP2 MSTORE PUSH1 0x20 PUSH1 0x4 DUP3 ADD MSTORE PUSH1 0xF PUSH1 0x24 DUP3 ADD MSTORE PUSH15 0x436F6F6C646F776E20616374697665 PUSH1 0x88 SHL PUSH1 0x44 DUP3 ADD MSTORE PUSH1 0x64 ADD PUSH2 0x807 JUMP JUMPDEST PUSH1 0xC SLOAD PUSH2 0x12E3 SWAP1 PUSH2 0x100 SWAP1 DIV PUSH4 0xFFFFFFFF AND TIMESTAMP PUSH2 0x21C1 JUMP JUMPDEST PUSH1 0x1 PUSH1 0x1 PUSH1 0xA0 SHL SUB DUP7 AND PUSH0 SWAP1 DUP2 MSTORE PUSH1 0xD PUSH1 0x20 MSTORE PUSH1 0x40 SWAP1 KECCAK256 SSTORE JUMPDEST PUSH0 PUSH2 0x1308 DUP7 DUP7 DUP7 PUSH2 0x16A7 JUMP JUMPDEST SWAP1 POP PUSH0 PUSH2 0x1315 DUP6 DUP4 PUSH2 0x144D JUMP JUMPDEST PUSH1 0x1 PUSH1 0x1 PUSH1 0xA0 SHL SUB DUP8 AND PUSH0 SWAP1 DUP2 MSTORE PUSH1 0x14 PUSH1 0x20 MSTORE PUSH1 0x40 SWAP1 KECCAK256 SLOAD SWAP1 SWAP2 POP PUSH1 0xFF AND ISZERO DUP1 ISZERO PUSH2 0x133E JUMPI POP DUP3 ISZERO JUMPDEST ISZERO PUSH2 0x13B7 JUMPI PUSH2 0x134B PUSH2 0xA42 JUMP JUMPDEST PUSH2 0x1373 DUP3 PUSH2 0x136D DUP10 PUSH1 0x1 PUSH1 0x1 PUSH1 0xA0 SHL SUB AND PUSH0 SWAP1 DUP2 MSTORE PUSH1 0x20 DUP2 SWAP1 MSTORE PUSH1 0x40 SWAP1 KECCAK256 SLOAD SWAP1 JUMP JUMPDEST SWAP1 PUSH2 0x17CA JUMP JUMPDEST GT ISZERO PUSH2 0x13B7 JUMPI PUSH1 0x40 MLOAD PUSH3 0x461BCD PUSH1 0xE5 SHL DUP2 MSTORE PUSH1 0x20 PUSH1 0x4 DUP3 ADD MSTORE PUSH1 0x13 PUSH1 0x24 DUP3 ADD MSTORE PUSH19 0x13585E081DD85B1B195D08195E18D959591959 PUSH1 0x6A SHL PUSH1 0x44 DUP3 ADD MSTORE PUSH1 0x64 ADD PUSH2 0x807 JUMP JUMPDEST DUP2 ISZERO PUSH2 0x13D3 JUMPI PUSH2 0x13C8 DUP8 ADDRESS DUP5 PUSH2 0x17D5 JUMP JUMPDEST PUSH2 0x13D3 DUP3 DUP6 DUP6 PUSH2 0x1977 JUMP JUMPDEST PUSH2 0x13DE DUP8 DUP8 DUP4 PUSH2 0x17D5 JUMP JUMPDEST PUSH2 0x13E6 PUSH2 0x1B91 JUMP JUMPDEST ISZERO PUSH2 0x13F3 JUMPI PUSH2 0x13F3 PUSH2 0x1BD0 JUMP JUMPDEST POP POP POP POP POP POP POP JUMP JUMPDEST PUSH1 0x5 DUP1 SLOAD PUSH1 0x1 PUSH1 0x1 PUSH1 0xA0 SHL SUB DUP4 DUP2 AND PUSH1 0x1 PUSH1 0x1 PUSH1 0xA0 SHL SUB NOT DUP4 AND DUP2 OR SWAP1 SWAP4 SSTORE PUSH1 0x40 MLOAD SWAP2 AND SWAP2 SWAP1 DUP3 SWAP1 PUSH32 0x8BE0079C531659141344CD1FD0A4F28419497F9722A3DAAFE3B4186F6B6457E0 SWAP1 PUSH0 SWAP1 LOG3 POP POP JUMP JUMPDEST PUSH0 PUSH2 0x8FD DUP3 DUP5 PUSH2 0x22B2 JUMP JUMPDEST PUSH0 PUSH2 0x8FD DUP3 DUP5 PUSH2 0x22C5 JUMP JUMPDEST PUSH0 PUSH2 0x8FD DUP3 DUP5 PUSH2 0x22DC JUMP JUMPDEST PUSH1 0x12 PUSH0 SWAP1 SLOAD SWAP1 PUSH2 0x100 EXP SWAP1 DIV PUSH1 0x1 PUSH1 0x1 PUSH1 0xA0 SHL SUB AND PUSH1 0x1 PUSH1 0x1 PUSH1 0xA0 SHL SUB AND PUSH4 0xC45A0155 PUSH1 0x40 MLOAD DUP2 PUSH4 0xFFFFFFFF AND PUSH1 0xE0 SHL DUP2 MSTORE PUSH1 0x4 ADD PUSH1 0x20 PUSH1 0x40 MLOAD DUP1 DUP4 SUB DUP2 DUP7 GAS STATICCALL ISZERO DUP1 ISZERO PUSH2 0x14BE JUMPI RETURNDATASIZE PUSH0 DUP1 RETURNDATACOPY RETURNDATASIZE PUSH0 REVERT JUMPDEST POP POP POP POP PUSH1 0x40 MLOAD RETURNDATASIZE PUSH1 0x1F NOT PUSH1 0x1F DUP3 ADD AND DUP3 ADD DUP1 PUSH1 0x40 MSTORE POP DUP2 ADD SWAP1 PUSH2 0x14E2 SWAP2 SWAP1 PUSH2 0x2248 JUMP JUMPDEST PUSH1 0x1 PUSH1 0x1 PUSH1 0xA0 SHL SUB AND PUSH4 0xC9C65396 ADDRESS PUSH1 0x12 PUSH0 SWAP1 SLOAD SWAP1 PUSH2 0x100 EXP SWAP1 DIV PUSH1 0x1 PUSH1 0x1 PUSH1 0xA0 SHL SUB AND PUSH1 0x1 PUSH1 0x1 PUSH1 0xA0 SHL SUB AND PUSH4 0xAD5C4648 PUSH1 0x40 MLOAD DUP2 PUSH4 0xFFFFFFFF AND PUSH1 0xE0 SHL DUP2 MSTORE PUSH1 0x4 ADD PUSH1 0x20 PUSH1 0x40 MLOAD DUP1 DUP4 SUB DUP2 DUP7 GAS STATICCALL ISZERO DUP1 ISZERO PUSH2 0x1541 JUMPI RETURNDATASIZE PUSH0 DUP1 RETURNDATACOPY RETURNDATASIZE PUSH0 REVERT JUMPDEST POP POP POP POP PUSH1 0x40 MLOAD RETURNDATASIZE PUSH1 0x1F NOT PUSH1 0x1F DUP3 ADD AND DUP3 ADD DUP1 PUSH1 0x40 MSTORE POP DUP2 ADD SWAP1 PUSH2 0x1565 SWAP2 SWAP1 PUSH2 0x2248 JUMP JUMPDEST PUSH1 0x40 MLOAD PUSH1 0x1 PUSH1 0x1 PUSH1 0xE0 SHL SUB NOT PUSH1 0xE0 DUP6 SWAP1 SHL AND DUP2 MSTORE PUSH1 0x1 PUSH1 0x1 PUSH1 0xA0 SHL SUB SWAP3 DUP4 AND PUSH1 0x4 DUP3 ADD MSTORE SWAP2 AND PUSH1 0x24 DUP3 ADD MSTORE PUSH1 0x44 ADD PUSH1 0x20 PUSH1 0x40 MLOAD DUP1 DUP4 SUB DUP2 PUSH0 DUP8 GAS CALL ISZERO DUP1 ISZERO PUSH2 0x15AF JUMPI RETURNDATASIZE PUSH0 DUP1 RETURNDATACOPY RETURNDATASIZE PUSH0 REVERT JUMPDEST POP POP POP POP PUSH1 0x40 MLOAD RETURNDATASIZE PUSH1 0x1F NOT PUSH1 0x1F DUP3 ADD AND DUP3 ADD DUP1 PUSH1 0x40 MSTORE POP DUP2 ADD SWAP1 PUSH2 0x15D3 SWAP2 SWAP1 PUSH2 0x2248 JUMP JUMPDEST PUSH1 0x13 DUP1 SLOAD PUSH1 0x1 PUSH1 0x1 PUSH1 0xA0 SHL SUB NOT AND PUSH1 0x1 PUSH1 0x1 PUSH1 0xA0 SHL SUB SWAP3 SWAP1 SWAP3 AND SWAP2 SWAP1 SWAP2 OR SWAP1 SSTORE JUMP JUMPDEST PUSH0 PUSH2 0x15FE PUSH2 0xA6F JUMP JUMPDEST SWAP1 POP DUP1 PUSH0 SUB PUSH2 0x160A JUMPI POP JUMP JUMPDEST PUSH1 0xF SLOAD DUP2 GT ISZERO PUSH2 0x1623 JUMPI PUSH1 0xF SSTORE PUSH1 0x10 DUP1 SLOAD PUSH1 0xFF NOT AND SWAP1 SSTORE JUMP JUMPDEST PUSH1 0xE SLOAD PUSH0 SWAP1 PUSH2 0x1651 SWAP1 PUSH2 0x2710 SWAP1 PUSH2 0x980 SWAP1 PUSH2 0x1648 SWAP1 DUP4 SWAP1 PUSH2 0x100 SWAP1 DIV PUSH2 0xFFFF AND PUSH2 0x144D JUMP JUMPDEST PUSH1 0xF SLOAD SWAP1 PUSH2 0x1458 JUMP JUMPDEST SWAP1 POP DUP1 DUP3 LT ISZERO PUSH2 0x166F JUMPI PUSH1 0x10 DUP1 SLOAD PUSH1 0xFF NOT AND PUSH1 0x1 OR SWAP1 SSTORE PUSH1 0xF SLOAD PUSH1 0x11 SSTORE JUMPDEST PUSH1 0x10 SLOAD PUSH1 0xFF AND DUP1 ISZERO PUSH2 0x168E JUMPI POP PUSH1 0x11 SLOAD PUSH2 0x168A SWAP1 PUSH1 0x2 PUSH2 0x1458 JUMP JUMPDEST DUP3 LT ISZERO JUMPDEST ISZERO PUSH2 0x16A3 JUMPI PUSH1 0x10 DUP1 SLOAD PUSH1 0xFF NOT AND SWAP1 SSTORE PUSH1 0xF DUP3 SWAP1 SSTORE JUMPDEST POP POP JUMP JUMPDEST PUSH1 0x1 PUSH1 0x1 PUSH1 0xA0 SHL SUB DUP4 AND PUSH0 SWAP1 DUP2 MSTORE PUSH1 0x14 PUSH1 0x20 MSTORE PUSH1 0x40 DUP2 KECCAK256 SLOAD PUSH1 0xFF AND DUP1 PUSH2 0x16E4 JUMPI POP PUSH1 0x1 PUSH1 0x1 PUSH1 0xA0 SHL SUB DUP4 AND PUSH0 SWAP1 DUP2 MSTORE PUSH1 0x14 PUSH1 0x20 MSTORE PUSH1 0x40 SWAP1 KECCAK256 SLOAD PUSH1 0xFF AND JUMPDEST ISZERO PUSH2 0x16F0 JUMPI POP PUSH0 PUSH2 0x8FD JUMP JUMPDEST PUSH1 0x13 SLOAD PUSH1 0x1 PUSH1 0x1 PUSH1 0xA0 SHL SUB SWAP1 DUP2 AND DUP6 DUP3 AND DUP2 EQ SWAP2 DUP6 AND EQ DUP2 ISZERO PUSH2 0x1743 JUMPI PUSH1 0x7 SLOAD PUSH2 0x173A SWAP1 PUSH2 0x2710 SWAP1 PUSH2 0x980 SWAP1 PUSH2 0x1733 SWAP1 PUSH2 0xFFFF DUP1 DUP3 AND SWAP2 PUSH3 0x10000 SWAP1 DIV AND PUSH2 0x17CA JUMP JUMPDEST DUP8 SWAP1 PUSH2 0x1458 JUMP JUMPDEST SWAP3 POP POP POP PUSH2 0x8FD JUMP JUMPDEST DUP1 ISZERO PUSH2 0x1776 JUMPI PUSH1 0x7 SLOAD PUSH2 0x173A SWAP1 PUSH2 0x2710 SWAP1 PUSH2 0x980 SWAP1 PUSH2 0x1733 SWAP1 PUSH2 0xFFFF PUSH1 0x1 PUSH1 0x20 SHL DUP3 DIV DUP2 AND SWAP2 PUSH1 0x1 PUSH1 0x30 SHL SWAP1 DIV AND PUSH2 0x17CA JUMP JUMPDEST PUSH1 0x7 SLOAD PUSH0 SWAP1 PUSH2 0x1799 SWAP1 PUSH2 0xFFFF PUSH1 0x1 PUSH1 0x20 SHL DUP3 DIV DUP2 AND SWAP2 PUSH1 0x1 PUSH1 0x30 SHL SWAP1 DIV AND PUSH2 0x17CA JUMP JUMPDEST SWAP1 POP PUSH0 PUSH2 0x17AC PUSH1 0xA PUSH2 0x980 DUP5 PUSH1 0x23 PUSH2 0x1458 JUMP JUMPDEST SWAP1 POP PUSH2 0x17BE PUSH2 0x2710 PUSH2 0x980 DUP9 DUP5 PUSH2 0x1458 JUMP JUMPDEST SWAP9 SWAP8 POP POP POP POP POP POP POP POP JUMP JUMPDEST PUSH0 PUSH2 0x8FD DUP3 DUP5 PUSH2 0x21C1 JUMP JUMPDEST PUSH1 0x1 PUSH1 0x1 PUSH1 0xA0 SHL SUB DUP4 AND PUSH2 0x1839 JUMPI PUSH1 0x40 MLOAD PUSH3 0x461BCD PUSH1 0xE5 SHL DUP2 MSTORE PUSH1 0x20 PUSH1 0x4 DUP3 ADD MSTORE PUSH1 0x25 PUSH1 0x24 DUP3 ADD MSTORE PUSH32 0x45524332303A207472616E736665722066726F6D20746865207A65726F206164 PUSH1 0x44 DUP3 ADD MSTORE PUSH5 0x6472657373 PUSH1 0xD8 SHL PUSH1 0x64 DUP3 ADD MSTORE PUSH1 0x84 ADD PUSH2 0x807 JUMP JUMPDEST PUSH1 0x1 PUSH1 0x1 PUSH1 0xA0 SHL SUB DUP3 AND PUSH2 0x189B JUMPI PUSH1 0x40 MLOAD PUSH3 0x461BCD PUSH1 0xE5 SHL DUP2 MSTORE PUSH1 0x20 PUSH1 0x4 DUP3 ADD MSTORE PUSH1 0x23 PUSH1 0x24 DUP3 ADD MSTORE PUSH32 0x45524332303A207472616E7366657220746F20746865207A65726F2061646472 PUSH1 0x44 DUP3 ADD MSTORE PUSH3 0x657373 PUSH1 0xE8 SHL PUSH1 0x64 DUP3 ADD MSTORE PUSH1 0x84 ADD PUSH2 0x807 JUMP JUMPDEST PUSH1 0x1 PUSH1 0x1 PUSH1 0xA0 SHL SUB DUP4 AND PUSH0 SWAP1 DUP2 MSTORE PUSH1 0x20 DUP2 SWAP1 MSTORE PUSH1 0x40 SWAP1 KECCAK256 SLOAD DUP2 DUP2 LT ISZERO PUSH2 0x1912 JUMPI PUSH1 0x40 MLOAD PUSH3 0x461BCD PUSH1 0xE5 SHL DUP2 MSTORE PUSH1 0x20 PUSH1 0x4 DUP3 ADD MSTORE PUSH1 0x26 PUSH1 0x24 DUP3 ADD MSTORE PUSH32 0x45524332303A207472616E7366657220616D6F756E7420657863656564732062 PUSH1 0x44 DUP3 ADD MSTORE PUSH6 0x616C616E6365 PUSH1 0xD0 SHL PUSH1 0x64 DUP3 ADD MSTORE PUSH1 0x84 ADD PUSH2 0x807 JUMP JUMPDEST PUSH1 0x1 PUSH1 0x1 PUSH1 0xA0 SHL SUB DUP5 DUP2 AND PUSH0 DUP2 DUP2 MSTORE PUSH1 0x20 DUP2 DUP2 MSTORE PUSH1 0x40 DUP1 DUP4 KECCAK256 DUP8 DUP8 SUB SWAP1 SSTORE SWAP4 DUP8 AND DUP1 DUP4 MSTORE SWAP2 DUP5 SWAP1 KECCAK256 DUP1 SLOAD DUP8 ADD SWAP1 SSTORE SWAP3 MLOAD DUP6 DUP2 MSTORE SWAP1 SWAP3 PUSH32 0xDDF252AD1BE2C89B69C2B068FC378DAA952BA7F163C4A11628F55A4DF523B3EF SWAP2 ADD PUSH1 0x40 MLOAD DUP1 SWAP2 SUB SWAP1 LOG3 PUSH2 0x1126 JUMP JUMPDEST PUSH0 DUP1 DUP4 ISZERO PUSH2 0x19FE JUMPI PUSH1 0x7 SLOAD PUSH0 SWAP1 PUSH2 0x199B SWAP1 PUSH2 0xFFFF DUP1 DUP3 AND SWAP2 PUSH3 0x10000 SWAP1 DIV AND PUSH2 0x17CA JUMP JUMPDEST SWAP1 POP PUSH0 DUP2 GT PUSH2 0x19DE JUMPI PUSH1 0x40 MLOAD PUSH3 0x461BCD PUSH1 0xE5 SHL DUP2 MSTORE PUSH1 0x20 PUSH1 0x4 DUP3 ADD MSTORE PUSH1 0xF PUSH1 0x24 DUP3 ADD MSTORE PUSH15 0x109D5E481D185E081B9BDD081CD95D PUSH1 0x8A SHL PUSH1 0x44 DUP3 ADD MSTORE PUSH1 0x64 ADD PUSH2 0x807 JUMP JUMPDEST PUSH1 0x7 SLOAD PUSH2 0x19F6 SWAP1 DUP3 SWAP1 PUSH2 0x980 SWAP1 DUP10 SWAP1 PUSH2 0xFFFF AND PUSH2 0x1458 JUMP JUMPDEST SWAP3 POP POP PUSH2 0x1B24 JUMP JUMPDEST DUP3 ISZERO PUSH2 0x1A8A JUMPI PUSH1 0x7 SLOAD PUSH0 SWAP1 PUSH2 0x1A27 SWAP1 PUSH2 0xFFFF PUSH1 0x1 PUSH1 0x20 SHL DUP3 DIV DUP2 AND SWAP2 PUSH1 0x1 PUSH1 0x30 SHL SWAP1 DIV AND PUSH2 0x17CA JUMP JUMPDEST SWAP1 POP PUSH0 DUP2 GT PUSH2 0x1A6B JUMPI PUSH1 0x40 MLOAD PUSH3 0x461BCD PUSH1 0xE5 SHL DUP2 MSTORE PUSH1 0x20 PUSH1 0x4 DUP3 ADD MSTORE PUSH1 0x10 PUSH1 0x24 DUP3 ADD MSTORE PUSH16 0x14D95B1B081D185E081B9BDD081CD95D PUSH1 0x82 SHL PUSH1 0x44 DUP3 ADD MSTORE PUSH1 0x64 ADD PUSH2 0x807 JUMP JUMPDEST PUSH1 0x7 SLOAD PUSH2 0x19F6 SWAP1 DUP3 SWAP1 PUSH2 0x980 SWAP1 DUP10 SWAP1 PUSH1 0x1 PUSH1 0x20 SHL SWAP1 DIV PUSH2 0xFFFF AND PUSH2 0x1458 JUMP JUMPDEST PUSH1 0x7 SLOAD PUSH0 SWAP1 PUSH2 0x1AAD SWAP1 PUSH2 0xFFFF PUSH1 0x1 PUSH1 0x20 SHL DUP3 DIV DUP2 AND SWAP2 PUSH1 0x1 PUSH1 0x30 SHL SWAP1 DIV AND PUSH2 0x17CA JUMP JUMPDEST SWAP1 POP PUSH0 DUP2 GT PUSH2 0x1AF5 JUMPI PUSH1 0x40 MLOAD PUSH3 0x461BCD PUSH1 0xE5 SHL DUP2 MSTORE PUSH1 0x20 PUSH1 0x4 DUP3 ADD MSTORE PUSH1 0x14 PUSH1 0x24 DUP3 ADD MSTORE PUSH20 0x151C985B9CD9995C881D185E081B9BDD081CD95D PUSH1 0x62 SHL PUSH1 0x44 DUP3 ADD MSTORE PUSH1 0x64 ADD PUSH2 0x807 JUMP JUMPDEST PUSH1 0x7 SLOAD PUSH2 0x1B20 SWAP1 PUSH1 0xA SWAP1 PUSH2 0x980 SWAP1 PUSH1 0x23 SWAP1 PUSH2 0x97A SWAP1 DUP7 SWAP1 DUP5 SWAP1 DUP14 SWAP1 PUSH1 0x1 PUSH1 0x20 SHL SWAP1 DIV PUSH2 0xFFFF AND PUSH2 0x1458 JUMP JUMPDEST SWAP3 POP POP JUMPDEST PUSH2 0x1B2E DUP6 DUP4 PUSH2 0x144D JUMP JUMPDEST PUSH1 0x9 SLOAD SWAP1 SWAP2 POP PUSH2 0x1B3E SWAP1 DUP4 PUSH2 0x17CA JUMP JUMPDEST PUSH1 0x9 SSTORE PUSH1 0xA SLOAD PUSH2 0x1B4E SWAP1 DUP3 PUSH2 0x17CA JUMP JUMPDEST PUSH1 0xA SSTORE PUSH1 0x40 DUP1 MLOAD DUP4 DUP2 MSTORE PUSH1 0x20 DUP2 ADD DUP4 SWAP1 MSTORE PUSH32 0xF2D9F3F00FC700757EB74F9AA3DBA0E2EB1280E0C6E0CF65962CC055528D7A90 SWAP2 ADD PUSH1 0x40 MLOAD DUP1 SWAP2 SUB SWAP1 LOG1 POP POP POP POP POP JUMP JUMPDEST PUSH1 0xB SLOAD PUSH0 SWAP1 PUSH1 0xFF AND ISZERO DUP1 ISZERO PUSH2 0x1BB6 JUMPI POP PUSH1 0x8 SLOAD PUSH1 0xA SLOAD PUSH1 0x9 SLOAD PUSH2 0x1BB3 SWAP2 PUSH2 0x17CA JUMP JUMPDEST LT ISZERO JUMPDEST DUP1 ISZERO PUSH2 0xA6A JUMPI POP POP PUSH1 0x13 SLOAD PUSH1 0x1 PUSH1 0x1 PUSH1 0xA0 SHL SUB AND CALLER EQ ISZERO SWAP1 JUMP JUMPDEST PUSH0 PUSH2 0x1BE8 PUSH1 0xA SLOAD PUSH1 0x9 SLOAD PUSH2 0x17CA SWAP1 SWAP2 SWAP1 PUSH4 0xFFFFFFFF AND JUMP JUMPDEST SWAP1 POP PUSH1 0x8 SLOAD DUP2 LT ISZERO PUSH2 0x1BF7 JUMPI POP JUMP JUMPDEST PUSH1 0xB DUP1 SLOAD PUSH1 0xFF NOT AND PUSH1 0x1 OR SWAP1 SSTORE PUSH1 0xA SLOAD SELFBALANCE SWAP1 PUSH2 0x1C12 SWAP1 PUSH2 0x1CC1 JUMP JUMPDEST PUSH0 PUSH2 0x1C1D SELFBALANCE DUP4 PUSH2 0x144D JUMP JUMPDEST SWAP1 POP PUSH2 0x1C31 PUSH1 0x5 SLOAD PUSH1 0x1 PUSH1 0x1 PUSH1 0xA0 SHL SUB AND SWAP1 JUMP JUMPDEST PUSH1 0x1 PUSH1 0x1 PUSH1 0xA0 SHL SUB AND PUSH2 0x8FC DUP3 SWAP1 DUP2 ISZERO MUL SWAP1 PUSH1 0x40 MLOAD PUSH0 PUSH1 0x40 MLOAD DUP1 DUP4 SUB DUP2 DUP6 DUP9 DUP9 CALL SWAP4 POP POP POP POP ISZERO DUP1 ISZERO PUSH2 0x1C66 JUMPI RETURNDATASIZE PUSH0 DUP1 RETURNDATACOPY RETURNDATASIZE PUSH0 REVERT JUMPDEST POP PUSH1 0x9 SLOAD PUSH0 PUSH2 0x1C76 DUP3 PUSH1 0x2 PUSH2 0x1463 JUMP JUMPDEST SWAP1 POP PUSH2 0x1C81 DUP2 PUSH2 0x1CC1 JUMP JUMPDEST PUSH0 PUSH2 0x1C8C SELFBALANCE DUP6 PUSH2 0x144D JUMP JUMPDEST SWAP1 POP PUSH2 0x1CA1 PUSH2 0x1C9B DUP5 DUP5 PUSH2 0x144D JUMP JUMPDEST DUP3 PUSH2 0x1E22 JUMP JUMPDEST POP POP PUSH0 PUSH1 0x9 DUP2 SWAP1 SSTORE PUSH1 0xA SSTORE POP POP PUSH1 0xB DUP1 SLOAD PUSH1 0xFF NOT AND SWAP1 SSTORE POP POP JUMP JUMPDEST POP POP POP JUMP JUMPDEST PUSH1 0x40 DUP1 MLOAD PUSH1 0x2 DUP1 DUP3 MSTORE PUSH1 0x60 DUP3 ADD DUP4 MSTORE PUSH0 SWAP3 PUSH1 0x20 DUP4 ADD SWAP1 DUP1 CALLDATASIZE DUP4 CALLDATACOPY ADD SWAP1 POP POP SWAP1 POP ADDRESS DUP2 PUSH0 DUP2 MLOAD DUP2 LT PUSH2 0x1CF4 JUMPI PUSH2 0x1CF4 PUSH2 0x2303 JUMP JUMPDEST PUSH1 0x1 PUSH1 0x1 PUSH1 0xA0 SHL SUB SWAP3 DUP4 AND PUSH1 0x20 SWAP2 DUP3 MUL SWAP3 SWAP1 SWAP3 ADD DUP2 ADD SWAP2 SWAP1 SWAP2 MSTORE PUSH1 0x12 SLOAD PUSH1 0x40 DUP1 MLOAD PUSH4 0x15AB88C9 PUSH1 0xE3 SHL DUP2 MSTORE SWAP1 MLOAD SWAP2 SWAP1 SWAP4 AND SWAP3 PUSH4 0xAD5C4648 SWAP3 PUSH1 0x4 DUP1 DUP4 ADD SWAP4 SWAP2 SWAP3 DUP3 SWAP1 SUB ADD DUP2 DUP7 GAS STATICCALL ISZERO DUP1 ISZERO PUSH2 0x1D4B JUMPI RETURNDATASIZE PUSH0 DUP1 RETURNDATACOPY RETURNDATASIZE PUSH0 REVERT JUMPDEST POP POP POP POP PUSH1 0x40 MLOAD RETURNDATASIZE PUSH1 0x1F NOT PUSH1 0x1F DUP3 ADD AND DUP3 ADD DUP1 PUSH1 0x40 MSTORE POP DUP2 ADD SWAP1 PUSH2 0x1D6F SWAP2 SWAP1 PUSH2 0x2248 JUMP JUMPDEST DUP2 PUSH1 0x1 DUP2 MLOAD DUP2 LT PUSH2 0x1D82 JUMPI PUSH2 0x1D82 PUSH2 0x2303 JUMP JUMPDEST PUSH1 0x1 PUSH1 0x1 PUSH1 0xA0 SHL SUB SWAP3 DUP4 AND PUSH1 0x20 SWAP2 DUP3 MUL SWAP3 SWAP1 SWAP3 ADD ADD MSTORE PUSH1 0x12 SLOAD PUSH2 0x1DA8 SWAP2 ADDRESS SWAP2 AND DUP5 PUSH2 0xF37 JUMP JUMPDEST PUSH1 0x12 SLOAD PUSH1 0x40 MLOAD PUSH4 0x18CBAFE5 PUSH1 0xE0 SHL DUP2 MSTORE PUSH1 0x1 PUSH1 0x1 PUSH1 0xA0 SHL SUB SWAP1 SWAP2 AND SWAP1 PUSH4 0x18CBAFE5 SWAP1 PUSH2 0x1DE0 SWAP1 DUP6 SWAP1 PUSH0 SWAP1 DUP7 SWAP1 ADDRESS SWAP1 TIMESTAMP SWAP1 PUSH1 0x4 ADD PUSH2 0x2317 JUMP JUMPDEST PUSH0 PUSH1 0x40 MLOAD DUP1 DUP4 SUB DUP2 PUSH0 DUP8 GAS CALL ISZERO DUP1 ISZERO PUSH2 0x1DFB JUMPI RETURNDATASIZE PUSH0 DUP1 RETURNDATACOPY RETURNDATASIZE PUSH0 REVERT JUMPDEST POP POP POP POP PUSH1 0x40 MLOAD RETURNDATASIZE PUSH0 DUP3 RETURNDATACOPY PUSH1 0x1F RETURNDATASIZE SWAP1 DUP2 ADD PUSH1 0x1F NOT AND DUP3 ADD PUSH1 0x40 MSTORE PUSH2 0x1CBC SWAP2 SWAP1 DUP2 ADD SWAP1 PUSH2 0x2388 JUMP JUMPDEST PUSH1 0x12 SLOAD PUSH2 0x1E3A SWAP1 ADDRESS SWAP1 PUSH1 0x1 PUSH1 0x1 PUSH1 0xA0 SHL SUB AND DUP5 PUSH2 0xF37 JUMP JUMPDEST PUSH1 0x12 SLOAD PUSH1 0x1 PUSH1 0x1 PUSH1 0xA0 SHL SUB AND PUSH4 0xF305D719 DUP3 ADDRESS DUP6 PUSH0 DUP1 PUSH2 0x1E62 PUSH1 0x5 SLOAD PUSH1 0x1 PUSH1 0x1 PUSH1 0xA0 SHL SUB AND SWAP1 JUMP JUMPDEST PUSH1 0x40 MLOAD PUSH1 0xE0 DUP9 SWAP1 SHL PUSH1 0x1 PUSH1 0x1 PUSH1 0xE0 SHL SUB NOT AND DUP2 MSTORE PUSH1 0x1 PUSH1 0x1 PUSH1 0xA0 SHL SUB SWAP6 DUP7 AND PUSH1 0x4 DUP3 ADD MSTORE PUSH1 0x24 DUP2 ADD SWAP5 SWAP1 SWAP5 MSTORE PUSH1 0x44 DUP5 ADD SWAP3 SWAP1 SWAP3 MSTORE PUSH1 0x64 DUP4 ADD MSTORE SWAP1 SWAP2 AND PUSH1 0x84 DUP3 ADD MSTORE TIMESTAMP PUSH1 0xA4 DUP3 ADD MSTORE PUSH1 0xC4 ADD PUSH1 0x60 PUSH1 0x40 MLOAD DUP1 DUP4 SUB DUP2 DUP6 DUP9 GAS CALL ISZERO DUP1 ISZERO PUSH2 0x1EC8 JUMPI RETURNDATASIZE PUSH0 DUP1 RETURNDATACOPY RETURNDATASIZE PUSH0 REVERT JUMPDEST POP POP POP POP POP PUSH1 0x40 MLOAD RETURNDATASIZE PUSH1 0x1F NOT PUSH1 0x1F DUP3 ADD AND DUP3 ADD DUP1 PUSH1 0x40 MSTORE POP DUP2 ADD SWAP1 PUSH2 0x1EED SWAP2 SWAP1 PUSH2 0x2435 JUMP JUMPDEST POP POP PUSH1 0x40 DUP1 MLOAD DUP5 DUP2 MSTORE PUSH1 0x20 DUP2 ADD DUP5 SWAP1 MSTORE PUSH32 0x38F8A0C92F4C5B0B6877F878CB4C0C8D348A47B76D716C8E78F425043DF9515B SWAP3 POP ADD PUSH1 0x40 MLOAD DUP1 SWAP2 SUB SWAP1 LOG1 POP POP JUMP JUMPDEST PUSH1 0x20 DUP2 MSTORE PUSH0 DUP3 MLOAD DUP1 PUSH1 0x20 DUP5 ADD MSTORE DUP1 PUSH1 0x20 DUP6 ADD PUSH1 0x40 DUP6 ADD MCOPY PUSH0 PUSH1 0x40 DUP3 DUP6 ADD ADD MSTORE PUSH1 0x40 PUSH1 0x1F NOT PUSH1 0x1F DUP4 ADD AND DUP5 ADD ADD SWAP2 POP POP SWAP3 SWAP2 POP POP JUMP JUMPDEST PUSH1 0x1 PUSH1 0x1 PUSH1 0xA0 SHL SUB DUP2 AND DUP2 EQ PUSH2 0xE71 JUMPI PUSH0 DUP1 REVERT JUMPDEST PUSH0 DUP1 PUSH1 0x40 DUP4 DUP6 SUB SLT ISZERO PUSH2 0x1F87 JUMPI PUSH0 DUP1 REVERT JUMPDEST DUP3 CALLDATALOAD PUSH2 0x1F92 DUP2 PUSH2 0x1F62 JUMP JUMPDEST SWAP5 PUSH1 0x20 SWAP4 SWAP1 SWAP4 ADD CALLDATALOAD SWAP4 POP POP POP JUMP JUMPDEST DUP1 CALLDATALOAD PUSH2 0xFFFF DUP2 AND DUP2 EQ PUSH2 0x1FB1 JUMPI PUSH0 DUP1 REVERT JUMPDEST SWAP2 SWAP1 POP JUMP JUMPDEST PUSH0 DUP1 PUSH0 DUP1 PUSH1 0x80 DUP6 DUP8 SUB SLT ISZERO PUSH2 0x1FC9 JUMPI PUSH0 DUP1 REVERT JUMPDEST PUSH2 0x1FD2 DUP6 PUSH2 0x1FA0 JUMP JUMPDEST SWAP4 POP PUSH2 0x1FE0 PUSH1 0x20 DUP7 ADD PUSH2 0x1FA0 JUMP JUMPDEST SWAP3 POP PUSH2 0x1FEE PUSH1 0x40 DUP7 ADD PUSH2 0x1FA0 JUMP JUMPDEST SWAP2 POP PUSH2 0x1FFC PUSH1 0x60 DUP7 ADD PUSH2 0x1FA0 JUMP JUMPDEST SWAP1 POP SWAP3 SWAP6 SWAP2 SWAP5 POP SWAP3 POP JUMP JUMPDEST PUSH0 DUP1 PUSH0 PUSH1 0x60 DUP5 DUP7 SUB SLT ISZERO PUSH2 0x2019 JUMPI PUSH0 DUP1 REVERT JUMPDEST DUP4 CALLDATALOAD PUSH2 0x2024 DUP2 PUSH2 0x1F62 JUMP JUMPDEST SWAP3 POP PUSH1 0x20 DUP5 ADD CALLDATALOAD PUSH2 0x2034 DUP2 PUSH2 0x1F62 JUMP JUMPDEST SWAP3 SWAP6 SWAP3 SWAP5 POP POP POP PUSH1 0x40 SWAP2 SWAP1 SWAP2 ADD CALLDATALOAD SWAP1 JUMP JUMPDEST PUSH0 PUSH1 0x20 DUP3 DUP5 SUB SLT ISZERO PUSH2 0x2055 JUMPI PUSH0 DUP1 REVERT JUMPDEST DUP2 CALLDATALOAD PUSH2 0x8FD DUP2 PUSH2 0x1F62 JUMP JUMPDEST PUSH0 PUSH1 0x20 DUP3 DUP5 SUB SLT ISZERO PUSH2 0x2070 JUMPI PUSH0 DUP1 REVERT JUMPDEST POP CALLDATALOAD SWAP2 SWAP1 POP JUMP JUMPDEST DUP1 CALLDATALOAD DUP1 ISZERO ISZERO DUP2 EQ PUSH2 0x1FB1 JUMPI PUSH0 DUP1 REVERT JUMPDEST PUSH0 DUP1 PUSH1 0x40 DUP4 DUP6 SUB SLT ISZERO PUSH2 0x2097 JUMPI PUSH0 DUP1 REVERT JUMPDEST DUP3 CALLDATALOAD PUSH2 0x20A2 DUP2 PUSH2 0x1F62 JUMP JUMPDEST SWAP2 POP PUSH2 0x20B0 PUSH1 0x20 DUP5 ADD PUSH2 0x2077 JUMP JUMPDEST SWAP1 POP SWAP3 POP SWAP3 SWAP1 POP JUMP JUMPDEST PUSH0 DUP1 PUSH1 0x40 DUP4 DUP6 SUB SLT ISZERO PUSH2 0x20CA JUMPI PUSH0 DUP1 REVERT JUMPDEST DUP3 CALLDATALOAD PUSH2 0x20D5 DUP2 PUSH2 0x1F62 JUMP JUMPDEST SWAP2 POP PUSH1 0x20 DUP4 ADD CALLDATALOAD PUSH2 0x20E5 DUP2 PUSH2 0x1F62 JUMP JUMPDEST DUP1 SWAP2 POP POP SWAP3 POP SWAP3 SWAP1 POP JUMP JUMPDEST PUSH0 DUP1 PUSH1 0x40 DUP4 DUP6 SUB SLT ISZERO PUSH2 0x2101 JUMPI PUSH0 DUP1 REVERT JUMPDEST PUSH2 0x210A DUP4 PUSH2 0x2077 JUMP JUMPDEST SWAP2 POP PUSH2 0x20B0 PUSH1 0x20 DUP5 ADD PUSH2 0x1FA0 JUMP JUMPDEST PUSH4 0xFFFFFFFF DUP2 AND DUP2 EQ PUSH2 0xE71 JUMPI PUSH0 DUP1 REVERT JUMPDEST PUSH0 DUP1 PUSH1 0x40 DUP4 DUP6 SUB SLT ISZERO PUSH2 0x213A JUMPI PUSH0 DUP1 REVERT JUMPDEST PUSH2 0x2143 DUP4 PUSH2 0x2077 JUMP JUMPDEST SWAP2 POP PUSH1 0x20 DUP4 ADD CALLDATALOAD PUSH2 0x20E5 DUP2 PUSH2 0x2118 JUMP JUMPDEST PUSH1 0x1 DUP2 DUP2 SHR SWAP1 DUP3 AND DUP1 PUSH2 0x2167 JUMPI PUSH1 0x7F DUP3 AND SWAP2 POP JUMPDEST PUSH1 0x20 DUP3 LT DUP2 SUB PUSH2 0x2185 JUMPI PUSH4 0x4E487B71 PUSH1 0xE0 SHL PUSH0 MSTORE PUSH1 0x22 PUSH1 0x4 MSTORE PUSH1 0x24 PUSH0 REVERT JUMPDEST POP SWAP2 SWAP1 POP JUMP JUMPDEST PUSH4 0x4E487B71 PUSH1 0xE0 SHL PUSH0 MSTORE PUSH1 0x11 PUSH1 0x4 MSTORE PUSH1 0x24 PUSH0 REVERT JUMPDEST PUSH2 0xFFFF DUP2 DUP2 AND DUP4 DUP3 AND ADD SWAP1 DUP1 DUP3 GT ISZERO PUSH2 0x21BA JUMPI PUSH2 0x21BA PUSH2 0x218B JUMP JUMPDEST POP SWAP3 SWAP2 POP POP JUMP JUMPDEST DUP1 DUP3 ADD DUP1 DUP3 GT ISZERO PUSH2 0x7AC JUMPI PUSH2 0x7AC PUSH2 0x218B JUMP JUMPDEST PUSH0 PUSH1 0x1 PUSH1 0xFF SHL DUP3 ADD PUSH2 0x21E8 JUMPI PUSH2 0x21E8 PUSH2 0x218B JUMP JUMPDEST POP PUSH0 SUB SWAP1 JUMP JUMPDEST DUP1 MLOAD PUSH1 0x1 PUSH1 0x1 PUSH1 0x70 SHL SUB DUP2 AND DUP2 EQ PUSH2 0x1FB1 JUMPI PUSH0 DUP1 REVERT JUMPDEST PUSH0 DUP1 PUSH0 PUSH1 0x60 DUP5 DUP7 SUB SLT ISZERO PUSH2 0x2216 JUMPI PUSH0 DUP1 REVERT JUMPDEST PUSH2 0x221F DUP5 PUSH2 0x21EE JUMP JUMPDEST SWAP3 POP PUSH2 0x222D PUSH1 0x20 DUP6 ADD PUSH2 0x21EE JUMP JUMPDEST SWAP2 POP PUSH1 0x40 DUP5 ADD MLOAD PUSH2 0x223D DUP2 PUSH2 0x2118 JUMP JUMPDEST DUP1 SWAP2 POP POP SWAP3 POP SWAP3 POP SWAP3 JUMP JUMPDEST PUSH0 PUSH1 0x20 DUP3 DUP5 SUB SLT ISZERO PUSH2 0x2258 JUMPI PUSH0 DUP1 REVERT JUMPDEST DUP2 MLOAD PUSH2 0x8FD DUP2 PUSH2 0x1F62 JUMP JUMPDEST PUSH4 0x4E487B71 PUSH1 0xE0 SHL PUSH0 MSTORE PUSH1 0x12 PUSH1 0x4 MSTORE PUSH1 0x24 PUSH0 REVERT JUMPDEST PUSH0 DUP3 PUSH2 0x2285 JUMPI PUSH2 0x2285 PUSH2 0x2263 JUMP JUMPDEST POP MOD SWAP1 JUMP JUMPDEST PUSH4 0xFFFFFFFF DUP2 DUP2 AND DUP4 DUP3 AND MUL DUP1 DUP3 AND SWAP2 SWAP1 DUP3 DUP2 EQ PUSH2 0x22AA JUMPI PUSH2 0x22AA PUSH2 0x218B JUMP JUMPDEST POP POP SWAP3 SWAP2 POP POP JUMP JUMPDEST DUP2 DUP2 SUB DUP2 DUP2 GT ISZERO PUSH2 0x7AC JUMPI PUSH2 0x7AC PUSH2 0x218B JUMP JUMPDEST DUP1 DUP3 MUL DUP2 ISZERO DUP3 DUP3 DIV DUP5 EQ OR PUSH2 0x7AC JUMPI PUSH2 0x7AC PUSH2 0x218B JUMP JUMPDEST PUSH0 DUP3 PUSH2 0x22EA JUMPI PUSH2 0x22EA PUSH2 0x2263 JUMP JUMPDEST POP DIV SWAP1 JUMP JUMPDEST PUSH4 0x4E487B71 PUSH1 0xE0 SHL PUSH0 MSTORE PUSH1 0x41 PUSH1 0x4 MSTORE PUSH1 0x24 PUSH0 REVERT JUMPDEST PUSH4 0x4E487B71 PUSH1 0xE0 SHL PUSH0 MSTORE PUSH1 0x32 PUSH1 0x4 MSTORE PUSH1 0x24 PUSH0 REVERT JUMPDEST PUSH0 PUSH1 0xA0 DUP3 ADD DUP8 DUP4 MSTORE PUSH1 0x20 DUP8 PUSH1 0x20 DUP6 ADD MSTORE PUSH1 0xA0 PUSH1 0x40 DUP6 ADD MSTORE DUP2 DUP8 MLOAD DUP1 DUP5 MSTORE PUSH1 0xC0 DUP7 ADD SWAP2 POP PUSH1 0x20 DUP10 ADD SWAP4 POP PUSH0 JUMPDEST DUP2 DUP2 LT ISZERO PUSH2 0x2367 JUMPI DUP5 MLOAD PUSH1 0x1 PUSH1 0x1 PUSH1 0xA0 SHL SUB AND DUP4 MSTORE SWAP4 DUP4 ADD SWAP4 SWAP2 DUP4 ADD SWAP2 PUSH1 0x1 ADD PUSH2 0x2342 JUMP JUMPDEST POP POP PUSH1 0x1 PUSH1 0x1 PUSH1 0xA0 SHL SUB SWAP7 SWAP1 SWAP7 AND PUSH1 0x60 DUP6 ADD MSTORE POP POP POP PUSH1 0x80 ADD MSTORE SWAP4 SWAP3 POP POP POP JUMP JUMPDEST PUSH0 PUSH1 0x20 DUP1 DUP4 DUP6 SUB SLT ISZERO PUSH2 0x2399 JUMPI PUSH0 DUP1 REVERT JUMPDEST DUP3 MLOAD PUSH8 0xFFFFFFFFFFFFFFFF DUP1 DUP3 GT ISZERO PUSH2 0x23B0 JUMPI PUSH0 DUP1 REVERT JUMPDEST DUP2 DUP6 ADD SWAP2 POP DUP6 PUSH1 0x1F DUP4 ADD SLT PUSH2 0x23C3 JUMPI PUSH0 DUP1 REVERT JUMPDEST DUP2 MLOAD DUP2 DUP2 GT ISZERO PUSH2 0x23D5 JUMPI PUSH2 0x23D5 PUSH2 0x22EF JUMP JUMPDEST DUP1 PUSH1 0x5 SHL PUSH1 0x40 MLOAD PUSH1 0x1F NOT PUSH1 0x3F DUP4 ADD AND DUP2 ADD DUP2 DUP2 LT DUP6 DUP3 GT OR ISZERO PUSH2 0x23FA JUMPI PUSH2 0x23FA PUSH2 0x22EF JUMP JUMPDEST PUSH1 0x40 MSTORE SWAP2 DUP3 MSTORE DUP5 DUP3 ADD SWAP3 POP DUP4 DUP2 ADD DUP6 ADD SWAP2 DUP9 DUP4 GT ISZERO PUSH2 0x2417 JUMPI PUSH0 DUP1 REVERT JUMPDEST SWAP4 DUP6 ADD SWAP4 JUMPDEST DUP3 DUP6 LT ISZERO PUSH2 0x17BE JUMPI DUP5 MLOAD DUP5 MSTORE SWAP4 DUP6 ADD SWAP4 SWAP3 DUP6 ADD SWAP3 PUSH2 0x241C JUMP JUMPDEST PUSH0 DUP1 PUSH0 PUSH1 0x60 DUP5 DUP7 SUB SLT ISZERO PUSH2 0x2447 JUMPI PUSH0 DUP1 REVERT JUMPDEST DUP4 MLOAD SWAP3 POP PUSH1 0x20 DUP5 ADD MLOAD SWAP2 POP PUSH1 0x40 DUP5 ADD MLOAD SWAP1 POP SWAP3 POP SWAP3 POP SWAP3 JUMP INVALID LOG2 PUSH5 0x6970667358 0x22 SLT KECCAK256 SWAP1 PUSH5 0x509E96EB5A 0xD3 BYTE 0xDD RETURNDATACOPY SWAP5 CODECOPY PUSH20 0xD8E3BCA74DFFE7F1B1FF9EC2C52023A7D426473 PUSH16 0x6C634300081900330000000000000000 "
				},
				"gasEstimates": {
					"creation": {
						"codeDepositCost": "1873200",
						"executionCost": "infinite",
						"totalCost": "infinite"
					},
					"external": {
						"_maxWalletSize()": "infinite",
						"accumulatedEco()": "2372",
						"accumulatedLp()": "2327",
						"allowance(address,address)": "infinite",
						"approve(address,uint256)": "24686",
						"balanceOf(address)": "2632",
						"configureCooldown(bool,uint32)": "51274",
						"configureDiamondFloor(bool,uint16)": "infinite",
						"cooldown()": "2448",
						"cooldownRemaining(address)": "infinite",
						"decimals()": "266",
						"decreaseAllowance(address,uint256)": "27028",
						"diamondFloor()": "8866",
						"increaseAllowance(address,uint256)": "infinite",
						"isExempt(address)": "2567",
						"maxWalletPercentage()": "2373",
						"name()": "infinite",
						"owner()": "2463",
						"pairAddress()": "2447",
						"pairPrice()": "infinite",
						"priceDeviation()": "infinite",
						"renounceOwnership()": "infinite",
						"routerAddress()": "2448",
						"setExempt(address,bool)": "26946",
						"setMaxWalletPercentage(uint256)": "25689",
						"setRouter(address)": "infinite",
						"setTaxRates(uint16,uint16,uint16,uint16)": "infinite",
						"setThreshold(uint256)": "24598",
						"swapThreshold()": "2330",
						"symbol()": "infinite",
						"taxRates()": "2517",
						"totalSupply()": "2326",
						"transfer(address,uint256)": "infinite",
						"transferFrom(address,address,uint256)": "infinite",
						"transferOwnership(address)": "infinite"
					},
					"internal": {
						"_addLiquidity(uint256,uint256)": "infinite",
						"_calculateTax(address,address,uint256)": "infinite",
						"_checkPriceConditions()": "infinite",
						"_distributeTax(uint256,bool,bool)": "infinite",
						"_setupPair()": "infinite",
						"_shouldSwapBack()": "10734",
						"_swapAndLiquify()": "infinite",
						"_swapTokensForETH(uint256)": "infinite",
						"_transfer(address,address,uint256)": "infinite"
					}
				},
				"methodIdentifiers": {
					"_maxWalletSize()": "8f9a55c0",
					"accumulatedEco()": "c531b108",
					"accumulatedLp()": "d8d61c40",
					"allowance(address,address)": "dd62ed3e",
					"approve(address,uint256)": "095ea7b3",
					"balanceOf(address)": "70a08231",
					"configureCooldown(bool,uint32)": "fe6b751e",
					"configureDiamondFloor(bool,uint16)": "fe0bb982",
					"cooldown()": "787a08a6",
					"cooldownRemaining(address)": "9d82190f",
					"decimals()": "313ce567",
					"decreaseAllowance(address,uint256)": "a457c2d7",
					"diamondFloor()": "c95457ff",
					"increaseAllowance(address,uint256)": "39509351",
					"isExempt(address)": "ad5dff73",
					"maxWalletPercentage()": "599ca397",
					"name()": "06fdde03",
					"owner()": "8da5cb5b",
					"pairAddress()": "a8b08982",
					"pairPrice()": "9491f94d",
					"priceDeviation()": "7773168f",
					"renounceOwnership()": "715018a6",
					"routerAddress()": "3268cc56",
					"setExempt(address,bool)": "9fde54f5",
					"setMaxWalletPercentage(uint256)": "7a845ece",
					"setRouter(address)": "c0d78655",
					"setTaxRates(uint16,uint16,uint16,uint16)": "1569d181",
					"setThreshold(uint256)": "960bfe04",
					"swapThreshold()": "0445b667",
					"symbol()": "95d89b41",
					"taxRates()": "333f4b3d",
					"totalSupply()": "18160ddd",
					"transfer(address,uint256)": "a9059cbb",
					"transferFrom(address,address,uint256)": "23b872dd",
					"transferOwnership(address)": "f2fde38b"
				}
			},
			"storageLayout": {
				"storage": [
					{
						"astId": 440,
						"contract": "contracts/gainzilla.sol:MemeCoin",
						"label": "_balances",
						"offset": 0,
						"slot": "0",
						"type": "t_mapping(t_address,t_uint256)"
					},
					{
						"astId": 446,
						"contract": "contracts/gainzilla.sol:MemeCoin",
						"label": "_allowances",
						"offset": 0,
						"slot": "1",
						"type": "t_mapping(t_address,t_mapping(t_address,t_uint256))"
					},
					{
						"astId": 448,
						"contract": "contracts/gainzilla.sol:MemeCoin",
						"label": "_totalSupply",
						"offset": 0,
						"slot": "2",
						"type": "t_uint256"
					},
					{
						"astId": 450,
						"contract": "contracts/gainzilla.sol:MemeCoin",
						"label": "_name",
						"offset": 0,
						"slot": "3",
						"type": "t_string_storage"
					},
					{
						"astId": 452,
						"contract": "contracts/gainzilla.sol:MemeCoin",
						"label": "_symbol",
						"offset": 0,
						"slot": "4",
						"type": "t_string_storage"
					},
					{
						"astId": 319,
						"contract": "contracts/gainzilla.sol:MemeCoin",
						"label": "_owner",
						"offset": 0,
						"slot": "5",
						"type": "t_address"
					},
					{
						"astId": 1237,
						"contract": "contracts/gainzilla.sol:MemeCoin",
						"label": "maxWalletPercentage",
						"offset": 0,
						"slot": "6",
						"type": "t_uint256"
					},
					{
						"astId": 1252,
						"contract": "contracts/gainzilla.sol:MemeCoin",
						"label": "taxRates",
						"offset": 0,
						"slot": "7",
						"type": "t_struct(TaxRates)1249_storage"
					},
					{
						"astId": 1260,
						"contract": "contracts/gainzilla.sol:MemeCoin",
						"label": "swapThreshold",
						"offset": 0,
						"slot": "8",
						"type": "t_uint256"
					},
					{
						"astId": 1262,
						"contract": "contracts/gainzilla.sol:MemeCoin",
						"label": "accumulatedLp",
						"offset": 0,
						"slot": "9",
						"type": "t_uint256"
					},
					{
						"astId": 1264,
						"contract": "contracts/gainzilla.sol:MemeCoin",
						"label": "accumulatedEco",
						"offset": 0,
						"slot": "10",
						"type": "t_uint256"
					},
					{
						"astId": 1266,
						"contract": "contracts/gainzilla.sol:MemeCoin",
						"label": "swapping",
						"offset": 0,
						"slot": "11",
						"type": "t_bool"
					},
					{
						"astId": 1278,
						"contract": "contracts/gainzilla.sol:MemeCoin",
						"label": "cooldown",
						"offset": 0,
						"slot": "12",
						"type": "t_struct(CooldownConfig)1275_storage"
					},
					{
						"astId": 1292,
						"contract": "contracts/gainzilla.sol:MemeCoin",
						"label": "diamondFloor",
						"offset": 0,
						"slot": "14",
						"type": "t_struct(DiamondFloor)1289_storage"
					},
					{
						"astId": 1294,
						"contract": "contracts/gainzilla.sol:MemeCoin",
						"label": "routerAddress",
						"offset": 0,
						"slot": "18",
						"type": "t_address"
					},
					{
						"astId": 1296,
						"contract": "contracts/gainzilla.sol:MemeCoin",
						"label": "pairAddress",
						"offset": 0,
						"slot": "19",
						"type": "t_address"
					},
					{
						"astId": 1303,
						"contract": "contracts/gainzilla.sol:MemeCoin",
						"label": "isExempt",
						"offset": 0,
						"slot": "20",
						"type": "t_mapping(t_address,t_bool)"
					}
				],
				"types": {
					"t_address": {
						"encoding": "inplace",
						"label": "address",
						"numberOfBytes": "20"
					},
					"t_bool": {
						"encoding": "inplace",
						"label": "bool",
						"numberOfBytes": "1"
					},
					"t_mapping(t_address,t_bool)": {
						"encoding": "mapping",
						"key": "t_address",
						"label": "mapping(address => bool)",
						"numberOfBytes": "32",
						"value": "t_bool"
					},
					"t_mapping(t_address,t_mapping(t_address,t_uint256))": {
						"encoding": "mapping",
						"key": "t_address",
						"label": "mapping(address => mapping(address => uint256))",
						"numberOfBytes": "32",
						"value": "t_mapping(t_address,t_uint256)"
					},
					"t_mapping(t_address,t_uint256)": {
						"encoding": "mapping",
						"key": "t_address",
						"label": "mapping(address => uint256)",
						"numberOfBytes": "32",
						"value": "t_uint256"
					},
					"t_string_storage": {
						"encoding": "bytes",
						"label": "string",
						"numberOfBytes": "32"
					},
					"t_struct(CooldownConfig)1275_storage": {
						"encoding": "inplace",
						"label": "struct MemeCoin.CooldownConfig",
						"members": [
							{
								"astId": 1268,
								"contract": "contracts/gainzilla.sol:MemeCoin",
								"label": "enabled",
								"offset": 0,
								"slot": "0",
								"type": "t_bool"
							},
							{
								"astId": 1270,
								"contract": "contracts/gainzilla.sol:MemeCoin",
								"label": "duration",
								"offset": 1,
								"slot": "0",
								"type": "t_uint32"
							},
							{
								"astId": 1274,
								"contract": "contracts/gainzilla.sol:MemeCoin",
								"label": "cooldowns",
								"offset": 0,
								"slot": "1",
								"type": "t_mapping(t_address,t_uint256)"
							}
						],
						"numberOfBytes": "64"
					},
					"t_struct(DiamondFloor)1289_storage": {
						"encoding": "inplace",
						"label": "struct MemeCoin.DiamondFloor",
						"members": [
							{
								"astId": 1280,
								"contract": "contracts/gainzilla.sol:MemeCoin",
								"label": "enabled",
								"offset": 0,
								"slot": "0",
								"type": "t_bool"
							},
							{
								"astId": 1282,
								"contract": "contracts/gainzilla.sol:MemeCoin",
								"label": "triggerPercentage",
								"offset": 1,
								"slot": "0",
								"type": "t_uint16"
							},
							{
								"astId": 1284,
								"contract": "contracts/gainzilla.sol:MemeCoin",
								"label": "athPrice",
								"offset": 0,
								"slot": "1",
								"type": "t_uint256"
							},
							{
								"astId": 1286,
								"contract": "contracts/gainzilla.sol:MemeCoin",
								"label": "sellStopped",
								"offset": 0,
								"slot": "2",
								"type": "t_bool"
							},
							{
								"astId": 1288,
								"contract": "contracts/gainzilla.sol:MemeCoin",
								"label": "blockedAth",
								"offset": 0,
								"slot": "3",
								"type": "t_uint256"
							}
						],
						"numberOfBytes": "128"
					},
					"t_struct(TaxRates)1249_storage": {
						"encoding": "inplace",
						"label": "struct MemeCoin.TaxRates",
						"members": [
							{
								"astId": 1242,
								"contract": "contracts/gainzilla.sol:MemeCoin",
								"label": "buyLp",
								"offset": 0,
								"slot": "0",
								"type": "t_uint16"
							},
							{
								"astId": 1244,
								"contract": "contracts/gainzilla.sol:MemeCoin",
								"label": "buyEco",
								"offset": 2,
								"slot": "0",
								"type": "t_uint16"
							},
							{
								"astId": 1246,
								"contract": "contracts/gainzilla.sol:MemeCoin",
								"label": "sellLp",
								"offset": 4,
								"slot": "0",
								"type": "t_uint16"
							},
							{
								"astId": 1248,
								"contract": "contracts/gainzilla.sol:MemeCoin",
								"label": "sellEco",
								"offset": 6,
								"slot": "0",
								"type": "t_uint16"
							}
						],
						"numberOfBytes": "32"
					},
					"t_uint16": {
						"encoding": "inplace",
						"label": "uint16",
						"numberOfBytes": "2"
					},
					"t_uint256": {
						"encoding": "inplace",
						"label": "uint256",
						"numberOfBytes": "32"
					},
					"t_uint32": {
						"encoding": "inplace",
						"label": "uint32",
						"numberOfBytes": "4"
					}
				}
			},
			"userdoc": {
				"kind": "user",
				"methods": {},
				"version": 1
			}
		}
	}
}