{
	"contracts/gainzilla.sol": {
		"gainZilla": {
			"abi": [
				{
					"inputs": [],
					"stateMutability": "nonpayable",
					"type": "constructor"
				},
				{
					"anonymous": false,
					"inputs": [
						{
							"indexed": true,
							"internalType": "address",
							"name": "owner",
							"type": "address"
						},
						{
							"indexed": true,
							"internalType": "address",
							"name": "spender",
							"type": "address"
						},
						{
							"indexed": false,
							"internalType": "uint256",
							"name": "value",
							"type": "uint256"
						}
					],
					"name": "Approval",
					"type": "event"
				},
				{
					"anonymous": false,
					"inputs": [
						{
							"indexed": false,
							"internalType": "uint256",
							"name": "_buyMarketingFee",
							"type": "uint256"
						},
						{
							"indexed": false,
							"internalType": "uint256",
							"name": "_buyLiquidityFee",
							"type": "uint256"
						},
						{
							"indexed": false,
							"internalType": "uint256",
							"name": "_buyTeamFee",
							"type": "uint256"
						},
						{
							"indexed": false,
							"internalType": "uint256",
							"name": "_buyEcosystemFee",
							"type": "uint256"
						}
					],
					"name": "BuyFeesUpdated",
					"type": "event"
				},
				{
					"anonymous": false,
					"inputs": [
						{
							"indexed": false,
							"internalType": "uint256",
							"name": "_maxTxAmount",
							"type": "uint256"
						}
					],
					"name": "MaxTxAmountUpdated",
					"type": "event"
				},
				{
					"anonymous": false,
					"inputs": [
						{
							"indexed": true,
							"internalType": "address",
							"name": "previousOwner",
							"type": "address"
						},
						{
							"indexed": true,
							"internalType": "address",
							"name": "newOwner",
							"type": "address"
						}
					],
					"name": "OwnershipTransferred",
					"type": "event"
				},
				{
					"anonymous": false,
					"inputs": [
						{
							"indexed": false,
							"internalType": "uint256",
							"name": "_sellMarketingFee",
							"type": "uint256"
						},
						{
							"indexed": false,
							"internalType": "uint256",
							"name": "_sellLiquidityFee",
							"type": "uint256"
						},
						{
							"indexed": false,
							"internalType": "uint256",
							"name": "_sellTeamFee",
							"type": "uint256"
						},
						{
							"indexed": false,
							"internalType": "uint256",
							"name": "_sellEcosystemFee",
							"type": "uint256"
						}
					],
					"name": "SellFeesUpdated",
					"type": "event"
				},
				{
					"anonymous": false,
					"inputs": [
						{
							"indexed": true,
							"internalType": "address",
							"name": "from",
							"type": "address"
						},
						{
							"indexed": true,
							"internalType": "address",
							"name": "to",
							"type": "address"
						},
						{
							"indexed": false,
							"internalType": "uint256",
							"name": "value",
							"type": "uint256"
						}
					],
					"name": "Transfer",
					"type": "event"
				},
				{
					"inputs": [],
					"name": "ATHvariance",
					"outputs": [
						{
							"internalType": "int256",
							"name": "",
							"type": "int256"
						}
					],
					"stateMutability": "view",
					"type": "function"
				},
				{
					"inputs": [],
					"name": "_buyEcosystemFee",
					"outputs": [
						{
							"internalType": "uint256",
							"name": "",
							"type": "uint256"
						}
					],
					"stateMutability": "view",
					"type": "function"
				},
				{
					"inputs": [],
					"name": "_buyLiquidityFee",
					"outputs": [
						{
							"internalType": "uint256",
							"name": "",
							"type": "uint256"
						}
					],
					"stateMutability": "view",
					"type": "function"
				},
				{
					"inputs": [],
					"name": "_buyMarketingFee",
					"outputs": [
						{
							"internalType": "uint256",
							"name": "",
							"type": "uint256"
						}
					],
					"stateMutability": "view",
					"type": "function"
				},
				{
					"inputs": [],
					"name": "_buyTeamFee",
					"outputs": [
						{
							"internalType": "uint256",
							"name": "",
							"type": "uint256"
						}
					],
					"stateMutability": "view",
					"type": "function"
				},
				{
					"inputs": [],
					"name": "_maxWalletAmount",
					"outputs": [
						{
							"internalType": "uint256",
							"name": "",
							"type": "uint256"
						}
					],
					"stateMutability": "view",
					"type": "function"
				},
				{
					"inputs": [],
					"name": "_sellEcosystemFee",
					"outputs": [
						{
							"internalType": "uint256",
							"name": "",
							"type": "uint256"
						}
					],
					"stateMutability": "view",
					"type": "function"
				},
				{
					"inputs": [],
					"name": "_sellLiquidityFee",
					"outputs": [
						{
							"internalType": "uint256",
							"name": "",
							"type": "uint256"
						}
					],
					"stateMutability": "view",
					"type": "function"
				},
				{
					"inputs": [],
					"name": "_sellMarketingFee",
					"outputs": [
						{
							"internalType": "uint256",
							"name": "",
							"type": "uint256"
						}
					],
					"stateMutability": "view",
					"type": "function"
				},
				{
					"inputs": [],
					"name": "_sellTeamFee",
					"outputs": [
						{
							"internalType": "uint256",
							"name": "",
							"type": "uint256"
						}
					],
					"stateMutability": "view",
					"type": "function"
				},
				{
					"inputs": [
						{
							"internalType": "address",
							"name": "account",
							"type": "address"
						}
					],
					"name": "addBot",
					"outputs": [],
					"stateMutability": "nonpayable",
					"type": "function"
				},
				{
					"inputs": [
						{
							"internalType": "address",
							"name": "owner",
							"type": "address"
						},
						{
							"internalType": "address",
							"name": "spender",
							"type": "address"
						}
					],
					"name": "allowance",
					"outputs": [
						{
							"internalType": "uint256",
							"name": "",
							"type": "uint256"
						}
					],
					"stateMutability": "view",
					"type": "function"
				},
				{
					"inputs": [
						{
							"internalType": "address",
							"name": "spender",
							"type": "address"
						},
						{
							"internalType": "uint256",
							"name": "amount",
							"type": "uint256"
						}
					],
					"name": "approve",
					"outputs": [
						{
							"internalType": "bool",
							"name": "",
							"type": "bool"
						}
					],
					"stateMutability": "nonpayable",
					"type": "function"
				},
				{
					"inputs": [
						{
							"internalType": "address",
							"name": "account",
							"type": "address"
						}
					],
					"name": "balanceOf",
					"outputs": [
						{
							"internalType": "uint256",
							"name": "",
							"type": "uint256"
						}
					],
					"stateMutability": "view",
					"type": "function"
				},
				{
					"inputs": [],
					"name": "canBlackList",
					"outputs": [
						{
							"internalType": "bool",
							"name": "",
							"type": "bool"
						}
					],
					"stateMutability": "view",
					"type": "function"
				},
				{
					"inputs": [],
					"name": "canChangeTax",
					"outputs": [
						{
							"internalType": "bool",
							"name": "",
							"type": "bool"
						}
					],
					"stateMutability": "view",
					"type": "function"
				},
				{
					"inputs": [],
					"name": "canPause",
					"outputs": [
						{
							"internalType": "bool",
							"name": "",
							"type": "bool"
						}
					],
					"stateMutability": "view",
					"type": "function"
				},
				{
					"inputs": [
						{
							"internalType": "bool",
							"name": "enabled",
							"type": "bool"
						},
						{
							"internalType": "uint32",
							"name": "duration",
							"type": "uint32"
						}
					],
					"name": "configureStrongHands",
					"outputs": [],
					"stateMutability": "nonpayable",
					"type": "function"
				},
				{
					"inputs": [],
					"name": "cooldown",
					"outputs": [
						{
							"internalType": "bool",
							"name": "enabled",
							"type": "bool"
						},
						{
							"internalType": "uint32",
							"name": "duration",
							"type": "uint32"
						}
					],
					"stateMutability": "view",
					"type": "function"
				},
				{
					"inputs": [
						{
							"internalType": "address",
							"name": "account",
							"type": "address"
						}
					],
					"name": "cooldownRemaining",
					"outputs": [
						{
							"internalType": "uint256",
							"name": "days_",
							"type": "uint256"
						},
						{
							"internalType": "uint256",
							"name": "hours_",
							"type": "uint256"
						},
						{
							"internalType": "uint256",
							"name": "minutes_",
							"type": "uint256"
						},
						{
							"internalType": "uint256",
							"name": "seconds_",
							"type": "uint256"
						}
					],
					"stateMutability": "view",
					"type": "function"
				},
				{
					"inputs": [],
					"name": "decimals",
					"outputs": [
						{
							"internalType": "uint8",
							"name": "",
							"type": "uint8"
						}
					],
					"stateMutability": "pure",
					"type": "function"
				},
				{
					"inputs": [],
					"name": "diamondFloor",
					"outputs": [
						{
							"internalType": "bool",
							"name": "enabled",
							"type": "bool"
						},
						{
							"internalType": "uint16",
							"name": "triggerPercentage",
							"type": "uint16"
						},
						{
							"internalType": "uint256",
							"name": "athPrice",
							"type": "uint256"
						},
						{
							"internalType": "bool",
							"name": "sellStopped",
							"type": "bool"
						},
						{
							"internalType": "uint256",
							"name": "blockedAth",
							"type": "uint256"
						}
					],
					"stateMutability": "view",
					"type": "function"
				},
				{
					"inputs": [],
					"name": "disableBlackListing",
					"outputs": [],
					"stateMutability": "nonpayable",
					"type": "function"
				},
				{
					"inputs": [],
					"name": "disablePauseAbility",
					"outputs": [],
					"stateMutability": "nonpayable",
					"type": "function"
				},
				{
					"inputs": [],
					"name": "disableTaxChange",
					"outputs": [],
					"stateMutability": "nonpayable",
					"type": "function"
				},
				{
					"inputs": [],
					"name": "disableToken",
					"outputs": [],
					"stateMutability": "nonpayable",
					"type": "function"
				},
				{
					"inputs": [],
					"name": "enableToken",
					"outputs": [],
					"stateMutability": "nonpayable",
					"type": "function"
				},
				{
					"inputs": [
						{
							"internalType": "address",
							"name": "account",
							"type": "address"
						}
					],
					"name": "excludeFromFee",
					"outputs": [],
					"stateMutability": "nonpayable",
					"type": "function"
				},
				{
					"inputs": [
						{
							"internalType": "address",
							"name": "account",
							"type": "address"
						}
					],
					"name": "includeInFee",
					"outputs": [],
					"stateMutability": "nonpayable",
					"type": "function"
				},
				{
					"inputs": [
						{
							"internalType": "address",
							"name": "account",
							"type": "address"
						}
					],
					"name": "isBot",
					"outputs": [
						{
							"internalType": "bool",
							"name": "",
							"type": "bool"
						}
					],
					"stateMutability": "view",
					"type": "function"
				},
				{
					"inputs": [
						{
							"internalType": "address",
							"name": "token",
							"type": "address"
						}
					],
					"name": "manualSendToken",
					"outputs": [],
					"stateMutability": "nonpayable",
					"type": "function"
				},
				{
					"inputs": [],
					"name": "manualsend",
					"outputs": [],
					"stateMutability": "nonpayable",
					"type": "function"
				},
				{
					"inputs": [],
					"name": "manualswap",
					"outputs": [],
					"stateMutability": "nonpayable",
					"type": "function"
				},
				{
					"inputs": [],
					"name": "name",
					"outputs": [
						{
							"internalType": "string",
							"name": "",
							"type": "string"
						}
					],
					"stateMutability": "pure",
					"type": "function"
				},
				{
					"inputs": [],
					"name": "numTokensToSwap",
					"outputs": [
						{
							"internalType": "uint256",
							"name": "",
							"type": "uint256"
						}
					],
					"stateMutability": "view",
					"type": "function"
				},
				{
					"inputs": [
						{
							"internalType": "uint256",
							"name": "botBlocks",
							"type": "uint256"
						}
					],
					"name": "openTrading",
					"outputs": [],
					"stateMutability": "nonpayable",
					"type": "function"
				},
				{
					"inputs": [],
					"name": "owner",
					"outputs": [
						{
							"internalType": "address",
							"name": "",
							"type": "address"
						}
					],
					"stateMutability": "view",
					"type": "function"
				},
				{
					"inputs": [],
					"name": "pairPrice",
					"outputs": [
						{
							"internalType": "uint256",
							"name": "",
							"type": "uint256"
						}
					],
					"stateMutability": "view",
					"type": "function"
				},
				{
					"inputs": [
						{
							"internalType": "address",
							"name": "account",
							"type": "address"
						}
					],
					"name": "removeBot",
					"outputs": [],
					"stateMutability": "nonpayable",
					"type": "function"
				},
				{
					"inputs": [],
					"name": "renounceOwnership",
					"outputs": [],
					"stateMutability": "nonpayable",
					"type": "function"
				},
				{
					"inputs": [
						{
							"internalType": "uint256",
							"name": "marketingFee",
							"type": "uint256"
						},
						{
							"internalType": "uint256",
							"name": "liquidityFee",
							"type": "uint256"
						},
						{
							"internalType": "uint256",
							"name": "teamFee",
							"type": "uint256"
						},
						{
							"internalType": "uint256",
							"name": "ecosystemFee",
							"type": "uint256"
						}
					],
					"name": "setBuyTaxes",
					"outputs": [],
					"stateMutability": "nonpayable",
					"type": "function"
				},
				{
					"inputs": [
						{
							"internalType": "uint256",
							"name": "maxWalletAmount",
							"type": "uint256"
						}
					],
					"name": "setMaxWalletAmount",
					"outputs": [],
					"stateMutability": "nonpayable",
					"type": "function"
				},
				{
					"inputs": [
						{
							"internalType": "uint256",
							"name": "marketingFee",
							"type": "uint256"
						},
						{
							"internalType": "uint256",
							"name": "liquidityFee",
							"type": "uint256"
						},
						{
							"internalType": "uint256",
							"name": "teamFee",
							"type": "uint256"
						},
						{
							"internalType": "uint256",
							"name": "ecosystemFee",
							"type": "uint256"
						}
					],
					"name": "setSellTaxes",
					"outputs": [],
					"stateMutability": "nonpayable",
					"type": "function"
				},
				{
					"inputs": [
						{
							"internalType": "uint256",
							"name": "_multiplier",
							"type": "uint256"
						}
					],
					"name": "setTransferTransactionMultiplier",
					"outputs": [],
					"stateMutability": "nonpayable",
					"type": "function"
				},
				{
					"inputs": [],
					"name": "symbol",
					"outputs": [
						{
							"internalType": "string",
							"name": "",
							"type": "string"
						}
					],
					"stateMutability": "pure",
					"type": "function"
				},
				{
					"inputs": [],
					"name": "totalSupply",
					"outputs": [
						{
							"internalType": "uint256",
							"name": "",
							"type": "uint256"
						}
					],
					"stateMutability": "pure",
					"type": "function"
				},
				{
					"inputs": [],
					"name": "tradingOpen",
					"outputs": [
						{
							"internalType": "bool",
							"name": "",
							"type": "bool"
						}
					],
					"stateMutability": "view",
					"type": "function"
				},
				{
					"inputs": [
						{
							"internalType": "address",
							"name": "recipient",
							"type": "address"
						},
						{
							"internalType": "uint256",
							"name": "amount",
							"type": "uint256"
						}
					],
					"name": "transfer",
					"outputs": [
						{
							"internalType": "bool",
							"name": "",
							"type": "bool"
						}
					],
					"stateMutability": "nonpayable",
					"type": "function"
				},
				{
					"inputs": [],
					"name": "transferFeeIncreaseFactor",
					"outputs": [
						{
							"internalType": "uint256",
							"name": "",
							"type": "uint256"
						}
					],
					"stateMutability": "view",
					"type": "function"
				},
				{
					"inputs": [
						{
							"internalType": "address",
							"name": "sender",
							"type": "address"
						},
						{
							"internalType": "address",
							"name": "recipient",
							"type": "address"
						},
						{
							"internalType": "uint256",
							"name": "amount",
							"type": "uint256"
						}
					],
					"name": "transferFrom",
					"outputs": [
						{
							"internalType": "bool",
							"name": "",
							"type": "bool"
						}
					],
					"stateMutability": "nonpayable",
					"type": "function"
				},
				{
					"inputs": [
						{
							"internalType": "address",
							"name": "newOwner",
							"type": "address"
						}
					],
					"name": "transferOwnership",
					"outputs": [],
					"stateMutability": "nonpayable",
					"type": "function"
				},
				{
					"inputs": [],
					"name": "uniswapV2Pair",
					"outputs": [
						{
							"internalType": "address",
							"name": "",
							"type": "address"
						}
					],
					"stateMutability": "view",
					"type": "function"
				},
				{
					"inputs": [
						{
							"internalType": "address payable",
							"name": "ecosystemAddress",
							"type": "address"
						}
					],
					"name": "updateEcosystemAddress",
					"outputs": [],
					"stateMutability": "nonpayable",
					"type": "function"
				},
				{
					"inputs": [
						{
							"internalType": "address payable",
							"name": "lpRecipient",
							"type": "address"
						}
					],
					"name": "updateLpRecipient",
					"outputs": [],
					"stateMutability": "nonpayable",
					"type": "function"
				},
				{
					"inputs": [
						{
							"internalType": "address payable",
							"name": "marketingAddress",
							"type": "address"
						}
					],
					"name": "updateMarketingAddress",
					"outputs": [],
					"stateMutability": "nonpayable",
					"type": "function"
				},
				{
					"inputs": [
						{
							"internalType": "uint256",
							"name": "numTokens",
							"type": "uint256"
						}
					],
					"name": "updateNumTokensToSwap",
					"outputs": [],
					"stateMutability": "nonpayable",
					"type": "function"
				},
				{
					"inputs": [
						{
							"internalType": "address payable",
							"name": "teamAddress",
							"type": "address"
						}
					],
					"name": "updateTeamAddress",
					"outputs": [],
					"stateMutability": "nonpayable",
					"type": "function"
				},
				{
					"stateMutability": "payable",
					"type": "receive"
				}
			],
			"devdoc": {
				"kind": "dev",
				"methods": {
					"transferOwnership(address)": {
						"details": "Transfers ownership of the contract to a new account (`newOwner`). Can only be called by the current owner."
					}
				},
				"version": 1
			},
			"evm": {
				"assembly": "    /* \"contracts/gainzilla.sol\":8181:30040  contract gainZilla is Context, IERC20, IERC20Extented, Ownable {... */\n  mstore(0x40, 0x80)\n    /* \"contracts/gainzilla.sol\":8784:8800  10000001 * 10**9 */\n  0x2386f2ab5bca00\n    /* \"contracts/gainzilla.sol\":8750:8800  uint256 public _maxWalletAmount = 10000001 * 10**9 */\n  0x07\n  sstore\n    /* \"contracts/gainzilla.sol\":8839:8854  1000000 * 10**9 */\n  0x038d7ea4c68000\n    /* \"contracts/gainzilla.sol\":8806:8854  uint256 public numTokensToSwap = 1000000 * 10**9 */\n  0x08\n  sstore\n    /* \"contracts/gainzilla.sol\":8950:8951  0 */\n  0x00\n    /* \"contracts/gainzilla.sol\":8916:8951  uint256 public _buyLiquidityFee = 0 */\n  0x09\n  sstore\n    /* \"contracts/gainzilla.sol\":9019:9035  _buyLiquidityFee */\n  sload(0x09)\n    /* \"contracts/gainzilla.sol\":8976:9035  uint256 private _previousBuyLiquidityFee = _buyLiquidityFee */\n  0x0a\n  sstore\n    /* \"contracts/gainzilla.sol\":9075:9076  0 */\n  0x00\n    /* \"contracts/gainzilla.sol\":9041:9076  uint256 public _buyEcosystemFee = 0 */\n  0x0b\n  sstore\n    /* \"contracts/gainzilla.sol\":9144:9160  _buyEcosystemFee */\n  sload(0x0b)\n    /* \"contracts/gainzilla.sol\":9101:9160  uint256 private _previousBuyEcosystemFee = _buyEcosystemFee */\n  0x0c\n  sstore\n    /* \"contracts/gainzilla.sol\":9200:9201  0 */\n  0x00\n    /* \"contracts/gainzilla.sol\":9166:9201  uint256 public _buyMarketingFee = 0 */\n  0x0d\n  sstore\n    /* \"contracts/gainzilla.sol\":9269:9285  _buyMarketingFee */\n  sload(0x0d)\n    /* \"contracts/gainzilla.sol\":9226:9285  uint256 private _previousBuyMarketingFee = _buyMarketingFee */\n  0x0e\n  sstore\n    /* \"contracts/gainzilla.sol\":9320:9321  0 */\n  0x00\n    /* \"contracts/gainzilla.sol\":9291:9321  uint256 public _buyTeamFee = 0 */\n  0x0f\n  sstore\n    /* \"contracts/gainzilla.sol\":9384:9395  _buyTeamFee */\n  sload(0x0f)\n    /* \"contracts/gainzilla.sol\":9346:9395  uint256 private _previousBuyTeamFee = _buyTeamFee */\n  0x10\n  sstore\n    /* \"contracts/gainzilla.sol\":9454:9455  0 */\n  0x00\n    /* \"contracts/gainzilla.sol\":9419:9455  uint256 public _sellLiquidityFee = 0 */\n  0x11\n  sstore\n    /* \"contracts/gainzilla.sol\":9524:9541  _sellLiquidityFee */\n  sload(0x11)\n    /* \"contracts/gainzilla.sol\":9480:9541  uint256 private _previousSellLiquidityFee = _sellLiquidityFee */\n  0x12\n  sstore\n    /* \"contracts/gainzilla.sol\":9582:9583  0 */\n  0x00\n    /* \"contracts/gainzilla.sol\":9547:9583  uint256 public _sellEcosystemFee = 0 */\n  0x13\n  sstore\n    /* \"contracts/gainzilla.sol\":9652:9669  _sellEcosystemFee */\n  sload(0x13)\n    /* \"contracts/gainzilla.sol\":9608:9669  uint256 private _previousSellEcosystemFee = _sellEcosystemFee */\n  0x14\n  sstore\n    /* \"contracts/gainzilla.sol\":9710:9711  0 */\n  0x00\n    /* \"contracts/gainzilla.sol\":9675:9711  uint256 public _sellMarketingFee = 0 */\n  0x15\n  sstore\n    /* \"contracts/gainzilla.sol\":9780:9797  _sellMarketingFee */\n  sload(0x15)\n    /* \"contracts/gainzilla.sol\":9736:9797  uint256 private _previousSellMarketingFee = _sellMarketingFee */\n  0x16\n  sstore\n    /* \"contracts/gainzilla.sol\":9833:9834  0 */\n  0x00\n    /* \"contracts/gainzilla.sol\":9803:9834  uint256 public _sellTeamFee = 0 */\n  0x17\n  sstore\n    /* \"contracts/gainzilla.sol\":9898:9910  _sellTeamFee */\n  sload(0x17)\n    /* \"contracts/gainzilla.sol\":9859:9910  uint256 private _previousSellTeamFee = _sellTeamFee */\n  0x18\n  sstore\n    /* \"contracts/gainzilla.sol\":9959:9960  0 */\n  0x00\n    /* \"contracts/gainzilla.sol\":9916:9960  uint256 public transferFeeIncreaseFactor = 0 */\n  0x19\n  sstore\n    /* \"contracts/gainzilla.sol\":10624:10631  owner() */\n  tag_1\n    /* \"contracts/gainzilla.sol\":10624:10629  owner */\n  shl(0x20, tag_2)\n    /* \"contracts/gainzilla.sol\":10624:10631  owner() */\n  0x20\n  shr\n  jump\t// in\ntag_1:\n    /* \"contracts/gainzilla.sol\":10572:10632  address payable private _marketingAddress = payable(owner()) */\n  0x21\n  dup1\n  sload\n  not(sub(shl(0xa0, 0x01), 0x01))\n  swap1\n  dup2\n  and\n  sub(shl(0xa0, 0x01), 0x01)\n  swap4\n  dup5\n  and\n  or\n  swap1\n  swap2\n  sstore\n  0x00\n    /* \"contracts/gainzilla.sol\":3018:3024  _owner */\n  sload\n    /* \"contracts/gainzilla.sol\":10638:10693  address payable private _teamAddress = payable(owner()) */\n  0x22\n  dup1\n  sload\n    /* \"contracts/gainzilla.sol\":3018:3024  _owner */\n  swap2\n  swap1\n  swap4\n  and\n    /* \"contracts/gainzilla.sol\":10638:10693  address payable private _teamAddress = payable(owner()) */\n  swap1\n  dup3\n  and\n  dup2\n  or\n  swap1\n  swap3\n  sstore\n    /* \"contracts/gainzilla.sol\":10699:10759  address payable private _ecosystemAddress = payable(owner()) */\n  0x23\n  dup1\n  sload\n  dup3\n  and\n  dup4\n  or\n  swap1\n  sstore\n    /* \"contracts/gainzilla.sol\":10765:10820  address payable private _lpRecipient = payable(owner()) */\n  0x24\n  dup1\n  sload\n  swap1\n  swap2\n  and\n  swap1\n  swap2\n  or\n  swap1\n  sstore\n    /* \"contracts/gainzilla.sol\":10943:10974  bool public tradingOpen = false */\n  0x28\n  dup1\n  sload\n  not(0xffffffffff)\n    /* \"contracts/gainzilla.sol\":11083:11114  bool public canChangeTax = true */\n  and\n  0x0101010000\n  or\n  swap1\n  sstore\n    /* \"contracts/gainzilla.sol\":11520:12296  constructor() {... */\n  callvalue\n  dup1\n  iszero\n  tag_6\n  jumpi\n  0x00\n  dup1\n  revert\ntag_6:\n  pop\n    /* \"contracts/gainzilla.sol\":2823:2840  address msgSender */\n  0x00\n    /* \"contracts/gainzilla.sol\":2865:2883  _owner = msgSender */\n  dup1\n  sload\n  not(sub(shl(0xa0, 0x01), 0x01))\n  and\n    /* \"contracts/gainzilla.sol\":818:828  msg.sender */\n  caller\n    /* \"contracts/gainzilla.sol\":2865:2883  _owner = msgSender */\n  swap1\n  dup2\n  or\n  dup3\n  sstore\n    /* \"contracts/gainzilla.sol\":2898:2941  OwnershipTransferred(address(0), msgSender) */\n  mload(0x40)\n    /* \"contracts/gainzilla.sol\":818:828  msg.sender */\n  swap1\n  swap2\n  dup3\n  swap2\n    /* \"contracts/gainzilla.sol\":2898:2941  OwnershipTransferred(address(0), msgSender) */\n  0x8be0079c531659141344cd1fd0a4f28419497f9722a3daafe3b4186f6b6457e0\n  swap1\n    /* \"contracts/gainzilla.sol\":2823:2840  address msgSender */\n  dup3\n  swap1\n    /* \"contracts/gainzilla.sol\":2898:2941  OwnershipTransferred(address(0), msgSender) */\n  log3\n  pop\n    /* \"contracts/gainzilla.sol\":11654:11669  uniswapV2Router */\n  0x25\n    /* \"contracts/gainzilla.sol\":11654:11688  uniswapV2Router = _uniswapV2Router */\n  dup1\n  sload\n  not(sub(shl(0xa0, 0x01), 0x01))\n  and\n    /* \"contracts/gainzilla.sol\":11601:11643  0x10ED43C718714eb63d5aA57B78B54704E256024E */\n  0x10ed43c718714eb63d5aa57b78b54704e256024e\n    /* \"contracts/gainzilla.sol\":11654:11688  uniswapV2Router = _uniswapV2Router */\n  swap1\n  dup2\n  or\n  swap1\n  swap2\n  sstore\n    /* \"contracts/gainzilla.sol\":11698:11756  _approve(address(this), address(uniswapV2Router), _tTotal) */\n  tag_13\n    /* \"contracts/gainzilla.sol\":11715:11719  this */\n  address\n    /* \"contracts/gainzilla.sol\":11601:11643  0x10ED43C718714eb63d5aA57B78B54704E256024E */\n  dup3\n    /* \"contracts/gainzilla.sol\":8641:8659  1000000000 * 10**9 */\n  0x0de0b6b3a7640000\n    /* \"contracts/gainzilla.sol\":11698:11706  _approve */\n  tag_14\n    /* \"contracts/gainzilla.sol\":11698:11756  _approve(address(this), address(uniswapV2Router), _tTotal) */\n  jump\t// in\ntag_13:\n    /* \"contracts/gainzilla.sol\":11800:11816  _uniswapV2Router */\n  dup1\n  sub(shl(0xa0, 0x01), 0x01)\n    /* \"contracts/gainzilla.sol\":11800:11824  _uniswapV2Router.factory */\n  and\n  0xc45a0155\n    /* \"contracts/gainzilla.sol\":11800:11826  _uniswapV2Router.factory() */\n  mload(0x40)\n  dup2\n  0xffffffff\n  and\n  0xe0\n  shl\n  dup2\n  mstore\n  0x04\n  add\n  0x20\n  mload(0x40)\n  dup1\n  dup4\n  sub\n  dup2\n  dup7\n  dup1\n  extcodesize\n  iszero\n  dup1\n  iszero\n  tag_15\n  jumpi\n  0x00\n  dup1\n  revert\ntag_15:\n  pop\n  gas\n  staticcall\n  iszero\n  dup1\n  iszero\n  tag_17\n  jumpi\n  returndatasize\n  0x00\n  dup1\n  returndatacopy\n  revert(0x00, returndatasize)\ntag_17:\n  pop\n  pop\n  pop\n  pop\n  mload(0x40)\n  returndatasize\n  not(0x1f)\n  0x1f\n  dup3\n  add\n  and\n  dup3\n  add\n  dup1\n  0x40\n  mstore\n  pop\n  dup2\n  add\n  swap1\n  tag_18\n  swap2\n  swap1\n  tag_19\n  jump\t// in\ntag_18:\n  sub(shl(0xa0, 0x01), 0x01)\n    /* \"contracts/gainzilla.sol\":11782:11838  IUniswapV2Factory(_uniswapV2Router.factory()).createPair */\n  and\n  0xc9c65396\n    /* \"contracts/gainzilla.sol\":11847:11851  this */\n  address\n    /* \"contracts/gainzilla.sol\":11854:11870  _uniswapV2Router */\n  dup4\n  sub(shl(0xa0, 0x01), 0x01)\n    /* \"contracts/gainzilla.sol\":11854:11875  _uniswapV2Router.WETH */\n  and\n  0xad5c4648\n    /* \"contracts/gainzilla.sol\":11854:11877  _uniswapV2Router.WETH() */\n  mload(0x40)\n  dup2\n  0xffffffff\n  and\n  0xe0\n  shl\n  dup2\n  mstore\n  0x04\n  add\n  0x20\n  mload(0x40)\n  dup1\n  dup4\n  sub\n  dup2\n  dup7\n  dup1\n  extcodesize\n  iszero\n  dup1\n  iszero\n  tag_20\n  jumpi\n  0x00\n  dup1\n  revert\ntag_20:\n  pop\n  gas\n  staticcall\n  iszero\n  dup1\n  iszero\n  tag_22\n  jumpi\n  returndatasize\n  0x00\n  dup1\n  returndatacopy\n  revert(0x00, returndatasize)\ntag_22:\n  pop\n  pop\n  pop\n  pop\n  mload(0x40)\n  returndatasize\n  not(0x1f)\n  0x1f\n  dup3\n  add\n  and\n  dup3\n  add\n  dup1\n  0x40\n  mstore\n  pop\n  dup2\n  add\n  swap1\n  tag_23\n  swap2\n  swap1\n  tag_19\n  jump\t// in\ntag_23:\n    /* \"contracts/gainzilla.sol\":11782:11878  IUniswapV2Factory(_uniswapV2Router.factory()).createPair(address(this), _uniswapV2Router.WETH()) */\n  mload(0x40)\n  not(sub(shl(0xe0, 0x01), 0x01))\n  0xe0\n  dup6\n  swap1\n  shl\n  and\n  dup2\n  mstore\n  sub(shl(0xa0, 0x01), 0x01)\n    /* \"#utility.yul\":861:876   */\n  swap3\n  dup4\n  and\n    /* \"contracts/gainzilla.sol\":11782:11878  IUniswapV2Factory(_uniswapV2Router.factory()).createPair(address(this), _uniswapV2Router.WETH()) */\n  0x04\n  dup3\n  add\n    /* \"#utility.yul\":843:877   */\n  mstore\n    /* \"#utility.yul\":913:928   */\n  swap2\n  and\n    /* \"#utility.yul\":893:911   */\n  0x24\n  dup3\n  add\n    /* \"#utility.yul\":886:929   */\n  mstore\n    /* \"#utility.yul\":778:796   */\n  0x44\n  add\n    /* \"contracts/gainzilla.sol\":11782:11878  IUniswapV2Factory(_uniswapV2Router.factory()).createPair(address(this), _uniswapV2Router.WETH()) */\n  0x20\n  mload(0x40)\n  dup1\n  dup4\n  sub\n  dup2\n  0x00\n  dup8\n  dup1\n  extcodesize\n  iszero\n  dup1\n  iszero\n  tag_26\n  jumpi\n  0x00\n  dup1\n  revert\ntag_26:\n  pop\n  gas\n  call\n  iszero\n  dup1\n  iszero\n  tag_28\n  jumpi\n  returndatasize\n  0x00\n  dup1\n  returndatacopy\n  revert(0x00, returndatasize)\ntag_28:\n  pop\n  pop\n  pop\n  pop\n  mload(0x40)\n  returndatasize\n  not(0x1f)\n  0x1f\n  dup3\n  add\n  and\n  dup3\n  add\n  dup1\n  0x40\n  mstore\n  pop\n  dup2\n  add\n  swap1\n  tag_29\n  swap2\n  swap1\n  tag_19\n  jump\t// in\ntag_29:\n    /* \"contracts/gainzilla.sol\":11766:11779  uniswapV2Pair */\n  0x26\n    /* \"contracts/gainzilla.sol\":11766:11878  uniswapV2Pair = IUniswapV2Factory(_uniswapV2Router.factory()).createPair(address(this), _uniswapV2Router.WETH()) */\n  dup1\n  sload\n  not(sub(shl(0xa0, 0x01), 0x01))\n  and\n  sub(shl(0xa0, 0x01), 0x01)\n  swap3\n  dup4\n  and\n  swap1\n  dup2\n  or\n  swap1\n  swap2\n  sstore\n    /* \"contracts/gainzilla.sol\":11926:11941  uniswapV2Router */\n  sload(0x25)\n    /* \"contracts/gainzilla.sol\":11888:11961  IERC20(uniswapV2Pair).approve(address(uniswapV2Router),type(uint256).max) */\n  mload(0x40)\n  shl(0xe0, 0x095ea7b3)\n  dup2\n  mstore\n    /* \"contracts/gainzilla.sol\":11926:11941  uniswapV2Router */\n  swap3\n  and\n    /* \"contracts/gainzilla.sol\":11888:11961  IERC20(uniswapV2Pair).approve(address(uniswapV2Router),type(uint256).max) */\n  0x04\n  dup4\n  add\n    /* \"#utility.yul\":1114:1165   */\n  mstore\n  not(0x00)\n    /* \"#utility.yul\":1181:1199   */\n  0x24\n  dup4\n  add\n    /* \"#utility.yul\":1174:1208   */\n  mstore\n    /* \"contracts/gainzilla.sol\":11766:11878  uniswapV2Pair = IUniswapV2Factory(_uniswapV2Router.factory()).createPair(address(this), _uniswapV2Router.WETH()) */\n  swap1\n    /* \"contracts/gainzilla.sol\":11888:11917  IERC20(uniswapV2Pair).approve */\n  0x095ea7b3\n  swap1\n    /* \"#utility.yul\":1087:1105   */\n  0x44\n  add\n    /* \"contracts/gainzilla.sol\":11888:11961  IERC20(uniswapV2Pair).approve(address(uniswapV2Router),type(uint256).max) */\n  0x20\n  mload(0x40)\n  dup1\n  dup4\n  sub\n  dup2\n  0x00\n  dup8\n  dup1\n  extcodesize\n  iszero\n  dup1\n  iszero\n  tag_32\n  jumpi\n  0x00\n  dup1\n  revert\ntag_32:\n  pop\n  gas\n  call\n  iszero\n  dup1\n  iszero\n  tag_34\n  jumpi\n  returndatasize\n  0x00\n  dup1\n  returndatacopy\n  revert(0x00, returndatasize)\ntag_34:\n  pop\n  pop\n  pop\n  pop\n  mload(0x40)\n  returndatasize\n  not(0x1f)\n  0x1f\n  dup3\n  add\n  and\n  dup3\n  add\n  dup1\n  0x40\n  mstore\n  pop\n  dup2\n  add\n  swap1\n  tag_35\n  swap2\n  swap1\n  tag_36\n  jump\t// in\ntag_35:\n  pop\n    /* \"contracts/gainzilla.sol\":8641:8659  1000000000 * 10**9 */\n  0x0de0b6b3a7640000\n    /* \"contracts/gainzilla.sol\":11972:11984  _maxTxAmount */\n  0x27\n    /* \"contracts/gainzilla.sol\":11972:11994  _maxTxAmount = _tTotal */\n  dup2\n  swap1\n  sstore\n    /* \"contracts/gainzilla.sol\":12059:12075  _maxWalletAmount */\n  0x07\n    /* \"contracts/gainzilla.sol\":12059:12085  _maxWalletAmount = _tTotal */\n  dup2\n  swap1\n  sstore\n    /* \"contracts/gainzilla.sol\":818:828  msg.sender */\n  caller\n  0x00\n    /* \"contracts/gainzilla.sol\":12104:12127  _balances[_msgSender()] */\n  dup2\n  dup2\n  mstore\n    /* \"contracts/gainzilla.sol\":12104:12113  _balances */\n  0x02\n  0x20\n    /* \"contracts/gainzilla.sol\":12104:12127  _balances[_msgSender()] */\n  swap1\n  dup2\n  mstore\n  0x40\n  dup1\n  dup4\n  keccak256\n    /* \"contracts/gainzilla.sol\":12104:12137  _balances[_msgSender()] = _tTotal */\n  dup6\n  swap1\n  sstore\n    /* \"contracts/gainzilla.sol\":3018:3024  _owner */\n  dup3\n  sload\n  sub(shl(0xa0, 0x01), 0x01)\n  and\n    /* \"contracts/gainzilla.sol\":12147:12174  _isExcludedFromFee[owner()] */\n  dup4\n  mstore\n    /* \"contracts/gainzilla.sol\":12147:12165  _isExcludedFromFee */\n  0x04\n    /* \"contracts/gainzilla.sol\":12147:12174  _isExcludedFromFee[owner()] */\n  dup3\n  mstore\n  dup1\n  dup4\n  keccak256\n    /* \"contracts/gainzilla.sol\":12147:12181  _isExcludedFromFee[owner()] = true */\n  dup1\n  sload\n    /* \"contracts/gainzilla.sol\":12177:12181  true */\n  0x01\n  not(0xff)\n    /* \"contracts/gainzilla.sol\":12147:12181  _isExcludedFromFee[owner()] = true */\n  swap2\n  dup3\n  and\n  dup2\n  or\n  swap1\n  swap3\n  sstore\n    /* \"contracts/gainzilla.sol\":12218:12222  this */\n  address\n    /* \"contracts/gainzilla.sol\":12191:12224  _isExcludedFromFee[address(this)] */\n  dup6\n  mstore\n  dup3\n  dup6\n  keccak256\n    /* \"contracts/gainzilla.sol\":12191:12231  _isExcludedFromFee[address(this)] = true */\n  dup1\n  sload\n  swap1\n  swap2\n  and\n  swap1\n  swap2\n  or\n  swap1\n  sstore\n    /* \"contracts/gainzilla.sol\":12246:12289  Transfer(address(0), _msgSender(), _tTotal) */\n  mload\n    /* \"#utility.yul\":2173:2198   */\n  swap4\n  dup5\n  mstore\n    /* \"contracts/gainzilla.sol\":818:828  msg.sender */\n  swap2\n  swap3\n  swap1\n  swap2\n    /* \"contracts/gainzilla.sol\":12246:12289  Transfer(address(0), _msgSender(), _tTotal) */\n  0xddf252ad1be2c89b69c2b068fc378daa952ba7f163c4a11628f55a4df523b3ef\n  swap2\n    /* \"#utility.yul\":2146:2164   */\n  add\n    /* \"contracts/gainzilla.sol\":12246:12289  Transfer(address(0), _msgSender(), _tTotal) */\n  mload(0x40)\n  dup1\n  swap2\n  sub\n  swap1\n  log3\n    /* \"contracts/gainzilla.sol\":11520:12296  constructor() {... */\n  pop\n    /* \"contracts/gainzilla.sol\":8181:30040  contract gainZilla is Context, IERC20, IERC20Extented, Ownable {... */\n  jump(tag_53)\n    /* \"contracts/gainzilla.sol\":2954:3031  function owner() public view returns (address) {... */\ntag_2:\n    /* \"contracts/gainzilla.sol\":2992:2999  address */\n  0x00\n    /* \"contracts/gainzilla.sol\":3018:3024  _owner */\n  sload\n  sub(shl(0xa0, 0x01), 0x01)\n  and\n  swap1\n    /* \"contracts/gainzilla.sol\":2954:3031  function owner() public view returns (address) {... */\n  jump\t// out\n    /* \"contracts/gainzilla.sol\":14904:15234  function _approve(address owner, address spender, uint256 amount) private {... */\ntag_14:\n  sub(shl(0xa0, 0x01), 0x01)\n    /* \"contracts/gainzilla.sol\":14996:15015  owner != address(0) */\n  dup4\n  and\n    /* \"contracts/gainzilla.sol\":14988:15056  require(owner != address(0), \"ERC20: approve from the zero address\") */\n  tag_46\n  jumpi\n  mload(0x40)\n  shl(0xe5, 0x461bcd)\n  dup2\n  mstore\n    /* \"#utility.yul\":1824:1826   */\n  0x20\n    /* \"contracts/gainzilla.sol\":14988:15056  require(owner != address(0), \"ERC20: approve from the zero address\") */\n  0x04\n  dup3\n  add\n    /* \"#utility.yul\":1806:1827   */\n  mstore\n    /* \"#utility.yul\":1863:1865   */\n  0x24\n    /* \"#utility.yul\":1843:1861   */\n  dup1\n  dup3\n  add\n    /* \"#utility.yul\":1836:1866   */\n  mstore\n    /* \"#utility.yul\":1902:1936   */\n  0x45524332303a20617070726f76652066726f6d20746865207a65726f20616464\n    /* \"#utility.yul\":1882:1900   */\n  0x44\n  dup3\n  add\n    /* \"#utility.yul\":1875:1937   */\n  mstore\n  shl(0xe0, 0x72657373)\n    /* \"#utility.yul\":1953:1971   */\n  0x64\n  dup3\n  add\n    /* \"#utility.yul\":1946:1980   */\n  mstore\n    /* \"#utility.yul\":1997:2016   */\n  0x84\n  add\n    /* \"contracts/gainzilla.sol\":14988:15056  require(owner != address(0), \"ERC20: approve from the zero address\") */\ntag_47:\n  mload(0x40)\n  dup1\n  swap2\n  sub\n  swap1\n  revert\ntag_46:\n  sub(shl(0xa0, 0x01), 0x01)\n    /* \"contracts/gainzilla.sol\":15074:15095  spender != address(0) */\n  dup3\n  and\n    /* \"contracts/gainzilla.sol\":15066:15134  require(spender != address(0), \"ERC20: approve to the zero address\") */\n  tag_49\n  jumpi\n  mload(0x40)\n  shl(0xe5, 0x461bcd)\n  dup2\n  mstore\n    /* \"#utility.yul\":1421:1423   */\n  0x20\n    /* \"contracts/gainzilla.sol\":15066:15134  require(spender != address(0), \"ERC20: approve to the zero address\") */\n  0x04\n  dup3\n  add\n    /* \"#utility.yul\":1403:1424   */\n  mstore\n    /* \"#utility.yul\":1460:1462   */\n  0x22\n    /* \"#utility.yul\":1440:1458   */\n  0x24\n  dup3\n  add\n    /* \"#utility.yul\":1433:1463   */\n  mstore\n    /* \"#utility.yul\":1499:1533   */\n  0x45524332303a20617070726f766520746f20746865207a65726f206164647265\n    /* \"#utility.yul\":1479:1497   */\n  0x44\n  dup3\n  add\n    /* \"#utility.yul\":1472:1534   */\n  mstore\n  shl(0xf0, 0x7373)\n    /* \"#utility.yul\":1550:1568   */\n  0x64\n  dup3\n  add\n    /* \"#utility.yul\":1543:1575   */\n  mstore\n    /* \"#utility.yul\":1592:1611   */\n  0x84\n  add\n    /* \"contracts/gainzilla.sol\":15066:15134  require(spender != address(0), \"ERC20: approve to the zero address\") */\n  tag_47\n    /* \"#utility.yul\":1393:1617   */\n  jump\n    /* \"contracts/gainzilla.sol\":15066:15134  require(spender != address(0), \"ERC20: approve to the zero address\") */\ntag_49:\n  sub(shl(0xa0, 0x01), 0x01)\n    /* \"contracts/gainzilla.sol\":15144:15162  _allowances[owner] */\n  dup4\n  dup2\n  and\n  0x00\n  dup2\n  dup2\n  mstore\n    /* \"contracts/gainzilla.sol\":15144:15155  _allowances */\n  0x03\n    /* \"contracts/gainzilla.sol\":15144:15162  _allowances[owner] */\n  0x20\n  swap1\n  dup2\n  mstore\n  0x40\n  dup1\n  dup4\n  keccak256\n    /* \"contracts/gainzilla.sol\":15144:15171  _allowances[owner][spender] */\n  swap5\n  dup8\n  and\n  dup1\n  dup5\n  mstore\n  swap5\n  dup3\n  mstore\n  swap2\n  dup3\n  swap1\n  keccak256\n    /* \"contracts/gainzilla.sol\":15144:15180  _allowances[owner][spender] = amount */\n  dup6\n  swap1\n  sstore\n    /* \"contracts/gainzilla.sol\":15195:15227  Approval(owner, spender, amount) */\n  swap1\n  mload\n    /* \"#utility.yul\":2173:2198   */\n  dup5\n  dup2\n  mstore\n    /* \"contracts/gainzilla.sol\":15195:15227  Approval(owner, spender, amount) */\n  0x8c5be1e5ebec7d5bd14f71427d1e84f3dd0314c0f7b2291e5b200ac8c7c3b925\n  swap2\n    /* \"#utility.yul\":2146:2164   */\n  add\n    /* \"contracts/gainzilla.sol\":15195:15227  Approval(owner, spender, amount) */\n  mload(0x40)\n  dup1\n  swap2\n  sub\n  swap1\n  log3\n    /* \"contracts/gainzilla.sol\":14904:15234  function _approve(address owner, address spender, uint256 amount) private {... */\n  pop\n  pop\n  pop\n  jump\t// out\n    /* \"#utility.yul\":14:324   */\ntag_19:\n    /* \"#utility.yul\":84:90   */\n  0x00\n    /* \"#utility.yul\":137:139   */\n  0x20\n    /* \"#utility.yul\":125:134   */\n  dup3\n    /* \"#utility.yul\":116:123   */\n  dup5\n    /* \"#utility.yul\":112:135   */\n  sub\n    /* \"#utility.yul\":108:140   */\n  slt\n    /* \"#utility.yul\":105:107   */\n  iszero\n  tag_55\n  jumpi\n    /* \"#utility.yul\":158:164   */\n  dup1\n    /* \"#utility.yul\":150:156   */\n  dup2\n    /* \"#utility.yul\":143:165   */\n  revert\n    /* \"#utility.yul\":105:107   */\ntag_55:\n    /* \"#utility.yul\":189:205   */\n  dup2\n  mload\n  sub(shl(0xa0, 0x01), 0x01)\n    /* \"#utility.yul\":234:265   */\n  dup2\n  and\n    /* \"#utility.yul\":224:266   */\n  dup2\n  eq\n    /* \"#utility.yul\":214:216   */\n  tag_56\n  jumpi\n    /* \"#utility.yul\":285:291   */\n  dup2\n    /* \"#utility.yul\":277:283   */\n  dup3\n    /* \"#utility.yul\":270:292   */\n  revert\n    /* \"#utility.yul\":214:216   */\ntag_56:\n    /* \"#utility.yul\":313:318   */\n  swap4\n    /* \"#utility.yul\":95:324   */\n  swap3\n  pop\n  pop\n  pop\n  jump\t// out\n    /* \"#utility.yul\":329:626   */\ntag_36:\n    /* \"#utility.yul\":396:402   */\n  0x00\n    /* \"#utility.yul\":449:451   */\n  0x20\n    /* \"#utility.yul\":437:446   */\n  dup3\n    /* \"#utility.yul\":428:435   */\n  dup5\n    /* \"#utility.yul\":424:447   */\n  sub\n    /* \"#utility.yul\":420:452   */\n  slt\n    /* \"#utility.yul\":417:419   */\n  iszero\n  tag_58\n  jumpi\n    /* \"#utility.yul\":470:476   */\n  dup1\n    /* \"#utility.yul\":462:468   */\n  dup2\n    /* \"#utility.yul\":455:477   */\n  revert\n    /* \"#utility.yul\":417:419   */\ntag_58:\n    /* \"#utility.yul\":507:516   */\n  dup2\n    /* \"#utility.yul\":501:517   */\n  mload\n    /* \"#utility.yul\":560:565   */\n  dup1\n    /* \"#utility.yul\":553:566   */\n  iszero\n    /* \"#utility.yul\":546:567   */\n  iszero\n    /* \"#utility.yul\":539:544   */\n  dup2\n    /* \"#utility.yul\":536:568   */\n  eq\n    /* \"#utility.yul\":526:528   */\n  tag_56\n  jumpi\n    /* \"#utility.yul\":587:593   */\n  dup2\n    /* \"#utility.yul\":579:585   */\n  dup3\n    /* \"#utility.yul\":572:594   */\n  revert\n    /* \"#utility.yul\":2128:2204   */\ntag_53:\n    /* \"contracts/gainzilla.sol\":8181:30040  contract gainZilla is Context, IERC20, IERC20Extented, Ownable {... */\n  dataSize(sub_0)\n  dup1\n  dataOffset(sub_0)\n  0x00\n  codecopy\n  0x00\n  return\nstop\n\nsub_0: assembly {\n        /* \"contracts/gainzilla.sol\":8181:30040  contract gainZilla is Context, IERC20, IERC20Extented, Ownable {... */\n      mstore(0x40, 0x80)\n      jumpi(tag_1, lt(calldatasize, 0x04))\n      shr(0xe0, calldataload(0x00))\n      dup1\n      0x80670f3c\n      gt\n      tag_60\n      jumpi\n      dup1\n      0xc95457ff\n      gt\n      tag_61\n      jumpi\n      dup1\n      0xdd62ed3e\n      gt\n      tag_62\n      jumpi\n      dup1\n      0xf2fde38b\n      gt\n      tag_63\n      jumpi\n      dup1\n      0xf2fde38b\n      eq\n      tag_56\n      jumpi\n      dup1\n      0xf480fec2\n      eq\n      tag_57\n      jumpi\n      dup1\n      0xffb54a99\n      eq\n      tag_58\n      jumpi\n      dup1\n      0xffecf516\n      eq\n      tag_59\n      jumpi\n      0x00\n      dup1\n      revert\n    tag_63:\n      dup1\n      0xdd62ed3e\n      eq\n      tag_52\n      jumpi\n      dup1\n      0xe315a6da\n      eq\n      tag_53\n      jumpi\n      dup1\n      0xe4bf1bed\n      eq\n      tag_54\n      jumpi\n      dup1\n      0xea2f0b37\n      eq\n      tag_55\n      jumpi\n      0x00\n      dup1\n      revert\n    tag_62:\n      dup1\n      0xd1633649\n      gt\n      tag_64\n      jumpi\n      dup1\n      0xd1633649\n      eq\n      tag_48\n      jumpi\n      dup1\n      0xd55cb78a\n      eq\n      tag_49\n      jumpi\n      dup1\n      0xdb0045ec\n      eq\n      tag_50\n      jumpi\n      dup1\n      0xdc44b6a0\n      eq\n      tag_51\n      jumpi\n      0x00\n      dup1\n      revert\n    tag_64:\n      dup1\n      0xc95457ff\n      eq\n      tag_45\n      jumpi\n      dup1\n      0xcab03471\n      eq\n      tag_46\n      jumpi\n      dup1\n      0xcdb3858f\n      eq\n      tag_47\n      jumpi\n      0x00\n      dup1\n      revert\n    tag_61:\n      dup1\n      0x9d82190f\n      gt\n      tag_65\n      jumpi\n      dup1\n      0xc3c8cd80\n      gt\n      tag_66\n      jumpi\n      dup1\n      0xc3c8cd80\n      eq\n      tag_41\n      jumpi\n      dup1\n      0xc469b6dd\n      eq\n      tag_42\n      jumpi\n      dup1\n      0xc5d24189\n      eq\n      tag_43\n      jumpi\n      dup1\n      0xc8607952\n      eq\n      tag_44\n      jumpi\n      0x00\n      dup1\n      revert\n    tag_66:\n      dup1\n      0x9d82190f\n      eq\n      tag_38\n      jumpi\n      dup1\n      0xa850673d\n      eq\n      tag_39\n      jumpi\n      dup1\n      0xa9059cbb\n      eq\n      tag_40\n      jumpi\n      0x00\n      dup1\n      revert\n    tag_65:\n      dup1\n      0x8e360253\n      gt\n      tag_67\n      jumpi\n      dup1\n      0x8e360253\n      eq\n      tag_34\n      jumpi\n      dup1\n      0x9491f94d\n      eq\n      tag_35\n      jumpi\n      dup1\n      0x95d89b41\n      eq\n      tag_36\n      jumpi\n      dup1\n      0x99a7b9bc\n      eq\n      tag_37\n      jumpi\n      0x00\n      dup1\n      revert\n    tag_67:\n      dup1\n      0x80670f3c\n      eq\n      tag_31\n      jumpi\n      dup1\n      0x88790a68\n      eq\n      tag_32\n      jumpi\n      dup1\n      0x8da5cb5b\n      eq\n      tag_33\n      jumpi\n      0x00\n      dup1\n      revert\n    tag_60:\n      dup1\n      0x39a53c4e\n      gt\n      tag_68\n      jumpi\n      dup1\n      0x6c0a24eb\n      gt\n      tag_69\n      jumpi\n      dup1\n      0x715018a6\n      gt\n      tag_70\n      jumpi\n      dup1\n      0x715018a6\n      eq\n      tag_27\n      jumpi\n      dup1\n      0x729cb3f2\n      eq\n      tag_28\n      jumpi\n      dup1\n      0x72b2aecc\n      eq\n      tag_29\n      jumpi\n      dup1\n      0x787a08a6\n      eq\n      tag_30\n      jumpi\n      0x00\n      dup1\n      revert\n    tag_70:\n      dup1\n      0x6c0a24eb\n      eq\n      tag_24\n      jumpi\n      dup1\n      0x6fc3eaec\n      eq\n      tag_25\n      jumpi\n      dup1\n      0x70a08231\n      eq\n      tag_26\n      jumpi\n      0x00\n      dup1\n      revert\n    tag_69:\n      dup1\n      0x437823ec\n      gt\n      tag_71\n      jumpi\n      dup1\n      0x437823ec\n      eq\n      tag_20\n      jumpi\n      dup1\n      0x49bd5a5e\n      eq\n      tag_21\n      jumpi\n      dup1\n      0x5fecd926\n      eq\n      tag_22\n      jumpi\n      dup1\n      0x6aabff3f\n      eq\n      tag_23\n      jumpi\n      0x00\n      dup1\n      revert\n    tag_71:\n      dup1\n      0x39a53c4e\n      eq\n      tag_17\n      jumpi\n      dup1\n      0x3bbac579\n      eq\n      tag_18\n      jumpi\n      dup1\n      0x3e0f966d\n      eq\n      tag_19\n      jumpi\n      0x00\n      dup1\n      revert\n    tag_68:\n      dup1\n      0x248dd232\n      gt\n      tag_72\n      jumpi\n      dup1\n      0x29409395\n      gt\n      tag_73\n      jumpi\n      dup1\n      0x29409395\n      eq\n      tag_13\n      jumpi\n      dup1\n      0x301ad558\n      eq\n      tag_14\n      jumpi\n      dup1\n      0x313ce567\n      eq\n      tag_15\n      jumpi\n      dup1\n      0x323be1c5\n      eq\n      tag_16\n      jumpi\n      0x00\n      dup1\n      revert\n    tag_73:\n      dup1\n      0x248dd232\n      eq\n      tag_10\n      jumpi\n      dup1\n      0x27a14fc2\n      eq\n      tag_11\n      jumpi\n      dup1\n      0x2843631d\n      eq\n      tag_12\n      jumpi\n      0x00\n      dup1\n      revert\n    tag_72:\n      dup1\n      0x14eb76ac\n      gt\n      tag_74\n      jumpi\n      dup1\n      0x14eb76ac\n      eq\n      tag_6\n      jumpi\n      dup1\n      0x18160ddd\n      eq\n      tag_7\n      jumpi\n      dup1\n      0x2369bf83\n      eq\n      tag_8\n      jumpi\n      dup1\n      0x23b872dd\n      eq\n      tag_9\n      jumpi\n      0x00\n      dup1\n      revert\n    tag_74:\n      dup1\n      0x01a6c43b\n      eq\n      tag_3\n      jumpi\n      dup1\n      0x06fdde03\n      eq\n      tag_4\n      jumpi\n      dup1\n      0x095ea7b3\n      eq\n      tag_5\n      jumpi\n      0x00\n      dup1\n      revert\n    tag_1:\n      jumpi(tag_2, calldatasize)\n      stop\n    tag_2:\n      0x00\n      dup1\n      revert\n        /* \"contracts/gainzilla.sol\":8806:8854  uint256 public numTokensToSwap = 1000000 * 10**9 */\n    tag_3:\n      callvalue\n      dup1\n      iszero\n      tag_77\n      jumpi\n      0x00\n      dup1\n      revert\n    tag_77:\n      pop\n      tag_78\n      sload(0x08)\n      dup2\n      jump\n    tag_78:\n      mload(0x40)\n        /* \"#utility.yul\":6702:6727   */\n      swap1\n      dup2\n      mstore\n        /* \"#utility.yul\":6690:6692   */\n      0x20\n        /* \"#utility.yul\":6675:6693   */\n      add\n        /* \"contracts/gainzilla.sol\":8806:8854  uint256 public numTokensToSwap = 1000000 * 10**9 */\n    tag_80:\n      mload(0x40)\n      dup1\n      swap2\n      sub\n      swap1\n      return\n        /* \"contracts/gainzilla.sol\":12302:12394  function name() override external pure returns (string memory) {... */\n    tag_4:\n      callvalue\n      dup1\n      iszero\n      tag_82\n      jumpi\n      0x00\n      dup1\n      revert\n    tag_82:\n      pop\n        /* \"contracts/gainzilla.sol\":12382:12387  _name */\n      0x40\n      dup1\n      mload\n      dup1\n      dup3\n      add\n      swap1\n      swap2\n      mstore\n      0x09\n      dup2\n      mstore\n      0x4761696e5a696c6c610000000000000000000000000000000000000000000000\n      0x20\n      dup3\n      add\n      mstore\n        /* \"contracts/gainzilla.sol\":12302:12394  function name() override external pure returns (string memory) {... */\n    tag_83:\n      mload(0x40)\n      tag_80\n      swap2\n      swap1\n      tag_86\n      jump\t// in\n        /* \"contracts/gainzilla.sol\":13251:13411  function approve(address spender, uint256 amount) external override returns (bool) {... */\n    tag_5:\n      callvalue\n      dup1\n      iszero\n      tag_87\n      jumpi\n      0x00\n      dup1\n      revert\n    tag_87:\n      pop\n      tag_88\n      tag_89\n      calldatasize\n      0x04\n      tag_90\n      jump\t// in\n    tag_89:\n      tag_91\n      jump\t// in\n    tag_88:\n      mload(0x40)\n        /* \"#utility.yul\":5754:5768   */\n      swap1\n      iszero\n        /* \"#utility.yul\":5747:5769   */\n      iszero\n        /* \"#utility.yul\":5729:5770   */\n      dup2\n      mstore\n        /* \"#utility.yul\":5717:5719   */\n      0x20\n        /* \"#utility.yul\":5702:5720   */\n      add\n        /* \"contracts/gainzilla.sol\":13251:13411  function approve(address spender, uint256 amount) external override returns (bool) {... */\n      tag_80\n        /* \"#utility.yul\":5684:5776   */\n      jump\n        /* \"contracts/gainzilla.sol\":28253:28373  function updateTeamAddress(address payable teamAddress) external onlyOwner() {... */\n    tag_6:\n      callvalue\n      dup1\n      iszero\n      tag_94\n      jumpi\n      0x00\n      dup1\n      revert\n    tag_94:\n      pop\n      tag_95\n      tag_96\n      calldatasize\n      0x04\n      tag_129\n      jump\t// in\n    tag_96:\n      tag_98\n      jump\t// in\n    tag_95:\n      stop\n        /* \"contracts/gainzilla.sol\":12600:12695  function totalSupply() external pure override returns (uint256) {... */\n    tag_7:\n      callvalue\n      dup1\n      iszero\n      tag_99\n      jumpi\n      0x00\n      dup1\n      revert\n    tag_99:\n      pop\n        /* \"contracts/gainzilla.sol\":8641:8659  1000000000 * 10**9 */\n      0x0de0b6b3a7640000\n        /* \"contracts/gainzilla.sol\":12600:12695  function totalSupply() external pure override returns (uint256) {... */\n      jump(tag_78)\n        /* \"contracts/gainzilla.sol\":28103:28243  function updateMarketingAddress(address payable marketingAddress) external onlyOwner() {... */\n    tag_8:\n      callvalue\n      dup1\n      iszero\n      tag_103\n      jumpi\n      0x00\n      dup1\n      revert\n    tag_103:\n      pop\n      tag_95\n      tag_105\n      calldatasize\n      0x04\n      tag_129\n      jump\t// in\n    tag_105:\n      tag_106\n      jump\t// in\n        /* \"contracts/gainzilla.sol\":13417:13725  function transferFrom(address sender, address recipient, uint256 amount) external override returns (bool) {... */\n    tag_9:\n      callvalue\n      dup1\n      iszero\n      tag_107\n      jumpi\n      0x00\n      dup1\n      revert\n    tag_107:\n      pop\n      tag_88\n      tag_109\n      calldatasize\n      0x04\n      tag_110\n      jump\t// in\n    tag_109:\n      tag_111\n      jump\t// in\n        /* \"contracts/gainzilla.sol\":9547:9583  uint256 public _sellEcosystemFee = 0 */\n    tag_10:\n      callvalue\n      dup1\n      iszero\n      tag_113\n      jumpi\n      0x00\n      dup1\n      revert\n    tag_113:\n      pop\n      tag_78\n      sload(0x13)\n      dup2\n      jump\n        /* \"contracts/gainzilla.sol\":25859:26182  function setMaxWalletAmount(uint256 maxWalletAmount) external onlyOwner() {... */\n    tag_11:\n      callvalue\n      dup1\n      iszero\n      tag_117\n      jumpi\n      0x00\n      dup1\n      revert\n    tag_117:\n      pop\n      tag_95\n      tag_119\n      calldatasize\n      0x04\n      tag_120\n      jump\t// in\n    tag_119:\n      tag_121\n      jump\t// in\n        /* \"contracts/gainzilla.sol\":9041:9076  uint256 public _buyEcosystemFee = 0 */\n    tag_12:\n      callvalue\n      dup1\n      iszero\n      tag_122\n      jumpi\n      0x00\n      dup1\n      revert\n    tag_122:\n      pop\n      tag_78\n      sload(0x0b)\n      dup2\n      jump\n        /* \"contracts/gainzilla.sol\":22766:22948  function manualSendToken(address token) external onlyOwner() {... */\n    tag_13:\n      callvalue\n      dup1\n      iszero\n      tag_126\n      jumpi\n      0x00\n      dup1\n      revert\n    tag_126:\n      pop\n      tag_95\n      tag_128\n      calldatasize\n      0x04\n      tag_129\n      jump\t// in\n    tag_128:\n      tag_130\n      jump\t// in\n        /* \"contracts/gainzilla.sol\":11046:11077  bool public canBlackList = true */\n    tag_14:\n      callvalue\n      dup1\n      iszero\n      tag_131\n      jumpi\n      0x00\n      dup1\n      revert\n    tag_131:\n      pop\n      sload(0x28)\n      tag_88\n      swap1\n      0x01000000\n      swap1\n      div\n      0xff\n      and\n      dup2\n      jump\n        /* \"contracts/gainzilla.sol\":12502:12594  function decimals() override external pure returns (uint8) {... */\n    tag_15:\n      callvalue\n      dup1\n      iszero\n      tag_135\n      jumpi\n      0x00\n      dup1\n      revert\n    tag_135:\n      pop\n      mload(0x40)\n        /* \"contracts/gainzilla.sol\":8417:8418  9 */\n      0x09\n        /* \"#utility.yul\":17040:17076   */\n      dup2\n      mstore\n        /* \"#utility.yul\":17028:17030   */\n      0x20\n        /* \"#utility.yul\":17013:17031   */\n      add\n        /* \"contracts/gainzilla.sol\":12502:12594  function decimals() override external pure returns (uint8) {... */\n      tag_80\n        /* \"#utility.yul\":16995:17082   */\n      jump\n        /* \"contracts/gainzilla.sol\":11013:11040  bool public canPause = true */\n    tag_16:\n      callvalue\n      dup1\n      iszero\n      tag_140\n      jumpi\n      0x00\n      dup1\n      revert\n    tag_140:\n      pop\n      sload(0x28)\n      tag_88\n      swap1\n      0x010000\n      swap1\n      div\n      0xff\n      and\n      dup2\n      jump\n        /* \"contracts/gainzilla.sol\":11083:11114  bool public canChangeTax = true */\n    tag_17:\n      callvalue\n      dup1\n      iszero\n      tag_144\n      jumpi\n      0x00\n      dup1\n      revert\n    tag_144:\n      pop\n      sload(0x28)\n      tag_88\n      swap1\n      0x0100000000\n      swap1\n      div\n      0xff\n      and\n      dup2\n      jump\n        /* \"contracts/gainzilla.sol\":12824:12920  function isBot(address account) public view returns (bool) {... */\n    tag_18:\n      callvalue\n      dup1\n      iszero\n      tag_148\n      jumpi\n      0x00\n      dup1\n      revert\n    tag_148:\n      pop\n      tag_88\n      tag_150\n      calldatasize\n      0x04\n      tag_129\n      jump\t// in\n    tag_150:\n      sub(shl(0xa0, 0x01), 0x01)\n        /* \"contracts/gainzilla.sol\":12900:12913  bots[account] */\n      and\n        /* \"contracts/gainzilla.sol\":12877:12881  bool */\n      0x00\n        /* \"contracts/gainzilla.sol\":12900:12913  bots[account] */\n      swap1\n      dup2\n      mstore\n        /* \"contracts/gainzilla.sol\":12900:12904  bots */\n      0x20\n        /* \"contracts/gainzilla.sol\":12900:12913  bots[account] */\n      dup1\n      mstore\n      0x40\n      swap1\n      keccak256\n      sload\n      0xff\n      and\n      swap1\n        /* \"contracts/gainzilla.sol\":12824:12920  function isBot(address account) public view returns (bool) {... */\n      jump\n        /* \"contracts/gainzilla.sol\":22087:22229  function disableToken() external onlyOwner() {... */\n    tag_19:\n      callvalue\n      dup1\n      iszero\n      tag_153\n      jumpi\n      0x00\n      dup1\n      revert\n    tag_153:\n      pop\n      tag_95\n      tag_155\n      jump\t// in\n        /* \"contracts/gainzilla.sol\":25102:25213  function excludeFromFee(address account) public onlyOwner() {... */\n    tag_20:\n      callvalue\n      dup1\n      iszero\n      tag_156\n      jumpi\n      0x00\n      dup1\n      revert\n    tag_156:\n      pop\n      tag_95\n      tag_158\n      calldatasize\n      0x04\n      tag_129\n      jump\t// in\n    tag_158:\n      tag_159\n      jump\t// in\n        /* \"contracts/gainzilla.sol\":10874:10902  address public uniswapV2Pair */\n    tag_21:\n      callvalue\n      dup1\n      iszero\n      tag_160\n      jumpi\n      0x00\n      dup1\n      revert\n    tag_160:\n      pop\n      sload(0x26)\n      tag_161\n      swap1\n      sub(shl(0xa0, 0x01), 0x01)\n      and\n      dup2\n      jump\n    tag_161:\n      mload(0x40)\n      sub(shl(0xa0, 0x01), 0x01)\n        /* \"#utility.yul\":4577:4632   */\n      swap1\n      swap2\n      and\n        /* \"#utility.yul\":4559:4633   */\n      dup2\n      mstore\n        /* \"#utility.yul\":4547:4549   */\n      0x20\n        /* \"#utility.yul\":4532:4550   */\n      add\n        /* \"contracts/gainzilla.sol\":10874:10902  address public uniswapV2Pair */\n      tag_80\n        /* \"#utility.yul\":4514:4639   */\n      jump\n        /* \"contracts/gainzilla.sol\":25341:25436  function removeBot(address account) external onlyOwner() {... */\n    tag_22:\n      callvalue\n      dup1\n      iszero\n      tag_165\n      jumpi\n      0x00\n      dup1\n      revert\n    tag_165:\n      pop\n      tag_95\n      tag_167\n      calldatasize\n      0x04\n      tag_129\n      jump\t// in\n    tag_167:\n      tag_168\n      jump\t// in\n        /* \"contracts/gainzilla.sol\":22235:22320  function disablePauseAbility() onlyOwner() external {... */\n    tag_23:\n      callvalue\n      dup1\n      iszero\n      tag_169\n      jumpi\n      0x00\n      dup1\n      revert\n    tag_169:\n      pop\n      tag_95\n      tag_171\n      jump\t// in\n        /* \"contracts/gainzilla.sol\":8750:8800  uint256 public _maxWalletAmount = 10000001 * 10**9 */\n    tag_24:\n      callvalue\n      dup1\n      iszero\n      tag_172\n      jumpi\n      0x00\n      dup1\n      revert\n    tag_172:\n      pop\n      tag_78\n      sload(0x07)\n      dup2\n      jump\n        /* \"contracts/gainzilla.sol\":22534:22760  function manualsend() external onlyOwner() {... */\n    tag_25:\n      callvalue\n      dup1\n      iszero\n      tag_176\n      jumpi\n      0x00\n      dup1\n      revert\n    tag_176:\n      pop\n      tag_95\n      tag_178\n      jump\t// in\n        /* \"contracts/gainzilla.sol\":12701:12818  function balanceOf(address account) public view override returns (uint256) {... */\n    tag_26:\n      callvalue\n      dup1\n      iszero\n      tag_179\n      jumpi\n      0x00\n      dup1\n      revert\n    tag_179:\n      pop\n      tag_78\n      tag_181\n      calldatasize\n      0x04\n      tag_129\n      jump\t// in\n    tag_181:\n      sub(shl(0xa0, 0x01), 0x01)\n        /* \"contracts/gainzilla.sol\":12793:12811  _balances[account] */\n      and\n        /* \"contracts/gainzilla.sol\":12767:12774  uint256 */\n      0x00\n        /* \"contracts/gainzilla.sol\":12793:12811  _balances[account] */\n      swap1\n      dup2\n      mstore\n        /* \"contracts/gainzilla.sol\":12793:12802  _balances */\n      0x02\n        /* \"contracts/gainzilla.sol\":12793:12811  _balances[account] */\n      0x20\n      mstore\n      0x40\n      swap1\n      keccak256\n      sload\n      swap1\n        /* \"contracts/gainzilla.sol\":12701:12818  function balanceOf(address account) public view override returns (uint256) {... */\n      jump\n        /* \"contracts/gainzilla.sol\":3851:3998  function renounceOwnership() public virtual onlyOwner() {... */\n    tag_27:\n      callvalue\n      dup1\n      iszero\n      tag_184\n      jumpi\n      0x00\n      dup1\n      revert\n    tag_184:\n      pop\n      tag_95\n      tag_186\n      jump\t// in\n        /* \"contracts/gainzilla.sol\":28627:28800  function configureStrongHands(bool enabled, uint32 duration) external onlyOwner {... */\n    tag_28:\n      callvalue\n      dup1\n      iszero\n      tag_187\n      jumpi\n      0x00\n      dup1\n      revert\n    tag_187:\n      pop\n      tag_95\n      tag_189\n      calldatasize\n      0x04\n      tag_190\n      jump\t// in\n    tag_189:\n      tag_191\n      jump\t// in\n        /* \"contracts/gainzilla.sol\":9916:9960  uint256 public transferFeeIncreaseFactor = 0 */\n    tag_29:\n      callvalue\n      dup1\n      iszero\n      tag_192\n      jumpi\n      0x00\n      dup1\n      revert\n    tag_192:\n      pop\n      tag_78\n      sload(0x19)\n      dup2\n      jump\n        /* \"contracts/gainzilla.sol\":10282:10315  StrongHandsConfig public cooldown */\n    tag_30:\n      callvalue\n      dup1\n      iszero\n      tag_196\n      jumpi\n      0x00\n      dup1\n      revert\n    tag_196:\n      pop\n      sload(0x1a)\n      tag_197\n      swap1\n      0xff\n      dup2\n      and\n      swap1\n      0x0100\n      swap1\n      div\n      0xffffffff\n      and\n      dup3\n      jump\n    tag_197:\n      0x40\n      dup1\n      mload\n        /* \"#utility.yul\":6471:6485   */\n      swap3\n      iszero\n        /* \"#utility.yul\":6464:6486   */\n      iszero\n        /* \"#utility.yul\":6446:6487   */\n      dup4\n      mstore\n        /* \"#utility.yul\":6535:6545   */\n      0xffffffff\n        /* \"#utility.yul\":6523:6546   */\n      swap1\n      swap2\n      and\n        /* \"#utility.yul\":6518:6520   */\n      0x20\n        /* \"#utility.yul\":6503:6521   */\n      dup4\n      add\n        /* \"#utility.yul\":6496:6547   */\n      mstore\n        /* \"#utility.yul\":6419:6437   */\n      add\n        /* \"contracts/gainzilla.sol\":10282:10315  StrongHandsConfig public cooldown */\n      tag_80\n        /* \"#utility.yul\":6401:6553   */\n      jump\n        /* \"contracts/gainzilla.sol\":29350:30038  function ATHvariance() public view returns (int256) {... */\n    tag_31:\n      callvalue\n      dup1\n      iszero\n      tag_201\n      jumpi\n      0x00\n      dup1\n      revert\n    tag_201:\n      pop\n      tag_78\n      tag_203\n      jump\t// in\n        /* \"contracts/gainzilla.sol\":9419:9455  uint256 public _sellLiquidityFee = 0 */\n    tag_32:\n      callvalue\n      dup1\n      iszero\n      tag_206\n      jumpi\n      0x00\n      dup1\n      revert\n    tag_206:\n      pop\n      tag_78\n      sload(0x11)\n      dup2\n      jump\n        /* \"contracts/gainzilla.sol\":2954:3031  function owner() public view returns (address) {... */\n    tag_33:\n      callvalue\n      dup1\n      iszero\n      tag_210\n      jumpi\n      0x00\n      dup1\n      revert\n    tag_210:\n      pop\n        /* \"contracts/gainzilla.sol\":2992:2999  address */\n      0x00\n        /* \"contracts/gainzilla.sol\":3018:3024  _owner */\n      sload\n      sub(shl(0xa0, 0x01), 0x01)\n      and\n        /* \"contracts/gainzilla.sol\":2954:3031  function owner() public view returns (address) {... */\n      jump(tag_161)\n        /* \"contracts/gainzilla.sol\":22002:22081  function enableToken() external onlyOwner() {... */\n    tag_34:\n      callvalue\n      dup1\n      iszero\n      tag_214\n      jumpi\n      0x00\n      dup1\n      revert\n    tag_214:\n      pop\n      tag_95\n      tag_216\n      jump\t// in\n        /* \"contracts/gainzilla.sol\":19681:20097  function pairPrice() public view returns (uint256) {... */\n    tag_35:\n      callvalue\n      dup1\n      iszero\n      tag_217\n      jumpi\n      0x00\n      dup1\n      revert\n    tag_217:\n      pop\n      tag_78\n      tag_219\n      jump\t// in\n        /* \"contracts/gainzilla.sol\":12400:12496  function symbol() override external pure returns (string memory) {... */\n    tag_36:\n      callvalue\n      dup1\n      iszero\n      tag_221\n      jumpi\n      0x00\n      dup1\n      revert\n    tag_221:\n      pop\n        /* \"contracts/gainzilla.sol\":12482:12489  _symbol */\n      0x40\n      dup1\n      mload\n      dup1\n      dup3\n      add\n      swap1\n      swap2\n      mstore\n      0x09\n      dup2\n      mstore\n      0x4741494e5a494c4c410000000000000000000000000000000000000000000000\n      0x20\n      dup3\n      add\n      mstore\n        /* \"contracts/gainzilla.sol\":12400:12496  function symbol() override external pure returns (string memory) {... */\n      jump(tag_83)\n        /* \"contracts/gainzilla.sol\":27861:27947  function disableTaxChange() onlyOwner() external {... */\n    tag_37:\n      callvalue\n      dup1\n      iszero\n      tag_225\n      jumpi\n      0x00\n      dup1\n      revert\n    tag_225:\n      pop\n      tag_95\n      tag_227\n      jump\t// in\n        /* \"contracts/gainzilla.sol\":28806:29344  function cooldownRemaining(address account) public view returns (... */\n    tag_38:\n      callvalue\n      dup1\n      iszero\n      tag_228\n      jumpi\n      0x00\n      dup1\n      revert\n    tag_228:\n      pop\n      tag_229\n      tag_230\n      calldatasize\n      0x04\n      tag_129\n      jump\t// in\n    tag_230:\n      tag_231\n      jump\t// in\n    tag_229:\n      0x40\n      dup1\n      mload\n        /* \"#utility.yul\":16733:16758   */\n      swap5\n      dup6\n      mstore\n        /* \"#utility.yul\":16789:16791   */\n      0x20\n        /* \"#utility.yul\":16774:16792   */\n      dup6\n      add\n        /* \"#utility.yul\":16767:16801   */\n      swap4\n      swap1\n      swap4\n      mstore\n        /* \"#utility.yul\":16817:16835   */\n      swap2\n      dup4\n      add\n        /* \"#utility.yul\":16810:16844   */\n      mstore\n        /* \"#utility.yul\":16875:16877   */\n      0x60\n        /* \"#utility.yul\":16860:16878   */\n      dup3\n      add\n        /* \"#utility.yul\":16853:16887   */\n      mstore\n        /* \"#utility.yul\":16720:16723   */\n      0x80\n        /* \"#utility.yul\":16705:16724   */\n      add\n        /* \"contracts/gainzilla.sol\":28806:29344  function cooldownRemaining(address account) public view returns (... */\n      tag_80\n        /* \"#utility.yul\":16687:16893   */\n      jump\n        /* \"contracts/gainzilla.sol\":25713:25853  function setTransferTransactionMultiplier(uint256 _multiplier) external onlyOwner() {... */\n    tag_39:\n      callvalue\n      dup1\n      iszero\n      tag_234\n      jumpi\n      0x00\n      dup1\n      revert\n    tag_234:\n      pop\n      tag_95\n      tag_236\n      calldatasize\n      0x04\n      tag_120\n      jump\t// in\n    tag_236:\n      tag_237\n      jump\t// in\n        /* \"contracts/gainzilla.sol\":12930:13096  function transfer(address recipient, uint256 amount) external override returns (bool) {... */\n    tag_40:\n      callvalue\n      dup1\n      iszero\n      tag_238\n      jumpi\n      0x00\n      dup1\n      revert\n    tag_238:\n      pop\n      tag_88\n      tag_240\n      calldatasize\n      0x04\n      tag_90\n      jump\t// in\n    tag_240:\n      tag_241\n      jump\t// in\n        /* \"contracts/gainzilla.sol\":22326:22528  function manualswap() external onlyOwner() {... */\n    tag_41:\n      callvalue\n      dup1\n      iszero\n      tag_243\n      jumpi\n      0x00\n      dup1\n      revert\n    tag_243:\n      pop\n      tag_95\n      tag_245\n      jump\t// in\n        /* \"contracts/gainzilla.sol\":9291:9321  uint256 public _buyTeamFee = 0 */\n    tag_42:\n      callvalue\n      dup1\n      iszero\n      tag_246\n      jumpi\n      0x00\n      dup1\n      revert\n    tag_246:\n      pop\n      tag_78\n      sload(0x0f)\n      dup2\n      jump\n        /* \"contracts/gainzilla.sol\":9166:9201  uint256 public _buyMarketingFee = 0 */\n    tag_43:\n      callvalue\n      dup1\n      iszero\n      tag_250\n      jumpi\n      0x00\n      dup1\n      revert\n    tag_250:\n      pop\n      tag_78\n      sload(0x0d)\n      dup2\n      jump\n        /* \"contracts/gainzilla.sol\":9675:9711  uint256 public _sellMarketingFee = 0 */\n    tag_44:\n      callvalue\n      dup1\n      iszero\n      tag_254\n      jumpi\n      0x00\n      dup1\n      revert\n    tag_254:\n      pop\n      tag_78\n      sload(0x15)\n      dup2\n      jump\n        /* \"contracts/gainzilla.sol\":10490:10522  DiamondFloor public diamondFloor */\n    tag_45:\n      callvalue\n      dup1\n      iszero\n      tag_258\n      jumpi\n      0x00\n      dup1\n      revert\n    tag_258:\n      pop\n      sload(0x1c)\n      sload(0x1d)\n      sload(0x1e)\n      sload(0x1f)\n      tag_259\n      swap4\n      0xff\n      dup1\n      dup3\n      and\n      swap5\n      0x0100\n      swap1\n      swap3\n      div\n      0xffff\n      and\n      swap4\n      swap2\n      swap3\n      swap2\n      and\n      swap1\n      dup6\n      jump\n    tag_259:\n      0x40\n      dup1\n      mload\n        /* \"#utility.yul\":6051:6065   */\n      swap6\n      iszero\n        /* \"#utility.yul\":6044:6066   */\n      iszero\n        /* \"#utility.yul\":6026:6067   */\n      dup7\n      mstore\n        /* \"#utility.yul\":6115:6121   */\n      0xffff\n        /* \"#utility.yul\":6103:6122   */\n      swap1\n      swap5\n      and\n        /* \"#utility.yul\":6098:6100   */\n      0x20\n        /* \"#utility.yul\":6083:6101   */\n      dup7\n      add\n        /* \"#utility.yul\":6076:6123   */\n      mstore\n        /* \"#utility.yul\":6139:6157   */\n      swap3\n      dup5\n      add\n        /* \"#utility.yul\":6132:6166   */\n      swap2\n      swap1\n      swap2\n      mstore\n        /* \"#utility.yul\":6209:6223   */\n      iszero\n        /* \"#utility.yul\":6202:6224   */\n      iszero\n        /* \"#utility.yul\":6197:6199   */\n      0x60\n        /* \"#utility.yul\":6182:6200   */\n      dup4\n      add\n        /* \"#utility.yul\":6175:6225   */\n      mstore\n        /* \"#utility.yul\":6256:6259   */\n      0x80\n        /* \"#utility.yul\":6241:6260   */\n      dup3\n      add\n        /* \"#utility.yul\":6234:6269   */\n      mstore\n        /* \"#utility.yul\":6013:6016   */\n      0xa0\n        /* \"#utility.yul\":5998:6017   */\n      add\n        /* \"contracts/gainzilla.sol\":10490:10522  DiamondFloor public diamondFloor */\n      tag_80\n        /* \"#utility.yul\":5980:6275   */\n      jump\n        /* \"contracts/gainzilla.sol\":9803:9834  uint256 public _sellTeamFee = 0 */\n    tag_46:\n      callvalue\n      dup1\n      iszero\n      tag_263\n      jumpi\n      0x00\n      dup1\n      revert\n    tag_263:\n      pop\n      tag_78\n      sload(0x17)\n      dup2\n      jump\n        /* \"contracts/gainzilla.sol\":28380:28500  function updateLpRecipient(address payable lpRecipient) external onlyOwner() {... */\n    tag_47:\n      callvalue\n      dup1\n      iszero\n      tag_267\n      jumpi\n      0x00\n      dup1\n      revert\n    tag_267:\n      pop\n      tag_95\n      tag_269\n      calldatasize\n      0x04\n      tag_129\n      jump\t// in\n    tag_269:\n      tag_270\n      jump\t// in\n        /* \"contracts/gainzilla.sol\":21829:21996  function openTrading(uint256 botBlocks) external onlyOwner() {... */\n    tag_48:\n      callvalue\n      dup1\n      iszero\n      tag_271\n      jumpi\n      0x00\n      dup1\n      revert\n    tag_271:\n      pop\n      tag_95\n      tag_273\n      calldatasize\n      0x04\n      tag_120\n      jump\t// in\n    tag_273:\n      tag_274\n      jump\t// in\n        /* \"contracts/gainzilla.sol\":25614:25703  function disableBlackListing() onlyOwner() external {... */\n    tag_49:\n      callvalue\n      dup1\n      iszero\n      tag_275\n      jumpi\n      0x00\n      dup1\n      revert\n    tag_275:\n      pop\n      tag_95\n      tag_277\n      jump\t// in\n        /* \"contracts/gainzilla.sol\":27953:28093  function updateEcosystemAddress(address payable ecosystemAddress) external onlyOwner() {... */\n    tag_50:\n      callvalue\n      dup1\n      iszero\n      tag_278\n      jumpi\n      0x00\n      dup1\n      revert\n    tag_278:\n      pop\n      tag_95\n      tag_280\n      calldatasize\n      0x04\n      tag_129\n      jump\t// in\n    tag_280:\n      tag_281\n      jump\t// in\n        /* \"contracts/gainzilla.sol\":8916:8951  uint256 public _buyLiquidityFee = 0 */\n    tag_51:\n      callvalue\n      dup1\n      iszero\n      tag_282\n      jumpi\n      0x00\n      dup1\n      revert\n    tag_282:\n      pop\n      tag_78\n      sload(0x09)\n      dup2\n      jump\n        /* \"contracts/gainzilla.sol\":13102:13245  function allowance(address owner, address spender) external view override returns (uint256) {... */\n    tag_52:\n      callvalue\n      dup1\n      iszero\n      tag_286\n      jumpi\n      0x00\n      dup1\n      revert\n    tag_286:\n      pop\n      tag_78\n      tag_288\n      calldatasize\n      0x04\n      tag_289\n      jump\t// in\n    tag_288:\n      sub(shl(0xa0, 0x01), 0x01)\n        /* \"contracts/gainzilla.sol\":13211:13229  _allowances[owner] */\n      swap2\n      dup3\n      and\n        /* \"contracts/gainzilla.sol\":13185:13192  uint256 */\n      0x00\n        /* \"contracts/gainzilla.sol\":13211:13229  _allowances[owner] */\n      swap1\n      dup2\n      mstore\n        /* \"contracts/gainzilla.sol\":13211:13222  _allowances */\n      0x03\n        /* \"contracts/gainzilla.sol\":13211:13229  _allowances[owner] */\n      0x20\n      swap1\n      dup2\n      mstore\n      0x40\n      dup1\n      dup4\n      keccak256\n        /* \"contracts/gainzilla.sol\":13211:13238  _allowances[owner][spender] */\n      swap4\n      swap1\n      swap5\n      and\n      dup3\n      mstore\n      swap2\n      swap1\n      swap2\n      mstore\n      keccak256\n      sload\n      swap1\n        /* \"contracts/gainzilla.sol\":13102:13245  function allowance(address owner, address spender) external view override returns (uint256) {... */\n      jump\n        /* \"contracts/gainzilla.sol\":28506:28621  function updateNumTokensToSwap(uint256 numTokens) external onlyOwner() {... */\n    tag_53:\n      callvalue\n      dup1\n      iszero\n      tag_292\n      jumpi\n      0x00\n      dup1\n      revert\n    tag_292:\n      pop\n      tag_95\n      tag_294\n      calldatasize\n      0x04\n      tag_120\n      jump\t// in\n    tag_294:\n      tag_295\n      jump\t// in\n        /* \"contracts/gainzilla.sol\":26188:27011  function setBuyTaxes(uint256 marketingFee, uint256 liquidityFee, uint256 teamFee, uint256 ecosystemFee) external onlyOwner() {... */\n    tag_54:\n      callvalue\n      dup1\n      iszero\n      tag_296\n      jumpi\n      0x00\n      dup1\n      revert\n    tag_296:\n      pop\n      tag_95\n      tag_298\n      calldatasize\n      0x04\n      tag_299\n      jump\t// in\n    tag_298:\n      tag_300\n      jump\t// in\n        /* \"contracts/gainzilla.sol\":25219:25331  function includeInFee(address account) external onlyOwner() {... */\n    tag_55:\n      callvalue\n      dup1\n      iszero\n      tag_301\n      jumpi\n      0x00\n      dup1\n      revert\n    tag_301:\n      pop\n      tag_95\n      tag_303\n      calldatasize\n      0x04\n      tag_129\n      jump\t// in\n    tag_303:\n      tag_304\n      jump\t// in\n        /* \"contracts/gainzilla.sol\":3302:3500  function transferOwnership(address newOwner) public virtual onlyOwner {... */\n    tag_56:\n      callvalue\n      dup1\n      iszero\n      tag_305\n      jumpi\n      0x00\n      dup1\n      revert\n    tag_305:\n      pop\n      tag_95\n      tag_307\n      calldatasize\n      0x04\n      tag_129\n      jump\t// in\n    tag_307:\n      tag_308\n      jump\t// in\n        /* \"contracts/gainzilla.sol\":27017:27855  function setSellTaxes(uint256 marketingFee, uint256 liquidityFee, uint256 teamFee, uint256 ecosystemFee) external onlyOwner() {... */\n    tag_57:\n      callvalue\n      dup1\n      iszero\n      tag_309\n      jumpi\n      0x00\n      dup1\n      revert\n    tag_309:\n      pop\n      tag_95\n      tag_311\n      calldatasize\n      0x04\n      tag_299\n      jump\t// in\n    tag_311:\n      tag_312\n      jump\t// in\n        /* \"contracts/gainzilla.sol\":10943:10974  bool public tradingOpen = false */\n    tag_58:\n      callvalue\n      dup1\n      iszero\n      tag_313\n      jumpi\n      0x00\n      dup1\n      revert\n    tag_313:\n      pop\n      sload(0x28)\n      tag_88\n      swap1\n      0xff\n      and\n      dup2\n      jump\n        /* \"contracts/gainzilla.sol\":25442:25608  function addBot(address account) external onlyOwner() {... */\n    tag_59:\n      callvalue\n      dup1\n      iszero\n      tag_317\n      jumpi\n      0x00\n      dup1\n      revert\n    tag_317:\n      pop\n      tag_95\n      tag_319\n      calldatasize\n      0x04\n      tag_129\n      jump\t// in\n    tag_319:\n      tag_320\n      jump\t// in\n        /* \"contracts/gainzilla.sol\":13251:13411  function approve(address spender, uint256 amount) external override returns (bool) {... */\n    tag_91:\n        /* \"contracts/gainzilla.sol\":13328:13332  bool */\n      0x00\n        /* \"contracts/gainzilla.sol\":13344:13383  _approve(_msgSender(), spender, amount) */\n      tag_323\n        /* \"contracts/gainzilla.sol\":818:828  msg.sender */\n      caller\n        /* \"contracts/gainzilla.sol\":13367:13374  spender */\n      dup5\n        /* \"contracts/gainzilla.sol\":13376:13382  amount */\n      dup5\n        /* \"contracts/gainzilla.sol\":13344:13352  _approve */\n      tag_326\n        /* \"contracts/gainzilla.sol\":13344:13383  _approve(_msgSender(), spender, amount) */\n      jump\t// in\n    tag_323:\n      pop\n        /* \"contracts/gainzilla.sol\":13400:13404  true */\n      0x01\n        /* \"contracts/gainzilla.sol\":13251:13411  function approve(address spender, uint256 amount) external override returns (bool) {... */\n    tag_322:\n      swap3\n      swap2\n      pop\n      pop\n      jump\t// out\n        /* \"contracts/gainzilla.sol\":28253:28373  function updateTeamAddress(address payable teamAddress) external onlyOwner() {... */\n    tag_98:\n        /* \"contracts/gainzilla.sol\":3076:3082  _owner */\n      and(sub(shl(0xa0, 0x01), 0x01), sload(0x00))\n        /* \"contracts/gainzilla.sol\":818:828  msg.sender */\n      caller\n        /* \"contracts/gainzilla.sol\":3076:3098  _owner == _msgSender() */\n      eq\n        /* \"contracts/gainzilla.sol\":3068:3135  require(_owner == _msgSender(), \"Ownable: caller is not the owner\") */\n      tag_329\n      jumpi\n      mload(0x40)\n      shl(0xe5, 0x461bcd)\n      dup2\n      mstore\n        /* \"#utility.yul\":12252:12254   */\n      0x20\n        /* \"contracts/gainzilla.sol\":3068:3135  require(_owner == _msgSender(), \"Ownable: caller is not the owner\") */\n      0x04\n      dup3\n      add\n        /* \"#utility.yul\":12234:12255   */\n      dup2\n      swap1\n      mstore\n        /* \"#utility.yul\":12271:12289   */\n      0x24\n      dup3\n      add\n        /* \"#utility.yul\":12264:12294   */\n      mstore\n        /* \"#utility.yul\":12330:12364   */\n      0x4f776e61626c653a2063616c6c6572206973206e6f7420746865206f776e6572\n        /* \"#utility.yul\":12310:12328   */\n      0x44\n      dup3\n      add\n        /* \"#utility.yul\":12303:12365   */\n      mstore\n        /* \"#utility.yul\":12382:12400   */\n      0x64\n      add\n        /* \"contracts/gainzilla.sol\":3068:3135  require(_owner == _msgSender(), \"Ownable: caller is not the owner\") */\n    tag_330:\n      mload(0x40)\n      dup1\n      swap2\n      sub\n      swap1\n      revert\n    tag_329:\n        /* \"contracts/gainzilla.sol\":28340:28352  _teamAddress */\n      0x22\n        /* \"contracts/gainzilla.sol\":28340:28366  _teamAddress = teamAddress */\n      dup1\n      sload\n      0xffffffffffffffffffffffff0000000000000000000000000000000000000000\n      and\n      sub(shl(0xa0, 0x01), 0x01)\n      swap3\n      swap1\n      swap3\n      and\n      swap2\n      swap1\n      swap2\n      or\n      swap1\n      sstore\n        /* \"contracts/gainzilla.sol\":28253:28373  function updateTeamAddress(address payable teamAddress) external onlyOwner() {... */\n      jump\t// out\n        /* \"contracts/gainzilla.sol\":28103:28243  function updateMarketingAddress(address payable marketingAddress) external onlyOwner() {... */\n    tag_106:\n        /* \"contracts/gainzilla.sol\":3076:3082  _owner */\n      and(sub(shl(0xa0, 0x01), 0x01), sload(0x00))\n        /* \"contracts/gainzilla.sol\":818:828  msg.sender */\n      caller\n        /* \"contracts/gainzilla.sol\":3076:3098  _owner == _msgSender() */\n      eq\n        /* \"contracts/gainzilla.sol\":3068:3135  require(_owner == _msgSender(), \"Ownable: caller is not the owner\") */\n      tag_336\n      jumpi\n      mload(0x40)\n      shl(0xe5, 0x461bcd)\n      dup2\n      mstore\n        /* \"#utility.yul\":12252:12254   */\n      0x20\n        /* \"contracts/gainzilla.sol\":3068:3135  require(_owner == _msgSender(), \"Ownable: caller is not the owner\") */\n      0x04\n      dup3\n      add\n        /* \"#utility.yul\":12234:12255   */\n      dup2\n      swap1\n      mstore\n        /* \"#utility.yul\":12271:12289   */\n      0x24\n      dup3\n      add\n        /* \"#utility.yul\":12264:12294   */\n      mstore\n        /* \"#utility.yul\":12330:12364   */\n      0x4f776e61626c653a2063616c6c6572206973206e6f7420746865206f776e6572\n        /* \"#utility.yul\":12310:12328   */\n      0x44\n      dup3\n      add\n        /* \"#utility.yul\":12303:12365   */\n      mstore\n        /* \"#utility.yul\":12382:12400   */\n      0x64\n      add\n        /* \"contracts/gainzilla.sol\":3068:3135  require(_owner == _msgSender(), \"Ownable: caller is not the owner\") */\n      tag_330\n        /* \"#utility.yul\":12224:12406   */\n      jump\n        /* \"contracts/gainzilla.sol\":3068:3135  require(_owner == _msgSender(), \"Ownable: caller is not the owner\") */\n    tag_336:\n        /* \"contracts/gainzilla.sol\":28200:28217  _marketingAddress */\n      0x21\n        /* \"contracts/gainzilla.sol\":28200:28236  _marketingAddress = marketingAddress */\n      dup1\n      sload\n      0xffffffffffffffffffffffff0000000000000000000000000000000000000000\n      and\n      sub(shl(0xa0, 0x01), 0x01)\n      swap3\n      swap1\n      swap3\n      and\n      swap2\n      swap1\n      swap2\n      or\n      swap1\n      sstore\n        /* \"contracts/gainzilla.sol\":28103:28243  function updateMarketingAddress(address payable marketingAddress) external onlyOwner() {... */\n      jump\t// out\n        /* \"contracts/gainzilla.sol\":13417:13725  function transferFrom(address sender, address recipient, uint256 amount) external override returns (bool) {... */\n    tag_111:\n        /* \"contracts/gainzilla.sol\":13517:13521  bool */\n      0x00\n        /* \"contracts/gainzilla.sol\":13533:13569  _transfer(sender, recipient, amount) */\n      tag_340\n        /* \"contracts/gainzilla.sol\":13543:13549  sender */\n      dup5\n        /* \"contracts/gainzilla.sol\":13551:13560  recipient */\n      dup5\n        /* \"contracts/gainzilla.sol\":13562:13568  amount */\n      dup5\n        /* \"contracts/gainzilla.sol\":13533:13542  _transfer */\n      tag_341\n        /* \"contracts/gainzilla.sol\":13533:13569  _transfer(sender, recipient, amount) */\n      jump\t// in\n    tag_340:\n        /* \"contracts/gainzilla.sol\":13579:13697  _approve(sender,_msgSender(),_allowances[sender][_msgSender()].sub(amount,\"ERC20: transfer amount exceeds allowance\")) */\n      tag_342\n        /* \"contracts/gainzilla.sol\":13588:13594  sender */\n      dup5\n        /* \"contracts/gainzilla.sol\":818:828  msg.sender */\n      caller\n        /* \"contracts/gainzilla.sol\":13608:13696  _allowances[sender][_msgSender()].sub(amount,\"ERC20: transfer amount exceeds allowance\") */\n      tag_344\n        /* \"contracts/gainzilla.sol\":13646:13652  amount */\n      dup6\n        /* \"contracts/gainzilla.sol\":13608:13696  _allowances[sender][_msgSender()].sub(amount,\"ERC20: transfer amount exceeds allowance\") */\n      mload(0x40)\n      dup1\n      0x60\n      add\n      0x40\n      mstore\n      dup1\n      0x28\n      dup2\n      mstore\n      0x20\n      add\n      data_974d1b4421da69cc60b481194f0dad36a5bb4e23da810da7a7fb30cdba178330\n      0x28\n      swap2\n      codecopy\n      sub(shl(0xa0, 0x01), 0x01)\n        /* \"contracts/gainzilla.sol\":13608:13627  _allowances[sender] */\n      dup11\n      and\n      0x00\n      swap1\n      dup2\n      mstore\n        /* \"contracts/gainzilla.sol\":13608:13619  _allowances */\n      0x03\n        /* \"contracts/gainzilla.sol\":13608:13627  _allowances[sender] */\n      0x20\n      swap1\n      dup2\n      mstore\n      0x40\n      dup1\n      dup4\n      keccak256\n        /* \"contracts/gainzilla.sol\":818:828  msg.sender */\n      caller\n        /* \"contracts/gainzilla.sol\":13608:13641  _allowances[sender][_msgSender()] */\n      dup5\n      mstore\n      swap1\n      swap2\n      mstore\n      swap1\n      keccak256\n      sload\n      swap2\n      swap1\n        /* \"contracts/gainzilla.sol\":13608:13645  _allowances[sender][_msgSender()].sub */\n      tag_346\n        /* \"contracts/gainzilla.sol\":13608:13696  _allowances[sender][_msgSender()].sub(amount,\"ERC20: transfer amount exceeds allowance\") */\n      jump\t// in\n    tag_344:\n        /* \"contracts/gainzilla.sol\":13579:13587  _approve */\n      tag_326\n        /* \"contracts/gainzilla.sol\":13579:13697  _approve(sender,_msgSender(),_allowances[sender][_msgSender()].sub(amount,\"ERC20: transfer amount exceeds allowance\")) */\n      jump\t// in\n    tag_342:\n      pop\n        /* \"contracts/gainzilla.sol\":13714:13718  true */\n      0x01\n        /* \"contracts/gainzilla.sol\":13417:13725  function transferFrom(address sender, address recipient, uint256 amount) external override returns (bool) {... */\n      swap4\n      swap3\n      pop\n      pop\n      pop\n      jump\t// out\n        /* \"contracts/gainzilla.sol\":25859:26182  function setMaxWalletAmount(uint256 maxWalletAmount) external onlyOwner() {... */\n    tag_121:\n        /* \"contracts/gainzilla.sol\":3076:3082  _owner */\n      and(sub(shl(0xa0, 0x01), 0x01), sload(0x00))\n        /* \"contracts/gainzilla.sol\":818:828  msg.sender */\n      caller\n        /* \"contracts/gainzilla.sol\":3076:3098  _owner == _msgSender() */\n      eq\n        /* \"contracts/gainzilla.sol\":3068:3135  require(_owner == _msgSender(), \"Ownable: caller is not the owner\") */\n      tag_349\n      jumpi\n      mload(0x40)\n      shl(0xe5, 0x461bcd)\n      dup2\n      mstore\n        /* \"#utility.yul\":12252:12254   */\n      0x20\n        /* \"contracts/gainzilla.sol\":3068:3135  require(_owner == _msgSender(), \"Ownable: caller is not the owner\") */\n      0x04\n      dup3\n      add\n        /* \"#utility.yul\":12234:12255   */\n      dup2\n      swap1\n      mstore\n        /* \"#utility.yul\":12271:12289   */\n      0x24\n      dup3\n      add\n        /* \"#utility.yul\":12264:12294   */\n      mstore\n        /* \"#utility.yul\":12330:12364   */\n      0x4f776e61626c653a2063616c6c6572206973206e6f7420746865206f776e6572\n        /* \"#utility.yul\":12310:12328   */\n      0x44\n      dup3\n      add\n        /* \"#utility.yul\":12303:12365   */\n      mstore\n        /* \"#utility.yul\":12382:12400   */\n      0x64\n      add\n        /* \"contracts/gainzilla.sol\":3068:3135  require(_owner == _msgSender(), \"Ownable: caller is not the owner\") */\n      tag_330\n        /* \"#utility.yul\":12224:12406   */\n      jump\n        /* \"contracts/gainzilla.sol\":3068:3135  require(_owner == _msgSender(), \"Ownable: caller is not the owner\") */\n    tag_349:\n        /* \"contracts/gainzilla.sol\":25970:25987  _tTotal.div(1000) */\n      tag_352\n        /* \"contracts/gainzilla.sol\":8641:8659  1000000000 * 10**9 */\n      0x0de0b6b3a7640000\n        /* \"contracts/gainzilla.sol\":25982:25986  1000 */\n      0x03e8\n        /* \"contracts/gainzilla.sol\":25970:25981  _tTotal.div */\n      tag_353\n        /* \"contracts/gainzilla.sol\":25970:25987  _tTotal.div(1000) */\n      jump\t// in\n    tag_352:\n        /* \"contracts/gainzilla.sol\":25951:25966  maxWalletAmount */\n      dup2\n        /* \"contracts/gainzilla.sol\":25951:25987  maxWalletAmount >= _tTotal.div(1000) */\n      lt\n      iszero\n        /* \"contracts/gainzilla.sol\":25943:26034  require(maxWalletAmount >= _tTotal.div(1000), \"Amount must be greater than 0.1% of supply\") */\n      tag_354\n      jumpi\n      mload(0x40)\n      shl(0xe5, 0x461bcd)\n      dup2\n      mstore\n        /* \"#utility.yul\":11439:11441   */\n      0x20\n        /* \"contracts/gainzilla.sol\":25943:26034  require(maxWalletAmount >= _tTotal.div(1000), \"Amount must be greater than 0.1% of supply\") */\n      0x04\n      dup3\n      add\n        /* \"#utility.yul\":11421:11442   */\n      mstore\n        /* \"#utility.yul\":11478:11480   */\n      0x2a\n        /* \"#utility.yul\":11458:11476   */\n      0x24\n      dup3\n      add\n        /* \"#utility.yul\":11451:11481   */\n      mstore\n        /* \"#utility.yul\":11517:11551   */\n      0x416d6f756e74206d7573742062652067726561746572207468616e20302e3125\n        /* \"#utility.yul\":11497:11515   */\n      0x44\n      dup3\n      add\n        /* \"#utility.yul\":11490:11552   */\n      mstore\n        /* \"#utility.yul\":11588:11600   */\n      0x206f6620737570706c7900000000000000000000000000000000000000000000\n        /* \"#utility.yul\":11568:11586   */\n      0x64\n      dup3\n      add\n        /* \"#utility.yul\":11561:11601   */\n      mstore\n        /* \"#utility.yul\":11618:11637   */\n      0x84\n      add\n        /* \"contracts/gainzilla.sol\":25943:26034  require(maxWalletAmount >= _tTotal.div(1000), \"Amount must be greater than 0.1% of supply\") */\n      tag_330\n        /* \"#utility.yul\":11411:11643   */\n      jump\n        /* \"contracts/gainzilla.sol\":25943:26034  require(maxWalletAmount >= _tTotal.div(1000), \"Amount must be greater than 0.1% of supply\") */\n    tag_354:\n        /* \"contracts/gainzilla.sol\":8641:8659  1000000000 * 10**9 */\n      0x0de0b6b3a7640000\n        /* \"contracts/gainzilla.sol\":26052:26067  maxWalletAmount */\n      dup2\n        /* \"contracts/gainzilla.sol\":26052:26078  maxWalletAmount <= _tTotal */\n      gt\n      iszero\n        /* \"contracts/gainzilla.sol\":26044:26131  require(maxWalletAmount <= _tTotal, \"Amount must be less than or equal to totalSupply\") */\n      tag_357\n      jumpi\n      mload(0x40)\n      shl(0xe5, 0x461bcd)\n      dup2\n      mstore\n        /* \"#utility.yul\":13023:13025   */\n      0x20\n        /* \"contracts/gainzilla.sol\":26044:26131  require(maxWalletAmount <= _tTotal, \"Amount must be less than or equal to totalSupply\") */\n      0x04\n      dup3\n      add\n        /* \"#utility.yul\":13005:13026   */\n      mstore\n        /* \"#utility.yul\":13062:13064   */\n      0x30\n        /* \"#utility.yul\":13042:13060   */\n      0x24\n      dup3\n      add\n        /* \"#utility.yul\":13035:13065   */\n      mstore\n        /* \"#utility.yul\":13101:13135   */\n      0x416d6f756e74206d757374206265206c657373207468616e206f722065717561\n        /* \"#utility.yul\":13081:13099   */\n      0x44\n      dup3\n      add\n        /* \"#utility.yul\":13074:13136   */\n      mstore\n        /* \"#utility.yul\":13172:13190   */\n      0x6c20746f20746f74616c537570706c7900000000000000000000000000000000\n        /* \"#utility.yul\":13152:13170   */\n      0x64\n      dup3\n      add\n        /* \"#utility.yul\":13145:13191   */\n      mstore\n        /* \"#utility.yul\":13208:13227   */\n      0x84\n      add\n        /* \"contracts/gainzilla.sol\":26044:26131  require(maxWalletAmount <= _tTotal, \"Amount must be less than or equal to totalSupply\") */\n      tag_330\n        /* \"#utility.yul\":12995:13233   */\n      jump\n        /* \"contracts/gainzilla.sol\":26044:26131  require(maxWalletAmount <= _tTotal, \"Amount must be less than or equal to totalSupply\") */\n    tag_357:\n        /* \"contracts/gainzilla.sol\":26141:26157  _maxWalletAmount */\n      0x07\n        /* \"contracts/gainzilla.sol\":26141:26175  _maxWalletAmount = maxWalletAmount */\n      sstore\n        /* \"contracts/gainzilla.sol\":25859:26182  function setMaxWalletAmount(uint256 maxWalletAmount) external onlyOwner() {... */\n      jump\t// out\n        /* \"contracts/gainzilla.sol\":22766:22948  function manualSendToken(address token) external onlyOwner() {... */\n    tag_130:\n        /* \"contracts/gainzilla.sol\":3076:3082  _owner */\n      and(sub(shl(0xa0, 0x01), 0x01), sload(0x00))\n        /* \"contracts/gainzilla.sol\":818:828  msg.sender */\n      caller\n        /* \"contracts/gainzilla.sol\":3076:3098  _owner == _msgSender() */\n      eq\n        /* \"contracts/gainzilla.sol\":3068:3135  require(_owner == _msgSender(), \"Ownable: caller is not the owner\") */\n      tag_362\n      jumpi\n      mload(0x40)\n      shl(0xe5, 0x461bcd)\n      dup2\n      mstore\n        /* \"#utility.yul\":12252:12254   */\n      0x20\n        /* \"contracts/gainzilla.sol\":3068:3135  require(_owner == _msgSender(), \"Ownable: caller is not the owner\") */\n      0x04\n      dup3\n      add\n        /* \"#utility.yul\":12234:12255   */\n      dup2\n      swap1\n      mstore\n        /* \"#utility.yul\":12271:12289   */\n      0x24\n      dup3\n      add\n        /* \"#utility.yul\":12264:12294   */\n      mstore\n        /* \"#utility.yul\":12330:12364   */\n      0x4f776e61626c653a2063616c6c6572206973206e6f7420746865206f776e6572\n        /* \"#utility.yul\":12310:12328   */\n      0x44\n      dup3\n      add\n        /* \"#utility.yul\":12303:12365   */\n      mstore\n        /* \"#utility.yul\":12382:12400   */\n      0x64\n      add\n        /* \"contracts/gainzilla.sol\":3068:3135  require(_owner == _msgSender(), \"Ownable: caller is not the owner\") */\n      tag_330\n        /* \"#utility.yul\":12224:12406   */\n      jump\n        /* \"contracts/gainzilla.sol\":3068:3135  require(_owner == _msgSender(), \"Ownable: caller is not the owner\") */\n    tag_362:\n        /* \"contracts/gainzilla.sol\":22854:22892  IERC20(token).balanceOf(address(this)) */\n      mload(0x40)\n      0x70a0823100000000000000000000000000000000000000000000000000000000\n      dup2\n      mstore\n        /* \"contracts/gainzilla.sol\":22886:22890  this */\n      address\n        /* \"contracts/gainzilla.sol\":22854:22892  IERC20(token).balanceOf(address(this)) */\n      0x04\n      dup3\n      add\n        /* \"#utility.yul\":4559:4633   */\n      mstore\n        /* \"contracts/gainzilla.sol\":22837:22851  uint256 amount */\n      0x00\n      swap1\n      sub(shl(0xa0, 0x01), 0x01)\n        /* \"contracts/gainzilla.sol\":22854:22877  IERC20(token).balanceOf */\n      dup4\n      and\n      swap1\n      0x70a08231\n      swap1\n        /* \"#utility.yul\":4532:4550   */\n      0x24\n      add\n        /* \"contracts/gainzilla.sol\":22854:22892  IERC20(token).balanceOf(address(this)) */\n      0x20\n      mload(0x40)\n      dup1\n      dup4\n      sub\n      dup2\n      dup7\n      dup1\n      extcodesize\n      iszero\n      dup1\n      iszero\n      tag_366\n      jumpi\n      0x00\n      dup1\n      revert\n    tag_366:\n      pop\n      gas\n      staticcall\n      iszero\n      dup1\n      iszero\n      tag_368\n      jumpi\n      returndatasize\n      0x00\n      dup1\n      returndatacopy\n      revert(0x00, returndatasize)\n    tag_368:\n      pop\n      pop\n      pop\n      pop\n      mload(0x40)\n      returndatasize\n      not(0x1f)\n      0x1f\n      dup3\n      add\n      and\n      dup3\n      add\n      dup1\n      0x40\n      mstore\n      pop\n      dup2\n      add\n      swap1\n      tag_369\n      swap2\n      swap1\n      tag_370\n      jump\t// in\n    tag_369:\n        /* \"contracts/gainzilla.sol\":22837:22892  uint256 amount = IERC20(token).balanceOf(address(this)) */\n      swap1\n      pop\n        /* \"contracts/gainzilla.sol\":22909:22914  token */\n      dup2\n      sub(shl(0xa0, 0x01), 0x01)\n        /* \"contracts/gainzilla.sol\":22902:22924  IERC20(token).transfer */\n      and\n      0xa9059cbb\n        /* \"contracts/gainzilla.sol\":22925:22932  owner() */\n      tag_371\n        /* \"contracts/gainzilla.sol\":2992:2999  address */\n      0x00\n        /* \"contracts/gainzilla.sol\":3018:3024  _owner */\n      sload\n      sub(shl(0xa0, 0x01), 0x01)\n      and\n      swap1\n        /* \"contracts/gainzilla.sol\":2954:3031  function owner() public view returns (address) {... */\n      jump\n        /* \"contracts/gainzilla.sol\":22925:22932  owner() */\n    tag_371:\n        /* \"contracts/gainzilla.sol\":22902:22941  IERC20(token).transfer(owner(), amount) */\n      mload(0x40)\n      0xffffffff00000000000000000000000000000000000000000000000000000000\n      0xe0\n      dup5\n      swap1\n      shl\n      and\n      dup2\n      mstore\n      sub(shl(0xa0, 0x01), 0x01)\n        /* \"#utility.yul\":4836:4891   */\n      swap1\n      swap2\n      and\n        /* \"contracts/gainzilla.sol\":22902:22941  IERC20(token).transfer(owner(), amount) */\n      0x04\n      dup3\n      add\n        /* \"#utility.yul\":4818:4892   */\n      mstore\n        /* \"#utility.yul\":4908:4926   */\n      0x24\n      dup2\n      add\n        /* \"#utility.yul\":4901:4935   */\n      dup5\n      swap1\n      mstore\n        /* \"#utility.yul\":4791:4809   */\n      0x44\n      add\n        /* \"contracts/gainzilla.sol\":22902:22941  IERC20(token).transfer(owner(), amount) */\n      0x20\n      mload(0x40)\n      dup1\n      dup4\n      sub\n      dup2\n      0x00\n      dup8\n      dup1\n      extcodesize\n      iszero\n      dup1\n      iszero\n      tag_374\n      jumpi\n      0x00\n      dup1\n      revert\n    tag_374:\n      pop\n      gas\n      call\n      iszero\n      dup1\n      iszero\n      tag_376\n      jumpi\n      returndatasize\n      0x00\n      dup1\n      returndatacopy\n      revert(0x00, returndatasize)\n    tag_376:\n      pop\n      pop\n      pop\n      pop\n      mload(0x40)\n      returndatasize\n      not(0x1f)\n      0x1f\n      dup3\n      add\n      and\n      dup3\n      add\n      dup1\n      0x40\n      mstore\n      pop\n      dup2\n      add\n      swap1\n      tag_377\n      swap2\n      swap1\n      tag_378\n      jump\t// in\n    tag_377:\n      pop\n        /* \"contracts/gainzilla.sol\":3145:3146  _ */\n      pop\n        /* \"contracts/gainzilla.sol\":22766:22948  function manualSendToken(address token) external onlyOwner() {... */\n      pop\n      jump\t// out\n        /* \"contracts/gainzilla.sol\":22087:22229  function disableToken() external onlyOwner() {... */\n    tag_155:\n        /* \"contracts/gainzilla.sol\":3076:3082  _owner */\n      and(sub(shl(0xa0, 0x01), 0x01), sload(0x00))\n        /* \"contracts/gainzilla.sol\":818:828  msg.sender */\n      caller\n        /* \"contracts/gainzilla.sol\":3076:3098  _owner == _msgSender() */\n      eq\n        /* \"contracts/gainzilla.sol\":3068:3135  require(_owner == _msgSender(), \"Ownable: caller is not the owner\") */\n      tag_383\n      jumpi\n      mload(0x40)\n      shl(0xe5, 0x461bcd)\n      dup2\n      mstore\n        /* \"#utility.yul\":12252:12254   */\n      0x20\n        /* \"contracts/gainzilla.sol\":3068:3135  require(_owner == _msgSender(), \"Ownable: caller is not the owner\") */\n      0x04\n      dup3\n      add\n        /* \"#utility.yul\":12234:12255   */\n      dup2\n      swap1\n      mstore\n        /* \"#utility.yul\":12271:12289   */\n      0x24\n      dup3\n      add\n        /* \"#utility.yul\":12264:12294   */\n      mstore\n        /* \"#utility.yul\":12330:12364   */\n      0x4f776e61626c653a2063616c6c6572206973206e6f7420746865206f776e6572\n        /* \"#utility.yul\":12310:12328   */\n      0x44\n      dup3\n      add\n        /* \"#utility.yul\":12303:12365   */\n      mstore\n        /* \"#utility.yul\":12382:12400   */\n      0x64\n      add\n        /* \"contracts/gainzilla.sol\":3068:3135  require(_owner == _msgSender(), \"Ownable: caller is not the owner\") */\n      tag_330\n        /* \"#utility.yul\":12224:12406   */\n      jump\n        /* \"contracts/gainzilla.sol\":3068:3135  require(_owner == _msgSender(), \"Ownable: caller is not the owner\") */\n    tag_383:\n        /* \"contracts/gainzilla.sol\":22150:22158  canPause */\n      sload(0x28)\n      0x010000\n      swap1\n      div\n      0xff\n      and\n        /* \"contracts/gainzilla.sol\":22142:22193  require(canPause, \"this contract cannot be paused\") */\n      tag_386\n      jumpi\n      mload(0x40)\n      shl(0xe5, 0x461bcd)\n      dup2\n      mstore\n        /* \"#utility.yul\":7607:7609   */\n      0x20\n        /* \"contracts/gainzilla.sol\":22142:22193  require(canPause, \"this contract cannot be paused\") */\n      0x04\n      dup3\n      add\n        /* \"#utility.yul\":7589:7610   */\n      mstore\n        /* \"#utility.yul\":7646:7648   */\n      0x1e\n        /* \"#utility.yul\":7626:7644   */\n      0x24\n      dup3\n      add\n        /* \"#utility.yul\":7619:7649   */\n      mstore\n        /* \"#utility.yul\":7685:7717   */\n      0x7468697320636f6e74726163742063616e6e6f74206265207061757365640000\n        /* \"#utility.yul\":7665:7683   */\n      0x44\n      dup3\n      add\n        /* \"#utility.yul\":7658:7718   */\n      mstore\n        /* \"#utility.yul\":7735:7753   */\n      0x64\n      add\n        /* \"contracts/gainzilla.sol\":22142:22193  require(canPause, \"this contract cannot be paused\") */\n      tag_330\n        /* \"#utility.yul\":7579:7759   */\n      jump\n        /* \"contracts/gainzilla.sol\":22142:22193  require(canPause, \"this contract cannot be paused\") */\n    tag_386:\n        /* \"contracts/gainzilla.sol\":22203:22214  tradingOpen */\n      0x28\n        /* \"contracts/gainzilla.sol\":22203:22222  tradingOpen = false */\n      dup1\n      sload\n      not(0xff)\n      and\n      swap1\n      sstore\n        /* \"contracts/gainzilla.sol\":22087:22229  function disableToken() external onlyOwner() {... */\n      jump\t// out\n        /* \"contracts/gainzilla.sol\":25102:25213  function excludeFromFee(address account) public onlyOwner() {... */\n    tag_159:\n        /* \"contracts/gainzilla.sol\":3076:3082  _owner */\n      and(sub(shl(0xa0, 0x01), 0x01), sload(0x00))\n        /* \"contracts/gainzilla.sol\":818:828  msg.sender */\n      caller\n        /* \"contracts/gainzilla.sol\":3076:3098  _owner == _msgSender() */\n      eq\n        /* \"contracts/gainzilla.sol\":3068:3135  require(_owner == _msgSender(), \"Ownable: caller is not the owner\") */\n      tag_391\n      jumpi\n      mload(0x40)\n      shl(0xe5, 0x461bcd)\n      dup2\n      mstore\n        /* \"#utility.yul\":12252:12254   */\n      0x20\n        /* \"contracts/gainzilla.sol\":3068:3135  require(_owner == _msgSender(), \"Ownable: caller is not the owner\") */\n      0x04\n      dup3\n      add\n        /* \"#utility.yul\":12234:12255   */\n      dup2\n      swap1\n      mstore\n        /* \"#utility.yul\":12271:12289   */\n      0x24\n      dup3\n      add\n        /* \"#utility.yul\":12264:12294   */\n      mstore\n        /* \"#utility.yul\":12330:12364   */\n      0x4f776e61626c653a2063616c6c6572206973206e6f7420746865206f776e6572\n        /* \"#utility.yul\":12310:12328   */\n      0x44\n      dup3\n      add\n        /* \"#utility.yul\":12303:12365   */\n      mstore\n        /* \"#utility.yul\":12382:12400   */\n      0x64\n      add\n        /* \"contracts/gainzilla.sol\":3068:3135  require(_owner == _msgSender(), \"Ownable: caller is not the owner\") */\n      tag_330\n        /* \"#utility.yul\":12224:12406   */\n      jump\n        /* \"contracts/gainzilla.sol\":3068:3135  require(_owner == _msgSender(), \"Ownable: caller is not the owner\") */\n    tag_391:\n      sub(shl(0xa0, 0x01), 0x01)\n        /* \"contracts/gainzilla.sol\":25172:25199  _isExcludedFromFee[account] */\n      and\n      0x00\n      swap1\n      dup2\n      mstore\n        /* \"contracts/gainzilla.sol\":25172:25190  _isExcludedFromFee */\n      0x04\n        /* \"contracts/gainzilla.sol\":25172:25199  _isExcludedFromFee[account] */\n      0x20\n      mstore\n      0x40\n      swap1\n      keccak256\n        /* \"contracts/gainzilla.sol\":25172:25206  _isExcludedFromFee[account] = true */\n      dup1\n      sload\n      not(0xff)\n      and\n        /* \"contracts/gainzilla.sol\":25202:25206  true */\n      0x01\n        /* \"contracts/gainzilla.sol\":25172:25206  _isExcludedFromFee[account] = true */\n      or\n      swap1\n      sstore\n        /* \"contracts/gainzilla.sol\":25102:25213  function excludeFromFee(address account) public onlyOwner() {... */\n      jump\t// out\n        /* \"contracts/gainzilla.sol\":25341:25436  function removeBot(address account) external onlyOwner() {... */\n    tag_168:\n        /* \"contracts/gainzilla.sol\":3076:3082  _owner */\n      and(sub(shl(0xa0, 0x01), 0x01), sload(0x00))\n        /* \"contracts/gainzilla.sol\":818:828  msg.sender */\n      caller\n        /* \"contracts/gainzilla.sol\":3076:3098  _owner == _msgSender() */\n      eq\n        /* \"contracts/gainzilla.sol\":3068:3135  require(_owner == _msgSender(), \"Ownable: caller is not the owner\") */\n      tag_396\n      jumpi\n      mload(0x40)\n      shl(0xe5, 0x461bcd)\n      dup2\n      mstore\n        /* \"#utility.yul\":12252:12254   */\n      0x20\n        /* \"contracts/gainzilla.sol\":3068:3135  require(_owner == _msgSender(), \"Ownable: caller is not the owner\") */\n      0x04\n      dup3\n      add\n        /* \"#utility.yul\":12234:12255   */\n      dup2\n      swap1\n      mstore\n        /* \"#utility.yul\":12271:12289   */\n      0x24\n      dup3\n      add\n        /* \"#utility.yul\":12264:12294   */\n      mstore\n        /* \"#utility.yul\":12330:12364   */\n      0x4f776e61626c653a2063616c6c6572206973206e6f7420746865206f776e6572\n        /* \"#utility.yul\":12310:12328   */\n      0x44\n      dup3\n      add\n        /* \"#utility.yul\":12303:12365   */\n      mstore\n        /* \"#utility.yul\":12382:12400   */\n      0x64\n      add\n        /* \"contracts/gainzilla.sol\":3068:3135  require(_owner == _msgSender(), \"Ownable: caller is not the owner\") */\n      tag_330\n        /* \"#utility.yul\":12224:12406   */\n      jump\n        /* \"contracts/gainzilla.sol\":3068:3135  require(_owner == _msgSender(), \"Ownable: caller is not the owner\") */\n    tag_396:\n      sub(shl(0xa0, 0x01), 0x01)\n        /* \"contracts/gainzilla.sol\":25408:25421  bots[account] */\n      and\n        /* \"contracts/gainzilla.sol\":25424:25429  false */\n      0x00\n        /* \"contracts/gainzilla.sol\":25408:25421  bots[account] */\n      swap1\n      dup2\n      mstore\n        /* \"contracts/gainzilla.sol\":25408:25412  bots */\n      0x20\n        /* \"contracts/gainzilla.sol\":25408:25421  bots[account] */\n      dup1\n      mstore\n      0x40\n      swap1\n      keccak256\n        /* \"contracts/gainzilla.sol\":25408:25429  bots[account] = false */\n      dup1\n      sload\n      not(0xff)\n      and\n      swap1\n      sstore\n        /* \"contracts/gainzilla.sol\":25341:25436  function removeBot(address account) external onlyOwner() {... */\n      jump\t// out\n        /* \"contracts/gainzilla.sol\":22235:22320  function disablePauseAbility() onlyOwner() external {... */\n    tag_171:\n        /* \"contracts/gainzilla.sol\":3076:3082  _owner */\n      and(sub(shl(0xa0, 0x01), 0x01), sload(0x00))\n        /* \"contracts/gainzilla.sol\":818:828  msg.sender */\n      caller\n        /* \"contracts/gainzilla.sol\":3076:3098  _owner == _msgSender() */\n      eq\n        /* \"contracts/gainzilla.sol\":3068:3135  require(_owner == _msgSender(), \"Ownable: caller is not the owner\") */\n      tag_401\n      jumpi\n      mload(0x40)\n      shl(0xe5, 0x461bcd)\n      dup2\n      mstore\n        /* \"#utility.yul\":12252:12254   */\n      0x20\n        /* \"contracts/gainzilla.sol\":3068:3135  require(_owner == _msgSender(), \"Ownable: caller is not the owner\") */\n      0x04\n      dup3\n      add\n        /* \"#utility.yul\":12234:12255   */\n      dup2\n      swap1\n      mstore\n        /* \"#utility.yul\":12271:12289   */\n      0x24\n      dup3\n      add\n        /* \"#utility.yul\":12264:12294   */\n      mstore\n        /* \"#utility.yul\":12330:12364   */\n      0x4f776e61626c653a2063616c6c6572206973206e6f7420746865206f776e6572\n        /* \"#utility.yul\":12310:12328   */\n      0x44\n      dup3\n      add\n        /* \"#utility.yul\":12303:12365   */\n      mstore\n        /* \"#utility.yul\":12382:12400   */\n      0x64\n      add\n        /* \"contracts/gainzilla.sol\":3068:3135  require(_owner == _msgSender(), \"Ownable: caller is not the owner\") */\n      tag_330\n        /* \"#utility.yul\":12224:12406   */\n      jump\n        /* \"contracts/gainzilla.sol\":3068:3135  require(_owner == _msgSender(), \"Ownable: caller is not the owner\") */\n    tag_401:\n        /* \"contracts/gainzilla.sol\":22297:22305  canPause */\n      0x28\n        /* \"contracts/gainzilla.sol\":22297:22313  canPause = false */\n      dup1\n      sload\n      0xffffffffffffffffffffffffffffffffffffffffffffffffffffffffff00ffff\n      and\n      swap1\n      sstore\n        /* \"contracts/gainzilla.sol\":22235:22320  function disablePauseAbility() onlyOwner() external {... */\n      jump\t// out\n        /* \"contracts/gainzilla.sol\":22534:22760  function manualsend() external onlyOwner() {... */\n    tag_178:\n        /* \"contracts/gainzilla.sol\":3076:3082  _owner */\n      and(sub(shl(0xa0, 0x01), 0x01), sload(0x00))\n        /* \"contracts/gainzilla.sol\":818:828  msg.sender */\n      caller\n        /* \"contracts/gainzilla.sol\":3076:3098  _owner == _msgSender() */\n      eq\n        /* \"contracts/gainzilla.sol\":3068:3135  require(_owner == _msgSender(), \"Ownable: caller is not the owner\") */\n      tag_406\n      jumpi\n      mload(0x40)\n      shl(0xe5, 0x461bcd)\n      dup2\n      mstore\n        /* \"#utility.yul\":12252:12254   */\n      0x20\n        /* \"contracts/gainzilla.sol\":3068:3135  require(_owner == _msgSender(), \"Ownable: caller is not the owner\") */\n      0x04\n      dup3\n      add\n        /* \"#utility.yul\":12234:12255   */\n      dup2\n      swap1\n      mstore\n        /* \"#utility.yul\":12271:12289   */\n      0x24\n      dup3\n      add\n        /* \"#utility.yul\":12264:12294   */\n      mstore\n        /* \"#utility.yul\":12330:12364   */\n      0x4f776e61626c653a2063616c6c6572206973206e6f7420746865206f776e6572\n        /* \"#utility.yul\":12310:12328   */\n      0x44\n      dup3\n      add\n        /* \"#utility.yul\":12303:12365   */\n      mstore\n        /* \"#utility.yul\":12382:12400   */\n      0x64\n      add\n        /* \"contracts/gainzilla.sol\":3068:3135  require(_owner == _msgSender(), \"Ownable: caller is not the owner\") */\n      tag_330\n        /* \"#utility.yul\":12224:12406   */\n      jump\n        /* \"contracts/gainzilla.sol\":3068:3135  require(_owner == _msgSender(), \"Ownable: caller is not the owner\") */\n    tag_406:\n        /* \"contracts/gainzilla.sol\":22616:22637  address(this).balance */\n      selfbalance\n        /* \"contracts/gainzilla.sol\":22651:22673  contractETHBalance > 0 */\n      dup1\n      iszero\n        /* \"contracts/gainzilla.sol\":22647:22754  if (contractETHBalance > 0) {... */\n      tag_409\n      jumpi\n        /* \"contracts/gainzilla.sol\":2992:2999  address */\n      0x00\n        /* \"contracts/gainzilla.sol\":3018:3024  _owner */\n      dup1\n      sload\n        /* \"contracts/gainzilla.sol\":22689:22743  payable(address(owner())).transfer(contractETHBalance) */\n      mload(0x40)\n      sub(shl(0xa0, 0x01), 0x01)\n        /* \"contracts/gainzilla.sol\":3018:3024  _owner */\n      swap1\n      swap2\n      and\n      swap2\n        /* \"contracts/gainzilla.sol\":22689:22743  payable(address(owner())).transfer(contractETHBalance) */\n      dup4\n      iszero\n      0x08fc\n      mul\n      swap2\n        /* \"contracts/gainzilla.sol\":22724:22742  contractETHBalance */\n      dup5\n      swap2\n        /* \"contracts/gainzilla.sol\":22689:22743  payable(address(owner())).transfer(contractETHBalance) */\n      dup2\n        /* \"contracts/gainzilla.sol\":2992:2999  address */\n      dup2\n        /* \"contracts/gainzilla.sol\":22689:22743  payable(address(owner())).transfer(contractETHBalance) */\n      dup2\n        /* \"contracts/gainzilla.sol\":22724:22742  contractETHBalance */\n      dup6\n        /* \"contracts/gainzilla.sol\":3018:3024  _owner */\n      dup9\n        /* \"contracts/gainzilla.sol\":22689:22743  payable(address(owner())).transfer(contractETHBalance) */\n      dup9\n      call\n      swap4\n      pop\n      pop\n      pop\n      pop\n      iszero\n      dup1\n      iszero\n      tag_412\n      jumpi\n      returndatasize\n      0x00\n      dup1\n      returndatacopy\n      revert(0x00, returndatasize)\n    tag_412:\n      pop\n        /* \"contracts/gainzilla.sol\":22647:22754  if (contractETHBalance > 0) {... */\n    tag_409:\n        /* \"contracts/gainzilla.sol\":3145:3146  _ */\n      pop\n        /* \"contracts/gainzilla.sol\":22534:22760  function manualsend() external onlyOwner() {... */\n      jump\t// out\n        /* \"contracts/gainzilla.sol\":3851:3998  function renounceOwnership() public virtual onlyOwner() {... */\n    tag_186:\n        /* \"contracts/gainzilla.sol\":3076:3082  _owner */\n      and(sub(shl(0xa0, 0x01), 0x01), sload(0x00))\n        /* \"contracts/gainzilla.sol\":818:828  msg.sender */\n      caller\n        /* \"contracts/gainzilla.sol\":3076:3098  _owner == _msgSender() */\n      eq\n        /* \"contracts/gainzilla.sol\":3068:3135  require(_owner == _msgSender(), \"Ownable: caller is not the owner\") */\n      tag_416\n      jumpi\n      mload(0x40)\n      shl(0xe5, 0x461bcd)\n      dup2\n      mstore\n        /* \"#utility.yul\":12252:12254   */\n      0x20\n        /* \"contracts/gainzilla.sol\":3068:3135  require(_owner == _msgSender(), \"Ownable: caller is not the owner\") */\n      0x04\n      dup3\n      add\n        /* \"#utility.yul\":12234:12255   */\n      dup2\n      swap1\n      mstore\n        /* \"#utility.yul\":12271:12289   */\n      0x24\n      dup3\n      add\n        /* \"#utility.yul\":12264:12294   */\n      mstore\n        /* \"#utility.yul\":12330:12364   */\n      0x4f776e61626c653a2063616c6c6572206973206e6f7420746865206f776e6572\n        /* \"#utility.yul\":12310:12328   */\n      0x44\n      dup3\n      add\n        /* \"#utility.yul\":12303:12365   */\n      mstore\n        /* \"#utility.yul\":12382:12400   */\n      0x64\n      add\n        /* \"contracts/gainzilla.sol\":3068:3135  require(_owner == _msgSender(), \"Ownable: caller is not the owner\") */\n      tag_330\n        /* \"#utility.yul\":12224:12406   */\n      jump\n        /* \"contracts/gainzilla.sol\":3068:3135  require(_owner == _msgSender(), \"Ownable: caller is not the owner\") */\n    tag_416:\n        /* \"contracts/gainzilla.sol\":3959:3960  0 */\n      0x00\n        /* \"contracts/gainzilla.sol\":3943:3949  _owner */\n      dup1\n      sload\n        /* \"contracts/gainzilla.sol\":3922:3962  OwnershipTransferred(_owner, address(0)) */\n      mload(0x40)\n      sub(shl(0xa0, 0x01), 0x01)\n        /* \"contracts/gainzilla.sol\":3943:3949  _owner */\n      swap1\n      swap2\n      and\n      swap1\n        /* \"contracts/gainzilla.sol\":3922:3962  OwnershipTransferred(_owner, address(0)) */\n      0x8be0079c531659141344cd1fd0a4f28419497f9722a3daafe3b4186f6b6457e0\n      swap1\n        /* \"contracts/gainzilla.sol\":3959:3960  0 */\n      dup4\n      swap1\n        /* \"contracts/gainzilla.sol\":3922:3962  OwnershipTransferred(_owner, address(0)) */\n      log3\n        /* \"contracts/gainzilla.sol\":3989:3990  0 */\n      0x00\n        /* \"contracts/gainzilla.sol\":3972:3991  _owner = address(0) */\n      dup1\n      sload\n      0xffffffffffffffffffffffff0000000000000000000000000000000000000000\n      and\n      swap1\n      sstore\n        /* \"contracts/gainzilla.sol\":3851:3998  function renounceOwnership() public virtual onlyOwner() {... */\n      jump\t// out\n        /* \"contracts/gainzilla.sol\":28627:28800  function configureStrongHands(bool enabled, uint32 duration) external onlyOwner {... */\n    tag_191:\n        /* \"contracts/gainzilla.sol\":3076:3082  _owner */\n      and(sub(shl(0xa0, 0x01), 0x01), sload(0x00))\n        /* \"contracts/gainzilla.sol\":818:828  msg.sender */\n      caller\n        /* \"contracts/gainzilla.sol\":3076:3098  _owner == _msgSender() */\n      eq\n        /* \"contracts/gainzilla.sol\":3068:3135  require(_owner == _msgSender(), \"Ownable: caller is not the owner\") */\n      tag_421\n      jumpi\n      mload(0x40)\n      shl(0xe5, 0x461bcd)\n      dup2\n      mstore\n        /* \"#utility.yul\":12252:12254   */\n      0x20\n        /* \"contracts/gainzilla.sol\":3068:3135  require(_owner == _msgSender(), \"Ownable: caller is not the owner\") */\n      0x04\n      dup3\n      add\n        /* \"#utility.yul\":12234:12255   */\n      dup2\n      swap1\n      mstore\n        /* \"#utility.yul\":12271:12289   */\n      0x24\n      dup3\n      add\n        /* \"#utility.yul\":12264:12294   */\n      mstore\n        /* \"#utility.yul\":12330:12364   */\n      0x4f776e61626c653a2063616c6c6572206973206e6f7420746865206f776e6572\n        /* \"#utility.yul\":12310:12328   */\n      0x44\n      dup3\n      add\n        /* \"#utility.yul\":12303:12365   */\n      mstore\n        /* \"#utility.yul\":12382:12400   */\n      0x64\n      add\n        /* \"contracts/gainzilla.sol\":3068:3135  require(_owner == _msgSender(), \"Ownable: caller is not the owner\") */\n      tag_330\n        /* \"#utility.yul\":12224:12406   */\n      jump\n        /* \"contracts/gainzilla.sol\":3068:3135  require(_owner == _msgSender(), \"Ownable: caller is not the owner\") */\n    tag_421:\n        /* \"contracts/gainzilla.sol\":28717:28725  cooldown */\n      0x1a\n        /* \"contracts/gainzilla.sol\":28717:28743  cooldown.enabled = enabled */\n      dup1\n      sload\n      not(0xff)\n      and\n      dup4\n      iszero\n      iszero\n      or\n      swap1\n      sstore\n        /* \"contracts/gainzilla.sol\":28773:28793  duration * 1 minutes */\n      tag_424\n        /* \"contracts/gainzilla.sol\":28773:28781  duration */\n      dup2\n        /* \"contracts/gainzilla.sol\":28784:28793  1 minutes */\n      0x3c\n        /* \"contracts/gainzilla.sol\":28773:28793  duration * 1 minutes */\n      tag_425\n      jump\t// in\n    tag_424:\n        /* \"contracts/gainzilla.sol\":28753:28761  cooldown */\n      0x1a\n        /* \"contracts/gainzilla.sol\":28753:28793  cooldown.duration = duration * 1 minutes */\n      dup1\n      sload\n      0xffffffff\n      swap3\n      swap1\n      swap3\n      and\n      0x0100\n      mul\n      0xffffffffffffffffffffffffffffffffffffffffffffffffffffff00000000ff\n      swap1\n      swap3\n      and\n      swap2\n      swap1\n      swap2\n      or\n      swap1\n      sstore\n      pop\n      pop\n        /* \"contracts/gainzilla.sol\":28627:28800  function configureStrongHands(bool enabled, uint32 duration) external onlyOwner {... */\n      jump\t// out\n        /* \"contracts/gainzilla.sol\":29350:30038  function ATHvariance() public view returns (int256) {... */\n    tag_203:\n        /* \"contracts/gainzilla.sol\":29412:29433  diamondFloor.athPrice */\n      sload(0x1d)\n        /* \"contracts/gainzilla.sol\":29394:29400  int256 */\n      0x00\n      swap1\n        /* \"contracts/gainzilla.sol\":29408:29448  if (diamondFloor.athPrice == 0) return 0 */\n      tag_427\n      jumpi\n      pop\n        /* \"contracts/gainzilla.sol\":29447:29448  0 */\n      0x00\n      swap1\n        /* \"contracts/gainzilla.sol\":29350:30038  function ATHvariance() public view returns (int256) {... */\n      jump\t// out\n        /* \"contracts/gainzilla.sol\":29408:29448  if (diamondFloor.athPrice == 0) return 0 */\n    tag_427:\n        /* \"contracts/gainzilla.sol\":29454:29474  uint256 currentPrice */\n      0x00\n        /* \"contracts/gainzilla.sol\":29477:29488  pairPrice() */\n      tag_428\n        /* \"contracts/gainzilla.sol\":29477:29486  pairPrice */\n      tag_219\n        /* \"contracts/gainzilla.sol\":29477:29488  pairPrice() */\n      jump\t// in\n    tag_428:\n        /* \"contracts/gainzilla.sol\":29521:29542  diamondFloor.athPrice */\n      sload(0x1d)\n        /* \"contracts/gainzilla.sol\":29454:29488  uint256 currentPrice = pairPrice() */\n      swap1\n      swap2\n      pop\n        /* \"contracts/gainzilla.sol\":29506:29542  currentPrice > diamondFloor.athPrice */\n      dup2\n      gt\n        /* \"contracts/gainzilla.sol\":29506:30031  currentPrice > diamondFloor.athPrice ?... */\n      tag_429\n      jumpi\n        /* \"contracts/gainzilla.sol\":29999:30020  diamondFloor.athPrice */\n      sload(0x1d)\n        /* \"contracts/gainzilla.sol\":29860:30021  diamondFloor.athPrice.sub(currentPrice)... */\n      tag_430\n      swap1\n        /* \"contracts/gainzilla.sol\":29860:29923  diamondFloor.athPrice.sub(currentPrice)... */\n      tag_431\n        /* \"contracts/gainzilla.sol\":29917:29922  100e1 */\n      0x03e8\n        /* \"contracts/gainzilla.sol\":29860:29899  diamondFloor.athPrice.sub(currentPrice) */\n      tag_432\n        /* \"contracts/gainzilla.sol\":29999:30020  diamondFloor.athPrice */\n      dup4\n        /* \"contracts/gainzilla.sol\":29886:29898  currentPrice */\n      dup7\n        /* \"contracts/gainzilla.sol\":29860:29885  diamondFloor.athPrice.sub */\n      tag_433\n        /* \"contracts/gainzilla.sol\":29860:29899  diamondFloor.athPrice.sub(currentPrice) */\n      jump\t// in\n    tag_432:\n        /* \"contracts/gainzilla.sol\":29860:29916  diamondFloor.athPrice.sub(currentPrice)... */\n      swap1\n      tag_434\n        /* \"contracts/gainzilla.sol\":29860:29923  diamondFloor.athPrice.sub(currentPrice)... */\n      jump\t// in\n    tag_431:\n        /* \"contracts/gainzilla.sol\":29860:29998  diamondFloor.athPrice.sub(currentPrice)... */\n      swap1\n      tag_353\n        /* \"contracts/gainzilla.sol\":29860:30021  diamondFloor.athPrice.sub(currentPrice)... */\n      jump\t// in\n    tag_430:\n        /* \"contracts/gainzilla.sol\":29839:30031  -int256(... */\n      tag_435\n      swap1\n      tag_436\n      jump\t// in\n    tag_435:\n        /* \"contracts/gainzilla.sol\":29506:30031  currentPrice > diamondFloor.athPrice ?... */\n      jump(tag_438)\n    tag_429:\n        /* \"contracts/gainzilla.sol\":29754:29775  diamondFloor.athPrice */\n      sload(0x1d)\n        /* \"contracts/gainzilla.sol\":29615:29776  currentPrice.sub(diamondFloor.athPrice)... */\n      tag_438\n      swap1\n        /* \"contracts/gainzilla.sol\":29615:29678  currentPrice.sub(diamondFloor.athPrice)... */\n      tag_431\n        /* \"contracts/gainzilla.sol\":29672:29677  100e1 */\n      0x03e8\n        /* \"contracts/gainzilla.sol\":29615:29654  currentPrice.sub(diamondFloor.athPrice) */\n      tag_432\n        /* \"contracts/gainzilla.sol\":29615:29627  currentPrice */\n      dup6\n        /* \"contracts/gainzilla.sol\":29754:29775  diamondFloor.athPrice */\n      dup5\n        /* \"contracts/gainzilla.sol\":29615:29631  currentPrice.sub */\n      tag_433\n        /* \"contracts/gainzilla.sol\":29615:29654  currentPrice.sub(diamondFloor.athPrice) */\n      jump\t// in\n        /* \"contracts/gainzilla.sol\":29615:29776  currentPrice.sub(diamondFloor.athPrice)... */\n    tag_438:\n        /* \"contracts/gainzilla.sol\":29499:30031  return currentPrice > diamondFloor.athPrice ?... */\n      swap2\n      pop\n      pop\n        /* \"contracts/gainzilla.sol\":29350:30038  function ATHvariance() public view returns (int256) {... */\n      swap1\n      jump\t// out\n        /* \"contracts/gainzilla.sol\":22002:22081  function enableToken() external onlyOwner() {... */\n    tag_216:\n        /* \"contracts/gainzilla.sol\":3076:3082  _owner */\n      and(sub(shl(0xa0, 0x01), 0x01), sload(0x00))\n        /* \"contracts/gainzilla.sol\":818:828  msg.sender */\n      caller\n        /* \"contracts/gainzilla.sol\":3076:3098  _owner == _msgSender() */\n      eq\n        /* \"contracts/gainzilla.sol\":3068:3135  require(_owner == _msgSender(), \"Ownable: caller is not the owner\") */\n      tag_444\n      jumpi\n      mload(0x40)\n      shl(0xe5, 0x461bcd)\n      dup2\n      mstore\n        /* \"#utility.yul\":12252:12254   */\n      0x20\n        /* \"contracts/gainzilla.sol\":3068:3135  require(_owner == _msgSender(), \"Ownable: caller is not the owner\") */\n      0x04\n      dup3\n      add\n        /* \"#utility.yul\":12234:12255   */\n      dup2\n      swap1\n      mstore\n        /* \"#utility.yul\":12271:12289   */\n      0x24\n      dup3\n      add\n        /* \"#utility.yul\":12264:12294   */\n      mstore\n        /* \"#utility.yul\":12330:12364   */\n      0x4f776e61626c653a2063616c6c6572206973206e6f7420746865206f776e6572\n        /* \"#utility.yul\":12310:12328   */\n      0x44\n      dup3\n      add\n        /* \"#utility.yul\":12303:12365   */\n      mstore\n        /* \"#utility.yul\":12382:12400   */\n      0x64\n      add\n        /* \"contracts/gainzilla.sol\":3068:3135  require(_owner == _msgSender(), \"Ownable: caller is not the owner\") */\n      tag_330\n        /* \"#utility.yul\":12224:12406   */\n      jump\n        /* \"contracts/gainzilla.sol\":3068:3135  require(_owner == _msgSender(), \"Ownable: caller is not the owner\") */\n    tag_444:\n        /* \"contracts/gainzilla.sol\":22056:22067  tradingOpen */\n      0x28\n        /* \"contracts/gainzilla.sol\":22056:22074  tradingOpen = true */\n      dup1\n      sload\n      not(0xff)\n      and\n        /* \"contracts/gainzilla.sol\":22070:22074  true */\n      0x01\n        /* \"contracts/gainzilla.sol\":22056:22074  tradingOpen = true */\n      or\n      swap1\n      sstore\n        /* \"contracts/gainzilla.sol\":22002:22081  function enableToken() external onlyOwner() {... */\n      jump\t// out\n        /* \"contracts/gainzilla.sol\":19681:20097  function pairPrice() public view returns (uint256) {... */\n    tag_219:\n        /* \"contracts/gainzilla.sol\":19723:19730  uint256 */\n      0x00\n        /* \"contracts/gainzilla.sol\":19743:19759  uint112 reserve0 */\n      dup1\n        /* \"contracts/gainzilla.sol\":19761:19777  uint112 reserve1 */\n      0x00\n        /* \"contracts/gainzilla.sol\":19797:19810  uniswapV2Pair */\n      0x26\n      0x00\n      swap1\n      sload\n      swap1\n      0x0100\n      exp\n      swap1\n      div\n      sub(shl(0xa0, 0x01), 0x01)\n      and\n      sub(shl(0xa0, 0x01), 0x01)\n        /* \"contracts/gainzilla.sol\":19782:19823  IUniswapV2Pair(uniswapV2Pair).getReserves */\n      and\n      0x0902f1ac\n        /* \"contracts/gainzilla.sol\":19782:19825  IUniswapV2Pair(uniswapV2Pair).getReserves() */\n      mload(0x40)\n      dup2\n      0xffffffff\n      and\n      0xe0\n      shl\n      dup2\n      mstore\n      0x04\n      add\n      0x60\n      mload(0x40)\n      dup1\n      dup4\n      sub\n      dup2\n      dup7\n      dup1\n      extcodesize\n      iszero\n      dup1\n      iszero\n      tag_448\n      jumpi\n      0x00\n      dup1\n      revert\n    tag_448:\n      pop\n      gas\n      staticcall\n      iszero\n      dup1\n      iszero\n      tag_450\n      jumpi\n      returndatasize\n      0x00\n      dup1\n      returndatacopy\n      revert(0x00, returndatasize)\n    tag_450:\n      pop\n      pop\n      pop\n      pop\n      mload(0x40)\n      returndatasize\n      not(0x1f)\n      0x1f\n      dup3\n      add\n      and\n      dup3\n      add\n      dup1\n      0x40\n      mstore\n      pop\n      dup2\n      add\n      swap1\n      tag_451\n      swap2\n      swap1\n      tag_452\n      jump\t// in\n    tag_451:\n        /* \"contracts/gainzilla.sol\":19742:19825  (uint112 reserve0, uint112 reserve1,) = IUniswapV2Pair(uniswapV2Pair).getReserves() */\n      pop\n      swap2\n      pop\n      swap2\n      pop\n        /* \"contracts/gainzilla.sol\":19839:19847  reserve0 */\n      dup2\n        /* \"contracts/gainzilla.sol\":19839:19852  reserve0 == 0 */\n      0xffffffffffffffffffffffffffff\n      and\n        /* \"contracts/gainzilla.sol\":19851:19852  0 */\n      0x00\n        /* \"contracts/gainzilla.sol\":19839:19852  reserve0 == 0 */\n      eq\n        /* \"contracts/gainzilla.sol\":19839:19869  reserve0 == 0 || reserve1 == 0 */\n      dup1\n      tag_453\n      jumpi\n      pop\n        /* \"contracts/gainzilla.sol\":19856:19869  reserve1 == 0 */\n      0xffffffffffffffffffffffffffff\n      dup2\n      and\n      iszero\n        /* \"contracts/gainzilla.sol\":19839:19869  reserve0 == 0 || reserve1 == 0 */\n    tag_453:\n        /* \"contracts/gainzilla.sol\":19835:19879  if (reserve0 == 0 || reserve1 == 0) return 0 */\n      iszero\n      tag_454\n      jumpi\n        /* \"contracts/gainzilla.sol\":19878:19879  0 */\n      0x00\n        /* \"contracts/gainzilla.sol\":19871:19879  return 0 */\n      swap3\n      pop\n      pop\n      pop\n        /* \"contracts/gainzilla.sol\":19681:20097  function pairPrice() public view returns (uint256) {... */\n      swap1\n      jump\t// out\n        /* \"contracts/gainzilla.sol\":19835:19879  if (reserve0 == 0 || reserve1 == 0) return 0 */\n    tag_454:\n        /* \"contracts/gainzilla.sol\":19920:19933  uniswapV2Pair */\n      sload(0x26)\n        /* \"contracts/gainzilla.sol\":19905:19943  IUniswapV2Pair(uniswapV2Pair).token0() */\n      0x40\n      dup1\n      mload\n      0x0dfe168100000000000000000000000000000000000000000000000000000000\n      dup2\n      mstore\n      swap1\n      mload\n        /* \"contracts/gainzilla.sol\":19955:19959  this */\n      address\n      swap3\n      sub(shl(0xa0, 0x01), 0x01)\n        /* \"contracts/gainzilla.sol\":19920:19933  uniswapV2Pair */\n      and\n      swap2\n        /* \"contracts/gainzilla.sol\":19905:19941  IUniswapV2Pair(uniswapV2Pair).token0 */\n      0x0dfe1681\n      swap2\n        /* \"contracts/gainzilla.sol\":19905:19943  IUniswapV2Pair(uniswapV2Pair).token0() */\n      0x04\n      dup1\n      dup4\n      add\n      swap3\n      0x20\n      swap3\n      swap2\n      swap1\n      dup3\n      swap1\n      sub\n      add\n      dup2\n        /* \"contracts/gainzilla.sol\":19920:19933  uniswapV2Pair */\n      dup7\n        /* \"contracts/gainzilla.sol\":19905:19943  IUniswapV2Pair(uniswapV2Pair).token0() */\n      dup1\n      extcodesize\n      iszero\n      dup1\n      iszero\n      tag_455\n      jumpi\n      0x00\n      dup1\n      revert\n    tag_455:\n      pop\n      gas\n      staticcall\n      iszero\n      dup1\n      iszero\n      tag_457\n      jumpi\n      returndatasize\n      0x00\n      dup1\n      returndatacopy\n      revert(0x00, returndatasize)\n    tag_457:\n      pop\n      pop\n      pop\n      pop\n      mload(0x40)\n      returndatasize\n      not(0x1f)\n      0x1f\n      dup3\n      add\n      and\n      dup3\n      add\n      dup1\n      0x40\n      mstore\n      pop\n      dup2\n      add\n      swap1\n      tag_458\n      swap2\n      swap1\n      tag_459\n      jump\t// in\n    tag_458:\n      sub(shl(0xa0, 0x01), 0x01)\n        /* \"contracts/gainzilla.sol\":19905:19960  IUniswapV2Pair(uniswapV2Pair).token0() == address(this) */\n      and\n      eq\n        /* \"contracts/gainzilla.sol\":19905:20090  IUniswapV2Pair(uniswapV2Pair).token0() == address(this) ?... */\n      tag_460\n      jumpi\n        /* \"contracts/gainzilla.sol\":20040:20090  uint256(reserve0).mul(1e18).div(uint256(reserve1)) */\n      tag_461\n        /* \"contracts/gainzilla.sol\":20072:20089  uint256(reserve1) */\n      0xffffffffffffffffffffffffffff\n      dup1\n      dup4\n      and\n      swap1\n        /* \"contracts/gainzilla.sol\":20040:20067  uint256(reserve0).mul(1e18) */\n      tag_431\n      swap1\n        /* \"contracts/gainzilla.sol\":20040:20057  uint256(reserve0) */\n      dup6\n      and\n        /* \"contracts/gainzilla.sol\":20062:20066  1e18 */\n      0x0de0b6b3a7640000\n        /* \"contracts/gainzilla.sol\":20040:20061  uint256(reserve0).mul */\n      tag_434\n        /* \"contracts/gainzilla.sol\":20040:20067  uint256(reserve0).mul(1e18) */\n      jump\t// in\n        /* \"contracts/gainzilla.sol\":20040:20090  uint256(reserve0).mul(1e18).div(uint256(reserve1)) */\n    tag_461:\n        /* \"contracts/gainzilla.sol\":19905:20090  IUniswapV2Pair(uniswapV2Pair).token0() == address(this) ?... */\n      jump(tag_464)\n    tag_460:\n        /* \"contracts/gainzilla.sol\":19975:20025  uint256(reserve1).mul(1e18).div(uint256(reserve0)) */\n      tag_464\n        /* \"contracts/gainzilla.sol\":20007:20024  uint256(reserve0) */\n      0xffffffffffffffffffffffffffff\n      dup1\n      dup5\n      and\n      swap1\n        /* \"contracts/gainzilla.sol\":19975:20002  uint256(reserve1).mul(1e18) */\n      tag_431\n      swap1\n        /* \"contracts/gainzilla.sol\":19975:19992  uint256(reserve1) */\n      dup5\n      and\n        /* \"contracts/gainzilla.sol\":19997:20001  1e18 */\n      0x0de0b6b3a7640000\n        /* \"contracts/gainzilla.sol\":19975:19996  uint256(reserve1).mul */\n      tag_434\n        /* \"contracts/gainzilla.sol\":19975:20002  uint256(reserve1).mul(1e18) */\n      jump\t// in\n        /* \"contracts/gainzilla.sol\":19975:20025  uint256(reserve1).mul(1e18).div(uint256(reserve0)) */\n    tag_464:\n        /* \"contracts/gainzilla.sol\":19898:20090  return IUniswapV2Pair(uniswapV2Pair).token0() == address(this) ?... */\n      swap3\n      pop\n      pop\n      pop\n        /* \"contracts/gainzilla.sol\":19681:20097  function pairPrice() public view returns (uint256) {... */\n      swap1\n      jump\t// out\n        /* \"contracts/gainzilla.sol\":27861:27947  function disableTaxChange() onlyOwner() external {... */\n    tag_227:\n        /* \"contracts/gainzilla.sol\":3076:3082  _owner */\n      and(sub(shl(0xa0, 0x01), 0x01), sload(0x00))\n        /* \"contracts/gainzilla.sol\":818:828  msg.sender */\n      caller\n        /* \"contracts/gainzilla.sol\":3076:3098  _owner == _msgSender() */\n      eq\n        /* \"contracts/gainzilla.sol\":3068:3135  require(_owner == _msgSender(), \"Ownable: caller is not the owner\") */\n      tag_469\n      jumpi\n      mload(0x40)\n      shl(0xe5, 0x461bcd)\n      dup2\n      mstore\n        /* \"#utility.yul\":12252:12254   */\n      0x20\n        /* \"contracts/gainzilla.sol\":3068:3135  require(_owner == _msgSender(), \"Ownable: caller is not the owner\") */\n      0x04\n      dup3\n      add\n        /* \"#utility.yul\":12234:12255   */\n      dup2\n      swap1\n      mstore\n        /* \"#utility.yul\":12271:12289   */\n      0x24\n      dup3\n      add\n        /* \"#utility.yul\":12264:12294   */\n      mstore\n        /* \"#utility.yul\":12330:12364   */\n      0x4f776e61626c653a2063616c6c6572206973206e6f7420746865206f776e6572\n        /* \"#utility.yul\":12310:12328   */\n      0x44\n      dup3\n      add\n        /* \"#utility.yul\":12303:12365   */\n      mstore\n        /* \"#utility.yul\":12382:12400   */\n      0x64\n      add\n        /* \"contracts/gainzilla.sol\":3068:3135  require(_owner == _msgSender(), \"Ownable: caller is not the owner\") */\n      tag_330\n        /* \"#utility.yul\":12224:12406   */\n      jump\n        /* \"contracts/gainzilla.sol\":3068:3135  require(_owner == _msgSender(), \"Ownable: caller is not the owner\") */\n    tag_469:\n        /* \"contracts/gainzilla.sol\":27920:27932  canChangeTax */\n      0x28\n        /* \"contracts/gainzilla.sol\":27920:27940  canChangeTax = false */\n      dup1\n      sload\n      0xffffffffffffffffffffffffffffffffffffffffffffffffffffff00ffffffff\n      and\n      swap1\n      sstore\n        /* \"contracts/gainzilla.sol\":27861:27947  function disableTaxChange() onlyOwner() external {... */\n      jump\t// out\n        /* \"contracts/gainzilla.sol\":28806:29344  function cooldownRemaining(address account) public view returns (... */\n    tag_231:\n      sub(shl(0xa0, 0x01), 0x01)\n        /* \"contracts/gainzilla.sol\":29009:29037  cooldown.walletList[account] */\n      dup2\n      and\n        /* \"contracts/gainzilla.sol\":28880:28893  uint256 days_ */\n      0x00\n        /* \"contracts/gainzilla.sol\":29009:29037  cooldown.walletList[account] */\n      swap1\n      dup2\n      mstore\n        /* \"contracts/gainzilla.sol\":29009:29028  cooldown.walletList */\n      0x1b\n        /* \"contracts/gainzilla.sol\":29009:29037  cooldown.walletList[account] */\n      0x20\n      mstore\n      0x40\n      dup2\n      keccak256\n      sload\n        /* \"contracts/gainzilla.sol\":28880:28893  uint256 days_ */\n      dup2\n      swap1\n      dup2\n      swap1\n      dup2\n      swap1\n      dup2\n      swap1\n        /* \"contracts/gainzilla.sol\":29040:29055  block.timestamp */\n      timestamp\n      lt\n        /* \"contracts/gainzilla.sol\":29009:29124  cooldown.walletList[account] > block.timestamp ? ... */\n      tag_473\n      jumpi\n        /* \"contracts/gainzilla.sol\":29123:29124  0 */\n      0x00\n        /* \"contracts/gainzilla.sol\":29009:29124  cooldown.walletList[account] > block.timestamp ? ... */\n      jump(tag_475)\n    tag_473:\n      sub(shl(0xa0, 0x01), 0x01)\n        /* \"contracts/gainzilla.sol\":29071:29099  cooldown.walletList[account] */\n      dup7\n      and\n      0x00\n      swap1\n      dup2\n      mstore\n        /* \"contracts/gainzilla.sol\":29071:29090  cooldown.walletList */\n      0x1b\n        /* \"contracts/gainzilla.sol\":29071:29099  cooldown.walletList[account] */\n      0x20\n      mstore\n      0x40\n      swap1\n      keccak256\n      sload\n        /* \"contracts/gainzilla.sol\":29071:29120  cooldown.walletList[account].sub(block.timestamp) */\n      tag_475\n      swap1\n        /* \"contracts/gainzilla.sol\":29104:29119  block.timestamp */\n      timestamp\n        /* \"contracts/gainzilla.sol\":29071:29103  cooldown.walletList[account].sub */\n      tag_433\n        /* \"contracts/gainzilla.sol\":29071:29120  cooldown.walletList[account].sub(block.timestamp) */\n      jump\t// in\n    tag_475:\n        /* \"contracts/gainzilla.sol\":28989:29124  uint256 remaining = cooldown.walletList[account] > block.timestamp ? ... */\n      swap1\n      pop\n        /* \"contracts/gainzilla.sol\":29151:29171  remaining.div(86400) */\n      tag_476\n        /* \"contracts/gainzilla.sol\":28989:29124  uint256 remaining = cooldown.walletList[account] > block.timestamp ? ... */\n      dup2\n        /* \"contracts/gainzilla.sol\":29165:29170  86400 */\n      0x015180\n        /* \"contracts/gainzilla.sol\":29151:29164  remaining.div */\n      tag_353\n        /* \"contracts/gainzilla.sol\":29151:29171  remaining.div(86400) */\n      jump\t// in\n    tag_476:\n        /* \"contracts/gainzilla.sol\":29143:29171  days_ = remaining.div(86400) */\n      swap5\n      pop\n        /* \"contracts/gainzilla.sol\":29181:29199  remaining %= 86400 */\n      tag_477\n        /* \"contracts/gainzilla.sol\":29194:29199  86400 */\n      0x015180\n        /* \"contracts/gainzilla.sol\":29181:29199  remaining %= 86400 */\n      dup3\n      tag_478\n      jump\t// in\n    tag_477:\n      swap1\n      pop\n        /* \"contracts/gainzilla.sol\":29218:29237  remaining.div(3600) */\n      tag_479\n        /* \"contracts/gainzilla.sol\":29181:29199  remaining %= 86400 */\n      dup2\n        /* \"contracts/gainzilla.sol\":29232:29236  3600 */\n      0x0e10\n        /* \"contracts/gainzilla.sol\":29218:29231  remaining.div */\n      tag_353\n        /* \"contracts/gainzilla.sol\":29218:29237  remaining.div(3600) */\n      jump\t// in\n    tag_479:\n        /* \"contracts/gainzilla.sol\":29209:29237  hours_ = remaining.div(3600) */\n      swap4\n      pop\n        /* \"contracts/gainzilla.sol\":29247:29264  remaining %= 3600 */\n      tag_480\n        /* \"contracts/gainzilla.sol\":29260:29264  3600 */\n      0x0e10\n        /* \"contracts/gainzilla.sol\":29247:29264  remaining %= 3600 */\n      dup3\n      tag_478\n      jump\t// in\n    tag_480:\n      swap1\n      pop\n        /* \"contracts/gainzilla.sol\":29285:29302  remaining.div(60) */\n      tag_481\n        /* \"contracts/gainzilla.sol\":29247:29264  remaining %= 3600 */\n      dup2\n        /* \"contracts/gainzilla.sol\":29299:29301  60 */\n      0x3c\n        /* \"contracts/gainzilla.sol\":29285:29298  remaining.div */\n      tag_353\n        /* \"contracts/gainzilla.sol\":29285:29302  remaining.div(60) */\n      jump\t// in\n    tag_481:\n        /* \"contracts/gainzilla.sol\":29274:29302  minutes_ = remaining.div(60) */\n      swap3\n      pop\n        /* \"contracts/gainzilla.sol\":29323:29337  remaining % 60 */\n      tag_482\n        /* \"contracts/gainzilla.sol\":29335:29337  60 */\n      0x3c\n        /* \"contracts/gainzilla.sol\":29323:29332  remaining */\n      dup3\n        /* \"contracts/gainzilla.sol\":29323:29337  remaining % 60 */\n      tag_478\n      jump\t// in\n    tag_482:\n        /* \"contracts/gainzilla.sol\":29312:29337  seconds_ = remaining % 60 */\n      swap2\n      pop\n        /* \"contracts/gainzilla.sol\":28806:29344  function cooldownRemaining(address account) public view returns (... */\n      pop\n      swap2\n      swap4\n      pop\n      swap2\n      swap4\n      jump\t// out\n        /* \"contracts/gainzilla.sol\":25713:25853  function setTransferTransactionMultiplier(uint256 _multiplier) external onlyOwner() {... */\n    tag_237:\n        /* \"contracts/gainzilla.sol\":3076:3082  _owner */\n      and(sub(shl(0xa0, 0x01), 0x01), sload(0x00))\n        /* \"contracts/gainzilla.sol\":818:828  msg.sender */\n      caller\n        /* \"contracts/gainzilla.sol\":3076:3098  _owner == _msgSender() */\n      eq\n        /* \"contracts/gainzilla.sol\":3068:3135  require(_owner == _msgSender(), \"Ownable: caller is not the owner\") */\n      tag_485\n      jumpi\n      mload(0x40)\n      shl(0xe5, 0x461bcd)\n      dup2\n      mstore\n        /* \"#utility.yul\":12252:12254   */\n      0x20\n        /* \"contracts/gainzilla.sol\":3068:3135  require(_owner == _msgSender(), \"Ownable: caller is not the owner\") */\n      0x04\n      dup3\n      add\n        /* \"#utility.yul\":12234:12255   */\n      dup2\n      swap1\n      mstore\n        /* \"#utility.yul\":12271:12289   */\n      0x24\n      dup3\n      add\n        /* \"#utility.yul\":12264:12294   */\n      mstore\n        /* \"#utility.yul\":12330:12364   */\n      0x4f776e61626c653a2063616c6c6572206973206e6f7420746865206f776e6572\n        /* \"#utility.yul\":12310:12328   */\n      0x44\n      dup3\n      add\n        /* \"#utility.yul\":12303:12365   */\n      mstore\n        /* \"#utility.yul\":12382:12400   */\n      0x64\n      add\n        /* \"contracts/gainzilla.sol\":3068:3135  require(_owner == _msgSender(), \"Ownable: caller is not the owner\") */\n      tag_330\n        /* \"#utility.yul\":12224:12406   */\n      jump\n        /* \"contracts/gainzilla.sol\":3068:3135  require(_owner == _msgSender(), \"Ownable: caller is not the owner\") */\n    tag_485:\n        /* \"contracts/gainzilla.sol\":25807:25832  transferFeeIncreaseFactor */\n      0x19\n        /* \"contracts/gainzilla.sol\":25807:25846  transferFeeIncreaseFactor = _multiplier */\n      sstore\n        /* \"contracts/gainzilla.sol\":25713:25853  function setTransferTransactionMultiplier(uint256 _multiplier) external onlyOwner() {... */\n      jump\t// out\n        /* \"contracts/gainzilla.sol\":12930:13096  function transfer(address recipient, uint256 amount) external override returns (bool) {... */\n    tag_241:\n        /* \"contracts/gainzilla.sol\":13010:13014  bool */\n      0x00\n        /* \"contracts/gainzilla.sol\":13026:13068  _transfer(_msgSender(), recipient, amount) */\n      tag_323\n        /* \"contracts/gainzilla.sol\":818:828  msg.sender */\n      caller\n        /* \"contracts/gainzilla.sol\":13050:13059  recipient */\n      dup5\n        /* \"contracts/gainzilla.sol\":13061:13067  amount */\n      dup5\n        /* \"contracts/gainzilla.sol\":13026:13035  _transfer */\n      tag_341\n        /* \"contracts/gainzilla.sol\":13026:13068  _transfer(_msgSender(), recipient, amount) */\n      jump\t// in\n        /* \"contracts/gainzilla.sol\":22326:22528  function manualswap() external onlyOwner() {... */\n    tag_245:\n        /* \"contracts/gainzilla.sol\":3076:3082  _owner */\n      and(sub(shl(0xa0, 0x01), 0x01), sload(0x00))\n        /* \"contracts/gainzilla.sol\":818:828  msg.sender */\n      caller\n        /* \"contracts/gainzilla.sol\":3076:3098  _owner == _msgSender() */\n      eq\n        /* \"contracts/gainzilla.sol\":3068:3135  require(_owner == _msgSender(), \"Ownable: caller is not the owner\") */\n      tag_493\n      jumpi\n      mload(0x40)\n      shl(0xe5, 0x461bcd)\n      dup2\n      mstore\n        /* \"#utility.yul\":12252:12254   */\n      0x20\n        /* \"contracts/gainzilla.sol\":3068:3135  require(_owner == _msgSender(), \"Ownable: caller is not the owner\") */\n      0x04\n      dup3\n      add\n        /* \"#utility.yul\":12234:12255   */\n      dup2\n      swap1\n      mstore\n        /* \"#utility.yul\":12271:12289   */\n      0x24\n      dup3\n      add\n        /* \"#utility.yul\":12264:12294   */\n      mstore\n        /* \"#utility.yul\":12330:12364   */\n      0x4f776e61626c653a2063616c6c6572206973206e6f7420746865206f776e6572\n        /* \"#utility.yul\":12310:12328   */\n      0x44\n      dup3\n      add\n        /* \"#utility.yul\":12303:12365   */\n      mstore\n        /* \"#utility.yul\":12382:12400   */\n      0x64\n      add\n        /* \"contracts/gainzilla.sol\":3068:3135  require(_owner == _msgSender(), \"Ownable: caller is not the owner\") */\n      tag_330\n        /* \"#utility.yul\":12224:12406   */\n      jump\n        /* \"contracts/gainzilla.sol\":3068:3135  require(_owner == _msgSender(), \"Ownable: caller is not the owner\") */\n    tag_493:\n        /* \"contracts/gainzilla.sol\":22423:22427  this */\n      address\n        /* \"contracts/gainzilla.sol\":22379:22402  uint256 contractBalance */\n      0x00\n        /* \"contracts/gainzilla.sol\":12793:12811  _balances[account] */\n      swap1\n      dup2\n      mstore\n        /* \"contracts/gainzilla.sol\":12793:12802  _balances */\n      0x02\n        /* \"contracts/gainzilla.sol\":12793:12811  _balances[account] */\n      0x20\n      mstore\n      0x40\n      swap1\n      keccak256\n      sload\n        /* \"contracts/gainzilla.sol\":22443:22462  contractBalance > 0 */\n      dup1\n      iszero\n        /* \"contracts/gainzilla.sol\":22439:22522  if (contractBalance > 0) {... */\n      tag_409\n      jumpi\n        /* \"contracts/gainzilla.sol\":22478:22511  swapTokensForEth(contractBalance) */\n      tag_409\n        /* \"contracts/gainzilla.sol\":22495:22510  contractBalance */\n      dup2\n        /* \"contracts/gainzilla.sol\":22478:22494  swapTokensForEth */\n      tag_499\n        /* \"contracts/gainzilla.sol\":22478:22511  swapTokensForEth(contractBalance) */\n      jump\t// in\n        /* \"contracts/gainzilla.sol\":28380:28500  function updateLpRecipient(address payable lpRecipient) external onlyOwner() {... */\n    tag_270:\n        /* \"contracts/gainzilla.sol\":3076:3082  _owner */\n      and(sub(shl(0xa0, 0x01), 0x01), sload(0x00))\n        /* \"contracts/gainzilla.sol\":818:828  msg.sender */\n      caller\n        /* \"contracts/gainzilla.sol\":3076:3098  _owner == _msgSender() */\n      eq\n        /* \"contracts/gainzilla.sol\":3068:3135  require(_owner == _msgSender(), \"Ownable: caller is not the owner\") */\n      tag_502\n      jumpi\n      mload(0x40)\n      shl(0xe5, 0x461bcd)\n      dup2\n      mstore\n        /* \"#utility.yul\":12252:12254   */\n      0x20\n        /* \"contracts/gainzilla.sol\":3068:3135  require(_owner == _msgSender(), \"Ownable: caller is not the owner\") */\n      0x04\n      dup3\n      add\n        /* \"#utility.yul\":12234:12255   */\n      dup2\n      swap1\n      mstore\n        /* \"#utility.yul\":12271:12289   */\n      0x24\n      dup3\n      add\n        /* \"#utility.yul\":12264:12294   */\n      mstore\n        /* \"#utility.yul\":12330:12364   */\n      0x4f776e61626c653a2063616c6c6572206973206e6f7420746865206f776e6572\n        /* \"#utility.yul\":12310:12328   */\n      0x44\n      dup3\n      add\n        /* \"#utility.yul\":12303:12365   */\n      mstore\n        /* \"#utility.yul\":12382:12400   */\n      0x64\n      add\n        /* \"contracts/gainzilla.sol\":3068:3135  require(_owner == _msgSender(), \"Ownable: caller is not the owner\") */\n      tag_330\n        /* \"#utility.yul\":12224:12406   */\n      jump\n        /* \"contracts/gainzilla.sol\":3068:3135  require(_owner == _msgSender(), \"Ownable: caller is not the owner\") */\n    tag_502:\n        /* \"contracts/gainzilla.sol\":28467:28479  _lpRecipient */\n      0x24\n        /* \"contracts/gainzilla.sol\":28467:28493  _lpRecipient = lpRecipient */\n      dup1\n      sload\n      0xffffffffffffffffffffffff0000000000000000000000000000000000000000\n      and\n      sub(shl(0xa0, 0x01), 0x01)\n      swap3\n      swap1\n      swap3\n      and\n      swap2\n      swap1\n      swap2\n      or\n      swap1\n      sstore\n        /* \"contracts/gainzilla.sol\":28380:28500  function updateLpRecipient(address payable lpRecipient) external onlyOwner() {... */\n      jump\t// out\n        /* \"contracts/gainzilla.sol\":21829:21996  function openTrading(uint256 botBlocks) external onlyOwner() {... */\n    tag_274:\n        /* \"contracts/gainzilla.sol\":3076:3082  _owner */\n      and(sub(shl(0xa0, 0x01), 0x01), sload(0x00))\n        /* \"contracts/gainzilla.sol\":818:828  msg.sender */\n      caller\n        /* \"contracts/gainzilla.sol\":3076:3098  _owner == _msgSender() */\n      eq\n        /* \"contracts/gainzilla.sol\":3068:3135  require(_owner == _msgSender(), \"Ownable: caller is not the owner\") */\n      tag_507\n      jumpi\n      mload(0x40)\n      shl(0xe5, 0x461bcd)\n      dup2\n      mstore\n        /* \"#utility.yul\":12252:12254   */\n      0x20\n        /* \"contracts/gainzilla.sol\":3068:3135  require(_owner == _msgSender(), \"Ownable: caller is not the owner\") */\n      0x04\n      dup3\n      add\n        /* \"#utility.yul\":12234:12255   */\n      dup2\n      swap1\n      mstore\n        /* \"#utility.yul\":12271:12289   */\n      0x24\n      dup3\n      add\n        /* \"#utility.yul\":12264:12294   */\n      mstore\n        /* \"#utility.yul\":12330:12364   */\n      0x4f776e61626c653a2063616c6c6572206973206e6f7420746865206f776e6572\n        /* \"#utility.yul\":12310:12328   */\n      0x44\n      dup3\n      add\n        /* \"#utility.yul\":12303:12365   */\n      mstore\n        /* \"#utility.yul\":12382:12400   */\n      0x64\n      add\n        /* \"contracts/gainzilla.sol\":3068:3135  require(_owner == _msgSender(), \"Ownable: caller is not the owner\") */\n      tag_330\n        /* \"#utility.yul\":12224:12406   */\n      jump\n        /* \"contracts/gainzilla.sol\":3068:3135  require(_owner == _msgSender(), \"Ownable: caller is not the owner\") */\n    tag_507:\n        /* \"contracts/gainzilla.sol\":21914:21929  block.timestamp */\n      timestamp\n        /* \"contracts/gainzilla.sol\":21900:21911  _firstBlock */\n      0x05\n        /* \"contracts/gainzilla.sol\":21900:21929  _firstBlock = block.timestamp */\n      sstore\n        /* \"contracts/gainzilla.sol\":21939:21949  _botBlocks */\n      0x06\n        /* \"contracts/gainzilla.sol\":21939:21961  _botBlocks = botBlocks */\n      sstore\n        /* \"contracts/gainzilla.sol\":21971:21982  tradingOpen */\n      0x28\n        /* \"contracts/gainzilla.sol\":21971:21989  tradingOpen = true */\n      dup1\n      sload\n      not(0xff)\n      and\n        /* \"contracts/gainzilla.sol\":21985:21989  true */\n      0x01\n        /* \"contracts/gainzilla.sol\":21971:21989  tradingOpen = true */\n      or\n      swap1\n      sstore\n        /* \"contracts/gainzilla.sol\":21829:21996  function openTrading(uint256 botBlocks) external onlyOwner() {... */\n      jump\t// out\n        /* \"contracts/gainzilla.sol\":25614:25703  function disableBlackListing() onlyOwner() external {... */\n    tag_277:\n        /* \"contracts/gainzilla.sol\":3076:3082  _owner */\n      and(sub(shl(0xa0, 0x01), 0x01), sload(0x00))\n        /* \"contracts/gainzilla.sol\":818:828  msg.sender */\n      caller\n        /* \"contracts/gainzilla.sol\":3076:3098  _owner == _msgSender() */\n      eq\n        /* \"contracts/gainzilla.sol\":3068:3135  require(_owner == _msgSender(), \"Ownable: caller is not the owner\") */\n      tag_512\n      jumpi\n      mload(0x40)\n      shl(0xe5, 0x461bcd)\n      dup2\n      mstore\n        /* \"#utility.yul\":12252:12254   */\n      0x20\n        /* \"contracts/gainzilla.sol\":3068:3135  require(_owner == _msgSender(), \"Ownable: caller is not the owner\") */\n      0x04\n      dup3\n      add\n        /* \"#utility.yul\":12234:12255   */\n      dup2\n      swap1\n      mstore\n        /* \"#utility.yul\":12271:12289   */\n      0x24\n      dup3\n      add\n        /* \"#utility.yul\":12264:12294   */\n      mstore\n        /* \"#utility.yul\":12330:12364   */\n      0x4f776e61626c653a2063616c6c6572206973206e6f7420746865206f776e6572\n        /* \"#utility.yul\":12310:12328   */\n      0x44\n      dup3\n      add\n        /* \"#utility.yul\":12303:12365   */\n      mstore\n        /* \"#utility.yul\":12382:12400   */\n      0x64\n      add\n        /* \"contracts/gainzilla.sol\":3068:3135  require(_owner == _msgSender(), \"Ownable: caller is not the owner\") */\n      tag_330\n        /* \"#utility.yul\":12224:12406   */\n      jump\n        /* \"contracts/gainzilla.sol\":3068:3135  require(_owner == _msgSender(), \"Ownable: caller is not the owner\") */\n    tag_512:\n        /* \"contracts/gainzilla.sol\":25676:25688  canBlackList */\n      0x28\n        /* \"contracts/gainzilla.sol\":25676:25696  canBlackList = false */\n      dup1\n      sload\n      0xffffffffffffffffffffffffffffffffffffffffffffffffffffffff00ffffff\n      and\n      swap1\n      sstore\n        /* \"contracts/gainzilla.sol\":25614:25703  function disableBlackListing() onlyOwner() external {... */\n      jump\t// out\n        /* \"contracts/gainzilla.sol\":27953:28093  function updateEcosystemAddress(address payable ecosystemAddress) external onlyOwner() {... */\n    tag_281:\n        /* \"contracts/gainzilla.sol\":3076:3082  _owner */\n      and(sub(shl(0xa0, 0x01), 0x01), sload(0x00))\n        /* \"contracts/gainzilla.sol\":818:828  msg.sender */\n      caller\n        /* \"contracts/gainzilla.sol\":3076:3098  _owner == _msgSender() */\n      eq\n        /* \"contracts/gainzilla.sol\":3068:3135  require(_owner == _msgSender(), \"Ownable: caller is not the owner\") */\n      tag_517\n      jumpi\n      mload(0x40)\n      shl(0xe5, 0x461bcd)\n      dup2\n      mstore\n        /* \"#utility.yul\":12252:12254   */\n      0x20\n        /* \"contracts/gainzilla.sol\":3068:3135  require(_owner == _msgSender(), \"Ownable: caller is not the owner\") */\n      0x04\n      dup3\n      add\n        /* \"#utility.yul\":12234:12255   */\n      dup2\n      swap1\n      mstore\n        /* \"#utility.yul\":12271:12289   */\n      0x24\n      dup3\n      add\n        /* \"#utility.yul\":12264:12294   */\n      mstore\n        /* \"#utility.yul\":12330:12364   */\n      0x4f776e61626c653a2063616c6c6572206973206e6f7420746865206f776e6572\n        /* \"#utility.yul\":12310:12328   */\n      0x44\n      dup3\n      add\n        /* \"#utility.yul\":12303:12365   */\n      mstore\n        /* \"#utility.yul\":12382:12400   */\n      0x64\n      add\n        /* \"contracts/gainzilla.sol\":3068:3135  require(_owner == _msgSender(), \"Ownable: caller is not the owner\") */\n      tag_330\n        /* \"#utility.yul\":12224:12406   */\n      jump\n        /* \"contracts/gainzilla.sol\":3068:3135  require(_owner == _msgSender(), \"Ownable: caller is not the owner\") */\n    tag_517:\n        /* \"contracts/gainzilla.sol\":28050:28067  _ecosystemAddress */\n      0x23\n        /* \"contracts/gainzilla.sol\":28050:28086  _ecosystemAddress = ecosystemAddress */\n      dup1\n      sload\n      0xffffffffffffffffffffffff0000000000000000000000000000000000000000\n      and\n      sub(shl(0xa0, 0x01), 0x01)\n      swap3\n      swap1\n      swap3\n      and\n      swap2\n      swap1\n      swap2\n      or\n      swap1\n      sstore\n        /* \"contracts/gainzilla.sol\":27953:28093  function updateEcosystemAddress(address payable ecosystemAddress) external onlyOwner() {... */\n      jump\t// out\n        /* \"contracts/gainzilla.sol\":28506:28621  function updateNumTokensToSwap(uint256 numTokens) external onlyOwner() {... */\n    tag_295:\n        /* \"contracts/gainzilla.sol\":3076:3082  _owner */\n      and(sub(shl(0xa0, 0x01), 0x01), sload(0x00))\n        /* \"contracts/gainzilla.sol\":818:828  msg.sender */\n      caller\n        /* \"contracts/gainzilla.sol\":3076:3098  _owner == _msgSender() */\n      eq\n        /* \"contracts/gainzilla.sol\":3068:3135  require(_owner == _msgSender(), \"Ownable: caller is not the owner\") */\n      tag_523\n      jumpi\n      mload(0x40)\n      shl(0xe5, 0x461bcd)\n      dup2\n      mstore\n        /* \"#utility.yul\":12252:12254   */\n      0x20\n        /* \"contracts/gainzilla.sol\":3068:3135  require(_owner == _msgSender(), \"Ownable: caller is not the owner\") */\n      0x04\n      dup3\n      add\n        /* \"#utility.yul\":12234:12255   */\n      dup2\n      swap1\n      mstore\n        /* \"#utility.yul\":12271:12289   */\n      0x24\n      dup3\n      add\n        /* \"#utility.yul\":12264:12294   */\n      mstore\n        /* \"#utility.yul\":12330:12364   */\n      0x4f776e61626c653a2063616c6c6572206973206e6f7420746865206f776e6572\n        /* \"#utility.yul\":12310:12328   */\n      0x44\n      dup3\n      add\n        /* \"#utility.yul\":12303:12365   */\n      mstore\n        /* \"#utility.yul\":12382:12400   */\n      0x64\n      add\n        /* \"contracts/gainzilla.sol\":3068:3135  require(_owner == _msgSender(), \"Ownable: caller is not the owner\") */\n      tag_330\n        /* \"#utility.yul\":12224:12406   */\n      jump\n        /* \"contracts/gainzilla.sol\":3068:3135  require(_owner == _msgSender(), \"Ownable: caller is not the owner\") */\n    tag_523:\n        /* \"contracts/gainzilla.sol\":28587:28602  numTokensToSwap */\n      0x08\n        /* \"contracts/gainzilla.sol\":28587:28614  numTokensToSwap = numTokens */\n      sstore\n        /* \"contracts/gainzilla.sol\":28506:28621  function updateNumTokensToSwap(uint256 numTokens) external onlyOwner() {... */\n      jump\t// out\n        /* \"contracts/gainzilla.sol\":26188:27011  function setBuyTaxes(uint256 marketingFee, uint256 liquidityFee, uint256 teamFee, uint256 ecosystemFee) external onlyOwner() {... */\n    tag_300:\n        /* \"contracts/gainzilla.sol\":3076:3082  _owner */\n      and(sub(shl(0xa0, 0x01), 0x01), sload(0x00))\n        /* \"contracts/gainzilla.sol\":818:828  msg.sender */\n      caller\n        /* \"contracts/gainzilla.sol\":3076:3098  _owner == _msgSender() */\n      eq\n        /* \"contracts/gainzilla.sol\":3068:3135  require(_owner == _msgSender(), \"Ownable: caller is not the owner\") */\n      tag_528\n      jumpi\n      mload(0x40)\n      shl(0xe5, 0x461bcd)\n      dup2\n      mstore\n        /* \"#utility.yul\":12252:12254   */\n      0x20\n        /* \"contracts/gainzilla.sol\":3068:3135  require(_owner == _msgSender(), \"Ownable: caller is not the owner\") */\n      0x04\n      dup3\n      add\n        /* \"#utility.yul\":12234:12255   */\n      dup2\n      swap1\n      mstore\n        /* \"#utility.yul\":12271:12289   */\n      0x24\n      dup3\n      add\n        /* \"#utility.yul\":12264:12294   */\n      mstore\n        /* \"#utility.yul\":12330:12364   */\n      0x4f776e61626c653a2063616c6c6572206973206e6f7420746865206f776e6572\n        /* \"#utility.yul\":12310:12328   */\n      0x44\n      dup3\n      add\n        /* \"#utility.yul\":12303:12365   */\n      mstore\n        /* \"#utility.yul\":12382:12400   */\n      0x64\n      add\n        /* \"contracts/gainzilla.sol\":3068:3135  require(_owner == _msgSender(), \"Ownable: caller is not the owner\") */\n      tag_330\n        /* \"#utility.yul\":12224:12406   */\n      jump\n        /* \"contracts/gainzilla.sol\":3068:3135  require(_owner == _msgSender(), \"Ownable: caller is not the owner\") */\n    tag_528:\n        /* \"contracts/gainzilla.sol\":26323:26339  uint256 totalFee */\n      0x00\n        /* \"contracts/gainzilla.sol\":26342:26403  marketingFee.add(liquidityFee).add(teamFee).add(ecosystemFee) */\n      tag_531\n        /* \"contracts/gainzilla.sol\":26390:26402  ecosystemFee */\n      dup3\n        /* \"contracts/gainzilla.sol\":26342:26385  marketingFee.add(liquidityFee).add(teamFee) */\n      tag_533\n        /* \"contracts/gainzilla.sol\":26377:26384  teamFee */\n      dup6\n        /* \"contracts/gainzilla.sol\":26342:26385  marketingFee.add(liquidityFee).add(teamFee) */\n      dup2\n        /* \"contracts/gainzilla.sol\":26342:26354  marketingFee */\n      dup10\n        /* \"contracts/gainzilla.sol\":26359:26371  liquidityFee */\n      dup10\n        /* \"contracts/gainzilla.sol\":26342:26358  marketingFee.add */\n      tag_534\n        /* \"contracts/gainzilla.sol\":26342:26372  marketingFee.add(liquidityFee) */\n      jump\t// in\n    tag_533:\n        /* \"contracts/gainzilla.sol\":26342:26376  marketingFee.add(liquidityFee).add */\n      swap1\n      tag_534\n        /* \"contracts/gainzilla.sol\":26342:26385  marketingFee.add(liquidityFee).add(teamFee) */\n      jump\t// in\n        /* \"contracts/gainzilla.sol\":26342:26403  marketingFee.add(liquidityFee).add(teamFee).add(ecosystemFee) */\n    tag_531:\n        /* \"contracts/gainzilla.sol\":26323:26403  uint256 totalFee = marketingFee.add(liquidityFee).add(teamFee).add(ecosystemFee) */\n      swap1\n      pop\n        /* \"contracts/gainzilla.sol\":26433:26436  250 */\n      0xfa\n        /* \"contracts/gainzilla.sol\":26421:26429  totalFee */\n      dup2\n        /* \"contracts/gainzilla.sol\":26421:26436  totalFee <= 250 */\n      gt\n      iszero\n        /* \"contracts/gainzilla.sol\":26413:26490  require(totalFee <= 250, \"Sum of buy fees must be less than or equal to 25%\") */\n      tag_535\n      jumpi\n      mload(0x40)\n      shl(0xe5, 0x461bcd)\n      dup2\n      mstore\n        /* \"#utility.yul\":8370:8372   */\n      0x20\n        /* \"contracts/gainzilla.sol\":26413:26490  require(totalFee <= 250, \"Sum of buy fees must be less than or equal to 25%\") */\n      0x04\n      dup3\n      add\n        /* \"#utility.yul\":8352:8373   */\n      mstore\n        /* \"#utility.yul\":8409:8411   */\n      0x31\n        /* \"#utility.yul\":8389:8407   */\n      0x24\n      dup3\n      add\n        /* \"#utility.yul\":8382:8412   */\n      mstore\n        /* \"#utility.yul\":8448:8482   */\n      0x53756d206f66206275792066656573206d757374206265206c65737320746861\n        /* \"#utility.yul\":8428:8446   */\n      0x44\n      dup3\n      add\n        /* \"#utility.yul\":8421:8483   */\n      mstore\n        /* \"#utility.yul\":8519:8538   */\n      0x6e206f7220657175616c20746f20323525000000000000000000000000000000\n        /* \"#utility.yul\":8499:8517   */\n      0x64\n      dup3\n      add\n        /* \"#utility.yul\":8492:8539   */\n      mstore\n        /* \"#utility.yul\":8556:8575   */\n      0x84\n      add\n        /* \"contracts/gainzilla.sol\":26413:26490  require(totalFee <= 250, \"Sum of buy fees must be less than or equal to 25%\") */\n      tag_330\n        /* \"#utility.yul\":8342:8581   */\n      jump\n        /* \"contracts/gainzilla.sol\":26413:26490  require(totalFee <= 250, \"Sum of buy fees must be less than or equal to 25%\") */\n    tag_535:\n        /* \"contracts/gainzilla.sol\":26508:26520  canChangeTax */\n      sload(0x28)\n      0x0100000000\n      swap1\n      div\n      0xff\n      and\n        /* \"contracts/gainzilla.sol\":26500:26549  require(canChangeTax, \"This function is diabled\") */\n      tag_538\n      jumpi\n      mload(0x40)\n      shl(0xe5, 0x461bcd)\n      dup2\n      mstore\n        /* \"#utility.yul\":14255:14257   */\n      0x20\n        /* \"contracts/gainzilla.sol\":26500:26549  require(canChangeTax, \"This function is diabled\") */\n      0x04\n      dup3\n      add\n        /* \"#utility.yul\":14237:14258   */\n      mstore\n        /* \"#utility.yul\":14294:14296   */\n      0x18\n        /* \"#utility.yul\":14274:14292   */\n      0x24\n      dup3\n      add\n        /* \"#utility.yul\":14267:14297   */\n      mstore\n        /* \"#utility.yul\":14333:14359   */\n      0x546869732066756e6374696f6e20697320646961626c65640000000000000000\n        /* \"#utility.yul\":14313:14331   */\n      0x44\n      dup3\n      add\n        /* \"#utility.yul\":14306:14360   */\n      mstore\n        /* \"#utility.yul\":14377:14395   */\n      0x64\n      add\n        /* \"contracts/gainzilla.sol\":26500:26549  require(canChangeTax, \"This function is diabled\") */\n      tag_330\n        /* \"#utility.yul\":14227:14401   */\n      jump\n        /* \"contracts/gainzilla.sol\":26500:26549  require(canChangeTax, \"This function is diabled\") */\n    tag_538:\n        /* \"contracts/gainzilla.sol\":26560:26576  _buyMarketingFee */\n      0x0d\n        /* \"contracts/gainzilla.sol\":26560:26591  _buyMarketingFee = marketingFee */\n      dup6\n      swap1\n      sstore\n        /* \"contracts/gainzilla.sol\":26601:26617  _buyLiquidityFee */\n      0x09\n        /* \"contracts/gainzilla.sol\":26601:26632  _buyLiquidityFee = liquidityFee */\n      dup5\n      swap1\n      sstore\n        /* \"contracts/gainzilla.sol\":26642:26653  _buyTeamFee */\n      0x0f\n        /* \"contracts/gainzilla.sol\":26642:26663  _buyTeamFee = teamFee */\n      dup4\n      swap1\n      sstore\n        /* \"contracts/gainzilla.sol\":26673:26689  _buyEcosystemFee */\n      0x0b\n        /* \"contracts/gainzilla.sol\":26673:26704  _buyEcosystemFee = ecosystemFee */\n      dup3\n      swap1\n      sstore\n        /* \"contracts/gainzilla.sol\":26723:26747  _previousBuyMarketingFee */\n      0x0e\n        /* \"contracts/gainzilla.sol\":26723:26766  _previousBuyMarketingFee = _buyMarketingFee */\n      dup6\n      swap1\n      sstore\n        /* \"contracts/gainzilla.sol\":26776:26800  _previousBuyLiquidityFee */\n      0x0a\n        /* \"contracts/gainzilla.sol\":26776:26819  _previousBuyLiquidityFee = _buyLiquidityFee */\n      dup5\n      swap1\n      sstore\n        /* \"contracts/gainzilla.sol\":26829:26848  _previousBuyTeamFee */\n      0x10\n        /* \"contracts/gainzilla.sol\":26829:26862  _previousBuyTeamFee = _buyTeamFee */\n      dup4\n      swap1\n      sstore\n        /* \"contracts/gainzilla.sol\":26872:26896  _previousBuyEcosystemFee */\n      0x0c\n        /* \"contracts/gainzilla.sol\":26872:26915  _previousBuyEcosystemFee = _buyEcosystemFee */\n      dup3\n      swap1\n      sstore\n        /* \"contracts/gainzilla.sol\":26939:27004  BuyFeesUpdated(marketingFee, liquidityFee, teamFee, ecosystemFee) */\n      0x40\n      dup1\n      mload\n        /* \"#utility.yul\":16733:16758   */\n      dup7\n      dup2\n      mstore\n        /* \"#utility.yul\":16789:16791   */\n      0x20\n        /* \"#utility.yul\":16774:16792   */\n      dup2\n      add\n        /* \"#utility.yul\":16767:16801   */\n      dup7\n      swap1\n      mstore\n        /* \"#utility.yul\":16817:16835   */\n      swap1\n      dup2\n      add\n        /* \"#utility.yul\":16810:16844   */\n      dup5\n      swap1\n      mstore\n        /* \"#utility.yul\":16875:16877   */\n      0x60\n        /* \"#utility.yul\":16860:16878   */\n      dup2\n      add\n        /* \"#utility.yul\":16853:16887   */\n      dup4\n      swap1\n      mstore\n        /* \"contracts/gainzilla.sol\":26939:27004  BuyFeesUpdated(marketingFee, liquidityFee, teamFee, ecosystemFee) */\n      0x892b2caa2d791bf7b8d9a49c4db7a4513ff1ae2e0e068ed217f9d5ab4c1a28f0\n      swap1\n        /* \"#utility.yul\":16720:16723   */\n      0x80\n        /* \"#utility.yul\":16705:16724   */\n      add\n        /* \"contracts/gainzilla.sol\":26939:27004  BuyFeesUpdated(marketingFee, liquidityFee, teamFee, ecosystemFee) */\n    tag_541:\n      mload(0x40)\n      dup1\n      swap2\n      sub\n      swap1\n      log1\n        /* \"contracts/gainzilla.sol\":3145:3146  _ */\n      pop\n        /* \"contracts/gainzilla.sol\":26188:27011  function setBuyTaxes(uint256 marketingFee, uint256 liquidityFee, uint256 teamFee, uint256 ecosystemFee) external onlyOwner() {... */\n      pop\n      pop\n      pop\n      pop\n      jump\t// out\n        /* \"contracts/gainzilla.sol\":25219:25331  function includeInFee(address account) external onlyOwner() {... */\n    tag_304:\n        /* \"contracts/gainzilla.sol\":3076:3082  _owner */\n      and(sub(shl(0xa0, 0x01), 0x01), sload(0x00))\n        /* \"contracts/gainzilla.sol\":818:828  msg.sender */\n      caller\n        /* \"contracts/gainzilla.sol\":3076:3098  _owner == _msgSender() */\n      eq\n        /* \"contracts/gainzilla.sol\":3068:3135  require(_owner == _msgSender(), \"Ownable: caller is not the owner\") */\n      tag_544\n      jumpi\n      mload(0x40)\n      shl(0xe5, 0x461bcd)\n      dup2\n      mstore\n        /* \"#utility.yul\":12252:12254   */\n      0x20\n        /* \"contracts/gainzilla.sol\":3068:3135  require(_owner == _msgSender(), \"Ownable: caller is not the owner\") */\n      0x04\n      dup3\n      add\n        /* \"#utility.yul\":12234:12255   */\n      dup2\n      swap1\n      mstore\n        /* \"#utility.yul\":12271:12289   */\n      0x24\n      dup3\n      add\n        /* \"#utility.yul\":12264:12294   */\n      mstore\n        /* \"#utility.yul\":12330:12364   */\n      0x4f776e61626c653a2063616c6c6572206973206e6f7420746865206f776e6572\n        /* \"#utility.yul\":12310:12328   */\n      0x44\n      dup3\n      add\n        /* \"#utility.yul\":12303:12365   */\n      mstore\n        /* \"#utility.yul\":12382:12400   */\n      0x64\n      add\n        /* \"contracts/gainzilla.sol\":3068:3135  require(_owner == _msgSender(), \"Ownable: caller is not the owner\") */\n      tag_330\n        /* \"#utility.yul\":12224:12406   */\n      jump\n        /* \"contracts/gainzilla.sol\":3068:3135  require(_owner == _msgSender(), \"Ownable: caller is not the owner\") */\n    tag_544:\n      sub(shl(0xa0, 0x01), 0x01)\n        /* \"contracts/gainzilla.sol\":25289:25316  _isExcludedFromFee[account] */\n      and\n        /* \"contracts/gainzilla.sol\":25319:25324  false */\n      0x00\n        /* \"contracts/gainzilla.sol\":25289:25316  _isExcludedFromFee[account] */\n      swap1\n      dup2\n      mstore\n        /* \"contracts/gainzilla.sol\":25289:25307  _isExcludedFromFee */\n      0x04\n        /* \"contracts/gainzilla.sol\":25289:25316  _isExcludedFromFee[account] */\n      0x20\n      mstore\n      0x40\n      swap1\n      keccak256\n        /* \"contracts/gainzilla.sol\":25289:25324  _isExcludedFromFee[account] = false */\n      dup1\n      sload\n      not(0xff)\n      and\n      swap1\n      sstore\n        /* \"contracts/gainzilla.sol\":25219:25331  function includeInFee(address account) external onlyOwner() {... */\n      jump\t// out\n        /* \"contracts/gainzilla.sol\":3302:3500  function transferOwnership(address newOwner) public virtual onlyOwner {... */\n    tag_308:\n        /* \"contracts/gainzilla.sol\":3076:3082  _owner */\n      and(sub(shl(0xa0, 0x01), 0x01), sload(0x00))\n        /* \"contracts/gainzilla.sol\":818:828  msg.sender */\n      caller\n        /* \"contracts/gainzilla.sol\":3076:3098  _owner == _msgSender() */\n      eq\n        /* \"contracts/gainzilla.sol\":3068:3135  require(_owner == _msgSender(), \"Ownable: caller is not the owner\") */\n      tag_549\n      jumpi\n      mload(0x40)\n      shl(0xe5, 0x461bcd)\n      dup2\n      mstore\n        /* \"#utility.yul\":12252:12254   */\n      0x20\n        /* \"contracts/gainzilla.sol\":3068:3135  require(_owner == _msgSender(), \"Ownable: caller is not the owner\") */\n      0x04\n      dup3\n      add\n        /* \"#utility.yul\":12234:12255   */\n      dup2\n      swap1\n      mstore\n        /* \"#utility.yul\":12271:12289   */\n      0x24\n      dup3\n      add\n        /* \"#utility.yul\":12264:12294   */\n      mstore\n        /* \"#utility.yul\":12330:12364   */\n      0x4f776e61626c653a2063616c6c6572206973206e6f7420746865206f776e6572\n        /* \"#utility.yul\":12310:12328   */\n      0x44\n      dup3\n      add\n        /* \"#utility.yul\":12303:12365   */\n      mstore\n        /* \"#utility.yul\":12382:12400   */\n      0x64\n      add\n        /* \"contracts/gainzilla.sol\":3068:3135  require(_owner == _msgSender(), \"Ownable: caller is not the owner\") */\n      tag_330\n        /* \"#utility.yul\":12224:12406   */\n      jump\n        /* \"contracts/gainzilla.sol\":3068:3135  require(_owner == _msgSender(), \"Ownable: caller is not the owner\") */\n    tag_549:\n      sub(shl(0xa0, 0x01), 0x01)\n        /* \"contracts/gainzilla.sol\":3390:3412  newOwner != address(0) */\n      dup2\n      and\n        /* \"contracts/gainzilla.sol\":3382:3455  require(newOwner != address(0), \"Ownable: new owner is the zero address\") */\n      tag_552\n      jumpi\n      mload(0x40)\n      shl(0xe5, 0x461bcd)\n      dup2\n      mstore\n        /* \"#utility.yul\":9138:9140   */\n      0x20\n        /* \"contracts/gainzilla.sol\":3382:3455  require(newOwner != address(0), \"Ownable: new owner is the zero address\") */\n      0x04\n      dup3\n      add\n        /* \"#utility.yul\":9120:9141   */\n      mstore\n        /* \"#utility.yul\":9177:9179   */\n      0x26\n        /* \"#utility.yul\":9157:9175   */\n      0x24\n      dup3\n      add\n        /* \"#utility.yul\":9150:9180   */\n      mstore\n        /* \"#utility.yul\":9216:9250   */\n      0x4f776e61626c653a206e6577206f776e657220697320746865207a65726f2061\n        /* \"#utility.yul\":9196:9214   */\n      0x44\n      dup3\n      add\n        /* \"#utility.yul\":9189:9251   */\n      mstore\n        /* \"#utility.yul\":9287:9295   */\n      0x6464726573730000000000000000000000000000000000000000000000000000\n        /* \"#utility.yul\":9267:9285   */\n      0x64\n      dup3\n      add\n        /* \"#utility.yul\":9260:9296   */\n      mstore\n        /* \"#utility.yul\":9313:9332   */\n      0x84\n      add\n        /* \"contracts/gainzilla.sol\":3382:3455  require(newOwner != address(0), \"Ownable: new owner is the zero address\") */\n      tag_330\n        /* \"#utility.yul\":9110:9338   */\n      jump\n        /* \"contracts/gainzilla.sol\":3382:3455  require(newOwner != address(0), \"Ownable: new owner is the zero address\") */\n    tag_552:\n        /* \"contracts/gainzilla.sol\":3465:3493  _transferOwnership(newOwner) */\n      tag_409\n        /* \"contracts/gainzilla.sol\":3484:3492  newOwner */\n      dup2\n        /* \"contracts/gainzilla.sol\":3465:3483  _transferOwnership */\n      tag_556\n        /* \"contracts/gainzilla.sol\":3465:3493  _transferOwnership(newOwner) */\n      jump\t// in\n        /* \"contracts/gainzilla.sol\":27017:27855  function setSellTaxes(uint256 marketingFee, uint256 liquidityFee, uint256 teamFee, uint256 ecosystemFee) external onlyOwner() {... */\n    tag_312:\n        /* \"contracts/gainzilla.sol\":3076:3082  _owner */\n      and(sub(shl(0xa0, 0x01), 0x01), sload(0x00))\n        /* \"contracts/gainzilla.sol\":818:828  msg.sender */\n      caller\n        /* \"contracts/gainzilla.sol\":3076:3098  _owner == _msgSender() */\n      eq\n        /* \"contracts/gainzilla.sol\":3068:3135  require(_owner == _msgSender(), \"Ownable: caller is not the owner\") */\n      tag_559\n      jumpi\n      mload(0x40)\n      shl(0xe5, 0x461bcd)\n      dup2\n      mstore\n        /* \"#utility.yul\":12252:12254   */\n      0x20\n        /* \"contracts/gainzilla.sol\":3068:3135  require(_owner == _msgSender(), \"Ownable: caller is not the owner\") */\n      0x04\n      dup3\n      add\n        /* \"#utility.yul\":12234:12255   */\n      dup2\n      swap1\n      mstore\n        /* \"#utility.yul\":12271:12289   */\n      0x24\n      dup3\n      add\n        /* \"#utility.yul\":12264:12294   */\n      mstore\n        /* \"#utility.yul\":12330:12364   */\n      0x4f776e61626c653a2063616c6c6572206973206e6f7420746865206f776e6572\n        /* \"#utility.yul\":12310:12328   */\n      0x44\n      dup3\n      add\n        /* \"#utility.yul\":12303:12365   */\n      mstore\n        /* \"#utility.yul\":12382:12400   */\n      0x64\n      add\n        /* \"contracts/gainzilla.sol\":3068:3135  require(_owner == _msgSender(), \"Ownable: caller is not the owner\") */\n      tag_330\n        /* \"#utility.yul\":12224:12406   */\n      jump\n        /* \"contracts/gainzilla.sol\":3068:3135  require(_owner == _msgSender(), \"Ownable: caller is not the owner\") */\n    tag_559:\n        /* \"contracts/gainzilla.sol\":27153:27169  uint256 totalFee */\n      0x00\n        /* \"contracts/gainzilla.sol\":27172:27233  marketingFee.add(liquidityFee).add(teamFee).add(ecosystemFee) */\n      tag_562\n        /* \"contracts/gainzilla.sol\":27220:27232  ecosystemFee */\n      dup3\n        /* \"contracts/gainzilla.sol\":27172:27215  marketingFee.add(liquidityFee).add(teamFee) */\n      tag_533\n        /* \"contracts/gainzilla.sol\":27207:27214  teamFee */\n      dup6\n        /* \"contracts/gainzilla.sol\":27172:27215  marketingFee.add(liquidityFee).add(teamFee) */\n      dup2\n        /* \"contracts/gainzilla.sol\":27172:27184  marketingFee */\n      dup10\n        /* \"contracts/gainzilla.sol\":27189:27201  liquidityFee */\n      dup10\n        /* \"contracts/gainzilla.sol\":27172:27188  marketingFee.add */\n      tag_534\n        /* \"contracts/gainzilla.sol\":27172:27202  marketingFee.add(liquidityFee) */\n      jump\t// in\n        /* \"contracts/gainzilla.sol\":27172:27233  marketingFee.add(liquidityFee).add(teamFee).add(ecosystemFee) */\n    tag_562:\n        /* \"contracts/gainzilla.sol\":27153:27233  uint256 totalFee = marketingFee.add(liquidityFee).add(teamFee).add(ecosystemFee) */\n      swap1\n      pop\n        /* \"contracts/gainzilla.sol\":27263:27266  250 */\n      0xfa\n        /* \"contracts/gainzilla.sol\":27251:27259  totalFee */\n      dup2\n        /* \"contracts/gainzilla.sol\":27251:27266  totalFee <= 250 */\n      gt\n      iszero\n        /* \"contracts/gainzilla.sol\":27243:27321  require(totalFee <= 250, \"Sum of sell fees must be less than or equal to 25%\") */\n      tag_565\n      jumpi\n      mload(0x40)\n      shl(0xe5, 0x461bcd)\n      dup2\n      mstore\n        /* \"#utility.yul\":11020:11022   */\n      0x20\n        /* \"contracts/gainzilla.sol\":27243:27321  require(totalFee <= 250, \"Sum of sell fees must be less than or equal to 25%\") */\n      0x04\n      dup3\n      add\n        /* \"#utility.yul\":11002:11023   */\n      mstore\n        /* \"#utility.yul\":11059:11061   */\n      0x32\n        /* \"#utility.yul\":11039:11057   */\n      0x24\n      dup3\n      add\n        /* \"#utility.yul\":11032:11062   */\n      mstore\n        /* \"#utility.yul\":11098:11132   */\n      0x53756d206f662073656c6c2066656573206d757374206265206c657373207468\n        /* \"#utility.yul\":11078:11096   */\n      0x44\n      dup3\n      add\n        /* \"#utility.yul\":11071:11133   */\n      mstore\n        /* \"#utility.yul\":11169:11189   */\n      0x616e206f7220657175616c20746f203235250000000000000000000000000000\n        /* \"#utility.yul\":11149:11167   */\n      0x64\n      dup3\n      add\n        /* \"#utility.yul\":11142:11190   */\n      mstore\n        /* \"#utility.yul\":11207:11226   */\n      0x84\n      add\n        /* \"contracts/gainzilla.sol\":27243:27321  require(totalFee <= 250, \"Sum of sell fees must be less than or equal to 25%\") */\n      tag_330\n        /* \"#utility.yul\":10992:11232   */\n      jump\n        /* \"contracts/gainzilla.sol\":27243:27321  require(totalFee <= 250, \"Sum of sell fees must be less than or equal to 25%\") */\n    tag_565:\n        /* \"contracts/gainzilla.sol\":27339:27351  canChangeTax */\n      sload(0x28)\n      0x0100000000\n      swap1\n      div\n      0xff\n      and\n        /* \"contracts/gainzilla.sol\":27331:27380  require(canChangeTax, \"This function is diabled\") */\n      tag_568\n      jumpi\n      mload(0x40)\n      shl(0xe5, 0x461bcd)\n      dup2\n      mstore\n        /* \"#utility.yul\":14255:14257   */\n      0x20\n        /* \"contracts/gainzilla.sol\":27331:27380  require(canChangeTax, \"This function is diabled\") */\n      0x04\n      dup3\n      add\n        /* \"#utility.yul\":14237:14258   */\n      mstore\n        /* \"#utility.yul\":14294:14296   */\n      0x18\n        /* \"#utility.yul\":14274:14292   */\n      0x24\n      dup3\n      add\n        /* \"#utility.yul\":14267:14297   */\n      mstore\n        /* \"#utility.yul\":14333:14359   */\n      0x546869732066756e6374696f6e20697320646961626c65640000000000000000\n        /* \"#utility.yul\":14313:14331   */\n      0x44\n      dup3\n      add\n        /* \"#utility.yul\":14306:14360   */\n      mstore\n        /* \"#utility.yul\":14377:14395   */\n      0x64\n      add\n        /* \"contracts/gainzilla.sol\":27331:27380  require(canChangeTax, \"This function is diabled\") */\n      tag_330\n        /* \"#utility.yul\":14227:14401   */\n      jump\n        /* \"contracts/gainzilla.sol\":27331:27380  require(canChangeTax, \"This function is diabled\") */\n    tag_568:\n        /* \"contracts/gainzilla.sol\":27391:27408  _sellMarketingFee */\n      0x15\n        /* \"contracts/gainzilla.sol\":27391:27423  _sellMarketingFee = marketingFee */\n      dup6\n      swap1\n      sstore\n        /* \"contracts/gainzilla.sol\":27433:27450  _sellLiquidityFee */\n      0x11\n        /* \"contracts/gainzilla.sol\":27433:27465  _sellLiquidityFee = liquidityFee */\n      dup5\n      swap1\n      sstore\n        /* \"contracts/gainzilla.sol\":27475:27487  _sellTeamFee */\n      0x17\n        /* \"contracts/gainzilla.sol\":27475:27497  _sellTeamFee = teamFee */\n      dup4\n      swap1\n      sstore\n        /* \"contracts/gainzilla.sol\":27507:27524  _sellEcosystemFee */\n      0x13\n        /* \"contracts/gainzilla.sol\":27507:27539  _sellEcosystemFee = ecosystemFee */\n      dup3\n      swap1\n      sstore\n        /* \"contracts/gainzilla.sol\":27558:27583  _previousSellMarketingFee */\n      0x16\n        /* \"contracts/gainzilla.sol\":27558:27603  _previousSellMarketingFee = _sellMarketingFee */\n      dup6\n      swap1\n      sstore\n        /* \"contracts/gainzilla.sol\":27613:27638  _previousSellLiquidityFee */\n      0x12\n        /* \"contracts/gainzilla.sol\":27613:27658  _previousSellLiquidityFee = _sellLiquidityFee */\n      dup5\n      swap1\n      sstore\n        /* \"contracts/gainzilla.sol\":27668:27688  _previousSellTeamFee */\n      0x18\n        /* \"contracts/gainzilla.sol\":27668:27703  _previousSellTeamFee = _sellTeamFee */\n      dup4\n      swap1\n      sstore\n        /* \"contracts/gainzilla.sol\":27713:27738  _previousSellEcosystemFee */\n      0x14\n        /* \"contracts/gainzilla.sol\":27713:27758  _previousSellEcosystemFee = _sellEcosystemFee */\n      dup3\n      swap1\n      sstore\n        /* \"contracts/gainzilla.sol\":27782:27848  SellFeesUpdated(marketingFee, liquidityFee, teamFee, ecosystemFee) */\n      0x40\n      dup1\n      mload\n        /* \"#utility.yul\":16733:16758   */\n      dup7\n      dup2\n      mstore\n        /* \"#utility.yul\":16789:16791   */\n      0x20\n        /* \"#utility.yul\":16774:16792   */\n      dup2\n      add\n        /* \"#utility.yul\":16767:16801   */\n      dup7\n      swap1\n      mstore\n        /* \"#utility.yul\":16817:16835   */\n      swap1\n      dup2\n      add\n        /* \"#utility.yul\":16810:16844   */\n      dup5\n      swap1\n      mstore\n        /* \"#utility.yul\":16875:16877   */\n      0x60\n        /* \"#utility.yul\":16860:16878   */\n      dup2\n      add\n        /* \"#utility.yul\":16853:16887   */\n      dup4\n      swap1\n      mstore\n        /* \"contracts/gainzilla.sol\":27782:27848  SellFeesUpdated(marketingFee, liquidityFee, teamFee, ecosystemFee) */\n      0x439932620c72dddea29980c098bca1a482729646d1216b226d723c6d278a30d1\n      swap1\n        /* \"#utility.yul\":16720:16723   */\n      0x80\n        /* \"#utility.yul\":16705:16724   */\n      add\n        /* \"contracts/gainzilla.sol\":27782:27848  SellFeesUpdated(marketingFee, liquidityFee, teamFee, ecosystemFee) */\n      tag_541\n        /* \"#utility.yul\":16687:16893   */\n      jump\n        /* \"contracts/gainzilla.sol\":25442:25608  function addBot(address account) external onlyOwner() {... */\n    tag_320:\n        /* \"contracts/gainzilla.sol\":3076:3082  _owner */\n      and(sub(shl(0xa0, 0x01), 0x01), sload(0x00))\n        /* \"contracts/gainzilla.sol\":818:828  msg.sender */\n      caller\n        /* \"contracts/gainzilla.sol\":3076:3098  _owner == _msgSender() */\n      eq\n        /* \"contracts/gainzilla.sol\":3068:3135  require(_owner == _msgSender(), \"Ownable: caller is not the owner\") */\n      tag_573\n      jumpi\n      mload(0x40)\n      shl(0xe5, 0x461bcd)\n      dup2\n      mstore\n        /* \"#utility.yul\":12252:12254   */\n      0x20\n        /* \"contracts/gainzilla.sol\":3068:3135  require(_owner == _msgSender(), \"Ownable: caller is not the owner\") */\n      0x04\n      dup3\n      add\n        /* \"#utility.yul\":12234:12255   */\n      dup2\n      swap1\n      mstore\n        /* \"#utility.yul\":12271:12289   */\n      0x24\n      dup3\n      add\n        /* \"#utility.yul\":12264:12294   */\n      mstore\n        /* \"#utility.yul\":12330:12364   */\n      0x4f776e61626c653a2063616c6c6572206973206e6f7420746865206f776e6572\n        /* \"#utility.yul\":12310:12328   */\n      0x44\n      dup3\n      add\n        /* \"#utility.yul\":12303:12365   */\n      mstore\n        /* \"#utility.yul\":12382:12400   */\n      0x64\n      add\n        /* \"contracts/gainzilla.sol\":3068:3135  require(_owner == _msgSender(), \"Ownable: caller is not the owner\") */\n      tag_330\n        /* \"#utility.yul\":12224:12406   */\n      jump\n        /* \"contracts/gainzilla.sol\":3068:3135  require(_owner == _msgSender(), \"Ownable: caller is not the owner\") */\n    tag_573:\n        /* \"contracts/gainzilla.sol\":25514:25526  canBlackList */\n      sload(0x28)\n      0x01000000\n      swap1\n      div\n      0xff\n      and\n        /* \"contracts/gainzilla.sol\":25506:25571  require(canBlackList, \"this contract cannot blacklist addresses\") */\n      tag_576\n      jumpi\n      mload(0x40)\n      shl(0xe5, 0x461bcd)\n      dup2\n      mstore\n        /* \"#utility.yul\":13440:13442   */\n      0x20\n        /* \"contracts/gainzilla.sol\":25506:25571  require(canBlackList, \"this contract cannot blacklist addresses\") */\n      0x04\n      dup3\n      add\n        /* \"#utility.yul\":13422:13443   */\n      mstore\n        /* \"#utility.yul\":13479:13481   */\n      0x28\n        /* \"#utility.yul\":13459:13477   */\n      0x24\n      dup3\n      add\n        /* \"#utility.yul\":13452:13482   */\n      mstore\n        /* \"#utility.yul\":13518:13552   */\n      0x7468697320636f6e74726163742063616e6e6f7420626c61636b6c6973742061\n        /* \"#utility.yul\":13498:13516   */\n      0x44\n      dup3\n      add\n        /* \"#utility.yul\":13491:13553   */\n      mstore\n        /* \"#utility.yul\":13589:13599   */\n      0x6464726573736573000000000000000000000000000000000000000000000000\n        /* \"#utility.yul\":13569:13587   */\n      0x64\n      dup3\n      add\n        /* \"#utility.yul\":13562:13600   */\n      mstore\n        /* \"#utility.yul\":13617:13636   */\n      0x84\n      add\n        /* \"contracts/gainzilla.sol\":25506:25571  require(canBlackList, \"this contract cannot blacklist addresses\") */\n      tag_330\n        /* \"#utility.yul\":13412:13642   */\n      jump\n        /* \"contracts/gainzilla.sol\":25506:25571  require(canBlackList, \"this contract cannot blacklist addresses\") */\n    tag_576:\n      sub(shl(0xa0, 0x01), 0x01)\n        /* \"contracts/gainzilla.sol\":25581:25594  bots[account] */\n      and\n      0x00\n      swap1\n      dup2\n      mstore\n        /* \"contracts/gainzilla.sol\":25581:25585  bots */\n      0x20\n        /* \"contracts/gainzilla.sol\":25581:25594  bots[account] */\n      dup1\n      mstore\n      0x40\n      swap1\n      keccak256\n        /* \"contracts/gainzilla.sol\":25581:25601  bots[account] = true */\n      dup1\n      sload\n      not(0xff)\n      and\n        /* \"contracts/gainzilla.sol\":25597:25601  true */\n      0x01\n        /* \"contracts/gainzilla.sol\":25581:25601  bots[account] = true */\n      or\n      swap1\n      sstore\n        /* \"contracts/gainzilla.sol\":25442:25608  function addBot(address account) external onlyOwner() {... */\n      jump\t// out\n        /* \"contracts/gainzilla.sol\":14904:15234  function _approve(address owner, address spender, uint256 amount) private {... */\n    tag_326:\n      sub(shl(0xa0, 0x01), 0x01)\n        /* \"contracts/gainzilla.sol\":14996:15015  owner != address(0) */\n      dup4\n      and\n        /* \"contracts/gainzilla.sol\":14988:15056  require(owner != address(0), \"ERC20: approve from the zero address\") */\n      tag_581\n      jumpi\n      mload(0x40)\n      shl(0xe5, 0x461bcd)\n      dup2\n      mstore\n        /* \"#utility.yul\":14608:14610   */\n      0x20\n        /* \"contracts/gainzilla.sol\":14988:15056  require(owner != address(0), \"ERC20: approve from the zero address\") */\n      0x04\n      dup3\n      add\n        /* \"#utility.yul\":14590:14611   */\n      mstore\n        /* \"#utility.yul\":14647:14649   */\n      0x24\n        /* \"#utility.yul\":14627:14645   */\n      dup1\n      dup3\n      add\n        /* \"#utility.yul\":14620:14650   */\n      mstore\n        /* \"#utility.yul\":14686:14720   */\n      0x45524332303a20617070726f76652066726f6d20746865207a65726f20616464\n        /* \"#utility.yul\":14666:14684   */\n      0x44\n      dup3\n      add\n        /* \"#utility.yul\":14659:14721   */\n      mstore\n        /* \"#utility.yul\":14757:14763   */\n      0x7265737300000000000000000000000000000000000000000000000000000000\n        /* \"#utility.yul\":14737:14755   */\n      0x64\n      dup3\n      add\n        /* \"#utility.yul\":14730:14764   */\n      mstore\n        /* \"#utility.yul\":14781:14800   */\n      0x84\n      add\n        /* \"contracts/gainzilla.sol\":14988:15056  require(owner != address(0), \"ERC20: approve from the zero address\") */\n      tag_330\n        /* \"#utility.yul\":14580:14806   */\n      jump\n        /* \"contracts/gainzilla.sol\":14988:15056  require(owner != address(0), \"ERC20: approve from the zero address\") */\n    tag_581:\n      sub(shl(0xa0, 0x01), 0x01)\n        /* \"contracts/gainzilla.sol\":15074:15095  spender != address(0) */\n      dup3\n      and\n        /* \"contracts/gainzilla.sol\":15066:15134  require(spender != address(0), \"ERC20: approve to the zero address\") */\n      tag_584\n      jumpi\n      mload(0x40)\n      shl(0xe5, 0x461bcd)\n      dup2\n      mstore\n        /* \"#utility.yul\":9545:9547   */\n      0x20\n        /* \"contracts/gainzilla.sol\":15066:15134  require(spender != address(0), \"ERC20: approve to the zero address\") */\n      0x04\n      dup3\n      add\n        /* \"#utility.yul\":9527:9548   */\n      mstore\n        /* \"#utility.yul\":9584:9586   */\n      0x22\n        /* \"#utility.yul\":9564:9582   */\n      0x24\n      dup3\n      add\n        /* \"#utility.yul\":9557:9587   */\n      mstore\n        /* \"#utility.yul\":9623:9657   */\n      0x45524332303a20617070726f766520746f20746865207a65726f206164647265\n        /* \"#utility.yul\":9603:9621   */\n      0x44\n      dup3\n      add\n        /* \"#utility.yul\":9596:9658   */\n      mstore\n        /* \"#utility.yul\":9694:9698   */\n      0x7373000000000000000000000000000000000000000000000000000000000000\n        /* \"#utility.yul\":9674:9692   */\n      0x64\n      dup3\n      add\n        /* \"#utility.yul\":9667:9699   */\n      mstore\n        /* \"#utility.yul\":9716:9735   */\n      0x84\n      add\n        /* \"contracts/gainzilla.sol\":15066:15134  require(spender != address(0), \"ERC20: approve to the zero address\") */\n      tag_330\n        /* \"#utility.yul\":9517:9741   */\n      jump\n        /* \"contracts/gainzilla.sol\":15066:15134  require(spender != address(0), \"ERC20: approve to the zero address\") */\n    tag_584:\n      sub(shl(0xa0, 0x01), 0x01)\n        /* \"contracts/gainzilla.sol\":15144:15162  _allowances[owner] */\n      dup4\n      dup2\n      and\n      0x00\n      dup2\n      dup2\n      mstore\n        /* \"contracts/gainzilla.sol\":15144:15155  _allowances */\n      0x03\n        /* \"contracts/gainzilla.sol\":15144:15162  _allowances[owner] */\n      0x20\n      swap1\n      dup2\n      mstore\n      0x40\n      dup1\n      dup4\n      keccak256\n        /* \"contracts/gainzilla.sol\":15144:15171  _allowances[owner][spender] */\n      swap5\n      dup8\n      and\n      dup1\n      dup5\n      mstore\n      swap5\n      dup3\n      mstore\n      swap2\n      dup3\n      swap1\n      keccak256\n        /* \"contracts/gainzilla.sol\":15144:15180  _allowances[owner][spender] = amount */\n      dup6\n      swap1\n      sstore\n        /* \"contracts/gainzilla.sol\":15195:15227  Approval(owner, spender, amount) */\n      swap1\n      mload\n        /* \"#utility.yul\":6702:6727   */\n      dup5\n      dup2\n      mstore\n        /* \"contracts/gainzilla.sol\":15195:15227  Approval(owner, spender, amount) */\n      0x8c5be1e5ebec7d5bd14f71427d1e84f3dd0314c0f7b2291e5b200ac8c7c3b925\n      swap2\n        /* \"#utility.yul\":6675:6693   */\n      add\n        /* \"contracts/gainzilla.sol\":15195:15227  Approval(owner, spender, amount) */\n      mload(0x40)\n      dup1\n      swap2\n      sub\n      swap1\n      log3\n        /* \"contracts/gainzilla.sol\":14904:15234  function _approve(address owner, address spender, uint256 amount) private {... */\n      pop\n      pop\n      pop\n      jump\t// out\n        /* \"contracts/gainzilla.sol\":15244:18451  function _transfer(address from, address to, uint256 amount) private {... */\n    tag_341:\n      sub(shl(0xa0, 0x01), 0x01)\n        /* \"contracts/gainzilla.sol\":15331:15349  from != address(0) */\n      dup4\n      and\n        /* \"contracts/gainzilla.sol\":15323:15391  require(from != address(0), \"ERC20: transfer from the zero address\") */\n      tag_589\n      jumpi\n      mload(0x40)\n      shl(0xe5, 0x461bcd)\n      dup2\n      mstore\n        /* \"#utility.yul\":13849:13851   */\n      0x20\n        /* \"contracts/gainzilla.sol\":15323:15391  require(from != address(0), \"ERC20: transfer from the zero address\") */\n      0x04\n      dup3\n      add\n        /* \"#utility.yul\":13831:13852   */\n      mstore\n        /* \"#utility.yul\":13888:13890   */\n      0x25\n        /* \"#utility.yul\":13868:13886   */\n      0x24\n      dup3\n      add\n        /* \"#utility.yul\":13861:13891   */\n      mstore\n        /* \"#utility.yul\":13927:13961   */\n      0x45524332303a207472616e736665722066726f6d20746865207a65726f206164\n        /* \"#utility.yul\":13907:13925   */\n      0x44\n      dup3\n      add\n        /* \"#utility.yul\":13900:13962   */\n      mstore\n        /* \"#utility.yul\":13998:14005   */\n      0x6472657373000000000000000000000000000000000000000000000000000000\n        /* \"#utility.yul\":13978:13996   */\n      0x64\n      dup3\n      add\n        /* \"#utility.yul\":13971:14006   */\n      mstore\n        /* \"#utility.yul\":14023:14042   */\n      0x84\n      add\n        /* \"contracts/gainzilla.sol\":15323:15391  require(from != address(0), \"ERC20: transfer from the zero address\") */\n      tag_330\n        /* \"#utility.yul\":13821:14048   */\n      jump\n        /* \"contracts/gainzilla.sol\":15323:15391  require(from != address(0), \"ERC20: transfer from the zero address\") */\n    tag_589:\n      sub(shl(0xa0, 0x01), 0x01)\n        /* \"contracts/gainzilla.sol\":15409:15425  to != address(0) */\n      dup3\n      and\n        /* \"contracts/gainzilla.sol\":15401:15465  require(to != address(0), \"ERC20: transfer to the zero address\") */\n      tag_592\n      jumpi\n      mload(0x40)\n      shl(0xe5, 0x461bcd)\n      dup2\n      mstore\n        /* \"#utility.yul\":7966:7968   */\n      0x20\n        /* \"contracts/gainzilla.sol\":15401:15465  require(to != address(0), \"ERC20: transfer to the zero address\") */\n      0x04\n      dup3\n      add\n        /* \"#utility.yul\":7948:7969   */\n      mstore\n        /* \"#utility.yul\":8005:8007   */\n      0x23\n        /* \"#utility.yul\":7985:8003   */\n      0x24\n      dup3\n      add\n        /* \"#utility.yul\":7978:8008   */\n      mstore\n        /* \"#utility.yul\":8044:8078   */\n      0x45524332303a207472616e7366657220746f20746865207a65726f2061646472\n        /* \"#utility.yul\":8024:8042   */\n      0x44\n      dup3\n      add\n        /* \"#utility.yul\":8017:8079   */\n      mstore\n        /* \"#utility.yul\":8115:8120   */\n      0x6573730000000000000000000000000000000000000000000000000000000000\n        /* \"#utility.yul\":8095:8113   */\n      0x64\n      dup3\n      add\n        /* \"#utility.yul\":8088:8121   */\n      mstore\n        /* \"#utility.yul\":8138:8157   */\n      0x84\n      add\n        /* \"contracts/gainzilla.sol\":15401:15465  require(to != address(0), \"ERC20: transfer to the zero address\") */\n      tag_330\n        /* \"#utility.yul\":7938:8163   */\n      jump\n        /* \"contracts/gainzilla.sol\":15401:15465  require(to != address(0), \"ERC20: transfer to the zero address\") */\n    tag_592:\n        /* \"contracts/gainzilla.sol\":15492:15493  0 */\n      0x00\n        /* \"contracts/gainzilla.sol\":15483:15489  amount */\n      dup2\n        /* \"contracts/gainzilla.sol\":15483:15493  amount > 0 */\n      gt\n        /* \"contracts/gainzilla.sol\":15475:15539  require(amount > 0, \"Transfer amount must be greater than zero\") */\n      tag_595\n      jumpi\n      mload(0x40)\n      shl(0xe5, 0x461bcd)\n      dup2\n      mstore\n        /* \"#utility.yul\":12613:12615   */\n      0x20\n        /* \"contracts/gainzilla.sol\":15475:15539  require(amount > 0, \"Transfer amount must be greater than zero\") */\n      0x04\n      dup3\n      add\n        /* \"#utility.yul\":12595:12616   */\n      mstore\n        /* \"#utility.yul\":12652:12654   */\n      0x29\n        /* \"#utility.yul\":12632:12650   */\n      0x24\n      dup3\n      add\n        /* \"#utility.yul\":12625:12655   */\n      mstore\n        /* \"#utility.yul\":12691:12725   */\n      0x5472616e7366657220616d6f756e74206d757374206265206772656174657220\n        /* \"#utility.yul\":12671:12689   */\n      0x44\n      dup3\n      add\n        /* \"#utility.yul\":12664:12726   */\n      mstore\n        /* \"#utility.yul\":12762:12773   */\n      0x7468616e207a65726f0000000000000000000000000000000000000000000000\n        /* \"#utility.yul\":12742:12760   */\n      0x64\n      dup3\n      add\n        /* \"#utility.yul\":12735:12774   */\n      mstore\n        /* \"#utility.yul\":12791:12810   */\n      0x84\n      add\n        /* \"contracts/gainzilla.sol\":15475:15539  require(amount > 0, \"Transfer amount must be greater than zero\") */\n      tag_330\n        /* \"#utility.yul\":12585:12816   */\n      jump\n        /* \"contracts/gainzilla.sol\":15475:15539  require(amount > 0, \"Transfer amount must be greater than zero\") */\n    tag_595:\n        /* \"contracts/gainzilla.sol\":15565:15569  true */\n      0x01\n        /* \"contracts/gainzilla.sol\":15592:15599  owner() */\n      tag_598\n        /* \"contracts/gainzilla.sol\":2992:2999  address */\n      0x00\n        /* \"contracts/gainzilla.sol\":3018:3024  _owner */\n      sload\n      sub(shl(0xa0, 0x01), 0x01)\n      and\n      swap1\n        /* \"contracts/gainzilla.sol\":2954:3031  function owner() public view returns (address) {... */\n      jump\n        /* \"contracts/gainzilla.sol\":15592:15599  owner() */\n    tag_598:\n      sub(shl(0xa0, 0x01), 0x01)\n        /* \"contracts/gainzilla.sol\":15584:15599  from != owner() */\n      and\n        /* \"contracts/gainzilla.sol\":15584:15588  from */\n      dup5\n      sub(shl(0xa0, 0x01), 0x01)\n        /* \"contracts/gainzilla.sol\":15584:15599  from != owner() */\n      and\n      eq\n      iszero\n        /* \"contracts/gainzilla.sol\":15584:15616  from != owner() && to != owner() */\n      dup1\n      iszero\n      tag_599\n      jumpi\n      pop\n        /* \"contracts/gainzilla.sol\":2992:2999  address */\n      0x00\n        /* \"contracts/gainzilla.sol\":3018:3024  _owner */\n      sload\n      sub(shl(0xa0, 0x01), 0x01)\n        /* \"contracts/gainzilla.sol\":15603:15616  to != owner() */\n      dup5\n      dup2\n      and\n        /* \"contracts/gainzilla.sol\":3018:3024  _owner */\n      swap2\n      and\n        /* \"contracts/gainzilla.sol\":15603:15616  to != owner() */\n      eq\n      iszero\n        /* \"contracts/gainzilla.sol\":15584:15616  from != owner() && to != owner() */\n    tag_599:\n        /* \"contracts/gainzilla.sol\":15584:15641  from != owner() && to != owner() && from != address(this) */\n      dup1\n      iszero\n      tag_601\n      jumpi\n      pop\n      sub(shl(0xa0, 0x01), 0x01)\n        /* \"contracts/gainzilla.sol\":15620:15641  from != address(this) */\n      dup5\n      and\n        /* \"contracts/gainzilla.sol\":15636:15640  this */\n      address\n        /* \"contracts/gainzilla.sol\":15620:15641  from != address(this) */\n      eq\n      iszero\n        /* \"contracts/gainzilla.sol\":15584:15641  from != owner() && to != owner() && from != address(this) */\n    tag_601:\n        /* \"contracts/gainzilla.sol\":15584:15664  from != owner() && to != owner() && from != address(this) && to != address(this) */\n      dup1\n      iszero\n      tag_602\n      jumpi\n      pop\n      sub(shl(0xa0, 0x01), 0x01)\n        /* \"contracts/gainzilla.sol\":15645:15664  to != address(this) */\n      dup4\n      and\n        /* \"contracts/gainzilla.sol\":15659:15663  this */\n      address\n        /* \"contracts/gainzilla.sol\":15645:15664  to != address(this) */\n      eq\n      iszero\n        /* \"contracts/gainzilla.sol\":15584:15664  from != owner() && to != owner() && from != address(this) && to != address(this) */\n    tag_602:\n        /* \"contracts/gainzilla.sol\":15580:18279  if (from != owner() && to != owner() && from != address(this) && to != address(this)) {... */\n      iszero\n      tag_658\n      jumpi\n        /* \"contracts/gainzilla.sol\":15688:15699  tradingOpen */\n      and(0xff, sload(0x28))\n        /* \"contracts/gainzilla.sol\":15680:15725  require(tradingOpen, \"Trading is not active\") */\n      tag_604\n      jumpi\n      mload(0x40)\n      shl(0xe5, 0x461bcd)\n      dup2\n      mstore\n        /* \"#utility.yul\":8788:8790   */\n      0x20\n        /* \"contracts/gainzilla.sol\":15680:15725  require(tradingOpen, \"Trading is not active\") */\n      0x04\n      dup3\n      add\n        /* \"#utility.yul\":8770:8791   */\n      mstore\n        /* \"#utility.yul\":8827:8829   */\n      0x15\n        /* \"#utility.yul\":8807:8825   */\n      0x24\n      dup3\n      add\n        /* \"#utility.yul\":8800:8830   */\n      mstore\n        /* \"#utility.yul\":8866:8889   */\n      0x54726164696e67206973206e6f74206163746976650000000000000000000000\n        /* \"#utility.yul\":8846:8864   */\n      0x44\n      dup3\n      add\n        /* \"#utility.yul\":8839:8890   */\n      mstore\n        /* \"#utility.yul\":8907:8925   */\n      0x64\n      add\n        /* \"contracts/gainzilla.sol\":15680:15725  require(tradingOpen, \"Trading is not active\") */\n      tag_330\n        /* \"#utility.yul\":8760:8931   */\n      jump\n        /* \"contracts/gainzilla.sol\":15680:15725  require(tradingOpen, \"Trading is not active\") */\n    tag_604:\n        /* \"contracts/gainzilla.sol\":15751:15764  uniswapV2Pair */\n      sload(0x26)\n      sub(shl(0xa0, 0x01), 0x01)\n        /* \"contracts/gainzilla.sol\":15743:15764  from == uniswapV2Pair */\n      dup6\n      dup2\n      and\n        /* \"contracts/gainzilla.sol\":15751:15764  uniswapV2Pair */\n      swap2\n      and\n        /* \"contracts/gainzilla.sol\":15743:15764  from == uniswapV2Pair */\n      eq\n        /* \"contracts/gainzilla.sol\":15743:15798  from == uniswapV2Pair && to != address(uniswapV2Router) */\n      dup1\n      iszero\n      tag_607\n      jumpi\n      pop\n        /* \"contracts/gainzilla.sol\":15782:15797  uniswapV2Router */\n      sload(0x25)\n      sub(shl(0xa0, 0x01), 0x01)\n        /* \"contracts/gainzilla.sol\":15768:15798  to != address(uniswapV2Router) */\n      dup5\n      dup2\n      and\n        /* \"contracts/gainzilla.sol\":15782:15797  uniswapV2Router */\n      swap2\n      and\n        /* \"contracts/gainzilla.sol\":15768:15798  to != address(uniswapV2Router) */\n      eq\n      iszero\n        /* \"contracts/gainzilla.sol\":15743:15798  from == uniswapV2Pair && to != address(uniswapV2Router) */\n    tag_607:\n        /* \"contracts/gainzilla.sol\":15739:16159  if (from == uniswapV2Pair && to != address(uniswapV2Router)) {//buys... */\n      iszero\n      tag_614\n      jumpi\n        /* \"contracts/gainzilla.sol\":15864:15874  _botBlocks */\n      sload(0x06)\n        /* \"contracts/gainzilla.sol\":15848:15859  _firstBlock */\n      sload(0x05)\n        /* \"contracts/gainzilla.sol\":15848:15875  _firstBlock.add(_botBlocks) */\n      tag_609\n      swap2\n        /* \"contracts/gainzilla.sol\":15848:15863  _firstBlock.add */\n      tag_534\n        /* \"contracts/gainzilla.sol\":15848:15875  _firstBlock.add(_botBlocks) */\n      jump\t// in\n    tag_609:\n        /* \"contracts/gainzilla.sol\":15829:15844  block.timestamp */\n      timestamp\n        /* \"contracts/gainzilla.sol\":15829:15875  block.timestamp <= _firstBlock.add(_botBlocks) */\n      gt\n        /* \"contracts/gainzilla.sol\":15825:15933  if (block.timestamp <= _firstBlock.add(_botBlocks)) {... */\n      tag_610\n      jumpi\n      sub(shl(0xa0, 0x01), 0x01)\n        /* \"contracts/gainzilla.sol\":15899:15907  bots[to] */\n      dup4\n      and\n      0x00\n      swap1\n      dup2\n      mstore\n        /* \"contracts/gainzilla.sol\":15899:15903  bots */\n      0x20\n        /* \"contracts/gainzilla.sol\":15899:15907  bots[to] */\n      dup1\n      mstore\n      0x40\n      swap1\n      keccak256\n        /* \"contracts/gainzilla.sol\":15899:15914  bots[to] = true */\n      dup1\n      sload\n      not(0xff)\n      and\n        /* \"contracts/gainzilla.sol\":15910:15914  true */\n      0x01\n        /* \"contracts/gainzilla.sol\":15899:15914  bots[to] = true */\n      or\n      swap1\n      sstore\n        /* \"contracts/gainzilla.sol\":15825:15933  if (block.timestamp <= _firstBlock.add(_botBlocks)) {... */\n    tag_610:\n      sub(shl(0xa0, 0x01), 0x01)\n        /* \"contracts/gainzilla.sol\":15956:15978  _isExcludedFromFee[to] */\n      dup4\n      and\n      0x00\n      swap1\n      dup2\n      mstore\n        /* \"contracts/gainzilla.sol\":15956:15974  _isExcludedFromFee */\n      0x04\n        /* \"contracts/gainzilla.sol\":15956:15978  _isExcludedFromFee[to] */\n      0x20\n      mstore\n      0x40\n      swap1\n      keccak256\n      sload\n      0xff\n      and\n        /* \"contracts/gainzilla.sol\":15951:16145  if (!_isExcludedFromFee[to]) {... */\n      tag_614\n      jumpi\n        /* \"contracts/gainzilla.sol\":16039:16055  _maxWalletAmount */\n      sload(0x07)\n        /* \"contracts/gainzilla.sol\":16010:16035  balanceOf(to).add(amount) */\n      tag_612\n        /* \"contracts/gainzilla.sol\":16028:16034  amount */\n      dup4\n        /* \"contracts/gainzilla.sol\":16010:16023  balanceOf(to) */\n      tag_533\n        /* \"contracts/gainzilla.sol\":16020:16022  to */\n      dup7\n      sub(shl(0xa0, 0x01), 0x01)\n        /* \"contracts/gainzilla.sol\":12793:12811  _balances[account] */\n      and\n        /* \"contracts/gainzilla.sol\":12767:12774  uint256 */\n      0x00\n        /* \"contracts/gainzilla.sol\":12793:12811  _balances[account] */\n      swap1\n      dup2\n      mstore\n        /* \"contracts/gainzilla.sol\":12793:12802  _balances */\n      0x02\n        /* \"contracts/gainzilla.sol\":12793:12811  _balances[account] */\n      0x20\n      mstore\n      0x40\n      swap1\n      keccak256\n      sload\n      swap1\n        /* \"contracts/gainzilla.sol\":12701:12818  function balanceOf(address account) public view override returns (uint256) {... */\n      jump\n        /* \"contracts/gainzilla.sol\":16010:16035  balanceOf(to).add(amount) */\n    tag_612:\n        /* \"contracts/gainzilla.sol\":16010:16055  balanceOf(to).add(amount) <= _maxWalletAmount */\n      gt\n      iszero\n        /* \"contracts/gainzilla.sol\":16002:16126  require(balanceOf(to).add(amount) <= _maxWalletAmount, \".wallet balance after transfer must be less than max wallet amount\") */\n      tag_614\n      jumpi\n      mload(0x40)\n      shl(0xe5, 0x461bcd)\n      dup2\n      mstore\n        /* \"#utility.yul\":15013:15015   */\n      0x20\n        /* \"contracts/gainzilla.sol\":16002:16126  require(balanceOf(to).add(amount) <= _maxWalletAmount, \".wallet balance after transfer must be less than max wallet amount\") */\n      0x04\n      dup3\n      add\n        /* \"#utility.yul\":14995:15016   */\n      mstore\n        /* \"#utility.yul\":15052:15054   */\n      0x42\n        /* \"#utility.yul\":15032:15050   */\n      0x24\n      dup3\n      add\n        /* \"#utility.yul\":15025:15055   */\n      mstore\n        /* \"#utility.yul\":15091:15125   */\n      0x2e77616c6c65742062616c616e6365206166746572207472616e73666572206d\n        /* \"#utility.yul\":15071:15089   */\n      0x44\n      dup3\n      add\n        /* \"#utility.yul\":15064:15126   */\n      mstore\n        /* \"#utility.yul\":15162:15196   */\n      0x757374206265206c657373207468616e206d61782077616c6c657420616d6f75\n        /* \"#utility.yul\":15142:15160   */\n      0x64\n      dup3\n      add\n        /* \"#utility.yul\":15135:15197   */\n      mstore\n        /* \"#utility.yul\":15234:15238   */\n      0x6e74000000000000000000000000000000000000000000000000000000000000\n        /* \"#utility.yul\":15213:15232   */\n      0x84\n      dup3\n      add\n        /* \"#utility.yul\":15206:15239   */\n      mstore\n        /* \"#utility.yul\":15256:15275   */\n      0xa4\n      add\n        /* \"contracts/gainzilla.sol\":16002:16126  require(balanceOf(to).add(amount) <= _maxWalletAmount, \".wallet balance after transfer must be less than max wallet amount\") */\n      tag_330\n        /* \"#utility.yul\":14985:15281   */\n      jump\n        /* \"contracts/gainzilla.sol\":16002:16126  require(balanceOf(to).add(amount) <= _maxWalletAmount, \".wallet balance after transfer must be less than max wallet amount\") */\n    tag_614:\n        /* \"contracts/gainzilla.sol\":16190:16196  inSwap */\n      sload(0x28)\n      0x0100\n      swap1\n      div\n      0xff\n      and\n        /* \"contracts/gainzilla.sol\":16189:16196  !inSwap */\n      iszero\n        /* \"contracts/gainzilla.sol\":16189:16221  !inSwap && from != uniswapV2Pair */\n      dup1\n      iszero\n      tag_617\n      jumpi\n      pop\n        /* \"contracts/gainzilla.sol\":16208:16221  uniswapV2Pair */\n      sload(0x26)\n      sub(shl(0xa0, 0x01), 0x01)\n        /* \"contracts/gainzilla.sol\":16200:16221  from != uniswapV2Pair */\n      dup6\n      dup2\n      and\n        /* \"contracts/gainzilla.sol\":16208:16221  uniswapV2Pair */\n      swap2\n      and\n        /* \"contracts/gainzilla.sol\":16200:16221  from != uniswapV2Pair */\n      eq\n      iszero\n        /* \"contracts/gainzilla.sol\":16189:16221  !inSwap && from != uniswapV2Pair */\n    tag_617:\n        /* \"contracts/gainzilla.sol\":16189:16244  !inSwap && from != uniswapV2Pair && to == uniswapV2Pair */\n      dup1\n      iszero\n      tag_618\n      jumpi\n      pop\n        /* \"contracts/gainzilla.sol\":16231:16244  uniswapV2Pair */\n      sload(0x26)\n      sub(shl(0xa0, 0x01), 0x01)\n        /* \"contracts/gainzilla.sol\":16225:16244  to == uniswapV2Pair */\n      dup5\n      dup2\n      and\n        /* \"contracts/gainzilla.sol\":16231:16244  uniswapV2Pair */\n      swap2\n      and\n        /* \"contracts/gainzilla.sol\":16225:16244  to == uniswapV2Pair */\n      eq\n        /* \"contracts/gainzilla.sol\":16189:16244  !inSwap && from != uniswapV2Pair && to == uniswapV2Pair */\n    tag_618:\n        /* \"contracts/gainzilla.sol\":16185:17951  if (!inSwap && from != uniswapV2Pair && to == uniswapV2Pair) { //sells... */\n      iszero\n      tag_619\n      jumpi\n      sub(shl(0xa0, 0x01), 0x01)\n        /* \"contracts/gainzilla.sol\":16281:16291  bots[from] */\n      dup5\n      and\n      0x00\n      swap1\n      dup2\n      mstore\n        /* \"contracts/gainzilla.sol\":16281:16285  bots */\n      0x20\n        /* \"contracts/gainzilla.sol\":16281:16291  bots[from] */\n      dup1\n      mstore\n      0x40\n      swap1\n      keccak256\n      sload\n      0xff\n      and\n        /* \"contracts/gainzilla.sol\":16280:16291  !bots[from] */\n      iszero\n        /* \"contracts/gainzilla.sol\":16280:16304  !bots[from] && !bots[to] */\n      dup1\n      iszero\n      tag_620\n      jumpi\n      pop\n      sub(shl(0xa0, 0x01), 0x01)\n        /* \"contracts/gainzilla.sol\":16296:16304  bots[to] */\n      dup4\n      and\n      0x00\n      swap1\n      dup2\n      mstore\n        /* \"contracts/gainzilla.sol\":16296:16300  bots */\n      0x20\n        /* \"contracts/gainzilla.sol\":16296:16304  bots[to] */\n      dup1\n      mstore\n      0x40\n      swap1\n      keccak256\n      sload\n      0xff\n      and\n        /* \"contracts/gainzilla.sol\":16295:16304  !bots[to] */\n      iszero\n        /* \"contracts/gainzilla.sol\":16280:16304  !bots[from] && !bots[to] */\n    tag_620:\n        /* \"contracts/gainzilla.sol\":16272:16305  require(!bots[from] && !bots[to]) */\n      tag_621\n      jumpi\n      0x00\n      dup1\n      revert\n    tag_621:\n        /* \"contracts/gainzilla.sol\":16373:16381  cooldown */\n      0x1a\n        /* \"contracts/gainzilla.sol\":16373:16389  cooldown.enabled */\n      sload\n      0xff\n      and\n        /* \"contracts/gainzilla.sol\":16369:16602  if (cooldown.enabled) {... */\n      iszero\n      tag_622\n      jumpi\n      sub(shl(0xa0, 0x01), 0x01)\n        /* \"contracts/gainzilla.sol\":16440:16465  cooldown.walletList[from] */\n      dup5\n      and\n      0x00\n      swap1\n      dup2\n      mstore\n        /* \"contracts/gainzilla.sol\":16440:16459  cooldown.walletList */\n      0x1b\n        /* \"contracts/gainzilla.sol\":16440:16465  cooldown.walletList[from] */\n      0x20\n      mstore\n      0x40\n      swap1\n      keccak256\n      sload\n        /* \"contracts/gainzilla.sol\":16421:16436  block.timestamp */\n      timestamp\n        /* \"contracts/gainzilla.sol\":16421:16465  block.timestamp >= cooldown.walletList[from] */\n      lt\n      iszero\n        /* \"contracts/gainzilla.sol\":16413:16498  require(block.timestamp >= cooldown.walletList[from], \"Strong Hands Protocol active\") */\n      tag_623\n      jumpi\n      mload(0x40)\n      shl(0xe5, 0x461bcd)\n      dup2\n      mstore\n        /* \"#utility.yul\":9948:9950   */\n      0x20\n        /* \"contracts/gainzilla.sol\":16413:16498  require(block.timestamp >= cooldown.walletList[from], \"Strong Hands Protocol active\") */\n      0x04\n      dup3\n      add\n        /* \"#utility.yul\":9930:9951   */\n      mstore\n        /* \"#utility.yul\":9987:9989   */\n      0x1c\n        /* \"#utility.yul\":9967:9985   */\n      0x24\n      dup3\n      add\n        /* \"#utility.yul\":9960:9990   */\n      mstore\n        /* \"#utility.yul\":10026:10056   */\n      0x5374726f6e672048616e64732050726f746f636f6c2061637469766500000000\n        /* \"#utility.yul\":10006:10024   */\n      0x44\n      dup3\n      add\n        /* \"#utility.yul\":9999:10057   */\n      mstore\n        /* \"#utility.yul\":10074:10092   */\n      0x64\n      add\n        /* \"contracts/gainzilla.sol\":16413:16498  require(block.timestamp >= cooldown.walletList[from], \"Strong Hands Protocol active\") */\n      tag_330\n        /* \"#utility.yul\":9920:10098   */\n      jump\n        /* \"contracts/gainzilla.sol\":16413:16498  require(block.timestamp >= cooldown.walletList[from], \"Strong Hands Protocol active\") */\n    tag_623:\n        /* \"contracts/gainzilla.sol\":16566:16574  cooldown */\n      0x1a\n        /* \"contracts/gainzilla.sol\":16566:16583  cooldown.duration */\n      sload\n        /* \"contracts/gainzilla.sol\":16548:16583  block.timestamp + cooldown.duration */\n      tag_626\n      swap1\n        /* \"contracts/gainzilla.sol\":16566:16583  cooldown.duration */\n      0x0100\n      swap1\n      div\n      0xffffffff\n      and\n        /* \"contracts/gainzilla.sol\":16548:16563  block.timestamp */\n      timestamp\n        /* \"contracts/gainzilla.sol\":16548:16583  block.timestamp + cooldown.duration */\n      tag_627\n      jump\t// in\n    tag_626:\n      sub(shl(0xa0, 0x01), 0x01)\n        /* \"contracts/gainzilla.sol\":16520:16545  cooldown.walletList[from] */\n      dup6\n      and\n      0x00\n      swap1\n      dup2\n      mstore\n        /* \"contracts/gainzilla.sol\":16520:16539  cooldown.walletList */\n      0x1b\n        /* \"contracts/gainzilla.sol\":16520:16545  cooldown.walletList[from] */\n      0x20\n      mstore\n      0x40\n      swap1\n      keccak256\n        /* \"contracts/gainzilla.sol\":16520:16583  cooldown.walletList[from] = block.timestamp + cooldown.duration */\n      sstore\n        /* \"contracts/gainzilla.sol\":16369:16602  if (cooldown.enabled) {... */\n    tag_622:\n        /* \"contracts/gainzilla.sol\":16663:16675  diamondFloor */\n      0x1c\n        /* \"contracts/gainzilla.sol\":16663:16683  diamondFloor.enabled */\n      sload\n      0xff\n      and\n        /* \"contracts/gainzilla.sol\":16659:16839  if (diamondFloor.enabled) {... */\n      iszero\n      tag_632\n      jumpi\n        /* \"contracts/gainzilla.sol\":16716:16740  diamondFloor.sellStopped */\n      and(0xff, sload(0x1e))\n        /* \"contracts/gainzilla.sol\":16715:16740  !diamondFloor.sellStopped */\n      iszero\n        /* \"contracts/gainzilla.sol\":16707:16775  require(!diamondFloor.sellStopped, \"Sells stopped by Diamond Floor\") */\n      tag_629\n      jumpi\n      mload(0x40)\n      shl(0xe5, 0x461bcd)\n      dup2\n      mstore\n        /* \"#utility.yul\":10661:10663   */\n      0x20\n        /* \"contracts/gainzilla.sol\":16707:16775  require(!diamondFloor.sellStopped, \"Sells stopped by Diamond Floor\") */\n      0x04\n      dup3\n      add\n        /* \"#utility.yul\":10643:10664   */\n      mstore\n        /* \"#utility.yul\":10700:10702   */\n      0x1e\n        /* \"#utility.yul\":10680:10698   */\n      0x24\n      dup3\n      add\n        /* \"#utility.yul\":10673:10703   */\n      mstore\n        /* \"#utility.yul\":10739:10771   */\n      0x53656c6c732073746f70706564206279204469616d6f6e6420466c6f6f720000\n        /* \"#utility.yul\":10719:10737   */\n      0x44\n      dup3\n      add\n        /* \"#utility.yul\":10712:10772   */\n      mstore\n        /* \"#utility.yul\":10789:10807   */\n      0x64\n      add\n        /* \"contracts/gainzilla.sol\":16707:16775  require(!diamondFloor.sellStopped, \"Sells stopped by Diamond Floor\") */\n      tag_330\n        /* \"#utility.yul\":10633:10813   */\n      jump\n        /* \"contracts/gainzilla.sol\":16707:16775  require(!diamondFloor.sellStopped, \"Sells stopped by Diamond Floor\") */\n    tag_629:\n        /* \"contracts/gainzilla.sol\":16797:16820  _checkPriceConditions() */\n      tag_632\n        /* \"contracts/gainzilla.sol\":16797:16818  _checkPriceConditions */\n      tag_633\n        /* \"contracts/gainzilla.sol\":16797:16820  _checkPriceConditions() */\n      jump\t// in\n    tag_632:\n        /* \"contracts/gainzilla.sol\":16922:16926  this */\n      address\n        /* \"contracts/gainzilla.sol\":16873:16901  uint256 contractTokenBalance */\n      0x00\n        /* \"contracts/gainzilla.sol\":12793:12811  _balances[account] */\n      swap1\n      dup2\n      mstore\n        /* \"contracts/gainzilla.sol\":12793:12802  _balances */\n      0x02\n        /* \"contracts/gainzilla.sol\":12793:12811  _balances[account] */\n      0x20\n      mstore\n      0x40\n      swap1\n      keccak256\n      sload\n        /* \"contracts/gainzilla.sol\":16975:16990  numTokensToSwap */\n      sload(0x08)\n        /* \"contracts/gainzilla.sol\":16951:16990  contractTokenBalance >= numTokensToSwap */\n      dup2\n      lt\n        /* \"contracts/gainzilla.sol\":16947:17916  if (contractTokenBalance >= numTokensToSwap) {... */\n      tag_635\n      jumpi\n        /* \"contracts/gainzilla.sol\":17018:17042  contractTokenBalance > 0 */\n      dup1\n      iszero\n        /* \"contracts/gainzilla.sol\":17014:17693  if (contractTokenBalance > 0) {... */\n      tag_640\n      jumpi\n        /* \"contracts/gainzilla.sol\":17158:17159  0 */\n      0x00\n        /* \"contracts/gainzilla.sol\":17074:17155  _sellMarketingFee.add(_sellTeamFee).add(_sellEcosystemFee).add(_sellLiquidityFee) */\n      tag_637\n        /* \"contracts/gainzilla.sol\":17137:17154  _sellLiquidityFee */\n      sload(0x11)\n        /* \"contracts/gainzilla.sol\":17074:17132  _sellMarketingFee.add(_sellTeamFee).add(_sellEcosystemFee) */\n      tag_533\n        /* \"contracts/gainzilla.sol\":17114:17131  _sellEcosystemFee */\n      sload(0x13)\n        /* \"contracts/gainzilla.sol\":17074:17109  _sellMarketingFee.add(_sellTeamFee) */\n      tag_533\n        /* \"contracts/gainzilla.sol\":17096:17108  _sellTeamFee */\n      sload(0x17)\n        /* \"contracts/gainzilla.sol\":17074:17091  _sellMarketingFee */\n      sload(0x15)\n        /* \"contracts/gainzilla.sol\":17074:17095  _sellMarketingFee.add */\n      tag_534\n      swap1\n        /* \"contracts/gainzilla.sol\":17074:17109  _sellMarketingFee.add(_sellTeamFee) */\n      swap2\n      swap1\n      0xffffffff\n      and\n      jump\t// in\n        /* \"contracts/gainzilla.sol\":17074:17155  _sellMarketingFee.add(_sellTeamFee).add(_sellEcosystemFee).add(_sellLiquidityFee) */\n    tag_637:\n        /* \"contracts/gainzilla.sol\":17074:17159  _sellMarketingFee.add(_sellTeamFee).add(_sellEcosystemFee).add(_sellLiquidityFee) > 0 */\n      gt\n        /* \"contracts/gainzilla.sol\":17070:17671  if (_sellMarketingFee.add(_sellTeamFee).add(_sellEcosystemFee).add(_sellLiquidityFee) > 0) {... */\n      iszero\n      tag_640\n      jumpi\n        /* \"contracts/gainzilla.sol\":17191:17211  uint256 autoLPamount */\n      0x00\n        /* \"contracts/gainzilla.sol\":17214:17344  _sellLiquidityFee.mul(contractTokenBalance).div(_sellMarketingFee.add(_sellTeamFee).add(_sellEcosystemFee).add(_sellLiquidityFee)) */\n      tag_641\n        /* \"contracts/gainzilla.sol\":17262:17343  _sellMarketingFee.add(_sellTeamFee).add(_sellEcosystemFee).add(_sellLiquidityFee) */\n      tag_642\n        /* \"contracts/gainzilla.sol\":17325:17342  _sellLiquidityFee */\n      sload(0x11)\n        /* \"contracts/gainzilla.sol\":17262:17320  _sellMarketingFee.add(_sellTeamFee).add(_sellEcosystemFee) */\n      tag_533\n        /* \"contracts/gainzilla.sol\":17302:17319  _sellEcosystemFee */\n      sload(0x13)\n        /* \"contracts/gainzilla.sol\":17262:17297  _sellMarketingFee.add(_sellTeamFee) */\n      tag_533\n        /* \"contracts/gainzilla.sol\":17284:17296  _sellTeamFee */\n      sload(0x17)\n        /* \"contracts/gainzilla.sol\":17262:17279  _sellMarketingFee */\n      sload(0x15)\n        /* \"contracts/gainzilla.sol\":17262:17283  _sellMarketingFee.add */\n      tag_534\n      swap1\n        /* \"contracts/gainzilla.sol\":17262:17297  _sellMarketingFee.add(_sellTeamFee) */\n      swap2\n      swap1\n      0xffffffff\n      and\n      jump\t// in\n        /* \"contracts/gainzilla.sol\":17262:17343  _sellMarketingFee.add(_sellTeamFee).add(_sellEcosystemFee).add(_sellLiquidityFee) */\n    tag_642:\n        /* \"contracts/gainzilla.sol\":17214:17231  _sellLiquidityFee */\n      sload(0x11)\n        /* \"contracts/gainzilla.sol\":17214:17257  _sellLiquidityFee.mul(contractTokenBalance) */\n      tag_431\n      swap1\n        /* \"contracts/gainzilla.sol\":17236:17256  contractTokenBalance */\n      dup6\n        /* \"contracts/gainzilla.sol\":17214:17235  _sellLiquidityFee.mul */\n      tag_434\n        /* \"contracts/gainzilla.sol\":17214:17257  _sellLiquidityFee.mul(contractTokenBalance) */\n      jump\t// in\n        /* \"contracts/gainzilla.sol\":17214:17344  _sellLiquidityFee.mul(contractTokenBalance).div(_sellMarketingFee.add(_sellTeamFee).add(_sellEcosystemFee).add(_sellLiquidityFee)) */\n    tag_641:\n        /* \"contracts/gainzilla.sol\":17191:17344  uint256 autoLPamount = _sellLiquidityFee.mul(contractTokenBalance).div(_sellMarketingFee.add(_sellTeamFee).add(_sellEcosystemFee).add(_sellLiquidityFee)) */\n      swap1\n      pop\n        /* \"contracts/gainzilla.sol\":17374:17389  uint256 minusLP */\n      0x00\n        /* \"contracts/gainzilla.sol\":17451:17463  autoLPamount */\n      dup2\n        /* \"contracts/gainzilla.sol\":17427:17447  contractTokenBalance */\n      dup4\n        /* \"contracts/gainzilla.sol\":17427:17463  contractTokenBalance >= autoLPamount */\n      lt\n        /* \"contracts/gainzilla.sol\":17423:17578  if (contractTokenBalance >= autoLPamount) {... */\n      tag_646\n      jumpi\n        /* \"contracts/gainzilla.sol\":17509:17547  contractTokenBalance.sub(autoLPamount) */\n      tag_647\n        /* \"contracts/gainzilla.sol\":17509:17529  contractTokenBalance */\n      dup4\n        /* \"contracts/gainzilla.sol\":17534:17546  autoLPamount */\n      dup4\n        /* \"contracts/gainzilla.sol\":17509:17533  contractTokenBalance.sub */\n      tag_433\n        /* \"contracts/gainzilla.sol\":17509:17547  contractTokenBalance.sub(autoLPamount) */\n      jump\t// in\n    tag_647:\n        /* \"contracts/gainzilla.sol\":17499:17547  minusLP = contractTokenBalance.sub(autoLPamount) */\n      swap1\n      pop\n        /* \"contracts/gainzilla.sol\":17423:17578  if (contractTokenBalance >= autoLPamount) {... */\n    tag_646:\n        /* \"contracts/gainzilla.sol\":17607:17644  swapAndLiquify(autoLPamount, minusLP) */\n      tag_648\n        /* \"contracts/gainzilla.sol\":17622:17634  autoLPamount */\n      dup3\n        /* \"contracts/gainzilla.sol\":17636:17643  minusLP */\n      dup3\n        /* \"contracts/gainzilla.sol\":17607:17621  swapAndLiquify */\n      tag_649\n        /* \"contracts/gainzilla.sol\":17607:17644  swapAndLiquify(autoLPamount, minusLP) */\n      jump\t// in\n    tag_648:\n        /* \"contracts/gainzilla.sol\":17070:17671  if (_sellMarketingFee.add(_sellTeamFee).add(_sellEcosystemFee).add(_sellLiquidityFee) > 0) {... */\n      pop\n      pop\n    tag_640:\n        /* \"contracts/gainzilla.sol\":17743:17764  address(this).balance */\n      selfbalance\n        /* \"contracts/gainzilla.sol\":17790:17812  contractETHBalance > 0 */\n      dup1\n      iszero\n        /* \"contracts/gainzilla.sol\":17786:17898  if (contractETHBalance > 0) {... */\n      tag_651\n      jumpi\n        /* \"contracts/gainzilla.sol\":17840:17875  sendETHToFee(address(this).balance) */\n      tag_651\n        /* \"contracts/gainzilla.sol\":17853:17874  address(this).balance */\n      selfbalance\n        /* \"contracts/gainzilla.sol\":17840:17852  sendETHToFee */\n      tag_652\n        /* \"contracts/gainzilla.sol\":17840:17875  sendETHToFee(address(this).balance) */\n      jump\t// in\n    tag_651:\n        /* \"contracts/gainzilla.sol\":16947:17916  if (contractTokenBalance >= numTokensToSwap) {... */\n      pop\n    tag_635:\n        /* \"contracts/gainzilla.sol\":16185:17951  if (!inSwap && from != uniswapV2Pair && to == uniswapV2Pair) { //sells... */\n      pop\n    tag_619:\n        /* \"contracts/gainzilla.sol\":17976:17989  uniswapV2Pair */\n      sload(0x26)\n      sub(shl(0xa0, 0x01), 0x01)\n        /* \"contracts/gainzilla.sol\":17968:17989  from != uniswapV2Pair */\n      dup6\n      dup2\n      and\n        /* \"contracts/gainzilla.sol\":17976:17989  uniswapV2Pair */\n      swap2\n      and\n        /* \"contracts/gainzilla.sol\":17968:17989  from != uniswapV2Pair */\n      eq\n      dup1\n      iszero\n      swap1\n        /* \"contracts/gainzilla.sol\":17968:18012  from != uniswapV2Pair && to != uniswapV2Pair */\n      tag_653\n      jumpi\n      pop\n        /* \"contracts/gainzilla.sol\":17999:18012  uniswapV2Pair */\n      sload(0x26)\n      sub(shl(0xa0, 0x01), 0x01)\n        /* \"contracts/gainzilla.sol\":17993:18012  to != uniswapV2Pair */\n      dup5\n      dup2\n      and\n        /* \"contracts/gainzilla.sol\":17999:18012  uniswapV2Pair */\n      swap2\n      and\n        /* \"contracts/gainzilla.sol\":17993:18012  to != uniswapV2Pair */\n      eq\n      iszero\n        /* \"contracts/gainzilla.sol\":17968:18012  from != uniswapV2Pair && to != uniswapV2Pair */\n    tag_653:\n        /* \"contracts/gainzilla.sol\":17965:18269  if(from != uniswapV2Pair && to != uniswapV2Pair) { //transfers... */\n      iszero\n      tag_658\n      jumpi\n      sub(shl(0xa0, 0x01), 0x01)\n        /* \"contracts/gainzilla.sol\":18066:18088  _isExcludedFromFee[to] */\n      dup4\n      and\n      0x00\n      swap1\n      dup2\n      mstore\n        /* \"contracts/gainzilla.sol\":18066:18084  _isExcludedFromFee */\n      0x04\n        /* \"contracts/gainzilla.sol\":18066:18088  _isExcludedFromFee[to] */\n      0x20\n      mstore\n      0x40\n      swap1\n      keccak256\n      sload\n      0xff\n      and\n        /* \"contracts/gainzilla.sol\":18061:18255  if (!_isExcludedFromFee[to]) {... */\n      tag_658\n      jumpi\n        /* \"contracts/gainzilla.sol\":18149:18165  _maxWalletAmount */\n      sload(0x07)\n        /* \"contracts/gainzilla.sol\":18120:18145  balanceOf(to).add(amount) */\n      tag_656\n        /* \"contracts/gainzilla.sol\":18138:18144  amount */\n      dup4\n        /* \"contracts/gainzilla.sol\":18120:18133  balanceOf(to) */\n      tag_533\n        /* \"contracts/gainzilla.sol\":18130:18132  to */\n      dup7\n      sub(shl(0xa0, 0x01), 0x01)\n        /* \"contracts/gainzilla.sol\":12793:12811  _balances[account] */\n      and\n        /* \"contracts/gainzilla.sol\":12767:12774  uint256 */\n      0x00\n        /* \"contracts/gainzilla.sol\":12793:12811  _balances[account] */\n      swap1\n      dup2\n      mstore\n        /* \"contracts/gainzilla.sol\":12793:12802  _balances */\n      0x02\n        /* \"contracts/gainzilla.sol\":12793:12811  _balances[account] */\n      0x20\n      mstore\n      0x40\n      swap1\n      keccak256\n      sload\n      swap1\n        /* \"contracts/gainzilla.sol\":12701:12818  function balanceOf(address account) public view override returns (uint256) {... */\n      jump\n        /* \"contracts/gainzilla.sol\":18120:18145  balanceOf(to).add(amount) */\n    tag_656:\n        /* \"contracts/gainzilla.sol\":18120:18165  balanceOf(to).add(amount) <= _maxWalletAmount */\n      gt\n      iszero\n        /* \"contracts/gainzilla.sol\":18112:18236  require(balanceOf(to).add(amount) <= _maxWalletAmount, \".wallet balance after transfer must be less than max wallet amount\") */\n      tag_658\n      jumpi\n      mload(0x40)\n      shl(0xe5, 0x461bcd)\n      dup2\n      mstore\n        /* \"#utility.yul\":15013:15015   */\n      0x20\n        /* \"contracts/gainzilla.sol\":18112:18236  require(balanceOf(to).add(amount) <= _maxWalletAmount, \".wallet balance after transfer must be less than max wallet amount\") */\n      0x04\n      dup3\n      add\n        /* \"#utility.yul\":14995:15016   */\n      mstore\n        /* \"#utility.yul\":15052:15054   */\n      0x42\n        /* \"#utility.yul\":15032:15050   */\n      0x24\n      dup3\n      add\n        /* \"#utility.yul\":15025:15055   */\n      mstore\n        /* \"#utility.yul\":15091:15125   */\n      0x2e77616c6c65742062616c616e6365206166746572207472616e73666572206d\n        /* \"#utility.yul\":15071:15089   */\n      0x44\n      dup3\n      add\n        /* \"#utility.yul\":15064:15126   */\n      mstore\n        /* \"#utility.yul\":15162:15196   */\n      0x757374206265206c657373207468616e206d61782077616c6c657420616d6f75\n        /* \"#utility.yul\":15142:15160   */\n      0x64\n      dup3\n      add\n        /* \"#utility.yul\":15135:15197   */\n      mstore\n        /* \"#utility.yul\":15234:15238   */\n      0x6e74000000000000000000000000000000000000000000000000000000000000\n        /* \"#utility.yul\":15213:15232   */\n      0x84\n      dup3\n      add\n        /* \"#utility.yul\":15206:15239   */\n      mstore\n        /* \"#utility.yul\":15256:15275   */\n      0xa4\n      add\n        /* \"contracts/gainzilla.sol\":18112:18236  require(balanceOf(to).add(amount) <= _maxWalletAmount, \".wallet balance after transfer must be less than max wallet amount\") */\n      tag_330\n        /* \"#utility.yul\":14985:15281   */\n      jump\n        /* \"contracts/gainzilla.sol\":18112:18236  require(balanceOf(to).add(amount) <= _maxWalletAmount, \".wallet balance after transfer must be less than max wallet amount\") */\n    tag_658:\n      sub(shl(0xa0, 0x01), 0x01)\n        /* \"contracts/gainzilla.sol\":18293:18317  _isExcludedFromFee[from] */\n      dup5\n      and\n      0x00\n      swap1\n      dup2\n      mstore\n        /* \"contracts/gainzilla.sol\":18293:18311  _isExcludedFromFee */\n      0x04\n        /* \"contracts/gainzilla.sol\":18293:18317  _isExcludedFromFee[from] */\n      0x20\n      mstore\n      0x40\n      swap1\n      keccak256\n      sload\n      0xff\n      and\n      dup1\n        /* \"contracts/gainzilla.sol\":18293:18343  _isExcludedFromFee[from] || _isExcludedFromFee[to] */\n      tag_660\n      jumpi\n      pop\n      sub(shl(0xa0, 0x01), 0x01)\n        /* \"contracts/gainzilla.sol\":18321:18343  _isExcludedFromFee[to] */\n      dup4\n      and\n      0x00\n      swap1\n      dup2\n      mstore\n        /* \"contracts/gainzilla.sol\":18321:18339  _isExcludedFromFee */\n      0x04\n        /* \"contracts/gainzilla.sol\":18321:18343  _isExcludedFromFee[to] */\n      0x20\n      mstore\n      0x40\n      swap1\n      keccak256\n      sload\n      0xff\n      and\n        /* \"contracts/gainzilla.sol\":18293:18343  _isExcludedFromFee[from] || _isExcludedFromFee[to] */\n    tag_660:\n        /* \"contracts/gainzilla.sol\":18289:18385  if (_isExcludedFromFee[from] || _isExcludedFromFee[to]) {... */\n      iszero\n      tag_661\n      jumpi\n      pop\n        /* \"contracts/gainzilla.sol\":18369:18374  false */\n      0x00\n        /* \"contracts/gainzilla.sol\":18289:18385  if (_isExcludedFromFee[from] || _isExcludedFromFee[to]) {... */\n    tag_661:\n        /* \"contracts/gainzilla.sol\":18403:18444  _tokenTransfer(from, to, amount, takeFee) */\n      tag_662\n        /* \"contracts/gainzilla.sol\":18418:18422  from */\n      dup5\n        /* \"contracts/gainzilla.sol\":18424:18426  to */\n      dup5\n        /* \"contracts/gainzilla.sol\":18428:18434  amount */\n      dup5\n        /* \"contracts/gainzilla.sol\":18436:18443  takeFee */\n      dup5\n        /* \"contracts/gainzilla.sol\":18403:18417  _tokenTransfer */\n      tag_663\n        /* \"contracts/gainzilla.sol\":18403:18444  _tokenTransfer(from, to, amount, takeFee) */\n      jump\t// in\n    tag_662:\n        /* \"contracts/gainzilla.sol\":15244:18451  function _transfer(address from, address to, uint256 amount) private {... */\n      pop\n      pop\n      pop\n      pop\n      jump\t// out\n        /* \"contracts/gainzilla.sol\":1849:2035  function sub(uint256 a, uint256 b, string memory errorMessage) internal pure returns (uint256) {... */\n    tag_346:\n        /* \"contracts/gainzilla.sol\":1935:1942  uint256 */\n      0x00\n        /* \"contracts/gainzilla.sol\":1970:1982  errorMessage */\n      dup2\n        /* \"contracts/gainzilla.sol\":1962:1968  b <= a */\n      dup5\n      dup5\n      gt\n      iszero\n        /* \"contracts/gainzilla.sol\":1954:1983  require(b <= a, errorMessage) */\n      tag_665\n      jumpi\n      mload(0x40)\n      shl(0xe5, 0x461bcd)\n      dup2\n      mstore\n      0x04\n      add\n      tag_330\n      swap2\n      swap1\n      tag_86\n      jump\t// in\n    tag_665:\n      pop\n        /* \"contracts/gainzilla.sol\":1993:2002  uint256 c */\n      0x00\n        /* \"contracts/gainzilla.sol\":2005:2010  a - b */\n      tag_667\n        /* \"contracts/gainzilla.sol\":2009:2010  b */\n      dup5\n        /* \"contracts/gainzilla.sol\":2005:2006  a */\n      dup7\n        /* \"contracts/gainzilla.sol\":2005:2010  a - b */\n      tag_668\n      jump\t// in\n    tag_667:\n        /* \"contracts/gainzilla.sol\":1993:2010  uint256 c = a - b */\n      swap6\n        /* \"contracts/gainzilla.sol\":1849:2035  function sub(uint256 a, uint256 b, string memory errorMessage) internal pure returns (uint256) {... */\n      swap5\n      pop\n      pop\n      pop\n      pop\n      pop\n      jump\t// out\n        /* \"contracts/gainzilla.sol\":2286:2416  function div(uint256 a, uint256 b) internal pure returns (uint256) {... */\n    tag_353:\n        /* \"contracts/gainzilla.sol\":2344:2351  uint256 */\n      0x00\n        /* \"contracts/gainzilla.sol\":2370:2409  div(a, b, \"SafeMath: division by zero\") */\n      tag_670\n        /* \"contracts/gainzilla.sol\":2374:2375  a */\n      dup4\n        /* \"contracts/gainzilla.sol\":2377:2378  b */\n      dup4\n        /* \"contracts/gainzilla.sol\":2370:2409  div(a, b, \"SafeMath: division by zero\") */\n      mload(0x40)\n      dup1\n      0x40\n      add\n      0x40\n      mstore\n      dup1\n      0x1a\n      dup2\n      mstore\n      0x20\n      add\n      0x536166654d6174683a206469766973696f6e206279207a65726f000000000000\n      dup2\n      mstore\n      pop\n        /* \"contracts/gainzilla.sol\":2370:2373  div */\n      tag_671\n        /* \"contracts/gainzilla.sol\":2370:2409  div(a, b, \"SafeMath: division by zero\") */\n      jump\t// in\n    tag_670:\n        /* \"contracts/gainzilla.sol\":2363:2409  return div(a, b, \"SafeMath: division by zero\") */\n      swap4\n        /* \"contracts/gainzilla.sol\":2286:2416  function div(uint256 a, uint256 b) internal pure returns (uint256) {... */\n      swap3\n      pop\n      pop\n      pop\n      jump\t// out\n        /* \"contracts/gainzilla.sol\":1709:1843  function sub(uint256 a, uint256 b) internal pure returns (uint256) {... */\n    tag_433:\n        /* \"contracts/gainzilla.sol\":1767:1774  uint256 */\n      0x00\n        /* \"contracts/gainzilla.sol\":1793:1836  sub(a, b, \"SafeMath: subtraction overflow\") */\n      tag_670\n        /* \"contracts/gainzilla.sol\":1797:1798  a */\n      dup4\n        /* \"contracts/gainzilla.sol\":1800:1801  b */\n      dup4\n        /* \"contracts/gainzilla.sol\":1793:1836  sub(a, b, \"SafeMath: subtraction overflow\") */\n      mload(0x40)\n      dup1\n      0x40\n      add\n      0x40\n      mstore\n      dup1\n      0x1e\n      dup2\n      mstore\n      0x20\n      add\n      0x536166654d6174683a207375627472616374696f6e206f766572666c6f770000\n      dup2\n      mstore\n      pop\n        /* \"contracts/gainzilla.sol\":1793:1796  sub */\n      tag_346\n        /* \"contracts/gainzilla.sol\":1793:1836  sub(a, b, \"SafeMath: subtraction overflow\") */\n      jump\t// in\n        /* \"contracts/gainzilla.sol\":2041:2280  function mul(uint256 a, uint256 b) internal pure returns (uint256) {... */\n    tag_434:\n        /* \"contracts/gainzilla.sol\":2099:2106  uint256 */\n      0x00\n        /* \"contracts/gainzilla.sol\":2122:2128  a == 0 */\n      dup3\n        /* \"contracts/gainzilla.sol\":2118:2163  if (a == 0) {... */\n      tag_675\n      jumpi\n      pop\n        /* \"contracts/gainzilla.sol\":2151:2152  0 */\n      0x00\n        /* \"contracts/gainzilla.sol\":2144:2152  return 0 */\n      jump(tag_322)\n        /* \"contracts/gainzilla.sol\":2118:2163  if (a == 0) {... */\n    tag_675:\n        /* \"contracts/gainzilla.sol\":2172:2181  uint256 c */\n      0x00\n        /* \"contracts/gainzilla.sol\":2184:2189  a * b */\n      tag_676\n        /* \"contracts/gainzilla.sol\":2188:2189  b */\n      dup4\n        /* \"contracts/gainzilla.sol\":2184:2185  a */\n      dup6\n        /* \"contracts/gainzilla.sol\":2184:2189  a * b */\n      tag_677\n      jump\t// in\n    tag_676:\n        /* \"contracts/gainzilla.sol\":2172:2189  uint256 c = a * b */\n      swap1\n      pop\n        /* \"contracts/gainzilla.sol\":2216:2217  b */\n      dup3\n        /* \"contracts/gainzilla.sol\":2207:2212  c / a */\n      tag_678\n        /* \"contracts/gainzilla.sol\":2211:2212  a */\n      dup6\n        /* \"contracts/gainzilla.sol\":2172:2189  uint256 c = a * b */\n      dup4\n        /* \"contracts/gainzilla.sol\":2207:2212  c / a */\n      tag_679\n      jump\t// in\n    tag_678:\n        /* \"contracts/gainzilla.sol\":2207:2217  c / a == b */\n      eq\n        /* \"contracts/gainzilla.sol\":2199:2255  require(c / a == b, \"SafeMath: multiplication overflow\") */\n      tag_670\n      jumpi\n      mload(0x40)\n      shl(0xe5, 0x461bcd)\n      dup2\n      mstore\n        /* \"#utility.yul\":11850:11852   */\n      0x20\n        /* \"contracts/gainzilla.sol\":2199:2255  require(c / a == b, \"SafeMath: multiplication overflow\") */\n      0x04\n      dup3\n      add\n        /* \"#utility.yul\":11832:11853   */\n      mstore\n        /* \"#utility.yul\":11889:11891   */\n      0x21\n        /* \"#utility.yul\":11869:11887   */\n      0x24\n      dup3\n      add\n        /* \"#utility.yul\":11862:11892   */\n      mstore\n        /* \"#utility.yul\":11928:11962   */\n      0x536166654d6174683a206d756c7469706c69636174696f6e206f766572666c6f\n        /* \"#utility.yul\":11908:11926   */\n      0x44\n      dup3\n      add\n        /* \"#utility.yul\":11901:11963   */\n      mstore\n        /* \"#utility.yul\":11999:12002   */\n      0x7700000000000000000000000000000000000000000000000000000000000000\n        /* \"#utility.yul\":11979:11997   */\n      0x64\n      dup3\n      add\n        /* \"#utility.yul\":11972:12003   */\n      mstore\n        /* \"#utility.yul\":12020:12039   */\n      0x84\n      add\n        /* \"contracts/gainzilla.sol\":2199:2255  require(c / a == b, \"SafeMath: multiplication overflow\") */\n      tag_330\n        /* \"#utility.yul\":11822:12045   */\n      jump\n        /* \"contracts/gainzilla.sol\":18460:18861  function swapTokensForEth(uint256 tokenAmount) private lockTheSwap {... */\n    tag_499:\n        /* \"contracts/gainzilla.sol\":11460:11466  inSwap */\n      0x28\n        /* \"contracts/gainzilla.sol\":11460:11473  inSwap = true */\n      dup1\n      sload\n      0xffffffffffffffffffffffffffffffffffffffffffffffffffffffffffff00ff\n      and\n      0x0100\n      or\n      swap1\n      sstore\n        /* \"contracts/gainzilla.sol\":18561:18577  new address[](2) */\n      0x40\n      dup1\n      mload\n        /* \"contracts/gainzilla.sol\":18575:18576  2 */\n      0x02\n        /* \"contracts/gainzilla.sol\":18561:18577  new address[](2) */\n      dup1\n      dup3\n      mstore\n      0x60\n      dup3\n      add\n      dup4\n      mstore\n      0x00\n      swap3\n      0x20\n      dup4\n      add\n      swap1\n      dup1\n      calldatasize\n      dup4\n      calldatacopy\n      add\n      swap1\n      pop\n      pop\n        /* \"contracts/gainzilla.sol\":18537:18577  address[] memory path = new address[](2) */\n      swap1\n      pop\n        /* \"contracts/gainzilla.sol\":18605:18609  this */\n      address\n        /* \"contracts/gainzilla.sol\":18587:18591  path */\n      dup2\n        /* \"contracts/gainzilla.sol\":18592:18593  0 */\n      0x00\n        /* \"contracts/gainzilla.sol\":18587:18594  path[0] */\n      dup2\n      mload\n      dup2\n      lt\n      tag_687\n      jumpi\n      mstore(0x00, 0x4e487b7100000000000000000000000000000000000000000000000000000000)\n      mstore(0x04, 0x32)\n      revert(0x00, 0x24)\n    tag_687:\n      sub(shl(0xa0, 0x01), 0x01)\n        /* \"contracts/gainzilla.sol\":18587:18610  path[0] = address(this) */\n      swap3\n      dup4\n      and\n        /* \"contracts/gainzilla.sol\":18587:18594  path[0] */\n      0x20\n      swap2\n      dup3\n      mul\n      swap3\n      swap1\n      swap3\n      add\n      dup2\n      add\n        /* \"contracts/gainzilla.sol\":18587:18610  path[0] = address(this) */\n      swap2\n      swap1\n      swap2\n      mstore\n        /* \"contracts/gainzilla.sol\":18630:18645  uniswapV2Router */\n      sload(0x25)\n        /* \"contracts/gainzilla.sol\":18630:18652  uniswapV2Router.WETH() */\n      0x40\n      dup1\n      mload\n      0xad5c464800000000000000000000000000000000000000000000000000000000\n      dup2\n      mstore\n      swap1\n      mload\n        /* \"contracts/gainzilla.sol\":18630:18645  uniswapV2Router */\n      swap2\n      swap1\n      swap4\n      and\n      swap3\n        /* \"contracts/gainzilla.sol\":18630:18650  uniswapV2Router.WETH */\n      0xad5c4648\n      swap3\n        /* \"contracts/gainzilla.sol\":18630:18652  uniswapV2Router.WETH() */\n      0x04\n      dup1\n      dup4\n      add\n      swap4\n        /* \"contracts/gainzilla.sol\":18587:18594  path[0] */\n      swap2\n      swap3\n        /* \"contracts/gainzilla.sol\":18630:18652  uniswapV2Router.WETH() */\n      dup3\n      swap1\n      sub\n      add\n      dup2\n        /* \"contracts/gainzilla.sol\":18630:18645  uniswapV2Router */\n      dup7\n        /* \"contracts/gainzilla.sol\":18630:18652  uniswapV2Router.WETH() */\n      dup1\n      extcodesize\n      iszero\n      dup1\n      iszero\n      tag_688\n      jumpi\n      0x00\n      dup1\n      revert\n    tag_688:\n      pop\n      gas\n      staticcall\n      iszero\n      dup1\n      iszero\n      tag_690\n      jumpi\n      returndatasize\n      0x00\n      dup1\n      returndatacopy\n      revert(0x00, returndatasize)\n    tag_690:\n      pop\n      pop\n      pop\n      pop\n      mload(0x40)\n      returndatasize\n      not(0x1f)\n      0x1f\n      dup3\n      add\n      and\n      dup3\n      add\n      dup1\n      0x40\n      mstore\n      pop\n      dup2\n      add\n      swap1\n      tag_691\n      swap2\n      swap1\n      tag_459\n      jump\t// in\n    tag_691:\n        /* \"contracts/gainzilla.sol\":18620:18624  path */\n      dup2\n        /* \"contracts/gainzilla.sol\":18625:18626  1 */\n      0x01\n        /* \"contracts/gainzilla.sol\":18620:18627  path[1] */\n      dup2\n      mload\n      dup2\n      lt\n      tag_692\n      jumpi\n      mstore(0x00, 0x4e487b7100000000000000000000000000000000000000000000000000000000)\n      mstore(0x04, 0x32)\n      revert(0x00, 0x24)\n    tag_692:\n      sub(shl(0xa0, 0x01), 0x01)\n        /* \"contracts/gainzilla.sol\":18620:18652  path[1] = uniswapV2Router.WETH() */\n      swap3\n      dup4\n      and\n        /* \"contracts/gainzilla.sol\":18620:18627  path[1] */\n      0x20\n      swap2\n      dup3\n      mul\n      swap3\n      swap1\n      swap3\n      add\n      add\n        /* \"contracts/gainzilla.sol\":18620:18652  path[1] = uniswapV2Router.WETH() */\n      mstore\n        /* \"contracts/gainzilla.sol\":18694:18709  uniswapV2Router */\n      sload(0x25)\n        /* \"contracts/gainzilla.sol\":18662:18724  _approve(address(this), address(uniswapV2Router), tokenAmount) */\n      tag_693\n      swap2\n        /* \"contracts/gainzilla.sol\":18679:18683  this */\n      address\n      swap2\n        /* \"contracts/gainzilla.sol\":18694:18709  uniswapV2Router */\n      and\n        /* \"contracts/gainzilla.sol\":18712:18723  tokenAmount */\n      dup5\n        /* \"contracts/gainzilla.sol\":18662:18670  _approve */\n      tag_326\n        /* \"contracts/gainzilla.sol\":18662:18724  _approve(address(this), address(uniswapV2Router), tokenAmount) */\n      jump\t// in\n    tag_693:\n        /* \"contracts/gainzilla.sol\":18734:18749  uniswapV2Router */\n      sload(0x25)\n        /* \"contracts/gainzilla.sol\":18734:18854  uniswapV2Router.swapExactTokensForETHSupportingFeeOnTransferTokens(tokenAmount, 0, path, address(this), block.timestamp) */\n      mload(0x40)\n      0x791ac94700000000000000000000000000000000000000000000000000000000\n      dup2\n      mstore\n      sub(shl(0xa0, 0x01), 0x01)\n        /* \"contracts/gainzilla.sol\":18734:18749  uniswapV2Router */\n      swap1\n      swap2\n      and\n      swap1\n        /* \"contracts/gainzilla.sol\":18734:18800  uniswapV2Router.swapExactTokensForETHSupportingFeeOnTransferTokens */\n      0x791ac947\n      swap1\n        /* \"contracts/gainzilla.sol\":18734:18854  uniswapV2Router.swapExactTokensForETHSupportingFeeOnTransferTokens(tokenAmount, 0, path, address(this), block.timestamp) */\n      tag_694\n      swap1\n        /* \"contracts/gainzilla.sol\":18801:18812  tokenAmount */\n      dup6\n      swap1\n        /* \"contracts/gainzilla.sol\":18734:18749  uniswapV2Router */\n      0x00\n      swap1\n        /* \"contracts/gainzilla.sol\":18817:18821  path */\n      dup7\n      swap1\n        /* \"contracts/gainzilla.sol\":18831:18835  this */\n      address\n      swap1\n        /* \"contracts/gainzilla.sol\":18838:18853  block.timestamp */\n      timestamp\n      swap1\n        /* \"contracts/gainzilla.sol\":18734:18854  uniswapV2Router.swapExactTokensForETHSupportingFeeOnTransferTokens(tokenAmount, 0, path, address(this), block.timestamp) */\n      0x04\n      add\n      tag_695\n      jump\t// in\n    tag_694:\n      0x00\n      mload(0x40)\n      dup1\n      dup4\n      sub\n      dup2\n      0x00\n      dup8\n      dup1\n      extcodesize\n      iszero\n      dup1\n      iszero\n      tag_696\n      jumpi\n      0x00\n      dup1\n      revert\n    tag_696:\n      pop\n      gas\n      call\n      iszero\n      dup1\n      iszero\n      tag_698\n      jumpi\n      returndatasize\n      0x00\n      dup1\n      returndatacopy\n      revert(0x00, returndatasize)\n    tag_698:\n      pop\n      pop\n        /* \"contracts/gainzilla.sol\":11494:11500  inSwap */\n      0x28\n        /* \"contracts/gainzilla.sol\":11494:11508  inSwap = false */\n      dup1\n      sload\n      0xffffffffffffffffffffffffffffffffffffffffffffffffffffffffffff00ff\n      and\n      swap1\n      sstore\n      pop\n      pop\n      pop\n      pop\n        /* \"contracts/gainzilla.sol\":18460:18861  function swapTokensForEth(uint256 tokenAmount) private lockTheSwap {... */\n      jump\t// out\n        /* \"contracts/gainzilla.sol\":1528:1703  function add(uint256 a, uint256 b) internal pure returns (uint256) {... */\n    tag_534:\n        /* \"contracts/gainzilla.sol\":1586:1593  uint256 */\n      0x00\n      dup1\n        /* \"contracts/gainzilla.sol\":1617:1622  a + b */\n      tag_700\n        /* \"contracts/gainzilla.sol\":1621:1622  b */\n      dup4\n        /* \"contracts/gainzilla.sol\":1617:1618  a */\n      dup6\n        /* \"contracts/gainzilla.sol\":1617:1622  a + b */\n      tag_627\n      jump\t// in\n    tag_700:\n        /* \"contracts/gainzilla.sol\":1605:1622  uint256 c = a + b */\n      swap1\n      pop\n        /* \"contracts/gainzilla.sol\":1645:1646  a */\n      dup4\n        /* \"contracts/gainzilla.sol\":1640:1641  c */\n      dup2\n        /* \"contracts/gainzilla.sol\":1640:1646  c >= a */\n      lt\n      iszero\n        /* \"contracts/gainzilla.sol\":1632:1678  require(c >= a, \"SafeMath: addition overflow\") */\n      tag_670\n      jumpi\n      mload(0x40)\n      shl(0xe5, 0x461bcd)\n      dup2\n      mstore\n        /* \"#utility.yul\":10305:10307   */\n      0x20\n        /* \"contracts/gainzilla.sol\":1632:1678  require(c >= a, \"SafeMath: addition overflow\") */\n      0x04\n      dup3\n      add\n        /* \"#utility.yul\":10287:10308   */\n      mstore\n        /* \"#utility.yul\":10344:10346   */\n      0x1b\n        /* \"#utility.yul\":10324:10342   */\n      0x24\n      dup3\n      add\n        /* \"#utility.yul\":10317:10347   */\n      mstore\n        /* \"#utility.yul\":10383:10412   */\n      0x536166654d6174683a206164646974696f6e206f766572666c6f770000000000\n        /* \"#utility.yul\":10363:10381   */\n      0x44\n      dup3\n      add\n        /* \"#utility.yul\":10356:10413   */\n      mstore\n        /* \"#utility.yul\":10430:10448   */\n      0x64\n      add\n        /* \"contracts/gainzilla.sol\":1632:1678  require(c >= a, \"SafeMath: addition overflow\") */\n      tag_330\n        /* \"#utility.yul\":10277:10454   */\n      jump\n        /* \"contracts/gainzilla.sol\":3654:3841  function _transferOwnership(address newOwner) internal virtual {... */\n    tag_556:\n        /* \"contracts/gainzilla.sol\":3727:3743  address oldOwner */\n      0x00\n        /* \"contracts/gainzilla.sol\":3746:3752  _owner */\n      dup1\n      sload\n      sub(shl(0xa0, 0x01), 0x01)\n        /* \"contracts/gainzilla.sol\":3762:3779  _owner = newOwner */\n      dup4\n      dup2\n      and\n      0xffffffffffffffffffffffff0000000000000000000000000000000000000000\n      dup4\n      and\n      dup2\n      or\n      dup5\n      sstore\n        /* \"contracts/gainzilla.sol\":3794:3834  OwnershipTransferred(oldOwner, newOwner) */\n      mload(0x40)\n        /* \"contracts/gainzilla.sol\":3746:3752  _owner */\n      swap2\n      swap1\n      swap3\n      and\n      swap3\n      dup4\n      swap2\n        /* \"contracts/gainzilla.sol\":3794:3834  OwnershipTransferred(oldOwner, newOwner) */\n      0x8be0079c531659141344cd1fd0a4f28419497f9722a3daafe3b4186f6b6457e0\n      swap2\n        /* \"contracts/gainzilla.sol\":3727:3743  address oldOwner */\n      swap1\n        /* \"contracts/gainzilla.sol\":3794:3834  OwnershipTransferred(oldOwner, newOwner) */\n      log3\n        /* \"contracts/gainzilla.sol\":3654:3841  function _transferOwnership(address newOwner) internal virtual {... */\n      pop\n      pop\n      jump\t// out\n        /* \"contracts/gainzilla.sol\":18867:19675  function _checkPriceConditions() private {... */\n    tag_633:\n        /* \"contracts/gainzilla.sol\":18918:18938  uint256 currentPrice */\n      0x00\n        /* \"contracts/gainzilla.sol\":18941:18952  pairPrice() */\n      tag_706\n        /* \"contracts/gainzilla.sol\":18941:18950  pairPrice */\n      tag_219\n        /* \"contracts/gainzilla.sol\":18941:18952  pairPrice() */\n      jump\t// in\n    tag_706:\n        /* \"contracts/gainzilla.sol\":18918:18952  uint256 currentPrice = pairPrice() */\n      swap1\n      pop\n        /* \"contracts/gainzilla.sol\":18966:18983  currentPrice == 0 */\n      dup1\n        /* \"contracts/gainzilla.sol\":18962:18992  if (currentPrice == 0) return; */\n      tag_707\n      jumpi\n        /* \"contracts/gainzilla.sol\":18985:18992  return; */\n      pop\n        /* \"contracts/gainzilla.sol\":18867:19675  function _checkPriceConditions() private {... */\n      jump\t// out\n        /* \"contracts/gainzilla.sol\":18962:18992  if (currentPrice == 0) return; */\n    tag_707:\n        /* \"contracts/gainzilla.sol\":19021:19042  diamondFloor.athPrice */\n      sload(0x1d)\n        /* \"contracts/gainzilla.sol\":19006:19042  currentPrice > diamondFloor.athPrice */\n      dup2\n      gt\n        /* \"contracts/gainzilla.sol\":19002:19171  if (currentPrice > diamondFloor.athPrice) {... */\n      iszero\n      tag_708\n      jumpi\n        /* \"contracts/gainzilla.sol\":19058:19079  diamondFloor.athPrice */\n      0x1d\n        /* \"contracts/gainzilla.sol\":19058:19094  diamondFloor.athPrice = currentPrice */\n      sstore\n        /* \"contracts/gainzilla.sol\":19108:19132  diamondFloor.sellStopped */\n      0x1e\n        /* \"contracts/gainzilla.sol\":19108:19140  diamondFloor.sellStopped = false */\n      dup1\n      sload\n      not(0xff)\n      and\n      swap1\n      sstore\n        /* \"contracts/gainzilla.sol\":18867:19675  function _checkPriceConditions() private {... */\n      jump\t// out\n        /* \"contracts/gainzilla.sol\":19002:19171  if (currentPrice > diamondFloor.athPrice) {... */\n    tag_708:\n        /* \"contracts/gainzilla.sol\":19255:19267  diamondFloor */\n      0x1c\n        /* \"contracts/gainzilla.sol\":19255:19285  diamondFloor.triggerPercentage */\n      sload\n        /* \"contracts/gainzilla.sol\":19206:19227  diamondFloor.athPrice */\n      sload(0x1d)\n        /* \"contracts/gainzilla.sol\":19181:19203  uint256 thresholdPrice */\n      0x00\n      swap2\n        /* \"contracts/gainzilla.sol\":19206:19309  diamondFloor.athPrice... */\n      tag_709\n      swap2\n        /* \"contracts/gainzilla.sol\":19304:19308  1000 */\n      0x03e8\n      swap2\n        /* \"contracts/gainzilla.sol\":19206:19286  diamondFloor.athPrice... */\n      tag_431\n      swap2\n        /* \"contracts/gainzilla.sol\":19255:19285  diamondFloor.triggerPercentage */\n      0x0100\n      swap1\n      swap2\n      div\n      0xffff\n      and\n      swap1\n        /* \"contracts/gainzilla.sol\":19206:19250  diamondFloor.athPrice... */\n      tag_711\n      swap1\n        /* \"contracts/gainzilla.sol\":19304:19308  1000 */\n      dup5\n        /* \"contracts/gainzilla.sol\":19206:19244  diamondFloor.athPrice... */\n      tag_434\n        /* \"contracts/gainzilla.sol\":19206:19250  diamondFloor.athPrice... */\n      jump\t// in\n    tag_711:\n        /* \"contracts/gainzilla.sol\":19206:19254  diamondFloor.athPrice... */\n      swap1\n      tag_433\n        /* \"contracts/gainzilla.sol\":19206:19286  diamondFloor.athPrice... */\n      jump\t// in\n        /* \"contracts/gainzilla.sol\":19206:19309  diamondFloor.athPrice... */\n    tag_709:\n        /* \"contracts/gainzilla.sol\":19181:19309  uint256 thresholdPrice = diamondFloor.athPrice... */\n      swap1\n      pop\n        /* \"contracts/gainzilla.sol\":19339:19353  thresholdPrice */\n      dup1\n        /* \"contracts/gainzilla.sol\":19324:19336  currentPrice */\n      dup3\n        /* \"contracts/gainzilla.sol\":19324:19353  currentPrice < thresholdPrice */\n      lt\n        /* \"contracts/gainzilla.sol\":19320:19472  if (currentPrice < thresholdPrice) {... */\n      iszero\n      tag_712\n      jumpi\n        /* \"contracts/gainzilla.sol\":19369:19393  diamondFloor.sellStopped */\n      0x1e\n        /* \"contracts/gainzilla.sol\":19369:19400  diamondFloor.sellStopped = true */\n      dup1\n      sload\n      not(0xff)\n      and\n        /* \"contracts/gainzilla.sol\":19396:19400  true */\n      0x01\n        /* \"contracts/gainzilla.sol\":19369:19400  diamondFloor.sellStopped = true */\n      or\n      swap1\n      sstore\n        /* \"contracts/gainzilla.sol\":19440:19461  diamondFloor.athPrice */\n      sload(0x1d)\n        /* \"contracts/gainzilla.sol\":19414:19437  diamondFloor.blockedAth */\n      0x1f\n        /* \"contracts/gainzilla.sol\":19414:19461  diamondFloor.blockedAth = diamondFloor.athPrice */\n      sstore\n        /* \"contracts/gainzilla.sol\":19320:19472  if (currentPrice < thresholdPrice) {... */\n    tag_712:\n        /* \"contracts/gainzilla.sol\":19486:19510  diamondFloor.sellStopped */\n      and(0xff, sload(0x1e))\n        /* \"contracts/gainzilla.sol\":19486:19560  diamondFloor.sellStopped && currentPrice >= diamondFloor.blockedAth.mul(2) */\n      dup1\n      iszero\n      tag_713\n      jumpi\n      pop\n        /* \"contracts/gainzilla.sol\":19530:19553  diamondFloor.blockedAth */\n      sload(0x1f)\n        /* \"contracts/gainzilla.sol\":19530:19560  diamondFloor.blockedAth.mul(2) */\n      tag_714\n      swap1\n        /* \"contracts/gainzilla.sol\":19558:19559  2 */\n      0x02\n        /* \"contracts/gainzilla.sol\":19530:19557  diamondFloor.blockedAth.mul */\n      tag_434\n        /* \"contracts/gainzilla.sol\":19530:19560  diamondFloor.blockedAth.mul(2) */\n      jump\t// in\n    tag_714:\n        /* \"contracts/gainzilla.sol\":19514:19526  currentPrice */\n      dup3\n        /* \"contracts/gainzilla.sol\":19514:19560  currentPrice >= diamondFloor.blockedAth.mul(2) */\n      lt\n      iszero\n        /* \"contracts/gainzilla.sol\":19486:19560  diamondFloor.sellStopped && currentPrice >= diamondFloor.blockedAth.mul(2) */\n    tag_713:\n        /* \"contracts/gainzilla.sol\":19482:19669  if (diamondFloor.sellStopped && currentPrice >= diamondFloor.blockedAth.mul(2)) {... */\n      iszero\n      tag_412\n      jumpi\n      pop\n        /* \"contracts/gainzilla.sol\":19576:19600  diamondFloor.sellStopped */\n      0x1e\n        /* \"contracts/gainzilla.sol\":19576:19608  diamondFloor.sellStopped = false */\n      dup1\n      sload\n      not(0xff)\n      and\n      swap1\n      sstore\n        /* \"contracts/gainzilla.sol\":19622:19643  diamondFloor.athPrice */\n      0x1d\n        /* \"contracts/gainzilla.sol\":19622:19658  diamondFloor.athPrice = currentPrice */\n      sstore\n        /* \"contracts/gainzilla.sol\":18867:19675  function _checkPriceConditions() private {... */\n      jump\t// out\n        /* \"contracts/gainzilla.sol\":20568:21075  function swapAndLiquify(uint256 lpAmount, uint256 contractTokenBalance) private lockTheSwap {... */\n    tag_649:\n        /* \"contracts/gainzilla.sol\":11460:11466  inSwap */\n      0x28\n        /* \"contracts/gainzilla.sol\":11460:11473  inSwap = true */\n      dup1\n      sload\n      0xffffffffffffffffffffffffffffffffffffffffffffffffffffffffffff00ff\n      and\n      0x0100\n      or\n      swap1\n      sstore\n      0x00\n        /* \"contracts/gainzilla.sol\":20685:20700  lpAmount.div(2) */\n      tag_718\n        /* \"contracts/gainzilla.sol\":20685:20693  lpAmount */\n      dup4\n        /* \"contracts/gainzilla.sol\":20698:20699  2 */\n      0x02\n        /* \"contracts/gainzilla.sol\":20685:20697  lpAmount.div */\n      tag_353\n        /* \"contracts/gainzilla.sol\":20685:20700  lpAmount.div(2) */\n      jump\t// in\n    tag_718:\n        /* \"contracts/gainzilla.sol\":20670:20700  uint256 half = lpAmount.div(2) */\n      swap1\n      pop\n        /* \"contracts/gainzilla.sol\":20710:20727  uint256 otherHalf */\n      0x00\n        /* \"contracts/gainzilla.sol\":20730:20748  lpAmount.sub(half) */\n      tag_719\n        /* \"contracts/gainzilla.sol\":20730:20738  lpAmount */\n      dup5\n        /* \"contracts/gainzilla.sol\":20670:20700  uint256 half = lpAmount.div(2) */\n      dup4\n        /* \"contracts/gainzilla.sol\":20730:20742  lpAmount.sub */\n      tag_433\n        /* \"contracts/gainzilla.sol\":20730:20748  lpAmount.sub(half) */\n      jump\t// in\n    tag_719:\n        /* \"contracts/gainzilla.sol\":20710:20748  uint256 otherHalf = lpAmount.sub(half) */\n      swap1\n      pop\n        /* \"contracts/gainzilla.sol\":20783:20804  address(this).balance */\n      selfbalance\n        /* \"contracts/gainzilla.sol\":20814:20862  swapTokensForEth(contractTokenBalance.add(half)) */\n      tag_720\n        /* \"contracts/gainzilla.sol\":20831:20861  contractTokenBalance.add(half) */\n      tag_721\n        /* \"contracts/gainzilla.sol\":20831:20851  contractTokenBalance */\n      dup6\n        /* \"contracts/gainzilla.sol\":20856:20860  half */\n      dup6\n        /* \"contracts/gainzilla.sol\":20831:20855  contractTokenBalance.add */\n      tag_534\n        /* \"contracts/gainzilla.sol\":20831:20861  contractTokenBalance.add(half) */\n      jump\t// in\n    tag_721:\n        /* \"contracts/gainzilla.sol\":20814:20830  swapTokensForEth */\n      tag_499\n        /* \"contracts/gainzilla.sol\":20814:20862  swapTokensForEth(contractTokenBalance.add(half)) */\n      jump\t// in\n    tag_720:\n        /* \"contracts/gainzilla.sol\":20872:20890  uint256 newBalance */\n      0x00\n        /* \"contracts/gainzilla.sol\":20893:20934  address(this).balance.sub(initialBalance) */\n      tag_722\n        /* \"contracts/gainzilla.sol\":20893:20914  address(this).balance */\n      selfbalance\n        /* \"contracts/gainzilla.sol\":20919:20933  initialBalance */\n      dup4\n        /* \"contracts/gainzilla.sol\":20893:20918  address(this).balance.sub */\n      tag_433\n        /* \"contracts/gainzilla.sol\":20893:20934  address(this).balance.sub(initialBalance) */\n      jump\t// in\n    tag_722:\n        /* \"contracts/gainzilla.sol\":20872:20934  uint256 newBalance = address(this).balance.sub(initialBalance) */\n      swap1\n      pop\n        /* \"contracts/gainzilla.sol\":20948:20961  otherHalf > 0 */\n      dup3\n      iszero\n        /* \"contracts/gainzilla.sol\":20944:21069  if (otherHalf > 0) {... */\n      tag_698\n      jumpi\n        /* \"contracts/gainzilla.sol\":20977:21058  addLiquidity(otherHalf, newBalance.mul(half).div(contractTokenBalance.add(half))) */\n      tag_698\n        /* \"contracts/gainzilla.sol\":20990:20999  otherHalf */\n      dup4\n        /* \"contracts/gainzilla.sol\":21001:21057  newBalance.mul(half).div(contractTokenBalance.add(half)) */\n      tag_725\n        /* \"contracts/gainzilla.sol\":21026:21056  contractTokenBalance.add(half) */\n      tag_726\n        /* \"contracts/gainzilla.sol\":21026:21046  contractTokenBalance */\n      dup9\n        /* \"contracts/gainzilla.sol\":21051:21055  half */\n      dup9\n        /* \"contracts/gainzilla.sol\":21026:21050  contractTokenBalance.add */\n      tag_534\n        /* \"contracts/gainzilla.sol\":21026:21056  contractTokenBalance.add(half) */\n      jump\t// in\n    tag_726:\n        /* \"contracts/gainzilla.sol\":21001:21021  newBalance.mul(half) */\n      tag_431\n        /* \"contracts/gainzilla.sol\":21001:21011  newBalance */\n      dup6\n        /* \"contracts/gainzilla.sol\":21016:21020  half */\n      dup10\n        /* \"contracts/gainzilla.sol\":21001:21015  newBalance.mul */\n      tag_434\n        /* \"contracts/gainzilla.sol\":21001:21021  newBalance.mul(half) */\n      jump\t// in\n        /* \"contracts/gainzilla.sol\":21001:21057  newBalance.mul(half).div(contractTokenBalance.add(half)) */\n    tag_725:\n        /* \"contracts/gainzilla.sol\":20977:20989  addLiquidity */\n      tag_728\n        /* \"contracts/gainzilla.sol\":20977:21058  addLiquidity(otherHalf, newBalance.mul(half).div(contractTokenBalance.add(half))) */\n      jump\t// in\n        /* \"contracts/gainzilla.sol\":21081:21823  function sendETHToFee(uint256 amount) private {... */\n    tag_652:\n        /* \"contracts/gainzilla.sol\":21137:21154  uint256 totalFees */\n      0x00\n        /* \"contracts/gainzilla.sol\":21157:21215  _sellMarketingFee.add(_sellEcosystemFee).add(_sellTeamFee) */\n      tag_730\n        /* \"contracts/gainzilla.sol\":21202:21214  _sellTeamFee */\n      sload(0x17)\n        /* \"contracts/gainzilla.sol\":21157:21197  _sellMarketingFee.add(_sellEcosystemFee) */\n      tag_533\n        /* \"contracts/gainzilla.sol\":21179:21196  _sellEcosystemFee */\n      sload(0x13)\n        /* \"contracts/gainzilla.sol\":21157:21174  _sellMarketingFee */\n      sload(0x15)\n        /* \"contracts/gainzilla.sol\":21157:21178  _sellMarketingFee.add */\n      tag_534\n      swap1\n        /* \"contracts/gainzilla.sol\":21157:21197  _sellMarketingFee.add(_sellEcosystemFee) */\n      swap2\n      swap1\n      0xffffffff\n      and\n      jump\t// in\n        /* \"contracts/gainzilla.sol\":21157:21215  _sellMarketingFee.add(_sellEcosystemFee).add(_sellTeamFee) */\n    tag_730:\n        /* \"contracts/gainzilla.sol\":21137:21215  uint256 totalFees = _sellMarketingFee.add(_sellEcosystemFee).add(_sellTeamFee) */\n      swap1\n      pop\n        /* \"contracts/gainzilla.sol\":21229:21243  totalFees != 0 */\n      dup1\n      iszero\n        /* \"contracts/gainzilla.sol\":21225:21817  if (totalFees != 0) {... */\n      tag_412\n      jumpi\n        /* \"contracts/gainzilla.sol\":21259:21283  uint256 marketingPortion */\n      0x00\n        /* \"contracts/gainzilla.sol\":21286:21330  amount.mul(_sellMarketingFee).div(totalFees) */\n      tag_733\n        /* \"contracts/gainzilla.sol\":21320:21329  totalFees */\n      dup3\n        /* \"contracts/gainzilla.sol\":21286:21315  amount.mul(_sellMarketingFee) */\n      tag_431\n        /* \"contracts/gainzilla.sol\":21297:21314  _sellMarketingFee */\n      sload(0x15)\n        /* \"contracts/gainzilla.sol\":21286:21292  amount */\n      dup7\n        /* \"contracts/gainzilla.sol\":21286:21296  amount.mul */\n      tag_434\n      swap1\n        /* \"contracts/gainzilla.sol\":21286:21315  amount.mul(_sellMarketingFee) */\n      swap2\n      swap1\n      0xffffffff\n      and\n      jump\t// in\n        /* \"contracts/gainzilla.sol\":21286:21330  amount.mul(_sellMarketingFee).div(totalFees) */\n    tag_733:\n        /* \"contracts/gainzilla.sol\":21259:21330  uint256 marketingPortion = amount.mul(_sellMarketingFee).div(totalFees) */\n      swap1\n      pop\n        /* \"contracts/gainzilla.sol\":21344:21363  uint256 teamPortion */\n      0x00\n        /* \"contracts/gainzilla.sol\":21366:21405  amount.mul(_sellTeamFee).div(totalFees) */\n      tag_735\n        /* \"contracts/gainzilla.sol\":21395:21404  totalFees */\n      dup4\n        /* \"contracts/gainzilla.sol\":21366:21390  amount.mul(_sellTeamFee) */\n      tag_431\n        /* \"contracts/gainzilla.sol\":21377:21389  _sellTeamFee */\n      sload(0x17)\n        /* \"contracts/gainzilla.sol\":21366:21372  amount */\n      dup8\n        /* \"contracts/gainzilla.sol\":21366:21376  amount.mul */\n      tag_434\n      swap1\n        /* \"contracts/gainzilla.sol\":21366:21390  amount.mul(_sellTeamFee) */\n      swap2\n      swap1\n      0xffffffff\n      and\n      jump\t// in\n        /* \"contracts/gainzilla.sol\":21366:21405  amount.mul(_sellTeamFee).div(totalFees) */\n    tag_735:\n        /* \"contracts/gainzilla.sol\":21344:21405  uint256 teamPortion = amount.mul(_sellTeamFee).div(totalFees) */\n      swap1\n      pop\n        /* \"contracts/gainzilla.sol\":21419:21437  uint256 ecoPortion */\n      0x00\n        /* \"contracts/gainzilla.sol\":21440:21485  amount.sub(marketingPortion).sub(teamPortion) */\n      tag_737\n        /* \"contracts/gainzilla.sol\":21344:21405  uint256 teamPortion = amount.mul(_sellTeamFee).div(totalFees) */\n      dup3\n        /* \"contracts/gainzilla.sol\":21440:21468  amount.sub(marketingPortion) */\n      tag_711\n        /* \"contracts/gainzilla.sol\":21440:21446  amount */\n      dup8\n        /* \"contracts/gainzilla.sol\":21451:21467  marketingPortion */\n      dup7\n        /* \"contracts/gainzilla.sol\":21440:21450  amount.sub */\n      tag_433\n        /* \"contracts/gainzilla.sol\":21440:21468  amount.sub(marketingPortion) */\n      jump\t// in\n        /* \"contracts/gainzilla.sol\":21440:21485  amount.sub(marketingPortion).sub(teamPortion) */\n    tag_737:\n        /* \"contracts/gainzilla.sol\":21419:21485  uint256 ecoPortion = amount.sub(marketingPortion).sub(teamPortion) */\n      swap1\n      pop\n        /* \"contracts/gainzilla.sol\":21503:21523  marketingPortion > 0 */\n      dup3\n      iszero\n        /* \"contracts/gainzilla.sol\":21499:21602  if (marketingPortion > 0) {... */\n      tag_739\n      jumpi\n        /* \"contracts/gainzilla.sol\":21543:21560  _marketingAddress */\n      sload(0x21)\n        /* \"contracts/gainzilla.sol\":21543:21587  _marketingAddress.transfer(marketingPortion) */\n      mload(0x40)\n      sub(shl(0xa0, 0x01), 0x01)\n        /* \"contracts/gainzilla.sol\":21543:21560  _marketingAddress */\n      swap1\n      swap2\n      and\n      swap1\n        /* \"contracts/gainzilla.sol\":21543:21587  _marketingAddress.transfer(marketingPortion) */\n      dup5\n      iszero\n      0x08fc\n      mul\n      swap1\n        /* \"contracts/gainzilla.sol\":21570:21586  marketingPortion */\n      dup6\n      swap1\n        /* \"contracts/gainzilla.sol\":21543:21560  _marketingAddress */\n      0x00\n        /* \"contracts/gainzilla.sol\":21543:21587  _marketingAddress.transfer(marketingPortion) */\n      dup2\n        /* \"contracts/gainzilla.sol\":21543:21560  _marketingAddress */\n      dup2\n        /* \"contracts/gainzilla.sol\":21543:21587  _marketingAddress.transfer(marketingPortion) */\n      dup2\n        /* \"contracts/gainzilla.sol\":21570:21586  marketingPortion */\n      dup6\n        /* \"contracts/gainzilla.sol\":21543:21560  _marketingAddress */\n      dup9\n        /* \"contracts/gainzilla.sol\":21543:21587  _marketingAddress.transfer(marketingPortion) */\n      dup9\n      call\n      swap4\n      pop\n      pop\n      pop\n      pop\n      iszero\n      dup1\n      iszero\n      tag_741\n      jumpi\n      returndatasize\n      0x00\n      dup1\n      returndatacopy\n      revert(0x00, returndatasize)\n    tag_741:\n      pop\n        /* \"contracts/gainzilla.sol\":21499:21602  if (marketingPortion > 0) {... */\n    tag_739:\n        /* \"contracts/gainzilla.sol\":21619:21634  teamPortion > 0 */\n      dup2\n      iszero\n        /* \"contracts/gainzilla.sol\":21615:21703  if (teamPortion > 0) {... */\n      tag_742\n      jumpi\n        /* \"contracts/gainzilla.sol\":21654:21666  _teamAddress */\n      sload(0x22)\n        /* \"contracts/gainzilla.sol\":21654:21688  _teamAddress.transfer(teamPortion) */\n      mload(0x40)\n      sub(shl(0xa0, 0x01), 0x01)\n        /* \"contracts/gainzilla.sol\":21654:21666  _teamAddress */\n      swap1\n      swap2\n      and\n      swap1\n        /* \"contracts/gainzilla.sol\":21654:21688  _teamAddress.transfer(teamPortion) */\n      dup4\n      iszero\n      0x08fc\n      mul\n      swap1\n        /* \"contracts/gainzilla.sol\":21676:21687  teamPortion */\n      dup5\n      swap1\n        /* \"contracts/gainzilla.sol\":21654:21666  _teamAddress */\n      0x00\n        /* \"contracts/gainzilla.sol\":21654:21688  _teamAddress.transfer(teamPortion) */\n      dup2\n        /* \"contracts/gainzilla.sol\":21654:21666  _teamAddress */\n      dup2\n        /* \"contracts/gainzilla.sol\":21654:21688  _teamAddress.transfer(teamPortion) */\n      dup2\n        /* \"contracts/gainzilla.sol\":21676:21687  teamPortion */\n      dup6\n        /* \"contracts/gainzilla.sol\":21654:21666  _teamAddress */\n      dup9\n        /* \"contracts/gainzilla.sol\":21654:21688  _teamAddress.transfer(teamPortion) */\n      dup9\n      call\n      swap4\n      pop\n      pop\n      pop\n      pop\n      iszero\n      dup1\n      iszero\n      tag_744\n      jumpi\n      returndatasize\n      0x00\n      dup1\n      returndatacopy\n      revert(0x00, returndatasize)\n    tag_744:\n      pop\n        /* \"contracts/gainzilla.sol\":21615:21703  if (teamPortion > 0) {... */\n    tag_742:\n        /* \"contracts/gainzilla.sol\":21720:21734  ecoPortion > 0 */\n      dup1\n      iszero\n        /* \"contracts/gainzilla.sol\":21716:21807  if (ecoPortion > 0) {... */\n      tag_745\n      jumpi\n        /* \"contracts/gainzilla.sol\":21754:21771  _ecosystemAddress */\n      sload(0x23)\n        /* \"contracts/gainzilla.sol\":21754:21792  _ecosystemAddress.transfer(ecoPortion) */\n      mload(0x40)\n      sub(shl(0xa0, 0x01), 0x01)\n        /* \"contracts/gainzilla.sol\":21754:21771  _ecosystemAddress */\n      swap1\n      swap2\n      and\n      swap1\n        /* \"contracts/gainzilla.sol\":21754:21792  _ecosystemAddress.transfer(ecoPortion) */\n      dup3\n      iszero\n      0x08fc\n      mul\n      swap1\n        /* \"contracts/gainzilla.sol\":21781:21791  ecoPortion */\n      dup4\n      swap1\n        /* \"contracts/gainzilla.sol\":21754:21771  _ecosystemAddress */\n      0x00\n        /* \"contracts/gainzilla.sol\":21754:21792  _ecosystemAddress.transfer(ecoPortion) */\n      dup2\n        /* \"contracts/gainzilla.sol\":21754:21771  _ecosystemAddress */\n      dup2\n        /* \"contracts/gainzilla.sol\":21754:21792  _ecosystemAddress.transfer(ecoPortion) */\n      dup2\n        /* \"contracts/gainzilla.sol\":21781:21791  ecoPortion */\n      dup6\n        /* \"contracts/gainzilla.sol\":21754:21771  _ecosystemAddress */\n      dup9\n        /* \"contracts/gainzilla.sol\":21754:21792  _ecosystemAddress.transfer(ecoPortion) */\n      dup9\n      call\n      swap4\n      pop\n      pop\n      pop\n      pop\n      iszero\n      dup1\n      iszero\n      tag_747\n      jumpi\n      returndatasize\n      0x00\n      dup1\n      returndatacopy\n      revert(0x00, returndatasize)\n    tag_747:\n      pop\n        /* \"contracts/gainzilla.sol\":21716:21807  if (ecoPortion > 0) {... */\n    tag_745:\n        /* \"contracts/gainzilla.sol\":21225:21817  if (totalFees != 0) {... */\n      pop\n      pop\n      pop\n        /* \"contracts/gainzilla.sol\":21081:21823  function sendETHToFee(uint256 amount) private {... */\n      pop\n      pop\n      jump\t// out\n        /* \"contracts/gainzilla.sol\":22954:23204  function _tokenTransfer(address sender, address recipient, uint256 amount, bool takeFee) private {... */\n    tag_663:\n        /* \"contracts/gainzilla.sol\":23066:23073  takeFee */\n      dup1\n        /* \"contracts/gainzilla.sol\":23061:23119  if (!takeFee) { ... */\n      tag_750\n      jumpi\n        /* \"contracts/gainzilla.sol\":23094:23108  removeAllFee() */\n      tag_750\n        /* \"contracts/gainzilla.sol\":13800:13816  _buyMarketingFee */\n      0x0d\n      dup1\n      sload\n        /* \"contracts/gainzilla.sol\":13773:13797  _previousBuyMarketingFee */\n      0x0e\n        /* \"contracts/gainzilla.sol\":13773:13816  _previousBuyMarketingFee = _buyMarketingFee */\n      sstore\n        /* \"contracts/gainzilla.sol\":13853:13869  _buyLiquidityFee */\n      0x09\n      dup1\n      sload\n        /* \"contracts/gainzilla.sol\":13826:13850  _previousBuyLiquidityFee */\n      0x0a\n        /* \"contracts/gainzilla.sol\":13826:13869  _previousBuyLiquidityFee = _buyLiquidityFee */\n      sstore\n        /* \"contracts/gainzilla.sol\":13901:13912  _buyTeamFee */\n      0x0f\n      dup1\n      sload\n        /* \"contracts/gainzilla.sol\":13879:13898  _previousBuyTeamFee */\n      0x10\n        /* \"contracts/gainzilla.sol\":13879:13912  _previousBuyTeamFee = _buyTeamFee */\n      sstore\n        /* \"contracts/gainzilla.sol\":13949:13965  _buyEcosystemFee */\n      0x0b\n      dup1\n      sload\n        /* \"contracts/gainzilla.sol\":13922:13946  _previousBuyEcosystemFee */\n      0x0c\n        /* \"contracts/gainzilla.sol\":13922:13965  _previousBuyEcosystemFee = _buyEcosystemFee */\n      sstore\n      0x00\n        /* \"contracts/gainzilla.sol\":13984:14004  _buyMarketingFee = 0 */\n      swap4\n      dup5\n      swap1\n      sstore\n        /* \"contracts/gainzilla.sol\":14014:14034  _buyLiquidityFee = 0 */\n      swap2\n      dup4\n      swap1\n      sstore\n        /* \"contracts/gainzilla.sol\":14044:14059  _buyTeamFee = 0 */\n      dup3\n      swap1\n      sstore\n        /* \"contracts/gainzilla.sol\":14069:14089  _buyEcosystemFee = 0 */\n      dup2\n      swap1\n      sstore\n        /* \"contracts/gainzilla.sol\":14128:14145  _sellMarketingFee */\n      0x15\n      dup1\n      sload\n        /* \"contracts/gainzilla.sol\":14100:14125  _previousSellMarketingFee */\n      0x16\n        /* \"contracts/gainzilla.sol\":14100:14145  _previousSellMarketingFee = _sellMarketingFee */\n      sstore\n        /* \"contracts/gainzilla.sol\":14183:14200  _sellLiquidityFee */\n      0x11\n      dup1\n      sload\n        /* \"contracts/gainzilla.sol\":14155:14180  _previousSellLiquidityFee */\n      0x12\n        /* \"contracts/gainzilla.sol\":14155:14200  _previousSellLiquidityFee = _sellLiquidityFee */\n      sstore\n        /* \"contracts/gainzilla.sol\":14233:14245  _sellTeamFee */\n      0x17\n      dup1\n      sload\n        /* \"contracts/gainzilla.sol\":14210:14230  _previousSellTeamFee */\n      0x18\n        /* \"contracts/gainzilla.sol\":14210:14245  _previousSellTeamFee = _sellTeamFee */\n      sstore\n        /* \"contracts/gainzilla.sol\":14283:14300  _sellEcosystemFee */\n      0x13\n      dup1\n      sload\n        /* \"contracts/gainzilla.sol\":14255:14280  _previousSellEcosystemFee */\n      0x14\n        /* \"contracts/gainzilla.sol\":14255:14300  _previousSellEcosystemFee = _sellEcosystemFee */\n      sstore\n        /* \"contracts/gainzilla.sol\":14319:14340  _sellMarketingFee = 0 */\n      swap3\n      dup5\n      swap1\n      sstore\n        /* \"contracts/gainzilla.sol\":14350:14371  _sellLiquidityFee = 0 */\n      swap1\n      dup4\n      swap1\n      sstore\n        /* \"contracts/gainzilla.sol\":14381:14397  _sellTeamFee = 0 */\n      dup3\n      swap1\n      sstore\n        /* \"contracts/gainzilla.sol\":14407:14428  _sellEcosystemFee = 0 */\n      sstore\n        /* \"contracts/gainzilla.sol\":13731:14435  function removeAllFee() private {... */\n      jump\n        /* \"contracts/gainzilla.sol\":23094:23108  removeAllFee() */\n    tag_750:\n        /* \"contracts/gainzilla.sol\":23128:23172  _transferStandard(sender, recipient, amount) */\n      tag_752\n        /* \"contracts/gainzilla.sol\":23146:23152  sender */\n      dup5\n        /* \"contracts/gainzilla.sol\":23154:23163  recipient */\n      dup5\n        /* \"contracts/gainzilla.sol\":23165:23171  amount */\n      dup5\n        /* \"contracts/gainzilla.sol\":23128:23145  _transferStandard */\n      tag_753\n        /* \"contracts/gainzilla.sol\":23128:23172  _transferStandard(sender, recipient, amount) */\n      jump\t// in\n    tag_752:\n        /* \"contracts/gainzilla.sol\":23182:23197  restoreAllFee() */\n      tag_662\n        /* \"contracts/gainzilla.sol\":14507:14531  _previousBuyMarketingFee */\n      sload(0x0e)\n        /* \"contracts/gainzilla.sol\":14488:14504  _buyMarketingFee */\n      0x0d\n        /* \"contracts/gainzilla.sol\":14488:14531  _buyMarketingFee = _previousBuyMarketingFee */\n      sstore\n        /* \"contracts/gainzilla.sol\":14560:14584  _previousBuyLiquidityFee */\n      sload(0x0a)\n        /* \"contracts/gainzilla.sol\":14541:14557  _buyLiquidityFee */\n      0x09\n        /* \"contracts/gainzilla.sol\":14541:14584  _buyLiquidityFee = _previousBuyLiquidityFee */\n      sstore\n        /* \"contracts/gainzilla.sol\":14608:14627  _previousBuyTeamFee */\n      sload(0x10)\n        /* \"contracts/gainzilla.sol\":14594:14605  _buyTeamFee */\n      0x0f\n        /* \"contracts/gainzilla.sol\":14594:14627  _buyTeamFee = _previousBuyTeamFee */\n      sstore\n        /* \"contracts/gainzilla.sol\":14656:14680  _previousBuyEcosystemFee */\n      sload(0x0c)\n        /* \"contracts/gainzilla.sol\":14637:14653  _buyEcosystemFee */\n      0x0b\n        /* \"contracts/gainzilla.sol\":14637:14680  _buyEcosystemFee = _previousBuyEcosystemFee */\n      sstore\n        /* \"contracts/gainzilla.sol\":14711:14736  _previousSellMarketingFee */\n      sload(0x16)\n        /* \"contracts/gainzilla.sol\":14691:14708  _sellMarketingFee */\n      0x15\n        /* \"contracts/gainzilla.sol\":14691:14736  _sellMarketingFee = _previousSellMarketingFee */\n      sstore\n        /* \"contracts/gainzilla.sol\":14766:14791  _previousSellLiquidityFee */\n      sload(0x12)\n        /* \"contracts/gainzilla.sol\":14746:14763  _sellLiquidityFee */\n      0x11\n        /* \"contracts/gainzilla.sol\":14746:14791  _sellLiquidityFee = _previousSellLiquidityFee */\n      sstore\n        /* \"contracts/gainzilla.sol\":14816:14836  _previousSellTeamFee */\n      sload(0x18)\n        /* \"contracts/gainzilla.sol\":14801:14813  _sellTeamFee */\n      0x17\n        /* \"contracts/gainzilla.sol\":14801:14836  _sellTeamFee = _previousSellTeamFee */\n      sstore\n        /* \"contracts/gainzilla.sol\":14866:14891  _previousSellEcosystemFee */\n      sload(0x14)\n        /* \"contracts/gainzilla.sol\":14846:14863  _sellEcosystemFee */\n      0x13\n        /* \"contracts/gainzilla.sol\":14846:14891  _sellEcosystemFee = _previousSellEcosystemFee */\n      sstore\n        /* \"contracts/gainzilla.sol\":14445:14898  function restoreAllFee() private {... */\n      jump\n        /* \"contracts/gainzilla.sol\":2422:2607  function div(uint256 a, uint256 b, string memory errorMessage) internal pure returns (uint256) {... */\n    tag_671:\n        /* \"contracts/gainzilla.sol\":2508:2515  uint256 */\n      0x00\n        /* \"contracts/gainzilla.sol\":2542:2554  errorMessage */\n      dup2\n        /* \"contracts/gainzilla.sol\":2535:2540  b > 0 */\n      dup4\n        /* \"contracts/gainzilla.sol\":2527:2555  require(b > 0, errorMessage) */\n      tag_757\n      jumpi\n      mload(0x40)\n      shl(0xe5, 0x461bcd)\n      dup2\n      mstore\n      0x04\n      add\n      tag_330\n      swap2\n      swap1\n      tag_86\n      jump\t// in\n    tag_757:\n      pop\n        /* \"contracts/gainzilla.sol\":2565:2574  uint256 c */\n      0x00\n        /* \"contracts/gainzilla.sol\":2577:2582  a / b */\n      tag_667\n        /* \"contracts/gainzilla.sol\":2581:2582  b */\n      dup5\n        /* \"contracts/gainzilla.sol\":2577:2578  a */\n      dup7\n        /* \"contracts/gainzilla.sol\":2577:2582  a / b */\n      tag_679\n      jump\t// in\n        /* \"contracts/gainzilla.sol\":20107:20560  function addLiquidity(uint256 tokenAmount, uint256 ethAmount) private {... */\n    tag_728:\n        /* \"contracts/gainzilla.sol\":20219:20234  uniswapV2Router */\n      sload(0x25)\n        /* \"contracts/gainzilla.sol\":20187:20249  _approve(address(this), address(uniswapV2Router), tokenAmount) */\n      tag_761\n      swap1\n        /* \"contracts/gainzilla.sol\":20204:20208  this */\n      address\n      swap1\n      sub(shl(0xa0, 0x01), 0x01)\n        /* \"contracts/gainzilla.sol\":20219:20234  uniswapV2Router */\n      and\n        /* \"contracts/gainzilla.sol\":20237:20248  tokenAmount */\n      dup5\n        /* \"contracts/gainzilla.sol\":20187:20195  _approve */\n      tag_326\n        /* \"contracts/gainzilla.sol\":20187:20249  _approve(address(this), address(uniswapV2Router), tokenAmount) */\n      jump\t// in\n    tag_761:\n        /* \"contracts/gainzilla.sol\":20289:20304  uniswapV2Router */\n      sload(0x25)\n        /* \"contracts/gainzilla.sol\":20498:20510  _lpRecipient */\n      0x24\n      dup1\n      sload\n        /* \"contracts/gainzilla.sol\":20289:20553  uniswapV2Router.addLiquidityETH{value: ethAmount}(... */\n      mload(0x40)\n      0xf305d71900000000000000000000000000000000000000000000000000000000\n      dup2\n      mstore\n        /* \"contracts/gainzilla.sol\":20362:20366  this */\n      address\n        /* \"contracts/gainzilla.sol\":20289:20553  uniswapV2Router.addLiquidityETH{value: ethAmount}(... */\n      0x04\n      dup3\n      add\n        /* \"#utility.yul\":5318:5352   */\n      mstore\n        /* \"#utility.yul\":5368:5386   */\n      swap2\n      dup3\n      add\n        /* \"#utility.yul\":5361:5395   */\n      dup6\n      swap1\n      mstore\n        /* \"contracts/gainzilla.sol\":20289:20304  uniswapV2Router */\n      0x00\n        /* \"#utility.yul\":5411:5429   */\n      0x44\n      dup4\n      add\n        /* \"#utility.yul\":5404:5438   */\n      dup2\n      swap1\n      mstore\n        /* \"#utility.yul\":5454:5472   */\n      0x64\n      dup4\n      add\n        /* \"#utility.yul\":5447:5481   */\n      mstore\n      sub(shl(0xa0, 0x01), 0x01)\n        /* \"contracts/gainzilla.sol\":20498:20510  _lpRecipient */\n      swap1\n      dup2\n      and\n        /* \"#utility.yul\":5497:5516   */\n      0x84\n      dup4\n      add\n        /* \"#utility.yul\":5490:5534   */\n      mstore\n        /* \"contracts/gainzilla.sol\":20526:20541  block.timestamp */\n      timestamp\n        /* \"#utility.yul\":5550:5569   */\n      0xa4\n      dup4\n      add\n        /* \"#utility.yul\":5543:5578   */\n      mstore\n        /* \"contracts/gainzilla.sol\":20289:20304  uniswapV2Router */\n      swap1\n      swap2\n      and\n      swap1\n        /* \"contracts/gainzilla.sol\":20289:20320  uniswapV2Router.addLiquidityETH */\n      0xf305d719\n      swap1\n        /* \"contracts/gainzilla.sol\":20328:20337  ethAmount */\n      dup4\n      swap1\n        /* \"#utility.yul\":5229:5248   */\n      0xc4\n      add\n        /* \"contracts/gainzilla.sol\":20289:20553  uniswapV2Router.addLiquidityETH{value: ethAmount}(... */\n      0x60\n      mload(0x40)\n      dup1\n      dup4\n      sub\n      dup2\n      dup6\n      dup9\n      dup1\n      extcodesize\n      iszero\n      dup1\n      iszero\n      tag_764\n      jumpi\n      0x00\n      dup1\n      revert\n    tag_764:\n      pop\n      gas\n      call\n      iszero\n      dup1\n      iszero\n      tag_766\n      jumpi\n      returndatasize\n      0x00\n      dup1\n      returndatacopy\n      revert(0x00, returndatasize)\n    tag_766:\n      pop\n      pop\n      pop\n      pop\n      pop\n      mload(0x40)\n      returndatasize\n      not(0x1f)\n      0x1f\n      dup3\n      add\n      and\n      dup3\n      add\n      dup1\n      0x40\n      mstore\n      pop\n      dup2\n      add\n      swap1\n      tag_745\n      swap2\n      swap1\n      tag_768\n      jump\t// in\n        /* \"contracts/gainzilla.sol\":23210:25057  function _transferStandard(address sender, address recipient, uint256 amount) private {... */\n    tag_753:\n        /* \"contracts/gainzilla.sol\":23306:23330  FeeBreakdown memory fees */\n      tag_771\n      mload(0x40)\n      dup1\n      0xa0\n      add\n      0x40\n      mstore\n      dup1\n      0x00\n      dup2\n      mstore\n      0x20\n      add\n      0x00\n      dup2\n      mstore\n      0x20\n      add\n      0x00\n      dup2\n      mstore\n      0x20\n      add\n      0x00\n      dup2\n      mstore\n      0x20\n      add\n      0x00\n      dup2\n      mstore\n      pop\n      swap1\n      jump\n    tag_771:\n        /* \"contracts/gainzilla.sol\":23354:23367  uniswapV2Pair */\n      sload(0x26)\n      sub(shl(0xa0, 0x01), 0x01)\n        /* \"contracts/gainzilla.sol\":23344:23367  sender == uniswapV2Pair */\n      dup6\n      dup2\n      and\n        /* \"contracts/gainzilla.sol\":23354:23367  uniswapV2Pair */\n      swap2\n      and\n        /* \"contracts/gainzilla.sol\":23344:23367  sender == uniswapV2Pair */\n      eq\n        /* \"contracts/gainzilla.sol\":23344:23408  sender == uniswapV2Pair && recipient != address(uniswapV2Router) */\n      dup1\n      iszero\n      tag_773\n      jumpi\n      pop\n        /* \"contracts/gainzilla.sol\":23392:23407  uniswapV2Router */\n      sload(0x25)\n      sub(shl(0xa0, 0x01), 0x01)\n        /* \"contracts/gainzilla.sol\":23371:23408  recipient != address(uniswapV2Router) */\n      dup5\n      dup2\n      and\n        /* \"contracts/gainzilla.sol\":23392:23407  uniswapV2Router */\n      swap2\n      and\n        /* \"contracts/gainzilla.sol\":23371:23408  recipient != address(uniswapV2Router) */\n      eq\n      iszero\n        /* \"contracts/gainzilla.sol\":23344:23408  sender == uniswapV2Pair && recipient != address(uniswapV2Router) */\n    tag_773:\n        /* \"contracts/gainzilla.sol\":23340:23697  if (sender == uniswapV2Pair && recipient != address(uniswapV2Router)) {//buys... */\n      iszero\n      tag_774\n      jumpi\n        /* \"contracts/gainzilla.sol\":23448:23486  amount.mul(_buyMarketingFee).div(1000) */\n      tag_775\n        /* \"contracts/gainzilla.sol\":23481:23485  1000 */\n      0x03e8\n        /* \"contracts/gainzilla.sol\":23448:23476  amount.mul(_buyMarketingFee) */\n      tag_431\n        /* \"contracts/gainzilla.sol\":23459:23475  _buyMarketingFee */\n      sload(0x0d)\n        /* \"contracts/gainzilla.sol\":23448:23454  amount */\n      dup6\n        /* \"contracts/gainzilla.sol\":23448:23458  amount.mul */\n      tag_434\n      swap1\n        /* \"contracts/gainzilla.sol\":23448:23476  amount.mul(_buyMarketingFee) */\n      swap2\n      swap1\n      0xffffffff\n      and\n      jump\t// in\n        /* \"contracts/gainzilla.sol\":23448:23486  amount.mul(_buyMarketingFee).div(1000) */\n    tag_775:\n        /* \"contracts/gainzilla.sol\":23430:23445  fees.tMarketing */\n      0x20\n      dup3\n      add\n        /* \"contracts/gainzilla.sol\":23430:23486  fees.tMarketing = amount.mul(_buyMarketingFee).div(1000) */\n      mstore\n        /* \"contracts/gainzilla.sol\":23529:23545  _buyLiquidityFee */\n      sload(0x09)\n        /* \"contracts/gainzilla.sol\":23518:23556  amount.mul(_buyLiquidityFee).div(1000) */\n      tag_777\n      swap1\n        /* \"contracts/gainzilla.sol\":23551:23555  1000 */\n      0x03e8\n      swap1\n        /* \"contracts/gainzilla.sol\":23518:23546  amount.mul(_buyLiquidityFee) */\n      tag_431\n      swap1\n        /* \"contracts/gainzilla.sol\":23518:23524  amount */\n      dup6\n      swap1\n        /* \"contracts/gainzilla.sol\":23518:23528  amount.mul */\n      tag_434\n        /* \"contracts/gainzilla.sol\":23518:23546  amount.mul(_buyLiquidityFee) */\n      jump\t// in\n        /* \"contracts/gainzilla.sol\":23518:23556  amount.mul(_buyLiquidityFee).div(1000) */\n    tag_777:\n        /* \"contracts/gainzilla.sol\":23500:23556  fees.tLiquidity = amount.mul(_buyLiquidityFee).div(1000) */\n      dup2\n      mstore\n        /* \"contracts/gainzilla.sol\":23594:23605  _buyTeamFee */\n      sload(0x0f)\n        /* \"contracts/gainzilla.sol\":23583:23616  amount.mul(_buyTeamFee).div(1000) */\n      tag_779\n      swap1\n        /* \"contracts/gainzilla.sol\":23611:23615  1000 */\n      0x03e8\n      swap1\n        /* \"contracts/gainzilla.sol\":23583:23606  amount.mul(_buyTeamFee) */\n      tag_431\n      swap1\n        /* \"contracts/gainzilla.sol\":23583:23589  amount */\n      dup6\n      swap1\n        /* \"contracts/gainzilla.sol\":23583:23593  amount.mul */\n      tag_434\n        /* \"contracts/gainzilla.sol\":23583:23606  amount.mul(_buyTeamFee) */\n      jump\t// in\n        /* \"contracts/gainzilla.sol\":23583:23616  amount.mul(_buyTeamFee).div(1000) */\n    tag_779:\n        /* \"contracts/gainzilla.sol\":23570:23580  fees.tTeam */\n      0x40\n      dup3\n      add\n        /* \"contracts/gainzilla.sol\":23570:23616  fees.tTeam = amount.mul(_buyTeamFee).div(1000) */\n      mstore\n        /* \"contracts/gainzilla.sol\":23659:23675  _buyEcosystemFee */\n      sload(0x0b)\n        /* \"contracts/gainzilla.sol\":23648:23686  amount.mul(_buyEcosystemFee).div(1000) */\n      tag_781\n      swap1\n        /* \"contracts/gainzilla.sol\":23681:23685  1000 */\n      0x03e8\n      swap1\n        /* \"contracts/gainzilla.sol\":23648:23676  amount.mul(_buyEcosystemFee) */\n      tag_431\n      swap1\n        /* \"contracts/gainzilla.sol\":23648:23654  amount */\n      dup6\n      swap1\n        /* \"contracts/gainzilla.sol\":23648:23658  amount.mul */\n      tag_434\n        /* \"contracts/gainzilla.sol\":23648:23676  amount.mul(_buyEcosystemFee) */\n      jump\t// in\n        /* \"contracts/gainzilla.sol\":23648:23686  amount.mul(_buyEcosystemFee).div(1000) */\n    tag_781:\n        /* \"contracts/gainzilla.sol\":23630:23645  fees.tEcosystem */\n      0x60\n      dup3\n      add\n        /* \"contracts/gainzilla.sol\":23630:23686  fees.tEcosystem = amount.mul(_buyEcosystemFee).div(1000) */\n      mstore\n        /* \"contracts/gainzilla.sol\":23340:23697  if (sender == uniswapV2Pair && recipient != address(uniswapV2Router)) {//buys... */\n    tag_774:\n        /* \"contracts/gainzilla.sol\":23720:23733  uniswapV2Pair */\n      sload(0x26)\n      sub(shl(0xa0, 0x01), 0x01)\n        /* \"contracts/gainzilla.sol\":23710:23733  sender != uniswapV2Pair */\n      dup6\n      dup2\n      and\n        /* \"contracts/gainzilla.sol\":23720:23733  uniswapV2Pair */\n      swap2\n      and\n        /* \"contracts/gainzilla.sol\":23710:23733  sender != uniswapV2Pair */\n      eq\n      dup1\n      iszero\n      swap1\n        /* \"contracts/gainzilla.sol\":23710:23763  sender != uniswapV2Pair && recipient == uniswapV2Pair */\n      tag_783\n      jumpi\n      pop\n        /* \"contracts/gainzilla.sol\":23750:23763  uniswapV2Pair */\n      sload(0x26)\n      sub(shl(0xa0, 0x01), 0x01)\n        /* \"contracts/gainzilla.sol\":23737:23763  recipient == uniswapV2Pair */\n      dup5\n      dup2\n      and\n        /* \"contracts/gainzilla.sol\":23750:23763  uniswapV2Pair */\n      swap2\n      and\n        /* \"contracts/gainzilla.sol\":23737:23763  recipient == uniswapV2Pair */\n      eq\n        /* \"contracts/gainzilla.sol\":23710:23763  sender != uniswapV2Pair && recipient == uniswapV2Pair */\n    tag_783:\n        /* \"contracts/gainzilla.sol\":23706:24057  if (sender != uniswapV2Pair && recipient == uniswapV2Pair) {//sells... */\n      iszero\n      tag_784\n      jumpi\n        /* \"contracts/gainzilla.sol\":23804:23843  amount.mul(_sellMarketingFee).div(1000) */\n      tag_785\n        /* \"contracts/gainzilla.sol\":23838:23842  1000 */\n      0x03e8\n        /* \"contracts/gainzilla.sol\":23804:23833  amount.mul(_sellMarketingFee) */\n      tag_431\n        /* \"contracts/gainzilla.sol\":23815:23832  _sellMarketingFee */\n      sload(0x15)\n        /* \"contracts/gainzilla.sol\":23804:23810  amount */\n      dup6\n        /* \"contracts/gainzilla.sol\":23804:23814  amount.mul */\n      tag_434\n      swap1\n        /* \"contracts/gainzilla.sol\":23804:23833  amount.mul(_sellMarketingFee) */\n      swap2\n      swap1\n      0xffffffff\n      and\n      jump\t// in\n        /* \"contracts/gainzilla.sol\":23804:23843  amount.mul(_sellMarketingFee).div(1000) */\n    tag_785:\n        /* \"contracts/gainzilla.sol\":23786:23801  fees.tMarketing */\n      0x20\n      dup3\n      add\n        /* \"contracts/gainzilla.sol\":23786:23843  fees.tMarketing = amount.mul(_sellMarketingFee).div(1000) */\n      mstore\n        /* \"contracts/gainzilla.sol\":23886:23903  _sellLiquidityFee */\n      sload(0x11)\n        /* \"contracts/gainzilla.sol\":23875:23914  amount.mul(_sellLiquidityFee).div(1000) */\n      tag_787\n      swap1\n        /* \"contracts/gainzilla.sol\":23909:23913  1000 */\n      0x03e8\n      swap1\n        /* \"contracts/gainzilla.sol\":23875:23904  amount.mul(_sellLiquidityFee) */\n      tag_431\n      swap1\n        /* \"contracts/gainzilla.sol\":23875:23881  amount */\n      dup6\n      swap1\n        /* \"contracts/gainzilla.sol\":23875:23885  amount.mul */\n      tag_434\n        /* \"contracts/gainzilla.sol\":23875:23904  amount.mul(_sellLiquidityFee) */\n      jump\t// in\n        /* \"contracts/gainzilla.sol\":23875:23914  amount.mul(_sellLiquidityFee).div(1000) */\n    tag_787:\n        /* \"contracts/gainzilla.sol\":23857:23914  fees.tLiquidity = amount.mul(_sellLiquidityFee).div(1000) */\n      dup2\n      mstore\n        /* \"contracts/gainzilla.sol\":23952:23964  _sellTeamFee */\n      sload(0x17)\n        /* \"contracts/gainzilla.sol\":23941:23975  amount.mul(_sellTeamFee).div(1000) */\n      tag_789\n      swap1\n        /* \"contracts/gainzilla.sol\":23970:23974  1000 */\n      0x03e8\n      swap1\n        /* \"contracts/gainzilla.sol\":23941:23965  amount.mul(_sellTeamFee) */\n      tag_431\n      swap1\n        /* \"contracts/gainzilla.sol\":23941:23947  amount */\n      dup6\n      swap1\n        /* \"contracts/gainzilla.sol\":23941:23951  amount.mul */\n      tag_434\n        /* \"contracts/gainzilla.sol\":23941:23965  amount.mul(_sellTeamFee) */\n      jump\t// in\n        /* \"contracts/gainzilla.sol\":23941:23975  amount.mul(_sellTeamFee).div(1000) */\n    tag_789:\n        /* \"contracts/gainzilla.sol\":23928:23938  fees.tTeam */\n      0x40\n      dup3\n      add\n        /* \"contracts/gainzilla.sol\":23928:23975  fees.tTeam = amount.mul(_sellTeamFee).div(1000) */\n      mstore\n        /* \"contracts/gainzilla.sol\":24018:24035  _sellEcosystemFee */\n      sload(0x13)\n        /* \"contracts/gainzilla.sol\":24007:24046  amount.mul(_sellEcosystemFee).div(1000) */\n      tag_791\n      swap1\n        /* \"contracts/gainzilla.sol\":24041:24045  1000 */\n      0x03e8\n      swap1\n        /* \"contracts/gainzilla.sol\":24007:24036  amount.mul(_sellEcosystemFee) */\n      tag_431\n      swap1\n        /* \"contracts/gainzilla.sol\":24007:24013  amount */\n      dup6\n      swap1\n        /* \"contracts/gainzilla.sol\":24007:24017  amount.mul */\n      tag_434\n        /* \"contracts/gainzilla.sol\":24007:24036  amount.mul(_sellEcosystemFee) */\n      jump\t// in\n        /* \"contracts/gainzilla.sol\":24007:24046  amount.mul(_sellEcosystemFee).div(1000) */\n    tag_791:\n        /* \"contracts/gainzilla.sol\":23989:24004  fees.tEcosystem */\n      0x60\n      dup3\n      add\n        /* \"contracts/gainzilla.sol\":23989:24046  fees.tEcosystem = amount.mul(_sellEcosystemFee).div(1000) */\n      mstore\n        /* \"contracts/gainzilla.sol\":23706:24057  if (sender != uniswapV2Pair && recipient == uniswapV2Pair) {//sells... */\n    tag_784:\n        /* \"contracts/gainzilla.sol\":24080:24093  uniswapV2Pair */\n      sload(0x26)\n      sub(shl(0xa0, 0x01), 0x01)\n        /* \"contracts/gainzilla.sol\":24070:24093  sender != uniswapV2Pair */\n      dup6\n      dup2\n      and\n        /* \"contracts/gainzilla.sol\":24080:24093  uniswapV2Pair */\n      swap2\n      and\n        /* \"contracts/gainzilla.sol\":24070:24093  sender != uniswapV2Pair */\n      eq\n      dup1\n      iszero\n      swap1\n        /* \"contracts/gainzilla.sol\":24070:24123  sender != uniswapV2Pair && recipient != uniswapV2Pair */\n      tag_793\n      jumpi\n      pop\n        /* \"contracts/gainzilla.sol\":24110:24123  uniswapV2Pair */\n      sload(0x26)\n      sub(shl(0xa0, 0x01), 0x01)\n        /* \"contracts/gainzilla.sol\":24097:24123  recipient != uniswapV2Pair */\n      dup5\n      dup2\n      and\n        /* \"contracts/gainzilla.sol\":24110:24123  uniswapV2Pair */\n      swap2\n      and\n        /* \"contracts/gainzilla.sol\":24097:24123  recipient != uniswapV2Pair */\n      eq\n      iszero\n        /* \"contracts/gainzilla.sol\":24070:24123  sender != uniswapV2Pair && recipient != uniswapV2Pair */\n    tag_793:\n        /* \"contracts/gainzilla.sol\":24066:24588  if (sender != uniswapV2Pair && recipient != uniswapV2Pair) {//transfer... */\n      iszero\n      tag_794\n      jumpi\n        /* \"contracts/gainzilla.sol\":24167:24248  (amount.mul(_sellMarketingFee).div(1000)).mul(transferFeeIncreaseFactor).div(100) */\n      tag_795\n        /* \"contracts/gainzilla.sol\":24244:24247  100 */\n      0x64\n        /* \"contracts/gainzilla.sol\":24167:24239  (amount.mul(_sellMarketingFee).div(1000)).mul(transferFeeIncreaseFactor) */\n      tag_431\n        /* \"contracts/gainzilla.sol\":24213:24238  transferFeeIncreaseFactor */\n      sload(0x19)\n        /* \"contracts/gainzilla.sol\":24168:24207  amount.mul(_sellMarketingFee).div(1000) */\n      tag_432\n        /* \"contracts/gainzilla.sol\":24202:24206  1000 */\n      0x03e8\n        /* \"contracts/gainzilla.sol\":24168:24197  amount.mul(_sellMarketingFee) */\n      tag_431\n        /* \"contracts/gainzilla.sol\":24179:24196  _sellMarketingFee */\n      sload(0x15)\n        /* \"contracts/gainzilla.sol\":24168:24174  amount */\n      dup10\n        /* \"contracts/gainzilla.sol\":24168:24178  amount.mul */\n      tag_434\n      swap1\n        /* \"contracts/gainzilla.sol\":24168:24197  amount.mul(_sellMarketingFee) */\n      swap2\n      swap1\n      0xffffffff\n      and\n      jump\t// in\n        /* \"contracts/gainzilla.sol\":24167:24248  (amount.mul(_sellMarketingFee).div(1000)).mul(transferFeeIncreaseFactor).div(100) */\n    tag_795:\n        /* \"contracts/gainzilla.sol\":24149:24153  fees */\n      dup2\n        /* \"contracts/gainzilla.sol\":24149:24164  fees.tMarketing */\n      0x20\n      add\n        /* \"contracts/gainzilla.sol\":24149:24248  fees.tMarketing = (amount.mul(_sellMarketingFee).div(1000)).mul(transferFeeIncreaseFactor).div(100) */\n      dup2\n      dup2\n      mstore\n      pop\n      pop\n        /* \"contracts/gainzilla.sol\":24280:24361  (amount.mul(_sellLiquidityFee).div(1000)).mul(transferFeeIncreaseFactor).div(100) */\n      tag_799\n        /* \"contracts/gainzilla.sol\":24357:24360  100 */\n      0x64\n        /* \"contracts/gainzilla.sol\":24280:24352  (amount.mul(_sellLiquidityFee).div(1000)).mul(transferFeeIncreaseFactor) */\n      tag_431\n        /* \"contracts/gainzilla.sol\":24326:24351  transferFeeIncreaseFactor */\n      sload(0x19)\n        /* \"contracts/gainzilla.sol\":24281:24320  amount.mul(_sellLiquidityFee).div(1000) */\n      tag_432\n        /* \"contracts/gainzilla.sol\":24315:24319  1000 */\n      0x03e8\n        /* \"contracts/gainzilla.sol\":24281:24310  amount.mul(_sellLiquidityFee) */\n      tag_431\n        /* \"contracts/gainzilla.sol\":24292:24309  _sellLiquidityFee */\n      sload(0x11)\n        /* \"contracts/gainzilla.sol\":24281:24287  amount */\n      dup10\n        /* \"contracts/gainzilla.sol\":24281:24291  amount.mul */\n      tag_434\n      swap1\n        /* \"contracts/gainzilla.sol\":24281:24310  amount.mul(_sellLiquidityFee) */\n      swap2\n      swap1\n      0xffffffff\n      and\n      jump\t// in\n        /* \"contracts/gainzilla.sol\":24280:24361  (amount.mul(_sellLiquidityFee).div(1000)).mul(transferFeeIncreaseFactor).div(100) */\n    tag_799:\n        /* \"contracts/gainzilla.sol\":24262:24361  fees.tLiquidity = (amount.mul(_sellLiquidityFee).div(1000)).mul(transferFeeIncreaseFactor).div(100) */\n      dup2\n      mstore\n        /* \"contracts/gainzilla.sol\":24429:24454  transferFeeIncreaseFactor */\n      sload(0x19)\n        /* \"contracts/gainzilla.sol\":24400:24412  _sellTeamFee */\n      sload(0x17)\n        /* \"contracts/gainzilla.sol\":24388:24464  (amount.mul(_sellTeamFee).div(1000)).mul(transferFeeIncreaseFactor).div(100) */\n      tag_803\n      swap2\n        /* \"contracts/gainzilla.sol\":24460:24463  100 */\n      0x64\n      swap2\n        /* \"contracts/gainzilla.sol\":24388:24455  (amount.mul(_sellTeamFee).div(1000)).mul(transferFeeIncreaseFactor) */\n      tag_431\n      swap2\n        /* \"contracts/gainzilla.sol\":24429:24454  transferFeeIncreaseFactor */\n      swap1\n        /* \"contracts/gainzilla.sol\":24389:24423  amount.mul(_sellTeamFee).div(1000) */\n      tag_432\n      swap1\n        /* \"contracts/gainzilla.sol\":24418:24422  1000 */\n      0x03e8\n      swap1\n        /* \"contracts/gainzilla.sol\":24388:24455  (amount.mul(_sellTeamFee).div(1000)).mul(transferFeeIncreaseFactor) */\n      dup5\n      swap1\n        /* \"contracts/gainzilla.sol\":24389:24395  amount */\n      dup10\n      swap1\n        /* \"contracts/gainzilla.sol\":24389:24399  amount.mul */\n      tag_434\n        /* \"contracts/gainzilla.sol\":24389:24413  amount.mul(_sellTeamFee) */\n      jump\t// in\n        /* \"contracts/gainzilla.sol\":24388:24464  (amount.mul(_sellTeamFee).div(1000)).mul(transferFeeIncreaseFactor).div(100) */\n    tag_803:\n        /* \"contracts/gainzilla.sol\":24375:24379  fees */\n      dup2\n        /* \"contracts/gainzilla.sol\":24375:24385  fees.tTeam */\n      0x40\n      add\n        /* \"contracts/gainzilla.sol\":24375:24464  fees.tTeam = (amount.mul(_sellTeamFee).div(1000)).mul(transferFeeIncreaseFactor).div(100) */\n      dup2\n      dup2\n      mstore\n      pop\n      pop\n        /* \"contracts/gainzilla.sol\":24496:24577  (amount.mul(_sellEcosystemFee).div(1000)).mul(transferFeeIncreaseFactor).div(100) */\n      tag_807\n        /* \"contracts/gainzilla.sol\":24573:24576  100 */\n      0x64\n        /* \"contracts/gainzilla.sol\":24496:24568  (amount.mul(_sellEcosystemFee).div(1000)).mul(transferFeeIncreaseFactor) */\n      tag_431\n        /* \"contracts/gainzilla.sol\":24542:24567  transferFeeIncreaseFactor */\n      sload(0x19)\n        /* \"contracts/gainzilla.sol\":24497:24536  amount.mul(_sellEcosystemFee).div(1000) */\n      tag_432\n        /* \"contracts/gainzilla.sol\":24531:24535  1000 */\n      0x03e8\n        /* \"contracts/gainzilla.sol\":24497:24526  amount.mul(_sellEcosystemFee) */\n      tag_431\n        /* \"contracts/gainzilla.sol\":24508:24525  _sellEcosystemFee */\n      sload(0x13)\n        /* \"contracts/gainzilla.sol\":24497:24503  amount */\n      dup10\n        /* \"contracts/gainzilla.sol\":24497:24507  amount.mul */\n      tag_434\n      swap1\n        /* \"contracts/gainzilla.sol\":24497:24526  amount.mul(_sellEcosystemFee) */\n      swap2\n      swap1\n      0xffffffff\n      and\n      jump\t// in\n        /* \"contracts/gainzilla.sol\":24496:24577  (amount.mul(_sellEcosystemFee).div(1000)).mul(transferFeeIncreaseFactor).div(100) */\n    tag_807:\n        /* \"contracts/gainzilla.sol\":24478:24493  fees.tEcosystem */\n      0x60\n      dup3\n      add\n        /* \"contracts/gainzilla.sol\":24478:24577  fees.tEcosystem = (amount.mul(_sellEcosystemFee).div(1000)).mul(transferFeeIncreaseFactor).div(100) */\n      mstore\n        /* \"contracts/gainzilla.sol\":24066:24588  if (sender != uniswapV2Pair && recipient != uniswapV2Pair) {//transfer... */\n    tag_794:\n        /* \"contracts/gainzilla.sol\":24621:24706  amount.sub(fees.tMarketing).sub(fees.tLiquidity).sub(fees.tTeam).sub(fees.tEcosystem) */\n      tag_811\n        /* \"contracts/gainzilla.sol\":24690:24694  fees */\n      dup2\n        /* \"contracts/gainzilla.sol\":24690:24705  fees.tEcosystem */\n      0x60\n      add\n      mload\n        /* \"contracts/gainzilla.sol\":24621:24685  amount.sub(fees.tMarketing).sub(fees.tLiquidity).sub(fees.tTeam) */\n      tag_711\n        /* \"contracts/gainzilla.sol\":24674:24678  fees */\n      dup4\n        /* \"contracts/gainzilla.sol\":24674:24684  fees.tTeam */\n      0x40\n      add\n      mload\n        /* \"contracts/gainzilla.sol\":24621:24669  amount.sub(fees.tMarketing).sub(fees.tLiquidity) */\n      tag_711\n        /* \"contracts/gainzilla.sol\":24653:24657  fees */\n      dup6\n        /* \"contracts/gainzilla.sol\":24653:24668  fees.tLiquidity */\n      0x00\n      add\n      mload\n        /* \"contracts/gainzilla.sol\":24621:24648  amount.sub(fees.tMarketing) */\n      tag_711\n        /* \"contracts/gainzilla.sol\":24632:24636  fees */\n      dup8\n        /* \"contracts/gainzilla.sol\":24632:24647  fees.tMarketing */\n      0x20\n      add\n      mload\n        /* \"contracts/gainzilla.sol\":24621:24627  amount */\n      dup10\n        /* \"contracts/gainzilla.sol\":24621:24631  amount.sub */\n      tag_433\n      swap1\n        /* \"contracts/gainzilla.sol\":24621:24648  amount.sub(fees.tMarketing) */\n      swap2\n      swap1\n      0xffffffff\n      and\n      jump\t// in\n        /* \"contracts/gainzilla.sol\":24621:24706  amount.sub(fees.tMarketing).sub(fees.tLiquidity).sub(fees.tTeam).sub(fees.tEcosystem) */\n    tag_811:\n        /* \"contracts/gainzilla.sol\":24606:24618  fees.tAmount */\n      0x80\n      dup3\n      add\n        /* \"contracts/gainzilla.sol\":24606:24706  fees.tAmount = amount.sub(fees.tMarketing).sub(fees.tLiquidity).sub(fees.tTeam).sub(fees.tEcosystem) */\n      mstore\n      sub(shl(0xa0, 0x01), 0x01)\n        /* \"contracts/gainzilla.sol\":24745:24762  _balances[sender] */\n      dup5\n      and\n      0x00\n      swap1\n      dup2\n      mstore\n        /* \"contracts/gainzilla.sol\":24745:24754  _balances */\n      0x02\n        /* \"contracts/gainzilla.sol\":24745:24762  _balances[sender] */\n      0x20\n      mstore\n      0x40\n      swap1\n      keccak256\n      sload\n        /* \"contracts/gainzilla.sol\":24745:24774  _balances[sender].sub(amount) */\n      tag_815\n      swap1\n        /* \"contracts/gainzilla.sol\":24767:24773  amount */\n      dup4\n        /* \"contracts/gainzilla.sol\":24745:24766  _balances[sender].sub */\n      tag_433\n        /* \"contracts/gainzilla.sol\":24745:24774  _balances[sender].sub(amount) */\n      jump\t// in\n    tag_815:\n      sub(shl(0xa0, 0x01), 0x01)\n        /* \"contracts/gainzilla.sol\":24725:24742  _balances[sender] */\n      dup1\n      dup7\n      and\n      0x00\n      swap1\n      dup2\n      mstore\n        /* \"contracts/gainzilla.sol\":24725:24734  _balances */\n      0x02\n        /* \"contracts/gainzilla.sol\":24725:24742  _balances[sender] */\n      0x20\n      mstore\n      0x40\n      dup1\n      dup3\n      keccak256\n        /* \"contracts/gainzilla.sol\":24725:24774  _balances[sender] = _balances[sender].sub(amount) */\n      swap4\n      swap1\n      swap4\n      sstore\n        /* \"contracts/gainzilla.sol\":24832:24844  fees.tAmount */\n      0x80\n      dup5\n      add\n      mload\n        /* \"contracts/gainzilla.sol\":24807:24827  _balances[recipient] */\n      swap2\n      dup7\n      and\n      dup2\n      mstore\n      swap2\n      swap1\n      swap2\n      keccak256\n      sload\n        /* \"contracts/gainzilla.sol\":24807:24845  _balances[recipient].add(fees.tAmount) */\n      tag_816\n      swap2\n        /* \"contracts/gainzilla.sol\":24807:24831  _balances[recipient].add */\n      tag_534\n        /* \"contracts/gainzilla.sol\":24807:24845  _balances[recipient].add(fees.tAmount) */\n      jump\t// in\n    tag_816:\n        /* \"contracts/gainzilla.sol\":24784:24793  _balances */\n      0x02\n        /* \"contracts/gainzilla.sol\":24784:24804  _balances[recipient] */\n      0x00\n        /* \"contracts/gainzilla.sol\":24794:24803  recipient */\n      dup6\n      sub(shl(0xa0, 0x01), 0x01)\n        /* \"contracts/gainzilla.sol\":24784:24804  _balances[recipient] */\n      and\n      sub(shl(0xa0, 0x01), 0x01)\n      and\n      dup2\n      mstore\n      0x20\n      add\n      swap1\n      dup2\n      mstore\n      0x20\n      add\n      0x00\n      keccak256\n        /* \"contracts/gainzilla.sol\":24784:24845  _balances[recipient] = _balances[recipient].add(fees.tAmount) */\n      dup2\n      swap1\n      sstore\n      pop\n        /* \"contracts/gainzilla.sol\":24882:24985  _balances[address(this)].add(fees.tMarketing.add(fees.tLiquidity).add(fees.tTeam).add(fees.tEcosystem)) */\n      tag_817\n        /* \"contracts/gainzilla.sol\":24911:24984  fees.tMarketing.add(fees.tLiquidity).add(fees.tTeam).add(fees.tEcosystem) */\n      tag_818\n        /* \"contracts/gainzilla.sol\":24968:24972  fees */\n      dup3\n        /* \"contracts/gainzilla.sol\":24968:24983  fees.tEcosystem */\n      0x60\n      add\n      mload\n        /* \"contracts/gainzilla.sol\":24911:24963  fees.tMarketing.add(fees.tLiquidity).add(fees.tTeam) */\n      tag_533\n        /* \"contracts/gainzilla.sol\":24952:24956  fees */\n      dup5\n        /* \"contracts/gainzilla.sol\":24952:24962  fees.tTeam */\n      0x40\n      add\n      mload\n        /* \"contracts/gainzilla.sol\":24911:24947  fees.tMarketing.add(fees.tLiquidity) */\n      tag_533\n        /* \"contracts/gainzilla.sol\":24931:24935  fees */\n      dup7\n        /* \"contracts/gainzilla.sol\":24931:24946  fees.tLiquidity */\n      0x00\n      add\n      mload\n        /* \"contracts/gainzilla.sol\":24911:24915  fees */\n      dup8\n        /* \"contracts/gainzilla.sol\":24911:24926  fees.tMarketing */\n      0x20\n      add\n      mload\n        /* \"contracts/gainzilla.sol\":24911:24930  fees.tMarketing.add */\n      tag_534\n      swap1\n        /* \"contracts/gainzilla.sol\":24911:24947  fees.tMarketing.add(fees.tLiquidity) */\n      swap2\n      swap1\n      0xffffffff\n      and\n      jump\t// in\n        /* \"contracts/gainzilla.sol\":24911:24984  fees.tMarketing.add(fees.tLiquidity).add(fees.tTeam).add(fees.tEcosystem) */\n    tag_818:\n        /* \"contracts/gainzilla.sol\":24900:24904  this */\n      address\n        /* \"contracts/gainzilla.sol\":24882:24906  _balances[address(this)] */\n      0x00\n      swap1\n      dup2\n      mstore\n        /* \"contracts/gainzilla.sol\":24882:24891  _balances */\n      0x02\n        /* \"contracts/gainzilla.sol\":24882:24906  _balances[address(this)] */\n      0x20\n      mstore\n      0x40\n      swap1\n      keccak256\n      sload\n      swap1\n        /* \"contracts/gainzilla.sol\":24882:24910  _balances[address(this)].add */\n      tag_534\n        /* \"contracts/gainzilla.sol\":24882:24985  _balances[address(this)].add(fees.tMarketing.add(fees.tLiquidity).add(fees.tTeam).add(fees.tEcosystem)) */\n      jump\t// in\n    tag_817:\n        /* \"contracts/gainzilla.sol\":24873:24877  this */\n      address\n        /* \"contracts/gainzilla.sol\":24855:24879  _balances[address(this)] */\n      0x00\n      swap1\n      dup2\n      mstore\n        /* \"contracts/gainzilla.sol\":24855:24864  _balances */\n      0x02\n        /* \"contracts/gainzilla.sol\":24855:24879  _balances[address(this)] */\n      0x20\n      swap1\n      dup2\n      mstore\n      0x40\n      swap2\n      dup3\n      swap1\n      keccak256\n        /* \"contracts/gainzilla.sol\":24855:24985  _balances[address(this)] = _balances[address(this)].add(fees.tMarketing.add(fees.tLiquidity).add(fees.tTeam).add(fees.tEcosystem)) */\n      swap3\n      swap1\n      swap3\n      sstore\n        /* \"contracts/gainzilla.sol\":25037:25049  fees.tAmount */\n      0x80\n      dup4\n      add\n      mload\n        /* \"contracts/gainzilla.sol\":25009:25050  Transfer(sender, recipient, fees.tAmount) */\n      swap1\n      mload\n        /* \"#utility.yul\":6702:6727   */\n      swap1\n      dup2\n      mstore\n      sub(shl(0xa0, 0x01), 0x01)\n        /* \"contracts/gainzilla.sol\":25009:25050  Transfer(sender, recipient, fees.tAmount) */\n      dup6\n      dup2\n      and\n      swap3\n      swap1\n      dup8\n      and\n      swap2\n      0xddf252ad1be2c89b69c2b068fc378daa952ba7f163c4a11628f55a4df523b3ef\n      swap2\n        /* \"#utility.yul\":6675:6693   */\n      add\n        /* \"contracts/gainzilla.sol\":25009:25050  Transfer(sender, recipient, fees.tAmount) */\n      mload(0x40)\n      dup1\n      swap2\n      sub\n      swap1\n      log3\n        /* \"contracts/gainzilla.sol\":23210:25057  function _transferStandard(address sender, address recipient, uint256 amount) private {... */\n      pop\n      pop\n      pop\n      pop\n      jump\t// out\n        /* \"#utility.yul\":14:202   */\n    tag_824:\n        /* \"#utility.yul\":93:106   */\n      dup1\n      mload\n        /* \"#utility.yul\":146:176   */\n      0xffffffffffffffffffffffffffff\n        /* \"#utility.yul\":135:177   */\n      dup2\n      and\n        /* \"#utility.yul\":125:178   */\n      dup2\n      eq\n        /* \"#utility.yul\":115:117   */\n      tag_826\n      jumpi\n        /* \"#utility.yul\":192:193   */\n      0x00\n        /* \"#utility.yul\":189:190   */\n      dup1\n        /* \"#utility.yul\":182:194   */\n      revert\n        /* \"#utility.yul\":115:117   */\n    tag_826:\n        /* \"#utility.yul\":74:202   */\n      swap2\n      swap1\n      pop\n      jump\t// out\n        /* \"#utility.yul\":207:464   */\n    tag_129:\n        /* \"#utility.yul\":266:272   */\n      0x00\n        /* \"#utility.yul\":319:321   */\n      0x20\n        /* \"#utility.yul\":307:316   */\n      dup3\n        /* \"#utility.yul\":298:305   */\n      dup5\n        /* \"#utility.yul\":294:317   */\n      sub\n        /* \"#utility.yul\":290:322   */\n      slt\n        /* \"#utility.yul\":287:289   */\n      iszero\n      tag_828\n      jumpi\n        /* \"#utility.yul\":340:346   */\n      dup1\n        /* \"#utility.yul\":332:338   */\n      dup2\n        /* \"#utility.yul\":325:347   */\n      revert\n        /* \"#utility.yul\":287:289   */\n    tag_828:\n        /* \"#utility.yul\":384:393   */\n      dup2\n        /* \"#utility.yul\":371:394   */\n      calldataload\n        /* \"#utility.yul\":403:434   */\n      tag_670\n        /* \"#utility.yul\":428:433   */\n      dup2\n        /* \"#utility.yul\":403:434   */\n      tag_830\n      jump\t// in\n        /* \"#utility.yul\":469:730   */\n    tag_459:\n        /* \"#utility.yul\":539:545   */\n      0x00\n        /* \"#utility.yul\":592:594   */\n      0x20\n        /* \"#utility.yul\":580:589   */\n      dup3\n        /* \"#utility.yul\":571:578   */\n      dup5\n        /* \"#utility.yul\":567:590   */\n      sub\n        /* \"#utility.yul\":563:595   */\n      slt\n        /* \"#utility.yul\":560:562   */\n      iszero\n      tag_832\n      jumpi\n        /* \"#utility.yul\":613:619   */\n      dup1\n        /* \"#utility.yul\":605:611   */\n      dup2\n        /* \"#utility.yul\":598:620   */\n      revert\n        /* \"#utility.yul\":560:562   */\n    tag_832:\n        /* \"#utility.yul\":650:659   */\n      dup2\n        /* \"#utility.yul\":644:660   */\n      mload\n        /* \"#utility.yul\":669:700   */\n      tag_670\n        /* \"#utility.yul\":694:699   */\n      dup2\n        /* \"#utility.yul\":669:700   */\n      tag_830\n      jump\t// in\n        /* \"#utility.yul\":1005:1403   */\n    tag_289:\n        /* \"#utility.yul\":1073:1079   */\n      0x00\n        /* \"#utility.yul\":1081:1087   */\n      dup1\n        /* \"#utility.yul\":1134:1136   */\n      0x40\n        /* \"#utility.yul\":1122:1131   */\n      dup4\n        /* \"#utility.yul\":1113:1120   */\n      dup6\n        /* \"#utility.yul\":1109:1132   */\n      sub\n        /* \"#utility.yul\":1105:1137   */\n      slt\n        /* \"#utility.yul\":1102:1104   */\n      iszero\n      tag_838\n      jumpi\n        /* \"#utility.yul\":1155:1161   */\n      dup1\n        /* \"#utility.yul\":1147:1153   */\n      dup2\n        /* \"#utility.yul\":1140:1162   */\n      revert\n        /* \"#utility.yul\":1102:1104   */\n    tag_838:\n        /* \"#utility.yul\":1199:1208   */\n      dup3\n        /* \"#utility.yul\":1186:1209   */\n      calldataload\n        /* \"#utility.yul\":1218:1249   */\n      tag_839\n        /* \"#utility.yul\":1243:1248   */\n      dup2\n        /* \"#utility.yul\":1218:1249   */\n      tag_830\n      jump\t// in\n    tag_839:\n        /* \"#utility.yul\":1268:1273   */\n      swap2\n      pop\n        /* \"#utility.yul\":1325:1327   */\n      0x20\n        /* \"#utility.yul\":1310:1328   */\n      dup4\n      add\n        /* \"#utility.yul\":1297:1329   */\n      calldataload\n        /* \"#utility.yul\":1338:1371   */\n      tag_840\n        /* \"#utility.yul\":1297:1329   */\n      dup2\n        /* \"#utility.yul\":1338:1371   */\n      tag_830\n      jump\t// in\n    tag_840:\n        /* \"#utility.yul\":1390:1397   */\n      dup1\n        /* \"#utility.yul\":1380:1397   */\n      swap2\n      pop\n      pop\n        /* \"#utility.yul\":1092:1403   */\n      swap3\n      pop\n      swap3\n      swap1\n      pop\n      jump\t// out\n        /* \"#utility.yul\":1408:1874   */\n    tag_110:\n        /* \"#utility.yul\":1485:1491   */\n      0x00\n        /* \"#utility.yul\":1493:1499   */\n      dup1\n        /* \"#utility.yul\":1501:1507   */\n      0x00\n        /* \"#utility.yul\":1554:1556   */\n      0x60\n        /* \"#utility.yul\":1542:1551   */\n      dup5\n        /* \"#utility.yul\":1533:1540   */\n      dup7\n        /* \"#utility.yul\":1529:1552   */\n      sub\n        /* \"#utility.yul\":1525:1557   */\n      slt\n        /* \"#utility.yul\":1522:1524   */\n      iszero\n      tag_842\n      jumpi\n        /* \"#utility.yul\":1575:1581   */\n      dup1\n        /* \"#utility.yul\":1567:1573   */\n      dup2\n        /* \"#utility.yul\":1560:1582   */\n      revert\n        /* \"#utility.yul\":1522:1524   */\n    tag_842:\n        /* \"#utility.yul\":1619:1628   */\n      dup4\n        /* \"#utility.yul\":1606:1629   */\n      calldataload\n        /* \"#utility.yul\":1638:1669   */\n      tag_843\n        /* \"#utility.yul\":1663:1668   */\n      dup2\n        /* \"#utility.yul\":1638:1669   */\n      tag_830\n      jump\t// in\n    tag_843:\n        /* \"#utility.yul\":1688:1693   */\n      swap3\n      pop\n        /* \"#utility.yul\":1745:1747   */\n      0x20\n        /* \"#utility.yul\":1730:1748   */\n      dup5\n      add\n        /* \"#utility.yul\":1717:1749   */\n      calldataload\n        /* \"#utility.yul\":1758:1791   */\n      tag_844\n        /* \"#utility.yul\":1717:1749   */\n      dup2\n        /* \"#utility.yul\":1758:1791   */\n      tag_830\n      jump\t// in\n    tag_844:\n        /* \"#utility.yul\":1512:1874   */\n      swap3\n      swap6\n        /* \"#utility.yul\":1810:1817   */\n      swap3\n      swap5\n      pop\n      pop\n      pop\n        /* \"#utility.yul\":1864:1866   */\n      0x40\n        /* \"#utility.yul\":1849:1867   */\n      swap2\n      swap1\n      swap2\n      add\n        /* \"#utility.yul\":1836:1868   */\n      calldataload\n      swap1\n        /* \"#utility.yul\":1512:1874   */\n      jump\t// out\n        /* \"#utility.yul\":1879:2204   */\n    tag_90:\n        /* \"#utility.yul\":1947:1953   */\n      0x00\n        /* \"#utility.yul\":1955:1961   */\n      dup1\n        /* \"#utility.yul\":2008:2010   */\n      0x40\n        /* \"#utility.yul\":1996:2005   */\n      dup4\n        /* \"#utility.yul\":1987:1994   */\n      dup6\n        /* \"#utility.yul\":1983:2006   */\n      sub\n        /* \"#utility.yul\":1979:2011   */\n      slt\n        /* \"#utility.yul\":1976:1978   */\n      iszero\n      tag_846\n      jumpi\n        /* \"#utility.yul\":2029:2035   */\n      dup2\n        /* \"#utility.yul\":2021:2027   */\n      dup3\n        /* \"#utility.yul\":2014:2036   */\n      revert\n        /* \"#utility.yul\":1976:1978   */\n    tag_846:\n        /* \"#utility.yul\":2073:2082   */\n      dup3\n        /* \"#utility.yul\":2060:2083   */\n      calldataload\n        /* \"#utility.yul\":2092:2123   */\n      tag_847\n        /* \"#utility.yul\":2117:2122   */\n      dup2\n        /* \"#utility.yul\":2092:2123   */\n      tag_830\n      jump\t// in\n    tag_847:\n        /* \"#utility.yul\":2142:2147   */\n      swap5\n        /* \"#utility.yul\":2194:2196   */\n      0x20\n        /* \"#utility.yul\":2179:2197   */\n      swap4\n      swap1\n      swap4\n      add\n        /* \"#utility.yul\":2166:2198   */\n      calldataload\n      swap4\n      pop\n      pop\n      pop\n        /* \"#utility.yul\":1966:2204   */\n      jump\t// out\n        /* \"#utility.yul\":2209:2464   */\n    tag_378:\n        /* \"#utility.yul\":2276:2282   */\n      0x00\n        /* \"#utility.yul\":2329:2331   */\n      0x20\n        /* \"#utility.yul\":2317:2326   */\n      dup3\n        /* \"#utility.yul\":2308:2315   */\n      dup5\n        /* \"#utility.yul\":2304:2327   */\n      sub\n        /* \"#utility.yul\":2300:2332   */\n      slt\n        /* \"#utility.yul\":2297:2299   */\n      iszero\n      tag_849\n      jumpi\n        /* \"#utility.yul\":2350:2356   */\n      dup1\n        /* \"#utility.yul\":2342:2348   */\n      dup2\n        /* \"#utility.yul\":2335:2357   */\n      revert\n        /* \"#utility.yul\":2297:2299   */\n    tag_849:\n        /* \"#utility.yul\":2387:2396   */\n      dup2\n        /* \"#utility.yul\":2381:2397   */\n      mload\n        /* \"#utility.yul\":2406:2434   */\n      tag_670\n        /* \"#utility.yul\":2428:2433   */\n      dup2\n        /* \"#utility.yul\":2406:2434   */\n      tag_851\n      jump\t// in\n        /* \"#utility.yul\":2469:2859   */\n    tag_190:\n        /* \"#utility.yul\":2533:2539   */\n      0x00\n        /* \"#utility.yul\":2541:2547   */\n      dup1\n        /* \"#utility.yul\":2594:2596   */\n      0x40\n        /* \"#utility.yul\":2582:2591   */\n      dup4\n        /* \"#utility.yul\":2573:2580   */\n      dup6\n        /* \"#utility.yul\":2569:2592   */\n      sub\n        /* \"#utility.yul\":2565:2597   */\n      slt\n        /* \"#utility.yul\":2562:2564   */\n      iszero\n      tag_853\n      jumpi\n        /* \"#utility.yul\":2615:2621   */\n      dup2\n        /* \"#utility.yul\":2607:2613   */\n      dup3\n        /* \"#utility.yul\":2600:2622   */\n      revert\n        /* \"#utility.yul\":2562:2564   */\n    tag_853:\n        /* \"#utility.yul\":2659:2668   */\n      dup3\n        /* \"#utility.yul\":2646:2669   */\n      calldataload\n        /* \"#utility.yul\":2678:2706   */\n      tag_854\n        /* \"#utility.yul\":2700:2705   */\n      dup2\n        /* \"#utility.yul\":2678:2706   */\n      tag_851\n      jump\t// in\n    tag_854:\n        /* \"#utility.yul\":2725:2730   */\n      swap2\n      pop\n        /* \"#utility.yul\":2782:2784   */\n      0x20\n        /* \"#utility.yul\":2767:2785   */\n      dup4\n      add\n        /* \"#utility.yul\":2754:2786   */\n      calldataload\n        /* \"#utility.yul\":2795:2827   */\n      tag_840\n        /* \"#utility.yul\":2754:2786   */\n      dup2\n        /* \"#utility.yul\":2795:2827   */\n      tag_856\n      jump\t// in\n        /* \"#utility.yul\":2864:3293   */\n    tag_452:\n        /* \"#utility.yul\":2951:2957   */\n      0x00\n        /* \"#utility.yul\":2959:2965   */\n      dup1\n        /* \"#utility.yul\":2967:2973   */\n      0x00\n        /* \"#utility.yul\":3020:3022   */\n      0x60\n        /* \"#utility.yul\":3008:3017   */\n      dup5\n        /* \"#utility.yul\":2999:3006   */\n      dup7\n        /* \"#utility.yul\":2995:3018   */\n      sub\n        /* \"#utility.yul\":2991:3023   */\n      slt\n        /* \"#utility.yul\":2988:2990   */\n      iszero\n      tag_858\n      jumpi\n        /* \"#utility.yul\":3041:3047   */\n      dup3\n        /* \"#utility.yul\":3033:3039   */\n      dup4\n        /* \"#utility.yul\":3026:3048   */\n      revert\n        /* \"#utility.yul\":2988:2990   */\n    tag_858:\n        /* \"#utility.yul\":3069:3109   */\n      tag_859\n        /* \"#utility.yul\":3099:3108   */\n      dup5\n        /* \"#utility.yul\":3069:3109   */\n      tag_824\n      jump\t// in\n    tag_859:\n        /* \"#utility.yul\":3059:3109   */\n      swap3\n      pop\n        /* \"#utility.yul\":3128:3177   */\n      tag_860\n        /* \"#utility.yul\":3173:3175   */\n      0x20\n        /* \"#utility.yul\":3162:3171   */\n      dup6\n        /* \"#utility.yul\":3158:3176   */\n      add\n        /* \"#utility.yul\":3128:3177   */\n      tag_824\n      jump\t// in\n    tag_860:\n        /* \"#utility.yul\":3118:3177   */\n      swap2\n      pop\n        /* \"#utility.yul\":3220:3222   */\n      0x40\n        /* \"#utility.yul\":3209:3218   */\n      dup5\n        /* \"#utility.yul\":3205:3223   */\n      add\n        /* \"#utility.yul\":3199:3224   */\n      mload\n        /* \"#utility.yul\":3233:3263   */\n      tag_861\n        /* \"#utility.yul\":3257:3262   */\n      dup2\n        /* \"#utility.yul\":3233:3263   */\n      tag_856\n      jump\t// in\n    tag_861:\n        /* \"#utility.yul\":3282:3287   */\n      dup1\n        /* \"#utility.yul\":3272:3287   */\n      swap2\n      pop\n      pop\n        /* \"#utility.yul\":2978:3293   */\n      swap3\n      pop\n      swap3\n      pop\n      swap3\n      jump\t// out\n        /* \"#utility.yul\":3298:3488   */\n    tag_120:\n        /* \"#utility.yul\":3357:3363   */\n      0x00\n        /* \"#utility.yul\":3410:3412   */\n      0x20\n        /* \"#utility.yul\":3398:3407   */\n      dup3\n        /* \"#utility.yul\":3389:3396   */\n      dup5\n        /* \"#utility.yul\":3385:3408   */\n      sub\n        /* \"#utility.yul\":3381:3413   */\n      slt\n        /* \"#utility.yul\":3378:3380   */\n      iszero\n      tag_863\n      jumpi\n        /* \"#utility.yul\":3431:3437   */\n      dup1\n        /* \"#utility.yul\":3423:3429   */\n      dup2\n        /* \"#utility.yul\":3416:3438   */\n      revert\n        /* \"#utility.yul\":3378:3380   */\n    tag_863:\n      pop\n        /* \"#utility.yul\":3459:3482   */\n      calldataload\n      swap2\n        /* \"#utility.yul\":3368:3488   */\n      swap1\n      pop\n      jump\t// out\n        /* \"#utility.yul\":3493:3687   */\n    tag_370:\n        /* \"#utility.yul\":3563:3569   */\n      0x00\n        /* \"#utility.yul\":3616:3618   */\n      0x20\n        /* \"#utility.yul\":3604:3613   */\n      dup3\n        /* \"#utility.yul\":3595:3602   */\n      dup5\n        /* \"#utility.yul\":3591:3614   */\n      sub\n        /* \"#utility.yul\":3587:3619   */\n      slt\n        /* \"#utility.yul\":3584:3586   */\n      iszero\n      tag_865\n      jumpi\n        /* \"#utility.yul\":3637:3643   */\n      dup1\n        /* \"#utility.yul\":3629:3635   */\n      dup2\n        /* \"#utility.yul\":3622:3644   */\n      revert\n        /* \"#utility.yul\":3584:3586   */\n    tag_865:\n      pop\n        /* \"#utility.yul\":3665:3681   */\n      mload\n      swap2\n        /* \"#utility.yul\":3574:3687   */\n      swap1\n      pop\n      jump\t// out\n        /* \"#utility.yul\":3692:4008   */\n    tag_768:\n        /* \"#utility.yul\":3780:3786   */\n      0x00\n        /* \"#utility.yul\":3788:3794   */\n      dup1\n        /* \"#utility.yul\":3796:3802   */\n      0x00\n        /* \"#utility.yul\":3849:3851   */\n      0x60\n        /* \"#utility.yul\":3837:3846   */\n      dup5\n        /* \"#utility.yul\":3828:3835   */\n      dup7\n        /* \"#utility.yul\":3824:3847   */\n      sub\n        /* \"#utility.yul\":3820:3852   */\n      slt\n        /* \"#utility.yul\":3817:3819   */\n      iszero\n      tag_867\n      jumpi\n        /* \"#utility.yul\":3870:3876   */\n      dup3\n        /* \"#utility.yul\":3862:3868   */\n      dup4\n        /* \"#utility.yul\":3855:3877   */\n      revert\n        /* \"#utility.yul\":3817:3819   */\n    tag_867:\n        /* \"#utility.yul\":3904:3913   */\n      dup4\n        /* \"#utility.yul\":3898:3914   */\n      mload\n        /* \"#utility.yul\":3888:3914   */\n      swap3\n      pop\n        /* \"#utility.yul\":3954:3956   */\n      0x20\n        /* \"#utility.yul\":3943:3952   */\n      dup5\n        /* \"#utility.yul\":3939:3957   */\n      add\n        /* \"#utility.yul\":3933:3958   */\n      mload\n        /* \"#utility.yul\":3923:3958   */\n      swap2\n      pop\n        /* \"#utility.yul\":3998:4000   */\n      0x40\n        /* \"#utility.yul\":3987:3996   */\n      dup5\n        /* \"#utility.yul\":3983:4001   */\n      add\n        /* \"#utility.yul\":3977:4002   */\n      mload\n        /* \"#utility.yul\":3967:4002   */\n      swap1\n      pop\n        /* \"#utility.yul\":3807:4008   */\n      swap3\n      pop\n      swap3\n      pop\n      swap3\n      jump\t// out\n        /* \"#utility.yul\":4013:4408   */\n    tag_299:\n        /* \"#utility.yul\":4099:4105   */\n      0x00\n        /* \"#utility.yul\":4107:4113   */\n      dup1\n        /* \"#utility.yul\":4115:4121   */\n      0x00\n        /* \"#utility.yul\":4123:4129   */\n      dup1\n        /* \"#utility.yul\":4176:4179   */\n      0x80\n        /* \"#utility.yul\":4164:4173   */\n      dup6\n        /* \"#utility.yul\":4155:4162   */\n      dup8\n        /* \"#utility.yul\":4151:4174   */\n      sub\n        /* \"#utility.yul\":4147:4180   */\n      slt\n        /* \"#utility.yul\":4144:4146   */\n      iszero\n      tag_869\n      jumpi\n        /* \"#utility.yul\":4198:4204   */\n      dup1\n        /* \"#utility.yul\":4190:4196   */\n      dup2\n        /* \"#utility.yul\":4183:4205   */\n      revert\n        /* \"#utility.yul\":4144:4146   */\n    tag_869:\n      pop\n      pop\n        /* \"#utility.yul\":4226:4249   */\n      dup3\n      calldataload\n      swap5\n        /* \"#utility.yul\":4296:4298   */\n      0x20\n        /* \"#utility.yul\":4281:4299   */\n      dup5\n      add\n        /* \"#utility.yul\":4268:4300   */\n      calldataload\n      swap5\n      pop\n        /* \"#utility.yul\":4347:4349   */\n      0x40\n        /* \"#utility.yul\":4332:4350   */\n      dup5\n      add\n        /* \"#utility.yul\":4319:4351   */\n      calldataload\n      swap4\n        /* \"#utility.yul\":4398:4400   */\n      0x60\n        /* \"#utility.yul\":4383:4401   */\n      add\n        /* \"#utility.yul\":4370:4402   */\n      calldataload\n      swap3\n      pop\n        /* \"#utility.yul\":4134:4408   */\n      swap1\n      pop\n      jump\t// out\n        /* \"#utility.yul\":6738:7400   */\n    tag_86:\n        /* \"#utility.yul\":6850:6854   */\n      0x00\n        /* \"#utility.yul\":6879:6881   */\n      0x20\n        /* \"#utility.yul\":6908:6910   */\n      dup1\n        /* \"#utility.yul\":6897:6906   */\n      dup4\n        /* \"#utility.yul\":6890:6911   */\n      mstore\n        /* \"#utility.yul\":6940:6946   */\n      dup4\n        /* \"#utility.yul\":6934:6947   */\n      mload\n        /* \"#utility.yul\":6983:6989   */\n      dup1\n        /* \"#utility.yul\":6978:6980   */\n      dup3\n        /* \"#utility.yul\":6967:6976   */\n      dup6\n        /* \"#utility.yul\":6963:6981   */\n      add\n        /* \"#utility.yul\":6956:6990   */\n      mstore\n        /* \"#utility.yul\":7008:7012   */\n      dup3\n        /* \"#utility.yul\":7021:7161   */\n    tag_878:\n        /* \"#utility.yul\":7035:7041   */\n      dup2\n        /* \"#utility.yul\":7032:7033   */\n      dup2\n        /* \"#utility.yul\":7029:7042   */\n      lt\n        /* \"#utility.yul\":7021:7161   */\n      iszero\n      tag_880\n      jumpi\n        /* \"#utility.yul\":7130:7144   */\n      dup6\n      dup2\n      add\n        /* \"#utility.yul\":7126:7149   */\n      dup4\n      add\n        /* \"#utility.yul\":7120:7150   */\n      mload\n        /* \"#utility.yul\":7096:7113   */\n      dup6\n      dup3\n      add\n        /* \"#utility.yul\":7115:7117   */\n      0x40\n        /* \"#utility.yul\":7092:7118   */\n      add\n        /* \"#utility.yul\":7085:7151   */\n      mstore\n        /* \"#utility.yul\":7050:7060   */\n      dup3\n      add\n        /* \"#utility.yul\":7021:7161   */\n      jump(tag_878)\n    tag_880:\n        /* \"#utility.yul\":7179:7185   */\n      dup2\n        /* \"#utility.yul\":7176:7177   */\n      dup2\n        /* \"#utility.yul\":7173:7186   */\n      gt\n        /* \"#utility.yul\":7170:7172   */\n      iszero\n      tag_881\n      jumpi\n        /* \"#utility.yul\":7249:7253   */\n      dup4\n        /* \"#utility.yul\":7244:7246   */\n      0x40\n        /* \"#utility.yul\":7235:7241   */\n      dup4\n        /* \"#utility.yul\":7224:7233   */\n      dup8\n        /* \"#utility.yul\":7220:7242   */\n      add\n        /* \"#utility.yul\":7216:7247   */\n      add\n        /* \"#utility.yul\":7209:7254   */\n      mstore\n        /* \"#utility.yul\":7170:7172   */\n    tag_881:\n      pop\n        /* \"#utility.yul\":7316:7318   */\n      0x1f\n        /* \"#utility.yul\":7304:7319   */\n      add\n        /* \"#utility.yul\":7321:7387   */\n      0xffffffffffffffffffffffffffffffffffffffffffffffffffffffffffffffe0\n        /* \"#utility.yul\":7300:7388   */\n      and\n        /* \"#utility.yul\":7285:7389   */\n      swap3\n      swap1\n      swap3\n      add\n        /* \"#utility.yul\":7391:7393   */\n      0x40\n        /* \"#utility.yul\":7281:7394   */\n      add\n      swap4\n        /* \"#utility.yul\":6859:7400   */\n      swap3\n      pop\n      pop\n      pop\n      jump\t// out\n        /* \"#utility.yul\":15468:16497   */\n    tag_695:\n        /* \"#utility.yul\":15730:15734   */\n      0x00\n        /* \"#utility.yul\":15778:15781   */\n      0xa0\n        /* \"#utility.yul\":15767:15776   */\n      dup3\n        /* \"#utility.yul\":15763:15782   */\n      add\n        /* \"#utility.yul\":15809:15815   */\n      dup8\n        /* \"#utility.yul\":15798:15807   */\n      dup4\n        /* \"#utility.yul\":15791:15816   */\n      mstore\n        /* \"#utility.yul\":15835:15837   */\n      0x20\n        /* \"#utility.yul\":15873:15879   */\n      dup8\n        /* \"#utility.yul\":15868:15870   */\n      dup2\n        /* \"#utility.yul\":15857:15866   */\n      dup6\n        /* \"#utility.yul\":15853:15871   */\n      add\n        /* \"#utility.yul\":15846:15880   */\n      mstore\n        /* \"#utility.yul\":15916:15919   */\n      0xa0\n        /* \"#utility.yul\":15911:15913   */\n      0x40\n        /* \"#utility.yul\":15900:15909   */\n      dup6\n        /* \"#utility.yul\":15896:15914   */\n      add\n        /* \"#utility.yul\":15889:15920   */\n      mstore\n        /* \"#utility.yul\":15940:15946   */\n      dup2\n        /* \"#utility.yul\":15975:15981   */\n      dup8\n        /* \"#utility.yul\":15969:15982   */\n      mload\n        /* \"#utility.yul\":16006:16012   */\n      dup1\n        /* \"#utility.yul\":15998:16004   */\n      dup5\n        /* \"#utility.yul\":15991:16013   */\n      mstore\n        /* \"#utility.yul\":16044:16047   */\n      0xc0\n        /* \"#utility.yul\":16033:16042   */\n      dup7\n        /* \"#utility.yul\":16029:16048   */\n      add\n        /* \"#utility.yul\":16022:16048   */\n      swap2\n      pop\n        /* \"#utility.yul\":16083:16085   */\n      dup3\n        /* \"#utility.yul\":16075:16081   */\n      dup10\n        /* \"#utility.yul\":16071:16086   */\n      add\n        /* \"#utility.yul\":16057:16086   */\n      swap4\n      pop\n        /* \"#utility.yul\":16104:16108   */\n      dup5\n        /* \"#utility.yul\":16117:16335   */\n    tag_904:\n        /* \"#utility.yul\":16131:16137   */\n      dup2\n        /* \"#utility.yul\":16128:16129   */\n      dup2\n        /* \"#utility.yul\":16125:16138   */\n      lt\n        /* \"#utility.yul\":16117:16335   */\n      iszero\n      tag_906\n      jumpi\n        /* \"#utility.yul\":16196:16209   */\n      dup5\n      mload\n      sub(shl(0xa0, 0x01), 0x01)\n        /* \"#utility.yul\":16192:16254   */\n      and\n        /* \"#utility.yul\":16180:16255   */\n      dup4\n      mstore\n        /* \"#utility.yul\":16310:16325   */\n      swap4\n      dup4\n      add\n      swap4\n        /* \"#utility.yul\":16275:16287   */\n      swap2\n      dup4\n      add\n      swap2\n        /* \"#utility.yul\":16153:16154   */\n      0x01\n        /* \"#utility.yul\":16146:16155   */\n      add\n        /* \"#utility.yul\":16117:16335   */\n      jump(tag_904)\n    tag_906:\n      pop\n      pop\n      sub(shl(0xa0, 0x01), 0x01)\n        /* \"#utility.yul\":16391:16446   */\n      swap7\n      swap1\n      swap7\n      and\n        /* \"#utility.yul\":16386:16388   */\n      0x60\n        /* \"#utility.yul\":16371:16389   */\n      dup6\n      add\n        /* \"#utility.yul\":16364:16447   */\n      mstore\n      pop\n      pop\n      pop\n        /* \"#utility.yul\":16478:16481   */\n      0x80\n        /* \"#utility.yul\":16463:16482   */\n      add\n        /* \"#utility.yul\":16456:16491   */\n      mstore\n        /* \"#utility.yul\":16352:16355   */\n      swap4\n        /* \"#utility.yul\":15739:16497   */\n      swap3\n      pop\n      pop\n      pop\n      jump\t// out\n        /* \"#utility.yul\":17087:17215   */\n    tag_627:\n        /* \"#utility.yul\":17127:17130   */\n      0x00\n        /* \"#utility.yul\":17158:17159   */\n      dup3\n        /* \"#utility.yul\":17154:17160   */\n      not\n        /* \"#utility.yul\":17151:17152   */\n      dup3\n        /* \"#utility.yul\":17148:17161   */\n      gt\n        /* \"#utility.yul\":17145:17147   */\n      iszero\n      tag_911\n      jumpi\n        /* \"#utility.yul\":17164:17182   */\n      tag_911\n      tag_912\n      jump\t// in\n    tag_911:\n      pop\n        /* \"#utility.yul\":17200:17209   */\n      add\n      swap1\n        /* \"#utility.yul\":17135:17215   */\n      jump\t// out\n        /* \"#utility.yul\":17220:17340   */\n    tag_679:\n        /* \"#utility.yul\":17260:17261   */\n      0x00\n        /* \"#utility.yul\":17286:17287   */\n      dup3\n        /* \"#utility.yul\":17276:17278   */\n      tag_915\n      jumpi\n        /* \"#utility.yul\":17291:17309   */\n      tag_915\n      tag_916\n      jump\t// in\n    tag_915:\n      pop\n        /* \"#utility.yul\":17325:17334   */\n      div\n      swap1\n        /* \"#utility.yul\":17266:17340   */\n      jump\t// out\n        /* \"#utility.yul\":17345:17573   */\n    tag_677:\n        /* \"#utility.yul\":17385:17392   */\n      0x00\n        /* \"#utility.yul\":17511:17512   */\n      dup2\n        /* \"#utility.yul\":17443:17509   */\n      0xffffffffffffffffffffffffffffffffffffffffffffffffffffffffffffffff\n        /* \"#utility.yul\":17439:17513   */\n      div\n        /* \"#utility.yul\":17436:17437   */\n      dup4\n        /* \"#utility.yul\":17433:17514   */\n      gt\n        /* \"#utility.yul\":17428:17429   */\n      dup3\n        /* \"#utility.yul\":17421:17430   */\n      iszero\n        /* \"#utility.yul\":17414:17431   */\n      iszero\n        /* \"#utility.yul\":17410:17515   */\n      and\n        /* \"#utility.yul\":17407:17409   */\n      iszero\n      tag_919\n      jumpi\n        /* \"#utility.yul\":17518:17536   */\n      tag_919\n      tag_912\n      jump\t// in\n    tag_919:\n      pop\n        /* \"#utility.yul\":17558:17567   */\n      mul\n      swap1\n        /* \"#utility.yul\":17397:17573   */\n      jump\t// out\n        /* \"#utility.yul\":17578:17840   */\n    tag_425:\n        /* \"#utility.yul\":17617:17624   */\n      0x00\n        /* \"#utility.yul\":17649:17659   */\n      0xffffffff\n        /* \"#utility.yul\":17686:17688   */\n      dup1\n        /* \"#utility.yul\":17683:17684   */\n      dup4\n        /* \"#utility.yul\":17679:17689   */\n      and\n        /* \"#utility.yul\":17716:17718   */\n      dup2\n        /* \"#utility.yul\":17713:17714   */\n      dup6\n        /* \"#utility.yul\":17709:17719   */\n      and\n        /* \"#utility.yul\":17772:17775   */\n      dup2\n        /* \"#utility.yul\":17768:17770   */\n      dup4\n        /* \"#utility.yul\":17764:17776   */\n      div\n        /* \"#utility.yul\":17759:17762   */\n      dup2\n        /* \"#utility.yul\":17756:17777   */\n      gt\n        /* \"#utility.yul\":17749:17752   */\n      dup3\n        /* \"#utility.yul\":17742:17753   */\n      iszero\n        /* \"#utility.yul\":17735:17754   */\n      iszero\n        /* \"#utility.yul\":17731:17778   */\n      and\n        /* \"#utility.yul\":17728:17730   */\n      iszero\n      tag_922\n      jumpi\n        /* \"#utility.yul\":17781:17799   */\n      tag_922\n      tag_912\n      jump\t// in\n    tag_922:\n        /* \"#utility.yul\":17821:17834   */\n      mul\n      swap5\n        /* \"#utility.yul\":17629:17840   */\n      swap4\n      pop\n      pop\n      pop\n      pop\n      jump\t// out\n        /* \"#utility.yul\":17845:17970   */\n    tag_668:\n        /* \"#utility.yul\":17885:17889   */\n      0x00\n        /* \"#utility.yul\":17913:17914   */\n      dup3\n        /* \"#utility.yul\":17910:17911   */\n      dup3\n        /* \"#utility.yul\":17907:17915   */\n      lt\n        /* \"#utility.yul\":17904:17906   */\n      iszero\n      tag_925\n      jumpi\n        /* \"#utility.yul\":17918:17936   */\n      tag_925\n      tag_912\n      jump\t// in\n    tag_925:\n      pop\n        /* \"#utility.yul\":17955:17964   */\n      sub\n      swap1\n        /* \"#utility.yul\":17894:17970   */\n      jump\t// out\n        /* \"#utility.yul\":17975:18087   */\n    tag_478:\n        /* \"#utility.yul\":18007:18008   */\n      0x00\n        /* \"#utility.yul\":18033:18034   */\n      dup3\n        /* \"#utility.yul\":18023:18025   */\n      tag_928\n      jumpi\n        /* \"#utility.yul\":18038:18056   */\n      tag_928\n      tag_916\n      jump\t// in\n    tag_928:\n      pop\n        /* \"#utility.yul\":18072:18081   */\n      mod\n      swap1\n        /* \"#utility.yul\":18013:18087   */\n      jump\t// out\n        /* \"#utility.yul\":18092:18285   */\n    tag_436:\n        /* \"#utility.yul\":18127:18130   */\n      0x00\n        /* \"#utility.yul\":18158:18224   */\n      0x8000000000000000000000000000000000000000000000000000000000000000\n        /* \"#utility.yul\":18151:18156   */\n      dup3\n        /* \"#utility.yul\":18148:18225   */\n      eq\n        /* \"#utility.yul\":18145:18147   */\n      iszero\n      tag_931\n      jumpi\n        /* \"#utility.yul\":18228:18246   */\n      tag_931\n      tag_912\n      jump\t// in\n    tag_931:\n        /* \"#utility.yul\":18264:18279   */\n      sub\n      swap1\n        /* \"#utility.yul\":18135:18285   */\n      jump\t// out\n        /* \"#utility.yul\":18290:18474   */\n    tag_912:\n        /* \"#utility.yul\":18342:18419   */\n      0x4e487b7100000000000000000000000000000000000000000000000000000000\n        /* \"#utility.yul\":18339:18340   */\n      0x00\n        /* \"#utility.yul\":18332:18420   */\n      mstore\n        /* \"#utility.yul\":18439:18443   */\n      0x11\n        /* \"#utility.yul\":18436:18437   */\n      0x04\n        /* \"#utility.yul\":18429:18444   */\n      mstore\n        /* \"#utility.yul\":18463:18467   */\n      0x24\n        /* \"#utility.yul\":18460:18461   */\n      0x00\n        /* \"#utility.yul\":18453:18468   */\n      revert\n        /* \"#utility.yul\":18479:18663   */\n    tag_916:\n        /* \"#utility.yul\":18531:18608   */\n      0x4e487b7100000000000000000000000000000000000000000000000000000000\n        /* \"#utility.yul\":18528:18529   */\n      0x00\n        /* \"#utility.yul\":18521:18609   */\n      mstore\n        /* \"#utility.yul\":18628:18632   */\n      0x12\n        /* \"#utility.yul\":18625:18626   */\n      0x04\n        /* \"#utility.yul\":18618:18633   */\n      mstore\n        /* \"#utility.yul\":18652:18656   */\n      0x24\n        /* \"#utility.yul\":18649:18650   */\n      0x00\n        /* \"#utility.yul\":18642:18657   */\n      revert\n        /* \"#utility.yul\":18668:18822   */\n    tag_830:\n      sub(shl(0xa0, 0x01), 0x01)\n        /* \"#utility.yul\":18747:18752   */\n      dup2\n        /* \"#utility.yul\":18743:18797   */\n      and\n        /* \"#utility.yul\":18736:18741   */\n      dup2\n        /* \"#utility.yul\":18733:18798   */\n      eq\n        /* \"#utility.yul\":18723:18725   */\n      tag_409\n      jumpi\n        /* \"#utility.yul\":18812:18813   */\n      0x00\n        /* \"#utility.yul\":18809:18810   */\n      dup1\n        /* \"#utility.yul\":18802:18814   */\n      revert\n        /* \"#utility.yul\":18827:18945   */\n    tag_851:\n        /* \"#utility.yul\":18913:18918   */\n      dup1\n        /* \"#utility.yul\":18906:18919   */\n      iszero\n        /* \"#utility.yul\":18899:18920   */\n      iszero\n        /* \"#utility.yul\":18892:18897   */\n      dup2\n        /* \"#utility.yul\":18889:18921   */\n      eq\n        /* \"#utility.yul\":18879:18881   */\n      tag_409\n      jumpi\n        /* \"#utility.yul\":18935:18936   */\n      0x00\n        /* \"#utility.yul\":18932:18933   */\n      dup1\n        /* \"#utility.yul\":18925:18937   */\n      revert\n        /* \"#utility.yul\":18950:19071   */\n    tag_856:\n        /* \"#utility.yul\":19035:19045   */\n      0xffffffff\n        /* \"#utility.yul\":19028:19033   */\n      dup2\n        /* \"#utility.yul\":19024:19046   */\n      and\n        /* \"#utility.yul\":19017:19022   */\n      dup2\n        /* \"#utility.yul\":19014:19047   */\n      eq\n        /* \"#utility.yul\":19004:19006   */\n      tag_409\n      jumpi\n        /* \"#utility.yul\":19061:19062   */\n      0x00\n        /* \"#utility.yul\":19058:19059   */\n      dup1\n        /* \"#utility.yul\":19051:19063   */\n      revert\n    stop\n    data_974d1b4421da69cc60b481194f0dad36a5bb4e23da810da7a7fb30cdba178330 45524332303a207472616e7366657220616d6f756e74206578636565647320616c6c6f77616e6365\n\n    auxdata: 0xa2646970667358221220894b57c4ff6e6aa8c5d68bd6d06793f5b17eec86097caabdd2b4bde29c00c7bf64736f6c63430008040033\n}\n",
				"bytecode": {
					"linkReferences": {},
					"object": "6080604052662386f2ab5bca0060075566038d7ea4c680006008556000600955600954600a556000600b55600b54600c556000600d55600d54600e556000600f55600f5460105560006011556011546012556000601355601354601455600060155560155460165560006017556017546018556000601955620000876200042260201b60201c565b602180546001600160a01b03199081166001600160a01b039384161790915560005460228054919093169082168117909255602380548216831790556024805490911690911790556028805464ffffffffff1916640101010000179055348015620000f157600080fd5b50600080546001600160a01b031916339081178255604051909182917f8be0079c531659141344cd1fd0a4f28419497f9722a3daafe3b4186f6b6457e0908290a350602580546001600160a01b0319167310ed43c718714eb63d5aa57b78b54704e256024e908117909155620001713082670de0b6b3a764000062000431565b806001600160a01b031663c45a01556040518163ffffffff1660e01b815260040160206040518083038186803b158015620001ab57600080fd5b505afa158015620001c0573d6000803e3d6000fd5b505050506040513d601f19601f82011682018060405250810190620001e691906200055d565b6001600160a01b031663c9c6539630836001600160a01b031663ad5c46486040518163ffffffff1660e01b815260040160206040518083038186803b1580156200022f57600080fd5b505afa15801562000244573d6000803e3d6000fd5b505050506040513d601f19601f820116820180604052508101906200026a91906200055d565b6040516001600160e01b031960e085901b1681526001600160a01b03928316600482015291166024820152604401602060405180830381600087803b158015620002b357600080fd5b505af1158015620002c8573d6000803e3d6000fd5b505050506040513d601f19601f82011682018060405250810190620002ee91906200055d565b602680546001600160a01b0319166001600160a01b0392831690811790915560255460405163095ea7b360e01b81529216600483015260001960248301529063095ea7b390604401602060405180830381600087803b1580156200035157600080fd5b505af115801562000366573d6000803e3d6000fd5b505050506040513d601f19601f820116820180604052508101906200038c91906200058d565b50670de0b6b3a76400006027819055600781905533600081815260026020908152604080832085905582546001600160a01b03168352600482528083208054600160ff1991821681179092553085528285208054909116909117905551938452919290917fddf252ad1be2c89b69c2b068fc378daa952ba7f163c4a11628f55a4df523b3ef910160405180910390a350620005af565b6000546001600160a01b031690565b6001600160a01b038316620004995760405162461bcd60e51b8152602060048201526024808201527f45524332303a20617070726f76652066726f6d20746865207a65726f206164646044820152637265737360e01b60648201526084015b60405180910390fd5b6001600160a01b038216620004fc5760405162461bcd60e51b815260206004820152602260248201527f45524332303a20617070726f766520746f20746865207a65726f206164647265604482015261737360f01b606482015260840162000490565b6001600160a01b0383811660008181526003602090815260408083209487168084529482529182902085905590518481527f8c5be1e5ebec7d5bd14f71427d1e84f3dd0314c0f7b2291e5b200ac8c7c3b925910160405180910390a3505050565b6000602082840312156200056f578081fd5b81516001600160a01b038116811462000586578182fd5b9392505050565b6000602082840312156200059f578081fd5b8151801515811462000586578182fd5b613acf80620005bf6000396000f3fe60806040526004361061037a5760003560e01c806380670f3c116101d1578063c95457ff11610102578063dd62ed3e116100a0578063f2fde38b1161006f578063f2fde38b14610ab0578063f480fec214610ad0578063ffb54a9914610af0578063ffecf51614610b0a57600080fd5b8063dd62ed3e14610a0a578063e315a6da14610a50578063e4bf1bed14610a70578063ea2f0b3714610a9057600080fd5b8063d1633649116100dc578063d16336491461099f578063d55cb78a146109bf578063db0045ec146109d4578063dc44b6a0146109f457600080fd5b8063c95457ff14610904578063cab0347114610969578063cdb3858f1461097f57600080fd5b80639d82190f1161016f578063c3c8cd8011610149578063c3c8cd80146108ad578063c469b6dd146108c2578063c5d24189146108d8578063c8607952146108ee57600080fd5b80639d82190f1461082d578063a850673d1461086d578063a9059cbb1461088d57600080fd5b80638e360253116101ab5780638e360253146107a85780639491f94d146107bd57806395d89b41146107d257806399a7b9bc1461081857600080fd5b806380670f3c1461075f57806388790a68146107745780638da5cb5b1461078a57600080fd5b806339a53c4e116102ab5780636c0a24eb11610249578063715018a611610223578063715018a6146106d1578063729cb3f2146106e657806372b2aecc14610706578063787a08a61461071c57600080fd5b80636c0a24eb146106705780636fc3eaec1461068657806370a082311461069b57600080fd5b8063437823ec11610285578063437823ec146105e357806349bd5a5e146106035780635fecd9261461063b5780636aabff3f1461065b57600080fd5b806339a53c4e146105745780633bbac579146105965780633e0f966d146105ce57600080fd5b8063248dd2321161031857806329409395116102f257806329409395146104f7578063301ad55814610517578063313ce56714610538578063323be1c51461055457600080fd5b8063248dd232146104ab57806327a14fc2146104c15780632843631d146104e157600080fd5b806314eb76ac1161035457806314eb76ac1461042e57806318160ddd146104505780632369bf831461046b57806323b872dd1461048b57600080fd5b806301a6c43b1461038657806306fdde03146103af578063095ea7b3146103fe57600080fd5b3661038157005b600080fd5b34801561039257600080fd5b5061039c60085481565b6040519081526020015b60405180910390f35b3480156103bb57600080fd5b5060408051808201909152600981527f4761696e5a696c6c61000000000000000000000000000000000000000000000060208201525b6040516103a69190613807565b34801561040a57600080fd5b5061041e6104193660046136bf565b610b2a565b60405190151581526020016103a6565b34801561043a57600080fd5b5061044e61044936600461360f565b610b41565b005b34801561045c57600080fd5b50670de0b6b3a764000061039c565b34801561047757600080fd5b5061044e61048636600461360f565b610bda565b34801561049757600080fd5b5061041e6104a636600461367f565b610c6e565b3480156104b757600080fd5b5061039c60135481565b3480156104cd57600080fd5b5061044e6104dc366004613779565b610cd7565b3480156104ed57600080fd5b5061039c600b5481565b34801561050357600080fd5b5061044e61051236600461360f565b610e3d565b34801561052357600080fd5b5060285461041e906301000000900460ff1681565b34801561054457600080fd5b50604051600981526020016103a6565b34801561056057600080fd5b5060285461041e9062010000900460ff1681565b34801561058057600080fd5b5060285461041e90640100000000900460ff1681565b3480156105a257600080fd5b5061041e6105b136600461360f565b6001600160a01b0316600090815260208052604090205460ff1690565b3480156105da57600080fd5b5061044e610fea565b3480156105ef57600080fd5b5061044e6105fe36600461360f565b6110a8565b34801561060f57600080fd5b50602654610623906001600160a01b031681565b6040516001600160a01b0390911681526020016103a6565b34801561064757600080fd5b5061044e61065636600461360f565b611126565b34801561066757600080fd5b5061044e6111a0565b34801561067c57600080fd5b5061039c60075481565b34801561069257600080fd5b5061044e611224565b3480156106a757600080fd5b5061039c6106b636600461360f565b6001600160a01b031660009081526002602052604090205490565b3480156106dd57600080fd5b5061044e6112c3565b3480156106f257600080fd5b5061044e610701366004613706565b61137f565b34801561071257600080fd5b5061039c60195481565b34801561072857600080fd5b50601a546107439060ff811690610100900463ffffffff1682565b60408051921515835263ffffffff9091166020830152016103a6565b34801561076b57600080fd5b5061039c611431565b34801561078057600080fd5b5061039c60115481565b34801561079657600080fd5b506000546001600160a01b0316610623565b3480156107b457600080fd5b5061044e6114a5565b3480156107c957600080fd5b5061039c61150e565b3480156107de57600080fd5b5060408051808201909152600981527f4741494e5a494c4c41000000000000000000000000000000000000000000000060208201526103f1565b34801561082457600080fd5b5061044e6116dc565b34801561083957600080fd5b5061084d61084836600461360f565b611760565b6040805194855260208501939093529183015260608201526080016103a6565b34801561087957600080fd5b5061044e610888366004613779565b61180f565b34801561089957600080fd5b5061041e6108a83660046136bf565b61186e565b3480156108b957600080fd5b5061044e61187b565b3480156108ce57600080fd5b5061039c600f5481565b3480156108e457600080fd5b5061039c600d5481565b3480156108fa57600080fd5b5061039c60155481565b34801561091057600080fd5b50601c54601d54601e54601f5461093a9360ff8082169461010090920461ffff1693919291169085565b60408051951515865261ffff90941660208601529284019190915215156060830152608082015260a0016103a6565b34801561097557600080fd5b5061039c60175481565b34801561098b57600080fd5b5061044e61099a36600461360f565b6118f4565b3480156109ab57600080fd5b5061044e6109ba366004613779565b611988565b3480156109cb57600080fd5b5061044e6119f8565b3480156109e057600080fd5b5061044e6109ef36600461360f565b611a7c565b348015610a0057600080fd5b5061039c60095481565b348015610a1657600080fd5b5061039c610a25366004613647565b6001600160a01b03918216600090815260036020908152604080832093909416825291909152205490565b348015610a5c57600080fd5b5061044e610a6b366004613779565b611b10565b348015610a7c57600080fd5b5061044e610a8b3660046137d6565b611b6f565b348015610a9c57600080fd5b5061044e610aab36600461360f565b611d2c565b348015610abc57600080fd5b5061044e610acb36600461360f565b611da7565b348015610adc57600080fd5b5061044e610aeb3660046137d6565b611e86565b348015610afc57600080fd5b5060285461041e9060ff1681565b348015610b1657600080fd5b5061044e610b2536600461360f565b612032565b6000610b3733848461212e565b5060015b92915050565b6000546001600160a01b03163314610ba05760405162461bcd60e51b815260206004820181905260248201527f4f776e61626c653a2063616c6c6572206973206e6f7420746865206f776e657260448201526064015b60405180910390fd5b602280547fffffffffffffffffffffffff0000000000000000000000000000000000000000166001600160a01b0392909216919091179055565b6000546001600160a01b03163314610c345760405162461bcd60e51b815260206004820181905260248201527f4f776e61626c653a2063616c6c6572206973206e6f7420746865206f776e65726044820152606401610b97565b602180547fffffffffffffffffffffffff0000000000000000000000000000000000000000166001600160a01b0392909216919091179055565b6000610c7b848484612286565b610ccd8433610cc885604051806060016040528060288152602001613a72602891396001600160a01b038a16600090815260036020908152604080832033845290915290205491906129bb565b61212e565b5060019392505050565b6000546001600160a01b03163314610d315760405162461bcd60e51b815260206004820181905260248201527f4f776e61626c653a2063616c6c6572206973206e6f7420746865206f776e65726044820152606401610b97565b610d45670de0b6b3a76400006103e86129f5565b811015610dba5760405162461bcd60e51b815260206004820152602a60248201527f416d6f756e74206d7573742062652067726561746572207468616e20302e312560448201527f206f6620737570706c79000000000000000000000000000000000000000000006064820152608401610b97565b670de0b6b3a7640000811115610e385760405162461bcd60e51b815260206004820152603060248201527f416d6f756e74206d757374206265206c657373207468616e206f72206571756160448201527f6c20746f20746f74616c537570706c79000000000000000000000000000000006064820152608401610b97565b600755565b6000546001600160a01b03163314610e975760405162461bcd60e51b815260206004820181905260248201527f4f776e61626c653a2063616c6c6572206973206e6f7420746865206f776e65726044820152606401610b97565b6040517f70a082310000000000000000000000000000000000000000000000000000000081523060048201526000906001600160a01b038316906370a082319060240160206040518083038186803b158015610ef257600080fd5b505afa158015610f06573d6000803e3d6000fd5b505050506040513d601f19601f82011682018060405250810190610f2a9190613791565b9050816001600160a01b031663a9059cbb610f4d6000546001600160a01b031690565b6040517fffffffff0000000000000000000000000000000000000000000000000000000060e084901b1681526001600160a01b03909116600482015260248101849052604401602060405180830381600087803b158015610fad57600080fd5b505af1158015610fc1573d6000803e3d6000fd5b505050506040513d601f19601f82011682018060405250810190610fe591906136ea565b505050565b6000546001600160a01b031633146110445760405162461bcd60e51b815260206004820181905260248201527f4f776e61626c653a2063616c6c6572206973206e6f7420746865206f776e65726044820152606401610b97565b60285462010000900460ff1661109c5760405162461bcd60e51b815260206004820152601e60248201527f7468697320636f6e74726163742063616e6e6f742062652070617573656400006044820152606401610b97565b6028805460ff19169055565b6000546001600160a01b031633146111025760405162461bcd60e51b815260206004820181905260248201527f4f776e61626c653a2063616c6c6572206973206e6f7420746865206f776e65726044820152606401610b97565b6001600160a01b03166000908152600460205260409020805460ff19166001179055565b6000546001600160a01b031633146111805760405162461bcd60e51b815260206004820181905260248201527f4f776e61626c653a2063616c6c6572206973206e6f7420746865206f776e65726044820152606401610b97565b6001600160a01b031660009081526020805260409020805460ff19169055565b6000546001600160a01b031633146111fa5760405162461bcd60e51b815260206004820181905260248201527f4f776e61626c653a2063616c6c6572206973206e6f7420746865206f776e65726044820152606401610b97565b602880547fffffffffffffffffffffffffffffffffffffffffffffffffffffffffff00ffff169055565b6000546001600160a01b0316331461127e5760405162461bcd60e51b815260206004820181905260248201527f4f776e61626c653a2063616c6c6572206973206e6f7420746865206f776e65726044820152606401610b97565b4780156112c057600080546040516001600160a01b039091169183156108fc02918491818181858888f193505050501580156112be573d6000803e3d6000fd5b505b50565b6000546001600160a01b0316331461131d5760405162461bcd60e51b815260206004820181905260248201527f4f776e61626c653a2063616c6c6572206973206e6f7420746865206f776e65726044820152606401610b97565b600080546040516001600160a01b03909116907f8be0079c531659141344cd1fd0a4f28419497f9722a3daafe3b4186f6b6457e0908390a3600080547fffffffffffffffffffffffff0000000000000000000000000000000000000000169055565b6000546001600160a01b031633146113d95760405162461bcd60e51b815260206004820181905260248201527f4f776e61626c653a2063616c6c6572206973206e6f7420746865206f776e65726044820152606401610b97565b601a805460ff19168315151790556113f281603c613951565b601a805463ffffffff92909216610100027fffffffffffffffffffffffffffffffffffffffffffffffffffffff00000000ff9092169190911790555050565b601d546000906114415750600090565b600061144b61150e565b601d54909150811161148857601d5461147a906114746103e861146e8386612a3e565b90612a80565b906129f5565b611483906139a8565b61149f565b601d5461149f906114746103e861146e8584612a3e565b91505090565b6000546001600160a01b031633146114ff5760405162461bcd60e51b815260206004820181905260248201527f4f776e61626c653a2063616c6c6572206973206e6f7420746865206f776e65726044820152606401610b97565b6028805460ff19166001179055565b6000806000602660009054906101000a90046001600160a01b03166001600160a01b0316630902f1ac6040518163ffffffff1660e01b815260040160606040518083038186803b15801561156157600080fd5b505afa158015611575573d6000803e3d6000fd5b505050506040513d601f19601f820116820180604052508101906115999190613733565b5091509150816dffffffffffffffffffffffffffff16600014806115cb57506dffffffffffffffffffffffffffff8116155b156115d95760009250505090565b602654604080517f0dfe1681000000000000000000000000000000000000000000000000000000008152905130926001600160a01b031691630dfe1681916004808301926020929190829003018186803b15801561163657600080fd5b505afa15801561164a573d6000803e3d6000fd5b505050506040513d601f19601f8201168201806040525081019061166e919061362b565b6001600160a01b0316146116ab576116a66dffffffffffffffffffffffffffff80831690611474908516670de0b6b3a7640000612a80565b6116d5565b6116d56dffffffffffffffffffffffffffff80841690611474908416670de0b6b3a7640000612a80565b9250505090565b6000546001600160a01b031633146117365760405162461bcd60e51b815260206004820181905260248201527f4f776e61626c653a2063616c6c6572206973206e6f7420746865206f776e65726044820152606401610b97565b602880547fffffffffffffffffffffffffffffffffffffffffffffffffffffff00ffffffff169055565b6001600160a01b0381166000908152601b60205260408120548190819081908190421061178e5760006117b1565b6001600160a01b0386166000908152601b60205260409020546117b19042612a3e565b90506117c081620151806129f5565b94506117cf6201518082613994565b90506117dd81610e106129f5565b93506117eb610e1082613994565b90506117f881603c6129f5565b9250611805603c82613994565b9150509193509193565b6000546001600160a01b031633146118695760405162461bcd60e51b815260206004820181905260248201527f4f776e61626c653a2063616c6c6572206973206e6f7420746865206f776e65726044820152606401610b97565b601955565b6000610b37338484612286565b6000546001600160a01b031633146118d55760405162461bcd60e51b815260206004820181905260248201527f4f776e61626c653a2063616c6c6572206973206e6f7420746865206f776e65726044820152606401610b97565b3060009081526002602052604090205480156112c0576112c081612b1b565b6000546001600160a01b0316331461194e5760405162461bcd60e51b815260206004820181905260248201527f4f776e61626c653a2063616c6c6572206973206e6f7420746865206f776e65726044820152606401610b97565b602480547fffffffffffffffffffffffff0000000000000000000000000000000000000000166001600160a01b0392909216919091179055565b6000546001600160a01b031633146119e25760405162461bcd60e51b815260206004820181905260248201527f4f776e61626c653a2063616c6c6572206973206e6f7420746865206f776e65726044820152606401610b97565b426005556006556028805460ff19166001179055565b6000546001600160a01b03163314611a525760405162461bcd60e51b815260206004820181905260248201527f4f776e61626c653a2063616c6c6572206973206e6f7420746865206f776e65726044820152606401610b97565b602880547fffffffffffffffffffffffffffffffffffffffffffffffffffffffff00ffffff169055565b6000546001600160a01b03163314611ad65760405162461bcd60e51b815260206004820181905260248201527f4f776e61626c653a2063616c6c6572206973206e6f7420746865206f776e65726044820152606401610b97565b602380547fffffffffffffffffffffffff0000000000000000000000000000000000000000166001600160a01b0392909216919091179055565b6000546001600160a01b03163314611b6a5760405162461bcd60e51b815260206004820181905260248201527f4f776e61626c653a2063616c6c6572206973206e6f7420746865206f776e65726044820152606401610b97565b600855565b6000546001600160a01b03163314611bc95760405162461bcd60e51b815260206004820181905260248201527f4f776e61626c653a2063616c6c6572206973206e6f7420746865206f776e65726044820152606401610b97565b6000611be182611bdb85818989612d58565b90612d58565b905060fa811115611c5a5760405162461bcd60e51b815260206004820152603160248201527f53756d206f66206275792066656573206d757374206265206c6573732074686160448201527f6e206f7220657175616c20746f203235250000000000000000000000000000006064820152608401610b97565b602854640100000000900460ff16611cb45760405162461bcd60e51b815260206004820152601860248201527f546869732066756e6374696f6e20697320646961626c656400000000000000006044820152606401610b97565b600d8590556009849055600f839055600b829055600e859055600a8490556010839055600c8290556040805186815260208101869052908101849052606081018390527f892b2caa2d791bf7b8d9a49c4db7a4513ff1ae2e0e068ed217f9d5ab4c1a28f0906080015b60405180910390a15050505050565b6000546001600160a01b03163314611d865760405162461bcd60e51b815260206004820181905260248201527f4f776e61626c653a2063616c6c6572206973206e6f7420746865206f776e65726044820152606401610b97565b6001600160a01b03166000908152600460205260409020805460ff19169055565b6000546001600160a01b03163314611e015760405162461bcd60e51b815260206004820181905260248201527f4f776e61626c653a2063616c6c6572206973206e6f7420746865206f776e65726044820152606401610b97565b6001600160a01b038116611e7d5760405162461bcd60e51b815260206004820152602660248201527f4f776e61626c653a206e6577206f776e657220697320746865207a65726f206160448201527f64647265737300000000000000000000000000000000000000000000000000006064820152608401610b97565b6112c081612db7565b6000546001600160a01b03163314611ee05760405162461bcd60e51b815260206004820181905260248201527f4f776e61626c653a2063616c6c6572206973206e6f7420746865206f776e65726044820152606401610b97565b6000611ef282611bdb85818989612d58565b905060fa811115611f6b5760405162461bcd60e51b815260206004820152603260248201527f53756d206f662073656c6c2066656573206d757374206265206c65737320746860448201527f616e206f7220657175616c20746f2032352500000000000000000000000000006064820152608401610b97565b602854640100000000900460ff16611fc55760405162461bcd60e51b815260206004820152601860248201527f546869732066756e6374696f6e20697320646961626c656400000000000000006044820152606401610b97565b601585905560118490556017839055601382905560168590556012849055601883905560148290556040805186815260208101869052908101849052606081018390527f439932620c72dddea29980c098bca1a482729646d1216b226d723c6d278a30d190608001611d1d565b6000546001600160a01b0316331461208c5760405162461bcd60e51b815260206004820181905260248201527f4f776e61626c653a2063616c6c6572206973206e6f7420746865206f776e65726044820152606401610b97565b6028546301000000900460ff1661210b5760405162461bcd60e51b815260206004820152602860248201527f7468697320636f6e74726163742063616e6e6f7420626c61636b6c697374206160448201527f64647265737365730000000000000000000000000000000000000000000000006064820152608401610b97565b6001600160a01b031660009081526020805260409020805460ff19166001179055565b6001600160a01b0383166121a95760405162461bcd60e51b8152602060048201526024808201527f45524332303a20617070726f76652066726f6d20746865207a65726f2061646460448201527f72657373000000000000000000000000000000000000000000000000000000006064820152608401610b97565b6001600160a01b0382166122255760405162461bcd60e51b815260206004820152602260248201527f45524332303a20617070726f766520746f20746865207a65726f20616464726560448201527f73730000000000000000000000000000000000000000000000000000000000006064820152608401610b97565b6001600160a01b0383811660008181526003602090815260408083209487168084529482529182902085905590518481527f8c5be1e5ebec7d5bd14f71427d1e84f3dd0314c0f7b2291e5b200ac8c7c3b925910160405180910390a3505050565b6001600160a01b0383166123025760405162461bcd60e51b815260206004820152602560248201527f45524332303a207472616e736665722066726f6d20746865207a65726f20616460448201527f64726573730000000000000000000000000000000000000000000000000000006064820152608401610b97565b6001600160a01b03821661237e5760405162461bcd60e51b815260206004820152602360248201527f45524332303a207472616e7366657220746f20746865207a65726f206164647260448201527f65737300000000000000000000000000000000000000000000000000000000006064820152608401610b97565b600081116123f45760405162461bcd60e51b815260206004820152602960248201527f5472616e7366657220616d6f756e74206d75737420626520677265617465722060448201527f7468616e207a65726f00000000000000000000000000000000000000000000006064820152608401610b97565b60016124086000546001600160a01b031690565b6001600160a01b0316846001600160a01b03161415801561243757506000546001600160a01b03848116911614155b801561244c57506001600160a01b0384163014155b801561246157506001600160a01b0383163014155b156129615760285460ff166124b85760405162461bcd60e51b815260206004820152601560248201527f54726164696e67206973206e6f742061637469766500000000000000000000006044820152606401610b97565b6026546001600160a01b0385811691161480156124e357506025546001600160a01b03848116911614155b15612600576006546005546124f791612d58565b4211612520576001600160a01b03831660009081526020805260409020805460ff191660011790555b6001600160a01b03831660009081526004602052604090205460ff166126005760075461256683611bdb866001600160a01b031660009081526002602052604090205490565b11156126005760405162461bcd60e51b815260206004820152604260248201527f2e77616c6c65742062616c616e6365206166746572207472616e73666572206d60448201527f757374206265206c657373207468616e206d61782077616c6c657420616d6f7560648201527f6e74000000000000000000000000000000000000000000000000000000000000608482015260a401610b97565b602854610100900460ff1615801561262657506026546001600160a01b03858116911614155b801561263f57506026546001600160a01b038481169116145b15612850576001600160a01b038416600090815260208052604090205460ff1615801561268457506001600160a01b038316600090815260208052604090205460ff16155b61268d57600080fd5b601a5460ff1615612732576001600160a01b0384166000908152601b60205260409020544210156127005760405162461bcd60e51b815260206004820152601c60248201527f5374726f6e672048616e64732050726f746f636f6c20616374697665000000006044820152606401610b97565b601a5461271890610100900463ffffffff16426138e8565b6001600160a01b0385166000908152601b60205260409020555b601c5460ff161561279857601e5460ff16156127905760405162461bcd60e51b815260206004820152601e60248201527f53656c6c732073746f70706564206279204469616d6f6e6420466c6f6f7200006044820152606401610b97565b612798612e1f565b30600090815260026020526040902054600854811061284e57801561283c5760006127dc601154611bdb601354611bdb601754601554612d5890919063ffffffff16565b111561283c57600061281761280a601154611bdb601354611bdb601754601554612d5890919063ffffffff16565b6011546114749085612a80565b9050600081831061282f5761282c8383612a3e565b90505b6128398282612ece565b50505b47801561284c5761284c47612f5e565b505b505b6026546001600160a01b0385811691161480159061287c57506026546001600160a01b03848116911614155b15612961576001600160a01b03831660009081526004602052604090205460ff16612961576007546128c783611bdb866001600160a01b031660009081526002602052604090205490565b11156129615760405162461bcd60e51b815260206004820152604260248201527f2e77616c6c65742062616c616e6365206166746572207472616e73666572206d60448201527f757374206265206c657373207468616e206d61782077616c6c657420616d6f7560648201527f6e74000000000000000000000000000000000000000000000000000000000000608482015260a401610b97565b6001600160a01b03841660009081526004602052604090205460ff16806129a057506001600160a01b03831660009081526004602052604090205460ff165b156129a9575060005b6129b58484848461309e565b50505050565b600081848411156129df5760405162461bcd60e51b8152600401610b979190613807565b5060006129ec848661397d565b95945050505050565b6000612a3783836040518060400160405280601a81526020017f536166654d6174683a206469766973696f6e206279207a65726f00000000000081525061313c565b9392505050565b6000612a3783836040518060400160405280601e81526020017f536166654d6174683a207375627472616374696f6e206f766572666c6f7700008152506129bb565b600082612a8f57506000610b3b565b6000612a9b8385613914565b905082612aa88583613900565b14612a375760405162461bcd60e51b815260206004820152602160248201527f536166654d6174683a206d756c7469706c69636174696f6e206f766572666c6f60448201527f77000000000000000000000000000000000000000000000000000000000000006064820152608401610b97565b602880547fffffffffffffffffffffffffffffffffffffffffffffffffffffffffffff00ff166101001790556040805160028082526060820183526000926020830190803683370190505090503081600081518110612ba3577f4e487b7100000000000000000000000000000000000000000000000000000000600052603260045260246000fd5b6001600160a01b03928316602091820292909201810191909152602554604080517fad5c46480000000000000000000000000000000000000000000000000000000081529051919093169263ad5c4648926004808301939192829003018186803b158015612c1057600080fd5b505afa158015612c24573d6000803e3d6000fd5b505050506040513d601f19601f82011682018060405250810190612c48919061362b565b81600181518110612c82577f4e487b7100000000000000000000000000000000000000000000000000000000600052603260045260246000fd5b6001600160a01b039283166020918202929092010152602554612ca8913091168461212e565b6025546040517f791ac9470000000000000000000000000000000000000000000000000000000081526001600160a01b039091169063791ac94790612cfa908590600090869030904290600401613878565b600060405180830381600087803b158015612d1457600080fd5b505af1158015612d28573d6000803e3d6000fd5b5050602880547fffffffffffffffffffffffffffffffffffffffffffffffffffffffffffff00ff16905550505050565b600080612d6583856138e8565b905083811015612a375760405162461bcd60e51b815260206004820152601b60248201527f536166654d6174683a206164646974696f6e206f766572666c6f7700000000006044820152606401610b97565b600080546001600160a01b038381167fffffffffffffffffffffffff0000000000000000000000000000000000000000831681178455604051919092169283917f8be0079c531659141344cd1fd0a4f28419497f9722a3daafe3b4186f6b6457e09190a35050565b6000612e2961150e565b905080612e335750565b601d54811115612e4c57601d55601e805460ff19169055565b601c54601d54600091612e7c916103e8916114749161010090910461ffff1690612e769084612a80565b90612a3e565b905080821015612e9a57601e805460ff19166001179055601d54601f555b601e5460ff168015612eb95750601f54612eb5906002612a80565b8210155b156112be5750601e805460ff19169055601d55565b602880547fffffffffffffffffffffffffffffffffffffffffffffffffffffffffffff00ff166101001790556000612f078360026129f5565b90506000612f158483612a3e565b905047612f2a612f258585612d58565b612b1b565b6000612f364783612a3e565b90508215612d2857612d2883612f59612f4f8888612d58565b6114748589612a80565b61316a565b6000612f7d601754611bdb601354601554612d5890919063ffffffff16565b905080156112be576000612fa08261147460155486612a8090919063ffffffff16565b90506000612fbd8361147460175487612a8090919063ffffffff16565b90506000612fcf82612e768786612a3e565b90508215613013576021546040516001600160a01b039091169084156108fc029085906000818181858888f19350505050158015613011573d6000803e3d6000fd5b505b8115613055576022546040516001600160a01b039091169083156108fc029084906000818181858888f19350505050158015613053573d6000803e3d6000fd5b505b8015613097576023546040516001600160a01b039091169082156108fc029083906000818181858888f19350505050158015613095573d6000803e3d6000fd5b505b5050505050565b806130fc576130fc600d8054600e5560098054600a55600f8054601055600b8054600c556000938490559183905582905581905560158054601655601180546012556017805460185560138054601455928490559083905582905555565b613107848484613240565b6129b5600e54600d55600a54600955601054600f55600c54600b55601654601555601254601155601854601755601454601355565b6000818361315d5760405162461bcd60e51b8152600401610b979190613807565b5060006129ec8486613900565b6025546131829030906001600160a01b03168461212e565b602554602480546040517ff305d71900000000000000000000000000000000000000000000000000000000815230600482015291820185905260006044830181905260648301526001600160a01b0390811660848301524260a48301529091169063f305d71990839060c4016060604051808303818588803b15801561320757600080fd5b505af115801561321b573d6000803e3d6000fd5b50505050506040513d601f19601f8201168201806040525081019061309791906137a9565b6132726040518060a0016040528060008152602001600081526020016000815260200160008152602001600081525090565b6026546001600160a01b03858116911614801561329d57506025546001600160a01b03848116911614155b15613311576132bd6103e8611474600d5485612a8090919063ffffffff16565b60208201526009546132d8906103e890611474908590612a80565b8152600f546132f0906103e890611474908590612a80565b6040820152600b5461330b906103e890611474908590612a80565b60608201525b6026546001600160a01b0385811691161480159061333c57506026546001600160a01b038481169116145b156133b05761335c6103e861147460155485612a8090919063ffffffff16565b6020820152601154613377906103e890611474908590612a80565b815260175461338f906103e890611474908590612a80565b60408201526013546133aa906103e890611474908590612a80565b60608201525b6026546001600160a01b038581169116148015906133dc57506026546001600160a01b03848116911614155b1561349057613407606461147460195461146e6103e861147460155489612a8090919063ffffffff16565b816020018181525050613436606461147460195461146e6103e861147460115489612a8090919063ffffffff16565b815260195460175461345b91606491611474919061146e906103e89084908990612a80565b81604001818152505061348a606461147460195461146e6103e861147460135489612a8090919063ffffffff16565b60608201525b6134bf8160600151612e768360400151612e768560000151612e76876020015189612a3e90919063ffffffff16565b60808201526001600160a01b0384166000908152600260205260409020546134e79083612a3e565b6001600160a01b038086166000908152600260205260408082209390935560808401519186168152919091205461351d91612d58565b60026000856001600160a01b03166001600160a01b031681526020019081526020016000208190555061358a6135748260600151611bdb8460400151611bdb86600001518760200151612d5890919063ffffffff16565b3060009081526002602052604090205490612d58565b3060009081526002602090815260409182902092909255608083015190519081526001600160a01b0385811692908716917fddf252ad1be2c89b69c2b068fc378daa952ba7f163c4a11628f55a4df523b3ef910160405180910390a350505050565b80516dffffffffffffffffffffffffffff8116811461360a57600080fd5b919050565b600060208284031215613620578081fd5b8135612a3781613a3c565b60006020828403121561363c578081fd5b8151612a3781613a3c565b60008060408385031215613659578081fd5b823561366481613a3c565b9150602083013561367481613a3c565b809150509250929050565b600080600060608486031215613693578081fd5b833561369e81613a3c565b925060208401356136ae81613a3c565b929592945050506040919091013590565b600080604083850312156136d1578182fd5b82356136dc81613a3c565b946020939093013593505050565b6000602082840312156136fb578081fd5b8151612a3781613a51565b60008060408385031215613718578182fd5b823561372381613a51565b9150602083013561367481613a5f565b600080600060608486031215613747578283fd5b613750846135ec565b925061375e602085016135ec565b9150604084015161376e81613a5f565b809150509250925092565b60006020828403121561378a578081fd5b5035919050565b6000602082840312156137a2578081fd5b5051919050565b6000806000606084860312156137bd578283fd5b8351925060208401519150604084015190509250925092565b600080600080608085870312156137eb578081fd5b5050823594602084013594506040840135936060013592509050565b6000602080835283518082850152825b8181101561383357858101830151858201604001528201613817565b818111156138445783604083870101525b50601f017fffffffffffffffffffffffffffffffffffffffffffffffffffffffffffffffe016929092016040019392505050565b600060a082018783526020878185015260a0604085015281875180845260c0860191508289019350845b818110156138c75784516001600160a01b0316835293830193918301916001016138a2565b50506001600160a01b03969096166060850152505050608001529392505050565b600082198211156138fb576138fb6139de565b500190565b60008261390f5761390f613a0d565b500490565b6000817fffffffffffffffffffffffffffffffffffffffffffffffffffffffffffffffff048311821515161561394c5761394c6139de565b500290565b600063ffffffff80831681851681830481118215151615613974576139746139de565b02949350505050565b60008282101561398f5761398f6139de565b500390565b6000826139a3576139a3613a0d565b500690565b60007f80000000000000000000000000000000000000000000000000000000000000008214156139da576139da6139de565b0390565b7f4e487b7100000000000000000000000000000000000000000000000000000000600052601160045260246000fd5b7f4e487b7100000000000000000000000000000000000000000000000000000000600052601260045260246000fd5b6001600160a01b03811681146112c057600080fd5b80151581146112c057600080fd5b63ffffffff811681146112c057600080fdfe45524332303a207472616e7366657220616d6f756e74206578636565647320616c6c6f77616e6365a2646970667358221220894b57c4ff6e6aa8c5d68bd6d06793f5b17eec86097caabdd2b4bde29c00c7bf64736f6c63430008040033",
					"opcodes": "PUSH1 0x80 PUSH1 0x40 MSTORE PUSH7 0x2386F2AB5BCA00 PUSH1 0x7 SSTORE PUSH7 0x38D7EA4C68000 PUSH1 0x8 SSTORE PUSH1 0x0 PUSH1 0x9 SSTORE PUSH1 0x9 SLOAD PUSH1 0xA SSTORE PUSH1 0x0 PUSH1 0xB SSTORE PUSH1 0xB SLOAD PUSH1 0xC SSTORE PUSH1 0x0 PUSH1 0xD SSTORE PUSH1 0xD SLOAD PUSH1 0xE SSTORE PUSH1 0x0 PUSH1 0xF SSTORE PUSH1 0xF SLOAD PUSH1 0x10 SSTORE PUSH1 0x0 PUSH1 0x11 SSTORE PUSH1 0x11 SLOAD PUSH1 0x12 SSTORE PUSH1 0x0 PUSH1 0x13 SSTORE PUSH1 0x13 SLOAD PUSH1 0x14 SSTORE PUSH1 0x0 PUSH1 0x15 SSTORE PUSH1 0x15 SLOAD PUSH1 0x16 SSTORE PUSH1 0x0 PUSH1 0x17 SSTORE PUSH1 0x17 SLOAD PUSH1 0x18 SSTORE PUSH1 0x0 PUSH1 0x19 SSTORE PUSH3 0x87 PUSH3 0x422 PUSH1 0x20 SHL PUSH1 0x20 SHR JUMP JUMPDEST PUSH1 0x21 DUP1 SLOAD PUSH1 0x1 PUSH1 0x1 PUSH1 0xA0 SHL SUB NOT SWAP1 DUP2 AND PUSH1 0x1 PUSH1 0x1 PUSH1 0xA0 SHL SUB SWAP4 DUP5 AND OR SWAP1 SWAP2 SSTORE PUSH1 0x0 SLOAD PUSH1 0x22 DUP1 SLOAD SWAP2 SWAP1 SWAP4 AND SWAP1 DUP3 AND DUP2 OR SWAP1 SWAP3 SSTORE PUSH1 0x23 DUP1 SLOAD DUP3 AND DUP4 OR SWAP1 SSTORE PUSH1 0x24 DUP1 SLOAD SWAP1 SWAP2 AND SWAP1 SWAP2 OR SWAP1 SSTORE PUSH1 0x28 DUP1 SLOAD PUSH5 0xFFFFFFFFFF NOT AND PUSH5 0x101010000 OR SWAP1 SSTORE CALLVALUE DUP1 ISZERO PUSH3 0xF1 JUMPI PUSH1 0x0 DUP1 REVERT JUMPDEST POP PUSH1 0x0 DUP1 SLOAD PUSH1 0x1 PUSH1 0x1 PUSH1 0xA0 SHL SUB NOT AND CALLER SWAP1 DUP2 OR DUP3 SSTORE PUSH1 0x40 MLOAD SWAP1 SWAP2 DUP3 SWAP2 PUSH32 0x8BE0079C531659141344CD1FD0A4F28419497F9722A3DAAFE3B4186F6B6457E0 SWAP1 DUP3 SWAP1 LOG3 POP PUSH1 0x25 DUP1 SLOAD PUSH1 0x1 PUSH1 0x1 PUSH1 0xA0 SHL SUB NOT AND PUSH20 0x10ED43C718714EB63D5AA57B78B54704E256024E SWAP1 DUP2 OR SWAP1 SWAP2 SSTORE PUSH3 0x171 ADDRESS DUP3 PUSH8 0xDE0B6B3A7640000 PUSH3 0x431 JUMP JUMPDEST DUP1 PUSH1 0x1 PUSH1 0x1 PUSH1 0xA0 SHL SUB AND PUSH4 0xC45A0155 PUSH1 0x40 MLOAD DUP2 PUSH4 0xFFFFFFFF AND PUSH1 0xE0 SHL DUP2 MSTORE PUSH1 0x4 ADD PUSH1 0x20 PUSH1 0x40 MLOAD DUP1 DUP4 SUB DUP2 DUP7 DUP1 EXTCODESIZE ISZERO DUP1 ISZERO PUSH3 0x1AB JUMPI PUSH1 0x0 DUP1 REVERT JUMPDEST POP GAS STATICCALL ISZERO DUP1 ISZERO PUSH3 0x1C0 JUMPI RETURNDATASIZE PUSH1 0x0 DUP1 RETURNDATACOPY RETURNDATASIZE PUSH1 0x0 REVERT JUMPDEST POP POP POP POP PUSH1 0x40 MLOAD RETURNDATASIZE PUSH1 0x1F NOT PUSH1 0x1F DUP3 ADD AND DUP3 ADD DUP1 PUSH1 0x40 MSTORE POP DUP2 ADD SWAP1 PUSH3 0x1E6 SWAP2 SWAP1 PUSH3 0x55D JUMP JUMPDEST PUSH1 0x1 PUSH1 0x1 PUSH1 0xA0 SHL SUB AND PUSH4 0xC9C65396 ADDRESS DUP4 PUSH1 0x1 PUSH1 0x1 PUSH1 0xA0 SHL SUB AND PUSH4 0xAD5C4648 PUSH1 0x40 MLOAD DUP2 PUSH4 0xFFFFFFFF AND PUSH1 0xE0 SHL DUP2 MSTORE PUSH1 0x4 ADD PUSH1 0x20 PUSH1 0x40 MLOAD DUP1 DUP4 SUB DUP2 DUP7 DUP1 EXTCODESIZE ISZERO DUP1 ISZERO PUSH3 0x22F JUMPI PUSH1 0x0 DUP1 REVERT JUMPDEST POP GAS STATICCALL ISZERO DUP1 ISZERO PUSH3 0x244 JUMPI RETURNDATASIZE PUSH1 0x0 DUP1 RETURNDATACOPY RETURNDATASIZE PUSH1 0x0 REVERT JUMPDEST POP POP POP POP PUSH1 0x40 MLOAD RETURNDATASIZE PUSH1 0x1F NOT PUSH1 0x1F DUP3 ADD AND DUP3 ADD DUP1 PUSH1 0x40 MSTORE POP DUP2 ADD SWAP1 PUSH3 0x26A SWAP2 SWAP1 PUSH3 0x55D JUMP JUMPDEST PUSH1 0x40 MLOAD PUSH1 0x1 PUSH1 0x1 PUSH1 0xE0 SHL SUB NOT PUSH1 0xE0 DUP6 SWAP1 SHL AND DUP2 MSTORE PUSH1 0x1 PUSH1 0x1 PUSH1 0xA0 SHL SUB SWAP3 DUP4 AND PUSH1 0x4 DUP3 ADD MSTORE SWAP2 AND PUSH1 0x24 DUP3 ADD MSTORE PUSH1 0x44 ADD PUSH1 0x20 PUSH1 0x40 MLOAD DUP1 DUP4 SUB DUP2 PUSH1 0x0 DUP8 DUP1 EXTCODESIZE ISZERO DUP1 ISZERO PUSH3 0x2B3 JUMPI PUSH1 0x0 DUP1 REVERT JUMPDEST POP GAS CALL ISZERO DUP1 ISZERO PUSH3 0x2C8 JUMPI RETURNDATASIZE PUSH1 0x0 DUP1 RETURNDATACOPY RETURNDATASIZE PUSH1 0x0 REVERT JUMPDEST POP POP POP POP PUSH1 0x40 MLOAD RETURNDATASIZE PUSH1 0x1F NOT PUSH1 0x1F DUP3 ADD AND DUP3 ADD DUP1 PUSH1 0x40 MSTORE POP DUP2 ADD SWAP1 PUSH3 0x2EE SWAP2 SWAP1 PUSH3 0x55D JUMP JUMPDEST PUSH1 0x26 DUP1 SLOAD PUSH1 0x1 PUSH1 0x1 PUSH1 0xA0 SHL SUB NOT AND PUSH1 0x1 PUSH1 0x1 PUSH1 0xA0 SHL SUB SWAP3 DUP4 AND SWAP1 DUP2 OR SWAP1 SWAP2 SSTORE PUSH1 0x25 SLOAD PUSH1 0x40 MLOAD PUSH4 0x95EA7B3 PUSH1 0xE0 SHL DUP2 MSTORE SWAP3 AND PUSH1 0x4 DUP4 ADD MSTORE PUSH1 0x0 NOT PUSH1 0x24 DUP4 ADD MSTORE SWAP1 PUSH4 0x95EA7B3 SWAP1 PUSH1 0x44 ADD PUSH1 0x20 PUSH1 0x40 MLOAD DUP1 DUP4 SUB DUP2 PUSH1 0x0 DUP8 DUP1 EXTCODESIZE ISZERO DUP1 ISZERO PUSH3 0x351 JUMPI PUSH1 0x0 DUP1 REVERT JUMPDEST POP GAS CALL ISZERO DUP1 ISZERO PUSH3 0x366 JUMPI RETURNDATASIZE PUSH1 0x0 DUP1 RETURNDATACOPY RETURNDATASIZE PUSH1 0x0 REVERT JUMPDEST POP POP POP POP PUSH1 0x40 MLOAD RETURNDATASIZE PUSH1 0x1F NOT PUSH1 0x1F DUP3 ADD AND DUP3 ADD DUP1 PUSH1 0x40 MSTORE POP DUP2 ADD SWAP1 PUSH3 0x38C SWAP2 SWAP1 PUSH3 0x58D JUMP JUMPDEST POP PUSH8 0xDE0B6B3A7640000 PUSH1 0x27 DUP2 SWAP1 SSTORE PUSH1 0x7 DUP2 SWAP1 SSTORE CALLER PUSH1 0x0 DUP2 DUP2 MSTORE PUSH1 0x2 PUSH1 0x20 SWAP1 DUP2 MSTORE PUSH1 0x40 DUP1 DUP4 KECCAK256 DUP6 SWAP1 SSTORE DUP3 SLOAD PUSH1 0x1 PUSH1 0x1 PUSH1 0xA0 SHL SUB AND DUP4 MSTORE PUSH1 0x4 DUP3 MSTORE DUP1 DUP4 KECCAK256 DUP1 SLOAD PUSH1 0x1 PUSH1 0xFF NOT SWAP2 DUP3 AND DUP2 OR SWAP1 SWAP3 SSTORE ADDRESS DUP6 MSTORE DUP3 DUP6 KECCAK256 DUP1 SLOAD SWAP1 SWAP2 AND SWAP1 SWAP2 OR SWAP1 SSTORE MLOAD SWAP4 DUP5 MSTORE SWAP2 SWAP3 SWAP1 SWAP2 PUSH32 0xDDF252AD1BE2C89B69C2B068FC378DAA952BA7F163C4A11628F55A4DF523B3EF SWAP2 ADD PUSH1 0x40 MLOAD DUP1 SWAP2 SUB SWAP1 LOG3 POP PUSH3 0x5AF JUMP JUMPDEST PUSH1 0x0 SLOAD PUSH1 0x1 PUSH1 0x1 PUSH1 0xA0 SHL SUB AND SWAP1 JUMP JUMPDEST PUSH1 0x1 PUSH1 0x1 PUSH1 0xA0 SHL SUB DUP4 AND PUSH3 0x499 JUMPI PUSH1 0x40 MLOAD PUSH3 0x461BCD PUSH1 0xE5 SHL DUP2 MSTORE PUSH1 0x20 PUSH1 0x4 DUP3 ADD MSTORE PUSH1 0x24 DUP1 DUP3 ADD MSTORE PUSH32 0x45524332303A20617070726F76652066726F6D20746865207A65726F20616464 PUSH1 0x44 DUP3 ADD MSTORE PUSH4 0x72657373 PUSH1 0xE0 SHL PUSH1 0x64 DUP3 ADD MSTORE PUSH1 0x84 ADD JUMPDEST PUSH1 0x40 MLOAD DUP1 SWAP2 SUB SWAP1 REVERT JUMPDEST PUSH1 0x1 PUSH1 0x1 PUSH1 0xA0 SHL SUB DUP3 AND PUSH3 0x4FC JUMPI PUSH1 0x40 MLOAD PUSH3 0x461BCD PUSH1 0xE5 SHL DUP2 MSTORE PUSH1 0x20 PUSH1 0x4 DUP3 ADD MSTORE PUSH1 0x22 PUSH1 0x24 DUP3 ADD MSTORE PUSH32 0x45524332303A20617070726F766520746F20746865207A65726F206164647265 PUSH1 0x44 DUP3 ADD MSTORE PUSH2 0x7373 PUSH1 0xF0 SHL PUSH1 0x64 DUP3 ADD MSTORE PUSH1 0x84 ADD PUSH3 0x490 JUMP JUMPDEST PUSH1 0x1 PUSH1 0x1 PUSH1 0xA0 SHL SUB DUP4 DUP2 AND PUSH1 0x0 DUP2 DUP2 MSTORE PUSH1 0x3 PUSH1 0x20 SWAP1 DUP2 MSTORE PUSH1 0x40 DUP1 DUP4 KECCAK256 SWAP5 DUP8 AND DUP1 DUP5 MSTORE SWAP5 DUP3 MSTORE SWAP2 DUP3 SWAP1 KECCAK256 DUP6 SWAP1 SSTORE SWAP1 MLOAD DUP5 DUP2 MSTORE PUSH32 0x8C5BE1E5EBEC7D5BD14F71427D1E84F3DD0314C0F7B2291E5B200AC8C7C3B925 SWAP2 ADD PUSH1 0x40 MLOAD DUP1 SWAP2 SUB SWAP1 LOG3 POP POP POP JUMP JUMPDEST PUSH1 0x0 PUSH1 0x20 DUP3 DUP5 SUB SLT ISZERO PUSH3 0x56F JUMPI DUP1 DUP2 REVERT JUMPDEST DUP2 MLOAD PUSH1 0x1 PUSH1 0x1 PUSH1 0xA0 SHL SUB DUP2 AND DUP2 EQ PUSH3 0x586 JUMPI DUP2 DUP3 REVERT JUMPDEST SWAP4 SWAP3 POP POP POP JUMP JUMPDEST PUSH1 0x0 PUSH1 0x20 DUP3 DUP5 SUB SLT ISZERO PUSH3 0x59F JUMPI DUP1 DUP2 REVERT JUMPDEST DUP2 MLOAD DUP1 ISZERO ISZERO DUP2 EQ PUSH3 0x586 JUMPI DUP2 DUP3 REVERT JUMPDEST PUSH2 0x3ACF DUP1 PUSH3 0x5BF PUSH1 0x0 CODECOPY PUSH1 0x0 RETURN INVALID PUSH1 0x80 PUSH1 0x40 MSTORE PUSH1 0x4 CALLDATASIZE LT PUSH2 0x37A JUMPI PUSH1 0x0 CALLDATALOAD PUSH1 0xE0 SHR DUP1 PUSH4 0x80670F3C GT PUSH2 0x1D1 JUMPI DUP1 PUSH4 0xC95457FF GT PUSH2 0x102 JUMPI DUP1 PUSH4 0xDD62ED3E GT PUSH2 0xA0 JUMPI DUP1 PUSH4 0xF2FDE38B GT PUSH2 0x6F JUMPI DUP1 PUSH4 0xF2FDE38B EQ PUSH2 0xAB0 JUMPI DUP1 PUSH4 0xF480FEC2 EQ PUSH2 0xAD0 JUMPI DUP1 PUSH4 0xFFB54A99 EQ PUSH2 0xAF0 JUMPI DUP1 PUSH4 0xFFECF516 EQ PUSH2 0xB0A JUMPI PUSH1 0x0 DUP1 REVERT JUMPDEST DUP1 PUSH4 0xDD62ED3E EQ PUSH2 0xA0A JUMPI DUP1 PUSH4 0xE315A6DA EQ PUSH2 0xA50 JUMPI DUP1 PUSH4 0xE4BF1BED EQ PUSH2 0xA70 JUMPI DUP1 PUSH4 0xEA2F0B37 EQ PUSH2 0xA90 JUMPI PUSH1 0x0 DUP1 REVERT JUMPDEST DUP1 PUSH4 0xD1633649 GT PUSH2 0xDC JUMPI DUP1 PUSH4 0xD1633649 EQ PUSH2 0x99F JUMPI DUP1 PUSH4 0xD55CB78A EQ PUSH2 0x9BF JUMPI DUP1 PUSH4 0xDB0045EC EQ PUSH2 0x9D4 JUMPI DUP1 PUSH4 0xDC44B6A0 EQ PUSH2 0x9F4 JUMPI PUSH1 0x0 DUP1 REVERT JUMPDEST DUP1 PUSH4 0xC95457FF EQ PUSH2 0x904 JUMPI DUP1 PUSH4 0xCAB03471 EQ PUSH2 0x969 JUMPI DUP1 PUSH4 0xCDB3858F EQ PUSH2 0x97F JUMPI PUSH1 0x0 DUP1 REVERT JUMPDEST DUP1 PUSH4 0x9D82190F GT PUSH2 0x16F JUMPI DUP1 PUSH4 0xC3C8CD80 GT PUSH2 0x149 JUMPI DUP1 PUSH4 0xC3C8CD80 EQ PUSH2 0x8AD JUMPI DUP1 PUSH4 0xC469B6DD EQ PUSH2 0x8C2 JUMPI DUP1 PUSH4 0xC5D24189 EQ PUSH2 0x8D8 JUMPI DUP1 PUSH4 0xC8607952 EQ PUSH2 0x8EE JUMPI PUSH1 0x0 DUP1 REVERT JUMPDEST DUP1 PUSH4 0x9D82190F EQ PUSH2 0x82D JUMPI DUP1 PUSH4 0xA850673D EQ PUSH2 0x86D JUMPI DUP1 PUSH4 0xA9059CBB EQ PUSH2 0x88D JUMPI PUSH1 0x0 DUP1 REVERT JUMPDEST DUP1 PUSH4 0x8E360253 GT PUSH2 0x1AB JUMPI DUP1 PUSH4 0x8E360253 EQ PUSH2 0x7A8 JUMPI DUP1 PUSH4 0x9491F94D EQ PUSH2 0x7BD JUMPI DUP1 PUSH4 0x95D89B41 EQ PUSH2 0x7D2 JUMPI DUP1 PUSH4 0x99A7B9BC EQ PUSH2 0x818 JUMPI PUSH1 0x0 DUP1 REVERT JUMPDEST DUP1 PUSH4 0x80670F3C EQ PUSH2 0x75F JUMPI DUP1 PUSH4 0x88790A68 EQ PUSH2 0x774 JUMPI DUP1 PUSH4 0x8DA5CB5B EQ PUSH2 0x78A JUMPI PUSH1 0x0 DUP1 REVERT JUMPDEST DUP1 PUSH4 0x39A53C4E GT PUSH2 0x2AB JUMPI DUP1 PUSH4 0x6C0A24EB GT PUSH2 0x249 JUMPI DUP1 PUSH4 0x715018A6 GT PUSH2 0x223 JUMPI DUP1 PUSH4 0x715018A6 EQ PUSH2 0x6D1 JUMPI DUP1 PUSH4 0x729CB3F2 EQ PUSH2 0x6E6 JUMPI DUP1 PUSH4 0x72B2AECC EQ PUSH2 0x706 JUMPI DUP1 PUSH4 0x787A08A6 EQ PUSH2 0x71C JUMPI PUSH1 0x0 DUP1 REVERT JUMPDEST DUP1 PUSH4 0x6C0A24EB EQ PUSH2 0x670 JUMPI DUP1 PUSH4 0x6FC3EAEC EQ PUSH2 0x686 JUMPI DUP1 PUSH4 0x70A08231 EQ PUSH2 0x69B JUMPI PUSH1 0x0 DUP1 REVERT JUMPDEST DUP1 PUSH4 0x437823EC GT PUSH2 0x285 JUMPI DUP1 PUSH4 0x437823EC EQ PUSH2 0x5E3 JUMPI DUP1 PUSH4 0x49BD5A5E EQ PUSH2 0x603 JUMPI DUP1 PUSH4 0x5FECD926 EQ PUSH2 0x63B JUMPI DUP1 PUSH4 0x6AABFF3F EQ PUSH2 0x65B JUMPI PUSH1 0x0 DUP1 REVERT JUMPDEST DUP1 PUSH4 0x39A53C4E EQ PUSH2 0x574 JUMPI DUP1 PUSH4 0x3BBAC579 EQ PUSH2 0x596 JUMPI DUP1 PUSH4 0x3E0F966D EQ PUSH2 0x5CE JUMPI PUSH1 0x0 DUP1 REVERT JUMPDEST DUP1 PUSH4 0x248DD232 GT PUSH2 0x318 JUMPI DUP1 PUSH4 0x29409395 GT PUSH2 0x2F2 JUMPI DUP1 PUSH4 0x29409395 EQ PUSH2 0x4F7 JUMPI DUP1 PUSH4 0x301AD558 EQ PUSH2 0x517 JUMPI DUP1 PUSH4 0x313CE567 EQ PUSH2 0x538 JUMPI DUP1 PUSH4 0x323BE1C5 EQ PUSH2 0x554 JUMPI PUSH1 0x0 DUP1 REVERT JUMPDEST DUP1 PUSH4 0x248DD232 EQ PUSH2 0x4AB JUMPI DUP1 PUSH4 0x27A14FC2 EQ PUSH2 0x4C1 JUMPI DUP1 PUSH4 0x2843631D EQ PUSH2 0x4E1 JUMPI PUSH1 0x0 DUP1 REVERT JUMPDEST DUP1 PUSH4 0x14EB76AC GT PUSH2 0x354 JUMPI DUP1 PUSH4 0x14EB76AC EQ PUSH2 0x42E JUMPI DUP1 PUSH4 0x18160DDD EQ PUSH2 0x450 JUMPI DUP1 PUSH4 0x2369BF83 EQ PUSH2 0x46B JUMPI DUP1 PUSH4 0x23B872DD EQ PUSH2 0x48B JUMPI PUSH1 0x0 DUP1 REVERT JUMPDEST DUP1 PUSH4 0x1A6C43B EQ PUSH2 0x386 JUMPI DUP1 PUSH4 0x6FDDE03 EQ PUSH2 0x3AF JUMPI DUP1 PUSH4 0x95EA7B3 EQ PUSH2 0x3FE JUMPI PUSH1 0x0 DUP1 REVERT JUMPDEST CALLDATASIZE PUSH2 0x381 JUMPI STOP JUMPDEST PUSH1 0x0 DUP1 REVERT JUMPDEST CALLVALUE DUP1 ISZERO PUSH2 0x392 JUMPI PUSH1 0x0 DUP1 REVERT JUMPDEST POP PUSH2 0x39C PUSH1 0x8 SLOAD DUP2 JUMP JUMPDEST PUSH1 0x40 MLOAD SWAP1 DUP2 MSTORE PUSH1 0x20 ADD JUMPDEST PUSH1 0x40 MLOAD DUP1 SWAP2 SUB SWAP1 RETURN JUMPDEST CALLVALUE DUP1 ISZERO PUSH2 0x3BB JUMPI PUSH1 0x0 DUP1 REVERT JUMPDEST POP PUSH1 0x40 DUP1 MLOAD DUP1 DUP3 ADD SWAP1 SWAP2 MSTORE PUSH1 0x9 DUP2 MSTORE PUSH32 0x4761696E5A696C6C610000000000000000000000000000000000000000000000 PUSH1 0x20 DUP3 ADD MSTORE JUMPDEST PUSH1 0x40 MLOAD PUSH2 0x3A6 SWAP2 SWAP1 PUSH2 0x3807 JUMP JUMPDEST CALLVALUE DUP1 ISZERO PUSH2 0x40A JUMPI PUSH1 0x0 DUP1 REVERT JUMPDEST POP PUSH2 0x41E PUSH2 0x419 CALLDATASIZE PUSH1 0x4 PUSH2 0x36BF JUMP JUMPDEST PUSH2 0xB2A JUMP JUMPDEST PUSH1 0x40 MLOAD SWAP1 ISZERO ISZERO DUP2 MSTORE PUSH1 0x20 ADD PUSH2 0x3A6 JUMP JUMPDEST CALLVALUE DUP1 ISZERO PUSH2 0x43A JUMPI PUSH1 0x0 DUP1 REVERT JUMPDEST POP PUSH2 0x44E PUSH2 0x449 CALLDATASIZE PUSH1 0x4 PUSH2 0x360F JUMP JUMPDEST PUSH2 0xB41 JUMP JUMPDEST STOP JUMPDEST CALLVALUE DUP1 ISZERO PUSH2 0x45C JUMPI PUSH1 0x0 DUP1 REVERT JUMPDEST POP PUSH8 0xDE0B6B3A7640000 PUSH2 0x39C JUMP JUMPDEST CALLVALUE DUP1 ISZERO PUSH2 0x477 JUMPI PUSH1 0x0 DUP1 REVERT JUMPDEST POP PUSH2 0x44E PUSH2 0x486 CALLDATASIZE PUSH1 0x4 PUSH2 0x360F JUMP JUMPDEST PUSH2 0xBDA JUMP JUMPDEST CALLVALUE DUP1 ISZERO PUSH2 0x497 JUMPI PUSH1 0x0 DUP1 REVERT JUMPDEST POP PUSH2 0x41E PUSH2 0x4A6 CALLDATASIZE PUSH1 0x4 PUSH2 0x367F JUMP JUMPDEST PUSH2 0xC6E JUMP JUMPDEST CALLVALUE DUP1 ISZERO PUSH2 0x4B7 JUMPI PUSH1 0x0 DUP1 REVERT JUMPDEST POP PUSH2 0x39C PUSH1 0x13 SLOAD DUP2 JUMP JUMPDEST CALLVALUE DUP1 ISZERO PUSH2 0x4CD JUMPI PUSH1 0x0 DUP1 REVERT JUMPDEST POP PUSH2 0x44E PUSH2 0x4DC CALLDATASIZE PUSH1 0x4 PUSH2 0x3779 JUMP JUMPDEST PUSH2 0xCD7 JUMP JUMPDEST CALLVALUE DUP1 ISZERO PUSH2 0x4ED JUMPI PUSH1 0x0 DUP1 REVERT JUMPDEST POP PUSH2 0x39C PUSH1 0xB SLOAD DUP2 JUMP JUMPDEST CALLVALUE DUP1 ISZERO PUSH2 0x503 JUMPI PUSH1 0x0 DUP1 REVERT JUMPDEST POP PUSH2 0x44E PUSH2 0x512 CALLDATASIZE PUSH1 0x4 PUSH2 0x360F JUMP JUMPDEST PUSH2 0xE3D JUMP JUMPDEST CALLVALUE DUP1 ISZERO PUSH2 0x523 JUMPI PUSH1 0x0 DUP1 REVERT JUMPDEST POP PUSH1 0x28 SLOAD PUSH2 0x41E SWAP1 PUSH4 0x1000000 SWAP1 DIV PUSH1 0xFF AND DUP2 JUMP JUMPDEST CALLVALUE DUP1 ISZERO PUSH2 0x544 JUMPI PUSH1 0x0 DUP1 REVERT JUMPDEST POP PUSH1 0x40 MLOAD PUSH1 0x9 DUP2 MSTORE PUSH1 0x20 ADD PUSH2 0x3A6 JUMP JUMPDEST CALLVALUE DUP1 ISZERO PUSH2 0x560 JUMPI PUSH1 0x0 DUP1 REVERT JUMPDEST POP PUSH1 0x28 SLOAD PUSH2 0x41E SWAP1 PUSH3 0x10000 SWAP1 DIV PUSH1 0xFF AND DUP2 JUMP JUMPDEST CALLVALUE DUP1 ISZERO PUSH2 0x580 JUMPI PUSH1 0x0 DUP1 REVERT JUMPDEST POP PUSH1 0x28 SLOAD PUSH2 0x41E SWAP1 PUSH5 0x100000000 SWAP1 DIV PUSH1 0xFF AND DUP2 JUMP JUMPDEST CALLVALUE DUP1 ISZERO PUSH2 0x5A2 JUMPI PUSH1 0x0 DUP1 REVERT JUMPDEST POP PUSH2 0x41E PUSH2 0x5B1 CALLDATASIZE PUSH1 0x4 PUSH2 0x360F JUMP JUMPDEST PUSH1 0x1 PUSH1 0x1 PUSH1 0xA0 SHL SUB AND PUSH1 0x0 SWAP1 DUP2 MSTORE PUSH1 0x20 DUP1 MSTORE PUSH1 0x40 SWAP1 KECCAK256 SLOAD PUSH1 0xFF AND SWAP1 JUMP JUMPDEST CALLVALUE DUP1 ISZERO PUSH2 0x5DA JUMPI PUSH1 0x0 DUP1 REVERT JUMPDEST POP PUSH2 0x44E PUSH2 0xFEA JUMP JUMPDEST CALLVALUE DUP1 ISZERO PUSH2 0x5EF JUMPI PUSH1 0x0 DUP1 REVERT JUMPDEST POP PUSH2 0x44E PUSH2 0x5FE CALLDATASIZE PUSH1 0x4 PUSH2 0x360F JUMP JUMPDEST PUSH2 0x10A8 JUMP JUMPDEST CALLVALUE DUP1 ISZERO PUSH2 0x60F JUMPI PUSH1 0x0 DUP1 REVERT JUMPDEST POP PUSH1 0x26 SLOAD PUSH2 0x623 SWAP1 PUSH1 0x1 PUSH1 0x1 PUSH1 0xA0 SHL SUB AND DUP2 JUMP JUMPDEST PUSH1 0x40 MLOAD PUSH1 0x1 PUSH1 0x1 PUSH1 0xA0 SHL SUB SWAP1 SWAP2 AND DUP2 MSTORE PUSH1 0x20 ADD PUSH2 0x3A6 JUMP JUMPDEST CALLVALUE DUP1 ISZERO PUSH2 0x647 JUMPI PUSH1 0x0 DUP1 REVERT JUMPDEST POP PUSH2 0x44E PUSH2 0x656 CALLDATASIZE PUSH1 0x4 PUSH2 0x360F JUMP JUMPDEST PUSH2 0x1126 JUMP JUMPDEST CALLVALUE DUP1 ISZERO PUSH2 0x667 JUMPI PUSH1 0x0 DUP1 REVERT JUMPDEST POP PUSH2 0x44E PUSH2 0x11A0 JUMP JUMPDEST CALLVALUE DUP1 ISZERO PUSH2 0x67C JUMPI PUSH1 0x0 DUP1 REVERT JUMPDEST POP PUSH2 0x39C PUSH1 0x7 SLOAD DUP2 JUMP JUMPDEST CALLVALUE DUP1 ISZERO PUSH2 0x692 JUMPI PUSH1 0x0 DUP1 REVERT JUMPDEST POP PUSH2 0x44E PUSH2 0x1224 JUMP JUMPDEST CALLVALUE DUP1 ISZERO PUSH2 0x6A7 JUMPI PUSH1 0x0 DUP1 REVERT JUMPDEST POP PUSH2 0x39C PUSH2 0x6B6 CALLDATASIZE PUSH1 0x4 PUSH2 0x360F JUMP JUMPDEST PUSH1 0x1 PUSH1 0x1 PUSH1 0xA0 SHL SUB AND PUSH1 0x0 SWAP1 DUP2 MSTORE PUSH1 0x2 PUSH1 0x20 MSTORE PUSH1 0x40 SWAP1 KECCAK256 SLOAD SWAP1 JUMP JUMPDEST CALLVALUE DUP1 ISZERO PUSH2 0x6DD JUMPI PUSH1 0x0 DUP1 REVERT JUMPDEST POP PUSH2 0x44E PUSH2 0x12C3 JUMP JUMPDEST CALLVALUE DUP1 ISZERO PUSH2 0x6F2 JUMPI PUSH1 0x0 DUP1 REVERT JUMPDEST POP PUSH2 0x44E PUSH2 0x701 CALLDATASIZE PUSH1 0x4 PUSH2 0x3706 JUMP JUMPDEST PUSH2 0x137F JUMP JUMPDEST CALLVALUE DUP1 ISZERO PUSH2 0x712 JUMPI PUSH1 0x0 DUP1 REVERT JUMPDEST POP PUSH2 0x39C PUSH1 0x19 SLOAD DUP2 JUMP JUMPDEST CALLVALUE DUP1 ISZERO PUSH2 0x728 JUMPI PUSH1 0x0 DUP1 REVERT JUMPDEST POP PUSH1 0x1A SLOAD PUSH2 0x743 SWAP1 PUSH1 0xFF DUP2 AND SWAP1 PUSH2 0x100 SWAP1 DIV PUSH4 0xFFFFFFFF AND DUP3 JUMP JUMPDEST PUSH1 0x40 DUP1 MLOAD SWAP3 ISZERO ISZERO DUP4 MSTORE PUSH4 0xFFFFFFFF SWAP1 SWAP2 AND PUSH1 0x20 DUP4 ADD MSTORE ADD PUSH2 0x3A6 JUMP JUMPDEST CALLVALUE DUP1 ISZERO PUSH2 0x76B JUMPI PUSH1 0x0 DUP1 REVERT JUMPDEST POP PUSH2 0x39C PUSH2 0x1431 JUMP JUMPDEST CALLVALUE DUP1 ISZERO PUSH2 0x780 JUMPI PUSH1 0x0 DUP1 REVERT JUMPDEST POP PUSH2 0x39C PUSH1 0x11 SLOAD DUP2 JUMP JUMPDEST CALLVALUE DUP1 ISZERO PUSH2 0x796 JUMPI PUSH1 0x0 DUP1 REVERT JUMPDEST POP PUSH1 0x0 SLOAD PUSH1 0x1 PUSH1 0x1 PUSH1 0xA0 SHL SUB AND PUSH2 0x623 JUMP JUMPDEST CALLVALUE DUP1 ISZERO PUSH2 0x7B4 JUMPI PUSH1 0x0 DUP1 REVERT JUMPDEST POP PUSH2 0x44E PUSH2 0x14A5 JUMP JUMPDEST CALLVALUE DUP1 ISZERO PUSH2 0x7C9 JUMPI PUSH1 0x0 DUP1 REVERT JUMPDEST POP PUSH2 0x39C PUSH2 0x150E JUMP JUMPDEST CALLVALUE DUP1 ISZERO PUSH2 0x7DE JUMPI PUSH1 0x0 DUP1 REVERT JUMPDEST POP PUSH1 0x40 DUP1 MLOAD DUP1 DUP3 ADD SWAP1 SWAP2 MSTORE PUSH1 0x9 DUP2 MSTORE PUSH32 0x4741494E5A494C4C410000000000000000000000000000000000000000000000 PUSH1 0x20 DUP3 ADD MSTORE PUSH2 0x3F1 JUMP JUMPDEST CALLVALUE DUP1 ISZERO PUSH2 0x824 JUMPI PUSH1 0x0 DUP1 REVERT JUMPDEST POP PUSH2 0x44E PUSH2 0x16DC JUMP JUMPDEST CALLVALUE DUP1 ISZERO PUSH2 0x839 JUMPI PUSH1 0x0 DUP1 REVERT JUMPDEST POP PUSH2 0x84D PUSH2 0x848 CALLDATASIZE PUSH1 0x4 PUSH2 0x360F JUMP JUMPDEST PUSH2 0x1760 JUMP JUMPDEST PUSH1 0x40 DUP1 MLOAD SWAP5 DUP6 MSTORE PUSH1 0x20 DUP6 ADD SWAP4 SWAP1 SWAP4 MSTORE SWAP2 DUP4 ADD MSTORE PUSH1 0x60 DUP3 ADD MSTORE PUSH1 0x80 ADD PUSH2 0x3A6 JUMP JUMPDEST CALLVALUE DUP1 ISZERO PUSH2 0x879 JUMPI PUSH1 0x0 DUP1 REVERT JUMPDEST POP PUSH2 0x44E PUSH2 0x888 CALLDATASIZE PUSH1 0x4 PUSH2 0x3779 JUMP JUMPDEST PUSH2 0x180F JUMP JUMPDEST CALLVALUE DUP1 ISZERO PUSH2 0x899 JUMPI PUSH1 0x0 DUP1 REVERT JUMPDEST POP PUSH2 0x41E PUSH2 0x8A8 CALLDATASIZE PUSH1 0x4 PUSH2 0x36BF JUMP JUMPDEST PUSH2 0x186E JUMP JUMPDEST CALLVALUE DUP1 ISZERO PUSH2 0x8B9 JUMPI PUSH1 0x0 DUP1 REVERT JUMPDEST POP PUSH2 0x44E PUSH2 0x187B JUMP JUMPDEST CALLVALUE DUP1 ISZERO PUSH2 0x8CE JUMPI PUSH1 0x0 DUP1 REVERT JUMPDEST POP PUSH2 0x39C PUSH1 0xF SLOAD DUP2 JUMP JUMPDEST CALLVALUE DUP1 ISZERO PUSH2 0x8E4 JUMPI PUSH1 0x0 DUP1 REVERT JUMPDEST POP PUSH2 0x39C PUSH1 0xD SLOAD DUP2 JUMP JUMPDEST CALLVALUE DUP1 ISZERO PUSH2 0x8FA JUMPI PUSH1 0x0 DUP1 REVERT JUMPDEST POP PUSH2 0x39C PUSH1 0x15 SLOAD DUP2 JUMP JUMPDEST CALLVALUE DUP1 ISZERO PUSH2 0x910 JUMPI PUSH1 0x0 DUP1 REVERT JUMPDEST POP PUSH1 0x1C SLOAD PUSH1 0x1D SLOAD PUSH1 0x1E SLOAD PUSH1 0x1F SLOAD PUSH2 0x93A SWAP4 PUSH1 0xFF DUP1 DUP3 AND SWAP5 PUSH2 0x100 SWAP1 SWAP3 DIV PUSH2 0xFFFF AND SWAP4 SWAP2 SWAP3 SWAP2 AND SWAP1 DUP6 JUMP JUMPDEST PUSH1 0x40 DUP1 MLOAD SWAP6 ISZERO ISZERO DUP7 MSTORE PUSH2 0xFFFF SWAP1 SWAP5 AND PUSH1 0x20 DUP7 ADD MSTORE SWAP3 DUP5 ADD SWAP2 SWAP1 SWAP2 MSTORE ISZERO ISZERO PUSH1 0x60 DUP4 ADD MSTORE PUSH1 0x80 DUP3 ADD MSTORE PUSH1 0xA0 ADD PUSH2 0x3A6 JUMP JUMPDEST CALLVALUE DUP1 ISZERO PUSH2 0x975 JUMPI PUSH1 0x0 DUP1 REVERT JUMPDEST POP PUSH2 0x39C PUSH1 0x17 SLOAD DUP2 JUMP JUMPDEST CALLVALUE DUP1 ISZERO PUSH2 0x98B JUMPI PUSH1 0x0 DUP1 REVERT JUMPDEST POP PUSH2 0x44E PUSH2 0x99A CALLDATASIZE PUSH1 0x4 PUSH2 0x360F JUMP JUMPDEST PUSH2 0x18F4 JUMP JUMPDEST CALLVALUE DUP1 ISZERO PUSH2 0x9AB JUMPI PUSH1 0x0 DUP1 REVERT JUMPDEST POP PUSH2 0x44E PUSH2 0x9BA CALLDATASIZE PUSH1 0x4 PUSH2 0x3779 JUMP JUMPDEST PUSH2 0x1988 JUMP JUMPDEST CALLVALUE DUP1 ISZERO PUSH2 0x9CB JUMPI PUSH1 0x0 DUP1 REVERT JUMPDEST POP PUSH2 0x44E PUSH2 0x19F8 JUMP JUMPDEST CALLVALUE DUP1 ISZERO PUSH2 0x9E0 JUMPI PUSH1 0x0 DUP1 REVERT JUMPDEST POP PUSH2 0x44E PUSH2 0x9EF CALLDATASIZE PUSH1 0x4 PUSH2 0x360F JUMP JUMPDEST PUSH2 0x1A7C JUMP JUMPDEST CALLVALUE DUP1 ISZERO PUSH2 0xA00 JUMPI PUSH1 0x0 DUP1 REVERT JUMPDEST POP PUSH2 0x39C PUSH1 0x9 SLOAD DUP2 JUMP JUMPDEST CALLVALUE DUP1 ISZERO PUSH2 0xA16 JUMPI PUSH1 0x0 DUP1 REVERT JUMPDEST POP PUSH2 0x39C PUSH2 0xA25 CALLDATASIZE PUSH1 0x4 PUSH2 0x3647 JUMP JUMPDEST PUSH1 0x1 PUSH1 0x1 PUSH1 0xA0 SHL SUB SWAP2 DUP3 AND PUSH1 0x0 SWAP1 DUP2 MSTORE PUSH1 0x3 PUSH1 0x20 SWAP1 DUP2 MSTORE PUSH1 0x40 DUP1 DUP4 KECCAK256 SWAP4 SWAP1 SWAP5 AND DUP3 MSTORE SWAP2 SWAP1 SWAP2 MSTORE KECCAK256 SLOAD SWAP1 JUMP JUMPDEST CALLVALUE DUP1 ISZERO PUSH2 0xA5C JUMPI PUSH1 0x0 DUP1 REVERT JUMPDEST POP PUSH2 0x44E PUSH2 0xA6B CALLDATASIZE PUSH1 0x4 PUSH2 0x3779 JUMP JUMPDEST PUSH2 0x1B10 JUMP JUMPDEST CALLVALUE DUP1 ISZERO PUSH2 0xA7C JUMPI PUSH1 0x0 DUP1 REVERT JUMPDEST POP PUSH2 0x44E PUSH2 0xA8B CALLDATASIZE PUSH1 0x4 PUSH2 0x37D6 JUMP JUMPDEST PUSH2 0x1B6F JUMP JUMPDEST CALLVALUE DUP1 ISZERO PUSH2 0xA9C JUMPI PUSH1 0x0 DUP1 REVERT JUMPDEST POP PUSH2 0x44E PUSH2 0xAAB CALLDATASIZE PUSH1 0x4 PUSH2 0x360F JUMP JUMPDEST PUSH2 0x1D2C JUMP JUMPDEST CALLVALUE DUP1 ISZERO PUSH2 0xABC JUMPI PUSH1 0x0 DUP1 REVERT JUMPDEST POP PUSH2 0x44E PUSH2 0xACB CALLDATASIZE PUSH1 0x4 PUSH2 0x360F JUMP JUMPDEST PUSH2 0x1DA7 JUMP JUMPDEST CALLVALUE DUP1 ISZERO PUSH2 0xADC JUMPI PUSH1 0x0 DUP1 REVERT JUMPDEST POP PUSH2 0x44E PUSH2 0xAEB CALLDATASIZE PUSH1 0x4 PUSH2 0x37D6 JUMP JUMPDEST PUSH2 0x1E86 JUMP JUMPDEST CALLVALUE DUP1 ISZERO PUSH2 0xAFC JUMPI PUSH1 0x0 DUP1 REVERT JUMPDEST POP PUSH1 0x28 SLOAD PUSH2 0x41E SWAP1 PUSH1 0xFF AND DUP2 JUMP JUMPDEST CALLVALUE DUP1 ISZERO PUSH2 0xB16 JUMPI PUSH1 0x0 DUP1 REVERT JUMPDEST POP PUSH2 0x44E PUSH2 0xB25 CALLDATASIZE PUSH1 0x4 PUSH2 0x360F JUMP JUMPDEST PUSH2 0x2032 JUMP JUMPDEST PUSH1 0x0 PUSH2 0xB37 CALLER DUP5 DUP5 PUSH2 0x212E JUMP JUMPDEST POP PUSH1 0x1 JUMPDEST SWAP3 SWAP2 POP POP JUMP JUMPDEST PUSH1 0x0 SLOAD PUSH1 0x1 PUSH1 0x1 PUSH1 0xA0 SHL SUB AND CALLER EQ PUSH2 0xBA0 JUMPI PUSH1 0x40 MLOAD PUSH3 0x461BCD PUSH1 0xE5 SHL DUP2 MSTORE PUSH1 0x20 PUSH1 0x4 DUP3 ADD DUP2 SWAP1 MSTORE PUSH1 0x24 DUP3 ADD MSTORE PUSH32 0x4F776E61626C653A2063616C6C6572206973206E6F7420746865206F776E6572 PUSH1 0x44 DUP3 ADD MSTORE PUSH1 0x64 ADD JUMPDEST PUSH1 0x40 MLOAD DUP1 SWAP2 SUB SWAP1 REVERT JUMPDEST PUSH1 0x22 DUP1 SLOAD PUSH32 0xFFFFFFFFFFFFFFFFFFFFFFFF0000000000000000000000000000000000000000 AND PUSH1 0x1 PUSH1 0x1 PUSH1 0xA0 SHL SUB SWAP3 SWAP1 SWAP3 AND SWAP2 SWAP1 SWAP2 OR SWAP1 SSTORE JUMP JUMPDEST PUSH1 0x0 SLOAD PUSH1 0x1 PUSH1 0x1 PUSH1 0xA0 SHL SUB AND CALLER EQ PUSH2 0xC34 JUMPI PUSH1 0x40 MLOAD PUSH3 0x461BCD PUSH1 0xE5 SHL DUP2 MSTORE PUSH1 0x20 PUSH1 0x4 DUP3 ADD DUP2 SWAP1 MSTORE PUSH1 0x24 DUP3 ADD MSTORE PUSH32 0x4F776E61626C653A2063616C6C6572206973206E6F7420746865206F776E6572 PUSH1 0x44 DUP3 ADD MSTORE PUSH1 0x64 ADD PUSH2 0xB97 JUMP JUMPDEST PUSH1 0x21 DUP1 SLOAD PUSH32 0xFFFFFFFFFFFFFFFFFFFFFFFF0000000000000000000000000000000000000000 AND PUSH1 0x1 PUSH1 0x1 PUSH1 0xA0 SHL SUB SWAP3 SWAP1 SWAP3 AND SWAP2 SWAP1 SWAP2 OR SWAP1 SSTORE JUMP JUMPDEST PUSH1 0x0 PUSH2 0xC7B DUP5 DUP5 DUP5 PUSH2 0x2286 JUMP JUMPDEST PUSH2 0xCCD DUP5 CALLER PUSH2 0xCC8 DUP6 PUSH1 0x40 MLOAD DUP1 PUSH1 0x60 ADD PUSH1 0x40 MSTORE DUP1 PUSH1 0x28 DUP2 MSTORE PUSH1 0x20 ADD PUSH2 0x3A72 PUSH1 0x28 SWAP2 CODECOPY PUSH1 0x1 PUSH1 0x1 PUSH1 0xA0 SHL SUB DUP11 AND PUSH1 0x0 SWAP1 DUP2 MSTORE PUSH1 0x3 PUSH1 0x20 SWAP1 DUP2 MSTORE PUSH1 0x40 DUP1 DUP4 KECCAK256 CALLER DUP5 MSTORE SWAP1 SWAP2 MSTORE SWAP1 KECCAK256 SLOAD SWAP2 SWAP1 PUSH2 0x29BB JUMP JUMPDEST PUSH2 0x212E JUMP JUMPDEST POP PUSH1 0x1 SWAP4 SWAP3 POP POP POP JUMP JUMPDEST PUSH1 0x0 SLOAD PUSH1 0x1 PUSH1 0x1 PUSH1 0xA0 SHL SUB AND CALLER EQ PUSH2 0xD31 JUMPI PUSH1 0x40 MLOAD PUSH3 0x461BCD PUSH1 0xE5 SHL DUP2 MSTORE PUSH1 0x20 PUSH1 0x4 DUP3 ADD DUP2 SWAP1 MSTORE PUSH1 0x24 DUP3 ADD MSTORE PUSH32 0x4F776E61626C653A2063616C6C6572206973206E6F7420746865206F776E6572 PUSH1 0x44 DUP3 ADD MSTORE PUSH1 0x64 ADD PUSH2 0xB97 JUMP JUMPDEST PUSH2 0xD45 PUSH8 0xDE0B6B3A7640000 PUSH2 0x3E8 PUSH2 0x29F5 JUMP JUMPDEST DUP2 LT ISZERO PUSH2 0xDBA JUMPI PUSH1 0x40 MLOAD PUSH3 0x461BCD PUSH1 0xE5 SHL DUP2 MSTORE PUSH1 0x20 PUSH1 0x4 DUP3 ADD MSTORE PUSH1 0x2A PUSH1 0x24 DUP3 ADD MSTORE PUSH32 0x416D6F756E74206D7573742062652067726561746572207468616E20302E3125 PUSH1 0x44 DUP3 ADD MSTORE PUSH32 0x206F6620737570706C7900000000000000000000000000000000000000000000 PUSH1 0x64 DUP3 ADD MSTORE PUSH1 0x84 ADD PUSH2 0xB97 JUMP JUMPDEST PUSH8 0xDE0B6B3A7640000 DUP2 GT ISZERO PUSH2 0xE38 JUMPI PUSH1 0x40 MLOAD PUSH3 0x461BCD PUSH1 0xE5 SHL DUP2 MSTORE PUSH1 0x20 PUSH1 0x4 DUP3 ADD MSTORE PUSH1 0x30 PUSH1 0x24 DUP3 ADD MSTORE PUSH32 0x416D6F756E74206D757374206265206C657373207468616E206F722065717561 PUSH1 0x44 DUP3 ADD MSTORE PUSH32 0x6C20746F20746F74616C537570706C7900000000000000000000000000000000 PUSH1 0x64 DUP3 ADD MSTORE PUSH1 0x84 ADD PUSH2 0xB97 JUMP JUMPDEST PUSH1 0x7 SSTORE JUMP JUMPDEST PUSH1 0x0 SLOAD PUSH1 0x1 PUSH1 0x1 PUSH1 0xA0 SHL SUB AND CALLER EQ PUSH2 0xE97 JUMPI PUSH1 0x40 MLOAD PUSH3 0x461BCD PUSH1 0xE5 SHL DUP2 MSTORE PUSH1 0x20 PUSH1 0x4 DUP3 ADD DUP2 SWAP1 MSTORE PUSH1 0x24 DUP3 ADD MSTORE PUSH32 0x4F776E61626C653A2063616C6C6572206973206E6F7420746865206F776E6572 PUSH1 0x44 DUP3 ADD MSTORE PUSH1 0x64 ADD PUSH2 0xB97 JUMP JUMPDEST PUSH1 0x40 MLOAD PUSH32 0x70A0823100000000000000000000000000000000000000000000000000000000 DUP2 MSTORE ADDRESS PUSH1 0x4 DUP3 ADD MSTORE PUSH1 0x0 SWAP1 PUSH1 0x1 PUSH1 0x1 PUSH1 0xA0 SHL SUB DUP4 AND SWAP1 PUSH4 0x70A08231 SWAP1 PUSH1 0x24 ADD PUSH1 0x20 PUSH1 0x40 MLOAD DUP1 DUP4 SUB DUP2 DUP7 DUP1 EXTCODESIZE ISZERO DUP1 ISZERO PUSH2 0xEF2 JUMPI PUSH1 0x0 DUP1 REVERT JUMPDEST POP GAS STATICCALL ISZERO DUP1 ISZERO PUSH2 0xF06 JUMPI RETURNDATASIZE PUSH1 0x0 DUP1 RETURNDATACOPY RETURNDATASIZE PUSH1 0x0 REVERT JUMPDEST POP POP POP POP PUSH1 0x40 MLOAD RETURNDATASIZE PUSH1 0x1F NOT PUSH1 0x1F DUP3 ADD AND DUP3 ADD DUP1 PUSH1 0x40 MSTORE POP DUP2 ADD SWAP1 PUSH2 0xF2A SWAP2 SWAP1 PUSH2 0x3791 JUMP JUMPDEST SWAP1 POP DUP2 PUSH1 0x1 PUSH1 0x1 PUSH1 0xA0 SHL SUB AND PUSH4 0xA9059CBB PUSH2 0xF4D PUSH1 0x0 SLOAD PUSH1 0x1 PUSH1 0x1 PUSH1 0xA0 SHL SUB AND SWAP1 JUMP JUMPDEST PUSH1 0x40 MLOAD PUSH32 0xFFFFFFFF00000000000000000000000000000000000000000000000000000000 PUSH1 0xE0 DUP5 SWAP1 SHL AND DUP2 MSTORE PUSH1 0x1 PUSH1 0x1 PUSH1 0xA0 SHL SUB SWAP1 SWAP2 AND PUSH1 0x4 DUP3 ADD MSTORE PUSH1 0x24 DUP2 ADD DUP5 SWAP1 MSTORE PUSH1 0x44 ADD PUSH1 0x20 PUSH1 0x40 MLOAD DUP1 DUP4 SUB DUP2 PUSH1 0x0 DUP8 DUP1 EXTCODESIZE ISZERO DUP1 ISZERO PUSH2 0xFAD JUMPI PUSH1 0x0 DUP1 REVERT JUMPDEST POP GAS CALL ISZERO DUP1 ISZERO PUSH2 0xFC1 JUMPI RETURNDATASIZE PUSH1 0x0 DUP1 RETURNDATACOPY RETURNDATASIZE PUSH1 0x0 REVERT JUMPDEST POP POP POP POP PUSH1 0x40 MLOAD RETURNDATASIZE PUSH1 0x1F NOT PUSH1 0x1F DUP3 ADD AND DUP3 ADD DUP1 PUSH1 0x40 MSTORE POP DUP2 ADD SWAP1 PUSH2 0xFE5 SWAP2 SWAP1 PUSH2 0x36EA JUMP JUMPDEST POP POP POP JUMP JUMPDEST PUSH1 0x0 SLOAD PUSH1 0x1 PUSH1 0x1 PUSH1 0xA0 SHL SUB AND CALLER EQ PUSH2 0x1044 JUMPI PUSH1 0x40 MLOAD PUSH3 0x461BCD PUSH1 0xE5 SHL DUP2 MSTORE PUSH1 0x20 PUSH1 0x4 DUP3 ADD DUP2 SWAP1 MSTORE PUSH1 0x24 DUP3 ADD MSTORE PUSH32 0x4F776E61626C653A2063616C6C6572206973206E6F7420746865206F776E6572 PUSH1 0x44 DUP3 ADD MSTORE PUSH1 0x64 ADD PUSH2 0xB97 JUMP JUMPDEST PUSH1 0x28 SLOAD PUSH3 0x10000 SWAP1 DIV PUSH1 0xFF AND PUSH2 0x109C JUMPI PUSH1 0x40 MLOAD PUSH3 0x461BCD PUSH1 0xE5 SHL DUP2 MSTORE PUSH1 0x20 PUSH1 0x4 DUP3 ADD MSTORE PUSH1 0x1E PUSH1 0x24 DUP3 ADD MSTORE PUSH32 0x7468697320636F6E74726163742063616E6E6F74206265207061757365640000 PUSH1 0x44 DUP3 ADD MSTORE PUSH1 0x64 ADD PUSH2 0xB97 JUMP JUMPDEST PUSH1 0x28 DUP1 SLOAD PUSH1 0xFF NOT AND SWAP1 SSTORE JUMP JUMPDEST PUSH1 0x0 SLOAD PUSH1 0x1 PUSH1 0x1 PUSH1 0xA0 SHL SUB AND CALLER EQ PUSH2 0x1102 JUMPI PUSH1 0x40 MLOAD PUSH3 0x461BCD PUSH1 0xE5 SHL DUP2 MSTORE PUSH1 0x20 PUSH1 0x4 DUP3 ADD DUP2 SWAP1 MSTORE PUSH1 0x24 DUP3 ADD MSTORE PUSH32 0x4F776E61626C653A2063616C6C6572206973206E6F7420746865206F776E6572 PUSH1 0x44 DUP3 ADD MSTORE PUSH1 0x64 ADD PUSH2 0xB97 JUMP JUMPDEST PUSH1 0x1 PUSH1 0x1 PUSH1 0xA0 SHL SUB AND PUSH1 0x0 SWAP1 DUP2 MSTORE PUSH1 0x4 PUSH1 0x20 MSTORE PUSH1 0x40 SWAP1 KECCAK256 DUP1 SLOAD PUSH1 0xFF NOT AND PUSH1 0x1 OR SWAP1 SSTORE JUMP JUMPDEST PUSH1 0x0 SLOAD PUSH1 0x1 PUSH1 0x1 PUSH1 0xA0 SHL SUB AND CALLER EQ PUSH2 0x1180 JUMPI PUSH1 0x40 MLOAD PUSH3 0x461BCD PUSH1 0xE5 SHL DUP2 MSTORE PUSH1 0x20 PUSH1 0x4 DUP3 ADD DUP2 SWAP1 MSTORE PUSH1 0x24 DUP3 ADD MSTORE PUSH32 0x4F776E61626C653A2063616C6C6572206973206E6F7420746865206F776E6572 PUSH1 0x44 DUP3 ADD MSTORE PUSH1 0x64 ADD PUSH2 0xB97 JUMP JUMPDEST PUSH1 0x1 PUSH1 0x1 PUSH1 0xA0 SHL SUB AND PUSH1 0x0 SWAP1 DUP2 MSTORE PUSH1 0x20 DUP1 MSTORE PUSH1 0x40 SWAP1 KECCAK256 DUP1 SLOAD PUSH1 0xFF NOT AND SWAP1 SSTORE JUMP JUMPDEST PUSH1 0x0 SLOAD PUSH1 0x1 PUSH1 0x1 PUSH1 0xA0 SHL SUB AND CALLER EQ PUSH2 0x11FA JUMPI PUSH1 0x40 MLOAD PUSH3 0x461BCD PUSH1 0xE5 SHL DUP2 MSTORE PUSH1 0x20 PUSH1 0x4 DUP3 ADD DUP2 SWAP1 MSTORE PUSH1 0x24 DUP3 ADD MSTORE PUSH32 0x4F776E61626C653A2063616C6C6572206973206E6F7420746865206F776E6572 PUSH1 0x44 DUP3 ADD MSTORE PUSH1 0x64 ADD PUSH2 0xB97 JUMP JUMPDEST PUSH1 0x28 DUP1 SLOAD PUSH32 0xFFFFFFFFFFFFFFFFFFFFFFFFFFFFFFFFFFFFFFFFFFFFFFFFFFFFFFFFFF00FFFF AND SWAP1 SSTORE JUMP JUMPDEST PUSH1 0x0 SLOAD PUSH1 0x1 PUSH1 0x1 PUSH1 0xA0 SHL SUB AND CALLER EQ PUSH2 0x127E JUMPI PUSH1 0x40 MLOAD PUSH3 0x461BCD PUSH1 0xE5 SHL DUP2 MSTORE PUSH1 0x20 PUSH1 0x4 DUP3 ADD DUP2 SWAP1 MSTORE PUSH1 0x24 DUP3 ADD MSTORE PUSH32 0x4F776E61626C653A2063616C6C6572206973206E6F7420746865206F776E6572 PUSH1 0x44 DUP3 ADD MSTORE PUSH1 0x64 ADD PUSH2 0xB97 JUMP JUMPDEST SELFBALANCE DUP1 ISZERO PUSH2 0x12C0 JUMPI PUSH1 0x0 DUP1 SLOAD PUSH1 0x40 MLOAD PUSH1 0x1 PUSH1 0x1 PUSH1 0xA0 SHL SUB SWAP1 SWAP2 AND SWAP2 DUP4 ISZERO PUSH2 0x8FC MUL SWAP2 DUP5 SWAP2 DUP2 DUP2 DUP2 DUP6 DUP9 DUP9 CALL SWAP4 POP POP POP POP ISZERO DUP1 ISZERO PUSH2 0x12BE JUMPI RETURNDATASIZE PUSH1 0x0 DUP1 RETURNDATACOPY RETURNDATASIZE PUSH1 0x0 REVERT JUMPDEST POP JUMPDEST POP JUMP JUMPDEST PUSH1 0x0 SLOAD PUSH1 0x1 PUSH1 0x1 PUSH1 0xA0 SHL SUB AND CALLER EQ PUSH2 0x131D JUMPI PUSH1 0x40 MLOAD PUSH3 0x461BCD PUSH1 0xE5 SHL DUP2 MSTORE PUSH1 0x20 PUSH1 0x4 DUP3 ADD DUP2 SWAP1 MSTORE PUSH1 0x24 DUP3 ADD MSTORE PUSH32 0x4F776E61626C653A2063616C6C6572206973206E6F7420746865206F776E6572 PUSH1 0x44 DUP3 ADD MSTORE PUSH1 0x64 ADD PUSH2 0xB97 JUMP JUMPDEST PUSH1 0x0 DUP1 SLOAD PUSH1 0x40 MLOAD PUSH1 0x1 PUSH1 0x1 PUSH1 0xA0 SHL SUB SWAP1 SWAP2 AND SWAP1 PUSH32 0x8BE0079C531659141344CD1FD0A4F28419497F9722A3DAAFE3B4186F6B6457E0 SWAP1 DUP4 SWAP1 LOG3 PUSH1 0x0 DUP1 SLOAD PUSH32 0xFFFFFFFFFFFFFFFFFFFFFFFF0000000000000000000000000000000000000000 AND SWAP1 SSTORE JUMP JUMPDEST PUSH1 0x0 SLOAD PUSH1 0x1 PUSH1 0x1 PUSH1 0xA0 SHL SUB AND CALLER EQ PUSH2 0x13D9 JUMPI PUSH1 0x40 MLOAD PUSH3 0x461BCD PUSH1 0xE5 SHL DUP2 MSTORE PUSH1 0x20 PUSH1 0x4 DUP3 ADD DUP2 SWAP1 MSTORE PUSH1 0x24 DUP3 ADD MSTORE PUSH32 0x4F776E61626C653A2063616C6C6572206973206E6F7420746865206F776E6572 PUSH1 0x44 DUP3 ADD MSTORE PUSH1 0x64 ADD PUSH2 0xB97 JUMP JUMPDEST PUSH1 0x1A DUP1 SLOAD PUSH1 0xFF NOT AND DUP4 ISZERO ISZERO OR SWAP1 SSTORE PUSH2 0x13F2 DUP2 PUSH1 0x3C PUSH2 0x3951 JUMP JUMPDEST PUSH1 0x1A DUP1 SLOAD PUSH4 0xFFFFFFFF SWAP3 SWAP1 SWAP3 AND PUSH2 0x100 MUL PUSH32 0xFFFFFFFFFFFFFFFFFFFFFFFFFFFFFFFFFFFFFFFFFFFFFFFFFFFFFF00000000FF SWAP1 SWAP3 AND SWAP2 SWAP1 SWAP2 OR SWAP1 SSTORE POP POP JUMP JUMPDEST PUSH1 0x1D SLOAD PUSH1 0x0 SWAP1 PUSH2 0x1441 JUMPI POP PUSH1 0x0 SWAP1 JUMP JUMPDEST PUSH1 0x0 PUSH2 0x144B PUSH2 0x150E JUMP JUMPDEST PUSH1 0x1D SLOAD SWAP1 SWAP2 POP DUP2 GT PUSH2 0x1488 JUMPI PUSH1 0x1D SLOAD PUSH2 0x147A SWAP1 PUSH2 0x1474 PUSH2 0x3E8 PUSH2 0x146E DUP4 DUP7 PUSH2 0x2A3E JUMP JUMPDEST SWAP1 PUSH2 0x2A80 JUMP JUMPDEST SWAP1 PUSH2 0x29F5 JUMP JUMPDEST PUSH2 0x1483 SWAP1 PUSH2 0x39A8 JUMP JUMPDEST PUSH2 0x149F JUMP JUMPDEST PUSH1 0x1D SLOAD PUSH2 0x149F SWAP1 PUSH2 0x1474 PUSH2 0x3E8 PUSH2 0x146E DUP6 DUP5 PUSH2 0x2A3E JUMP JUMPDEST SWAP2 POP POP SWAP1 JUMP JUMPDEST PUSH1 0x0 SLOAD PUSH1 0x1 PUSH1 0x1 PUSH1 0xA0 SHL SUB AND CALLER EQ PUSH2 0x14FF JUMPI PUSH1 0x40 MLOAD PUSH3 0x461BCD PUSH1 0xE5 SHL DUP2 MSTORE PUSH1 0x20 PUSH1 0x4 DUP3 ADD DUP2 SWAP1 MSTORE PUSH1 0x24 DUP3 ADD MSTORE PUSH32 0x4F776E61626C653A2063616C6C6572206973206E6F7420746865206F776E6572 PUSH1 0x44 DUP3 ADD MSTORE PUSH1 0x64 ADD PUSH2 0xB97 JUMP JUMPDEST PUSH1 0x28 DUP1 SLOAD PUSH1 0xFF NOT AND PUSH1 0x1 OR SWAP1 SSTORE JUMP JUMPDEST PUSH1 0x0 DUP1 PUSH1 0x0 PUSH1 0x26 PUSH1 0x0 SWAP1 SLOAD SWAP1 PUSH2 0x100 EXP SWAP1 DIV PUSH1 0x1 PUSH1 0x1 PUSH1 0xA0 SHL SUB AND PUSH1 0x1 PUSH1 0x1 PUSH1 0xA0 SHL SUB AND PUSH4 0x902F1AC PUSH1 0x40 MLOAD DUP2 PUSH4 0xFFFFFFFF AND PUSH1 0xE0 SHL DUP2 MSTORE PUSH1 0x4 ADD PUSH1 0x60 PUSH1 0x40 MLOAD DUP1 DUP4 SUB DUP2 DUP7 DUP1 EXTCODESIZE ISZERO DUP1 ISZERO PUSH2 0x1561 JUMPI PUSH1 0x0 DUP1 REVERT JUMPDEST POP GAS STATICCALL ISZERO DUP1 ISZERO PUSH2 0x1575 JUMPI RETURNDATASIZE PUSH1 0x0 DUP1 RETURNDATACOPY RETURNDATASIZE PUSH1 0x0 REVERT JUMPDEST POP POP POP POP PUSH1 0x40 MLOAD RETURNDATASIZE PUSH1 0x1F NOT PUSH1 0x1F DUP3 ADD AND DUP3 ADD DUP1 PUSH1 0x40 MSTORE POP DUP2 ADD SWAP1 PUSH2 0x1599 SWAP2 SWAP1 PUSH2 0x3733 JUMP JUMPDEST POP SWAP2 POP SWAP2 POP DUP2 PUSH14 0xFFFFFFFFFFFFFFFFFFFFFFFFFFFF AND PUSH1 0x0 EQ DUP1 PUSH2 0x15CB JUMPI POP PUSH14 0xFFFFFFFFFFFFFFFFFFFFFFFFFFFF DUP2 AND ISZERO JUMPDEST ISZERO PUSH2 0x15D9 JUMPI PUSH1 0x0 SWAP3 POP POP POP SWAP1 JUMP JUMPDEST PUSH1 0x26 SLOAD PUSH1 0x40 DUP1 MLOAD PUSH32 0xDFE168100000000000000000000000000000000000000000000000000000000 DUP2 MSTORE SWAP1 MLOAD ADDRESS SWAP3 PUSH1 0x1 PUSH1 0x1 PUSH1 0xA0 SHL SUB AND SWAP2 PUSH4 0xDFE1681 SWAP2 PUSH1 0x4 DUP1 DUP4 ADD SWAP3 PUSH1 0x20 SWAP3 SWAP2 SWAP1 DUP3 SWAP1 SUB ADD DUP2 DUP7 DUP1 EXTCODESIZE ISZERO DUP1 ISZERO PUSH2 0x1636 JUMPI PUSH1 0x0 DUP1 REVERT JUMPDEST POP GAS STATICCALL ISZERO DUP1 ISZERO PUSH2 0x164A JUMPI RETURNDATASIZE PUSH1 0x0 DUP1 RETURNDATACOPY RETURNDATASIZE PUSH1 0x0 REVERT JUMPDEST POP POP POP POP PUSH1 0x40 MLOAD RETURNDATASIZE PUSH1 0x1F NOT PUSH1 0x1F DUP3 ADD AND DUP3 ADD DUP1 PUSH1 0x40 MSTORE POP DUP2 ADD SWAP1 PUSH2 0x166E SWAP2 SWAP1 PUSH2 0x362B JUMP JUMPDEST PUSH1 0x1 PUSH1 0x1 PUSH1 0xA0 SHL SUB AND EQ PUSH2 0x16AB JUMPI PUSH2 0x16A6 PUSH14 0xFFFFFFFFFFFFFFFFFFFFFFFFFFFF DUP1 DUP4 AND SWAP1 PUSH2 0x1474 SWAP1 DUP6 AND PUSH8 0xDE0B6B3A7640000 PUSH2 0x2A80 JUMP JUMPDEST PUSH2 0x16D5 JUMP JUMPDEST PUSH2 0x16D5 PUSH14 0xFFFFFFFFFFFFFFFFFFFFFFFFFFFF DUP1 DUP5 AND SWAP1 PUSH2 0x1474 SWAP1 DUP5 AND PUSH8 0xDE0B6B3A7640000 PUSH2 0x2A80 JUMP JUMPDEST SWAP3 POP POP POP SWAP1 JUMP JUMPDEST PUSH1 0x0 SLOAD PUSH1 0x1 PUSH1 0x1 PUSH1 0xA0 SHL SUB AND CALLER EQ PUSH2 0x1736 JUMPI PUSH1 0x40 MLOAD PUSH3 0x461BCD PUSH1 0xE5 SHL DUP2 MSTORE PUSH1 0x20 PUSH1 0x4 DUP3 ADD DUP2 SWAP1 MSTORE PUSH1 0x24 DUP3 ADD MSTORE PUSH32 0x4F776E61626C653A2063616C6C6572206973206E6F7420746865206F776E6572 PUSH1 0x44 DUP3 ADD MSTORE PUSH1 0x64 ADD PUSH2 0xB97 JUMP JUMPDEST PUSH1 0x28 DUP1 SLOAD PUSH32 0xFFFFFFFFFFFFFFFFFFFFFFFFFFFFFFFFFFFFFFFFFFFFFFFFFFFFFF00FFFFFFFF AND SWAP1 SSTORE JUMP JUMPDEST PUSH1 0x1 PUSH1 0x1 PUSH1 0xA0 SHL SUB DUP2 AND PUSH1 0x0 SWAP1 DUP2 MSTORE PUSH1 0x1B PUSH1 0x20 MSTORE PUSH1 0x40 DUP2 KECCAK256 SLOAD DUP2 SWAP1 DUP2 SWAP1 DUP2 SWAP1 DUP2 SWAP1 TIMESTAMP LT PUSH2 0x178E JUMPI PUSH1 0x0 PUSH2 0x17B1 JUMP JUMPDEST PUSH1 0x1 PUSH1 0x1 PUSH1 0xA0 SHL SUB DUP7 AND PUSH1 0x0 SWAP1 DUP2 MSTORE PUSH1 0x1B PUSH1 0x20 MSTORE PUSH1 0x40 SWAP1 KECCAK256 SLOAD PUSH2 0x17B1 SWAP1 TIMESTAMP PUSH2 0x2A3E JUMP JUMPDEST SWAP1 POP PUSH2 0x17C0 DUP2 PUSH3 0x15180 PUSH2 0x29F5 JUMP JUMPDEST SWAP5 POP PUSH2 0x17CF PUSH3 0x15180 DUP3 PUSH2 0x3994 JUMP JUMPDEST SWAP1 POP PUSH2 0x17DD DUP2 PUSH2 0xE10 PUSH2 0x29F5 JUMP JUMPDEST SWAP4 POP PUSH2 0x17EB PUSH2 0xE10 DUP3 PUSH2 0x3994 JUMP JUMPDEST SWAP1 POP PUSH2 0x17F8 DUP2 PUSH1 0x3C PUSH2 0x29F5 JUMP JUMPDEST SWAP3 POP PUSH2 0x1805 PUSH1 0x3C DUP3 PUSH2 0x3994 JUMP JUMPDEST SWAP2 POP POP SWAP2 SWAP4 POP SWAP2 SWAP4 JUMP JUMPDEST PUSH1 0x0 SLOAD PUSH1 0x1 PUSH1 0x1 PUSH1 0xA0 SHL SUB AND CALLER EQ PUSH2 0x1869 JUMPI PUSH1 0x40 MLOAD PUSH3 0x461BCD PUSH1 0xE5 SHL DUP2 MSTORE PUSH1 0x20 PUSH1 0x4 DUP3 ADD DUP2 SWAP1 MSTORE PUSH1 0x24 DUP3 ADD MSTORE PUSH32 0x4F776E61626C653A2063616C6C6572206973206E6F7420746865206F776E6572 PUSH1 0x44 DUP3 ADD MSTORE PUSH1 0x64 ADD PUSH2 0xB97 JUMP JUMPDEST PUSH1 0x19 SSTORE JUMP JUMPDEST PUSH1 0x0 PUSH2 0xB37 CALLER DUP5 DUP5 PUSH2 0x2286 JUMP JUMPDEST PUSH1 0x0 SLOAD PUSH1 0x1 PUSH1 0x1 PUSH1 0xA0 SHL SUB AND CALLER EQ PUSH2 0x18D5 JUMPI PUSH1 0x40 MLOAD PUSH3 0x461BCD PUSH1 0xE5 SHL DUP2 MSTORE PUSH1 0x20 PUSH1 0x4 DUP3 ADD DUP2 SWAP1 MSTORE PUSH1 0x24 DUP3 ADD MSTORE PUSH32 0x4F776E61626C653A2063616C6C6572206973206E6F7420746865206F776E6572 PUSH1 0x44 DUP3 ADD MSTORE PUSH1 0x64 ADD PUSH2 0xB97 JUMP JUMPDEST ADDRESS PUSH1 0x0 SWAP1 DUP2 MSTORE PUSH1 0x2 PUSH1 0x20 MSTORE PUSH1 0x40 SWAP1 KECCAK256 SLOAD DUP1 ISZERO PUSH2 0x12C0 JUMPI PUSH2 0x12C0 DUP2 PUSH2 0x2B1B JUMP JUMPDEST PUSH1 0x0 SLOAD PUSH1 0x1 PUSH1 0x1 PUSH1 0xA0 SHL SUB AND CALLER EQ PUSH2 0x194E JUMPI PUSH1 0x40 MLOAD PUSH3 0x461BCD PUSH1 0xE5 SHL DUP2 MSTORE PUSH1 0x20 PUSH1 0x4 DUP3 ADD DUP2 SWAP1 MSTORE PUSH1 0x24 DUP3 ADD MSTORE PUSH32 0x4F776E61626C653A2063616C6C6572206973206E6F7420746865206F776E6572 PUSH1 0x44 DUP3 ADD MSTORE PUSH1 0x64 ADD PUSH2 0xB97 JUMP JUMPDEST PUSH1 0x24 DUP1 SLOAD PUSH32 0xFFFFFFFFFFFFFFFFFFFFFFFF0000000000000000000000000000000000000000 AND PUSH1 0x1 PUSH1 0x1 PUSH1 0xA0 SHL SUB SWAP3 SWAP1 SWAP3 AND SWAP2 SWAP1 SWAP2 OR SWAP1 SSTORE JUMP JUMPDEST PUSH1 0x0 SLOAD PUSH1 0x1 PUSH1 0x1 PUSH1 0xA0 SHL SUB AND CALLER EQ PUSH2 0x19E2 JUMPI PUSH1 0x40 MLOAD PUSH3 0x461BCD PUSH1 0xE5 SHL DUP2 MSTORE PUSH1 0x20 PUSH1 0x4 DUP3 ADD DUP2 SWAP1 MSTORE PUSH1 0x24 DUP3 ADD MSTORE PUSH32 0x4F776E61626C653A2063616C6C6572206973206E6F7420746865206F776E6572 PUSH1 0x44 DUP3 ADD MSTORE PUSH1 0x64 ADD PUSH2 0xB97 JUMP JUMPDEST TIMESTAMP PUSH1 0x5 SSTORE PUSH1 0x6 SSTORE PUSH1 0x28 DUP1 SLOAD PUSH1 0xFF NOT AND PUSH1 0x1 OR SWAP1 SSTORE JUMP JUMPDEST PUSH1 0x0 SLOAD PUSH1 0x1 PUSH1 0x1 PUSH1 0xA0 SHL SUB AND CALLER EQ PUSH2 0x1A52 JUMPI PUSH1 0x40 MLOAD PUSH3 0x461BCD PUSH1 0xE5 SHL DUP2 MSTORE PUSH1 0x20 PUSH1 0x4 DUP3 ADD DUP2 SWAP1 MSTORE PUSH1 0x24 DUP3 ADD MSTORE PUSH32 0x4F776E61626C653A2063616C6C6572206973206E6F7420746865206F776E6572 PUSH1 0x44 DUP3 ADD MSTORE PUSH1 0x64 ADD PUSH2 0xB97 JUMP JUMPDEST PUSH1 0x28 DUP1 SLOAD PUSH32 0xFFFFFFFFFFFFFFFFFFFFFFFFFFFFFFFFFFFFFFFFFFFFFFFFFFFFFFFF00FFFFFF AND SWAP1 SSTORE JUMP JUMPDEST PUSH1 0x0 SLOAD PUSH1 0x1 PUSH1 0x1 PUSH1 0xA0 SHL SUB AND CALLER EQ PUSH2 0x1AD6 JUMPI PUSH1 0x40 MLOAD PUSH3 0x461BCD PUSH1 0xE5 SHL DUP2 MSTORE PUSH1 0x20 PUSH1 0x4 DUP3 ADD DUP2 SWAP1 MSTORE PUSH1 0x24 DUP3 ADD MSTORE PUSH32 0x4F776E61626C653A2063616C6C6572206973206E6F7420746865206F776E6572 PUSH1 0x44 DUP3 ADD MSTORE PUSH1 0x64 ADD PUSH2 0xB97 JUMP JUMPDEST PUSH1 0x23 DUP1 SLOAD PUSH32 0xFFFFFFFFFFFFFFFFFFFFFFFF0000000000000000000000000000000000000000 AND PUSH1 0x1 PUSH1 0x1 PUSH1 0xA0 SHL SUB SWAP3 SWAP1 SWAP3 AND SWAP2 SWAP1 SWAP2 OR SWAP1 SSTORE JUMP JUMPDEST PUSH1 0x0 SLOAD PUSH1 0x1 PUSH1 0x1 PUSH1 0xA0 SHL SUB AND CALLER EQ PUSH2 0x1B6A JUMPI PUSH1 0x40 MLOAD PUSH3 0x461BCD PUSH1 0xE5 SHL DUP2 MSTORE PUSH1 0x20 PUSH1 0x4 DUP3 ADD DUP2 SWAP1 MSTORE PUSH1 0x24 DUP3 ADD MSTORE PUSH32 0x4F776E61626C653A2063616C6C6572206973206E6F7420746865206F776E6572 PUSH1 0x44 DUP3 ADD MSTORE PUSH1 0x64 ADD PUSH2 0xB97 JUMP JUMPDEST PUSH1 0x8 SSTORE JUMP JUMPDEST PUSH1 0x0 SLOAD PUSH1 0x1 PUSH1 0x1 PUSH1 0xA0 SHL SUB AND CALLER EQ PUSH2 0x1BC9 JUMPI PUSH1 0x40 MLOAD PUSH3 0x461BCD PUSH1 0xE5 SHL DUP2 MSTORE PUSH1 0x20 PUSH1 0x4 DUP3 ADD DUP2 SWAP1 MSTORE PUSH1 0x24 DUP3 ADD MSTORE PUSH32 0x4F776E61626C653A2063616C6C6572206973206E6F7420746865206F776E6572 PUSH1 0x44 DUP3 ADD MSTORE PUSH1 0x64 ADD PUSH2 0xB97 JUMP JUMPDEST PUSH1 0x0 PUSH2 0x1BE1 DUP3 PUSH2 0x1BDB DUP6 DUP2 DUP10 DUP10 PUSH2 0x2D58 JUMP JUMPDEST SWAP1 PUSH2 0x2D58 JUMP JUMPDEST SWAP1 POP PUSH1 0xFA DUP2 GT ISZERO PUSH2 0x1C5A JUMPI PUSH1 0x40 MLOAD PUSH3 0x461BCD PUSH1 0xE5 SHL DUP2 MSTORE PUSH1 0x20 PUSH1 0x4 DUP3 ADD MSTORE PUSH1 0x31 PUSH1 0x24 DUP3 ADD MSTORE PUSH32 0x53756D206F66206275792066656573206D757374206265206C65737320746861 PUSH1 0x44 DUP3 ADD MSTORE PUSH32 0x6E206F7220657175616C20746F20323525000000000000000000000000000000 PUSH1 0x64 DUP3 ADD MSTORE PUSH1 0x84 ADD PUSH2 0xB97 JUMP JUMPDEST PUSH1 0x28 SLOAD PUSH5 0x100000000 SWAP1 DIV PUSH1 0xFF AND PUSH2 0x1CB4 JUMPI PUSH1 0x40 MLOAD PUSH3 0x461BCD PUSH1 0xE5 SHL DUP2 MSTORE PUSH1 0x20 PUSH1 0x4 DUP3 ADD MSTORE PUSH1 0x18 PUSH1 0x24 DUP3 ADD MSTORE PUSH32 0x546869732066756E6374696F6E20697320646961626C65640000000000000000 PUSH1 0x44 DUP3 ADD MSTORE PUSH1 0x64 ADD PUSH2 0xB97 JUMP JUMPDEST PUSH1 0xD DUP6 SWAP1 SSTORE PUSH1 0x9 DUP5 SWAP1 SSTORE PUSH1 0xF DUP4 SWAP1 SSTORE PUSH1 0xB DUP3 SWAP1 SSTORE PUSH1 0xE DUP6 SWAP1 SSTORE PUSH1 0xA DUP5 SWAP1 SSTORE PUSH1 0x10 DUP4 SWAP1 SSTORE PUSH1 0xC DUP3 SWAP1 SSTORE PUSH1 0x40 DUP1 MLOAD DUP7 DUP2 MSTORE PUSH1 0x20 DUP2 ADD DUP7 SWAP1 MSTORE SWAP1 DUP2 ADD DUP5 SWAP1 MSTORE PUSH1 0x60 DUP2 ADD DUP4 SWAP1 MSTORE PUSH32 0x892B2CAA2D791BF7B8D9A49C4DB7A4513FF1AE2E0E068ED217F9D5AB4C1A28F0 SWAP1 PUSH1 0x80 ADD JUMPDEST PUSH1 0x40 MLOAD DUP1 SWAP2 SUB SWAP1 LOG1 POP POP POP POP POP JUMP JUMPDEST PUSH1 0x0 SLOAD PUSH1 0x1 PUSH1 0x1 PUSH1 0xA0 SHL SUB AND CALLER EQ PUSH2 0x1D86 JUMPI PUSH1 0x40 MLOAD PUSH3 0x461BCD PUSH1 0xE5 SHL DUP2 MSTORE PUSH1 0x20 PUSH1 0x4 DUP3 ADD DUP2 SWAP1 MSTORE PUSH1 0x24 DUP3 ADD MSTORE PUSH32 0x4F776E61626C653A2063616C6C6572206973206E6F7420746865206F776E6572 PUSH1 0x44 DUP3 ADD MSTORE PUSH1 0x64 ADD PUSH2 0xB97 JUMP JUMPDEST PUSH1 0x1 PUSH1 0x1 PUSH1 0xA0 SHL SUB AND PUSH1 0x0 SWAP1 DUP2 MSTORE PUSH1 0x4 PUSH1 0x20 MSTORE PUSH1 0x40 SWAP1 KECCAK256 DUP1 SLOAD PUSH1 0xFF NOT AND SWAP1 SSTORE JUMP JUMPDEST PUSH1 0x0 SLOAD PUSH1 0x1 PUSH1 0x1 PUSH1 0xA0 SHL SUB AND CALLER EQ PUSH2 0x1E01 JUMPI PUSH1 0x40 MLOAD PUSH3 0x461BCD PUSH1 0xE5 SHL DUP2 MSTORE PUSH1 0x20 PUSH1 0x4 DUP3 ADD DUP2 SWAP1 MSTORE PUSH1 0x24 DUP3 ADD MSTORE PUSH32 0x4F776E61626C653A2063616C6C6572206973206E6F7420746865206F776E6572 PUSH1 0x44 DUP3 ADD MSTORE PUSH1 0x64 ADD PUSH2 0xB97 JUMP JUMPDEST PUSH1 0x1 PUSH1 0x1 PUSH1 0xA0 SHL SUB DUP2 AND PUSH2 0x1E7D JUMPI PUSH1 0x40 MLOAD PUSH3 0x461BCD PUSH1 0xE5 SHL DUP2 MSTORE PUSH1 0x20 PUSH1 0x4 DUP3 ADD MSTORE PUSH1 0x26 PUSH1 0x24 DUP3 ADD MSTORE PUSH32 0x4F776E61626C653A206E6577206F776E657220697320746865207A65726F2061 PUSH1 0x44 DUP3 ADD MSTORE PUSH32 0x6464726573730000000000000000000000000000000000000000000000000000 PUSH1 0x64 DUP3 ADD MSTORE PUSH1 0x84 ADD PUSH2 0xB97 JUMP JUMPDEST PUSH2 0x12C0 DUP2 PUSH2 0x2DB7 JUMP JUMPDEST PUSH1 0x0 SLOAD PUSH1 0x1 PUSH1 0x1 PUSH1 0xA0 SHL SUB AND CALLER EQ PUSH2 0x1EE0 JUMPI PUSH1 0x40 MLOAD PUSH3 0x461BCD PUSH1 0xE5 SHL DUP2 MSTORE PUSH1 0x20 PUSH1 0x4 DUP3 ADD DUP2 SWAP1 MSTORE PUSH1 0x24 DUP3 ADD MSTORE PUSH32 0x4F776E61626C653A2063616C6C6572206973206E6F7420746865206F776E6572 PUSH1 0x44 DUP3 ADD MSTORE PUSH1 0x64 ADD PUSH2 0xB97 JUMP JUMPDEST PUSH1 0x0 PUSH2 0x1EF2 DUP3 PUSH2 0x1BDB DUP6 DUP2 DUP10 DUP10 PUSH2 0x2D58 JUMP JUMPDEST SWAP1 POP PUSH1 0xFA DUP2 GT ISZERO PUSH2 0x1F6B JUMPI PUSH1 0x40 MLOAD PUSH3 0x461BCD PUSH1 0xE5 SHL DUP2 MSTORE PUSH1 0x20 PUSH1 0x4 DUP3 ADD MSTORE PUSH1 0x32 PUSH1 0x24 DUP3 ADD MSTORE PUSH32 0x53756D206F662073656C6C2066656573206D757374206265206C657373207468 PUSH1 0x44 DUP3 ADD MSTORE PUSH32 0x616E206F7220657175616C20746F203235250000000000000000000000000000 PUSH1 0x64 DUP3 ADD MSTORE PUSH1 0x84 ADD PUSH2 0xB97 JUMP JUMPDEST PUSH1 0x28 SLOAD PUSH5 0x100000000 SWAP1 DIV PUSH1 0xFF AND PUSH2 0x1FC5 JUMPI PUSH1 0x40 MLOAD PUSH3 0x461BCD PUSH1 0xE5 SHL DUP2 MSTORE PUSH1 0x20 PUSH1 0x4 DUP3 ADD MSTORE PUSH1 0x18 PUSH1 0x24 DUP3 ADD MSTORE PUSH32 0x546869732066756E6374696F6E20697320646961626C65640000000000000000 PUSH1 0x44 DUP3 ADD MSTORE PUSH1 0x64 ADD PUSH2 0xB97 JUMP JUMPDEST PUSH1 0x15 DUP6 SWAP1 SSTORE PUSH1 0x11 DUP5 SWAP1 SSTORE PUSH1 0x17 DUP4 SWAP1 SSTORE PUSH1 0x13 DUP3 SWAP1 SSTORE PUSH1 0x16 DUP6 SWAP1 SSTORE PUSH1 0x12 DUP5 SWAP1 SSTORE PUSH1 0x18 DUP4 SWAP1 SSTORE PUSH1 0x14 DUP3 SWAP1 SSTORE PUSH1 0x40 DUP1 MLOAD DUP7 DUP2 MSTORE PUSH1 0x20 DUP2 ADD DUP7 SWAP1 MSTORE SWAP1 DUP2 ADD DUP5 SWAP1 MSTORE PUSH1 0x60 DUP2 ADD DUP4 SWAP1 MSTORE PUSH32 0x439932620C72DDDEA29980C098BCA1A482729646D1216B226D723C6D278A30D1 SWAP1 PUSH1 0x80 ADD PUSH2 0x1D1D JUMP JUMPDEST PUSH1 0x0 SLOAD PUSH1 0x1 PUSH1 0x1 PUSH1 0xA0 SHL SUB AND CALLER EQ PUSH2 0x208C JUMPI PUSH1 0x40 MLOAD PUSH3 0x461BCD PUSH1 0xE5 SHL DUP2 MSTORE PUSH1 0x20 PUSH1 0x4 DUP3 ADD DUP2 SWAP1 MSTORE PUSH1 0x24 DUP3 ADD MSTORE PUSH32 0x4F776E61626C653A2063616C6C6572206973206E6F7420746865206F776E6572 PUSH1 0x44 DUP3 ADD MSTORE PUSH1 0x64 ADD PUSH2 0xB97 JUMP JUMPDEST PUSH1 0x28 SLOAD PUSH4 0x1000000 SWAP1 DIV PUSH1 0xFF AND PUSH2 0x210B JUMPI PUSH1 0x40 MLOAD PUSH3 0x461BCD PUSH1 0xE5 SHL DUP2 MSTORE PUSH1 0x20 PUSH1 0x4 DUP3 ADD MSTORE PUSH1 0x28 PUSH1 0x24 DUP3 ADD MSTORE PUSH32 0x7468697320636F6E74726163742063616E6E6F7420626C61636B6C6973742061 PUSH1 0x44 DUP3 ADD MSTORE PUSH32 0x6464726573736573000000000000000000000000000000000000000000000000 PUSH1 0x64 DUP3 ADD MSTORE PUSH1 0x84 ADD PUSH2 0xB97 JUMP JUMPDEST PUSH1 0x1 PUSH1 0x1 PUSH1 0xA0 SHL SUB AND PUSH1 0x0 SWAP1 DUP2 MSTORE PUSH1 0x20 DUP1 MSTORE PUSH1 0x40 SWAP1 KECCAK256 DUP1 SLOAD PUSH1 0xFF NOT AND PUSH1 0x1 OR SWAP1 SSTORE JUMP JUMPDEST PUSH1 0x1 PUSH1 0x1 PUSH1 0xA0 SHL SUB DUP4 AND PUSH2 0x21A9 JUMPI PUSH1 0x40 MLOAD PUSH3 0x461BCD PUSH1 0xE5 SHL DUP2 MSTORE PUSH1 0x20 PUSH1 0x4 DUP3 ADD MSTORE PUSH1 0x24 DUP1 DUP3 ADD MSTORE PUSH32 0x45524332303A20617070726F76652066726F6D20746865207A65726F20616464 PUSH1 0x44 DUP3 ADD MSTORE PUSH32 0x7265737300000000000000000000000000000000000000000000000000000000 PUSH1 0x64 DUP3 ADD MSTORE PUSH1 0x84 ADD PUSH2 0xB97 JUMP JUMPDEST PUSH1 0x1 PUSH1 0x1 PUSH1 0xA0 SHL SUB DUP3 AND PUSH2 0x2225 JUMPI PUSH1 0x40 MLOAD PUSH3 0x461BCD PUSH1 0xE5 SHL DUP2 MSTORE PUSH1 0x20 PUSH1 0x4 DUP3 ADD MSTORE PUSH1 0x22 PUSH1 0x24 DUP3 ADD MSTORE PUSH32 0x45524332303A20617070726F766520746F20746865207A65726F206164647265 PUSH1 0x44 DUP3 ADD MSTORE PUSH32 0x7373000000000000000000000000000000000000000000000000000000000000 PUSH1 0x64 DUP3 ADD MSTORE PUSH1 0x84 ADD PUSH2 0xB97 JUMP JUMPDEST PUSH1 0x1 PUSH1 0x1 PUSH1 0xA0 SHL SUB DUP4 DUP2 AND PUSH1 0x0 DUP2 DUP2 MSTORE PUSH1 0x3 PUSH1 0x20 SWAP1 DUP2 MSTORE PUSH1 0x40 DUP1 DUP4 KECCAK256 SWAP5 DUP8 AND DUP1 DUP5 MSTORE SWAP5 DUP3 MSTORE SWAP2 DUP3 SWAP1 KECCAK256 DUP6 SWAP1 SSTORE SWAP1 MLOAD DUP5 DUP2 MSTORE PUSH32 0x8C5BE1E5EBEC7D5BD14F71427D1E84F3DD0314C0F7B2291E5B200AC8C7C3B925 SWAP2 ADD PUSH1 0x40 MLOAD DUP1 SWAP2 SUB SWAP1 LOG3 POP POP POP JUMP JUMPDEST PUSH1 0x1 PUSH1 0x1 PUSH1 0xA0 SHL SUB DUP4 AND PUSH2 0x2302 JUMPI PUSH1 0x40 MLOAD PUSH3 0x461BCD PUSH1 0xE5 SHL DUP2 MSTORE PUSH1 0x20 PUSH1 0x4 DUP3 ADD MSTORE PUSH1 0x25 PUSH1 0x24 DUP3 ADD MSTORE PUSH32 0x45524332303A207472616E736665722066726F6D20746865207A65726F206164 PUSH1 0x44 DUP3 ADD MSTORE PUSH32 0x6472657373000000000000000000000000000000000000000000000000000000 PUSH1 0x64 DUP3 ADD MSTORE PUSH1 0x84 ADD PUSH2 0xB97 JUMP JUMPDEST PUSH1 0x1 PUSH1 0x1 PUSH1 0xA0 SHL SUB DUP3 AND PUSH2 0x237E JUMPI PUSH1 0x40 MLOAD PUSH3 0x461BCD PUSH1 0xE5 SHL DUP2 MSTORE PUSH1 0x20 PUSH1 0x4 DUP3 ADD MSTORE PUSH1 0x23 PUSH1 0x24 DUP3 ADD MSTORE PUSH32 0x45524332303A207472616E7366657220746F20746865207A65726F2061646472 PUSH1 0x44 DUP3 ADD MSTORE PUSH32 0x6573730000000000000000000000000000000000000000000000000000000000 PUSH1 0x64 DUP3 ADD MSTORE PUSH1 0x84 ADD PUSH2 0xB97 JUMP JUMPDEST PUSH1 0x0 DUP2 GT PUSH2 0x23F4 JUMPI PUSH1 0x40 MLOAD PUSH3 0x461BCD PUSH1 0xE5 SHL DUP2 MSTORE PUSH1 0x20 PUSH1 0x4 DUP3 ADD MSTORE PUSH1 0x29 PUSH1 0x24 DUP3 ADD MSTORE PUSH32 0x5472616E7366657220616D6F756E74206D757374206265206772656174657220 PUSH1 0x44 DUP3 ADD MSTORE PUSH32 0x7468616E207A65726F0000000000000000000000000000000000000000000000 PUSH1 0x64 DUP3 ADD MSTORE PUSH1 0x84 ADD PUSH2 0xB97 JUMP JUMPDEST PUSH1 0x1 PUSH2 0x2408 PUSH1 0x0 SLOAD PUSH1 0x1 PUSH1 0x1 PUSH1 0xA0 SHL SUB AND SWAP1 JUMP JUMPDEST PUSH1 0x1 PUSH1 0x1 PUSH1 0xA0 SHL SUB AND DUP5 PUSH1 0x1 PUSH1 0x1 PUSH1 0xA0 SHL SUB AND EQ ISZERO DUP1 ISZERO PUSH2 0x2437 JUMPI POP PUSH1 0x0 SLOAD PUSH1 0x1 PUSH1 0x1 PUSH1 0xA0 SHL SUB DUP5 DUP2 AND SWAP2 AND EQ ISZERO JUMPDEST DUP1 ISZERO PUSH2 0x244C JUMPI POP PUSH1 0x1 PUSH1 0x1 PUSH1 0xA0 SHL SUB DUP5 AND ADDRESS EQ ISZERO JUMPDEST DUP1 ISZERO PUSH2 0x2461 JUMPI POP PUSH1 0x1 PUSH1 0x1 PUSH1 0xA0 SHL SUB DUP4 AND ADDRESS EQ ISZERO JUMPDEST ISZERO PUSH2 0x2961 JUMPI PUSH1 0x28 SLOAD PUSH1 0xFF AND PUSH2 0x24B8 JUMPI PUSH1 0x40 MLOAD PUSH3 0x461BCD PUSH1 0xE5 SHL DUP2 MSTORE PUSH1 0x20 PUSH1 0x4 DUP3 ADD MSTORE PUSH1 0x15 PUSH1 0x24 DUP3 ADD MSTORE PUSH32 0x54726164696E67206973206E6F74206163746976650000000000000000000000 PUSH1 0x44 DUP3 ADD MSTORE PUSH1 0x64 ADD PUSH2 0xB97 JUMP JUMPDEST PUSH1 0x26 SLOAD PUSH1 0x1 PUSH1 0x1 PUSH1 0xA0 SHL SUB DUP6 DUP2 AND SWAP2 AND EQ DUP1 ISZERO PUSH2 0x24E3 JUMPI POP PUSH1 0x25 SLOAD PUSH1 0x1 PUSH1 0x1 PUSH1 0xA0 SHL SUB DUP5 DUP2 AND SWAP2 AND EQ ISZERO JUMPDEST ISZERO PUSH2 0x2600 JUMPI PUSH1 0x6 SLOAD PUSH1 0x5 SLOAD PUSH2 0x24F7 SWAP2 PUSH2 0x2D58 JUMP JUMPDEST TIMESTAMP GT PUSH2 0x2520 JUMPI PUSH1 0x1 PUSH1 0x1 PUSH1 0xA0 SHL SUB DUP4 AND PUSH1 0x0 SWAP1 DUP2 MSTORE PUSH1 0x20 DUP1 MSTORE PUSH1 0x40 SWAP1 KECCAK256 DUP1 SLOAD PUSH1 0xFF NOT AND PUSH1 0x1 OR SWAP1 SSTORE JUMPDEST PUSH1 0x1 PUSH1 0x1 PUSH1 0xA0 SHL SUB DUP4 AND PUSH1 0x0 SWAP1 DUP2 MSTORE PUSH1 0x4 PUSH1 0x20 MSTORE PUSH1 0x40 SWAP1 KECCAK256 SLOAD PUSH1 0xFF AND PUSH2 0x2600 JUMPI PUSH1 0x7 SLOAD PUSH2 0x2566 DUP4 PUSH2 0x1BDB DUP7 PUSH1 0x1 PUSH1 0x1 PUSH1 0xA0 SHL SUB AND PUSH1 0x0 SWAP1 DUP2 MSTORE PUSH1 0x2 PUSH1 0x20 MSTORE PUSH1 0x40 SWAP1 KECCAK256 SLOAD SWAP1 JUMP JUMPDEST GT ISZERO PUSH2 0x2600 JUMPI PUSH1 0x40 MLOAD PUSH3 0x461BCD PUSH1 0xE5 SHL DUP2 MSTORE PUSH1 0x20 PUSH1 0x4 DUP3 ADD MSTORE PUSH1 0x42 PUSH1 0x24 DUP3 ADD MSTORE PUSH32 0x2E77616C6C65742062616C616E6365206166746572207472616E73666572206D PUSH1 0x44 DUP3 ADD MSTORE PUSH32 0x757374206265206C657373207468616E206D61782077616C6C657420616D6F75 PUSH1 0x64 DUP3 ADD MSTORE PUSH32 0x6E74000000000000000000000000000000000000000000000000000000000000 PUSH1 0x84 DUP3 ADD MSTORE PUSH1 0xA4 ADD PUSH2 0xB97 JUMP JUMPDEST PUSH1 0x28 SLOAD PUSH2 0x100 SWAP1 DIV PUSH1 0xFF AND ISZERO DUP1 ISZERO PUSH2 0x2626 JUMPI POP PUSH1 0x26 SLOAD PUSH1 0x1 PUSH1 0x1 PUSH1 0xA0 SHL SUB DUP6 DUP2 AND SWAP2 AND EQ ISZERO JUMPDEST DUP1 ISZERO PUSH2 0x263F JUMPI POP PUSH1 0x26 SLOAD PUSH1 0x1 PUSH1 0x1 PUSH1 0xA0 SHL SUB DUP5 DUP2 AND SWAP2 AND EQ JUMPDEST ISZERO PUSH2 0x2850 JUMPI PUSH1 0x1 PUSH1 0x1 PUSH1 0xA0 SHL SUB DUP5 AND PUSH1 0x0 SWAP1 DUP2 MSTORE PUSH1 0x20 DUP1 MSTORE PUSH1 0x40 SWAP1 KECCAK256 SLOAD PUSH1 0xFF AND ISZERO DUP1 ISZERO PUSH2 0x2684 JUMPI POP PUSH1 0x1 PUSH1 0x1 PUSH1 0xA0 SHL SUB DUP4 AND PUSH1 0x0 SWAP1 DUP2 MSTORE PUSH1 0x20 DUP1 MSTORE PUSH1 0x40 SWAP1 KECCAK256 SLOAD PUSH1 0xFF AND ISZERO JUMPDEST PUSH2 0x268D JUMPI PUSH1 0x0 DUP1 REVERT JUMPDEST PUSH1 0x1A SLOAD PUSH1 0xFF AND ISZERO PUSH2 0x2732 JUMPI PUSH1 0x1 PUSH1 0x1 PUSH1 0xA0 SHL SUB DUP5 AND PUSH1 0x0 SWAP1 DUP2 MSTORE PUSH1 0x1B PUSH1 0x20 MSTORE PUSH1 0x40 SWAP1 KECCAK256 SLOAD TIMESTAMP LT ISZERO PUSH2 0x2700 JUMPI PUSH1 0x40 MLOAD PUSH3 0x461BCD PUSH1 0xE5 SHL DUP2 MSTORE PUSH1 0x20 PUSH1 0x4 DUP3 ADD MSTORE PUSH1 0x1C PUSH1 0x24 DUP3 ADD MSTORE PUSH32 0x5374726F6E672048616E64732050726F746F636F6C2061637469766500000000 PUSH1 0x44 DUP3 ADD MSTORE PUSH1 0x64 ADD PUSH2 0xB97 JUMP JUMPDEST PUSH1 0x1A SLOAD PUSH2 0x2718 SWAP1 PUSH2 0x100 SWAP1 DIV PUSH4 0xFFFFFFFF AND TIMESTAMP PUSH2 0x38E8 JUMP JUMPDEST PUSH1 0x1 PUSH1 0x1 PUSH1 0xA0 SHL SUB DUP6 AND PUSH1 0x0 SWAP1 DUP2 MSTORE PUSH1 0x1B PUSH1 0x20 MSTORE PUSH1 0x40 SWAP1 KECCAK256 SSTORE JUMPDEST PUSH1 0x1C SLOAD PUSH1 0xFF AND ISZERO PUSH2 0x2798 JUMPI PUSH1 0x1E SLOAD PUSH1 0xFF AND ISZERO PUSH2 0x2790 JUMPI PUSH1 0x40 MLOAD PUSH3 0x461BCD PUSH1 0xE5 SHL DUP2 MSTORE PUSH1 0x20 PUSH1 0x4 DUP3 ADD MSTORE PUSH1 0x1E PUSH1 0x24 DUP3 ADD MSTORE PUSH32 0x53656C6C732073746F70706564206279204469616D6F6E6420466C6F6F720000 PUSH1 0x44 DUP3 ADD MSTORE PUSH1 0x64 ADD PUSH2 0xB97 JUMP JUMPDEST PUSH2 0x2798 PUSH2 0x2E1F JUMP JUMPDEST ADDRESS PUSH1 0x0 SWAP1 DUP2 MSTORE PUSH1 0x2 PUSH1 0x20 MSTORE PUSH1 0x40 SWAP1 KECCAK256 SLOAD PUSH1 0x8 SLOAD DUP2 LT PUSH2 0x284E JUMPI DUP1 ISZERO PUSH2 0x283C JUMPI PUSH1 0x0 PUSH2 0x27DC PUSH1 0x11 SLOAD PUSH2 0x1BDB PUSH1 0x13 SLOAD PUSH2 0x1BDB PUSH1 0x17 SLOAD PUSH1 0x15 SLOAD PUSH2 0x2D58 SWAP1 SWAP2 SWAP1 PUSH4 0xFFFFFFFF AND JUMP JUMPDEST GT ISZERO PUSH2 0x283C JUMPI PUSH1 0x0 PUSH2 0x2817 PUSH2 0x280A PUSH1 0x11 SLOAD PUSH2 0x1BDB PUSH1 0x13 SLOAD PUSH2 0x1BDB PUSH1 0x17 SLOAD PUSH1 0x15 SLOAD PUSH2 0x2D58 SWAP1 SWAP2 SWAP1 PUSH4 0xFFFFFFFF AND JUMP JUMPDEST PUSH1 0x11 SLOAD PUSH2 0x1474 SWAP1 DUP6 PUSH2 0x2A80 JUMP JUMPDEST SWAP1 POP PUSH1 0x0 DUP2 DUP4 LT PUSH2 0x282F JUMPI PUSH2 0x282C DUP4 DUP4 PUSH2 0x2A3E JUMP JUMPDEST SWAP1 POP JUMPDEST PUSH2 0x2839 DUP3 DUP3 PUSH2 0x2ECE JUMP JUMPDEST POP POP JUMPDEST SELFBALANCE DUP1 ISZERO PUSH2 0x284C JUMPI PUSH2 0x284C SELFBALANCE PUSH2 0x2F5E JUMP JUMPDEST POP JUMPDEST POP JUMPDEST PUSH1 0x26 SLOAD PUSH1 0x1 PUSH1 0x1 PUSH1 0xA0 SHL SUB DUP6 DUP2 AND SWAP2 AND EQ DUP1 ISZERO SWAP1 PUSH2 0x287C JUMPI POP PUSH1 0x26 SLOAD PUSH1 0x1 PUSH1 0x1 PUSH1 0xA0 SHL SUB DUP5 DUP2 AND SWAP2 AND EQ ISZERO JUMPDEST ISZERO PUSH2 0x2961 JUMPI PUSH1 0x1 PUSH1 0x1 PUSH1 0xA0 SHL SUB DUP4 AND PUSH1 0x0 SWAP1 DUP2 MSTORE PUSH1 0x4 PUSH1 0x20 MSTORE PUSH1 0x40 SWAP1 KECCAK256 SLOAD PUSH1 0xFF AND PUSH2 0x2961 JUMPI PUSH1 0x7 SLOAD PUSH2 0x28C7 DUP4 PUSH2 0x1BDB DUP7 PUSH1 0x1 PUSH1 0x1 PUSH1 0xA0 SHL SUB AND PUSH1 0x0 SWAP1 DUP2 MSTORE PUSH1 0x2 PUSH1 0x20 MSTORE PUSH1 0x40 SWAP1 KECCAK256 SLOAD SWAP1 JUMP JUMPDEST GT ISZERO PUSH2 0x2961 JUMPI PUSH1 0x40 MLOAD PUSH3 0x461BCD PUSH1 0xE5 SHL DUP2 MSTORE PUSH1 0x20 PUSH1 0x4 DUP3 ADD MSTORE PUSH1 0x42 PUSH1 0x24 DUP3 ADD MSTORE PUSH32 0x2E77616C6C65742062616C616E6365206166746572207472616E73666572206D PUSH1 0x44 DUP3 ADD MSTORE PUSH32 0x757374206265206C657373207468616E206D61782077616C6C657420616D6F75 PUSH1 0x64 DUP3 ADD MSTORE PUSH32 0x6E74000000000000000000000000000000000000000000000000000000000000 PUSH1 0x84 DUP3 ADD MSTORE PUSH1 0xA4 ADD PUSH2 0xB97 JUMP JUMPDEST PUSH1 0x1 PUSH1 0x1 PUSH1 0xA0 SHL SUB DUP5 AND PUSH1 0x0 SWAP1 DUP2 MSTORE PUSH1 0x4 PUSH1 0x20 MSTORE PUSH1 0x40 SWAP1 KECCAK256 SLOAD PUSH1 0xFF AND DUP1 PUSH2 0x29A0 JUMPI POP PUSH1 0x1 PUSH1 0x1 PUSH1 0xA0 SHL SUB DUP4 AND PUSH1 0x0 SWAP1 DUP2 MSTORE PUSH1 0x4 PUSH1 0x20 MSTORE PUSH1 0x40 SWAP1 KECCAK256 SLOAD PUSH1 0xFF AND JUMPDEST ISZERO PUSH2 0x29A9 JUMPI POP PUSH1 0x0 JUMPDEST PUSH2 0x29B5 DUP5 DUP5 DUP5 DUP5 PUSH2 0x309E JUMP JUMPDEST POP POP POP POP JUMP JUMPDEST PUSH1 0x0 DUP2 DUP5 DUP5 GT ISZERO PUSH2 0x29DF JUMPI PUSH1 0x40 MLOAD PUSH3 0x461BCD PUSH1 0xE5 SHL DUP2 MSTORE PUSH1 0x4 ADD PUSH2 0xB97 SWAP2 SWAP1 PUSH2 0x3807 JUMP JUMPDEST POP PUSH1 0x0 PUSH2 0x29EC DUP5 DUP7 PUSH2 0x397D JUMP JUMPDEST SWAP6 SWAP5 POP POP POP POP POP JUMP JUMPDEST PUSH1 0x0 PUSH2 0x2A37 DUP4 DUP4 PUSH1 0x40 MLOAD DUP1 PUSH1 0x40 ADD PUSH1 0x40 MSTORE DUP1 PUSH1 0x1A DUP2 MSTORE PUSH1 0x20 ADD PUSH32 0x536166654D6174683A206469766973696F6E206279207A65726F000000000000 DUP2 MSTORE POP PUSH2 0x313C JUMP JUMPDEST SWAP4 SWAP3 POP POP POP JUMP JUMPDEST PUSH1 0x0 PUSH2 0x2A37 DUP4 DUP4 PUSH1 0x40 MLOAD DUP1 PUSH1 0x40 ADD PUSH1 0x40 MSTORE DUP1 PUSH1 0x1E DUP2 MSTORE PUSH1 0x20 ADD PUSH32 0x536166654D6174683A207375627472616374696F6E206F766572666C6F770000 DUP2 MSTORE POP PUSH2 0x29BB JUMP JUMPDEST PUSH1 0x0 DUP3 PUSH2 0x2A8F JUMPI POP PUSH1 0x0 PUSH2 0xB3B JUMP JUMPDEST PUSH1 0x0 PUSH2 0x2A9B DUP4 DUP6 PUSH2 0x3914 JUMP JUMPDEST SWAP1 POP DUP3 PUSH2 0x2AA8 DUP6 DUP4 PUSH2 0x3900 JUMP JUMPDEST EQ PUSH2 0x2A37 JUMPI PUSH1 0x40 MLOAD PUSH3 0x461BCD PUSH1 0xE5 SHL DUP2 MSTORE PUSH1 0x20 PUSH1 0x4 DUP3 ADD MSTORE PUSH1 0x21 PUSH1 0x24 DUP3 ADD MSTORE PUSH32 0x536166654D6174683A206D756C7469706C69636174696F6E206F766572666C6F PUSH1 0x44 DUP3 ADD MSTORE PUSH32 0x7700000000000000000000000000000000000000000000000000000000000000 PUSH1 0x64 DUP3 ADD MSTORE PUSH1 0x84 ADD PUSH2 0xB97 JUMP JUMPDEST PUSH1 0x28 DUP1 SLOAD PUSH32 0xFFFFFFFFFFFFFFFFFFFFFFFFFFFFFFFFFFFFFFFFFFFFFFFFFFFFFFFFFFFF00FF AND PUSH2 0x100 OR SWAP1 SSTORE PUSH1 0x40 DUP1 MLOAD PUSH1 0x2 DUP1 DUP3 MSTORE PUSH1 0x60 DUP3 ADD DUP4 MSTORE PUSH1 0x0 SWAP3 PUSH1 0x20 DUP4 ADD SWAP1 DUP1 CALLDATASIZE DUP4 CALLDATACOPY ADD SWAP1 POP POP SWAP1 POP ADDRESS DUP2 PUSH1 0x0 DUP2 MLOAD DUP2 LT PUSH2 0x2BA3 JUMPI PUSH32 0x4E487B7100000000000000000000000000000000000000000000000000000000 PUSH1 0x0 MSTORE PUSH1 0x32 PUSH1 0x4 MSTORE PUSH1 0x24 PUSH1 0x0 REVERT JUMPDEST PUSH1 0x1 PUSH1 0x1 PUSH1 0xA0 SHL SUB SWAP3 DUP4 AND PUSH1 0x20 SWAP2 DUP3 MUL SWAP3 SWAP1 SWAP3 ADD DUP2 ADD SWAP2 SWAP1 SWAP2 MSTORE PUSH1 0x25 SLOAD PUSH1 0x40 DUP1 MLOAD PUSH32 0xAD5C464800000000000000000000000000000000000000000000000000000000 DUP2 MSTORE SWAP1 MLOAD SWAP2 SWAP1 SWAP4 AND SWAP3 PUSH4 0xAD5C4648 SWAP3 PUSH1 0x4 DUP1 DUP4 ADD SWAP4 SWAP2 SWAP3 DUP3 SWAP1 SUB ADD DUP2 DUP7 DUP1 EXTCODESIZE ISZERO DUP1 ISZERO PUSH2 0x2C10 JUMPI PUSH1 0x0 DUP1 REVERT JUMPDEST POP GAS STATICCALL ISZERO DUP1 ISZERO PUSH2 0x2C24 JUMPI RETURNDATASIZE PUSH1 0x0 DUP1 RETURNDATACOPY RETURNDATASIZE PUSH1 0x0 REVERT JUMPDEST POP POP POP POP PUSH1 0x40 MLOAD RETURNDATASIZE PUSH1 0x1F NOT PUSH1 0x1F DUP3 ADD AND DUP3 ADD DUP1 PUSH1 0x40 MSTORE POP DUP2 ADD SWAP1 PUSH2 0x2C48 SWAP2 SWAP1 PUSH2 0x362B JUMP JUMPDEST DUP2 PUSH1 0x1 DUP2 MLOAD DUP2 LT PUSH2 0x2C82 JUMPI PUSH32 0x4E487B7100000000000000000000000000000000000000000000000000000000 PUSH1 0x0 MSTORE PUSH1 0x32 PUSH1 0x4 MSTORE PUSH1 0x24 PUSH1 0x0 REVERT JUMPDEST PUSH1 0x1 PUSH1 0x1 PUSH1 0xA0 SHL SUB SWAP3 DUP4 AND PUSH1 0x20 SWAP2 DUP3 MUL SWAP3 SWAP1 SWAP3 ADD ADD MSTORE PUSH1 0x25 SLOAD PUSH2 0x2CA8 SWAP2 ADDRESS SWAP2 AND DUP5 PUSH2 0x212E JUMP JUMPDEST PUSH1 0x25 SLOAD PUSH1 0x40 MLOAD PUSH32 0x791AC94700000000000000000000000000000000000000000000000000000000 DUP2 MSTORE PUSH1 0x1 PUSH1 0x1 PUSH1 0xA0 SHL SUB SWAP1 SWAP2 AND SWAP1 PUSH4 0x791AC947 SWAP1 PUSH2 0x2CFA SWAP1 DUP6 SWAP1 PUSH1 0x0 SWAP1 DUP7 SWAP1 ADDRESS SWAP1 TIMESTAMP SWAP1 PUSH1 0x4 ADD PUSH2 0x3878 JUMP JUMPDEST PUSH1 0x0 PUSH1 0x40 MLOAD DUP1 DUP4 SUB DUP2 PUSH1 0x0 DUP8 DUP1 EXTCODESIZE ISZERO DUP1 ISZERO PUSH2 0x2D14 JUMPI PUSH1 0x0 DUP1 REVERT JUMPDEST POP GAS CALL ISZERO DUP1 ISZERO PUSH2 0x2D28 JUMPI RETURNDATASIZE PUSH1 0x0 DUP1 RETURNDATACOPY RETURNDATASIZE PUSH1 0x0 REVERT JUMPDEST POP POP PUSH1 0x28 DUP1 SLOAD PUSH32 0xFFFFFFFFFFFFFFFFFFFFFFFFFFFFFFFFFFFFFFFFFFFFFFFFFFFFFFFFFFFF00FF AND SWAP1 SSTORE POP POP POP POP JUMP JUMPDEST PUSH1 0x0 DUP1 PUSH2 0x2D65 DUP4 DUP6 PUSH2 0x38E8 JUMP JUMPDEST SWAP1 POP DUP4 DUP2 LT ISZERO PUSH2 0x2A37 JUMPI PUSH1 0x40 MLOAD PUSH3 0x461BCD PUSH1 0xE5 SHL DUP2 MSTORE PUSH1 0x20 PUSH1 0x4 DUP3 ADD MSTORE PUSH1 0x1B PUSH1 0x24 DUP3 ADD MSTORE PUSH32 0x536166654D6174683A206164646974696F6E206F766572666C6F770000000000 PUSH1 0x44 DUP3 ADD MSTORE PUSH1 0x64 ADD PUSH2 0xB97 JUMP JUMPDEST PUSH1 0x0 DUP1 SLOAD PUSH1 0x1 PUSH1 0x1 PUSH1 0xA0 SHL SUB DUP4 DUP2 AND PUSH32 0xFFFFFFFFFFFFFFFFFFFFFFFF0000000000000000000000000000000000000000 DUP4 AND DUP2 OR DUP5 SSTORE PUSH1 0x40 MLOAD SWAP2 SWAP1 SWAP3 AND SWAP3 DUP4 SWAP2 PUSH32 0x8BE0079C531659141344CD1FD0A4F28419497F9722A3DAAFE3B4186F6B6457E0 SWAP2 SWAP1 LOG3 POP POP JUMP JUMPDEST PUSH1 0x0 PUSH2 0x2E29 PUSH2 0x150E JUMP JUMPDEST SWAP1 POP DUP1 PUSH2 0x2E33 JUMPI POP JUMP JUMPDEST PUSH1 0x1D SLOAD DUP2 GT ISZERO PUSH2 0x2E4C JUMPI PUSH1 0x1D SSTORE PUSH1 0x1E DUP1 SLOAD PUSH1 0xFF NOT AND SWAP1 SSTORE JUMP JUMPDEST PUSH1 0x1C SLOAD PUSH1 0x1D SLOAD PUSH1 0x0 SWAP2 PUSH2 0x2E7C SWAP2 PUSH2 0x3E8 SWAP2 PUSH2 0x1474 SWAP2 PUSH2 0x100 SWAP1 SWAP2 DIV PUSH2 0xFFFF AND SWAP1 PUSH2 0x2E76 SWAP1 DUP5 PUSH2 0x2A80 JUMP JUMPDEST SWAP1 PUSH2 0x2A3E JUMP JUMPDEST SWAP1 POP DUP1 DUP3 LT ISZERO PUSH2 0x2E9A JUMPI PUSH1 0x1E DUP1 SLOAD PUSH1 0xFF NOT AND PUSH1 0x1 OR SWAP1 SSTORE PUSH1 0x1D SLOAD PUSH1 0x1F SSTORE JUMPDEST PUSH1 0x1E SLOAD PUSH1 0xFF AND DUP1 ISZERO PUSH2 0x2EB9 JUMPI POP PUSH1 0x1F SLOAD PUSH2 0x2EB5 SWAP1 PUSH1 0x2 PUSH2 0x2A80 JUMP JUMPDEST DUP3 LT ISZERO JUMPDEST ISZERO PUSH2 0x12BE JUMPI POP PUSH1 0x1E DUP1 SLOAD PUSH1 0xFF NOT AND SWAP1 SSTORE PUSH1 0x1D SSTORE JUMP JUMPDEST PUSH1 0x28 DUP1 SLOAD PUSH32 0xFFFFFFFFFFFFFFFFFFFFFFFFFFFFFFFFFFFFFFFFFFFFFFFFFFFFFFFFFFFF00FF AND PUSH2 0x100 OR SWAP1 SSTORE PUSH1 0x0 PUSH2 0x2F07 DUP4 PUSH1 0x2 PUSH2 0x29F5 JUMP JUMPDEST SWAP1 POP PUSH1 0x0 PUSH2 0x2F15 DUP5 DUP4 PUSH2 0x2A3E JUMP JUMPDEST SWAP1 POP SELFBALANCE PUSH2 0x2F2A PUSH2 0x2F25 DUP6 DUP6 PUSH2 0x2D58 JUMP JUMPDEST PUSH2 0x2B1B JUMP JUMPDEST PUSH1 0x0 PUSH2 0x2F36 SELFBALANCE DUP4 PUSH2 0x2A3E JUMP JUMPDEST SWAP1 POP DUP3 ISZERO PUSH2 0x2D28 JUMPI PUSH2 0x2D28 DUP4 PUSH2 0x2F59 PUSH2 0x2F4F DUP9 DUP9 PUSH2 0x2D58 JUMP JUMPDEST PUSH2 0x1474 DUP6 DUP10 PUSH2 0x2A80 JUMP JUMPDEST PUSH2 0x316A JUMP JUMPDEST PUSH1 0x0 PUSH2 0x2F7D PUSH1 0x17 SLOAD PUSH2 0x1BDB PUSH1 0x13 SLOAD PUSH1 0x15 SLOAD PUSH2 0x2D58 SWAP1 SWAP2 SWAP1 PUSH4 0xFFFFFFFF AND JUMP JUMPDEST SWAP1 POP DUP1 ISZERO PUSH2 0x12BE JUMPI PUSH1 0x0 PUSH2 0x2FA0 DUP3 PUSH2 0x1474 PUSH1 0x15 SLOAD DUP7 PUSH2 0x2A80 SWAP1 SWAP2 SWAP1 PUSH4 0xFFFFFFFF AND JUMP JUMPDEST SWAP1 POP PUSH1 0x0 PUSH2 0x2FBD DUP4 PUSH2 0x1474 PUSH1 0x17 SLOAD DUP8 PUSH2 0x2A80 SWAP1 SWAP2 SWAP1 PUSH4 0xFFFFFFFF AND JUMP JUMPDEST SWAP1 POP PUSH1 0x0 PUSH2 0x2FCF DUP3 PUSH2 0x2E76 DUP8 DUP7 PUSH2 0x2A3E JUMP JUMPDEST SWAP1 POP DUP3 ISZERO PUSH2 0x3013 JUMPI PUSH1 0x21 SLOAD PUSH1 0x40 MLOAD PUSH1 0x1 PUSH1 0x1 PUSH1 0xA0 SHL SUB SWAP1 SWAP2 AND SWAP1 DUP5 ISZERO PUSH2 0x8FC MUL SWAP1 DUP6 SWAP1 PUSH1 0x0 DUP2 DUP2 DUP2 DUP6 DUP9 DUP9 CALL SWAP4 POP POP POP POP ISZERO DUP1 ISZERO PUSH2 0x3011 JUMPI RETURNDATASIZE PUSH1 0x0 DUP1 RETURNDATACOPY RETURNDATASIZE PUSH1 0x0 REVERT JUMPDEST POP JUMPDEST DUP2 ISZERO PUSH2 0x3055 JUMPI PUSH1 0x22 SLOAD PUSH1 0x40 MLOAD PUSH1 0x1 PUSH1 0x1 PUSH1 0xA0 SHL SUB SWAP1 SWAP2 AND SWAP1 DUP4 ISZERO PUSH2 0x8FC MUL SWAP1 DUP5 SWAP1 PUSH1 0x0 DUP2 DUP2 DUP2 DUP6 DUP9 DUP9 CALL SWAP4 POP POP POP POP ISZERO DUP1 ISZERO PUSH2 0x3053 JUMPI RETURNDATASIZE PUSH1 0x0 DUP1 RETURNDATACOPY RETURNDATASIZE PUSH1 0x0 REVERT JUMPDEST POP JUMPDEST DUP1 ISZERO PUSH2 0x3097 JUMPI PUSH1 0x23 SLOAD PUSH1 0x40 MLOAD PUSH1 0x1 PUSH1 0x1 PUSH1 0xA0 SHL SUB SWAP1 SWAP2 AND SWAP1 DUP3 ISZERO PUSH2 0x8FC MUL SWAP1 DUP4 SWAP1 PUSH1 0x0 DUP2 DUP2 DUP2 DUP6 DUP9 DUP9 CALL SWAP4 POP POP POP POP ISZERO DUP1 ISZERO PUSH2 0x3095 JUMPI RETURNDATASIZE PUSH1 0x0 DUP1 RETURNDATACOPY RETURNDATASIZE PUSH1 0x0 REVERT JUMPDEST POP JUMPDEST POP POP POP POP POP JUMP JUMPDEST DUP1 PUSH2 0x30FC JUMPI PUSH2 0x30FC PUSH1 0xD DUP1 SLOAD PUSH1 0xE SSTORE PUSH1 0x9 DUP1 SLOAD PUSH1 0xA SSTORE PUSH1 0xF DUP1 SLOAD PUSH1 0x10 SSTORE PUSH1 0xB DUP1 SLOAD PUSH1 0xC SSTORE PUSH1 0x0 SWAP4 DUP5 SWAP1 SSTORE SWAP2 DUP4 SWAP1 SSTORE DUP3 SWAP1 SSTORE DUP2 SWAP1 SSTORE PUSH1 0x15 DUP1 SLOAD PUSH1 0x16 SSTORE PUSH1 0x11 DUP1 SLOAD PUSH1 0x12 SSTORE PUSH1 0x17 DUP1 SLOAD PUSH1 0x18 SSTORE PUSH1 0x13 DUP1 SLOAD PUSH1 0x14 SSTORE SWAP3 DUP5 SWAP1 SSTORE SWAP1 DUP4 SWAP1 SSTORE DUP3 SWAP1 SSTORE SSTORE JUMP JUMPDEST PUSH2 0x3107 DUP5 DUP5 DUP5 PUSH2 0x3240 JUMP JUMPDEST PUSH2 0x29B5 PUSH1 0xE SLOAD PUSH1 0xD SSTORE PUSH1 0xA SLOAD PUSH1 0x9 SSTORE PUSH1 0x10 SLOAD PUSH1 0xF SSTORE PUSH1 0xC SLOAD PUSH1 0xB SSTORE PUSH1 0x16 SLOAD PUSH1 0x15 SSTORE PUSH1 0x12 SLOAD PUSH1 0x11 SSTORE PUSH1 0x18 SLOAD PUSH1 0x17 SSTORE PUSH1 0x14 SLOAD PUSH1 0x13 SSTORE JUMP JUMPDEST PUSH1 0x0 DUP2 DUP4 PUSH2 0x315D JUMPI PUSH1 0x40 MLOAD PUSH3 0x461BCD PUSH1 0xE5 SHL DUP2 MSTORE PUSH1 0x4 ADD PUSH2 0xB97 SWAP2 SWAP1 PUSH2 0x3807 JUMP JUMPDEST POP PUSH1 0x0 PUSH2 0x29EC DUP5 DUP7 PUSH2 0x3900 JUMP JUMPDEST PUSH1 0x25 SLOAD PUSH2 0x3182 SWAP1 ADDRESS SWAP1 PUSH1 0x1 PUSH1 0x1 PUSH1 0xA0 SHL SUB AND DUP5 PUSH2 0x212E JUMP JUMPDEST PUSH1 0x25 SLOAD PUSH1 0x24 DUP1 SLOAD PUSH1 0x40 MLOAD PUSH32 0xF305D71900000000000000000000000000000000000000000000000000000000 DUP2 MSTORE ADDRESS PUSH1 0x4 DUP3 ADD MSTORE SWAP2 DUP3 ADD DUP6 SWAP1 MSTORE PUSH1 0x0 PUSH1 0x44 DUP4 ADD DUP2 SWAP1 MSTORE PUSH1 0x64 DUP4 ADD MSTORE PUSH1 0x1 PUSH1 0x1 PUSH1 0xA0 SHL SUB SWAP1 DUP2 AND PUSH1 0x84 DUP4 ADD MSTORE TIMESTAMP PUSH1 0xA4 DUP4 ADD MSTORE SWAP1 SWAP2 AND SWAP1 PUSH4 0xF305D719 SWAP1 DUP4 SWAP1 PUSH1 0xC4 ADD PUSH1 0x60 PUSH1 0x40 MLOAD DUP1 DUP4 SUB DUP2 DUP6 DUP9 DUP1 EXTCODESIZE ISZERO DUP1 ISZERO PUSH2 0x3207 JUMPI PUSH1 0x0 DUP1 REVERT JUMPDEST POP GAS CALL ISZERO DUP1 ISZERO PUSH2 0x321B JUMPI RETURNDATASIZE PUSH1 0x0 DUP1 RETURNDATACOPY RETURNDATASIZE PUSH1 0x0 REVERT JUMPDEST POP POP POP POP POP PUSH1 0x40 MLOAD RETURNDATASIZE PUSH1 0x1F NOT PUSH1 0x1F DUP3 ADD AND DUP3 ADD DUP1 PUSH1 0x40 MSTORE POP DUP2 ADD SWAP1 PUSH2 0x3097 SWAP2 SWAP1 PUSH2 0x37A9 JUMP JUMPDEST PUSH2 0x3272 PUSH1 0x40 MLOAD DUP1 PUSH1 0xA0 ADD PUSH1 0x40 MSTORE DUP1 PUSH1 0x0 DUP2 MSTORE PUSH1 0x20 ADD PUSH1 0x0 DUP2 MSTORE PUSH1 0x20 ADD PUSH1 0x0 DUP2 MSTORE PUSH1 0x20 ADD PUSH1 0x0 DUP2 MSTORE PUSH1 0x20 ADD PUSH1 0x0 DUP2 MSTORE POP SWAP1 JUMP JUMPDEST PUSH1 0x26 SLOAD PUSH1 0x1 PUSH1 0x1 PUSH1 0xA0 SHL SUB DUP6 DUP2 AND SWAP2 AND EQ DUP1 ISZERO PUSH2 0x329D JUMPI POP PUSH1 0x25 SLOAD PUSH1 0x1 PUSH1 0x1 PUSH1 0xA0 SHL SUB DUP5 DUP2 AND SWAP2 AND EQ ISZERO JUMPDEST ISZERO PUSH2 0x3311 JUMPI PUSH2 0x32BD PUSH2 0x3E8 PUSH2 0x1474 PUSH1 0xD SLOAD DUP6 PUSH2 0x2A80 SWAP1 SWAP2 SWAP1 PUSH4 0xFFFFFFFF AND JUMP JUMPDEST PUSH1 0x20 DUP3 ADD MSTORE PUSH1 0x9 SLOAD PUSH2 0x32D8 SWAP1 PUSH2 0x3E8 SWAP1 PUSH2 0x1474 SWAP1 DUP6 SWAP1 PUSH2 0x2A80 JUMP JUMPDEST DUP2 MSTORE PUSH1 0xF SLOAD PUSH2 0x32F0 SWAP1 PUSH2 0x3E8 SWAP1 PUSH2 0x1474 SWAP1 DUP6 SWAP1 PUSH2 0x2A80 JUMP JUMPDEST PUSH1 0x40 DUP3 ADD MSTORE PUSH1 0xB SLOAD PUSH2 0x330B SWAP1 PUSH2 0x3E8 SWAP1 PUSH2 0x1474 SWAP1 DUP6 SWAP1 PUSH2 0x2A80 JUMP JUMPDEST PUSH1 0x60 DUP3 ADD MSTORE JUMPDEST PUSH1 0x26 SLOAD PUSH1 0x1 PUSH1 0x1 PUSH1 0xA0 SHL SUB DUP6 DUP2 AND SWAP2 AND EQ DUP1 ISZERO SWAP1 PUSH2 0x333C JUMPI POP PUSH1 0x26 SLOAD PUSH1 0x1 PUSH1 0x1 PUSH1 0xA0 SHL SUB DUP5 DUP2 AND SWAP2 AND EQ JUMPDEST ISZERO PUSH2 0x33B0 JUMPI PUSH2 0x335C PUSH2 0x3E8 PUSH2 0x1474 PUSH1 0x15 SLOAD DUP6 PUSH2 0x2A80 SWAP1 SWAP2 SWAP1 PUSH4 0xFFFFFFFF AND JUMP JUMPDEST PUSH1 0x20 DUP3 ADD MSTORE PUSH1 0x11 SLOAD PUSH2 0x3377 SWAP1 PUSH2 0x3E8 SWAP1 PUSH2 0x1474 SWAP1 DUP6 SWAP1 PUSH2 0x2A80 JUMP JUMPDEST DUP2 MSTORE PUSH1 0x17 SLOAD PUSH2 0x338F SWAP1 PUSH2 0x3E8 SWAP1 PUSH2 0x1474 SWAP1 DUP6 SWAP1 PUSH2 0x2A80 JUMP JUMPDEST PUSH1 0x40 DUP3 ADD MSTORE PUSH1 0x13 SLOAD PUSH2 0x33AA SWAP1 PUSH2 0x3E8 SWAP1 PUSH2 0x1474 SWAP1 DUP6 SWAP1 PUSH2 0x2A80 JUMP JUMPDEST PUSH1 0x60 DUP3 ADD MSTORE JUMPDEST PUSH1 0x26 SLOAD PUSH1 0x1 PUSH1 0x1 PUSH1 0xA0 SHL SUB DUP6 DUP2 AND SWAP2 AND EQ DUP1 ISZERO SWAP1 PUSH2 0x33DC JUMPI POP PUSH1 0x26 SLOAD PUSH1 0x1 PUSH1 0x1 PUSH1 0xA0 SHL SUB DUP5 DUP2 AND SWAP2 AND EQ ISZERO JUMPDEST ISZERO PUSH2 0x3490 JUMPI PUSH2 0x3407 PUSH1 0x64 PUSH2 0x1474 PUSH1 0x19 SLOAD PUSH2 0x146E PUSH2 0x3E8 PUSH2 0x1474 PUSH1 0x15 SLOAD DUP10 PUSH2 0x2A80 SWAP1 SWAP2 SWAP1 PUSH4 0xFFFFFFFF AND JUMP JUMPDEST DUP2 PUSH1 0x20 ADD DUP2 DUP2 MSTORE POP POP PUSH2 0x3436 PUSH1 0x64 PUSH2 0x1474 PUSH1 0x19 SLOAD PUSH2 0x146E PUSH2 0x3E8 PUSH2 0x1474 PUSH1 0x11 SLOAD DUP10 PUSH2 0x2A80 SWAP1 SWAP2 SWAP1 PUSH4 0xFFFFFFFF AND JUMP JUMPDEST DUP2 MSTORE PUSH1 0x19 SLOAD PUSH1 0x17 SLOAD PUSH2 0x345B SWAP2 PUSH1 0x64 SWAP2 PUSH2 0x1474 SWAP2 SWAP1 PUSH2 0x146E SWAP1 PUSH2 0x3E8 SWAP1 DUP5 SWAP1 DUP10 SWAP1 PUSH2 0x2A80 JUMP JUMPDEST DUP2 PUSH1 0x40 ADD DUP2 DUP2 MSTORE POP POP PUSH2 0x348A PUSH1 0x64 PUSH2 0x1474 PUSH1 0x19 SLOAD PUSH2 0x146E PUSH2 0x3E8 PUSH2 0x1474 PUSH1 0x13 SLOAD DUP10 PUSH2 0x2A80 SWAP1 SWAP2 SWAP1 PUSH4 0xFFFFFFFF AND JUMP JUMPDEST PUSH1 0x60 DUP3 ADD MSTORE JUMPDEST PUSH2 0x34BF DUP2 PUSH1 0x60 ADD MLOAD PUSH2 0x2E76 DUP4 PUSH1 0x40 ADD MLOAD PUSH2 0x2E76 DUP6 PUSH1 0x0 ADD MLOAD PUSH2 0x2E76 DUP8 PUSH1 0x20 ADD MLOAD DUP10 PUSH2 0x2A3E SWAP1 SWAP2 SWAP1 PUSH4 0xFFFFFFFF AND JUMP JUMPDEST PUSH1 0x80 DUP3 ADD MSTORE PUSH1 0x1 PUSH1 0x1 PUSH1 0xA0 SHL SUB DUP5 AND PUSH1 0x0 SWAP1 DUP2 MSTORE PUSH1 0x2 PUSH1 0x20 MSTORE PUSH1 0x40 SWAP1 KECCAK256 SLOAD PUSH2 0x34E7 SWAP1 DUP4 PUSH2 0x2A3E JUMP JUMPDEST PUSH1 0x1 PUSH1 0x1 PUSH1 0xA0 SHL SUB DUP1 DUP7 AND PUSH1 0x0 SWAP1 DUP2 MSTORE PUSH1 0x2 PUSH1 0x20 MSTORE PUSH1 0x40 DUP1 DUP3 KECCAK256 SWAP4 SWAP1 SWAP4 SSTORE PUSH1 0x80 DUP5 ADD MLOAD SWAP2 DUP7 AND DUP2 MSTORE SWAP2 SWAP1 SWAP2 KECCAK256 SLOAD PUSH2 0x351D SWAP2 PUSH2 0x2D58 JUMP JUMPDEST PUSH1 0x2 PUSH1 0x0 DUP6 PUSH1 0x1 PUSH1 0x1 PUSH1 0xA0 SHL SUB AND PUSH1 0x1 PUSH1 0x1 PUSH1 0xA0 SHL SUB AND DUP2 MSTORE PUSH1 0x20 ADD SWAP1 DUP2 MSTORE PUSH1 0x20 ADD PUSH1 0x0 KECCAK256 DUP2 SWAP1 SSTORE POP PUSH2 0x358A PUSH2 0x3574 DUP3 PUSH1 0x60 ADD MLOAD PUSH2 0x1BDB DUP5 PUSH1 0x40 ADD MLOAD PUSH2 0x1BDB DUP7 PUSH1 0x0 ADD MLOAD DUP8 PUSH1 0x20 ADD MLOAD PUSH2 0x2D58 SWAP1 SWAP2 SWAP1 PUSH4 0xFFFFFFFF AND JUMP JUMPDEST ADDRESS PUSH1 0x0 SWAP1 DUP2 MSTORE PUSH1 0x2 PUSH1 0x20 MSTORE PUSH1 0x40 SWAP1 KECCAK256 SLOAD SWAP1 PUSH2 0x2D58 JUMP JUMPDEST ADDRESS PUSH1 0x0 SWAP1 DUP2 MSTORE PUSH1 0x2 PUSH1 0x20 SWAP1 DUP2 MSTORE PUSH1 0x40 SWAP2 DUP3 SWAP1 KECCAK256 SWAP3 SWAP1 SWAP3 SSTORE PUSH1 0x80 DUP4 ADD MLOAD SWAP1 MLOAD SWAP1 DUP2 MSTORE PUSH1 0x1 PUSH1 0x1 PUSH1 0xA0 SHL SUB DUP6 DUP2 AND SWAP3 SWAP1 DUP8 AND SWAP2 PUSH32 0xDDF252AD1BE2C89B69C2B068FC378DAA952BA7F163C4A11628F55A4DF523B3EF SWAP2 ADD PUSH1 0x40 MLOAD DUP1 SWAP2 SUB SWAP1 LOG3 POP POP POP POP JUMP JUMPDEST DUP1 MLOAD PUSH14 0xFFFFFFFFFFFFFFFFFFFFFFFFFFFF DUP2 AND DUP2 EQ PUSH2 0x360A JUMPI PUSH1 0x0 DUP1 REVERT JUMPDEST SWAP2 SWAP1 POP JUMP JUMPDEST PUSH1 0x0 PUSH1 0x20 DUP3 DUP5 SUB SLT ISZERO PUSH2 0x3620 JUMPI DUP1 DUP2 REVERT JUMPDEST DUP2 CALLDATALOAD PUSH2 0x2A37 DUP2 PUSH2 0x3A3C JUMP JUMPDEST PUSH1 0x0 PUSH1 0x20 DUP3 DUP5 SUB SLT ISZERO PUSH2 0x363C JUMPI DUP1 DUP2 REVERT JUMPDEST DUP2 MLOAD PUSH2 0x2A37 DUP2 PUSH2 0x3A3C JUMP JUMPDEST PUSH1 0x0 DUP1 PUSH1 0x40 DUP4 DUP6 SUB SLT ISZERO PUSH2 0x3659 JUMPI DUP1 DUP2 REVERT JUMPDEST DUP3 CALLDATALOAD PUSH2 0x3664 DUP2 PUSH2 0x3A3C JUMP JUMPDEST SWAP2 POP PUSH1 0x20 DUP4 ADD CALLDATALOAD PUSH2 0x3674 DUP2 PUSH2 0x3A3C JUMP JUMPDEST DUP1 SWAP2 POP POP SWAP3 POP SWAP3 SWAP1 POP JUMP JUMPDEST PUSH1 0x0 DUP1 PUSH1 0x0 PUSH1 0x60 DUP5 DUP7 SUB SLT ISZERO PUSH2 0x3693 JUMPI DUP1 DUP2 REVERT JUMPDEST DUP4 CALLDATALOAD PUSH2 0x369E DUP2 PUSH2 0x3A3C JUMP JUMPDEST SWAP3 POP PUSH1 0x20 DUP5 ADD CALLDATALOAD PUSH2 0x36AE DUP2 PUSH2 0x3A3C JUMP JUMPDEST SWAP3 SWAP6 SWAP3 SWAP5 POP POP POP PUSH1 0x40 SWAP2 SWAP1 SWAP2 ADD CALLDATALOAD SWAP1 JUMP JUMPDEST PUSH1 0x0 DUP1 PUSH1 0x40 DUP4 DUP6 SUB SLT ISZERO PUSH2 0x36D1 JUMPI DUP2 DUP3 REVERT JUMPDEST DUP3 CALLDATALOAD PUSH2 0x36DC DUP2 PUSH2 0x3A3C JUMP JUMPDEST SWAP5 PUSH1 0x20 SWAP4 SWAP1 SWAP4 ADD CALLDATALOAD SWAP4 POP POP POP JUMP JUMPDEST PUSH1 0x0 PUSH1 0x20 DUP3 DUP5 SUB SLT ISZERO PUSH2 0x36FB JUMPI DUP1 DUP2 REVERT JUMPDEST DUP2 MLOAD PUSH2 0x2A37 DUP2 PUSH2 0x3A51 JUMP JUMPDEST PUSH1 0x0 DUP1 PUSH1 0x40 DUP4 DUP6 SUB SLT ISZERO PUSH2 0x3718 JUMPI DUP2 DUP3 REVERT JUMPDEST DUP3 CALLDATALOAD PUSH2 0x3723 DUP2 PUSH2 0x3A51 JUMP JUMPDEST SWAP2 POP PUSH1 0x20 DUP4 ADD CALLDATALOAD PUSH2 0x3674 DUP2 PUSH2 0x3A5F JUMP JUMPDEST PUSH1 0x0 DUP1 PUSH1 0x0 PUSH1 0x60 DUP5 DUP7 SUB SLT ISZERO PUSH2 0x3747 JUMPI DUP3 DUP4 REVERT JUMPDEST PUSH2 0x3750 DUP5 PUSH2 0x35EC JUMP JUMPDEST SWAP3 POP PUSH2 0x375E PUSH1 0x20 DUP6 ADD PUSH2 0x35EC JUMP JUMPDEST SWAP2 POP PUSH1 0x40 DUP5 ADD MLOAD PUSH2 0x376E DUP2 PUSH2 0x3A5F JUMP JUMPDEST DUP1 SWAP2 POP POP SWAP3 POP SWAP3 POP SWAP3 JUMP JUMPDEST PUSH1 0x0 PUSH1 0x20 DUP3 DUP5 SUB SLT ISZERO PUSH2 0x378A JUMPI DUP1 DUP2 REVERT JUMPDEST POP CALLDATALOAD SWAP2 SWAP1 POP JUMP JUMPDEST PUSH1 0x0 PUSH1 0x20 DUP3 DUP5 SUB SLT ISZERO PUSH2 0x37A2 JUMPI DUP1 DUP2 REVERT JUMPDEST POP MLOAD SWAP2 SWAP1 POP JUMP JUMPDEST PUSH1 0x0 DUP1 PUSH1 0x0 PUSH1 0x60 DUP5 DUP7 SUB SLT ISZERO PUSH2 0x37BD JUMPI DUP3 DUP4 REVERT JUMPDEST DUP4 MLOAD SWAP3 POP PUSH1 0x20 DUP5 ADD MLOAD SWAP2 POP PUSH1 0x40 DUP5 ADD MLOAD SWAP1 POP SWAP3 POP SWAP3 POP SWAP3 JUMP JUMPDEST PUSH1 0x0 DUP1 PUSH1 0x0 DUP1 PUSH1 0x80 DUP6 DUP8 SUB SLT ISZERO PUSH2 0x37EB JUMPI DUP1 DUP2 REVERT JUMPDEST POP POP DUP3 CALLDATALOAD SWAP5 PUSH1 0x20 DUP5 ADD CALLDATALOAD SWAP5 POP PUSH1 0x40 DUP5 ADD CALLDATALOAD SWAP4 PUSH1 0x60 ADD CALLDATALOAD SWAP3 POP SWAP1 POP JUMP JUMPDEST PUSH1 0x0 PUSH1 0x20 DUP1 DUP4 MSTORE DUP4 MLOAD DUP1 DUP3 DUP6 ADD MSTORE DUP3 JUMPDEST DUP2 DUP2 LT ISZERO PUSH2 0x3833 JUMPI DUP6 DUP2 ADD DUP4 ADD MLOAD DUP6 DUP3 ADD PUSH1 0x40 ADD MSTORE DUP3 ADD PUSH2 0x3817 JUMP JUMPDEST DUP2 DUP2 GT ISZERO PUSH2 0x3844 JUMPI DUP4 PUSH1 0x40 DUP4 DUP8 ADD ADD MSTORE JUMPDEST POP PUSH1 0x1F ADD PUSH32 0xFFFFFFFFFFFFFFFFFFFFFFFFFFFFFFFFFFFFFFFFFFFFFFFFFFFFFFFFFFFFFFE0 AND SWAP3 SWAP1 SWAP3 ADD PUSH1 0x40 ADD SWAP4 SWAP3 POP POP POP JUMP JUMPDEST PUSH1 0x0 PUSH1 0xA0 DUP3 ADD DUP8 DUP4 MSTORE PUSH1 0x20 DUP8 DUP2 DUP6 ADD MSTORE PUSH1 0xA0 PUSH1 0x40 DUP6 ADD MSTORE DUP2 DUP8 MLOAD DUP1 DUP5 MSTORE PUSH1 0xC0 DUP7 ADD SWAP2 POP DUP3 DUP10 ADD SWAP4 POP DUP5 JUMPDEST DUP2 DUP2 LT ISZERO PUSH2 0x38C7 JUMPI DUP5 MLOAD PUSH1 0x1 PUSH1 0x1 PUSH1 0xA0 SHL SUB AND DUP4 MSTORE SWAP4 DUP4 ADD SWAP4 SWAP2 DUP4 ADD SWAP2 PUSH1 0x1 ADD PUSH2 0x38A2 JUMP JUMPDEST POP POP PUSH1 0x1 PUSH1 0x1 PUSH1 0xA0 SHL SUB SWAP7 SWAP1 SWAP7 AND PUSH1 0x60 DUP6 ADD MSTORE POP POP POP PUSH1 0x80 ADD MSTORE SWAP4 SWAP3 POP POP POP JUMP JUMPDEST PUSH1 0x0 DUP3 NOT DUP3 GT ISZERO PUSH2 0x38FB JUMPI PUSH2 0x38FB PUSH2 0x39DE JUMP JUMPDEST POP ADD SWAP1 JUMP JUMPDEST PUSH1 0x0 DUP3 PUSH2 0x390F JUMPI PUSH2 0x390F PUSH2 0x3A0D JUMP JUMPDEST POP DIV SWAP1 JUMP JUMPDEST PUSH1 0x0 DUP2 PUSH32 0xFFFFFFFFFFFFFFFFFFFFFFFFFFFFFFFFFFFFFFFFFFFFFFFFFFFFFFFFFFFFFFFF DIV DUP4 GT DUP3 ISZERO ISZERO AND ISZERO PUSH2 0x394C JUMPI PUSH2 0x394C PUSH2 0x39DE JUMP JUMPDEST POP MUL SWAP1 JUMP JUMPDEST PUSH1 0x0 PUSH4 0xFFFFFFFF DUP1 DUP4 AND DUP2 DUP6 AND DUP2 DUP4 DIV DUP2 GT DUP3 ISZERO ISZERO AND ISZERO PUSH2 0x3974 JUMPI PUSH2 0x3974 PUSH2 0x39DE JUMP JUMPDEST MUL SWAP5 SWAP4 POP POP POP POP JUMP JUMPDEST PUSH1 0x0 DUP3 DUP3 LT ISZERO PUSH2 0x398F JUMPI PUSH2 0x398F PUSH2 0x39DE JUMP JUMPDEST POP SUB SWAP1 JUMP JUMPDEST PUSH1 0x0 DUP3 PUSH2 0x39A3 JUMPI PUSH2 0x39A3 PUSH2 0x3A0D JUMP JUMPDEST POP MOD SWAP1 JUMP JUMPDEST PUSH1 0x0 PUSH32 0x8000000000000000000000000000000000000000000000000000000000000000 DUP3 EQ ISZERO PUSH2 0x39DA JUMPI PUSH2 0x39DA PUSH2 0x39DE JUMP JUMPDEST SUB SWAP1 JUMP JUMPDEST PUSH32 0x4E487B7100000000000000000000000000000000000000000000000000000000 PUSH1 0x0 MSTORE PUSH1 0x11 PUSH1 0x4 MSTORE PUSH1 0x24 PUSH1 0x0 REVERT JUMPDEST PUSH32 0x4E487B7100000000000000000000000000000000000000000000000000000000 PUSH1 0x0 MSTORE PUSH1 0x12 PUSH1 0x4 MSTORE PUSH1 0x24 PUSH1 0x0 REVERT JUMPDEST PUSH1 0x1 PUSH1 0x1 PUSH1 0xA0 SHL SUB DUP2 AND DUP2 EQ PUSH2 0x12C0 JUMPI PUSH1 0x0 DUP1 REVERT JUMPDEST DUP1 ISZERO ISZERO DUP2 EQ PUSH2 0x12C0 JUMPI PUSH1 0x0 DUP1 REVERT JUMPDEST PUSH4 0xFFFFFFFF DUP2 AND DUP2 EQ PUSH2 0x12C0 JUMPI PUSH1 0x0 DUP1 REVERT INVALID GASLIMIT MSTORE NUMBER ORIGIN ADDRESS GASPRICE KECCAK256 PUSH21 0x72616E7366657220616D6F756E7420657863656564 PUSH20 0x20616C6C6F77616E6365A2646970667358221220 DUP10 0x4B JUMPI 0xC4 SELFDESTRUCT PUSH15 0x6AA8C5D68BD6D06793F5B17EEC8609 PUSH29 0xAABDD2B4BDE29C00C7BF64736F6C634300080400330000000000000000 "
				},
				"gasEstimates": {
					"creation": {
						"codeDepositCost": "3011000",
						"executionCost": "infinite",
						"totalCost": "infinite"
					},
					"external": {
						"ATHvariance()": "infinite",
						"_buyEcosystemFee()": "1097",
						"_buyLiquidityFee()": "1117",
						"_buyMarketingFee()": "1095",
						"_buyTeamFee()": "1073",
						"_maxWalletAmount()": "1052",
						"_sellEcosystemFee()": "1053",
						"_sellLiquidityFee()": "1075",
						"_sellMarketingFee()": "1117",
						"_sellTeamFee()": "1074",
						"addBot(address)": "23010",
						"allowance(address,address)": "infinite",
						"approve(address,uint256)": "22605",
						"balanceOf(address)": "1332",
						"canBlackList()": "1111",
						"canChangeTax()": "1090",
						"canPause()": "1155",
						"configureStrongHands(bool,uint32)": "infinite",
						"cooldown()": "1193",
						"cooldownRemaining(address)": "infinite",
						"decimals()": "289",
						"diamondFloor()": "3624",
						"disableBlackListing()": "21888",
						"disablePauseAbility()": "21933",
						"disableTaxChange()": "21933",
						"disableToken()": "22749",
						"enableToken()": "21876",
						"excludeFromFee(address)": "22112",
						"includeInFee(address)": "22171",
						"isBot(address)": "1334",
						"manualSendToken(address)": "infinite",
						"manualsend()": "infinite",
						"manualswap()": "infinite",
						"name()": "infinite",
						"numTokensToSwap()": "1054",
						"openTrading(uint256)": "61960",
						"owner()": "1144",
						"pairPrice()": "infinite",
						"removeBot(address)": "22150",
						"renounceOwnership()": "24217",
						"setBuyTaxes(uint256,uint256,uint256,uint256)": "infinite",
						"setMaxWalletAmount(uint256)": "21442",
						"setSellTaxes(uint256,uint256,uint256,uint256)": "infinite",
						"setTransferTransactionMultiplier(uint256)": "21154",
						"symbol()": "infinite",
						"totalSupply()": "272",
						"tradingOpen()": "1120",
						"transfer(address,uint256)": "infinite",
						"transferFeeIncreaseFactor()": "1095",
						"transferFrom(address,address,uint256)": "infinite",
						"transferOwnership(address)": "infinite",
						"uniswapV2Pair()": "1127",
						"updateEcosystemAddress(address)": "22101",
						"updateLpRecipient(address)": "22102",
						"updateMarketingAddress(address)": "22103",
						"updateNumTokensToSwap(uint256)": "21153",
						"updateTeamAddress(address)": "22059"
					},
					"internal": {
						"_approve(address,address,uint256)": "infinite",
						"_checkPriceConditions()": "infinite",
						"_tokenTransfer(address,address,uint256,bool)": "infinite",
						"_transfer(address,address,uint256)": "infinite",
						"_transferStandard(address,address,uint256)": "infinite",
						"addLiquidity(uint256,uint256)": "infinite",
						"removeAllFee()": "infinite",
						"restoreAllFee()": "infinite",
						"sendETHToFee(uint256)": "infinite",
						"swapAndLiquify(uint256,uint256)": "infinite",
						"swapTokensForEth(uint256)": "infinite"
					}
				},
				"methodIdentifiers": {
					"ATHvariance()": "80670f3c",
					"_buyEcosystemFee()": "2843631d",
					"_buyLiquidityFee()": "dc44b6a0",
					"_buyMarketingFee()": "c5d24189",
					"_buyTeamFee()": "c469b6dd",
					"_maxWalletAmount()": "6c0a24eb",
					"_sellEcosystemFee()": "248dd232",
					"_sellLiquidityFee()": "88790a68",
					"_sellMarketingFee()": "c8607952",
					"_sellTeamFee()": "cab03471",
					"addBot(address)": "ffecf516",
					"allowance(address,address)": "dd62ed3e",
					"approve(address,uint256)": "095ea7b3",
					"balanceOf(address)": "70a08231",
					"canBlackList()": "301ad558",
					"canChangeTax()": "39a53c4e",
					"canPause()": "323be1c5",
					"configureStrongHands(bool,uint32)": "729cb3f2",
					"cooldown()": "787a08a6",
					"cooldownRemaining(address)": "9d82190f",
					"decimals()": "313ce567",
					"diamondFloor()": "c95457ff",
					"disableBlackListing()": "d55cb78a",
					"disablePauseAbility()": "6aabff3f",
					"disableTaxChange()": "99a7b9bc",
					"disableToken()": "3e0f966d",
					"enableToken()": "8e360253",
					"excludeFromFee(address)": "437823ec",
					"includeInFee(address)": "ea2f0b37",
					"isBot(address)": "3bbac579",
					"manualSendToken(address)": "29409395",
					"manualsend()": "6fc3eaec",
					"manualswap()": "c3c8cd80",
					"name()": "06fdde03",
					"numTokensToSwap()": "01a6c43b",
					"openTrading(uint256)": "d1633649",
					"owner()": "8da5cb5b",
					"pairPrice()": "9491f94d",
					"removeBot(address)": "5fecd926",
					"renounceOwnership()": "715018a6",
					"setBuyTaxes(uint256,uint256,uint256,uint256)": "e4bf1bed",
					"setMaxWalletAmount(uint256)": "27a14fc2",
					"setSellTaxes(uint256,uint256,uint256,uint256)": "f480fec2",
					"setTransferTransactionMultiplier(uint256)": "a850673d",
					"symbol()": "95d89b41",
					"totalSupply()": "18160ddd",
					"tradingOpen()": "ffb54a99",
					"transfer(address,uint256)": "a9059cbb",
					"transferFeeIncreaseFactor()": "72b2aecc",
					"transferFrom(address,address,uint256)": "23b872dd",
					"transferOwnership(address)": "f2fde38b",
					"uniswapV2Pair()": "49bd5a5e",
					"updateEcosystemAddress(address)": "db0045ec",
					"updateLpRecipient(address)": "cdb3858f",
					"updateMarketingAddress(address)": "2369bf83",
					"updateNumTokensToSwap(uint256)": "e315a6da",
					"updateTeamAddress(address)": "14eb76ac"
				}
			},
			"storageLayout": {
				"storage": [
					{
						"astId": 228,
						"contract": "contracts/gainzilla.sol:gainZilla",
						"label": "_owner",
						"offset": 0,
						"slot": "0",
						"type": "t_address"
					},
					{
						"astId": 230,
						"contract": "contracts/gainzilla.sol:gainZilla",
						"label": "_previousOwner",
						"offset": 0,
						"slot": "1",
						"type": "t_address"
					},
					{
						"astId": 749,
						"contract": "contracts/gainzilla.sol:gainZilla",
						"label": "_balances",
						"offset": 0,
						"slot": "2",
						"type": "t_mapping(t_address,t_uint256)"
					},
					{
						"astId": 755,
						"contract": "contracts/gainzilla.sol:gainZilla",
						"label": "_allowances",
						"offset": 0,
						"slot": "3",
						"type": "t_mapping(t_address,t_mapping(t_address,t_uint256))"
					},
					{
						"astId": 759,
						"contract": "contracts/gainzilla.sol:gainZilla",
						"label": "_isExcludedFromFee",
						"offset": 0,
						"slot": "4",
						"type": "t_mapping(t_address,t_bool)"
					},
					{
						"astId": 768,
						"contract": "contracts/gainzilla.sol:gainZilla",
						"label": "_firstBlock",
						"offset": 0,
						"slot": "5",
						"type": "t_uint256"
					},
					{
						"astId": 770,
						"contract": "contracts/gainzilla.sol:gainZilla",
						"label": "_botBlocks",
						"offset": 0,
						"slot": "6",
						"type": "t_uint256"
					},
					{
						"astId": 777,
						"contract": "contracts/gainzilla.sol:gainZilla",
						"label": "_maxWalletAmount",
						"offset": 0,
						"slot": "7",
						"type": "t_uint256"
					},
					{
						"astId": 784,
						"contract": "contracts/gainzilla.sol:gainZilla",
						"label": "numTokensToSwap",
						"offset": 0,
						"slot": "8",
						"type": "t_uint256"
					},
					{
						"astId": 787,
						"contract": "contracts/gainzilla.sol:gainZilla",
						"label": "_buyLiquidityFee",
						"offset": 0,
						"slot": "9",
						"type": "t_uint256"
					},
					{
						"astId": 790,
						"contract": "contracts/gainzilla.sol:gainZilla",
						"label": "_previousBuyLiquidityFee",
						"offset": 0,
						"slot": "10",
						"type": "t_uint256"
					},
					{
						"astId": 793,
						"contract": "contracts/gainzilla.sol:gainZilla",
						"label": "_buyEcosystemFee",
						"offset": 0,
						"slot": "11",
						"type": "t_uint256"
					},
					{
						"astId": 796,
						"contract": "contracts/gainzilla.sol:gainZilla",
						"label": "_previousBuyEcosystemFee",
						"offset": 0,
						"slot": "12",
						"type": "t_uint256"
					},
					{
						"astId": 799,
						"contract": "contracts/gainzilla.sol:gainZilla",
						"label": "_buyMarketingFee",
						"offset": 0,
						"slot": "13",
						"type": "t_uint256"
					},
					{
						"astId": 802,
						"contract": "contracts/gainzilla.sol:gainZilla",
						"label": "_previousBuyMarketingFee",
						"offset": 0,
						"slot": "14",
						"type": "t_uint256"
					},
					{
						"astId": 805,
						"contract": "contracts/gainzilla.sol:gainZilla",
						"label": "_buyTeamFee",
						"offset": 0,
						"slot": "15",
						"type": "t_uint256"
					},
					{
						"astId": 808,
						"contract": "contracts/gainzilla.sol:gainZilla",
						"label": "_previousBuyTeamFee",
						"offset": 0,
						"slot": "16",
						"type": "t_uint256"
					},
					{
						"astId": 811,
						"contract": "contracts/gainzilla.sol:gainZilla",
						"label": "_sellLiquidityFee",
						"offset": 0,
						"slot": "17",
						"type": "t_uint256"
					},
					{
						"astId": 814,
						"contract": "contracts/gainzilla.sol:gainZilla",
						"label": "_previousSellLiquidityFee",
						"offset": 0,
						"slot": "18",
						"type": "t_uint256"
					},
					{
						"astId": 817,
						"contract": "contracts/gainzilla.sol:gainZilla",
						"label": "_sellEcosystemFee",
						"offset": 0,
						"slot": "19",
						"type": "t_uint256"
					},
					{
						"astId": 820,
						"contract": "contracts/gainzilla.sol:gainZilla",
						"label": "_previousSellEcosystemFee",
						"offset": 0,
						"slot": "20",
						"type": "t_uint256"
					},
					{
						"astId": 823,
						"contract": "contracts/gainzilla.sol:gainZilla",
						"label": "_sellMarketingFee",
						"offset": 0,
						"slot": "21",
						"type": "t_uint256"
					},
					{
						"astId": 826,
						"contract": "contracts/gainzilla.sol:gainZilla",
						"label": "_previousSellMarketingFee",
						"offset": 0,
						"slot": "22",
						"type": "t_uint256"
					},
					{
						"astId": 829,
						"contract": "contracts/gainzilla.sol:gainZilla",
						"label": "_sellTeamFee",
						"offset": 0,
						"slot": "23",
						"type": "t_uint256"
					},
					{
						"astId": 832,
						"contract": "contracts/gainzilla.sol:gainZilla",
						"label": "_previousSellTeamFee",
						"offset": 0,
						"slot": "24",
						"type": "t_uint256"
					},
					{
						"astId": 835,
						"contract": "contracts/gainzilla.sol:gainZilla",
						"label": "transferFeeIncreaseFactor",
						"offset": 0,
						"slot": "25",
						"type": "t_uint256"
					},
					{
						"astId": 858,
						"contract": "contracts/gainzilla.sol:gainZilla",
						"label": "cooldown",
						"offset": 0,
						"slot": "26",
						"type": "t_struct(StrongHandsConfig)855_storage"
					},
					{
						"astId": 872,
						"contract": "contracts/gainzilla.sol:gainZilla",
						"label": "diamondFloor",
						"offset": 0,
						"slot": "28",
						"type": "t_struct(DiamondFloor)869_storage"
					},
					{
						"astId": 876,
						"contract": "contracts/gainzilla.sol:gainZilla",
						"label": "bots",
						"offset": 0,
						"slot": "32",
						"type": "t_mapping(t_address,t_bool)"
					},
					{
						"astId": 883,
						"contract": "contracts/gainzilla.sol:gainZilla",
						"label": "_marketingAddress",
						"offset": 0,
						"slot": "33",
						"type": "t_address_payable"
					},
					{
						"astId": 890,
						"contract": "contracts/gainzilla.sol:gainZilla",
						"label": "_teamAddress",
						"offset": 0,
						"slot": "34",
						"type": "t_address_payable"
					},
					{
						"astId": 897,
						"contract": "contracts/gainzilla.sol:gainZilla",
						"label": "_ecosystemAddress",
						"offset": 0,
						"slot": "35",
						"type": "t_address_payable"
					},
					{
						"astId": 904,
						"contract": "contracts/gainzilla.sol:gainZilla",
						"label": "_lpRecipient",
						"offset": 0,
						"slot": "36",
						"type": "t_address_payable"
					},
					{
						"astId": 907,
						"contract": "contracts/gainzilla.sol:gainZilla",
						"label": "uniswapV2Router",
						"offset": 0,
						"slot": "37",
						"type": "t_contract(IUniswapV2Router02)707"
					},
					{
						"astId": 909,
						"contract": "contracts/gainzilla.sol:gainZilla",
						"label": "uniswapV2Pair",
						"offset": 0,
						"slot": "38",
						"type": "t_address"
					},
					{
						"astId": 911,
						"contract": "contracts/gainzilla.sol:gainZilla",
						"label": "_maxTxAmount",
						"offset": 0,
						"slot": "39",
						"type": "t_uint256"
					},
					{
						"astId": 914,
						"contract": "contracts/gainzilla.sol:gainZilla",
						"label": "tradingOpen",
						"offset": 0,
						"slot": "40",
						"type": "t_bool"
					},
					{
						"astId": 917,
						"contract": "contracts/gainzilla.sol:gainZilla",
						"label": "inSwap",
						"offset": 1,
						"slot": "40",
						"type": "t_bool"
					},
					{
						"astId": 920,
						"contract": "contracts/gainzilla.sol:gainZilla",
						"label": "canPause",
						"offset": 2,
						"slot": "40",
						"type": "t_bool"
					},
					{
						"astId": 923,
						"contract": "contracts/gainzilla.sol:gainZilla",
						"label": "canBlackList",
						"offset": 3,
						"slot": "40",
						"type": "t_bool"
					},
					{
						"astId": 926,
						"contract": "contracts/gainzilla.sol:gainZilla",
						"label": "canChangeTax",
						"offset": 4,
						"slot": "40",
						"type": "t_bool"
					}
				],
				"types": {
					"t_address": {
						"encoding": "inplace",
						"label": "address",
						"numberOfBytes": "20"
					},
					"t_address_payable": {
						"encoding": "inplace",
						"label": "address payable",
						"numberOfBytes": "20"
					},
					"t_bool": {
						"encoding": "inplace",
						"label": "bool",
						"numberOfBytes": "1"
					},
					"t_contract(IUniswapV2Router02)707": {
						"encoding": "inplace",
						"label": "contract IUniswapV2Router02",
						"numberOfBytes": "20"
					},
					"t_mapping(t_address,t_bool)": {
						"encoding": "mapping",
						"key": "t_address",
						"label": "mapping(address => bool)",
						"numberOfBytes": "32",
						"value": "t_bool"
					},
					"t_mapping(t_address,t_mapping(t_address,t_uint256))": {
						"encoding": "mapping",
						"key": "t_address",
						"label": "mapping(address => mapping(address => uint256))",
						"numberOfBytes": "32",
						"value": "t_mapping(t_address,t_uint256)"
					},
					"t_mapping(t_address,t_uint256)": {
						"encoding": "mapping",
						"key": "t_address",
						"label": "mapping(address => uint256)",
						"numberOfBytes": "32",
						"value": "t_uint256"
					},
					"t_struct(DiamondFloor)869_storage": {
						"encoding": "inplace",
						"label": "struct gainZilla.DiamondFloor",
						"members": [
							{
								"astId": 860,
								"contract": "contracts/gainzilla.sol:gainZilla",
								"label": "enabled",
								"offset": 0,
								"slot": "0",
								"type": "t_bool"
							},
							{
								"astId": 862,
								"contract": "contracts/gainzilla.sol:gainZilla",
								"label": "triggerPercentage",
								"offset": 1,
								"slot": "0",
								"type": "t_uint16"
							},
							{
								"astId": 864,
								"contract": "contracts/gainzilla.sol:gainZilla",
								"label": "athPrice",
								"offset": 0,
								"slot": "1",
								"type": "t_uint256"
							},
							{
								"astId": 866,
								"contract": "contracts/gainzilla.sol:gainZilla",
								"label": "sellStopped",
								"offset": 0,
								"slot": "2",
								"type": "t_bool"
							},
							{
								"astId": 868,
								"contract": "contracts/gainzilla.sol:gainZilla",
								"label": "blockedAth",
								"offset": 0,
								"slot": "3",
								"type": "t_uint256"
							}
						],
						"numberOfBytes": "128"
					},
					"t_struct(StrongHandsConfig)855_storage": {
						"encoding": "inplace",
						"label": "struct gainZilla.StrongHandsConfig",
						"members": [
							{
								"astId": 848,
								"contract": "contracts/gainzilla.sol:gainZilla",
								"label": "enabled",
								"offset": 0,
								"slot": "0",
								"type": "t_bool"
							},
							{
								"astId": 850,
								"contract": "contracts/gainzilla.sol:gainZilla",
								"label": "duration",
								"offset": 1,
								"slot": "0",
								"type": "t_uint32"
							},
							{
								"astId": 854,
								"contract": "contracts/gainzilla.sol:gainZilla",
								"label": "walletList",
								"offset": 0,
								"slot": "1",
								"type": "t_mapping(t_address,t_uint256)"
							}
						],
						"numberOfBytes": "64"
					},
					"t_uint16": {
						"encoding": "inplace",
						"label": "uint16",
						"numberOfBytes": "2"
					},
					"t_uint256": {
						"encoding": "inplace",
						"label": "uint256",
						"numberOfBytes": "32"
					},
					"t_uint32": {
						"encoding": "inplace",
						"label": "uint32",
						"numberOfBytes": "4"
					}
				}
			},
			"userdoc": {
				"kind": "user",
				"methods": {},
				"version": 1
			}
		}
	}
}