{
	"contracts/reference.sol": {
		"gainZilla": {
			"abi": [
				{
					"inputs": [],
					"stateMutability": "nonpayable",
					"type": "constructor"
				},
				{
					"anonymous": false,
					"inputs": [
						{
							"indexed": true,
							"internalType": "address",
							"name": "owner",
							"type": "address"
						},
						{
							"indexed": true,
							"internalType": "address",
							"name": "spender",
							"type": "address"
						},
						{
							"indexed": false,
							"internalType": "uint256",
							"name": "value",
							"type": "uint256"
						}
					],
					"name": "Approval",
					"type": "event"
				},
				{
					"anonymous": false,
					"inputs": [
						{
							"indexed": false,
							"internalType": "uint256",
							"name": "_buyMarketingFee",
							"type": "uint256"
						},
						{
							"indexed": false,
							"internalType": "uint256",
							"name": "_buyLiquidityFee",
							"type": "uint256"
						},
						{
							"indexed": false,
							"internalType": "uint256",
							"name": "_buyTeamFee",
							"type": "uint256"
						},
						{
							"indexed": false,
							"internalType": "uint256",
							"name": "_buyEcosystemFee",
							"type": "uint256"
						}
					],
					"name": "BuyFeesUpdated",
					"type": "event"
				},
				{
					"anonymous": false,
					"inputs": [
						{
							"indexed": false,
							"internalType": "uint256",
							"name": "_maxTxAmount",
							"type": "uint256"
						}
					],
					"name": "MaxTxAmountUpdated",
					"type": "event"
				},
				{
					"anonymous": false,
					"inputs": [
						{
							"indexed": true,
							"internalType": "address",
							"name": "previousOwner",
							"type": "address"
						},
						{
							"indexed": true,
							"internalType": "address",
							"name": "newOwner",
							"type": "address"
						}
					],
					"name": "OwnershipTransferred",
					"type": "event"
				},
				{
					"anonymous": false,
					"inputs": [
						{
							"indexed": false,
							"internalType": "uint256",
							"name": "_sellMarketingFee",
							"type": "uint256"
						},
						{
							"indexed": false,
							"internalType": "uint256",
							"name": "_sellLiquidityFee",
							"type": "uint256"
						},
						{
							"indexed": false,
							"internalType": "uint256",
							"name": "_sellTeamFee",
							"type": "uint256"
						},
						{
							"indexed": false,
							"internalType": "uint256",
							"name": "_sellEcosystemFee",
							"type": "uint256"
						}
					],
					"name": "SellFeesUpdated",
					"type": "event"
				},
				{
					"anonymous": false,
					"inputs": [
						{
							"indexed": true,
							"internalType": "address",
							"name": "from",
							"type": "address"
						},
						{
							"indexed": true,
							"internalType": "address",
							"name": "to",
							"type": "address"
						},
						{
							"indexed": false,
							"internalType": "uint256",
							"name": "value",
							"type": "uint256"
						}
					],
					"name": "Transfer",
					"type": "event"
				},
				{
					"inputs": [],
					"name": "_buyEcosystemFee",
					"outputs": [
						{
							"internalType": "uint256",
							"name": "",
							"type": "uint256"
						}
					],
					"stateMutability": "view",
					"type": "function"
				},
				{
					"inputs": [],
					"name": "_buyLiquidityFee",
					"outputs": [
						{
							"internalType": "uint256",
							"name": "",
							"type": "uint256"
						}
					],
					"stateMutability": "view",
					"type": "function"
				},
				{
					"inputs": [],
					"name": "_buyMarketingFee",
					"outputs": [
						{
							"internalType": "uint256",
							"name": "",
							"type": "uint256"
						}
					],
					"stateMutability": "view",
					"type": "function"
				},
				{
					"inputs": [],
					"name": "_buyTeamFee",
					"outputs": [
						{
							"internalType": "uint256",
							"name": "",
							"type": "uint256"
						}
					],
					"stateMutability": "view",
					"type": "function"
				},
				{
					"inputs": [],
					"name": "_maxWalletAmount",
					"outputs": [
						{
							"internalType": "uint256",
							"name": "",
							"type": "uint256"
						}
					],
					"stateMutability": "view",
					"type": "function"
				},
				{
					"inputs": [],
					"name": "_sellEcosystemFee",
					"outputs": [
						{
							"internalType": "uint256",
							"name": "",
							"type": "uint256"
						}
					],
					"stateMutability": "view",
					"type": "function"
				},
				{
					"inputs": [],
					"name": "_sellLiquidityFee",
					"outputs": [
						{
							"internalType": "uint256",
							"name": "",
							"type": "uint256"
						}
					],
					"stateMutability": "view",
					"type": "function"
				},
				{
					"inputs": [],
					"name": "_sellMarketingFee",
					"outputs": [
						{
							"internalType": "uint256",
							"name": "",
							"type": "uint256"
						}
					],
					"stateMutability": "view",
					"type": "function"
				},
				{
					"inputs": [],
					"name": "_sellTeamFee",
					"outputs": [
						{
							"internalType": "uint256",
							"name": "",
							"type": "uint256"
						}
					],
					"stateMutability": "view",
					"type": "function"
				},
				{
					"inputs": [
						{
							"internalType": "address",
							"name": "account",
							"type": "address"
						}
					],
					"name": "addBot",
					"outputs": [],
					"stateMutability": "nonpayable",
					"type": "function"
				},
				{
					"inputs": [
						{
							"internalType": "address",
							"name": "owner",
							"type": "address"
						},
						{
							"internalType": "address",
							"name": "spender",
							"type": "address"
						}
					],
					"name": "allowance",
					"outputs": [
						{
							"internalType": "uint256",
							"name": "",
							"type": "uint256"
						}
					],
					"stateMutability": "view",
					"type": "function"
				},
				{
					"inputs": [
						{
							"internalType": "address",
							"name": "spender",
							"type": "address"
						},
						{
							"internalType": "uint256",
							"name": "amount",
							"type": "uint256"
						}
					],
					"name": "approve",
					"outputs": [
						{
							"internalType": "bool",
							"name": "",
							"type": "bool"
						}
					],
					"stateMutability": "nonpayable",
					"type": "function"
				},
				{
					"inputs": [
						{
							"internalType": "address",
							"name": "account",
							"type": "address"
						}
					],
					"name": "balanceOf",
					"outputs": [
						{
							"internalType": "uint256",
							"name": "",
							"type": "uint256"
						}
					],
					"stateMutability": "view",
					"type": "function"
				},
				{
					"inputs": [],
					"name": "canBlackList",
					"outputs": [
						{
							"internalType": "bool",
							"name": "",
							"type": "bool"
						}
					],
					"stateMutability": "view",
					"type": "function"
				},
				{
					"inputs": [],
					"name": "canChangeTax",
					"outputs": [
						{
							"internalType": "bool",
							"name": "",
							"type": "bool"
						}
					],
					"stateMutability": "view",
					"type": "function"
				},
				{
					"inputs": [],
					"name": "canPause",
					"outputs": [
						{
							"internalType": "bool",
							"name": "",
							"type": "bool"
						}
					],
					"stateMutability": "view",
					"type": "function"
				},
				{
					"inputs": [
						{
							"internalType": "bool",
							"name": "enabled",
							"type": "bool"
						},
						{
							"internalType": "uint32",
							"name": "duration",
							"type": "uint32"
						}
					],
					"name": "configureStrongHands",
					"outputs": [],
					"stateMutability": "nonpayable",
					"type": "function"
				},
				{
					"inputs": [],
					"name": "cooldown",
					"outputs": [
						{
							"internalType": "bool",
							"name": "enabled",
							"type": "bool"
						},
						{
							"internalType": "uint32",
							"name": "duration",
							"type": "uint32"
						}
					],
					"stateMutability": "view",
					"type": "function"
				},
				{
					"inputs": [
						{
							"internalType": "address",
							"name": "account",
							"type": "address"
						}
					],
					"name": "cooldownRemaining",
					"outputs": [
						{
							"internalType": "uint256",
							"name": "days_",
							"type": "uint256"
						},
						{
							"internalType": "uint256",
							"name": "hours_",
							"type": "uint256"
						},
						{
							"internalType": "uint256",
							"name": "minutes_",
							"type": "uint256"
						},
						{
							"internalType": "uint256",
							"name": "seconds_",
							"type": "uint256"
						}
					],
					"stateMutability": "view",
					"type": "function"
				},
				{
					"inputs": [],
					"name": "decimals",
					"outputs": [
						{
							"internalType": "uint8",
							"name": "",
							"type": "uint8"
						}
					],
					"stateMutability": "pure",
					"type": "function"
				},
				{
					"inputs": [],
					"name": "diamondFloor",
					"outputs": [
						{
							"internalType": "bool",
							"name": "enabled",
							"type": "bool"
						},
						{
							"internalType": "uint16",
							"name": "triggerPercentage",
							"type": "uint16"
						},
						{
							"internalType": "uint256",
							"name": "athPrice",
							"type": "uint256"
						},
						{
							"internalType": "bool",
							"name": "sellStopped",
							"type": "bool"
						},
						{
							"internalType": "uint256",
							"name": "blockedAth",
							"type": "uint256"
						}
					],
					"stateMutability": "view",
					"type": "function"
				},
				{
					"inputs": [],
					"name": "disableBlackListing",
					"outputs": [],
					"stateMutability": "nonpayable",
					"type": "function"
				},
				{
					"inputs": [],
					"name": "disablePauseAbility",
					"outputs": [],
					"stateMutability": "nonpayable",
					"type": "function"
				},
				{
					"inputs": [],
					"name": "disableTaxChange",
					"outputs": [],
					"stateMutability": "nonpayable",
					"type": "function"
				},
				{
					"inputs": [],
					"name": "disableToken",
					"outputs": [],
					"stateMutability": "nonpayable",
					"type": "function"
				},
				{
					"inputs": [],
					"name": "enableToken",
					"outputs": [],
					"stateMutability": "nonpayable",
					"type": "function"
				},
				{
					"inputs": [
						{
							"internalType": "address",
							"name": "account",
							"type": "address"
						}
					],
					"name": "excludeFromFee",
					"outputs": [],
					"stateMutability": "nonpayable",
					"type": "function"
				},
				{
					"inputs": [
						{
							"internalType": "address",
							"name": "account",
							"type": "address"
						}
					],
					"name": "includeInFee",
					"outputs": [],
					"stateMutability": "nonpayable",
					"type": "function"
				},
				{
					"inputs": [
						{
							"internalType": "address",
							"name": "account",
							"type": "address"
						}
					],
					"name": "isBot",
					"outputs": [
						{
							"internalType": "bool",
							"name": "",
							"type": "bool"
						}
					],
					"stateMutability": "view",
					"type": "function"
				},
				{
					"inputs": [
						{
							"internalType": "address",
							"name": "token",
							"type": "address"
						}
					],
					"name": "manualSendToken",
					"outputs": [],
					"stateMutability": "nonpayable",
					"type": "function"
				},
				{
					"inputs": [],
					"name": "manualsend",
					"outputs": [],
					"stateMutability": "nonpayable",
					"type": "function"
				},
				{
					"inputs": [],
					"name": "manualswap",
					"outputs": [],
					"stateMutability": "nonpayable",
					"type": "function"
				},
				{
					"inputs": [],
					"name": "name",
					"outputs": [
						{
							"internalType": "string",
							"name": "",
							"type": "string"
						}
					],
					"stateMutability": "pure",
					"type": "function"
				},
				{
					"inputs": [],
					"name": "numTokensToSwap",
					"outputs": [
						{
							"internalType": "uint256",
							"name": "",
							"type": "uint256"
						}
					],
					"stateMutability": "view",
					"type": "function"
				},
				{
					"inputs": [
						{
							"internalType": "uint256",
							"name": "botBlocks",
							"type": "uint256"
						}
					],
					"name": "openTrading",
					"outputs": [],
					"stateMutability": "nonpayable",
					"type": "function"
				},
				{
					"inputs": [],
					"name": "owner",
					"outputs": [
						{
							"internalType": "address",
							"name": "",
							"type": "address"
						}
					],
					"stateMutability": "view",
					"type": "function"
				},
				{
					"inputs": [],
					"name": "pairPrice",
					"outputs": [
						{
							"internalType": "uint256",
							"name": "",
							"type": "uint256"
						}
					],
					"stateMutability": "view",
					"type": "function"
				},
				{
					"inputs": [
						{
							"internalType": "address",
							"name": "account",
							"type": "address"
						}
					],
					"name": "removeBot",
					"outputs": [],
					"stateMutability": "nonpayable",
					"type": "function"
				},
				{
					"inputs": [],
					"name": "renounceOwnership",
					"outputs": [],
					"stateMutability": "nonpayable",
					"type": "function"
				},
				{
					"inputs": [
						{
							"internalType": "uint256",
							"name": "marketingFee",
							"type": "uint256"
						},
						{
							"internalType": "uint256",
							"name": "liquidityFee",
							"type": "uint256"
						},
						{
							"internalType": "uint256",
							"name": "teamFee",
							"type": "uint256"
						},
						{
							"internalType": "uint256",
							"name": "ecosystemFee",
							"type": "uint256"
						}
					],
					"name": "setBuyTaxes",
					"outputs": [],
					"stateMutability": "nonpayable",
					"type": "function"
				},
				{
					"inputs": [
						{
							"internalType": "uint256",
							"name": "maxWalletAmount",
							"type": "uint256"
						}
					],
					"name": "setMaxWalletAmount",
					"outputs": [],
					"stateMutability": "nonpayable",
					"type": "function"
				},
				{
					"inputs": [
						{
							"internalType": "uint256",
							"name": "marketingFee",
							"type": "uint256"
						},
						{
							"internalType": "uint256",
							"name": "liquidityFee",
							"type": "uint256"
						},
						{
							"internalType": "uint256",
							"name": "teamFee",
							"type": "uint256"
						},
						{
							"internalType": "uint256",
							"name": "ecosystemFee",
							"type": "uint256"
						}
					],
					"name": "setSellTaxes",
					"outputs": [],
					"stateMutability": "nonpayable",
					"type": "function"
				},
				{
					"inputs": [
						{
							"internalType": "uint256",
							"name": "_multiplier",
							"type": "uint256"
						}
					],
					"name": "setTransferTransactionMultiplier",
					"outputs": [],
					"stateMutability": "nonpayable",
					"type": "function"
				},
				{
					"inputs": [],
					"name": "symbol",
					"outputs": [
						{
							"internalType": "string",
							"name": "",
							"type": "string"
						}
					],
					"stateMutability": "pure",
					"type": "function"
				},
				{
					"inputs": [],
					"name": "totalSupply",
					"outputs": [
						{
							"internalType": "uint256",
							"name": "",
							"type": "uint256"
						}
					],
					"stateMutability": "pure",
					"type": "function"
				},
				{
					"inputs": [],
					"name": "tradingOpen",
					"outputs": [
						{
							"internalType": "bool",
							"name": "",
							"type": "bool"
						}
					],
					"stateMutability": "view",
					"type": "function"
				},
				{
					"inputs": [
						{
							"internalType": "address",
							"name": "recipient",
							"type": "address"
						},
						{
							"internalType": "uint256",
							"name": "amount",
							"type": "uint256"
						}
					],
					"name": "transfer",
					"outputs": [
						{
							"internalType": "bool",
							"name": "",
							"type": "bool"
						}
					],
					"stateMutability": "nonpayable",
					"type": "function"
				},
				{
					"inputs": [],
					"name": "transferFeeIncreaseFactor",
					"outputs": [
						{
							"internalType": "uint256",
							"name": "",
							"type": "uint256"
						}
					],
					"stateMutability": "view",
					"type": "function"
				},
				{
					"inputs": [
						{
							"internalType": "address",
							"name": "sender",
							"type": "address"
						},
						{
							"internalType": "address",
							"name": "recipient",
							"type": "address"
						},
						{
							"internalType": "uint256",
							"name": "amount",
							"type": "uint256"
						}
					],
					"name": "transferFrom",
					"outputs": [
						{
							"internalType": "bool",
							"name": "",
							"type": "bool"
						}
					],
					"stateMutability": "nonpayable",
					"type": "function"
				},
				{
					"inputs": [
						{
							"internalType": "address",
							"name": "newOwner",
							"type": "address"
						}
					],
					"name": "transferOwnership",
					"outputs": [],
					"stateMutability": "nonpayable",
					"type": "function"
				},
				{
					"inputs": [],
					"name": "uniswapV2Pair",
					"outputs": [
						{
							"internalType": "address",
							"name": "",
							"type": "address"
						}
					],
					"stateMutability": "view",
					"type": "function"
				},
				{
					"inputs": [
						{
							"internalType": "address payable",
							"name": "ecosystemAddress",
							"type": "address"
						}
					],
					"name": "updateEcosystemAddress",
					"outputs": [],
					"stateMutability": "nonpayable",
					"type": "function"
				},
				{
					"inputs": [
						{
							"internalType": "address payable",
							"name": "lpRecipient",
							"type": "address"
						}
					],
					"name": "updateLpRecipient",
					"outputs": [],
					"stateMutability": "nonpayable",
					"type": "function"
				},
				{
					"inputs": [
						{
							"internalType": "address payable",
							"name": "marketingAddress",
							"type": "address"
						}
					],
					"name": "updateMarketingAddress",
					"outputs": [],
					"stateMutability": "nonpayable",
					"type": "function"
				},
				{
					"inputs": [
						{
							"internalType": "uint256",
							"name": "numTokens",
							"type": "uint256"
						}
					],
					"name": "updateNumTokensToSwap",
					"outputs": [],
					"stateMutability": "nonpayable",
					"type": "function"
				},
				{
					"inputs": [
						{
							"internalType": "address payable",
							"name": "teamAddress",
							"type": "address"
						}
					],
					"name": "updateTeamAddress",
					"outputs": [],
					"stateMutability": "nonpayable",
					"type": "function"
				},
				{
					"stateMutability": "payable",
					"type": "receive"
				}
			],
			"devdoc": {
				"kind": "dev",
				"methods": {
					"transferOwnership(address)": {
						"details": "Transfers ownership of the contract to a new account (`newOwner`). Can only be called by the current owner."
					}
				},
				"version": 1
			},
			"evm": {
				"assembly": "    /* \"contracts/reference.sol\":8181:29342  contract gainZilla is Context, IERC20, IERC20Extented, Ownable {... */\n  mstore(0x40, 0x80)\n    /* \"contracts/reference.sol\":8780:8796  10000001 * 10**9 */\n  0x2386f2ab5bca00\n    /* \"contracts/reference.sol\":8746:8796  uint256 public _maxWalletAmount = 10000001 * 10**9 */\n  0x07\n  sstore\n    /* \"contracts/reference.sol\":8835:8850  1000000 * 10**9 */\n  0x038d7ea4c68000\n    /* \"contracts/reference.sol\":8802:8850  uint256 public numTokensToSwap = 1000000 * 10**9 */\n  0x08\n  sstore\n  0x00\n    /* \"contracts/reference.sol\":8912:8947  uint256 public _buyLiquidityFee = 0 */\n  0x09\n  dup2\n  swap1\n  sstore\n    /* \"contracts/reference.sol\":8972:9031  uint256 private _previousBuyLiquidityFee = _buyLiquidityFee */\n  0x0a\n  dup2\n  swap1\n  sstore\n    /* \"contracts/reference.sol\":9037:9072  uint256 public _buyEcosystemFee = 0 */\n  0x0b\n  dup2\n  swap1\n  sstore\n    /* \"contracts/reference.sol\":9097:9156  uint256 private _previousBuyEcosystemFee = _buyEcosystemFee */\n  0x0c\n  dup2\n  swap1\n  sstore\n    /* \"contracts/reference.sol\":9162:9197  uint256 public _buyMarketingFee = 0 */\n  0x0d\n  dup2\n  swap1\n  sstore\n    /* \"contracts/reference.sol\":9222:9281  uint256 private _previousBuyMarketingFee = _buyMarketingFee */\n  0x0e\n  dup2\n  swap1\n  sstore\n    /* \"contracts/reference.sol\":9287:9317  uint256 public _buyTeamFee = 0 */\n  0x0f\n  dup2\n  swap1\n  sstore\n    /* \"contracts/reference.sol\":9342:9391  uint256 private _previousBuyTeamFee = _buyTeamFee */\n  0x10\n  dup2\n  swap1\n  sstore\n    /* \"contracts/reference.sol\":9415:9451  uint256 public _sellLiquidityFee = 0 */\n  0x11\n  dup2\n  swap1\n  sstore\n    /* \"contracts/reference.sol\":9476:9537  uint256 private _previousSellLiquidityFee = _sellLiquidityFee */\n  0x12\n  dup2\n  swap1\n  sstore\n    /* \"contracts/reference.sol\":9543:9579  uint256 public _sellEcosystemFee = 0 */\n  0x13\n  dup2\n  swap1\n  sstore\n    /* \"contracts/reference.sol\":9604:9665  uint256 private _previousSellEcosystemFee = _sellEcosystemFee */\n  0x14\n  dup2\n  swap1\n  sstore\n    /* \"contracts/reference.sol\":9671:9707  uint256 public _sellMarketingFee = 0 */\n  0x15\n  dup2\n  swap1\n  sstore\n    /* \"contracts/reference.sol\":9732:9793  uint256 private _previousSellMarketingFee = _sellMarketingFee */\n  0x16\n  dup2\n  swap1\n  sstore\n    /* \"contracts/reference.sol\":9799:9830  uint256 public _sellTeamFee = 0 */\n  0x17\n  dup2\n  swap1\n  sstore\n    /* \"contracts/reference.sol\":9855:9906  uint256 private _previousSellTeamFee = _sellTeamFee */\n  0x18\n  dup2\n  swap1\n  sstore\n    /* \"contracts/reference.sol\":9912:9956  uint256 public transferFeeIncreaseFactor = 0 */\n  0x19\n  sstore\n    /* \"contracts/reference.sol\":10568:10663  address payable private _marketingAddress = payable(0x000000000000000000000000000000000000dEaD) */\n  0x21\n  dup1\n  sload\n    /* \"contracts/reference.sol\":10620:10662  0x000000000000000000000000000000000000dEaD */\n  0xdead\n  not(sub(shl(0xa0, 0x01), 0x01))\n    /* \"contracts/reference.sol\":10568:10663  address payable private _marketingAddress = payable(0x000000000000000000000000000000000000dEaD) */\n  swap2\n  dup3\n  and\n  dup2\n  or\n  swap1\n  swap3\n  sstore\n    /* \"contracts/reference.sol\":10669:10759  address payable private _teamAddress = payable(0x000000000000000000000000000000000000dEaD) */\n  0x22\n  dup1\n  sload\n  dup3\n  and\n  dup4\n  or\n  swap1\n  sstore\n    /* \"contracts/reference.sol\":10765:10860  address payable private _ecosystemAddress = payable(0x000000000000000000000000000000000000dEaD) */\n  0x23\n  dup1\n  sload\n  dup3\n  and\n  dup4\n  or\n  swap1\n  sstore\n    /* \"contracts/reference.sol\":10866:10956  address payable private _lpRecipient = payable(0x000000000000000000000000000000000000dEaD) */\n  0x24\n  dup1\n  sload\n  swap1\n  swap2\n  and\n  swap1\n  swap2\n  or\n  swap1\n  sstore\n    /* \"contracts/reference.sol\":11079:11110  bool public tradingOpen = false */\n  0x28\n  dup1\n  sload\n  not(0xffffffffff)\n    /* \"contracts/reference.sol\":11219:11250  bool public canChangeTax = true */\n  and\n  0x0101010000\n  or\n  swap1\n  sstore\n    /* \"contracts/reference.sol\":11656:12432  constructor() {... */\n  callvalue\n  dup1\n  iszero\n  tag_1\n  jumpi\n  0x00\n  dup1\n  revert\ntag_1:\n  pop\n    /* \"contracts/reference.sol\":2823:2840  address msgSender */\n  0x00\n    /* \"contracts/reference.sol\":2865:2883  _owner = msgSender */\n  dup1\n  sload\n  not(sub(shl(0xa0, 0x01), 0x01))\n  and\n    /* \"contracts/reference.sol\":818:828  msg.sender */\n  caller\n    /* \"contracts/reference.sol\":2865:2883  _owner = msgSender */\n  swap1\n  dup2\n  or\n  dup3\n  sstore\n    /* \"contracts/reference.sol\":2898:2941  OwnershipTransferred(address(0), msgSender) */\n  mload(0x40)\n    /* \"contracts/reference.sol\":818:828  msg.sender */\n  swap1\n  swap2\n  dup3\n  swap2\n    /* \"contracts/reference.sol\":2898:2941  OwnershipTransferred(address(0), msgSender) */\n  0x8be0079c531659141344cd1fd0a4f28419497f9722a3daafe3b4186f6b6457e0\n  swap1\n    /* \"contracts/reference.sol\":2823:2840  address msgSender */\n  dup3\n  swap1\n    /* \"contracts/reference.sol\":2898:2941  OwnershipTransferred(address(0), msgSender) */\n  log3\n  pop\n    /* \"contracts/reference.sol\":11790:11805  uniswapV2Router */\n  0x25\n    /* \"contracts/reference.sol\":11790:11824  uniswapV2Router = _uniswapV2Router */\n  dup1\n  sload\n  not(sub(shl(0xa0, 0x01), 0x01))\n  and\n    /* \"contracts/reference.sol\":11737:11779  0x10ED43C718714eb63d5aA57B78B54704E256024E */\n  0x10ed43c718714eb63d5aa57b78b54704e256024e\n    /* \"contracts/reference.sol\":11790:11824  uniswapV2Router = _uniswapV2Router */\n  swap1\n  dup2\n  or\n  swap1\n  swap2\n  sstore\n    /* \"contracts/reference.sol\":11834:11892  _approve(address(this), address(uniswapV2Router), _tTotal) */\n  tag_8\n    /* \"contracts/reference.sol\":11851:11855  this */\n  address\n    /* \"contracts/reference.sol\":11737:11779  0x10ED43C718714eb63d5aA57B78B54704E256024E */\n  dup3\n    /* \"contracts/reference.sol\":8637:8655  1000000000 * 10**9 */\n  0x0de0b6b3a7640000\n    /* \"contracts/reference.sol\":11834:11842  _approve */\n  tag_9\n    /* \"contracts/reference.sol\":11834:11892  _approve(address(this), address(uniswapV2Router), _tTotal) */\n  jump\t// in\ntag_8:\n    /* \"contracts/reference.sol\":11936:11952  _uniswapV2Router */\n  dup1\n  sub(shl(0xa0, 0x01), 0x01)\n    /* \"contracts/reference.sol\":11936:11960  _uniswapV2Router.factory */\n  and\n  0xc45a0155\n    /* \"contracts/reference.sol\":11936:11962  _uniswapV2Router.factory() */\n  mload(0x40)\n  dup2\n  0xffffffff\n  and\n  0xe0\n  shl\n  dup2\n  mstore\n  0x04\n  add\n  0x20\n  mload(0x40)\n  dup1\n  dup4\n  sub\n  dup2\n  dup7\n  dup1\n  extcodesize\n  iszero\n  dup1\n  iszero\n  tag_10\n  jumpi\n  0x00\n  dup1\n  revert\ntag_10:\n  pop\n  gas\n  staticcall\n  iszero\n  dup1\n  iszero\n  tag_12\n  jumpi\n  returndatasize\n  0x00\n  dup1\n  returndatacopy\n  revert(0x00, returndatasize)\ntag_12:\n  pop\n  pop\n  pop\n  pop\n  mload(0x40)\n  returndatasize\n  not(0x1f)\n  0x1f\n  dup3\n  add\n  and\n  dup3\n  add\n  dup1\n  0x40\n  mstore\n  pop\n  dup2\n  add\n  swap1\n  tag_13\n  swap2\n  swap1\n  tag_14\n  jump\t// in\ntag_13:\n  sub(shl(0xa0, 0x01), 0x01)\n    /* \"contracts/reference.sol\":11918:11974  IUniswapV2Factory(_uniswapV2Router.factory()).createPair */\n  and\n  0xc9c65396\n    /* \"contracts/reference.sol\":11983:11987  this */\n  address\n    /* \"contracts/reference.sol\":11990:12006  _uniswapV2Router */\n  dup4\n  sub(shl(0xa0, 0x01), 0x01)\n    /* \"contracts/reference.sol\":11990:12011  _uniswapV2Router.WETH */\n  and\n  0xad5c4648\n    /* \"contracts/reference.sol\":11990:12013  _uniswapV2Router.WETH() */\n  mload(0x40)\n  dup2\n  0xffffffff\n  and\n  0xe0\n  shl\n  dup2\n  mstore\n  0x04\n  add\n  0x20\n  mload(0x40)\n  dup1\n  dup4\n  sub\n  dup2\n  dup7\n  dup1\n  extcodesize\n  iszero\n  dup1\n  iszero\n  tag_15\n  jumpi\n  0x00\n  dup1\n  revert\ntag_15:\n  pop\n  gas\n  staticcall\n  iszero\n  dup1\n  iszero\n  tag_17\n  jumpi\n  returndatasize\n  0x00\n  dup1\n  returndatacopy\n  revert(0x00, returndatasize)\ntag_17:\n  pop\n  pop\n  pop\n  pop\n  mload(0x40)\n  returndatasize\n  not(0x1f)\n  0x1f\n  dup3\n  add\n  and\n  dup3\n  add\n  dup1\n  0x40\n  mstore\n  pop\n  dup2\n  add\n  swap1\n  tag_18\n  swap2\n  swap1\n  tag_14\n  jump\t// in\ntag_18:\n    /* \"contracts/reference.sol\":11918:12014  IUniswapV2Factory(_uniswapV2Router.factory()).createPair(address(this), _uniswapV2Router.WETH()) */\n  mload(0x40)\n  not(sub(shl(0xe0, 0x01), 0x01))\n  0xe0\n  dup6\n  swap1\n  shl\n  and\n  dup2\n  mstore\n  sub(shl(0xa0, 0x01), 0x01)\n    /* \"#utility.yul\":861:876   */\n  swap3\n  dup4\n  and\n    /* \"contracts/reference.sol\":11918:12014  IUniswapV2Factory(_uniswapV2Router.factory()).createPair(address(this), _uniswapV2Router.WETH()) */\n  0x04\n  dup3\n  add\n    /* \"#utility.yul\":843:877   */\n  mstore\n    /* \"#utility.yul\":913:928   */\n  swap2\n  and\n    /* \"#utility.yul\":893:911   */\n  0x24\n  dup3\n  add\n    /* \"#utility.yul\":886:929   */\n  mstore\n    /* \"#utility.yul\":778:796   */\n  0x44\n  add\n    /* \"contracts/reference.sol\":11918:12014  IUniswapV2Factory(_uniswapV2Router.factory()).createPair(address(this), _uniswapV2Router.WETH()) */\n  0x20\n  mload(0x40)\n  dup1\n  dup4\n  sub\n  dup2\n  0x00\n  dup8\n  dup1\n  extcodesize\n  iszero\n  dup1\n  iszero\n  tag_21\n  jumpi\n  0x00\n  dup1\n  revert\ntag_21:\n  pop\n  gas\n  call\n  iszero\n  dup1\n  iszero\n  tag_23\n  jumpi\n  returndatasize\n  0x00\n  dup1\n  returndatacopy\n  revert(0x00, returndatasize)\ntag_23:\n  pop\n  pop\n  pop\n  pop\n  mload(0x40)\n  returndatasize\n  not(0x1f)\n  0x1f\n  dup3\n  add\n  and\n  dup3\n  add\n  dup1\n  0x40\n  mstore\n  pop\n  dup2\n  add\n  swap1\n  tag_24\n  swap2\n  swap1\n  tag_14\n  jump\t// in\ntag_24:\n    /* \"contracts/reference.sol\":11902:11915  uniswapV2Pair */\n  0x26\n    /* \"contracts/reference.sol\":11902:12014  uniswapV2Pair = IUniswapV2Factory(_uniswapV2Router.factory()).createPair(address(this), _uniswapV2Router.WETH()) */\n  dup1\n  sload\n  not(sub(shl(0xa0, 0x01), 0x01))\n  and\n  sub(shl(0xa0, 0x01), 0x01)\n  swap3\n  dup4\n  and\n  swap1\n  dup2\n  or\n  swap1\n  swap2\n  sstore\n    /* \"contracts/reference.sol\":12062:12077  uniswapV2Router */\n  sload(0x25)\n    /* \"contracts/reference.sol\":12024:12097  IERC20(uniswapV2Pair).approve(address(uniswapV2Router),type(uint256).max) */\n  mload(0x40)\n  shl(0xe0, 0x095ea7b3)\n  dup2\n  mstore\n    /* \"contracts/reference.sol\":12062:12077  uniswapV2Router */\n  swap3\n  and\n    /* \"contracts/reference.sol\":12024:12097  IERC20(uniswapV2Pair).approve(address(uniswapV2Router),type(uint256).max) */\n  0x04\n  dup4\n  add\n    /* \"#utility.yul\":1114:1165   */\n  mstore\n  not(0x00)\n    /* \"#utility.yul\":1181:1199   */\n  0x24\n  dup4\n  add\n    /* \"#utility.yul\":1174:1208   */\n  mstore\n    /* \"contracts/reference.sol\":11902:12014  uniswapV2Pair = IUniswapV2Factory(_uniswapV2Router.factory()).createPair(address(this), _uniswapV2Router.WETH()) */\n  swap1\n    /* \"contracts/reference.sol\":12024:12053  IERC20(uniswapV2Pair).approve */\n  0x095ea7b3\n  swap1\n    /* \"#utility.yul\":1087:1105   */\n  0x44\n  add\n    /* \"contracts/reference.sol\":12024:12097  IERC20(uniswapV2Pair).approve(address(uniswapV2Router),type(uint256).max) */\n  0x20\n  mload(0x40)\n  dup1\n  dup4\n  sub\n  dup2\n  0x00\n  dup8\n  dup1\n  extcodesize\n  iszero\n  dup1\n  iszero\n  tag_27\n  jumpi\n  0x00\n  dup1\n  revert\ntag_27:\n  pop\n  gas\n  call\n  iszero\n  dup1\n  iszero\n  tag_29\n  jumpi\n  returndatasize\n  0x00\n  dup1\n  returndatacopy\n  revert(0x00, returndatasize)\ntag_29:\n  pop\n  pop\n  pop\n  pop\n  mload(0x40)\n  returndatasize\n  not(0x1f)\n  0x1f\n  dup3\n  add\n  and\n  dup3\n  add\n  dup1\n  0x40\n  mstore\n  pop\n  dup2\n  add\n  swap1\n  tag_30\n  swap2\n  swap1\n  tag_31\n  jump\t// in\ntag_30:\n  pop\n    /* \"contracts/reference.sol\":8637:8655  1000000000 * 10**9 */\n  0x0de0b6b3a7640000\n    /* \"contracts/reference.sol\":12108:12120  _maxTxAmount */\n  0x27\n    /* \"contracts/reference.sol\":12108:12130  _maxTxAmount = _tTotal */\n  dup2\n  swap1\n  sstore\n    /* \"contracts/reference.sol\":12195:12211  _maxWalletAmount */\n  0x07\n    /* \"contracts/reference.sol\":12195:12221  _maxWalletAmount = _tTotal */\n  dup2\n  swap1\n  sstore\n    /* \"contracts/reference.sol\":818:828  msg.sender */\n  caller\n  0x00\n    /* \"contracts/reference.sol\":12240:12263  _balances[_msgSender()] */\n  dup2\n  dup2\n  mstore\n    /* \"contracts/reference.sol\":12240:12249  _balances */\n  0x02\n  0x20\n    /* \"contracts/reference.sol\":12240:12263  _balances[_msgSender()] */\n  swap1\n  dup2\n  mstore\n  0x40\n  dup1\n  dup4\n  keccak256\n    /* \"contracts/reference.sol\":12240:12273  _balances[_msgSender()] = _tTotal */\n  dup6\n  swap1\n  sstore\n    /* \"contracts/reference.sol\":3018:3024  _owner */\n  dup3\n  sload\n  sub(shl(0xa0, 0x01), 0x01)\n  and\n    /* \"contracts/reference.sol\":12283:12310  _isExcludedFromFee[owner()] */\n  dup4\n  mstore\n    /* \"contracts/reference.sol\":12283:12301  _isExcludedFromFee */\n  0x04\n    /* \"contracts/reference.sol\":12283:12310  _isExcludedFromFee[owner()] */\n  dup3\n  mstore\n  dup1\n  dup4\n  keccak256\n    /* \"contracts/reference.sol\":12283:12317  _isExcludedFromFee[owner()] = true */\n  dup1\n  sload\n    /* \"contracts/reference.sol\":12313:12317  true */\n  0x01\n  not(0xff)\n    /* \"contracts/reference.sol\":12283:12317  _isExcludedFromFee[owner()] = true */\n  swap2\n  dup3\n  and\n  dup2\n  or\n  swap1\n  swap3\n  sstore\n    /* \"contracts/reference.sol\":12354:12358  this */\n  address\n    /* \"contracts/reference.sol\":12327:12360  _isExcludedFromFee[address(this)] */\n  dup6\n  mstore\n  dup3\n  dup6\n  keccak256\n    /* \"contracts/reference.sol\":12327:12367  _isExcludedFromFee[address(this)] = true */\n  dup1\n  sload\n  swap1\n  swap2\n  and\n  swap1\n  swap2\n  or\n  swap1\n  sstore\n    /* \"contracts/reference.sol\":12382:12425  Transfer(address(0), _msgSender(), _tTotal) */\n  mload\n    /* \"#utility.yul\":2173:2198   */\n  swap4\n  dup5\n  mstore\n    /* \"contracts/reference.sol\":818:828  msg.sender */\n  swap2\n  swap3\n  swap1\n  swap2\n    /* \"contracts/reference.sol\":12382:12425  Transfer(address(0), _msgSender(), _tTotal) */\n  0xddf252ad1be2c89b69c2b068fc378daa952ba7f163c4a11628f55a4df523b3ef\n  swap2\n    /* \"#utility.yul\":2146:2164   */\n  add\n    /* \"contracts/reference.sol\":12382:12425  Transfer(address(0), _msgSender(), _tTotal) */\n  mload(0x40)\n  dup1\n  swap2\n  sub\n  swap1\n  log3\n    /* \"contracts/reference.sol\":11656:12432  constructor() {... */\n  pop\n    /* \"contracts/reference.sol\":8181:29342  contract gainZilla is Context, IERC20, IERC20Extented, Ownable {... */\n  jump(tag_49)\n    /* \"contracts/reference.sol\":15040:15370  function _approve(address owner, address spender, uint256 amount) private {... */\ntag_9:\n  sub(shl(0xa0, 0x01), 0x01)\n    /* \"contracts/reference.sol\":15132:15151  owner != address(0) */\n  dup4\n  and\n    /* \"contracts/reference.sol\":15124:15192  require(owner != address(0), \"ERC20: approve from the zero address\") */\n  tag_41\n  jumpi\n  mload(0x40)\n  shl(0xe5, 0x461bcd)\n  dup2\n  mstore\n    /* \"#utility.yul\":1824:1826   */\n  0x20\n    /* \"contracts/reference.sol\":15124:15192  require(owner != address(0), \"ERC20: approve from the zero address\") */\n  0x04\n  dup3\n  add\n    /* \"#utility.yul\":1806:1827   */\n  mstore\n    /* \"#utility.yul\":1863:1865   */\n  0x24\n    /* \"#utility.yul\":1843:1861   */\n  dup1\n  dup3\n  add\n    /* \"#utility.yul\":1836:1866   */\n  mstore\n    /* \"#utility.yul\":1902:1936   */\n  0x45524332303a20617070726f76652066726f6d20746865207a65726f20616464\n    /* \"#utility.yul\":1882:1900   */\n  0x44\n  dup3\n  add\n    /* \"#utility.yul\":1875:1937   */\n  mstore\n  shl(0xe0, 0x72657373)\n    /* \"#utility.yul\":1953:1971   */\n  0x64\n  dup3\n  add\n    /* \"#utility.yul\":1946:1980   */\n  mstore\n    /* \"#utility.yul\":1997:2016   */\n  0x84\n  add\n    /* \"contracts/reference.sol\":15124:15192  require(owner != address(0), \"ERC20: approve from the zero address\") */\ntag_42:\n  mload(0x40)\n  dup1\n  swap2\n  sub\n  swap1\n  revert\ntag_41:\n  sub(shl(0xa0, 0x01), 0x01)\n    /* \"contracts/reference.sol\":15210:15231  spender != address(0) */\n  dup3\n  and\n    /* \"contracts/reference.sol\":15202:15270  require(spender != address(0), \"ERC20: approve to the zero address\") */\n  tag_44\n  jumpi\n  mload(0x40)\n  shl(0xe5, 0x461bcd)\n  dup2\n  mstore\n    /* \"#utility.yul\":1421:1423   */\n  0x20\n    /* \"contracts/reference.sol\":15202:15270  require(spender != address(0), \"ERC20: approve to the zero address\") */\n  0x04\n  dup3\n  add\n    /* \"#utility.yul\":1403:1424   */\n  mstore\n    /* \"#utility.yul\":1460:1462   */\n  0x22\n    /* \"#utility.yul\":1440:1458   */\n  0x24\n  dup3\n  add\n    /* \"#utility.yul\":1433:1463   */\n  mstore\n    /* \"#utility.yul\":1499:1533   */\n  0x45524332303a20617070726f766520746f20746865207a65726f206164647265\n    /* \"#utility.yul\":1479:1497   */\n  0x44\n  dup3\n  add\n    /* \"#utility.yul\":1472:1534   */\n  mstore\n  shl(0xf0, 0x7373)\n    /* \"#utility.yul\":1550:1568   */\n  0x64\n  dup3\n  add\n    /* \"#utility.yul\":1543:1575   */\n  mstore\n    /* \"#utility.yul\":1592:1611   */\n  0x84\n  add\n    /* \"contracts/reference.sol\":15202:15270  require(spender != address(0), \"ERC20: approve to the zero address\") */\n  tag_42\n    /* \"#utility.yul\":1393:1617   */\n  jump\n    /* \"contracts/reference.sol\":15202:15270  require(spender != address(0), \"ERC20: approve to the zero address\") */\ntag_44:\n  sub(shl(0xa0, 0x01), 0x01)\n    /* \"contracts/reference.sol\":15280:15298  _allowances[owner] */\n  dup4\n  dup2\n  and\n  0x00\n  dup2\n  dup2\n  mstore\n    /* \"contracts/reference.sol\":15280:15291  _allowances */\n  0x03\n    /* \"contracts/reference.sol\":15280:15298  _allowances[owner] */\n  0x20\n  swap1\n  dup2\n  mstore\n  0x40\n  dup1\n  dup4\n  keccak256\n    /* \"contracts/reference.sol\":15280:15307  _allowances[owner][spender] */\n  swap5\n  dup8\n  and\n  dup1\n  dup5\n  mstore\n  swap5\n  dup3\n  mstore\n  swap2\n  dup3\n  swap1\n  keccak256\n    /* \"contracts/reference.sol\":15280:15316  _allowances[owner][spender] = amount */\n  dup6\n  swap1\n  sstore\n    /* \"contracts/reference.sol\":15331:15363  Approval(owner, spender, amount) */\n  swap1\n  mload\n    /* \"#utility.yul\":2173:2198   */\n  dup5\n  dup2\n  mstore\n    /* \"contracts/reference.sol\":15331:15363  Approval(owner, spender, amount) */\n  0x8c5be1e5ebec7d5bd14f71427d1e84f3dd0314c0f7b2291e5b200ac8c7c3b925\n  swap2\n    /* \"#utility.yul\":2146:2164   */\n  add\n    /* \"contracts/reference.sol\":15331:15363  Approval(owner, spender, amount) */\n  mload(0x40)\n  dup1\n  swap2\n  sub\n  swap1\n  log3\n    /* \"contracts/reference.sol\":15040:15370  function _approve(address owner, address spender, uint256 amount) private {... */\n  pop\n  pop\n  pop\n  jump\t// out\n    /* \"#utility.yul\":14:324   */\ntag_14:\n    /* \"#utility.yul\":84:90   */\n  0x00\n    /* \"#utility.yul\":137:139   */\n  0x20\n    /* \"#utility.yul\":125:134   */\n  dup3\n    /* \"#utility.yul\":116:123   */\n  dup5\n    /* \"#utility.yul\":112:135   */\n  sub\n    /* \"#utility.yul\":108:140   */\n  slt\n    /* \"#utility.yul\":105:107   */\n  iszero\n  tag_51\n  jumpi\n    /* \"#utility.yul\":158:164   */\n  dup1\n    /* \"#utility.yul\":150:156   */\n  dup2\n    /* \"#utility.yul\":143:165   */\n  revert\n    /* \"#utility.yul\":105:107   */\ntag_51:\n    /* \"#utility.yul\":189:205   */\n  dup2\n  mload\n  sub(shl(0xa0, 0x01), 0x01)\n    /* \"#utility.yul\":234:265   */\n  dup2\n  and\n    /* \"#utility.yul\":224:266   */\n  dup2\n  eq\n    /* \"#utility.yul\":214:216   */\n  tag_52\n  jumpi\n    /* \"#utility.yul\":285:291   */\n  dup2\n    /* \"#utility.yul\":277:283   */\n  dup3\n    /* \"#utility.yul\":270:292   */\n  revert\n    /* \"#utility.yul\":214:216   */\ntag_52:\n    /* \"#utility.yul\":313:318   */\n  swap4\n    /* \"#utility.yul\":95:324   */\n  swap3\n  pop\n  pop\n  pop\n  jump\t// out\n    /* \"#utility.yul\":329:626   */\ntag_31:\n    /* \"#utility.yul\":396:402   */\n  0x00\n    /* \"#utility.yul\":449:451   */\n  0x20\n    /* \"#utility.yul\":437:446   */\n  dup3\n    /* \"#utility.yul\":428:435   */\n  dup5\n    /* \"#utility.yul\":424:447   */\n  sub\n    /* \"#utility.yul\":420:452   */\n  slt\n    /* \"#utility.yul\":417:419   */\n  iszero\n  tag_54\n  jumpi\n    /* \"#utility.yul\":470:476   */\n  dup1\n    /* \"#utility.yul\":462:468   */\n  dup2\n    /* \"#utility.yul\":455:477   */\n  revert\n    /* \"#utility.yul\":417:419   */\ntag_54:\n    /* \"#utility.yul\":507:516   */\n  dup2\n    /* \"#utility.yul\":501:517   */\n  mload\n    /* \"#utility.yul\":560:565   */\n  dup1\n    /* \"#utility.yul\":553:566   */\n  iszero\n    /* \"#utility.yul\":546:567   */\n  iszero\n    /* \"#utility.yul\":539:544   */\n  dup2\n    /* \"#utility.yul\":536:568   */\n  eq\n    /* \"#utility.yul\":526:528   */\n  tag_52\n  jumpi\n    /* \"#utility.yul\":587:593   */\n  dup2\n    /* \"#utility.yul\":579:585   */\n  dup3\n    /* \"#utility.yul\":572:594   */\n  revert\n    /* \"#utility.yul\":2128:2204   */\ntag_49:\n    /* \"contracts/reference.sol\":8181:29342  contract gainZilla is Context, IERC20, IERC20Extented, Ownable {... */\n  dataSize(sub_0)\n  dup1\n  dataOffset(sub_0)\n  0x00\n  codecopy\n  0x00\n  return\nstop\n\nsub_0: assembly {\n        /* \"contracts/reference.sol\":8181:29342  contract gainZilla is Context, IERC20, IERC20Extented, Ownable {... */\n      mstore(0x40, 0x80)\n      jumpi(tag_1, lt(calldatasize, 0x04))\n      shr(0xe0, calldataload(0x00))\n      dup1\n      0x88790a68\n      gt\n      tag_59\n      jumpi\n      dup1\n      0xcab03471\n      gt\n      tag_60\n      jumpi\n      dup1\n      0xe315a6da\n      gt\n      tag_61\n      jumpi\n      dup1\n      0xf2fde38b\n      gt\n      tag_62\n      jumpi\n      dup1\n      0xf2fde38b\n      eq\n      tag_55\n      jumpi\n      dup1\n      0xf480fec2\n      eq\n      tag_56\n      jumpi\n      dup1\n      0xffb54a99\n      eq\n      tag_57\n      jumpi\n      dup1\n      0xffecf516\n      eq\n      tag_58\n      jumpi\n      0x00\n      dup1\n      revert\n    tag_62:\n      dup1\n      0xe315a6da\n      eq\n      tag_52\n      jumpi\n      dup1\n      0xe4bf1bed\n      eq\n      tag_53\n      jumpi\n      dup1\n      0xea2f0b37\n      eq\n      tag_54\n      jumpi\n      0x00\n      dup1\n      revert\n    tag_61:\n      dup1\n      0xd55cb78a\n      gt\n      tag_63\n      jumpi\n      dup1\n      0xd55cb78a\n      eq\n      tag_48\n      jumpi\n      dup1\n      0xdb0045ec\n      eq\n      tag_49\n      jumpi\n      dup1\n      0xdc44b6a0\n      eq\n      tag_50\n      jumpi\n      dup1\n      0xdd62ed3e\n      eq\n      tag_51\n      jumpi\n      0x00\n      dup1\n      revert\n    tag_63:\n      dup1\n      0xcab03471\n      eq\n      tag_45\n      jumpi\n      dup1\n      0xcdb3858f\n      eq\n      tag_46\n      jumpi\n      dup1\n      0xd1633649\n      eq\n      tag_47\n      jumpi\n      0x00\n      dup1\n      revert\n    tag_60:\n      dup1\n      0xa850673d\n      gt\n      tag_64\n      jumpi\n      dup1\n      0xc469b6dd\n      gt\n      tag_65\n      jumpi\n      dup1\n      0xc469b6dd\n      eq\n      tag_41\n      jumpi\n      dup1\n      0xc5d24189\n      eq\n      tag_42\n      jumpi\n      dup1\n      0xc8607952\n      eq\n      tag_43\n      jumpi\n      dup1\n      0xc95457ff\n      eq\n      tag_44\n      jumpi\n      0x00\n      dup1\n      revert\n    tag_65:\n      dup1\n      0xa850673d\n      eq\n      tag_38\n      jumpi\n      dup1\n      0xa9059cbb\n      eq\n      tag_39\n      jumpi\n      dup1\n      0xc3c8cd80\n      eq\n      tag_40\n      jumpi\n      0x00\n      dup1\n      revert\n    tag_64:\n      dup1\n      0x9491f94d\n      gt\n      tag_66\n      jumpi\n      dup1\n      0x9491f94d\n      eq\n      tag_34\n      jumpi\n      dup1\n      0x95d89b41\n      eq\n      tag_35\n      jumpi\n      dup1\n      0x99a7b9bc\n      eq\n      tag_36\n      jumpi\n      dup1\n      0x9d82190f\n      eq\n      tag_37\n      jumpi\n      0x00\n      dup1\n      revert\n    tag_66:\n      dup1\n      0x88790a68\n      eq\n      tag_31\n      jumpi\n      dup1\n      0x8da5cb5b\n      eq\n      tag_32\n      jumpi\n      dup1\n      0x8e360253\n      eq\n      tag_33\n      jumpi\n      0x00\n      dup1\n      revert\n    tag_59:\n      dup1\n      0x39a53c4e\n      gt\n      tag_67\n      jumpi\n      dup1\n      0x6c0a24eb\n      gt\n      tag_68\n      jumpi\n      dup1\n      0x715018a6\n      gt\n      tag_69\n      jumpi\n      dup1\n      0x715018a6\n      eq\n      tag_27\n      jumpi\n      dup1\n      0x729cb3f2\n      eq\n      tag_28\n      jumpi\n      dup1\n      0x72b2aecc\n      eq\n      tag_29\n      jumpi\n      dup1\n      0x787a08a6\n      eq\n      tag_30\n      jumpi\n      0x00\n      dup1\n      revert\n    tag_69:\n      dup1\n      0x6c0a24eb\n      eq\n      tag_24\n      jumpi\n      dup1\n      0x6fc3eaec\n      eq\n      tag_25\n      jumpi\n      dup1\n      0x70a08231\n      eq\n      tag_26\n      jumpi\n      0x00\n      dup1\n      revert\n    tag_68:\n      dup1\n      0x437823ec\n      gt\n      tag_70\n      jumpi\n      dup1\n      0x437823ec\n      eq\n      tag_20\n      jumpi\n      dup1\n      0x49bd5a5e\n      eq\n      tag_21\n      jumpi\n      dup1\n      0x5fecd926\n      eq\n      tag_22\n      jumpi\n      dup1\n      0x6aabff3f\n      eq\n      tag_23\n      jumpi\n      0x00\n      dup1\n      revert\n    tag_70:\n      dup1\n      0x39a53c4e\n      eq\n      tag_17\n      jumpi\n      dup1\n      0x3bbac579\n      eq\n      tag_18\n      jumpi\n      dup1\n      0x3e0f966d\n      eq\n      tag_19\n      jumpi\n      0x00\n      dup1\n      revert\n    tag_67:\n      dup1\n      0x248dd232\n      gt\n      tag_71\n      jumpi\n      dup1\n      0x29409395\n      gt\n      tag_72\n      jumpi\n      dup1\n      0x29409395\n      eq\n      tag_13\n      jumpi\n      dup1\n      0x301ad558\n      eq\n      tag_14\n      jumpi\n      dup1\n      0x313ce567\n      eq\n      tag_15\n      jumpi\n      dup1\n      0x323be1c5\n      eq\n      tag_16\n      jumpi\n      0x00\n      dup1\n      revert\n    tag_72:\n      dup1\n      0x248dd232\n      eq\n      tag_10\n      jumpi\n      dup1\n      0x27a14fc2\n      eq\n      tag_11\n      jumpi\n      dup1\n      0x2843631d\n      eq\n      tag_12\n      jumpi\n      0x00\n      dup1\n      revert\n    tag_71:\n      dup1\n      0x14eb76ac\n      gt\n      tag_73\n      jumpi\n      dup1\n      0x14eb76ac\n      eq\n      tag_6\n      jumpi\n      dup1\n      0x18160ddd\n      eq\n      tag_7\n      jumpi\n      dup1\n      0x2369bf83\n      eq\n      tag_8\n      jumpi\n      dup1\n      0x23b872dd\n      eq\n      tag_9\n      jumpi\n      0x00\n      dup1\n      revert\n    tag_73:\n      dup1\n      0x01a6c43b\n      eq\n      tag_3\n      jumpi\n      dup1\n      0x06fdde03\n      eq\n      tag_4\n      jumpi\n      dup1\n      0x095ea7b3\n      eq\n      tag_5\n      jumpi\n      0x00\n      dup1\n      revert\n    tag_1:\n      jumpi(tag_2, calldatasize)\n      stop\n    tag_2:\n      0x00\n      dup1\n      revert\n        /* \"contracts/reference.sol\":8802:8850  uint256 public numTokensToSwap = 1000000 * 10**9 */\n    tag_3:\n      callvalue\n      dup1\n      iszero\n      tag_76\n      jumpi\n      0x00\n      dup1\n      revert\n    tag_76:\n      pop\n      tag_77\n      sload(0x08)\n      dup2\n      jump\n    tag_77:\n      mload(0x40)\n        /* \"#utility.yul\":15123:15148   */\n      swap1\n      dup2\n      mstore\n        /* \"#utility.yul\":15111:15113   */\n      0x20\n        /* \"#utility.yul\":15096:15114   */\n      add\n        /* \"contracts/reference.sol\":8802:8850  uint256 public numTokensToSwap = 1000000 * 10**9 */\n    tag_79:\n      mload(0x40)\n      dup1\n      swap2\n      sub\n      swap1\n      return\n        /* \"contracts/reference.sol\":12438:12530  function name() override external pure returns (string memory) {... */\n    tag_4:\n      callvalue\n      dup1\n      iszero\n      tag_81\n      jumpi\n      0x00\n      dup1\n      revert\n    tag_81:\n      pop\n        /* \"contracts/reference.sol\":12518:12523  _name */\n      0x40\n      dup1\n      mload\n      dup1\n      dup3\n      add\n      swap1\n      swap2\n      mstore\n      0x09\n      dup2\n      mstore\n      shl(0xb8, 0x4761696e5a696c6c61)\n      0x20\n      dup3\n      add\n      mstore\n        /* \"contracts/reference.sol\":12438:12530  function name() override external pure returns (string memory) {... */\n    tag_82:\n      mload(0x40)\n      tag_79\n      swap2\n      swap1\n      tag_85\n      jump\t// in\n        /* \"contracts/reference.sol\":13387:13547  function approve(address spender, uint256 amount) external override returns (bool) {... */\n    tag_5:\n      callvalue\n      dup1\n      iszero\n      tag_86\n      jumpi\n      0x00\n      dup1\n      revert\n    tag_86:\n      pop\n      tag_87\n      tag_88\n      calldatasize\n      0x04\n      tag_89\n      jump\t// in\n    tag_88:\n      tag_90\n      jump\t// in\n    tag_87:\n      mload(0x40)\n        /* \"#utility.yul\":5685:5699   */\n      swap1\n      iszero\n        /* \"#utility.yul\":5678:5700   */\n      iszero\n        /* \"#utility.yul\":5660:5701   */\n      dup2\n      mstore\n        /* \"#utility.yul\":5648:5650   */\n      0x20\n        /* \"#utility.yul\":5633:5651   */\n      add\n        /* \"contracts/reference.sol\":13387:13547  function approve(address spender, uint256 amount) external override returns (bool) {... */\n      tag_79\n        /* \"#utility.yul\":5615:5707   */\n      jump\n        /* \"contracts/reference.sol\":28249:28369  function updateTeamAddress(address payable teamAddress) external onlyOwner() {... */\n    tag_6:\n      callvalue\n      dup1\n      iszero\n      tag_93\n      jumpi\n      0x00\n      dup1\n      revert\n    tag_93:\n      pop\n      tag_94\n      tag_95\n      calldatasize\n      0x04\n      tag_128\n      jump\t// in\n    tag_95:\n      tag_97\n      jump\t// in\n    tag_94:\n      stop\n        /* \"contracts/reference.sol\":12736:12831  function totalSupply() external pure override returns (uint256) {... */\n    tag_7:\n      callvalue\n      dup1\n      iszero\n      tag_98\n      jumpi\n      0x00\n      dup1\n      revert\n    tag_98:\n      pop\n        /* \"contracts/reference.sol\":8637:8655  1000000000 * 10**9 */\n      0x0de0b6b3a7640000\n        /* \"contracts/reference.sol\":12736:12831  function totalSupply() external pure override returns (uint256) {... */\n      jump(tag_77)\n        /* \"contracts/reference.sol\":28099:28239  function updateMarketingAddress(address payable marketingAddress) external onlyOwner() {... */\n    tag_8:\n      callvalue\n      dup1\n      iszero\n      tag_102\n      jumpi\n      0x00\n      dup1\n      revert\n    tag_102:\n      pop\n      tag_94\n      tag_104\n      calldatasize\n      0x04\n      tag_128\n      jump\t// in\n    tag_104:\n      tag_105\n      jump\t// in\n        /* \"contracts/reference.sol\":13553:13861  function transferFrom(address sender, address recipient, uint256 amount) external override returns (bool) {... */\n    tag_9:\n      callvalue\n      dup1\n      iszero\n      tag_106\n      jumpi\n      0x00\n      dup1\n      revert\n    tag_106:\n      pop\n      tag_87\n      tag_108\n      calldatasize\n      0x04\n      tag_109\n      jump\t// in\n    tag_108:\n      tag_110\n      jump\t// in\n        /* \"contracts/reference.sol\":9543:9579  uint256 public _sellEcosystemFee = 0 */\n    tag_10:\n      callvalue\n      dup1\n      iszero\n      tag_112\n      jumpi\n      0x00\n      dup1\n      revert\n    tag_112:\n      pop\n      tag_77\n      sload(0x13)\n      dup2\n      jump\n        /* \"contracts/reference.sol\":25855:26178  function setMaxWalletAmount(uint256 maxWalletAmount) external onlyOwner() {... */\n    tag_11:\n      callvalue\n      dup1\n      iszero\n      tag_116\n      jumpi\n      0x00\n      dup1\n      revert\n    tag_116:\n      pop\n      tag_94\n      tag_118\n      calldatasize\n      0x04\n      tag_119\n      jump\t// in\n    tag_118:\n      tag_120\n      jump\t// in\n        /* \"contracts/reference.sol\":9037:9072  uint256 public _buyEcosystemFee = 0 */\n    tag_12:\n      callvalue\n      dup1\n      iszero\n      tag_121\n      jumpi\n      0x00\n      dup1\n      revert\n    tag_121:\n      pop\n      tag_77\n      sload(0x0b)\n      dup2\n      jump\n        /* \"contracts/reference.sol\":22762:22944  function manualSendToken(address token) external onlyOwner() {... */\n    tag_13:\n      callvalue\n      dup1\n      iszero\n      tag_125\n      jumpi\n      0x00\n      dup1\n      revert\n    tag_125:\n      pop\n      tag_94\n      tag_127\n      calldatasize\n      0x04\n      tag_128\n      jump\t// in\n    tag_127:\n      tag_129\n      jump\t// in\n        /* \"contracts/reference.sol\":11182:11213  bool public canBlackList = true */\n    tag_14:\n      callvalue\n      dup1\n      iszero\n      tag_130\n      jumpi\n      0x00\n      dup1\n      revert\n    tag_130:\n      pop\n      sload(0x28)\n      tag_87\n      swap1\n      0x01000000\n      swap1\n      div\n      0xff\n      and\n      dup2\n      jump\n        /* \"contracts/reference.sol\":12638:12730  function decimals() override external pure returns (uint8) {... */\n    tag_15:\n      callvalue\n      dup1\n      iszero\n      tag_134\n      jumpi\n      0x00\n      dup1\n      revert\n    tag_134:\n      pop\n      mload(0x40)\n        /* \"contracts/reference.sol\":8413:8414  9 */\n      0x09\n        /* \"#utility.yul\":16685:16721   */\n      dup2\n      mstore\n        /* \"#utility.yul\":16673:16675   */\n      0x20\n        /* \"#utility.yul\":16658:16676   */\n      add\n        /* \"contracts/reference.sol\":12638:12730  function decimals() override external pure returns (uint8) {... */\n      tag_79\n        /* \"#utility.yul\":16640:16727   */\n      jump\n        /* \"contracts/reference.sol\":11149:11176  bool public canPause = true */\n    tag_16:\n      callvalue\n      dup1\n      iszero\n      tag_139\n      jumpi\n      0x00\n      dup1\n      revert\n    tag_139:\n      pop\n      sload(0x28)\n      tag_87\n      swap1\n      0x010000\n      swap1\n      div\n      0xff\n      and\n      dup2\n      jump\n        /* \"contracts/reference.sol\":11219:11250  bool public canChangeTax = true */\n    tag_17:\n      callvalue\n      dup1\n      iszero\n      tag_143\n      jumpi\n      0x00\n      dup1\n      revert\n    tag_143:\n      pop\n      sload(0x28)\n      tag_87\n      swap1\n      0x0100000000\n      swap1\n      div\n      0xff\n      and\n      dup2\n      jump\n        /* \"contracts/reference.sol\":12960:13056  function isBot(address account) public view returns (bool) {... */\n    tag_18:\n      callvalue\n      dup1\n      iszero\n      tag_147\n      jumpi\n      0x00\n      dup1\n      revert\n    tag_147:\n      pop\n      tag_87\n      tag_149\n      calldatasize\n      0x04\n      tag_128\n      jump\t// in\n    tag_149:\n      sub(shl(0xa0, 0x01), 0x01)\n        /* \"contracts/reference.sol\":13036:13049  bots[account] */\n      and\n        /* \"contracts/reference.sol\":13013:13017  bool */\n      0x00\n        /* \"contracts/reference.sol\":13036:13049  bots[account] */\n      swap1\n      dup2\n      mstore\n        /* \"contracts/reference.sol\":13036:13040  bots */\n      0x20\n        /* \"contracts/reference.sol\":13036:13049  bots[account] */\n      dup1\n      mstore\n      0x40\n      swap1\n      keccak256\n      sload\n      0xff\n      and\n      swap1\n        /* \"contracts/reference.sol\":12960:13056  function isBot(address account) public view returns (bool) {... */\n      jump\n        /* \"contracts/reference.sol\":22083:22225  function disableToken() external onlyOwner() {... */\n    tag_19:\n      callvalue\n      dup1\n      iszero\n      tag_152\n      jumpi\n      0x00\n      dup1\n      revert\n    tag_152:\n      pop\n      tag_94\n      tag_154\n      jump\t// in\n        /* \"contracts/reference.sol\":25098:25209  function excludeFromFee(address account) public onlyOwner() {... */\n    tag_20:\n      callvalue\n      dup1\n      iszero\n      tag_155\n      jumpi\n      0x00\n      dup1\n      revert\n    tag_155:\n      pop\n      tag_94\n      tag_157\n      calldatasize\n      0x04\n      tag_128\n      jump\t// in\n    tag_157:\n      tag_158\n      jump\t// in\n        /* \"contracts/reference.sol\":11010:11038  address public uniswapV2Pair */\n    tag_21:\n      callvalue\n      dup1\n      iszero\n      tag_159\n      jumpi\n      0x00\n      dup1\n      revert\n    tag_159:\n      pop\n      sload(0x26)\n      tag_160\n      swap1\n      sub(shl(0xa0, 0x01), 0x01)\n      and\n      dup2\n      jump\n    tag_160:\n      mload(0x40)\n      sub(shl(0xa0, 0x01), 0x01)\n        /* \"#utility.yul\":4577:4609   */\n      swap1\n      swap2\n      and\n        /* \"#utility.yul\":4559:4610   */\n      dup2\n      mstore\n        /* \"#utility.yul\":4547:4549   */\n      0x20\n        /* \"#utility.yul\":4532:4550   */\n      add\n        /* \"contracts/reference.sol\":11010:11038  address public uniswapV2Pair */\n      tag_79\n        /* \"#utility.yul\":4514:4616   */\n      jump\n        /* \"contracts/reference.sol\":25337:25432  function removeBot(address account) external onlyOwner() {... */\n    tag_22:\n      callvalue\n      dup1\n      iszero\n      tag_164\n      jumpi\n      0x00\n      dup1\n      revert\n    tag_164:\n      pop\n      tag_94\n      tag_166\n      calldatasize\n      0x04\n      tag_128\n      jump\t// in\n    tag_166:\n      tag_167\n      jump\t// in\n        /* \"contracts/reference.sol\":22231:22316  function disablePauseAbility() onlyOwner() external {... */\n    tag_23:\n      callvalue\n      dup1\n      iszero\n      tag_168\n      jumpi\n      0x00\n      dup1\n      revert\n    tag_168:\n      pop\n      tag_94\n      tag_170\n      jump\t// in\n        /* \"contracts/reference.sol\":8746:8796  uint256 public _maxWalletAmount = 10000001 * 10**9 */\n    tag_24:\n      callvalue\n      dup1\n      iszero\n      tag_171\n      jumpi\n      0x00\n      dup1\n      revert\n    tag_171:\n      pop\n      tag_77\n      sload(0x07)\n      dup2\n      jump\n        /* \"contracts/reference.sol\":22530:22756  function manualsend() external onlyOwner() {... */\n    tag_25:\n      callvalue\n      dup1\n      iszero\n      tag_175\n      jumpi\n      0x00\n      dup1\n      revert\n    tag_175:\n      pop\n      tag_94\n      tag_177\n      jump\t// in\n        /* \"contracts/reference.sol\":12837:12954  function balanceOf(address account) public view override returns (uint256) {... */\n    tag_26:\n      callvalue\n      dup1\n      iszero\n      tag_178\n      jumpi\n      0x00\n      dup1\n      revert\n    tag_178:\n      pop\n      tag_77\n      tag_180\n      calldatasize\n      0x04\n      tag_128\n      jump\t// in\n    tag_180:\n      sub(shl(0xa0, 0x01), 0x01)\n        /* \"contracts/reference.sol\":12929:12947  _balances[account] */\n      and\n        /* \"contracts/reference.sol\":12903:12910  uint256 */\n      0x00\n        /* \"contracts/reference.sol\":12929:12947  _balances[account] */\n      swap1\n      dup2\n      mstore\n        /* \"contracts/reference.sol\":12929:12938  _balances */\n      0x02\n        /* \"contracts/reference.sol\":12929:12947  _balances[account] */\n      0x20\n      mstore\n      0x40\n      swap1\n      keccak256\n      sload\n      swap1\n        /* \"contracts/reference.sol\":12837:12954  function balanceOf(address account) public view override returns (uint256) {... */\n      jump\n        /* \"contracts/reference.sol\":3851:3998  function renounceOwnership() public virtual onlyOwner() {... */\n    tag_27:\n      callvalue\n      dup1\n      iszero\n      tag_183\n      jumpi\n      0x00\n      dup1\n      revert\n    tag_183:\n      pop\n      tag_94\n      tag_185\n      jump\t// in\n        /* \"contracts/reference.sol\":28623:28796  function configureStrongHands(bool enabled, uint32 duration) external onlyOwner {... */\n    tag_28:\n      callvalue\n      dup1\n      iszero\n      tag_186\n      jumpi\n      0x00\n      dup1\n      revert\n    tag_186:\n      pop\n      tag_94\n      tag_188\n      calldatasize\n      0x04\n      tag_189\n      jump\t// in\n    tag_188:\n      tag_190\n      jump\t// in\n        /* \"contracts/reference.sol\":9912:9956  uint256 public transferFeeIncreaseFactor = 0 */\n    tag_29:\n      callvalue\n      dup1\n      iszero\n      tag_191\n      jumpi\n      0x00\n      dup1\n      revert\n    tag_191:\n      pop\n      tag_77\n      sload(0x19)\n      dup2\n      jump\n        /* \"contracts/reference.sol\":10278:10311  StrongHandsConfig public cooldown */\n    tag_30:\n      callvalue\n      dup1\n      iszero\n      tag_195\n      jumpi\n      0x00\n      dup1\n      revert\n    tag_195:\n      pop\n      sload(0x1a)\n      tag_196\n      swap1\n      0xff\n      dup2\n      and\n      swap1\n      0x0100\n      swap1\n      div\n      0xffffffff\n      and\n      dup3\n      jump\n    tag_196:\n      0x40\n      dup1\n      mload\n        /* \"#utility.yul\":6402:6416   */\n      swap3\n      iszero\n        /* \"#utility.yul\":6395:6417   */\n      iszero\n        /* \"#utility.yul\":6377:6418   */\n      dup4\n      mstore\n        /* \"#utility.yul\":6466:6476   */\n      0xffffffff\n        /* \"#utility.yul\":6454:6477   */\n      swap1\n      swap2\n      and\n        /* \"#utility.yul\":6449:6451   */\n      0x20\n        /* \"#utility.yul\":6434:6452   */\n      dup4\n      add\n        /* \"#utility.yul\":6427:6478   */\n      mstore\n        /* \"#utility.yul\":6350:6368   */\n      add\n        /* \"contracts/reference.sol\":10278:10311  StrongHandsConfig public cooldown */\n      tag_79\n        /* \"#utility.yul\":6332:6484   */\n      jump\n        /* \"contracts/reference.sol\":9415:9451  uint256 public _sellLiquidityFee = 0 */\n    tag_31:\n      callvalue\n      dup1\n      iszero\n      tag_200\n      jumpi\n      0x00\n      dup1\n      revert\n    tag_200:\n      pop\n      tag_77\n      sload(0x11)\n      dup2\n      jump\n        /* \"contracts/reference.sol\":2954:3031  function owner() public view returns (address) {... */\n    tag_32:\n      callvalue\n      dup1\n      iszero\n      tag_204\n      jumpi\n      0x00\n      dup1\n      revert\n    tag_204:\n      pop\n        /* \"contracts/reference.sol\":2992:2999  address */\n      0x00\n        /* \"contracts/reference.sol\":3018:3024  _owner */\n      sload\n      sub(shl(0xa0, 0x01), 0x01)\n      and\n        /* \"contracts/reference.sol\":2954:3031  function owner() public view returns (address) {... */\n      jump(tag_160)\n        /* \"contracts/reference.sol\":21998:22077  function enableToken() external onlyOwner() {... */\n    tag_33:\n      callvalue\n      dup1\n      iszero\n      tag_208\n      jumpi\n      0x00\n      dup1\n      revert\n    tag_208:\n      pop\n      tag_94\n      tag_210\n      jump\t// in\n        /* \"contracts/reference.sol\":19677:20093  function pairPrice() public view returns (uint256) {... */\n    tag_34:\n      callvalue\n      dup1\n      iszero\n      tag_211\n      jumpi\n      0x00\n      dup1\n      revert\n    tag_211:\n      pop\n      tag_77\n      tag_213\n      jump\t// in\n        /* \"contracts/reference.sol\":12536:12632  function symbol() override external pure returns (string memory) {... */\n    tag_35:\n      callvalue\n      dup1\n      iszero\n      tag_215\n      jumpi\n      0x00\n      dup1\n      revert\n    tag_215:\n      pop\n        /* \"contracts/reference.sol\":12618:12625  _symbol */\n      0x40\n      dup1\n      mload\n      dup1\n      dup3\n      add\n      swap1\n      swap2\n      mstore\n      0x05\n      dup2\n      mstore\n      shl(0xd8, 0x47494c4c41)\n      0x20\n      dup3\n      add\n      mstore\n        /* \"contracts/reference.sol\":12536:12632  function symbol() override external pure returns (string memory) {... */\n      jump(tag_82)\n        /* \"contracts/reference.sol\":27857:27943  function disableTaxChange() onlyOwner() external {... */\n    tag_36:\n      callvalue\n      dup1\n      iszero\n      tag_219\n      jumpi\n      0x00\n      dup1\n      revert\n    tag_219:\n      pop\n      tag_94\n      tag_221\n      jump\t// in\n        /* \"contracts/reference.sol\":28802:29340  function cooldownRemaining(address account) public view returns (... */\n    tag_37:\n      callvalue\n      dup1\n      iszero\n      tag_222\n      jumpi\n      0x00\n      dup1\n      revert\n    tag_222:\n      pop\n      tag_223\n      tag_224\n      calldatasize\n      0x04\n      tag_128\n      jump\t// in\n    tag_224:\n      tag_225\n      jump\t// in\n    tag_223:\n      0x40\n      dup1\n      mload\n        /* \"#utility.yul\":16378:16403   */\n      swap5\n      dup6\n      mstore\n        /* \"#utility.yul\":16434:16436   */\n      0x20\n        /* \"#utility.yul\":16419:16437   */\n      dup6\n      add\n        /* \"#utility.yul\":16412:16446   */\n      swap4\n      swap1\n      swap4\n      mstore\n        /* \"#utility.yul\":16462:16480   */\n      swap2\n      dup4\n      add\n        /* \"#utility.yul\":16455:16489   */\n      mstore\n        /* \"#utility.yul\":16520:16522   */\n      0x60\n        /* \"#utility.yul\":16505:16523   */\n      dup3\n      add\n        /* \"#utility.yul\":16498:16532   */\n      mstore\n        /* \"#utility.yul\":16365:16368   */\n      0x80\n        /* \"#utility.yul\":16350:16369   */\n      add\n        /* \"contracts/reference.sol\":28802:29340  function cooldownRemaining(address account) public view returns (... */\n      tag_79\n        /* \"#utility.yul\":16332:16538   */\n      jump\n        /* \"contracts/reference.sol\":25709:25849  function setTransferTransactionMultiplier(uint256 _multiplier) external onlyOwner() {... */\n    tag_38:\n      callvalue\n      dup1\n      iszero\n      tag_228\n      jumpi\n      0x00\n      dup1\n      revert\n    tag_228:\n      pop\n      tag_94\n      tag_230\n      calldatasize\n      0x04\n      tag_119\n      jump\t// in\n    tag_230:\n      tag_231\n      jump\t// in\n        /* \"contracts/reference.sol\":13066:13232  function transfer(address recipient, uint256 amount) external override returns (bool) {... */\n    tag_39:\n      callvalue\n      dup1\n      iszero\n      tag_232\n      jumpi\n      0x00\n      dup1\n      revert\n    tag_232:\n      pop\n      tag_87\n      tag_234\n      calldatasize\n      0x04\n      tag_89\n      jump\t// in\n    tag_234:\n      tag_235\n      jump\t// in\n        /* \"contracts/reference.sol\":22322:22524  function manualswap() external onlyOwner() {... */\n    tag_40:\n      callvalue\n      dup1\n      iszero\n      tag_237\n      jumpi\n      0x00\n      dup1\n      revert\n    tag_237:\n      pop\n      tag_94\n      tag_239\n      jump\t// in\n        /* \"contracts/reference.sol\":9287:9317  uint256 public _buyTeamFee = 0 */\n    tag_41:\n      callvalue\n      dup1\n      iszero\n      tag_240\n      jumpi\n      0x00\n      dup1\n      revert\n    tag_240:\n      pop\n      tag_77\n      sload(0x0f)\n      dup2\n      jump\n        /* \"contracts/reference.sol\":9162:9197  uint256 public _buyMarketingFee = 0 */\n    tag_42:\n      callvalue\n      dup1\n      iszero\n      tag_244\n      jumpi\n      0x00\n      dup1\n      revert\n    tag_244:\n      pop\n      tag_77\n      sload(0x0d)\n      dup2\n      jump\n        /* \"contracts/reference.sol\":9671:9707  uint256 public _sellMarketingFee = 0 */\n    tag_43:\n      callvalue\n      dup1\n      iszero\n      tag_248\n      jumpi\n      0x00\n      dup1\n      revert\n    tag_248:\n      pop\n      tag_77\n      sload(0x15)\n      dup2\n      jump\n        /* \"contracts/reference.sol\":10486:10518  DiamondFloor public diamondFloor */\n    tag_44:\n      callvalue\n      dup1\n      iszero\n      tag_252\n      jumpi\n      0x00\n      dup1\n      revert\n    tag_252:\n      pop\n      sload(0x1c)\n      sload(0x1d)\n      sload(0x1e)\n      sload(0x1f)\n      tag_253\n      swap4\n      0xff\n      dup1\n      dup3\n      and\n      swap5\n      0x0100\n      swap1\n      swap3\n      div\n      0xffff\n      and\n      swap4\n      swap2\n      swap3\n      swap2\n      and\n      swap1\n      dup6\n      jump\n    tag_253:\n      0x40\n      dup1\n      mload\n        /* \"#utility.yul\":5982:5996   */\n      swap6\n      iszero\n        /* \"#utility.yul\":5975:5997   */\n      iszero\n        /* \"#utility.yul\":5957:5998   */\n      dup7\n      mstore\n        /* \"#utility.yul\":6046:6052   */\n      0xffff\n        /* \"#utility.yul\":6034:6053   */\n      swap1\n      swap5\n      and\n        /* \"#utility.yul\":6029:6031   */\n      0x20\n        /* \"#utility.yul\":6014:6032   */\n      dup7\n      add\n        /* \"#utility.yul\":6007:6054   */\n      mstore\n        /* \"#utility.yul\":6070:6088   */\n      swap3\n      dup5\n      add\n        /* \"#utility.yul\":6063:6097   */\n      swap2\n      swap1\n      swap2\n      mstore\n        /* \"#utility.yul\":6140:6154   */\n      iszero\n        /* \"#utility.yul\":6133:6155   */\n      iszero\n        /* \"#utility.yul\":6128:6130   */\n      0x60\n        /* \"#utility.yul\":6113:6131   */\n      dup4\n      add\n        /* \"#utility.yul\":6106:6156   */\n      mstore\n        /* \"#utility.yul\":6187:6190   */\n      0x80\n        /* \"#utility.yul\":6172:6191   */\n      dup3\n      add\n        /* \"#utility.yul\":6165:6200   */\n      mstore\n        /* \"#utility.yul\":5944:5947   */\n      0xa0\n        /* \"#utility.yul\":5929:5948   */\n      add\n        /* \"contracts/reference.sol\":10486:10518  DiamondFloor public diamondFloor */\n      tag_79\n        /* \"#utility.yul\":5911:6206   */\n      jump\n        /* \"contracts/reference.sol\":9799:9830  uint256 public _sellTeamFee = 0 */\n    tag_45:\n      callvalue\n      dup1\n      iszero\n      tag_257\n      jumpi\n      0x00\n      dup1\n      revert\n    tag_257:\n      pop\n      tag_77\n      sload(0x17)\n      dup2\n      jump\n        /* \"contracts/reference.sol\":28376:28496  function updateLpRecipient(address payable lpRecipient) external onlyOwner() {... */\n    tag_46:\n      callvalue\n      dup1\n      iszero\n      tag_261\n      jumpi\n      0x00\n      dup1\n      revert\n    tag_261:\n      pop\n      tag_94\n      tag_263\n      calldatasize\n      0x04\n      tag_128\n      jump\t// in\n    tag_263:\n      tag_264\n      jump\t// in\n        /* \"contracts/reference.sol\":21825:21992  function openTrading(uint256 botBlocks) external onlyOwner() {... */\n    tag_47:\n      callvalue\n      dup1\n      iszero\n      tag_265\n      jumpi\n      0x00\n      dup1\n      revert\n    tag_265:\n      pop\n      tag_94\n      tag_267\n      calldatasize\n      0x04\n      tag_119\n      jump\t// in\n    tag_267:\n      tag_268\n      jump\t// in\n        /* \"contracts/reference.sol\":25610:25699  function disableBlackListing() onlyOwner() external {... */\n    tag_48:\n      callvalue\n      dup1\n      iszero\n      tag_269\n      jumpi\n      0x00\n      dup1\n      revert\n    tag_269:\n      pop\n      tag_94\n      tag_271\n      jump\t// in\n        /* \"contracts/reference.sol\":27949:28089  function updateEcosystemAddress(address payable ecosystemAddress) external onlyOwner() {... */\n    tag_49:\n      callvalue\n      dup1\n      iszero\n      tag_272\n      jumpi\n      0x00\n      dup1\n      revert\n    tag_272:\n      pop\n      tag_94\n      tag_274\n      calldatasize\n      0x04\n      tag_128\n      jump\t// in\n    tag_274:\n      tag_275\n      jump\t// in\n        /* \"contracts/reference.sol\":8912:8947  uint256 public _buyLiquidityFee = 0 */\n    tag_50:\n      callvalue\n      dup1\n      iszero\n      tag_276\n      jumpi\n      0x00\n      dup1\n      revert\n    tag_276:\n      pop\n      tag_77\n      sload(0x09)\n      dup2\n      jump\n        /* \"contracts/reference.sol\":13238:13381  function allowance(address owner, address spender) external view override returns (uint256) {... */\n    tag_51:\n      callvalue\n      dup1\n      iszero\n      tag_280\n      jumpi\n      0x00\n      dup1\n      revert\n    tag_280:\n      pop\n      tag_77\n      tag_282\n      calldatasize\n      0x04\n      tag_283\n      jump\t// in\n    tag_282:\n      sub(shl(0xa0, 0x01), 0x01)\n        /* \"contracts/reference.sol\":13347:13365  _allowances[owner] */\n      swap2\n      dup3\n      and\n        /* \"contracts/reference.sol\":13321:13328  uint256 */\n      0x00\n        /* \"contracts/reference.sol\":13347:13365  _allowances[owner] */\n      swap1\n      dup2\n      mstore\n        /* \"contracts/reference.sol\":13347:13358  _allowances */\n      0x03\n        /* \"contracts/reference.sol\":13347:13365  _allowances[owner] */\n      0x20\n      swap1\n      dup2\n      mstore\n      0x40\n      dup1\n      dup4\n      keccak256\n        /* \"contracts/reference.sol\":13347:13374  _allowances[owner][spender] */\n      swap4\n      swap1\n      swap5\n      and\n      dup3\n      mstore\n      swap2\n      swap1\n      swap2\n      mstore\n      keccak256\n      sload\n      swap1\n        /* \"contracts/reference.sol\":13238:13381  function allowance(address owner, address spender) external view override returns (uint256) {... */\n      jump\n        /* \"contracts/reference.sol\":28502:28617  function updateNumTokensToSwap(uint256 numTokens) external onlyOwner() {... */\n    tag_52:\n      callvalue\n      dup1\n      iszero\n      tag_286\n      jumpi\n      0x00\n      dup1\n      revert\n    tag_286:\n      pop\n      tag_94\n      tag_288\n      calldatasize\n      0x04\n      tag_119\n      jump\t// in\n    tag_288:\n      tag_289\n      jump\t// in\n        /* \"contracts/reference.sol\":26184:27007  function setBuyTaxes(uint256 marketingFee, uint256 liquidityFee, uint256 teamFee, uint256 ecosystemFee) external onlyOwner() {... */\n    tag_53:\n      callvalue\n      dup1\n      iszero\n      tag_290\n      jumpi\n      0x00\n      dup1\n      revert\n    tag_290:\n      pop\n      tag_94\n      tag_292\n      calldatasize\n      0x04\n      tag_293\n      jump\t// in\n    tag_292:\n      tag_294\n      jump\t// in\n        /* \"contracts/reference.sol\":25215:25327  function includeInFee(address account) external onlyOwner() {... */\n    tag_54:\n      callvalue\n      dup1\n      iszero\n      tag_295\n      jumpi\n      0x00\n      dup1\n      revert\n    tag_295:\n      pop\n      tag_94\n      tag_297\n      calldatasize\n      0x04\n      tag_128\n      jump\t// in\n    tag_297:\n      tag_298\n      jump\t// in\n        /* \"contracts/reference.sol\":3302:3500  function transferOwnership(address newOwner) public virtual onlyOwner {... */\n    tag_55:\n      callvalue\n      dup1\n      iszero\n      tag_299\n      jumpi\n      0x00\n      dup1\n      revert\n    tag_299:\n      pop\n      tag_94\n      tag_301\n      calldatasize\n      0x04\n      tag_128\n      jump\t// in\n    tag_301:\n      tag_302\n      jump\t// in\n        /* \"contracts/reference.sol\":27013:27851  function setSellTaxes(uint256 marketingFee, uint256 liquidityFee, uint256 teamFee, uint256 ecosystemFee) external onlyOwner() {... */\n    tag_56:\n      callvalue\n      dup1\n      iszero\n      tag_303\n      jumpi\n      0x00\n      dup1\n      revert\n    tag_303:\n      pop\n      tag_94\n      tag_305\n      calldatasize\n      0x04\n      tag_293\n      jump\t// in\n    tag_305:\n      tag_306\n      jump\t// in\n        /* \"contracts/reference.sol\":11079:11110  bool public tradingOpen = false */\n    tag_57:\n      callvalue\n      dup1\n      iszero\n      tag_307\n      jumpi\n      0x00\n      dup1\n      revert\n    tag_307:\n      pop\n      sload(0x28)\n      tag_87\n      swap1\n      0xff\n      and\n      dup2\n      jump\n        /* \"contracts/reference.sol\":25438:25604  function addBot(address account) external onlyOwner() {... */\n    tag_58:\n      callvalue\n      dup1\n      iszero\n      tag_311\n      jumpi\n      0x00\n      dup1\n      revert\n    tag_311:\n      pop\n      tag_94\n      tag_313\n      calldatasize\n      0x04\n      tag_128\n      jump\t// in\n    tag_313:\n      tag_314\n      jump\t// in\n        /* \"contracts/reference.sol\":13387:13547  function approve(address spender, uint256 amount) external override returns (bool) {... */\n    tag_90:\n        /* \"contracts/reference.sol\":13464:13468  bool */\n      0x00\n        /* \"contracts/reference.sol\":13480:13519  _approve(_msgSender(), spender, amount) */\n      tag_317\n        /* \"contracts/reference.sol\":818:828  msg.sender */\n      caller\n        /* \"contracts/reference.sol\":13503:13510  spender */\n      dup5\n        /* \"contracts/reference.sol\":13512:13518  amount */\n      dup5\n        /* \"contracts/reference.sol\":13480:13488  _approve */\n      tag_320\n        /* \"contracts/reference.sol\":13480:13519  _approve(_msgSender(), spender, amount) */\n      jump\t// in\n    tag_317:\n      pop\n        /* \"contracts/reference.sol\":13536:13540  true */\n      0x01\n        /* \"contracts/reference.sol\":13387:13547  function approve(address spender, uint256 amount) external override returns (bool) {... */\n    tag_316:\n      swap3\n      swap2\n      pop\n      pop\n      jump\t// out\n        /* \"contracts/reference.sol\":28249:28369  function updateTeamAddress(address payable teamAddress) external onlyOwner() {... */\n    tag_97:\n        /* \"contracts/reference.sol\":3076:3082  _owner */\n      and(sub(shl(0xa0, 0x01), 0x01), sload(0x00))\n        /* \"contracts/reference.sol\":818:828  msg.sender */\n      caller\n        /* \"contracts/reference.sol\":3076:3098  _owner == _msgSender() */\n      eq\n        /* \"contracts/reference.sol\":3068:3135  require(_owner == _msgSender(), \"Ownable: caller is not the owner\") */\n      tag_323\n      jumpi\n      mload(0x40)\n      shl(0xe5, 0x461bcd)\n      dup2\n      mstore\n      0x04\n      add\n      tag_324\n      swap1\n      tag_325\n      jump\t// in\n    tag_324:\n      mload(0x40)\n      dup1\n      swap2\n      sub\n      swap1\n      revert\n    tag_323:\n        /* \"contracts/reference.sol\":28336:28348  _teamAddress */\n      0x22\n        /* \"contracts/reference.sol\":28336:28362  _teamAddress = teamAddress */\n      dup1\n      sload\n      not(sub(shl(0xa0, 0x01), 0x01))\n      and\n      sub(shl(0xa0, 0x01), 0x01)\n      swap3\n      swap1\n      swap3\n      and\n      swap2\n      swap1\n      swap2\n      or\n      swap1\n      sstore\n        /* \"contracts/reference.sol\":28249:28369  function updateTeamAddress(address payable teamAddress) external onlyOwner() {... */\n      jump\t// out\n        /* \"contracts/reference.sol\":28099:28239  function updateMarketingAddress(address payable marketingAddress) external onlyOwner() {... */\n    tag_105:\n        /* \"contracts/reference.sol\":3076:3082  _owner */\n      and(sub(shl(0xa0, 0x01), 0x01), sload(0x00))\n        /* \"contracts/reference.sol\":818:828  msg.sender */\n      caller\n        /* \"contracts/reference.sol\":3076:3098  _owner == _msgSender() */\n      eq\n        /* \"contracts/reference.sol\":3068:3135  require(_owner == _msgSender(), \"Ownable: caller is not the owner\") */\n      tag_330\n      jumpi\n      mload(0x40)\n      shl(0xe5, 0x461bcd)\n      dup2\n      mstore\n      0x04\n      add\n      tag_324\n      swap1\n      tag_325\n      jump\t// in\n    tag_330:\n        /* \"contracts/reference.sol\":28196:28213  _marketingAddress */\n      0x21\n        /* \"contracts/reference.sol\":28196:28232  _marketingAddress = marketingAddress */\n      dup1\n      sload\n      not(sub(shl(0xa0, 0x01), 0x01))\n      and\n      sub(shl(0xa0, 0x01), 0x01)\n      swap3\n      swap1\n      swap3\n      and\n      swap2\n      swap1\n      swap2\n      or\n      swap1\n      sstore\n        /* \"contracts/reference.sol\":28099:28239  function updateMarketingAddress(address payable marketingAddress) external onlyOwner() {... */\n      jump\t// out\n        /* \"contracts/reference.sol\":13553:13861  function transferFrom(address sender, address recipient, uint256 amount) external override returns (bool) {... */\n    tag_110:\n        /* \"contracts/reference.sol\":13653:13657  bool */\n      0x00\n        /* \"contracts/reference.sol\":13669:13705  _transfer(sender, recipient, amount) */\n      tag_334\n        /* \"contracts/reference.sol\":13679:13685  sender */\n      dup5\n        /* \"contracts/reference.sol\":13687:13696  recipient */\n      dup5\n        /* \"contracts/reference.sol\":13698:13704  amount */\n      dup5\n        /* \"contracts/reference.sol\":13669:13678  _transfer */\n      tag_335\n        /* \"contracts/reference.sol\":13669:13705  _transfer(sender, recipient, amount) */\n      jump\t// in\n    tag_334:\n        /* \"contracts/reference.sol\":13715:13833  _approve(sender,_msgSender(),_allowances[sender][_msgSender()].sub(amount,\"ERC20: transfer amount exceeds allowance\")) */\n      tag_336\n        /* \"contracts/reference.sol\":13724:13730  sender */\n      dup5\n        /* \"contracts/reference.sol\":818:828  msg.sender */\n      caller\n        /* \"contracts/reference.sol\":13744:13832  _allowances[sender][_msgSender()].sub(amount,\"ERC20: transfer amount exceeds allowance\") */\n      tag_338\n        /* \"contracts/reference.sol\":13782:13788  amount */\n      dup6\n        /* \"contracts/reference.sol\":13744:13832  _allowances[sender][_msgSender()].sub(amount,\"ERC20: transfer amount exceeds allowance\") */\n      mload(0x40)\n      dup1\n      0x60\n      add\n      0x40\n      mstore\n      dup1\n      0x28\n      dup2\n      mstore\n      0x20\n      add\n      data_974d1b4421da69cc60b481194f0dad36a5bb4e23da810da7a7fb30cdba178330\n      0x28\n      swap2\n      codecopy\n      sub(shl(0xa0, 0x01), 0x01)\n        /* \"contracts/reference.sol\":13744:13763  _allowances[sender] */\n      dup11\n      and\n      0x00\n      swap1\n      dup2\n      mstore\n        /* \"contracts/reference.sol\":13744:13755  _allowances */\n      0x03\n        /* \"contracts/reference.sol\":13744:13763  _allowances[sender] */\n      0x20\n      swap1\n      dup2\n      mstore\n      0x40\n      dup1\n      dup4\n      keccak256\n        /* \"contracts/reference.sol\":818:828  msg.sender */\n      caller\n        /* \"contracts/reference.sol\":13744:13777  _allowances[sender][_msgSender()] */\n      dup5\n      mstore\n      swap1\n      swap2\n      mstore\n      swap1\n      keccak256\n      sload\n      swap2\n      swap1\n        /* \"contracts/reference.sol\":13744:13781  _allowances[sender][_msgSender()].sub */\n      tag_340\n        /* \"contracts/reference.sol\":13744:13832  _allowances[sender][_msgSender()].sub(amount,\"ERC20: transfer amount exceeds allowance\") */\n      jump\t// in\n    tag_338:\n        /* \"contracts/reference.sol\":13715:13723  _approve */\n      tag_320\n        /* \"contracts/reference.sol\":13715:13833  _approve(sender,_msgSender(),_allowances[sender][_msgSender()].sub(amount,\"ERC20: transfer amount exceeds allowance\")) */\n      jump\t// in\n    tag_336:\n      pop\n        /* \"contracts/reference.sol\":13850:13854  true */\n      0x01\n        /* \"contracts/reference.sol\":13553:13861  function transferFrom(address sender, address recipient, uint256 amount) external override returns (bool) {... */\n      swap4\n      swap3\n      pop\n      pop\n      pop\n      jump\t// out\n        /* \"contracts/reference.sol\":25855:26178  function setMaxWalletAmount(uint256 maxWalletAmount) external onlyOwner() {... */\n    tag_120:\n        /* \"contracts/reference.sol\":3076:3082  _owner */\n      and(sub(shl(0xa0, 0x01), 0x01), sload(0x00))\n        /* \"contracts/reference.sol\":818:828  msg.sender */\n      caller\n        /* \"contracts/reference.sol\":3076:3098  _owner == _msgSender() */\n      eq\n        /* \"contracts/reference.sol\":3068:3135  require(_owner == _msgSender(), \"Ownable: caller is not the owner\") */\n      tag_343\n      jumpi\n      mload(0x40)\n      shl(0xe5, 0x461bcd)\n      dup2\n      mstore\n      0x04\n      add\n      tag_324\n      swap1\n      tag_325\n      jump\t// in\n    tag_343:\n        /* \"contracts/reference.sol\":25966:25983  _tTotal.div(1000) */\n      tag_346\n        /* \"contracts/reference.sol\":8637:8655  1000000000 * 10**9 */\n      0x0de0b6b3a7640000\n        /* \"contracts/reference.sol\":25978:25982  1000 */\n      0x03e8\n        /* \"contracts/reference.sol\":25966:25977  _tTotal.div */\n      tag_347\n        /* \"contracts/reference.sol\":25966:25983  _tTotal.div(1000) */\n      jump\t// in\n    tag_346:\n        /* \"contracts/reference.sol\":25947:25962  maxWalletAmount */\n      dup2\n        /* \"contracts/reference.sol\":25947:25983  maxWalletAmount >= _tTotal.div(1000) */\n      lt\n      iszero\n        /* \"contracts/reference.sol\":25939:26030  require(maxWalletAmount >= _tTotal.div(1000), \"Amount must be greater than 0.1% of supply\") */\n      tag_348\n      jumpi\n      mload(0x40)\n      shl(0xe5, 0x461bcd)\n      dup2\n      mstore\n        /* \"#utility.yul\":11131:11133   */\n      0x20\n        /* \"contracts/reference.sol\":25939:26030  require(maxWalletAmount >= _tTotal.div(1000), \"Amount must be greater than 0.1% of supply\") */\n      0x04\n      dup3\n      add\n        /* \"#utility.yul\":11113:11134   */\n      mstore\n        /* \"#utility.yul\":11170:11172   */\n      0x2a\n        /* \"#utility.yul\":11150:11168   */\n      0x24\n      dup3\n      add\n        /* \"#utility.yul\":11143:11173   */\n      mstore\n        /* \"#utility.yul\":11209:11243   */\n      0x416d6f756e74206d7573742062652067726561746572207468616e20302e3125\n        /* \"#utility.yul\":11189:11207   */\n      0x44\n      dup3\n      add\n        /* \"#utility.yul\":11182:11244   */\n      mstore\n      shl(0xb0, 0x206f6620737570706c79)\n        /* \"#utility.yul\":11260:11278   */\n      0x64\n      dup3\n      add\n        /* \"#utility.yul\":11253:11293   */\n      mstore\n        /* \"#utility.yul\":11310:11329   */\n      0x84\n      add\n        /* \"contracts/reference.sol\":25939:26030  require(maxWalletAmount >= _tTotal.div(1000), \"Amount must be greater than 0.1% of supply\") */\n      tag_324\n        /* \"#utility.yul\":11103:11335   */\n      jump\n        /* \"contracts/reference.sol\":25939:26030  require(maxWalletAmount >= _tTotal.div(1000), \"Amount must be greater than 0.1% of supply\") */\n    tag_348:\n        /* \"contracts/reference.sol\":8637:8655  1000000000 * 10**9 */\n      0x0de0b6b3a7640000\n        /* \"contracts/reference.sol\":26048:26063  maxWalletAmount */\n      dup2\n        /* \"contracts/reference.sol\":26048:26074  maxWalletAmount <= _tTotal */\n      gt\n      iszero\n        /* \"contracts/reference.sol\":26040:26127  require(maxWalletAmount <= _tTotal, \"Amount must be less than or equal to totalSupply\") */\n      tag_351\n      jumpi\n      mload(0x40)\n      shl(0xe5, 0x461bcd)\n      dup2\n      mstore\n        /* \"#utility.yul\":13189:13191   */\n      0x20\n        /* \"contracts/reference.sol\":26040:26127  require(maxWalletAmount <= _tTotal, \"Amount must be less than or equal to totalSupply\") */\n      0x04\n      dup3\n      add\n        /* \"#utility.yul\":13171:13192   */\n      mstore\n        /* \"#utility.yul\":13228:13230   */\n      0x30\n        /* \"#utility.yul\":13208:13226   */\n      0x24\n      dup3\n      add\n        /* \"#utility.yul\":13201:13231   */\n      mstore\n        /* \"#utility.yul\":13267:13301   */\n      0x416d6f756e74206d757374206265206c657373207468616e206f722065717561\n        /* \"#utility.yul\":13247:13265   */\n      0x44\n      dup3\n      add\n        /* \"#utility.yul\":13240:13302   */\n      mstore\n      shl(0x80, 0x6c20746f20746f74616c537570706c79)\n        /* \"#utility.yul\":13318:13336   */\n      0x64\n      dup3\n      add\n        /* \"#utility.yul\":13311:13357   */\n      mstore\n        /* \"#utility.yul\":13374:13393   */\n      0x84\n      add\n        /* \"contracts/reference.sol\":26040:26127  require(maxWalletAmount <= _tTotal, \"Amount must be less than or equal to totalSupply\") */\n      tag_324\n        /* \"#utility.yul\":13161:13399   */\n      jump\n        /* \"contracts/reference.sol\":26040:26127  require(maxWalletAmount <= _tTotal, \"Amount must be less than or equal to totalSupply\") */\n    tag_351:\n        /* \"contracts/reference.sol\":26137:26153  _maxWalletAmount */\n      0x07\n        /* \"contracts/reference.sol\":26137:26171  _maxWalletAmount = maxWalletAmount */\n      sstore\n        /* \"contracts/reference.sol\":25855:26178  function setMaxWalletAmount(uint256 maxWalletAmount) external onlyOwner() {... */\n      jump\t// out\n        /* \"contracts/reference.sol\":22762:22944  function manualSendToken(address token) external onlyOwner() {... */\n    tag_129:\n        /* \"contracts/reference.sol\":3076:3082  _owner */\n      and(sub(shl(0xa0, 0x01), 0x01), sload(0x00))\n        /* \"contracts/reference.sol\":818:828  msg.sender */\n      caller\n        /* \"contracts/reference.sol\":3076:3098  _owner == _msgSender() */\n      eq\n        /* \"contracts/reference.sol\":3068:3135  require(_owner == _msgSender(), \"Ownable: caller is not the owner\") */\n      tag_356\n      jumpi\n      mload(0x40)\n      shl(0xe5, 0x461bcd)\n      dup2\n      mstore\n      0x04\n      add\n      tag_324\n      swap1\n      tag_325\n      jump\t// in\n    tag_356:\n        /* \"contracts/reference.sol\":22850:22888  IERC20(token).balanceOf(address(this)) */\n      mload(0x40)\n      shl(0xe0, 0x70a08231)\n      dup2\n      mstore\n        /* \"contracts/reference.sol\":22882:22886  this */\n      address\n        /* \"contracts/reference.sol\":22850:22888  IERC20(token).balanceOf(address(this)) */\n      0x04\n      dup3\n      add\n        /* \"#utility.yul\":4559:4610   */\n      mstore\n        /* \"contracts/reference.sol\":22833:22847  uint256 amount */\n      0x00\n      swap1\n      sub(shl(0xa0, 0x01), 0x01)\n        /* \"contracts/reference.sol\":22850:22873  IERC20(token).balanceOf */\n      dup4\n      and\n      swap1\n      0x70a08231\n      swap1\n        /* \"#utility.yul\":4532:4550   */\n      0x24\n      add\n        /* \"contracts/reference.sol\":22850:22888  IERC20(token).balanceOf(address(this)) */\n      0x20\n      mload(0x40)\n      dup1\n      dup4\n      sub\n      dup2\n      dup7\n      dup1\n      extcodesize\n      iszero\n      dup1\n      iszero\n      tag_360\n      jumpi\n      0x00\n      dup1\n      revert\n    tag_360:\n      pop\n      gas\n      staticcall\n      iszero\n      dup1\n      iszero\n      tag_362\n      jumpi\n      returndatasize\n      0x00\n      dup1\n      returndatacopy\n      revert(0x00, returndatasize)\n    tag_362:\n      pop\n      pop\n      pop\n      pop\n      mload(0x40)\n      returndatasize\n      not(0x1f)\n      0x1f\n      dup3\n      add\n      and\n      dup3\n      add\n      dup1\n      0x40\n      mstore\n      pop\n      dup2\n      add\n      swap1\n      tag_363\n      swap2\n      swap1\n      tag_364\n      jump\t// in\n    tag_363:\n        /* \"contracts/reference.sol\":22833:22888  uint256 amount = IERC20(token).balanceOf(address(this)) */\n      swap1\n      pop\n        /* \"contracts/reference.sol\":22905:22910  token */\n      dup2\n      sub(shl(0xa0, 0x01), 0x01)\n        /* \"contracts/reference.sol\":22898:22920  IERC20(token).transfer */\n      and\n      0xa9059cbb\n        /* \"contracts/reference.sol\":22921:22928  owner() */\n      tag_365\n        /* \"contracts/reference.sol\":2992:2999  address */\n      0x00\n        /* \"contracts/reference.sol\":3018:3024  _owner */\n      sload\n      sub(shl(0xa0, 0x01), 0x01)\n      and\n      swap1\n        /* \"contracts/reference.sol\":2954:3031  function owner() public view returns (address) {... */\n      jump\n        /* \"contracts/reference.sol\":22921:22928  owner() */\n    tag_365:\n        /* \"contracts/reference.sol\":22898:22937  IERC20(token).transfer(owner(), amount) */\n      mload(0x40)\n      not(sub(shl(0xe0, 0x01), 0x01))\n      0xe0\n      dup5\n      swap1\n      shl\n      and\n      dup2\n      mstore\n      sub(shl(0xa0, 0x01), 0x01)\n        /* \"#utility.yul\":4813:4845   */\n      swap1\n      swap2\n      and\n        /* \"contracts/reference.sol\":22898:22937  IERC20(token).transfer(owner(), amount) */\n      0x04\n      dup3\n      add\n        /* \"#utility.yul\":4795:4846   */\n      mstore\n        /* \"#utility.yul\":4862:4880   */\n      0x24\n      dup2\n      add\n        /* \"#utility.yul\":4855:4889   */\n      dup5\n      swap1\n      mstore\n        /* \"#utility.yul\":4768:4786   */\n      0x44\n      add\n        /* \"contracts/reference.sol\":22898:22937  IERC20(token).transfer(owner(), amount) */\n      0x20\n      mload(0x40)\n      dup1\n      dup4\n      sub\n      dup2\n      0x00\n      dup8\n      dup1\n      extcodesize\n      iszero\n      dup1\n      iszero\n      tag_368\n      jumpi\n      0x00\n      dup1\n      revert\n    tag_368:\n      pop\n      gas\n      call\n      iszero\n      dup1\n      iszero\n      tag_370\n      jumpi\n      returndatasize\n      0x00\n      dup1\n      returndatacopy\n      revert(0x00, returndatasize)\n    tag_370:\n      pop\n      pop\n      pop\n      pop\n      mload(0x40)\n      returndatasize\n      not(0x1f)\n      0x1f\n      dup3\n      add\n      and\n      dup3\n      add\n      dup1\n      0x40\n      mstore\n      pop\n      dup2\n      add\n      swap1\n      tag_371\n      swap2\n      swap1\n      tag_372\n      jump\t// in\n    tag_371:\n      pop\n        /* \"contracts/reference.sol\":3145:3146  _ */\n      pop\n        /* \"contracts/reference.sol\":22762:22944  function manualSendToken(address token) external onlyOwner() {... */\n      pop\n      jump\t// out\n        /* \"contracts/reference.sol\":22083:22225  function disableToken() external onlyOwner() {... */\n    tag_154:\n        /* \"contracts/reference.sol\":3076:3082  _owner */\n      and(sub(shl(0xa0, 0x01), 0x01), sload(0x00))\n        /* \"contracts/reference.sol\":818:828  msg.sender */\n      caller\n        /* \"contracts/reference.sol\":3076:3098  _owner == _msgSender() */\n      eq\n        /* \"contracts/reference.sol\":3068:3135  require(_owner == _msgSender(), \"Ownable: caller is not the owner\") */\n      tag_377\n      jumpi\n      mload(0x40)\n      shl(0xe5, 0x461bcd)\n      dup2\n      mstore\n      0x04\n      add\n      tag_324\n      swap1\n      tag_325\n      jump\t// in\n    tag_377:\n        /* \"contracts/reference.sol\":22146:22154  canPause */\n      sload(0x28)\n      0x010000\n      swap1\n      div\n      0xff\n      and\n        /* \"contracts/reference.sol\":22138:22189  require(canPause, \"this contract cannot be paused\") */\n      tag_380\n      jumpi\n      mload(0x40)\n      shl(0xe5, 0x461bcd)\n      dup2\n      mstore\n        /* \"#utility.yul\":7299:7301   */\n      0x20\n        /* \"contracts/reference.sol\":22138:22189  require(canPause, \"this contract cannot be paused\") */\n      0x04\n      dup3\n      add\n        /* \"#utility.yul\":7281:7302   */\n      mstore\n        /* \"#utility.yul\":7338:7340   */\n      0x1e\n        /* \"#utility.yul\":7318:7336   */\n      0x24\n      dup3\n      add\n        /* \"#utility.yul\":7311:7341   */\n      mstore\n        /* \"#utility.yul\":7377:7409   */\n      0x7468697320636f6e74726163742063616e6e6f74206265207061757365640000\n        /* \"#utility.yul\":7357:7375   */\n      0x44\n      dup3\n      add\n        /* \"#utility.yul\":7350:7410   */\n      mstore\n        /* \"#utility.yul\":7427:7445   */\n      0x64\n      add\n        /* \"contracts/reference.sol\":22138:22189  require(canPause, \"this contract cannot be paused\") */\n      tag_324\n        /* \"#utility.yul\":7271:7451   */\n      jump\n        /* \"contracts/reference.sol\":22138:22189  require(canPause, \"this contract cannot be paused\") */\n    tag_380:\n        /* \"contracts/reference.sol\":22199:22210  tradingOpen */\n      0x28\n        /* \"contracts/reference.sol\":22199:22218  tradingOpen = false */\n      dup1\n      sload\n      not(0xff)\n      and\n      swap1\n      sstore\n        /* \"contracts/reference.sol\":22083:22225  function disableToken() external onlyOwner() {... */\n      jump\t// out\n        /* \"contracts/reference.sol\":25098:25209  function excludeFromFee(address account) public onlyOwner() {... */\n    tag_158:\n        /* \"contracts/reference.sol\":3076:3082  _owner */\n      and(sub(shl(0xa0, 0x01), 0x01), sload(0x00))\n        /* \"contracts/reference.sol\":818:828  msg.sender */\n      caller\n        /* \"contracts/reference.sol\":3076:3098  _owner == _msgSender() */\n      eq\n        /* \"contracts/reference.sol\":3068:3135  require(_owner == _msgSender(), \"Ownable: caller is not the owner\") */\n      tag_385\n      jumpi\n      mload(0x40)\n      shl(0xe5, 0x461bcd)\n      dup2\n      mstore\n      0x04\n      add\n      tag_324\n      swap1\n      tag_325\n      jump\t// in\n    tag_385:\n      sub(shl(0xa0, 0x01), 0x01)\n        /* \"contracts/reference.sol\":25168:25195  _isExcludedFromFee[account] */\n      and\n      0x00\n      swap1\n      dup2\n      mstore\n        /* \"contracts/reference.sol\":25168:25186  _isExcludedFromFee */\n      0x04\n        /* \"contracts/reference.sol\":25168:25195  _isExcludedFromFee[account] */\n      0x20\n      mstore\n      0x40\n      swap1\n      keccak256\n        /* \"contracts/reference.sol\":25168:25202  _isExcludedFromFee[account] = true */\n      dup1\n      sload\n      not(0xff)\n      and\n        /* \"contracts/reference.sol\":25198:25202  true */\n      0x01\n        /* \"contracts/reference.sol\":25168:25202  _isExcludedFromFee[account] = true */\n      or\n      swap1\n      sstore\n        /* \"contracts/reference.sol\":25098:25209  function excludeFromFee(address account) public onlyOwner() {... */\n      jump\t// out\n        /* \"contracts/reference.sol\":25337:25432  function removeBot(address account) external onlyOwner() {... */\n    tag_167:\n        /* \"contracts/reference.sol\":3076:3082  _owner */\n      and(sub(shl(0xa0, 0x01), 0x01), sload(0x00))\n        /* \"contracts/reference.sol\":818:828  msg.sender */\n      caller\n        /* \"contracts/reference.sol\":3076:3098  _owner == _msgSender() */\n      eq\n        /* \"contracts/reference.sol\":3068:3135  require(_owner == _msgSender(), \"Ownable: caller is not the owner\") */\n      tag_390\n      jumpi\n      mload(0x40)\n      shl(0xe5, 0x461bcd)\n      dup2\n      mstore\n      0x04\n      add\n      tag_324\n      swap1\n      tag_325\n      jump\t// in\n    tag_390:\n      sub(shl(0xa0, 0x01), 0x01)\n        /* \"contracts/reference.sol\":25404:25417  bots[account] */\n      and\n        /* \"contracts/reference.sol\":25420:25425  false */\n      0x00\n        /* \"contracts/reference.sol\":25404:25417  bots[account] */\n      swap1\n      dup2\n      mstore\n        /* \"contracts/reference.sol\":25404:25408  bots */\n      0x20\n        /* \"contracts/reference.sol\":25404:25417  bots[account] */\n      dup1\n      mstore\n      0x40\n      swap1\n      keccak256\n        /* \"contracts/reference.sol\":25404:25425  bots[account] = false */\n      dup1\n      sload\n      not(0xff)\n      and\n      swap1\n      sstore\n        /* \"contracts/reference.sol\":25337:25432  function removeBot(address account) external onlyOwner() {... */\n      jump\t// out\n        /* \"contracts/reference.sol\":22231:22316  function disablePauseAbility() onlyOwner() external {... */\n    tag_170:\n        /* \"contracts/reference.sol\":3076:3082  _owner */\n      and(sub(shl(0xa0, 0x01), 0x01), sload(0x00))\n        /* \"contracts/reference.sol\":818:828  msg.sender */\n      caller\n        /* \"contracts/reference.sol\":3076:3098  _owner == _msgSender() */\n      eq\n        /* \"contracts/reference.sol\":3068:3135  require(_owner == _msgSender(), \"Ownable: caller is not the owner\") */\n      tag_395\n      jumpi\n      mload(0x40)\n      shl(0xe5, 0x461bcd)\n      dup2\n      mstore\n      0x04\n      add\n      tag_324\n      swap1\n      tag_325\n      jump\t// in\n    tag_395:\n        /* \"contracts/reference.sol\":22293:22301  canPause */\n      0x28\n        /* \"contracts/reference.sol\":22293:22309  canPause = false */\n      dup1\n      sload\n      not(0xff0000)\n      and\n      swap1\n      sstore\n        /* \"contracts/reference.sol\":22231:22316  function disablePauseAbility() onlyOwner() external {... */\n      jump\t// out\n        /* \"contracts/reference.sol\":22530:22756  function manualsend() external onlyOwner() {... */\n    tag_177:\n        /* \"contracts/reference.sol\":3076:3082  _owner */\n      and(sub(shl(0xa0, 0x01), 0x01), sload(0x00))\n        /* \"contracts/reference.sol\":818:828  msg.sender */\n      caller\n        /* \"contracts/reference.sol\":3076:3098  _owner == _msgSender() */\n      eq\n        /* \"contracts/reference.sol\":3068:3135  require(_owner == _msgSender(), \"Ownable: caller is not the owner\") */\n      tag_400\n      jumpi\n      mload(0x40)\n      shl(0xe5, 0x461bcd)\n      dup2\n      mstore\n      0x04\n      add\n      tag_324\n      swap1\n      tag_325\n      jump\t// in\n    tag_400:\n        /* \"contracts/reference.sol\":22612:22633  address(this).balance */\n      selfbalance\n        /* \"contracts/reference.sol\":22647:22669  contractETHBalance > 0 */\n      dup1\n      iszero\n        /* \"contracts/reference.sol\":22643:22750  if (contractETHBalance > 0) {... */\n      tag_403\n      jumpi\n        /* \"contracts/reference.sol\":2992:2999  address */\n      0x00\n        /* \"contracts/reference.sol\":3018:3024  _owner */\n      dup1\n      sload\n        /* \"contracts/reference.sol\":22685:22739  payable(address(owner())).transfer(contractETHBalance) */\n      mload(0x40)\n      sub(shl(0xa0, 0x01), 0x01)\n        /* \"contracts/reference.sol\":3018:3024  _owner */\n      swap1\n      swap2\n      and\n      swap2\n        /* \"contracts/reference.sol\":22685:22739  payable(address(owner())).transfer(contractETHBalance) */\n      dup4\n      iszero\n      0x08fc\n      mul\n      swap2\n        /* \"contracts/reference.sol\":22720:22738  contractETHBalance */\n      dup5\n      swap2\n        /* \"contracts/reference.sol\":22685:22739  payable(address(owner())).transfer(contractETHBalance) */\n      dup2\n        /* \"contracts/reference.sol\":2992:2999  address */\n      dup2\n        /* \"contracts/reference.sol\":22685:22739  payable(address(owner())).transfer(contractETHBalance) */\n      dup2\n        /* \"contracts/reference.sol\":22720:22738  contractETHBalance */\n      dup6\n        /* \"contracts/reference.sol\":3018:3024  _owner */\n      dup9\n        /* \"contracts/reference.sol\":22685:22739  payable(address(owner())).transfer(contractETHBalance) */\n      dup9\n      call\n      swap4\n      pop\n      pop\n      pop\n      pop\n      iszero\n      dup1\n      iszero\n      tag_406\n      jumpi\n      returndatasize\n      0x00\n      dup1\n      returndatacopy\n      revert(0x00, returndatasize)\n    tag_406:\n      pop\n        /* \"contracts/reference.sol\":22643:22750  if (contractETHBalance > 0) {... */\n    tag_403:\n        /* \"contracts/reference.sol\":3145:3146  _ */\n      pop\n        /* \"contracts/reference.sol\":22530:22756  function manualsend() external onlyOwner() {... */\n      jump\t// out\n        /* \"contracts/reference.sol\":3851:3998  function renounceOwnership() public virtual onlyOwner() {... */\n    tag_185:\n        /* \"contracts/reference.sol\":3076:3082  _owner */\n      and(sub(shl(0xa0, 0x01), 0x01), sload(0x00))\n        /* \"contracts/reference.sol\":818:828  msg.sender */\n      caller\n        /* \"contracts/reference.sol\":3076:3098  _owner == _msgSender() */\n      eq\n        /* \"contracts/reference.sol\":3068:3135  require(_owner == _msgSender(), \"Ownable: caller is not the owner\") */\n      tag_410\n      jumpi\n      mload(0x40)\n      shl(0xe5, 0x461bcd)\n      dup2\n      mstore\n      0x04\n      add\n      tag_324\n      swap1\n      tag_325\n      jump\t// in\n    tag_410:\n        /* \"contracts/reference.sol\":3959:3960  0 */\n      0x00\n        /* \"contracts/reference.sol\":3943:3949  _owner */\n      dup1\n      sload\n        /* \"contracts/reference.sol\":3922:3962  OwnershipTransferred(_owner, address(0)) */\n      mload(0x40)\n      sub(shl(0xa0, 0x01), 0x01)\n        /* \"contracts/reference.sol\":3943:3949  _owner */\n      swap1\n      swap2\n      and\n      swap1\n        /* \"contracts/reference.sol\":3922:3962  OwnershipTransferred(_owner, address(0)) */\n      0x8be0079c531659141344cd1fd0a4f28419497f9722a3daafe3b4186f6b6457e0\n      swap1\n        /* \"contracts/reference.sol\":3959:3960  0 */\n      dup4\n      swap1\n        /* \"contracts/reference.sol\":3922:3962  OwnershipTransferred(_owner, address(0)) */\n      log3\n        /* \"contracts/reference.sol\":3989:3990  0 */\n      0x00\n        /* \"contracts/reference.sol\":3972:3991  _owner = address(0) */\n      dup1\n      sload\n      not(sub(shl(0xa0, 0x01), 0x01))\n      and\n      swap1\n      sstore\n        /* \"contracts/reference.sol\":3851:3998  function renounceOwnership() public virtual onlyOwner() {... */\n      jump\t// out\n        /* \"contracts/reference.sol\":28623:28796  function configureStrongHands(bool enabled, uint32 duration) external onlyOwner {... */\n    tag_190:\n        /* \"contracts/reference.sol\":3076:3082  _owner */\n      and(sub(shl(0xa0, 0x01), 0x01), sload(0x00))\n        /* \"contracts/reference.sol\":818:828  msg.sender */\n      caller\n        /* \"contracts/reference.sol\":3076:3098  _owner == _msgSender() */\n      eq\n        /* \"contracts/reference.sol\":3068:3135  require(_owner == _msgSender(), \"Ownable: caller is not the owner\") */\n      tag_415\n      jumpi\n      mload(0x40)\n      shl(0xe5, 0x461bcd)\n      dup2\n      mstore\n      0x04\n      add\n      tag_324\n      swap1\n      tag_325\n      jump\t// in\n    tag_415:\n        /* \"contracts/reference.sol\":28713:28721  cooldown */\n      0x1a\n        /* \"contracts/reference.sol\":28713:28739  cooldown.enabled = enabled */\n      dup1\n      sload\n      not(0xff)\n      and\n      dup4\n      iszero\n      iszero\n      or\n      swap1\n      sstore\n        /* \"contracts/reference.sol\":28769:28789  duration * 1 minutes */\n      tag_418\n        /* \"contracts/reference.sol\":28769:28777  duration */\n      dup2\n        /* \"contracts/reference.sol\":28780:28789  1 minutes */\n      0x3c\n        /* \"contracts/reference.sol\":28769:28789  duration * 1 minutes */\n      tag_419\n      jump\t// in\n    tag_418:\n        /* \"contracts/reference.sol\":28749:28757  cooldown */\n      0x1a\n        /* \"contracts/reference.sol\":28749:28789  cooldown.duration = duration * 1 minutes */\n      dup1\n      sload\n      0xffffffff\n      swap3\n      swap1\n      swap3\n      and\n      0x0100\n      mul\n      not(0xffffffff00)\n      swap1\n      swap3\n      and\n      swap2\n      swap1\n      swap2\n      or\n      swap1\n      sstore\n      pop\n      pop\n        /* \"contracts/reference.sol\":28623:28796  function configureStrongHands(bool enabled, uint32 duration) external onlyOwner {... */\n      jump\t// out\n        /* \"contracts/reference.sol\":21998:22077  function enableToken() external onlyOwner() {... */\n    tag_210:\n        /* \"contracts/reference.sol\":3076:3082  _owner */\n      and(sub(shl(0xa0, 0x01), 0x01), sload(0x00))\n        /* \"contracts/reference.sol\":818:828  msg.sender */\n      caller\n        /* \"contracts/reference.sol\":3076:3098  _owner == _msgSender() */\n      eq\n        /* \"contracts/reference.sol\":3068:3135  require(_owner == _msgSender(), \"Ownable: caller is not the owner\") */\n      tag_423\n      jumpi\n      mload(0x40)\n      shl(0xe5, 0x461bcd)\n      dup2\n      mstore\n      0x04\n      add\n      tag_324\n      swap1\n      tag_325\n      jump\t// in\n    tag_423:\n        /* \"contracts/reference.sol\":22052:22063  tradingOpen */\n      0x28\n        /* \"contracts/reference.sol\":22052:22070  tradingOpen = true */\n      dup1\n      sload\n      not(0xff)\n      and\n        /* \"contracts/reference.sol\":22066:22070  true */\n      0x01\n        /* \"contracts/reference.sol\":22052:22070  tradingOpen = true */\n      or\n      swap1\n      sstore\n        /* \"contracts/reference.sol\":21998:22077  function enableToken() external onlyOwner() {... */\n      jump\t// out\n        /* \"contracts/reference.sol\":19677:20093  function pairPrice() public view returns (uint256) {... */\n    tag_213:\n        /* \"contracts/reference.sol\":19719:19726  uint256 */\n      0x00\n        /* \"contracts/reference.sol\":19739:19755  uint112 reserve0 */\n      dup1\n        /* \"contracts/reference.sol\":19757:19773  uint112 reserve1 */\n      0x00\n        /* \"contracts/reference.sol\":19793:19806  uniswapV2Pair */\n      0x26\n      0x00\n      swap1\n      sload\n      swap1\n      0x0100\n      exp\n      swap1\n      div\n      sub(shl(0xa0, 0x01), 0x01)\n      and\n      sub(shl(0xa0, 0x01), 0x01)\n        /* \"contracts/reference.sol\":19778:19819  IUniswapV2Pair(uniswapV2Pair).getReserves */\n      and\n      0x0902f1ac\n        /* \"contracts/reference.sol\":19778:19821  IUniswapV2Pair(uniswapV2Pair).getReserves() */\n      mload(0x40)\n      dup2\n      0xffffffff\n      and\n      0xe0\n      shl\n      dup2\n      mstore\n      0x04\n      add\n      0x60\n      mload(0x40)\n      dup1\n      dup4\n      sub\n      dup2\n      dup7\n      dup1\n      extcodesize\n      iszero\n      dup1\n      iszero\n      tag_427\n      jumpi\n      0x00\n      dup1\n      revert\n    tag_427:\n      pop\n      gas\n      staticcall\n      iszero\n      dup1\n      iszero\n      tag_429\n      jumpi\n      returndatasize\n      0x00\n      dup1\n      returndatacopy\n      revert(0x00, returndatasize)\n    tag_429:\n      pop\n      pop\n      pop\n      pop\n      mload(0x40)\n      returndatasize\n      not(0x1f)\n      0x1f\n      dup3\n      add\n      and\n      dup3\n      add\n      dup1\n      0x40\n      mstore\n      pop\n      dup2\n      add\n      swap1\n      tag_430\n      swap2\n      swap1\n      tag_431\n      jump\t// in\n    tag_430:\n        /* \"contracts/reference.sol\":19738:19821  (uint112 reserve0, uint112 reserve1,) = IUniswapV2Pair(uniswapV2Pair).getReserves() */\n      pop\n      swap2\n      pop\n      swap2\n      pop\n        /* \"contracts/reference.sol\":19835:19843  reserve0 */\n      dup2\n      sub(shl(0x70, 0x01), 0x01)\n        /* \"contracts/reference.sol\":19835:19848  reserve0 == 0 */\n      and\n        /* \"contracts/reference.sol\":19847:19848  0 */\n      0x00\n        /* \"contracts/reference.sol\":19835:19848  reserve0 == 0 */\n      eq\n        /* \"contracts/reference.sol\":19835:19865  reserve0 == 0 || reserve1 == 0 */\n      dup1\n      tag_432\n      jumpi\n      pop\n      sub(shl(0x70, 0x01), 0x01)\n        /* \"contracts/reference.sol\":19852:19865  reserve1 == 0 */\n      dup2\n      and\n      iszero\n        /* \"contracts/reference.sol\":19835:19865  reserve0 == 0 || reserve1 == 0 */\n    tag_432:\n        /* \"contracts/reference.sol\":19831:19875  if (reserve0 == 0 || reserve1 == 0) return 0 */\n      iszero\n      tag_433\n      jumpi\n        /* \"contracts/reference.sol\":19874:19875  0 */\n      0x00\n        /* \"contracts/reference.sol\":19867:19875  return 0 */\n      swap3\n      pop\n      pop\n      pop\n        /* \"contracts/reference.sol\":19677:20093  function pairPrice() public view returns (uint256) {... */\n      swap1\n      jump\t// out\n        /* \"contracts/reference.sol\":19831:19875  if (reserve0 == 0 || reserve1 == 0) return 0 */\n    tag_433:\n        /* \"contracts/reference.sol\":19916:19929  uniswapV2Pair */\n      sload(0x26)\n        /* \"contracts/reference.sol\":19901:19939  IUniswapV2Pair(uniswapV2Pair).token0() */\n      0x40\n      dup1\n      mload\n      shl(0xe0, 0x0dfe1681)\n      dup2\n      mstore\n      swap1\n      mload\n        /* \"contracts/reference.sol\":19951:19955  this */\n      address\n      swap3\n      sub(shl(0xa0, 0x01), 0x01)\n        /* \"contracts/reference.sol\":19916:19929  uniswapV2Pair */\n      and\n      swap2\n        /* \"contracts/reference.sol\":19901:19937  IUniswapV2Pair(uniswapV2Pair).token0 */\n      0x0dfe1681\n      swap2\n        /* \"contracts/reference.sol\":19901:19939  IUniswapV2Pair(uniswapV2Pair).token0() */\n      0x04\n      dup1\n      dup4\n      add\n      swap3\n      0x20\n      swap3\n      swap2\n      swap1\n      dup3\n      swap1\n      sub\n      add\n      dup2\n        /* \"contracts/reference.sol\":19916:19929  uniswapV2Pair */\n      dup7\n        /* \"contracts/reference.sol\":19901:19939  IUniswapV2Pair(uniswapV2Pair).token0() */\n      dup1\n      extcodesize\n      iszero\n      dup1\n      iszero\n      tag_434\n      jumpi\n      0x00\n      dup1\n      revert\n    tag_434:\n      pop\n      gas\n      staticcall\n      iszero\n      dup1\n      iszero\n      tag_436\n      jumpi\n      returndatasize\n      0x00\n      dup1\n      returndatacopy\n      revert(0x00, returndatasize)\n    tag_436:\n      pop\n      pop\n      pop\n      pop\n      mload(0x40)\n      returndatasize\n      not(0x1f)\n      0x1f\n      dup3\n      add\n      and\n      dup3\n      add\n      dup1\n      0x40\n      mstore\n      pop\n      dup2\n      add\n      swap1\n      tag_437\n      swap2\n      swap1\n      tag_438\n      jump\t// in\n    tag_437:\n      sub(shl(0xa0, 0x01), 0x01)\n        /* \"contracts/reference.sol\":19901:19956  IUniswapV2Pair(uniswapV2Pair).token0() == address(this) */\n      and\n      eq\n        /* \"contracts/reference.sol\":19901:20086  IUniswapV2Pair(uniswapV2Pair).token0() == address(this) ?... */\n      tag_439\n      jumpi\n        /* \"contracts/reference.sol\":20036:20086  uint256(reserve0).mul(1e18).div(uint256(reserve1)) */\n      tag_440\n      sub(shl(0x70, 0x01), 0x01)\n        /* \"contracts/reference.sol\":20068:20085  uint256(reserve1) */\n      dup1\n      dup4\n      and\n      swap1\n        /* \"contracts/reference.sol\":20036:20063  uint256(reserve0).mul(1e18) */\n      tag_441\n      swap1\n        /* \"contracts/reference.sol\":20036:20053  uint256(reserve0) */\n      dup6\n      and\n        /* \"contracts/reference.sol\":20058:20062  1e18 */\n      0x0de0b6b3a7640000\n        /* \"contracts/reference.sol\":20036:20057  uint256(reserve0).mul */\n      tag_442\n        /* \"contracts/reference.sol\":20036:20063  uint256(reserve0).mul(1e18) */\n      jump\t// in\n    tag_441:\n        /* \"contracts/reference.sol\":20036:20067  uint256(reserve0).mul(1e18).div */\n      swap1\n      tag_347\n        /* \"contracts/reference.sol\":20036:20086  uint256(reserve0).mul(1e18).div(uint256(reserve1)) */\n      jump\t// in\n    tag_440:\n        /* \"contracts/reference.sol\":19901:20086  IUniswapV2Pair(uniswapV2Pair).token0() == address(this) ?... */\n      jump(tag_444)\n    tag_439:\n        /* \"contracts/reference.sol\":19971:20021  uint256(reserve1).mul(1e18).div(uint256(reserve0)) */\n      tag_444\n      sub(shl(0x70, 0x01), 0x01)\n        /* \"contracts/reference.sol\":20003:20020  uint256(reserve0) */\n      dup1\n      dup5\n      and\n      swap1\n        /* \"contracts/reference.sol\":19971:19998  uint256(reserve1).mul(1e18) */\n      tag_441\n      swap1\n        /* \"contracts/reference.sol\":19971:19988  uint256(reserve1) */\n      dup5\n      and\n        /* \"contracts/reference.sol\":19993:19997  1e18 */\n      0x0de0b6b3a7640000\n        /* \"contracts/reference.sol\":19971:19992  uint256(reserve1).mul */\n      tag_442\n        /* \"contracts/reference.sol\":19971:19998  uint256(reserve1).mul(1e18) */\n      jump\t// in\n        /* \"contracts/reference.sol\":19971:20021  uint256(reserve1).mul(1e18).div(uint256(reserve0)) */\n    tag_444:\n        /* \"contracts/reference.sol\":19894:20086  return IUniswapV2Pair(uniswapV2Pair).token0() == address(this) ?... */\n      swap3\n      pop\n      pop\n      pop\n        /* \"contracts/reference.sol\":19677:20093  function pairPrice() public view returns (uint256) {... */\n      swap1\n      jump\t// out\n        /* \"contracts/reference.sol\":27857:27943  function disableTaxChange() onlyOwner() external {... */\n    tag_221:\n        /* \"contracts/reference.sol\":3076:3082  _owner */\n      and(sub(shl(0xa0, 0x01), 0x01), sload(0x00))\n        /* \"contracts/reference.sol\":818:828  msg.sender */\n      caller\n        /* \"contracts/reference.sol\":3076:3098  _owner == _msgSender() */\n      eq\n        /* \"contracts/reference.sol\":3068:3135  require(_owner == _msgSender(), \"Ownable: caller is not the owner\") */\n      tag_449\n      jumpi\n      mload(0x40)\n      shl(0xe5, 0x461bcd)\n      dup2\n      mstore\n      0x04\n      add\n      tag_324\n      swap1\n      tag_325\n      jump\t// in\n    tag_449:\n        /* \"contracts/reference.sol\":27916:27928  canChangeTax */\n      0x28\n        /* \"contracts/reference.sol\":27916:27936  canChangeTax = false */\n      dup1\n      sload\n      not(0xff00000000)\n      and\n      swap1\n      sstore\n        /* \"contracts/reference.sol\":27857:27943  function disableTaxChange() onlyOwner() external {... */\n      jump\t// out\n        /* \"contracts/reference.sol\":28802:29340  function cooldownRemaining(address account) public view returns (... */\n    tag_225:\n      sub(shl(0xa0, 0x01), 0x01)\n        /* \"contracts/reference.sol\":29005:29033  cooldown.walletList[account] */\n      dup2\n      and\n        /* \"contracts/reference.sol\":28876:28889  uint256 days_ */\n      0x00\n        /* \"contracts/reference.sol\":29005:29033  cooldown.walletList[account] */\n      swap1\n      dup2\n      mstore\n        /* \"contracts/reference.sol\":29005:29024  cooldown.walletList */\n      0x1b\n        /* \"contracts/reference.sol\":29005:29033  cooldown.walletList[account] */\n      0x20\n      mstore\n      0x40\n      dup2\n      keccak256\n      sload\n        /* \"contracts/reference.sol\":28876:28889  uint256 days_ */\n      dup2\n      swap1\n      dup2\n      swap1\n      dup2\n      swap1\n      dup2\n      swap1\n        /* \"contracts/reference.sol\":29036:29051  block.timestamp */\n      timestamp\n      lt\n        /* \"contracts/reference.sol\":29005:29120  cooldown.walletList[account] > block.timestamp ? ... */\n      tag_453\n      jumpi\n        /* \"contracts/reference.sol\":29119:29120  0 */\n      0x00\n        /* \"contracts/reference.sol\":29005:29120  cooldown.walletList[account] > block.timestamp ? ... */\n      jump(tag_455)\n    tag_453:\n      sub(shl(0xa0, 0x01), 0x01)\n        /* \"contracts/reference.sol\":29067:29095  cooldown.walletList[account] */\n      dup7\n      and\n      0x00\n      swap1\n      dup2\n      mstore\n        /* \"contracts/reference.sol\":29067:29086  cooldown.walletList */\n      0x1b\n        /* \"contracts/reference.sol\":29067:29095  cooldown.walletList[account] */\n      0x20\n      mstore\n      0x40\n      swap1\n      keccak256\n      sload\n        /* \"contracts/reference.sol\":29067:29116  cooldown.walletList[account].sub(block.timestamp) */\n      tag_455\n      swap1\n        /* \"contracts/reference.sol\":29100:29115  block.timestamp */\n      timestamp\n        /* \"contracts/reference.sol\":29067:29099  cooldown.walletList[account].sub */\n      tag_456\n        /* \"contracts/reference.sol\":29067:29116  cooldown.walletList[account].sub(block.timestamp) */\n      jump\t// in\n    tag_455:\n        /* \"contracts/reference.sol\":28985:29120  uint256 remaining = cooldown.walletList[account] > block.timestamp ? ... */\n      swap1\n      pop\n        /* \"contracts/reference.sol\":29147:29167  remaining.div(86400) */\n      tag_457\n        /* \"contracts/reference.sol\":28985:29120  uint256 remaining = cooldown.walletList[account] > block.timestamp ? ... */\n      dup2\n        /* \"contracts/reference.sol\":29161:29166  86400 */\n      0x015180\n        /* \"contracts/reference.sol\":29147:29160  remaining.div */\n      tag_347\n        /* \"contracts/reference.sol\":29147:29167  remaining.div(86400) */\n      jump\t// in\n    tag_457:\n        /* \"contracts/reference.sol\":29139:29167  days_ = remaining.div(86400) */\n      swap5\n      pop\n        /* \"contracts/reference.sol\":29177:29195  remaining %= 86400 */\n      tag_458\n        /* \"contracts/reference.sol\":29190:29195  86400 */\n      0x015180\n        /* \"contracts/reference.sol\":29177:29195  remaining %= 86400 */\n      dup3\n      tag_459\n      jump\t// in\n    tag_458:\n      swap1\n      pop\n        /* \"contracts/reference.sol\":29214:29233  remaining.div(3600) */\n      tag_460\n        /* \"contracts/reference.sol\":29177:29195  remaining %= 86400 */\n      dup2\n        /* \"contracts/reference.sol\":29228:29232  3600 */\n      0x0e10\n        /* \"contracts/reference.sol\":29214:29227  remaining.div */\n      tag_347\n        /* \"contracts/reference.sol\":29214:29233  remaining.div(3600) */\n      jump\t// in\n    tag_460:\n        /* \"contracts/reference.sol\":29205:29233  hours_ = remaining.div(3600) */\n      swap4\n      pop\n        /* \"contracts/reference.sol\":29243:29260  remaining %= 3600 */\n      tag_461\n        /* \"contracts/reference.sol\":29256:29260  3600 */\n      0x0e10\n        /* \"contracts/reference.sol\":29243:29260  remaining %= 3600 */\n      dup3\n      tag_459\n      jump\t// in\n    tag_461:\n      swap1\n      pop\n        /* \"contracts/reference.sol\":29281:29298  remaining.div(60) */\n      tag_462\n        /* \"contracts/reference.sol\":29243:29260  remaining %= 3600 */\n      dup2\n        /* \"contracts/reference.sol\":29295:29297  60 */\n      0x3c\n        /* \"contracts/reference.sol\":29281:29294  remaining.div */\n      tag_347\n        /* \"contracts/reference.sol\":29281:29298  remaining.div(60) */\n      jump\t// in\n    tag_462:\n        /* \"contracts/reference.sol\":29270:29298  minutes_ = remaining.div(60) */\n      swap3\n      pop\n        /* \"contracts/reference.sol\":29319:29333  remaining % 60 */\n      tag_463\n        /* \"contracts/reference.sol\":29331:29333  60 */\n      0x3c\n        /* \"contracts/reference.sol\":29319:29328  remaining */\n      dup3\n        /* \"contracts/reference.sol\":29319:29333  remaining % 60 */\n      tag_459\n      jump\t// in\n    tag_463:\n        /* \"contracts/reference.sol\":29308:29333  seconds_ = remaining % 60 */\n      swap2\n      pop\n        /* \"contracts/reference.sol\":28802:29340  function cooldownRemaining(address account) public view returns (... */\n      pop\n      swap2\n      swap4\n      pop\n      swap2\n      swap4\n      jump\t// out\n        /* \"contracts/reference.sol\":25709:25849  function setTransferTransactionMultiplier(uint256 _multiplier) external onlyOwner() {... */\n    tag_231:\n        /* \"contracts/reference.sol\":3076:3082  _owner */\n      and(sub(shl(0xa0, 0x01), 0x01), sload(0x00))\n        /* \"contracts/reference.sol\":818:828  msg.sender */\n      caller\n        /* \"contracts/reference.sol\":3076:3098  _owner == _msgSender() */\n      eq\n        /* \"contracts/reference.sol\":3068:3135  require(_owner == _msgSender(), \"Ownable: caller is not the owner\") */\n      tag_466\n      jumpi\n      mload(0x40)\n      shl(0xe5, 0x461bcd)\n      dup2\n      mstore\n      0x04\n      add\n      tag_324\n      swap1\n      tag_325\n      jump\t// in\n    tag_466:\n        /* \"contracts/reference.sol\":25803:25828  transferFeeIncreaseFactor */\n      0x19\n        /* \"contracts/reference.sol\":25803:25842  transferFeeIncreaseFactor = _multiplier */\n      sstore\n        /* \"contracts/reference.sol\":25709:25849  function setTransferTransactionMultiplier(uint256 _multiplier) external onlyOwner() {... */\n      jump\t// out\n        /* \"contracts/reference.sol\":13066:13232  function transfer(address recipient, uint256 amount) external override returns (bool) {... */\n    tag_235:\n        /* \"contracts/reference.sol\":13146:13150  bool */\n      0x00\n        /* \"contracts/reference.sol\":13162:13204  _transfer(_msgSender(), recipient, amount) */\n      tag_317\n        /* \"contracts/reference.sol\":818:828  msg.sender */\n      caller\n        /* \"contracts/reference.sol\":13186:13195  recipient */\n      dup5\n        /* \"contracts/reference.sol\":13197:13203  amount */\n      dup5\n        /* \"contracts/reference.sol\":13162:13171  _transfer */\n      tag_335\n        /* \"contracts/reference.sol\":13162:13204  _transfer(_msgSender(), recipient, amount) */\n      jump\t// in\n        /* \"contracts/reference.sol\":22322:22524  function manualswap() external onlyOwner() {... */\n    tag_239:\n        /* \"contracts/reference.sol\":3076:3082  _owner */\n      and(sub(shl(0xa0, 0x01), 0x01), sload(0x00))\n        /* \"contracts/reference.sol\":818:828  msg.sender */\n      caller\n        /* \"contracts/reference.sol\":3076:3098  _owner == _msgSender() */\n      eq\n        /* \"contracts/reference.sol\":3068:3135  require(_owner == _msgSender(), \"Ownable: caller is not the owner\") */\n      tag_474\n      jumpi\n      mload(0x40)\n      shl(0xe5, 0x461bcd)\n      dup2\n      mstore\n      0x04\n      add\n      tag_324\n      swap1\n      tag_325\n      jump\t// in\n    tag_474:\n        /* \"contracts/reference.sol\":22419:22423  this */\n      address\n        /* \"contracts/reference.sol\":22375:22398  uint256 contractBalance */\n      0x00\n        /* \"contracts/reference.sol\":12929:12947  _balances[account] */\n      swap1\n      dup2\n      mstore\n        /* \"contracts/reference.sol\":12929:12938  _balances */\n      0x02\n        /* \"contracts/reference.sol\":12929:12947  _balances[account] */\n      0x20\n      mstore\n      0x40\n      swap1\n      keccak256\n      sload\n        /* \"contracts/reference.sol\":22439:22458  contractBalance > 0 */\n      dup1\n      iszero\n        /* \"contracts/reference.sol\":22435:22518  if (contractBalance > 0) {... */\n      tag_403\n      jumpi\n        /* \"contracts/reference.sol\":22474:22507  swapTokensForEth(contractBalance) */\n      tag_403\n        /* \"contracts/reference.sol\":22491:22506  contractBalance */\n      dup2\n        /* \"contracts/reference.sol\":22474:22490  swapTokensForEth */\n      tag_480\n        /* \"contracts/reference.sol\":22474:22507  swapTokensForEth(contractBalance) */\n      jump\t// in\n        /* \"contracts/reference.sol\":28376:28496  function updateLpRecipient(address payable lpRecipient) external onlyOwner() {... */\n    tag_264:\n        /* \"contracts/reference.sol\":3076:3082  _owner */\n      and(sub(shl(0xa0, 0x01), 0x01), sload(0x00))\n        /* \"contracts/reference.sol\":818:828  msg.sender */\n      caller\n        /* \"contracts/reference.sol\":3076:3098  _owner == _msgSender() */\n      eq\n        /* \"contracts/reference.sol\":3068:3135  require(_owner == _msgSender(), \"Ownable: caller is not the owner\") */\n      tag_483\n      jumpi\n      mload(0x40)\n      shl(0xe5, 0x461bcd)\n      dup2\n      mstore\n      0x04\n      add\n      tag_324\n      swap1\n      tag_325\n      jump\t// in\n    tag_483:\n        /* \"contracts/reference.sol\":28463:28475  _lpRecipient */\n      0x24\n        /* \"contracts/reference.sol\":28463:28489  _lpRecipient = lpRecipient */\n      dup1\n      sload\n      not(sub(shl(0xa0, 0x01), 0x01))\n      and\n      sub(shl(0xa0, 0x01), 0x01)\n      swap3\n      swap1\n      swap3\n      and\n      swap2\n      swap1\n      swap2\n      or\n      swap1\n      sstore\n        /* \"contracts/reference.sol\":28376:28496  function updateLpRecipient(address payable lpRecipient) external onlyOwner() {... */\n      jump\t// out\n        /* \"contracts/reference.sol\":21825:21992  function openTrading(uint256 botBlocks) external onlyOwner() {... */\n    tag_268:\n        /* \"contracts/reference.sol\":3076:3082  _owner */\n      and(sub(shl(0xa0, 0x01), 0x01), sload(0x00))\n        /* \"contracts/reference.sol\":818:828  msg.sender */\n      caller\n        /* \"contracts/reference.sol\":3076:3098  _owner == _msgSender() */\n      eq\n        /* \"contracts/reference.sol\":3068:3135  require(_owner == _msgSender(), \"Ownable: caller is not the owner\") */\n      tag_488\n      jumpi\n      mload(0x40)\n      shl(0xe5, 0x461bcd)\n      dup2\n      mstore\n      0x04\n      add\n      tag_324\n      swap1\n      tag_325\n      jump\t// in\n    tag_488:\n        /* \"contracts/reference.sol\":21910:21925  block.timestamp */\n      timestamp\n        /* \"contracts/reference.sol\":21896:21907  _firstBlock */\n      0x05\n        /* \"contracts/reference.sol\":21896:21925  _firstBlock = block.timestamp */\n      sstore\n        /* \"contracts/reference.sol\":21935:21945  _botBlocks */\n      0x06\n        /* \"contracts/reference.sol\":21935:21957  _botBlocks = botBlocks */\n      sstore\n        /* \"contracts/reference.sol\":21967:21978  tradingOpen */\n      0x28\n        /* \"contracts/reference.sol\":21967:21985  tradingOpen = true */\n      dup1\n      sload\n      not(0xff)\n      and\n        /* \"contracts/reference.sol\":21981:21985  true */\n      0x01\n        /* \"contracts/reference.sol\":21967:21985  tradingOpen = true */\n      or\n      swap1\n      sstore\n        /* \"contracts/reference.sol\":21825:21992  function openTrading(uint256 botBlocks) external onlyOwner() {... */\n      jump\t// out\n        /* \"contracts/reference.sol\":25610:25699  function disableBlackListing() onlyOwner() external {... */\n    tag_271:\n        /* \"contracts/reference.sol\":3076:3082  _owner */\n      and(sub(shl(0xa0, 0x01), 0x01), sload(0x00))\n        /* \"contracts/reference.sol\":818:828  msg.sender */\n      caller\n        /* \"contracts/reference.sol\":3076:3098  _owner == _msgSender() */\n      eq\n        /* \"contracts/reference.sol\":3068:3135  require(_owner == _msgSender(), \"Ownable: caller is not the owner\") */\n      tag_493\n      jumpi\n      mload(0x40)\n      shl(0xe5, 0x461bcd)\n      dup2\n      mstore\n      0x04\n      add\n      tag_324\n      swap1\n      tag_325\n      jump\t// in\n    tag_493:\n        /* \"contracts/reference.sol\":25672:25684  canBlackList */\n      0x28\n        /* \"contracts/reference.sol\":25672:25692  canBlackList = false */\n      dup1\n      sload\n      not(0xff000000)\n      and\n      swap1\n      sstore\n        /* \"contracts/reference.sol\":25610:25699  function disableBlackListing() onlyOwner() external {... */\n      jump\t// out\n        /* \"contracts/reference.sol\":27949:28089  function updateEcosystemAddress(address payable ecosystemAddress) external onlyOwner() {... */\n    tag_275:\n        /* \"contracts/reference.sol\":3076:3082  _owner */\n      and(sub(shl(0xa0, 0x01), 0x01), sload(0x00))\n        /* \"contracts/reference.sol\":818:828  msg.sender */\n      caller\n        /* \"contracts/reference.sol\":3076:3098  _owner == _msgSender() */\n      eq\n        /* \"contracts/reference.sol\":3068:3135  require(_owner == _msgSender(), \"Ownable: caller is not the owner\") */\n      tag_498\n      jumpi\n      mload(0x40)\n      shl(0xe5, 0x461bcd)\n      dup2\n      mstore\n      0x04\n      add\n      tag_324\n      swap1\n      tag_325\n      jump\t// in\n    tag_498:\n        /* \"contracts/reference.sol\":28046:28063  _ecosystemAddress */\n      0x23\n        /* \"contracts/reference.sol\":28046:28082  _ecosystemAddress = ecosystemAddress */\n      dup1\n      sload\n      not(sub(shl(0xa0, 0x01), 0x01))\n      and\n      sub(shl(0xa0, 0x01), 0x01)\n      swap3\n      swap1\n      swap3\n      and\n      swap2\n      swap1\n      swap2\n      or\n      swap1\n      sstore\n        /* \"contracts/reference.sol\":27949:28089  function updateEcosystemAddress(address payable ecosystemAddress) external onlyOwner() {... */\n      jump\t// out\n        /* \"contracts/reference.sol\":28502:28617  function updateNumTokensToSwap(uint256 numTokens) external onlyOwner() {... */\n    tag_289:\n        /* \"contracts/reference.sol\":3076:3082  _owner */\n      and(sub(shl(0xa0, 0x01), 0x01), sload(0x00))\n        /* \"contracts/reference.sol\":818:828  msg.sender */\n      caller\n        /* \"contracts/reference.sol\":3076:3098  _owner == _msgSender() */\n      eq\n        /* \"contracts/reference.sol\":3068:3135  require(_owner == _msgSender(), \"Ownable: caller is not the owner\") */\n      tag_504\n      jumpi\n      mload(0x40)\n      shl(0xe5, 0x461bcd)\n      dup2\n      mstore\n      0x04\n      add\n      tag_324\n      swap1\n      tag_325\n      jump\t// in\n    tag_504:\n        /* \"contracts/reference.sol\":28583:28598  numTokensToSwap */\n      0x08\n        /* \"contracts/reference.sol\":28583:28610  numTokensToSwap = numTokens */\n      sstore\n        /* \"contracts/reference.sol\":28502:28617  function updateNumTokensToSwap(uint256 numTokens) external onlyOwner() {... */\n      jump\t// out\n        /* \"contracts/reference.sol\":26184:27007  function setBuyTaxes(uint256 marketingFee, uint256 liquidityFee, uint256 teamFee, uint256 ecosystemFee) external onlyOwner() {... */\n    tag_294:\n        /* \"contracts/reference.sol\":3076:3082  _owner */\n      and(sub(shl(0xa0, 0x01), 0x01), sload(0x00))\n        /* \"contracts/reference.sol\":818:828  msg.sender */\n      caller\n        /* \"contracts/reference.sol\":3076:3098  _owner == _msgSender() */\n      eq\n        /* \"contracts/reference.sol\":3068:3135  require(_owner == _msgSender(), \"Ownable: caller is not the owner\") */\n      tag_509\n      jumpi\n      mload(0x40)\n      shl(0xe5, 0x461bcd)\n      dup2\n      mstore\n      0x04\n      add\n      tag_324\n      swap1\n      tag_325\n      jump\t// in\n    tag_509:\n        /* \"contracts/reference.sol\":26319:26335  uint256 totalFee */\n      0x00\n        /* \"contracts/reference.sol\":26338:26399  marketingFee.add(liquidityFee).add(teamFee).add(ecosystemFee) */\n      tag_512\n        /* \"contracts/reference.sol\":26386:26398  ecosystemFee */\n      dup3\n        /* \"contracts/reference.sol\":26338:26381  marketingFee.add(liquidityFee).add(teamFee) */\n      tag_514\n        /* \"contracts/reference.sol\":26373:26380  teamFee */\n      dup6\n        /* \"contracts/reference.sol\":26338:26381  marketingFee.add(liquidityFee).add(teamFee) */\n      dup2\n        /* \"contracts/reference.sol\":26338:26350  marketingFee */\n      dup10\n        /* \"contracts/reference.sol\":26355:26367  liquidityFee */\n      dup10\n        /* \"contracts/reference.sol\":26338:26354  marketingFee.add */\n      tag_515\n        /* \"contracts/reference.sol\":26338:26368  marketingFee.add(liquidityFee) */\n      jump\t// in\n    tag_514:\n        /* \"contracts/reference.sol\":26338:26372  marketingFee.add(liquidityFee).add */\n      swap1\n      tag_515\n        /* \"contracts/reference.sol\":26338:26381  marketingFee.add(liquidityFee).add(teamFee) */\n      jump\t// in\n        /* \"contracts/reference.sol\":26338:26399  marketingFee.add(liquidityFee).add(teamFee).add(ecosystemFee) */\n    tag_512:\n        /* \"contracts/reference.sol\":26319:26399  uint256 totalFee = marketingFee.add(liquidityFee).add(teamFee).add(ecosystemFee) */\n      swap1\n      pop\n        /* \"contracts/reference.sol\":26429:26432  250 */\n      0xfa\n        /* \"contracts/reference.sol\":26417:26425  totalFee */\n      dup2\n        /* \"contracts/reference.sol\":26417:26432  totalFee <= 250 */\n      gt\n      iszero\n        /* \"contracts/reference.sol\":26409:26486  require(totalFee <= 250, \"Sum of buy fees must be less than or equal to 25%\") */\n      tag_516\n      jumpi\n      mload(0x40)\n      shl(0xe5, 0x461bcd)\n      dup2\n      mstore\n        /* \"#utility.yul\":8062:8064   */\n      0x20\n        /* \"contracts/reference.sol\":26409:26486  require(totalFee <= 250, \"Sum of buy fees must be less than or equal to 25%\") */\n      0x04\n      dup3\n      add\n        /* \"#utility.yul\":8044:8065   */\n      mstore\n        /* \"#utility.yul\":8101:8103   */\n      0x31\n        /* \"#utility.yul\":8081:8099   */\n      0x24\n      dup3\n      add\n        /* \"#utility.yul\":8074:8104   */\n      mstore\n        /* \"#utility.yul\":8140:8174   */\n      0x53756d206f66206275792066656573206d757374206265206c65737320746861\n        /* \"#utility.yul\":8120:8138   */\n      0x44\n      dup3\n      add\n        /* \"#utility.yul\":8113:8175   */\n      mstore\n      shl(0x78, 0x6e206f7220657175616c20746f20323525)\n        /* \"#utility.yul\":8191:8209   */\n      0x64\n      dup3\n      add\n        /* \"#utility.yul\":8184:8231   */\n      mstore\n        /* \"#utility.yul\":8248:8267   */\n      0x84\n      add\n        /* \"contracts/reference.sol\":26409:26486  require(totalFee <= 250, \"Sum of buy fees must be less than or equal to 25%\") */\n      tag_324\n        /* \"#utility.yul\":8034:8273   */\n      jump\n        /* \"contracts/reference.sol\":26409:26486  require(totalFee <= 250, \"Sum of buy fees must be less than or equal to 25%\") */\n    tag_516:\n        /* \"contracts/reference.sol\":26504:26516  canChangeTax */\n      sload(0x28)\n      0x0100000000\n      swap1\n      div\n      0xff\n      and\n        /* \"contracts/reference.sol\":26496:26545  require(canChangeTax, \"This function is diabled\") */\n      tag_519\n      jumpi\n      mload(0x40)\n      shl(0xe5, 0x461bcd)\n      dup2\n      mstore\n        /* \"#utility.yul\":14421:14423   */\n      0x20\n        /* \"contracts/reference.sol\":26496:26545  require(canChangeTax, \"This function is diabled\") */\n      0x04\n      dup3\n      add\n        /* \"#utility.yul\":14403:14424   */\n      mstore\n        /* \"#utility.yul\":14460:14462   */\n      0x18\n        /* \"#utility.yul\":14440:14458   */\n      0x24\n      dup3\n      add\n        /* \"#utility.yul\":14433:14463   */\n      mstore\n      shl(0x42, 0x151a1a5cc8199d5b98dd1a5bdb881a5cc8191a58589b1959)\n        /* \"#utility.yul\":14479:14497   */\n      0x44\n      dup3\n      add\n        /* \"#utility.yul\":14472:14526   */\n      mstore\n        /* \"#utility.yul\":14543:14561   */\n      0x64\n      add\n        /* \"contracts/reference.sol\":26496:26545  require(canChangeTax, \"This function is diabled\") */\n      tag_324\n        /* \"#utility.yul\":14393:14567   */\n      jump\n        /* \"contracts/reference.sol\":26496:26545  require(canChangeTax, \"This function is diabled\") */\n    tag_519:\n        /* \"contracts/reference.sol\":26556:26572  _buyMarketingFee */\n      0x0d\n        /* \"contracts/reference.sol\":26556:26587  _buyMarketingFee = marketingFee */\n      dup6\n      swap1\n      sstore\n        /* \"contracts/reference.sol\":26597:26613  _buyLiquidityFee */\n      0x09\n        /* \"contracts/reference.sol\":26597:26628  _buyLiquidityFee = liquidityFee */\n      dup5\n      swap1\n      sstore\n        /* \"contracts/reference.sol\":26638:26649  _buyTeamFee */\n      0x0f\n        /* \"contracts/reference.sol\":26638:26659  _buyTeamFee = teamFee */\n      dup4\n      swap1\n      sstore\n        /* \"contracts/reference.sol\":26669:26685  _buyEcosystemFee */\n      0x0b\n        /* \"contracts/reference.sol\":26669:26700  _buyEcosystemFee = ecosystemFee */\n      dup3\n      swap1\n      sstore\n        /* \"contracts/reference.sol\":26719:26743  _previousBuyMarketingFee */\n      0x0e\n        /* \"contracts/reference.sol\":26719:26762  _previousBuyMarketingFee = _buyMarketingFee */\n      dup6\n      swap1\n      sstore\n        /* \"contracts/reference.sol\":26772:26796  _previousBuyLiquidityFee */\n      0x0a\n        /* \"contracts/reference.sol\":26772:26815  _previousBuyLiquidityFee = _buyLiquidityFee */\n      dup5\n      swap1\n      sstore\n        /* \"contracts/reference.sol\":26825:26844  _previousBuyTeamFee */\n      0x10\n        /* \"contracts/reference.sol\":26825:26858  _previousBuyTeamFee = _buyTeamFee */\n      dup4\n      swap1\n      sstore\n        /* \"contracts/reference.sol\":26868:26892  _previousBuyEcosystemFee */\n      0x0c\n        /* \"contracts/reference.sol\":26868:26911  _previousBuyEcosystemFee = _buyEcosystemFee */\n      dup3\n      swap1\n      sstore\n        /* \"contracts/reference.sol\":26935:27000  BuyFeesUpdated(marketingFee, liquidityFee, teamFee, ecosystemFee) */\n      0x40\n      dup1\n      mload\n        /* \"#utility.yul\":16378:16403   */\n      dup7\n      dup2\n      mstore\n        /* \"#utility.yul\":16434:16436   */\n      0x20\n        /* \"#utility.yul\":16419:16437   */\n      dup2\n      add\n        /* \"#utility.yul\":16412:16446   */\n      dup7\n      swap1\n      mstore\n        /* \"#utility.yul\":16462:16480   */\n      swap1\n      dup2\n      add\n        /* \"#utility.yul\":16455:16489   */\n      dup5\n      swap1\n      mstore\n        /* \"#utility.yul\":16520:16522   */\n      0x60\n        /* \"#utility.yul\":16505:16523   */\n      dup2\n      add\n        /* \"#utility.yul\":16498:16532   */\n      dup4\n      swap1\n      mstore\n        /* \"contracts/reference.sol\":26935:27000  BuyFeesUpdated(marketingFee, liquidityFee, teamFee, ecosystemFee) */\n      0x892b2caa2d791bf7b8d9a49c4db7a4513ff1ae2e0e068ed217f9d5ab4c1a28f0\n      swap1\n        /* \"#utility.yul\":16365:16368   */\n      0x80\n        /* \"#utility.yul\":16350:16369   */\n      add\n        /* \"contracts/reference.sol\":26935:27000  BuyFeesUpdated(marketingFee, liquidityFee, teamFee, ecosystemFee) */\n    tag_522:\n      mload(0x40)\n      dup1\n      swap2\n      sub\n      swap1\n      log1\n        /* \"contracts/reference.sol\":3145:3146  _ */\n      pop\n        /* \"contracts/reference.sol\":26184:27007  function setBuyTaxes(uint256 marketingFee, uint256 liquidityFee, uint256 teamFee, uint256 ecosystemFee) external onlyOwner() {... */\n      pop\n      pop\n      pop\n      pop\n      jump\t// out\n        /* \"contracts/reference.sol\":25215:25327  function includeInFee(address account) external onlyOwner() {... */\n    tag_298:\n        /* \"contracts/reference.sol\":3076:3082  _owner */\n      and(sub(shl(0xa0, 0x01), 0x01), sload(0x00))\n        /* \"contracts/reference.sol\":818:828  msg.sender */\n      caller\n        /* \"contracts/reference.sol\":3076:3098  _owner == _msgSender() */\n      eq\n        /* \"contracts/reference.sol\":3068:3135  require(_owner == _msgSender(), \"Ownable: caller is not the owner\") */\n      tag_525\n      jumpi\n      mload(0x40)\n      shl(0xe5, 0x461bcd)\n      dup2\n      mstore\n      0x04\n      add\n      tag_324\n      swap1\n      tag_325\n      jump\t// in\n    tag_525:\n      sub(shl(0xa0, 0x01), 0x01)\n        /* \"contracts/reference.sol\":25285:25312  _isExcludedFromFee[account] */\n      and\n        /* \"contracts/reference.sol\":25315:25320  false */\n      0x00\n        /* \"contracts/reference.sol\":25285:25312  _isExcludedFromFee[account] */\n      swap1\n      dup2\n      mstore\n        /* \"contracts/reference.sol\":25285:25303  _isExcludedFromFee */\n      0x04\n        /* \"contracts/reference.sol\":25285:25312  _isExcludedFromFee[account] */\n      0x20\n      mstore\n      0x40\n      swap1\n      keccak256\n        /* \"contracts/reference.sol\":25285:25320  _isExcludedFromFee[account] = false */\n      dup1\n      sload\n      not(0xff)\n      and\n      swap1\n      sstore\n        /* \"contracts/reference.sol\":25215:25327  function includeInFee(address account) external onlyOwner() {... */\n      jump\t// out\n        /* \"contracts/reference.sol\":3302:3500  function transferOwnership(address newOwner) public virtual onlyOwner {... */\n    tag_302:\n        /* \"contracts/reference.sol\":3076:3082  _owner */\n      and(sub(shl(0xa0, 0x01), 0x01), sload(0x00))\n        /* \"contracts/reference.sol\":818:828  msg.sender */\n      caller\n        /* \"contracts/reference.sol\":3076:3098  _owner == _msgSender() */\n      eq\n        /* \"contracts/reference.sol\":3068:3135  require(_owner == _msgSender(), \"Ownable: caller is not the owner\") */\n      tag_530\n      jumpi\n      mload(0x40)\n      shl(0xe5, 0x461bcd)\n      dup2\n      mstore\n      0x04\n      add\n      tag_324\n      swap1\n      tag_325\n      jump\t// in\n    tag_530:\n      sub(shl(0xa0, 0x01), 0x01)\n        /* \"contracts/reference.sol\":3390:3412  newOwner != address(0) */\n      dup2\n      and\n        /* \"contracts/reference.sol\":3382:3455  require(newOwner != address(0), \"Ownable: new owner is the zero address\") */\n      tag_533\n      jumpi\n      mload(0x40)\n      shl(0xe5, 0x461bcd)\n      dup2\n      mstore\n        /* \"#utility.yul\":8830:8832   */\n      0x20\n        /* \"contracts/reference.sol\":3382:3455  require(newOwner != address(0), \"Ownable: new owner is the zero address\") */\n      0x04\n      dup3\n      add\n        /* \"#utility.yul\":8812:8833   */\n      mstore\n        /* \"#utility.yul\":8869:8871   */\n      0x26\n        /* \"#utility.yul\":8849:8867   */\n      0x24\n      dup3\n      add\n        /* \"#utility.yul\":8842:8872   */\n      mstore\n        /* \"#utility.yul\":8908:8942   */\n      0x4f776e61626c653a206e6577206f776e657220697320746865207a65726f2061\n        /* \"#utility.yul\":8888:8906   */\n      0x44\n      dup3\n      add\n        /* \"#utility.yul\":8881:8943   */\n      mstore\n      shl(0xd0, 0x646472657373)\n        /* \"#utility.yul\":8959:8977   */\n      0x64\n      dup3\n      add\n        /* \"#utility.yul\":8952:8988   */\n      mstore\n        /* \"#utility.yul\":9005:9024   */\n      0x84\n      add\n        /* \"contracts/reference.sol\":3382:3455  require(newOwner != address(0), \"Ownable: new owner is the zero address\") */\n      tag_324\n        /* \"#utility.yul\":8802:9030   */\n      jump\n        /* \"contracts/reference.sol\":3382:3455  require(newOwner != address(0), \"Ownable: new owner is the zero address\") */\n    tag_533:\n        /* \"contracts/reference.sol\":3465:3493  _transferOwnership(newOwner) */\n      tag_403\n        /* \"contracts/reference.sol\":3484:3492  newOwner */\n      dup2\n        /* \"contracts/reference.sol\":3465:3483  _transferOwnership */\n      tag_537\n        /* \"contracts/reference.sol\":3465:3493  _transferOwnership(newOwner) */\n      jump\t// in\n        /* \"contracts/reference.sol\":27013:27851  function setSellTaxes(uint256 marketingFee, uint256 liquidityFee, uint256 teamFee, uint256 ecosystemFee) external onlyOwner() {... */\n    tag_306:\n        /* \"contracts/reference.sol\":3076:3082  _owner */\n      and(sub(shl(0xa0, 0x01), 0x01), sload(0x00))\n        /* \"contracts/reference.sol\":818:828  msg.sender */\n      caller\n        /* \"contracts/reference.sol\":3076:3098  _owner == _msgSender() */\n      eq\n        /* \"contracts/reference.sol\":3068:3135  require(_owner == _msgSender(), \"Ownable: caller is not the owner\") */\n      tag_540\n      jumpi\n      mload(0x40)\n      shl(0xe5, 0x461bcd)\n      dup2\n      mstore\n      0x04\n      add\n      tag_324\n      swap1\n      tag_325\n      jump\t// in\n    tag_540:\n        /* \"contracts/reference.sol\":27149:27165  uint256 totalFee */\n      0x00\n        /* \"contracts/reference.sol\":27168:27229  marketingFee.add(liquidityFee).add(teamFee).add(ecosystemFee) */\n      tag_543\n        /* \"contracts/reference.sol\":27216:27228  ecosystemFee */\n      dup3\n        /* \"contracts/reference.sol\":27168:27211  marketingFee.add(liquidityFee).add(teamFee) */\n      tag_514\n        /* \"contracts/reference.sol\":27203:27210  teamFee */\n      dup6\n        /* \"contracts/reference.sol\":27168:27211  marketingFee.add(liquidityFee).add(teamFee) */\n      dup2\n        /* \"contracts/reference.sol\":27168:27180  marketingFee */\n      dup10\n        /* \"contracts/reference.sol\":27185:27197  liquidityFee */\n      dup10\n        /* \"contracts/reference.sol\":27168:27184  marketingFee.add */\n      tag_515\n        /* \"contracts/reference.sol\":27168:27198  marketingFee.add(liquidityFee) */\n      jump\t// in\n        /* \"contracts/reference.sol\":27168:27229  marketingFee.add(liquidityFee).add(teamFee).add(ecosystemFee) */\n    tag_543:\n        /* \"contracts/reference.sol\":27149:27229  uint256 totalFee = marketingFee.add(liquidityFee).add(teamFee).add(ecosystemFee) */\n      swap1\n      pop\n        /* \"contracts/reference.sol\":27259:27262  250 */\n      0xfa\n        /* \"contracts/reference.sol\":27247:27255  totalFee */\n      dup2\n        /* \"contracts/reference.sol\":27247:27262  totalFee <= 250 */\n      gt\n      iszero\n        /* \"contracts/reference.sol\":27239:27317  require(totalFee <= 250, \"Sum of sell fees must be less than or equal to 25%\") */\n      tag_546\n      jumpi\n      mload(0x40)\n      shl(0xe5, 0x461bcd)\n      dup2\n      mstore\n        /* \"#utility.yul\":10712:10714   */\n      0x20\n        /* \"contracts/reference.sol\":27239:27317  require(totalFee <= 250, \"Sum of sell fees must be less than or equal to 25%\") */\n      0x04\n      dup3\n      add\n        /* \"#utility.yul\":10694:10715   */\n      mstore\n        /* \"#utility.yul\":10751:10753   */\n      0x32\n        /* \"#utility.yul\":10731:10749   */\n      0x24\n      dup3\n      add\n        /* \"#utility.yul\":10724:10754   */\n      mstore\n        /* \"#utility.yul\":10790:10824   */\n      0x53756d206f662073656c6c2066656573206d757374206265206c657373207468\n        /* \"#utility.yul\":10770:10788   */\n      0x44\n      dup3\n      add\n        /* \"#utility.yul\":10763:10825   */\n      mstore\n      shl(0x70, 0x616e206f7220657175616c20746f20323525)\n        /* \"#utility.yul\":10841:10859   */\n      0x64\n      dup3\n      add\n        /* \"#utility.yul\":10834:10882   */\n      mstore\n        /* \"#utility.yul\":10899:10918   */\n      0x84\n      add\n        /* \"contracts/reference.sol\":27239:27317  require(totalFee <= 250, \"Sum of sell fees must be less than or equal to 25%\") */\n      tag_324\n        /* \"#utility.yul\":10684:10924   */\n      jump\n        /* \"contracts/reference.sol\":27239:27317  require(totalFee <= 250, \"Sum of sell fees must be less than or equal to 25%\") */\n    tag_546:\n        /* \"contracts/reference.sol\":27335:27347  canChangeTax */\n      sload(0x28)\n      0x0100000000\n      swap1\n      div\n      0xff\n      and\n        /* \"contracts/reference.sol\":27327:27376  require(canChangeTax, \"This function is diabled\") */\n      tag_549\n      jumpi\n      mload(0x40)\n      shl(0xe5, 0x461bcd)\n      dup2\n      mstore\n        /* \"#utility.yul\":14421:14423   */\n      0x20\n        /* \"contracts/reference.sol\":27327:27376  require(canChangeTax, \"This function is diabled\") */\n      0x04\n      dup3\n      add\n        /* \"#utility.yul\":14403:14424   */\n      mstore\n        /* \"#utility.yul\":14460:14462   */\n      0x18\n        /* \"#utility.yul\":14440:14458   */\n      0x24\n      dup3\n      add\n        /* \"#utility.yul\":14433:14463   */\n      mstore\n      shl(0x42, 0x151a1a5cc8199d5b98dd1a5bdb881a5cc8191a58589b1959)\n        /* \"#utility.yul\":14479:14497   */\n      0x44\n      dup3\n      add\n        /* \"#utility.yul\":14472:14526   */\n      mstore\n        /* \"#utility.yul\":14543:14561   */\n      0x64\n      add\n        /* \"contracts/reference.sol\":27327:27376  require(canChangeTax, \"This function is diabled\") */\n      tag_324\n        /* \"#utility.yul\":14393:14567   */\n      jump\n        /* \"contracts/reference.sol\":27327:27376  require(canChangeTax, \"This function is diabled\") */\n    tag_549:\n        /* \"contracts/reference.sol\":27387:27404  _sellMarketingFee */\n      0x15\n        /* \"contracts/reference.sol\":27387:27419  _sellMarketingFee = marketingFee */\n      dup6\n      swap1\n      sstore\n        /* \"contracts/reference.sol\":27429:27446  _sellLiquidityFee */\n      0x11\n        /* \"contracts/reference.sol\":27429:27461  _sellLiquidityFee = liquidityFee */\n      dup5\n      swap1\n      sstore\n        /* \"contracts/reference.sol\":27471:27483  _sellTeamFee */\n      0x17\n        /* \"contracts/reference.sol\":27471:27493  _sellTeamFee = teamFee */\n      dup4\n      swap1\n      sstore\n        /* \"contracts/reference.sol\":27503:27520  _sellEcosystemFee */\n      0x13\n        /* \"contracts/reference.sol\":27503:27535  _sellEcosystemFee = ecosystemFee */\n      dup3\n      swap1\n      sstore\n        /* \"contracts/reference.sol\":27554:27579  _previousSellMarketingFee */\n      0x16\n        /* \"contracts/reference.sol\":27554:27599  _previousSellMarketingFee = _sellMarketingFee */\n      dup6\n      swap1\n      sstore\n        /* \"contracts/reference.sol\":27609:27634  _previousSellLiquidityFee */\n      0x12\n        /* \"contracts/reference.sol\":27609:27654  _previousSellLiquidityFee = _sellLiquidityFee */\n      dup5\n      swap1\n      sstore\n        /* \"contracts/reference.sol\":27664:27684  _previousSellTeamFee */\n      0x18\n        /* \"contracts/reference.sol\":27664:27699  _previousSellTeamFee = _sellTeamFee */\n      dup4\n      swap1\n      sstore\n        /* \"contracts/reference.sol\":27709:27734  _previousSellEcosystemFee */\n      0x14\n        /* \"contracts/reference.sol\":27709:27754  _previousSellEcosystemFee = _sellEcosystemFee */\n      dup3\n      swap1\n      sstore\n        /* \"contracts/reference.sol\":27778:27844  SellFeesUpdated(marketingFee, liquidityFee, teamFee, ecosystemFee) */\n      0x40\n      dup1\n      mload\n        /* \"#utility.yul\":16378:16403   */\n      dup7\n      dup2\n      mstore\n        /* \"#utility.yul\":16434:16436   */\n      0x20\n        /* \"#utility.yul\":16419:16437   */\n      dup2\n      add\n        /* \"#utility.yul\":16412:16446   */\n      dup7\n      swap1\n      mstore\n        /* \"#utility.yul\":16462:16480   */\n      swap1\n      dup2\n      add\n        /* \"#utility.yul\":16455:16489   */\n      dup5\n      swap1\n      mstore\n        /* \"#utility.yul\":16520:16522   */\n      0x60\n        /* \"#utility.yul\":16505:16523   */\n      dup2\n      add\n        /* \"#utility.yul\":16498:16532   */\n      dup4\n      swap1\n      mstore\n        /* \"contracts/reference.sol\":27778:27844  SellFeesUpdated(marketingFee, liquidityFee, teamFee, ecosystemFee) */\n      0x439932620c72dddea29980c098bca1a482729646d1216b226d723c6d278a30d1\n      swap1\n        /* \"#utility.yul\":16365:16368   */\n      0x80\n        /* \"#utility.yul\":16350:16369   */\n      add\n        /* \"contracts/reference.sol\":27778:27844  SellFeesUpdated(marketingFee, liquidityFee, teamFee, ecosystemFee) */\n      tag_522\n        /* \"#utility.yul\":16332:16538   */\n      jump\n        /* \"contracts/reference.sol\":25438:25604  function addBot(address account) external onlyOwner() {... */\n    tag_314:\n        /* \"contracts/reference.sol\":3076:3082  _owner */\n      and(sub(shl(0xa0, 0x01), 0x01), sload(0x00))\n        /* \"contracts/reference.sol\":818:828  msg.sender */\n      caller\n        /* \"contracts/reference.sol\":3076:3098  _owner == _msgSender() */\n      eq\n        /* \"contracts/reference.sol\":3068:3135  require(_owner == _msgSender(), \"Ownable: caller is not the owner\") */\n      tag_554\n      jumpi\n      mload(0x40)\n      shl(0xe5, 0x461bcd)\n      dup2\n      mstore\n      0x04\n      add\n      tag_324\n      swap1\n      tag_325\n      jump\t// in\n    tag_554:\n        /* \"contracts/reference.sol\":25510:25522  canBlackList */\n      sload(0x28)\n      0x01000000\n      swap1\n      div\n      0xff\n      and\n        /* \"contracts/reference.sol\":25502:25567  require(canBlackList, \"this contract cannot blacklist addresses\") */\n      tag_557\n      jumpi\n      mload(0x40)\n      shl(0xe5, 0x461bcd)\n      dup2\n      mstore\n        /* \"#utility.yul\":13606:13608   */\n      0x20\n        /* \"contracts/reference.sol\":25502:25567  require(canBlackList, \"this contract cannot blacklist addresses\") */\n      0x04\n      dup3\n      add\n        /* \"#utility.yul\":13588:13609   */\n      mstore\n        /* \"#utility.yul\":13645:13647   */\n      0x28\n        /* \"#utility.yul\":13625:13643   */\n      0x24\n      dup3\n      add\n        /* \"#utility.yul\":13618:13648   */\n      mstore\n        /* \"#utility.yul\":13684:13718   */\n      0x7468697320636f6e74726163742063616e6e6f7420626c61636b6c6973742061\n        /* \"#utility.yul\":13664:13682   */\n      0x44\n      dup3\n      add\n        /* \"#utility.yul\":13657:13719   */\n      mstore\n      shl(0xc0, 0x6464726573736573)\n        /* \"#utility.yul\":13735:13753   */\n      0x64\n      dup3\n      add\n        /* \"#utility.yul\":13728:13766   */\n      mstore\n        /* \"#utility.yul\":13783:13802   */\n      0x84\n      add\n        /* \"contracts/reference.sol\":25502:25567  require(canBlackList, \"this contract cannot blacklist addresses\") */\n      tag_324\n        /* \"#utility.yul\":13578:13808   */\n      jump\n        /* \"contracts/reference.sol\":25502:25567  require(canBlackList, \"this contract cannot blacklist addresses\") */\n    tag_557:\n      sub(shl(0xa0, 0x01), 0x01)\n        /* \"contracts/reference.sol\":25577:25590  bots[account] */\n      and\n      0x00\n      swap1\n      dup2\n      mstore\n        /* \"contracts/reference.sol\":25577:25581  bots */\n      0x20\n        /* \"contracts/reference.sol\":25577:25590  bots[account] */\n      dup1\n      mstore\n      0x40\n      swap1\n      keccak256\n        /* \"contracts/reference.sol\":25577:25597  bots[account] = true */\n      dup1\n      sload\n      not(0xff)\n      and\n        /* \"contracts/reference.sol\":25593:25597  true */\n      0x01\n        /* \"contracts/reference.sol\":25577:25597  bots[account] = true */\n      or\n      swap1\n      sstore\n        /* \"contracts/reference.sol\":25438:25604  function addBot(address account) external onlyOwner() {... */\n      jump\t// out\n        /* \"contracts/reference.sol\":15040:15370  function _approve(address owner, address spender, uint256 amount) private {... */\n    tag_320:\n      sub(shl(0xa0, 0x01), 0x01)\n        /* \"contracts/reference.sol\":15132:15151  owner != address(0) */\n      dup4\n      and\n        /* \"contracts/reference.sol\":15124:15192  require(owner != address(0), \"ERC20: approve from the zero address\") */\n      tag_562\n      jumpi\n      mload(0x40)\n      shl(0xe5, 0x461bcd)\n      dup2\n      mstore\n        /* \"#utility.yul\":14774:14776   */\n      0x20\n        /* \"contracts/reference.sol\":15124:15192  require(owner != address(0), \"ERC20: approve from the zero address\") */\n      0x04\n      dup3\n      add\n        /* \"#utility.yul\":14756:14777   */\n      mstore\n        /* \"#utility.yul\":14813:14815   */\n      0x24\n        /* \"#utility.yul\":14793:14811   */\n      dup1\n      dup3\n      add\n        /* \"#utility.yul\":14786:14816   */\n      mstore\n        /* \"#utility.yul\":14852:14886   */\n      0x45524332303a20617070726f76652066726f6d20746865207a65726f20616464\n        /* \"#utility.yul\":14832:14850   */\n      0x44\n      dup3\n      add\n        /* \"#utility.yul\":14825:14887   */\n      mstore\n      shl(0xe0, 0x72657373)\n        /* \"#utility.yul\":14903:14921   */\n      0x64\n      dup3\n      add\n        /* \"#utility.yul\":14896:14930   */\n      mstore\n        /* \"#utility.yul\":14947:14966   */\n      0x84\n      add\n        /* \"contracts/reference.sol\":15124:15192  require(owner != address(0), \"ERC20: approve from the zero address\") */\n      tag_324\n        /* \"#utility.yul\":14746:14972   */\n      jump\n        /* \"contracts/reference.sol\":15124:15192  require(owner != address(0), \"ERC20: approve from the zero address\") */\n    tag_562:\n      sub(shl(0xa0, 0x01), 0x01)\n        /* \"contracts/reference.sol\":15210:15231  spender != address(0) */\n      dup3\n      and\n        /* \"contracts/reference.sol\":15202:15270  require(spender != address(0), \"ERC20: approve to the zero address\") */\n      tag_565\n      jumpi\n      mload(0x40)\n      shl(0xe5, 0x461bcd)\n      dup2\n      mstore\n        /* \"#utility.yul\":9237:9239   */\n      0x20\n        /* \"contracts/reference.sol\":15202:15270  require(spender != address(0), \"ERC20: approve to the zero address\") */\n      0x04\n      dup3\n      add\n        /* \"#utility.yul\":9219:9240   */\n      mstore\n        /* \"#utility.yul\":9276:9278   */\n      0x22\n        /* \"#utility.yul\":9256:9274   */\n      0x24\n      dup3\n      add\n        /* \"#utility.yul\":9249:9279   */\n      mstore\n        /* \"#utility.yul\":9315:9349   */\n      0x45524332303a20617070726f766520746f20746865207a65726f206164647265\n        /* \"#utility.yul\":9295:9313   */\n      0x44\n      dup3\n      add\n        /* \"#utility.yul\":9288:9350   */\n      mstore\n      shl(0xf0, 0x7373)\n        /* \"#utility.yul\":9366:9384   */\n      0x64\n      dup3\n      add\n        /* \"#utility.yul\":9359:9391   */\n      mstore\n        /* \"#utility.yul\":9408:9427   */\n      0x84\n      add\n        /* \"contracts/reference.sol\":15202:15270  require(spender != address(0), \"ERC20: approve to the zero address\") */\n      tag_324\n        /* \"#utility.yul\":9209:9433   */\n      jump\n        /* \"contracts/reference.sol\":15202:15270  require(spender != address(0), \"ERC20: approve to the zero address\") */\n    tag_565:\n      sub(shl(0xa0, 0x01), 0x01)\n        /* \"contracts/reference.sol\":15280:15298  _allowances[owner] */\n      dup4\n      dup2\n      and\n      0x00\n      dup2\n      dup2\n      mstore\n        /* \"contracts/reference.sol\":15280:15291  _allowances */\n      0x03\n        /* \"contracts/reference.sol\":15280:15298  _allowances[owner] */\n      0x20\n      swap1\n      dup2\n      mstore\n      0x40\n      dup1\n      dup4\n      keccak256\n        /* \"contracts/reference.sol\":15280:15307  _allowances[owner][spender] */\n      swap5\n      dup8\n      and\n      dup1\n      dup5\n      mstore\n      swap5\n      dup3\n      mstore\n      swap2\n      dup3\n      swap1\n      keccak256\n        /* \"contracts/reference.sol\":15280:15316  _allowances[owner][spender] = amount */\n      dup6\n      swap1\n      sstore\n        /* \"contracts/reference.sol\":15331:15363  Approval(owner, spender, amount) */\n      swap1\n      mload\n        /* \"#utility.yul\":15123:15148   */\n      dup5\n      dup2\n      mstore\n        /* \"contracts/reference.sol\":15331:15363  Approval(owner, spender, amount) */\n      0x8c5be1e5ebec7d5bd14f71427d1e84f3dd0314c0f7b2291e5b200ac8c7c3b925\n      swap2\n        /* \"#utility.yul\":15096:15114   */\n      add\n        /* \"contracts/reference.sol\":15331:15363  Approval(owner, spender, amount) */\n      mload(0x40)\n      dup1\n      swap2\n      sub\n      swap1\n      log3\n        /* \"contracts/reference.sol\":15040:15370  function _approve(address owner, address spender, uint256 amount) private {... */\n      pop\n      pop\n      pop\n      jump\t// out\n        /* \"contracts/reference.sol\":15380:18447  function _transfer(address from, address to, uint256 amount) private {... */\n    tag_335:\n      sub(shl(0xa0, 0x01), 0x01)\n        /* \"contracts/reference.sol\":15467:15485  from != address(0) */\n      dup4\n      and\n        /* \"contracts/reference.sol\":15459:15527  require(from != address(0), \"ERC20: transfer from the zero address\") */\n      tag_570\n      jumpi\n      mload(0x40)\n      shl(0xe5, 0x461bcd)\n      dup2\n      mstore\n        /* \"#utility.yul\":14015:14017   */\n      0x20\n        /* \"contracts/reference.sol\":15459:15527  require(from != address(0), \"ERC20: transfer from the zero address\") */\n      0x04\n      dup3\n      add\n        /* \"#utility.yul\":13997:14018   */\n      mstore\n        /* \"#utility.yul\":14054:14056   */\n      0x25\n        /* \"#utility.yul\":14034:14052   */\n      0x24\n      dup3\n      add\n        /* \"#utility.yul\":14027:14057   */\n      mstore\n        /* \"#utility.yul\":14093:14127   */\n      0x45524332303a207472616e736665722066726f6d20746865207a65726f206164\n        /* \"#utility.yul\":14073:14091   */\n      0x44\n      dup3\n      add\n        /* \"#utility.yul\":14066:14128   */\n      mstore\n      shl(0xd8, 0x6472657373)\n        /* \"#utility.yul\":14144:14162   */\n      0x64\n      dup3\n      add\n        /* \"#utility.yul\":14137:14172   */\n      mstore\n        /* \"#utility.yul\":14189:14208   */\n      0x84\n      add\n        /* \"contracts/reference.sol\":15459:15527  require(from != address(0), \"ERC20: transfer from the zero address\") */\n      tag_324\n        /* \"#utility.yul\":13987:14214   */\n      jump\n        /* \"contracts/reference.sol\":15459:15527  require(from != address(0), \"ERC20: transfer from the zero address\") */\n    tag_570:\n      sub(shl(0xa0, 0x01), 0x01)\n        /* \"contracts/reference.sol\":15545:15561  to != address(0) */\n      dup3\n      and\n        /* \"contracts/reference.sol\":15537:15601  require(to != address(0), \"ERC20: transfer to the zero address\") */\n      tag_573\n      jumpi\n      mload(0x40)\n      shl(0xe5, 0x461bcd)\n      dup2\n      mstore\n        /* \"#utility.yul\":7658:7660   */\n      0x20\n        /* \"contracts/reference.sol\":15537:15601  require(to != address(0), \"ERC20: transfer to the zero address\") */\n      0x04\n      dup3\n      add\n        /* \"#utility.yul\":7640:7661   */\n      mstore\n        /* \"#utility.yul\":7697:7699   */\n      0x23\n        /* \"#utility.yul\":7677:7695   */\n      0x24\n      dup3\n      add\n        /* \"#utility.yul\":7670:7700   */\n      mstore\n        /* \"#utility.yul\":7736:7770   */\n      0x45524332303a207472616e7366657220746f20746865207a65726f2061646472\n        /* \"#utility.yul\":7716:7734   */\n      0x44\n      dup3\n      add\n        /* \"#utility.yul\":7709:7771   */\n      mstore\n      shl(0xe8, 0x657373)\n        /* \"#utility.yul\":7787:7805   */\n      0x64\n      dup3\n      add\n        /* \"#utility.yul\":7780:7813   */\n      mstore\n        /* \"#utility.yul\":7830:7849   */\n      0x84\n      add\n        /* \"contracts/reference.sol\":15537:15601  require(to != address(0), \"ERC20: transfer to the zero address\") */\n      tag_324\n        /* \"#utility.yul\":7630:7855   */\n      jump\n        /* \"contracts/reference.sol\":15537:15601  require(to != address(0), \"ERC20: transfer to the zero address\") */\n    tag_573:\n        /* \"contracts/reference.sol\":15628:15629  0 */\n      0x00\n        /* \"contracts/reference.sol\":15619:15625  amount */\n      dup2\n        /* \"contracts/reference.sol\":15619:15629  amount > 0 */\n      gt\n        /* \"contracts/reference.sol\":15611:15675  require(amount > 0, \"Transfer amount must be greater than zero\") */\n      tag_576\n      jumpi\n      mload(0x40)\n      shl(0xe5, 0x461bcd)\n      dup2\n      mstore\n        /* \"#utility.yul\":12779:12781   */\n      0x20\n        /* \"contracts/reference.sol\":15611:15675  require(amount > 0, \"Transfer amount must be greater than zero\") */\n      0x04\n      dup3\n      add\n        /* \"#utility.yul\":12761:12782   */\n      mstore\n        /* \"#utility.yul\":12818:12820   */\n      0x29\n        /* \"#utility.yul\":12798:12816   */\n      0x24\n      dup3\n      add\n        /* \"#utility.yul\":12791:12821   */\n      mstore\n        /* \"#utility.yul\":12857:12891   */\n      0x5472616e7366657220616d6f756e74206d757374206265206772656174657220\n        /* \"#utility.yul\":12837:12855   */\n      0x44\n      dup3\n      add\n        /* \"#utility.yul\":12830:12892   */\n      mstore\n      shl(0xb8, 0x7468616e207a65726f)\n        /* \"#utility.yul\":12908:12926   */\n      0x64\n      dup3\n      add\n        /* \"#utility.yul\":12901:12940   */\n      mstore\n        /* \"#utility.yul\":12957:12976   */\n      0x84\n      add\n        /* \"contracts/reference.sol\":15611:15675  require(amount > 0, \"Transfer amount must be greater than zero\") */\n      tag_324\n        /* \"#utility.yul\":12751:12982   */\n      jump\n        /* \"contracts/reference.sol\":15611:15675  require(amount > 0, \"Transfer amount must be greater than zero\") */\n    tag_576:\n        /* \"contracts/reference.sol\":15701:15705  true */\n      0x01\n        /* \"contracts/reference.sol\":15728:15735  owner() */\n      tag_579\n        /* \"contracts/reference.sol\":2992:2999  address */\n      0x00\n        /* \"contracts/reference.sol\":3018:3024  _owner */\n      sload\n      sub(shl(0xa0, 0x01), 0x01)\n      and\n      swap1\n        /* \"contracts/reference.sol\":2954:3031  function owner() public view returns (address) {... */\n      jump\n        /* \"contracts/reference.sol\":15728:15735  owner() */\n    tag_579:\n      sub(shl(0xa0, 0x01), 0x01)\n        /* \"contracts/reference.sol\":15720:15735  from != owner() */\n      and\n        /* \"contracts/reference.sol\":15720:15724  from */\n      dup5\n      sub(shl(0xa0, 0x01), 0x01)\n        /* \"contracts/reference.sol\":15720:15735  from != owner() */\n      and\n      eq\n      iszero\n        /* \"contracts/reference.sol\":15720:15752  from != owner() && to != owner() */\n      dup1\n      iszero\n      tag_580\n      jumpi\n      pop\n        /* \"contracts/reference.sol\":2992:2999  address */\n      0x00\n        /* \"contracts/reference.sol\":3018:3024  _owner */\n      sload\n      sub(shl(0xa0, 0x01), 0x01)\n        /* \"contracts/reference.sol\":15739:15752  to != owner() */\n      dup5\n      dup2\n      and\n        /* \"contracts/reference.sol\":3018:3024  _owner */\n      swap2\n      and\n        /* \"contracts/reference.sol\":15739:15752  to != owner() */\n      eq\n      iszero\n        /* \"contracts/reference.sol\":15720:15752  from != owner() && to != owner() */\n    tag_580:\n        /* \"contracts/reference.sol\":15720:15777  from != owner() && to != owner() && from != address(this) */\n      dup1\n      iszero\n      tag_582\n      jumpi\n      pop\n      sub(shl(0xa0, 0x01), 0x01)\n        /* \"contracts/reference.sol\":15756:15777  from != address(this) */\n      dup5\n      and\n        /* \"contracts/reference.sol\":15772:15776  this */\n      address\n        /* \"contracts/reference.sol\":15756:15777  from != address(this) */\n      eq\n      iszero\n        /* \"contracts/reference.sol\":15720:15777  from != owner() && to != owner() && from != address(this) */\n    tag_582:\n        /* \"contracts/reference.sol\":15720:15800  from != owner() && to != owner() && from != address(this) && to != address(this) */\n      dup1\n      iszero\n      tag_583\n      jumpi\n      pop\n      sub(shl(0xa0, 0x01), 0x01)\n        /* \"contracts/reference.sol\":15781:15800  to != address(this) */\n      dup4\n      and\n        /* \"contracts/reference.sol\":15795:15799  this */\n      address\n        /* \"contracts/reference.sol\":15781:15800  to != address(this) */\n      eq\n      iszero\n        /* \"contracts/reference.sol\":15720:15800  from != owner() && to != owner() && from != address(this) && to != address(this) */\n    tag_583:\n        /* \"contracts/reference.sol\":15716:18275  if (from != owner() && to != owner() && from != address(this) && to != address(this)) {... */\n      iszero\n      tag_637\n      jumpi\n        /* \"contracts/reference.sol\":15824:15835  tradingOpen */\n      and(0xff, sload(0x28))\n        /* \"contracts/reference.sol\":15816:15861  require(tradingOpen, \"Trading is not active\") */\n      tag_585\n      jumpi\n      mload(0x40)\n      shl(0xe5, 0x461bcd)\n      dup2\n      mstore\n        /* \"#utility.yul\":8480:8482   */\n      0x20\n        /* \"contracts/reference.sol\":15816:15861  require(tradingOpen, \"Trading is not active\") */\n      0x04\n      dup3\n      add\n        /* \"#utility.yul\":8462:8483   */\n      mstore\n        /* \"#utility.yul\":8519:8521   */\n      0x15\n        /* \"#utility.yul\":8499:8517   */\n      0x24\n      dup3\n      add\n        /* \"#utility.yul\":8492:8522   */\n      mstore\n      shl(0x58, 0x54726164696e67206973206e6f7420616374697665)\n        /* \"#utility.yul\":8538:8556   */\n      0x44\n      dup3\n      add\n        /* \"#utility.yul\":8531:8582   */\n      mstore\n        /* \"#utility.yul\":8599:8617   */\n      0x64\n      add\n        /* \"contracts/reference.sol\":15816:15861  require(tradingOpen, \"Trading is not active\") */\n      tag_324\n        /* \"#utility.yul\":8452:8623   */\n      jump\n        /* \"contracts/reference.sol\":15816:15861  require(tradingOpen, \"Trading is not active\") */\n    tag_585:\n        /* \"contracts/reference.sol\":15887:15900  uniswapV2Pair */\n      sload(0x26)\n      sub(shl(0xa0, 0x01), 0x01)\n        /* \"contracts/reference.sol\":15879:15900  from == uniswapV2Pair */\n      dup6\n      dup2\n      and\n        /* \"contracts/reference.sol\":15887:15900  uniswapV2Pair */\n      swap2\n      and\n        /* \"contracts/reference.sol\":15879:15900  from == uniswapV2Pair */\n      eq\n        /* \"contracts/reference.sol\":15879:15934  from == uniswapV2Pair && to != address(uniswapV2Router) */\n      dup1\n      iszero\n      tag_588\n      jumpi\n      pop\n        /* \"contracts/reference.sol\":15918:15933  uniswapV2Router */\n      sload(0x25)\n      sub(shl(0xa0, 0x01), 0x01)\n        /* \"contracts/reference.sol\":15904:15934  to != address(uniswapV2Router) */\n      dup5\n      dup2\n      and\n        /* \"contracts/reference.sol\":15918:15933  uniswapV2Router */\n      swap2\n      and\n        /* \"contracts/reference.sol\":15904:15934  to != address(uniswapV2Router) */\n      eq\n      iszero\n        /* \"contracts/reference.sol\":15879:15934  from == uniswapV2Pair && to != address(uniswapV2Router) */\n    tag_588:\n        /* \"contracts/reference.sol\":15875:16224  if (from == uniswapV2Pair && to != address(uniswapV2Router)) {//buys... */\n      iszero\n      tag_594\n      jumpi\n        /* \"contracts/reference.sol\":16000:16010  _botBlocks */\n      sload(0x06)\n        /* \"contracts/reference.sol\":15984:15995  _firstBlock */\n      sload(0x05)\n        /* \"contracts/reference.sol\":15984:16011  _firstBlock.add(_botBlocks) */\n      tag_590\n      swap2\n        /* \"contracts/reference.sol\":15984:15999  _firstBlock.add */\n      tag_515\n        /* \"contracts/reference.sol\":15984:16011  _firstBlock.add(_botBlocks) */\n      jump\t// in\n    tag_590:\n        /* \"contracts/reference.sol\":15965:15980  block.timestamp */\n      timestamp\n        /* \"contracts/reference.sol\":15965:16011  block.timestamp <= _firstBlock.add(_botBlocks) */\n      gt\n        /* \"contracts/reference.sol\":15961:16069  if (block.timestamp <= _firstBlock.add(_botBlocks)) {... */\n      tag_591\n      jumpi\n      sub(shl(0xa0, 0x01), 0x01)\n        /* \"contracts/reference.sol\":16035:16043  bots[to] */\n      dup4\n      and\n      0x00\n      swap1\n      dup2\n      mstore\n        /* \"contracts/reference.sol\":16035:16039  bots */\n      0x20\n        /* \"contracts/reference.sol\":16035:16043  bots[to] */\n      dup1\n      mstore\n      0x40\n      swap1\n      keccak256\n        /* \"contracts/reference.sol\":16035:16050  bots[to] = true */\n      dup1\n      sload\n      not(0xff)\n      and\n        /* \"contracts/reference.sol\":16046:16050  true */\n      0x01\n        /* \"contracts/reference.sol\":16035:16050  bots[to] = true */\n      or\n      swap1\n      sstore\n        /* \"contracts/reference.sol\":15961:16069  if (block.timestamp <= _firstBlock.add(_botBlocks)) {... */\n    tag_591:\n        /* \"contracts/reference.sol\":16123:16139  _maxWalletAmount */\n      sload(0x07)\n        /* \"contracts/reference.sol\":16094:16119  balanceOf(to).add(amount) */\n      tag_592\n        /* \"contracts/reference.sol\":16112:16118  amount */\n      dup4\n        /* \"contracts/reference.sol\":16094:16107  balanceOf(to) */\n      tag_514\n        /* \"contracts/reference.sol\":16104:16106  to */\n      dup7\n      sub(shl(0xa0, 0x01), 0x01)\n        /* \"contracts/reference.sol\":12929:12947  _balances[account] */\n      and\n        /* \"contracts/reference.sol\":12903:12910  uint256 */\n      0x00\n        /* \"contracts/reference.sol\":12929:12947  _balances[account] */\n      swap1\n      dup2\n      mstore\n        /* \"contracts/reference.sol\":12929:12938  _balances */\n      0x02\n        /* \"contracts/reference.sol\":12929:12947  _balances[account] */\n      0x20\n      mstore\n      0x40\n      swap1\n      keccak256\n      sload\n      swap1\n        /* \"contracts/reference.sol\":12837:12954  function balanceOf(address account) public view override returns (uint256) {... */\n      jump\n        /* \"contracts/reference.sol\":16094:16119  balanceOf(to).add(amount) */\n    tag_592:\n        /* \"contracts/reference.sol\":16094:16139  balanceOf(to).add(amount) <= _maxWalletAmount */\n      gt\n      iszero\n        /* \"contracts/reference.sol\":16086:16209  require(balanceOf(to).add(amount) <= _maxWalletAmount, \"wallet balance after transfer must be less than max wallet amount\") */\n      tag_594\n      jumpi\n      mload(0x40)\n      shl(0xe5, 0x461bcd)\n      dup2\n      mstore\n      0x04\n      add\n      tag_324\n      swap1\n      tag_596\n      jump\t// in\n    tag_594:\n        /* \"contracts/reference.sol\":16255:16261  inSwap */\n      sload(0x28)\n      0x0100\n      swap1\n      div\n      0xff\n      and\n        /* \"contracts/reference.sol\":16254:16261  !inSwap */\n      iszero\n        /* \"contracts/reference.sol\":16254:16286  !inSwap && from != uniswapV2Pair */\n      dup1\n      iszero\n      tag_597\n      jumpi\n      pop\n        /* \"contracts/reference.sol\":16273:16286  uniswapV2Pair */\n      sload(0x26)\n      sub(shl(0xa0, 0x01), 0x01)\n        /* \"contracts/reference.sol\":16265:16286  from != uniswapV2Pair */\n      dup6\n      dup2\n      and\n        /* \"contracts/reference.sol\":16273:16286  uniswapV2Pair */\n      swap2\n      and\n        /* \"contracts/reference.sol\":16265:16286  from != uniswapV2Pair */\n      eq\n      iszero\n        /* \"contracts/reference.sol\":16254:16286  !inSwap && from != uniswapV2Pair */\n    tag_597:\n        /* \"contracts/reference.sol\":16254:16309  !inSwap && from != uniswapV2Pair && to == uniswapV2Pair */\n      dup1\n      iszero\n      tag_598\n      jumpi\n      pop\n        /* \"contracts/reference.sol\":16296:16309  uniswapV2Pair */\n      sload(0x26)\n      sub(shl(0xa0, 0x01), 0x01)\n        /* \"contracts/reference.sol\":16290:16309  to == uniswapV2Pair */\n      dup5\n      dup2\n      and\n        /* \"contracts/reference.sol\":16296:16309  uniswapV2Pair */\n      swap2\n      and\n        /* \"contracts/reference.sol\":16290:16309  to == uniswapV2Pair */\n      eq\n        /* \"contracts/reference.sol\":16254:16309  !inSwap && from != uniswapV2Pair && to == uniswapV2Pair */\n    tag_598:\n        /* \"contracts/reference.sol\":16250:18016  if (!inSwap && from != uniswapV2Pair && to == uniswapV2Pair) { //sells... */\n      iszero\n      tag_599\n      jumpi\n      sub(shl(0xa0, 0x01), 0x01)\n        /* \"contracts/reference.sol\":16346:16356  bots[from] */\n      dup5\n      and\n      0x00\n      swap1\n      dup2\n      mstore\n        /* \"contracts/reference.sol\":16346:16350  bots */\n      0x20\n        /* \"contracts/reference.sol\":16346:16356  bots[from] */\n      dup1\n      mstore\n      0x40\n      swap1\n      keccak256\n      sload\n      0xff\n      and\n        /* \"contracts/reference.sol\":16345:16356  !bots[from] */\n      iszero\n        /* \"contracts/reference.sol\":16345:16369  !bots[from] && !bots[to] */\n      dup1\n      iszero\n      tag_600\n      jumpi\n      pop\n      sub(shl(0xa0, 0x01), 0x01)\n        /* \"contracts/reference.sol\":16361:16369  bots[to] */\n      dup4\n      and\n      0x00\n      swap1\n      dup2\n      mstore\n        /* \"contracts/reference.sol\":16361:16365  bots */\n      0x20\n        /* \"contracts/reference.sol\":16361:16369  bots[to] */\n      dup1\n      mstore\n      0x40\n      swap1\n      keccak256\n      sload\n      0xff\n      and\n        /* \"contracts/reference.sol\":16360:16369  !bots[to] */\n      iszero\n        /* \"contracts/reference.sol\":16345:16369  !bots[from] && !bots[to] */\n    tag_600:\n        /* \"contracts/reference.sol\":16337:16370  require(!bots[from] && !bots[to]) */\n      tag_601\n      jumpi\n      0x00\n      dup1\n      revert\n    tag_601:\n        /* \"contracts/reference.sol\":16438:16446  cooldown */\n      0x1a\n        /* \"contracts/reference.sol\":16438:16454  cooldown.enabled */\n      sload\n      0xff\n      and\n        /* \"contracts/reference.sol\":16434:16667  if (cooldown.enabled) {... */\n      iszero\n      tag_602\n      jumpi\n      sub(shl(0xa0, 0x01), 0x01)\n        /* \"contracts/reference.sol\":16505:16530  cooldown.walletList[from] */\n      dup5\n      and\n      0x00\n      swap1\n      dup2\n      mstore\n        /* \"contracts/reference.sol\":16505:16524  cooldown.walletList */\n      0x1b\n        /* \"contracts/reference.sol\":16505:16530  cooldown.walletList[from] */\n      0x20\n      mstore\n      0x40\n      swap1\n      keccak256\n      sload\n        /* \"contracts/reference.sol\":16486:16501  block.timestamp */\n      timestamp\n        /* \"contracts/reference.sol\":16486:16530  block.timestamp >= cooldown.walletList[from] */\n      lt\n      iszero\n        /* \"contracts/reference.sol\":16478:16563  require(block.timestamp >= cooldown.walletList[from], \"Strong Hands Protocol active\") */\n      tag_603\n      jumpi\n      mload(0x40)\n      shl(0xe5, 0x461bcd)\n      dup2\n      mstore\n        /* \"#utility.yul\":9640:9642   */\n      0x20\n        /* \"contracts/reference.sol\":16478:16563  require(block.timestamp >= cooldown.walletList[from], \"Strong Hands Protocol active\") */\n      0x04\n      dup3\n      add\n        /* \"#utility.yul\":9622:9643   */\n      mstore\n        /* \"#utility.yul\":9679:9681   */\n      0x1c\n        /* \"#utility.yul\":9659:9677   */\n      0x24\n      dup3\n      add\n        /* \"#utility.yul\":9652:9682   */\n      mstore\n        /* \"#utility.yul\":9718:9748   */\n      0x5374726f6e672048616e64732050726f746f636f6c2061637469766500000000\n        /* \"#utility.yul\":9698:9716   */\n      0x44\n      dup3\n      add\n        /* \"#utility.yul\":9691:9749   */\n      mstore\n        /* \"#utility.yul\":9766:9784   */\n      0x64\n      add\n        /* \"contracts/reference.sol\":16478:16563  require(block.timestamp >= cooldown.walletList[from], \"Strong Hands Protocol active\") */\n      tag_324\n        /* \"#utility.yul\":9612:9790   */\n      jump\n        /* \"contracts/reference.sol\":16478:16563  require(block.timestamp >= cooldown.walletList[from], \"Strong Hands Protocol active\") */\n    tag_603:\n        /* \"contracts/reference.sol\":16631:16639  cooldown */\n      0x1a\n        /* \"contracts/reference.sol\":16631:16648  cooldown.duration */\n      sload\n        /* \"contracts/reference.sol\":16613:16648  block.timestamp + cooldown.duration */\n      tag_606\n      swap1\n        /* \"contracts/reference.sol\":16631:16648  cooldown.duration */\n      0x0100\n      swap1\n      div\n      0xffffffff\n      and\n        /* \"contracts/reference.sol\":16613:16628  block.timestamp */\n      timestamp\n        /* \"contracts/reference.sol\":16613:16648  block.timestamp + cooldown.duration */\n      tag_607\n      jump\t// in\n    tag_606:\n      sub(shl(0xa0, 0x01), 0x01)\n        /* \"contracts/reference.sol\":16585:16610  cooldown.walletList[from] */\n      dup6\n      and\n      0x00\n      swap1\n      dup2\n      mstore\n        /* \"contracts/reference.sol\":16585:16604  cooldown.walletList */\n      0x1b\n        /* \"contracts/reference.sol\":16585:16610  cooldown.walletList[from] */\n      0x20\n      mstore\n      0x40\n      swap1\n      keccak256\n        /* \"contracts/reference.sol\":16585:16648  cooldown.walletList[from] = block.timestamp + cooldown.duration */\n      sstore\n        /* \"contracts/reference.sol\":16434:16667  if (cooldown.enabled) {... */\n    tag_602:\n        /* \"contracts/reference.sol\":16728:16740  diamondFloor */\n      0x1c\n        /* \"contracts/reference.sol\":16728:16748  diamondFloor.enabled */\n      sload\n      0xff\n      and\n        /* \"contracts/reference.sol\":16724:16904  if (diamondFloor.enabled) {... */\n      iszero\n      tag_612\n      jumpi\n        /* \"contracts/reference.sol\":16781:16805  diamondFloor.sellStopped */\n      and(0xff, sload(0x1e))\n        /* \"contracts/reference.sol\":16780:16805  !diamondFloor.sellStopped */\n      iszero\n        /* \"contracts/reference.sol\":16772:16840  require(!diamondFloor.sellStopped, \"Sells stopped by Diamond Floor\") */\n      tag_609\n      jumpi\n      mload(0x40)\n      shl(0xe5, 0x461bcd)\n      dup2\n      mstore\n        /* \"#utility.yul\":10353:10355   */\n      0x20\n        /* \"contracts/reference.sol\":16772:16840  require(!diamondFloor.sellStopped, \"Sells stopped by Diamond Floor\") */\n      0x04\n      dup3\n      add\n        /* \"#utility.yul\":10335:10356   */\n      mstore\n        /* \"#utility.yul\":10392:10394   */\n      0x1e\n        /* \"#utility.yul\":10372:10390   */\n      0x24\n      dup3\n      add\n        /* \"#utility.yul\":10365:10395   */\n      mstore\n        /* \"#utility.yul\":10431:10463   */\n      0x53656c6c732073746f70706564206279204469616d6f6e6420466c6f6f720000\n        /* \"#utility.yul\":10411:10429   */\n      0x44\n      dup3\n      add\n        /* \"#utility.yul\":10404:10464   */\n      mstore\n        /* \"#utility.yul\":10481:10499   */\n      0x64\n      add\n        /* \"contracts/reference.sol\":16772:16840  require(!diamondFloor.sellStopped, \"Sells stopped by Diamond Floor\") */\n      tag_324\n        /* \"#utility.yul\":10325:10505   */\n      jump\n        /* \"contracts/reference.sol\":16772:16840  require(!diamondFloor.sellStopped, \"Sells stopped by Diamond Floor\") */\n    tag_609:\n        /* \"contracts/reference.sol\":16862:16885  _checkPriceConditions() */\n      tag_612\n        /* \"contracts/reference.sol\":16862:16883  _checkPriceConditions */\n      tag_613\n        /* \"contracts/reference.sol\":16862:16885  _checkPriceConditions() */\n      jump\t// in\n    tag_612:\n        /* \"contracts/reference.sol\":16987:16991  this */\n      address\n        /* \"contracts/reference.sol\":16938:16966  uint256 contractTokenBalance */\n      0x00\n        /* \"contracts/reference.sol\":12929:12947  _balances[account] */\n      swap1\n      dup2\n      mstore\n        /* \"contracts/reference.sol\":12929:12938  _balances */\n      0x02\n        /* \"contracts/reference.sol\":12929:12947  _balances[account] */\n      0x20\n      mstore\n      0x40\n      swap1\n      keccak256\n      sload\n        /* \"contracts/reference.sol\":17040:17055  numTokensToSwap */\n      sload(0x08)\n        /* \"contracts/reference.sol\":17016:17055  contractTokenBalance >= numTokensToSwap */\n      dup2\n      lt\n        /* \"contracts/reference.sol\":17012:17981  if (contractTokenBalance >= numTokensToSwap) {... */\n      tag_615\n      jumpi\n        /* \"contracts/reference.sol\":17083:17107  contractTokenBalance > 0 */\n      dup1\n      iszero\n        /* \"contracts/reference.sol\":17079:17758  if (contractTokenBalance > 0) {... */\n      tag_620\n      jumpi\n        /* \"contracts/reference.sol\":17223:17224  0 */\n      0x00\n        /* \"contracts/reference.sol\":17139:17220  _sellMarketingFee.add(_sellTeamFee).add(_sellEcosystemFee).add(_sellLiquidityFee) */\n      tag_617\n        /* \"contracts/reference.sol\":17202:17219  _sellLiquidityFee */\n      sload(0x11)\n        /* \"contracts/reference.sol\":17139:17197  _sellMarketingFee.add(_sellTeamFee).add(_sellEcosystemFee) */\n      tag_514\n        /* \"contracts/reference.sol\":17179:17196  _sellEcosystemFee */\n      sload(0x13)\n        /* \"contracts/reference.sol\":17139:17174  _sellMarketingFee.add(_sellTeamFee) */\n      tag_514\n        /* \"contracts/reference.sol\":17161:17173  _sellTeamFee */\n      sload(0x17)\n        /* \"contracts/reference.sol\":17139:17156  _sellMarketingFee */\n      sload(0x15)\n        /* \"contracts/reference.sol\":17139:17160  _sellMarketingFee.add */\n      tag_515\n      swap1\n        /* \"contracts/reference.sol\":17139:17174  _sellMarketingFee.add(_sellTeamFee) */\n      swap2\n      swap1\n      0xffffffff\n      and\n      jump\t// in\n        /* \"contracts/reference.sol\":17139:17220  _sellMarketingFee.add(_sellTeamFee).add(_sellEcosystemFee).add(_sellLiquidityFee) */\n    tag_617:\n        /* \"contracts/reference.sol\":17139:17224  _sellMarketingFee.add(_sellTeamFee).add(_sellEcosystemFee).add(_sellLiquidityFee) > 0 */\n      gt\n        /* \"contracts/reference.sol\":17135:17736  if (_sellMarketingFee.add(_sellTeamFee).add(_sellEcosystemFee).add(_sellLiquidityFee) > 0) {... */\n      iszero\n      tag_620\n      jumpi\n        /* \"contracts/reference.sol\":17256:17276  uint256 autoLPamount */\n      0x00\n        /* \"contracts/reference.sol\":17279:17409  _sellLiquidityFee.mul(contractTokenBalance).div(_sellMarketingFee.add(_sellTeamFee).add(_sellEcosystemFee).add(_sellLiquidityFee)) */\n      tag_621\n        /* \"contracts/reference.sol\":17327:17408  _sellMarketingFee.add(_sellTeamFee).add(_sellEcosystemFee).add(_sellLiquidityFee) */\n      tag_622\n        /* \"contracts/reference.sol\":17390:17407  _sellLiquidityFee */\n      sload(0x11)\n        /* \"contracts/reference.sol\":17327:17385  _sellMarketingFee.add(_sellTeamFee).add(_sellEcosystemFee) */\n      tag_514\n        /* \"contracts/reference.sol\":17367:17384  _sellEcosystemFee */\n      sload(0x13)\n        /* \"contracts/reference.sol\":17327:17362  _sellMarketingFee.add(_sellTeamFee) */\n      tag_514\n        /* \"contracts/reference.sol\":17349:17361  _sellTeamFee */\n      sload(0x17)\n        /* \"contracts/reference.sol\":17327:17344  _sellMarketingFee */\n      sload(0x15)\n        /* \"contracts/reference.sol\":17327:17348  _sellMarketingFee.add */\n      tag_515\n      swap1\n        /* \"contracts/reference.sol\":17327:17362  _sellMarketingFee.add(_sellTeamFee) */\n      swap2\n      swap1\n      0xffffffff\n      and\n      jump\t// in\n        /* \"contracts/reference.sol\":17327:17408  _sellMarketingFee.add(_sellTeamFee).add(_sellEcosystemFee).add(_sellLiquidityFee) */\n    tag_622:\n        /* \"contracts/reference.sol\":17279:17296  _sellLiquidityFee */\n      sload(0x11)\n        /* \"contracts/reference.sol\":17279:17322  _sellLiquidityFee.mul(contractTokenBalance) */\n      tag_441\n      swap1\n        /* \"contracts/reference.sol\":17301:17321  contractTokenBalance */\n      dup6\n        /* \"contracts/reference.sol\":17279:17300  _sellLiquidityFee.mul */\n      tag_442\n        /* \"contracts/reference.sol\":17279:17322  _sellLiquidityFee.mul(contractTokenBalance) */\n      jump\t// in\n        /* \"contracts/reference.sol\":17279:17409  _sellLiquidityFee.mul(contractTokenBalance).div(_sellMarketingFee.add(_sellTeamFee).add(_sellEcosystemFee).add(_sellLiquidityFee)) */\n    tag_621:\n        /* \"contracts/reference.sol\":17256:17409  uint256 autoLPamount = _sellLiquidityFee.mul(contractTokenBalance).div(_sellMarketingFee.add(_sellTeamFee).add(_sellEcosystemFee).add(_sellLiquidityFee)) */\n      swap1\n      pop\n        /* \"contracts/reference.sol\":17439:17454  uint256 minusLP */\n      0x00\n        /* \"contracts/reference.sol\":17516:17528  autoLPamount */\n      dup2\n        /* \"contracts/reference.sol\":17492:17512  contractTokenBalance */\n      dup4\n        /* \"contracts/reference.sol\":17492:17528  contractTokenBalance >= autoLPamount */\n      lt\n        /* \"contracts/reference.sol\":17488:17643  if (contractTokenBalance >= autoLPamount) {... */\n      tag_626\n      jumpi\n        /* \"contracts/reference.sol\":17574:17612  contractTokenBalance.sub(autoLPamount) */\n      tag_627\n        /* \"contracts/reference.sol\":17574:17594  contractTokenBalance */\n      dup4\n        /* \"contracts/reference.sol\":17599:17611  autoLPamount */\n      dup4\n        /* \"contracts/reference.sol\":17574:17598  contractTokenBalance.sub */\n      tag_456\n        /* \"contracts/reference.sol\":17574:17612  contractTokenBalance.sub(autoLPamount) */\n      jump\t// in\n    tag_627:\n        /* \"contracts/reference.sol\":17564:17612  minusLP = contractTokenBalance.sub(autoLPamount) */\n      swap1\n      pop\n        /* \"contracts/reference.sol\":17488:17643  if (contractTokenBalance >= autoLPamount) {... */\n    tag_626:\n        /* \"contracts/reference.sol\":17672:17709  swapAndLiquify(autoLPamount, minusLP) */\n      tag_628\n        /* \"contracts/reference.sol\":17687:17699  autoLPamount */\n      dup3\n        /* \"contracts/reference.sol\":17701:17708  minusLP */\n      dup3\n        /* \"contracts/reference.sol\":17672:17686  swapAndLiquify */\n      tag_629\n        /* \"contracts/reference.sol\":17672:17709  swapAndLiquify(autoLPamount, minusLP) */\n      jump\t// in\n    tag_628:\n        /* \"contracts/reference.sol\":17135:17736  if (_sellMarketingFee.add(_sellTeamFee).add(_sellEcosystemFee).add(_sellLiquidityFee) > 0) {... */\n      pop\n      pop\n    tag_620:\n        /* \"contracts/reference.sol\":17808:17829  address(this).balance */\n      selfbalance\n        /* \"contracts/reference.sol\":17855:17877  contractETHBalance > 0 */\n      dup1\n      iszero\n        /* \"contracts/reference.sol\":17851:17963  if (contractETHBalance > 0) {... */\n      tag_631\n      jumpi\n        /* \"contracts/reference.sol\":17905:17940  sendETHToFee(address(this).balance) */\n      tag_631\n        /* \"contracts/reference.sol\":17918:17939  address(this).balance */\n      selfbalance\n        /* \"contracts/reference.sol\":17905:17917  sendETHToFee */\n      tag_632\n        /* \"contracts/reference.sol\":17905:17940  sendETHToFee(address(this).balance) */\n      jump\t// in\n    tag_631:\n        /* \"contracts/reference.sol\":17012:17981  if (contractTokenBalance >= numTokensToSwap) {... */\n      pop\n    tag_615:\n        /* \"contracts/reference.sol\":16250:18016  if (!inSwap && from != uniswapV2Pair && to == uniswapV2Pair) { //sells... */\n      pop\n    tag_599:\n        /* \"contracts/reference.sol\":18041:18054  uniswapV2Pair */\n      sload(0x26)\n      sub(shl(0xa0, 0x01), 0x01)\n        /* \"contracts/reference.sol\":18033:18054  from != uniswapV2Pair */\n      dup6\n      dup2\n      and\n        /* \"contracts/reference.sol\":18041:18054  uniswapV2Pair */\n      swap2\n      and\n        /* \"contracts/reference.sol\":18033:18054  from != uniswapV2Pair */\n      eq\n      dup1\n      iszero\n      swap1\n        /* \"contracts/reference.sol\":18033:18077  from != uniswapV2Pair && to != uniswapV2Pair */\n      tag_633\n      jumpi\n      pop\n        /* \"contracts/reference.sol\":18064:18077  uniswapV2Pair */\n      sload(0x26)\n      sub(shl(0xa0, 0x01), 0x01)\n        /* \"contracts/reference.sol\":18058:18077  to != uniswapV2Pair */\n      dup5\n      dup2\n      and\n        /* \"contracts/reference.sol\":18064:18077  uniswapV2Pair */\n      swap2\n      and\n        /* \"contracts/reference.sol\":18058:18077  to != uniswapV2Pair */\n      eq\n      iszero\n        /* \"contracts/reference.sol\":18033:18077  from != uniswapV2Pair && to != uniswapV2Pair */\n    tag_633:\n        /* \"contracts/reference.sol\":18030:18265  if(from != uniswapV2Pair && to != uniswapV2Pair) { //transfers... */\n      iszero\n      tag_637\n      jumpi\n        /* \"contracts/reference.sol\":18163:18179  _maxWalletAmount */\n      sload(0x07)\n        /* \"contracts/reference.sol\":18134:18159  balanceOf(to).add(amount) */\n      tag_635\n        /* \"contracts/reference.sol\":18152:18158  amount */\n      dup4\n        /* \"contracts/reference.sol\":18134:18147  balanceOf(to) */\n      tag_514\n        /* \"contracts/reference.sol\":18144:18146  to */\n      dup7\n      sub(shl(0xa0, 0x01), 0x01)\n        /* \"contracts/reference.sol\":12929:12947  _balances[account] */\n      and\n        /* \"contracts/reference.sol\":12903:12910  uint256 */\n      0x00\n        /* \"contracts/reference.sol\":12929:12947  _balances[account] */\n      swap1\n      dup2\n      mstore\n        /* \"contracts/reference.sol\":12929:12938  _balances */\n      0x02\n        /* \"contracts/reference.sol\":12929:12947  _balances[account] */\n      0x20\n      mstore\n      0x40\n      swap1\n      keccak256\n      sload\n      swap1\n        /* \"contracts/reference.sol\":12837:12954  function balanceOf(address account) public view override returns (uint256) {... */\n      jump\n        /* \"contracts/reference.sol\":18134:18159  balanceOf(to).add(amount) */\n    tag_635:\n        /* \"contracts/reference.sol\":18134:18179  balanceOf(to).add(amount) <= _maxWalletAmount */\n      gt\n      iszero\n        /* \"contracts/reference.sol\":18126:18249  require(balanceOf(to).add(amount) <= _maxWalletAmount, \"wallet balance after transfer must be less than max wallet amount\") */\n      tag_637\n      jumpi\n      mload(0x40)\n      shl(0xe5, 0x461bcd)\n      dup2\n      mstore\n      0x04\n      add\n      tag_324\n      swap1\n      tag_596\n      jump\t// in\n    tag_637:\n      sub(shl(0xa0, 0x01), 0x01)\n        /* \"contracts/reference.sol\":18289:18313  _isExcludedFromFee[from] */\n      dup5\n      and\n      0x00\n      swap1\n      dup2\n      mstore\n        /* \"contracts/reference.sol\":18289:18307  _isExcludedFromFee */\n      0x04\n        /* \"contracts/reference.sol\":18289:18313  _isExcludedFromFee[from] */\n      0x20\n      mstore\n      0x40\n      swap1\n      keccak256\n      sload\n      0xff\n      and\n      dup1\n        /* \"contracts/reference.sol\":18289:18339  _isExcludedFromFee[from] || _isExcludedFromFee[to] */\n      tag_639\n      jumpi\n      pop\n      sub(shl(0xa0, 0x01), 0x01)\n        /* \"contracts/reference.sol\":18317:18339  _isExcludedFromFee[to] */\n      dup4\n      and\n      0x00\n      swap1\n      dup2\n      mstore\n        /* \"contracts/reference.sol\":18317:18335  _isExcludedFromFee */\n      0x04\n        /* \"contracts/reference.sol\":18317:18339  _isExcludedFromFee[to] */\n      0x20\n      mstore\n      0x40\n      swap1\n      keccak256\n      sload\n      0xff\n      and\n        /* \"contracts/reference.sol\":18289:18339  _isExcludedFromFee[from] || _isExcludedFromFee[to] */\n    tag_639:\n        /* \"contracts/reference.sol\":18285:18381  if (_isExcludedFromFee[from] || _isExcludedFromFee[to]) {... */\n      iszero\n      tag_640\n      jumpi\n      pop\n        /* \"contracts/reference.sol\":18365:18370  false */\n      0x00\n        /* \"contracts/reference.sol\":18285:18381  if (_isExcludedFromFee[from] || _isExcludedFromFee[to]) {... */\n    tag_640:\n        /* \"contracts/reference.sol\":18399:18440  _tokenTransfer(from, to, amount, takeFee) */\n      tag_641\n        /* \"contracts/reference.sol\":18414:18418  from */\n      dup5\n        /* \"contracts/reference.sol\":18420:18422  to */\n      dup5\n        /* \"contracts/reference.sol\":18424:18430  amount */\n      dup5\n        /* \"contracts/reference.sol\":18432:18439  takeFee */\n      dup5\n        /* \"contracts/reference.sol\":18399:18413  _tokenTransfer */\n      tag_642\n        /* \"contracts/reference.sol\":18399:18440  _tokenTransfer(from, to, amount, takeFee) */\n      jump\t// in\n    tag_641:\n        /* \"contracts/reference.sol\":15380:18447  function _transfer(address from, address to, uint256 amount) private {... */\n      pop\n      pop\n      pop\n      pop\n      jump\t// out\n        /* \"contracts/reference.sol\":1849:2035  function sub(uint256 a, uint256 b, string memory errorMessage) internal pure returns (uint256) {... */\n    tag_340:\n        /* \"contracts/reference.sol\":1935:1942  uint256 */\n      0x00\n        /* \"contracts/reference.sol\":1970:1982  errorMessage */\n      dup2\n        /* \"contracts/reference.sol\":1962:1968  b <= a */\n      dup5\n      dup5\n      gt\n      iszero\n        /* \"contracts/reference.sol\":1954:1983  require(b <= a, errorMessage) */\n      tag_644\n      jumpi\n      mload(0x40)\n      shl(0xe5, 0x461bcd)\n      dup2\n      mstore\n      0x04\n      add\n      tag_324\n      swap2\n      swap1\n      tag_85\n      jump\t// in\n    tag_644:\n      pop\n        /* \"contracts/reference.sol\":1993:2002  uint256 c */\n      0x00\n        /* \"contracts/reference.sol\":2005:2010  a - b */\n      tag_646\n        /* \"contracts/reference.sol\":2009:2010  b */\n      dup5\n        /* \"contracts/reference.sol\":2005:2006  a */\n      dup7\n        /* \"contracts/reference.sol\":2005:2010  a - b */\n      tag_647\n      jump\t// in\n    tag_646:\n        /* \"contracts/reference.sol\":1993:2010  uint256 c = a - b */\n      swap6\n        /* \"contracts/reference.sol\":1849:2035  function sub(uint256 a, uint256 b, string memory errorMessage) internal pure returns (uint256) {... */\n      swap5\n      pop\n      pop\n      pop\n      pop\n      pop\n      jump\t// out\n        /* \"contracts/reference.sol\":2286:2416  function div(uint256 a, uint256 b) internal pure returns (uint256) {... */\n    tag_347:\n        /* \"contracts/reference.sol\":2344:2351  uint256 */\n      0x00\n        /* \"contracts/reference.sol\":2370:2409  div(a, b, \"SafeMath: division by zero\") */\n      tag_649\n        /* \"contracts/reference.sol\":2374:2375  a */\n      dup4\n        /* \"contracts/reference.sol\":2377:2378  b */\n      dup4\n        /* \"contracts/reference.sol\":2370:2409  div(a, b, \"SafeMath: division by zero\") */\n      mload(0x40)\n      dup1\n      0x40\n      add\n      0x40\n      mstore\n      dup1\n      0x1a\n      dup2\n      mstore\n      0x20\n      add\n      0x536166654d6174683a206469766973696f6e206279207a65726f000000000000\n      dup2\n      mstore\n      pop\n        /* \"contracts/reference.sol\":2370:2373  div */\n      tag_650\n        /* \"contracts/reference.sol\":2370:2409  div(a, b, \"SafeMath: division by zero\") */\n      jump\t// in\n    tag_649:\n        /* \"contracts/reference.sol\":2363:2409  return div(a, b, \"SafeMath: division by zero\") */\n      swap4\n        /* \"contracts/reference.sol\":2286:2416  function div(uint256 a, uint256 b) internal pure returns (uint256) {... */\n      swap3\n      pop\n      pop\n      pop\n      jump\t// out\n        /* \"contracts/reference.sol\":2041:2280  function mul(uint256 a, uint256 b) internal pure returns (uint256) {... */\n    tag_442:\n        /* \"contracts/reference.sol\":2099:2106  uint256 */\n      0x00\n        /* \"contracts/reference.sol\":2122:2128  a == 0 */\n      dup3\n        /* \"contracts/reference.sol\":2118:2163  if (a == 0) {... */\n      tag_652\n      jumpi\n      pop\n        /* \"contracts/reference.sol\":2151:2152  0 */\n      0x00\n        /* \"contracts/reference.sol\":2144:2152  return 0 */\n      jump(tag_316)\n        /* \"contracts/reference.sol\":2118:2163  if (a == 0) {... */\n    tag_652:\n        /* \"contracts/reference.sol\":2172:2181  uint256 c */\n      0x00\n        /* \"contracts/reference.sol\":2184:2189  a * b */\n      tag_653\n        /* \"contracts/reference.sol\":2188:2189  b */\n      dup4\n        /* \"contracts/reference.sol\":2184:2185  a */\n      dup6\n        /* \"contracts/reference.sol\":2184:2189  a * b */\n      tag_654\n      jump\t// in\n    tag_653:\n        /* \"contracts/reference.sol\":2172:2189  uint256 c = a * b */\n      swap1\n      pop\n        /* \"contracts/reference.sol\":2216:2217  b */\n      dup3\n        /* \"contracts/reference.sol\":2207:2212  c / a */\n      tag_655\n        /* \"contracts/reference.sol\":2211:2212  a */\n      dup6\n        /* \"contracts/reference.sol\":2172:2189  uint256 c = a * b */\n      dup4\n        /* \"contracts/reference.sol\":2207:2212  c / a */\n      tag_656\n      jump\t// in\n    tag_655:\n        /* \"contracts/reference.sol\":2207:2217  c / a == b */\n      eq\n        /* \"contracts/reference.sol\":2199:2255  require(c / a == b, \"SafeMath: multiplication overflow\") */\n      tag_649\n      jumpi\n      mload(0x40)\n      shl(0xe5, 0x461bcd)\n      dup2\n      mstore\n        /* \"#utility.yul\":12016:12018   */\n      0x20\n        /* \"contracts/reference.sol\":2199:2255  require(c / a == b, \"SafeMath: multiplication overflow\") */\n      0x04\n      dup3\n      add\n        /* \"#utility.yul\":11998:12019   */\n      mstore\n        /* \"#utility.yul\":12055:12057   */\n      0x21\n        /* \"#utility.yul\":12035:12053   */\n      0x24\n      dup3\n      add\n        /* \"#utility.yul\":12028:12058   */\n      mstore\n        /* \"#utility.yul\":12094:12128   */\n      0x536166654d6174683a206d756c7469706c69636174696f6e206f766572666c6f\n        /* \"#utility.yul\":12074:12092   */\n      0x44\n      dup3\n      add\n        /* \"#utility.yul\":12067:12129   */\n      mstore\n      shl(0xf8, 0x77)\n        /* \"#utility.yul\":12145:12163   */\n      0x64\n      dup3\n      add\n        /* \"#utility.yul\":12138:12169   */\n      mstore\n        /* \"#utility.yul\":12186:12205   */\n      0x84\n      add\n        /* \"contracts/reference.sol\":2199:2255  require(c / a == b, \"SafeMath: multiplication overflow\") */\n      tag_324\n        /* \"#utility.yul\":11988:12211   */\n      jump\n        /* \"contracts/reference.sol\":1709:1843  function sub(uint256 a, uint256 b) internal pure returns (uint256) {... */\n    tag_456:\n        /* \"contracts/reference.sol\":1767:1774  uint256 */\n      0x00\n        /* \"contracts/reference.sol\":1793:1836  sub(a, b, \"SafeMath: subtraction overflow\") */\n      tag_649\n        /* \"contracts/reference.sol\":1797:1798  a */\n      dup4\n        /* \"contracts/reference.sol\":1800:1801  b */\n      dup4\n        /* \"contracts/reference.sol\":1793:1836  sub(a, b, \"SafeMath: subtraction overflow\") */\n      mload(0x40)\n      dup1\n      0x40\n      add\n      0x40\n      mstore\n      dup1\n      0x1e\n      dup2\n      mstore\n      0x20\n      add\n      0x536166654d6174683a207375627472616374696f6e206f766572666c6f770000\n      dup2\n      mstore\n      pop\n        /* \"contracts/reference.sol\":1793:1796  sub */\n      tag_340\n        /* \"contracts/reference.sol\":1793:1836  sub(a, b, \"SafeMath: subtraction overflow\") */\n      jump\t// in\n        /* \"contracts/reference.sol\":18456:18857  function swapTokensForEth(uint256 tokenAmount) private lockTheSwap {... */\n    tag_480:\n        /* \"contracts/reference.sol\":11596:11602  inSwap */\n      0x28\n        /* \"contracts/reference.sol\":11596:11609  inSwap = true */\n      dup1\n      sload\n      not(0xff00)\n      and\n      0x0100\n      or\n      swap1\n      sstore\n        /* \"contracts/reference.sol\":18557:18573  new address[](2) */\n      0x40\n      dup1\n      mload\n        /* \"contracts/reference.sol\":18571:18572  2 */\n      0x02\n        /* \"contracts/reference.sol\":18557:18573  new address[](2) */\n      dup1\n      dup3\n      mstore\n      0x60\n      dup3\n      add\n      dup4\n      mstore\n      0x00\n      swap3\n      0x20\n      dup4\n      add\n      swap1\n      dup1\n      calldatasize\n      dup4\n      calldatacopy\n      add\n      swap1\n      pop\n      pop\n        /* \"contracts/reference.sol\":18533:18573  address[] memory path = new address[](2) */\n      swap1\n      pop\n        /* \"contracts/reference.sol\":18601:18605  this */\n      address\n        /* \"contracts/reference.sol\":18583:18587  path */\n      dup2\n        /* \"contracts/reference.sol\":18588:18589  0 */\n      0x00\n        /* \"contracts/reference.sol\":18583:18590  path[0] */\n      dup2\n      mload\n      dup2\n      lt\n      tag_666\n      jumpi\n      mstore(0x00, shl(0xe0, 0x4e487b71))\n      mstore(0x04, 0x32)\n      revert(0x00, 0x24)\n    tag_666:\n      sub(shl(0xa0, 0x01), 0x01)\n        /* \"contracts/reference.sol\":18583:18606  path[0] = address(this) */\n      swap3\n      dup4\n      and\n        /* \"contracts/reference.sol\":18583:18590  path[0] */\n      0x20\n      swap2\n      dup3\n      mul\n      swap3\n      swap1\n      swap3\n      add\n      dup2\n      add\n        /* \"contracts/reference.sol\":18583:18606  path[0] = address(this) */\n      swap2\n      swap1\n      swap2\n      mstore\n        /* \"contracts/reference.sol\":18626:18641  uniswapV2Router */\n      sload(0x25)\n        /* \"contracts/reference.sol\":18626:18648  uniswapV2Router.WETH() */\n      0x40\n      dup1\n      mload\n      shl(0xe3, 0x15ab88c9)\n      dup2\n      mstore\n      swap1\n      mload\n        /* \"contracts/reference.sol\":18626:18641  uniswapV2Router */\n      swap2\n      swap1\n      swap4\n      and\n      swap3\n        /* \"contracts/reference.sol\":18626:18646  uniswapV2Router.WETH */\n      0xad5c4648\n      swap3\n        /* \"contracts/reference.sol\":18626:18648  uniswapV2Router.WETH() */\n      0x04\n      dup1\n      dup4\n      add\n      swap4\n        /* \"contracts/reference.sol\":18583:18590  path[0] */\n      swap2\n      swap3\n        /* \"contracts/reference.sol\":18626:18648  uniswapV2Router.WETH() */\n      dup3\n      swap1\n      sub\n      add\n      dup2\n        /* \"contracts/reference.sol\":18626:18641  uniswapV2Router */\n      dup7\n        /* \"contracts/reference.sol\":18626:18648  uniswapV2Router.WETH() */\n      dup1\n      extcodesize\n      iszero\n      dup1\n      iszero\n      tag_667\n      jumpi\n      0x00\n      dup1\n      revert\n    tag_667:\n      pop\n      gas\n      staticcall\n      iszero\n      dup1\n      iszero\n      tag_669\n      jumpi\n      returndatasize\n      0x00\n      dup1\n      returndatacopy\n      revert(0x00, returndatasize)\n    tag_669:\n      pop\n      pop\n      pop\n      pop\n      mload(0x40)\n      returndatasize\n      not(0x1f)\n      0x1f\n      dup3\n      add\n      and\n      dup3\n      add\n      dup1\n      0x40\n      mstore\n      pop\n      dup2\n      add\n      swap1\n      tag_670\n      swap2\n      swap1\n      tag_438\n      jump\t// in\n    tag_670:\n        /* \"contracts/reference.sol\":18616:18620  path */\n      dup2\n        /* \"contracts/reference.sol\":18621:18622  1 */\n      0x01\n        /* \"contracts/reference.sol\":18616:18623  path[1] */\n      dup2\n      mload\n      dup2\n      lt\n      tag_671\n      jumpi\n      mstore(0x00, shl(0xe0, 0x4e487b71))\n      mstore(0x04, 0x32)\n      revert(0x00, 0x24)\n    tag_671:\n      sub(shl(0xa0, 0x01), 0x01)\n        /* \"contracts/reference.sol\":18616:18648  path[1] = uniswapV2Router.WETH() */\n      swap3\n      dup4\n      and\n        /* \"contracts/reference.sol\":18616:18623  path[1] */\n      0x20\n      swap2\n      dup3\n      mul\n      swap3\n      swap1\n      swap3\n      add\n      add\n        /* \"contracts/reference.sol\":18616:18648  path[1] = uniswapV2Router.WETH() */\n      mstore\n        /* \"contracts/reference.sol\":18690:18705  uniswapV2Router */\n      sload(0x25)\n        /* \"contracts/reference.sol\":18658:18720  _approve(address(this), address(uniswapV2Router), tokenAmount) */\n      tag_672\n      swap2\n        /* \"contracts/reference.sol\":18675:18679  this */\n      address\n      swap2\n        /* \"contracts/reference.sol\":18690:18705  uniswapV2Router */\n      and\n        /* \"contracts/reference.sol\":18708:18719  tokenAmount */\n      dup5\n        /* \"contracts/reference.sol\":18658:18666  _approve */\n      tag_320\n        /* \"contracts/reference.sol\":18658:18720  _approve(address(this), address(uniswapV2Router), tokenAmount) */\n      jump\t// in\n    tag_672:\n        /* \"contracts/reference.sol\":18730:18745  uniswapV2Router */\n      sload(0x25)\n        /* \"contracts/reference.sol\":18730:18850  uniswapV2Router.swapExactTokensForETHSupportingFeeOnTransferTokens(tokenAmount, 0, path, address(this), block.timestamp) */\n      mload(0x40)\n      shl(0xe0, 0x791ac947)\n      dup2\n      mstore\n      sub(shl(0xa0, 0x01), 0x01)\n        /* \"contracts/reference.sol\":18730:18745  uniswapV2Router */\n      swap1\n      swap2\n      and\n      swap1\n        /* \"contracts/reference.sol\":18730:18796  uniswapV2Router.swapExactTokensForETHSupportingFeeOnTransferTokens */\n      0x791ac947\n      swap1\n        /* \"contracts/reference.sol\":18730:18850  uniswapV2Router.swapExactTokensForETHSupportingFeeOnTransferTokens(tokenAmount, 0, path, address(this), block.timestamp) */\n      tag_673\n      swap1\n        /* \"contracts/reference.sol\":18797:18808  tokenAmount */\n      dup6\n      swap1\n        /* \"contracts/reference.sol\":18730:18745  uniswapV2Router */\n      0x00\n      swap1\n        /* \"contracts/reference.sol\":18813:18817  path */\n      dup7\n      swap1\n        /* \"contracts/reference.sol\":18827:18831  this */\n      address\n      swap1\n        /* \"contracts/reference.sol\":18834:18849  block.timestamp */\n      timestamp\n      swap1\n        /* \"contracts/reference.sol\":18730:18850  uniswapV2Router.swapExactTokensForETHSupportingFeeOnTransferTokens(tokenAmount, 0, path, address(this), block.timestamp) */\n      0x04\n      add\n      tag_674\n      jump\t// in\n    tag_673:\n      0x00\n      mload(0x40)\n      dup1\n      dup4\n      sub\n      dup2\n      0x00\n      dup8\n      dup1\n      extcodesize\n      iszero\n      dup1\n      iszero\n      tag_675\n      jumpi\n      0x00\n      dup1\n      revert\n    tag_675:\n      pop\n      gas\n      call\n      iszero\n      dup1\n      iszero\n      tag_677\n      jumpi\n      returndatasize\n      0x00\n      dup1\n      returndatacopy\n      revert(0x00, returndatasize)\n    tag_677:\n      pop\n      pop\n        /* \"contracts/reference.sol\":11630:11636  inSwap */\n      0x28\n        /* \"contracts/reference.sol\":11630:11644  inSwap = false */\n      dup1\n      sload\n      not(0xff00)\n      and\n      swap1\n      sstore\n      pop\n      pop\n      pop\n      pop\n        /* \"contracts/reference.sol\":18456:18857  function swapTokensForEth(uint256 tokenAmount) private lockTheSwap {... */\n      jump\t// out\n        /* \"contracts/reference.sol\":1528:1703  function add(uint256 a, uint256 b) internal pure returns (uint256) {... */\n    tag_515:\n        /* \"contracts/reference.sol\":1586:1593  uint256 */\n      0x00\n      dup1\n        /* \"contracts/reference.sol\":1617:1622  a + b */\n      tag_679\n        /* \"contracts/reference.sol\":1621:1622  b */\n      dup4\n        /* \"contracts/reference.sol\":1617:1618  a */\n      dup6\n        /* \"contracts/reference.sol\":1617:1622  a + b */\n      tag_607\n      jump\t// in\n    tag_679:\n        /* \"contracts/reference.sol\":1605:1622  uint256 c = a + b */\n      swap1\n      pop\n        /* \"contracts/reference.sol\":1645:1646  a */\n      dup4\n        /* \"contracts/reference.sol\":1640:1641  c */\n      dup2\n        /* \"contracts/reference.sol\":1640:1646  c >= a */\n      lt\n      iszero\n        /* \"contracts/reference.sol\":1632:1678  require(c >= a, \"SafeMath: addition overflow\") */\n      tag_649\n      jumpi\n      mload(0x40)\n      shl(0xe5, 0x461bcd)\n      dup2\n      mstore\n        /* \"#utility.yul\":9997:9999   */\n      0x20\n        /* \"contracts/reference.sol\":1632:1678  require(c >= a, \"SafeMath: addition overflow\") */\n      0x04\n      dup3\n      add\n        /* \"#utility.yul\":9979:10000   */\n      mstore\n        /* \"#utility.yul\":10036:10038   */\n      0x1b\n        /* \"#utility.yul\":10016:10034   */\n      0x24\n      dup3\n      add\n        /* \"#utility.yul\":10009:10039   */\n      mstore\n        /* \"#utility.yul\":10075:10104   */\n      0x536166654d6174683a206164646974696f6e206f766572666c6f770000000000\n        /* \"#utility.yul\":10055:10073   */\n      0x44\n      dup3\n      add\n        /* \"#utility.yul\":10048:10105   */\n      mstore\n        /* \"#utility.yul\":10122:10140   */\n      0x64\n      add\n        /* \"contracts/reference.sol\":1632:1678  require(c >= a, \"SafeMath: addition overflow\") */\n      tag_324\n        /* \"#utility.yul\":9969:10146   */\n      jump\n        /* \"contracts/reference.sol\":3654:3841  function _transferOwnership(address newOwner) internal virtual {... */\n    tag_537:\n        /* \"contracts/reference.sol\":3727:3743  address oldOwner */\n      0x00\n        /* \"contracts/reference.sol\":3746:3752  _owner */\n      dup1\n      sload\n      sub(shl(0xa0, 0x01), 0x01)\n        /* \"contracts/reference.sol\":3762:3779  _owner = newOwner */\n      dup4\n      dup2\n      and\n      not(sub(shl(0xa0, 0x01), 0x01))\n      dup4\n      and\n      dup2\n      or\n      dup5\n      sstore\n        /* \"contracts/reference.sol\":3794:3834  OwnershipTransferred(oldOwner, newOwner) */\n      mload(0x40)\n        /* \"contracts/reference.sol\":3746:3752  _owner */\n      swap2\n      swap1\n      swap3\n      and\n      swap3\n      dup4\n      swap2\n        /* \"contracts/reference.sol\":3794:3834  OwnershipTransferred(oldOwner, newOwner) */\n      0x8be0079c531659141344cd1fd0a4f28419497f9722a3daafe3b4186f6b6457e0\n      swap2\n        /* \"contracts/reference.sol\":3727:3743  address oldOwner */\n      swap1\n        /* \"contracts/reference.sol\":3794:3834  OwnershipTransferred(oldOwner, newOwner) */\n      log3\n        /* \"contracts/reference.sol\":3654:3841  function _transferOwnership(address newOwner) internal virtual {... */\n      pop\n      pop\n      jump\t// out\n        /* \"contracts/reference.sol\":18863:19671  function _checkPriceConditions() private {... */\n    tag_613:\n        /* \"contracts/reference.sol\":18914:18934  uint256 currentPrice */\n      0x00\n        /* \"contracts/reference.sol\":18937:18948  pairPrice() */\n      tag_685\n        /* \"contracts/reference.sol\":18937:18946  pairPrice */\n      tag_213\n        /* \"contracts/reference.sol\":18937:18948  pairPrice() */\n      jump\t// in\n    tag_685:\n        /* \"contracts/reference.sol\":18914:18948  uint256 currentPrice = pairPrice() */\n      swap1\n      pop\n        /* \"contracts/reference.sol\":18962:18979  currentPrice == 0 */\n      dup1\n        /* \"contracts/reference.sol\":18958:18988  if (currentPrice == 0) return; */\n      tag_686\n      jumpi\n        /* \"contracts/reference.sol\":18981:18988  return; */\n      pop\n        /* \"contracts/reference.sol\":18863:19671  function _checkPriceConditions() private {... */\n      jump\t// out\n        /* \"contracts/reference.sol\":18958:18988  if (currentPrice == 0) return; */\n    tag_686:\n        /* \"contracts/reference.sol\":19017:19038  diamondFloor.athPrice */\n      sload(0x1d)\n        /* \"contracts/reference.sol\":19002:19038  currentPrice > diamondFloor.athPrice */\n      dup2\n      gt\n        /* \"contracts/reference.sol\":18998:19167  if (currentPrice > diamondFloor.athPrice) {... */\n      iszero\n      tag_687\n      jumpi\n        /* \"contracts/reference.sol\":19054:19075  diamondFloor.athPrice */\n      0x1d\n        /* \"contracts/reference.sol\":19054:19090  diamondFloor.athPrice = currentPrice */\n      sstore\n        /* \"contracts/reference.sol\":19104:19128  diamondFloor.sellStopped */\n      0x1e\n        /* \"contracts/reference.sol\":19104:19136  diamondFloor.sellStopped = false */\n      dup1\n      sload\n      not(0xff)\n      and\n      swap1\n      sstore\n        /* \"contracts/reference.sol\":18863:19671  function _checkPriceConditions() private {... */\n      jump\t// out\n        /* \"contracts/reference.sol\":18998:19167  if (currentPrice > diamondFloor.athPrice) {... */\n    tag_687:\n        /* \"contracts/reference.sol\":19251:19263  diamondFloor */\n      0x1c\n        /* \"contracts/reference.sol\":19251:19281  diamondFloor.triggerPercentage */\n      sload\n        /* \"contracts/reference.sol\":19202:19223  diamondFloor.athPrice */\n      sload(0x1d)\n        /* \"contracts/reference.sol\":19177:19199  uint256 thresholdPrice */\n      0x00\n      swap2\n        /* \"contracts/reference.sol\":19202:19305  diamondFloor.athPrice... */\n      tag_688\n      swap2\n        /* \"contracts/reference.sol\":19300:19304  1000 */\n      0x03e8\n      swap2\n        /* \"contracts/reference.sol\":19202:19282  diamondFloor.athPrice... */\n      tag_441\n      swap2\n        /* \"contracts/reference.sol\":19251:19281  diamondFloor.triggerPercentage */\n      0x0100\n      swap1\n      swap2\n      div\n      0xffff\n      and\n      swap1\n        /* \"contracts/reference.sol\":19202:19246  diamondFloor.athPrice... */\n      tag_690\n      swap1\n        /* \"contracts/reference.sol\":19300:19304  1000 */\n      dup5\n        /* \"contracts/reference.sol\":19202:19240  diamondFloor.athPrice... */\n      tag_442\n        /* \"contracts/reference.sol\":19202:19246  diamondFloor.athPrice... */\n      jump\t// in\n    tag_690:\n        /* \"contracts/reference.sol\":19202:19250  diamondFloor.athPrice... */\n      swap1\n      tag_456\n        /* \"contracts/reference.sol\":19202:19282  diamondFloor.athPrice... */\n      jump\t// in\n        /* \"contracts/reference.sol\":19202:19305  diamondFloor.athPrice... */\n    tag_688:\n        /* \"contracts/reference.sol\":19177:19305  uint256 thresholdPrice = diamondFloor.athPrice... */\n      swap1\n      pop\n        /* \"contracts/reference.sol\":19335:19349  thresholdPrice */\n      dup1\n        /* \"contracts/reference.sol\":19320:19332  currentPrice */\n      dup3\n        /* \"contracts/reference.sol\":19320:19349  currentPrice < thresholdPrice */\n      lt\n        /* \"contracts/reference.sol\":19316:19468  if (currentPrice < thresholdPrice) {... */\n      iszero\n      tag_691\n      jumpi\n        /* \"contracts/reference.sol\":19365:19389  diamondFloor.sellStopped */\n      0x1e\n        /* \"contracts/reference.sol\":19365:19396  diamondFloor.sellStopped = true */\n      dup1\n      sload\n      not(0xff)\n      and\n        /* \"contracts/reference.sol\":19392:19396  true */\n      0x01\n        /* \"contracts/reference.sol\":19365:19396  diamondFloor.sellStopped = true */\n      or\n      swap1\n      sstore\n        /* \"contracts/reference.sol\":19436:19457  diamondFloor.athPrice */\n      sload(0x1d)\n        /* \"contracts/reference.sol\":19410:19433  diamondFloor.blockedAth */\n      0x1f\n        /* \"contracts/reference.sol\":19410:19457  diamondFloor.blockedAth = diamondFloor.athPrice */\n      sstore\n        /* \"contracts/reference.sol\":19316:19468  if (currentPrice < thresholdPrice) {... */\n    tag_691:\n        /* \"contracts/reference.sol\":19482:19506  diamondFloor.sellStopped */\n      and(0xff, sload(0x1e))\n        /* \"contracts/reference.sol\":19482:19556  diamondFloor.sellStopped && currentPrice >= diamondFloor.blockedAth.mul(2) */\n      dup1\n      iszero\n      tag_692\n      jumpi\n      pop\n        /* \"contracts/reference.sol\":19526:19549  diamondFloor.blockedAth */\n      sload(0x1f)\n        /* \"contracts/reference.sol\":19526:19556  diamondFloor.blockedAth.mul(2) */\n      tag_693\n      swap1\n        /* \"contracts/reference.sol\":19554:19555  2 */\n      0x02\n        /* \"contracts/reference.sol\":19526:19553  diamondFloor.blockedAth.mul */\n      tag_442\n        /* \"contracts/reference.sol\":19526:19556  diamondFloor.blockedAth.mul(2) */\n      jump\t// in\n    tag_693:\n        /* \"contracts/reference.sol\":19510:19522  currentPrice */\n      dup3\n        /* \"contracts/reference.sol\":19510:19556  currentPrice >= diamondFloor.blockedAth.mul(2) */\n      lt\n      iszero\n        /* \"contracts/reference.sol\":19482:19556  diamondFloor.sellStopped && currentPrice >= diamondFloor.blockedAth.mul(2) */\n    tag_692:\n        /* \"contracts/reference.sol\":19478:19665  if (diamondFloor.sellStopped && currentPrice >= diamondFloor.blockedAth.mul(2)) {... */\n      iszero\n      tag_406\n      jumpi\n      pop\n        /* \"contracts/reference.sol\":19572:19596  diamondFloor.sellStopped */\n      0x1e\n        /* \"contracts/reference.sol\":19572:19604  diamondFloor.sellStopped = false */\n      dup1\n      sload\n      not(0xff)\n      and\n      swap1\n      sstore\n        /* \"contracts/reference.sol\":19618:19639  diamondFloor.athPrice */\n      0x1d\n        /* \"contracts/reference.sol\":19618:19654  diamondFloor.athPrice = currentPrice */\n      sstore\n        /* \"contracts/reference.sol\":18863:19671  function _checkPriceConditions() private {... */\n      jump\t// out\n        /* \"contracts/reference.sol\":20564:21071  function swapAndLiquify(uint256 lpAmount, uint256 contractTokenBalance) private lockTheSwap {... */\n    tag_629:\n        /* \"contracts/reference.sol\":11596:11602  inSwap */\n      0x28\n        /* \"contracts/reference.sol\":11596:11609  inSwap = true */\n      dup1\n      sload\n      not(0xff00)\n      and\n      0x0100\n      or\n      swap1\n      sstore\n      0x00\n        /* \"contracts/reference.sol\":20681:20696  lpAmount.div(2) */\n      tag_697\n        /* \"contracts/reference.sol\":20681:20689  lpAmount */\n      dup4\n        /* \"contracts/reference.sol\":20694:20695  2 */\n      0x02\n        /* \"contracts/reference.sol\":20681:20693  lpAmount.div */\n      tag_347\n        /* \"contracts/reference.sol\":20681:20696  lpAmount.div(2) */\n      jump\t// in\n    tag_697:\n        /* \"contracts/reference.sol\":20666:20696  uint256 half = lpAmount.div(2) */\n      swap1\n      pop\n        /* \"contracts/reference.sol\":20706:20723  uint256 otherHalf */\n      0x00\n        /* \"contracts/reference.sol\":20726:20744  lpAmount.sub(half) */\n      tag_698\n        /* \"contracts/reference.sol\":20726:20734  lpAmount */\n      dup5\n        /* \"contracts/reference.sol\":20666:20696  uint256 half = lpAmount.div(2) */\n      dup4\n        /* \"contracts/reference.sol\":20726:20738  lpAmount.sub */\n      tag_456\n        /* \"contracts/reference.sol\":20726:20744  lpAmount.sub(half) */\n      jump\t// in\n    tag_698:\n        /* \"contracts/reference.sol\":20706:20744  uint256 otherHalf = lpAmount.sub(half) */\n      swap1\n      pop\n        /* \"contracts/reference.sol\":20779:20800  address(this).balance */\n      selfbalance\n        /* \"contracts/reference.sol\":20810:20858  swapTokensForEth(contractTokenBalance.add(half)) */\n      tag_699\n        /* \"contracts/reference.sol\":20827:20857  contractTokenBalance.add(half) */\n      tag_700\n        /* \"contracts/reference.sol\":20827:20847  contractTokenBalance */\n      dup6\n        /* \"contracts/reference.sol\":20852:20856  half */\n      dup6\n        /* \"contracts/reference.sol\":20827:20851  contractTokenBalance.add */\n      tag_515\n        /* \"contracts/reference.sol\":20827:20857  contractTokenBalance.add(half) */\n      jump\t// in\n    tag_700:\n        /* \"contracts/reference.sol\":20810:20826  swapTokensForEth */\n      tag_480\n        /* \"contracts/reference.sol\":20810:20858  swapTokensForEth(contractTokenBalance.add(half)) */\n      jump\t// in\n    tag_699:\n        /* \"contracts/reference.sol\":20868:20886  uint256 newBalance */\n      0x00\n        /* \"contracts/reference.sol\":20889:20930  address(this).balance.sub(initialBalance) */\n      tag_701\n        /* \"contracts/reference.sol\":20889:20910  address(this).balance */\n      selfbalance\n        /* \"contracts/reference.sol\":20915:20929  initialBalance */\n      dup4\n        /* \"contracts/reference.sol\":20889:20914  address(this).balance.sub */\n      tag_456\n        /* \"contracts/reference.sol\":20889:20930  address(this).balance.sub(initialBalance) */\n      jump\t// in\n    tag_701:\n        /* \"contracts/reference.sol\":20868:20930  uint256 newBalance = address(this).balance.sub(initialBalance) */\n      swap1\n      pop\n        /* \"contracts/reference.sol\":20944:20957  otherHalf > 0 */\n      dup3\n      iszero\n        /* \"contracts/reference.sol\":20940:21065  if (otherHalf > 0) {... */\n      tag_677\n      jumpi\n        /* \"contracts/reference.sol\":20973:21054  addLiquidity(otherHalf, newBalance.mul(half).div(contractTokenBalance.add(half))) */\n      tag_677\n        /* \"contracts/reference.sol\":20986:20995  otherHalf */\n      dup4\n        /* \"contracts/reference.sol\":20997:21053  newBalance.mul(half).div(contractTokenBalance.add(half)) */\n      tag_704\n        /* \"contracts/reference.sol\":21022:21052  contractTokenBalance.add(half) */\n      tag_705\n        /* \"contracts/reference.sol\":21022:21042  contractTokenBalance */\n      dup9\n        /* \"contracts/reference.sol\":21047:21051  half */\n      dup9\n        /* \"contracts/reference.sol\":21022:21046  contractTokenBalance.add */\n      tag_515\n        /* \"contracts/reference.sol\":21022:21052  contractTokenBalance.add(half) */\n      jump\t// in\n    tag_705:\n        /* \"contracts/reference.sol\":20997:21017  newBalance.mul(half) */\n      tag_441\n        /* \"contracts/reference.sol\":20997:21007  newBalance */\n      dup6\n        /* \"contracts/reference.sol\":21012:21016  half */\n      dup10\n        /* \"contracts/reference.sol\":20997:21011  newBalance.mul */\n      tag_442\n        /* \"contracts/reference.sol\":20997:21017  newBalance.mul(half) */\n      jump\t// in\n        /* \"contracts/reference.sol\":20997:21053  newBalance.mul(half).div(contractTokenBalance.add(half)) */\n    tag_704:\n        /* \"contracts/reference.sol\":20973:20985  addLiquidity */\n      tag_707\n        /* \"contracts/reference.sol\":20973:21054  addLiquidity(otherHalf, newBalance.mul(half).div(contractTokenBalance.add(half))) */\n      jump\t// in\n        /* \"contracts/reference.sol\":21077:21819  function sendETHToFee(uint256 amount) private {... */\n    tag_632:\n        /* \"contracts/reference.sol\":21133:21150  uint256 totalFees */\n      0x00\n        /* \"contracts/reference.sol\":21153:21211  _sellMarketingFee.add(_sellEcosystemFee).add(_sellTeamFee) */\n      tag_709\n        /* \"contracts/reference.sol\":21198:21210  _sellTeamFee */\n      sload(0x17)\n        /* \"contracts/reference.sol\":21153:21193  _sellMarketingFee.add(_sellEcosystemFee) */\n      tag_514\n        /* \"contracts/reference.sol\":21175:21192  _sellEcosystemFee */\n      sload(0x13)\n        /* \"contracts/reference.sol\":21153:21170  _sellMarketingFee */\n      sload(0x15)\n        /* \"contracts/reference.sol\":21153:21174  _sellMarketingFee.add */\n      tag_515\n      swap1\n        /* \"contracts/reference.sol\":21153:21193  _sellMarketingFee.add(_sellEcosystemFee) */\n      swap2\n      swap1\n      0xffffffff\n      and\n      jump\t// in\n        /* \"contracts/reference.sol\":21153:21211  _sellMarketingFee.add(_sellEcosystemFee).add(_sellTeamFee) */\n    tag_709:\n        /* \"contracts/reference.sol\":21133:21211  uint256 totalFees = _sellMarketingFee.add(_sellEcosystemFee).add(_sellTeamFee) */\n      swap1\n      pop\n        /* \"contracts/reference.sol\":21225:21239  totalFees != 0 */\n      dup1\n      iszero\n        /* \"contracts/reference.sol\":21221:21813  if (totalFees != 0) {... */\n      tag_406\n      jumpi\n        /* \"contracts/reference.sol\":21255:21279  uint256 marketingPortion */\n      0x00\n        /* \"contracts/reference.sol\":21282:21326  amount.mul(_sellMarketingFee).div(totalFees) */\n      tag_712\n        /* \"contracts/reference.sol\":21316:21325  totalFees */\n      dup3\n        /* \"contracts/reference.sol\":21282:21311  amount.mul(_sellMarketingFee) */\n      tag_441\n        /* \"contracts/reference.sol\":21293:21310  _sellMarketingFee */\n      sload(0x15)\n        /* \"contracts/reference.sol\":21282:21288  amount */\n      dup7\n        /* \"contracts/reference.sol\":21282:21292  amount.mul */\n      tag_442\n      swap1\n        /* \"contracts/reference.sol\":21282:21311  amount.mul(_sellMarketingFee) */\n      swap2\n      swap1\n      0xffffffff\n      and\n      jump\t// in\n        /* \"contracts/reference.sol\":21282:21326  amount.mul(_sellMarketingFee).div(totalFees) */\n    tag_712:\n        /* \"contracts/reference.sol\":21255:21326  uint256 marketingPortion = amount.mul(_sellMarketingFee).div(totalFees) */\n      swap1\n      pop\n        /* \"contracts/reference.sol\":21340:21359  uint256 teamPortion */\n      0x00\n        /* \"contracts/reference.sol\":21362:21401  amount.mul(_sellTeamFee).div(totalFees) */\n      tag_714\n        /* \"contracts/reference.sol\":21391:21400  totalFees */\n      dup4\n        /* \"contracts/reference.sol\":21362:21386  amount.mul(_sellTeamFee) */\n      tag_441\n        /* \"contracts/reference.sol\":21373:21385  _sellTeamFee */\n      sload(0x17)\n        /* \"contracts/reference.sol\":21362:21368  amount */\n      dup8\n        /* \"contracts/reference.sol\":21362:21372  amount.mul */\n      tag_442\n      swap1\n        /* \"contracts/reference.sol\":21362:21386  amount.mul(_sellTeamFee) */\n      swap2\n      swap1\n      0xffffffff\n      and\n      jump\t// in\n        /* \"contracts/reference.sol\":21362:21401  amount.mul(_sellTeamFee).div(totalFees) */\n    tag_714:\n        /* \"contracts/reference.sol\":21340:21401  uint256 teamPortion = amount.mul(_sellTeamFee).div(totalFees) */\n      swap1\n      pop\n        /* \"contracts/reference.sol\":21415:21433  uint256 ecoPortion */\n      0x00\n        /* \"contracts/reference.sol\":21436:21481  amount.sub(marketingPortion).sub(teamPortion) */\n      tag_716\n        /* \"contracts/reference.sol\":21340:21401  uint256 teamPortion = amount.mul(_sellTeamFee).div(totalFees) */\n      dup3\n        /* \"contracts/reference.sol\":21436:21464  amount.sub(marketingPortion) */\n      tag_690\n        /* \"contracts/reference.sol\":21436:21442  amount */\n      dup8\n        /* \"contracts/reference.sol\":21447:21463  marketingPortion */\n      dup7\n        /* \"contracts/reference.sol\":21436:21446  amount.sub */\n      tag_456\n        /* \"contracts/reference.sol\":21436:21464  amount.sub(marketingPortion) */\n      jump\t// in\n        /* \"contracts/reference.sol\":21436:21481  amount.sub(marketingPortion).sub(teamPortion) */\n    tag_716:\n        /* \"contracts/reference.sol\":21415:21481  uint256 ecoPortion = amount.sub(marketingPortion).sub(teamPortion) */\n      swap1\n      pop\n        /* \"contracts/reference.sol\":21499:21519  marketingPortion > 0 */\n      dup3\n      iszero\n        /* \"contracts/reference.sol\":21495:21598  if (marketingPortion > 0) {... */\n      tag_718\n      jumpi\n        /* \"contracts/reference.sol\":21539:21556  _marketingAddress */\n      sload(0x21)\n        /* \"contracts/reference.sol\":21539:21583  _marketingAddress.transfer(marketingPortion) */\n      mload(0x40)\n      sub(shl(0xa0, 0x01), 0x01)\n        /* \"contracts/reference.sol\":21539:21556  _marketingAddress */\n      swap1\n      swap2\n      and\n      swap1\n        /* \"contracts/reference.sol\":21539:21583  _marketingAddress.transfer(marketingPortion) */\n      dup5\n      iszero\n      0x08fc\n      mul\n      swap1\n        /* \"contracts/reference.sol\":21566:21582  marketingPortion */\n      dup6\n      swap1\n        /* \"contracts/reference.sol\":21539:21556  _marketingAddress */\n      0x00\n        /* \"contracts/reference.sol\":21539:21583  _marketingAddress.transfer(marketingPortion) */\n      dup2\n        /* \"contracts/reference.sol\":21539:21556  _marketingAddress */\n      dup2\n        /* \"contracts/reference.sol\":21539:21583  _marketingAddress.transfer(marketingPortion) */\n      dup2\n        /* \"contracts/reference.sol\":21566:21582  marketingPortion */\n      dup6\n        /* \"contracts/reference.sol\":21539:21556  _marketingAddress */\n      dup9\n        /* \"contracts/reference.sol\":21539:21583  _marketingAddress.transfer(marketingPortion) */\n      dup9\n      call\n      swap4\n      pop\n      pop\n      pop\n      pop\n      iszero\n      dup1\n      iszero\n      tag_720\n      jumpi\n      returndatasize\n      0x00\n      dup1\n      returndatacopy\n      revert(0x00, returndatasize)\n    tag_720:\n      pop\n        /* \"contracts/reference.sol\":21495:21598  if (marketingPortion > 0) {... */\n    tag_718:\n        /* \"contracts/reference.sol\":21615:21630  teamPortion > 0 */\n      dup2\n      iszero\n        /* \"contracts/reference.sol\":21611:21699  if (teamPortion > 0) {... */\n      tag_721\n      jumpi\n        /* \"contracts/reference.sol\":21650:21662  _teamAddress */\n      sload(0x22)\n        /* \"contracts/reference.sol\":21650:21684  _teamAddress.transfer(teamPortion) */\n      mload(0x40)\n      sub(shl(0xa0, 0x01), 0x01)\n        /* \"contracts/reference.sol\":21650:21662  _teamAddress */\n      swap1\n      swap2\n      and\n      swap1\n        /* \"contracts/reference.sol\":21650:21684  _teamAddress.transfer(teamPortion) */\n      dup4\n      iszero\n      0x08fc\n      mul\n      swap1\n        /* \"contracts/reference.sol\":21672:21683  teamPortion */\n      dup5\n      swap1\n        /* \"contracts/reference.sol\":21650:21662  _teamAddress */\n      0x00\n        /* \"contracts/reference.sol\":21650:21684  _teamAddress.transfer(teamPortion) */\n      dup2\n        /* \"contracts/reference.sol\":21650:21662  _teamAddress */\n      dup2\n        /* \"contracts/reference.sol\":21650:21684  _teamAddress.transfer(teamPortion) */\n      dup2\n        /* \"contracts/reference.sol\":21672:21683  teamPortion */\n      dup6\n        /* \"contracts/reference.sol\":21650:21662  _teamAddress */\n      dup9\n        /* \"contracts/reference.sol\":21650:21684  _teamAddress.transfer(teamPortion) */\n      dup9\n      call\n      swap4\n      pop\n      pop\n      pop\n      pop\n      iszero\n      dup1\n      iszero\n      tag_723\n      jumpi\n      returndatasize\n      0x00\n      dup1\n      returndatacopy\n      revert(0x00, returndatasize)\n    tag_723:\n      pop\n        /* \"contracts/reference.sol\":21611:21699  if (teamPortion > 0) {... */\n    tag_721:\n        /* \"contracts/reference.sol\":21716:21730  ecoPortion > 0 */\n      dup1\n      iszero\n        /* \"contracts/reference.sol\":21712:21803  if (ecoPortion > 0) {... */\n      tag_724\n      jumpi\n        /* \"contracts/reference.sol\":21750:21767  _ecosystemAddress */\n      sload(0x23)\n        /* \"contracts/reference.sol\":21750:21788  _ecosystemAddress.transfer(ecoPortion) */\n      mload(0x40)\n      sub(shl(0xa0, 0x01), 0x01)\n        /* \"contracts/reference.sol\":21750:21767  _ecosystemAddress */\n      swap1\n      swap2\n      and\n      swap1\n        /* \"contracts/reference.sol\":21750:21788  _ecosystemAddress.transfer(ecoPortion) */\n      dup3\n      iszero\n      0x08fc\n      mul\n      swap1\n        /* \"contracts/reference.sol\":21777:21787  ecoPortion */\n      dup4\n      swap1\n        /* \"contracts/reference.sol\":21750:21767  _ecosystemAddress */\n      0x00\n        /* \"contracts/reference.sol\":21750:21788  _ecosystemAddress.transfer(ecoPortion) */\n      dup2\n        /* \"contracts/reference.sol\":21750:21767  _ecosystemAddress */\n      dup2\n        /* \"contracts/reference.sol\":21750:21788  _ecosystemAddress.transfer(ecoPortion) */\n      dup2\n        /* \"contracts/reference.sol\":21777:21787  ecoPortion */\n      dup6\n        /* \"contracts/reference.sol\":21750:21767  _ecosystemAddress */\n      dup9\n        /* \"contracts/reference.sol\":21750:21788  _ecosystemAddress.transfer(ecoPortion) */\n      dup9\n      call\n      swap4\n      pop\n      pop\n      pop\n      pop\n      iszero\n      dup1\n      iszero\n      tag_726\n      jumpi\n      returndatasize\n      0x00\n      dup1\n      returndatacopy\n      revert(0x00, returndatasize)\n    tag_726:\n      pop\n        /* \"contracts/reference.sol\":21712:21803  if (ecoPortion > 0) {... */\n    tag_724:\n        /* \"contracts/reference.sol\":21221:21813  if (totalFees != 0) {... */\n      pop\n      pop\n      pop\n        /* \"contracts/reference.sol\":21077:21819  function sendETHToFee(uint256 amount) private {... */\n      pop\n      pop\n      jump\t// out\n        /* \"contracts/reference.sol\":22950:23200  function _tokenTransfer(address sender, address recipient, uint256 amount, bool takeFee) private {... */\n    tag_642:\n        /* \"contracts/reference.sol\":23062:23069  takeFee */\n      dup1\n        /* \"contracts/reference.sol\":23057:23115  if (!takeFee) { ... */\n      tag_729\n      jumpi\n        /* \"contracts/reference.sol\":23090:23104  removeAllFee() */\n      tag_729\n        /* \"contracts/reference.sol\":13936:13952  _buyMarketingFee */\n      0x0d\n      dup1\n      sload\n        /* \"contracts/reference.sol\":13909:13933  _previousBuyMarketingFee */\n      0x0e\n        /* \"contracts/reference.sol\":13909:13952  _previousBuyMarketingFee = _buyMarketingFee */\n      sstore\n        /* \"contracts/reference.sol\":13989:14005  _buyLiquidityFee */\n      0x09\n      dup1\n      sload\n        /* \"contracts/reference.sol\":13962:13986  _previousBuyLiquidityFee */\n      0x0a\n        /* \"contracts/reference.sol\":13962:14005  _previousBuyLiquidityFee = _buyLiquidityFee */\n      sstore\n        /* \"contracts/reference.sol\":14037:14048  _buyTeamFee */\n      0x0f\n      dup1\n      sload\n        /* \"contracts/reference.sol\":14015:14034  _previousBuyTeamFee */\n      0x10\n        /* \"contracts/reference.sol\":14015:14048  _previousBuyTeamFee = _buyTeamFee */\n      sstore\n        /* \"contracts/reference.sol\":14085:14101  _buyEcosystemFee */\n      0x0b\n      dup1\n      sload\n        /* \"contracts/reference.sol\":14058:14082  _previousBuyEcosystemFee */\n      0x0c\n        /* \"contracts/reference.sol\":14058:14101  _previousBuyEcosystemFee = _buyEcosystemFee */\n      sstore\n      0x00\n        /* \"contracts/reference.sol\":14120:14140  _buyMarketingFee = 0 */\n      swap4\n      dup5\n      swap1\n      sstore\n        /* \"contracts/reference.sol\":14150:14170  _buyLiquidityFee = 0 */\n      swap2\n      dup4\n      swap1\n      sstore\n        /* \"contracts/reference.sol\":14180:14195  _buyTeamFee = 0 */\n      dup3\n      swap1\n      sstore\n        /* \"contracts/reference.sol\":14205:14225  _buyEcosystemFee = 0 */\n      dup2\n      swap1\n      sstore\n        /* \"contracts/reference.sol\":14264:14281  _sellMarketingFee */\n      0x15\n      dup1\n      sload\n        /* \"contracts/reference.sol\":14236:14261  _previousSellMarketingFee */\n      0x16\n        /* \"contracts/reference.sol\":14236:14281  _previousSellMarketingFee = _sellMarketingFee */\n      sstore\n        /* \"contracts/reference.sol\":14319:14336  _sellLiquidityFee */\n      0x11\n      dup1\n      sload\n        /* \"contracts/reference.sol\":14291:14316  _previousSellLiquidityFee */\n      0x12\n        /* \"contracts/reference.sol\":14291:14336  _previousSellLiquidityFee = _sellLiquidityFee */\n      sstore\n        /* \"contracts/reference.sol\":14369:14381  _sellTeamFee */\n      0x17\n      dup1\n      sload\n        /* \"contracts/reference.sol\":14346:14366  _previousSellTeamFee */\n      0x18\n        /* \"contracts/reference.sol\":14346:14381  _previousSellTeamFee = _sellTeamFee */\n      sstore\n        /* \"contracts/reference.sol\":14419:14436  _sellEcosystemFee */\n      0x13\n      dup1\n      sload\n        /* \"contracts/reference.sol\":14391:14416  _previousSellEcosystemFee */\n      0x14\n        /* \"contracts/reference.sol\":14391:14436  _previousSellEcosystemFee = _sellEcosystemFee */\n      sstore\n        /* \"contracts/reference.sol\":14455:14476  _sellMarketingFee = 0 */\n      swap3\n      dup5\n      swap1\n      sstore\n        /* \"contracts/reference.sol\":14486:14507  _sellLiquidityFee = 0 */\n      swap1\n      dup4\n      swap1\n      sstore\n        /* \"contracts/reference.sol\":14517:14533  _sellTeamFee = 0 */\n      dup3\n      swap1\n      sstore\n        /* \"contracts/reference.sol\":14543:14564  _sellEcosystemFee = 0 */\n      sstore\n        /* \"contracts/reference.sol\":13867:14571  function removeAllFee() private {... */\n      jump\n        /* \"contracts/reference.sol\":23090:23104  removeAllFee() */\n    tag_729:\n        /* \"contracts/reference.sol\":23124:23168  _transferStandard(sender, recipient, amount) */\n      tag_731\n        /* \"contracts/reference.sol\":23142:23148  sender */\n      dup5\n        /* \"contracts/reference.sol\":23150:23159  recipient */\n      dup5\n        /* \"contracts/reference.sol\":23161:23167  amount */\n      dup5\n        /* \"contracts/reference.sol\":23124:23141  _transferStandard */\n      tag_732\n        /* \"contracts/reference.sol\":23124:23168  _transferStandard(sender, recipient, amount) */\n      jump\t// in\n    tag_731:\n        /* \"contracts/reference.sol\":23178:23193  restoreAllFee() */\n      tag_641\n        /* \"contracts/reference.sol\":14643:14667  _previousBuyMarketingFee */\n      sload(0x0e)\n        /* \"contracts/reference.sol\":14624:14640  _buyMarketingFee */\n      0x0d\n        /* \"contracts/reference.sol\":14624:14667  _buyMarketingFee = _previousBuyMarketingFee */\n      sstore\n        /* \"contracts/reference.sol\":14696:14720  _previousBuyLiquidityFee */\n      sload(0x0a)\n        /* \"contracts/reference.sol\":14677:14693  _buyLiquidityFee */\n      0x09\n        /* \"contracts/reference.sol\":14677:14720  _buyLiquidityFee = _previousBuyLiquidityFee */\n      sstore\n        /* \"contracts/reference.sol\":14744:14763  _previousBuyTeamFee */\n      sload(0x10)\n        /* \"contracts/reference.sol\":14730:14741  _buyTeamFee */\n      0x0f\n        /* \"contracts/reference.sol\":14730:14763  _buyTeamFee = _previousBuyTeamFee */\n      sstore\n        /* \"contracts/reference.sol\":14792:14816  _previousBuyEcosystemFee */\n      sload(0x0c)\n        /* \"contracts/reference.sol\":14773:14789  _buyEcosystemFee */\n      0x0b\n        /* \"contracts/reference.sol\":14773:14816  _buyEcosystemFee = _previousBuyEcosystemFee */\n      sstore\n        /* \"contracts/reference.sol\":14847:14872  _previousSellMarketingFee */\n      sload(0x16)\n        /* \"contracts/reference.sol\":14827:14844  _sellMarketingFee */\n      0x15\n        /* \"contracts/reference.sol\":14827:14872  _sellMarketingFee = _previousSellMarketingFee */\n      sstore\n        /* \"contracts/reference.sol\":14902:14927  _previousSellLiquidityFee */\n      sload(0x12)\n        /* \"contracts/reference.sol\":14882:14899  _sellLiquidityFee */\n      0x11\n        /* \"contracts/reference.sol\":14882:14927  _sellLiquidityFee = _previousSellLiquidityFee */\n      sstore\n        /* \"contracts/reference.sol\":14952:14972  _previousSellTeamFee */\n      sload(0x18)\n        /* \"contracts/reference.sol\":14937:14949  _sellTeamFee */\n      0x17\n        /* \"contracts/reference.sol\":14937:14972  _sellTeamFee = _previousSellTeamFee */\n      sstore\n        /* \"contracts/reference.sol\":15002:15027  _previousSellEcosystemFee */\n      sload(0x14)\n        /* \"contracts/reference.sol\":14982:14999  _sellEcosystemFee */\n      0x13\n        /* \"contracts/reference.sol\":14982:15027  _sellEcosystemFee = _previousSellEcosystemFee */\n      sstore\n        /* \"contracts/reference.sol\":14581:15034  function restoreAllFee() private {... */\n      jump\n        /* \"contracts/reference.sol\":2422:2607  function div(uint256 a, uint256 b, string memory errorMessage) internal pure returns (uint256) {... */\n    tag_650:\n        /* \"contracts/reference.sol\":2508:2515  uint256 */\n      0x00\n        /* \"contracts/reference.sol\":2542:2554  errorMessage */\n      dup2\n        /* \"contracts/reference.sol\":2535:2540  b > 0 */\n      dup4\n        /* \"contracts/reference.sol\":2527:2555  require(b > 0, errorMessage) */\n      tag_736\n      jumpi\n      mload(0x40)\n      shl(0xe5, 0x461bcd)\n      dup2\n      mstore\n      0x04\n      add\n      tag_324\n      swap2\n      swap1\n      tag_85\n      jump\t// in\n    tag_736:\n      pop\n        /* \"contracts/reference.sol\":2565:2574  uint256 c */\n      0x00\n        /* \"contracts/reference.sol\":2577:2582  a / b */\n      tag_646\n        /* \"contracts/reference.sol\":2581:2582  b */\n      dup5\n        /* \"contracts/reference.sol\":2577:2578  a */\n      dup7\n        /* \"contracts/reference.sol\":2577:2582  a / b */\n      tag_656\n      jump\t// in\n        /* \"contracts/reference.sol\":20103:20556  function addLiquidity(uint256 tokenAmount, uint256 ethAmount) private {... */\n    tag_707:\n        /* \"contracts/reference.sol\":20215:20230  uniswapV2Router */\n      sload(0x25)\n        /* \"contracts/reference.sol\":20183:20245  _approve(address(this), address(uniswapV2Router), tokenAmount) */\n      tag_740\n      swap1\n        /* \"contracts/reference.sol\":20200:20204  this */\n      address\n      swap1\n      sub(shl(0xa0, 0x01), 0x01)\n        /* \"contracts/reference.sol\":20215:20230  uniswapV2Router */\n      and\n        /* \"contracts/reference.sol\":20233:20244  tokenAmount */\n      dup5\n        /* \"contracts/reference.sol\":20183:20191  _approve */\n      tag_320\n        /* \"contracts/reference.sol\":20183:20245  _approve(address(this), address(uniswapV2Router), tokenAmount) */\n      jump\t// in\n    tag_740:\n        /* \"contracts/reference.sol\":20285:20300  uniswapV2Router */\n      sload(0x25)\n        /* \"contracts/reference.sol\":20494:20506  _lpRecipient */\n      0x24\n      dup1\n      sload\n        /* \"contracts/reference.sol\":20285:20549  uniswapV2Router.addLiquidityETH{value: ethAmount}(... */\n      mload(0x40)\n      shl(0xe0, 0xf305d719)\n      dup2\n      mstore\n        /* \"contracts/reference.sol\":20358:20362  this */\n      address\n        /* \"contracts/reference.sol\":20285:20549  uniswapV2Router.addLiquidityETH{value: ethAmount}(... */\n      0x04\n      dup3\n      add\n        /* \"#utility.yul\":5249:5283   */\n      mstore\n        /* \"#utility.yul\":5299:5317   */\n      swap2\n      dup3\n      add\n        /* \"#utility.yul\":5292:5326   */\n      dup6\n      swap1\n      mstore\n        /* \"contracts/reference.sol\":20285:20300  uniswapV2Router */\n      0x00\n        /* \"#utility.yul\":5342:5360   */\n      0x44\n      dup4\n      add\n        /* \"#utility.yul\":5335:5369   */\n      dup2\n      swap1\n      mstore\n        /* \"#utility.yul\":5385:5403   */\n      0x64\n      dup4\n      add\n        /* \"#utility.yul\":5378:5412   */\n      mstore\n      sub(shl(0xa0, 0x01), 0x01)\n        /* \"contracts/reference.sol\":20494:20506  _lpRecipient */\n      swap1\n      dup2\n      and\n        /* \"#utility.yul\":5428:5447   */\n      0x84\n      dup4\n      add\n        /* \"#utility.yul\":5421:5465   */\n      mstore\n        /* \"contracts/reference.sol\":20522:20537  block.timestamp */\n      timestamp\n        /* \"#utility.yul\":5481:5500   */\n      0xa4\n      dup4\n      add\n        /* \"#utility.yul\":5474:5509   */\n      mstore\n        /* \"contracts/reference.sol\":20285:20300  uniswapV2Router */\n      swap1\n      swap2\n      and\n      swap1\n        /* \"contracts/reference.sol\":20285:20316  uniswapV2Router.addLiquidityETH */\n      0xf305d719\n      swap1\n        /* \"contracts/reference.sol\":20324:20333  ethAmount */\n      dup4\n      swap1\n        /* \"#utility.yul\":5183:5202   */\n      0xc4\n      add\n        /* \"contracts/reference.sol\":20285:20549  uniswapV2Router.addLiquidityETH{value: ethAmount}(... */\n      0x60\n      mload(0x40)\n      dup1\n      dup4\n      sub\n      dup2\n      dup6\n      dup9\n      dup1\n      extcodesize\n      iszero\n      dup1\n      iszero\n      tag_743\n      jumpi\n      0x00\n      dup1\n      revert\n    tag_743:\n      pop\n      gas\n      call\n      iszero\n      dup1\n      iszero\n      tag_745\n      jumpi\n      returndatasize\n      0x00\n      dup1\n      returndatacopy\n      revert(0x00, returndatasize)\n    tag_745:\n      pop\n      pop\n      pop\n      pop\n      pop\n      mload(0x40)\n      returndatasize\n      not(0x1f)\n      0x1f\n      dup3\n      add\n      and\n      dup3\n      add\n      dup1\n      0x40\n      mstore\n      pop\n      dup2\n      add\n      swap1\n      tag_724\n      swap2\n      swap1\n      tag_747\n      jump\t// in\n        /* \"contracts/reference.sol\":23206:25053  function _transferStandard(address sender, address recipient, uint256 amount) private {... */\n    tag_732:\n        /* \"contracts/reference.sol\":23302:23326  FeeBreakdown memory fees */\n      tag_750\n      mload(0x40)\n      dup1\n      0xa0\n      add\n      0x40\n      mstore\n      dup1\n      0x00\n      dup2\n      mstore\n      0x20\n      add\n      0x00\n      dup2\n      mstore\n      0x20\n      add\n      0x00\n      dup2\n      mstore\n      0x20\n      add\n      0x00\n      dup2\n      mstore\n      0x20\n      add\n      0x00\n      dup2\n      mstore\n      pop\n      swap1\n      jump\n    tag_750:\n        /* \"contracts/reference.sol\":23350:23363  uniswapV2Pair */\n      sload(0x26)\n      sub(shl(0xa0, 0x01), 0x01)\n        /* \"contracts/reference.sol\":23340:23363  sender == uniswapV2Pair */\n      dup6\n      dup2\n      and\n        /* \"contracts/reference.sol\":23350:23363  uniswapV2Pair */\n      swap2\n      and\n        /* \"contracts/reference.sol\":23340:23363  sender == uniswapV2Pair */\n      eq\n        /* \"contracts/reference.sol\":23340:23404  sender == uniswapV2Pair && recipient != address(uniswapV2Router) */\n      dup1\n      iszero\n      tag_752\n      jumpi\n      pop\n        /* \"contracts/reference.sol\":23388:23403  uniswapV2Router */\n      sload(0x25)\n      sub(shl(0xa0, 0x01), 0x01)\n        /* \"contracts/reference.sol\":23367:23404  recipient != address(uniswapV2Router) */\n      dup5\n      dup2\n      and\n        /* \"contracts/reference.sol\":23388:23403  uniswapV2Router */\n      swap2\n      and\n        /* \"contracts/reference.sol\":23367:23404  recipient != address(uniswapV2Router) */\n      eq\n      iszero\n        /* \"contracts/reference.sol\":23340:23404  sender == uniswapV2Pair && recipient != address(uniswapV2Router) */\n    tag_752:\n        /* \"contracts/reference.sol\":23336:23693  if (sender == uniswapV2Pair && recipient != address(uniswapV2Router)) {//buys... */\n      iszero\n      tag_753\n      jumpi\n        /* \"contracts/reference.sol\":23444:23482  amount.mul(_buyMarketingFee).div(1000) */\n      tag_754\n        /* \"contracts/reference.sol\":23477:23481  1000 */\n      0x03e8\n        /* \"contracts/reference.sol\":23444:23472  amount.mul(_buyMarketingFee) */\n      tag_441\n        /* \"contracts/reference.sol\":23455:23471  _buyMarketingFee */\n      sload(0x0d)\n        /* \"contracts/reference.sol\":23444:23450  amount */\n      dup6\n        /* \"contracts/reference.sol\":23444:23454  amount.mul */\n      tag_442\n      swap1\n        /* \"contracts/reference.sol\":23444:23472  amount.mul(_buyMarketingFee) */\n      swap2\n      swap1\n      0xffffffff\n      and\n      jump\t// in\n        /* \"contracts/reference.sol\":23444:23482  amount.mul(_buyMarketingFee).div(1000) */\n    tag_754:\n        /* \"contracts/reference.sol\":23426:23441  fees.tMarketing */\n      0x20\n      dup3\n      add\n        /* \"contracts/reference.sol\":23426:23482  fees.tMarketing = amount.mul(_buyMarketingFee).div(1000) */\n      mstore\n        /* \"contracts/reference.sol\":23525:23541  _buyLiquidityFee */\n      sload(0x09)\n        /* \"contracts/reference.sol\":23514:23552  amount.mul(_buyLiquidityFee).div(1000) */\n      tag_756\n      swap1\n        /* \"contracts/reference.sol\":23547:23551  1000 */\n      0x03e8\n      swap1\n        /* \"contracts/reference.sol\":23514:23542  amount.mul(_buyLiquidityFee) */\n      tag_441\n      swap1\n        /* \"contracts/reference.sol\":23514:23520  amount */\n      dup6\n      swap1\n        /* \"contracts/reference.sol\":23514:23524  amount.mul */\n      tag_442\n        /* \"contracts/reference.sol\":23514:23542  amount.mul(_buyLiquidityFee) */\n      jump\t// in\n        /* \"contracts/reference.sol\":23514:23552  amount.mul(_buyLiquidityFee).div(1000) */\n    tag_756:\n        /* \"contracts/reference.sol\":23496:23552  fees.tLiquidity = amount.mul(_buyLiquidityFee).div(1000) */\n      dup2\n      mstore\n        /* \"contracts/reference.sol\":23590:23601  _buyTeamFee */\n      sload(0x0f)\n        /* \"contracts/reference.sol\":23579:23612  amount.mul(_buyTeamFee).div(1000) */\n      tag_758\n      swap1\n        /* \"contracts/reference.sol\":23607:23611  1000 */\n      0x03e8\n      swap1\n        /* \"contracts/reference.sol\":23579:23602  amount.mul(_buyTeamFee) */\n      tag_441\n      swap1\n        /* \"contracts/reference.sol\":23579:23585  amount */\n      dup6\n      swap1\n        /* \"contracts/reference.sol\":23579:23589  amount.mul */\n      tag_442\n        /* \"contracts/reference.sol\":23579:23602  amount.mul(_buyTeamFee) */\n      jump\t// in\n        /* \"contracts/reference.sol\":23579:23612  amount.mul(_buyTeamFee).div(1000) */\n    tag_758:\n        /* \"contracts/reference.sol\":23566:23576  fees.tTeam */\n      0x40\n      dup3\n      add\n        /* \"contracts/reference.sol\":23566:23612  fees.tTeam = amount.mul(_buyTeamFee).div(1000) */\n      mstore\n        /* \"contracts/reference.sol\":23655:23671  _buyEcosystemFee */\n      sload(0x0b)\n        /* \"contracts/reference.sol\":23644:23682  amount.mul(_buyEcosystemFee).div(1000) */\n      tag_760\n      swap1\n        /* \"contracts/reference.sol\":23677:23681  1000 */\n      0x03e8\n      swap1\n        /* \"contracts/reference.sol\":23644:23672  amount.mul(_buyEcosystemFee) */\n      tag_441\n      swap1\n        /* \"contracts/reference.sol\":23644:23650  amount */\n      dup6\n      swap1\n        /* \"contracts/reference.sol\":23644:23654  amount.mul */\n      tag_442\n        /* \"contracts/reference.sol\":23644:23672  amount.mul(_buyEcosystemFee) */\n      jump\t// in\n        /* \"contracts/reference.sol\":23644:23682  amount.mul(_buyEcosystemFee).div(1000) */\n    tag_760:\n        /* \"contracts/reference.sol\":23626:23641  fees.tEcosystem */\n      0x60\n      dup3\n      add\n        /* \"contracts/reference.sol\":23626:23682  fees.tEcosystem = amount.mul(_buyEcosystemFee).div(1000) */\n      mstore\n        /* \"contracts/reference.sol\":23336:23693  if (sender == uniswapV2Pair && recipient != address(uniswapV2Router)) {//buys... */\n    tag_753:\n        /* \"contracts/reference.sol\":23716:23729  uniswapV2Pair */\n      sload(0x26)\n      sub(shl(0xa0, 0x01), 0x01)\n        /* \"contracts/reference.sol\":23706:23729  sender != uniswapV2Pair */\n      dup6\n      dup2\n      and\n        /* \"contracts/reference.sol\":23716:23729  uniswapV2Pair */\n      swap2\n      and\n        /* \"contracts/reference.sol\":23706:23729  sender != uniswapV2Pair */\n      eq\n      dup1\n      iszero\n      swap1\n        /* \"contracts/reference.sol\":23706:23759  sender != uniswapV2Pair && recipient == uniswapV2Pair */\n      tag_762\n      jumpi\n      pop\n        /* \"contracts/reference.sol\":23746:23759  uniswapV2Pair */\n      sload(0x26)\n      sub(shl(0xa0, 0x01), 0x01)\n        /* \"contracts/reference.sol\":23733:23759  recipient == uniswapV2Pair */\n      dup5\n      dup2\n      and\n        /* \"contracts/reference.sol\":23746:23759  uniswapV2Pair */\n      swap2\n      and\n        /* \"contracts/reference.sol\":23733:23759  recipient == uniswapV2Pair */\n      eq\n        /* \"contracts/reference.sol\":23706:23759  sender != uniswapV2Pair && recipient == uniswapV2Pair */\n    tag_762:\n        /* \"contracts/reference.sol\":23702:24053  if (sender != uniswapV2Pair && recipient == uniswapV2Pair) {//sells... */\n      iszero\n      tag_763\n      jumpi\n        /* \"contracts/reference.sol\":23800:23839  amount.mul(_sellMarketingFee).div(1000) */\n      tag_764\n        /* \"contracts/reference.sol\":23834:23838  1000 */\n      0x03e8\n        /* \"contracts/reference.sol\":23800:23829  amount.mul(_sellMarketingFee) */\n      tag_441\n        /* \"contracts/reference.sol\":23811:23828  _sellMarketingFee */\n      sload(0x15)\n        /* \"contracts/reference.sol\":23800:23806  amount */\n      dup6\n        /* \"contracts/reference.sol\":23800:23810  amount.mul */\n      tag_442\n      swap1\n        /* \"contracts/reference.sol\":23800:23829  amount.mul(_sellMarketingFee) */\n      swap2\n      swap1\n      0xffffffff\n      and\n      jump\t// in\n        /* \"contracts/reference.sol\":23800:23839  amount.mul(_sellMarketingFee).div(1000) */\n    tag_764:\n        /* \"contracts/reference.sol\":23782:23797  fees.tMarketing */\n      0x20\n      dup3\n      add\n        /* \"contracts/reference.sol\":23782:23839  fees.tMarketing = amount.mul(_sellMarketingFee).div(1000) */\n      mstore\n        /* \"contracts/reference.sol\":23882:23899  _sellLiquidityFee */\n      sload(0x11)\n        /* \"contracts/reference.sol\":23871:23910  amount.mul(_sellLiquidityFee).div(1000) */\n      tag_766\n      swap1\n        /* \"contracts/reference.sol\":23905:23909  1000 */\n      0x03e8\n      swap1\n        /* \"contracts/reference.sol\":23871:23900  amount.mul(_sellLiquidityFee) */\n      tag_441\n      swap1\n        /* \"contracts/reference.sol\":23871:23877  amount */\n      dup6\n      swap1\n        /* \"contracts/reference.sol\":23871:23881  amount.mul */\n      tag_442\n        /* \"contracts/reference.sol\":23871:23900  amount.mul(_sellLiquidityFee) */\n      jump\t// in\n        /* \"contracts/reference.sol\":23871:23910  amount.mul(_sellLiquidityFee).div(1000) */\n    tag_766:\n        /* \"contracts/reference.sol\":23853:23910  fees.tLiquidity = amount.mul(_sellLiquidityFee).div(1000) */\n      dup2\n      mstore\n        /* \"contracts/reference.sol\":23948:23960  _sellTeamFee */\n      sload(0x17)\n        /* \"contracts/reference.sol\":23937:23971  amount.mul(_sellTeamFee).div(1000) */\n      tag_768\n      swap1\n        /* \"contracts/reference.sol\":23966:23970  1000 */\n      0x03e8\n      swap1\n        /* \"contracts/reference.sol\":23937:23961  amount.mul(_sellTeamFee) */\n      tag_441\n      swap1\n        /* \"contracts/reference.sol\":23937:23943  amount */\n      dup6\n      swap1\n        /* \"contracts/reference.sol\":23937:23947  amount.mul */\n      tag_442\n        /* \"contracts/reference.sol\":23937:23961  amount.mul(_sellTeamFee) */\n      jump\t// in\n        /* \"contracts/reference.sol\":23937:23971  amount.mul(_sellTeamFee).div(1000) */\n    tag_768:\n        /* \"contracts/reference.sol\":23924:23934  fees.tTeam */\n      0x40\n      dup3\n      add\n        /* \"contracts/reference.sol\":23924:23971  fees.tTeam = amount.mul(_sellTeamFee).div(1000) */\n      mstore\n        /* \"contracts/reference.sol\":24014:24031  _sellEcosystemFee */\n      sload(0x13)\n        /* \"contracts/reference.sol\":24003:24042  amount.mul(_sellEcosystemFee).div(1000) */\n      tag_770\n      swap1\n        /* \"contracts/reference.sol\":24037:24041  1000 */\n      0x03e8\n      swap1\n        /* \"contracts/reference.sol\":24003:24032  amount.mul(_sellEcosystemFee) */\n      tag_441\n      swap1\n        /* \"contracts/reference.sol\":24003:24009  amount */\n      dup6\n      swap1\n        /* \"contracts/reference.sol\":24003:24013  amount.mul */\n      tag_442\n        /* \"contracts/reference.sol\":24003:24032  amount.mul(_sellEcosystemFee) */\n      jump\t// in\n        /* \"contracts/reference.sol\":24003:24042  amount.mul(_sellEcosystemFee).div(1000) */\n    tag_770:\n        /* \"contracts/reference.sol\":23985:24000  fees.tEcosystem */\n      0x60\n      dup3\n      add\n        /* \"contracts/reference.sol\":23985:24042  fees.tEcosystem = amount.mul(_sellEcosystemFee).div(1000) */\n      mstore\n        /* \"contracts/reference.sol\":23702:24053  if (sender != uniswapV2Pair && recipient == uniswapV2Pair) {//sells... */\n    tag_763:\n        /* \"contracts/reference.sol\":24076:24089  uniswapV2Pair */\n      sload(0x26)\n      sub(shl(0xa0, 0x01), 0x01)\n        /* \"contracts/reference.sol\":24066:24089  sender != uniswapV2Pair */\n      dup6\n      dup2\n      and\n        /* \"contracts/reference.sol\":24076:24089  uniswapV2Pair */\n      swap2\n      and\n        /* \"contracts/reference.sol\":24066:24089  sender != uniswapV2Pair */\n      eq\n      dup1\n      iszero\n      swap1\n        /* \"contracts/reference.sol\":24066:24119  sender != uniswapV2Pair && recipient != uniswapV2Pair */\n      tag_772\n      jumpi\n      pop\n        /* \"contracts/reference.sol\":24106:24119  uniswapV2Pair */\n      sload(0x26)\n      sub(shl(0xa0, 0x01), 0x01)\n        /* \"contracts/reference.sol\":24093:24119  recipient != uniswapV2Pair */\n      dup5\n      dup2\n      and\n        /* \"contracts/reference.sol\":24106:24119  uniswapV2Pair */\n      swap2\n      and\n        /* \"contracts/reference.sol\":24093:24119  recipient != uniswapV2Pair */\n      eq\n      iszero\n        /* \"contracts/reference.sol\":24066:24119  sender != uniswapV2Pair && recipient != uniswapV2Pair */\n    tag_772:\n        /* \"contracts/reference.sol\":24062:24584  if (sender != uniswapV2Pair && recipient != uniswapV2Pair) {//transfer... */\n      iszero\n      tag_773\n      jumpi\n        /* \"contracts/reference.sol\":24163:24244  (amount.mul(_sellMarketingFee).div(1000)).mul(transferFeeIncreaseFactor).div(100) */\n      tag_774\n        /* \"contracts/reference.sol\":24240:24243  100 */\n      0x64\n        /* \"contracts/reference.sol\":24163:24235  (amount.mul(_sellMarketingFee).div(1000)).mul(transferFeeIncreaseFactor) */\n      tag_441\n        /* \"contracts/reference.sol\":24209:24234  transferFeeIncreaseFactor */\n      sload(0x19)\n        /* \"contracts/reference.sol\":24164:24203  amount.mul(_sellMarketingFee).div(1000) */\n      tag_776\n        /* \"contracts/reference.sol\":24198:24202  1000 */\n      0x03e8\n        /* \"contracts/reference.sol\":24164:24193  amount.mul(_sellMarketingFee) */\n      tag_441\n        /* \"contracts/reference.sol\":24175:24192  _sellMarketingFee */\n      sload(0x15)\n        /* \"contracts/reference.sol\":24164:24170  amount */\n      dup10\n        /* \"contracts/reference.sol\":24164:24174  amount.mul */\n      tag_442\n      swap1\n        /* \"contracts/reference.sol\":24164:24193  amount.mul(_sellMarketingFee) */\n      swap2\n      swap1\n      0xffffffff\n      and\n      jump\t// in\n        /* \"contracts/reference.sol\":24164:24203  amount.mul(_sellMarketingFee).div(1000) */\n    tag_776:\n        /* \"contracts/reference.sol\":24163:24208  (amount.mul(_sellMarketingFee).div(1000)).mul */\n      swap1\n      tag_442\n        /* \"contracts/reference.sol\":24163:24235  (amount.mul(_sellMarketingFee).div(1000)).mul(transferFeeIncreaseFactor) */\n      jump\t// in\n        /* \"contracts/reference.sol\":24163:24244  (amount.mul(_sellMarketingFee).div(1000)).mul(transferFeeIncreaseFactor).div(100) */\n    tag_774:\n        /* \"contracts/reference.sol\":24145:24149  fees */\n      dup2\n        /* \"contracts/reference.sol\":24145:24160  fees.tMarketing */\n      0x20\n      add\n        /* \"contracts/reference.sol\":24145:24244  fees.tMarketing = (amount.mul(_sellMarketingFee).div(1000)).mul(transferFeeIncreaseFactor).div(100) */\n      dup2\n      dup2\n      mstore\n      pop\n      pop\n        /* \"contracts/reference.sol\":24276:24357  (amount.mul(_sellLiquidityFee).div(1000)).mul(transferFeeIncreaseFactor).div(100) */\n      tag_778\n        /* \"contracts/reference.sol\":24353:24356  100 */\n      0x64\n        /* \"contracts/reference.sol\":24276:24348  (amount.mul(_sellLiquidityFee).div(1000)).mul(transferFeeIncreaseFactor) */\n      tag_441\n        /* \"contracts/reference.sol\":24322:24347  transferFeeIncreaseFactor */\n      sload(0x19)\n        /* \"contracts/reference.sol\":24277:24316  amount.mul(_sellLiquidityFee).div(1000) */\n      tag_776\n        /* \"contracts/reference.sol\":24311:24315  1000 */\n      0x03e8\n        /* \"contracts/reference.sol\":24277:24306  amount.mul(_sellLiquidityFee) */\n      tag_441\n        /* \"contracts/reference.sol\":24288:24305  _sellLiquidityFee */\n      sload(0x11)\n        /* \"contracts/reference.sol\":24277:24283  amount */\n      dup10\n        /* \"contracts/reference.sol\":24277:24287  amount.mul */\n      tag_442\n      swap1\n        /* \"contracts/reference.sol\":24277:24306  amount.mul(_sellLiquidityFee) */\n      swap2\n      swap1\n      0xffffffff\n      and\n      jump\t// in\n        /* \"contracts/reference.sol\":24276:24357  (amount.mul(_sellLiquidityFee).div(1000)).mul(transferFeeIncreaseFactor).div(100) */\n    tag_778:\n        /* \"contracts/reference.sol\":24258:24357  fees.tLiquidity = (amount.mul(_sellLiquidityFee).div(1000)).mul(transferFeeIncreaseFactor).div(100) */\n      dup2\n      mstore\n        /* \"contracts/reference.sol\":24425:24450  transferFeeIncreaseFactor */\n      sload(0x19)\n        /* \"contracts/reference.sol\":24396:24408  _sellTeamFee */\n      sload(0x17)\n        /* \"contracts/reference.sol\":24384:24460  (amount.mul(_sellTeamFee).div(1000)).mul(transferFeeIncreaseFactor).div(100) */\n      tag_782\n      swap2\n        /* \"contracts/reference.sol\":24456:24459  100 */\n      0x64\n      swap2\n        /* \"contracts/reference.sol\":24384:24451  (amount.mul(_sellTeamFee).div(1000)).mul(transferFeeIncreaseFactor) */\n      tag_441\n      swap2\n        /* \"contracts/reference.sol\":24425:24450  transferFeeIncreaseFactor */\n      swap1\n        /* \"contracts/reference.sol\":24385:24419  amount.mul(_sellTeamFee).div(1000) */\n      tag_776\n      swap1\n        /* \"contracts/reference.sol\":24414:24418  1000 */\n      0x03e8\n      swap1\n        /* \"contracts/reference.sol\":24384:24451  (amount.mul(_sellTeamFee).div(1000)).mul(transferFeeIncreaseFactor) */\n      dup5\n      swap1\n        /* \"contracts/reference.sol\":24385:24391  amount */\n      dup10\n      swap1\n        /* \"contracts/reference.sol\":24385:24395  amount.mul */\n      tag_442\n        /* \"contracts/reference.sol\":24385:24409  amount.mul(_sellTeamFee) */\n      jump\t// in\n        /* \"contracts/reference.sol\":24384:24460  (amount.mul(_sellTeamFee).div(1000)).mul(transferFeeIncreaseFactor).div(100) */\n    tag_782:\n        /* \"contracts/reference.sol\":24371:24375  fees */\n      dup2\n        /* \"contracts/reference.sol\":24371:24381  fees.tTeam */\n      0x40\n      add\n        /* \"contracts/reference.sol\":24371:24460  fees.tTeam = (amount.mul(_sellTeamFee).div(1000)).mul(transferFeeIncreaseFactor).div(100) */\n      dup2\n      dup2\n      mstore\n      pop\n      pop\n        /* \"contracts/reference.sol\":24492:24573  (amount.mul(_sellEcosystemFee).div(1000)).mul(transferFeeIncreaseFactor).div(100) */\n      tag_786\n        /* \"contracts/reference.sol\":24569:24572  100 */\n      0x64\n        /* \"contracts/reference.sol\":24492:24564  (amount.mul(_sellEcosystemFee).div(1000)).mul(transferFeeIncreaseFactor) */\n      tag_441\n        /* \"contracts/reference.sol\":24538:24563  transferFeeIncreaseFactor */\n      sload(0x19)\n        /* \"contracts/reference.sol\":24493:24532  amount.mul(_sellEcosystemFee).div(1000) */\n      tag_776\n        /* \"contracts/reference.sol\":24527:24531  1000 */\n      0x03e8\n        /* \"contracts/reference.sol\":24493:24522  amount.mul(_sellEcosystemFee) */\n      tag_441\n        /* \"contracts/reference.sol\":24504:24521  _sellEcosystemFee */\n      sload(0x13)\n        /* \"contracts/reference.sol\":24493:24499  amount */\n      dup10\n        /* \"contracts/reference.sol\":24493:24503  amount.mul */\n      tag_442\n      swap1\n        /* \"contracts/reference.sol\":24493:24522  amount.mul(_sellEcosystemFee) */\n      swap2\n      swap1\n      0xffffffff\n      and\n      jump\t// in\n        /* \"contracts/reference.sol\":24492:24573  (amount.mul(_sellEcosystemFee).div(1000)).mul(transferFeeIncreaseFactor).div(100) */\n    tag_786:\n        /* \"contracts/reference.sol\":24474:24489  fees.tEcosystem */\n      0x60\n      dup3\n      add\n        /* \"contracts/reference.sol\":24474:24573  fees.tEcosystem = (amount.mul(_sellEcosystemFee).div(1000)).mul(transferFeeIncreaseFactor).div(100) */\n      mstore\n        /* \"contracts/reference.sol\":24062:24584  if (sender != uniswapV2Pair && recipient != uniswapV2Pair) {//transfer... */\n    tag_773:\n        /* \"contracts/reference.sol\":24617:24702  amount.sub(fees.tMarketing).sub(fees.tLiquidity).sub(fees.tTeam).sub(fees.tEcosystem) */\n      tag_790\n        /* \"contracts/reference.sol\":24686:24690  fees */\n      dup2\n        /* \"contracts/reference.sol\":24686:24701  fees.tEcosystem */\n      0x60\n      add\n      mload\n        /* \"contracts/reference.sol\":24617:24681  amount.sub(fees.tMarketing).sub(fees.tLiquidity).sub(fees.tTeam) */\n      tag_690\n        /* \"contracts/reference.sol\":24670:24674  fees */\n      dup4\n        /* \"contracts/reference.sol\":24670:24680  fees.tTeam */\n      0x40\n      add\n      mload\n        /* \"contracts/reference.sol\":24617:24665  amount.sub(fees.tMarketing).sub(fees.tLiquidity) */\n      tag_690\n        /* \"contracts/reference.sol\":24649:24653  fees */\n      dup6\n        /* \"contracts/reference.sol\":24649:24664  fees.tLiquidity */\n      0x00\n      add\n      mload\n        /* \"contracts/reference.sol\":24617:24644  amount.sub(fees.tMarketing) */\n      tag_690\n        /* \"contracts/reference.sol\":24628:24632  fees */\n      dup8\n        /* \"contracts/reference.sol\":24628:24643  fees.tMarketing */\n      0x20\n      add\n      mload\n        /* \"contracts/reference.sol\":24617:24623  amount */\n      dup10\n        /* \"contracts/reference.sol\":24617:24627  amount.sub */\n      tag_456\n      swap1\n        /* \"contracts/reference.sol\":24617:24644  amount.sub(fees.tMarketing) */\n      swap2\n      swap1\n      0xffffffff\n      and\n      jump\t// in\n        /* \"contracts/reference.sol\":24617:24702  amount.sub(fees.tMarketing).sub(fees.tLiquidity).sub(fees.tTeam).sub(fees.tEcosystem) */\n    tag_790:\n        /* \"contracts/reference.sol\":24602:24614  fees.tAmount */\n      0x80\n      dup3\n      add\n        /* \"contracts/reference.sol\":24602:24702  fees.tAmount = amount.sub(fees.tMarketing).sub(fees.tLiquidity).sub(fees.tTeam).sub(fees.tEcosystem) */\n      mstore\n      sub(shl(0xa0, 0x01), 0x01)\n        /* \"contracts/reference.sol\":24741:24758  _balances[sender] */\n      dup5\n      and\n      0x00\n      swap1\n      dup2\n      mstore\n        /* \"contracts/reference.sol\":24741:24750  _balances */\n      0x02\n        /* \"contracts/reference.sol\":24741:24758  _balances[sender] */\n      0x20\n      mstore\n      0x40\n      swap1\n      keccak256\n      sload\n        /* \"contracts/reference.sol\":24741:24770  _balances[sender].sub(amount) */\n      tag_794\n      swap1\n        /* \"contracts/reference.sol\":24763:24769  amount */\n      dup4\n        /* \"contracts/reference.sol\":24741:24762  _balances[sender].sub */\n      tag_456\n        /* \"contracts/reference.sol\":24741:24770  _balances[sender].sub(amount) */\n      jump\t// in\n    tag_794:\n      sub(shl(0xa0, 0x01), 0x01)\n        /* \"contracts/reference.sol\":24721:24738  _balances[sender] */\n      dup1\n      dup7\n      and\n      0x00\n      swap1\n      dup2\n      mstore\n        /* \"contracts/reference.sol\":24721:24730  _balances */\n      0x02\n        /* \"contracts/reference.sol\":24721:24738  _balances[sender] */\n      0x20\n      mstore\n      0x40\n      dup1\n      dup3\n      keccak256\n        /* \"contracts/reference.sol\":24721:24770  _balances[sender] = _balances[sender].sub(amount) */\n      swap4\n      swap1\n      swap4\n      sstore\n        /* \"contracts/reference.sol\":24828:24840  fees.tAmount */\n      0x80\n      dup5\n      add\n      mload\n        /* \"contracts/reference.sol\":24803:24823  _balances[recipient] */\n      swap2\n      dup7\n      and\n      dup2\n      mstore\n      swap2\n      swap1\n      swap2\n      keccak256\n      sload\n        /* \"contracts/reference.sol\":24803:24841  _balances[recipient].add(fees.tAmount) */\n      tag_795\n      swap2\n        /* \"contracts/reference.sol\":24803:24827  _balances[recipient].add */\n      tag_515\n        /* \"contracts/reference.sol\":24803:24841  _balances[recipient].add(fees.tAmount) */\n      jump\t// in\n    tag_795:\n        /* \"contracts/reference.sol\":24780:24789  _balances */\n      0x02\n        /* \"contracts/reference.sol\":24780:24800  _balances[recipient] */\n      0x00\n        /* \"contracts/reference.sol\":24790:24799  recipient */\n      dup6\n      sub(shl(0xa0, 0x01), 0x01)\n        /* \"contracts/reference.sol\":24780:24800  _balances[recipient] */\n      and\n      sub(shl(0xa0, 0x01), 0x01)\n      and\n      dup2\n      mstore\n      0x20\n      add\n      swap1\n      dup2\n      mstore\n      0x20\n      add\n      0x00\n      keccak256\n        /* \"contracts/reference.sol\":24780:24841  _balances[recipient] = _balances[recipient].add(fees.tAmount) */\n      dup2\n      swap1\n      sstore\n      pop\n        /* \"contracts/reference.sol\":24878:24981  _balances[address(this)].add(fees.tMarketing.add(fees.tLiquidity).add(fees.tTeam).add(fees.tEcosystem)) */\n      tag_796\n        /* \"contracts/reference.sol\":24907:24980  fees.tMarketing.add(fees.tLiquidity).add(fees.tTeam).add(fees.tEcosystem) */\n      tag_797\n        /* \"contracts/reference.sol\":24964:24968  fees */\n      dup3\n        /* \"contracts/reference.sol\":24964:24979  fees.tEcosystem */\n      0x60\n      add\n      mload\n        /* \"contracts/reference.sol\":24907:24959  fees.tMarketing.add(fees.tLiquidity).add(fees.tTeam) */\n      tag_514\n        /* \"contracts/reference.sol\":24948:24952  fees */\n      dup5\n        /* \"contracts/reference.sol\":24948:24958  fees.tTeam */\n      0x40\n      add\n      mload\n        /* \"contracts/reference.sol\":24907:24943  fees.tMarketing.add(fees.tLiquidity) */\n      tag_514\n        /* \"contracts/reference.sol\":24927:24931  fees */\n      dup7\n        /* \"contracts/reference.sol\":24927:24942  fees.tLiquidity */\n      0x00\n      add\n      mload\n        /* \"contracts/reference.sol\":24907:24911  fees */\n      dup8\n        /* \"contracts/reference.sol\":24907:24922  fees.tMarketing */\n      0x20\n      add\n      mload\n        /* \"contracts/reference.sol\":24907:24926  fees.tMarketing.add */\n      tag_515\n      swap1\n        /* \"contracts/reference.sol\":24907:24943  fees.tMarketing.add(fees.tLiquidity) */\n      swap2\n      swap1\n      0xffffffff\n      and\n      jump\t// in\n        /* \"contracts/reference.sol\":24907:24980  fees.tMarketing.add(fees.tLiquidity).add(fees.tTeam).add(fees.tEcosystem) */\n    tag_797:\n        /* \"contracts/reference.sol\":24896:24900  this */\n      address\n        /* \"contracts/reference.sol\":24878:24902  _balances[address(this)] */\n      0x00\n      swap1\n      dup2\n      mstore\n        /* \"contracts/reference.sol\":24878:24887  _balances */\n      0x02\n        /* \"contracts/reference.sol\":24878:24902  _balances[address(this)] */\n      0x20\n      mstore\n      0x40\n      swap1\n      keccak256\n      sload\n      swap1\n        /* \"contracts/reference.sol\":24878:24906  _balances[address(this)].add */\n      tag_515\n        /* \"contracts/reference.sol\":24878:24981  _balances[address(this)].add(fees.tMarketing.add(fees.tLiquidity).add(fees.tTeam).add(fees.tEcosystem)) */\n      jump\t// in\n    tag_796:\n        /* \"contracts/reference.sol\":24869:24873  this */\n      address\n        /* \"contracts/reference.sol\":24851:24875  _balances[address(this)] */\n      0x00\n      swap1\n      dup2\n      mstore\n        /* \"contracts/reference.sol\":24851:24860  _balances */\n      0x02\n        /* \"contracts/reference.sol\":24851:24875  _balances[address(this)] */\n      0x20\n      swap1\n      dup2\n      mstore\n      0x40\n      swap2\n      dup3\n      swap1\n      keccak256\n        /* \"contracts/reference.sol\":24851:24981  _balances[address(this)] = _balances[address(this)].add(fees.tMarketing.add(fees.tLiquidity).add(fees.tTeam).add(fees.tEcosystem)) */\n      swap3\n      swap1\n      swap3\n      sstore\n        /* \"contracts/reference.sol\":25033:25045  fees.tAmount */\n      0x80\n      dup4\n      add\n      mload\n        /* \"contracts/reference.sol\":25005:25046  Transfer(sender, recipient, fees.tAmount) */\n      swap1\n      mload\n        /* \"#utility.yul\":15123:15148   */\n      swap1\n      dup2\n      mstore\n      sub(shl(0xa0, 0x01), 0x01)\n        /* \"contracts/reference.sol\":25005:25046  Transfer(sender, recipient, fees.tAmount) */\n      dup6\n      dup2\n      and\n      swap3\n      swap1\n      dup8\n      and\n      swap2\n      0xddf252ad1be2c89b69c2b068fc378daa952ba7f163c4a11628f55a4df523b3ef\n      swap2\n        /* \"#utility.yul\":15096:15114   */\n      add\n        /* \"contracts/reference.sol\":25005:25046  Transfer(sender, recipient, fees.tAmount) */\n      mload(0x40)\n      dup1\n      swap2\n      sub\n      swap1\n      log3\n        /* \"contracts/reference.sol\":23206:25053  function _transferStandard(address sender, address recipient, uint256 amount) private {... */\n      pop\n      pop\n      pop\n      pop\n      jump\t// out\n        /* \"#utility.yul\":14:202   */\n    tag_803:\n        /* \"#utility.yul\":93:106   */\n      dup1\n      mload\n      sub(shl(0x70, 0x01), 0x01)\n        /* \"#utility.yul\":135:177   */\n      dup2\n      and\n        /* \"#utility.yul\":125:178   */\n      dup2\n      eq\n        /* \"#utility.yul\":115:117   */\n      tag_805\n      jumpi\n        /* \"#utility.yul\":192:193   */\n      0x00\n        /* \"#utility.yul\":189:190   */\n      dup1\n        /* \"#utility.yul\":182:194   */\n      revert\n        /* \"#utility.yul\":115:117   */\n    tag_805:\n        /* \"#utility.yul\":74:202   */\n      swap2\n      swap1\n      pop\n      jump\t// out\n        /* \"#utility.yul\":207:464   */\n    tag_128:\n        /* \"#utility.yul\":266:272   */\n      0x00\n        /* \"#utility.yul\":319:321   */\n      0x20\n        /* \"#utility.yul\":307:316   */\n      dup3\n        /* \"#utility.yul\":298:305   */\n      dup5\n        /* \"#utility.yul\":294:317   */\n      sub\n        /* \"#utility.yul\":290:322   */\n      slt\n        /* \"#utility.yul\":287:289   */\n      iszero\n      tag_807\n      jumpi\n        /* \"#utility.yul\":340:346   */\n      dup1\n        /* \"#utility.yul\":332:338   */\n      dup2\n        /* \"#utility.yul\":325:347   */\n      revert\n        /* \"#utility.yul\":287:289   */\n    tag_807:\n        /* \"#utility.yul\":384:393   */\n      dup2\n        /* \"#utility.yul\":371:394   */\n      calldataload\n        /* \"#utility.yul\":403:434   */\n      tag_649\n        /* \"#utility.yul\":428:433   */\n      dup2\n        /* \"#utility.yul\":403:434   */\n      tag_809\n      jump\t// in\n        /* \"#utility.yul\":469:730   */\n    tag_438:\n        /* \"#utility.yul\":539:545   */\n      0x00\n        /* \"#utility.yul\":592:594   */\n      0x20\n        /* \"#utility.yul\":580:589   */\n      dup3\n        /* \"#utility.yul\":571:578   */\n      dup5\n        /* \"#utility.yul\":567:590   */\n      sub\n        /* \"#utility.yul\":563:595   */\n      slt\n        /* \"#utility.yul\":560:562   */\n      iszero\n      tag_811\n      jumpi\n        /* \"#utility.yul\":613:619   */\n      dup1\n        /* \"#utility.yul\":605:611   */\n      dup2\n        /* \"#utility.yul\":598:620   */\n      revert\n        /* \"#utility.yul\":560:562   */\n    tag_811:\n        /* \"#utility.yul\":650:659   */\n      dup2\n        /* \"#utility.yul\":644:660   */\n      mload\n        /* \"#utility.yul\":669:700   */\n      tag_649\n        /* \"#utility.yul\":694:699   */\n      dup2\n        /* \"#utility.yul\":669:700   */\n      tag_809\n      jump\t// in\n        /* \"#utility.yul\":1005:1403   */\n    tag_283:\n        /* \"#utility.yul\":1073:1079   */\n      0x00\n        /* \"#utility.yul\":1081:1087   */\n      dup1\n        /* \"#utility.yul\":1134:1136   */\n      0x40\n        /* \"#utility.yul\":1122:1131   */\n      dup4\n        /* \"#utility.yul\":1113:1120   */\n      dup6\n        /* \"#utility.yul\":1109:1132   */\n      sub\n        /* \"#utility.yul\":1105:1137   */\n      slt\n        /* \"#utility.yul\":1102:1104   */\n      iszero\n      tag_817\n      jumpi\n        /* \"#utility.yul\":1155:1161   */\n      dup1\n        /* \"#utility.yul\":1147:1153   */\n      dup2\n        /* \"#utility.yul\":1140:1162   */\n      revert\n        /* \"#utility.yul\":1102:1104   */\n    tag_817:\n        /* \"#utility.yul\":1199:1208   */\n      dup3\n        /* \"#utility.yul\":1186:1209   */\n      calldataload\n        /* \"#utility.yul\":1218:1249   */\n      tag_818\n        /* \"#utility.yul\":1243:1248   */\n      dup2\n        /* \"#utility.yul\":1218:1249   */\n      tag_809\n      jump\t// in\n    tag_818:\n        /* \"#utility.yul\":1268:1273   */\n      swap2\n      pop\n        /* \"#utility.yul\":1325:1327   */\n      0x20\n        /* \"#utility.yul\":1310:1328   */\n      dup4\n      add\n        /* \"#utility.yul\":1297:1329   */\n      calldataload\n        /* \"#utility.yul\":1338:1371   */\n      tag_819\n        /* \"#utility.yul\":1297:1329   */\n      dup2\n        /* \"#utility.yul\":1338:1371   */\n      tag_809\n      jump\t// in\n    tag_819:\n        /* \"#utility.yul\":1390:1397   */\n      dup1\n        /* \"#utility.yul\":1380:1397   */\n      swap2\n      pop\n      pop\n        /* \"#utility.yul\":1092:1403   */\n      swap3\n      pop\n      swap3\n      swap1\n      pop\n      jump\t// out\n        /* \"#utility.yul\":1408:1874   */\n    tag_109:\n        /* \"#utility.yul\":1485:1491   */\n      0x00\n        /* \"#utility.yul\":1493:1499   */\n      dup1\n        /* \"#utility.yul\":1501:1507   */\n      0x00\n        /* \"#utility.yul\":1554:1556   */\n      0x60\n        /* \"#utility.yul\":1542:1551   */\n      dup5\n        /* \"#utility.yul\":1533:1540   */\n      dup7\n        /* \"#utility.yul\":1529:1552   */\n      sub\n        /* \"#utility.yul\":1525:1557   */\n      slt\n        /* \"#utility.yul\":1522:1524   */\n      iszero\n      tag_821\n      jumpi\n        /* \"#utility.yul\":1575:1581   */\n      dup1\n        /* \"#utility.yul\":1567:1573   */\n      dup2\n        /* \"#utility.yul\":1560:1582   */\n      revert\n        /* \"#utility.yul\":1522:1524   */\n    tag_821:\n        /* \"#utility.yul\":1619:1628   */\n      dup4\n        /* \"#utility.yul\":1606:1629   */\n      calldataload\n        /* \"#utility.yul\":1638:1669   */\n      tag_822\n        /* \"#utility.yul\":1663:1668   */\n      dup2\n        /* \"#utility.yul\":1638:1669   */\n      tag_809\n      jump\t// in\n    tag_822:\n        /* \"#utility.yul\":1688:1693   */\n      swap3\n      pop\n        /* \"#utility.yul\":1745:1747   */\n      0x20\n        /* \"#utility.yul\":1730:1748   */\n      dup5\n      add\n        /* \"#utility.yul\":1717:1749   */\n      calldataload\n        /* \"#utility.yul\":1758:1791   */\n      tag_823\n        /* \"#utility.yul\":1717:1749   */\n      dup2\n        /* \"#utility.yul\":1758:1791   */\n      tag_809\n      jump\t// in\n    tag_823:\n        /* \"#utility.yul\":1512:1874   */\n      swap3\n      swap6\n        /* \"#utility.yul\":1810:1817   */\n      swap3\n      swap5\n      pop\n      pop\n      pop\n        /* \"#utility.yul\":1864:1866   */\n      0x40\n        /* \"#utility.yul\":1849:1867   */\n      swap2\n      swap1\n      swap2\n      add\n        /* \"#utility.yul\":1836:1868   */\n      calldataload\n      swap1\n        /* \"#utility.yul\":1512:1874   */\n      jump\t// out\n        /* \"#utility.yul\":1879:2204   */\n    tag_89:\n        /* \"#utility.yul\":1947:1953   */\n      0x00\n        /* \"#utility.yul\":1955:1961   */\n      dup1\n        /* \"#utility.yul\":2008:2010   */\n      0x40\n        /* \"#utility.yul\":1996:2005   */\n      dup4\n        /* \"#utility.yul\":1987:1994   */\n      dup6\n        /* \"#utility.yul\":1983:2006   */\n      sub\n        /* \"#utility.yul\":1979:2011   */\n      slt\n        /* \"#utility.yul\":1976:1978   */\n      iszero\n      tag_825\n      jumpi\n        /* \"#utility.yul\":2029:2035   */\n      dup2\n        /* \"#utility.yul\":2021:2027   */\n      dup3\n        /* \"#utility.yul\":2014:2036   */\n      revert\n        /* \"#utility.yul\":1976:1978   */\n    tag_825:\n        /* \"#utility.yul\":2073:2082   */\n      dup3\n        /* \"#utility.yul\":2060:2083   */\n      calldataload\n        /* \"#utility.yul\":2092:2123   */\n      tag_826\n        /* \"#utility.yul\":2117:2122   */\n      dup2\n        /* \"#utility.yul\":2092:2123   */\n      tag_809\n      jump\t// in\n    tag_826:\n        /* \"#utility.yul\":2142:2147   */\n      swap5\n        /* \"#utility.yul\":2194:2196   */\n      0x20\n        /* \"#utility.yul\":2179:2197   */\n      swap4\n      swap1\n      swap4\n      add\n        /* \"#utility.yul\":2166:2198   */\n      calldataload\n      swap4\n      pop\n      pop\n      pop\n        /* \"#utility.yul\":1966:2204   */\n      jump\t// out\n        /* \"#utility.yul\":2209:2464   */\n    tag_372:\n        /* \"#utility.yul\":2276:2282   */\n      0x00\n        /* \"#utility.yul\":2329:2331   */\n      0x20\n        /* \"#utility.yul\":2317:2326   */\n      dup3\n        /* \"#utility.yul\":2308:2315   */\n      dup5\n        /* \"#utility.yul\":2304:2327   */\n      sub\n        /* \"#utility.yul\":2300:2332   */\n      slt\n        /* \"#utility.yul\":2297:2299   */\n      iszero\n      tag_828\n      jumpi\n        /* \"#utility.yul\":2350:2356   */\n      dup1\n        /* \"#utility.yul\":2342:2348   */\n      dup2\n        /* \"#utility.yul\":2335:2357   */\n      revert\n        /* \"#utility.yul\":2297:2299   */\n    tag_828:\n        /* \"#utility.yul\":2387:2396   */\n      dup2\n        /* \"#utility.yul\":2381:2397   */\n      mload\n        /* \"#utility.yul\":2406:2434   */\n      tag_649\n        /* \"#utility.yul\":2428:2433   */\n      dup2\n        /* \"#utility.yul\":2406:2434   */\n      tag_830\n      jump\t// in\n        /* \"#utility.yul\":2469:2859   */\n    tag_189:\n        /* \"#utility.yul\":2533:2539   */\n      0x00\n        /* \"#utility.yul\":2541:2547   */\n      dup1\n        /* \"#utility.yul\":2594:2596   */\n      0x40\n        /* \"#utility.yul\":2582:2591   */\n      dup4\n        /* \"#utility.yul\":2573:2580   */\n      dup6\n        /* \"#utility.yul\":2569:2592   */\n      sub\n        /* \"#utility.yul\":2565:2597   */\n      slt\n        /* \"#utility.yul\":2562:2564   */\n      iszero\n      tag_832\n      jumpi\n        /* \"#utility.yul\":2615:2621   */\n      dup2\n        /* \"#utility.yul\":2607:2613   */\n      dup3\n        /* \"#utility.yul\":2600:2622   */\n      revert\n        /* \"#utility.yul\":2562:2564   */\n    tag_832:\n        /* \"#utility.yul\":2659:2668   */\n      dup3\n        /* \"#utility.yul\":2646:2669   */\n      calldataload\n        /* \"#utility.yul\":2678:2706   */\n      tag_833\n        /* \"#utility.yul\":2700:2705   */\n      dup2\n        /* \"#utility.yul\":2678:2706   */\n      tag_830\n      jump\t// in\n    tag_833:\n        /* \"#utility.yul\":2725:2730   */\n      swap2\n      pop\n        /* \"#utility.yul\":2782:2784   */\n      0x20\n        /* \"#utility.yul\":2767:2785   */\n      dup4\n      add\n        /* \"#utility.yul\":2754:2786   */\n      calldataload\n        /* \"#utility.yul\":2795:2827   */\n      tag_819\n        /* \"#utility.yul\":2754:2786   */\n      dup2\n        /* \"#utility.yul\":2795:2827   */\n      tag_835\n      jump\t// in\n        /* \"#utility.yul\":2864:3293   */\n    tag_431:\n        /* \"#utility.yul\":2951:2957   */\n      0x00\n        /* \"#utility.yul\":2959:2965   */\n      dup1\n        /* \"#utility.yul\":2967:2973   */\n      0x00\n        /* \"#utility.yul\":3020:3022   */\n      0x60\n        /* \"#utility.yul\":3008:3017   */\n      dup5\n        /* \"#utility.yul\":2999:3006   */\n      dup7\n        /* \"#utility.yul\":2995:3018   */\n      sub\n        /* \"#utility.yul\":2991:3023   */\n      slt\n        /* \"#utility.yul\":2988:2990   */\n      iszero\n      tag_837\n      jumpi\n        /* \"#utility.yul\":3041:3047   */\n      dup3\n        /* \"#utility.yul\":3033:3039   */\n      dup4\n        /* \"#utility.yul\":3026:3048   */\n      revert\n        /* \"#utility.yul\":2988:2990   */\n    tag_837:\n        /* \"#utility.yul\":3069:3109   */\n      tag_838\n        /* \"#utility.yul\":3099:3108   */\n      dup5\n        /* \"#utility.yul\":3069:3109   */\n      tag_803\n      jump\t// in\n    tag_838:\n        /* \"#utility.yul\":3059:3109   */\n      swap3\n      pop\n        /* \"#utility.yul\":3128:3177   */\n      tag_839\n        /* \"#utility.yul\":3173:3175   */\n      0x20\n        /* \"#utility.yul\":3162:3171   */\n      dup6\n        /* \"#utility.yul\":3158:3176   */\n      add\n        /* \"#utility.yul\":3128:3177   */\n      tag_803\n      jump\t// in\n    tag_839:\n        /* \"#utility.yul\":3118:3177   */\n      swap2\n      pop\n        /* \"#utility.yul\":3220:3222   */\n      0x40\n        /* \"#utility.yul\":3209:3218   */\n      dup5\n        /* \"#utility.yul\":3205:3223   */\n      add\n        /* \"#utility.yul\":3199:3224   */\n      mload\n        /* \"#utility.yul\":3233:3263   */\n      tag_840\n        /* \"#utility.yul\":3257:3262   */\n      dup2\n        /* \"#utility.yul\":3233:3263   */\n      tag_835\n      jump\t// in\n    tag_840:\n        /* \"#utility.yul\":3282:3287   */\n      dup1\n        /* \"#utility.yul\":3272:3287   */\n      swap2\n      pop\n      pop\n        /* \"#utility.yul\":2978:3293   */\n      swap3\n      pop\n      swap3\n      pop\n      swap3\n      jump\t// out\n        /* \"#utility.yul\":3298:3488   */\n    tag_119:\n        /* \"#utility.yul\":3357:3363   */\n      0x00\n        /* \"#utility.yul\":3410:3412   */\n      0x20\n        /* \"#utility.yul\":3398:3407   */\n      dup3\n        /* \"#utility.yul\":3389:3396   */\n      dup5\n        /* \"#utility.yul\":3385:3408   */\n      sub\n        /* \"#utility.yul\":3381:3413   */\n      slt\n        /* \"#utility.yul\":3378:3380   */\n      iszero\n      tag_842\n      jumpi\n        /* \"#utility.yul\":3431:3437   */\n      dup1\n        /* \"#utility.yul\":3423:3429   */\n      dup2\n        /* \"#utility.yul\":3416:3438   */\n      revert\n        /* \"#utility.yul\":3378:3380   */\n    tag_842:\n      pop\n        /* \"#utility.yul\":3459:3482   */\n      calldataload\n      swap2\n        /* \"#utility.yul\":3368:3488   */\n      swap1\n      pop\n      jump\t// out\n        /* \"#utility.yul\":3493:3687   */\n    tag_364:\n        /* \"#utility.yul\":3563:3569   */\n      0x00\n        /* \"#utility.yul\":3616:3618   */\n      0x20\n        /* \"#utility.yul\":3604:3613   */\n      dup3\n        /* \"#utility.yul\":3595:3602   */\n      dup5\n        /* \"#utility.yul\":3591:3614   */\n      sub\n        /* \"#utility.yul\":3587:3619   */\n      slt\n        /* \"#utility.yul\":3584:3586   */\n      iszero\n      tag_844\n      jumpi\n        /* \"#utility.yul\":3637:3643   */\n      dup1\n        /* \"#utility.yul\":3629:3635   */\n      dup2\n        /* \"#utility.yul\":3622:3644   */\n      revert\n        /* \"#utility.yul\":3584:3586   */\n    tag_844:\n      pop\n        /* \"#utility.yul\":3665:3681   */\n      mload\n      swap2\n        /* \"#utility.yul\":3574:3687   */\n      swap1\n      pop\n      jump\t// out\n        /* \"#utility.yul\":3692:4008   */\n    tag_747:\n        /* \"#utility.yul\":3780:3786   */\n      0x00\n        /* \"#utility.yul\":3788:3794   */\n      dup1\n        /* \"#utility.yul\":3796:3802   */\n      0x00\n        /* \"#utility.yul\":3849:3851   */\n      0x60\n        /* \"#utility.yul\":3837:3846   */\n      dup5\n        /* \"#utility.yul\":3828:3835   */\n      dup7\n        /* \"#utility.yul\":3824:3847   */\n      sub\n        /* \"#utility.yul\":3820:3852   */\n      slt\n        /* \"#utility.yul\":3817:3819   */\n      iszero\n      tag_846\n      jumpi\n        /* \"#utility.yul\":3870:3876   */\n      dup3\n        /* \"#utility.yul\":3862:3868   */\n      dup4\n        /* \"#utility.yul\":3855:3877   */\n      revert\n        /* \"#utility.yul\":3817:3819   */\n    tag_846:\n        /* \"#utility.yul\":3904:3913   */\n      dup4\n        /* \"#utility.yul\":3898:3914   */\n      mload\n        /* \"#utility.yul\":3888:3914   */\n      swap3\n      pop\n        /* \"#utility.yul\":3954:3956   */\n      0x20\n        /* \"#utility.yul\":3943:3952   */\n      dup5\n        /* \"#utility.yul\":3939:3957   */\n      add\n        /* \"#utility.yul\":3933:3958   */\n      mload\n        /* \"#utility.yul\":3923:3958   */\n      swap2\n      pop\n        /* \"#utility.yul\":3998:4000   */\n      0x40\n        /* \"#utility.yul\":3987:3996   */\n      dup5\n        /* \"#utility.yul\":3983:4001   */\n      add\n        /* \"#utility.yul\":3977:4002   */\n      mload\n        /* \"#utility.yul\":3967:4002   */\n      swap1\n      pop\n        /* \"#utility.yul\":3807:4008   */\n      swap3\n      pop\n      swap3\n      pop\n      swap3\n      jump\t// out\n        /* \"#utility.yul\":4013:4408   */\n    tag_293:\n        /* \"#utility.yul\":4099:4105   */\n      0x00\n        /* \"#utility.yul\":4107:4113   */\n      dup1\n        /* \"#utility.yul\":4115:4121   */\n      0x00\n        /* \"#utility.yul\":4123:4129   */\n      dup1\n        /* \"#utility.yul\":4176:4179   */\n      0x80\n        /* \"#utility.yul\":4164:4173   */\n      dup6\n        /* \"#utility.yul\":4155:4162   */\n      dup8\n        /* \"#utility.yul\":4151:4174   */\n      sub\n        /* \"#utility.yul\":4147:4180   */\n      slt\n        /* \"#utility.yul\":4144:4146   */\n      iszero\n      tag_848\n      jumpi\n        /* \"#utility.yul\":4198:4204   */\n      dup1\n        /* \"#utility.yul\":4190:4196   */\n      dup2\n        /* \"#utility.yul\":4183:4205   */\n      revert\n        /* \"#utility.yul\":4144:4146   */\n    tag_848:\n      pop\n      pop\n        /* \"#utility.yul\":4226:4249   */\n      dup3\n      calldataload\n      swap5\n        /* \"#utility.yul\":4296:4298   */\n      0x20\n        /* \"#utility.yul\":4281:4299   */\n      dup5\n      add\n        /* \"#utility.yul\":4268:4300   */\n      calldataload\n      swap5\n      pop\n        /* \"#utility.yul\":4347:4349   */\n      0x40\n        /* \"#utility.yul\":4332:4350   */\n      dup5\n      add\n        /* \"#utility.yul\":4319:4351   */\n      calldataload\n      swap4\n        /* \"#utility.yul\":4398:4400   */\n      0x60\n        /* \"#utility.yul\":4383:4401   */\n      add\n        /* \"#utility.yul\":4370:4402   */\n      calldataload\n      swap3\n      pop\n        /* \"#utility.yul\":4134:4408   */\n      swap1\n      pop\n      jump\t// out\n        /* \"#utility.yul\":6489:7092   */\n    tag_85:\n        /* \"#utility.yul\":6601:6605   */\n      0x00\n        /* \"#utility.yul\":6630:6632   */\n      0x20\n        /* \"#utility.yul\":6659:6661   */\n      dup1\n        /* \"#utility.yul\":6648:6657   */\n      dup4\n        /* \"#utility.yul\":6641:6662   */\n      mstore\n        /* \"#utility.yul\":6691:6697   */\n      dup4\n        /* \"#utility.yul\":6685:6698   */\n      mload\n        /* \"#utility.yul\":6734:6740   */\n      dup1\n        /* \"#utility.yul\":6729:6731   */\n      dup3\n        /* \"#utility.yul\":6718:6727   */\n      dup6\n        /* \"#utility.yul\":6714:6732   */\n      add\n        /* \"#utility.yul\":6707:6741   */\n      mstore\n        /* \"#utility.yul\":6759:6763   */\n      dup3\n        /* \"#utility.yul\":6772:6912   */\n    tag_856:\n        /* \"#utility.yul\":6786:6792   */\n      dup2\n        /* \"#utility.yul\":6783:6784   */\n      dup2\n        /* \"#utility.yul\":6780:6793   */\n      lt\n        /* \"#utility.yul\":6772:6912   */\n      iszero\n      tag_858\n      jumpi\n        /* \"#utility.yul\":6881:6895   */\n      dup6\n      dup2\n      add\n        /* \"#utility.yul\":6877:6900   */\n      dup4\n      add\n        /* \"#utility.yul\":6871:6901   */\n      mload\n        /* \"#utility.yul\":6847:6864   */\n      dup6\n      dup3\n      add\n        /* \"#utility.yul\":6866:6868   */\n      0x40\n        /* \"#utility.yul\":6843:6869   */\n      add\n        /* \"#utility.yul\":6836:6902   */\n      mstore\n        /* \"#utility.yul\":6801:6811   */\n      dup3\n      add\n        /* \"#utility.yul\":6772:6912   */\n      jump(tag_856)\n    tag_858:\n        /* \"#utility.yul\":6930:6936   */\n      dup2\n        /* \"#utility.yul\":6927:6928   */\n      dup2\n        /* \"#utility.yul\":6924:6937   */\n      gt\n        /* \"#utility.yul\":6921:6923   */\n      iszero\n      tag_859\n      jumpi\n        /* \"#utility.yul\":7000:7004   */\n      dup4\n        /* \"#utility.yul\":6995:6997   */\n      0x40\n        /* \"#utility.yul\":6986:6992   */\n      dup4\n        /* \"#utility.yul\":6975:6984   */\n      dup8\n        /* \"#utility.yul\":6971:6993   */\n      add\n        /* \"#utility.yul\":6967:6998   */\n      add\n        /* \"#utility.yul\":6960:7005   */\n      mstore\n        /* \"#utility.yul\":6921:6923   */\n    tag_859:\n      pop\n        /* \"#utility.yul\":7076:7078   */\n      0x1f\n        /* \"#utility.yul\":7055:7070   */\n      add\n      not(0x1f)\n        /* \"#utility.yul\":7051:7080   */\n      and\n        /* \"#utility.yul\":7036:7081   */\n      swap3\n      swap1\n      swap3\n      add\n        /* \"#utility.yul\":7083:7085   */\n      0x40\n        /* \"#utility.yul\":7032:7086   */\n      add\n      swap4\n        /* \"#utility.yul\":6610:7092   */\n      swap3\n      pop\n      pop\n      pop\n      jump\t// out\n        /* \"#utility.yul\":11340:11809   */\n    tag_596:\n        /* \"#utility.yul\":11542:11544   */\n      0x20\n        /* \"#utility.yul\":11524:11545   */\n      dup1\n      dup3\n      mstore\n        /* \"#utility.yul\":11581:11583   */\n      0x41\n        /* \"#utility.yul\":11561:11579   */\n      swap1\n      dup3\n      add\n        /* \"#utility.yul\":11554:11584   */\n      mstore\n        /* \"#utility.yul\":11620:11654   */\n      0x77616c6c65742062616c616e6365206166746572207472616e73666572206d75\n        /* \"#utility.yul\":11615:11617   */\n      0x40\n        /* \"#utility.yul\":11600:11618   */\n      dup3\n      add\n        /* \"#utility.yul\":11593:11655   */\n      mstore\n        /* \"#utility.yul\":11691:11725   */\n      0x7374206265206c657373207468616e206d61782077616c6c657420616d6f756e\n        /* \"#utility.yul\":11686:11688   */\n      0x60\n        /* \"#utility.yul\":11671:11689   */\n      dup3\n      add\n        /* \"#utility.yul\":11664:11726   */\n      mstore\n      shl(0xfa, 0x1d)\n        /* \"#utility.yul\":11757:11760   */\n      0x80\n        /* \"#utility.yul\":11742:11761   */\n      dup3\n      add\n        /* \"#utility.yul\":11735:11767   */\n      mstore\n        /* \"#utility.yul\":11799:11802   */\n      0xa0\n        /* \"#utility.yul\":11784:11803   */\n      add\n      swap1\n        /* \"#utility.yul\":11514:11809   */\n      jump\t// out\n        /* \"#utility.yul\":12216:12572   */\n    tag_325:\n        /* \"#utility.yul\":12418:12420   */\n      0x20\n        /* \"#utility.yul\":12400:12421   */\n      dup1\n      dup3\n      mstore\n        /* \"#utility.yul\":12437:12455   */\n      dup2\n      dup2\n      add\n        /* \"#utility.yul\":12430:12460   */\n      mstore\n        /* \"#utility.yul\":12496:12530   */\n      0x4f776e61626c653a2063616c6c6572206973206e6f7420746865206f776e6572\n        /* \"#utility.yul\":12491:12493   */\n      0x40\n        /* \"#utility.yul\":12476:12494   */\n      dup3\n      add\n        /* \"#utility.yul\":12469:12531   */\n      mstore\n        /* \"#utility.yul\":12563:12565   */\n      0x60\n        /* \"#utility.yul\":12548:12566   */\n      add\n      swap1\n        /* \"#utility.yul\":12390:12572   */\n      jump\t// out\n        /* \"#utility.yul\":15159:16142   */\n    tag_674:\n        /* \"#utility.yul\":15421:15425   */\n      0x00\n        /* \"#utility.yul\":15469:15472   */\n      0xa0\n        /* \"#utility.yul\":15458:15467   */\n      dup3\n        /* \"#utility.yul\":15454:15473   */\n      add\n        /* \"#utility.yul\":15500:15506   */\n      dup8\n        /* \"#utility.yul\":15489:15498   */\n      dup4\n        /* \"#utility.yul\":15482:15507   */\n      mstore\n        /* \"#utility.yul\":15526:15528   */\n      0x20\n        /* \"#utility.yul\":15564:15570   */\n      dup8\n        /* \"#utility.yul\":15559:15561   */\n      dup2\n        /* \"#utility.yul\":15548:15557   */\n      dup6\n        /* \"#utility.yul\":15544:15562   */\n      add\n        /* \"#utility.yul\":15537:15571   */\n      mstore\n        /* \"#utility.yul\":15607:15610   */\n      0xa0\n        /* \"#utility.yul\":15602:15604   */\n      0x40\n        /* \"#utility.yul\":15591:15600   */\n      dup6\n        /* \"#utility.yul\":15587:15605   */\n      add\n        /* \"#utility.yul\":15580:15611   */\n      mstore\n        /* \"#utility.yul\":15631:15637   */\n      dup2\n        /* \"#utility.yul\":15666:15672   */\n      dup8\n        /* \"#utility.yul\":15660:15673   */\n      mload\n        /* \"#utility.yul\":15697:15703   */\n      dup1\n        /* \"#utility.yul\":15689:15695   */\n      dup5\n        /* \"#utility.yul\":15682:15704   */\n      mstore\n        /* \"#utility.yul\":15735:15738   */\n      0xc0\n        /* \"#utility.yul\":15724:15733   */\n      dup7\n        /* \"#utility.yul\":15720:15739   */\n      add\n        /* \"#utility.yul\":15713:15739   */\n      swap2\n      pop\n        /* \"#utility.yul\":15774:15776   */\n      dup3\n        /* \"#utility.yul\":15766:15772   */\n      dup10\n        /* \"#utility.yul\":15762:15777   */\n      add\n        /* \"#utility.yul\":15748:15777   */\n      swap4\n      pop\n        /* \"#utility.yul\":15795:15799   */\n      dup5\n        /* \"#utility.yul\":15808:16003   */\n    tag_882:\n        /* \"#utility.yul\":15822:15828   */\n      dup2\n        /* \"#utility.yul\":15819:15820   */\n      dup2\n        /* \"#utility.yul\":15816:15829   */\n      lt\n        /* \"#utility.yul\":15808:16003   */\n      iszero\n      tag_884\n      jumpi\n        /* \"#utility.yul\":15887:15900   */\n      dup5\n      mload\n      sub(shl(0xa0, 0x01), 0x01)\n        /* \"#utility.yul\":15883:15922   */\n      and\n        /* \"#utility.yul\":15871:15923   */\n      dup4\n      mstore\n        /* \"#utility.yul\":15978:15993   */\n      swap4\n      dup4\n      add\n      swap4\n        /* \"#utility.yul\":15943:15955   */\n      swap2\n      dup4\n      add\n      swap2\n        /* \"#utility.yul\":15919:15920   */\n      0x01\n        /* \"#utility.yul\":15837:15846   */\n      add\n        /* \"#utility.yul\":15808:16003   */\n      jump(tag_882)\n    tag_884:\n      pop\n      pop\n      sub(shl(0xa0, 0x01), 0x01)\n        /* \"#utility.yul\":16059:16091   */\n      swap7\n      swap1\n      swap7\n      and\n        /* \"#utility.yul\":16054:16056   */\n      0x60\n        /* \"#utility.yul\":16039:16057   */\n      dup6\n      add\n        /* \"#utility.yul\":16032:16092   */\n      mstore\n      pop\n      pop\n      pop\n        /* \"#utility.yul\":16123:16126   */\n      0x80\n        /* \"#utility.yul\":16108:16127   */\n      add\n        /* \"#utility.yul\":16101:16136   */\n      mstore\n        /* \"#utility.yul\":16020:16023   */\n      swap4\n        /* \"#utility.yul\":15430:16142   */\n      swap3\n      pop\n      pop\n      pop\n      jump\t// out\n        /* \"#utility.yul\":16732:16860   */\n    tag_607:\n        /* \"#utility.yul\":16772:16775   */\n      0x00\n        /* \"#utility.yul\":16803:16804   */\n      dup3\n        /* \"#utility.yul\":16799:16805   */\n      not\n        /* \"#utility.yul\":16796:16797   */\n      dup3\n        /* \"#utility.yul\":16793:16806   */\n      gt\n        /* \"#utility.yul\":16790:16792   */\n      iszero\n      tag_889\n      jumpi\n        /* \"#utility.yul\":16809:16827   */\n      tag_889\n      tag_890\n      jump\t// in\n    tag_889:\n      pop\n        /* \"#utility.yul\":16845:16854   */\n      add\n      swap1\n        /* \"#utility.yul\":16780:16860   */\n      jump\t// out\n        /* \"#utility.yul\":16865:16985   */\n    tag_656:\n        /* \"#utility.yul\":16905:16906   */\n      0x00\n        /* \"#utility.yul\":16931:16932   */\n      dup3\n        /* \"#utility.yul\":16921:16923   */\n      tag_893\n      jumpi\n        /* \"#utility.yul\":16936:16954   */\n      tag_893\n      tag_894\n      jump\t// in\n    tag_893:\n      pop\n        /* \"#utility.yul\":16970:16979   */\n      div\n      swap1\n        /* \"#utility.yul\":16911:16985   */\n      jump\t// out\n        /* \"#utility.yul\":16990:17158   */\n    tag_654:\n        /* \"#utility.yul\":17030:17037   */\n      0x00\n        /* \"#utility.yul\":17096:17097   */\n      dup2\n        /* \"#utility.yul\":17092:17093   */\n      0x00\n        /* \"#utility.yul\":17088:17094   */\n      not\n        /* \"#utility.yul\":17084:17098   */\n      div\n        /* \"#utility.yul\":17081:17082   */\n      dup4\n        /* \"#utility.yul\":17078:17099   */\n      gt\n        /* \"#utility.yul\":17073:17074   */\n      dup3\n        /* \"#utility.yul\":17066:17075   */\n      iszero\n        /* \"#utility.yul\":17059:17076   */\n      iszero\n        /* \"#utility.yul\":17055:17100   */\n      and\n        /* \"#utility.yul\":17052:17054   */\n      iszero\n      tag_897\n      jumpi\n        /* \"#utility.yul\":17103:17121   */\n      tag_897\n      tag_890\n      jump\t// in\n    tag_897:\n      pop\n        /* \"#utility.yul\":17143:17152   */\n      mul\n      swap1\n        /* \"#utility.yul\":17042:17158   */\n      jump\t// out\n        /* \"#utility.yul\":17163:17425   */\n    tag_419:\n        /* \"#utility.yul\":17202:17209   */\n      0x00\n        /* \"#utility.yul\":17234:17244   */\n      0xffffffff\n        /* \"#utility.yul\":17271:17273   */\n      dup1\n        /* \"#utility.yul\":17268:17269   */\n      dup4\n        /* \"#utility.yul\":17264:17274   */\n      and\n        /* \"#utility.yul\":17301:17303   */\n      dup2\n        /* \"#utility.yul\":17298:17299   */\n      dup6\n        /* \"#utility.yul\":17294:17304   */\n      and\n        /* \"#utility.yul\":17357:17360   */\n      dup2\n        /* \"#utility.yul\":17353:17355   */\n      dup4\n        /* \"#utility.yul\":17349:17361   */\n      div\n        /* \"#utility.yul\":17344:17347   */\n      dup2\n        /* \"#utility.yul\":17341:17362   */\n      gt\n        /* \"#utility.yul\":17334:17337   */\n      dup3\n        /* \"#utility.yul\":17327:17338   */\n      iszero\n        /* \"#utility.yul\":17320:17339   */\n      iszero\n        /* \"#utility.yul\":17316:17363   */\n      and\n        /* \"#utility.yul\":17313:17315   */\n      iszero\n      tag_900\n      jumpi\n        /* \"#utility.yul\":17366:17384   */\n      tag_900\n      tag_890\n      jump\t// in\n    tag_900:\n        /* \"#utility.yul\":17406:17419   */\n      mul\n      swap5\n        /* \"#utility.yul\":17214:17425   */\n      swap4\n      pop\n      pop\n      pop\n      pop\n      jump\t// out\n        /* \"#utility.yul\":17430:17555   */\n    tag_647:\n        /* \"#utility.yul\":17470:17474   */\n      0x00\n        /* \"#utility.yul\":17498:17499   */\n      dup3\n        /* \"#utility.yul\":17495:17496   */\n      dup3\n        /* \"#utility.yul\":17492:17500   */\n      lt\n        /* \"#utility.yul\":17489:17491   */\n      iszero\n      tag_903\n      jumpi\n        /* \"#utility.yul\":17503:17521   */\n      tag_903\n      tag_890\n      jump\t// in\n    tag_903:\n      pop\n        /* \"#utility.yul\":17540:17549   */\n      sub\n      swap1\n        /* \"#utility.yul\":17479:17555   */\n      jump\t// out\n        /* \"#utility.yul\":17560:17672   */\n    tag_459:\n        /* \"#utility.yul\":17592:17593   */\n      0x00\n        /* \"#utility.yul\":17618:17619   */\n      dup3\n        /* \"#utility.yul\":17608:17610   */\n      tag_906\n      jumpi\n        /* \"#utility.yul\":17623:17641   */\n      tag_906\n      tag_894\n      jump\t// in\n    tag_906:\n      pop\n        /* \"#utility.yul\":17657:17666   */\n      mod\n      swap1\n        /* \"#utility.yul\":17598:17672   */\n      jump\t// out\n        /* \"#utility.yul\":17677:17804   */\n    tag_890:\n        /* \"#utility.yul\":17738:17748   */\n      0x4e487b71\n        /* \"#utility.yul\":17733:17736   */\n      0xe0\n        /* \"#utility.yul\":17729:17749   */\n      shl\n        /* \"#utility.yul\":17726:17727   */\n      0x00\n        /* \"#utility.yul\":17719:17750   */\n      mstore\n        /* \"#utility.yul\":17769:17773   */\n      0x11\n        /* \"#utility.yul\":17766:17767   */\n      0x04\n        /* \"#utility.yul\":17759:17774   */\n      mstore\n        /* \"#utility.yul\":17793:17797   */\n      0x24\n        /* \"#utility.yul\":17790:17791   */\n      0x00\n        /* \"#utility.yul\":17783:17798   */\n      revert\n        /* \"#utility.yul\":17809:17936   */\n    tag_894:\n        /* \"#utility.yul\":17870:17880   */\n      0x4e487b71\n        /* \"#utility.yul\":17865:17868   */\n      0xe0\n        /* \"#utility.yul\":17861:17881   */\n      shl\n        /* \"#utility.yul\":17858:17859   */\n      0x00\n        /* \"#utility.yul\":17851:17882   */\n      mstore\n        /* \"#utility.yul\":17901:17905   */\n      0x12\n        /* \"#utility.yul\":17898:17899   */\n      0x04\n        /* \"#utility.yul\":17891:17906   */\n      mstore\n        /* \"#utility.yul\":17925:17929   */\n      0x24\n        /* \"#utility.yul\":17922:17923   */\n      0x00\n        /* \"#utility.yul\":17915:17930   */\n      revert\n        /* \"#utility.yul\":17941:18072   */\n    tag_809:\n      sub(shl(0xa0, 0x01), 0x01)\n        /* \"#utility.yul\":18016:18047   */\n      dup2\n      and\n        /* \"#utility.yul\":18006:18048   */\n      dup2\n      eq\n        /* \"#utility.yul\":17996:17998   */\n      tag_403\n      jumpi\n        /* \"#utility.yul\":18062:18063   */\n      0x00\n        /* \"#utility.yul\":18059:18060   */\n      dup1\n        /* \"#utility.yul\":18052:18064   */\n      revert\n        /* \"#utility.yul\":18077:18195   */\n    tag_830:\n        /* \"#utility.yul\":18163:18168   */\n      dup1\n        /* \"#utility.yul\":18156:18169   */\n      iszero\n        /* \"#utility.yul\":18149:18170   */\n      iszero\n        /* \"#utility.yul\":18142:18147   */\n      dup2\n        /* \"#utility.yul\":18139:18171   */\n      eq\n        /* \"#utility.yul\":18129:18131   */\n      tag_403\n      jumpi\n        /* \"#utility.yul\":18185:18186   */\n      0x00\n        /* \"#utility.yul\":18182:18183   */\n      dup1\n        /* \"#utility.yul\":18175:18187   */\n      revert\n        /* \"#utility.yul\":18200:18321   */\n    tag_835:\n        /* \"#utility.yul\":18285:18295   */\n      0xffffffff\n        /* \"#utility.yul\":18278:18283   */\n      dup2\n        /* \"#utility.yul\":18274:18296   */\n      and\n        /* \"#utility.yul\":18267:18272   */\n      dup2\n        /* \"#utility.yul\":18264:18297   */\n      eq\n        /* \"#utility.yul\":18254:18256   */\n      tag_403\n      jumpi\n        /* \"#utility.yul\":18311:18312   */\n      0x00\n        /* \"#utility.yul\":18308:18309   */\n      dup1\n        /* \"#utility.yul\":18301:18313   */\n      revert\n    stop\n    data_974d1b4421da69cc60b481194f0dad36a5bb4e23da810da7a7fb30cdba178330 45524332303a207472616e7366657220616d6f756e74206578636565647320616c6c6f77616e6365\n\n    auxdata: 0xa2646970667358221220fc57e276852f112951403513d009406b1b67ebbb47d9537d5ec34db201657b1064736f6c63430008040033\n}\n",
				"bytecode": {
					"linkReferences": {},
					"object": "6080604052662386f2ab5bca0060075566038d7ea4c6800060085560006009819055600a819055600b819055600c819055600d819055600e819055600f8190556010819055601181905560128190556013819055601481905560158190556016819055601781905560188190556019556021805461dead6001600160a01b0319918216811790925560228054821683179055602380548216831790556024805490911690911790556028805464ffffffffff1916640101010000179055348015620000c957600080fd5b50600080546001600160a01b031916339081178255604051909182917f8be0079c531659141344cd1fd0a4f28419497f9722a3daafe3b4186f6b6457e0908290a350602580546001600160a01b0319167310ed43c718714eb63d5aa57b78b54704e256024e908117909155620001493082670de0b6b3a7640000620003fa565b806001600160a01b031663c45a01556040518163ffffffff1660e01b815260040160206040518083038186803b1580156200018357600080fd5b505afa15801562000198573d6000803e3d6000fd5b505050506040513d601f19601f82011682018060405250810190620001be919062000526565b6001600160a01b031663c9c6539630836001600160a01b031663ad5c46486040518163ffffffff1660e01b815260040160206040518083038186803b1580156200020757600080fd5b505afa1580156200021c573d6000803e3d6000fd5b505050506040513d601f19601f8201168201806040525081019062000242919062000526565b6040516001600160e01b031960e085901b1681526001600160a01b03928316600482015291166024820152604401602060405180830381600087803b1580156200028b57600080fd5b505af1158015620002a0573d6000803e3d6000fd5b505050506040513d601f19601f82011682018060405250810190620002c6919062000526565b602680546001600160a01b0319166001600160a01b0392831690811790915560255460405163095ea7b360e01b81529216600483015260001960248301529063095ea7b390604401602060405180830381600087803b1580156200032957600080fd5b505af11580156200033e573d6000803e3d6000fd5b505050506040513d601f19601f8201168201806040525081019062000364919062000556565b50670de0b6b3a76400006027819055600781905533600081815260026020908152604080832085905582546001600160a01b03168352600482528083208054600160ff1991821681179092553085528285208054909116909117905551938452919290917fddf252ad1be2c89b69c2b068fc378daa952ba7f163c4a11628f55a4df523b3ef910160405180910390a35062000578565b6001600160a01b038316620004625760405162461bcd60e51b8152602060048201526024808201527f45524332303a20617070726f76652066726f6d20746865207a65726f206164646044820152637265737360e01b60648201526084015b60405180910390fd5b6001600160a01b038216620004c55760405162461bcd60e51b815260206004820152602260248201527f45524332303a20617070726f766520746f20746865207a65726f206164647265604482015261737360f01b606482015260840162000459565b6001600160a01b0383811660008181526003602090815260408083209487168084529482529182902085905590518481527f8c5be1e5ebec7d5bd14f71427d1e84f3dd0314c0f7b2291e5b200ac8c7c3b925910160405180910390a3505050565b60006020828403121562000538578081fd5b81516001600160a01b03811681146200054f578182fd5b9392505050565b60006020828403121562000568578081fd5b815180151581146200054f578182fd5b6130e880620005886000396000f3fe60806040526004361061036f5760003560e01c806388790a68116101c6578063cab03471116100f7578063e315a6da11610095578063f2fde38b1161006f578063f2fde38b14610a64578063f480fec214610a84578063ffb54a9914610aa4578063ffecf51614610abe57600080fd5b8063e315a6da14610a04578063e4bf1bed14610a24578063ea2f0b3714610a4457600080fd5b8063d55cb78a116100d1578063d55cb78a14610973578063db0045ec14610988578063dc44b6a0146109a8578063dd62ed3e146109be57600080fd5b8063cab034711461091d578063cdb3858f14610933578063d16336491461095357600080fd5b8063a850673d11610164578063c469b6dd1161013e578063c469b6dd14610876578063c5d241891461088c578063c8607952146108a2578063c95457ff146108b857600080fd5b8063a850673d14610821578063a9059cbb14610841578063c3c8cd801461086157600080fd5b80639491f94d116101a05780639491f94d1461078957806395d89b411461079e57806399a7b9bc146107cc5780639d82190f146107e157600080fd5b806388790a68146107405780638da5cb5b146107565780638e3602531461077457600080fd5b806339a53c4e116102a05780636c0a24eb1161023e578063715018a611610218578063715018a6146106b2578063729cb3f2146106c757806372b2aecc146106e7578063787a08a6146106fd57600080fd5b80636c0a24eb146106515780636fc3eaec1461066757806370a082311461067c57600080fd5b8063437823ec1161027a578063437823ec146105c457806349bd5a5e146105e45780635fecd9261461061c5780636aabff3f1461063c57600080fd5b806339a53c4e146105555780633bbac579146105775780633e0f966d146105af57600080fd5b8063248dd2321161030d57806329409395116102e757806329409395146104d8578063301ad558146104f8578063313ce56714610519578063323be1c51461053557600080fd5b8063248dd2321461048c57806327a14fc2146104a25780632843631d146104c257600080fd5b806314eb76ac1161034957806314eb76ac1461040f57806318160ddd146104315780632369bf831461044c57806323b872dd1461046c57600080fd5b806301a6c43b1461037b57806306fdde03146103a4578063095ea7b3146103df57600080fd5b3661037657005b600080fd5b34801561038757600080fd5b5061039160085481565b6040519081526020015b60405180910390f35b3480156103b057600080fd5b506040805180820190915260098152684761696e5a696c6c6160b81b60208201525b60405161039b9190612e28565b3480156103eb57600080fd5b506103ff6103fa366004612ce0565b610ade565b604051901515815260200161039b565b34801561041b57600080fd5b5061042f61042a366004612c30565b610af5565b005b34801561043d57600080fd5b50670de0b6b3a7640000610391565b34801561045857600080fd5b5061042f610467366004612c30565b610b4a565b34801561047857600080fd5b506103ff610487366004612ca0565b610b96565b34801561049857600080fd5b5061039160135481565b3480156104ae57600080fd5b5061042f6104bd366004612d9a565b610bff565b3480156104ce57600080fd5b50610391600b5481565b3480156104e457600080fd5b5061042f6104f3366004612c30565b610d15565b34801561050457600080fd5b506028546103ff906301000000900460ff1681565b34801561052557600080fd5b506040516009815260200161039b565b34801561054157600080fd5b506028546103ff9062010000900460ff1681565b34801561056157600080fd5b506028546103ff90640100000000900460ff1681565b34801561058357600080fd5b506103ff610592366004612c30565b6001600160a01b0316600090815260208052604090205460ff1690565b3480156105bb57600080fd5b5061042f610e61565b3480156105d057600080fd5b5061042f6105df366004612c30565b610eef565b3480156105f057600080fd5b50602654610604906001600160a01b031681565b6040516001600160a01b03909116815260200161039b565b34801561062857600080fd5b5061042f610637366004612c30565b610f3d565b34801561064857600080fd5b5061042f610f87565b34801561065d57600080fd5b5061039160075481565b34801561067357600080fd5b5061042f610fbf565b34801561068857600080fd5b50610391610697366004612c30565b6001600160a01b031660009081526002602052604090205490565b3480156106be57600080fd5b5061042f61102e565b3480156106d357600080fd5b5061042f6106e2366004612d27565b6110a2565b3480156106f357600080fd5b5061039160195481565b34801561070957600080fd5b50601a546107249060ff811690610100900463ffffffff1682565b60408051921515835263ffffffff90911660208301520161039b565b34801561074c57600080fd5b5061039160115481565b34801561076257600080fd5b506000546001600160a01b0316610604565b34801561078057600080fd5b5061042f61110a565b34801561079557600080fd5b50610391611143565b3480156107aa57600080fd5b5060408051808201909152600581526447494c4c4160d81b60208201526103d2565b3480156107d857600080fd5b5061042f6112e2565b3480156107ed57600080fd5b506108016107fc366004612c30565b61131c565b60408051948552602085019390935291830152606082015260800161039b565b34801561082d57600080fd5b5061042f61083c366004612d9a565b6113cb565b34801561084d57600080fd5b506103ff61085c366004612ce0565b6113fa565b34801561086d57600080fd5b5061042f611407565b34801561088257600080fd5b50610391600f5481565b34801561089857600080fd5b50610391600d5481565b3480156108ae57600080fd5b5061039160155481565b3480156108c457600080fd5b50601c54601d54601e54601f546108ee9360ff8082169461010090920461ffff1693919291169085565b60408051951515865261ffff90941660208601529284019190915215156060830152608082015260a00161039b565b34801561092957600080fd5b5061039160175481565b34801561093f57600080fd5b5061042f61094e366004612c30565b611450565b34801561095f57600080fd5b5061042f61096e366004612d9a565b61149c565b34801561097f57600080fd5b5061042f6114dc565b34801561099457600080fd5b5061042f6109a3366004612c30565b611515565b3480156109b457600080fd5b5061039160095481565b3480156109ca57600080fd5b506103916109d9366004612c68565b6001600160a01b03918216600090815260036020908152604080832093909416825291909152205490565b348015610a1057600080fd5b5061042f610a1f366004612d9a565b611561565b348015610a3057600080fd5b5061042f610a3f366004612df7565b611590565b348015610a5057600080fd5b5061042f610a5f366004612c30565b61170c565b348015610a7057600080fd5b5061042f610a7f366004612c30565b611757565b348015610a9057600080fd5b5061042f610a9f366004612df7565b6117ef565b348015610ab057600080fd5b506028546103ff9060ff1681565b348015610aca57600080fd5b5061042f610ad9366004612c30565b61195b565b6000610aeb338484611a12565b5060015b92915050565b6000546001600160a01b03163314610b285760405162461bcd60e51b8152600401610b1f90612ee2565b60405180910390fd5b602280546001600160a01b0319166001600160a01b0392909216919091179055565b6000546001600160a01b03163314610b745760405162461bcd60e51b8152600401610b1f90612ee2565b602180546001600160a01b0319166001600160a01b0392909216919091179055565b6000610ba3848484611b36565b610bf58433610bf08560405180606001604052806028815260200161308b602891396001600160a01b038a16600090815260036020908152604080832033845290915290205491906120e5565b611a12565b5060019392505050565b6000546001600160a01b03163314610c295760405162461bcd60e51b8152600401610b1f90612ee2565b610c3d670de0b6b3a76400006103e861211f565b811015610c9f5760405162461bcd60e51b815260206004820152602a60248201527f416d6f756e74206d7573742062652067726561746572207468616e20302e3125604482015269206f6620737570706c7960b01b6064820152608401610b1f565b670de0b6b3a7640000811115610d105760405162461bcd60e51b815260206004820152603060248201527f416d6f756e74206d757374206265206c657373207468616e206f72206571756160448201526f6c20746f20746f74616c537570706c7960801b6064820152608401610b1f565b600755565b6000546001600160a01b03163314610d3f5760405162461bcd60e51b8152600401610b1f90612ee2565b6040516370a0823160e01b81523060048201526000906001600160a01b038316906370a082319060240160206040518083038186803b158015610d8157600080fd5b505afa158015610d95573d6000803e3d6000fd5b505050506040513d601f19601f82011682018060405250810190610db99190612db2565b9050816001600160a01b031663a9059cbb610ddc6000546001600160a01b031690565b6040516001600160e01b031960e084901b1681526001600160a01b03909116600482015260248101849052604401602060405180830381600087803b158015610e2457600080fd5b505af1158015610e38573d6000803e3d6000fd5b505050506040513d601f19601f82011682018060405250810190610e5c9190612d0b565b505050565b6000546001600160a01b03163314610e8b5760405162461bcd60e51b8152600401610b1f90612ee2565b60285462010000900460ff16610ee35760405162461bcd60e51b815260206004820152601e60248201527f7468697320636f6e74726163742063616e6e6f742062652070617573656400006044820152606401610b1f565b6028805460ff19169055565b6000546001600160a01b03163314610f195760405162461bcd60e51b8152600401610b1f90612ee2565b6001600160a01b03166000908152600460205260409020805460ff19166001179055565b6000546001600160a01b03163314610f675760405162461bcd60e51b8152600401610b1f90612ee2565b6001600160a01b031660009081526020805260409020805460ff19169055565b6000546001600160a01b03163314610fb15760405162461bcd60e51b8152600401610b1f90612ee2565b6028805462ff000019169055565b6000546001600160a01b03163314610fe95760405162461bcd60e51b8152600401610b1f90612ee2565b47801561102b57600080546040516001600160a01b039091169183156108fc02918491818181858888f19350505050158015611029573d6000803e3d6000fd5b505b50565b6000546001600160a01b031633146110585760405162461bcd60e51b8152600401610b1f90612ee2565b600080546040516001600160a01b03909116907f8be0079c531659141344cd1fd0a4f28419497f9722a3daafe3b4186f6b6457e0908390a3600080546001600160a01b0319169055565b6000546001600160a01b031633146110cc5760405162461bcd60e51b8152600401610b1f90612ee2565b601a805460ff19168315151790556110e581603c612fd2565b601a805463ffffffff929092166101000264ffffffff00199092169190911790555050565b6000546001600160a01b031633146111345760405162461bcd60e51b8152600401610b1f90612ee2565b6028805460ff19166001179055565b6000806000602660009054906101000a90046001600160a01b03166001600160a01b0316630902f1ac6040518163ffffffff1660e01b815260040160606040518083038186803b15801561119657600080fd5b505afa1580156111aa573d6000803e3d6000fd5b505050506040513d601f19601f820116820180604052508101906111ce9190612d54565b5091509150816001600160701b0316600014806111f257506001600160701b038116155b156112005760009250505090565b60265460408051630dfe168160e01b8152905130926001600160a01b031691630dfe1681916004808301926020929190829003018186803b15801561124457600080fd5b505afa158015611258573d6000803e3d6000fd5b505050506040513d601f19601f8201168201806040525081019061127c9190612c4c565b6001600160a01b0316146112b8576112b36001600160701b03808316906112ad908516670de0b6b3a7640000612168565b9061211f565b6112db565b6112db6001600160701b03808416906112ad908416670de0b6b3a7640000612168565b9250505090565b6000546001600160a01b0316331461130c5760405162461bcd60e51b8152600401610b1f90612ee2565b6028805464ff0000000019169055565b6001600160a01b0381166000908152601b60205260408120548190819081908190421061134a57600061136d565b6001600160a01b0386166000908152601b602052604090205461136d90426121e7565b905061137c816201518061211f565b945061138b6201518082613015565b905061139981610e1061211f565b93506113a7610e1082613015565b90506113b481603c61211f565b92506113c1603c82613015565b9150509193509193565b6000546001600160a01b031633146113f55760405162461bcd60e51b8152600401610b1f90612ee2565b601955565b6000610aeb338484611b36565b6000546001600160a01b031633146114315760405162461bcd60e51b8152600401610b1f90612ee2565b30600090815260026020526040902054801561102b5761102b81612229565b6000546001600160a01b0316331461147a5760405162461bcd60e51b8152600401610b1f90612ee2565b602480546001600160a01b0319166001600160a01b0392909216919091179055565b6000546001600160a01b031633146114c65760405162461bcd60e51b8152600401610b1f90612ee2565b426005556006556028805460ff19166001179055565b6000546001600160a01b031633146115065760405162461bcd60e51b8152600401610b1f90612ee2565b6028805463ff00000019169055565b6000546001600160a01b0316331461153f5760405162461bcd60e51b8152600401610b1f90612ee2565b602380546001600160a01b0319166001600160a01b0392909216919091179055565b6000546001600160a01b0316331461158b5760405162461bcd60e51b8152600401610b1f90612ee2565b600855565b6000546001600160a01b031633146115ba5760405162461bcd60e51b8152600401610b1f90612ee2565b60006115d2826115cc858189896123c8565b906123c8565b905060fa81111561163f5760405162461bcd60e51b815260206004820152603160248201527f53756d206f66206275792066656573206d757374206265206c657373207468616044820152706e206f7220657175616c20746f2032352560781b6064820152608401610b1f565b602854640100000000900460ff166116945760405162461bcd60e51b8152602060048201526018602482015277151a1a5cc8199d5b98dd1a5bdb881a5cc8191a58589b195960421b6044820152606401610b1f565b600d8590556009849055600f839055600b829055600e859055600a8490556010839055600c8290556040805186815260208101869052908101849052606081018390527f892b2caa2d791bf7b8d9a49c4db7a4513ff1ae2e0e068ed217f9d5ab4c1a28f0906080015b60405180910390a15050505050565b6000546001600160a01b031633146117365760405162461bcd60e51b8152600401610b1f90612ee2565b6001600160a01b03166000908152600460205260409020805460ff19169055565b6000546001600160a01b031633146117815760405162461bcd60e51b8152600401610b1f90612ee2565b6001600160a01b0381166117e65760405162461bcd60e51b815260206004820152602660248201527f4f776e61626c653a206e6577206f776e657220697320746865207a65726f206160448201526564647265737360d01b6064820152608401610b1f565b61102b81612427565b6000546001600160a01b031633146118195760405162461bcd60e51b8152600401610b1f90612ee2565b600061182b826115cc858189896123c8565b905060fa8111156118995760405162461bcd60e51b815260206004820152603260248201527f53756d206f662073656c6c2066656573206d757374206265206c657373207468604482015271616e206f7220657175616c20746f2032352560701b6064820152608401610b1f565b602854640100000000900460ff166118ee5760405162461bcd60e51b8152602060048201526018602482015277151a1a5cc8199d5b98dd1a5bdb881a5cc8191a58589b195960421b6044820152606401610b1f565b601585905560118490556017839055601382905560168590556012849055601883905560148290556040805186815260208101869052908101849052606081018390527f439932620c72dddea29980c098bca1a482729646d1216b226d723c6d278a30d1906080016116fd565b6000546001600160a01b031633146119855760405162461bcd60e51b8152600401610b1f90612ee2565b6028546301000000900460ff166119ef5760405162461bcd60e51b815260206004820152602860248201527f7468697320636f6e74726163742063616e6e6f7420626c61636b6c6973742061604482015267646472657373657360c01b6064820152608401610b1f565b6001600160a01b031660009081526020805260409020805460ff19166001179055565b6001600160a01b038316611a745760405162461bcd60e51b8152602060048201526024808201527f45524332303a20617070726f76652066726f6d20746865207a65726f206164646044820152637265737360e01b6064820152608401610b1f565b6001600160a01b038216611ad55760405162461bcd60e51b815260206004820152602260248201527f45524332303a20617070726f766520746f20746865207a65726f206164647265604482015261737360f01b6064820152608401610b1f565b6001600160a01b0383811660008181526003602090815260408083209487168084529482529182902085905590518481527f8c5be1e5ebec7d5bd14f71427d1e84f3dd0314c0f7b2291e5b200ac8c7c3b925910160405180910390a3505050565b6001600160a01b038316611b9a5760405162461bcd60e51b815260206004820152602560248201527f45524332303a207472616e736665722066726f6d20746865207a65726f206164604482015264647265737360d81b6064820152608401610b1f565b6001600160a01b038216611bfc5760405162461bcd60e51b815260206004820152602360248201527f45524332303a207472616e7366657220746f20746865207a65726f206164647260448201526265737360e81b6064820152608401610b1f565b60008111611c5e5760405162461bcd60e51b815260206004820152602960248201527f5472616e7366657220616d6f756e74206d7573742062652067726561746572206044820152687468616e207a65726f60b81b6064820152608401610b1f565b6001611c726000546001600160a01b031690565b6001600160a01b0316846001600160a01b031614158015611ca157506000546001600160a01b03848116911614155b8015611cb657506001600160a01b0384163014155b8015611ccb57506001600160a01b0383163014155b1561208b5760285460ff16611d1a5760405162461bcd60e51b815260206004820152601560248201527454726164696e67206973206e6f742061637469766560581b6044820152606401610b1f565b6026546001600160a01b038581169116148015611d4557506025546001600160a01b03848116911614155b15611dc657600654600554611d59916123c8565b4211611d82576001600160a01b03831660009081526020805260409020805460ff191660011790555b600754611da8836115cc866001600160a01b031660009081526002602052604090205490565b1115611dc65760405162461bcd60e51b8152600401610b1f90612e7b565b602854610100900460ff16158015611dec57506026546001600160a01b03858116911614155b8015611e0557506026546001600160a01b038481169116145b15612016576001600160a01b038416600090815260208052604090205460ff16158015611e4a57506001600160a01b038316600090815260208052604090205460ff16155b611e5357600080fd5b601a5460ff1615611ef8576001600160a01b0384166000908152601b6020526040902054421015611ec65760405162461bcd60e51b815260206004820152601c60248201527f5374726f6e672048616e64732050726f746f636f6c20616374697665000000006044820152606401610b1f565b601a54611ede90610100900463ffffffff1642612f87565b6001600160a01b0385166000908152601b60205260409020555b601c5460ff1615611f5e57601e5460ff1615611f565760405162461bcd60e51b815260206004820152601e60248201527f53656c6c732073746f70706564206279204469616d6f6e6420466c6f6f7200006044820152606401610b1f565b611f5e612477565b306000908152600260205260409020546008548110612014578015612002576000611fa26011546115cc6013546115cc6017546015546123c890919063ffffffff16565b1115612002576000611fdd611fd06011546115cc6013546115cc6017546015546123c890919063ffffffff16565b6011546112ad9085612168565b90506000818310611ff557611ff283836121e7565b90505b611fff8282612526565b50505b4780156120125761201247612599565b505b505b6026546001600160a01b0385811691161480159061204257506026546001600160a01b03848116911614155b1561208b5760075461206d836115cc866001600160a01b031660009081526002602052604090205490565b111561208b5760405162461bcd60e51b8152600401610b1f90612e7b565b6001600160a01b03841660009081526004602052604090205460ff16806120ca57506001600160a01b03831660009081526004602052604090205460ff165b156120d3575060005b6120df848484846126d9565b50505050565b600081848411156121095760405162461bcd60e51b8152600401610b1f9190612e28565b5060006121168486612ffe565b95945050505050565b600061216183836040518060400160405280601a81526020017f536166654d6174683a206469766973696f6e206279207a65726f000000000000815250612777565b9392505050565b60008261217757506000610aef565b60006121838385612fb3565b9050826121908583612f9f565b146121615760405162461bcd60e51b815260206004820152602160248201527f536166654d6174683a206d756c7469706c69636174696f6e206f766572666c6f6044820152607760f81b6064820152608401610b1f565b600061216183836040518060400160405280601e81526020017f536166654d6174683a207375627472616374696f6e206f766572666c6f7700008152506120e5565b6028805461ff001916610100179055604080516002808252606082018352600092602083019080368337019050509050308160008151811061227b57634e487b7160e01b600052603260045260246000fd5b6001600160a01b03928316602091820292909201810191909152602554604080516315ab88c960e31b81529051919093169263ad5c4648926004808301939192829003018186803b1580156122cf57600080fd5b505afa1580156122e3573d6000803e3d6000fd5b505050506040513d601f19601f820116820180604052508101906123079190612c4c565b8160018151811061232857634e487b7160e01b600052603260045260246000fd5b6001600160a01b03928316602091820292909201015260255461234e9130911684611a12565b60255460405163791ac94760e01b81526001600160a01b039091169063791ac94790612387908590600090869030904290600401612f17565b600060405180830381600087803b1580156123a157600080fd5b505af11580156123b5573d6000803e3d6000fd5b50506028805461ff001916905550505050565b6000806123d58385612f87565b9050838110156121615760405162461bcd60e51b815260206004820152601b60248201527f536166654d6174683a206164646974696f6e206f766572666c6f7700000000006044820152606401610b1f565b600080546001600160a01b038381166001600160a01b0319831681178455604051919092169283917f8be0079c531659141344cd1fd0a4f28419497f9722a3daafe3b4186f6b6457e09190a35050565b6000612481611143565b90508061248b5750565b601d548111156124a457601d55601e805460ff19169055565b601c54601d546000916124d4916103e8916112ad9161010090910461ffff16906124ce9084612168565b906121e7565b9050808210156124f257601e805460ff19166001179055601d54601f555b601e5460ff1680156125115750601f5461250d906002612168565b8210155b156110295750601e805460ff19169055601d55565b6028805461ff001916610100179055600061254283600261211f565b9050600061255084836121e7565b90504761256561256085856123c8565b612229565b600061257147836121e7565b905082156123b5576123b58361259461258a88886123c8565b6112ad8589612168565b6127a5565b60006125b86017546115cc6013546015546123c890919063ffffffff16565b905080156110295760006125db826112ad6015548661216890919063ffffffff16565b905060006125f8836112ad6017548761216890919063ffffffff16565b9050600061260a826124ce87866121e7565b9050821561264e576021546040516001600160a01b039091169084156108fc029085906000818181858888f1935050505015801561264c573d6000803e3d6000fd5b505b8115612690576022546040516001600160a01b039091169083156108fc029084906000818181858888f1935050505015801561268e573d6000803e3d6000fd5b505b80156126d2576023546040516001600160a01b039091169082156108fc029083906000818181858888f193505050501580156126d0573d6000803e3d6000fd5b505b5050505050565b8061273757612737600d8054600e5560098054600a55600f8054601055600b8054600c556000938490559183905582905581905560158054601655601180546012556017805460185560138054601455928490559083905582905555565b612742848484612862565b6120df600e54600d55600a54600955601054600f55600c54600b55601654601555601254601155601854601755601454601355565b600081836127985760405162461bcd60e51b8152600401610b1f9190612e28565b5060006121168486612f9f565b6025546127bd9030906001600160a01b031684611a12565b6025546024805460405163f305d71960e01b815230600482015291820185905260006044830181905260648301526001600160a01b0390811660848301524260a48301529091169063f305d71990839060c4016060604051808303818588803b15801561282957600080fd5b505af115801561283d573d6000803e3d6000fd5b50505050506040513d601f19601f820116820180604052508101906126d29190612dca565b6128946040518060a0016040528060008152602001600081526020016000815260200160008152602001600081525090565b6026546001600160a01b0385811691161480156128bf57506025546001600160a01b03848116911614155b15612933576128df6103e86112ad600d548561216890919063ffffffff16565b60208201526009546128fa906103e8906112ad908590612168565b8152600f54612912906103e8906112ad908590612168565b6040820152600b5461292d906103e8906112ad908590612168565b60608201525b6026546001600160a01b0385811691161480159061295e57506026546001600160a01b038481169116145b156129d25761297e6103e86112ad6015548561216890919063ffffffff16565b6020820152601154612999906103e8906112ad908590612168565b81526017546129b1906103e8906112ad908590612168565b60408201526013546129cc906103e8906112ad908590612168565b60608201525b6026546001600160a01b038581169116148015906129fe57506026546001600160a01b03848116911614155b15612ab857612a2f60646112ad601954612a296103e86112ad6015548961216890919063ffffffff16565b90612168565b816020018181525050612a5e60646112ad601954612a296103e86112ad6011548961216890919063ffffffff16565b8152601954601754612a83916064916112ad9190612a29906103e89084908990612168565b816040018181525050612ab260646112ad601954612a296103e86112ad6013548961216890919063ffffffff16565b60608201525b612ae781606001516124ce83604001516124ce85600001516124ce8760200151896121e790919063ffffffff16565b60808201526001600160a01b038416600090815260026020526040902054612b0f90836121e7565b6001600160a01b0380861660009081526002602052604080822093909355608084015191861681529190912054612b45916123c8565b60026000856001600160a01b03166001600160a01b0316815260200190815260200160002081905550612bb2612b9c82606001516115cc84604001516115cc866000015187602001516123c890919063ffffffff16565b30600090815260026020526040902054906123c8565b3060009081526002602090815260409182902092909255608083015190519081526001600160a01b0385811692908716917fddf252ad1be2c89b69c2b068fc378daa952ba7f163c4a11628f55a4df523b3ef910160405180910390a350505050565b80516001600160701b0381168114612c2b57600080fd5b919050565b600060208284031215612c41578081fd5b813561216181613055565b600060208284031215612c5d578081fd5b815161216181613055565b60008060408385031215612c7a578081fd5b8235612c8581613055565b91506020830135612c9581613055565b809150509250929050565b600080600060608486031215612cb4578081fd5b8335612cbf81613055565b92506020840135612ccf81613055565b929592945050506040919091013590565b60008060408385031215612cf2578182fd5b8235612cfd81613055565b946020939093013593505050565b600060208284031215612d1c578081fd5b81516121618161306a565b60008060408385031215612d39578182fd5b8235612d448161306a565b91506020830135612c9581613078565b600080600060608486031215612d68578283fd5b612d7184612c14565b9250612d7f60208501612c14565b91506040840151612d8f81613078565b809150509250925092565b600060208284031215612dab578081fd5b5035919050565b600060208284031215612dc3578081fd5b5051919050565b600080600060608486031215612dde578283fd5b8351925060208401519150604084015190509250925092565b60008060008060808587031215612e0c578081fd5b5050823594602084013594506040840135936060013592509050565b6000602080835283518082850152825b81811015612e5457858101830151858201604001528201612e38565b81811115612e655783604083870101525b50601f01601f1916929092016040019392505050565b60208082526041908201527f77616c6c65742062616c616e6365206166746572207472616e73666572206d7560408201527f7374206265206c657373207468616e206d61782077616c6c657420616d6f756e6060820152601d60fa1b608082015260a00190565b6020808252818101527f4f776e61626c653a2063616c6c6572206973206e6f7420746865206f776e6572604082015260600190565b600060a082018783526020878185015260a0604085015281875180845260c0860191508289019350845b81811015612f665784516001600160a01b031683529383019391830191600101612f41565b50506001600160a01b03969096166060850152505050608001529392505050565b60008219821115612f9a57612f9a613029565b500190565b600082612fae57612fae61303f565b500490565b6000816000190483118215151615612fcd57612fcd613029565b500290565b600063ffffffff80831681851681830481118215151615612ff557612ff5613029565b02949350505050565b60008282101561301057613010613029565b500390565b6000826130245761302461303f565b500690565b634e487b7160e01b600052601160045260246000fd5b634e487b7160e01b600052601260045260246000fd5b6001600160a01b038116811461102b57600080fd5b801515811461102b57600080fd5b63ffffffff8116811461102b57600080fdfe45524332303a207472616e7366657220616d6f756e74206578636565647320616c6c6f77616e6365a2646970667358221220fc57e276852f112951403513d009406b1b67ebbb47d9537d5ec34db201657b1064736f6c63430008040033",
					"opcodes": "PUSH1 0x80 PUSH1 0x40 MSTORE PUSH7 0x2386F2AB5BCA00 PUSH1 0x7 SSTORE PUSH7 0x38D7EA4C68000 PUSH1 0x8 SSTORE PUSH1 0x0 PUSH1 0x9 DUP2 SWAP1 SSTORE PUSH1 0xA DUP2 SWAP1 SSTORE PUSH1 0xB DUP2 SWAP1 SSTORE PUSH1 0xC DUP2 SWAP1 SSTORE PUSH1 0xD DUP2 SWAP1 SSTORE PUSH1 0xE DUP2 SWAP1 SSTORE PUSH1 0xF DUP2 SWAP1 SSTORE PUSH1 0x10 DUP2 SWAP1 SSTORE PUSH1 0x11 DUP2 SWAP1 SSTORE PUSH1 0x12 DUP2 SWAP1 SSTORE PUSH1 0x13 DUP2 SWAP1 SSTORE PUSH1 0x14 DUP2 SWAP1 SSTORE PUSH1 0x15 DUP2 SWAP1 SSTORE PUSH1 0x16 DUP2 SWAP1 SSTORE PUSH1 0x17 DUP2 SWAP1 SSTORE PUSH1 0x18 DUP2 SWAP1 SSTORE PUSH1 0x19 SSTORE PUSH1 0x21 DUP1 SLOAD PUSH2 0xDEAD PUSH1 0x1 PUSH1 0x1 PUSH1 0xA0 SHL SUB NOT SWAP2 DUP3 AND DUP2 OR SWAP1 SWAP3 SSTORE PUSH1 0x22 DUP1 SLOAD DUP3 AND DUP4 OR SWAP1 SSTORE PUSH1 0x23 DUP1 SLOAD DUP3 AND DUP4 OR SWAP1 SSTORE PUSH1 0x24 DUP1 SLOAD SWAP1 SWAP2 AND SWAP1 SWAP2 OR SWAP1 SSTORE PUSH1 0x28 DUP1 SLOAD PUSH5 0xFFFFFFFFFF NOT AND PUSH5 0x101010000 OR SWAP1 SSTORE CALLVALUE DUP1 ISZERO PUSH3 0xC9 JUMPI PUSH1 0x0 DUP1 REVERT JUMPDEST POP PUSH1 0x0 DUP1 SLOAD PUSH1 0x1 PUSH1 0x1 PUSH1 0xA0 SHL SUB NOT AND CALLER SWAP1 DUP2 OR DUP3 SSTORE PUSH1 0x40 MLOAD SWAP1 SWAP2 DUP3 SWAP2 PUSH32 0x8BE0079C531659141344CD1FD0A4F28419497F9722A3DAAFE3B4186F6B6457E0 SWAP1 DUP3 SWAP1 LOG3 POP PUSH1 0x25 DUP1 SLOAD PUSH1 0x1 PUSH1 0x1 PUSH1 0xA0 SHL SUB NOT AND PUSH20 0x10ED43C718714EB63D5AA57B78B54704E256024E SWAP1 DUP2 OR SWAP1 SWAP2 SSTORE PUSH3 0x149 ADDRESS DUP3 PUSH8 0xDE0B6B3A7640000 PUSH3 0x3FA JUMP JUMPDEST DUP1 PUSH1 0x1 PUSH1 0x1 PUSH1 0xA0 SHL SUB AND PUSH4 0xC45A0155 PUSH1 0x40 MLOAD DUP2 PUSH4 0xFFFFFFFF AND PUSH1 0xE0 SHL DUP2 MSTORE PUSH1 0x4 ADD PUSH1 0x20 PUSH1 0x40 MLOAD DUP1 DUP4 SUB DUP2 DUP7 DUP1 EXTCODESIZE ISZERO DUP1 ISZERO PUSH3 0x183 JUMPI PUSH1 0x0 DUP1 REVERT JUMPDEST POP GAS STATICCALL ISZERO DUP1 ISZERO PUSH3 0x198 JUMPI RETURNDATASIZE PUSH1 0x0 DUP1 RETURNDATACOPY RETURNDATASIZE PUSH1 0x0 REVERT JUMPDEST POP POP POP POP PUSH1 0x40 MLOAD RETURNDATASIZE PUSH1 0x1F NOT PUSH1 0x1F DUP3 ADD AND DUP3 ADD DUP1 PUSH1 0x40 MSTORE POP DUP2 ADD SWAP1 PUSH3 0x1BE SWAP2 SWAP1 PUSH3 0x526 JUMP JUMPDEST PUSH1 0x1 PUSH1 0x1 PUSH1 0xA0 SHL SUB AND PUSH4 0xC9C65396 ADDRESS DUP4 PUSH1 0x1 PUSH1 0x1 PUSH1 0xA0 SHL SUB AND PUSH4 0xAD5C4648 PUSH1 0x40 MLOAD DUP2 PUSH4 0xFFFFFFFF AND PUSH1 0xE0 SHL DUP2 MSTORE PUSH1 0x4 ADD PUSH1 0x20 PUSH1 0x40 MLOAD DUP1 DUP4 SUB DUP2 DUP7 DUP1 EXTCODESIZE ISZERO DUP1 ISZERO PUSH3 0x207 JUMPI PUSH1 0x0 DUP1 REVERT JUMPDEST POP GAS STATICCALL ISZERO DUP1 ISZERO PUSH3 0x21C JUMPI RETURNDATASIZE PUSH1 0x0 DUP1 RETURNDATACOPY RETURNDATASIZE PUSH1 0x0 REVERT JUMPDEST POP POP POP POP PUSH1 0x40 MLOAD RETURNDATASIZE PUSH1 0x1F NOT PUSH1 0x1F DUP3 ADD AND DUP3 ADD DUP1 PUSH1 0x40 MSTORE POP DUP2 ADD SWAP1 PUSH3 0x242 SWAP2 SWAP1 PUSH3 0x526 JUMP JUMPDEST PUSH1 0x40 MLOAD PUSH1 0x1 PUSH1 0x1 PUSH1 0xE0 SHL SUB NOT PUSH1 0xE0 DUP6 SWAP1 SHL AND DUP2 MSTORE PUSH1 0x1 PUSH1 0x1 PUSH1 0xA0 SHL SUB SWAP3 DUP4 AND PUSH1 0x4 DUP3 ADD MSTORE SWAP2 AND PUSH1 0x24 DUP3 ADD MSTORE PUSH1 0x44 ADD PUSH1 0x20 PUSH1 0x40 MLOAD DUP1 DUP4 SUB DUP2 PUSH1 0x0 DUP8 DUP1 EXTCODESIZE ISZERO DUP1 ISZERO PUSH3 0x28B JUMPI PUSH1 0x0 DUP1 REVERT JUMPDEST POP GAS CALL ISZERO DUP1 ISZERO PUSH3 0x2A0 JUMPI RETURNDATASIZE PUSH1 0x0 DUP1 RETURNDATACOPY RETURNDATASIZE PUSH1 0x0 REVERT JUMPDEST POP POP POP POP PUSH1 0x40 MLOAD RETURNDATASIZE PUSH1 0x1F NOT PUSH1 0x1F DUP3 ADD AND DUP3 ADD DUP1 PUSH1 0x40 MSTORE POP DUP2 ADD SWAP1 PUSH3 0x2C6 SWAP2 SWAP1 PUSH3 0x526 JUMP JUMPDEST PUSH1 0x26 DUP1 SLOAD PUSH1 0x1 PUSH1 0x1 PUSH1 0xA0 SHL SUB NOT AND PUSH1 0x1 PUSH1 0x1 PUSH1 0xA0 SHL SUB SWAP3 DUP4 AND SWAP1 DUP2 OR SWAP1 SWAP2 SSTORE PUSH1 0x25 SLOAD PUSH1 0x40 MLOAD PUSH4 0x95EA7B3 PUSH1 0xE0 SHL DUP2 MSTORE SWAP3 AND PUSH1 0x4 DUP4 ADD MSTORE PUSH1 0x0 NOT PUSH1 0x24 DUP4 ADD MSTORE SWAP1 PUSH4 0x95EA7B3 SWAP1 PUSH1 0x44 ADD PUSH1 0x20 PUSH1 0x40 MLOAD DUP1 DUP4 SUB DUP2 PUSH1 0x0 DUP8 DUP1 EXTCODESIZE ISZERO DUP1 ISZERO PUSH3 0x329 JUMPI PUSH1 0x0 DUP1 REVERT JUMPDEST POP GAS CALL ISZERO DUP1 ISZERO PUSH3 0x33E JUMPI RETURNDATASIZE PUSH1 0x0 DUP1 RETURNDATACOPY RETURNDATASIZE PUSH1 0x0 REVERT JUMPDEST POP POP POP POP PUSH1 0x40 MLOAD RETURNDATASIZE PUSH1 0x1F NOT PUSH1 0x1F DUP3 ADD AND DUP3 ADD DUP1 PUSH1 0x40 MSTORE POP DUP2 ADD SWAP1 PUSH3 0x364 SWAP2 SWAP1 PUSH3 0x556 JUMP JUMPDEST POP PUSH8 0xDE0B6B3A7640000 PUSH1 0x27 DUP2 SWAP1 SSTORE PUSH1 0x7 DUP2 SWAP1 SSTORE CALLER PUSH1 0x0 DUP2 DUP2 MSTORE PUSH1 0x2 PUSH1 0x20 SWAP1 DUP2 MSTORE PUSH1 0x40 DUP1 DUP4 KECCAK256 DUP6 SWAP1 SSTORE DUP3 SLOAD PUSH1 0x1 PUSH1 0x1 PUSH1 0xA0 SHL SUB AND DUP4 MSTORE PUSH1 0x4 DUP3 MSTORE DUP1 DUP4 KECCAK256 DUP1 SLOAD PUSH1 0x1 PUSH1 0xFF NOT SWAP2 DUP3 AND DUP2 OR SWAP1 SWAP3 SSTORE ADDRESS DUP6 MSTORE DUP3 DUP6 KECCAK256 DUP1 SLOAD SWAP1 SWAP2 AND SWAP1 SWAP2 OR SWAP1 SSTORE MLOAD SWAP4 DUP5 MSTORE SWAP2 SWAP3 SWAP1 SWAP2 PUSH32 0xDDF252AD1BE2C89B69C2B068FC378DAA952BA7F163C4A11628F55A4DF523B3EF SWAP2 ADD PUSH1 0x40 MLOAD DUP1 SWAP2 SUB SWAP1 LOG3 POP PUSH3 0x578 JUMP JUMPDEST PUSH1 0x1 PUSH1 0x1 PUSH1 0xA0 SHL SUB DUP4 AND PUSH3 0x462 JUMPI PUSH1 0x40 MLOAD PUSH3 0x461BCD PUSH1 0xE5 SHL DUP2 MSTORE PUSH1 0x20 PUSH1 0x4 DUP3 ADD MSTORE PUSH1 0x24 DUP1 DUP3 ADD MSTORE PUSH32 0x45524332303A20617070726F76652066726F6D20746865207A65726F20616464 PUSH1 0x44 DUP3 ADD MSTORE PUSH4 0x72657373 PUSH1 0xE0 SHL PUSH1 0x64 DUP3 ADD MSTORE PUSH1 0x84 ADD JUMPDEST PUSH1 0x40 MLOAD DUP1 SWAP2 SUB SWAP1 REVERT JUMPDEST PUSH1 0x1 PUSH1 0x1 PUSH1 0xA0 SHL SUB DUP3 AND PUSH3 0x4C5 JUMPI PUSH1 0x40 MLOAD PUSH3 0x461BCD PUSH1 0xE5 SHL DUP2 MSTORE PUSH1 0x20 PUSH1 0x4 DUP3 ADD MSTORE PUSH1 0x22 PUSH1 0x24 DUP3 ADD MSTORE PUSH32 0x45524332303A20617070726F766520746F20746865207A65726F206164647265 PUSH1 0x44 DUP3 ADD MSTORE PUSH2 0x7373 PUSH1 0xF0 SHL PUSH1 0x64 DUP3 ADD MSTORE PUSH1 0x84 ADD PUSH3 0x459 JUMP JUMPDEST PUSH1 0x1 PUSH1 0x1 PUSH1 0xA0 SHL SUB DUP4 DUP2 AND PUSH1 0x0 DUP2 DUP2 MSTORE PUSH1 0x3 PUSH1 0x20 SWAP1 DUP2 MSTORE PUSH1 0x40 DUP1 DUP4 KECCAK256 SWAP5 DUP8 AND DUP1 DUP5 MSTORE SWAP5 DUP3 MSTORE SWAP2 DUP3 SWAP1 KECCAK256 DUP6 SWAP1 SSTORE SWAP1 MLOAD DUP5 DUP2 MSTORE PUSH32 0x8C5BE1E5EBEC7D5BD14F71427D1E84F3DD0314C0F7B2291E5B200AC8C7C3B925 SWAP2 ADD PUSH1 0x40 MLOAD DUP1 SWAP2 SUB SWAP1 LOG3 POP POP POP JUMP JUMPDEST PUSH1 0x0 PUSH1 0x20 DUP3 DUP5 SUB SLT ISZERO PUSH3 0x538 JUMPI DUP1 DUP2 REVERT JUMPDEST DUP2 MLOAD PUSH1 0x1 PUSH1 0x1 PUSH1 0xA0 SHL SUB DUP2 AND DUP2 EQ PUSH3 0x54F JUMPI DUP2 DUP3 REVERT JUMPDEST SWAP4 SWAP3 POP POP POP JUMP JUMPDEST PUSH1 0x0 PUSH1 0x20 DUP3 DUP5 SUB SLT ISZERO PUSH3 0x568 JUMPI DUP1 DUP2 REVERT JUMPDEST DUP2 MLOAD DUP1 ISZERO ISZERO DUP2 EQ PUSH3 0x54F JUMPI DUP2 DUP3 REVERT JUMPDEST PUSH2 0x30E8 DUP1 PUSH3 0x588 PUSH1 0x0 CODECOPY PUSH1 0x0 RETURN INVALID PUSH1 0x80 PUSH1 0x40 MSTORE PUSH1 0x4 CALLDATASIZE LT PUSH2 0x36F JUMPI PUSH1 0x0 CALLDATALOAD PUSH1 0xE0 SHR DUP1 PUSH4 0x88790A68 GT PUSH2 0x1C6 JUMPI DUP1 PUSH4 0xCAB03471 GT PUSH2 0xF7 JUMPI DUP1 PUSH4 0xE315A6DA GT PUSH2 0x95 JUMPI DUP1 PUSH4 0xF2FDE38B GT PUSH2 0x6F JUMPI DUP1 PUSH4 0xF2FDE38B EQ PUSH2 0xA64 JUMPI DUP1 PUSH4 0xF480FEC2 EQ PUSH2 0xA84 JUMPI DUP1 PUSH4 0xFFB54A99 EQ PUSH2 0xAA4 JUMPI DUP1 PUSH4 0xFFECF516 EQ PUSH2 0xABE JUMPI PUSH1 0x0 DUP1 REVERT JUMPDEST DUP1 PUSH4 0xE315A6DA EQ PUSH2 0xA04 JUMPI DUP1 PUSH4 0xE4BF1BED EQ PUSH2 0xA24 JUMPI DUP1 PUSH4 0xEA2F0B37 EQ PUSH2 0xA44 JUMPI PUSH1 0x0 DUP1 REVERT JUMPDEST DUP1 PUSH4 0xD55CB78A GT PUSH2 0xD1 JUMPI DUP1 PUSH4 0xD55CB78A EQ PUSH2 0x973 JUMPI DUP1 PUSH4 0xDB0045EC EQ PUSH2 0x988 JUMPI DUP1 PUSH4 0xDC44B6A0 EQ PUSH2 0x9A8 JUMPI DUP1 PUSH4 0xDD62ED3E EQ PUSH2 0x9BE JUMPI PUSH1 0x0 DUP1 REVERT JUMPDEST DUP1 PUSH4 0xCAB03471 EQ PUSH2 0x91D JUMPI DUP1 PUSH4 0xCDB3858F EQ PUSH2 0x933 JUMPI DUP1 PUSH4 0xD1633649 EQ PUSH2 0x953 JUMPI PUSH1 0x0 DUP1 REVERT JUMPDEST DUP1 PUSH4 0xA850673D GT PUSH2 0x164 JUMPI DUP1 PUSH4 0xC469B6DD GT PUSH2 0x13E JUMPI DUP1 PUSH4 0xC469B6DD EQ PUSH2 0x876 JUMPI DUP1 PUSH4 0xC5D24189 EQ PUSH2 0x88C JUMPI DUP1 PUSH4 0xC8607952 EQ PUSH2 0x8A2 JUMPI DUP1 PUSH4 0xC95457FF EQ PUSH2 0x8B8 JUMPI PUSH1 0x0 DUP1 REVERT JUMPDEST DUP1 PUSH4 0xA850673D EQ PUSH2 0x821 JUMPI DUP1 PUSH4 0xA9059CBB EQ PUSH2 0x841 JUMPI DUP1 PUSH4 0xC3C8CD80 EQ PUSH2 0x861 JUMPI PUSH1 0x0 DUP1 REVERT JUMPDEST DUP1 PUSH4 0x9491F94D GT PUSH2 0x1A0 JUMPI DUP1 PUSH4 0x9491F94D EQ PUSH2 0x789 JUMPI DUP1 PUSH4 0x95D89B41 EQ PUSH2 0x79E JUMPI DUP1 PUSH4 0x99A7B9BC EQ PUSH2 0x7CC JUMPI DUP1 PUSH4 0x9D82190F EQ PUSH2 0x7E1 JUMPI PUSH1 0x0 DUP1 REVERT JUMPDEST DUP1 PUSH4 0x88790A68 EQ PUSH2 0x740 JUMPI DUP1 PUSH4 0x8DA5CB5B EQ PUSH2 0x756 JUMPI DUP1 PUSH4 0x8E360253 EQ PUSH2 0x774 JUMPI PUSH1 0x0 DUP1 REVERT JUMPDEST DUP1 PUSH4 0x39A53C4E GT PUSH2 0x2A0 JUMPI DUP1 PUSH4 0x6C0A24EB GT PUSH2 0x23E JUMPI DUP1 PUSH4 0x715018A6 GT PUSH2 0x218 JUMPI DUP1 PUSH4 0x715018A6 EQ PUSH2 0x6B2 JUMPI DUP1 PUSH4 0x729CB3F2 EQ PUSH2 0x6C7 JUMPI DUP1 PUSH4 0x72B2AECC EQ PUSH2 0x6E7 JUMPI DUP1 PUSH4 0x787A08A6 EQ PUSH2 0x6FD JUMPI PUSH1 0x0 DUP1 REVERT JUMPDEST DUP1 PUSH4 0x6C0A24EB EQ PUSH2 0x651 JUMPI DUP1 PUSH4 0x6FC3EAEC EQ PUSH2 0x667 JUMPI DUP1 PUSH4 0x70A08231 EQ PUSH2 0x67C JUMPI PUSH1 0x0 DUP1 REVERT JUMPDEST DUP1 PUSH4 0x437823EC GT PUSH2 0x27A JUMPI DUP1 PUSH4 0x437823EC EQ PUSH2 0x5C4 JUMPI DUP1 PUSH4 0x49BD5A5E EQ PUSH2 0x5E4 JUMPI DUP1 PUSH4 0x5FECD926 EQ PUSH2 0x61C JUMPI DUP1 PUSH4 0x6AABFF3F EQ PUSH2 0x63C JUMPI PUSH1 0x0 DUP1 REVERT JUMPDEST DUP1 PUSH4 0x39A53C4E EQ PUSH2 0x555 JUMPI DUP1 PUSH4 0x3BBAC579 EQ PUSH2 0x577 JUMPI DUP1 PUSH4 0x3E0F966D EQ PUSH2 0x5AF JUMPI PUSH1 0x0 DUP1 REVERT JUMPDEST DUP1 PUSH4 0x248DD232 GT PUSH2 0x30D JUMPI DUP1 PUSH4 0x29409395 GT PUSH2 0x2E7 JUMPI DUP1 PUSH4 0x29409395 EQ PUSH2 0x4D8 JUMPI DUP1 PUSH4 0x301AD558 EQ PUSH2 0x4F8 JUMPI DUP1 PUSH4 0x313CE567 EQ PUSH2 0x519 JUMPI DUP1 PUSH4 0x323BE1C5 EQ PUSH2 0x535 JUMPI PUSH1 0x0 DUP1 REVERT JUMPDEST DUP1 PUSH4 0x248DD232 EQ PUSH2 0x48C JUMPI DUP1 PUSH4 0x27A14FC2 EQ PUSH2 0x4A2 JUMPI DUP1 PUSH4 0x2843631D EQ PUSH2 0x4C2 JUMPI PUSH1 0x0 DUP1 REVERT JUMPDEST DUP1 PUSH4 0x14EB76AC GT PUSH2 0x349 JUMPI DUP1 PUSH4 0x14EB76AC EQ PUSH2 0x40F JUMPI DUP1 PUSH4 0x18160DDD EQ PUSH2 0x431 JUMPI DUP1 PUSH4 0x2369BF83 EQ PUSH2 0x44C JUMPI DUP1 PUSH4 0x23B872DD EQ PUSH2 0x46C JUMPI PUSH1 0x0 DUP1 REVERT JUMPDEST DUP1 PUSH4 0x1A6C43B EQ PUSH2 0x37B JUMPI DUP1 PUSH4 0x6FDDE03 EQ PUSH2 0x3A4 JUMPI DUP1 PUSH4 0x95EA7B3 EQ PUSH2 0x3DF JUMPI PUSH1 0x0 DUP1 REVERT JUMPDEST CALLDATASIZE PUSH2 0x376 JUMPI STOP JUMPDEST PUSH1 0x0 DUP1 REVERT JUMPDEST CALLVALUE DUP1 ISZERO PUSH2 0x387 JUMPI PUSH1 0x0 DUP1 REVERT JUMPDEST POP PUSH2 0x391 PUSH1 0x8 SLOAD DUP2 JUMP JUMPDEST PUSH1 0x40 MLOAD SWAP1 DUP2 MSTORE PUSH1 0x20 ADD JUMPDEST PUSH1 0x40 MLOAD DUP1 SWAP2 SUB SWAP1 RETURN JUMPDEST CALLVALUE DUP1 ISZERO PUSH2 0x3B0 JUMPI PUSH1 0x0 DUP1 REVERT JUMPDEST POP PUSH1 0x40 DUP1 MLOAD DUP1 DUP3 ADD SWAP1 SWAP2 MSTORE PUSH1 0x9 DUP2 MSTORE PUSH9 0x4761696E5A696C6C61 PUSH1 0xB8 SHL PUSH1 0x20 DUP3 ADD MSTORE JUMPDEST PUSH1 0x40 MLOAD PUSH2 0x39B SWAP2 SWAP1 PUSH2 0x2E28 JUMP JUMPDEST CALLVALUE DUP1 ISZERO PUSH2 0x3EB JUMPI PUSH1 0x0 DUP1 REVERT JUMPDEST POP PUSH2 0x3FF PUSH2 0x3FA CALLDATASIZE PUSH1 0x4 PUSH2 0x2CE0 JUMP JUMPDEST PUSH2 0xADE JUMP JUMPDEST PUSH1 0x40 MLOAD SWAP1 ISZERO ISZERO DUP2 MSTORE PUSH1 0x20 ADD PUSH2 0x39B JUMP JUMPDEST CALLVALUE DUP1 ISZERO PUSH2 0x41B JUMPI PUSH1 0x0 DUP1 REVERT JUMPDEST POP PUSH2 0x42F PUSH2 0x42A CALLDATASIZE PUSH1 0x4 PUSH2 0x2C30 JUMP JUMPDEST PUSH2 0xAF5 JUMP JUMPDEST STOP JUMPDEST CALLVALUE DUP1 ISZERO PUSH2 0x43D JUMPI PUSH1 0x0 DUP1 REVERT JUMPDEST POP PUSH8 0xDE0B6B3A7640000 PUSH2 0x391 JUMP JUMPDEST CALLVALUE DUP1 ISZERO PUSH2 0x458 JUMPI PUSH1 0x0 DUP1 REVERT JUMPDEST POP PUSH2 0x42F PUSH2 0x467 CALLDATASIZE PUSH1 0x4 PUSH2 0x2C30 JUMP JUMPDEST PUSH2 0xB4A JUMP JUMPDEST CALLVALUE DUP1 ISZERO PUSH2 0x478 JUMPI PUSH1 0x0 DUP1 REVERT JUMPDEST POP PUSH2 0x3FF PUSH2 0x487 CALLDATASIZE PUSH1 0x4 PUSH2 0x2CA0 JUMP JUMPDEST PUSH2 0xB96 JUMP JUMPDEST CALLVALUE DUP1 ISZERO PUSH2 0x498 JUMPI PUSH1 0x0 DUP1 REVERT JUMPDEST POP PUSH2 0x391 PUSH1 0x13 SLOAD DUP2 JUMP JUMPDEST CALLVALUE DUP1 ISZERO PUSH2 0x4AE JUMPI PUSH1 0x0 DUP1 REVERT JUMPDEST POP PUSH2 0x42F PUSH2 0x4BD CALLDATASIZE PUSH1 0x4 PUSH2 0x2D9A JUMP JUMPDEST PUSH2 0xBFF JUMP JUMPDEST CALLVALUE DUP1 ISZERO PUSH2 0x4CE JUMPI PUSH1 0x0 DUP1 REVERT JUMPDEST POP PUSH2 0x391 PUSH1 0xB SLOAD DUP2 JUMP JUMPDEST CALLVALUE DUP1 ISZERO PUSH2 0x4E4 JUMPI PUSH1 0x0 DUP1 REVERT JUMPDEST POP PUSH2 0x42F PUSH2 0x4F3 CALLDATASIZE PUSH1 0x4 PUSH2 0x2C30 JUMP JUMPDEST PUSH2 0xD15 JUMP JUMPDEST CALLVALUE DUP1 ISZERO PUSH2 0x504 JUMPI PUSH1 0x0 DUP1 REVERT JUMPDEST POP PUSH1 0x28 SLOAD PUSH2 0x3FF SWAP1 PUSH4 0x1000000 SWAP1 DIV PUSH1 0xFF AND DUP2 JUMP JUMPDEST CALLVALUE DUP1 ISZERO PUSH2 0x525 JUMPI PUSH1 0x0 DUP1 REVERT JUMPDEST POP PUSH1 0x40 MLOAD PUSH1 0x9 DUP2 MSTORE PUSH1 0x20 ADD PUSH2 0x39B JUMP JUMPDEST CALLVALUE DUP1 ISZERO PUSH2 0x541 JUMPI PUSH1 0x0 DUP1 REVERT JUMPDEST POP PUSH1 0x28 SLOAD PUSH2 0x3FF SWAP1 PUSH3 0x10000 SWAP1 DIV PUSH1 0xFF AND DUP2 JUMP JUMPDEST CALLVALUE DUP1 ISZERO PUSH2 0x561 JUMPI PUSH1 0x0 DUP1 REVERT JUMPDEST POP PUSH1 0x28 SLOAD PUSH2 0x3FF SWAP1 PUSH5 0x100000000 SWAP1 DIV PUSH1 0xFF AND DUP2 JUMP JUMPDEST CALLVALUE DUP1 ISZERO PUSH2 0x583 JUMPI PUSH1 0x0 DUP1 REVERT JUMPDEST POP PUSH2 0x3FF PUSH2 0x592 CALLDATASIZE PUSH1 0x4 PUSH2 0x2C30 JUMP JUMPDEST PUSH1 0x1 PUSH1 0x1 PUSH1 0xA0 SHL SUB AND PUSH1 0x0 SWAP1 DUP2 MSTORE PUSH1 0x20 DUP1 MSTORE PUSH1 0x40 SWAP1 KECCAK256 SLOAD PUSH1 0xFF AND SWAP1 JUMP JUMPDEST CALLVALUE DUP1 ISZERO PUSH2 0x5BB JUMPI PUSH1 0x0 DUP1 REVERT JUMPDEST POP PUSH2 0x42F PUSH2 0xE61 JUMP JUMPDEST CALLVALUE DUP1 ISZERO PUSH2 0x5D0 JUMPI PUSH1 0x0 DUP1 REVERT JUMPDEST POP PUSH2 0x42F PUSH2 0x5DF CALLDATASIZE PUSH1 0x4 PUSH2 0x2C30 JUMP JUMPDEST PUSH2 0xEEF JUMP JUMPDEST CALLVALUE DUP1 ISZERO PUSH2 0x5F0 JUMPI PUSH1 0x0 DUP1 REVERT JUMPDEST POP PUSH1 0x26 SLOAD PUSH2 0x604 SWAP1 PUSH1 0x1 PUSH1 0x1 PUSH1 0xA0 SHL SUB AND DUP2 JUMP JUMPDEST PUSH1 0x40 MLOAD PUSH1 0x1 PUSH1 0x1 PUSH1 0xA0 SHL SUB SWAP1 SWAP2 AND DUP2 MSTORE PUSH1 0x20 ADD PUSH2 0x39B JUMP JUMPDEST CALLVALUE DUP1 ISZERO PUSH2 0x628 JUMPI PUSH1 0x0 DUP1 REVERT JUMPDEST POP PUSH2 0x42F PUSH2 0x637 CALLDATASIZE PUSH1 0x4 PUSH2 0x2C30 JUMP JUMPDEST PUSH2 0xF3D JUMP JUMPDEST CALLVALUE DUP1 ISZERO PUSH2 0x648 JUMPI PUSH1 0x0 DUP1 REVERT JUMPDEST POP PUSH2 0x42F PUSH2 0xF87 JUMP JUMPDEST CALLVALUE DUP1 ISZERO PUSH2 0x65D JUMPI PUSH1 0x0 DUP1 REVERT JUMPDEST POP PUSH2 0x391 PUSH1 0x7 SLOAD DUP2 JUMP JUMPDEST CALLVALUE DUP1 ISZERO PUSH2 0x673 JUMPI PUSH1 0x0 DUP1 REVERT JUMPDEST POP PUSH2 0x42F PUSH2 0xFBF JUMP JUMPDEST CALLVALUE DUP1 ISZERO PUSH2 0x688 JUMPI PUSH1 0x0 DUP1 REVERT JUMPDEST POP PUSH2 0x391 PUSH2 0x697 CALLDATASIZE PUSH1 0x4 PUSH2 0x2C30 JUMP JUMPDEST PUSH1 0x1 PUSH1 0x1 PUSH1 0xA0 SHL SUB AND PUSH1 0x0 SWAP1 DUP2 MSTORE PUSH1 0x2 PUSH1 0x20 MSTORE PUSH1 0x40 SWAP1 KECCAK256 SLOAD SWAP1 JUMP JUMPDEST CALLVALUE DUP1 ISZERO PUSH2 0x6BE JUMPI PUSH1 0x0 DUP1 REVERT JUMPDEST POP PUSH2 0x42F PUSH2 0x102E JUMP JUMPDEST CALLVALUE DUP1 ISZERO PUSH2 0x6D3 JUMPI PUSH1 0x0 DUP1 REVERT JUMPDEST POP PUSH2 0x42F PUSH2 0x6E2 CALLDATASIZE PUSH1 0x4 PUSH2 0x2D27 JUMP JUMPDEST PUSH2 0x10A2 JUMP JUMPDEST CALLVALUE DUP1 ISZERO PUSH2 0x6F3 JUMPI PUSH1 0x0 DUP1 REVERT JUMPDEST POP PUSH2 0x391 PUSH1 0x19 SLOAD DUP2 JUMP JUMPDEST CALLVALUE DUP1 ISZERO PUSH2 0x709 JUMPI PUSH1 0x0 DUP1 REVERT JUMPDEST POP PUSH1 0x1A SLOAD PUSH2 0x724 SWAP1 PUSH1 0xFF DUP2 AND SWAP1 PUSH2 0x100 SWAP1 DIV PUSH4 0xFFFFFFFF AND DUP3 JUMP JUMPDEST PUSH1 0x40 DUP1 MLOAD SWAP3 ISZERO ISZERO DUP4 MSTORE PUSH4 0xFFFFFFFF SWAP1 SWAP2 AND PUSH1 0x20 DUP4 ADD MSTORE ADD PUSH2 0x39B JUMP JUMPDEST CALLVALUE DUP1 ISZERO PUSH2 0x74C JUMPI PUSH1 0x0 DUP1 REVERT JUMPDEST POP PUSH2 0x391 PUSH1 0x11 SLOAD DUP2 JUMP JUMPDEST CALLVALUE DUP1 ISZERO PUSH2 0x762 JUMPI PUSH1 0x0 DUP1 REVERT JUMPDEST POP PUSH1 0x0 SLOAD PUSH1 0x1 PUSH1 0x1 PUSH1 0xA0 SHL SUB AND PUSH2 0x604 JUMP JUMPDEST CALLVALUE DUP1 ISZERO PUSH2 0x780 JUMPI PUSH1 0x0 DUP1 REVERT JUMPDEST POP PUSH2 0x42F PUSH2 0x110A JUMP JUMPDEST CALLVALUE DUP1 ISZERO PUSH2 0x795 JUMPI PUSH1 0x0 DUP1 REVERT JUMPDEST POP PUSH2 0x391 PUSH2 0x1143 JUMP JUMPDEST CALLVALUE DUP1 ISZERO PUSH2 0x7AA JUMPI PUSH1 0x0 DUP1 REVERT JUMPDEST POP PUSH1 0x40 DUP1 MLOAD DUP1 DUP3 ADD SWAP1 SWAP2 MSTORE PUSH1 0x5 DUP2 MSTORE PUSH5 0x47494C4C41 PUSH1 0xD8 SHL PUSH1 0x20 DUP3 ADD MSTORE PUSH2 0x3D2 JUMP JUMPDEST CALLVALUE DUP1 ISZERO PUSH2 0x7D8 JUMPI PUSH1 0x0 DUP1 REVERT JUMPDEST POP PUSH2 0x42F PUSH2 0x12E2 JUMP JUMPDEST CALLVALUE DUP1 ISZERO PUSH2 0x7ED JUMPI PUSH1 0x0 DUP1 REVERT JUMPDEST POP PUSH2 0x801 PUSH2 0x7FC CALLDATASIZE PUSH1 0x4 PUSH2 0x2C30 JUMP JUMPDEST PUSH2 0x131C JUMP JUMPDEST PUSH1 0x40 DUP1 MLOAD SWAP5 DUP6 MSTORE PUSH1 0x20 DUP6 ADD SWAP4 SWAP1 SWAP4 MSTORE SWAP2 DUP4 ADD MSTORE PUSH1 0x60 DUP3 ADD MSTORE PUSH1 0x80 ADD PUSH2 0x39B JUMP JUMPDEST CALLVALUE DUP1 ISZERO PUSH2 0x82D JUMPI PUSH1 0x0 DUP1 REVERT JUMPDEST POP PUSH2 0x42F PUSH2 0x83C CALLDATASIZE PUSH1 0x4 PUSH2 0x2D9A JUMP JUMPDEST PUSH2 0x13CB JUMP JUMPDEST CALLVALUE DUP1 ISZERO PUSH2 0x84D JUMPI PUSH1 0x0 DUP1 REVERT JUMPDEST POP PUSH2 0x3FF PUSH2 0x85C CALLDATASIZE PUSH1 0x4 PUSH2 0x2CE0 JUMP JUMPDEST PUSH2 0x13FA JUMP JUMPDEST CALLVALUE DUP1 ISZERO PUSH2 0x86D JUMPI PUSH1 0x0 DUP1 REVERT JUMPDEST POP PUSH2 0x42F PUSH2 0x1407 JUMP JUMPDEST CALLVALUE DUP1 ISZERO PUSH2 0x882 JUMPI PUSH1 0x0 DUP1 REVERT JUMPDEST POP PUSH2 0x391 PUSH1 0xF SLOAD DUP2 JUMP JUMPDEST CALLVALUE DUP1 ISZERO PUSH2 0x898 JUMPI PUSH1 0x0 DUP1 REVERT JUMPDEST POP PUSH2 0x391 PUSH1 0xD SLOAD DUP2 JUMP JUMPDEST CALLVALUE DUP1 ISZERO PUSH2 0x8AE JUMPI PUSH1 0x0 DUP1 REVERT JUMPDEST POP PUSH2 0x391 PUSH1 0x15 SLOAD DUP2 JUMP JUMPDEST CALLVALUE DUP1 ISZERO PUSH2 0x8C4 JUMPI PUSH1 0x0 DUP1 REVERT JUMPDEST POP PUSH1 0x1C SLOAD PUSH1 0x1D SLOAD PUSH1 0x1E SLOAD PUSH1 0x1F SLOAD PUSH2 0x8EE SWAP4 PUSH1 0xFF DUP1 DUP3 AND SWAP5 PUSH2 0x100 SWAP1 SWAP3 DIV PUSH2 0xFFFF AND SWAP4 SWAP2 SWAP3 SWAP2 AND SWAP1 DUP6 JUMP JUMPDEST PUSH1 0x40 DUP1 MLOAD SWAP6 ISZERO ISZERO DUP7 MSTORE PUSH2 0xFFFF SWAP1 SWAP5 AND PUSH1 0x20 DUP7 ADD MSTORE SWAP3 DUP5 ADD SWAP2 SWAP1 SWAP2 MSTORE ISZERO ISZERO PUSH1 0x60 DUP4 ADD MSTORE PUSH1 0x80 DUP3 ADD MSTORE PUSH1 0xA0 ADD PUSH2 0x39B JUMP JUMPDEST CALLVALUE DUP1 ISZERO PUSH2 0x929 JUMPI PUSH1 0x0 DUP1 REVERT JUMPDEST POP PUSH2 0x391 PUSH1 0x17 SLOAD DUP2 JUMP JUMPDEST CALLVALUE DUP1 ISZERO PUSH2 0x93F JUMPI PUSH1 0x0 DUP1 REVERT JUMPDEST POP PUSH2 0x42F PUSH2 0x94E CALLDATASIZE PUSH1 0x4 PUSH2 0x2C30 JUMP JUMPDEST PUSH2 0x1450 JUMP JUMPDEST CALLVALUE DUP1 ISZERO PUSH2 0x95F JUMPI PUSH1 0x0 DUP1 REVERT JUMPDEST POP PUSH2 0x42F PUSH2 0x96E CALLDATASIZE PUSH1 0x4 PUSH2 0x2D9A JUMP JUMPDEST PUSH2 0x149C JUMP JUMPDEST CALLVALUE DUP1 ISZERO PUSH2 0x97F JUMPI PUSH1 0x0 DUP1 REVERT JUMPDEST POP PUSH2 0x42F PUSH2 0x14DC JUMP JUMPDEST CALLVALUE DUP1 ISZERO PUSH2 0x994 JUMPI PUSH1 0x0 DUP1 REVERT JUMPDEST POP PUSH2 0x42F PUSH2 0x9A3 CALLDATASIZE PUSH1 0x4 PUSH2 0x2C30 JUMP JUMPDEST PUSH2 0x1515 JUMP JUMPDEST CALLVALUE DUP1 ISZERO PUSH2 0x9B4 JUMPI PUSH1 0x0 DUP1 REVERT JUMPDEST POP PUSH2 0x391 PUSH1 0x9 SLOAD DUP2 JUMP JUMPDEST CALLVALUE DUP1 ISZERO PUSH2 0x9CA JUMPI PUSH1 0x0 DUP1 REVERT JUMPDEST POP PUSH2 0x391 PUSH2 0x9D9 CALLDATASIZE PUSH1 0x4 PUSH2 0x2C68 JUMP JUMPDEST PUSH1 0x1 PUSH1 0x1 PUSH1 0xA0 SHL SUB SWAP2 DUP3 AND PUSH1 0x0 SWAP1 DUP2 MSTORE PUSH1 0x3 PUSH1 0x20 SWAP1 DUP2 MSTORE PUSH1 0x40 DUP1 DUP4 KECCAK256 SWAP4 SWAP1 SWAP5 AND DUP3 MSTORE SWAP2 SWAP1 SWAP2 MSTORE KECCAK256 SLOAD SWAP1 JUMP JUMPDEST CALLVALUE DUP1 ISZERO PUSH2 0xA10 JUMPI PUSH1 0x0 DUP1 REVERT JUMPDEST POP PUSH2 0x42F PUSH2 0xA1F CALLDATASIZE PUSH1 0x4 PUSH2 0x2D9A JUMP JUMPDEST PUSH2 0x1561 JUMP JUMPDEST CALLVALUE DUP1 ISZERO PUSH2 0xA30 JUMPI PUSH1 0x0 DUP1 REVERT JUMPDEST POP PUSH2 0x42F PUSH2 0xA3F CALLDATASIZE PUSH1 0x4 PUSH2 0x2DF7 JUMP JUMPDEST PUSH2 0x1590 JUMP JUMPDEST CALLVALUE DUP1 ISZERO PUSH2 0xA50 JUMPI PUSH1 0x0 DUP1 REVERT JUMPDEST POP PUSH2 0x42F PUSH2 0xA5F CALLDATASIZE PUSH1 0x4 PUSH2 0x2C30 JUMP JUMPDEST PUSH2 0x170C JUMP JUMPDEST CALLVALUE DUP1 ISZERO PUSH2 0xA70 JUMPI PUSH1 0x0 DUP1 REVERT JUMPDEST POP PUSH2 0x42F PUSH2 0xA7F CALLDATASIZE PUSH1 0x4 PUSH2 0x2C30 JUMP JUMPDEST PUSH2 0x1757 JUMP JUMPDEST CALLVALUE DUP1 ISZERO PUSH2 0xA90 JUMPI PUSH1 0x0 DUP1 REVERT JUMPDEST POP PUSH2 0x42F PUSH2 0xA9F CALLDATASIZE PUSH1 0x4 PUSH2 0x2DF7 JUMP JUMPDEST PUSH2 0x17EF JUMP JUMPDEST CALLVALUE DUP1 ISZERO PUSH2 0xAB0 JUMPI PUSH1 0x0 DUP1 REVERT JUMPDEST POP PUSH1 0x28 SLOAD PUSH2 0x3FF SWAP1 PUSH1 0xFF AND DUP2 JUMP JUMPDEST CALLVALUE DUP1 ISZERO PUSH2 0xACA JUMPI PUSH1 0x0 DUP1 REVERT JUMPDEST POP PUSH2 0x42F PUSH2 0xAD9 CALLDATASIZE PUSH1 0x4 PUSH2 0x2C30 JUMP JUMPDEST PUSH2 0x195B JUMP JUMPDEST PUSH1 0x0 PUSH2 0xAEB CALLER DUP5 DUP5 PUSH2 0x1A12 JUMP JUMPDEST POP PUSH1 0x1 JUMPDEST SWAP3 SWAP2 POP POP JUMP JUMPDEST PUSH1 0x0 SLOAD PUSH1 0x1 PUSH1 0x1 PUSH1 0xA0 SHL SUB AND CALLER EQ PUSH2 0xB28 JUMPI PUSH1 0x40 MLOAD PUSH3 0x461BCD PUSH1 0xE5 SHL DUP2 MSTORE PUSH1 0x4 ADD PUSH2 0xB1F SWAP1 PUSH2 0x2EE2 JUMP JUMPDEST PUSH1 0x40 MLOAD DUP1 SWAP2 SUB SWAP1 REVERT JUMPDEST PUSH1 0x22 DUP1 SLOAD PUSH1 0x1 PUSH1 0x1 PUSH1 0xA0 SHL SUB NOT AND PUSH1 0x1 PUSH1 0x1 PUSH1 0xA0 SHL SUB SWAP3 SWAP1 SWAP3 AND SWAP2 SWAP1 SWAP2 OR SWAP1 SSTORE JUMP JUMPDEST PUSH1 0x0 SLOAD PUSH1 0x1 PUSH1 0x1 PUSH1 0xA0 SHL SUB AND CALLER EQ PUSH2 0xB74 JUMPI PUSH1 0x40 MLOAD PUSH3 0x461BCD PUSH1 0xE5 SHL DUP2 MSTORE PUSH1 0x4 ADD PUSH2 0xB1F SWAP1 PUSH2 0x2EE2 JUMP JUMPDEST PUSH1 0x21 DUP1 SLOAD PUSH1 0x1 PUSH1 0x1 PUSH1 0xA0 SHL SUB NOT AND PUSH1 0x1 PUSH1 0x1 PUSH1 0xA0 SHL SUB SWAP3 SWAP1 SWAP3 AND SWAP2 SWAP1 SWAP2 OR SWAP1 SSTORE JUMP JUMPDEST PUSH1 0x0 PUSH2 0xBA3 DUP5 DUP5 DUP5 PUSH2 0x1B36 JUMP JUMPDEST PUSH2 0xBF5 DUP5 CALLER PUSH2 0xBF0 DUP6 PUSH1 0x40 MLOAD DUP1 PUSH1 0x60 ADD PUSH1 0x40 MSTORE DUP1 PUSH1 0x28 DUP2 MSTORE PUSH1 0x20 ADD PUSH2 0x308B PUSH1 0x28 SWAP2 CODECOPY PUSH1 0x1 PUSH1 0x1 PUSH1 0xA0 SHL SUB DUP11 AND PUSH1 0x0 SWAP1 DUP2 MSTORE PUSH1 0x3 PUSH1 0x20 SWAP1 DUP2 MSTORE PUSH1 0x40 DUP1 DUP4 KECCAK256 CALLER DUP5 MSTORE SWAP1 SWAP2 MSTORE SWAP1 KECCAK256 SLOAD SWAP2 SWAP1 PUSH2 0x20E5 JUMP JUMPDEST PUSH2 0x1A12 JUMP JUMPDEST POP PUSH1 0x1 SWAP4 SWAP3 POP POP POP JUMP JUMPDEST PUSH1 0x0 SLOAD PUSH1 0x1 PUSH1 0x1 PUSH1 0xA0 SHL SUB AND CALLER EQ PUSH2 0xC29 JUMPI PUSH1 0x40 MLOAD PUSH3 0x461BCD PUSH1 0xE5 SHL DUP2 MSTORE PUSH1 0x4 ADD PUSH2 0xB1F SWAP1 PUSH2 0x2EE2 JUMP JUMPDEST PUSH2 0xC3D PUSH8 0xDE0B6B3A7640000 PUSH2 0x3E8 PUSH2 0x211F JUMP JUMPDEST DUP2 LT ISZERO PUSH2 0xC9F JUMPI PUSH1 0x40 MLOAD PUSH3 0x461BCD PUSH1 0xE5 SHL DUP2 MSTORE PUSH1 0x20 PUSH1 0x4 DUP3 ADD MSTORE PUSH1 0x2A PUSH1 0x24 DUP3 ADD MSTORE PUSH32 0x416D6F756E74206D7573742062652067726561746572207468616E20302E3125 PUSH1 0x44 DUP3 ADD MSTORE PUSH10 0x206F6620737570706C79 PUSH1 0xB0 SHL PUSH1 0x64 DUP3 ADD MSTORE PUSH1 0x84 ADD PUSH2 0xB1F JUMP JUMPDEST PUSH8 0xDE0B6B3A7640000 DUP2 GT ISZERO PUSH2 0xD10 JUMPI PUSH1 0x40 MLOAD PUSH3 0x461BCD PUSH1 0xE5 SHL DUP2 MSTORE PUSH1 0x20 PUSH1 0x4 DUP3 ADD MSTORE PUSH1 0x30 PUSH1 0x24 DUP3 ADD MSTORE PUSH32 0x416D6F756E74206D757374206265206C657373207468616E206F722065717561 PUSH1 0x44 DUP3 ADD MSTORE PUSH16 0x6C20746F20746F74616C537570706C79 PUSH1 0x80 SHL PUSH1 0x64 DUP3 ADD MSTORE PUSH1 0x84 ADD PUSH2 0xB1F JUMP JUMPDEST PUSH1 0x7 SSTORE JUMP JUMPDEST PUSH1 0x0 SLOAD PUSH1 0x1 PUSH1 0x1 PUSH1 0xA0 SHL SUB AND CALLER EQ PUSH2 0xD3F JUMPI PUSH1 0x40 MLOAD PUSH3 0x461BCD PUSH1 0xE5 SHL DUP2 MSTORE PUSH1 0x4 ADD PUSH2 0xB1F SWAP1 PUSH2 0x2EE2 JUMP JUMPDEST PUSH1 0x40 MLOAD PUSH4 0x70A08231 PUSH1 0xE0 SHL DUP2 MSTORE ADDRESS PUSH1 0x4 DUP3 ADD MSTORE PUSH1 0x0 SWAP1 PUSH1 0x1 PUSH1 0x1 PUSH1 0xA0 SHL SUB DUP4 AND SWAP1 PUSH4 0x70A08231 SWAP1 PUSH1 0x24 ADD PUSH1 0x20 PUSH1 0x40 MLOAD DUP1 DUP4 SUB DUP2 DUP7 DUP1 EXTCODESIZE ISZERO DUP1 ISZERO PUSH2 0xD81 JUMPI PUSH1 0x0 DUP1 REVERT JUMPDEST POP GAS STATICCALL ISZERO DUP1 ISZERO PUSH2 0xD95 JUMPI RETURNDATASIZE PUSH1 0x0 DUP1 RETURNDATACOPY RETURNDATASIZE PUSH1 0x0 REVERT JUMPDEST POP POP POP POP PUSH1 0x40 MLOAD RETURNDATASIZE PUSH1 0x1F NOT PUSH1 0x1F DUP3 ADD AND DUP3 ADD DUP1 PUSH1 0x40 MSTORE POP DUP2 ADD SWAP1 PUSH2 0xDB9 SWAP2 SWAP1 PUSH2 0x2DB2 JUMP JUMPDEST SWAP1 POP DUP2 PUSH1 0x1 PUSH1 0x1 PUSH1 0xA0 SHL SUB AND PUSH4 0xA9059CBB PUSH2 0xDDC PUSH1 0x0 SLOAD PUSH1 0x1 PUSH1 0x1 PUSH1 0xA0 SHL SUB AND SWAP1 JUMP JUMPDEST PUSH1 0x40 MLOAD PUSH1 0x1 PUSH1 0x1 PUSH1 0xE0 SHL SUB NOT PUSH1 0xE0 DUP5 SWAP1 SHL AND DUP2 MSTORE PUSH1 0x1 PUSH1 0x1 PUSH1 0xA0 SHL SUB SWAP1 SWAP2 AND PUSH1 0x4 DUP3 ADD MSTORE PUSH1 0x24 DUP2 ADD DUP5 SWAP1 MSTORE PUSH1 0x44 ADD PUSH1 0x20 PUSH1 0x40 MLOAD DUP1 DUP4 SUB DUP2 PUSH1 0x0 DUP8 DUP1 EXTCODESIZE ISZERO DUP1 ISZERO PUSH2 0xE24 JUMPI PUSH1 0x0 DUP1 REVERT JUMPDEST POP GAS CALL ISZERO DUP1 ISZERO PUSH2 0xE38 JUMPI RETURNDATASIZE PUSH1 0x0 DUP1 RETURNDATACOPY RETURNDATASIZE PUSH1 0x0 REVERT JUMPDEST POP POP POP POP PUSH1 0x40 MLOAD RETURNDATASIZE PUSH1 0x1F NOT PUSH1 0x1F DUP3 ADD AND DUP3 ADD DUP1 PUSH1 0x40 MSTORE POP DUP2 ADD SWAP1 PUSH2 0xE5C SWAP2 SWAP1 PUSH2 0x2D0B JUMP JUMPDEST POP POP POP JUMP JUMPDEST PUSH1 0x0 SLOAD PUSH1 0x1 PUSH1 0x1 PUSH1 0xA0 SHL SUB AND CALLER EQ PUSH2 0xE8B JUMPI PUSH1 0x40 MLOAD PUSH3 0x461BCD PUSH1 0xE5 SHL DUP2 MSTORE PUSH1 0x4 ADD PUSH2 0xB1F SWAP1 PUSH2 0x2EE2 JUMP JUMPDEST PUSH1 0x28 SLOAD PUSH3 0x10000 SWAP1 DIV PUSH1 0xFF AND PUSH2 0xEE3 JUMPI PUSH1 0x40 MLOAD PUSH3 0x461BCD PUSH1 0xE5 SHL DUP2 MSTORE PUSH1 0x20 PUSH1 0x4 DUP3 ADD MSTORE PUSH1 0x1E PUSH1 0x24 DUP3 ADD MSTORE PUSH32 0x7468697320636F6E74726163742063616E6E6F74206265207061757365640000 PUSH1 0x44 DUP3 ADD MSTORE PUSH1 0x64 ADD PUSH2 0xB1F JUMP JUMPDEST PUSH1 0x28 DUP1 SLOAD PUSH1 0xFF NOT AND SWAP1 SSTORE JUMP JUMPDEST PUSH1 0x0 SLOAD PUSH1 0x1 PUSH1 0x1 PUSH1 0xA0 SHL SUB AND CALLER EQ PUSH2 0xF19 JUMPI PUSH1 0x40 MLOAD PUSH3 0x461BCD PUSH1 0xE5 SHL DUP2 MSTORE PUSH1 0x4 ADD PUSH2 0xB1F SWAP1 PUSH2 0x2EE2 JUMP JUMPDEST PUSH1 0x1 PUSH1 0x1 PUSH1 0xA0 SHL SUB AND PUSH1 0x0 SWAP1 DUP2 MSTORE PUSH1 0x4 PUSH1 0x20 MSTORE PUSH1 0x40 SWAP1 KECCAK256 DUP1 SLOAD PUSH1 0xFF NOT AND PUSH1 0x1 OR SWAP1 SSTORE JUMP JUMPDEST PUSH1 0x0 SLOAD PUSH1 0x1 PUSH1 0x1 PUSH1 0xA0 SHL SUB AND CALLER EQ PUSH2 0xF67 JUMPI PUSH1 0x40 MLOAD PUSH3 0x461BCD PUSH1 0xE5 SHL DUP2 MSTORE PUSH1 0x4 ADD PUSH2 0xB1F SWAP1 PUSH2 0x2EE2 JUMP JUMPDEST PUSH1 0x1 PUSH1 0x1 PUSH1 0xA0 SHL SUB AND PUSH1 0x0 SWAP1 DUP2 MSTORE PUSH1 0x20 DUP1 MSTORE PUSH1 0x40 SWAP1 KECCAK256 DUP1 SLOAD PUSH1 0xFF NOT AND SWAP1 SSTORE JUMP JUMPDEST PUSH1 0x0 SLOAD PUSH1 0x1 PUSH1 0x1 PUSH1 0xA0 SHL SUB AND CALLER EQ PUSH2 0xFB1 JUMPI PUSH1 0x40 MLOAD PUSH3 0x461BCD PUSH1 0xE5 SHL DUP2 MSTORE PUSH1 0x4 ADD PUSH2 0xB1F SWAP1 PUSH2 0x2EE2 JUMP JUMPDEST PUSH1 0x28 DUP1 SLOAD PUSH3 0xFF0000 NOT AND SWAP1 SSTORE JUMP JUMPDEST PUSH1 0x0 SLOAD PUSH1 0x1 PUSH1 0x1 PUSH1 0xA0 SHL SUB AND CALLER EQ PUSH2 0xFE9 JUMPI PUSH1 0x40 MLOAD PUSH3 0x461BCD PUSH1 0xE5 SHL DUP2 MSTORE PUSH1 0x4 ADD PUSH2 0xB1F SWAP1 PUSH2 0x2EE2 JUMP JUMPDEST SELFBALANCE DUP1 ISZERO PUSH2 0x102B JUMPI PUSH1 0x0 DUP1 SLOAD PUSH1 0x40 MLOAD PUSH1 0x1 PUSH1 0x1 PUSH1 0xA0 SHL SUB SWAP1 SWAP2 AND SWAP2 DUP4 ISZERO PUSH2 0x8FC MUL SWAP2 DUP5 SWAP2 DUP2 DUP2 DUP2 DUP6 DUP9 DUP9 CALL SWAP4 POP POP POP POP ISZERO DUP1 ISZERO PUSH2 0x1029 JUMPI RETURNDATASIZE PUSH1 0x0 DUP1 RETURNDATACOPY RETURNDATASIZE PUSH1 0x0 REVERT JUMPDEST POP JUMPDEST POP JUMP JUMPDEST PUSH1 0x0 SLOAD PUSH1 0x1 PUSH1 0x1 PUSH1 0xA0 SHL SUB AND CALLER EQ PUSH2 0x1058 JUMPI PUSH1 0x40 MLOAD PUSH3 0x461BCD PUSH1 0xE5 SHL DUP2 MSTORE PUSH1 0x4 ADD PUSH2 0xB1F SWAP1 PUSH2 0x2EE2 JUMP JUMPDEST PUSH1 0x0 DUP1 SLOAD PUSH1 0x40 MLOAD PUSH1 0x1 PUSH1 0x1 PUSH1 0xA0 SHL SUB SWAP1 SWAP2 AND SWAP1 PUSH32 0x8BE0079C531659141344CD1FD0A4F28419497F9722A3DAAFE3B4186F6B6457E0 SWAP1 DUP4 SWAP1 LOG3 PUSH1 0x0 DUP1 SLOAD PUSH1 0x1 PUSH1 0x1 PUSH1 0xA0 SHL SUB NOT AND SWAP1 SSTORE JUMP JUMPDEST PUSH1 0x0 SLOAD PUSH1 0x1 PUSH1 0x1 PUSH1 0xA0 SHL SUB AND CALLER EQ PUSH2 0x10CC JUMPI PUSH1 0x40 MLOAD PUSH3 0x461BCD PUSH1 0xE5 SHL DUP2 MSTORE PUSH1 0x4 ADD PUSH2 0xB1F SWAP1 PUSH2 0x2EE2 JUMP JUMPDEST PUSH1 0x1A DUP1 SLOAD PUSH1 0xFF NOT AND DUP4 ISZERO ISZERO OR SWAP1 SSTORE PUSH2 0x10E5 DUP2 PUSH1 0x3C PUSH2 0x2FD2 JUMP JUMPDEST PUSH1 0x1A DUP1 SLOAD PUSH4 0xFFFFFFFF SWAP3 SWAP1 SWAP3 AND PUSH2 0x100 MUL PUSH5 0xFFFFFFFF00 NOT SWAP1 SWAP3 AND SWAP2 SWAP1 SWAP2 OR SWAP1 SSTORE POP POP JUMP JUMPDEST PUSH1 0x0 SLOAD PUSH1 0x1 PUSH1 0x1 PUSH1 0xA0 SHL SUB AND CALLER EQ PUSH2 0x1134 JUMPI PUSH1 0x40 MLOAD PUSH3 0x461BCD PUSH1 0xE5 SHL DUP2 MSTORE PUSH1 0x4 ADD PUSH2 0xB1F SWAP1 PUSH2 0x2EE2 JUMP JUMPDEST PUSH1 0x28 DUP1 SLOAD PUSH1 0xFF NOT AND PUSH1 0x1 OR SWAP1 SSTORE JUMP JUMPDEST PUSH1 0x0 DUP1 PUSH1 0x0 PUSH1 0x26 PUSH1 0x0 SWAP1 SLOAD SWAP1 PUSH2 0x100 EXP SWAP1 DIV PUSH1 0x1 PUSH1 0x1 PUSH1 0xA0 SHL SUB AND PUSH1 0x1 PUSH1 0x1 PUSH1 0xA0 SHL SUB AND PUSH4 0x902F1AC PUSH1 0x40 MLOAD DUP2 PUSH4 0xFFFFFFFF AND PUSH1 0xE0 SHL DUP2 MSTORE PUSH1 0x4 ADD PUSH1 0x60 PUSH1 0x40 MLOAD DUP1 DUP4 SUB DUP2 DUP7 DUP1 EXTCODESIZE ISZERO DUP1 ISZERO PUSH2 0x1196 JUMPI PUSH1 0x0 DUP1 REVERT JUMPDEST POP GAS STATICCALL ISZERO DUP1 ISZERO PUSH2 0x11AA JUMPI RETURNDATASIZE PUSH1 0x0 DUP1 RETURNDATACOPY RETURNDATASIZE PUSH1 0x0 REVERT JUMPDEST POP POP POP POP PUSH1 0x40 MLOAD RETURNDATASIZE PUSH1 0x1F NOT PUSH1 0x1F DUP3 ADD AND DUP3 ADD DUP1 PUSH1 0x40 MSTORE POP DUP2 ADD SWAP1 PUSH2 0x11CE SWAP2 SWAP1 PUSH2 0x2D54 JUMP JUMPDEST POP SWAP2 POP SWAP2 POP DUP2 PUSH1 0x1 PUSH1 0x1 PUSH1 0x70 SHL SUB AND PUSH1 0x0 EQ DUP1 PUSH2 0x11F2 JUMPI POP PUSH1 0x1 PUSH1 0x1 PUSH1 0x70 SHL SUB DUP2 AND ISZERO JUMPDEST ISZERO PUSH2 0x1200 JUMPI PUSH1 0x0 SWAP3 POP POP POP SWAP1 JUMP JUMPDEST PUSH1 0x26 SLOAD PUSH1 0x40 DUP1 MLOAD PUSH4 0xDFE1681 PUSH1 0xE0 SHL DUP2 MSTORE SWAP1 MLOAD ADDRESS SWAP3 PUSH1 0x1 PUSH1 0x1 PUSH1 0xA0 SHL SUB AND SWAP2 PUSH4 0xDFE1681 SWAP2 PUSH1 0x4 DUP1 DUP4 ADD SWAP3 PUSH1 0x20 SWAP3 SWAP2 SWAP1 DUP3 SWAP1 SUB ADD DUP2 DUP7 DUP1 EXTCODESIZE ISZERO DUP1 ISZERO PUSH2 0x1244 JUMPI PUSH1 0x0 DUP1 REVERT JUMPDEST POP GAS STATICCALL ISZERO DUP1 ISZERO PUSH2 0x1258 JUMPI RETURNDATASIZE PUSH1 0x0 DUP1 RETURNDATACOPY RETURNDATASIZE PUSH1 0x0 REVERT JUMPDEST POP POP POP POP PUSH1 0x40 MLOAD RETURNDATASIZE PUSH1 0x1F NOT PUSH1 0x1F DUP3 ADD AND DUP3 ADD DUP1 PUSH1 0x40 MSTORE POP DUP2 ADD SWAP1 PUSH2 0x127C SWAP2 SWAP1 PUSH2 0x2C4C JUMP JUMPDEST PUSH1 0x1 PUSH1 0x1 PUSH1 0xA0 SHL SUB AND EQ PUSH2 0x12B8 JUMPI PUSH2 0x12B3 PUSH1 0x1 PUSH1 0x1 PUSH1 0x70 SHL SUB DUP1 DUP4 AND SWAP1 PUSH2 0x12AD SWAP1 DUP6 AND PUSH8 0xDE0B6B3A7640000 PUSH2 0x2168 JUMP JUMPDEST SWAP1 PUSH2 0x211F JUMP JUMPDEST PUSH2 0x12DB JUMP JUMPDEST PUSH2 0x12DB PUSH1 0x1 PUSH1 0x1 PUSH1 0x70 SHL SUB DUP1 DUP5 AND SWAP1 PUSH2 0x12AD SWAP1 DUP5 AND PUSH8 0xDE0B6B3A7640000 PUSH2 0x2168 JUMP JUMPDEST SWAP3 POP POP POP SWAP1 JUMP JUMPDEST PUSH1 0x0 SLOAD PUSH1 0x1 PUSH1 0x1 PUSH1 0xA0 SHL SUB AND CALLER EQ PUSH2 0x130C JUMPI PUSH1 0x40 MLOAD PUSH3 0x461BCD PUSH1 0xE5 SHL DUP2 MSTORE PUSH1 0x4 ADD PUSH2 0xB1F SWAP1 PUSH2 0x2EE2 JUMP JUMPDEST PUSH1 0x28 DUP1 SLOAD PUSH5 0xFF00000000 NOT AND SWAP1 SSTORE JUMP JUMPDEST PUSH1 0x1 PUSH1 0x1 PUSH1 0xA0 SHL SUB DUP2 AND PUSH1 0x0 SWAP1 DUP2 MSTORE PUSH1 0x1B PUSH1 0x20 MSTORE PUSH1 0x40 DUP2 KECCAK256 SLOAD DUP2 SWAP1 DUP2 SWAP1 DUP2 SWAP1 DUP2 SWAP1 TIMESTAMP LT PUSH2 0x134A JUMPI PUSH1 0x0 PUSH2 0x136D JUMP JUMPDEST PUSH1 0x1 PUSH1 0x1 PUSH1 0xA0 SHL SUB DUP7 AND PUSH1 0x0 SWAP1 DUP2 MSTORE PUSH1 0x1B PUSH1 0x20 MSTORE PUSH1 0x40 SWAP1 KECCAK256 SLOAD PUSH2 0x136D SWAP1 TIMESTAMP PUSH2 0x21E7 JUMP JUMPDEST SWAP1 POP PUSH2 0x137C DUP2 PUSH3 0x15180 PUSH2 0x211F JUMP JUMPDEST SWAP5 POP PUSH2 0x138B PUSH3 0x15180 DUP3 PUSH2 0x3015 JUMP JUMPDEST SWAP1 POP PUSH2 0x1399 DUP2 PUSH2 0xE10 PUSH2 0x211F JUMP JUMPDEST SWAP4 POP PUSH2 0x13A7 PUSH2 0xE10 DUP3 PUSH2 0x3015 JUMP JUMPDEST SWAP1 POP PUSH2 0x13B4 DUP2 PUSH1 0x3C PUSH2 0x211F JUMP JUMPDEST SWAP3 POP PUSH2 0x13C1 PUSH1 0x3C DUP3 PUSH2 0x3015 JUMP JUMPDEST SWAP2 POP POP SWAP2 SWAP4 POP SWAP2 SWAP4 JUMP JUMPDEST PUSH1 0x0 SLOAD PUSH1 0x1 PUSH1 0x1 PUSH1 0xA0 SHL SUB AND CALLER EQ PUSH2 0x13F5 JUMPI PUSH1 0x40 MLOAD PUSH3 0x461BCD PUSH1 0xE5 SHL DUP2 MSTORE PUSH1 0x4 ADD PUSH2 0xB1F SWAP1 PUSH2 0x2EE2 JUMP JUMPDEST PUSH1 0x19 SSTORE JUMP JUMPDEST PUSH1 0x0 PUSH2 0xAEB CALLER DUP5 DUP5 PUSH2 0x1B36 JUMP JUMPDEST PUSH1 0x0 SLOAD PUSH1 0x1 PUSH1 0x1 PUSH1 0xA0 SHL SUB AND CALLER EQ PUSH2 0x1431 JUMPI PUSH1 0x40 MLOAD PUSH3 0x461BCD PUSH1 0xE5 SHL DUP2 MSTORE PUSH1 0x4 ADD PUSH2 0xB1F SWAP1 PUSH2 0x2EE2 JUMP JUMPDEST ADDRESS PUSH1 0x0 SWAP1 DUP2 MSTORE PUSH1 0x2 PUSH1 0x20 MSTORE PUSH1 0x40 SWAP1 KECCAK256 SLOAD DUP1 ISZERO PUSH2 0x102B JUMPI PUSH2 0x102B DUP2 PUSH2 0x2229 JUMP JUMPDEST PUSH1 0x0 SLOAD PUSH1 0x1 PUSH1 0x1 PUSH1 0xA0 SHL SUB AND CALLER EQ PUSH2 0x147A JUMPI PUSH1 0x40 MLOAD PUSH3 0x461BCD PUSH1 0xE5 SHL DUP2 MSTORE PUSH1 0x4 ADD PUSH2 0xB1F SWAP1 PUSH2 0x2EE2 JUMP JUMPDEST PUSH1 0x24 DUP1 SLOAD PUSH1 0x1 PUSH1 0x1 PUSH1 0xA0 SHL SUB NOT AND PUSH1 0x1 PUSH1 0x1 PUSH1 0xA0 SHL SUB SWAP3 SWAP1 SWAP3 AND SWAP2 SWAP1 SWAP2 OR SWAP1 SSTORE JUMP JUMPDEST PUSH1 0x0 SLOAD PUSH1 0x1 PUSH1 0x1 PUSH1 0xA0 SHL SUB AND CALLER EQ PUSH2 0x14C6 JUMPI PUSH1 0x40 MLOAD PUSH3 0x461BCD PUSH1 0xE5 SHL DUP2 MSTORE PUSH1 0x4 ADD PUSH2 0xB1F SWAP1 PUSH2 0x2EE2 JUMP JUMPDEST TIMESTAMP PUSH1 0x5 SSTORE PUSH1 0x6 SSTORE PUSH1 0x28 DUP1 SLOAD PUSH1 0xFF NOT AND PUSH1 0x1 OR SWAP1 SSTORE JUMP JUMPDEST PUSH1 0x0 SLOAD PUSH1 0x1 PUSH1 0x1 PUSH1 0xA0 SHL SUB AND CALLER EQ PUSH2 0x1506 JUMPI PUSH1 0x40 MLOAD PUSH3 0x461BCD PUSH1 0xE5 SHL DUP2 MSTORE PUSH1 0x4 ADD PUSH2 0xB1F SWAP1 PUSH2 0x2EE2 JUMP JUMPDEST PUSH1 0x28 DUP1 SLOAD PUSH4 0xFF000000 NOT AND SWAP1 SSTORE JUMP JUMPDEST PUSH1 0x0 SLOAD PUSH1 0x1 PUSH1 0x1 PUSH1 0xA0 SHL SUB AND CALLER EQ PUSH2 0x153F JUMPI PUSH1 0x40 MLOAD PUSH3 0x461BCD PUSH1 0xE5 SHL DUP2 MSTORE PUSH1 0x4 ADD PUSH2 0xB1F SWAP1 PUSH2 0x2EE2 JUMP JUMPDEST PUSH1 0x23 DUP1 SLOAD PUSH1 0x1 PUSH1 0x1 PUSH1 0xA0 SHL SUB NOT AND PUSH1 0x1 PUSH1 0x1 PUSH1 0xA0 SHL SUB SWAP3 SWAP1 SWAP3 AND SWAP2 SWAP1 SWAP2 OR SWAP1 SSTORE JUMP JUMPDEST PUSH1 0x0 SLOAD PUSH1 0x1 PUSH1 0x1 PUSH1 0xA0 SHL SUB AND CALLER EQ PUSH2 0x158B JUMPI PUSH1 0x40 MLOAD PUSH3 0x461BCD PUSH1 0xE5 SHL DUP2 MSTORE PUSH1 0x4 ADD PUSH2 0xB1F SWAP1 PUSH2 0x2EE2 JUMP JUMPDEST PUSH1 0x8 SSTORE JUMP JUMPDEST PUSH1 0x0 SLOAD PUSH1 0x1 PUSH1 0x1 PUSH1 0xA0 SHL SUB AND CALLER EQ PUSH2 0x15BA JUMPI PUSH1 0x40 MLOAD PUSH3 0x461BCD PUSH1 0xE5 SHL DUP2 MSTORE PUSH1 0x4 ADD PUSH2 0xB1F SWAP1 PUSH2 0x2EE2 JUMP JUMPDEST PUSH1 0x0 PUSH2 0x15D2 DUP3 PUSH2 0x15CC DUP6 DUP2 DUP10 DUP10 PUSH2 0x23C8 JUMP JUMPDEST SWAP1 PUSH2 0x23C8 JUMP JUMPDEST SWAP1 POP PUSH1 0xFA DUP2 GT ISZERO PUSH2 0x163F JUMPI PUSH1 0x40 MLOAD PUSH3 0x461BCD PUSH1 0xE5 SHL DUP2 MSTORE PUSH1 0x20 PUSH1 0x4 DUP3 ADD MSTORE PUSH1 0x31 PUSH1 0x24 DUP3 ADD MSTORE PUSH32 0x53756D206F66206275792066656573206D757374206265206C65737320746861 PUSH1 0x44 DUP3 ADD MSTORE PUSH17 0x6E206F7220657175616C20746F20323525 PUSH1 0x78 SHL PUSH1 0x64 DUP3 ADD MSTORE PUSH1 0x84 ADD PUSH2 0xB1F JUMP JUMPDEST PUSH1 0x28 SLOAD PUSH5 0x100000000 SWAP1 DIV PUSH1 0xFF AND PUSH2 0x1694 JUMPI PUSH1 0x40 MLOAD PUSH3 0x461BCD PUSH1 0xE5 SHL DUP2 MSTORE PUSH1 0x20 PUSH1 0x4 DUP3 ADD MSTORE PUSH1 0x18 PUSH1 0x24 DUP3 ADD MSTORE PUSH24 0x151A1A5CC8199D5B98DD1A5BDB881A5CC8191A58589B1959 PUSH1 0x42 SHL PUSH1 0x44 DUP3 ADD MSTORE PUSH1 0x64 ADD PUSH2 0xB1F JUMP JUMPDEST PUSH1 0xD DUP6 SWAP1 SSTORE PUSH1 0x9 DUP5 SWAP1 SSTORE PUSH1 0xF DUP4 SWAP1 SSTORE PUSH1 0xB DUP3 SWAP1 SSTORE PUSH1 0xE DUP6 SWAP1 SSTORE PUSH1 0xA DUP5 SWAP1 SSTORE PUSH1 0x10 DUP4 SWAP1 SSTORE PUSH1 0xC DUP3 SWAP1 SSTORE PUSH1 0x40 DUP1 MLOAD DUP7 DUP2 MSTORE PUSH1 0x20 DUP2 ADD DUP7 SWAP1 MSTORE SWAP1 DUP2 ADD DUP5 SWAP1 MSTORE PUSH1 0x60 DUP2 ADD DUP4 SWAP1 MSTORE PUSH32 0x892B2CAA2D791BF7B8D9A49C4DB7A4513FF1AE2E0E068ED217F9D5AB4C1A28F0 SWAP1 PUSH1 0x80 ADD JUMPDEST PUSH1 0x40 MLOAD DUP1 SWAP2 SUB SWAP1 LOG1 POP POP POP POP POP JUMP JUMPDEST PUSH1 0x0 SLOAD PUSH1 0x1 PUSH1 0x1 PUSH1 0xA0 SHL SUB AND CALLER EQ PUSH2 0x1736 JUMPI PUSH1 0x40 MLOAD PUSH3 0x461BCD PUSH1 0xE5 SHL DUP2 MSTORE PUSH1 0x4 ADD PUSH2 0xB1F SWAP1 PUSH2 0x2EE2 JUMP JUMPDEST PUSH1 0x1 PUSH1 0x1 PUSH1 0xA0 SHL SUB AND PUSH1 0x0 SWAP1 DUP2 MSTORE PUSH1 0x4 PUSH1 0x20 MSTORE PUSH1 0x40 SWAP1 KECCAK256 DUP1 SLOAD PUSH1 0xFF NOT AND SWAP1 SSTORE JUMP JUMPDEST PUSH1 0x0 SLOAD PUSH1 0x1 PUSH1 0x1 PUSH1 0xA0 SHL SUB AND CALLER EQ PUSH2 0x1781 JUMPI PUSH1 0x40 MLOAD PUSH3 0x461BCD PUSH1 0xE5 SHL DUP2 MSTORE PUSH1 0x4 ADD PUSH2 0xB1F SWAP1 PUSH2 0x2EE2 JUMP JUMPDEST PUSH1 0x1 PUSH1 0x1 PUSH1 0xA0 SHL SUB DUP2 AND PUSH2 0x17E6 JUMPI PUSH1 0x40 MLOAD PUSH3 0x461BCD PUSH1 0xE5 SHL DUP2 MSTORE PUSH1 0x20 PUSH1 0x4 DUP3 ADD MSTORE PUSH1 0x26 PUSH1 0x24 DUP3 ADD MSTORE PUSH32 0x4F776E61626C653A206E6577206F776E657220697320746865207A65726F2061 PUSH1 0x44 DUP3 ADD MSTORE PUSH6 0x646472657373 PUSH1 0xD0 SHL PUSH1 0x64 DUP3 ADD MSTORE PUSH1 0x84 ADD PUSH2 0xB1F JUMP JUMPDEST PUSH2 0x102B DUP2 PUSH2 0x2427 JUMP JUMPDEST PUSH1 0x0 SLOAD PUSH1 0x1 PUSH1 0x1 PUSH1 0xA0 SHL SUB AND CALLER EQ PUSH2 0x1819 JUMPI PUSH1 0x40 MLOAD PUSH3 0x461BCD PUSH1 0xE5 SHL DUP2 MSTORE PUSH1 0x4 ADD PUSH2 0xB1F SWAP1 PUSH2 0x2EE2 JUMP JUMPDEST PUSH1 0x0 PUSH2 0x182B DUP3 PUSH2 0x15CC DUP6 DUP2 DUP10 DUP10 PUSH2 0x23C8 JUMP JUMPDEST SWAP1 POP PUSH1 0xFA DUP2 GT ISZERO PUSH2 0x1899 JUMPI PUSH1 0x40 MLOAD PUSH3 0x461BCD PUSH1 0xE5 SHL DUP2 MSTORE PUSH1 0x20 PUSH1 0x4 DUP3 ADD MSTORE PUSH1 0x32 PUSH1 0x24 DUP3 ADD MSTORE PUSH32 0x53756D206F662073656C6C2066656573206D757374206265206C657373207468 PUSH1 0x44 DUP3 ADD MSTORE PUSH18 0x616E206F7220657175616C20746F20323525 PUSH1 0x70 SHL PUSH1 0x64 DUP3 ADD MSTORE PUSH1 0x84 ADD PUSH2 0xB1F JUMP JUMPDEST PUSH1 0x28 SLOAD PUSH5 0x100000000 SWAP1 DIV PUSH1 0xFF AND PUSH2 0x18EE JUMPI PUSH1 0x40 MLOAD PUSH3 0x461BCD PUSH1 0xE5 SHL DUP2 MSTORE PUSH1 0x20 PUSH1 0x4 DUP3 ADD MSTORE PUSH1 0x18 PUSH1 0x24 DUP3 ADD MSTORE PUSH24 0x151A1A5CC8199D5B98DD1A5BDB881A5CC8191A58589B1959 PUSH1 0x42 SHL PUSH1 0x44 DUP3 ADD MSTORE PUSH1 0x64 ADD PUSH2 0xB1F JUMP JUMPDEST PUSH1 0x15 DUP6 SWAP1 SSTORE PUSH1 0x11 DUP5 SWAP1 SSTORE PUSH1 0x17 DUP4 SWAP1 SSTORE PUSH1 0x13 DUP3 SWAP1 SSTORE PUSH1 0x16 DUP6 SWAP1 SSTORE PUSH1 0x12 DUP5 SWAP1 SSTORE PUSH1 0x18 DUP4 SWAP1 SSTORE PUSH1 0x14 DUP3 SWAP1 SSTORE PUSH1 0x40 DUP1 MLOAD DUP7 DUP2 MSTORE PUSH1 0x20 DUP2 ADD DUP7 SWAP1 MSTORE SWAP1 DUP2 ADD DUP5 SWAP1 MSTORE PUSH1 0x60 DUP2 ADD DUP4 SWAP1 MSTORE PUSH32 0x439932620C72DDDEA29980C098BCA1A482729646D1216B226D723C6D278A30D1 SWAP1 PUSH1 0x80 ADD PUSH2 0x16FD JUMP JUMPDEST PUSH1 0x0 SLOAD PUSH1 0x1 PUSH1 0x1 PUSH1 0xA0 SHL SUB AND CALLER EQ PUSH2 0x1985 JUMPI PUSH1 0x40 MLOAD PUSH3 0x461BCD PUSH1 0xE5 SHL DUP2 MSTORE PUSH1 0x4 ADD PUSH2 0xB1F SWAP1 PUSH2 0x2EE2 JUMP JUMPDEST PUSH1 0x28 SLOAD PUSH4 0x1000000 SWAP1 DIV PUSH1 0xFF AND PUSH2 0x19EF JUMPI PUSH1 0x40 MLOAD PUSH3 0x461BCD PUSH1 0xE5 SHL DUP2 MSTORE PUSH1 0x20 PUSH1 0x4 DUP3 ADD MSTORE PUSH1 0x28 PUSH1 0x24 DUP3 ADD MSTORE PUSH32 0x7468697320636F6E74726163742063616E6E6F7420626C61636B6C6973742061 PUSH1 0x44 DUP3 ADD MSTORE PUSH8 0x6464726573736573 PUSH1 0xC0 SHL PUSH1 0x64 DUP3 ADD MSTORE PUSH1 0x84 ADD PUSH2 0xB1F JUMP JUMPDEST PUSH1 0x1 PUSH1 0x1 PUSH1 0xA0 SHL SUB AND PUSH1 0x0 SWAP1 DUP2 MSTORE PUSH1 0x20 DUP1 MSTORE PUSH1 0x40 SWAP1 KECCAK256 DUP1 SLOAD PUSH1 0xFF NOT AND PUSH1 0x1 OR SWAP1 SSTORE JUMP JUMPDEST PUSH1 0x1 PUSH1 0x1 PUSH1 0xA0 SHL SUB DUP4 AND PUSH2 0x1A74 JUMPI PUSH1 0x40 MLOAD PUSH3 0x461BCD PUSH1 0xE5 SHL DUP2 MSTORE PUSH1 0x20 PUSH1 0x4 DUP3 ADD MSTORE PUSH1 0x24 DUP1 DUP3 ADD MSTORE PUSH32 0x45524332303A20617070726F76652066726F6D20746865207A65726F20616464 PUSH1 0x44 DUP3 ADD MSTORE PUSH4 0x72657373 PUSH1 0xE0 SHL PUSH1 0x64 DUP3 ADD MSTORE PUSH1 0x84 ADD PUSH2 0xB1F JUMP JUMPDEST PUSH1 0x1 PUSH1 0x1 PUSH1 0xA0 SHL SUB DUP3 AND PUSH2 0x1AD5 JUMPI PUSH1 0x40 MLOAD PUSH3 0x461BCD PUSH1 0xE5 SHL DUP2 MSTORE PUSH1 0x20 PUSH1 0x4 DUP3 ADD MSTORE PUSH1 0x22 PUSH1 0x24 DUP3 ADD MSTORE PUSH32 0x45524332303A20617070726F766520746F20746865207A65726F206164647265 PUSH1 0x44 DUP3 ADD MSTORE PUSH2 0x7373 PUSH1 0xF0 SHL PUSH1 0x64 DUP3 ADD MSTORE PUSH1 0x84 ADD PUSH2 0xB1F JUMP JUMPDEST PUSH1 0x1 PUSH1 0x1 PUSH1 0xA0 SHL SUB DUP4 DUP2 AND PUSH1 0x0 DUP2 DUP2 MSTORE PUSH1 0x3 PUSH1 0x20 SWAP1 DUP2 MSTORE PUSH1 0x40 DUP1 DUP4 KECCAK256 SWAP5 DUP8 AND DUP1 DUP5 MSTORE SWAP5 DUP3 MSTORE SWAP2 DUP3 SWAP1 KECCAK256 DUP6 SWAP1 SSTORE SWAP1 MLOAD DUP5 DUP2 MSTORE PUSH32 0x8C5BE1E5EBEC7D5BD14F71427D1E84F3DD0314C0F7B2291E5B200AC8C7C3B925 SWAP2 ADD PUSH1 0x40 MLOAD DUP1 SWAP2 SUB SWAP1 LOG3 POP POP POP JUMP JUMPDEST PUSH1 0x1 PUSH1 0x1 PUSH1 0xA0 SHL SUB DUP4 AND PUSH2 0x1B9A JUMPI PUSH1 0x40 MLOAD PUSH3 0x461BCD PUSH1 0xE5 SHL DUP2 MSTORE PUSH1 0x20 PUSH1 0x4 DUP3 ADD MSTORE PUSH1 0x25 PUSH1 0x24 DUP3 ADD MSTORE PUSH32 0x45524332303A207472616E736665722066726F6D20746865207A65726F206164 PUSH1 0x44 DUP3 ADD MSTORE PUSH5 0x6472657373 PUSH1 0xD8 SHL PUSH1 0x64 DUP3 ADD MSTORE PUSH1 0x84 ADD PUSH2 0xB1F JUMP JUMPDEST PUSH1 0x1 PUSH1 0x1 PUSH1 0xA0 SHL SUB DUP3 AND PUSH2 0x1BFC JUMPI PUSH1 0x40 MLOAD PUSH3 0x461BCD PUSH1 0xE5 SHL DUP2 MSTORE PUSH1 0x20 PUSH1 0x4 DUP3 ADD MSTORE PUSH1 0x23 PUSH1 0x24 DUP3 ADD MSTORE PUSH32 0x45524332303A207472616E7366657220746F20746865207A65726F2061646472 PUSH1 0x44 DUP3 ADD MSTORE PUSH3 0x657373 PUSH1 0xE8 SHL PUSH1 0x64 DUP3 ADD MSTORE PUSH1 0x84 ADD PUSH2 0xB1F JUMP JUMPDEST PUSH1 0x0 DUP2 GT PUSH2 0x1C5E JUMPI PUSH1 0x40 MLOAD PUSH3 0x461BCD PUSH1 0xE5 SHL DUP2 MSTORE PUSH1 0x20 PUSH1 0x4 DUP3 ADD MSTORE PUSH1 0x29 PUSH1 0x24 DUP3 ADD MSTORE PUSH32 0x5472616E7366657220616D6F756E74206D757374206265206772656174657220 PUSH1 0x44 DUP3 ADD MSTORE PUSH9 0x7468616E207A65726F PUSH1 0xB8 SHL PUSH1 0x64 DUP3 ADD MSTORE PUSH1 0x84 ADD PUSH2 0xB1F JUMP JUMPDEST PUSH1 0x1 PUSH2 0x1C72 PUSH1 0x0 SLOAD PUSH1 0x1 PUSH1 0x1 PUSH1 0xA0 SHL SUB AND SWAP1 JUMP JUMPDEST PUSH1 0x1 PUSH1 0x1 PUSH1 0xA0 SHL SUB AND DUP5 PUSH1 0x1 PUSH1 0x1 PUSH1 0xA0 SHL SUB AND EQ ISZERO DUP1 ISZERO PUSH2 0x1CA1 JUMPI POP PUSH1 0x0 SLOAD PUSH1 0x1 PUSH1 0x1 PUSH1 0xA0 SHL SUB DUP5 DUP2 AND SWAP2 AND EQ ISZERO JUMPDEST DUP1 ISZERO PUSH2 0x1CB6 JUMPI POP PUSH1 0x1 PUSH1 0x1 PUSH1 0xA0 SHL SUB DUP5 AND ADDRESS EQ ISZERO JUMPDEST DUP1 ISZERO PUSH2 0x1CCB JUMPI POP PUSH1 0x1 PUSH1 0x1 PUSH1 0xA0 SHL SUB DUP4 AND ADDRESS EQ ISZERO JUMPDEST ISZERO PUSH2 0x208B JUMPI PUSH1 0x28 SLOAD PUSH1 0xFF AND PUSH2 0x1D1A JUMPI PUSH1 0x40 MLOAD PUSH3 0x461BCD PUSH1 0xE5 SHL DUP2 MSTORE PUSH1 0x20 PUSH1 0x4 DUP3 ADD MSTORE PUSH1 0x15 PUSH1 0x24 DUP3 ADD MSTORE PUSH21 0x54726164696E67206973206E6F7420616374697665 PUSH1 0x58 SHL PUSH1 0x44 DUP3 ADD MSTORE PUSH1 0x64 ADD PUSH2 0xB1F JUMP JUMPDEST PUSH1 0x26 SLOAD PUSH1 0x1 PUSH1 0x1 PUSH1 0xA0 SHL SUB DUP6 DUP2 AND SWAP2 AND EQ DUP1 ISZERO PUSH2 0x1D45 JUMPI POP PUSH1 0x25 SLOAD PUSH1 0x1 PUSH1 0x1 PUSH1 0xA0 SHL SUB DUP5 DUP2 AND SWAP2 AND EQ ISZERO JUMPDEST ISZERO PUSH2 0x1DC6 JUMPI PUSH1 0x6 SLOAD PUSH1 0x5 SLOAD PUSH2 0x1D59 SWAP2 PUSH2 0x23C8 JUMP JUMPDEST TIMESTAMP GT PUSH2 0x1D82 JUMPI PUSH1 0x1 PUSH1 0x1 PUSH1 0xA0 SHL SUB DUP4 AND PUSH1 0x0 SWAP1 DUP2 MSTORE PUSH1 0x20 DUP1 MSTORE PUSH1 0x40 SWAP1 KECCAK256 DUP1 SLOAD PUSH1 0xFF NOT AND PUSH1 0x1 OR SWAP1 SSTORE JUMPDEST PUSH1 0x7 SLOAD PUSH2 0x1DA8 DUP4 PUSH2 0x15CC DUP7 PUSH1 0x1 PUSH1 0x1 PUSH1 0xA0 SHL SUB AND PUSH1 0x0 SWAP1 DUP2 MSTORE PUSH1 0x2 PUSH1 0x20 MSTORE PUSH1 0x40 SWAP1 KECCAK256 SLOAD SWAP1 JUMP JUMPDEST GT ISZERO PUSH2 0x1DC6 JUMPI PUSH1 0x40 MLOAD PUSH3 0x461BCD PUSH1 0xE5 SHL DUP2 MSTORE PUSH1 0x4 ADD PUSH2 0xB1F SWAP1 PUSH2 0x2E7B JUMP JUMPDEST PUSH1 0x28 SLOAD PUSH2 0x100 SWAP1 DIV PUSH1 0xFF AND ISZERO DUP1 ISZERO PUSH2 0x1DEC JUMPI POP PUSH1 0x26 SLOAD PUSH1 0x1 PUSH1 0x1 PUSH1 0xA0 SHL SUB DUP6 DUP2 AND SWAP2 AND EQ ISZERO JUMPDEST DUP1 ISZERO PUSH2 0x1E05 JUMPI POP PUSH1 0x26 SLOAD PUSH1 0x1 PUSH1 0x1 PUSH1 0xA0 SHL SUB DUP5 DUP2 AND SWAP2 AND EQ JUMPDEST ISZERO PUSH2 0x2016 JUMPI PUSH1 0x1 PUSH1 0x1 PUSH1 0xA0 SHL SUB DUP5 AND PUSH1 0x0 SWAP1 DUP2 MSTORE PUSH1 0x20 DUP1 MSTORE PUSH1 0x40 SWAP1 KECCAK256 SLOAD PUSH1 0xFF AND ISZERO DUP1 ISZERO PUSH2 0x1E4A JUMPI POP PUSH1 0x1 PUSH1 0x1 PUSH1 0xA0 SHL SUB DUP4 AND PUSH1 0x0 SWAP1 DUP2 MSTORE PUSH1 0x20 DUP1 MSTORE PUSH1 0x40 SWAP1 KECCAK256 SLOAD PUSH1 0xFF AND ISZERO JUMPDEST PUSH2 0x1E53 JUMPI PUSH1 0x0 DUP1 REVERT JUMPDEST PUSH1 0x1A SLOAD PUSH1 0xFF AND ISZERO PUSH2 0x1EF8 JUMPI PUSH1 0x1 PUSH1 0x1 PUSH1 0xA0 SHL SUB DUP5 AND PUSH1 0x0 SWAP1 DUP2 MSTORE PUSH1 0x1B PUSH1 0x20 MSTORE PUSH1 0x40 SWAP1 KECCAK256 SLOAD TIMESTAMP LT ISZERO PUSH2 0x1EC6 JUMPI PUSH1 0x40 MLOAD PUSH3 0x461BCD PUSH1 0xE5 SHL DUP2 MSTORE PUSH1 0x20 PUSH1 0x4 DUP3 ADD MSTORE PUSH1 0x1C PUSH1 0x24 DUP3 ADD MSTORE PUSH32 0x5374726F6E672048616E64732050726F746F636F6C2061637469766500000000 PUSH1 0x44 DUP3 ADD MSTORE PUSH1 0x64 ADD PUSH2 0xB1F JUMP JUMPDEST PUSH1 0x1A SLOAD PUSH2 0x1EDE SWAP1 PUSH2 0x100 SWAP1 DIV PUSH4 0xFFFFFFFF AND TIMESTAMP PUSH2 0x2F87 JUMP JUMPDEST PUSH1 0x1 PUSH1 0x1 PUSH1 0xA0 SHL SUB DUP6 AND PUSH1 0x0 SWAP1 DUP2 MSTORE PUSH1 0x1B PUSH1 0x20 MSTORE PUSH1 0x40 SWAP1 KECCAK256 SSTORE JUMPDEST PUSH1 0x1C SLOAD PUSH1 0xFF AND ISZERO PUSH2 0x1F5E JUMPI PUSH1 0x1E SLOAD PUSH1 0xFF AND ISZERO PUSH2 0x1F56 JUMPI PUSH1 0x40 MLOAD PUSH3 0x461BCD PUSH1 0xE5 SHL DUP2 MSTORE PUSH1 0x20 PUSH1 0x4 DUP3 ADD MSTORE PUSH1 0x1E PUSH1 0x24 DUP3 ADD MSTORE PUSH32 0x53656C6C732073746F70706564206279204469616D6F6E6420466C6F6F720000 PUSH1 0x44 DUP3 ADD MSTORE PUSH1 0x64 ADD PUSH2 0xB1F JUMP JUMPDEST PUSH2 0x1F5E PUSH2 0x2477 JUMP JUMPDEST ADDRESS PUSH1 0x0 SWAP1 DUP2 MSTORE PUSH1 0x2 PUSH1 0x20 MSTORE PUSH1 0x40 SWAP1 KECCAK256 SLOAD PUSH1 0x8 SLOAD DUP2 LT PUSH2 0x2014 JUMPI DUP1 ISZERO PUSH2 0x2002 JUMPI PUSH1 0x0 PUSH2 0x1FA2 PUSH1 0x11 SLOAD PUSH2 0x15CC PUSH1 0x13 SLOAD PUSH2 0x15CC PUSH1 0x17 SLOAD PUSH1 0x15 SLOAD PUSH2 0x23C8 SWAP1 SWAP2 SWAP1 PUSH4 0xFFFFFFFF AND JUMP JUMPDEST GT ISZERO PUSH2 0x2002 JUMPI PUSH1 0x0 PUSH2 0x1FDD PUSH2 0x1FD0 PUSH1 0x11 SLOAD PUSH2 0x15CC PUSH1 0x13 SLOAD PUSH2 0x15CC PUSH1 0x17 SLOAD PUSH1 0x15 SLOAD PUSH2 0x23C8 SWAP1 SWAP2 SWAP1 PUSH4 0xFFFFFFFF AND JUMP JUMPDEST PUSH1 0x11 SLOAD PUSH2 0x12AD SWAP1 DUP6 PUSH2 0x2168 JUMP JUMPDEST SWAP1 POP PUSH1 0x0 DUP2 DUP4 LT PUSH2 0x1FF5 JUMPI PUSH2 0x1FF2 DUP4 DUP4 PUSH2 0x21E7 JUMP JUMPDEST SWAP1 POP JUMPDEST PUSH2 0x1FFF DUP3 DUP3 PUSH2 0x2526 JUMP JUMPDEST POP POP JUMPDEST SELFBALANCE DUP1 ISZERO PUSH2 0x2012 JUMPI PUSH2 0x2012 SELFBALANCE PUSH2 0x2599 JUMP JUMPDEST POP JUMPDEST POP JUMPDEST PUSH1 0x26 SLOAD PUSH1 0x1 PUSH1 0x1 PUSH1 0xA0 SHL SUB DUP6 DUP2 AND SWAP2 AND EQ DUP1 ISZERO SWAP1 PUSH2 0x2042 JUMPI POP PUSH1 0x26 SLOAD PUSH1 0x1 PUSH1 0x1 PUSH1 0xA0 SHL SUB DUP5 DUP2 AND SWAP2 AND EQ ISZERO JUMPDEST ISZERO PUSH2 0x208B JUMPI PUSH1 0x7 SLOAD PUSH2 0x206D DUP4 PUSH2 0x15CC DUP7 PUSH1 0x1 PUSH1 0x1 PUSH1 0xA0 SHL SUB AND PUSH1 0x0 SWAP1 DUP2 MSTORE PUSH1 0x2 PUSH1 0x20 MSTORE PUSH1 0x40 SWAP1 KECCAK256 SLOAD SWAP1 JUMP JUMPDEST GT ISZERO PUSH2 0x208B JUMPI PUSH1 0x40 MLOAD PUSH3 0x461BCD PUSH1 0xE5 SHL DUP2 MSTORE PUSH1 0x4 ADD PUSH2 0xB1F SWAP1 PUSH2 0x2E7B JUMP JUMPDEST PUSH1 0x1 PUSH1 0x1 PUSH1 0xA0 SHL SUB DUP5 AND PUSH1 0x0 SWAP1 DUP2 MSTORE PUSH1 0x4 PUSH1 0x20 MSTORE PUSH1 0x40 SWAP1 KECCAK256 SLOAD PUSH1 0xFF AND DUP1 PUSH2 0x20CA JUMPI POP PUSH1 0x1 PUSH1 0x1 PUSH1 0xA0 SHL SUB DUP4 AND PUSH1 0x0 SWAP1 DUP2 MSTORE PUSH1 0x4 PUSH1 0x20 MSTORE PUSH1 0x40 SWAP1 KECCAK256 SLOAD PUSH1 0xFF AND JUMPDEST ISZERO PUSH2 0x20D3 JUMPI POP PUSH1 0x0 JUMPDEST PUSH2 0x20DF DUP5 DUP5 DUP5 DUP5 PUSH2 0x26D9 JUMP JUMPDEST POP POP POP POP JUMP JUMPDEST PUSH1 0x0 DUP2 DUP5 DUP5 GT ISZERO PUSH2 0x2109 JUMPI PUSH1 0x40 MLOAD PUSH3 0x461BCD PUSH1 0xE5 SHL DUP2 MSTORE PUSH1 0x4 ADD PUSH2 0xB1F SWAP2 SWAP1 PUSH2 0x2E28 JUMP JUMPDEST POP PUSH1 0x0 PUSH2 0x2116 DUP5 DUP7 PUSH2 0x2FFE JUMP JUMPDEST SWAP6 SWAP5 POP POP POP POP POP JUMP JUMPDEST PUSH1 0x0 PUSH2 0x2161 DUP4 DUP4 PUSH1 0x40 MLOAD DUP1 PUSH1 0x40 ADD PUSH1 0x40 MSTORE DUP1 PUSH1 0x1A DUP2 MSTORE PUSH1 0x20 ADD PUSH32 0x536166654D6174683A206469766973696F6E206279207A65726F000000000000 DUP2 MSTORE POP PUSH2 0x2777 JUMP JUMPDEST SWAP4 SWAP3 POP POP POP JUMP JUMPDEST PUSH1 0x0 DUP3 PUSH2 0x2177 JUMPI POP PUSH1 0x0 PUSH2 0xAEF JUMP JUMPDEST PUSH1 0x0 PUSH2 0x2183 DUP4 DUP6 PUSH2 0x2FB3 JUMP JUMPDEST SWAP1 POP DUP3 PUSH2 0x2190 DUP6 DUP4 PUSH2 0x2F9F JUMP JUMPDEST EQ PUSH2 0x2161 JUMPI PUSH1 0x40 MLOAD PUSH3 0x461BCD PUSH1 0xE5 SHL DUP2 MSTORE PUSH1 0x20 PUSH1 0x4 DUP3 ADD MSTORE PUSH1 0x21 PUSH1 0x24 DUP3 ADD MSTORE PUSH32 0x536166654D6174683A206D756C7469706C69636174696F6E206F766572666C6F PUSH1 0x44 DUP3 ADD MSTORE PUSH1 0x77 PUSH1 0xF8 SHL PUSH1 0x64 DUP3 ADD MSTORE PUSH1 0x84 ADD PUSH2 0xB1F JUMP JUMPDEST PUSH1 0x0 PUSH2 0x2161 DUP4 DUP4 PUSH1 0x40 MLOAD DUP1 PUSH1 0x40 ADD PUSH1 0x40 MSTORE DUP1 PUSH1 0x1E DUP2 MSTORE PUSH1 0x20 ADD PUSH32 0x536166654D6174683A207375627472616374696F6E206F766572666C6F770000 DUP2 MSTORE POP PUSH2 0x20E5 JUMP JUMPDEST PUSH1 0x28 DUP1 SLOAD PUSH2 0xFF00 NOT AND PUSH2 0x100 OR SWAP1 SSTORE PUSH1 0x40 DUP1 MLOAD PUSH1 0x2 DUP1 DUP3 MSTORE PUSH1 0x60 DUP3 ADD DUP4 MSTORE PUSH1 0x0 SWAP3 PUSH1 0x20 DUP4 ADD SWAP1 DUP1 CALLDATASIZE DUP4 CALLDATACOPY ADD SWAP1 POP POP SWAP1 POP ADDRESS DUP2 PUSH1 0x0 DUP2 MLOAD DUP2 LT PUSH2 0x227B JUMPI PUSH4 0x4E487B71 PUSH1 0xE0 SHL PUSH1 0x0 MSTORE PUSH1 0x32 PUSH1 0x4 MSTORE PUSH1 0x24 PUSH1 0x0 REVERT JUMPDEST PUSH1 0x1 PUSH1 0x1 PUSH1 0xA0 SHL SUB SWAP3 DUP4 AND PUSH1 0x20 SWAP2 DUP3 MUL SWAP3 SWAP1 SWAP3 ADD DUP2 ADD SWAP2 SWAP1 SWAP2 MSTORE PUSH1 0x25 SLOAD PUSH1 0x40 DUP1 MLOAD PUSH4 0x15AB88C9 PUSH1 0xE3 SHL DUP2 MSTORE SWAP1 MLOAD SWAP2 SWAP1 SWAP4 AND SWAP3 PUSH4 0xAD5C4648 SWAP3 PUSH1 0x4 DUP1 DUP4 ADD SWAP4 SWAP2 SWAP3 DUP3 SWAP1 SUB ADD DUP2 DUP7 DUP1 EXTCODESIZE ISZERO DUP1 ISZERO PUSH2 0x22CF JUMPI PUSH1 0x0 DUP1 REVERT JUMPDEST POP GAS STATICCALL ISZERO DUP1 ISZERO PUSH2 0x22E3 JUMPI RETURNDATASIZE PUSH1 0x0 DUP1 RETURNDATACOPY RETURNDATASIZE PUSH1 0x0 REVERT JUMPDEST POP POP POP POP PUSH1 0x40 MLOAD RETURNDATASIZE PUSH1 0x1F NOT PUSH1 0x1F DUP3 ADD AND DUP3 ADD DUP1 PUSH1 0x40 MSTORE POP DUP2 ADD SWAP1 PUSH2 0x2307 SWAP2 SWAP1 PUSH2 0x2C4C JUMP JUMPDEST DUP2 PUSH1 0x1 DUP2 MLOAD DUP2 LT PUSH2 0x2328 JUMPI PUSH4 0x4E487B71 PUSH1 0xE0 SHL PUSH1 0x0 MSTORE PUSH1 0x32 PUSH1 0x4 MSTORE PUSH1 0x24 PUSH1 0x0 REVERT JUMPDEST PUSH1 0x1 PUSH1 0x1 PUSH1 0xA0 SHL SUB SWAP3 DUP4 AND PUSH1 0x20 SWAP2 DUP3 MUL SWAP3 SWAP1 SWAP3 ADD ADD MSTORE PUSH1 0x25 SLOAD PUSH2 0x234E SWAP2 ADDRESS SWAP2 AND DUP5 PUSH2 0x1A12 JUMP JUMPDEST PUSH1 0x25 SLOAD PUSH1 0x40 MLOAD PUSH4 0x791AC947 PUSH1 0xE0 SHL DUP2 MSTORE PUSH1 0x1 PUSH1 0x1 PUSH1 0xA0 SHL SUB SWAP1 SWAP2 AND SWAP1 PUSH4 0x791AC947 SWAP1 PUSH2 0x2387 SWAP1 DUP6 SWAP1 PUSH1 0x0 SWAP1 DUP7 SWAP1 ADDRESS SWAP1 TIMESTAMP SWAP1 PUSH1 0x4 ADD PUSH2 0x2F17 JUMP JUMPDEST PUSH1 0x0 PUSH1 0x40 MLOAD DUP1 DUP4 SUB DUP2 PUSH1 0x0 DUP8 DUP1 EXTCODESIZE ISZERO DUP1 ISZERO PUSH2 0x23A1 JUMPI PUSH1 0x0 DUP1 REVERT JUMPDEST POP GAS CALL ISZERO DUP1 ISZERO PUSH2 0x23B5 JUMPI RETURNDATASIZE PUSH1 0x0 DUP1 RETURNDATACOPY RETURNDATASIZE PUSH1 0x0 REVERT JUMPDEST POP POP PUSH1 0x28 DUP1 SLOAD PUSH2 0xFF00 NOT AND SWAP1 SSTORE POP POP POP POP JUMP JUMPDEST PUSH1 0x0 DUP1 PUSH2 0x23D5 DUP4 DUP6 PUSH2 0x2F87 JUMP JUMPDEST SWAP1 POP DUP4 DUP2 LT ISZERO PUSH2 0x2161 JUMPI PUSH1 0x40 MLOAD PUSH3 0x461BCD PUSH1 0xE5 SHL DUP2 MSTORE PUSH1 0x20 PUSH1 0x4 DUP3 ADD MSTORE PUSH1 0x1B PUSH1 0x24 DUP3 ADD MSTORE PUSH32 0x536166654D6174683A206164646974696F6E206F766572666C6F770000000000 PUSH1 0x44 DUP3 ADD MSTORE PUSH1 0x64 ADD PUSH2 0xB1F JUMP JUMPDEST PUSH1 0x0 DUP1 SLOAD PUSH1 0x1 PUSH1 0x1 PUSH1 0xA0 SHL SUB DUP4 DUP2 AND PUSH1 0x1 PUSH1 0x1 PUSH1 0xA0 SHL SUB NOT DUP4 AND DUP2 OR DUP5 SSTORE PUSH1 0x40 MLOAD SWAP2 SWAP1 SWAP3 AND SWAP3 DUP4 SWAP2 PUSH32 0x8BE0079C531659141344CD1FD0A4F28419497F9722A3DAAFE3B4186F6B6457E0 SWAP2 SWAP1 LOG3 POP POP JUMP JUMPDEST PUSH1 0x0 PUSH2 0x2481 PUSH2 0x1143 JUMP JUMPDEST SWAP1 POP DUP1 PUSH2 0x248B JUMPI POP JUMP JUMPDEST PUSH1 0x1D SLOAD DUP2 GT ISZERO PUSH2 0x24A4 JUMPI PUSH1 0x1D SSTORE PUSH1 0x1E DUP1 SLOAD PUSH1 0xFF NOT AND SWAP1 SSTORE JUMP JUMPDEST PUSH1 0x1C SLOAD PUSH1 0x1D SLOAD PUSH1 0x0 SWAP2 PUSH2 0x24D4 SWAP2 PUSH2 0x3E8 SWAP2 PUSH2 0x12AD SWAP2 PUSH2 0x100 SWAP1 SWAP2 DIV PUSH2 0xFFFF AND SWAP1 PUSH2 0x24CE SWAP1 DUP5 PUSH2 0x2168 JUMP JUMPDEST SWAP1 PUSH2 0x21E7 JUMP JUMPDEST SWAP1 POP DUP1 DUP3 LT ISZERO PUSH2 0x24F2 JUMPI PUSH1 0x1E DUP1 SLOAD PUSH1 0xFF NOT AND PUSH1 0x1 OR SWAP1 SSTORE PUSH1 0x1D SLOAD PUSH1 0x1F SSTORE JUMPDEST PUSH1 0x1E SLOAD PUSH1 0xFF AND DUP1 ISZERO PUSH2 0x2511 JUMPI POP PUSH1 0x1F SLOAD PUSH2 0x250D SWAP1 PUSH1 0x2 PUSH2 0x2168 JUMP JUMPDEST DUP3 LT ISZERO JUMPDEST ISZERO PUSH2 0x1029 JUMPI POP PUSH1 0x1E DUP1 SLOAD PUSH1 0xFF NOT AND SWAP1 SSTORE PUSH1 0x1D SSTORE JUMP JUMPDEST PUSH1 0x28 DUP1 SLOAD PUSH2 0xFF00 NOT AND PUSH2 0x100 OR SWAP1 SSTORE PUSH1 0x0 PUSH2 0x2542 DUP4 PUSH1 0x2 PUSH2 0x211F JUMP JUMPDEST SWAP1 POP PUSH1 0x0 PUSH2 0x2550 DUP5 DUP4 PUSH2 0x21E7 JUMP JUMPDEST SWAP1 POP SELFBALANCE PUSH2 0x2565 PUSH2 0x2560 DUP6 DUP6 PUSH2 0x23C8 JUMP JUMPDEST PUSH2 0x2229 JUMP JUMPDEST PUSH1 0x0 PUSH2 0x2571 SELFBALANCE DUP4 PUSH2 0x21E7 JUMP JUMPDEST SWAP1 POP DUP3 ISZERO PUSH2 0x23B5 JUMPI PUSH2 0x23B5 DUP4 PUSH2 0x2594 PUSH2 0x258A DUP9 DUP9 PUSH2 0x23C8 JUMP JUMPDEST PUSH2 0x12AD DUP6 DUP10 PUSH2 0x2168 JUMP JUMPDEST PUSH2 0x27A5 JUMP JUMPDEST PUSH1 0x0 PUSH2 0x25B8 PUSH1 0x17 SLOAD PUSH2 0x15CC PUSH1 0x13 SLOAD PUSH1 0x15 SLOAD PUSH2 0x23C8 SWAP1 SWAP2 SWAP1 PUSH4 0xFFFFFFFF AND JUMP JUMPDEST SWAP1 POP DUP1 ISZERO PUSH2 0x1029 JUMPI PUSH1 0x0 PUSH2 0x25DB DUP3 PUSH2 0x12AD PUSH1 0x15 SLOAD DUP7 PUSH2 0x2168 SWAP1 SWAP2 SWAP1 PUSH4 0xFFFFFFFF AND JUMP JUMPDEST SWAP1 POP PUSH1 0x0 PUSH2 0x25F8 DUP4 PUSH2 0x12AD PUSH1 0x17 SLOAD DUP8 PUSH2 0x2168 SWAP1 SWAP2 SWAP1 PUSH4 0xFFFFFFFF AND JUMP JUMPDEST SWAP1 POP PUSH1 0x0 PUSH2 0x260A DUP3 PUSH2 0x24CE DUP8 DUP7 PUSH2 0x21E7 JUMP JUMPDEST SWAP1 POP DUP3 ISZERO PUSH2 0x264E JUMPI PUSH1 0x21 SLOAD PUSH1 0x40 MLOAD PUSH1 0x1 PUSH1 0x1 PUSH1 0xA0 SHL SUB SWAP1 SWAP2 AND SWAP1 DUP5 ISZERO PUSH2 0x8FC MUL SWAP1 DUP6 SWAP1 PUSH1 0x0 DUP2 DUP2 DUP2 DUP6 DUP9 DUP9 CALL SWAP4 POP POP POP POP ISZERO DUP1 ISZERO PUSH2 0x264C JUMPI RETURNDATASIZE PUSH1 0x0 DUP1 RETURNDATACOPY RETURNDATASIZE PUSH1 0x0 REVERT JUMPDEST POP JUMPDEST DUP2 ISZERO PUSH2 0x2690 JUMPI PUSH1 0x22 SLOAD PUSH1 0x40 MLOAD PUSH1 0x1 PUSH1 0x1 PUSH1 0xA0 SHL SUB SWAP1 SWAP2 AND SWAP1 DUP4 ISZERO PUSH2 0x8FC MUL SWAP1 DUP5 SWAP1 PUSH1 0x0 DUP2 DUP2 DUP2 DUP6 DUP9 DUP9 CALL SWAP4 POP POP POP POP ISZERO DUP1 ISZERO PUSH2 0x268E JUMPI RETURNDATASIZE PUSH1 0x0 DUP1 RETURNDATACOPY RETURNDATASIZE PUSH1 0x0 REVERT JUMPDEST POP JUMPDEST DUP1 ISZERO PUSH2 0x26D2 JUMPI PUSH1 0x23 SLOAD PUSH1 0x40 MLOAD PUSH1 0x1 PUSH1 0x1 PUSH1 0xA0 SHL SUB SWAP1 SWAP2 AND SWAP1 DUP3 ISZERO PUSH2 0x8FC MUL SWAP1 DUP4 SWAP1 PUSH1 0x0 DUP2 DUP2 DUP2 DUP6 DUP9 DUP9 CALL SWAP4 POP POP POP POP ISZERO DUP1 ISZERO PUSH2 0x26D0 JUMPI RETURNDATASIZE PUSH1 0x0 DUP1 RETURNDATACOPY RETURNDATASIZE PUSH1 0x0 REVERT JUMPDEST POP JUMPDEST POP POP POP POP POP JUMP JUMPDEST DUP1 PUSH2 0x2737 JUMPI PUSH2 0x2737 PUSH1 0xD DUP1 SLOAD PUSH1 0xE SSTORE PUSH1 0x9 DUP1 SLOAD PUSH1 0xA SSTORE PUSH1 0xF DUP1 SLOAD PUSH1 0x10 SSTORE PUSH1 0xB DUP1 SLOAD PUSH1 0xC SSTORE PUSH1 0x0 SWAP4 DUP5 SWAP1 SSTORE SWAP2 DUP4 SWAP1 SSTORE DUP3 SWAP1 SSTORE DUP2 SWAP1 SSTORE PUSH1 0x15 DUP1 SLOAD PUSH1 0x16 SSTORE PUSH1 0x11 DUP1 SLOAD PUSH1 0x12 SSTORE PUSH1 0x17 DUP1 SLOAD PUSH1 0x18 SSTORE PUSH1 0x13 DUP1 SLOAD PUSH1 0x14 SSTORE SWAP3 DUP5 SWAP1 SSTORE SWAP1 DUP4 SWAP1 SSTORE DUP3 SWAP1 SSTORE SSTORE JUMP JUMPDEST PUSH2 0x2742 DUP5 DUP5 DUP5 PUSH2 0x2862 JUMP JUMPDEST PUSH2 0x20DF PUSH1 0xE SLOAD PUSH1 0xD SSTORE PUSH1 0xA SLOAD PUSH1 0x9 SSTORE PUSH1 0x10 SLOAD PUSH1 0xF SSTORE PUSH1 0xC SLOAD PUSH1 0xB SSTORE PUSH1 0x16 SLOAD PUSH1 0x15 SSTORE PUSH1 0x12 SLOAD PUSH1 0x11 SSTORE PUSH1 0x18 SLOAD PUSH1 0x17 SSTORE PUSH1 0x14 SLOAD PUSH1 0x13 SSTORE JUMP JUMPDEST PUSH1 0x0 DUP2 DUP4 PUSH2 0x2798 JUMPI PUSH1 0x40 MLOAD PUSH3 0x461BCD PUSH1 0xE5 SHL DUP2 MSTORE PUSH1 0x4 ADD PUSH2 0xB1F SWAP2 SWAP1 PUSH2 0x2E28 JUMP JUMPDEST POP PUSH1 0x0 PUSH2 0x2116 DUP5 DUP7 PUSH2 0x2F9F JUMP JUMPDEST PUSH1 0x25 SLOAD PUSH2 0x27BD SWAP1 ADDRESS SWAP1 PUSH1 0x1 PUSH1 0x1 PUSH1 0xA0 SHL SUB AND DUP5 PUSH2 0x1A12 JUMP JUMPDEST PUSH1 0x25 SLOAD PUSH1 0x24 DUP1 SLOAD PUSH1 0x40 MLOAD PUSH4 0xF305D719 PUSH1 0xE0 SHL DUP2 MSTORE ADDRESS PUSH1 0x4 DUP3 ADD MSTORE SWAP2 DUP3 ADD DUP6 SWAP1 MSTORE PUSH1 0x0 PUSH1 0x44 DUP4 ADD DUP2 SWAP1 MSTORE PUSH1 0x64 DUP4 ADD MSTORE PUSH1 0x1 PUSH1 0x1 PUSH1 0xA0 SHL SUB SWAP1 DUP2 AND PUSH1 0x84 DUP4 ADD MSTORE TIMESTAMP PUSH1 0xA4 DUP4 ADD MSTORE SWAP1 SWAP2 AND SWAP1 PUSH4 0xF305D719 SWAP1 DUP4 SWAP1 PUSH1 0xC4 ADD PUSH1 0x60 PUSH1 0x40 MLOAD DUP1 DUP4 SUB DUP2 DUP6 DUP9 DUP1 EXTCODESIZE ISZERO DUP1 ISZERO PUSH2 0x2829 JUMPI PUSH1 0x0 DUP1 REVERT JUMPDEST POP GAS CALL ISZERO DUP1 ISZERO PUSH2 0x283D JUMPI RETURNDATASIZE PUSH1 0x0 DUP1 RETURNDATACOPY RETURNDATASIZE PUSH1 0x0 REVERT JUMPDEST POP POP POP POP POP PUSH1 0x40 MLOAD RETURNDATASIZE PUSH1 0x1F NOT PUSH1 0x1F DUP3 ADD AND DUP3 ADD DUP1 PUSH1 0x40 MSTORE POP DUP2 ADD SWAP1 PUSH2 0x26D2 SWAP2 SWAP1 PUSH2 0x2DCA JUMP JUMPDEST PUSH2 0x2894 PUSH1 0x40 MLOAD DUP1 PUSH1 0xA0 ADD PUSH1 0x40 MSTORE DUP1 PUSH1 0x0 DUP2 MSTORE PUSH1 0x20 ADD PUSH1 0x0 DUP2 MSTORE PUSH1 0x20 ADD PUSH1 0x0 DUP2 MSTORE PUSH1 0x20 ADD PUSH1 0x0 DUP2 MSTORE PUSH1 0x20 ADD PUSH1 0x0 DUP2 MSTORE POP SWAP1 JUMP JUMPDEST PUSH1 0x26 SLOAD PUSH1 0x1 PUSH1 0x1 PUSH1 0xA0 SHL SUB DUP6 DUP2 AND SWAP2 AND EQ DUP1 ISZERO PUSH2 0x28BF JUMPI POP PUSH1 0x25 SLOAD PUSH1 0x1 PUSH1 0x1 PUSH1 0xA0 SHL SUB DUP5 DUP2 AND SWAP2 AND EQ ISZERO JUMPDEST ISZERO PUSH2 0x2933 JUMPI PUSH2 0x28DF PUSH2 0x3E8 PUSH2 0x12AD PUSH1 0xD SLOAD DUP6 PUSH2 0x2168 SWAP1 SWAP2 SWAP1 PUSH4 0xFFFFFFFF AND JUMP JUMPDEST PUSH1 0x20 DUP3 ADD MSTORE PUSH1 0x9 SLOAD PUSH2 0x28FA SWAP1 PUSH2 0x3E8 SWAP1 PUSH2 0x12AD SWAP1 DUP6 SWAP1 PUSH2 0x2168 JUMP JUMPDEST DUP2 MSTORE PUSH1 0xF SLOAD PUSH2 0x2912 SWAP1 PUSH2 0x3E8 SWAP1 PUSH2 0x12AD SWAP1 DUP6 SWAP1 PUSH2 0x2168 JUMP JUMPDEST PUSH1 0x40 DUP3 ADD MSTORE PUSH1 0xB SLOAD PUSH2 0x292D SWAP1 PUSH2 0x3E8 SWAP1 PUSH2 0x12AD SWAP1 DUP6 SWAP1 PUSH2 0x2168 JUMP JUMPDEST PUSH1 0x60 DUP3 ADD MSTORE JUMPDEST PUSH1 0x26 SLOAD PUSH1 0x1 PUSH1 0x1 PUSH1 0xA0 SHL SUB DUP6 DUP2 AND SWAP2 AND EQ DUP1 ISZERO SWAP1 PUSH2 0x295E JUMPI POP PUSH1 0x26 SLOAD PUSH1 0x1 PUSH1 0x1 PUSH1 0xA0 SHL SUB DUP5 DUP2 AND SWAP2 AND EQ JUMPDEST ISZERO PUSH2 0x29D2 JUMPI PUSH2 0x297E PUSH2 0x3E8 PUSH2 0x12AD PUSH1 0x15 SLOAD DUP6 PUSH2 0x2168 SWAP1 SWAP2 SWAP1 PUSH4 0xFFFFFFFF AND JUMP JUMPDEST PUSH1 0x20 DUP3 ADD MSTORE PUSH1 0x11 SLOAD PUSH2 0x2999 SWAP1 PUSH2 0x3E8 SWAP1 PUSH2 0x12AD SWAP1 DUP6 SWAP1 PUSH2 0x2168 JUMP JUMPDEST DUP2 MSTORE PUSH1 0x17 SLOAD PUSH2 0x29B1 SWAP1 PUSH2 0x3E8 SWAP1 PUSH2 0x12AD SWAP1 DUP6 SWAP1 PUSH2 0x2168 JUMP JUMPDEST PUSH1 0x40 DUP3 ADD MSTORE PUSH1 0x13 SLOAD PUSH2 0x29CC SWAP1 PUSH2 0x3E8 SWAP1 PUSH2 0x12AD SWAP1 DUP6 SWAP1 PUSH2 0x2168 JUMP JUMPDEST PUSH1 0x60 DUP3 ADD MSTORE JUMPDEST PUSH1 0x26 SLOAD PUSH1 0x1 PUSH1 0x1 PUSH1 0xA0 SHL SUB DUP6 DUP2 AND SWAP2 AND EQ DUP1 ISZERO SWAP1 PUSH2 0x29FE JUMPI POP PUSH1 0x26 SLOAD PUSH1 0x1 PUSH1 0x1 PUSH1 0xA0 SHL SUB DUP5 DUP2 AND SWAP2 AND EQ ISZERO JUMPDEST ISZERO PUSH2 0x2AB8 JUMPI PUSH2 0x2A2F PUSH1 0x64 PUSH2 0x12AD PUSH1 0x19 SLOAD PUSH2 0x2A29 PUSH2 0x3E8 PUSH2 0x12AD PUSH1 0x15 SLOAD DUP10 PUSH2 0x2168 SWAP1 SWAP2 SWAP1 PUSH4 0xFFFFFFFF AND JUMP JUMPDEST SWAP1 PUSH2 0x2168 JUMP JUMPDEST DUP2 PUSH1 0x20 ADD DUP2 DUP2 MSTORE POP POP PUSH2 0x2A5E PUSH1 0x64 PUSH2 0x12AD PUSH1 0x19 SLOAD PUSH2 0x2A29 PUSH2 0x3E8 PUSH2 0x12AD PUSH1 0x11 SLOAD DUP10 PUSH2 0x2168 SWAP1 SWAP2 SWAP1 PUSH4 0xFFFFFFFF AND JUMP JUMPDEST DUP2 MSTORE PUSH1 0x19 SLOAD PUSH1 0x17 SLOAD PUSH2 0x2A83 SWAP2 PUSH1 0x64 SWAP2 PUSH2 0x12AD SWAP2 SWAP1 PUSH2 0x2A29 SWAP1 PUSH2 0x3E8 SWAP1 DUP5 SWAP1 DUP10 SWAP1 PUSH2 0x2168 JUMP JUMPDEST DUP2 PUSH1 0x40 ADD DUP2 DUP2 MSTORE POP POP PUSH2 0x2AB2 PUSH1 0x64 PUSH2 0x12AD PUSH1 0x19 SLOAD PUSH2 0x2A29 PUSH2 0x3E8 PUSH2 0x12AD PUSH1 0x13 SLOAD DUP10 PUSH2 0x2168 SWAP1 SWAP2 SWAP1 PUSH4 0xFFFFFFFF AND JUMP JUMPDEST PUSH1 0x60 DUP3 ADD MSTORE JUMPDEST PUSH2 0x2AE7 DUP2 PUSH1 0x60 ADD MLOAD PUSH2 0x24CE DUP4 PUSH1 0x40 ADD MLOAD PUSH2 0x24CE DUP6 PUSH1 0x0 ADD MLOAD PUSH2 0x24CE DUP8 PUSH1 0x20 ADD MLOAD DUP10 PUSH2 0x21E7 SWAP1 SWAP2 SWAP1 PUSH4 0xFFFFFFFF AND JUMP JUMPDEST PUSH1 0x80 DUP3 ADD MSTORE PUSH1 0x1 PUSH1 0x1 PUSH1 0xA0 SHL SUB DUP5 AND PUSH1 0x0 SWAP1 DUP2 MSTORE PUSH1 0x2 PUSH1 0x20 MSTORE PUSH1 0x40 SWAP1 KECCAK256 SLOAD PUSH2 0x2B0F SWAP1 DUP4 PUSH2 0x21E7 JUMP JUMPDEST PUSH1 0x1 PUSH1 0x1 PUSH1 0xA0 SHL SUB DUP1 DUP7 AND PUSH1 0x0 SWAP1 DUP2 MSTORE PUSH1 0x2 PUSH1 0x20 MSTORE PUSH1 0x40 DUP1 DUP3 KECCAK256 SWAP4 SWAP1 SWAP4 SSTORE PUSH1 0x80 DUP5 ADD MLOAD SWAP2 DUP7 AND DUP2 MSTORE SWAP2 SWAP1 SWAP2 KECCAK256 SLOAD PUSH2 0x2B45 SWAP2 PUSH2 0x23C8 JUMP JUMPDEST PUSH1 0x2 PUSH1 0x0 DUP6 PUSH1 0x1 PUSH1 0x1 PUSH1 0xA0 SHL SUB AND PUSH1 0x1 PUSH1 0x1 PUSH1 0xA0 SHL SUB AND DUP2 MSTORE PUSH1 0x20 ADD SWAP1 DUP2 MSTORE PUSH1 0x20 ADD PUSH1 0x0 KECCAK256 DUP2 SWAP1 SSTORE POP PUSH2 0x2BB2 PUSH2 0x2B9C DUP3 PUSH1 0x60 ADD MLOAD PUSH2 0x15CC DUP5 PUSH1 0x40 ADD MLOAD PUSH2 0x15CC DUP7 PUSH1 0x0 ADD MLOAD DUP8 PUSH1 0x20 ADD MLOAD PUSH2 0x23C8 SWAP1 SWAP2 SWAP1 PUSH4 0xFFFFFFFF AND JUMP JUMPDEST ADDRESS PUSH1 0x0 SWAP1 DUP2 MSTORE PUSH1 0x2 PUSH1 0x20 MSTORE PUSH1 0x40 SWAP1 KECCAK256 SLOAD SWAP1 PUSH2 0x23C8 JUMP JUMPDEST ADDRESS PUSH1 0x0 SWAP1 DUP2 MSTORE PUSH1 0x2 PUSH1 0x20 SWAP1 DUP2 MSTORE PUSH1 0x40 SWAP2 DUP3 SWAP1 KECCAK256 SWAP3 SWAP1 SWAP3 SSTORE PUSH1 0x80 DUP4 ADD MLOAD SWAP1 MLOAD SWAP1 DUP2 MSTORE PUSH1 0x1 PUSH1 0x1 PUSH1 0xA0 SHL SUB DUP6 DUP2 AND SWAP3 SWAP1 DUP8 AND SWAP2 PUSH32 0xDDF252AD1BE2C89B69C2B068FC378DAA952BA7F163C4A11628F55A4DF523B3EF SWAP2 ADD PUSH1 0x40 MLOAD DUP1 SWAP2 SUB SWAP1 LOG3 POP POP POP POP JUMP JUMPDEST DUP1 MLOAD PUSH1 0x1 PUSH1 0x1 PUSH1 0x70 SHL SUB DUP2 AND DUP2 EQ PUSH2 0x2C2B JUMPI PUSH1 0x0 DUP1 REVERT JUMPDEST SWAP2 SWAP1 POP JUMP JUMPDEST PUSH1 0x0 PUSH1 0x20 DUP3 DUP5 SUB SLT ISZERO PUSH2 0x2C41 JUMPI DUP1 DUP2 REVERT JUMPDEST DUP2 CALLDATALOAD PUSH2 0x2161 DUP2 PUSH2 0x3055 JUMP JUMPDEST PUSH1 0x0 PUSH1 0x20 DUP3 DUP5 SUB SLT ISZERO PUSH2 0x2C5D JUMPI DUP1 DUP2 REVERT JUMPDEST DUP2 MLOAD PUSH2 0x2161 DUP2 PUSH2 0x3055 JUMP JUMPDEST PUSH1 0x0 DUP1 PUSH1 0x40 DUP4 DUP6 SUB SLT ISZERO PUSH2 0x2C7A JUMPI DUP1 DUP2 REVERT JUMPDEST DUP3 CALLDATALOAD PUSH2 0x2C85 DUP2 PUSH2 0x3055 JUMP JUMPDEST SWAP2 POP PUSH1 0x20 DUP4 ADD CALLDATALOAD PUSH2 0x2C95 DUP2 PUSH2 0x3055 JUMP JUMPDEST DUP1 SWAP2 POP POP SWAP3 POP SWAP3 SWAP1 POP JUMP JUMPDEST PUSH1 0x0 DUP1 PUSH1 0x0 PUSH1 0x60 DUP5 DUP7 SUB SLT ISZERO PUSH2 0x2CB4 JUMPI DUP1 DUP2 REVERT JUMPDEST DUP4 CALLDATALOAD PUSH2 0x2CBF DUP2 PUSH2 0x3055 JUMP JUMPDEST SWAP3 POP PUSH1 0x20 DUP5 ADD CALLDATALOAD PUSH2 0x2CCF DUP2 PUSH2 0x3055 JUMP JUMPDEST SWAP3 SWAP6 SWAP3 SWAP5 POP POP POP PUSH1 0x40 SWAP2 SWAP1 SWAP2 ADD CALLDATALOAD SWAP1 JUMP JUMPDEST PUSH1 0x0 DUP1 PUSH1 0x40 DUP4 DUP6 SUB SLT ISZERO PUSH2 0x2CF2 JUMPI DUP2 DUP3 REVERT JUMPDEST DUP3 CALLDATALOAD PUSH2 0x2CFD DUP2 PUSH2 0x3055 JUMP JUMPDEST SWAP5 PUSH1 0x20 SWAP4 SWAP1 SWAP4 ADD CALLDATALOAD SWAP4 POP POP POP JUMP JUMPDEST PUSH1 0x0 PUSH1 0x20 DUP3 DUP5 SUB SLT ISZERO PUSH2 0x2D1C JUMPI DUP1 DUP2 REVERT JUMPDEST DUP2 MLOAD PUSH2 0x2161 DUP2 PUSH2 0x306A JUMP JUMPDEST PUSH1 0x0 DUP1 PUSH1 0x40 DUP4 DUP6 SUB SLT ISZERO PUSH2 0x2D39 JUMPI DUP2 DUP3 REVERT JUMPDEST DUP3 CALLDATALOAD PUSH2 0x2D44 DUP2 PUSH2 0x306A JUMP JUMPDEST SWAP2 POP PUSH1 0x20 DUP4 ADD CALLDATALOAD PUSH2 0x2C95 DUP2 PUSH2 0x3078 JUMP JUMPDEST PUSH1 0x0 DUP1 PUSH1 0x0 PUSH1 0x60 DUP5 DUP7 SUB SLT ISZERO PUSH2 0x2D68 JUMPI DUP3 DUP4 REVERT JUMPDEST PUSH2 0x2D71 DUP5 PUSH2 0x2C14 JUMP JUMPDEST SWAP3 POP PUSH2 0x2D7F PUSH1 0x20 DUP6 ADD PUSH2 0x2C14 JUMP JUMPDEST SWAP2 POP PUSH1 0x40 DUP5 ADD MLOAD PUSH2 0x2D8F DUP2 PUSH2 0x3078 JUMP JUMPDEST DUP1 SWAP2 POP POP SWAP3 POP SWAP3 POP SWAP3 JUMP JUMPDEST PUSH1 0x0 PUSH1 0x20 DUP3 DUP5 SUB SLT ISZERO PUSH2 0x2DAB JUMPI DUP1 DUP2 REVERT JUMPDEST POP CALLDATALOAD SWAP2 SWAP1 POP JUMP JUMPDEST PUSH1 0x0 PUSH1 0x20 DUP3 DUP5 SUB SLT ISZERO PUSH2 0x2DC3 JUMPI DUP1 DUP2 REVERT JUMPDEST POP MLOAD SWAP2 SWAP1 POP JUMP JUMPDEST PUSH1 0x0 DUP1 PUSH1 0x0 PUSH1 0x60 DUP5 DUP7 SUB SLT ISZERO PUSH2 0x2DDE JUMPI DUP3 DUP4 REVERT JUMPDEST DUP4 MLOAD SWAP3 POP PUSH1 0x20 DUP5 ADD MLOAD SWAP2 POP PUSH1 0x40 DUP5 ADD MLOAD SWAP1 POP SWAP3 POP SWAP3 POP SWAP3 JUMP JUMPDEST PUSH1 0x0 DUP1 PUSH1 0x0 DUP1 PUSH1 0x80 DUP6 DUP8 SUB SLT ISZERO PUSH2 0x2E0C JUMPI DUP1 DUP2 REVERT JUMPDEST POP POP DUP3 CALLDATALOAD SWAP5 PUSH1 0x20 DUP5 ADD CALLDATALOAD SWAP5 POP PUSH1 0x40 DUP5 ADD CALLDATALOAD SWAP4 PUSH1 0x60 ADD CALLDATALOAD SWAP3 POP SWAP1 POP JUMP JUMPDEST PUSH1 0x0 PUSH1 0x20 DUP1 DUP4 MSTORE DUP4 MLOAD DUP1 DUP3 DUP6 ADD MSTORE DUP3 JUMPDEST DUP2 DUP2 LT ISZERO PUSH2 0x2E54 JUMPI DUP6 DUP2 ADD DUP4 ADD MLOAD DUP6 DUP3 ADD PUSH1 0x40 ADD MSTORE DUP3 ADD PUSH2 0x2E38 JUMP JUMPDEST DUP2 DUP2 GT ISZERO PUSH2 0x2E65 JUMPI DUP4 PUSH1 0x40 DUP4 DUP8 ADD ADD MSTORE JUMPDEST POP PUSH1 0x1F ADD PUSH1 0x1F NOT AND SWAP3 SWAP1 SWAP3 ADD PUSH1 0x40 ADD SWAP4 SWAP3 POP POP POP JUMP JUMPDEST PUSH1 0x20 DUP1 DUP3 MSTORE PUSH1 0x41 SWAP1 DUP3 ADD MSTORE PUSH32 0x77616C6C65742062616C616E6365206166746572207472616E73666572206D75 PUSH1 0x40 DUP3 ADD MSTORE PUSH32 0x7374206265206C657373207468616E206D61782077616C6C657420616D6F756E PUSH1 0x60 DUP3 ADD MSTORE PUSH1 0x1D PUSH1 0xFA SHL PUSH1 0x80 DUP3 ADD MSTORE PUSH1 0xA0 ADD SWAP1 JUMP JUMPDEST PUSH1 0x20 DUP1 DUP3 MSTORE DUP2 DUP2 ADD MSTORE PUSH32 0x4F776E61626C653A2063616C6C6572206973206E6F7420746865206F776E6572 PUSH1 0x40 DUP3 ADD MSTORE PUSH1 0x60 ADD SWAP1 JUMP JUMPDEST PUSH1 0x0 PUSH1 0xA0 DUP3 ADD DUP8 DUP4 MSTORE PUSH1 0x20 DUP8 DUP2 DUP6 ADD MSTORE PUSH1 0xA0 PUSH1 0x40 DUP6 ADD MSTORE DUP2 DUP8 MLOAD DUP1 DUP5 MSTORE PUSH1 0xC0 DUP7 ADD SWAP2 POP DUP3 DUP10 ADD SWAP4 POP DUP5 JUMPDEST DUP2 DUP2 LT ISZERO PUSH2 0x2F66 JUMPI DUP5 MLOAD PUSH1 0x1 PUSH1 0x1 PUSH1 0xA0 SHL SUB AND DUP4 MSTORE SWAP4 DUP4 ADD SWAP4 SWAP2 DUP4 ADD SWAP2 PUSH1 0x1 ADD PUSH2 0x2F41 JUMP JUMPDEST POP POP PUSH1 0x1 PUSH1 0x1 PUSH1 0xA0 SHL SUB SWAP7 SWAP1 SWAP7 AND PUSH1 0x60 DUP6 ADD MSTORE POP POP POP PUSH1 0x80 ADD MSTORE SWAP4 SWAP3 POP POP POP JUMP JUMPDEST PUSH1 0x0 DUP3 NOT DUP3 GT ISZERO PUSH2 0x2F9A JUMPI PUSH2 0x2F9A PUSH2 0x3029 JUMP JUMPDEST POP ADD SWAP1 JUMP JUMPDEST PUSH1 0x0 DUP3 PUSH2 0x2FAE JUMPI PUSH2 0x2FAE PUSH2 0x303F JUMP JUMPDEST POP DIV SWAP1 JUMP JUMPDEST PUSH1 0x0 DUP2 PUSH1 0x0 NOT DIV DUP4 GT DUP3 ISZERO ISZERO AND ISZERO PUSH2 0x2FCD JUMPI PUSH2 0x2FCD PUSH2 0x3029 JUMP JUMPDEST POP MUL SWAP1 JUMP JUMPDEST PUSH1 0x0 PUSH4 0xFFFFFFFF DUP1 DUP4 AND DUP2 DUP6 AND DUP2 DUP4 DIV DUP2 GT DUP3 ISZERO ISZERO AND ISZERO PUSH2 0x2FF5 JUMPI PUSH2 0x2FF5 PUSH2 0x3029 JUMP JUMPDEST MUL SWAP5 SWAP4 POP POP POP POP JUMP JUMPDEST PUSH1 0x0 DUP3 DUP3 LT ISZERO PUSH2 0x3010 JUMPI PUSH2 0x3010 PUSH2 0x3029 JUMP JUMPDEST POP SUB SWAP1 JUMP JUMPDEST PUSH1 0x0 DUP3 PUSH2 0x3024 JUMPI PUSH2 0x3024 PUSH2 0x303F JUMP JUMPDEST POP MOD SWAP1 JUMP JUMPDEST PUSH4 0x4E487B71 PUSH1 0xE0 SHL PUSH1 0x0 MSTORE PUSH1 0x11 PUSH1 0x4 MSTORE PUSH1 0x24 PUSH1 0x0 REVERT JUMPDEST PUSH4 0x4E487B71 PUSH1 0xE0 SHL PUSH1 0x0 MSTORE PUSH1 0x12 PUSH1 0x4 MSTORE PUSH1 0x24 PUSH1 0x0 REVERT JUMPDEST PUSH1 0x1 PUSH1 0x1 PUSH1 0xA0 SHL SUB DUP2 AND DUP2 EQ PUSH2 0x102B JUMPI PUSH1 0x0 DUP1 REVERT JUMPDEST DUP1 ISZERO ISZERO DUP2 EQ PUSH2 0x102B JUMPI PUSH1 0x0 DUP1 REVERT JUMPDEST PUSH4 0xFFFFFFFF DUP2 AND DUP2 EQ PUSH2 0x102B JUMPI PUSH1 0x0 DUP1 REVERT INVALID GASLIMIT MSTORE NUMBER ORIGIN ADDRESS GASPRICE KECCAK256 PUSH21 0x72616E7366657220616D6F756E7420657863656564 PUSH20 0x20616C6C6F77616E6365A2646970667358221220 0xFC JUMPI 0xE2 PUSH23 0x852F112951403513D009406B1B67EBBB47D9537D5EC34D 0xB2 ADD PUSH6 0x7B1064736F6C PUSH4 0x43000804 STOP CALLER "
				},
				"gasEstimates": {
					"creation": {
						"codeDepositCost": "2504000",
						"executionCost": "infinite",
						"totalCost": "infinite"
					},
					"external": {
						"_buyEcosystemFee()": "1097",
						"_buyLiquidityFee()": "1095",
						"_buyMarketingFee()": "1073",
						"_buyTeamFee()": "1051",
						"_maxWalletAmount()": "1052",
						"_sellEcosystemFee()": "1053",
						"_sellLiquidityFee()": "1053",
						"_sellMarketingFee()": "1095",
						"_sellTeamFee()": "1052",
						"addBot(address)": "23010",
						"allowance(address,address)": "infinite",
						"approve(address,uint256)": "22605",
						"balanceOf(address)": "1332",
						"canBlackList()": "1111",
						"canChangeTax()": "1090",
						"canPause()": "1155",
						"configureStrongHands(bool,uint32)": "infinite",
						"cooldown()": "1193",
						"cooldownRemaining(address)": "infinite",
						"decimals()": "289",
						"diamondFloor()": "3689",
						"disableBlackListing()": "21869",
						"disablePauseAbility()": "21936",
						"disableTaxChange()": "21914",
						"disableToken()": "22749",
						"enableToken()": "21921",
						"excludeFromFee(address)": "22112",
						"includeInFee(address)": "22149",
						"isBot(address)": "1334",
						"manualSendToken(address)": "infinite",
						"manualsend()": "infinite",
						"manualswap()": "infinite",
						"name()": "infinite",
						"numTokensToSwap()": "1054",
						"openTrading(uint256)": "62005",
						"owner()": "1122",
						"pairPrice()": "infinite",
						"removeBot(address)": "22150",
						"renounceOwnership()": "24232",
						"setBuyTaxes(uint256,uint256,uint256,uint256)": "infinite",
						"setMaxWalletAmount(uint256)": "21442",
						"setSellTaxes(uint256,uint256,uint256,uint256)": "infinite",
						"setTransferTransactionMultiplier(uint256)": "21132",
						"symbol()": "infinite",
						"totalSupply()": "272",
						"tradingOpen()": "1120",
						"transfer(address,uint256)": "infinite",
						"transferFeeIncreaseFactor()": "1095",
						"transferFrom(address,address,uint256)": "infinite",
						"transferOwnership(address)": "infinite",
						"uniswapV2Pair()": "1127",
						"updateEcosystemAddress(address)": "22094",
						"updateLpRecipient(address)": "22095",
						"updateMarketingAddress(address)": "22118",
						"updateNumTokensToSwap(uint256)": "21131",
						"updateTeamAddress(address)": "22074"
					},
					"internal": {
						"_approve(address,address,uint256)": "infinite",
						"_checkPriceConditions()": "infinite",
						"_tokenTransfer(address,address,uint256,bool)": "infinite",
						"_transfer(address,address,uint256)": "infinite",
						"_transferStandard(address,address,uint256)": "infinite",
						"addLiquidity(uint256,uint256)": "infinite",
						"removeAllFee()": "infinite",
						"restoreAllFee()": "infinite",
						"sendETHToFee(uint256)": "infinite",
						"swapAndLiquify(uint256,uint256)": "infinite",
						"swapTokensForEth(uint256)": "infinite"
					}
				},
				"methodIdentifiers": {
					"_buyEcosystemFee()": "2843631d",
					"_buyLiquidityFee()": "dc44b6a0",
					"_buyMarketingFee()": "c5d24189",
					"_buyTeamFee()": "c469b6dd",
					"_maxWalletAmount()": "6c0a24eb",
					"_sellEcosystemFee()": "248dd232",
					"_sellLiquidityFee()": "88790a68",
					"_sellMarketingFee()": "c8607952",
					"_sellTeamFee()": "cab03471",
					"addBot(address)": "ffecf516",
					"allowance(address,address)": "dd62ed3e",
					"approve(address,uint256)": "095ea7b3",
					"balanceOf(address)": "70a08231",
					"canBlackList()": "301ad558",
					"canChangeTax()": "39a53c4e",
					"canPause()": "323be1c5",
					"configureStrongHands(bool,uint32)": "729cb3f2",
					"cooldown()": "787a08a6",
					"cooldownRemaining(address)": "9d82190f",
					"decimals()": "313ce567",
					"diamondFloor()": "c95457ff",
					"disableBlackListing()": "d55cb78a",
					"disablePauseAbility()": "6aabff3f",
					"disableTaxChange()": "99a7b9bc",
					"disableToken()": "3e0f966d",
					"enableToken()": "8e360253",
					"excludeFromFee(address)": "437823ec",
					"includeInFee(address)": "ea2f0b37",
					"isBot(address)": "3bbac579",
					"manualSendToken(address)": "29409395",
					"manualsend()": "6fc3eaec",
					"manualswap()": "c3c8cd80",
					"name()": "06fdde03",
					"numTokensToSwap()": "01a6c43b",
					"openTrading(uint256)": "d1633649",
					"owner()": "8da5cb5b",
					"pairPrice()": "9491f94d",
					"removeBot(address)": "5fecd926",
					"renounceOwnership()": "715018a6",
					"setBuyTaxes(uint256,uint256,uint256,uint256)": "e4bf1bed",
					"setMaxWalletAmount(uint256)": "27a14fc2",
					"setSellTaxes(uint256,uint256,uint256,uint256)": "f480fec2",
					"setTransferTransactionMultiplier(uint256)": "a850673d",
					"symbol()": "95d89b41",
					"totalSupply()": "18160ddd",
					"tradingOpen()": "ffb54a99",
					"transfer(address,uint256)": "a9059cbb",
					"transferFeeIncreaseFactor()": "72b2aecc",
					"transferFrom(address,address,uint256)": "23b872dd",
					"transferOwnership(address)": "f2fde38b",
					"uniswapV2Pair()": "49bd5a5e",
					"updateEcosystemAddress(address)": "db0045ec",
					"updateLpRecipient(address)": "cdb3858f",
					"updateMarketingAddress(address)": "2369bf83",
					"updateNumTokensToSwap(uint256)": "e315a6da",
					"updateTeamAddress(address)": "14eb76ac"
				}
			},
			"storageLayout": {
				"storage": [
					{
						"astId": 228,
						"contract": "contracts/reference.sol:gainZilla",
						"label": "_owner",
						"offset": 0,
						"slot": "0",
						"type": "t_address"
					},
					{
						"astId": 230,
						"contract": "contracts/reference.sol:gainZilla",
						"label": "_previousOwner",
						"offset": 0,
						"slot": "1",
						"type": "t_address"
					},
					{
						"astId": 749,
						"contract": "contracts/reference.sol:gainZilla",
						"label": "_balances",
						"offset": 0,
						"slot": "2",
						"type": "t_mapping(t_address,t_uint256)"
					},
					{
						"astId": 755,
						"contract": "contracts/reference.sol:gainZilla",
						"label": "_allowances",
						"offset": 0,
						"slot": "3",
						"type": "t_mapping(t_address,t_mapping(t_address,t_uint256))"
					},
					{
						"astId": 759,
						"contract": "contracts/reference.sol:gainZilla",
						"label": "_isExcludedFromFee",
						"offset": 0,
						"slot": "4",
						"type": "t_mapping(t_address,t_bool)"
					},
					{
						"astId": 768,
						"contract": "contracts/reference.sol:gainZilla",
						"label": "_firstBlock",
						"offset": 0,
						"slot": "5",
						"type": "t_uint256"
					},
					{
						"astId": 770,
						"contract": "contracts/reference.sol:gainZilla",
						"label": "_botBlocks",
						"offset": 0,
						"slot": "6",
						"type": "t_uint256"
					},
					{
						"astId": 777,
						"contract": "contracts/reference.sol:gainZilla",
						"label": "_maxWalletAmount",
						"offset": 0,
						"slot": "7",
						"type": "t_uint256"
					},
					{
						"astId": 784,
						"contract": "contracts/reference.sol:gainZilla",
						"label": "numTokensToSwap",
						"offset": 0,
						"slot": "8",
						"type": "t_uint256"
					},
					{
						"astId": 787,
						"contract": "contracts/reference.sol:gainZilla",
						"label": "_buyLiquidityFee",
						"offset": 0,
						"slot": "9",
						"type": "t_uint256"
					},
					{
						"astId": 790,
						"contract": "contracts/reference.sol:gainZilla",
						"label": "_previousBuyLiquidityFee",
						"offset": 0,
						"slot": "10",
						"type": "t_uint256"
					},
					{
						"astId": 793,
						"contract": "contracts/reference.sol:gainZilla",
						"label": "_buyEcosystemFee",
						"offset": 0,
						"slot": "11",
						"type": "t_uint256"
					},
					{
						"astId": 796,
						"contract": "contracts/reference.sol:gainZilla",
						"label": "_previousBuyEcosystemFee",
						"offset": 0,
						"slot": "12",
						"type": "t_uint256"
					},
					{
						"astId": 799,
						"contract": "contracts/reference.sol:gainZilla",
						"label": "_buyMarketingFee",
						"offset": 0,
						"slot": "13",
						"type": "t_uint256"
					},
					{
						"astId": 802,
						"contract": "contracts/reference.sol:gainZilla",
						"label": "_previousBuyMarketingFee",
						"offset": 0,
						"slot": "14",
						"type": "t_uint256"
					},
					{
						"astId": 805,
						"contract": "contracts/reference.sol:gainZilla",
						"label": "_buyTeamFee",
						"offset": 0,
						"slot": "15",
						"type": "t_uint256"
					},
					{
						"astId": 808,
						"contract": "contracts/reference.sol:gainZilla",
						"label": "_previousBuyTeamFee",
						"offset": 0,
						"slot": "16",
						"type": "t_uint256"
					},
					{
						"astId": 811,
						"contract": "contracts/reference.sol:gainZilla",
						"label": "_sellLiquidityFee",
						"offset": 0,
						"slot": "17",
						"type": "t_uint256"
					},
					{
						"astId": 814,
						"contract": "contracts/reference.sol:gainZilla",
						"label": "_previousSellLiquidityFee",
						"offset": 0,
						"slot": "18",
						"type": "t_uint256"
					},
					{
						"astId": 817,
						"contract": "contracts/reference.sol:gainZilla",
						"label": "_sellEcosystemFee",
						"offset": 0,
						"slot": "19",
						"type": "t_uint256"
					},
					{
						"astId": 820,
						"contract": "contracts/reference.sol:gainZilla",
						"label": "_previousSellEcosystemFee",
						"offset": 0,
						"slot": "20",
						"type": "t_uint256"
					},
					{
						"astId": 823,
						"contract": "contracts/reference.sol:gainZilla",
						"label": "_sellMarketingFee",
						"offset": 0,
						"slot": "21",
						"type": "t_uint256"
					},
					{
						"astId": 826,
						"contract": "contracts/reference.sol:gainZilla",
						"label": "_previousSellMarketingFee",
						"offset": 0,
						"slot": "22",
						"type": "t_uint256"
					},
					{
						"astId": 829,
						"contract": "contracts/reference.sol:gainZilla",
						"label": "_sellTeamFee",
						"offset": 0,
						"slot": "23",
						"type": "t_uint256"
					},
					{
						"astId": 832,
						"contract": "contracts/reference.sol:gainZilla",
						"label": "_previousSellTeamFee",
						"offset": 0,
						"slot": "24",
						"type": "t_uint256"
					},
					{
						"astId": 835,
						"contract": "contracts/reference.sol:gainZilla",
						"label": "transferFeeIncreaseFactor",
						"offset": 0,
						"slot": "25",
						"type": "t_uint256"
					},
					{
						"astId": 858,
						"contract": "contracts/reference.sol:gainZilla",
						"label": "cooldown",
						"offset": 0,
						"slot": "26",
						"type": "t_struct(StrongHandsConfig)855_storage"
					},
					{
						"astId": 872,
						"contract": "contracts/reference.sol:gainZilla",
						"label": "diamondFloor",
						"offset": 0,
						"slot": "28",
						"type": "t_struct(DiamondFloor)869_storage"
					},
					{
						"astId": 876,
						"contract": "contracts/reference.sol:gainZilla",
						"label": "bots",
						"offset": 0,
						"slot": "32",
						"type": "t_mapping(t_address,t_bool)"
					},
					{
						"astId": 882,
						"contract": "contracts/reference.sol:gainZilla",
						"label": "_marketingAddress",
						"offset": 0,
						"slot": "33",
						"type": "t_address_payable"
					},
					{
						"astId": 888,
						"contract": "contracts/reference.sol:gainZilla",
						"label": "_teamAddress",
						"offset": 0,
						"slot": "34",
						"type": "t_address_payable"
					},
					{
						"astId": 894,
						"contract": "contracts/reference.sol:gainZilla",
						"label": "_ecosystemAddress",
						"offset": 0,
						"slot": "35",
						"type": "t_address_payable"
					},
					{
						"astId": 900,
						"contract": "contracts/reference.sol:gainZilla",
						"label": "_lpRecipient",
						"offset": 0,
						"slot": "36",
						"type": "t_address_payable"
					},
					{
						"astId": 903,
						"contract": "contracts/reference.sol:gainZilla",
						"label": "uniswapV2Router",
						"offset": 0,
						"slot": "37",
						"type": "t_contract(IUniswapV2Router02)707"
					},
					{
						"astId": 905,
						"contract": "contracts/reference.sol:gainZilla",
						"label": "uniswapV2Pair",
						"offset": 0,
						"slot": "38",
						"type": "t_address"
					},
					{
						"astId": 907,
						"contract": "contracts/reference.sol:gainZilla",
						"label": "_maxTxAmount",
						"offset": 0,
						"slot": "39",
						"type": "t_uint256"
					},
					{
						"astId": 910,
						"contract": "contracts/reference.sol:gainZilla",
						"label": "tradingOpen",
						"offset": 0,
						"slot": "40",
						"type": "t_bool"
					},
					{
						"astId": 913,
						"contract": "contracts/reference.sol:gainZilla",
						"label": "inSwap",
						"offset": 1,
						"slot": "40",
						"type": "t_bool"
					},
					{
						"astId": 916,
						"contract": "contracts/reference.sol:gainZilla",
						"label": "canPause",
						"offset": 2,
						"slot": "40",
						"type": "t_bool"
					},
					{
						"astId": 919,
						"contract": "contracts/reference.sol:gainZilla",
						"label": "canBlackList",
						"offset": 3,
						"slot": "40",
						"type": "t_bool"
					},
					{
						"astId": 922,
						"contract": "contracts/reference.sol:gainZilla",
						"label": "canChangeTax",
						"offset": 4,
						"slot": "40",
						"type": "t_bool"
					}
				],
				"types": {
					"t_address": {
						"encoding": "inplace",
						"label": "address",
						"numberOfBytes": "20"
					},
					"t_address_payable": {
						"encoding": "inplace",
						"label": "address payable",
						"numberOfBytes": "20"
					},
					"t_bool": {
						"encoding": "inplace",
						"label": "bool",
						"numberOfBytes": "1"
					},
					"t_contract(IUniswapV2Router02)707": {
						"encoding": "inplace",
						"label": "contract IUniswapV2Router02",
						"numberOfBytes": "20"
					},
					"t_mapping(t_address,t_bool)": {
						"encoding": "mapping",
						"key": "t_address",
						"label": "mapping(address => bool)",
						"numberOfBytes": "32",
						"value": "t_bool"
					},
					"t_mapping(t_address,t_mapping(t_address,t_uint256))": {
						"encoding": "mapping",
						"key": "t_address",
						"label": "mapping(address => mapping(address => uint256))",
						"numberOfBytes": "32",
						"value": "t_mapping(t_address,t_uint256)"
					},
					"t_mapping(t_address,t_uint256)": {
						"encoding": "mapping",
						"key": "t_address",
						"label": "mapping(address => uint256)",
						"numberOfBytes": "32",
						"value": "t_uint256"
					},
					"t_struct(DiamondFloor)869_storage": {
						"encoding": "inplace",
						"label": "struct gainZilla.DiamondFloor",
						"members": [
							{
								"astId": 860,
								"contract": "contracts/reference.sol:gainZilla",
								"label": "enabled",
								"offset": 0,
								"slot": "0",
								"type": "t_bool"
							},
							{
								"astId": 862,
								"contract": "contracts/reference.sol:gainZilla",
								"label": "triggerPercentage",
								"offset": 1,
								"slot": "0",
								"type": "t_uint16"
							},
							{
								"astId": 864,
								"contract": "contracts/reference.sol:gainZilla",
								"label": "athPrice",
								"offset": 0,
								"slot": "1",
								"type": "t_uint256"
							},
							{
								"astId": 866,
								"contract": "contracts/reference.sol:gainZilla",
								"label": "sellStopped",
								"offset": 0,
								"slot": "2",
								"type": "t_bool"
							},
							{
								"astId": 868,
								"contract": "contracts/reference.sol:gainZilla",
								"label": "blockedAth",
								"offset": 0,
								"slot": "3",
								"type": "t_uint256"
							}
						],
						"numberOfBytes": "128"
					},
					"t_struct(StrongHandsConfig)855_storage": {
						"encoding": "inplace",
						"label": "struct gainZilla.StrongHandsConfig",
						"members": [
							{
								"astId": 848,
								"contract": "contracts/reference.sol:gainZilla",
								"label": "enabled",
								"offset": 0,
								"slot": "0",
								"type": "t_bool"
							},
							{
								"astId": 850,
								"contract": "contracts/reference.sol:gainZilla",
								"label": "duration",
								"offset": 1,
								"slot": "0",
								"type": "t_uint32"
							},
							{
								"astId": 854,
								"contract": "contracts/reference.sol:gainZilla",
								"label": "walletList",
								"offset": 0,
								"slot": "1",
								"type": "t_mapping(t_address,t_uint256)"
							}
						],
						"numberOfBytes": "64"
					},
					"t_uint16": {
						"encoding": "inplace",
						"label": "uint16",
						"numberOfBytes": "2"
					},
					"t_uint256": {
						"encoding": "inplace",
						"label": "uint256",
						"numberOfBytes": "32"
					},
					"t_uint32": {
						"encoding": "inplace",
						"label": "uint32",
						"numberOfBytes": "4"
					}
				}
			},
			"userdoc": {
				"kind": "user",
				"methods": {},
				"version": 1
			}
		}
	}
}