{
	"data": {
		"bytecode": {
			"linkReferences": {},
			"object": "6080604052678ac7230489e80000600a556000600b819055600c819055600d819055600e819055600f8190556010819055601181905560128190556013819055601481905560158190556016819055601781905560188190556019819055601a819055601b55601d805461dead6001600160a01b03199182168117909255601e8054821683179055601f80548216831790556020805490911690911790556024805464ffffffffff1916640101010000179055348015620000bf57600080fd5b50600080546001600160a01b031916339081178255604051909182917f8be0079c531659141344cd1fd0a4f28419497f9722a3daafe3b4186f6b6457e0908290a350602180546001600160a01b0319167310ed43c718714eb63d5aa57b78b54704e256024e90811790915562000141308269021e19e0c9bab2400000620003ff565b806001600160a01b031663c45a01556040518163ffffffff1660e01b815260040160206040518083038186803b1580156200017b57600080fd5b505afa15801562000190573d6000803e3d6000fd5b505050506040513d601f19601f82011682018060405250810190620001b691906200052b565b6001600160a01b031663c9c6539630836001600160a01b031663ad5c46486040518163ffffffff1660e01b815260040160206040518083038186803b158015620001ff57600080fd5b505afa15801562000214573d6000803e3d6000fd5b505050506040513d601f19601f820116820180604052508101906200023a91906200052b565b6040516001600160e01b031960e085901b1681526001600160a01b03928316600482015291166024820152604401602060405180830381600087803b1580156200028357600080fd5b505af115801562000298573d6000803e3d6000fd5b505050506040513d601f19601f82011682018060405250810190620002be91906200052b565b602280546001600160a01b0319166001600160a01b0392831690811790915560215460405163095ea7b360e01b81529216600483015260001960248301529063095ea7b390604401602060405180830381600087803b1580156200032157600080fd5b505af115801562000336573d6000803e3d6000fd5b505050506040513d601f19601f820116820180604052508101906200035c91906200055b565b5069021e19e0c9bab2400000602381905560078190556009819055600881905533600081815260026020908152604080832085905582546001600160a01b0316835260048252808320805460ff1990811660019081179092553085528285208054909116909117905551938452919290917fddf252ad1be2c89b69c2b068fc378daa952ba7f163c4a11628f55a4df523b3ef910160405180910390a3506200057d565b6001600160a01b038316620004675760405162461bcd60e51b8152602060048201526024808201527f45524332303a20617070726f76652066726f6d20746865207a65726f206164646044820152637265737360e01b60648201526084015b60405180910390fd5b6001600160a01b038216620004ca5760405162461bcd60e51b815260206004820152602260248201527f45524332303a20617070726f766520746f20746865207a65726f206164647265604482015261737360f01b60648201526084016200045e565b6001600160a01b0383811660008181526003602090815260408083209487168084529482529182902085905590518481527f8c5be1e5ebec7d5bd14f71427d1e84f3dd0314c0f7b2291e5b200ac8c7c3b925910160405180910390a3505050565b6000602082840312156200053d578081fd5b81516001600160a01b038116811462000554578182fd5b9392505050565b6000602082840312156200056d578081fd5b8151801515811462000554578182fd5b612bfd806200058d6000396000f3fe60806040526004361061031e5760003560e01c806372b2aecc116101ab578063cab03471116100f7578063e315a6da11610095578063f2fde38b1161006f578063f2fde38b14610903578063f480fec214610923578063ffb54a9914610943578063ffecf5161461095d57600080fd5b8063e315a6da146108a3578063e4bf1bed146108c3578063ea2f0b37146108e357600080fd5b8063d55cb78a116100d1578063d55cb78a14610812578063db0045ec14610827578063dc44b6a014610847578063dd62ed3e1461085d57600080fd5b8063cab03471146107bc578063cdb3858f146107d2578063d1633649146107f257600080fd5b806399a7b9bc11610164578063c3c8cd801161013e578063c3c8cd8014610765578063c469b6dd1461077a578063c5d2418914610790578063c8607952146107a657600080fd5b806399a7b9bc14610710578063a850673d14610725578063a9059cbb1461074557600080fd5b806372b2aecc1461069157806388790a68146106a75780638da5cb5b146106bd5780638e360253146106db5780639164f9db146106f057806395d89b411461035357600080fd5b8063323be1c51161026a57806358881304116102235780636c0a24eb116101fd5780636c0a24eb1461061b5780636fc3eaec1461063157806370a0823114610646578063715018a61461067c57600080fd5b806358881304146105c65780635fecd926146105e65780636aabff3f1461060657600080fd5b8063323be1c5146104de57806339a53c4e146104fe5780633bbac579146105205780633e0f966d14610559578063437823ec1461056e57806349bd5a5e1461058e57600080fd5b806323b872dd116102d75780632843631d116102b15780632843631d1461046b5780632940939514610481578063301ad558146104a1578063313ce567146104c257600080fd5b806323b872dd14610415578063248dd2321461043557806327a14fc21461044b57600080fd5b806301a6c43b1461032a57806306fdde0314610353578063095ea7b31461038657806314eb76ac146103b657806318160ddd146103d85780632369bf83146103f557600080fd5b3661032557005b600080fd5b34801561033657600080fd5b50610340600a5481565b6040519081526020015b60405180910390f35b34801561035f57600080fd5b506040805180820182526004815263444f4b4960e01b6020820152905161034a9190612956565b34801561039257600080fd5b506103a66103a136600461287d565b61097d565b604051901515815260200161034a565b3480156103c257600080fd5b506103d66103d13660046127cd565b610994565b005b3480156103e457600080fd5b5069021e19e0c9bab2400000610340565b34801561040157600080fd5b506103d66104103660046127cd565b6109e9565b34801561042157600080fd5b506103a661043036600461283d565b610a35565b34801561044157600080fd5b5061034060155481565b34801561045757600080fd5b506103d66104663660046128c8565b610a9e565b34801561047757600080fd5b50610340600d5481565b34801561048d57600080fd5b506103d661049c3660046127cd565b610bb8565b3480156104ad57600080fd5b506024546103a6906301000000900460ff1681565b3480156104ce57600080fd5b506040516009815260200161034a565b3480156104ea57600080fd5b506024546103a69062010000900460ff1681565b34801561050a57600080fd5b506024546103a690640100000000900460ff1681565b34801561052c57600080fd5b506103a661053b3660046127cd565b6001600160a01b03166000908152601c602052604090205460ff1690565b34801561056557600080fd5b506103d6610d04565b34801561057a57600080fd5b506103d66105893660046127cd565b610d92565b34801561059a57600080fd5b506022546105ae906001600160a01b031681565b6040516001600160a01b03909116815260200161034a565b3480156105d257600080fd5b506103d66105e13660046128c8565b610de0565b3480156105f257600080fd5b506103d66106013660046127cd565b610e44565b34801561061257600080fd5b506103d6610e8f565b34801561062757600080fd5b5061034060075481565b34801561063d57600080fd5b506103d6610ec7565b34801561065257600080fd5b506103406106613660046127cd565b6001600160a01b031660009081526002602052604090205490565b34801561068857600080fd5b506103d6610f36565b34801561069d57600080fd5b50610340601b5481565b3480156106b357600080fd5b5061034060135481565b3480156106c957600080fd5b506000546001600160a01b03166105ae565b3480156106e757600080fd5b506103d6610faa565b3480156106fc57600080fd5b506103d661070b3660046128c8565b610fe3565b34801561071c57600080fd5b506103d6611047565b34801561073157600080fd5b506103d66107403660046128c8565b611081565b34801561075157600080fd5b506103a661076036600461287d565b6110b0565b34801561077157600080fd5b506103d66110bd565b34801561078657600080fd5b5061034060115481565b34801561079c57600080fd5b50610340600f5481565b3480156107b257600080fd5b5061034060175481565b3480156107c857600080fd5b5061034060195481565b3480156107de57600080fd5b506103d66107ed3660046127cd565b611106565b3480156107fe57600080fd5b506103d661080d3660046128c8565b611152565b34801561081e57600080fd5b506103d6611192565b34801561083357600080fd5b506103d66108423660046127cd565b6111cb565b34801561085357600080fd5b50610340600b5481565b34801561086957600080fd5b50610340610878366004612805565b6001600160a01b03918216600090815260036020908152604080832093909416825291909152205490565b3480156108af57600080fd5b506103d66108be3660046128c8565b611217565b3480156108cf57600080fd5b506103d66108de366004612925565b611246565b3480156108ef57600080fd5b506103d66108fe3660046127cd565b6113c2565b34801561090f57600080fd5b506103d661091e3660046127cd565b61140d565b34801561092f57600080fd5b506103d661093e366004612925565b6114a5565b34801561094f57600080fd5b506024546103a69060ff1681565b34801561096957600080fd5b506103d66109783660046127cd565b611611565b600061098a3384846116c9565b5060015b92915050565b6000546001600160a01b031633146109c75760405162461bcd60e51b81526004016109be90612a10565b60405180910390fd5b601e80546001600160a01b0319166001600160a01b0392909216919091179055565b6000546001600160a01b03163314610a135760405162461bcd60e51b81526004016109be90612a10565b601d80546001600160a01b0319166001600160a01b0392909216919091179055565b6000610a428484846117ed565b610a948433610a8f85604051806060016040528060288152602001612ba0602891396001600160a01b038a1660009081526003602090815260408083203384529091529020549190611d48565b6116c9565b5060019392505050565b6000546001600160a01b03163314610ac85760405162461bcd60e51b81526004016109be90612a10565b610ade69021e19e0c9bab24000006103e8611d82565b811015610b405760405162461bcd60e51b815260206004820152602a60248201527f416d6f756e74206d7573742062652067726561746572207468616e20302e3125604482015269206f6620737570706c7960b01b60648201526084016109be565b69021e19e0c9bab2400000811115610bb35760405162461bcd60e51b815260206004820152603060248201527f416d6f756e74206d757374206265206c657373207468616e206f72206571756160448201526f6c20746f20746f74616c537570706c7960801b60648201526084016109be565b600755565b6000546001600160a01b03163314610be25760405162461bcd60e51b81526004016109be90612a10565b6040516370a0823160e01b81523060048201526000906001600160a01b038316906370a082319060240160206040518083038186803b158015610c2457600080fd5b505afa158015610c38573d6000803e3d6000fd5b505050506040513d601f19601f82011682018060405250810190610c5c91906128e0565b9050816001600160a01b031663a9059cbb610c7f6000546001600160a01b031690565b6040516001600160e01b031960e084901b1681526001600160a01b03909116600482015260248101849052604401602060405180830381600087803b158015610cc757600080fd5b505af1158015610cdb573d6000803e3d6000fd5b505050506040513d601f19601f82011682018060405250810190610cff91906128a8565b505050565b6000546001600160a01b03163314610d2e5760405162461bcd60e51b81526004016109be90612a10565b60245462010000900460ff16610d865760405162461bcd60e51b815260206004820152601e60248201527f7468697320636f6e74726163742063616e6e6f7420626520706175736564000060448201526064016109be565b6024805460ff19169055565b6000546001600160a01b03163314610dbc5760405162461bcd60e51b81526004016109be90612a10565b6001600160a01b03166000908152600460205260409020805460ff19166001179055565b6000546001600160a01b03163314610e0a5760405162461bcd60e51b81526004016109be90612a10565b610e2069021e19e0c9bab24000006103e8611d82565b811015610e3f5760405162461bcd60e51b81526004016109be90612a45565b600955565b6000546001600160a01b03163314610e6e5760405162461bcd60e51b81526004016109be90612a10565b6001600160a01b03166000908152601c60205260409020805460ff19169055565b6000546001600160a01b03163314610eb95760405162461bcd60e51b81526004016109be90612a10565b6024805462ff000019169055565b6000546001600160a01b03163314610ef15760405162461bcd60e51b81526004016109be90612a10565b478015610f3357600080546040516001600160a01b039091169183156108fc02918491818181858888f19350505050158015610f31573d6000803e3d6000fd5b505b50565b6000546001600160a01b03163314610f605760405162461bcd60e51b81526004016109be90612a10565b600080546040516001600160a01b03909116907f8be0079c531659141344cd1fd0a4f28419497f9722a3daafe3b4186f6b6457e0908390a3600080546001600160a01b0319169055565b6000546001600160a01b03163314610fd45760405162461bcd60e51b81526004016109be90612a10565b6024805460ff19166001179055565b6000546001600160a01b0316331461100d5760405162461bcd60e51b81526004016109be90612a10565b61102369021e19e0c9bab24000006103e8611d82565b8110156110425760405162461bcd60e51b81526004016109be90612a45565b600855565b6000546001600160a01b031633146110715760405162461bcd60e51b81526004016109be90612a10565b6024805464ff0000000019169055565b6000546001600160a01b031633146110ab5760405162461bcd60e51b81526004016109be90612a10565b601b55565b600061098a3384846117ed565b6000546001600160a01b031633146110e75760405162461bcd60e51b81526004016109be90612a10565b306000908152600260205260409020548015610f3357610f3381611dcb565b6000546001600160a01b031633146111305760405162461bcd60e51b81526004016109be90612a10565b602080546001600160a01b0319166001600160a01b0392909216919091179055565b6000546001600160a01b0316331461117c5760405162461bcd60e51b81526004016109be90612a10565b426005556006556024805460ff19166001179055565b6000546001600160a01b031633146111bc5760405162461bcd60e51b81526004016109be90612a10565b6024805463ff00000019169055565b6000546001600160a01b031633146111f55760405162461bcd60e51b81526004016109be90612a10565b601f80546001600160a01b0319166001600160a01b0392909216919091179055565b6000546001600160a01b031633146112415760405162461bcd60e51b81526004016109be90612a10565b600a55565b6000546001600160a01b031633146112705760405162461bcd60e51b81526004016109be90612a10565b60006112888261128285818989611f6a565b90611f6a565b905060c88111156112f55760405162461bcd60e51b815260206004820152603160248201527f53756d206f66206275792066656573206d757374206265206c657373207468616044820152706e206f7220657175616c20746f2032302560781b60648201526084016109be565b602454640100000000900460ff1661134a5760405162461bcd60e51b8152602060048201526018602482015277151a1a5cc8199d5b98dd1a5bdb881a5cc8191a58589b195960421b60448201526064016109be565b600f859055600b8490556011839055600d8290556010859055600c8490556012839055600e8290556040805186815260208101869052908101849052606081018390527f892b2caa2d791bf7b8d9a49c4db7a4513ff1ae2e0e068ed217f9d5ab4c1a28f0906080015b60405180910390a15050505050565b6000546001600160a01b031633146113ec5760405162461bcd60e51b81526004016109be90612a10565b6001600160a01b03166000908152600460205260409020805460ff19169055565b6000546001600160a01b031633146114375760405162461bcd60e51b81526004016109be90612a10565b6001600160a01b03811661149c5760405162461bcd60e51b815260206004820152602660248201527f4f776e61626c653a206e6577206f776e657220697320746865207a65726f206160448201526564647265737360d01b60648201526084016109be565b610f3381611fc9565b6000546001600160a01b031633146114cf5760405162461bcd60e51b81526004016109be90612a10565b60006114e18261128285818989611f6a565b905060fa81111561154f5760405162461bcd60e51b815260206004820152603260248201527f53756d206f662073656c6c2066656573206d757374206265206c657373207468604482015271616e206f7220657175616c20746f2032352560701b60648201526084016109be565b602454640100000000900460ff166115a45760405162461bcd60e51b8152602060048201526018602482015277151a1a5cc8199d5b98dd1a5bdb881a5cc8191a58589b195960421b60448201526064016109be565b601785905560138490556019839055601582905560188590556014849055601a83905560168290556040805186815260208101869052908101849052606081018390527f439932620c72dddea29980c098bca1a482729646d1216b226d723c6d278a30d1906080016113b3565b6000546001600160a01b0316331461163b5760405162461bcd60e51b81526004016109be90612a10565b6024546301000000900460ff166116a55760405162461bcd60e51b815260206004820152602860248201527f7468697320636f6e74726163742063616e6e6f7420626c61636b6c6973742061604482015267646472657373657360c01b60648201526084016109be565b6001600160a01b03166000908152601c60205260409020805460ff19166001179055565b6001600160a01b03831661172b5760405162461bcd60e51b8152602060048201526024808201527f45524332303a20617070726f76652066726f6d20746865207a65726f206164646044820152637265737360e01b60648201526084016109be565b6001600160a01b03821661178c5760405162461bcd60e51b815260206004820152602260248201527f45524332303a20617070726f766520746f20746865207a65726f206164647265604482015261737360f01b60648201526084016109be565b6001600160a01b0383811660008181526003602090815260408083209487168084529482529182902085905590518481527f8c5be1e5ebec7d5bd14f71427d1e84f3dd0314c0f7b2291e5b200ac8c7c3b925910160405180910390a3505050565b6001600160a01b0383166118515760405162461bcd60e51b815260206004820152602560248201527f45524332303a207472616e736665722066726f6d20746865207a65726f206164604482015264647265737360d81b60648201526084016109be565b6001600160a01b0382166118b35760405162461bcd60e51b815260206004820152602360248201527f45524332303a207472616e7366657220746f20746865207a65726f206164647260448201526265737360e81b60648201526084016109be565b600081116119155760405162461bcd60e51b815260206004820152602960248201527f5472616e7366657220616d6f756e74206d7573742062652067726561746572206044820152687468616e207a65726f60b81b60648201526084016109be565b60016119296000546001600160a01b031690565b6001600160a01b0316846001600160a01b03161415801561195857506000546001600160a01b03848116911614155b801561196d57506001600160a01b0384163014155b801561198257506001600160a01b0383163014155b15611cee5760245460ff166119d15760405162461bcd60e51b815260206004820152601560248201527454726164696e67206973206e6f742061637469766560581b60448201526064016109be565b6022546001600160a01b0385811691161480156119fc57506021546001600160a01b03848116911614155b15611ad057600654600554611a1091611f6a565b4211611a3a576001600160a01b0383166000908152601c60205260409020805460ff191660011790555b600754611a6083611282866001600160a01b031660009081526002602052604090205490565b1115611a7e5760405162461bcd60e51b81526004016109be906129a9565b600954821115611ad05760405162461bcd60e51b815260206004820181905260248201527f416d6f756e742065786365656473206d6178696d756d20627579206c696d697460448201526064016109be565b602454610100900460ff16158015611af657506022546001600160a01b03858116911614155b8015611b0f57506022546001600160a01b038481169116145b15611c79576001600160a01b0384166000908152601c602052604090205460ff16158015611b5657506001600160a01b0383166000908152601c602052604090205460ff16155b611b5f57600080fd5b600854821115611bbb5760405162461bcd60e51b815260206004820152602160248201527f416d6f756e742065786365656473206d6178696d756d2073656c6c206c696d696044820152601d60fa1b60648201526084016109be565b30600090815260026020526040902054600a548110611c77578015611c65576000611bff601354611282601554611282601954601754611f6a90919063ffffffff16565b1115611c65576000611c40611c2d601354611282601554611282601954601754611f6a90919063ffffffff16565b601354611c3a9085612019565b90611d82565b90506000818310611c5857611c558383612098565b90505b611c6282826120da565b50505b478015611c7557611c754761214d565b505b505b6022546001600160a01b03858116911614801590611ca557506022546001600160a01b03848116911614155b15611cee57600754611cd083611282866001600160a01b031660009081526002602052604090205490565b1115611cee5760405162461bcd60e51b81526004016109be906129a9565b6001600160a01b03841660009081526004602052604090205460ff1680611d2d57506001600160a01b03831660009081526004602052604090205460ff165b15611d36575060005b611d4284848484612293565b50505050565b60008184841115611d6c5760405162461bcd60e51b81526004016109be9190612956565b506000611d798486612b5d565b95945050505050565b6000611dc483836040518060400160405280601a81526020017f536166654d6174683a206469766973696f6e206279207a65726f000000000000815250612331565b9392505050565b6024805461ff0019166101001790556040805160028082526060820183526000926020830190803683370190505090503081600081518110611e1d57634e487b7160e01b600052603260045260246000fd5b6001600160a01b03928316602091820292909201810191909152602154604080516315ab88c960e31b81529051919093169263ad5c4648926004808301939192829003018186803b158015611e7157600080fd5b505afa158015611e85573d6000803e3d6000fd5b505050506040513d601f19601f82011682018060405250810190611ea991906127e9565b81600181518110611eca57634e487b7160e01b600052603260045260246000fd5b6001600160a01b039283166020918202929092010152602154611ef091309116846116c9565b60215460405163791ac94760e01b81526001600160a01b039091169063791ac94790611f29908590600090869030904290600401612a96565b600060405180830381600087803b158015611f4357600080fd5b505af1158015611f57573d6000803e3d6000fd5b50506024805461ff001916905550505050565b600080611f778385612b06565b905083811015611dc45760405162461bcd60e51b815260206004820152601b60248201527f536166654d6174683a206164646974696f6e206f766572666c6f77000000000060448201526064016109be565b600080546001600160a01b038381166001600160a01b0319831681178455604051919092169283917f8be0079c531659141344cd1fd0a4f28419497f9722a3daafe3b4186f6b6457e09190a35050565b6000826120285750600061098e565b60006120348385612b3e565b9050826120418583612b1e565b14611dc45760405162461bcd60e51b815260206004820152602160248201527f536166654d6174683a206d756c7469706c69636174696f6e206f766572666c6f6044820152607760f81b60648201526084016109be565b6000611dc483836040518060400160405280601e81526020017f536166654d6174683a207375627472616374696f6e206f766572666c6f770000815250611d48565b6024805461ff00191661010017905560006120f6836002611d82565b905060006121048483612098565b9050476121196121148585611f6a565b611dcb565b60006121254783612098565b90508215611f5757611f578361214861213e8888611f6a565b611c3a8589612019565b61235f565b600061216c601954611282601554601754611f6a90919063ffffffff16565b90508015610f3157600061218f82611c3a6017548661201990919063ffffffff16565b905060006121ac83611c3a6019548761201990919063ffffffff16565b905060006121c4826121be8786612098565b90612098565b9050821561220857601d546040516001600160a01b039091169084156108fc029085906000818181858888f19350505050158015612206573d6000803e3d6000fd5b505b811561224a57601e546040516001600160a01b039091169083156108fc029084906000818181858888f19350505050158015612248573d6000803e3d6000fd5b505b801561228c57601f546040516001600160a01b039091169082156108fc029083906000818181858888f1935050505015801561228a573d6000803e3d6000fd5b505b5050505050565b806122f1576122f1600f8054601055600b8054600c5560118054601255600d8054600e5560009384905591839055829055819055601780546018556013805460145560198054601a5560158054601655928490559083905582905555565b6122fc84848461241b565b611d42601054600f55600c54600b55601254601155600e54600d55601854601755601454601355601a54601955601654601555565b600081836123525760405162461bcd60e51b81526004016109be9190612956565b506000611d798486612b1e565b6021546123779030906001600160a01b0316846116c9565b60215460205460405163f305d71960e01b81523060048201526024810185905260006044820181905260648201526001600160a01b0391821660848201524260a482015291169063f305d71990839060c4016060604051808303818588803b1580156123e257600080fd5b505af11580156123f6573d6000803e3d6000fd5b50505050506040513d601f19601f8201168201806040525081019061228c91906128f8565b61244d6040518060a0016040528060008152602001600081526020016000815260200160008152602001600081525090565b6022546001600160a01b03858116911614801561247857506021546001600160a01b03848116911614155b156124ec576124986103e8611c3a600f548561201990919063ffffffff16565b6020820152600b546124b3906103e890611c3a908590612019565b81526011546124cb906103e890611c3a908590612019565b6040820152600d546124e6906103e890611c3a908590612019565b60608201525b6022546001600160a01b0385811691161480159061251757506022546001600160a01b038481169116145b1561258b576125376103e8611c3a6017548561201990919063ffffffff16565b6020820152601354612552906103e890611c3a908590612019565b815260195461256a906103e890611c3a908590612019565b6040820152601554612585906103e890611c3a908590612019565b60608201525b6022546001600160a01b038581169116148015906125b757506022546001600160a01b03848116911614155b15612671576125e86064611c3a601b546125e26103e8611c3a6017548961201990919063ffffffff16565b90612019565b8160200181815250506126176064611c3a601b546125e26103e8611c3a6013548961201990919063ffffffff16565b8152601b5460195461263c91606491611c3a91906125e2906103e89084908990612019565b81604001818152505061266b6064611c3a601b546125e26103e8611c3a6015548961201990919063ffffffff16565b60608201525b6126a081606001516121be83604001516121be85600001516121be87602001518961209890919063ffffffff16565b60808201526001600160a01b0384166000908152600260205260409020546126c89083612098565b6001600160a01b03808616600090815260026020526040808220939093556080840151918616815291909120546126fe91611f6a565b60026000856001600160a01b03166001600160a01b031681526020019081526020016000208190555061276b6127558260600151611282846040015161128286600001518760200151611f6a90919063ffffffff16565b3060009081526002602052604090205490611f6a565b3060009081526002602090815260409182902092909255608083015190519081526001600160a01b0385811692908716917fddf252ad1be2c89b69c2b068fc378daa952ba7f163c4a11628f55a4df523b3ef910160405180910390a350505050565b6000602082840312156127de578081fd5b8135611dc481612b8a565b6000602082840312156127fa578081fd5b8151611dc481612b8a565b60008060408385031215612817578081fd5b823561282281612b8a565b9150602083013561283281612b8a565b809150509250929050565b600080600060608486031215612851578081fd5b833561285c81612b8a565b9250602084013561286c81612b8a565b929592945050506040919091013590565b6000806040838503121561288f578182fd5b823561289a81612b8a565b946020939093013593505050565b6000602082840312156128b9578081fd5b81518015158114611dc4578182fd5b6000602082840312156128d9578081fd5b5035919050565b6000602082840312156128f1578081fd5b5051919050565b60008060006060848603121561290c578283fd5b8351925060208401519150604084015190509250925092565b6000806000806080858703121561293a578081fd5b5050823594602084013594506040840135936060013592509050565b6000602080835283518082850152825b8181101561298257858101830151858201604001528201612966565b818111156129935783604083870101525b50601f01601f1916929092016040019392505050565b60208082526041908201527f77616c6c65742062616c616e6365206166746572207472616e73666572206d7560408201527f7374206265206c657373207468616e206d61782077616c6c657420616d6f756e6060820152601d60fa1b608082015260a00190565b6020808252818101527f4f776e61626c653a2063616c6c6572206973206e6f7420746865206f776e6572604082015260600190565b60208082526031908201527f63616e74206d616b6520746865206c696d6974206c6f776572207468616e20306040820152702e3125206f662074686520737570706c7960781b606082015260800190565b600060a082018783526020878185015260a0604085015281875180845260c0860191508289019350845b81811015612ae55784516001600160a01b031683529383019391830191600101612ac0565b50506001600160a01b03969096166060850152505050608001529392505050565b60008219821115612b1957612b19612b74565b500190565b600082612b3957634e487b7160e01b81526012600452602481fd5b500490565b6000816000190483118215151615612b5857612b58612b74565b500290565b600082821015612b6f57612b6f612b74565b500390565b634e487b7160e01b600052601160045260246000fd5b6001600160a01b0381168114610f3357600080fdfe45524332303a207472616e7366657220616d6f756e74206578636565647320616c6c6f77616e6365a2646970667358221220c13bb3fd613a730393183f8245b77001a0566a9757b4db94e9d0d953c98af8ae64736f6c63430008040033",
			"opcodes": "PUSH1 0x80 PUSH1 0x40 MSTORE PUSH8 0x8AC7230489E80000 PUSH1 0xA SSTORE PUSH1 0x0 PUSH1 0xB DUP2 SWAP1 SSTORE PUSH1 0xC DUP2 SWAP1 SSTORE PUSH1 0xD DUP2 SWAP1 SSTORE PUSH1 0xE DUP2 SWAP1 SSTORE PUSH1 0xF DUP2 SWAP1 SSTORE PUSH1 0x10 DUP2 SWAP1 SSTORE PUSH1 0x11 DUP2 SWAP1 SSTORE PUSH1 0x12 DUP2 SWAP1 SSTORE PUSH1 0x13 DUP2 SWAP1 SSTORE PUSH1 0x14 DUP2 SWAP1 SSTORE PUSH1 0x15 DUP2 SWAP1 SSTORE PUSH1 0x16 DUP2 SWAP1 SSTORE PUSH1 0x17 DUP2 SWAP1 SSTORE PUSH1 0x18 DUP2 SWAP1 SSTORE PUSH1 0x19 DUP2 SWAP1 SSTORE PUSH1 0x1A DUP2 SWAP1 SSTORE PUSH1 0x1B SSTORE PUSH1 0x1D DUP1 SLOAD PUSH2 0xDEAD PUSH1 0x1 PUSH1 0x1 PUSH1 0xA0 SHL SUB NOT SWAP2 DUP3 AND DUP2 OR SWAP1 SWAP3 SSTORE PUSH1 0x1E DUP1 SLOAD DUP3 AND DUP4 OR SWAP1 SSTORE PUSH1 0x1F DUP1 SLOAD DUP3 AND DUP4 OR SWAP1 SSTORE PUSH1 0x20 DUP1 SLOAD SWAP1 SWAP2 AND SWAP1 SWAP2 OR SWAP1 SSTORE PUSH1 0x24 DUP1 SLOAD PUSH5 0xFFFFFFFFFF NOT AND PUSH5 0x101010000 OR SWAP1 SSTORE CALLVALUE DUP1 ISZERO PUSH3 0xBF JUMPI PUSH1 0x0 DUP1 REVERT JUMPDEST POP PUSH1 0x0 DUP1 SLOAD PUSH1 0x1 PUSH1 0x1 PUSH1 0xA0 SHL SUB NOT AND CALLER SWAP1 DUP2 OR DUP3 SSTORE PUSH1 0x40 MLOAD SWAP1 SWAP2 DUP3 SWAP2 PUSH32 0x8BE0079C531659141344CD1FD0A4F28419497F9722A3DAAFE3B4186F6B6457E0 SWAP1 DUP3 SWAP1 LOG3 POP PUSH1 0x21 DUP1 SLOAD PUSH1 0x1 PUSH1 0x1 PUSH1 0xA0 SHL SUB NOT AND PUSH20 0x10ED43C718714EB63D5AA57B78B54704E256024E SWAP1 DUP2 OR SWAP1 SWAP2 SSTORE PUSH3 0x141 ADDRESS DUP3 PUSH10 0x21E19E0C9BAB2400000 PUSH3 0x3FF JUMP JUMPDEST DUP1 PUSH1 0x1 PUSH1 0x1 PUSH1 0xA0 SHL SUB AND PUSH4 0xC45A0155 PUSH1 0x40 MLOAD DUP2 PUSH4 0xFFFFFFFF AND PUSH1 0xE0 SHL DUP2 MSTORE PUSH1 0x4 ADD PUSH1 0x20 PUSH1 0x40 MLOAD DUP1 DUP4 SUB DUP2 DUP7 DUP1 EXTCODESIZE ISZERO DUP1 ISZERO PUSH3 0x17B JUMPI PUSH1 0x0 DUP1 REVERT JUMPDEST POP GAS STATICCALL ISZERO DUP1 ISZERO PUSH3 0x190 JUMPI RETURNDATASIZE PUSH1 0x0 DUP1 RETURNDATACOPY RETURNDATASIZE PUSH1 0x0 REVERT JUMPDEST POP POP POP POP PUSH1 0x40 MLOAD RETURNDATASIZE PUSH1 0x1F NOT PUSH1 0x1F DUP3 ADD AND DUP3 ADD DUP1 PUSH1 0x40 MSTORE POP DUP2 ADD SWAP1 PUSH3 0x1B6 SWAP2 SWAP1 PUSH3 0x52B JUMP JUMPDEST PUSH1 0x1 PUSH1 0x1 PUSH1 0xA0 SHL SUB AND PUSH4 0xC9C65396 ADDRESS DUP4 PUSH1 0x1 PUSH1 0x1 PUSH1 0xA0 SHL SUB AND PUSH4 0xAD5C4648 PUSH1 0x40 MLOAD DUP2 PUSH4 0xFFFFFFFF AND PUSH1 0xE0 SHL DUP2 MSTORE PUSH1 0x4 ADD PUSH1 0x20 PUSH1 0x40 MLOAD DUP1 DUP4 SUB DUP2 DUP7 DUP1 EXTCODESIZE ISZERO DUP1 ISZERO PUSH3 0x1FF JUMPI PUSH1 0x0 DUP1 REVERT JUMPDEST POP GAS STATICCALL ISZERO DUP1 ISZERO PUSH3 0x214 JUMPI RETURNDATASIZE PUSH1 0x0 DUP1 RETURNDATACOPY RETURNDATASIZE PUSH1 0x0 REVERT JUMPDEST POP POP POP POP PUSH1 0x40 MLOAD RETURNDATASIZE PUSH1 0x1F NOT PUSH1 0x1F DUP3 ADD AND DUP3 ADD DUP1 PUSH1 0x40 MSTORE POP DUP2 ADD SWAP1 PUSH3 0x23A SWAP2 SWAP1 PUSH3 0x52B JUMP JUMPDEST PUSH1 0x40 MLOAD PUSH1 0x1 PUSH1 0x1 PUSH1 0xE0 SHL SUB NOT PUSH1 0xE0 DUP6 SWAP1 SHL AND DUP2 MSTORE PUSH1 0x1 PUSH1 0x1 PUSH1 0xA0 SHL SUB SWAP3 DUP4 AND PUSH1 0x4 DUP3 ADD MSTORE SWAP2 AND PUSH1 0x24 DUP3 ADD MSTORE PUSH1 0x44 ADD PUSH1 0x20 PUSH1 0x40 MLOAD DUP1 DUP4 SUB DUP2 PUSH1 0x0 DUP8 DUP1 EXTCODESIZE ISZERO DUP1 ISZERO PUSH3 0x283 JUMPI PUSH1 0x0 DUP1 REVERT JUMPDEST POP GAS CALL ISZERO DUP1 ISZERO PUSH3 0x298 JUMPI RETURNDATASIZE PUSH1 0x0 DUP1 RETURNDATACOPY RETURNDATASIZE PUSH1 0x0 REVERT JUMPDEST POP POP POP POP PUSH1 0x40 MLOAD RETURNDATASIZE PUSH1 0x1F NOT PUSH1 0x1F DUP3 ADD AND DUP3 ADD DUP1 PUSH1 0x40 MSTORE POP DUP2 ADD SWAP1 PUSH3 0x2BE SWAP2 SWAP1 PUSH3 0x52B JUMP JUMPDEST PUSH1 0x22 DUP1 SLOAD PUSH1 0x1 PUSH1 0x1 PUSH1 0xA0 SHL SUB NOT AND PUSH1 0x1 PUSH1 0x1 PUSH1 0xA0 SHL SUB SWAP3 DUP4 AND SWAP1 DUP2 OR SWAP1 SWAP2 SSTORE PUSH1 0x21 SLOAD PUSH1 0x40 MLOAD PUSH4 0x95EA7B3 PUSH1 0xE0 SHL DUP2 MSTORE SWAP3 AND PUSH1 0x4 DUP4 ADD MSTORE PUSH1 0x0 NOT PUSH1 0x24 DUP4 ADD MSTORE SWAP1 PUSH4 0x95EA7B3 SWAP1 PUSH1 0x44 ADD PUSH1 0x20 PUSH1 0x40 MLOAD DUP1 DUP4 SUB DUP2 PUSH1 0x0 DUP8 DUP1 EXTCODESIZE ISZERO DUP1 ISZERO PUSH3 0x321 JUMPI PUSH1 0x0 DUP1 REVERT JUMPDEST POP GAS CALL ISZERO DUP1 ISZERO PUSH3 0x336 JUMPI RETURNDATASIZE PUSH1 0x0 DUP1 RETURNDATACOPY RETURNDATASIZE PUSH1 0x0 REVERT JUMPDEST POP POP POP POP PUSH1 0x40 MLOAD RETURNDATASIZE PUSH1 0x1F NOT PUSH1 0x1F DUP3 ADD AND DUP3 ADD DUP1 PUSH1 0x40 MSTORE POP DUP2 ADD SWAP1 PUSH3 0x35C SWAP2 SWAP1 PUSH3 0x55B JUMP JUMPDEST POP PUSH10 0x21E19E0C9BAB2400000 PUSH1 0x23 DUP2 SWAP1 SSTORE PUSH1 0x7 DUP2 SWAP1 SSTORE PUSH1 0x9 DUP2 SWAP1 SSTORE PUSH1 0x8 DUP2 SWAP1 SSTORE CALLER PUSH1 0x0 DUP2 DUP2 MSTORE PUSH1 0x2 PUSH1 0x20 SWAP1 DUP2 MSTORE PUSH1 0x40 DUP1 DUP4 KECCAK256 DUP6 SWAP1 SSTORE DUP3 SLOAD PUSH1 0x1 PUSH1 0x1 PUSH1 0xA0 SHL SUB AND DUP4 MSTORE PUSH1 0x4 DUP3 MSTORE DUP1 DUP4 KECCAK256 DUP1 SLOAD PUSH1 0xFF NOT SWAP1 DUP2 AND PUSH1 0x1 SWAP1 DUP2 OR SWAP1 SWAP3 SSTORE ADDRESS DUP6 MSTORE DUP3 DUP6 KECCAK256 DUP1 SLOAD SWAP1 SWAP2 AND SWAP1 SWAP2 OR SWAP1 SSTORE MLOAD SWAP4 DUP5 MSTORE SWAP2 SWAP3 SWAP1 SWAP2 PUSH32 0xDDF252AD1BE2C89B69C2B068FC378DAA952BA7F163C4A11628F55A4DF523B3EF SWAP2 ADD PUSH1 0x40 MLOAD DUP1 SWAP2 SUB SWAP1 LOG3 POP PUSH3 0x57D JUMP JUMPDEST PUSH1 0x1 PUSH1 0x1 PUSH1 0xA0 SHL SUB DUP4 AND PUSH3 0x467 JUMPI PUSH1 0x40 MLOAD PUSH3 0x461BCD PUSH1 0xE5 SHL DUP2 MSTORE PUSH1 0x20 PUSH1 0x4 DUP3 ADD MSTORE PUSH1 0x24 DUP1 DUP3 ADD MSTORE PUSH32 0x45524332303A20617070726F76652066726F6D20746865207A65726F20616464 PUSH1 0x44 DUP3 ADD MSTORE PUSH4 0x72657373 PUSH1 0xE0 SHL PUSH1 0x64 DUP3 ADD MSTORE PUSH1 0x84 ADD JUMPDEST PUSH1 0x40 MLOAD DUP1 SWAP2 SUB SWAP1 REVERT JUMPDEST PUSH1 0x1 PUSH1 0x1 PUSH1 0xA0 SHL SUB DUP3 AND PUSH3 0x4CA JUMPI PUSH1 0x40 MLOAD PUSH3 0x461BCD PUSH1 0xE5 SHL DUP2 MSTORE PUSH1 0x20 PUSH1 0x4 DUP3 ADD MSTORE PUSH1 0x22 PUSH1 0x24 DUP3 ADD MSTORE PUSH32 0x45524332303A20617070726F766520746F20746865207A65726F206164647265 PUSH1 0x44 DUP3 ADD MSTORE PUSH2 0x7373 PUSH1 0xF0 SHL PUSH1 0x64 DUP3 ADD MSTORE PUSH1 0x84 ADD PUSH3 0x45E JUMP JUMPDEST PUSH1 0x1 PUSH1 0x1 PUSH1 0xA0 SHL SUB DUP4 DUP2 AND PUSH1 0x0 DUP2 DUP2 MSTORE PUSH1 0x3 PUSH1 0x20 SWAP1 DUP2 MSTORE PUSH1 0x40 DUP1 DUP4 KECCAK256 SWAP5 DUP8 AND DUP1 DUP5 MSTORE SWAP5 DUP3 MSTORE SWAP2 DUP3 SWAP1 KECCAK256 DUP6 SWAP1 SSTORE SWAP1 MLOAD DUP5 DUP2 MSTORE PUSH32 0x8C5BE1E5EBEC7D5BD14F71427D1E84F3DD0314C0F7B2291E5B200AC8C7C3B925 SWAP2 ADD PUSH1 0x40 MLOAD DUP1 SWAP2 SUB SWAP1 LOG3 POP POP POP JUMP JUMPDEST PUSH1 0x0 PUSH1 0x20 DUP3 DUP5 SUB SLT ISZERO PUSH3 0x53D JUMPI DUP1 DUP2 REVERT JUMPDEST DUP2 MLOAD PUSH1 0x1 PUSH1 0x1 PUSH1 0xA0 SHL SUB DUP2 AND DUP2 EQ PUSH3 0x554 JUMPI DUP2 DUP3 REVERT JUMPDEST SWAP4 SWAP3 POP POP POP JUMP JUMPDEST PUSH1 0x0 PUSH1 0x20 DUP3 DUP5 SUB SLT ISZERO PUSH3 0x56D JUMPI DUP1 DUP2 REVERT JUMPDEST DUP2 MLOAD DUP1 ISZERO ISZERO DUP2 EQ PUSH3 0x554 JUMPI DUP2 DUP3 REVERT JUMPDEST PUSH2 0x2BFD DUP1 PUSH3 0x58D PUSH1 0x0 CODECOPY PUSH1 0x0 RETURN INVALID PUSH1 0x80 PUSH1 0x40 MSTORE PUSH1 0x4 CALLDATASIZE LT PUSH2 0x31E JUMPI PUSH1 0x0 CALLDATALOAD PUSH1 0xE0 SHR DUP1 PUSH4 0x72B2AECC GT PUSH2 0x1AB JUMPI DUP1 PUSH4 0xCAB03471 GT PUSH2 0xF7 JUMPI DUP1 PUSH4 0xE315A6DA GT PUSH2 0x95 JUMPI DUP1 PUSH4 0xF2FDE38B GT PUSH2 0x6F JUMPI DUP1 PUSH4 0xF2FDE38B EQ PUSH2 0x903 JUMPI DUP1 PUSH4 0xF480FEC2 EQ PUSH2 0x923 JUMPI DUP1 PUSH4 0xFFB54A99 EQ PUSH2 0x943 JUMPI DUP1 PUSH4 0xFFECF516 EQ PUSH2 0x95D JUMPI PUSH1 0x0 DUP1 REVERT JUMPDEST DUP1 PUSH4 0xE315A6DA EQ PUSH2 0x8A3 JUMPI DUP1 PUSH4 0xE4BF1BED EQ PUSH2 0x8C3 JUMPI DUP1 PUSH4 0xEA2F0B37 EQ PUSH2 0x8E3 JUMPI PUSH1 0x0 DUP1 REVERT JUMPDEST DUP1 PUSH4 0xD55CB78A GT PUSH2 0xD1 JUMPI DUP1 PUSH4 0xD55CB78A EQ PUSH2 0x812 JUMPI DUP1 PUSH4 0xDB0045EC EQ PUSH2 0x827 JUMPI DUP1 PUSH4 0xDC44B6A0 EQ PUSH2 0x847 JUMPI DUP1 PUSH4 0xDD62ED3E EQ PUSH2 0x85D JUMPI PUSH1 0x0 DUP1 REVERT JUMPDEST DUP1 PUSH4 0xCAB03471 EQ PUSH2 0x7BC JUMPI DUP1 PUSH4 0xCDB3858F EQ PUSH2 0x7D2 JUMPI DUP1 PUSH4 0xD1633649 EQ PUSH2 0x7F2 JUMPI PUSH1 0x0 DUP1 REVERT JUMPDEST DUP1 PUSH4 0x99A7B9BC GT PUSH2 0x164 JUMPI DUP1 PUSH4 0xC3C8CD80 GT PUSH2 0x13E JUMPI DUP1 PUSH4 0xC3C8CD80 EQ PUSH2 0x765 JUMPI DUP1 PUSH4 0xC469B6DD EQ PUSH2 0x77A JUMPI DUP1 PUSH4 0xC5D24189 EQ PUSH2 0x790 JUMPI DUP1 PUSH4 0xC8607952 EQ PUSH2 0x7A6 JUMPI PUSH1 0x0 DUP1 REVERT JUMPDEST DUP1 PUSH4 0x99A7B9BC EQ PUSH2 0x710 JUMPI DUP1 PUSH4 0xA850673D EQ PUSH2 0x725 JUMPI DUP1 PUSH4 0xA9059CBB EQ PUSH2 0x745 JUMPI PUSH1 0x0 DUP1 REVERT JUMPDEST DUP1 PUSH4 0x72B2AECC EQ PUSH2 0x691 JUMPI DUP1 PUSH4 0x88790A68 EQ PUSH2 0x6A7 JUMPI DUP1 PUSH4 0x8DA5CB5B EQ PUSH2 0x6BD JUMPI DUP1 PUSH4 0x8E360253 EQ PUSH2 0x6DB JUMPI DUP1 PUSH4 0x9164F9DB EQ PUSH2 0x6F0 JUMPI DUP1 PUSH4 0x95D89B41 EQ PUSH2 0x353 JUMPI PUSH1 0x0 DUP1 REVERT JUMPDEST DUP1 PUSH4 0x323BE1C5 GT PUSH2 0x26A JUMPI DUP1 PUSH4 0x58881304 GT PUSH2 0x223 JUMPI DUP1 PUSH4 0x6C0A24EB GT PUSH2 0x1FD JUMPI DUP1 PUSH4 0x6C0A24EB EQ PUSH2 0x61B JUMPI DUP1 PUSH4 0x6FC3EAEC EQ PUSH2 0x631 JUMPI DUP1 PUSH4 0x70A08231 EQ PUSH2 0x646 JUMPI DUP1 PUSH4 0x715018A6 EQ PUSH2 0x67C JUMPI PUSH1 0x0 DUP1 REVERT JUMPDEST DUP1 PUSH4 0x58881304 EQ PUSH2 0x5C6 JUMPI DUP1 PUSH4 0x5FECD926 EQ PUSH2 0x5E6 JUMPI DUP1 PUSH4 0x6AABFF3F EQ PUSH2 0x606 JUMPI PUSH1 0x0 DUP1 REVERT JUMPDEST DUP1 PUSH4 0x323BE1C5 EQ PUSH2 0x4DE JUMPI DUP1 PUSH4 0x39A53C4E EQ PUSH2 0x4FE JUMPI DUP1 PUSH4 0x3BBAC579 EQ PUSH2 0x520 JUMPI DUP1 PUSH4 0x3E0F966D EQ PUSH2 0x559 JUMPI DUP1 PUSH4 0x437823EC EQ PUSH2 0x56E JUMPI DUP1 PUSH4 0x49BD5A5E EQ PUSH2 0x58E JUMPI PUSH1 0x0 DUP1 REVERT JUMPDEST DUP1 PUSH4 0x23B872DD GT PUSH2 0x2D7 JUMPI DUP1 PUSH4 0x2843631D GT PUSH2 0x2B1 JUMPI DUP1 PUSH4 0x2843631D EQ PUSH2 0x46B JUMPI DUP1 PUSH4 0x29409395 EQ PUSH2 0x481 JUMPI DUP1 PUSH4 0x301AD558 EQ PUSH2 0x4A1 JUMPI DUP1 PUSH4 0x313CE567 EQ PUSH2 0x4C2 JUMPI PUSH1 0x0 DUP1 REVERT JUMPDEST DUP1 PUSH4 0x23B872DD EQ PUSH2 0x415 JUMPI DUP1 PUSH4 0x248DD232 EQ PUSH2 0x435 JUMPI DUP1 PUSH4 0x27A14FC2 EQ PUSH2 0x44B JUMPI PUSH1 0x0 DUP1 REVERT JUMPDEST DUP1 PUSH4 0x1A6C43B EQ PUSH2 0x32A JUMPI DUP1 PUSH4 0x6FDDE03 EQ PUSH2 0x353 JUMPI DUP1 PUSH4 0x95EA7B3 EQ PUSH2 0x386 JUMPI DUP1 PUSH4 0x14EB76AC EQ PUSH2 0x3B6 JUMPI DUP1 PUSH4 0x18160DDD EQ PUSH2 0x3D8 JUMPI DUP1 PUSH4 0x2369BF83 EQ PUSH2 0x3F5 JUMPI PUSH1 0x0 DUP1 REVERT JUMPDEST CALLDATASIZE PUSH2 0x325 JUMPI STOP JUMPDEST PUSH1 0x0 DUP1 REVERT JUMPDEST CALLVALUE DUP1 ISZERO PUSH2 0x336 JUMPI PUSH1 0x0 DUP1 REVERT JUMPDEST POP PUSH2 0x340 PUSH1 0xA SLOAD DUP2 JUMP JUMPDEST PUSH1 0x40 MLOAD SWAP1 DUP2 MSTORE PUSH1 0x20 ADD JUMPDEST PUSH1 0x40 MLOAD DUP1 SWAP2 SUB SWAP1 RETURN JUMPDEST CALLVALUE DUP1 ISZERO PUSH2 0x35F JUMPI PUSH1 0x0 DUP1 REVERT JUMPDEST POP PUSH1 0x40 DUP1 MLOAD DUP1 DUP3 ADD DUP3 MSTORE PUSH1 0x4 DUP2 MSTORE PUSH4 0x444F4B49 PUSH1 0xE0 SHL PUSH1 0x20 DUP3 ADD MSTORE SWAP1 MLOAD PUSH2 0x34A SWAP2 SWAP1 PUSH2 0x2956 JUMP JUMPDEST CALLVALUE DUP1 ISZERO PUSH2 0x392 JUMPI PUSH1 0x0 DUP1 REVERT JUMPDEST POP PUSH2 0x3A6 PUSH2 0x3A1 CALLDATASIZE PUSH1 0x4 PUSH2 0x287D JUMP JUMPDEST PUSH2 0x97D JUMP JUMPDEST PUSH1 0x40 MLOAD SWAP1 ISZERO ISZERO DUP2 MSTORE PUSH1 0x20 ADD PUSH2 0x34A JUMP JUMPDEST CALLVALUE DUP1 ISZERO PUSH2 0x3C2 JUMPI PUSH1 0x0 DUP1 REVERT JUMPDEST POP PUSH2 0x3D6 PUSH2 0x3D1 CALLDATASIZE PUSH1 0x4 PUSH2 0x27CD JUMP JUMPDEST PUSH2 0x994 JUMP JUMPDEST STOP JUMPDEST CALLVALUE DUP1 ISZERO PUSH2 0x3E4 JUMPI PUSH1 0x0 DUP1 REVERT JUMPDEST POP PUSH10 0x21E19E0C9BAB2400000 PUSH2 0x340 JUMP JUMPDEST CALLVALUE DUP1 ISZERO PUSH2 0x401 JUMPI PUSH1 0x0 DUP1 REVERT JUMPDEST POP PUSH2 0x3D6 PUSH2 0x410 CALLDATASIZE PUSH1 0x4 PUSH2 0x27CD JUMP JUMPDEST PUSH2 0x9E9 JUMP JUMPDEST CALLVALUE DUP1 ISZERO PUSH2 0x421 JUMPI PUSH1 0x0 DUP1 REVERT JUMPDEST POP PUSH2 0x3A6 PUSH2 0x430 CALLDATASIZE PUSH1 0x4 PUSH2 0x283D JUMP JUMPDEST PUSH2 0xA35 JUMP JUMPDEST CALLVALUE DUP1 ISZERO PUSH2 0x441 JUMPI PUSH1 0x0 DUP1 REVERT JUMPDEST POP PUSH2 0x340 PUSH1 0x15 SLOAD DUP2 JUMP JUMPDEST CALLVALUE DUP1 ISZERO PUSH2 0x457 JUMPI PUSH1 0x0 DUP1 REVERT JUMPDEST POP PUSH2 0x3D6 PUSH2 0x466 CALLDATASIZE PUSH1 0x4 PUSH2 0x28C8 JUMP JUMPDEST PUSH2 0xA9E JUMP JUMPDEST CALLVALUE DUP1 ISZERO PUSH2 0x477 JUMPI PUSH1 0x0 DUP1 REVERT JUMPDEST POP PUSH2 0x340 PUSH1 0xD SLOAD DUP2 JUMP JUMPDEST CALLVALUE DUP1 ISZERO PUSH2 0x48D JUMPI PUSH1 0x0 DUP1 REVERT JUMPDEST POP PUSH2 0x3D6 PUSH2 0x49C CALLDATASIZE PUSH1 0x4 PUSH2 0x27CD JUMP JUMPDEST PUSH2 0xBB8 JUMP JUMPDEST CALLVALUE DUP1 ISZERO PUSH2 0x4AD JUMPI PUSH1 0x0 DUP1 REVERT JUMPDEST POP PUSH1 0x24 SLOAD PUSH2 0x3A6 SWAP1 PUSH4 0x1000000 SWAP1 DIV PUSH1 0xFF AND DUP2 JUMP JUMPDEST CALLVALUE DUP1 ISZERO PUSH2 0x4CE JUMPI PUSH1 0x0 DUP1 REVERT JUMPDEST POP PUSH1 0x40 MLOAD PUSH1 0x9 DUP2 MSTORE PUSH1 0x20 ADD PUSH2 0x34A JUMP JUMPDEST CALLVALUE DUP1 ISZERO PUSH2 0x4EA JUMPI PUSH1 0x0 DUP1 REVERT JUMPDEST POP PUSH1 0x24 SLOAD PUSH2 0x3A6 SWAP1 PUSH3 0x10000 SWAP1 DIV PUSH1 0xFF AND DUP2 JUMP JUMPDEST CALLVALUE DUP1 ISZERO PUSH2 0x50A JUMPI PUSH1 0x0 DUP1 REVERT JUMPDEST POP PUSH1 0x24 SLOAD PUSH2 0x3A6 SWAP1 PUSH5 0x100000000 SWAP1 DIV PUSH1 0xFF AND DUP2 JUMP JUMPDEST CALLVALUE DUP1 ISZERO PUSH2 0x52C JUMPI PUSH1 0x0 DUP1 REVERT JUMPDEST POP PUSH2 0x3A6 PUSH2 0x53B CALLDATASIZE PUSH1 0x4 PUSH2 0x27CD JUMP JUMPDEST PUSH1 0x1 PUSH1 0x1 PUSH1 0xA0 SHL SUB AND PUSH1 0x0 SWAP1 DUP2 MSTORE PUSH1 0x1C PUSH1 0x20 MSTORE PUSH1 0x40 SWAP1 KECCAK256 SLOAD PUSH1 0xFF AND SWAP1 JUMP JUMPDEST CALLVALUE DUP1 ISZERO PUSH2 0x565 JUMPI PUSH1 0x0 DUP1 REVERT JUMPDEST POP PUSH2 0x3D6 PUSH2 0xD04 JUMP JUMPDEST CALLVALUE DUP1 ISZERO PUSH2 0x57A JUMPI PUSH1 0x0 DUP1 REVERT JUMPDEST POP PUSH2 0x3D6 PUSH2 0x589 CALLDATASIZE PUSH1 0x4 PUSH2 0x27CD JUMP JUMPDEST PUSH2 0xD92 JUMP JUMPDEST CALLVALUE DUP1 ISZERO PUSH2 0x59A JUMPI PUSH1 0x0 DUP1 REVERT JUMPDEST POP PUSH1 0x22 SLOAD PUSH2 0x5AE SWAP1 PUSH1 0x1 PUSH1 0x1 PUSH1 0xA0 SHL SUB AND DUP2 JUMP JUMPDEST PUSH1 0x40 MLOAD PUSH1 0x1 PUSH1 0x1 PUSH1 0xA0 SHL SUB SWAP1 SWAP2 AND DUP2 MSTORE PUSH1 0x20 ADD PUSH2 0x34A JUMP JUMPDEST CALLVALUE DUP1 ISZERO PUSH2 0x5D2 JUMPI PUSH1 0x0 DUP1 REVERT JUMPDEST POP PUSH2 0x3D6 PUSH2 0x5E1 CALLDATASIZE PUSH1 0x4 PUSH2 0x28C8 JUMP JUMPDEST PUSH2 0xDE0 JUMP JUMPDEST CALLVALUE DUP1 ISZERO PUSH2 0x5F2 JUMPI PUSH1 0x0 DUP1 REVERT JUMPDEST POP PUSH2 0x3D6 PUSH2 0x601 CALLDATASIZE PUSH1 0x4 PUSH2 0x27CD JUMP JUMPDEST PUSH2 0xE44 JUMP JUMPDEST CALLVALUE DUP1 ISZERO PUSH2 0x612 JUMPI PUSH1 0x0 DUP1 REVERT JUMPDEST POP PUSH2 0x3D6 PUSH2 0xE8F JUMP JUMPDEST CALLVALUE DUP1 ISZERO PUSH2 0x627 JUMPI PUSH1 0x0 DUP1 REVERT JUMPDEST POP PUSH2 0x340 PUSH1 0x7 SLOAD DUP2 JUMP JUMPDEST CALLVALUE DUP1 ISZERO PUSH2 0x63D JUMPI PUSH1 0x0 DUP1 REVERT JUMPDEST POP PUSH2 0x3D6 PUSH2 0xEC7 JUMP JUMPDEST CALLVALUE DUP1 ISZERO PUSH2 0x652 JUMPI PUSH1 0x0 DUP1 REVERT JUMPDEST POP PUSH2 0x340 PUSH2 0x661 CALLDATASIZE PUSH1 0x4 PUSH2 0x27CD JUMP JUMPDEST PUSH1 0x1 PUSH1 0x1 PUSH1 0xA0 SHL SUB AND PUSH1 0x0 SWAP1 DUP2 MSTORE PUSH1 0x2 PUSH1 0x20 MSTORE PUSH1 0x40 SWAP1 KECCAK256 SLOAD SWAP1 JUMP JUMPDEST CALLVALUE DUP1 ISZERO PUSH2 0x688 JUMPI PUSH1 0x0 DUP1 REVERT JUMPDEST POP PUSH2 0x3D6 PUSH2 0xF36 JUMP JUMPDEST CALLVALUE DUP1 ISZERO PUSH2 0x69D JUMPI PUSH1 0x0 DUP1 REVERT JUMPDEST POP PUSH2 0x340 PUSH1 0x1B SLOAD DUP2 JUMP JUMPDEST CALLVALUE DUP1 ISZERO PUSH2 0x6B3 JUMPI PUSH1 0x0 DUP1 REVERT JUMPDEST POP PUSH2 0x340 PUSH1 0x13 SLOAD DUP2 JUMP JUMPDEST CALLVALUE DUP1 ISZERO PUSH2 0x6C9 JUMPI PUSH1 0x0 DUP1 REVERT JUMPDEST POP PUSH1 0x0 SLOAD PUSH1 0x1 PUSH1 0x1 PUSH1 0xA0 SHL SUB AND PUSH2 0x5AE JUMP JUMPDEST CALLVALUE DUP1 ISZERO PUSH2 0x6E7 JUMPI PUSH1 0x0 DUP1 REVERT JUMPDEST POP PUSH2 0x3D6 PUSH2 0xFAA JUMP JUMPDEST CALLVALUE DUP1 ISZERO PUSH2 0x6FC JUMPI PUSH1 0x0 DUP1 REVERT JUMPDEST POP PUSH2 0x3D6 PUSH2 0x70B CALLDATASIZE PUSH1 0x4 PUSH2 0x28C8 JUMP JUMPDEST PUSH2 0xFE3 JUMP JUMPDEST CALLVALUE DUP1 ISZERO PUSH2 0x71C JUMPI PUSH1 0x0 DUP1 REVERT JUMPDEST POP PUSH2 0x3D6 PUSH2 0x1047 JUMP JUMPDEST CALLVALUE DUP1 ISZERO PUSH2 0x731 JUMPI PUSH1 0x0 DUP1 REVERT JUMPDEST POP PUSH2 0x3D6 PUSH2 0x740 CALLDATASIZE PUSH1 0x4 PUSH2 0x28C8 JUMP JUMPDEST PUSH2 0x1081 JUMP JUMPDEST CALLVALUE DUP1 ISZERO PUSH2 0x751 JUMPI PUSH1 0x0 DUP1 REVERT JUMPDEST POP PUSH2 0x3A6 PUSH2 0x760 CALLDATASIZE PUSH1 0x4 PUSH2 0x287D JUMP JUMPDEST PUSH2 0x10B0 JUMP JUMPDEST CALLVALUE DUP1 ISZERO PUSH2 0x771 JUMPI PUSH1 0x0 DUP1 REVERT JUMPDEST POP PUSH2 0x3D6 PUSH2 0x10BD JUMP JUMPDEST CALLVALUE DUP1 ISZERO PUSH2 0x786 JUMPI PUSH1 0x0 DUP1 REVERT JUMPDEST POP PUSH2 0x340 PUSH1 0x11 SLOAD DUP2 JUMP JUMPDEST CALLVALUE DUP1 ISZERO PUSH2 0x79C JUMPI PUSH1 0x0 DUP1 REVERT JUMPDEST POP PUSH2 0x340 PUSH1 0xF SLOAD DUP2 JUMP JUMPDEST CALLVALUE DUP1 ISZERO PUSH2 0x7B2 JUMPI PUSH1 0x0 DUP1 REVERT JUMPDEST POP PUSH2 0x340 PUSH1 0x17 SLOAD DUP2 JUMP JUMPDEST CALLVALUE DUP1 ISZERO PUSH2 0x7C8 JUMPI PUSH1 0x0 DUP1 REVERT JUMPDEST POP PUSH2 0x340 PUSH1 0x19 SLOAD DUP2 JUMP JUMPDEST CALLVALUE DUP1 ISZERO PUSH2 0x7DE JUMPI PUSH1 0x0 DUP1 REVERT JUMPDEST POP PUSH2 0x3D6 PUSH2 0x7ED CALLDATASIZE PUSH1 0x4 PUSH2 0x27CD JUMP JUMPDEST PUSH2 0x1106 JUMP JUMPDEST CALLVALUE DUP1 ISZERO PUSH2 0x7FE JUMPI PUSH1 0x0 DUP1 REVERT JUMPDEST POP PUSH2 0x3D6 PUSH2 0x80D CALLDATASIZE PUSH1 0x4 PUSH2 0x28C8 JUMP JUMPDEST PUSH2 0x1152 JUMP JUMPDEST CALLVALUE DUP1 ISZERO PUSH2 0x81E JUMPI PUSH1 0x0 DUP1 REVERT JUMPDEST POP PUSH2 0x3D6 PUSH2 0x1192 JUMP JUMPDEST CALLVALUE DUP1 ISZERO PUSH2 0x833 JUMPI PUSH1 0x0 DUP1 REVERT JUMPDEST POP PUSH2 0x3D6 PUSH2 0x842 CALLDATASIZE PUSH1 0x4 PUSH2 0x27CD JUMP JUMPDEST PUSH2 0x11CB JUMP JUMPDEST CALLVALUE DUP1 ISZERO PUSH2 0x853 JUMPI PUSH1 0x0 DUP1 REVERT JUMPDEST POP PUSH2 0x340 PUSH1 0xB SLOAD DUP2 JUMP JUMPDEST CALLVALUE DUP1 ISZERO PUSH2 0x869 JUMPI PUSH1 0x0 DUP1 REVERT JUMPDEST POP PUSH2 0x340 PUSH2 0x878 CALLDATASIZE PUSH1 0x4 PUSH2 0x2805 JUMP JUMPDEST PUSH1 0x1 PUSH1 0x1 PUSH1 0xA0 SHL SUB SWAP2 DUP3 AND PUSH1 0x0 SWAP1 DUP2 MSTORE PUSH1 0x3 PUSH1 0x20 SWAP1 DUP2 MSTORE PUSH1 0x40 DUP1 DUP4 KECCAK256 SWAP4 SWAP1 SWAP5 AND DUP3 MSTORE SWAP2 SWAP1 SWAP2 MSTORE KECCAK256 SLOAD SWAP1 JUMP JUMPDEST CALLVALUE DUP1 ISZERO PUSH2 0x8AF JUMPI PUSH1 0x0 DUP1 REVERT JUMPDEST POP PUSH2 0x3D6 PUSH2 0x8BE CALLDATASIZE PUSH1 0x4 PUSH2 0x28C8 JUMP JUMPDEST PUSH2 0x1217 JUMP JUMPDEST CALLVALUE DUP1 ISZERO PUSH2 0x8CF JUMPI PUSH1 0x0 DUP1 REVERT JUMPDEST POP PUSH2 0x3D6 PUSH2 0x8DE CALLDATASIZE PUSH1 0x4 PUSH2 0x2925 JUMP JUMPDEST PUSH2 0x1246 JUMP JUMPDEST CALLVALUE DUP1 ISZERO PUSH2 0x8EF JUMPI PUSH1 0x0 DUP1 REVERT JUMPDEST POP PUSH2 0x3D6 PUSH2 0x8FE CALLDATASIZE PUSH1 0x4 PUSH2 0x27CD JUMP JUMPDEST PUSH2 0x13C2 JUMP JUMPDEST CALLVALUE DUP1 ISZERO PUSH2 0x90F JUMPI PUSH1 0x0 DUP1 REVERT JUMPDEST POP PUSH2 0x3D6 PUSH2 0x91E CALLDATASIZE PUSH1 0x4 PUSH2 0x27CD JUMP JUMPDEST PUSH2 0x140D JUMP JUMPDEST CALLVALUE DUP1 ISZERO PUSH2 0x92F JUMPI PUSH1 0x0 DUP1 REVERT JUMPDEST POP PUSH2 0x3D6 PUSH2 0x93E CALLDATASIZE PUSH1 0x4 PUSH2 0x2925 JUMP JUMPDEST PUSH2 0x14A5 JUMP JUMPDEST CALLVALUE DUP1 ISZERO PUSH2 0x94F JUMPI PUSH1 0x0 DUP1 REVERT JUMPDEST POP PUSH1 0x24 SLOAD PUSH2 0x3A6 SWAP1 PUSH1 0xFF AND DUP2 JUMP JUMPDEST CALLVALUE DUP1 ISZERO PUSH2 0x969 JUMPI PUSH1 0x0 DUP1 REVERT JUMPDEST POP PUSH2 0x3D6 PUSH2 0x978 CALLDATASIZE PUSH1 0x4 PUSH2 0x27CD JUMP JUMPDEST PUSH2 0x1611 JUMP JUMPDEST PUSH1 0x0 PUSH2 0x98A CALLER DUP5 DUP5 PUSH2 0x16C9 JUMP JUMPDEST POP PUSH1 0x1 JUMPDEST SWAP3 SWAP2 POP POP JUMP JUMPDEST PUSH1 0x0 SLOAD PUSH1 0x1 PUSH1 0x1 PUSH1 0xA0 SHL SUB AND CALLER EQ PUSH2 0x9C7 JUMPI PUSH1 0x40 MLOAD PUSH3 0x461BCD PUSH1 0xE5 SHL DUP2 MSTORE PUSH1 0x4 ADD PUSH2 0x9BE SWAP1 PUSH2 0x2A10 JUMP JUMPDEST PUSH1 0x40 MLOAD DUP1 SWAP2 SUB SWAP1 REVERT JUMPDEST PUSH1 0x1E DUP1 SLOAD PUSH1 0x1 PUSH1 0x1 PUSH1 0xA0 SHL SUB NOT AND PUSH1 0x1 PUSH1 0x1 PUSH1 0xA0 SHL SUB SWAP3 SWAP1 SWAP3 AND SWAP2 SWAP1 SWAP2 OR SWAP1 SSTORE JUMP JUMPDEST PUSH1 0x0 SLOAD PUSH1 0x1 PUSH1 0x1 PUSH1 0xA0 SHL SUB AND CALLER EQ PUSH2 0xA13 JUMPI PUSH1 0x40 MLOAD PUSH3 0x461BCD PUSH1 0xE5 SHL DUP2 MSTORE PUSH1 0x4 ADD PUSH2 0x9BE SWAP1 PUSH2 0x2A10 JUMP JUMPDEST PUSH1 0x1D DUP1 SLOAD PUSH1 0x1 PUSH1 0x1 PUSH1 0xA0 SHL SUB NOT AND PUSH1 0x1 PUSH1 0x1 PUSH1 0xA0 SHL SUB SWAP3 SWAP1 SWAP3 AND SWAP2 SWAP1 SWAP2 OR SWAP1 SSTORE JUMP JUMPDEST PUSH1 0x0 PUSH2 0xA42 DUP5 DUP5 DUP5 PUSH2 0x17ED JUMP JUMPDEST PUSH2 0xA94 DUP5 CALLER PUSH2 0xA8F DUP6 PUSH1 0x40 MLOAD DUP1 PUSH1 0x60 ADD PUSH1 0x40 MSTORE DUP1 PUSH1 0x28 DUP2 MSTORE PUSH1 0x20 ADD PUSH2 0x2BA0 PUSH1 0x28 SWAP2 CODECOPY PUSH1 0x1 PUSH1 0x1 PUSH1 0xA0 SHL SUB DUP11 AND PUSH1 0x0 SWAP1 DUP2 MSTORE PUSH1 0x3 PUSH1 0x20 SWAP1 DUP2 MSTORE PUSH1 0x40 DUP1 DUP4 KECCAK256 CALLER DUP5 MSTORE SWAP1 SWAP2 MSTORE SWAP1 KECCAK256 SLOAD SWAP2 SWAP1 PUSH2 0x1D48 JUMP JUMPDEST PUSH2 0x16C9 JUMP JUMPDEST POP PUSH1 0x1 SWAP4 SWAP3 POP POP POP JUMP JUMPDEST PUSH1 0x0 SLOAD PUSH1 0x1 PUSH1 0x1 PUSH1 0xA0 SHL SUB AND CALLER EQ PUSH2 0xAC8 JUMPI PUSH1 0x40 MLOAD PUSH3 0x461BCD PUSH1 0xE5 SHL DUP2 MSTORE PUSH1 0x4 ADD PUSH2 0x9BE SWAP1 PUSH2 0x2A10 JUMP JUMPDEST PUSH2 0xADE PUSH10 0x21E19E0C9BAB2400000 PUSH2 0x3E8 PUSH2 0x1D82 JUMP JUMPDEST DUP2 LT ISZERO PUSH2 0xB40 JUMPI PUSH1 0x40 MLOAD PUSH3 0x461BCD PUSH1 0xE5 SHL DUP2 MSTORE PUSH1 0x20 PUSH1 0x4 DUP3 ADD MSTORE PUSH1 0x2A PUSH1 0x24 DUP3 ADD MSTORE PUSH32 0x416D6F756E74206D7573742062652067726561746572207468616E20302E3125 PUSH1 0x44 DUP3 ADD MSTORE PUSH10 0x206F6620737570706C79 PUSH1 0xB0 SHL PUSH1 0x64 DUP3 ADD MSTORE PUSH1 0x84 ADD PUSH2 0x9BE JUMP JUMPDEST PUSH10 0x21E19E0C9BAB2400000 DUP2 GT ISZERO PUSH2 0xBB3 JUMPI PUSH1 0x40 MLOAD PUSH3 0x461BCD PUSH1 0xE5 SHL DUP2 MSTORE PUSH1 0x20 PUSH1 0x4 DUP3 ADD MSTORE PUSH1 0x30 PUSH1 0x24 DUP3 ADD MSTORE PUSH32 0x416D6F756E74206D757374206265206C657373207468616E206F722065717561 PUSH1 0x44 DUP3 ADD MSTORE PUSH16 0x6C20746F20746F74616C537570706C79 PUSH1 0x80 SHL PUSH1 0x64 DUP3 ADD MSTORE PUSH1 0x84 ADD PUSH2 0x9BE JUMP JUMPDEST PUSH1 0x7 SSTORE JUMP JUMPDEST PUSH1 0x0 SLOAD PUSH1 0x1 PUSH1 0x1 PUSH1 0xA0 SHL SUB AND CALLER EQ PUSH2 0xBE2 JUMPI PUSH1 0x40 MLOAD PUSH3 0x461BCD PUSH1 0xE5 SHL DUP2 MSTORE PUSH1 0x4 ADD PUSH2 0x9BE SWAP1 PUSH2 0x2A10 JUMP JUMPDEST PUSH1 0x40 MLOAD PUSH4 0x70A08231 PUSH1 0xE0 SHL DUP2 MSTORE ADDRESS PUSH1 0x4 DUP3 ADD MSTORE PUSH1 0x0 SWAP1 PUSH1 0x1 PUSH1 0x1 PUSH1 0xA0 SHL SUB DUP4 AND SWAP1 PUSH4 0x70A08231 SWAP1 PUSH1 0x24 ADD PUSH1 0x20 PUSH1 0x40 MLOAD DUP1 DUP4 SUB DUP2 DUP7 DUP1 EXTCODESIZE ISZERO DUP1 ISZERO PUSH2 0xC24 JUMPI PUSH1 0x0 DUP1 REVERT JUMPDEST POP GAS STATICCALL ISZERO DUP1 ISZERO PUSH2 0xC38 JUMPI RETURNDATASIZE PUSH1 0x0 DUP1 RETURNDATACOPY RETURNDATASIZE PUSH1 0x0 REVERT JUMPDEST POP POP POP POP PUSH1 0x40 MLOAD RETURNDATASIZE PUSH1 0x1F NOT PUSH1 0x1F DUP3 ADD AND DUP3 ADD DUP1 PUSH1 0x40 MSTORE POP DUP2 ADD SWAP1 PUSH2 0xC5C SWAP2 SWAP1 PUSH2 0x28E0 JUMP JUMPDEST SWAP1 POP DUP2 PUSH1 0x1 PUSH1 0x1 PUSH1 0xA0 SHL SUB AND PUSH4 0xA9059CBB PUSH2 0xC7F PUSH1 0x0 SLOAD PUSH1 0x1 PUSH1 0x1 PUSH1 0xA0 SHL SUB AND SWAP1 JUMP JUMPDEST PUSH1 0x40 MLOAD PUSH1 0x1 PUSH1 0x1 PUSH1 0xE0 SHL SUB NOT PUSH1 0xE0 DUP5 SWAP1 SHL AND DUP2 MSTORE PUSH1 0x1 PUSH1 0x1 PUSH1 0xA0 SHL SUB SWAP1 SWAP2 AND PUSH1 0x4 DUP3 ADD MSTORE PUSH1 0x24 DUP2 ADD DUP5 SWAP1 MSTORE PUSH1 0x44 ADD PUSH1 0x20 PUSH1 0x40 MLOAD DUP1 DUP4 SUB DUP2 PUSH1 0x0 DUP8 DUP1 EXTCODESIZE ISZERO DUP1 ISZERO PUSH2 0xCC7 JUMPI PUSH1 0x0 DUP1 REVERT JUMPDEST POP GAS CALL ISZERO DUP1 ISZERO PUSH2 0xCDB JUMPI RETURNDATASIZE PUSH1 0x0 DUP1 RETURNDATACOPY RETURNDATASIZE PUSH1 0x0 REVERT JUMPDEST POP POP POP POP PUSH1 0x40 MLOAD RETURNDATASIZE PUSH1 0x1F NOT PUSH1 0x1F DUP3 ADD AND DUP3 ADD DUP1 PUSH1 0x40 MSTORE POP DUP2 ADD SWAP1 PUSH2 0xCFF SWAP2 SWAP1 PUSH2 0x28A8 JUMP JUMPDEST POP POP POP JUMP JUMPDEST PUSH1 0x0 SLOAD PUSH1 0x1 PUSH1 0x1 PUSH1 0xA0 SHL SUB AND CALLER EQ PUSH2 0xD2E JUMPI PUSH1 0x40 MLOAD PUSH3 0x461BCD PUSH1 0xE5 SHL DUP2 MSTORE PUSH1 0x4 ADD PUSH2 0x9BE SWAP1 PUSH2 0x2A10 JUMP JUMPDEST PUSH1 0x24 SLOAD PUSH3 0x10000 SWAP1 DIV PUSH1 0xFF AND PUSH2 0xD86 JUMPI PUSH1 0x40 MLOAD PUSH3 0x461BCD PUSH1 0xE5 SHL DUP2 MSTORE PUSH1 0x20 PUSH1 0x4 DUP3 ADD MSTORE PUSH1 0x1E PUSH1 0x24 DUP3 ADD MSTORE PUSH32 0x7468697320636F6E74726163742063616E6E6F74206265207061757365640000 PUSH1 0x44 DUP3 ADD MSTORE PUSH1 0x64 ADD PUSH2 0x9BE JUMP JUMPDEST PUSH1 0x24 DUP1 SLOAD PUSH1 0xFF NOT AND SWAP1 SSTORE JUMP JUMPDEST PUSH1 0x0 SLOAD PUSH1 0x1 PUSH1 0x1 PUSH1 0xA0 SHL SUB AND CALLER EQ PUSH2 0xDBC JUMPI PUSH1 0x40 MLOAD PUSH3 0x461BCD PUSH1 0xE5 SHL DUP2 MSTORE PUSH1 0x4 ADD PUSH2 0x9BE SWAP1 PUSH2 0x2A10 JUMP JUMPDEST PUSH1 0x1 PUSH1 0x1 PUSH1 0xA0 SHL SUB AND PUSH1 0x0 SWAP1 DUP2 MSTORE PUSH1 0x4 PUSH1 0x20 MSTORE PUSH1 0x40 SWAP1 KECCAK256 DUP1 SLOAD PUSH1 0xFF NOT AND PUSH1 0x1 OR SWAP1 SSTORE JUMP JUMPDEST PUSH1 0x0 SLOAD PUSH1 0x1 PUSH1 0x1 PUSH1 0xA0 SHL SUB AND CALLER EQ PUSH2 0xE0A JUMPI PUSH1 0x40 MLOAD PUSH3 0x461BCD PUSH1 0xE5 SHL DUP2 MSTORE PUSH1 0x4 ADD PUSH2 0x9BE SWAP1 PUSH2 0x2A10 JUMP JUMPDEST PUSH2 0xE20 PUSH10 0x21E19E0C9BAB2400000 PUSH2 0x3E8 PUSH2 0x1D82 JUMP JUMPDEST DUP2 LT ISZERO PUSH2 0xE3F JUMPI PUSH1 0x40 MLOAD PUSH3 0x461BCD PUSH1 0xE5 SHL DUP2 MSTORE PUSH1 0x4 ADD PUSH2 0x9BE SWAP1 PUSH2 0x2A45 JUMP JUMPDEST PUSH1 0x9 SSTORE JUMP JUMPDEST PUSH1 0x0 SLOAD PUSH1 0x1 PUSH1 0x1 PUSH1 0xA0 SHL SUB AND CALLER EQ PUSH2 0xE6E JUMPI PUSH1 0x40 MLOAD PUSH3 0x461BCD PUSH1 0xE5 SHL DUP2 MSTORE PUSH1 0x4 ADD PUSH2 0x9BE SWAP1 PUSH2 0x2A10 JUMP JUMPDEST PUSH1 0x1 PUSH1 0x1 PUSH1 0xA0 SHL SUB AND PUSH1 0x0 SWAP1 DUP2 MSTORE PUSH1 0x1C PUSH1 0x20 MSTORE PUSH1 0x40 SWAP1 KECCAK256 DUP1 SLOAD PUSH1 0xFF NOT AND SWAP1 SSTORE JUMP JUMPDEST PUSH1 0x0 SLOAD PUSH1 0x1 PUSH1 0x1 PUSH1 0xA0 SHL SUB AND CALLER EQ PUSH2 0xEB9 JUMPI PUSH1 0x40 MLOAD PUSH3 0x461BCD PUSH1 0xE5 SHL DUP2 MSTORE PUSH1 0x4 ADD PUSH2 0x9BE SWAP1 PUSH2 0x2A10 JUMP JUMPDEST PUSH1 0x24 DUP1 SLOAD PUSH3 0xFF0000 NOT AND SWAP1 SSTORE JUMP JUMPDEST PUSH1 0x0 SLOAD PUSH1 0x1 PUSH1 0x1 PUSH1 0xA0 SHL SUB AND CALLER EQ PUSH2 0xEF1 JUMPI PUSH1 0x40 MLOAD PUSH3 0x461BCD PUSH1 0xE5 SHL DUP2 MSTORE PUSH1 0x4 ADD PUSH2 0x9BE SWAP1 PUSH2 0x2A10 JUMP JUMPDEST SELFBALANCE DUP1 ISZERO PUSH2 0xF33 JUMPI PUSH1 0x0 DUP1 SLOAD PUSH1 0x40 MLOAD PUSH1 0x1 PUSH1 0x1 PUSH1 0xA0 SHL SUB SWAP1 SWAP2 AND SWAP2 DUP4 ISZERO PUSH2 0x8FC MUL SWAP2 DUP5 SWAP2 DUP2 DUP2 DUP2 DUP6 DUP9 DUP9 CALL SWAP4 POP POP POP POP ISZERO DUP1 ISZERO PUSH2 0xF31 JUMPI RETURNDATASIZE PUSH1 0x0 DUP1 RETURNDATACOPY RETURNDATASIZE PUSH1 0x0 REVERT JUMPDEST POP JUMPDEST POP JUMP JUMPDEST PUSH1 0x0 SLOAD PUSH1 0x1 PUSH1 0x1 PUSH1 0xA0 SHL SUB AND CALLER EQ PUSH2 0xF60 JUMPI PUSH1 0x40 MLOAD PUSH3 0x461BCD PUSH1 0xE5 SHL DUP2 MSTORE PUSH1 0x4 ADD PUSH2 0x9BE SWAP1 PUSH2 0x2A10 JUMP JUMPDEST PUSH1 0x0 DUP1 SLOAD PUSH1 0x40 MLOAD PUSH1 0x1 PUSH1 0x1 PUSH1 0xA0 SHL SUB SWAP1 SWAP2 AND SWAP1 PUSH32 0x8BE0079C531659141344CD1FD0A4F28419497F9722A3DAAFE3B4186F6B6457E0 SWAP1 DUP4 SWAP1 LOG3 PUSH1 0x0 DUP1 SLOAD PUSH1 0x1 PUSH1 0x1 PUSH1 0xA0 SHL SUB NOT AND SWAP1 SSTORE JUMP JUMPDEST PUSH1 0x0 SLOAD PUSH1 0x1 PUSH1 0x1 PUSH1 0xA0 SHL SUB AND CALLER EQ PUSH2 0xFD4 JUMPI PUSH1 0x40 MLOAD PUSH3 0x461BCD PUSH1 0xE5 SHL DUP2 MSTORE PUSH1 0x4 ADD PUSH2 0x9BE SWAP1 PUSH2 0x2A10 JUMP JUMPDEST PUSH1 0x24 DUP1 SLOAD PUSH1 0xFF NOT AND PUSH1 0x1 OR SWAP1 SSTORE JUMP JUMPDEST PUSH1 0x0 SLOAD PUSH1 0x1 PUSH1 0x1 PUSH1 0xA0 SHL SUB AND CALLER EQ PUSH2 0x100D JUMPI PUSH1 0x40 MLOAD PUSH3 0x461BCD PUSH1 0xE5 SHL DUP2 MSTORE PUSH1 0x4 ADD PUSH2 0x9BE SWAP1 PUSH2 0x2A10 JUMP JUMPDEST PUSH2 0x1023 PUSH10 0x21E19E0C9BAB2400000 PUSH2 0x3E8 PUSH2 0x1D82 JUMP JUMPDEST DUP2 LT ISZERO PUSH2 0x1042 JUMPI PUSH1 0x40 MLOAD PUSH3 0x461BCD PUSH1 0xE5 SHL DUP2 MSTORE PUSH1 0x4 ADD PUSH2 0x9BE SWAP1 PUSH2 0x2A45 JUMP JUMPDEST PUSH1 0x8 SSTORE JUMP JUMPDEST PUSH1 0x0 SLOAD PUSH1 0x1 PUSH1 0x1 PUSH1 0xA0 SHL SUB AND CALLER EQ PUSH2 0x1071 JUMPI PUSH1 0x40 MLOAD PUSH3 0x461BCD PUSH1 0xE5 SHL DUP2 MSTORE PUSH1 0x4 ADD PUSH2 0x9BE SWAP1 PUSH2 0x2A10 JUMP JUMPDEST PUSH1 0x24 DUP1 SLOAD PUSH5 0xFF00000000 NOT AND SWAP1 SSTORE JUMP JUMPDEST PUSH1 0x0 SLOAD PUSH1 0x1 PUSH1 0x1 PUSH1 0xA0 SHL SUB AND CALLER EQ PUSH2 0x10AB JUMPI PUSH1 0x40 MLOAD PUSH3 0x461BCD PUSH1 0xE5 SHL DUP2 MSTORE PUSH1 0x4 ADD PUSH2 0x9BE SWAP1 PUSH2 0x2A10 JUMP JUMPDEST PUSH1 0x1B SSTORE JUMP JUMPDEST PUSH1 0x0 PUSH2 0x98A CALLER DUP5 DUP5 PUSH2 0x17ED JUMP JUMPDEST PUSH1 0x0 SLOAD PUSH1 0x1 PUSH1 0x1 PUSH1 0xA0 SHL SUB AND CALLER EQ PUSH2 0x10E7 JUMPI PUSH1 0x40 MLOAD PUSH3 0x461BCD PUSH1 0xE5 SHL DUP2 MSTORE PUSH1 0x4 ADD PUSH2 0x9BE SWAP1 PUSH2 0x2A10 JUMP JUMPDEST ADDRESS PUSH1 0x0 SWAP1 DUP2 MSTORE PUSH1 0x2 PUSH1 0x20 MSTORE PUSH1 0x40 SWAP1 KECCAK256 SLOAD DUP1 ISZERO PUSH2 0xF33 JUMPI PUSH2 0xF33 DUP2 PUSH2 0x1DCB JUMP JUMPDEST PUSH1 0x0 SLOAD PUSH1 0x1 PUSH1 0x1 PUSH1 0xA0 SHL SUB AND CALLER EQ PUSH2 0x1130 JUMPI PUSH1 0x40 MLOAD PUSH3 0x461BCD PUSH1 0xE5 SHL DUP2 MSTORE PUSH1 0x4 ADD PUSH2 0x9BE SWAP1 PUSH2 0x2A10 JUMP JUMPDEST PUSH1 0x20 DUP1 SLOAD PUSH1 0x1 PUSH1 0x1 PUSH1 0xA0 SHL SUB NOT AND PUSH1 0x1 PUSH1 0x1 PUSH1 0xA0 SHL SUB SWAP3 SWAP1 SWAP3 AND SWAP2 SWAP1 SWAP2 OR SWAP1 SSTORE JUMP JUMPDEST PUSH1 0x0 SLOAD PUSH1 0x1 PUSH1 0x1 PUSH1 0xA0 SHL SUB AND CALLER EQ PUSH2 0x117C JUMPI PUSH1 0x40 MLOAD PUSH3 0x461BCD PUSH1 0xE5 SHL DUP2 MSTORE PUSH1 0x4 ADD PUSH2 0x9BE SWAP1 PUSH2 0x2A10 JUMP JUMPDEST TIMESTAMP PUSH1 0x5 SSTORE PUSH1 0x6 SSTORE PUSH1 0x24 DUP1 SLOAD PUSH1 0xFF NOT AND PUSH1 0x1 OR SWAP1 SSTORE JUMP JUMPDEST PUSH1 0x0 SLOAD PUSH1 0x1 PUSH1 0x1 PUSH1 0xA0 SHL SUB AND CALLER EQ PUSH2 0x11BC JUMPI PUSH1 0x40 MLOAD PUSH3 0x461BCD PUSH1 0xE5 SHL DUP2 MSTORE PUSH1 0x4 ADD PUSH2 0x9BE SWAP1 PUSH2 0x2A10 JUMP JUMPDEST PUSH1 0x24 DUP1 SLOAD PUSH4 0xFF000000 NOT AND SWAP1 SSTORE JUMP JUMPDEST PUSH1 0x0 SLOAD PUSH1 0x1 PUSH1 0x1 PUSH1 0xA0 SHL SUB AND CALLER EQ PUSH2 0x11F5 JUMPI PUSH1 0x40 MLOAD PUSH3 0x461BCD PUSH1 0xE5 SHL DUP2 MSTORE PUSH1 0x4 ADD PUSH2 0x9BE SWAP1 PUSH2 0x2A10 JUMP JUMPDEST PUSH1 0x1F DUP1 SLOAD PUSH1 0x1 PUSH1 0x1 PUSH1 0xA0 SHL SUB NOT AND PUSH1 0x1 PUSH1 0x1 PUSH1 0xA0 SHL SUB SWAP3 SWAP1 SWAP3 AND SWAP2 SWAP1 SWAP2 OR SWAP1 SSTORE JUMP JUMPDEST PUSH1 0x0 SLOAD PUSH1 0x1 PUSH1 0x1 PUSH1 0xA0 SHL SUB AND CALLER EQ PUSH2 0x1241 JUMPI PUSH1 0x40 MLOAD PUSH3 0x461BCD PUSH1 0xE5 SHL DUP2 MSTORE PUSH1 0x4 ADD PUSH2 0x9BE SWAP1 PUSH2 0x2A10 JUMP JUMPDEST PUSH1 0xA SSTORE JUMP JUMPDEST PUSH1 0x0 SLOAD PUSH1 0x1 PUSH1 0x1 PUSH1 0xA0 SHL SUB AND CALLER EQ PUSH2 0x1270 JUMPI PUSH1 0x40 MLOAD PUSH3 0x461BCD PUSH1 0xE5 SHL DUP2 MSTORE PUSH1 0x4 ADD PUSH2 0x9BE SWAP1 PUSH2 0x2A10 JUMP JUMPDEST PUSH1 0x0 PUSH2 0x1288 DUP3 PUSH2 0x1282 DUP6 DUP2 DUP10 DUP10 PUSH2 0x1F6A JUMP JUMPDEST SWAP1 PUSH2 0x1F6A JUMP JUMPDEST SWAP1 POP PUSH1 0xC8 DUP2 GT ISZERO PUSH2 0x12F5 JUMPI PUSH1 0x40 MLOAD PUSH3 0x461BCD PUSH1 0xE5 SHL DUP2 MSTORE PUSH1 0x20 PUSH1 0x4 DUP3 ADD MSTORE PUSH1 0x31 PUSH1 0x24 DUP3 ADD MSTORE PUSH32 0x53756D206F66206275792066656573206D757374206265206C65737320746861 PUSH1 0x44 DUP3 ADD MSTORE PUSH17 0x6E206F7220657175616C20746F20323025 PUSH1 0x78 SHL PUSH1 0x64 DUP3 ADD MSTORE PUSH1 0x84 ADD PUSH2 0x9BE JUMP JUMPDEST PUSH1 0x24 SLOAD PUSH5 0x100000000 SWAP1 DIV PUSH1 0xFF AND PUSH2 0x134A JUMPI PUSH1 0x40 MLOAD PUSH3 0x461BCD PUSH1 0xE5 SHL DUP2 MSTORE PUSH1 0x20 PUSH1 0x4 DUP3 ADD MSTORE PUSH1 0x18 PUSH1 0x24 DUP3 ADD MSTORE PUSH24 0x151A1A5CC8199D5B98DD1A5BDB881A5CC8191A58589B1959 PUSH1 0x42 SHL PUSH1 0x44 DUP3 ADD MSTORE PUSH1 0x64 ADD PUSH2 0x9BE JUMP JUMPDEST PUSH1 0xF DUP6 SWAP1 SSTORE PUSH1 0xB DUP5 SWAP1 SSTORE PUSH1 0x11 DUP4 SWAP1 SSTORE PUSH1 0xD DUP3 SWAP1 SSTORE PUSH1 0x10 DUP6 SWAP1 SSTORE PUSH1 0xC DUP5 SWAP1 SSTORE PUSH1 0x12 DUP4 SWAP1 SSTORE PUSH1 0xE DUP3 SWAP1 SSTORE PUSH1 0x40 DUP1 MLOAD DUP7 DUP2 MSTORE PUSH1 0x20 DUP2 ADD DUP7 SWAP1 MSTORE SWAP1 DUP2 ADD DUP5 SWAP1 MSTORE PUSH1 0x60 DUP2 ADD DUP4 SWAP1 MSTORE PUSH32 0x892B2CAA2D791BF7B8D9A49C4DB7A4513FF1AE2E0E068ED217F9D5AB4C1A28F0 SWAP1 PUSH1 0x80 ADD JUMPDEST PUSH1 0x40 MLOAD DUP1 SWAP2 SUB SWAP1 LOG1 POP POP POP POP POP JUMP JUMPDEST PUSH1 0x0 SLOAD PUSH1 0x1 PUSH1 0x1 PUSH1 0xA0 SHL SUB AND CALLER EQ PUSH2 0x13EC JUMPI PUSH1 0x40 MLOAD PUSH3 0x461BCD PUSH1 0xE5 SHL DUP2 MSTORE PUSH1 0x4 ADD PUSH2 0x9BE SWAP1 PUSH2 0x2A10 JUMP JUMPDEST PUSH1 0x1 PUSH1 0x1 PUSH1 0xA0 SHL SUB AND PUSH1 0x0 SWAP1 DUP2 MSTORE PUSH1 0x4 PUSH1 0x20 MSTORE PUSH1 0x40 SWAP1 KECCAK256 DUP1 SLOAD PUSH1 0xFF NOT AND SWAP1 SSTORE JUMP JUMPDEST PUSH1 0x0 SLOAD PUSH1 0x1 PUSH1 0x1 PUSH1 0xA0 SHL SUB AND CALLER EQ PUSH2 0x1437 JUMPI PUSH1 0x40 MLOAD PUSH3 0x461BCD PUSH1 0xE5 SHL DUP2 MSTORE PUSH1 0x4 ADD PUSH2 0x9BE SWAP1 PUSH2 0x2A10 JUMP JUMPDEST PUSH1 0x1 PUSH1 0x1 PUSH1 0xA0 SHL SUB DUP2 AND PUSH2 0x149C JUMPI PUSH1 0x40 MLOAD PUSH3 0x461BCD PUSH1 0xE5 SHL DUP2 MSTORE PUSH1 0x20 PUSH1 0x4 DUP3 ADD MSTORE PUSH1 0x26 PUSH1 0x24 DUP3 ADD MSTORE PUSH32 0x4F776E61626C653A206E6577206F776E657220697320746865207A65726F2061 PUSH1 0x44 DUP3 ADD MSTORE PUSH6 0x646472657373 PUSH1 0xD0 SHL PUSH1 0x64 DUP3 ADD MSTORE PUSH1 0x84 ADD PUSH2 0x9BE JUMP JUMPDEST PUSH2 0xF33 DUP2 PUSH2 0x1FC9 JUMP JUMPDEST PUSH1 0x0 SLOAD PUSH1 0x1 PUSH1 0x1 PUSH1 0xA0 SHL SUB AND CALLER EQ PUSH2 0x14CF JUMPI PUSH1 0x40 MLOAD PUSH3 0x461BCD PUSH1 0xE5 SHL DUP2 MSTORE PUSH1 0x4 ADD PUSH2 0x9BE SWAP1 PUSH2 0x2A10 JUMP JUMPDEST PUSH1 0x0 PUSH2 0x14E1 DUP3 PUSH2 0x1282 DUP6 DUP2 DUP10 DUP10 PUSH2 0x1F6A JUMP JUMPDEST SWAP1 POP PUSH1 0xFA DUP2 GT ISZERO PUSH2 0x154F JUMPI PUSH1 0x40 MLOAD PUSH3 0x461BCD PUSH1 0xE5 SHL DUP2 MSTORE PUSH1 0x20 PUSH1 0x4 DUP3 ADD MSTORE PUSH1 0x32 PUSH1 0x24 DUP3 ADD MSTORE PUSH32 0x53756D206F662073656C6C2066656573206D757374206265206C657373207468 PUSH1 0x44 DUP3 ADD MSTORE PUSH18 0x616E206F7220657175616C20746F20323525 PUSH1 0x70 SHL PUSH1 0x64 DUP3 ADD MSTORE PUSH1 0x84 ADD PUSH2 0x9BE JUMP JUMPDEST PUSH1 0x24 SLOAD PUSH5 0x100000000 SWAP1 DIV PUSH1 0xFF AND PUSH2 0x15A4 JUMPI PUSH1 0x40 MLOAD PUSH3 0x461BCD PUSH1 0xE5 SHL DUP2 MSTORE PUSH1 0x20 PUSH1 0x4 DUP3 ADD MSTORE PUSH1 0x18 PUSH1 0x24 DUP3 ADD MSTORE PUSH24 0x151A1A5CC8199D5B98DD1A5BDB881A5CC8191A58589B1959 PUSH1 0x42 SHL PUSH1 0x44 DUP3 ADD MSTORE PUSH1 0x64 ADD PUSH2 0x9BE JUMP JUMPDEST PUSH1 0x17 DUP6 SWAP1 SSTORE PUSH1 0x13 DUP5 SWAP1 SSTORE PUSH1 0x19 DUP4 SWAP1 SSTORE PUSH1 0x15 DUP3 SWAP1 SSTORE PUSH1 0x18 DUP6 SWAP1 SSTORE PUSH1 0x14 DUP5 SWAP1 SSTORE PUSH1 0x1A DUP4 SWAP1 SSTORE PUSH1 0x16 DUP3 SWAP1 SSTORE PUSH1 0x40 DUP1 MLOAD DUP7 DUP2 MSTORE PUSH1 0x20 DUP2 ADD DUP7 SWAP1 MSTORE SWAP1 DUP2 ADD DUP5 SWAP1 MSTORE PUSH1 0x60 DUP2 ADD DUP4 SWAP1 MSTORE PUSH32 0x439932620C72DDDEA29980C098BCA1A482729646D1216B226D723C6D278A30D1 SWAP1 PUSH1 0x80 ADD PUSH2 0x13B3 JUMP JUMPDEST PUSH1 0x0 SLOAD PUSH1 0x1 PUSH1 0x1 PUSH1 0xA0 SHL SUB AND CALLER EQ PUSH2 0x163B JUMPI PUSH1 0x40 MLOAD PUSH3 0x461BCD PUSH1 0xE5 SHL DUP2 MSTORE PUSH1 0x4 ADD PUSH2 0x9BE SWAP1 PUSH2 0x2A10 JUMP JUMPDEST PUSH1 0x24 SLOAD PUSH4 0x1000000 SWAP1 DIV PUSH1 0xFF AND PUSH2 0x16A5 JUMPI PUSH1 0x40 MLOAD PUSH3 0x461BCD PUSH1 0xE5 SHL DUP2 MSTORE PUSH1 0x20 PUSH1 0x4 DUP3 ADD MSTORE PUSH1 0x28 PUSH1 0x24 DUP3 ADD MSTORE PUSH32 0x7468697320636F6E74726163742063616E6E6F7420626C61636B6C6973742061 PUSH1 0x44 DUP3 ADD MSTORE PUSH8 0x6464726573736573 PUSH1 0xC0 SHL PUSH1 0x64 DUP3 ADD MSTORE PUSH1 0x84 ADD PUSH2 0x9BE JUMP JUMPDEST PUSH1 0x1 PUSH1 0x1 PUSH1 0xA0 SHL SUB AND PUSH1 0x0 SWAP1 DUP2 MSTORE PUSH1 0x1C PUSH1 0x20 MSTORE PUSH1 0x40 SWAP1 KECCAK256 DUP1 SLOAD PUSH1 0xFF NOT AND PUSH1 0x1 OR SWAP1 SSTORE JUMP JUMPDEST PUSH1 0x1 PUSH1 0x1 PUSH1 0xA0 SHL SUB DUP4 AND PUSH2 0x172B JUMPI PUSH1 0x40 MLOAD PUSH3 0x461BCD PUSH1 0xE5 SHL DUP2 MSTORE PUSH1 0x20 PUSH1 0x4 DUP3 ADD MSTORE PUSH1 0x24 DUP1 DUP3 ADD MSTORE PUSH32 0x45524332303A20617070726F76652066726F6D20746865207A65726F20616464 PUSH1 0x44 DUP3 ADD MSTORE PUSH4 0x72657373 PUSH1 0xE0 SHL PUSH1 0x64 DUP3 ADD MSTORE PUSH1 0x84 ADD PUSH2 0x9BE JUMP JUMPDEST PUSH1 0x1 PUSH1 0x1 PUSH1 0xA0 SHL SUB DUP3 AND PUSH2 0x178C JUMPI PUSH1 0x40 MLOAD PUSH3 0x461BCD PUSH1 0xE5 SHL DUP2 MSTORE PUSH1 0x20 PUSH1 0x4 DUP3 ADD MSTORE PUSH1 0x22 PUSH1 0x24 DUP3 ADD MSTORE PUSH32 0x45524332303A20617070726F766520746F20746865207A65726F206164647265 PUSH1 0x44 DUP3 ADD MSTORE PUSH2 0x7373 PUSH1 0xF0 SHL PUSH1 0x64 DUP3 ADD MSTORE PUSH1 0x84 ADD PUSH2 0x9BE JUMP JUMPDEST PUSH1 0x1 PUSH1 0x1 PUSH1 0xA0 SHL SUB DUP4 DUP2 AND PUSH1 0x0 DUP2 DUP2 MSTORE PUSH1 0x3 PUSH1 0x20 SWAP1 DUP2 MSTORE PUSH1 0x40 DUP1 DUP4 KECCAK256 SWAP5 DUP8 AND DUP1 DUP5 MSTORE SWAP5 DUP3 MSTORE SWAP2 DUP3 SWAP1 KECCAK256 DUP6 SWAP1 SSTORE SWAP1 MLOAD DUP5 DUP2 MSTORE PUSH32 0x8C5BE1E5EBEC7D5BD14F71427D1E84F3DD0314C0F7B2291E5B200AC8C7C3B925 SWAP2 ADD PUSH1 0x40 MLOAD DUP1 SWAP2 SUB SWAP1 LOG3 POP POP POP JUMP JUMPDEST PUSH1 0x1 PUSH1 0x1 PUSH1 0xA0 SHL SUB DUP4 AND PUSH2 0x1851 JUMPI PUSH1 0x40 MLOAD PUSH3 0x461BCD PUSH1 0xE5 SHL DUP2 MSTORE PUSH1 0x20 PUSH1 0x4 DUP3 ADD MSTORE PUSH1 0x25 PUSH1 0x24 DUP3 ADD MSTORE PUSH32 0x45524332303A207472616E736665722066726F6D20746865207A65726F206164 PUSH1 0x44 DUP3 ADD MSTORE PUSH5 0x6472657373 PUSH1 0xD8 SHL PUSH1 0x64 DUP3 ADD MSTORE PUSH1 0x84 ADD PUSH2 0x9BE JUMP JUMPDEST PUSH1 0x1 PUSH1 0x1 PUSH1 0xA0 SHL SUB DUP3 AND PUSH2 0x18B3 JUMPI PUSH1 0x40 MLOAD PUSH3 0x461BCD PUSH1 0xE5 SHL DUP2 MSTORE PUSH1 0x20 PUSH1 0x4 DUP3 ADD MSTORE PUSH1 0x23 PUSH1 0x24 DUP3 ADD MSTORE PUSH32 0x45524332303A207472616E7366657220746F20746865207A65726F2061646472 PUSH1 0x44 DUP3 ADD MSTORE PUSH3 0x657373 PUSH1 0xE8 SHL PUSH1 0x64 DUP3 ADD MSTORE PUSH1 0x84 ADD PUSH2 0x9BE JUMP JUMPDEST PUSH1 0x0 DUP2 GT PUSH2 0x1915 JUMPI PUSH1 0x40 MLOAD PUSH3 0x461BCD PUSH1 0xE5 SHL DUP2 MSTORE PUSH1 0x20 PUSH1 0x4 DUP3 ADD MSTORE PUSH1 0x29 PUSH1 0x24 DUP3 ADD MSTORE PUSH32 0x5472616E7366657220616D6F756E74206D757374206265206772656174657220 PUSH1 0x44 DUP3 ADD MSTORE PUSH9 0x7468616E207A65726F PUSH1 0xB8 SHL PUSH1 0x64 DUP3 ADD MSTORE PUSH1 0x84 ADD PUSH2 0x9BE JUMP JUMPDEST PUSH1 0x1 PUSH2 0x1929 PUSH1 0x0 SLOAD PUSH1 0x1 PUSH1 0x1 PUSH1 0xA0 SHL SUB AND SWAP1 JUMP JUMPDEST PUSH1 0x1 PUSH1 0x1 PUSH1 0xA0 SHL SUB AND DUP5 PUSH1 0x1 PUSH1 0x1 PUSH1 0xA0 SHL SUB AND EQ ISZERO DUP1 ISZERO PUSH2 0x1958 JUMPI POP PUSH1 0x0 SLOAD PUSH1 0x1 PUSH1 0x1 PUSH1 0xA0 SHL SUB DUP5 DUP2 AND SWAP2 AND EQ ISZERO JUMPDEST DUP1 ISZERO PUSH2 0x196D JUMPI POP PUSH1 0x1 PUSH1 0x1 PUSH1 0xA0 SHL SUB DUP5 AND ADDRESS EQ ISZERO JUMPDEST DUP1 ISZERO PUSH2 0x1982 JUMPI POP PUSH1 0x1 PUSH1 0x1 PUSH1 0xA0 SHL SUB DUP4 AND ADDRESS EQ ISZERO JUMPDEST ISZERO PUSH2 0x1CEE JUMPI PUSH1 0x24 SLOAD PUSH1 0xFF AND PUSH2 0x19D1 JUMPI PUSH1 0x40 MLOAD PUSH3 0x461BCD PUSH1 0xE5 SHL DUP2 MSTORE PUSH1 0x20 PUSH1 0x4 DUP3 ADD MSTORE PUSH1 0x15 PUSH1 0x24 DUP3 ADD MSTORE PUSH21 0x54726164696E67206973206E6F7420616374697665 PUSH1 0x58 SHL PUSH1 0x44 DUP3 ADD MSTORE PUSH1 0x64 ADD PUSH2 0x9BE JUMP JUMPDEST PUSH1 0x22 SLOAD PUSH1 0x1 PUSH1 0x1 PUSH1 0xA0 SHL SUB DUP6 DUP2 AND SWAP2 AND EQ DUP1 ISZERO PUSH2 0x19FC JUMPI POP PUSH1 0x21 SLOAD PUSH1 0x1 PUSH1 0x1 PUSH1 0xA0 SHL SUB DUP5 DUP2 AND SWAP2 AND EQ ISZERO JUMPDEST ISZERO PUSH2 0x1AD0 JUMPI PUSH1 0x6 SLOAD PUSH1 0x5 SLOAD PUSH2 0x1A10 SWAP2 PUSH2 0x1F6A JUMP JUMPDEST TIMESTAMP GT PUSH2 0x1A3A JUMPI PUSH1 0x1 PUSH1 0x1 PUSH1 0xA0 SHL SUB DUP4 AND PUSH1 0x0 SWAP1 DUP2 MSTORE PUSH1 0x1C PUSH1 0x20 MSTORE PUSH1 0x40 SWAP1 KECCAK256 DUP1 SLOAD PUSH1 0xFF NOT AND PUSH1 0x1 OR SWAP1 SSTORE JUMPDEST PUSH1 0x7 SLOAD PUSH2 0x1A60 DUP4 PUSH2 0x1282 DUP7 PUSH1 0x1 PUSH1 0x1 PUSH1 0xA0 SHL SUB AND PUSH1 0x0 SWAP1 DUP2 MSTORE PUSH1 0x2 PUSH1 0x20 MSTORE PUSH1 0x40 SWAP1 KECCAK256 SLOAD SWAP1 JUMP JUMPDEST GT ISZERO PUSH2 0x1A7E JUMPI PUSH1 0x40 MLOAD PUSH3 0x461BCD PUSH1 0xE5 SHL DUP2 MSTORE PUSH1 0x4 ADD PUSH2 0x9BE SWAP1 PUSH2 0x29A9 JUMP JUMPDEST PUSH1 0x9 SLOAD DUP3 GT ISZERO PUSH2 0x1AD0 JUMPI PUSH1 0x40 MLOAD PUSH3 0x461BCD PUSH1 0xE5 SHL DUP2 MSTORE PUSH1 0x20 PUSH1 0x4 DUP3 ADD DUP2 SWAP1 MSTORE PUSH1 0x24 DUP3 ADD MSTORE PUSH32 0x416D6F756E742065786365656473206D6178696D756D20627579206C696D6974 PUSH1 0x44 DUP3 ADD MSTORE PUSH1 0x64 ADD PUSH2 0x9BE JUMP JUMPDEST PUSH1 0x24 SLOAD PUSH2 0x100 SWAP1 DIV PUSH1 0xFF AND ISZERO DUP1 ISZERO PUSH2 0x1AF6 JUMPI POP PUSH1 0x22 SLOAD PUSH1 0x1 PUSH1 0x1 PUSH1 0xA0 SHL SUB DUP6 DUP2 AND SWAP2 AND EQ ISZERO JUMPDEST DUP1 ISZERO PUSH2 0x1B0F JUMPI POP PUSH1 0x22 SLOAD PUSH1 0x1 PUSH1 0x1 PUSH1 0xA0 SHL SUB DUP5 DUP2 AND SWAP2 AND EQ JUMPDEST ISZERO PUSH2 0x1C79 JUMPI PUSH1 0x1 PUSH1 0x1 PUSH1 0xA0 SHL SUB DUP5 AND PUSH1 0x0 SWAP1 DUP2 MSTORE PUSH1 0x1C PUSH1 0x20 MSTORE PUSH1 0x40 SWAP1 KECCAK256 SLOAD PUSH1 0xFF AND ISZERO DUP1 ISZERO PUSH2 0x1B56 JUMPI POP PUSH1 0x1 PUSH1 0x1 PUSH1 0xA0 SHL SUB DUP4 AND PUSH1 0x0 SWAP1 DUP2 MSTORE PUSH1 0x1C PUSH1 0x20 MSTORE PUSH1 0x40 SWAP1 KECCAK256 SLOAD PUSH1 0xFF AND ISZERO JUMPDEST PUSH2 0x1B5F JUMPI PUSH1 0x0 DUP1 REVERT JUMPDEST PUSH1 0x8 SLOAD DUP3 GT ISZERO PUSH2 0x1BBB JUMPI PUSH1 0x40 MLOAD PUSH3 0x461BCD PUSH1 0xE5 SHL DUP2 MSTORE PUSH1 0x20 PUSH1 0x4 DUP3 ADD MSTORE PUSH1 0x21 PUSH1 0x24 DUP3 ADD MSTORE PUSH32 0x416D6F756E742065786365656473206D6178696D756D2073656C6C206C696D69 PUSH1 0x44 DUP3 ADD MSTORE PUSH1 0x1D PUSH1 0xFA SHL PUSH1 0x64 DUP3 ADD MSTORE PUSH1 0x84 ADD PUSH2 0x9BE JUMP JUMPDEST ADDRESS PUSH1 0x0 SWAP1 DUP2 MSTORE PUSH1 0x2 PUSH1 0x20 MSTORE PUSH1 0x40 SWAP1 KECCAK256 SLOAD PUSH1 0xA SLOAD DUP2 LT PUSH2 0x1C77 JUMPI DUP1 ISZERO PUSH2 0x1C65 JUMPI PUSH1 0x0 PUSH2 0x1BFF PUSH1 0x13 SLOAD PUSH2 0x1282 PUSH1 0x15 SLOAD PUSH2 0x1282 PUSH1 0x19 SLOAD PUSH1 0x17 SLOAD PUSH2 0x1F6A SWAP1 SWAP2 SWAP1 PUSH4 0xFFFFFFFF AND JUMP JUMPDEST GT ISZERO PUSH2 0x1C65 JUMPI PUSH1 0x0 PUSH2 0x1C40 PUSH2 0x1C2D PUSH1 0x13 SLOAD PUSH2 0x1282 PUSH1 0x15 SLOAD PUSH2 0x1282 PUSH1 0x19 SLOAD PUSH1 0x17 SLOAD PUSH2 0x1F6A SWAP1 SWAP2 SWAP1 PUSH4 0xFFFFFFFF AND JUMP JUMPDEST PUSH1 0x13 SLOAD PUSH2 0x1C3A SWAP1 DUP6 PUSH2 0x2019 JUMP JUMPDEST SWAP1 PUSH2 0x1D82 JUMP JUMPDEST SWAP1 POP PUSH1 0x0 DUP2 DUP4 LT PUSH2 0x1C58 JUMPI PUSH2 0x1C55 DUP4 DUP4 PUSH2 0x2098 JUMP JUMPDEST SWAP1 POP JUMPDEST PUSH2 0x1C62 DUP3 DUP3 PUSH2 0x20DA JUMP JUMPDEST POP POP JUMPDEST SELFBALANCE DUP1 ISZERO PUSH2 0x1C75 JUMPI PUSH2 0x1C75 SELFBALANCE PUSH2 0x214D JUMP JUMPDEST POP JUMPDEST POP JUMPDEST PUSH1 0x22 SLOAD PUSH1 0x1 PUSH1 0x1 PUSH1 0xA0 SHL SUB DUP6 DUP2 AND SWAP2 AND EQ DUP1 ISZERO SWAP1 PUSH2 0x1CA5 JUMPI POP PUSH1 0x22 SLOAD PUSH1 0x1 PUSH1 0x1 PUSH1 0xA0 SHL SUB DUP5 DUP2 AND SWAP2 AND EQ ISZERO JUMPDEST ISZERO PUSH2 0x1CEE JUMPI PUSH1 0x7 SLOAD PUSH2 0x1CD0 DUP4 PUSH2 0x1282 DUP7 PUSH1 0x1 PUSH1 0x1 PUSH1 0xA0 SHL SUB AND PUSH1 0x0 SWAP1 DUP2 MSTORE PUSH1 0x2 PUSH1 0x20 MSTORE PUSH1 0x40 SWAP1 KECCAK256 SLOAD SWAP1 JUMP JUMPDEST GT ISZERO PUSH2 0x1CEE JUMPI PUSH1 0x40 MLOAD PUSH3 0x461BCD PUSH1 0xE5 SHL DUP2 MSTORE PUSH1 0x4 ADD PUSH2 0x9BE SWAP1 PUSH2 0x29A9 JUMP JUMPDEST PUSH1 0x1 PUSH1 0x1 PUSH1 0xA0 SHL SUB DUP5 AND PUSH1 0x0 SWAP1 DUP2 MSTORE PUSH1 0x4 PUSH1 0x20 MSTORE PUSH1 0x40 SWAP1 KECCAK256 SLOAD PUSH1 0xFF AND DUP1 PUSH2 0x1D2D JUMPI POP PUSH1 0x1 PUSH1 0x1 PUSH1 0xA0 SHL SUB DUP4 AND PUSH1 0x0 SWAP1 DUP2 MSTORE PUSH1 0x4 PUSH1 0x20 MSTORE PUSH1 0x40 SWAP1 KECCAK256 SLOAD PUSH1 0xFF AND JUMPDEST ISZERO PUSH2 0x1D36 JUMPI POP PUSH1 0x0 JUMPDEST PUSH2 0x1D42 DUP5 DUP5 DUP5 DUP5 PUSH2 0x2293 JUMP JUMPDEST POP POP POP POP JUMP JUMPDEST PUSH1 0x0 DUP2 DUP5 DUP5 GT ISZERO PUSH2 0x1D6C JUMPI PUSH1 0x40 MLOAD PUSH3 0x461BCD PUSH1 0xE5 SHL DUP2 MSTORE PUSH1 0x4 ADD PUSH2 0x9BE SWAP2 SWAP1 PUSH2 0x2956 JUMP JUMPDEST POP PUSH1 0x0 PUSH2 0x1D79 DUP5 DUP7 PUSH2 0x2B5D JUMP JUMPDEST SWAP6 SWAP5 POP POP POP POP POP JUMP JUMPDEST PUSH1 0x0 PUSH2 0x1DC4 DUP4 DUP4 PUSH1 0x40 MLOAD DUP1 PUSH1 0x40 ADD PUSH1 0x40 MSTORE DUP1 PUSH1 0x1A DUP2 MSTORE PUSH1 0x20 ADD PUSH32 0x536166654D6174683A206469766973696F6E206279207A65726F000000000000 DUP2 MSTORE POP PUSH2 0x2331 JUMP JUMPDEST SWAP4 SWAP3 POP POP POP JUMP JUMPDEST PUSH1 0x24 DUP1 SLOAD PUSH2 0xFF00 NOT AND PUSH2 0x100 OR SWAP1 SSTORE PUSH1 0x40 DUP1 MLOAD PUSH1 0x2 DUP1 DUP3 MSTORE PUSH1 0x60 DUP3 ADD DUP4 MSTORE PUSH1 0x0 SWAP3 PUSH1 0x20 DUP4 ADD SWAP1 DUP1 CALLDATASIZE DUP4 CALLDATACOPY ADD SWAP1 POP POP SWAP1 POP ADDRESS DUP2 PUSH1 0x0 DUP2 MLOAD DUP2 LT PUSH2 0x1E1D JUMPI PUSH4 0x4E487B71 PUSH1 0xE0 SHL PUSH1 0x0 MSTORE PUSH1 0x32 PUSH1 0x4 MSTORE PUSH1 0x24 PUSH1 0x0 REVERT JUMPDEST PUSH1 0x1 PUSH1 0x1 PUSH1 0xA0 SHL SUB SWAP3 DUP4 AND PUSH1 0x20 SWAP2 DUP3 MUL SWAP3 SWAP1 SWAP3 ADD DUP2 ADD SWAP2 SWAP1 SWAP2 MSTORE PUSH1 0x21 SLOAD PUSH1 0x40 DUP1 MLOAD PUSH4 0x15AB88C9 PUSH1 0xE3 SHL DUP2 MSTORE SWAP1 MLOAD SWAP2 SWAP1 SWAP4 AND SWAP3 PUSH4 0xAD5C4648 SWAP3 PUSH1 0x4 DUP1 DUP4 ADD SWAP4 SWAP2 SWAP3 DUP3 SWAP1 SUB ADD DUP2 DUP7 DUP1 EXTCODESIZE ISZERO DUP1 ISZERO PUSH2 0x1E71 JUMPI PUSH1 0x0 DUP1 REVERT JUMPDEST POP GAS STATICCALL ISZERO DUP1 ISZERO PUSH2 0x1E85 JUMPI RETURNDATASIZE PUSH1 0x0 DUP1 RETURNDATACOPY RETURNDATASIZE PUSH1 0x0 REVERT JUMPDEST POP POP POP POP PUSH1 0x40 MLOAD RETURNDATASIZE PUSH1 0x1F NOT PUSH1 0x1F DUP3 ADD AND DUP3 ADD DUP1 PUSH1 0x40 MSTORE POP DUP2 ADD SWAP1 PUSH2 0x1EA9 SWAP2 SWAP1 PUSH2 0x27E9 JUMP JUMPDEST DUP2 PUSH1 0x1 DUP2 MLOAD DUP2 LT PUSH2 0x1ECA JUMPI PUSH4 0x4E487B71 PUSH1 0xE0 SHL PUSH1 0x0 MSTORE PUSH1 0x32 PUSH1 0x4 MSTORE PUSH1 0x24 PUSH1 0x0 REVERT JUMPDEST PUSH1 0x1 PUSH1 0x1 PUSH1 0xA0 SHL SUB SWAP3 DUP4 AND PUSH1 0x20 SWAP2 DUP3 MUL SWAP3 SWAP1 SWAP3 ADD ADD MSTORE PUSH1 0x21 SLOAD PUSH2 0x1EF0 SWAP2 ADDRESS SWAP2 AND DUP5 PUSH2 0x16C9 JUMP JUMPDEST PUSH1 0x21 SLOAD PUSH1 0x40 MLOAD PUSH4 0x791AC947 PUSH1 0xE0 SHL DUP2 MSTORE PUSH1 0x1 PUSH1 0x1 PUSH1 0xA0 SHL SUB SWAP1 SWAP2 AND SWAP1 PUSH4 0x791AC947 SWAP1 PUSH2 0x1F29 SWAP1 DUP6 SWAP1 PUSH1 0x0 SWAP1 DUP7 SWAP1 ADDRESS SWAP1 TIMESTAMP SWAP1 PUSH1 0x4 ADD PUSH2 0x2A96 JUMP JUMPDEST PUSH1 0x0 PUSH1 0x40 MLOAD DUP1 DUP4 SUB DUP2 PUSH1 0x0 DUP8 DUP1 EXTCODESIZE ISZERO DUP1 ISZERO PUSH2 0x1F43 JUMPI PUSH1 0x0 DUP1 REVERT JUMPDEST POP GAS CALL ISZERO DUP1 ISZERO PUSH2 0x1F57 JUMPI RETURNDATASIZE PUSH1 0x0 DUP1 RETURNDATACOPY RETURNDATASIZE PUSH1 0x0 REVERT JUMPDEST POP POP PUSH1 0x24 DUP1 SLOAD PUSH2 0xFF00 NOT AND SWAP1 SSTORE POP POP POP POP JUMP JUMPDEST PUSH1 0x0 DUP1 PUSH2 0x1F77 DUP4 DUP6 PUSH2 0x2B06 JUMP JUMPDEST SWAP1 POP DUP4 DUP2 LT ISZERO PUSH2 0x1DC4 JUMPI PUSH1 0x40 MLOAD PUSH3 0x461BCD PUSH1 0xE5 SHL DUP2 MSTORE PUSH1 0x20 PUSH1 0x4 DUP3 ADD MSTORE PUSH1 0x1B PUSH1 0x24 DUP3 ADD MSTORE PUSH32 0x536166654D6174683A206164646974696F6E206F766572666C6F770000000000 PUSH1 0x44 DUP3 ADD MSTORE PUSH1 0x64 ADD PUSH2 0x9BE JUMP JUMPDEST PUSH1 0x0 DUP1 SLOAD PUSH1 0x1 PUSH1 0x1 PUSH1 0xA0 SHL SUB DUP4 DUP2 AND PUSH1 0x1 PUSH1 0x1 PUSH1 0xA0 SHL SUB NOT DUP4 AND DUP2 OR DUP5 SSTORE PUSH1 0x40 MLOAD SWAP2 SWAP1 SWAP3 AND SWAP3 DUP4 SWAP2 PUSH32 0x8BE0079C531659141344CD1FD0A4F28419497F9722A3DAAFE3B4186F6B6457E0 SWAP2 SWAP1 LOG3 POP POP JUMP JUMPDEST PUSH1 0x0 DUP3 PUSH2 0x2028 JUMPI POP PUSH1 0x0 PUSH2 0x98E JUMP JUMPDEST PUSH1 0x0 PUSH2 0x2034 DUP4 DUP6 PUSH2 0x2B3E JUMP JUMPDEST SWAP1 POP DUP3 PUSH2 0x2041 DUP6 DUP4 PUSH2 0x2B1E JUMP JUMPDEST EQ PUSH2 0x1DC4 JUMPI PUSH1 0x40 MLOAD PUSH3 0x461BCD PUSH1 0xE5 SHL DUP2 MSTORE PUSH1 0x20 PUSH1 0x4 DUP3 ADD MSTORE PUSH1 0x21 PUSH1 0x24 DUP3 ADD MSTORE PUSH32 0x536166654D6174683A206D756C7469706C69636174696F6E206F766572666C6F PUSH1 0x44 DUP3 ADD MSTORE PUSH1 0x77 PUSH1 0xF8 SHL PUSH1 0x64 DUP3 ADD MSTORE PUSH1 0x84 ADD PUSH2 0x9BE JUMP JUMPDEST PUSH1 0x0 PUSH2 0x1DC4 DUP4 DUP4 PUSH1 0x40 MLOAD DUP1 PUSH1 0x40 ADD PUSH1 0x40 MSTORE DUP1 PUSH1 0x1E DUP2 MSTORE PUSH1 0x20 ADD PUSH32 0x536166654D6174683A207375627472616374696F6E206F766572666C6F770000 DUP2 MSTORE POP PUSH2 0x1D48 JUMP JUMPDEST PUSH1 0x24 DUP1 SLOAD PUSH2 0xFF00 NOT AND PUSH2 0x100 OR SWAP1 SSTORE PUSH1 0x0 PUSH2 0x20F6 DUP4 PUSH1 0x2 PUSH2 0x1D82 JUMP JUMPDEST SWAP1 POP PUSH1 0x0 PUSH2 0x2104 DUP5 DUP4 PUSH2 0x2098 JUMP JUMPDEST SWAP1 POP SELFBALANCE PUSH2 0x2119 PUSH2 0x2114 DUP6 DUP6 PUSH2 0x1F6A JUMP JUMPDEST PUSH2 0x1DCB JUMP JUMPDEST PUSH1 0x0 PUSH2 0x2125 SELFBALANCE DUP4 PUSH2 0x2098 JUMP JUMPDEST SWAP1 POP DUP3 ISZERO PUSH2 0x1F57 JUMPI PUSH2 0x1F57 DUP4 PUSH2 0x2148 PUSH2 0x213E DUP9 DUP9 PUSH2 0x1F6A JUMP JUMPDEST PUSH2 0x1C3A DUP6 DUP10 PUSH2 0x2019 JUMP JUMPDEST PUSH2 0x235F JUMP JUMPDEST PUSH1 0x0 PUSH2 0x216C PUSH1 0x19 SLOAD PUSH2 0x1282 PUSH1 0x15 SLOAD PUSH1 0x17 SLOAD PUSH2 0x1F6A SWAP1 SWAP2 SWAP1 PUSH4 0xFFFFFFFF AND JUMP JUMPDEST SWAP1 POP DUP1 ISZERO PUSH2 0xF31 JUMPI PUSH1 0x0 PUSH2 0x218F DUP3 PUSH2 0x1C3A PUSH1 0x17 SLOAD DUP7 PUSH2 0x2019 SWAP1 SWAP2 SWAP1 PUSH4 0xFFFFFFFF AND JUMP JUMPDEST SWAP1 POP PUSH1 0x0 PUSH2 0x21AC DUP4 PUSH2 0x1C3A PUSH1 0x19 SLOAD DUP8 PUSH2 0x2019 SWAP1 SWAP2 SWAP1 PUSH4 0xFFFFFFFF AND JUMP JUMPDEST SWAP1 POP PUSH1 0x0 PUSH2 0x21C4 DUP3 PUSH2 0x21BE DUP8 DUP7 PUSH2 0x2098 JUMP JUMPDEST SWAP1 PUSH2 0x2098 JUMP JUMPDEST SWAP1 POP DUP3 ISZERO PUSH2 0x2208 JUMPI PUSH1 0x1D SLOAD PUSH1 0x40 MLOAD PUSH1 0x1 PUSH1 0x1 PUSH1 0xA0 SHL SUB SWAP1 SWAP2 AND SWAP1 DUP5 ISZERO PUSH2 0x8FC MUL SWAP1 DUP6 SWAP1 PUSH1 0x0 DUP2 DUP2 DUP2 DUP6 DUP9 DUP9 CALL SWAP4 POP POP POP POP ISZERO DUP1 ISZERO PUSH2 0x2206 JUMPI RETURNDATASIZE PUSH1 0x0 DUP1 RETURNDATACOPY RETURNDATASIZE PUSH1 0x0 REVERT JUMPDEST POP JUMPDEST DUP2 ISZERO PUSH2 0x224A JUMPI PUSH1 0x1E SLOAD PUSH1 0x40 MLOAD PUSH1 0x1 PUSH1 0x1 PUSH1 0xA0 SHL SUB SWAP1 SWAP2 AND SWAP1 DUP4 ISZERO PUSH2 0x8FC MUL SWAP1 DUP5 SWAP1 PUSH1 0x0 DUP2 DUP2 DUP2 DUP6 DUP9 DUP9 CALL SWAP4 POP POP POP POP ISZERO DUP1 ISZERO PUSH2 0x2248 JUMPI RETURNDATASIZE PUSH1 0x0 DUP1 RETURNDATACOPY RETURNDATASIZE PUSH1 0x0 REVERT JUMPDEST POP JUMPDEST DUP1 ISZERO PUSH2 0x228C JUMPI PUSH1 0x1F SLOAD PUSH1 0x40 MLOAD PUSH1 0x1 PUSH1 0x1 PUSH1 0xA0 SHL SUB SWAP1 SWAP2 AND SWAP1 DUP3 ISZERO PUSH2 0x8FC MUL SWAP1 DUP4 SWAP1 PUSH1 0x0 DUP2 DUP2 DUP2 DUP6 DUP9 DUP9 CALL SWAP4 POP POP POP POP ISZERO DUP1 ISZERO PUSH2 0x228A JUMPI RETURNDATASIZE PUSH1 0x0 DUP1 RETURNDATACOPY RETURNDATASIZE PUSH1 0x0 REVERT JUMPDEST POP JUMPDEST POP POP POP POP POP JUMP JUMPDEST DUP1 PUSH2 0x22F1 JUMPI PUSH2 0x22F1 PUSH1 0xF DUP1 SLOAD PUSH1 0x10 SSTORE PUSH1 0xB DUP1 SLOAD PUSH1 0xC SSTORE PUSH1 0x11 DUP1 SLOAD PUSH1 0x12 SSTORE PUSH1 0xD DUP1 SLOAD PUSH1 0xE SSTORE PUSH1 0x0 SWAP4 DUP5 SWAP1 SSTORE SWAP2 DUP4 SWAP1 SSTORE DUP3 SWAP1 SSTORE DUP2 SWAP1 SSTORE PUSH1 0x17 DUP1 SLOAD PUSH1 0x18 SSTORE PUSH1 0x13 DUP1 SLOAD PUSH1 0x14 SSTORE PUSH1 0x19 DUP1 SLOAD PUSH1 0x1A SSTORE PUSH1 0x15 DUP1 SLOAD PUSH1 0x16 SSTORE SWAP3 DUP5 SWAP1 SSTORE SWAP1 DUP4 SWAP1 SSTORE DUP3 SWAP1 SSTORE SSTORE JUMP JUMPDEST PUSH2 0x22FC DUP5 DUP5 DUP5 PUSH2 0x241B JUMP JUMPDEST PUSH2 0x1D42 PUSH1 0x10 SLOAD PUSH1 0xF SSTORE PUSH1 0xC SLOAD PUSH1 0xB SSTORE PUSH1 0x12 SLOAD PUSH1 0x11 SSTORE PUSH1 0xE SLOAD PUSH1 0xD SSTORE PUSH1 0x18 SLOAD PUSH1 0x17 SSTORE PUSH1 0x14 SLOAD PUSH1 0x13 SSTORE PUSH1 0x1A SLOAD PUSH1 0x19 SSTORE PUSH1 0x16 SLOAD PUSH1 0x15 SSTORE JUMP JUMPDEST PUSH1 0x0 DUP2 DUP4 PUSH2 0x2352 JUMPI PUSH1 0x40 MLOAD PUSH3 0x461BCD PUSH1 0xE5 SHL DUP2 MSTORE PUSH1 0x4 ADD PUSH2 0x9BE SWAP2 SWAP1 PUSH2 0x2956 JUMP JUMPDEST POP PUSH1 0x0 PUSH2 0x1D79 DUP5 DUP7 PUSH2 0x2B1E JUMP JUMPDEST PUSH1 0x21 SLOAD PUSH2 0x2377 SWAP1 ADDRESS SWAP1 PUSH1 0x1 PUSH1 0x1 PUSH1 0xA0 SHL SUB AND DUP5 PUSH2 0x16C9 JUMP JUMPDEST PUSH1 0x21 SLOAD PUSH1 0x20 SLOAD PUSH1 0x40 MLOAD PUSH4 0xF305D719 PUSH1 0xE0 SHL DUP2 MSTORE ADDRESS PUSH1 0x4 DUP3 ADD MSTORE PUSH1 0x24 DUP2 ADD DUP6 SWAP1 MSTORE PUSH1 0x0 PUSH1 0x44 DUP3 ADD DUP2 SWAP1 MSTORE PUSH1 0x64 DUP3 ADD MSTORE PUSH1 0x1 PUSH1 0x1 PUSH1 0xA0 SHL SUB SWAP2 DUP3 AND PUSH1 0x84 DUP3 ADD MSTORE TIMESTAMP PUSH1 0xA4 DUP3 ADD MSTORE SWAP2 AND SWAP1 PUSH4 0xF305D719 SWAP1 DUP4 SWAP1 PUSH1 0xC4 ADD PUSH1 0x60 PUSH1 0x40 MLOAD DUP1 DUP4 SUB DUP2 DUP6 DUP9 DUP1 EXTCODESIZE ISZERO DUP1 ISZERO PUSH2 0x23E2 JUMPI PUSH1 0x0 DUP1 REVERT JUMPDEST POP GAS CALL ISZERO DUP1 ISZERO PUSH2 0x23F6 JUMPI RETURNDATASIZE PUSH1 0x0 DUP1 RETURNDATACOPY RETURNDATASIZE PUSH1 0x0 REVERT JUMPDEST POP POP POP POP POP PUSH1 0x40 MLOAD RETURNDATASIZE PUSH1 0x1F NOT PUSH1 0x1F DUP3 ADD AND DUP3 ADD DUP1 PUSH1 0x40 MSTORE POP DUP2 ADD SWAP1 PUSH2 0x228C SWAP2 SWAP1 PUSH2 0x28F8 JUMP JUMPDEST PUSH2 0x244D PUSH1 0x40 MLOAD DUP1 PUSH1 0xA0 ADD PUSH1 0x40 MSTORE DUP1 PUSH1 0x0 DUP2 MSTORE PUSH1 0x20 ADD PUSH1 0x0 DUP2 MSTORE PUSH1 0x20 ADD PUSH1 0x0 DUP2 MSTORE PUSH1 0x20 ADD PUSH1 0x0 DUP2 MSTORE PUSH1 0x20 ADD PUSH1 0x0 DUP2 MSTORE POP SWAP1 JUMP JUMPDEST PUSH1 0x22 SLOAD PUSH1 0x1 PUSH1 0x1 PUSH1 0xA0 SHL SUB DUP6 DUP2 AND SWAP2 AND EQ DUP1 ISZERO PUSH2 0x2478 JUMPI POP PUSH1 0x21 SLOAD PUSH1 0x1 PUSH1 0x1 PUSH1 0xA0 SHL SUB DUP5 DUP2 AND SWAP2 AND EQ ISZERO JUMPDEST ISZERO PUSH2 0x24EC JUMPI PUSH2 0x2498 PUSH2 0x3E8 PUSH2 0x1C3A PUSH1 0xF SLOAD DUP6 PUSH2 0x2019 SWAP1 SWAP2 SWAP1 PUSH4 0xFFFFFFFF AND JUMP JUMPDEST PUSH1 0x20 DUP3 ADD MSTORE PUSH1 0xB SLOAD PUSH2 0x24B3 SWAP1 PUSH2 0x3E8 SWAP1 PUSH2 0x1C3A SWAP1 DUP6 SWAP1 PUSH2 0x2019 JUMP JUMPDEST DUP2 MSTORE PUSH1 0x11 SLOAD PUSH2 0x24CB SWAP1 PUSH2 0x3E8 SWAP1 PUSH2 0x1C3A SWAP1 DUP6 SWAP1 PUSH2 0x2019 JUMP JUMPDEST PUSH1 0x40 DUP3 ADD MSTORE PUSH1 0xD SLOAD PUSH2 0x24E6 SWAP1 PUSH2 0x3E8 SWAP1 PUSH2 0x1C3A SWAP1 DUP6 SWAP1 PUSH2 0x2019 JUMP JUMPDEST PUSH1 0x60 DUP3 ADD MSTORE JUMPDEST PUSH1 0x22 SLOAD PUSH1 0x1 PUSH1 0x1 PUSH1 0xA0 SHL SUB DUP6 DUP2 AND SWAP2 AND EQ DUP1 ISZERO SWAP1 PUSH2 0x2517 JUMPI POP PUSH1 0x22 SLOAD PUSH1 0x1 PUSH1 0x1 PUSH1 0xA0 SHL SUB DUP5 DUP2 AND SWAP2 AND EQ JUMPDEST ISZERO PUSH2 0x258B JUMPI PUSH2 0x2537 PUSH2 0x3E8 PUSH2 0x1C3A PUSH1 0x17 SLOAD DUP6 PUSH2 0x2019 SWAP1 SWAP2 SWAP1 PUSH4 0xFFFFFFFF AND JUMP JUMPDEST PUSH1 0x20 DUP3 ADD MSTORE PUSH1 0x13 SLOAD PUSH2 0x2552 SWAP1 PUSH2 0x3E8 SWAP1 PUSH2 0x1C3A SWAP1 DUP6 SWAP1 PUSH2 0x2019 JUMP JUMPDEST DUP2 MSTORE PUSH1 0x19 SLOAD PUSH2 0x256A SWAP1 PUSH2 0x3E8 SWAP1 PUSH2 0x1C3A SWAP1 DUP6 SWAP1 PUSH2 0x2019 JUMP JUMPDEST PUSH1 0x40 DUP3 ADD MSTORE PUSH1 0x15 SLOAD PUSH2 0x2585 SWAP1 PUSH2 0x3E8 SWAP1 PUSH2 0x1C3A SWAP1 DUP6 SWAP1 PUSH2 0x2019 JUMP JUMPDEST PUSH1 0x60 DUP3 ADD MSTORE JUMPDEST PUSH1 0x22 SLOAD PUSH1 0x1 PUSH1 0x1 PUSH1 0xA0 SHL SUB DUP6 DUP2 AND SWAP2 AND EQ DUP1 ISZERO SWAP1 PUSH2 0x25B7 JUMPI POP PUSH1 0x22 SLOAD PUSH1 0x1 PUSH1 0x1 PUSH1 0xA0 SHL SUB DUP5 DUP2 AND SWAP2 AND EQ ISZERO JUMPDEST ISZERO PUSH2 0x2671 JUMPI PUSH2 0x25E8 PUSH1 0x64 PUSH2 0x1C3A PUSH1 0x1B SLOAD PUSH2 0x25E2 PUSH2 0x3E8 PUSH2 0x1C3A PUSH1 0x17 SLOAD DUP10 PUSH2 0x2019 SWAP1 SWAP2 SWAP1 PUSH4 0xFFFFFFFF AND JUMP JUMPDEST SWAP1 PUSH2 0x2019 JUMP JUMPDEST DUP2 PUSH1 0x20 ADD DUP2 DUP2 MSTORE POP POP PUSH2 0x2617 PUSH1 0x64 PUSH2 0x1C3A PUSH1 0x1B SLOAD PUSH2 0x25E2 PUSH2 0x3E8 PUSH2 0x1C3A PUSH1 0x13 SLOAD DUP10 PUSH2 0x2019 SWAP1 SWAP2 SWAP1 PUSH4 0xFFFFFFFF AND JUMP JUMPDEST DUP2 MSTORE PUSH1 0x1B SLOAD PUSH1 0x19 SLOAD PUSH2 0x263C SWAP2 PUSH1 0x64 SWAP2 PUSH2 0x1C3A SWAP2 SWAP1 PUSH2 0x25E2 SWAP1 PUSH2 0x3E8 SWAP1 DUP5 SWAP1 DUP10 SWAP1 PUSH2 0x2019 JUMP JUMPDEST DUP2 PUSH1 0x40 ADD DUP2 DUP2 MSTORE POP POP PUSH2 0x266B PUSH1 0x64 PUSH2 0x1C3A PUSH1 0x1B SLOAD PUSH2 0x25E2 PUSH2 0x3E8 PUSH2 0x1C3A PUSH1 0x15 SLOAD DUP10 PUSH2 0x2019 SWAP1 SWAP2 SWAP1 PUSH4 0xFFFFFFFF AND JUMP JUMPDEST PUSH1 0x60 DUP3 ADD MSTORE JUMPDEST PUSH2 0x26A0 DUP2 PUSH1 0x60 ADD MLOAD PUSH2 0x21BE DUP4 PUSH1 0x40 ADD MLOAD PUSH2 0x21BE DUP6 PUSH1 0x0 ADD MLOAD PUSH2 0x21BE DUP8 PUSH1 0x20 ADD MLOAD DUP10 PUSH2 0x2098 SWAP1 SWAP2 SWAP1 PUSH4 0xFFFFFFFF AND JUMP JUMPDEST PUSH1 0x80 DUP3 ADD MSTORE PUSH1 0x1 PUSH1 0x1 PUSH1 0xA0 SHL SUB DUP5 AND PUSH1 0x0 SWAP1 DUP2 MSTORE PUSH1 0x2 PUSH1 0x20 MSTORE PUSH1 0x40 SWAP1 KECCAK256 SLOAD PUSH2 0x26C8 SWAP1 DUP4 PUSH2 0x2098 JUMP JUMPDEST PUSH1 0x1 PUSH1 0x1 PUSH1 0xA0 SHL SUB DUP1 DUP7 AND PUSH1 0x0 SWAP1 DUP2 MSTORE PUSH1 0x2 PUSH1 0x20 MSTORE PUSH1 0x40 DUP1 DUP3 KECCAK256 SWAP4 SWAP1 SWAP4 SSTORE PUSH1 0x80 DUP5 ADD MLOAD SWAP2 DUP7 AND DUP2 MSTORE SWAP2 SWAP1 SWAP2 KECCAK256 SLOAD PUSH2 0x26FE SWAP2 PUSH2 0x1F6A JUMP JUMPDEST PUSH1 0x2 PUSH1 0x0 DUP6 PUSH1 0x1 PUSH1 0x1 PUSH1 0xA0 SHL SUB AND PUSH1 0x1 PUSH1 0x1 PUSH1 0xA0 SHL SUB AND DUP2 MSTORE PUSH1 0x20 ADD SWAP1 DUP2 MSTORE PUSH1 0x20 ADD PUSH1 0x0 KECCAK256 DUP2 SWAP1 SSTORE POP PUSH2 0x276B PUSH2 0x2755 DUP3 PUSH1 0x60 ADD MLOAD PUSH2 0x1282 DUP5 PUSH1 0x40 ADD MLOAD PUSH2 0x1282 DUP7 PUSH1 0x0 ADD MLOAD DUP8 PUSH1 0x20 ADD MLOAD PUSH2 0x1F6A SWAP1 SWAP2 SWAP1 PUSH4 0xFFFFFFFF AND JUMP JUMPDEST ADDRESS PUSH1 0x0 SWAP1 DUP2 MSTORE PUSH1 0x2 PUSH1 0x20 MSTORE PUSH1 0x40 SWAP1 KECCAK256 SLOAD SWAP1 PUSH2 0x1F6A JUMP JUMPDEST ADDRESS PUSH1 0x0 SWAP1 DUP2 MSTORE PUSH1 0x2 PUSH1 0x20 SWAP1 DUP2 MSTORE PUSH1 0x40 SWAP2 DUP3 SWAP1 KECCAK256 SWAP3 SWAP1 SWAP3 SSTORE PUSH1 0x80 DUP4 ADD MLOAD SWAP1 MLOAD SWAP1 DUP2 MSTORE PUSH1 0x1 PUSH1 0x1 PUSH1 0xA0 SHL SUB DUP6 DUP2 AND SWAP3 SWAP1 DUP8 AND SWAP2 PUSH32 0xDDF252AD1BE2C89B69C2B068FC378DAA952BA7F163C4A11628F55A4DF523B3EF SWAP2 ADD PUSH1 0x40 MLOAD DUP1 SWAP2 SUB SWAP1 LOG3 POP POP POP POP JUMP JUMPDEST PUSH1 0x0 PUSH1 0x20 DUP3 DUP5 SUB SLT ISZERO PUSH2 0x27DE JUMPI DUP1 DUP2 REVERT JUMPDEST DUP2 CALLDATALOAD PUSH2 0x1DC4 DUP2 PUSH2 0x2B8A JUMP JUMPDEST PUSH1 0x0 PUSH1 0x20 DUP3 DUP5 SUB SLT ISZERO PUSH2 0x27FA JUMPI DUP1 DUP2 REVERT JUMPDEST DUP2 MLOAD PUSH2 0x1DC4 DUP2 PUSH2 0x2B8A JUMP JUMPDEST PUSH1 0x0 DUP1 PUSH1 0x40 DUP4 DUP6 SUB SLT ISZERO PUSH2 0x2817 JUMPI DUP1 DUP2 REVERT JUMPDEST DUP3 CALLDATALOAD PUSH2 0x2822 DUP2 PUSH2 0x2B8A JUMP JUMPDEST SWAP2 POP PUSH1 0x20 DUP4 ADD CALLDATALOAD PUSH2 0x2832 DUP2 PUSH2 0x2B8A JUMP JUMPDEST DUP1 SWAP2 POP POP SWAP3 POP SWAP3 SWAP1 POP JUMP JUMPDEST PUSH1 0x0 DUP1 PUSH1 0x0 PUSH1 0x60 DUP5 DUP7 SUB SLT ISZERO PUSH2 0x2851 JUMPI DUP1 DUP2 REVERT JUMPDEST DUP4 CALLDATALOAD PUSH2 0x285C DUP2 PUSH2 0x2B8A JUMP JUMPDEST SWAP3 POP PUSH1 0x20 DUP5 ADD CALLDATALOAD PUSH2 0x286C DUP2 PUSH2 0x2B8A JUMP JUMPDEST SWAP3 SWAP6 SWAP3 SWAP5 POP POP POP PUSH1 0x40 SWAP2 SWAP1 SWAP2 ADD CALLDATALOAD SWAP1 JUMP JUMPDEST PUSH1 0x0 DUP1 PUSH1 0x40 DUP4 DUP6 SUB SLT ISZERO PUSH2 0x288F JUMPI DUP2 DUP3 REVERT JUMPDEST DUP3 CALLDATALOAD PUSH2 0x289A DUP2 PUSH2 0x2B8A JUMP JUMPDEST SWAP5 PUSH1 0x20 SWAP4 SWAP1 SWAP4 ADD CALLDATALOAD SWAP4 POP POP POP JUMP JUMPDEST PUSH1 0x0 PUSH1 0x20 DUP3 DUP5 SUB SLT ISZERO PUSH2 0x28B9 JUMPI DUP1 DUP2 REVERT JUMPDEST DUP2 MLOAD DUP1 ISZERO ISZERO DUP2 EQ PUSH2 0x1DC4 JUMPI DUP2 DUP3 REVERT JUMPDEST PUSH1 0x0 PUSH1 0x20 DUP3 DUP5 SUB SLT ISZERO PUSH2 0x28D9 JUMPI DUP1 DUP2 REVERT JUMPDEST POP CALLDATALOAD SWAP2 SWAP1 POP JUMP JUMPDEST PUSH1 0x0 PUSH1 0x20 DUP3 DUP5 SUB SLT ISZERO PUSH2 0x28F1 JUMPI DUP1 DUP2 REVERT JUMPDEST POP MLOAD SWAP2 SWAP1 POP JUMP JUMPDEST PUSH1 0x0 DUP1 PUSH1 0x0 PUSH1 0x60 DUP5 DUP7 SUB SLT ISZERO PUSH2 0x290C JUMPI DUP3 DUP4 REVERT JUMPDEST DUP4 MLOAD SWAP3 POP PUSH1 0x20 DUP5 ADD MLOAD SWAP2 POP PUSH1 0x40 DUP5 ADD MLOAD SWAP1 POP SWAP3 POP SWAP3 POP SWAP3 JUMP JUMPDEST PUSH1 0x0 DUP1 PUSH1 0x0 DUP1 PUSH1 0x80 DUP6 DUP8 SUB SLT ISZERO PUSH2 0x293A JUMPI DUP1 DUP2 REVERT JUMPDEST POP POP DUP3 CALLDATALOAD SWAP5 PUSH1 0x20 DUP5 ADD CALLDATALOAD SWAP5 POP PUSH1 0x40 DUP5 ADD CALLDATALOAD SWAP4 PUSH1 0x60 ADD CALLDATALOAD SWAP3 POP SWAP1 POP JUMP JUMPDEST PUSH1 0x0 PUSH1 0x20 DUP1 DUP4 MSTORE DUP4 MLOAD DUP1 DUP3 DUP6 ADD MSTORE DUP3 JUMPDEST DUP2 DUP2 LT ISZERO PUSH2 0x2982 JUMPI DUP6 DUP2 ADD DUP4 ADD MLOAD DUP6 DUP3 ADD PUSH1 0x40 ADD MSTORE DUP3 ADD PUSH2 0x2966 JUMP JUMPDEST DUP2 DUP2 GT ISZERO PUSH2 0x2993 JUMPI DUP4 PUSH1 0x40 DUP4 DUP8 ADD ADD MSTORE JUMPDEST POP PUSH1 0x1F ADD PUSH1 0x1F NOT AND SWAP3 SWAP1 SWAP3 ADD PUSH1 0x40 ADD SWAP4 SWAP3 POP POP POP JUMP JUMPDEST PUSH1 0x20 DUP1 DUP3 MSTORE PUSH1 0x41 SWAP1 DUP3 ADD MSTORE PUSH32 0x77616C6C65742062616C616E6365206166746572207472616E73666572206D75 PUSH1 0x40 DUP3 ADD MSTORE PUSH32 0x7374206265206C657373207468616E206D61782077616C6C657420616D6F756E PUSH1 0x60 DUP3 ADD MSTORE PUSH1 0x1D PUSH1 0xFA SHL PUSH1 0x80 DUP3 ADD MSTORE PUSH1 0xA0 ADD SWAP1 JUMP JUMPDEST PUSH1 0x20 DUP1 DUP3 MSTORE DUP2 DUP2 ADD MSTORE PUSH32 0x4F776E61626C653A2063616C6C6572206973206E6F7420746865206F776E6572 PUSH1 0x40 DUP3 ADD MSTORE PUSH1 0x60 ADD SWAP1 JUMP JUMPDEST PUSH1 0x20 DUP1 DUP3 MSTORE PUSH1 0x31 SWAP1 DUP3 ADD MSTORE PUSH32 0x63616E74206D616B6520746865206C696D6974206C6F776572207468616E2030 PUSH1 0x40 DUP3 ADD MSTORE PUSH17 0x2E3125206F662074686520737570706C79 PUSH1 0x78 SHL PUSH1 0x60 DUP3 ADD MSTORE PUSH1 0x80 ADD SWAP1 JUMP JUMPDEST PUSH1 0x0 PUSH1 0xA0 DUP3 ADD DUP8 DUP4 MSTORE PUSH1 0x20 DUP8 DUP2 DUP6 ADD MSTORE PUSH1 0xA0 PUSH1 0x40 DUP6 ADD MSTORE DUP2 DUP8 MLOAD DUP1 DUP5 MSTORE PUSH1 0xC0 DUP7 ADD SWAP2 POP DUP3 DUP10 ADD SWAP4 POP DUP5 JUMPDEST DUP2 DUP2 LT ISZERO PUSH2 0x2AE5 JUMPI DUP5 MLOAD PUSH1 0x1 PUSH1 0x1 PUSH1 0xA0 SHL SUB AND DUP4 MSTORE SWAP4 DUP4 ADD SWAP4 SWAP2 DUP4 ADD SWAP2 PUSH1 0x1 ADD PUSH2 0x2AC0 JUMP JUMPDEST POP POP PUSH1 0x1 PUSH1 0x1 PUSH1 0xA0 SHL SUB SWAP7 SWAP1 SWAP7 AND PUSH1 0x60 DUP6 ADD MSTORE POP POP POP PUSH1 0x80 ADD MSTORE SWAP4 SWAP3 POP POP POP JUMP JUMPDEST PUSH1 0x0 DUP3 NOT DUP3 GT ISZERO PUSH2 0x2B19 JUMPI PUSH2 0x2B19 PUSH2 0x2B74 JUMP JUMPDEST POP ADD SWAP1 JUMP JUMPDEST PUSH1 0x0 DUP3 PUSH2 0x2B39 JUMPI PUSH4 0x4E487B71 PUSH1 0xE0 SHL DUP2 MSTORE PUSH1 0x12 PUSH1 0x4 MSTORE PUSH1 0x24 DUP2 REVERT JUMPDEST POP DIV SWAP1 JUMP JUMPDEST PUSH1 0x0 DUP2 PUSH1 0x0 NOT DIV DUP4 GT DUP3 ISZERO ISZERO AND ISZERO PUSH2 0x2B58 JUMPI PUSH2 0x2B58 PUSH2 0x2B74 JUMP JUMPDEST POP MUL SWAP1 JUMP JUMPDEST PUSH1 0x0 DUP3 DUP3 LT ISZERO PUSH2 0x2B6F JUMPI PUSH2 0x2B6F PUSH2 0x2B74 JUMP JUMPDEST POP SUB SWAP1 JUMP JUMPDEST PUSH4 0x4E487B71 PUSH1 0xE0 SHL PUSH1 0x0 MSTORE PUSH1 0x11 PUSH1 0x4 MSTORE PUSH1 0x24 PUSH1 0x0 REVERT JUMPDEST PUSH1 0x1 PUSH1 0x1 PUSH1 0xA0 SHL SUB DUP2 AND DUP2 EQ PUSH2 0xF33 JUMPI PUSH1 0x0 DUP1 REVERT INVALID GASLIMIT MSTORE NUMBER ORIGIN ADDRESS GASPRICE KECCAK256 PUSH21 0x72616E7366657220616D6F756E7420657863656564 PUSH20 0x20616C6C6F77616E6365A2646970667358221220 0xC1 EXTCODESIZE 0xB3 REVERT PUSH2 0x3A73 SUB SWAP4 XOR EXTCODEHASH DUP3 GASLIMIT 0xB7 PUSH17 0x1A0566A9757B4DB94E9D0D953C98AF8AE PUSH5 0x736F6C6343 STOP ADDMOD DIV STOP CALLER "
		},
		"gasEstimates": {
			"creation": {
				"codeDepositCost": "2252200",
				"executionCost": "infinite",
				"totalCost": "infinite"
			},
			"external": {
				"_buyEcosystemFee()": "1052",
				"_buyLiquidityFee()": "1095",
				"_buyMarketingFee()": "1095",
				"_buyTeamFee()": "1073",
				"_maxWalletAmount()": "1051",
				"_sellEcosystemFee()": "1075",
				"_sellLiquidityFee()": "1052",
				"_sellMarketingFee()": "1117",
				"_sellTeamFee()": "1052",
				"addBot(address)": "23010",
				"allowance(address,address)": "infinite",
				"approve(address,uint256)": "22582",
				"balanceOf(address)": "1331",
				"canBlackList()": "1133",
				"canChangeTax()": "1089",
				"canPause()": "1067",
				"decimals()": "311",
				"disableBlackListing()": "21869",
				"disablePauseAbility()": "21914",
				"disableTaxChange()": "21870",
				"disableToken()": "22748",
				"enableToken()": "21920",
				"excludeFromFee(address)": "22178",
				"includeInFee(address)": "22149",
				"isBot(address)": "1333",
				"manualSendToken(address)": "infinite",
				"manualsend()": "infinite",
				"manualswap()": "infinite",
				"name()": "infinite",
				"numTokensToSwap()": "1031",
				"openTrading(uint256)": "62005",
				"owner()": "1121",
				"removeBot(address)": "22128",
				"renounceOwnership()": "24298",
				"setBuyTaxes(uint256,uint256,uint256,uint256)": "infinite",
				"setMaxWalletAmount(uint256)": "21464",
				"setSellTaxes(uint256,uint256,uint256,uint256)": "infinite",
				"setTransferTransactionMultiplier(uint256)": "21154",
				"symbol()": "infinite",
				"totalSupply()": "316",
				"tradingOpen()": "1120",
				"transfer(address,uint256)": "infinite",
				"transferFeeIncreaseFactor()": "1030",
				"transferFrom(address,address,uint256)": "infinite",
				"transferOwnership(address)": "infinite",
				"uniswapV2Pair()": "1193",
				"updateEcosystemAddress(address)": "22094",
				"updateLpRecipient(address)": "22095",
				"updateMarketingAddress(address)": "22162",
				"updateMaxBuy(uint256)": "21393",
				"updateMaxSell(uint256)": "21459",
				"updateNumTokensToSwap(uint256)": "21131",
				"updateTeamAddress(address)": "22118"
			},
			"internal": {
				"_approve(address,address,uint256)": "infinite",
				"_tokenTransfer(address,address,uint256,bool)": "infinite",
				"_transfer(address,address,uint256)": "infinite",
				"_transferStandard(address,address,uint256)": "infinite",
				"addLiquidity(uint256,uint256)": "infinite",
				"removeAllFee()": "infinite",
				"restoreAllFee()": "infinite",
				"sendETHToFee(uint256)": "infinite",
				"swapAndLiquify(uint256,uint256)": "infinite",
				"swapTokensForEth(uint256)": "infinite"
			}
		},
		"methodIdentifiers": {
			"_buyEcosystemFee()": "2843631d",
			"_buyLiquidityFee()": "dc44b6a0",
			"_buyMarketingFee()": "c5d24189",
			"_buyTeamFee()": "c469b6dd",
			"_maxWalletAmount()": "6c0a24eb",
			"_sellEcosystemFee()": "248dd232",
			"_sellLiquidityFee()": "88790a68",
			"_sellMarketingFee()": "c8607952",
			"_sellTeamFee()": "cab03471",
			"addBot(address)": "ffecf516",
			"allowance(address,address)": "dd62ed3e",
			"approve(address,uint256)": "095ea7b3",
			"balanceOf(address)": "70a08231",
			"canBlackList()": "301ad558",
			"canChangeTax()": "39a53c4e",
			"canPause()": "323be1c5",
			"decimals()": "313ce567",
			"disableBlackListing()": "d55cb78a",
			"disablePauseAbility()": "6aabff3f",
			"disableTaxChange()": "99a7b9bc",
			"disableToken()": "3e0f966d",
			"enableToken()": "8e360253",
			"excludeFromFee(address)": "437823ec",
			"includeInFee(address)": "ea2f0b37",
			"isBot(address)": "3bbac579",
			"manualSendToken(address)": "29409395",
			"manualsend()": "6fc3eaec",
			"manualswap()": "c3c8cd80",
			"name()": "06fdde03",
			"numTokensToSwap()": "01a6c43b",
			"openTrading(uint256)": "d1633649",
			"owner()": "8da5cb5b",
			"removeBot(address)": "5fecd926",
			"renounceOwnership()": "715018a6",
			"setBuyTaxes(uint256,uint256,uint256,uint256)": "e4bf1bed",
			"setMaxWalletAmount(uint256)": "27a14fc2",
			"setSellTaxes(uint256,uint256,uint256,uint256)": "f480fec2",
			"setTransferTransactionMultiplier(uint256)": "a850673d",
			"symbol()": "95d89b41",
			"totalSupply()": "18160ddd",
			"tradingOpen()": "ffb54a99",
			"transfer(address,uint256)": "a9059cbb",
			"transferFeeIncreaseFactor()": "72b2aecc",
			"transferFrom(address,address,uint256)": "23b872dd",
			"transferOwnership(address)": "f2fde38b",
			"uniswapV2Pair()": "49bd5a5e",
			"updateEcosystemAddress(address)": "db0045ec",
			"updateLpRecipient(address)": "cdb3858f",
			"updateMarketingAddress(address)": "2369bf83",
			"updateMaxBuy(uint256)": "58881304",
			"updateMaxSell(uint256)": "9164f9db",
			"updateNumTokensToSwap(uint256)": "e315a6da",
			"updateTeamAddress(address)": "14eb76ac"
		}
	},
	"abi": [
		{
			"inputs": [],
			"stateMutability": "nonpayable",
			"type": "constructor"
		},
		{
			"anonymous": false,
			"inputs": [
				{
					"indexed": true,
					"internalType": "address",
					"name": "owner",
					"type": "address"
				},
				{
					"indexed": true,
					"internalType": "address",
					"name": "spender",
					"type": "address"
				},
				{
					"indexed": false,
					"internalType": "uint256",
					"name": "value",
					"type": "uint256"
				}
			],
			"name": "Approval",
			"type": "event"
		},
		{
			"anonymous": false,
			"inputs": [
				{
					"indexed": false,
					"internalType": "uint256",
					"name": "_buyMarketingFee",
					"type": "uint256"
				},
				{
					"indexed": false,
					"internalType": "uint256",
					"name": "_buyLiquidityFee",
					"type": "uint256"
				},
				{
					"indexed": false,
					"internalType": "uint256",
					"name": "_buyTeamFee",
					"type": "uint256"
				},
				{
					"indexed": false,
					"internalType": "uint256",
					"name": "_buyEcosystemFee",
					"type": "uint256"
				}
			],
			"name": "BuyFeesUpdated",
			"type": "event"
		},
		{
			"anonymous": false,
			"inputs": [
				{
					"indexed": false,
					"internalType": "uint256",
					"name": "_maxTxAmount",
					"type": "uint256"
				}
			],
			"name": "MaxTxAmountUpdated",
			"type": "event"
		},
		{
			"anonymous": false,
			"inputs": [
				{
					"indexed": true,
					"internalType": "address",
					"name": "previousOwner",
					"type": "address"
				},
				{
					"indexed": true,
					"internalType": "address",
					"name": "newOwner",
					"type": "address"
				}
			],
			"name": "OwnershipTransferred",
			"type": "event"
		},
		{
			"anonymous": false,
			"inputs": [
				{
					"indexed": false,
					"internalType": "uint256",
					"name": "_sellMarketingFee",
					"type": "uint256"
				},
				{
					"indexed": false,
					"internalType": "uint256",
					"name": "_sellLiquidityFee",
					"type": "uint256"
				},
				{
					"indexed": false,
					"internalType": "uint256",
					"name": "_sellTeamFee",
					"type": "uint256"
				},
				{
					"indexed": false,
					"internalType": "uint256",
					"name": "_sellEcosystemFee",
					"type": "uint256"
				}
			],
			"name": "SellFeesUpdated",
			"type": "event"
		},
		{
			"anonymous": false,
			"inputs": [
				{
					"indexed": true,
					"internalType": "address",
					"name": "from",
					"type": "address"
				},
				{
					"indexed": true,
					"internalType": "address",
					"name": "to",
					"type": "address"
				},
				{
					"indexed": false,
					"internalType": "uint256",
					"name": "value",
					"type": "uint256"
				}
			],
			"name": "Transfer",
			"type": "event"
		},
		{
			"inputs": [],
			"name": "_buyEcosystemFee",
			"outputs": [
				{
					"internalType": "uint256",
					"name": "",
					"type": "uint256"
				}
			],
			"stateMutability": "view",
			"type": "function"
		},
		{
			"inputs": [],
			"name": "_buyLiquidityFee",
			"outputs": [
				{
					"internalType": "uint256",
					"name": "",
					"type": "uint256"
				}
			],
			"stateMutability": "view",
			"type": "function"
		},
		{
			"inputs": [],
			"name": "_buyMarketingFee",
			"outputs": [
				{
					"internalType": "uint256",
					"name": "",
					"type": "uint256"
				}
			],
			"stateMutability": "view",
			"type": "function"
		},
		{
			"inputs": [],
			"name": "_buyTeamFee",
			"outputs": [
				{
					"internalType": "uint256",
					"name": "",
					"type": "uint256"
				}
			],
			"stateMutability": "view",
			"type": "function"
		},
		{
			"inputs": [],
			"name": "_maxWalletAmount",
			"outputs": [
				{
					"internalType": "uint256",
					"name": "",
					"type": "uint256"
				}
			],
			"stateMutability": "view",
			"type": "function"
		},
		{
			"inputs": [],
			"name": "_sellEcosystemFee",
			"outputs": [
				{
					"internalType": "uint256",
					"name": "",
					"type": "uint256"
				}
			],
			"stateMutability": "view",
			"type": "function"
		},
		{
			"inputs": [],
			"name": "_sellLiquidityFee",
			"outputs": [
				{
					"internalType": "uint256",
					"name": "",
					"type": "uint256"
				}
			],
			"stateMutability": "view",
			"type": "function"
		},
		{
			"inputs": [],
			"name": "_sellMarketingFee",
			"outputs": [
				{
					"internalType": "uint256",
					"name": "",
					"type": "uint256"
				}
			],
			"stateMutability": "view",
			"type": "function"
		},
		{
			"inputs": [],
			"name": "_sellTeamFee",
			"outputs": [
				{
					"internalType": "uint256",
					"name": "",
					"type": "uint256"
				}
			],
			"stateMutability": "view",
			"type": "function"
		},
		{
			"inputs": [
				{
					"internalType": "address",
					"name": "account",
					"type": "address"
				}
			],
			"name": "addBot",
			"outputs": [],
			"stateMutability": "nonpayable",
			"type": "function"
		},
		{
			"inputs": [
				{
					"internalType": "address",
					"name": "owner",
					"type": "address"
				},
				{
					"internalType": "address",
					"name": "spender",
					"type": "address"
				}
			],
			"name": "allowance",
			"outputs": [
				{
					"internalType": "uint256",
					"name": "",
					"type": "uint256"
				}
			],
			"stateMutability": "view",
			"type": "function"
		},
		{
			"inputs": [
				{
					"internalType": "address",
					"name": "spender",
					"type": "address"
				},
				{
					"internalType": "uint256",
					"name": "amount",
					"type": "uint256"
				}
			],
			"name": "approve",
			"outputs": [
				{
					"internalType": "bool",
					"name": "",
					"type": "bool"
				}
			],
			"stateMutability": "nonpayable",
			"type": "function"
		},
		{
			"inputs": [
				{
					"internalType": "address",
					"name": "account",
					"type": "address"
				}
			],
			"name": "balanceOf",
			"outputs": [
				{
					"internalType": "uint256",
					"name": "",
					"type": "uint256"
				}
			],
			"stateMutability": "view",
			"type": "function"
		},
		{
			"inputs": [],
			"name": "canBlackList",
			"outputs": [
				{
					"internalType": "bool",
					"name": "",
					"type": "bool"
				}
			],
			"stateMutability": "view",
			"type": "function"
		},
		{
			"inputs": [],
			"name": "canChangeTax",
			"outputs": [
				{
					"internalType": "bool",
					"name": "",
					"type": "bool"
				}
			],
			"stateMutability": "view",
			"type": "function"
		},
		{
			"inputs": [],
			"name": "canPause",
			"outputs": [
				{
					"internalType": "bool",
					"name": "",
					"type": "bool"
				}
			],
			"stateMutability": "view",
			"type": "function"
		},
		{
			"inputs": [],
			"name": "decimals",
			"outputs": [
				{
					"internalType": "uint8",
					"name": "",
					"type": "uint8"
				}
			],
			"stateMutability": "pure",
			"type": "function"
		},
		{
			"inputs": [],
			"name": "disableBlackListing",
			"outputs": [],
			"stateMutability": "nonpayable",
			"type": "function"
		},
		{
			"inputs": [],
			"name": "disablePauseAbility",
			"outputs": [],
			"stateMutability": "nonpayable",
			"type": "function"
		},
		{
			"inputs": [],
			"name": "disableTaxChange",
			"outputs": [],
			"stateMutability": "nonpayable",
			"type": "function"
		},
		{
			"inputs": [],
			"name": "disableToken",
			"outputs": [],
			"stateMutability": "nonpayable",
			"type": "function"
		},
		{
			"inputs": [],
			"name": "enableToken",
			"outputs": [],
			"stateMutability": "nonpayable",
			"type": "function"
		},
		{
			"inputs": [
				{
					"internalType": "address",
					"name": "account",
					"type": "address"
				}
			],
			"name": "excludeFromFee",
			"outputs": [],
			"stateMutability": "nonpayable",
			"type": "function"
		},
		{
			"inputs": [
				{
					"internalType": "address",
					"name": "account",
					"type": "address"
				}
			],
			"name": "includeInFee",
			"outputs": [],
			"stateMutability": "nonpayable",
			"type": "function"
		},
		{
			"inputs": [
				{
					"internalType": "address",
					"name": "account",
					"type": "address"
				}
			],
			"name": "isBot",
			"outputs": [
				{
					"internalType": "bool",
					"name": "",
					"type": "bool"
				}
			],
			"stateMutability": "view",
			"type": "function"
		},
		{
			"inputs": [
				{
					"internalType": "address",
					"name": "token",
					"type": "address"
				}
			],
			"name": "manualSendToken",
			"outputs": [],
			"stateMutability": "nonpayable",
			"type": "function"
		},
		{
			"inputs": [],
			"name": "manualsend",
			"outputs": [],
			"stateMutability": "nonpayable",
			"type": "function"
		},
		{
			"inputs": [],
			"name": "manualswap",
			"outputs": [],
			"stateMutability": "nonpayable",
			"type": "function"
		},
		{
			"inputs": [],
			"name": "name",
			"outputs": [
				{
					"internalType": "string",
					"name": "",
					"type": "string"
				}
			],
			"stateMutability": "pure",
			"type": "function"
		},
		{
			"inputs": [],
			"name": "numTokensToSwap",
			"outputs": [
				{
					"internalType": "uint256",
					"name": "",
					"type": "uint256"
				}
			],
			"stateMutability": "view",
			"type": "function"
		},
		{
			"inputs": [
				{
					"internalType": "uint256",
					"name": "botBlocks",
					"type": "uint256"
				}
			],
			"name": "openTrading",
			"outputs": [],
			"stateMutability": "nonpayable",
			"type": "function"
		},
		{
			"inputs": [],
			"name": "owner",
			"outputs": [
				{
					"internalType": "address",
					"name": "",
					"type": "address"
				}
			],
			"stateMutability": "view",
			"type": "function"
		},
		{
			"inputs": [
				{
					"internalType": "address",
					"name": "account",
					"type": "address"
				}
			],
			"name": "removeBot",
			"outputs": [],
			"stateMutability": "nonpayable",
			"type": "function"
		},
		{
			"inputs": [],
			"name": "renounceOwnership",
			"outputs": [],
			"stateMutability": "nonpayable",
			"type": "function"
		},
		{
			"inputs": [
				{
					"internalType": "uint256",
					"name": "marketingFee",
					"type": "uint256"
				},
				{
					"internalType": "uint256",
					"name": "liquidityFee",
					"type": "uint256"
				},
				{
					"internalType": "uint256",
					"name": "teamFee",
					"type": "uint256"
				},
				{
					"internalType": "uint256",
					"name": "ecosystemFee",
					"type": "uint256"
				}
			],
			"name": "setBuyTaxes",
			"outputs": [],
			"stateMutability": "nonpayable",
			"type": "function"
		},
		{
			"inputs": [
				{
					"internalType": "uint256",
					"name": "maxWalletAmount",
					"type": "uint256"
				}
			],
			"name": "setMaxWalletAmount",
			"outputs": [],
			"stateMutability": "nonpayable",
			"type": "function"
		},
		{
			"inputs": [
				{
					"internalType": "uint256",
					"name": "marketingFee",
					"type": "uint256"
				},
				{
					"internalType": "uint256",
					"name": "liquidityFee",
					"type": "uint256"
				},
				{
					"internalType": "uint256",
					"name": "teamFee",
					"type": "uint256"
				},
				{
					"internalType": "uint256",
					"name": "ecosystemFee",
					"type": "uint256"
				}
			],
			"name": "setSellTaxes",
			"outputs": [],
			"stateMutability": "nonpayable",
			"type": "function"
		},
		{
			"inputs": [
				{
					"internalType": "uint256",
					"name": "_multiplier",
					"type": "uint256"
				}
			],
			"name": "setTransferTransactionMultiplier",
			"outputs": [],
			"stateMutability": "nonpayable",
			"type": "function"
		},
		{
			"inputs": [],
			"name": "symbol",
			"outputs": [
				{
					"internalType": "string",
					"name": "",
					"type": "string"
				}
			],
			"stateMutability": "pure",
			"type": "function"
		},
		{
			"inputs": [],
			"name": "totalSupply",
			"outputs": [
				{
					"internalType": "uint256",
					"name": "",
					"type": "uint256"
				}
			],
			"stateMutability": "pure",
			"type": "function"
		},
		{
			"inputs": [],
			"name": "tradingOpen",
			"outputs": [
				{
					"internalType": "bool",
					"name": "",
					"type": "bool"
				}
			],
			"stateMutability": "view",
			"type": "function"
		},
		{
			"inputs": [
				{
					"internalType": "address",
					"name": "recipient",
					"type": "address"
				},
				{
					"internalType": "uint256",
					"name": "amount",
					"type": "uint256"
				}
			],
			"name": "transfer",
			"outputs": [
				{
					"internalType": "bool",
					"name": "",
					"type": "bool"
				}
			],
			"stateMutability": "nonpayable",
			"type": "function"
		},
		{
			"inputs": [],
			"name": "transferFeeIncreaseFactor",
			"outputs": [
				{
					"internalType": "uint256",
					"name": "",
					"type": "uint256"
				}
			],
			"stateMutability": "view",
			"type": "function"
		},
		{
			"inputs": [
				{
					"internalType": "address",
					"name": "sender",
					"type": "address"
				},
				{
					"internalType": "address",
					"name": "recipient",
					"type": "address"
				},
				{
					"internalType": "uint256",
					"name": "amount",
					"type": "uint256"
				}
			],
			"name": "transferFrom",
			"outputs": [
				{
					"internalType": "bool",
					"name": "",
					"type": "bool"
				}
			],
			"stateMutability": "nonpayable",
			"type": "function"
		},
		{
			"inputs": [
				{
					"internalType": "address",
					"name": "newOwner",
					"type": "address"
				}
			],
			"name": "transferOwnership",
			"outputs": [],
			"stateMutability": "nonpayable",
			"type": "function"
		},
		{
			"inputs": [],
			"name": "uniswapV2Pair",
			"outputs": [
				{
					"internalType": "address",
					"name": "",
					"type": "address"
				}
			],
			"stateMutability": "view",
			"type": "function"
		},
		{
			"inputs": [
				{
					"internalType": "address payable",
					"name": "ecosystemAddress",
					"type": "address"
				}
			],
			"name": "updateEcosystemAddress",
			"outputs": [],
			"stateMutability": "nonpayable",
			"type": "function"
		},
		{
			"inputs": [
				{
					"internalType": "address payable",
					"name": "lpRecipient",
					"type": "address"
				}
			],
			"name": "updateLpRecipient",
			"outputs": [],
			"stateMutability": "nonpayable",
			"type": "function"
		},
		{
			"inputs": [
				{
					"internalType": "address payable",
					"name": "marketingAddress",
					"type": "address"
				}
			],
			"name": "updateMarketingAddress",
			"outputs": [],
			"stateMutability": "nonpayable",
			"type": "function"
		},
		{
			"inputs": [
				{
					"internalType": "uint256",
					"name": "maxBuy",
					"type": "uint256"
				}
			],
			"name": "updateMaxBuy",
			"outputs": [],
			"stateMutability": "nonpayable",
			"type": "function"
		},
		{
			"inputs": [
				{
					"internalType": "uint256",
					"name": "maxSell",
					"type": "uint256"
				}
			],
			"name": "updateMaxSell",
			"outputs": [],
			"stateMutability": "nonpayable",
			"type": "function"
		},
		{
			"inputs": [
				{
					"internalType": "uint256",
					"name": "numTokens",
					"type": "uint256"
				}
			],
			"name": "updateNumTokensToSwap",
			"outputs": [],
			"stateMutability": "nonpayable",
			"type": "function"
		},
		{
			"inputs": [
				{
					"internalType": "address payable",
					"name": "teamAddress",
					"type": "address"
				}
			],
			"name": "updateTeamAddress",
			"outputs": [],
			"stateMutability": "nonpayable",
			"type": "function"
		},
		{
			"stateMutability": "payable",
			"type": "receive"
		}
	]
}