{
	"data": {
		"bytecode": {
			"linkReferences": {},
			"object": "6080604052662386f2ab5bca0060075566038d7ea4c680006008556000600955600954600a556000600b55600b54600c556000600d55600d54600e556000600f55600f5460105560006011556011546012556000601355601354601455600060155560155460165560006017556017546018556000601955620000876200041d60201b60201c565b602180546001600160a01b03199081166001600160a01b039384161790915560005460228054919093169082168117909255602380548216831790556024805490911690911790556028805464ffffffffff1916640101010000179055348015620000f157600080fd5b50600080546001600160a01b031916339081178255604051909182917f8be0079c531659141344cd1fd0a4f28419497f9722a3daafe3b4186f6b6457e0908290a350602580546001600160a01b0319167310ed43c718714eb63d5aa57b78b54704e256024e908117909155620001713082670de0b6b3a76400006200042c565b806001600160a01b031663c45a01556040518163ffffffff1660e01b815260040160206040518083038186803b158015620001ab57600080fd5b505afa158015620001c0573d6000803e3d6000fd5b505050506040513d601f19601f82011682018060405250810190620001e6919062000558565b6001600160a01b031663c9c6539630836001600160a01b031663ad5c46486040518163ffffffff1660e01b815260040160206040518083038186803b1580156200022f57600080fd5b505afa15801562000244573d6000803e3d6000fd5b505050506040513d601f19601f820116820180604052508101906200026a919062000558565b6040516001600160e01b031960e085901b1681526001600160a01b03928316600482015291166024820152604401602060405180830381600087803b158015620002b357600080fd5b505af1158015620002c8573d6000803e3d6000fd5b505050506040513d601f19601f82011682018060405250810190620002ee919062000558565b602680546001600160a01b0319166001600160a01b0392831690811790915560255460405163095ea7b360e01b81529216600483015260001960248301529063095ea7b390604401602060405180830381600087803b1580156200035157600080fd5b505af115801562000366573d6000803e3d6000fd5b505050506040513d601f19601f820116820180604052508101906200038c919062000588565b50670de0b6b3a7640000602781905533600081815260026020908152604080832085905582546001600160a01b03168352600482528083208054600160ff1991821681179092553085528285208054909116909117905551938452919290917fddf252ad1be2c89b69c2b068fc378daa952ba7f163c4a11628f55a4df523b3ef910160405180910390a350620005aa565b6000546001600160a01b031690565b6001600160a01b038316620004945760405162461bcd60e51b8152602060048201526024808201527f45524332303a20617070726f76652066726f6d20746865207a65726f206164646044820152637265737360e01b60648201526084015b60405180910390fd5b6001600160a01b038216620004f75760405162461bcd60e51b815260206004820152602260248201527f45524332303a20617070726f766520746f20746865207a65726f206164647265604482015261737360f01b60648201526084016200048b565b6001600160a01b0383811660008181526003602090815260408083209487168084529482529182902085905590518481527f8c5be1e5ebec7d5bd14f71427d1e84f3dd0314c0f7b2291e5b200ac8c7c3b925910160405180910390a3505050565b6000602082840312156200056a578081fd5b81516001600160a01b038116811462000581578182fd5b9392505050565b6000602082840312156200059a578081fd5b8151801515811462000581578182fd5b613c8980620005ba6000396000f3fe6080604052600436106103855760003560e01c806388790a68116101d1578063cab0347111610102578063e315a6da116100a0578063f480fec21161006f578063f480fec214610adb578063fe0bb98214610afb578063ffb54a9914610b1b578063ffecf51614610b3557600080fd5b8063e315a6da14610a5b578063e4bf1bed14610a7b578063ea2f0b3714610a9b578063f2fde38b14610abb57600080fd5b8063d55cb78a116100dc578063d55cb78a146109ca578063db0045ec146109df578063dc44b6a0146109ff578063dd62ed3e14610a1557600080fd5b8063cab0347114610974578063cdb3858f1461098a578063d1633649146109aa57600080fd5b8063a850673d1161016f578063c469b6dd11610149578063c469b6dd146108cd578063c5d24189146108e3578063c8607952146108f9578063c95457ff1461090f57600080fd5b8063a850673d14610878578063a9059cbb14610898578063c3c8cd80146108b857600080fd5b80639491f94d116101ab5780639491f94d146107c857806395d89b41146107dd57806399a7b9bc146108235780639d82190f1461083857600080fd5b806388790a681461077f5780638da5cb5b146107955780638e360253146107b357600080fd5b806339a53c4e116102b65780636c0a24eb11610254578063729cb3f211610223578063729cb3f2146106f157806372b2aecc14610711578063787a08a61461072757806380670f3c1461076a57600080fd5b80636c0a24eb1461067b5780636fc3eaec1461069157806370a08231146106a6578063715018a6146106dc57600080fd5b8063437823ec11610290578063437823ec146105ee57806349bd5a5e1461060e5780635fecd926146106465780636aabff3f1461066657600080fd5b806339a53c4e1461057f5780633bbac579146105a15780633e0f966d146105d957600080fd5b8063248dd2321161032357806329409395116102fd5780632940939514610502578063301ad55814610522578063313ce56714610543578063323be1c51461055f57600080fd5b8063248dd232146104b657806327a14fc2146104cc5780632843631d146104ec57600080fd5b806314eb76ac1161035f57806314eb76ac1461043957806318160ddd1461045b5780632369bf831461047657806323b872dd1461049657600080fd5b806301a6c43b1461039157806306fdde03146103ba578063095ea7b31461040957600080fd5b3661038c57005b600080fd5b34801561039d57600080fd5b506103a760085481565b6040519081526020015b60405180910390f35b3480156103c657600080fd5b5060408051808201909152600981527f4761696e5a696c6c61000000000000000000000000000000000000000000000060208201525b6040516103b191906139c1565b34801561041557600080fd5b50610429610424366004613846565b610b55565b60405190151581526020016103b1565b34801561044557600080fd5b50610459610454366004613796565b610b6c565b005b34801561046757600080fd5b50670de0b6b3a76400006103a7565b34801561048257600080fd5b50610459610491366004613796565b610c05565b3480156104a257600080fd5b506104296104b1366004613806565b610c99565b3480156104c257600080fd5b506103a760135481565b3480156104d857600080fd5b506104596104e7366004613933565b610d02565b3480156104f857600080fd5b506103a7600b5481565b34801561050e57600080fd5b5061045961051d366004613796565b610e68565b34801561052e57600080fd5b50602854610429906301000000900460ff1681565b34801561054f57600080fd5b50604051600981526020016103b1565b34801561056b57600080fd5b506028546104299062010000900460ff1681565b34801561058b57600080fd5b5060285461042990640100000000900460ff1681565b3480156105ad57600080fd5b506104296105bc366004613796565b6001600160a01b0316600090815260208052604090205460ff1690565b3480156105e557600080fd5b50610459611015565b3480156105fa57600080fd5b50610459610609366004613796565b6110d3565b34801561061a57600080fd5b5060265461062e906001600160a01b031681565b6040516001600160a01b0390911681526020016103b1565b34801561065257600080fd5b50610459610661366004613796565b611151565b34801561067257600080fd5b506104596111cb565b34801561068757600080fd5b506103a760075481565b34801561069d57600080fd5b5061045961124f565b3480156106b257600080fd5b506103a76106c1366004613796565b6001600160a01b031660009081526002602052604090205490565b3480156106e857600080fd5b506104596112ee565b3480156106fd57600080fd5b5061045961070c3660046138c0565b6113aa565b34801561071d57600080fd5b506103a760195481565b34801561073357600080fd5b50601a5461074e9060ff811690610100900463ffffffff1682565b60408051921515835263ffffffff9091166020830152016103b1565b34801561077657600080fd5b506103a761145c565b34801561078b57600080fd5b506103a760115481565b3480156107a157600080fd5b506000546001600160a01b031661062e565b3480156107bf57600080fd5b506104596114d0565b3480156107d457600080fd5b506103a7611539565b3480156107e957600080fd5b5060408051808201909152600481527f524157520000000000000000000000000000000000000000000000000000000060208201526103fc565b34801561082f57600080fd5b50610459611707565b34801561084457600080fd5b50610858610853366004613796565b61178b565b6040805194855260208501939093529183015260608201526080016103b1565b34801561088457600080fd5b50610459610893366004613933565b61183a565b3480156108a457600080fd5b506104296108b3366004613846565b611899565b3480156108c457600080fd5b506104596118a6565b3480156108d957600080fd5b506103a7600f5481565b3480156108ef57600080fd5b506103a7600d5481565b34801561090557600080fd5b506103a760155481565b34801561091b57600080fd5b50601c54601d54601e54601f546109459360ff8082169461010090920461ffff1693919291169085565b60408051951515865261ffff90941660208601529284019190915215156060830152608082015260a0016103b1565b34801561098057600080fd5b506103a760175481565b34801561099657600080fd5b506104596109a5366004613796565b61191f565b3480156109b657600080fd5b506104596109c5366004613933565b6119b3565b3480156109d657600080fd5b50610459611a23565b3480156109eb57600080fd5b506104596109fa366004613796565b611aa7565b348015610a0b57600080fd5b506103a760095481565b348015610a2157600080fd5b506103a7610a303660046137ce565b6001600160a01b03918216600090815260036020908152604080832093909416825291909152205490565b348015610a6757600080fd5b50610459610a76366004613933565b611b3b565b348015610a8757600080fd5b50610459610a96366004613990565b611b9a565b348015610aa757600080fd5b50610459610ab6366004613796565b611d57565b348015610ac757600080fd5b50610459610ad6366004613796565b611dd2565b348015610ae757600080fd5b50610459610af6366004613990565b611eb1565b348015610b0757600080fd5b50610459610b1636600461388d565b61205d565b348015610b2757600080fd5b506028546104299060ff1681565b348015610b4157600080fd5b50610459610b50366004613796565b6121b9565b6000610b623384846122b5565b5060015b92915050565b6000546001600160a01b03163314610bcb5760405162461bcd60e51b815260206004820181905260248201527f4f776e61626c653a2063616c6c6572206973206e6f7420746865206f776e657260448201526064015b60405180910390fd5b602280547fffffffffffffffffffffffff0000000000000000000000000000000000000000166001600160a01b0392909216919091179055565b6000546001600160a01b03163314610c5f5760405162461bcd60e51b815260206004820181905260248201527f4f776e61626c653a2063616c6c6572206973206e6f7420746865206f776e65726044820152606401610bc2565b602180547fffffffffffffffffffffffff0000000000000000000000000000000000000000166001600160a01b0392909216919091179055565b6000610ca684848461240d565b610cf88433610cf385604051806060016040528060288152602001613c2c602891396001600160a01b038a1660009081526003602090815260408083203384529091529020549190612b42565b6122b5565b5060019392505050565b6000546001600160a01b03163314610d5c5760405162461bcd60e51b815260206004820181905260248201527f4f776e61626c653a2063616c6c6572206973206e6f7420746865206f776e65726044820152606401610bc2565b610d70670de0b6b3a76400006103e8612b7c565b811015610de55760405162461bcd60e51b815260206004820152602a60248201527f416d6f756e74206d7573742062652067726561746572207468616e20302e312560448201527f206f6620737570706c79000000000000000000000000000000000000000000006064820152608401610bc2565b670de0b6b3a7640000811115610e635760405162461bcd60e51b815260206004820152603060248201527f416d6f756e74206d757374206265206c657373207468616e206f72206571756160448201527f6c20746f20746f74616c537570706c79000000000000000000000000000000006064820152608401610bc2565b600755565b6000546001600160a01b03163314610ec25760405162461bcd60e51b815260206004820181905260248201527f4f776e61626c653a2063616c6c6572206973206e6f7420746865206f776e65726044820152606401610bc2565b6040517f70a082310000000000000000000000000000000000000000000000000000000081523060048201526000906001600160a01b038316906370a082319060240160206040518083038186803b158015610f1d57600080fd5b505afa158015610f31573d6000803e3d6000fd5b505050506040513d601f19601f82011682018060405250810190610f55919061394b565b9050816001600160a01b031663a9059cbb610f786000546001600160a01b031690565b6040517fffffffff0000000000000000000000000000000000000000000000000000000060e084901b1681526001600160a01b03909116600482015260248101849052604401602060405180830381600087803b158015610fd857600080fd5b505af1158015610fec573d6000803e3d6000fd5b505050506040513d601f19601f820116820180604052508101906110109190613871565b505050565b6000546001600160a01b0316331461106f5760405162461bcd60e51b815260206004820181905260248201527f4f776e61626c653a2063616c6c6572206973206e6f7420746865206f776e65726044820152606401610bc2565b60285462010000900460ff166110c75760405162461bcd60e51b815260206004820152601e60248201527f7468697320636f6e74726163742063616e6e6f742062652070617573656400006044820152606401610bc2565b6028805460ff19169055565b6000546001600160a01b0316331461112d5760405162461bcd60e51b815260206004820181905260248201527f4f776e61626c653a2063616c6c6572206973206e6f7420746865206f776e65726044820152606401610bc2565b6001600160a01b03166000908152600460205260409020805460ff19166001179055565b6000546001600160a01b031633146111ab5760405162461bcd60e51b815260206004820181905260248201527f4f776e61626c653a2063616c6c6572206973206e6f7420746865206f776e65726044820152606401610bc2565b6001600160a01b031660009081526020805260409020805460ff19169055565b6000546001600160a01b031633146112255760405162461bcd60e51b815260206004820181905260248201527f4f776e61626c653a2063616c6c6572206973206e6f7420746865206f776e65726044820152606401610bc2565b602880547fffffffffffffffffffffffffffffffffffffffffffffffffffffffffff00ffff169055565b6000546001600160a01b031633146112a95760405162461bcd60e51b815260206004820181905260248201527f4f776e61626c653a2063616c6c6572206973206e6f7420746865206f776e65726044820152606401610bc2565b4780156112eb57600080546040516001600160a01b039091169183156108fc02918491818181858888f193505050501580156112e9573d6000803e3d6000fd5b505b50565b6000546001600160a01b031633146113485760405162461bcd60e51b815260206004820181905260248201527f4f776e61626c653a2063616c6c6572206973206e6f7420746865206f776e65726044820152606401610bc2565b600080546040516001600160a01b03909116907f8be0079c531659141344cd1fd0a4f28419497f9722a3daafe3b4186f6b6457e0908390a3600080547fffffffffffffffffffffffff0000000000000000000000000000000000000000169055565b6000546001600160a01b031633146114045760405162461bcd60e51b815260206004820181905260248201527f4f776e61626c653a2063616c6c6572206973206e6f7420746865206f776e65726044820152606401610bc2565b601a805460ff191683151517905561141d81603c613b0b565b601a805463ffffffff92909216610100027fffffffffffffffffffffffffffffffffffffffffffffffffffffff00000000ff9092169190911790555050565b601d5460009061146c5750600090565b6000611476611539565b601d5490915081116114b357601d546114a59061149f6103e86114998386612bc5565b90612c07565b90612b7c565b6114ae90613b62565b6114ca565b601d546114ca9061149f6103e86114998584612bc5565b91505090565b6000546001600160a01b0316331461152a5760405162461bcd60e51b815260206004820181905260248201527f4f776e61626c653a2063616c6c6572206973206e6f7420746865206f776e65726044820152606401610bc2565b6028805460ff19166001179055565b6000806000602660009054906101000a90046001600160a01b03166001600160a01b0316630902f1ac6040518163ffffffff1660e01b815260040160606040518083038186803b15801561158c57600080fd5b505afa1580156115a0573d6000803e3d6000fd5b505050506040513d601f19601f820116820180604052508101906115c491906138ed565b5091509150816dffffffffffffffffffffffffffff16600014806115f657506dffffffffffffffffffffffffffff8116155b156116045760009250505090565b602654604080517f0dfe1681000000000000000000000000000000000000000000000000000000008152905130926001600160a01b031691630dfe1681916004808301926020929190829003018186803b15801561166157600080fd5b505afa158015611675573d6000803e3d6000fd5b505050506040513d601f19601f8201168201806040525081019061169991906137b2565b6001600160a01b0316146116d6576116d16dffffffffffffffffffffffffffff8083169061149f908516670de0b6b3a7640000612c07565b611700565b6117006dffffffffffffffffffffffffffff8084169061149f908416670de0b6b3a7640000612c07565b9250505090565b6000546001600160a01b031633146117615760405162461bcd60e51b815260206004820181905260248201527f4f776e61626c653a2063616c6c6572206973206e6f7420746865206f776e65726044820152606401610bc2565b602880547fffffffffffffffffffffffffffffffffffffffffffffffffffffff00ffffffff169055565b6001600160a01b0381166000908152601b6020526040812054819081908190819042106117b95760006117dc565b6001600160a01b0386166000908152601b60205260409020546117dc9042612bc5565b90506117eb8162015180612b7c565b94506117fa6201518082613b4e565b905061180881610e10612b7c565b9350611816610e1082613b4e565b905061182381603c612b7c565b9250611830603c82613b4e565b9150509193509193565b6000546001600160a01b031633146118945760405162461bcd60e51b815260206004820181905260248201527f4f776e61626c653a2063616c6c6572206973206e6f7420746865206f776e65726044820152606401610bc2565b601955565b6000610b6233848461240d565b6000546001600160a01b031633146119005760405162461bcd60e51b815260206004820181905260248201527f4f776e61626c653a2063616c6c6572206973206e6f7420746865206f776e65726044820152606401610bc2565b3060009081526002602052604090205480156112eb576112eb81612ca2565b6000546001600160a01b031633146119795760405162461bcd60e51b815260206004820181905260248201527f4f776e61626c653a2063616c6c6572206973206e6f7420746865206f776e65726044820152606401610bc2565b602480547fffffffffffffffffffffffff0000000000000000000000000000000000000000166001600160a01b0392909216919091179055565b6000546001600160a01b03163314611a0d5760405162461bcd60e51b815260206004820181905260248201527f4f776e61626c653a2063616c6c6572206973206e6f7420746865206f776e65726044820152606401610bc2565b426005556006556028805460ff19166001179055565b6000546001600160a01b03163314611a7d5760405162461bcd60e51b815260206004820181905260248201527f4f776e61626c653a2063616c6c6572206973206e6f7420746865206f776e65726044820152606401610bc2565b602880547fffffffffffffffffffffffffffffffffffffffffffffffffffffffff00ffffff169055565b6000546001600160a01b03163314611b015760405162461bcd60e51b815260206004820181905260248201527f4f776e61626c653a2063616c6c6572206973206e6f7420746865206f776e65726044820152606401610bc2565b602380547fffffffffffffffffffffffff0000000000000000000000000000000000000000166001600160a01b0392909216919091179055565b6000546001600160a01b03163314611b955760405162461bcd60e51b815260206004820181905260248201527f4f776e61626c653a2063616c6c6572206973206e6f7420746865206f776e65726044820152606401610bc2565b600855565b6000546001600160a01b03163314611bf45760405162461bcd60e51b815260206004820181905260248201527f4f776e61626c653a2063616c6c6572206973206e6f7420746865206f776e65726044820152606401610bc2565b6000611c0c82611c0685818989612edf565b90612edf565b905060fa811115611c855760405162461bcd60e51b815260206004820152603160248201527f53756d206f66206275792066656573206d757374206265206c6573732074686160448201527f6e206f7220657175616c20746f203235250000000000000000000000000000006064820152608401610bc2565b602854640100000000900460ff16611cdf5760405162461bcd60e51b815260206004820152601860248201527f546869732066756e6374696f6e20697320646961626c656400000000000000006044820152606401610bc2565b600d8590556009849055600f839055600b829055600e859055600a8490556010839055600c8290556040805186815260208101869052908101849052606081018390527f892b2caa2d791bf7b8d9a49c4db7a4513ff1ae2e0e068ed217f9d5ab4c1a28f0906080015b60405180910390a15050505050565b6000546001600160a01b03163314611db15760405162461bcd60e51b815260206004820181905260248201527f4f776e61626c653a2063616c6c6572206973206e6f7420746865206f776e65726044820152606401610bc2565b6001600160a01b03166000908152600460205260409020805460ff19169055565b6000546001600160a01b03163314611e2c5760405162461bcd60e51b815260206004820181905260248201527f4f776e61626c653a2063616c6c6572206973206e6f7420746865206f776e65726044820152606401610bc2565b6001600160a01b038116611ea85760405162461bcd60e51b815260206004820152602660248201527f4f776e61626c653a206e6577206f776e657220697320746865207a65726f206160448201527f64647265737300000000000000000000000000000000000000000000000000006064820152608401610bc2565b6112eb81612f3e565b6000546001600160a01b03163314611f0b5760405162461bcd60e51b815260206004820181905260248201527f4f776e61626c653a2063616c6c6572206973206e6f7420746865206f776e65726044820152606401610bc2565b6000611f1d82611c0685818989612edf565b905060fa811115611f965760405162461bcd60e51b815260206004820152603260248201527f53756d206f662073656c6c2066656573206d757374206265206c65737320746860448201527f616e206f7220657175616c20746f2032352500000000000000000000000000006064820152608401610bc2565b602854640100000000900460ff16611ff05760405162461bcd60e51b815260206004820152601860248201527f546869732066756e6374696f6e20697320646961626c656400000000000000006044820152606401610bc2565b601585905560118490556017839055601382905560168590556012849055601883905560148290556040805186815260208101869052908101849052606081018390527f439932620c72dddea29980c098bca1a482729646d1216b226d723c6d278a30d190608001611d48565b6000546001600160a01b031633146120b75760405162461bcd60e51b815260206004820181905260248201527f4f776e61626c653a2063616c6c6572206973206e6f7420746865206f776e65726044820152606401610bc2565b6103e88161ffff16106121325760405162461bcd60e51b815260206004820152602860248201527f547269676765722070657263656e74616765206d757374206265203c2031303060448201527f30202831303025290000000000000000000000000000000000000000000000006064820152608401610bc2565b601c80547fffffffffffffffffffffffffffffffffffffffffffffffffffffffffff00000016831580157fffffffffffffffffffffffffffffffffffffffffffffffffffffffffff0000ff169190911761010061ffff85160217909155829061219b5750601d54155b156112e95760006121aa611539565b9050801561101057601d555050565b6000546001600160a01b031633146122135760405162461bcd60e51b815260206004820181905260248201527f4f776e61626c653a2063616c6c6572206973206e6f7420746865206f776e65726044820152606401610bc2565b6028546301000000900460ff166122925760405162461bcd60e51b815260206004820152602860248201527f7468697320636f6e74726163742063616e6e6f7420626c61636b6c697374206160448201527f64647265737365730000000000000000000000000000000000000000000000006064820152608401610bc2565b6001600160a01b031660009081526020805260409020805460ff19166001179055565b6001600160a01b0383166123305760405162461bcd60e51b8152602060048201526024808201527f45524332303a20617070726f76652066726f6d20746865207a65726f2061646460448201527f72657373000000000000000000000000000000000000000000000000000000006064820152608401610bc2565b6001600160a01b0382166123ac5760405162461bcd60e51b815260206004820152602260248201527f45524332303a20617070726f766520746f20746865207a65726f20616464726560448201527f73730000000000000000000000000000000000000000000000000000000000006064820152608401610bc2565b6001600160a01b0383811660008181526003602090815260408083209487168084529482529182902085905590518481527f8c5be1e5ebec7d5bd14f71427d1e84f3dd0314c0f7b2291e5b200ac8c7c3b925910160405180910390a3505050565b6001600160a01b0383166124895760405162461bcd60e51b815260206004820152602560248201527f45524332303a207472616e736665722066726f6d20746865207a65726f20616460448201527f64726573730000000000000000000000000000000000000000000000000000006064820152608401610bc2565b6001600160a01b0382166125055760405162461bcd60e51b815260206004820152602360248201527f45524332303a207472616e7366657220746f20746865207a65726f206164647260448201527f65737300000000000000000000000000000000000000000000000000000000006064820152608401610bc2565b6000811161257b5760405162461bcd60e51b815260206004820152602960248201527f5472616e7366657220616d6f756e74206d75737420626520677265617465722060448201527f7468616e207a65726f00000000000000000000000000000000000000000000006064820152608401610bc2565b600161258f6000546001600160a01b031690565b6001600160a01b0316846001600160a01b0316141580156125be57506000546001600160a01b03848116911614155b80156125d357506001600160a01b0384163014155b80156125e857506001600160a01b0383163014155b15612ae85760285460ff1661263f5760405162461bcd60e51b815260206004820152601560248201527f54726164696e67206973206e6f742061637469766500000000000000000000006044820152606401610bc2565b6026546001600160a01b03858116911614801561266a57506025546001600160a01b03848116911614155b156127875760065460055461267e91612edf565b42116126a7576001600160a01b03831660009081526020805260409020805460ff191660011790555b6001600160a01b03831660009081526004602052604090205460ff16612787576007546126ed83611c06866001600160a01b031660009081526002602052604090205490565b11156127875760405162461bcd60e51b815260206004820152604260248201527f2e77616c6c65742062616c616e6365206166746572207472616e73666572206d60448201527f757374206265206c657373207468616e206d61782077616c6c657420616d6f7560648201527f6e74000000000000000000000000000000000000000000000000000000000000608482015260a401610bc2565b602854610100900460ff161580156127ad57506026546001600160a01b03858116911614155b80156127c657506026546001600160a01b038481169116145b156129d7576001600160a01b038416600090815260208052604090205460ff1615801561280b57506001600160a01b038316600090815260208052604090205460ff16155b61281457600080fd5b601a5460ff16156128b9576001600160a01b0384166000908152601b60205260409020544210156128875760405162461bcd60e51b815260206004820152601c60248201527f5374726f6e672048616e64732050726f746f636f6c20616374697665000000006044820152606401610bc2565b601a5461289f90610100900463ffffffff1642613aa2565b6001600160a01b0385166000908152601b60205260409020555b601c5460ff161561291f57601e5460ff16156129175760405162461bcd60e51b815260206004820152601e60248201527f53656c6c732073746f70706564206279204469616d6f6e6420466c6f6f7200006044820152606401610bc2565b61291f612fa6565b3060009081526002602052604090205460085481106129d55780156129c3576000612963601154611c06601354611c06601754601554612edf90919063ffffffff16565b11156129c357600061299e612991601154611c06601354611c06601754601554612edf90919063ffffffff16565b60115461149f9085612c07565b905060008183106129b6576129b38383612bc5565b90505b6129c08282613055565b50505b4780156129d3576129d3476130e5565b505b505b6026546001600160a01b03858116911614801590612a0357506026546001600160a01b03848116911614155b15612ae8576001600160a01b03831660009081526004602052604090205460ff16612ae857600754612a4e83611c06866001600160a01b031660009081526002602052604090205490565b1115612ae85760405162461bcd60e51b815260206004820152604260248201527f2e77616c6c65742062616c616e6365206166746572207472616e73666572206d60448201527f757374206265206c657373207468616e206d61782077616c6c657420616d6f7560648201527f6e74000000000000000000000000000000000000000000000000000000000000608482015260a401610bc2565b6001600160a01b03841660009081526004602052604090205460ff1680612b2757506001600160a01b03831660009081526004602052604090205460ff165b15612b30575060005b612b3c84848484613225565b50505050565b60008184841115612b665760405162461bcd60e51b8152600401610bc291906139c1565b506000612b738486613b37565b95945050505050565b6000612bbe83836040518060400160405280601a81526020017f536166654d6174683a206469766973696f6e206279207a65726f0000000000008152506132c3565b9392505050565b6000612bbe83836040518060400160405280601e81526020017f536166654d6174683a207375627472616374696f6e206f766572666c6f770000815250612b42565b600082612c1657506000610b66565b6000612c228385613ace565b905082612c2f8583613aba565b14612bbe5760405162461bcd60e51b815260206004820152602160248201527f536166654d6174683a206d756c7469706c69636174696f6e206f766572666c6f60448201527f77000000000000000000000000000000000000000000000000000000000000006064820152608401610bc2565b602880547fffffffffffffffffffffffffffffffffffffffffffffffffffffffffffff00ff166101001790556040805160028082526060820183526000926020830190803683370190505090503081600081518110612d2a577f4e487b7100000000000000000000000000000000000000000000000000000000600052603260045260246000fd5b6001600160a01b03928316602091820292909201810191909152602554604080517fad5c46480000000000000000000000000000000000000000000000000000000081529051919093169263ad5c4648926004808301939192829003018186803b158015612d9757600080fd5b505afa158015612dab573d6000803e3d6000fd5b505050506040513d601f19601f82011682018060405250810190612dcf91906137b2565b81600181518110612e09577f4e487b7100000000000000000000000000000000000000000000000000000000600052603260045260246000fd5b6001600160a01b039283166020918202929092010152602554612e2f91309116846122b5565b6025546040517f791ac9470000000000000000000000000000000000000000000000000000000081526001600160a01b039091169063791ac94790612e81908590600090869030904290600401613a32565b600060405180830381600087803b158015612e9b57600080fd5b505af1158015612eaf573d6000803e3d6000fd5b5050602880547fffffffffffffffffffffffffffffffffffffffffffffffffffffffffffff00ff16905550505050565b600080612eec8385613aa2565b905083811015612bbe5760405162461bcd60e51b815260206004820152601b60248201527f536166654d6174683a206164646974696f6e206f766572666c6f7700000000006044820152606401610bc2565b600080546001600160a01b038381167fffffffffffffffffffffffff0000000000000000000000000000000000000000831681178455604051919092169283917f8be0079c531659141344cd1fd0a4f28419497f9722a3daafe3b4186f6b6457e09190a35050565b6000612fb0611539565b905080612fba5750565b601d54811115612fd357601d55601e805460ff19169055565b601c54601d54600091613003916103e89161149f9161010090910461ffff1690612ffd9084612c07565b90612bc5565b90508082101561302157601e805460ff19166001179055601d54601f555b601e5460ff1680156130405750601f5461303c906002612c07565b8210155b156112e95750601e805460ff19169055601d55565b602880547fffffffffffffffffffffffffffffffffffffffffffffffffffffffffffff00ff16610100179055600061308e836002612b7c565b9050600061309c8483612bc5565b9050476130b16130ac8585612edf565b612ca2565b60006130bd4783612bc5565b90508215612eaf57612eaf836130e06130d68888612edf565b61149f8589612c07565b6132f1565b6000613104601754611c06601354601554612edf90919063ffffffff16565b905080156112e95760006131278261149f60155486612c0790919063ffffffff16565b905060006131448361149f60175487612c0790919063ffffffff16565b9050600061315682612ffd8786612bc5565b9050821561319a576021546040516001600160a01b039091169084156108fc029085906000818181858888f19350505050158015613198573d6000803e3d6000fd5b505b81156131dc576022546040516001600160a01b039091169083156108fc029084906000818181858888f193505050501580156131da573d6000803e3d6000fd5b505b801561321e576023546040516001600160a01b039091169082156108fc029083906000818181858888f1935050505015801561321c573d6000803e3d6000fd5b505b5050505050565b8061328357613283600d8054600e5560098054600a55600f8054601055600b8054600c556000938490559183905582905581905560158054601655601180546012556017805460185560138054601455928490559083905582905555565b61328e8484846133c7565b612b3c600e54600d55600a54600955601054600f55600c54600b55601654601555601254601155601854601755601454601355565b600081836132e45760405162461bcd60e51b8152600401610bc291906139c1565b506000612b738486613aba565b6025546133099030906001600160a01b0316846122b5565b602554602480546040517ff305d71900000000000000000000000000000000000000000000000000000000815230600482015291820185905260006044830181905260648301526001600160a01b0390811660848301524260a48301529091169063f305d71990839060c4016060604051808303818588803b15801561338e57600080fd5b505af11580156133a2573d6000803e3d6000fd5b50505050506040513d601f19601f8201168201806040525081019061321e9190613963565b6133f96040518060a0016040528060008152602001600081526020016000815260200160008152602001600081525090565b6026546001600160a01b03858116911614801561342457506025546001600160a01b03848116911614155b15613498576134446103e861149f600d5485612c0790919063ffffffff16565b602082015260095461345f906103e89061149f908590612c07565b8152600f54613477906103e89061149f908590612c07565b6040820152600b54613492906103e89061149f908590612c07565b60608201525b6026546001600160a01b038581169116148015906134c357506026546001600160a01b038481169116145b15613537576134e36103e861149f60155485612c0790919063ffffffff16565b60208201526011546134fe906103e89061149f908590612c07565b8152601754613516906103e89061149f908590612c07565b6040820152601354613531906103e89061149f908590612c07565b60608201525b6026546001600160a01b0385811691161480159061356357506026546001600160a01b03848116911614155b156136175761358e606461149f6019546114996103e861149f60155489612c0790919063ffffffff16565b8160200181815250506135bd606461149f6019546114996103e861149f60115489612c0790919063ffffffff16565b81526019546017546135e29160649161149f9190611499906103e89084908990612c07565b816040018181525050613611606461149f6019546114996103e861149f60135489612c0790919063ffffffff16565b60608201525b6136468160600151612ffd8360400151612ffd8560000151612ffd876020015189612bc590919063ffffffff16565b60808201526001600160a01b03841660009081526002602052604090205461366e9083612bc5565b6001600160a01b03808616600090815260026020526040808220939093556080840151918616815291909120546136a491612edf565b60026000856001600160a01b03166001600160a01b03168152602001908152602001600020819055506137116136fb8260600151611c068460400151611c0686600001518760200151612edf90919063ffffffff16565b3060009081526002602052604090205490612edf565b3060009081526002602090815260409182902092909255608083015190519081526001600160a01b0385811692908716917fddf252ad1be2c89b69c2b068fc378daa952ba7f163c4a11628f55a4df523b3ef910160405180910390a350505050565b80516dffffffffffffffffffffffffffff8116811461379157600080fd5b919050565b6000602082840312156137a7578081fd5b8135612bbe81613bf6565b6000602082840312156137c3578081fd5b8151612bbe81613bf6565b600080604083850312156137e0578081fd5b82356137eb81613bf6565b915060208301356137fb81613bf6565b809150509250929050565b60008060006060848603121561381a578081fd5b833561382581613bf6565b9250602084013561383581613bf6565b929592945050506040919091013590565b60008060408385031215613858578182fd5b823561386381613bf6565b946020939093013593505050565b600060208284031215613882578081fd5b8151612bbe81613c0b565b6000806040838503121561389f578182fd5b82356138aa81613c0b565b9150602083013561ffff811681146137fb578182fd5b600080604083850312156138d2578182fd5b82356138dd81613c0b565b915060208301356137fb81613c19565b600080600060608486031215613901578283fd5b61390a84613773565b925061391860208501613773565b9150604084015161392881613c19565b809150509250925092565b600060208284031215613944578081fd5b5035919050565b60006020828403121561395c578081fd5b5051919050565b600080600060608486031215613977578283fd5b8351925060208401519150604084015190509250925092565b600080600080608085870312156139a5578182fd5b5050823594602084013594506040840135936060013592509050565b6000602080835283518082850152825b818110156139ed578581018301518582016040015282016139d1565b818111156139fe5783604083870101525b50601f017fffffffffffffffffffffffffffffffffffffffffffffffffffffffffffffffe016929092016040019392505050565b600060a082018783526020878185015260a0604085015281875180845260c0860191508289019350845b81811015613a815784516001600160a01b031683529383019391830191600101613a5c565b50506001600160a01b03969096166060850152505050608001529392505050565b60008219821115613ab557613ab5613b98565b500190565b600082613ac957613ac9613bc7565b500490565b6000817fffffffffffffffffffffffffffffffffffffffffffffffffffffffffffffffff0483118215151615613b0657613b06613b98565b500290565b600063ffffffff80831681851681830481118215151615613b2e57613b2e613b98565b02949350505050565b600082821015613b4957613b49613b98565b500390565b600082613b5d57613b5d613bc7565b500690565b60007f8000000000000000000000000000000000000000000000000000000000000000821415613b9457613b94613b98565b0390565b7f4e487b7100000000000000000000000000000000000000000000000000000000600052601160045260246000fd5b7f4e487b7100000000000000000000000000000000000000000000000000000000600052601260045260246000fd5b6001600160a01b03811681146112eb57600080fd5b80151581146112eb57600080fd5b63ffffffff811681146112eb57600080fdfe45524332303a207472616e7366657220616d6f756e74206578636565647320616c6c6f77616e6365a2646970667358221220d445ba2fdba51cb8d3ee4bed2cedb6e9cd1b69c0317a471ad158af8fc12f109b64736f6c63430008040033",
			"opcodes": "PUSH1 0x80 PUSH1 0x40 MSTORE PUSH7 0x2386F2AB5BCA00 PUSH1 0x7 SSTORE PUSH7 0x38D7EA4C68000 PUSH1 0x8 SSTORE PUSH1 0x0 PUSH1 0x9 SSTORE PUSH1 0x9 SLOAD PUSH1 0xA SSTORE PUSH1 0x0 PUSH1 0xB SSTORE PUSH1 0xB SLOAD PUSH1 0xC SSTORE PUSH1 0x0 PUSH1 0xD SSTORE PUSH1 0xD SLOAD PUSH1 0xE SSTORE PUSH1 0x0 PUSH1 0xF SSTORE PUSH1 0xF SLOAD PUSH1 0x10 SSTORE PUSH1 0x0 PUSH1 0x11 SSTORE PUSH1 0x11 SLOAD PUSH1 0x12 SSTORE PUSH1 0x0 PUSH1 0x13 SSTORE PUSH1 0x13 SLOAD PUSH1 0x14 SSTORE PUSH1 0x0 PUSH1 0x15 SSTORE PUSH1 0x15 SLOAD PUSH1 0x16 SSTORE PUSH1 0x0 PUSH1 0x17 SSTORE PUSH1 0x17 SLOAD PUSH1 0x18 SSTORE PUSH1 0x0 PUSH1 0x19 SSTORE PUSH3 0x87 PUSH3 0x41D PUSH1 0x20 SHL PUSH1 0x20 SHR JUMP JUMPDEST PUSH1 0x21 DUP1 SLOAD PUSH1 0x1 PUSH1 0x1 PUSH1 0xA0 SHL SUB NOT SWAP1 DUP2 AND PUSH1 0x1 PUSH1 0x1 PUSH1 0xA0 SHL SUB SWAP4 DUP5 AND OR SWAP1 SWAP2 SSTORE PUSH1 0x0 SLOAD PUSH1 0x22 DUP1 SLOAD SWAP2 SWAP1 SWAP4 AND SWAP1 DUP3 AND DUP2 OR SWAP1 SWAP3 SSTORE PUSH1 0x23 DUP1 SLOAD DUP3 AND DUP4 OR SWAP1 SSTORE PUSH1 0x24 DUP1 SLOAD SWAP1 SWAP2 AND SWAP1 SWAP2 OR SWAP1 SSTORE PUSH1 0x28 DUP1 SLOAD PUSH5 0xFFFFFFFFFF NOT AND PUSH5 0x101010000 OR SWAP1 SSTORE CALLVALUE DUP1 ISZERO PUSH3 0xF1 JUMPI PUSH1 0x0 DUP1 REVERT JUMPDEST POP PUSH1 0x0 DUP1 SLOAD PUSH1 0x1 PUSH1 0x1 PUSH1 0xA0 SHL SUB NOT AND CALLER SWAP1 DUP2 OR DUP3 SSTORE PUSH1 0x40 MLOAD SWAP1 SWAP2 DUP3 SWAP2 PUSH32 0x8BE0079C531659141344CD1FD0A4F28419497F9722A3DAAFE3B4186F6B6457E0 SWAP1 DUP3 SWAP1 LOG3 POP PUSH1 0x25 DUP1 SLOAD PUSH1 0x1 PUSH1 0x1 PUSH1 0xA0 SHL SUB NOT AND PUSH20 0x10ED43C718714EB63D5AA57B78B54704E256024E SWAP1 DUP2 OR SWAP1 SWAP2 SSTORE PUSH3 0x171 ADDRESS DUP3 PUSH8 0xDE0B6B3A7640000 PUSH3 0x42C JUMP JUMPDEST DUP1 PUSH1 0x1 PUSH1 0x1 PUSH1 0xA0 SHL SUB AND PUSH4 0xC45A0155 PUSH1 0x40 MLOAD DUP2 PUSH4 0xFFFFFFFF AND PUSH1 0xE0 SHL DUP2 MSTORE PUSH1 0x4 ADD PUSH1 0x20 PUSH1 0x40 MLOAD DUP1 DUP4 SUB DUP2 DUP7 DUP1 EXTCODESIZE ISZERO DUP1 ISZERO PUSH3 0x1AB JUMPI PUSH1 0x0 DUP1 REVERT JUMPDEST POP GAS STATICCALL ISZERO DUP1 ISZERO PUSH3 0x1C0 JUMPI RETURNDATASIZE PUSH1 0x0 DUP1 RETURNDATACOPY RETURNDATASIZE PUSH1 0x0 REVERT JUMPDEST POP POP POP POP PUSH1 0x40 MLOAD RETURNDATASIZE PUSH1 0x1F NOT PUSH1 0x1F DUP3 ADD AND DUP3 ADD DUP1 PUSH1 0x40 MSTORE POP DUP2 ADD SWAP1 PUSH3 0x1E6 SWAP2 SWAP1 PUSH3 0x558 JUMP JUMPDEST PUSH1 0x1 PUSH1 0x1 PUSH1 0xA0 SHL SUB AND PUSH4 0xC9C65396 ADDRESS DUP4 PUSH1 0x1 PUSH1 0x1 PUSH1 0xA0 SHL SUB AND PUSH4 0xAD5C4648 PUSH1 0x40 MLOAD DUP2 PUSH4 0xFFFFFFFF AND PUSH1 0xE0 SHL DUP2 MSTORE PUSH1 0x4 ADD PUSH1 0x20 PUSH1 0x40 MLOAD DUP1 DUP4 SUB DUP2 DUP7 DUP1 EXTCODESIZE ISZERO DUP1 ISZERO PUSH3 0x22F JUMPI PUSH1 0x0 DUP1 REVERT JUMPDEST POP GAS STATICCALL ISZERO DUP1 ISZERO PUSH3 0x244 JUMPI RETURNDATASIZE PUSH1 0x0 DUP1 RETURNDATACOPY RETURNDATASIZE PUSH1 0x0 REVERT JUMPDEST POP POP POP POP PUSH1 0x40 MLOAD RETURNDATASIZE PUSH1 0x1F NOT PUSH1 0x1F DUP3 ADD AND DUP3 ADD DUP1 PUSH1 0x40 MSTORE POP DUP2 ADD SWAP1 PUSH3 0x26A SWAP2 SWAP1 PUSH3 0x558 JUMP JUMPDEST PUSH1 0x40 MLOAD PUSH1 0x1 PUSH1 0x1 PUSH1 0xE0 SHL SUB NOT PUSH1 0xE0 DUP6 SWAP1 SHL AND DUP2 MSTORE PUSH1 0x1 PUSH1 0x1 PUSH1 0xA0 SHL SUB SWAP3 DUP4 AND PUSH1 0x4 DUP3 ADD MSTORE SWAP2 AND PUSH1 0x24 DUP3 ADD MSTORE PUSH1 0x44 ADD PUSH1 0x20 PUSH1 0x40 MLOAD DUP1 DUP4 SUB DUP2 PUSH1 0x0 DUP8 DUP1 EXTCODESIZE ISZERO DUP1 ISZERO PUSH3 0x2B3 JUMPI PUSH1 0x0 DUP1 REVERT JUMPDEST POP GAS CALL ISZERO DUP1 ISZERO PUSH3 0x2C8 JUMPI RETURNDATASIZE PUSH1 0x0 DUP1 RETURNDATACOPY RETURNDATASIZE PUSH1 0x0 REVERT JUMPDEST POP POP POP POP PUSH1 0x40 MLOAD RETURNDATASIZE PUSH1 0x1F NOT PUSH1 0x1F DUP3 ADD AND DUP3 ADD DUP1 PUSH1 0x40 MSTORE POP DUP2 ADD SWAP1 PUSH3 0x2EE SWAP2 SWAP1 PUSH3 0x558 JUMP JUMPDEST PUSH1 0x26 DUP1 SLOAD PUSH1 0x1 PUSH1 0x1 PUSH1 0xA0 SHL SUB NOT AND PUSH1 0x1 PUSH1 0x1 PUSH1 0xA0 SHL SUB SWAP3 DUP4 AND SWAP1 DUP2 OR SWAP1 SWAP2 SSTORE PUSH1 0x25 SLOAD PUSH1 0x40 MLOAD PUSH4 0x95EA7B3 PUSH1 0xE0 SHL DUP2 MSTORE SWAP3 AND PUSH1 0x4 DUP4 ADD MSTORE PUSH1 0x0 NOT PUSH1 0x24 DUP4 ADD MSTORE SWAP1 PUSH4 0x95EA7B3 SWAP1 PUSH1 0x44 ADD PUSH1 0x20 PUSH1 0x40 MLOAD DUP1 DUP4 SUB DUP2 PUSH1 0x0 DUP8 DUP1 EXTCODESIZE ISZERO DUP1 ISZERO PUSH3 0x351 JUMPI PUSH1 0x0 DUP1 REVERT JUMPDEST POP GAS CALL ISZERO DUP1 ISZERO PUSH3 0x366 JUMPI RETURNDATASIZE PUSH1 0x0 DUP1 RETURNDATACOPY RETURNDATASIZE PUSH1 0x0 REVERT JUMPDEST POP POP POP POP PUSH1 0x40 MLOAD RETURNDATASIZE PUSH1 0x1F NOT PUSH1 0x1F DUP3 ADD AND DUP3 ADD DUP1 PUSH1 0x40 MSTORE POP DUP2 ADD SWAP1 PUSH3 0x38C SWAP2 SWAP1 PUSH3 0x588 JUMP JUMPDEST POP PUSH8 0xDE0B6B3A7640000 PUSH1 0x27 DUP2 SWAP1 SSTORE CALLER PUSH1 0x0 DUP2 DUP2 MSTORE PUSH1 0x2 PUSH1 0x20 SWAP1 DUP2 MSTORE PUSH1 0x40 DUP1 DUP4 KECCAK256 DUP6 SWAP1 SSTORE DUP3 SLOAD PUSH1 0x1 PUSH1 0x1 PUSH1 0xA0 SHL SUB AND DUP4 MSTORE PUSH1 0x4 DUP3 MSTORE DUP1 DUP4 KECCAK256 DUP1 SLOAD PUSH1 0x1 PUSH1 0xFF NOT SWAP2 DUP3 AND DUP2 OR SWAP1 SWAP3 SSTORE ADDRESS DUP6 MSTORE DUP3 DUP6 KECCAK256 DUP1 SLOAD SWAP1 SWAP2 AND SWAP1 SWAP2 OR SWAP1 SSTORE MLOAD SWAP4 DUP5 MSTORE SWAP2 SWAP3 SWAP1 SWAP2 PUSH32 0xDDF252AD1BE2C89B69C2B068FC378DAA952BA7F163C4A11628F55A4DF523B3EF SWAP2 ADD PUSH1 0x40 MLOAD DUP1 SWAP2 SUB SWAP1 LOG3 POP PUSH3 0x5AA JUMP JUMPDEST PUSH1 0x0 SLOAD PUSH1 0x1 PUSH1 0x1 PUSH1 0xA0 SHL SUB AND SWAP1 JUMP JUMPDEST PUSH1 0x1 PUSH1 0x1 PUSH1 0xA0 SHL SUB DUP4 AND PUSH3 0x494 JUMPI PUSH1 0x40 MLOAD PUSH3 0x461BCD PUSH1 0xE5 SHL DUP2 MSTORE PUSH1 0x20 PUSH1 0x4 DUP3 ADD MSTORE PUSH1 0x24 DUP1 DUP3 ADD MSTORE PUSH32 0x45524332303A20617070726F76652066726F6D20746865207A65726F20616464 PUSH1 0x44 DUP3 ADD MSTORE PUSH4 0x72657373 PUSH1 0xE0 SHL PUSH1 0x64 DUP3 ADD MSTORE PUSH1 0x84 ADD JUMPDEST PUSH1 0x40 MLOAD DUP1 SWAP2 SUB SWAP1 REVERT JUMPDEST PUSH1 0x1 PUSH1 0x1 PUSH1 0xA0 SHL SUB DUP3 AND PUSH3 0x4F7 JUMPI PUSH1 0x40 MLOAD PUSH3 0x461BCD PUSH1 0xE5 SHL DUP2 MSTORE PUSH1 0x20 PUSH1 0x4 DUP3 ADD MSTORE PUSH1 0x22 PUSH1 0x24 DUP3 ADD MSTORE PUSH32 0x45524332303A20617070726F766520746F20746865207A65726F206164647265 PUSH1 0x44 DUP3 ADD MSTORE PUSH2 0x7373 PUSH1 0xF0 SHL PUSH1 0x64 DUP3 ADD MSTORE PUSH1 0x84 ADD PUSH3 0x48B JUMP JUMPDEST PUSH1 0x1 PUSH1 0x1 PUSH1 0xA0 SHL SUB DUP4 DUP2 AND PUSH1 0x0 DUP2 DUP2 MSTORE PUSH1 0x3 PUSH1 0x20 SWAP1 DUP2 MSTORE PUSH1 0x40 DUP1 DUP4 KECCAK256 SWAP5 DUP8 AND DUP1 DUP5 MSTORE SWAP5 DUP3 MSTORE SWAP2 DUP3 SWAP1 KECCAK256 DUP6 SWAP1 SSTORE SWAP1 MLOAD DUP5 DUP2 MSTORE PUSH32 0x8C5BE1E5EBEC7D5BD14F71427D1E84F3DD0314C0F7B2291E5B200AC8C7C3B925 SWAP2 ADD PUSH1 0x40 MLOAD DUP1 SWAP2 SUB SWAP1 LOG3 POP POP POP JUMP JUMPDEST PUSH1 0x0 PUSH1 0x20 DUP3 DUP5 SUB SLT ISZERO PUSH3 0x56A JUMPI DUP1 DUP2 REVERT JUMPDEST DUP2 MLOAD PUSH1 0x1 PUSH1 0x1 PUSH1 0xA0 SHL SUB DUP2 AND DUP2 EQ PUSH3 0x581 JUMPI DUP2 DUP3 REVERT JUMPDEST SWAP4 SWAP3 POP POP POP JUMP JUMPDEST PUSH1 0x0 PUSH1 0x20 DUP3 DUP5 SUB SLT ISZERO PUSH3 0x59A JUMPI DUP1 DUP2 REVERT JUMPDEST DUP2 MLOAD DUP1 ISZERO ISZERO DUP2 EQ PUSH3 0x581 JUMPI DUP2 DUP3 REVERT JUMPDEST PUSH2 0x3C89 DUP1 PUSH3 0x5BA PUSH1 0x0 CODECOPY PUSH1 0x0 RETURN INVALID PUSH1 0x80 PUSH1 0x40 MSTORE PUSH1 0x4 CALLDATASIZE LT PUSH2 0x385 JUMPI PUSH1 0x0 CALLDATALOAD PUSH1 0xE0 SHR DUP1 PUSH4 0x88790A68 GT PUSH2 0x1D1 JUMPI DUP1 PUSH4 0xCAB03471 GT PUSH2 0x102 JUMPI DUP1 PUSH4 0xE315A6DA GT PUSH2 0xA0 JUMPI DUP1 PUSH4 0xF480FEC2 GT PUSH2 0x6F JUMPI DUP1 PUSH4 0xF480FEC2 EQ PUSH2 0xADB JUMPI DUP1 PUSH4 0xFE0BB982 EQ PUSH2 0xAFB JUMPI DUP1 PUSH4 0xFFB54A99 EQ PUSH2 0xB1B JUMPI DUP1 PUSH4 0xFFECF516 EQ PUSH2 0xB35 JUMPI PUSH1 0x0 DUP1 REVERT JUMPDEST DUP1 PUSH4 0xE315A6DA EQ PUSH2 0xA5B JUMPI DUP1 PUSH4 0xE4BF1BED EQ PUSH2 0xA7B JUMPI DUP1 PUSH4 0xEA2F0B37 EQ PUSH2 0xA9B JUMPI DUP1 PUSH4 0xF2FDE38B EQ PUSH2 0xABB JUMPI PUSH1 0x0 DUP1 REVERT JUMPDEST DUP1 PUSH4 0xD55CB78A GT PUSH2 0xDC JUMPI DUP1 PUSH4 0xD55CB78A EQ PUSH2 0x9CA JUMPI DUP1 PUSH4 0xDB0045EC EQ PUSH2 0x9DF JUMPI DUP1 PUSH4 0xDC44B6A0 EQ PUSH2 0x9FF JUMPI DUP1 PUSH4 0xDD62ED3E EQ PUSH2 0xA15 JUMPI PUSH1 0x0 DUP1 REVERT JUMPDEST DUP1 PUSH4 0xCAB03471 EQ PUSH2 0x974 JUMPI DUP1 PUSH4 0xCDB3858F EQ PUSH2 0x98A JUMPI DUP1 PUSH4 0xD1633649 EQ PUSH2 0x9AA JUMPI PUSH1 0x0 DUP1 REVERT JUMPDEST DUP1 PUSH4 0xA850673D GT PUSH2 0x16F JUMPI DUP1 PUSH4 0xC469B6DD GT PUSH2 0x149 JUMPI DUP1 PUSH4 0xC469B6DD EQ PUSH2 0x8CD JUMPI DUP1 PUSH4 0xC5D24189 EQ PUSH2 0x8E3 JUMPI DUP1 PUSH4 0xC8607952 EQ PUSH2 0x8F9 JUMPI DUP1 PUSH4 0xC95457FF EQ PUSH2 0x90F JUMPI PUSH1 0x0 DUP1 REVERT JUMPDEST DUP1 PUSH4 0xA850673D EQ PUSH2 0x878 JUMPI DUP1 PUSH4 0xA9059CBB EQ PUSH2 0x898 JUMPI DUP1 PUSH4 0xC3C8CD80 EQ PUSH2 0x8B8 JUMPI PUSH1 0x0 DUP1 REVERT JUMPDEST DUP1 PUSH4 0x9491F94D GT PUSH2 0x1AB JUMPI DUP1 PUSH4 0x9491F94D EQ PUSH2 0x7C8 JUMPI DUP1 PUSH4 0x95D89B41 EQ PUSH2 0x7DD JUMPI DUP1 PUSH4 0x99A7B9BC EQ PUSH2 0x823 JUMPI DUP1 PUSH4 0x9D82190F EQ PUSH2 0x838 JUMPI PUSH1 0x0 DUP1 REVERT JUMPDEST DUP1 PUSH4 0x88790A68 EQ PUSH2 0x77F JUMPI DUP1 PUSH4 0x8DA5CB5B EQ PUSH2 0x795 JUMPI DUP1 PUSH4 0x8E360253 EQ PUSH2 0x7B3 JUMPI PUSH1 0x0 DUP1 REVERT JUMPDEST DUP1 PUSH4 0x39A53C4E GT PUSH2 0x2B6 JUMPI DUP1 PUSH4 0x6C0A24EB GT PUSH2 0x254 JUMPI DUP1 PUSH4 0x729CB3F2 GT PUSH2 0x223 JUMPI DUP1 PUSH4 0x729CB3F2 EQ PUSH2 0x6F1 JUMPI DUP1 PUSH4 0x72B2AECC EQ PUSH2 0x711 JUMPI DUP1 PUSH4 0x787A08A6 EQ PUSH2 0x727 JUMPI DUP1 PUSH4 0x80670F3C EQ PUSH2 0x76A JUMPI PUSH1 0x0 DUP1 REVERT JUMPDEST DUP1 PUSH4 0x6C0A24EB EQ PUSH2 0x67B JUMPI DUP1 PUSH4 0x6FC3EAEC EQ PUSH2 0x691 JUMPI DUP1 PUSH4 0x70A08231 EQ PUSH2 0x6A6 JUMPI DUP1 PUSH4 0x715018A6 EQ PUSH2 0x6DC JUMPI PUSH1 0x0 DUP1 REVERT JUMPDEST DUP1 PUSH4 0x437823EC GT PUSH2 0x290 JUMPI DUP1 PUSH4 0x437823EC EQ PUSH2 0x5EE JUMPI DUP1 PUSH4 0x49BD5A5E EQ PUSH2 0x60E JUMPI DUP1 PUSH4 0x5FECD926 EQ PUSH2 0x646 JUMPI DUP1 PUSH4 0x6AABFF3F EQ PUSH2 0x666 JUMPI PUSH1 0x0 DUP1 REVERT JUMPDEST DUP1 PUSH4 0x39A53C4E EQ PUSH2 0x57F JUMPI DUP1 PUSH4 0x3BBAC579 EQ PUSH2 0x5A1 JUMPI DUP1 PUSH4 0x3E0F966D EQ PUSH2 0x5D9 JUMPI PUSH1 0x0 DUP1 REVERT JUMPDEST DUP1 PUSH4 0x248DD232 GT PUSH2 0x323 JUMPI DUP1 PUSH4 0x29409395 GT PUSH2 0x2FD JUMPI DUP1 PUSH4 0x29409395 EQ PUSH2 0x502 JUMPI DUP1 PUSH4 0x301AD558 EQ PUSH2 0x522 JUMPI DUP1 PUSH4 0x313CE567 EQ PUSH2 0x543 JUMPI DUP1 PUSH4 0x323BE1C5 EQ PUSH2 0x55F JUMPI PUSH1 0x0 DUP1 REVERT JUMPDEST DUP1 PUSH4 0x248DD232 EQ PUSH2 0x4B6 JUMPI DUP1 PUSH4 0x27A14FC2 EQ PUSH2 0x4CC JUMPI DUP1 PUSH4 0x2843631D EQ PUSH2 0x4EC JUMPI PUSH1 0x0 DUP1 REVERT JUMPDEST DUP1 PUSH4 0x14EB76AC GT PUSH2 0x35F JUMPI DUP1 PUSH4 0x14EB76AC EQ PUSH2 0x439 JUMPI DUP1 PUSH4 0x18160DDD EQ PUSH2 0x45B JUMPI DUP1 PUSH4 0x2369BF83 EQ PUSH2 0x476 JUMPI DUP1 PUSH4 0x23B872DD EQ PUSH2 0x496 JUMPI PUSH1 0x0 DUP1 REVERT JUMPDEST DUP1 PUSH4 0x1A6C43B EQ PUSH2 0x391 JUMPI DUP1 PUSH4 0x6FDDE03 EQ PUSH2 0x3BA JUMPI DUP1 PUSH4 0x95EA7B3 EQ PUSH2 0x409 JUMPI PUSH1 0x0 DUP1 REVERT JUMPDEST CALLDATASIZE PUSH2 0x38C JUMPI STOP JUMPDEST PUSH1 0x0 DUP1 REVERT JUMPDEST CALLVALUE DUP1 ISZERO PUSH2 0x39D JUMPI PUSH1 0x0 DUP1 REVERT JUMPDEST POP PUSH2 0x3A7 PUSH1 0x8 SLOAD DUP2 JUMP JUMPDEST PUSH1 0x40 MLOAD SWAP1 DUP2 MSTORE PUSH1 0x20 ADD JUMPDEST PUSH1 0x40 MLOAD DUP1 SWAP2 SUB SWAP1 RETURN JUMPDEST CALLVALUE DUP1 ISZERO PUSH2 0x3C6 JUMPI PUSH1 0x0 DUP1 REVERT JUMPDEST POP PUSH1 0x40 DUP1 MLOAD DUP1 DUP3 ADD SWAP1 SWAP2 MSTORE PUSH1 0x9 DUP2 MSTORE PUSH32 0x4761696E5A696C6C610000000000000000000000000000000000000000000000 PUSH1 0x20 DUP3 ADD MSTORE JUMPDEST PUSH1 0x40 MLOAD PUSH2 0x3B1 SWAP2 SWAP1 PUSH2 0x39C1 JUMP JUMPDEST CALLVALUE DUP1 ISZERO PUSH2 0x415 JUMPI PUSH1 0x0 DUP1 REVERT JUMPDEST POP PUSH2 0x429 PUSH2 0x424 CALLDATASIZE PUSH1 0x4 PUSH2 0x3846 JUMP JUMPDEST PUSH2 0xB55 JUMP JUMPDEST PUSH1 0x40 MLOAD SWAP1 ISZERO ISZERO DUP2 MSTORE PUSH1 0x20 ADD PUSH2 0x3B1 JUMP JUMPDEST CALLVALUE DUP1 ISZERO PUSH2 0x445 JUMPI PUSH1 0x0 DUP1 REVERT JUMPDEST POP PUSH2 0x459 PUSH2 0x454 CALLDATASIZE PUSH1 0x4 PUSH2 0x3796 JUMP JUMPDEST PUSH2 0xB6C JUMP JUMPDEST STOP JUMPDEST CALLVALUE DUP1 ISZERO PUSH2 0x467 JUMPI PUSH1 0x0 DUP1 REVERT JUMPDEST POP PUSH8 0xDE0B6B3A7640000 PUSH2 0x3A7 JUMP JUMPDEST CALLVALUE DUP1 ISZERO PUSH2 0x482 JUMPI PUSH1 0x0 DUP1 REVERT JUMPDEST POP PUSH2 0x459 PUSH2 0x491 CALLDATASIZE PUSH1 0x4 PUSH2 0x3796 JUMP JUMPDEST PUSH2 0xC05 JUMP JUMPDEST CALLVALUE DUP1 ISZERO PUSH2 0x4A2 JUMPI PUSH1 0x0 DUP1 REVERT JUMPDEST POP PUSH2 0x429 PUSH2 0x4B1 CALLDATASIZE PUSH1 0x4 PUSH2 0x3806 JUMP JUMPDEST PUSH2 0xC99 JUMP JUMPDEST CALLVALUE DUP1 ISZERO PUSH2 0x4C2 JUMPI PUSH1 0x0 DUP1 REVERT JUMPDEST POP PUSH2 0x3A7 PUSH1 0x13 SLOAD DUP2 JUMP JUMPDEST CALLVALUE DUP1 ISZERO PUSH2 0x4D8 JUMPI PUSH1 0x0 DUP1 REVERT JUMPDEST POP PUSH2 0x459 PUSH2 0x4E7 CALLDATASIZE PUSH1 0x4 PUSH2 0x3933 JUMP JUMPDEST PUSH2 0xD02 JUMP JUMPDEST CALLVALUE DUP1 ISZERO PUSH2 0x4F8 JUMPI PUSH1 0x0 DUP1 REVERT JUMPDEST POP PUSH2 0x3A7 PUSH1 0xB SLOAD DUP2 JUMP JUMPDEST CALLVALUE DUP1 ISZERO PUSH2 0x50E JUMPI PUSH1 0x0 DUP1 REVERT JUMPDEST POP PUSH2 0x459 PUSH2 0x51D CALLDATASIZE PUSH1 0x4 PUSH2 0x3796 JUMP JUMPDEST PUSH2 0xE68 JUMP JUMPDEST CALLVALUE DUP1 ISZERO PUSH2 0x52E JUMPI PUSH1 0x0 DUP1 REVERT JUMPDEST POP PUSH1 0x28 SLOAD PUSH2 0x429 SWAP1 PUSH4 0x1000000 SWAP1 DIV PUSH1 0xFF AND DUP2 JUMP JUMPDEST CALLVALUE DUP1 ISZERO PUSH2 0x54F JUMPI PUSH1 0x0 DUP1 REVERT JUMPDEST POP PUSH1 0x40 MLOAD PUSH1 0x9 DUP2 MSTORE PUSH1 0x20 ADD PUSH2 0x3B1 JUMP JUMPDEST CALLVALUE DUP1 ISZERO PUSH2 0x56B JUMPI PUSH1 0x0 DUP1 REVERT JUMPDEST POP PUSH1 0x28 SLOAD PUSH2 0x429 SWAP1 PUSH3 0x10000 SWAP1 DIV PUSH1 0xFF AND DUP2 JUMP JUMPDEST CALLVALUE DUP1 ISZERO PUSH2 0x58B JUMPI PUSH1 0x0 DUP1 REVERT JUMPDEST POP PUSH1 0x28 SLOAD PUSH2 0x429 SWAP1 PUSH5 0x100000000 SWAP1 DIV PUSH1 0xFF AND DUP2 JUMP JUMPDEST CALLVALUE DUP1 ISZERO PUSH2 0x5AD JUMPI PUSH1 0x0 DUP1 REVERT JUMPDEST POP PUSH2 0x429 PUSH2 0x5BC CALLDATASIZE PUSH1 0x4 PUSH2 0x3796 JUMP JUMPDEST PUSH1 0x1 PUSH1 0x1 PUSH1 0xA0 SHL SUB AND PUSH1 0x0 SWAP1 DUP2 MSTORE PUSH1 0x20 DUP1 MSTORE PUSH1 0x40 SWAP1 KECCAK256 SLOAD PUSH1 0xFF AND SWAP1 JUMP JUMPDEST CALLVALUE DUP1 ISZERO PUSH2 0x5E5 JUMPI PUSH1 0x0 DUP1 REVERT JUMPDEST POP PUSH2 0x459 PUSH2 0x1015 JUMP JUMPDEST CALLVALUE DUP1 ISZERO PUSH2 0x5FA JUMPI PUSH1 0x0 DUP1 REVERT JUMPDEST POP PUSH2 0x459 PUSH2 0x609 CALLDATASIZE PUSH1 0x4 PUSH2 0x3796 JUMP JUMPDEST PUSH2 0x10D3 JUMP JUMPDEST CALLVALUE DUP1 ISZERO PUSH2 0x61A JUMPI PUSH1 0x0 DUP1 REVERT JUMPDEST POP PUSH1 0x26 SLOAD PUSH2 0x62E SWAP1 PUSH1 0x1 PUSH1 0x1 PUSH1 0xA0 SHL SUB AND DUP2 JUMP JUMPDEST PUSH1 0x40 MLOAD PUSH1 0x1 PUSH1 0x1 PUSH1 0xA0 SHL SUB SWAP1 SWAP2 AND DUP2 MSTORE PUSH1 0x20 ADD PUSH2 0x3B1 JUMP JUMPDEST CALLVALUE DUP1 ISZERO PUSH2 0x652 JUMPI PUSH1 0x0 DUP1 REVERT JUMPDEST POP PUSH2 0x459 PUSH2 0x661 CALLDATASIZE PUSH1 0x4 PUSH2 0x3796 JUMP JUMPDEST PUSH2 0x1151 JUMP JUMPDEST CALLVALUE DUP1 ISZERO PUSH2 0x672 JUMPI PUSH1 0x0 DUP1 REVERT JUMPDEST POP PUSH2 0x459 PUSH2 0x11CB JUMP JUMPDEST CALLVALUE DUP1 ISZERO PUSH2 0x687 JUMPI PUSH1 0x0 DUP1 REVERT JUMPDEST POP PUSH2 0x3A7 PUSH1 0x7 SLOAD DUP2 JUMP JUMPDEST CALLVALUE DUP1 ISZERO PUSH2 0x69D JUMPI PUSH1 0x0 DUP1 REVERT JUMPDEST POP PUSH2 0x459 PUSH2 0x124F JUMP JUMPDEST CALLVALUE DUP1 ISZERO PUSH2 0x6B2 JUMPI PUSH1 0x0 DUP1 REVERT JUMPDEST POP PUSH2 0x3A7 PUSH2 0x6C1 CALLDATASIZE PUSH1 0x4 PUSH2 0x3796 JUMP JUMPDEST PUSH1 0x1 PUSH1 0x1 PUSH1 0xA0 SHL SUB AND PUSH1 0x0 SWAP1 DUP2 MSTORE PUSH1 0x2 PUSH1 0x20 MSTORE PUSH1 0x40 SWAP1 KECCAK256 SLOAD SWAP1 JUMP JUMPDEST CALLVALUE DUP1 ISZERO PUSH2 0x6E8 JUMPI PUSH1 0x0 DUP1 REVERT JUMPDEST POP PUSH2 0x459 PUSH2 0x12EE JUMP JUMPDEST CALLVALUE DUP1 ISZERO PUSH2 0x6FD JUMPI PUSH1 0x0 DUP1 REVERT JUMPDEST POP PUSH2 0x459 PUSH2 0x70C CALLDATASIZE PUSH1 0x4 PUSH2 0x38C0 JUMP JUMPDEST PUSH2 0x13AA JUMP JUMPDEST CALLVALUE DUP1 ISZERO PUSH2 0x71D JUMPI PUSH1 0x0 DUP1 REVERT JUMPDEST POP PUSH2 0x3A7 PUSH1 0x19 SLOAD DUP2 JUMP JUMPDEST CALLVALUE DUP1 ISZERO PUSH2 0x733 JUMPI PUSH1 0x0 DUP1 REVERT JUMPDEST POP PUSH1 0x1A SLOAD PUSH2 0x74E SWAP1 PUSH1 0xFF DUP2 AND SWAP1 PUSH2 0x100 SWAP1 DIV PUSH4 0xFFFFFFFF AND DUP3 JUMP JUMPDEST PUSH1 0x40 DUP1 MLOAD SWAP3 ISZERO ISZERO DUP4 MSTORE PUSH4 0xFFFFFFFF SWAP1 SWAP2 AND PUSH1 0x20 DUP4 ADD MSTORE ADD PUSH2 0x3B1 JUMP JUMPDEST CALLVALUE DUP1 ISZERO PUSH2 0x776 JUMPI PUSH1 0x0 DUP1 REVERT JUMPDEST POP PUSH2 0x3A7 PUSH2 0x145C JUMP JUMPDEST CALLVALUE DUP1 ISZERO PUSH2 0x78B JUMPI PUSH1 0x0 DUP1 REVERT JUMPDEST POP PUSH2 0x3A7 PUSH1 0x11 SLOAD DUP2 JUMP JUMPDEST CALLVALUE DUP1 ISZERO PUSH2 0x7A1 JUMPI PUSH1 0x0 DUP1 REVERT JUMPDEST POP PUSH1 0x0 SLOAD PUSH1 0x1 PUSH1 0x1 PUSH1 0xA0 SHL SUB AND PUSH2 0x62E JUMP JUMPDEST CALLVALUE DUP1 ISZERO PUSH2 0x7BF JUMPI PUSH1 0x0 DUP1 REVERT JUMPDEST POP PUSH2 0x459 PUSH2 0x14D0 JUMP JUMPDEST CALLVALUE DUP1 ISZERO PUSH2 0x7D4 JUMPI PUSH1 0x0 DUP1 REVERT JUMPDEST POP PUSH2 0x3A7 PUSH2 0x1539 JUMP JUMPDEST CALLVALUE DUP1 ISZERO PUSH2 0x7E9 JUMPI PUSH1 0x0 DUP1 REVERT JUMPDEST POP PUSH1 0x40 DUP1 MLOAD DUP1 DUP3 ADD SWAP1 SWAP2 MSTORE PUSH1 0x4 DUP2 MSTORE PUSH32 0x5241575200000000000000000000000000000000000000000000000000000000 PUSH1 0x20 DUP3 ADD MSTORE PUSH2 0x3FC JUMP JUMPDEST CALLVALUE DUP1 ISZERO PUSH2 0x82F JUMPI PUSH1 0x0 DUP1 REVERT JUMPDEST POP PUSH2 0x459 PUSH2 0x1707 JUMP JUMPDEST CALLVALUE DUP1 ISZERO PUSH2 0x844 JUMPI PUSH1 0x0 DUP1 REVERT JUMPDEST POP PUSH2 0x858 PUSH2 0x853 CALLDATASIZE PUSH1 0x4 PUSH2 0x3796 JUMP JUMPDEST PUSH2 0x178B JUMP JUMPDEST PUSH1 0x40 DUP1 MLOAD SWAP5 DUP6 MSTORE PUSH1 0x20 DUP6 ADD SWAP4 SWAP1 SWAP4 MSTORE SWAP2 DUP4 ADD MSTORE PUSH1 0x60 DUP3 ADD MSTORE PUSH1 0x80 ADD PUSH2 0x3B1 JUMP JUMPDEST CALLVALUE DUP1 ISZERO PUSH2 0x884 JUMPI PUSH1 0x0 DUP1 REVERT JUMPDEST POP PUSH2 0x459 PUSH2 0x893 CALLDATASIZE PUSH1 0x4 PUSH2 0x3933 JUMP JUMPDEST PUSH2 0x183A JUMP JUMPDEST CALLVALUE DUP1 ISZERO PUSH2 0x8A4 JUMPI PUSH1 0x0 DUP1 REVERT JUMPDEST POP PUSH2 0x429 PUSH2 0x8B3 CALLDATASIZE PUSH1 0x4 PUSH2 0x3846 JUMP JUMPDEST PUSH2 0x1899 JUMP JUMPDEST CALLVALUE DUP1 ISZERO PUSH2 0x8C4 JUMPI PUSH1 0x0 DUP1 REVERT JUMPDEST POP PUSH2 0x459 PUSH2 0x18A6 JUMP JUMPDEST CALLVALUE DUP1 ISZERO PUSH2 0x8D9 JUMPI PUSH1 0x0 DUP1 REVERT JUMPDEST POP PUSH2 0x3A7 PUSH1 0xF SLOAD DUP2 JUMP JUMPDEST CALLVALUE DUP1 ISZERO PUSH2 0x8EF JUMPI PUSH1 0x0 DUP1 REVERT JUMPDEST POP PUSH2 0x3A7 PUSH1 0xD SLOAD DUP2 JUMP JUMPDEST CALLVALUE DUP1 ISZERO PUSH2 0x905 JUMPI PUSH1 0x0 DUP1 REVERT JUMPDEST POP PUSH2 0x3A7 PUSH1 0x15 SLOAD DUP2 JUMP JUMPDEST CALLVALUE DUP1 ISZERO PUSH2 0x91B JUMPI PUSH1 0x0 DUP1 REVERT JUMPDEST POP PUSH1 0x1C SLOAD PUSH1 0x1D SLOAD PUSH1 0x1E SLOAD PUSH1 0x1F SLOAD PUSH2 0x945 SWAP4 PUSH1 0xFF DUP1 DUP3 AND SWAP5 PUSH2 0x100 SWAP1 SWAP3 DIV PUSH2 0xFFFF AND SWAP4 SWAP2 SWAP3 SWAP2 AND SWAP1 DUP6 JUMP JUMPDEST PUSH1 0x40 DUP1 MLOAD SWAP6 ISZERO ISZERO DUP7 MSTORE PUSH2 0xFFFF SWAP1 SWAP5 AND PUSH1 0x20 DUP7 ADD MSTORE SWAP3 DUP5 ADD SWAP2 SWAP1 SWAP2 MSTORE ISZERO ISZERO PUSH1 0x60 DUP4 ADD MSTORE PUSH1 0x80 DUP3 ADD MSTORE PUSH1 0xA0 ADD PUSH2 0x3B1 JUMP JUMPDEST CALLVALUE DUP1 ISZERO PUSH2 0x980 JUMPI PUSH1 0x0 DUP1 REVERT JUMPDEST POP PUSH2 0x3A7 PUSH1 0x17 SLOAD DUP2 JUMP JUMPDEST CALLVALUE DUP1 ISZERO PUSH2 0x996 JUMPI PUSH1 0x0 DUP1 REVERT JUMPDEST POP PUSH2 0x459 PUSH2 0x9A5 CALLDATASIZE PUSH1 0x4 PUSH2 0x3796 JUMP JUMPDEST PUSH2 0x191F JUMP JUMPDEST CALLVALUE DUP1 ISZERO PUSH2 0x9B6 JUMPI PUSH1 0x0 DUP1 REVERT JUMPDEST POP PUSH2 0x459 PUSH2 0x9C5 CALLDATASIZE PUSH1 0x4 PUSH2 0x3933 JUMP JUMPDEST PUSH2 0x19B3 JUMP JUMPDEST CALLVALUE DUP1 ISZERO PUSH2 0x9D6 JUMPI PUSH1 0x0 DUP1 REVERT JUMPDEST POP PUSH2 0x459 PUSH2 0x1A23 JUMP JUMPDEST CALLVALUE DUP1 ISZERO PUSH2 0x9EB JUMPI PUSH1 0x0 DUP1 REVERT JUMPDEST POP PUSH2 0x459 PUSH2 0x9FA CALLDATASIZE PUSH1 0x4 PUSH2 0x3796 JUMP JUMPDEST PUSH2 0x1AA7 JUMP JUMPDEST CALLVALUE DUP1 ISZERO PUSH2 0xA0B JUMPI PUSH1 0x0 DUP1 REVERT JUMPDEST POP PUSH2 0x3A7 PUSH1 0x9 SLOAD DUP2 JUMP JUMPDEST CALLVALUE DUP1 ISZERO PUSH2 0xA21 JUMPI PUSH1 0x0 DUP1 REVERT JUMPDEST POP PUSH2 0x3A7 PUSH2 0xA30 CALLDATASIZE PUSH1 0x4 PUSH2 0x37CE JUMP JUMPDEST PUSH1 0x1 PUSH1 0x1 PUSH1 0xA0 SHL SUB SWAP2 DUP3 AND PUSH1 0x0 SWAP1 DUP2 MSTORE PUSH1 0x3 PUSH1 0x20 SWAP1 DUP2 MSTORE PUSH1 0x40 DUP1 DUP4 KECCAK256 SWAP4 SWAP1 SWAP5 AND DUP3 MSTORE SWAP2 SWAP1 SWAP2 MSTORE KECCAK256 SLOAD SWAP1 JUMP JUMPDEST CALLVALUE DUP1 ISZERO PUSH2 0xA67 JUMPI PUSH1 0x0 DUP1 REVERT JUMPDEST POP PUSH2 0x459 PUSH2 0xA76 CALLDATASIZE PUSH1 0x4 PUSH2 0x3933 JUMP JUMPDEST PUSH2 0x1B3B JUMP JUMPDEST CALLVALUE DUP1 ISZERO PUSH2 0xA87 JUMPI PUSH1 0x0 DUP1 REVERT JUMPDEST POP PUSH2 0x459 PUSH2 0xA96 CALLDATASIZE PUSH1 0x4 PUSH2 0x3990 JUMP JUMPDEST PUSH2 0x1B9A JUMP JUMPDEST CALLVALUE DUP1 ISZERO PUSH2 0xAA7 JUMPI PUSH1 0x0 DUP1 REVERT JUMPDEST POP PUSH2 0x459 PUSH2 0xAB6 CALLDATASIZE PUSH1 0x4 PUSH2 0x3796 JUMP JUMPDEST PUSH2 0x1D57 JUMP JUMPDEST CALLVALUE DUP1 ISZERO PUSH2 0xAC7 JUMPI PUSH1 0x0 DUP1 REVERT JUMPDEST POP PUSH2 0x459 PUSH2 0xAD6 CALLDATASIZE PUSH1 0x4 PUSH2 0x3796 JUMP JUMPDEST PUSH2 0x1DD2 JUMP JUMPDEST CALLVALUE DUP1 ISZERO PUSH2 0xAE7 JUMPI PUSH1 0x0 DUP1 REVERT JUMPDEST POP PUSH2 0x459 PUSH2 0xAF6 CALLDATASIZE PUSH1 0x4 PUSH2 0x3990 JUMP JUMPDEST PUSH2 0x1EB1 JUMP JUMPDEST CALLVALUE DUP1 ISZERO PUSH2 0xB07 JUMPI PUSH1 0x0 DUP1 REVERT JUMPDEST POP PUSH2 0x459 PUSH2 0xB16 CALLDATASIZE PUSH1 0x4 PUSH2 0x388D JUMP JUMPDEST PUSH2 0x205D JUMP JUMPDEST CALLVALUE DUP1 ISZERO PUSH2 0xB27 JUMPI PUSH1 0x0 DUP1 REVERT JUMPDEST POP PUSH1 0x28 SLOAD PUSH2 0x429 SWAP1 PUSH1 0xFF AND DUP2 JUMP JUMPDEST CALLVALUE DUP1 ISZERO PUSH2 0xB41 JUMPI PUSH1 0x0 DUP1 REVERT JUMPDEST POP PUSH2 0x459 PUSH2 0xB50 CALLDATASIZE PUSH1 0x4 PUSH2 0x3796 JUMP JUMPDEST PUSH2 0x21B9 JUMP JUMPDEST PUSH1 0x0 PUSH2 0xB62 CALLER DUP5 DUP5 PUSH2 0x22B5 JUMP JUMPDEST POP PUSH1 0x1 JUMPDEST SWAP3 SWAP2 POP POP JUMP JUMPDEST PUSH1 0x0 SLOAD PUSH1 0x1 PUSH1 0x1 PUSH1 0xA0 SHL SUB AND CALLER EQ PUSH2 0xBCB JUMPI PUSH1 0x40 MLOAD PUSH3 0x461BCD PUSH1 0xE5 SHL DUP2 MSTORE PUSH1 0x20 PUSH1 0x4 DUP3 ADD DUP2 SWAP1 MSTORE PUSH1 0x24 DUP3 ADD MSTORE PUSH32 0x4F776E61626C653A2063616C6C6572206973206E6F7420746865206F776E6572 PUSH1 0x44 DUP3 ADD MSTORE PUSH1 0x64 ADD JUMPDEST PUSH1 0x40 MLOAD DUP1 SWAP2 SUB SWAP1 REVERT JUMPDEST PUSH1 0x22 DUP1 SLOAD PUSH32 0xFFFFFFFFFFFFFFFFFFFFFFFF0000000000000000000000000000000000000000 AND PUSH1 0x1 PUSH1 0x1 PUSH1 0xA0 SHL SUB SWAP3 SWAP1 SWAP3 AND SWAP2 SWAP1 SWAP2 OR SWAP1 SSTORE JUMP JUMPDEST PUSH1 0x0 SLOAD PUSH1 0x1 PUSH1 0x1 PUSH1 0xA0 SHL SUB AND CALLER EQ PUSH2 0xC5F JUMPI PUSH1 0x40 MLOAD PUSH3 0x461BCD PUSH1 0xE5 SHL DUP2 MSTORE PUSH1 0x20 PUSH1 0x4 DUP3 ADD DUP2 SWAP1 MSTORE PUSH1 0x24 DUP3 ADD MSTORE PUSH32 0x4F776E61626C653A2063616C6C6572206973206E6F7420746865206F776E6572 PUSH1 0x44 DUP3 ADD MSTORE PUSH1 0x64 ADD PUSH2 0xBC2 JUMP JUMPDEST PUSH1 0x21 DUP1 SLOAD PUSH32 0xFFFFFFFFFFFFFFFFFFFFFFFF0000000000000000000000000000000000000000 AND PUSH1 0x1 PUSH1 0x1 PUSH1 0xA0 SHL SUB SWAP3 SWAP1 SWAP3 AND SWAP2 SWAP1 SWAP2 OR SWAP1 SSTORE JUMP JUMPDEST PUSH1 0x0 PUSH2 0xCA6 DUP5 DUP5 DUP5 PUSH2 0x240D JUMP JUMPDEST PUSH2 0xCF8 DUP5 CALLER PUSH2 0xCF3 DUP6 PUSH1 0x40 MLOAD DUP1 PUSH1 0x60 ADD PUSH1 0x40 MSTORE DUP1 PUSH1 0x28 DUP2 MSTORE PUSH1 0x20 ADD PUSH2 0x3C2C PUSH1 0x28 SWAP2 CODECOPY PUSH1 0x1 PUSH1 0x1 PUSH1 0xA0 SHL SUB DUP11 AND PUSH1 0x0 SWAP1 DUP2 MSTORE PUSH1 0x3 PUSH1 0x20 SWAP1 DUP2 MSTORE PUSH1 0x40 DUP1 DUP4 KECCAK256 CALLER DUP5 MSTORE SWAP1 SWAP2 MSTORE SWAP1 KECCAK256 SLOAD SWAP2 SWAP1 PUSH2 0x2B42 JUMP JUMPDEST PUSH2 0x22B5 JUMP JUMPDEST POP PUSH1 0x1 SWAP4 SWAP3 POP POP POP JUMP JUMPDEST PUSH1 0x0 SLOAD PUSH1 0x1 PUSH1 0x1 PUSH1 0xA0 SHL SUB AND CALLER EQ PUSH2 0xD5C JUMPI PUSH1 0x40 MLOAD PUSH3 0x461BCD PUSH1 0xE5 SHL DUP2 MSTORE PUSH1 0x20 PUSH1 0x4 DUP3 ADD DUP2 SWAP1 MSTORE PUSH1 0x24 DUP3 ADD MSTORE PUSH32 0x4F776E61626C653A2063616C6C6572206973206E6F7420746865206F776E6572 PUSH1 0x44 DUP3 ADD MSTORE PUSH1 0x64 ADD PUSH2 0xBC2 JUMP JUMPDEST PUSH2 0xD70 PUSH8 0xDE0B6B3A7640000 PUSH2 0x3E8 PUSH2 0x2B7C JUMP JUMPDEST DUP2 LT ISZERO PUSH2 0xDE5 JUMPI PUSH1 0x40 MLOAD PUSH3 0x461BCD PUSH1 0xE5 SHL DUP2 MSTORE PUSH1 0x20 PUSH1 0x4 DUP3 ADD MSTORE PUSH1 0x2A PUSH1 0x24 DUP3 ADD MSTORE PUSH32 0x416D6F756E74206D7573742062652067726561746572207468616E20302E3125 PUSH1 0x44 DUP3 ADD MSTORE PUSH32 0x206F6620737570706C7900000000000000000000000000000000000000000000 PUSH1 0x64 DUP3 ADD MSTORE PUSH1 0x84 ADD PUSH2 0xBC2 JUMP JUMPDEST PUSH8 0xDE0B6B3A7640000 DUP2 GT ISZERO PUSH2 0xE63 JUMPI PUSH1 0x40 MLOAD PUSH3 0x461BCD PUSH1 0xE5 SHL DUP2 MSTORE PUSH1 0x20 PUSH1 0x4 DUP3 ADD MSTORE PUSH1 0x30 PUSH1 0x24 DUP3 ADD MSTORE PUSH32 0x416D6F756E74206D757374206265206C657373207468616E206F722065717561 PUSH1 0x44 DUP3 ADD MSTORE PUSH32 0x6C20746F20746F74616C537570706C7900000000000000000000000000000000 PUSH1 0x64 DUP3 ADD MSTORE PUSH1 0x84 ADD PUSH2 0xBC2 JUMP JUMPDEST PUSH1 0x7 SSTORE JUMP JUMPDEST PUSH1 0x0 SLOAD PUSH1 0x1 PUSH1 0x1 PUSH1 0xA0 SHL SUB AND CALLER EQ PUSH2 0xEC2 JUMPI PUSH1 0x40 MLOAD PUSH3 0x461BCD PUSH1 0xE5 SHL DUP2 MSTORE PUSH1 0x20 PUSH1 0x4 DUP3 ADD DUP2 SWAP1 MSTORE PUSH1 0x24 DUP3 ADD MSTORE PUSH32 0x4F776E61626C653A2063616C6C6572206973206E6F7420746865206F776E6572 PUSH1 0x44 DUP3 ADD MSTORE PUSH1 0x64 ADD PUSH2 0xBC2 JUMP JUMPDEST PUSH1 0x40 MLOAD PUSH32 0x70A0823100000000000000000000000000000000000000000000000000000000 DUP2 MSTORE ADDRESS PUSH1 0x4 DUP3 ADD MSTORE PUSH1 0x0 SWAP1 PUSH1 0x1 PUSH1 0x1 PUSH1 0xA0 SHL SUB DUP4 AND SWAP1 PUSH4 0x70A08231 SWAP1 PUSH1 0x24 ADD PUSH1 0x20 PUSH1 0x40 MLOAD DUP1 DUP4 SUB DUP2 DUP7 DUP1 EXTCODESIZE ISZERO DUP1 ISZERO PUSH2 0xF1D JUMPI PUSH1 0x0 DUP1 REVERT JUMPDEST POP GAS STATICCALL ISZERO DUP1 ISZERO PUSH2 0xF31 JUMPI RETURNDATASIZE PUSH1 0x0 DUP1 RETURNDATACOPY RETURNDATASIZE PUSH1 0x0 REVERT JUMPDEST POP POP POP POP PUSH1 0x40 MLOAD RETURNDATASIZE PUSH1 0x1F NOT PUSH1 0x1F DUP3 ADD AND DUP3 ADD DUP1 PUSH1 0x40 MSTORE POP DUP2 ADD SWAP1 PUSH2 0xF55 SWAP2 SWAP1 PUSH2 0x394B JUMP JUMPDEST SWAP1 POP DUP2 PUSH1 0x1 PUSH1 0x1 PUSH1 0xA0 SHL SUB AND PUSH4 0xA9059CBB PUSH2 0xF78 PUSH1 0x0 SLOAD PUSH1 0x1 PUSH1 0x1 PUSH1 0xA0 SHL SUB AND SWAP1 JUMP JUMPDEST PUSH1 0x40 MLOAD PUSH32 0xFFFFFFFF00000000000000000000000000000000000000000000000000000000 PUSH1 0xE0 DUP5 SWAP1 SHL AND DUP2 MSTORE PUSH1 0x1 PUSH1 0x1 PUSH1 0xA0 SHL SUB SWAP1 SWAP2 AND PUSH1 0x4 DUP3 ADD MSTORE PUSH1 0x24 DUP2 ADD DUP5 SWAP1 MSTORE PUSH1 0x44 ADD PUSH1 0x20 PUSH1 0x40 MLOAD DUP1 DUP4 SUB DUP2 PUSH1 0x0 DUP8 DUP1 EXTCODESIZE ISZERO DUP1 ISZERO PUSH2 0xFD8 JUMPI PUSH1 0x0 DUP1 REVERT JUMPDEST POP GAS CALL ISZERO DUP1 ISZERO PUSH2 0xFEC JUMPI RETURNDATASIZE PUSH1 0x0 DUP1 RETURNDATACOPY RETURNDATASIZE PUSH1 0x0 REVERT JUMPDEST POP POP POP POP PUSH1 0x40 MLOAD RETURNDATASIZE PUSH1 0x1F NOT PUSH1 0x1F DUP3 ADD AND DUP3 ADD DUP1 PUSH1 0x40 MSTORE POP DUP2 ADD SWAP1 PUSH2 0x1010 SWAP2 SWAP1 PUSH2 0x3871 JUMP JUMPDEST POP POP POP JUMP JUMPDEST PUSH1 0x0 SLOAD PUSH1 0x1 PUSH1 0x1 PUSH1 0xA0 SHL SUB AND CALLER EQ PUSH2 0x106F JUMPI PUSH1 0x40 MLOAD PUSH3 0x461BCD PUSH1 0xE5 SHL DUP2 MSTORE PUSH1 0x20 PUSH1 0x4 DUP3 ADD DUP2 SWAP1 MSTORE PUSH1 0x24 DUP3 ADD MSTORE PUSH32 0x4F776E61626C653A2063616C6C6572206973206E6F7420746865206F776E6572 PUSH1 0x44 DUP3 ADD MSTORE PUSH1 0x64 ADD PUSH2 0xBC2 JUMP JUMPDEST PUSH1 0x28 SLOAD PUSH3 0x10000 SWAP1 DIV PUSH1 0xFF AND PUSH2 0x10C7 JUMPI PUSH1 0x40 MLOAD PUSH3 0x461BCD PUSH1 0xE5 SHL DUP2 MSTORE PUSH1 0x20 PUSH1 0x4 DUP3 ADD MSTORE PUSH1 0x1E PUSH1 0x24 DUP3 ADD MSTORE PUSH32 0x7468697320636F6E74726163742063616E6E6F74206265207061757365640000 PUSH1 0x44 DUP3 ADD MSTORE PUSH1 0x64 ADD PUSH2 0xBC2 JUMP JUMPDEST PUSH1 0x28 DUP1 SLOAD PUSH1 0xFF NOT AND SWAP1 SSTORE JUMP JUMPDEST PUSH1 0x0 SLOAD PUSH1 0x1 PUSH1 0x1 PUSH1 0xA0 SHL SUB AND CALLER EQ PUSH2 0x112D JUMPI PUSH1 0x40 MLOAD PUSH3 0x461BCD PUSH1 0xE5 SHL DUP2 MSTORE PUSH1 0x20 PUSH1 0x4 DUP3 ADD DUP2 SWAP1 MSTORE PUSH1 0x24 DUP3 ADD MSTORE PUSH32 0x4F776E61626C653A2063616C6C6572206973206E6F7420746865206F776E6572 PUSH1 0x44 DUP3 ADD MSTORE PUSH1 0x64 ADD PUSH2 0xBC2 JUMP JUMPDEST PUSH1 0x1 PUSH1 0x1 PUSH1 0xA0 SHL SUB AND PUSH1 0x0 SWAP1 DUP2 MSTORE PUSH1 0x4 PUSH1 0x20 MSTORE PUSH1 0x40 SWAP1 KECCAK256 DUP1 SLOAD PUSH1 0xFF NOT AND PUSH1 0x1 OR SWAP1 SSTORE JUMP JUMPDEST PUSH1 0x0 SLOAD PUSH1 0x1 PUSH1 0x1 PUSH1 0xA0 SHL SUB AND CALLER EQ PUSH2 0x11AB JUMPI PUSH1 0x40 MLOAD PUSH3 0x461BCD PUSH1 0xE5 SHL DUP2 MSTORE PUSH1 0x20 PUSH1 0x4 DUP3 ADD DUP2 SWAP1 MSTORE PUSH1 0x24 DUP3 ADD MSTORE PUSH32 0x4F776E61626C653A2063616C6C6572206973206E6F7420746865206F776E6572 PUSH1 0x44 DUP3 ADD MSTORE PUSH1 0x64 ADD PUSH2 0xBC2 JUMP JUMPDEST PUSH1 0x1 PUSH1 0x1 PUSH1 0xA0 SHL SUB AND PUSH1 0x0 SWAP1 DUP2 MSTORE PUSH1 0x20 DUP1 MSTORE PUSH1 0x40 SWAP1 KECCAK256 DUP1 SLOAD PUSH1 0xFF NOT AND SWAP1 SSTORE JUMP JUMPDEST PUSH1 0x0 SLOAD PUSH1 0x1 PUSH1 0x1 PUSH1 0xA0 SHL SUB AND CALLER EQ PUSH2 0x1225 JUMPI PUSH1 0x40 MLOAD PUSH3 0x461BCD PUSH1 0xE5 SHL DUP2 MSTORE PUSH1 0x20 PUSH1 0x4 DUP3 ADD DUP2 SWAP1 MSTORE PUSH1 0x24 DUP3 ADD MSTORE PUSH32 0x4F776E61626C653A2063616C6C6572206973206E6F7420746865206F776E6572 PUSH1 0x44 DUP3 ADD MSTORE PUSH1 0x64 ADD PUSH2 0xBC2 JUMP JUMPDEST PUSH1 0x28 DUP1 SLOAD PUSH32 0xFFFFFFFFFFFFFFFFFFFFFFFFFFFFFFFFFFFFFFFFFFFFFFFFFFFFFFFFFF00FFFF AND SWAP1 SSTORE JUMP JUMPDEST PUSH1 0x0 SLOAD PUSH1 0x1 PUSH1 0x1 PUSH1 0xA0 SHL SUB AND CALLER EQ PUSH2 0x12A9 JUMPI PUSH1 0x40 MLOAD PUSH3 0x461BCD PUSH1 0xE5 SHL DUP2 MSTORE PUSH1 0x20 PUSH1 0x4 DUP3 ADD DUP2 SWAP1 MSTORE PUSH1 0x24 DUP3 ADD MSTORE PUSH32 0x4F776E61626C653A2063616C6C6572206973206E6F7420746865206F776E6572 PUSH1 0x44 DUP3 ADD MSTORE PUSH1 0x64 ADD PUSH2 0xBC2 JUMP JUMPDEST SELFBALANCE DUP1 ISZERO PUSH2 0x12EB JUMPI PUSH1 0x0 DUP1 SLOAD PUSH1 0x40 MLOAD PUSH1 0x1 PUSH1 0x1 PUSH1 0xA0 SHL SUB SWAP1 SWAP2 AND SWAP2 DUP4 ISZERO PUSH2 0x8FC MUL SWAP2 DUP5 SWAP2 DUP2 DUP2 DUP2 DUP6 DUP9 DUP9 CALL SWAP4 POP POP POP POP ISZERO DUP1 ISZERO PUSH2 0x12E9 JUMPI RETURNDATASIZE PUSH1 0x0 DUP1 RETURNDATACOPY RETURNDATASIZE PUSH1 0x0 REVERT JUMPDEST POP JUMPDEST POP JUMP JUMPDEST PUSH1 0x0 SLOAD PUSH1 0x1 PUSH1 0x1 PUSH1 0xA0 SHL SUB AND CALLER EQ PUSH2 0x1348 JUMPI PUSH1 0x40 MLOAD PUSH3 0x461BCD PUSH1 0xE5 SHL DUP2 MSTORE PUSH1 0x20 PUSH1 0x4 DUP3 ADD DUP2 SWAP1 MSTORE PUSH1 0x24 DUP3 ADD MSTORE PUSH32 0x4F776E61626C653A2063616C6C6572206973206E6F7420746865206F776E6572 PUSH1 0x44 DUP3 ADD MSTORE PUSH1 0x64 ADD PUSH2 0xBC2 JUMP JUMPDEST PUSH1 0x0 DUP1 SLOAD PUSH1 0x40 MLOAD PUSH1 0x1 PUSH1 0x1 PUSH1 0xA0 SHL SUB SWAP1 SWAP2 AND SWAP1 PUSH32 0x8BE0079C531659141344CD1FD0A4F28419497F9722A3DAAFE3B4186F6B6457E0 SWAP1 DUP4 SWAP1 LOG3 PUSH1 0x0 DUP1 SLOAD PUSH32 0xFFFFFFFFFFFFFFFFFFFFFFFF0000000000000000000000000000000000000000 AND SWAP1 SSTORE JUMP JUMPDEST PUSH1 0x0 SLOAD PUSH1 0x1 PUSH1 0x1 PUSH1 0xA0 SHL SUB AND CALLER EQ PUSH2 0x1404 JUMPI PUSH1 0x40 MLOAD PUSH3 0x461BCD PUSH1 0xE5 SHL DUP2 MSTORE PUSH1 0x20 PUSH1 0x4 DUP3 ADD DUP2 SWAP1 MSTORE PUSH1 0x24 DUP3 ADD MSTORE PUSH32 0x4F776E61626C653A2063616C6C6572206973206E6F7420746865206F776E6572 PUSH1 0x44 DUP3 ADD MSTORE PUSH1 0x64 ADD PUSH2 0xBC2 JUMP JUMPDEST PUSH1 0x1A DUP1 SLOAD PUSH1 0xFF NOT AND DUP4 ISZERO ISZERO OR SWAP1 SSTORE PUSH2 0x141D DUP2 PUSH1 0x3C PUSH2 0x3B0B JUMP JUMPDEST PUSH1 0x1A DUP1 SLOAD PUSH4 0xFFFFFFFF SWAP3 SWAP1 SWAP3 AND PUSH2 0x100 MUL PUSH32 0xFFFFFFFFFFFFFFFFFFFFFFFFFFFFFFFFFFFFFFFFFFFFFFFFFFFFFF00000000FF SWAP1 SWAP3 AND SWAP2 SWAP1 SWAP2 OR SWAP1 SSTORE POP POP JUMP JUMPDEST PUSH1 0x1D SLOAD PUSH1 0x0 SWAP1 PUSH2 0x146C JUMPI POP PUSH1 0x0 SWAP1 JUMP JUMPDEST PUSH1 0x0 PUSH2 0x1476 PUSH2 0x1539 JUMP JUMPDEST PUSH1 0x1D SLOAD SWAP1 SWAP2 POP DUP2 GT PUSH2 0x14B3 JUMPI PUSH1 0x1D SLOAD PUSH2 0x14A5 SWAP1 PUSH2 0x149F PUSH2 0x3E8 PUSH2 0x1499 DUP4 DUP7 PUSH2 0x2BC5 JUMP JUMPDEST SWAP1 PUSH2 0x2C07 JUMP JUMPDEST SWAP1 PUSH2 0x2B7C JUMP JUMPDEST PUSH2 0x14AE SWAP1 PUSH2 0x3B62 JUMP JUMPDEST PUSH2 0x14CA JUMP JUMPDEST PUSH1 0x1D SLOAD PUSH2 0x14CA SWAP1 PUSH2 0x149F PUSH2 0x3E8 PUSH2 0x1499 DUP6 DUP5 PUSH2 0x2BC5 JUMP JUMPDEST SWAP2 POP POP SWAP1 JUMP JUMPDEST PUSH1 0x0 SLOAD PUSH1 0x1 PUSH1 0x1 PUSH1 0xA0 SHL SUB AND CALLER EQ PUSH2 0x152A JUMPI PUSH1 0x40 MLOAD PUSH3 0x461BCD PUSH1 0xE5 SHL DUP2 MSTORE PUSH1 0x20 PUSH1 0x4 DUP3 ADD DUP2 SWAP1 MSTORE PUSH1 0x24 DUP3 ADD MSTORE PUSH32 0x4F776E61626C653A2063616C6C6572206973206E6F7420746865206F776E6572 PUSH1 0x44 DUP3 ADD MSTORE PUSH1 0x64 ADD PUSH2 0xBC2 JUMP JUMPDEST PUSH1 0x28 DUP1 SLOAD PUSH1 0xFF NOT AND PUSH1 0x1 OR SWAP1 SSTORE JUMP JUMPDEST PUSH1 0x0 DUP1 PUSH1 0x0 PUSH1 0x26 PUSH1 0x0 SWAP1 SLOAD SWAP1 PUSH2 0x100 EXP SWAP1 DIV PUSH1 0x1 PUSH1 0x1 PUSH1 0xA0 SHL SUB AND PUSH1 0x1 PUSH1 0x1 PUSH1 0xA0 SHL SUB AND PUSH4 0x902F1AC PUSH1 0x40 MLOAD DUP2 PUSH4 0xFFFFFFFF AND PUSH1 0xE0 SHL DUP2 MSTORE PUSH1 0x4 ADD PUSH1 0x60 PUSH1 0x40 MLOAD DUP1 DUP4 SUB DUP2 DUP7 DUP1 EXTCODESIZE ISZERO DUP1 ISZERO PUSH2 0x158C JUMPI PUSH1 0x0 DUP1 REVERT JUMPDEST POP GAS STATICCALL ISZERO DUP1 ISZERO PUSH2 0x15A0 JUMPI RETURNDATASIZE PUSH1 0x0 DUP1 RETURNDATACOPY RETURNDATASIZE PUSH1 0x0 REVERT JUMPDEST POP POP POP POP PUSH1 0x40 MLOAD RETURNDATASIZE PUSH1 0x1F NOT PUSH1 0x1F DUP3 ADD AND DUP3 ADD DUP1 PUSH1 0x40 MSTORE POP DUP2 ADD SWAP1 PUSH2 0x15C4 SWAP2 SWAP1 PUSH2 0x38ED JUMP JUMPDEST POP SWAP2 POP SWAP2 POP DUP2 PUSH14 0xFFFFFFFFFFFFFFFFFFFFFFFFFFFF AND PUSH1 0x0 EQ DUP1 PUSH2 0x15F6 JUMPI POP PUSH14 0xFFFFFFFFFFFFFFFFFFFFFFFFFFFF DUP2 AND ISZERO JUMPDEST ISZERO PUSH2 0x1604 JUMPI PUSH1 0x0 SWAP3 POP POP POP SWAP1 JUMP JUMPDEST PUSH1 0x26 SLOAD PUSH1 0x40 DUP1 MLOAD PUSH32 0xDFE168100000000000000000000000000000000000000000000000000000000 DUP2 MSTORE SWAP1 MLOAD ADDRESS SWAP3 PUSH1 0x1 PUSH1 0x1 PUSH1 0xA0 SHL SUB AND SWAP2 PUSH4 0xDFE1681 SWAP2 PUSH1 0x4 DUP1 DUP4 ADD SWAP3 PUSH1 0x20 SWAP3 SWAP2 SWAP1 DUP3 SWAP1 SUB ADD DUP2 DUP7 DUP1 EXTCODESIZE ISZERO DUP1 ISZERO PUSH2 0x1661 JUMPI PUSH1 0x0 DUP1 REVERT JUMPDEST POP GAS STATICCALL ISZERO DUP1 ISZERO PUSH2 0x1675 JUMPI RETURNDATASIZE PUSH1 0x0 DUP1 RETURNDATACOPY RETURNDATASIZE PUSH1 0x0 REVERT JUMPDEST POP POP POP POP PUSH1 0x40 MLOAD RETURNDATASIZE PUSH1 0x1F NOT PUSH1 0x1F DUP3 ADD AND DUP3 ADD DUP1 PUSH1 0x40 MSTORE POP DUP2 ADD SWAP1 PUSH2 0x1699 SWAP2 SWAP1 PUSH2 0x37B2 JUMP JUMPDEST PUSH1 0x1 PUSH1 0x1 PUSH1 0xA0 SHL SUB AND EQ PUSH2 0x16D6 JUMPI PUSH2 0x16D1 PUSH14 0xFFFFFFFFFFFFFFFFFFFFFFFFFFFF DUP1 DUP4 AND SWAP1 PUSH2 0x149F SWAP1 DUP6 AND PUSH8 0xDE0B6B3A7640000 PUSH2 0x2C07 JUMP JUMPDEST PUSH2 0x1700 JUMP JUMPDEST PUSH2 0x1700 PUSH14 0xFFFFFFFFFFFFFFFFFFFFFFFFFFFF DUP1 DUP5 AND SWAP1 PUSH2 0x149F SWAP1 DUP5 AND PUSH8 0xDE0B6B3A7640000 PUSH2 0x2C07 JUMP JUMPDEST SWAP3 POP POP POP SWAP1 JUMP JUMPDEST PUSH1 0x0 SLOAD PUSH1 0x1 PUSH1 0x1 PUSH1 0xA0 SHL SUB AND CALLER EQ PUSH2 0x1761 JUMPI PUSH1 0x40 MLOAD PUSH3 0x461BCD PUSH1 0xE5 SHL DUP2 MSTORE PUSH1 0x20 PUSH1 0x4 DUP3 ADD DUP2 SWAP1 MSTORE PUSH1 0x24 DUP3 ADD MSTORE PUSH32 0x4F776E61626C653A2063616C6C6572206973206E6F7420746865206F776E6572 PUSH1 0x44 DUP3 ADD MSTORE PUSH1 0x64 ADD PUSH2 0xBC2 JUMP JUMPDEST PUSH1 0x28 DUP1 SLOAD PUSH32 0xFFFFFFFFFFFFFFFFFFFFFFFFFFFFFFFFFFFFFFFFFFFFFFFFFFFFFF00FFFFFFFF AND SWAP1 SSTORE JUMP JUMPDEST PUSH1 0x1 PUSH1 0x1 PUSH1 0xA0 SHL SUB DUP2 AND PUSH1 0x0 SWAP1 DUP2 MSTORE PUSH1 0x1B PUSH1 0x20 MSTORE PUSH1 0x40 DUP2 KECCAK256 SLOAD DUP2 SWAP1 DUP2 SWAP1 DUP2 SWAP1 DUP2 SWAP1 TIMESTAMP LT PUSH2 0x17B9 JUMPI PUSH1 0x0 PUSH2 0x17DC JUMP JUMPDEST PUSH1 0x1 PUSH1 0x1 PUSH1 0xA0 SHL SUB DUP7 AND PUSH1 0x0 SWAP1 DUP2 MSTORE PUSH1 0x1B PUSH1 0x20 MSTORE PUSH1 0x40 SWAP1 KECCAK256 SLOAD PUSH2 0x17DC SWAP1 TIMESTAMP PUSH2 0x2BC5 JUMP JUMPDEST SWAP1 POP PUSH2 0x17EB DUP2 PUSH3 0x15180 PUSH2 0x2B7C JUMP JUMPDEST SWAP5 POP PUSH2 0x17FA PUSH3 0x15180 DUP3 PUSH2 0x3B4E JUMP JUMPDEST SWAP1 POP PUSH2 0x1808 DUP2 PUSH2 0xE10 PUSH2 0x2B7C JUMP JUMPDEST SWAP4 POP PUSH2 0x1816 PUSH2 0xE10 DUP3 PUSH2 0x3B4E JUMP JUMPDEST SWAP1 POP PUSH2 0x1823 DUP2 PUSH1 0x3C PUSH2 0x2B7C JUMP JUMPDEST SWAP3 POP PUSH2 0x1830 PUSH1 0x3C DUP3 PUSH2 0x3B4E JUMP JUMPDEST SWAP2 POP POP SWAP2 SWAP4 POP SWAP2 SWAP4 JUMP JUMPDEST PUSH1 0x0 SLOAD PUSH1 0x1 PUSH1 0x1 PUSH1 0xA0 SHL SUB AND CALLER EQ PUSH2 0x1894 JUMPI PUSH1 0x40 MLOAD PUSH3 0x461BCD PUSH1 0xE5 SHL DUP2 MSTORE PUSH1 0x20 PUSH1 0x4 DUP3 ADD DUP2 SWAP1 MSTORE PUSH1 0x24 DUP3 ADD MSTORE PUSH32 0x4F776E61626C653A2063616C6C6572206973206E6F7420746865206F776E6572 PUSH1 0x44 DUP3 ADD MSTORE PUSH1 0x64 ADD PUSH2 0xBC2 JUMP JUMPDEST PUSH1 0x19 SSTORE JUMP JUMPDEST PUSH1 0x0 PUSH2 0xB62 CALLER DUP5 DUP5 PUSH2 0x240D JUMP JUMPDEST PUSH1 0x0 SLOAD PUSH1 0x1 PUSH1 0x1 PUSH1 0xA0 SHL SUB AND CALLER EQ PUSH2 0x1900 JUMPI PUSH1 0x40 MLOAD PUSH3 0x461BCD PUSH1 0xE5 SHL DUP2 MSTORE PUSH1 0x20 PUSH1 0x4 DUP3 ADD DUP2 SWAP1 MSTORE PUSH1 0x24 DUP3 ADD MSTORE PUSH32 0x4F776E61626C653A2063616C6C6572206973206E6F7420746865206F776E6572 PUSH1 0x44 DUP3 ADD MSTORE PUSH1 0x64 ADD PUSH2 0xBC2 JUMP JUMPDEST ADDRESS PUSH1 0x0 SWAP1 DUP2 MSTORE PUSH1 0x2 PUSH1 0x20 MSTORE PUSH1 0x40 SWAP1 KECCAK256 SLOAD DUP1 ISZERO PUSH2 0x12EB JUMPI PUSH2 0x12EB DUP2 PUSH2 0x2CA2 JUMP JUMPDEST PUSH1 0x0 SLOAD PUSH1 0x1 PUSH1 0x1 PUSH1 0xA0 SHL SUB AND CALLER EQ PUSH2 0x1979 JUMPI PUSH1 0x40 MLOAD PUSH3 0x461BCD PUSH1 0xE5 SHL DUP2 MSTORE PUSH1 0x20 PUSH1 0x4 DUP3 ADD DUP2 SWAP1 MSTORE PUSH1 0x24 DUP3 ADD MSTORE PUSH32 0x4F776E61626C653A2063616C6C6572206973206E6F7420746865206F776E6572 PUSH1 0x44 DUP3 ADD MSTORE PUSH1 0x64 ADD PUSH2 0xBC2 JUMP JUMPDEST PUSH1 0x24 DUP1 SLOAD PUSH32 0xFFFFFFFFFFFFFFFFFFFFFFFF0000000000000000000000000000000000000000 AND PUSH1 0x1 PUSH1 0x1 PUSH1 0xA0 SHL SUB SWAP3 SWAP1 SWAP3 AND SWAP2 SWAP1 SWAP2 OR SWAP1 SSTORE JUMP JUMPDEST PUSH1 0x0 SLOAD PUSH1 0x1 PUSH1 0x1 PUSH1 0xA0 SHL SUB AND CALLER EQ PUSH2 0x1A0D JUMPI PUSH1 0x40 MLOAD PUSH3 0x461BCD PUSH1 0xE5 SHL DUP2 MSTORE PUSH1 0x20 PUSH1 0x4 DUP3 ADD DUP2 SWAP1 MSTORE PUSH1 0x24 DUP3 ADD MSTORE PUSH32 0x4F776E61626C653A2063616C6C6572206973206E6F7420746865206F776E6572 PUSH1 0x44 DUP3 ADD MSTORE PUSH1 0x64 ADD PUSH2 0xBC2 JUMP JUMPDEST TIMESTAMP PUSH1 0x5 SSTORE PUSH1 0x6 SSTORE PUSH1 0x28 DUP1 SLOAD PUSH1 0xFF NOT AND PUSH1 0x1 OR SWAP1 SSTORE JUMP JUMPDEST PUSH1 0x0 SLOAD PUSH1 0x1 PUSH1 0x1 PUSH1 0xA0 SHL SUB AND CALLER EQ PUSH2 0x1A7D JUMPI PUSH1 0x40 MLOAD PUSH3 0x461BCD PUSH1 0xE5 SHL DUP2 MSTORE PUSH1 0x20 PUSH1 0x4 DUP3 ADD DUP2 SWAP1 MSTORE PUSH1 0x24 DUP3 ADD MSTORE PUSH32 0x4F776E61626C653A2063616C6C6572206973206E6F7420746865206F776E6572 PUSH1 0x44 DUP3 ADD MSTORE PUSH1 0x64 ADD PUSH2 0xBC2 JUMP JUMPDEST PUSH1 0x28 DUP1 SLOAD PUSH32 0xFFFFFFFFFFFFFFFFFFFFFFFFFFFFFFFFFFFFFFFFFFFFFFFFFFFFFFFF00FFFFFF AND SWAP1 SSTORE JUMP JUMPDEST PUSH1 0x0 SLOAD PUSH1 0x1 PUSH1 0x1 PUSH1 0xA0 SHL SUB AND CALLER EQ PUSH2 0x1B01 JUMPI PUSH1 0x40 MLOAD PUSH3 0x461BCD PUSH1 0xE5 SHL DUP2 MSTORE PUSH1 0x20 PUSH1 0x4 DUP3 ADD DUP2 SWAP1 MSTORE PUSH1 0x24 DUP3 ADD MSTORE PUSH32 0x4F776E61626C653A2063616C6C6572206973206E6F7420746865206F776E6572 PUSH1 0x44 DUP3 ADD MSTORE PUSH1 0x64 ADD PUSH2 0xBC2 JUMP JUMPDEST PUSH1 0x23 DUP1 SLOAD PUSH32 0xFFFFFFFFFFFFFFFFFFFFFFFF0000000000000000000000000000000000000000 AND PUSH1 0x1 PUSH1 0x1 PUSH1 0xA0 SHL SUB SWAP3 SWAP1 SWAP3 AND SWAP2 SWAP1 SWAP2 OR SWAP1 SSTORE JUMP JUMPDEST PUSH1 0x0 SLOAD PUSH1 0x1 PUSH1 0x1 PUSH1 0xA0 SHL SUB AND CALLER EQ PUSH2 0x1B95 JUMPI PUSH1 0x40 MLOAD PUSH3 0x461BCD PUSH1 0xE5 SHL DUP2 MSTORE PUSH1 0x20 PUSH1 0x4 DUP3 ADD DUP2 SWAP1 MSTORE PUSH1 0x24 DUP3 ADD MSTORE PUSH32 0x4F776E61626C653A2063616C6C6572206973206E6F7420746865206F776E6572 PUSH1 0x44 DUP3 ADD MSTORE PUSH1 0x64 ADD PUSH2 0xBC2 JUMP JUMPDEST PUSH1 0x8 SSTORE JUMP JUMPDEST PUSH1 0x0 SLOAD PUSH1 0x1 PUSH1 0x1 PUSH1 0xA0 SHL SUB AND CALLER EQ PUSH2 0x1BF4 JUMPI PUSH1 0x40 MLOAD PUSH3 0x461BCD PUSH1 0xE5 SHL DUP2 MSTORE PUSH1 0x20 PUSH1 0x4 DUP3 ADD DUP2 SWAP1 MSTORE PUSH1 0x24 DUP3 ADD MSTORE PUSH32 0x4F776E61626C653A2063616C6C6572206973206E6F7420746865206F776E6572 PUSH1 0x44 DUP3 ADD MSTORE PUSH1 0x64 ADD PUSH2 0xBC2 JUMP JUMPDEST PUSH1 0x0 PUSH2 0x1C0C DUP3 PUSH2 0x1C06 DUP6 DUP2 DUP10 DUP10 PUSH2 0x2EDF JUMP JUMPDEST SWAP1 PUSH2 0x2EDF JUMP JUMPDEST SWAP1 POP PUSH1 0xFA DUP2 GT ISZERO PUSH2 0x1C85 JUMPI PUSH1 0x40 MLOAD PUSH3 0x461BCD PUSH1 0xE5 SHL DUP2 MSTORE PUSH1 0x20 PUSH1 0x4 DUP3 ADD MSTORE PUSH1 0x31 PUSH1 0x24 DUP3 ADD MSTORE PUSH32 0x53756D206F66206275792066656573206D757374206265206C65737320746861 PUSH1 0x44 DUP3 ADD MSTORE PUSH32 0x6E206F7220657175616C20746F20323525000000000000000000000000000000 PUSH1 0x64 DUP3 ADD MSTORE PUSH1 0x84 ADD PUSH2 0xBC2 JUMP JUMPDEST PUSH1 0x28 SLOAD PUSH5 0x100000000 SWAP1 DIV PUSH1 0xFF AND PUSH2 0x1CDF JUMPI PUSH1 0x40 MLOAD PUSH3 0x461BCD PUSH1 0xE5 SHL DUP2 MSTORE PUSH1 0x20 PUSH1 0x4 DUP3 ADD MSTORE PUSH1 0x18 PUSH1 0x24 DUP3 ADD MSTORE PUSH32 0x546869732066756E6374696F6E20697320646961626C65640000000000000000 PUSH1 0x44 DUP3 ADD MSTORE PUSH1 0x64 ADD PUSH2 0xBC2 JUMP JUMPDEST PUSH1 0xD DUP6 SWAP1 SSTORE PUSH1 0x9 DUP5 SWAP1 SSTORE PUSH1 0xF DUP4 SWAP1 SSTORE PUSH1 0xB DUP3 SWAP1 SSTORE PUSH1 0xE DUP6 SWAP1 SSTORE PUSH1 0xA DUP5 SWAP1 SSTORE PUSH1 0x10 DUP4 SWAP1 SSTORE PUSH1 0xC DUP3 SWAP1 SSTORE PUSH1 0x40 DUP1 MLOAD DUP7 DUP2 MSTORE PUSH1 0x20 DUP2 ADD DUP7 SWAP1 MSTORE SWAP1 DUP2 ADD DUP5 SWAP1 MSTORE PUSH1 0x60 DUP2 ADD DUP4 SWAP1 MSTORE PUSH32 0x892B2CAA2D791BF7B8D9A49C4DB7A4513FF1AE2E0E068ED217F9D5AB4C1A28F0 SWAP1 PUSH1 0x80 ADD JUMPDEST PUSH1 0x40 MLOAD DUP1 SWAP2 SUB SWAP1 LOG1 POP POP POP POP POP JUMP JUMPDEST PUSH1 0x0 SLOAD PUSH1 0x1 PUSH1 0x1 PUSH1 0xA0 SHL SUB AND CALLER EQ PUSH2 0x1DB1 JUMPI PUSH1 0x40 MLOAD PUSH3 0x461BCD PUSH1 0xE5 SHL DUP2 MSTORE PUSH1 0x20 PUSH1 0x4 DUP3 ADD DUP2 SWAP1 MSTORE PUSH1 0x24 DUP3 ADD MSTORE PUSH32 0x4F776E61626C653A2063616C6C6572206973206E6F7420746865206F776E6572 PUSH1 0x44 DUP3 ADD MSTORE PUSH1 0x64 ADD PUSH2 0xBC2 JUMP JUMPDEST PUSH1 0x1 PUSH1 0x1 PUSH1 0xA0 SHL SUB AND PUSH1 0x0 SWAP1 DUP2 MSTORE PUSH1 0x4 PUSH1 0x20 MSTORE PUSH1 0x40 SWAP1 KECCAK256 DUP1 SLOAD PUSH1 0xFF NOT AND SWAP1 SSTORE JUMP JUMPDEST PUSH1 0x0 SLOAD PUSH1 0x1 PUSH1 0x1 PUSH1 0xA0 SHL SUB AND CALLER EQ PUSH2 0x1E2C JUMPI PUSH1 0x40 MLOAD PUSH3 0x461BCD PUSH1 0xE5 SHL DUP2 MSTORE PUSH1 0x20 PUSH1 0x4 DUP3 ADD DUP2 SWAP1 MSTORE PUSH1 0x24 DUP3 ADD MSTORE PUSH32 0x4F776E61626C653A2063616C6C6572206973206E6F7420746865206F776E6572 PUSH1 0x44 DUP3 ADD MSTORE PUSH1 0x64 ADD PUSH2 0xBC2 JUMP JUMPDEST PUSH1 0x1 PUSH1 0x1 PUSH1 0xA0 SHL SUB DUP2 AND PUSH2 0x1EA8 JUMPI PUSH1 0x40 MLOAD PUSH3 0x461BCD PUSH1 0xE5 SHL DUP2 MSTORE PUSH1 0x20 PUSH1 0x4 DUP3 ADD MSTORE PUSH1 0x26 PUSH1 0x24 DUP3 ADD MSTORE PUSH32 0x4F776E61626C653A206E6577206F776E657220697320746865207A65726F2061 PUSH1 0x44 DUP3 ADD MSTORE PUSH32 0x6464726573730000000000000000000000000000000000000000000000000000 PUSH1 0x64 DUP3 ADD MSTORE PUSH1 0x84 ADD PUSH2 0xBC2 JUMP JUMPDEST PUSH2 0x12EB DUP2 PUSH2 0x2F3E JUMP JUMPDEST PUSH1 0x0 SLOAD PUSH1 0x1 PUSH1 0x1 PUSH1 0xA0 SHL SUB AND CALLER EQ PUSH2 0x1F0B JUMPI PUSH1 0x40 MLOAD PUSH3 0x461BCD PUSH1 0xE5 SHL DUP2 MSTORE PUSH1 0x20 PUSH1 0x4 DUP3 ADD DUP2 SWAP1 MSTORE PUSH1 0x24 DUP3 ADD MSTORE PUSH32 0x4F776E61626C653A2063616C6C6572206973206E6F7420746865206F776E6572 PUSH1 0x44 DUP3 ADD MSTORE PUSH1 0x64 ADD PUSH2 0xBC2 JUMP JUMPDEST PUSH1 0x0 PUSH2 0x1F1D DUP3 PUSH2 0x1C06 DUP6 DUP2 DUP10 DUP10 PUSH2 0x2EDF JUMP JUMPDEST SWAP1 POP PUSH1 0xFA DUP2 GT ISZERO PUSH2 0x1F96 JUMPI PUSH1 0x40 MLOAD PUSH3 0x461BCD PUSH1 0xE5 SHL DUP2 MSTORE PUSH1 0x20 PUSH1 0x4 DUP3 ADD MSTORE PUSH1 0x32 PUSH1 0x24 DUP3 ADD MSTORE PUSH32 0x53756D206F662073656C6C2066656573206D757374206265206C657373207468 PUSH1 0x44 DUP3 ADD MSTORE PUSH32 0x616E206F7220657175616C20746F203235250000000000000000000000000000 PUSH1 0x64 DUP3 ADD MSTORE PUSH1 0x84 ADD PUSH2 0xBC2 JUMP JUMPDEST PUSH1 0x28 SLOAD PUSH5 0x100000000 SWAP1 DIV PUSH1 0xFF AND PUSH2 0x1FF0 JUMPI PUSH1 0x40 MLOAD PUSH3 0x461BCD PUSH1 0xE5 SHL DUP2 MSTORE PUSH1 0x20 PUSH1 0x4 DUP3 ADD MSTORE PUSH1 0x18 PUSH1 0x24 DUP3 ADD MSTORE PUSH32 0x546869732066756E6374696F6E20697320646961626C65640000000000000000 PUSH1 0x44 DUP3 ADD MSTORE PUSH1 0x64 ADD PUSH2 0xBC2 JUMP JUMPDEST PUSH1 0x15 DUP6 SWAP1 SSTORE PUSH1 0x11 DUP5 SWAP1 SSTORE PUSH1 0x17 DUP4 SWAP1 SSTORE PUSH1 0x13 DUP3 SWAP1 SSTORE PUSH1 0x16 DUP6 SWAP1 SSTORE PUSH1 0x12 DUP5 SWAP1 SSTORE PUSH1 0x18 DUP4 SWAP1 SSTORE PUSH1 0x14 DUP3 SWAP1 SSTORE PUSH1 0x40 DUP1 MLOAD DUP7 DUP2 MSTORE PUSH1 0x20 DUP2 ADD DUP7 SWAP1 MSTORE SWAP1 DUP2 ADD DUP5 SWAP1 MSTORE PUSH1 0x60 DUP2 ADD DUP4 SWAP1 MSTORE PUSH32 0x439932620C72DDDEA29980C098BCA1A482729646D1216B226D723C6D278A30D1 SWAP1 PUSH1 0x80 ADD PUSH2 0x1D48 JUMP JUMPDEST PUSH1 0x0 SLOAD PUSH1 0x1 PUSH1 0x1 PUSH1 0xA0 SHL SUB AND CALLER EQ PUSH2 0x20B7 JUMPI PUSH1 0x40 MLOAD PUSH3 0x461BCD PUSH1 0xE5 SHL DUP2 MSTORE PUSH1 0x20 PUSH1 0x4 DUP3 ADD DUP2 SWAP1 MSTORE PUSH1 0x24 DUP3 ADD MSTORE PUSH32 0x4F776E61626C653A2063616C6C6572206973206E6F7420746865206F776E6572 PUSH1 0x44 DUP3 ADD MSTORE PUSH1 0x64 ADD PUSH2 0xBC2 JUMP JUMPDEST PUSH2 0x3E8 DUP2 PUSH2 0xFFFF AND LT PUSH2 0x2132 JUMPI PUSH1 0x40 MLOAD PUSH3 0x461BCD PUSH1 0xE5 SHL DUP2 MSTORE PUSH1 0x20 PUSH1 0x4 DUP3 ADD MSTORE PUSH1 0x28 PUSH1 0x24 DUP3 ADD MSTORE PUSH32 0x547269676765722070657263656E74616765206D757374206265203C20313030 PUSH1 0x44 DUP3 ADD MSTORE PUSH32 0x3020283130302529000000000000000000000000000000000000000000000000 PUSH1 0x64 DUP3 ADD MSTORE PUSH1 0x84 ADD PUSH2 0xBC2 JUMP JUMPDEST PUSH1 0x1C DUP1 SLOAD PUSH32 0xFFFFFFFFFFFFFFFFFFFFFFFFFFFFFFFFFFFFFFFFFFFFFFFFFFFFFFFFFF000000 AND DUP4 ISZERO DUP1 ISZERO PUSH32 0xFFFFFFFFFFFFFFFFFFFFFFFFFFFFFFFFFFFFFFFFFFFFFFFFFFFFFFFFFF0000FF AND SWAP2 SWAP1 SWAP2 OR PUSH2 0x100 PUSH2 0xFFFF DUP6 AND MUL OR SWAP1 SWAP2 SSTORE DUP3 SWAP1 PUSH2 0x219B JUMPI POP PUSH1 0x1D SLOAD ISZERO JUMPDEST ISZERO PUSH2 0x12E9 JUMPI PUSH1 0x0 PUSH2 0x21AA PUSH2 0x1539 JUMP JUMPDEST SWAP1 POP DUP1 ISZERO PUSH2 0x1010 JUMPI PUSH1 0x1D SSTORE POP POP JUMP JUMPDEST PUSH1 0x0 SLOAD PUSH1 0x1 PUSH1 0x1 PUSH1 0xA0 SHL SUB AND CALLER EQ PUSH2 0x2213 JUMPI PUSH1 0x40 MLOAD PUSH3 0x461BCD PUSH1 0xE5 SHL DUP2 MSTORE PUSH1 0x20 PUSH1 0x4 DUP3 ADD DUP2 SWAP1 MSTORE PUSH1 0x24 DUP3 ADD MSTORE PUSH32 0x4F776E61626C653A2063616C6C6572206973206E6F7420746865206F776E6572 PUSH1 0x44 DUP3 ADD MSTORE PUSH1 0x64 ADD PUSH2 0xBC2 JUMP JUMPDEST PUSH1 0x28 SLOAD PUSH4 0x1000000 SWAP1 DIV PUSH1 0xFF AND PUSH2 0x2292 JUMPI PUSH1 0x40 MLOAD PUSH3 0x461BCD PUSH1 0xE5 SHL DUP2 MSTORE PUSH1 0x20 PUSH1 0x4 DUP3 ADD MSTORE PUSH1 0x28 PUSH1 0x24 DUP3 ADD MSTORE PUSH32 0x7468697320636F6E74726163742063616E6E6F7420626C61636B6C6973742061 PUSH1 0x44 DUP3 ADD MSTORE PUSH32 0x6464726573736573000000000000000000000000000000000000000000000000 PUSH1 0x64 DUP3 ADD MSTORE PUSH1 0x84 ADD PUSH2 0xBC2 JUMP JUMPDEST PUSH1 0x1 PUSH1 0x1 PUSH1 0xA0 SHL SUB AND PUSH1 0x0 SWAP1 DUP2 MSTORE PUSH1 0x20 DUP1 MSTORE PUSH1 0x40 SWAP1 KECCAK256 DUP1 SLOAD PUSH1 0xFF NOT AND PUSH1 0x1 OR SWAP1 SSTORE JUMP JUMPDEST PUSH1 0x1 PUSH1 0x1 PUSH1 0xA0 SHL SUB DUP4 AND PUSH2 0x2330 JUMPI PUSH1 0x40 MLOAD PUSH3 0x461BCD PUSH1 0xE5 SHL DUP2 MSTORE PUSH1 0x20 PUSH1 0x4 DUP3 ADD MSTORE PUSH1 0x24 DUP1 DUP3 ADD MSTORE PUSH32 0x45524332303A20617070726F76652066726F6D20746865207A65726F20616464 PUSH1 0x44 DUP3 ADD MSTORE PUSH32 0x7265737300000000000000000000000000000000000000000000000000000000 PUSH1 0x64 DUP3 ADD MSTORE PUSH1 0x84 ADD PUSH2 0xBC2 JUMP JUMPDEST PUSH1 0x1 PUSH1 0x1 PUSH1 0xA0 SHL SUB DUP3 AND PUSH2 0x23AC JUMPI PUSH1 0x40 MLOAD PUSH3 0x461BCD PUSH1 0xE5 SHL DUP2 MSTORE PUSH1 0x20 PUSH1 0x4 DUP3 ADD MSTORE PUSH1 0x22 PUSH1 0x24 DUP3 ADD MSTORE PUSH32 0x45524332303A20617070726F766520746F20746865207A65726F206164647265 PUSH1 0x44 DUP3 ADD MSTORE PUSH32 0x7373000000000000000000000000000000000000000000000000000000000000 PUSH1 0x64 DUP3 ADD MSTORE PUSH1 0x84 ADD PUSH2 0xBC2 JUMP JUMPDEST PUSH1 0x1 PUSH1 0x1 PUSH1 0xA0 SHL SUB DUP4 DUP2 AND PUSH1 0x0 DUP2 DUP2 MSTORE PUSH1 0x3 PUSH1 0x20 SWAP1 DUP2 MSTORE PUSH1 0x40 DUP1 DUP4 KECCAK256 SWAP5 DUP8 AND DUP1 DUP5 MSTORE SWAP5 DUP3 MSTORE SWAP2 DUP3 SWAP1 KECCAK256 DUP6 SWAP1 SSTORE SWAP1 MLOAD DUP5 DUP2 MSTORE PUSH32 0x8C5BE1E5EBEC7D5BD14F71427D1E84F3DD0314C0F7B2291E5B200AC8C7C3B925 SWAP2 ADD PUSH1 0x40 MLOAD DUP1 SWAP2 SUB SWAP1 LOG3 POP POP POP JUMP JUMPDEST PUSH1 0x1 PUSH1 0x1 PUSH1 0xA0 SHL SUB DUP4 AND PUSH2 0x2489 JUMPI PUSH1 0x40 MLOAD PUSH3 0x461BCD PUSH1 0xE5 SHL DUP2 MSTORE PUSH1 0x20 PUSH1 0x4 DUP3 ADD MSTORE PUSH1 0x25 PUSH1 0x24 DUP3 ADD MSTORE PUSH32 0x45524332303A207472616E736665722066726F6D20746865207A65726F206164 PUSH1 0x44 DUP3 ADD MSTORE PUSH32 0x6472657373000000000000000000000000000000000000000000000000000000 PUSH1 0x64 DUP3 ADD MSTORE PUSH1 0x84 ADD PUSH2 0xBC2 JUMP JUMPDEST PUSH1 0x1 PUSH1 0x1 PUSH1 0xA0 SHL SUB DUP3 AND PUSH2 0x2505 JUMPI PUSH1 0x40 MLOAD PUSH3 0x461BCD PUSH1 0xE5 SHL DUP2 MSTORE PUSH1 0x20 PUSH1 0x4 DUP3 ADD MSTORE PUSH1 0x23 PUSH1 0x24 DUP3 ADD MSTORE PUSH32 0x45524332303A207472616E7366657220746F20746865207A65726F2061646472 PUSH1 0x44 DUP3 ADD MSTORE PUSH32 0x6573730000000000000000000000000000000000000000000000000000000000 PUSH1 0x64 DUP3 ADD MSTORE PUSH1 0x84 ADD PUSH2 0xBC2 JUMP JUMPDEST PUSH1 0x0 DUP2 GT PUSH2 0x257B JUMPI PUSH1 0x40 MLOAD PUSH3 0x461BCD PUSH1 0xE5 SHL DUP2 MSTORE PUSH1 0x20 PUSH1 0x4 DUP3 ADD MSTORE PUSH1 0x29 PUSH1 0x24 DUP3 ADD MSTORE PUSH32 0x5472616E7366657220616D6F756E74206D757374206265206772656174657220 PUSH1 0x44 DUP3 ADD MSTORE PUSH32 0x7468616E207A65726F0000000000000000000000000000000000000000000000 PUSH1 0x64 DUP3 ADD MSTORE PUSH1 0x84 ADD PUSH2 0xBC2 JUMP JUMPDEST PUSH1 0x1 PUSH2 0x258F PUSH1 0x0 SLOAD PUSH1 0x1 PUSH1 0x1 PUSH1 0xA0 SHL SUB AND SWAP1 JUMP JUMPDEST PUSH1 0x1 PUSH1 0x1 PUSH1 0xA0 SHL SUB AND DUP5 PUSH1 0x1 PUSH1 0x1 PUSH1 0xA0 SHL SUB AND EQ ISZERO DUP1 ISZERO PUSH2 0x25BE JUMPI POP PUSH1 0x0 SLOAD PUSH1 0x1 PUSH1 0x1 PUSH1 0xA0 SHL SUB DUP5 DUP2 AND SWAP2 AND EQ ISZERO JUMPDEST DUP1 ISZERO PUSH2 0x25D3 JUMPI POP PUSH1 0x1 PUSH1 0x1 PUSH1 0xA0 SHL SUB DUP5 AND ADDRESS EQ ISZERO JUMPDEST DUP1 ISZERO PUSH2 0x25E8 JUMPI POP PUSH1 0x1 PUSH1 0x1 PUSH1 0xA0 SHL SUB DUP4 AND ADDRESS EQ ISZERO JUMPDEST ISZERO PUSH2 0x2AE8 JUMPI PUSH1 0x28 SLOAD PUSH1 0xFF AND PUSH2 0x263F JUMPI PUSH1 0x40 MLOAD PUSH3 0x461BCD PUSH1 0xE5 SHL DUP2 MSTORE PUSH1 0x20 PUSH1 0x4 DUP3 ADD MSTORE PUSH1 0x15 PUSH1 0x24 DUP3 ADD MSTORE PUSH32 0x54726164696E67206973206E6F74206163746976650000000000000000000000 PUSH1 0x44 DUP3 ADD MSTORE PUSH1 0x64 ADD PUSH2 0xBC2 JUMP JUMPDEST PUSH1 0x26 SLOAD PUSH1 0x1 PUSH1 0x1 PUSH1 0xA0 SHL SUB DUP6 DUP2 AND SWAP2 AND EQ DUP1 ISZERO PUSH2 0x266A JUMPI POP PUSH1 0x25 SLOAD PUSH1 0x1 PUSH1 0x1 PUSH1 0xA0 SHL SUB DUP5 DUP2 AND SWAP2 AND EQ ISZERO JUMPDEST ISZERO PUSH2 0x2787 JUMPI PUSH1 0x6 SLOAD PUSH1 0x5 SLOAD PUSH2 0x267E SWAP2 PUSH2 0x2EDF JUMP JUMPDEST TIMESTAMP GT PUSH2 0x26A7 JUMPI PUSH1 0x1 PUSH1 0x1 PUSH1 0xA0 SHL SUB DUP4 AND PUSH1 0x0 SWAP1 DUP2 MSTORE PUSH1 0x20 DUP1 MSTORE PUSH1 0x40 SWAP1 KECCAK256 DUP1 SLOAD PUSH1 0xFF NOT AND PUSH1 0x1 OR SWAP1 SSTORE JUMPDEST PUSH1 0x1 PUSH1 0x1 PUSH1 0xA0 SHL SUB DUP4 AND PUSH1 0x0 SWAP1 DUP2 MSTORE PUSH1 0x4 PUSH1 0x20 MSTORE PUSH1 0x40 SWAP1 KECCAK256 SLOAD PUSH1 0xFF AND PUSH2 0x2787 JUMPI PUSH1 0x7 SLOAD PUSH2 0x26ED DUP4 PUSH2 0x1C06 DUP7 PUSH1 0x1 PUSH1 0x1 PUSH1 0xA0 SHL SUB AND PUSH1 0x0 SWAP1 DUP2 MSTORE PUSH1 0x2 PUSH1 0x20 MSTORE PUSH1 0x40 SWAP1 KECCAK256 SLOAD SWAP1 JUMP JUMPDEST GT ISZERO PUSH2 0x2787 JUMPI PUSH1 0x40 MLOAD PUSH3 0x461BCD PUSH1 0xE5 SHL DUP2 MSTORE PUSH1 0x20 PUSH1 0x4 DUP3 ADD MSTORE PUSH1 0x42 PUSH1 0x24 DUP3 ADD MSTORE PUSH32 0x2E77616C6C65742062616C616E6365206166746572207472616E73666572206D PUSH1 0x44 DUP3 ADD MSTORE PUSH32 0x757374206265206C657373207468616E206D61782077616C6C657420616D6F75 PUSH1 0x64 DUP3 ADD MSTORE PUSH32 0x6E74000000000000000000000000000000000000000000000000000000000000 PUSH1 0x84 DUP3 ADD MSTORE PUSH1 0xA4 ADD PUSH2 0xBC2 JUMP JUMPDEST PUSH1 0x28 SLOAD PUSH2 0x100 SWAP1 DIV PUSH1 0xFF AND ISZERO DUP1 ISZERO PUSH2 0x27AD JUMPI POP PUSH1 0x26 SLOAD PUSH1 0x1 PUSH1 0x1 PUSH1 0xA0 SHL SUB DUP6 DUP2 AND SWAP2 AND EQ ISZERO JUMPDEST DUP1 ISZERO PUSH2 0x27C6 JUMPI POP PUSH1 0x26 SLOAD PUSH1 0x1 PUSH1 0x1 PUSH1 0xA0 SHL SUB DUP5 DUP2 AND SWAP2 AND EQ JUMPDEST ISZERO PUSH2 0x29D7 JUMPI PUSH1 0x1 PUSH1 0x1 PUSH1 0xA0 SHL SUB DUP5 AND PUSH1 0x0 SWAP1 DUP2 MSTORE PUSH1 0x20 DUP1 MSTORE PUSH1 0x40 SWAP1 KECCAK256 SLOAD PUSH1 0xFF AND ISZERO DUP1 ISZERO PUSH2 0x280B JUMPI POP PUSH1 0x1 PUSH1 0x1 PUSH1 0xA0 SHL SUB DUP4 AND PUSH1 0x0 SWAP1 DUP2 MSTORE PUSH1 0x20 DUP1 MSTORE PUSH1 0x40 SWAP1 KECCAK256 SLOAD PUSH1 0xFF AND ISZERO JUMPDEST PUSH2 0x2814 JUMPI PUSH1 0x0 DUP1 REVERT JUMPDEST PUSH1 0x1A SLOAD PUSH1 0xFF AND ISZERO PUSH2 0x28B9 JUMPI PUSH1 0x1 PUSH1 0x1 PUSH1 0xA0 SHL SUB DUP5 AND PUSH1 0x0 SWAP1 DUP2 MSTORE PUSH1 0x1B PUSH1 0x20 MSTORE PUSH1 0x40 SWAP1 KECCAK256 SLOAD TIMESTAMP LT ISZERO PUSH2 0x2887 JUMPI PUSH1 0x40 MLOAD PUSH3 0x461BCD PUSH1 0xE5 SHL DUP2 MSTORE PUSH1 0x20 PUSH1 0x4 DUP3 ADD MSTORE PUSH1 0x1C PUSH1 0x24 DUP3 ADD MSTORE PUSH32 0x5374726F6E672048616E64732050726F746F636F6C2061637469766500000000 PUSH1 0x44 DUP3 ADD MSTORE PUSH1 0x64 ADD PUSH2 0xBC2 JUMP JUMPDEST PUSH1 0x1A SLOAD PUSH2 0x289F SWAP1 PUSH2 0x100 SWAP1 DIV PUSH4 0xFFFFFFFF AND TIMESTAMP PUSH2 0x3AA2 JUMP JUMPDEST PUSH1 0x1 PUSH1 0x1 PUSH1 0xA0 SHL SUB DUP6 AND PUSH1 0x0 SWAP1 DUP2 MSTORE PUSH1 0x1B PUSH1 0x20 MSTORE PUSH1 0x40 SWAP1 KECCAK256 SSTORE JUMPDEST PUSH1 0x1C SLOAD PUSH1 0xFF AND ISZERO PUSH2 0x291F JUMPI PUSH1 0x1E SLOAD PUSH1 0xFF AND ISZERO PUSH2 0x2917 JUMPI PUSH1 0x40 MLOAD PUSH3 0x461BCD PUSH1 0xE5 SHL DUP2 MSTORE PUSH1 0x20 PUSH1 0x4 DUP3 ADD MSTORE PUSH1 0x1E PUSH1 0x24 DUP3 ADD MSTORE PUSH32 0x53656C6C732073746F70706564206279204469616D6F6E6420466C6F6F720000 PUSH1 0x44 DUP3 ADD MSTORE PUSH1 0x64 ADD PUSH2 0xBC2 JUMP JUMPDEST PUSH2 0x291F PUSH2 0x2FA6 JUMP JUMPDEST ADDRESS PUSH1 0x0 SWAP1 DUP2 MSTORE PUSH1 0x2 PUSH1 0x20 MSTORE PUSH1 0x40 SWAP1 KECCAK256 SLOAD PUSH1 0x8 SLOAD DUP2 LT PUSH2 0x29D5 JUMPI DUP1 ISZERO PUSH2 0x29C3 JUMPI PUSH1 0x0 PUSH2 0x2963 PUSH1 0x11 SLOAD PUSH2 0x1C06 PUSH1 0x13 SLOAD PUSH2 0x1C06 PUSH1 0x17 SLOAD PUSH1 0x15 SLOAD PUSH2 0x2EDF SWAP1 SWAP2 SWAP1 PUSH4 0xFFFFFFFF AND JUMP JUMPDEST GT ISZERO PUSH2 0x29C3 JUMPI PUSH1 0x0 PUSH2 0x299E PUSH2 0x2991 PUSH1 0x11 SLOAD PUSH2 0x1C06 PUSH1 0x13 SLOAD PUSH2 0x1C06 PUSH1 0x17 SLOAD PUSH1 0x15 SLOAD PUSH2 0x2EDF SWAP1 SWAP2 SWAP1 PUSH4 0xFFFFFFFF AND JUMP JUMPDEST PUSH1 0x11 SLOAD PUSH2 0x149F SWAP1 DUP6 PUSH2 0x2C07 JUMP JUMPDEST SWAP1 POP PUSH1 0x0 DUP2 DUP4 LT PUSH2 0x29B6 JUMPI PUSH2 0x29B3 DUP4 DUP4 PUSH2 0x2BC5 JUMP JUMPDEST SWAP1 POP JUMPDEST PUSH2 0x29C0 DUP3 DUP3 PUSH2 0x3055 JUMP JUMPDEST POP POP JUMPDEST SELFBALANCE DUP1 ISZERO PUSH2 0x29D3 JUMPI PUSH2 0x29D3 SELFBALANCE PUSH2 0x30E5 JUMP JUMPDEST POP JUMPDEST POP JUMPDEST PUSH1 0x26 SLOAD PUSH1 0x1 PUSH1 0x1 PUSH1 0xA0 SHL SUB DUP6 DUP2 AND SWAP2 AND EQ DUP1 ISZERO SWAP1 PUSH2 0x2A03 JUMPI POP PUSH1 0x26 SLOAD PUSH1 0x1 PUSH1 0x1 PUSH1 0xA0 SHL SUB DUP5 DUP2 AND SWAP2 AND EQ ISZERO JUMPDEST ISZERO PUSH2 0x2AE8 JUMPI PUSH1 0x1 PUSH1 0x1 PUSH1 0xA0 SHL SUB DUP4 AND PUSH1 0x0 SWAP1 DUP2 MSTORE PUSH1 0x4 PUSH1 0x20 MSTORE PUSH1 0x40 SWAP1 KECCAK256 SLOAD PUSH1 0xFF AND PUSH2 0x2AE8 JUMPI PUSH1 0x7 SLOAD PUSH2 0x2A4E DUP4 PUSH2 0x1C06 DUP7 PUSH1 0x1 PUSH1 0x1 PUSH1 0xA0 SHL SUB AND PUSH1 0x0 SWAP1 DUP2 MSTORE PUSH1 0x2 PUSH1 0x20 MSTORE PUSH1 0x40 SWAP1 KECCAK256 SLOAD SWAP1 JUMP JUMPDEST GT ISZERO PUSH2 0x2AE8 JUMPI PUSH1 0x40 MLOAD PUSH3 0x461BCD PUSH1 0xE5 SHL DUP2 MSTORE PUSH1 0x20 PUSH1 0x4 DUP3 ADD MSTORE PUSH1 0x42 PUSH1 0x24 DUP3 ADD MSTORE PUSH32 0x2E77616C6C65742062616C616E6365206166746572207472616E73666572206D PUSH1 0x44 DUP3 ADD MSTORE PUSH32 0x757374206265206C657373207468616E206D61782077616C6C657420616D6F75 PUSH1 0x64 DUP3 ADD MSTORE PUSH32 0x6E74000000000000000000000000000000000000000000000000000000000000 PUSH1 0x84 DUP3 ADD MSTORE PUSH1 0xA4 ADD PUSH2 0xBC2 JUMP JUMPDEST PUSH1 0x1 PUSH1 0x1 PUSH1 0xA0 SHL SUB DUP5 AND PUSH1 0x0 SWAP1 DUP2 MSTORE PUSH1 0x4 PUSH1 0x20 MSTORE PUSH1 0x40 SWAP1 KECCAK256 SLOAD PUSH1 0xFF AND DUP1 PUSH2 0x2B27 JUMPI POP PUSH1 0x1 PUSH1 0x1 PUSH1 0xA0 SHL SUB DUP4 AND PUSH1 0x0 SWAP1 DUP2 MSTORE PUSH1 0x4 PUSH1 0x20 MSTORE PUSH1 0x40 SWAP1 KECCAK256 SLOAD PUSH1 0xFF AND JUMPDEST ISZERO PUSH2 0x2B30 JUMPI POP PUSH1 0x0 JUMPDEST PUSH2 0x2B3C DUP5 DUP5 DUP5 DUP5 PUSH2 0x3225 JUMP JUMPDEST POP POP POP POP JUMP JUMPDEST PUSH1 0x0 DUP2 DUP5 DUP5 GT ISZERO PUSH2 0x2B66 JUMPI PUSH1 0x40 MLOAD PUSH3 0x461BCD PUSH1 0xE5 SHL DUP2 MSTORE PUSH1 0x4 ADD PUSH2 0xBC2 SWAP2 SWAP1 PUSH2 0x39C1 JUMP JUMPDEST POP PUSH1 0x0 PUSH2 0x2B73 DUP5 DUP7 PUSH2 0x3B37 JUMP JUMPDEST SWAP6 SWAP5 POP POP POP POP POP JUMP JUMPDEST PUSH1 0x0 PUSH2 0x2BBE DUP4 DUP4 PUSH1 0x40 MLOAD DUP1 PUSH1 0x40 ADD PUSH1 0x40 MSTORE DUP1 PUSH1 0x1A DUP2 MSTORE PUSH1 0x20 ADD PUSH32 0x536166654D6174683A206469766973696F6E206279207A65726F000000000000 DUP2 MSTORE POP PUSH2 0x32C3 JUMP JUMPDEST SWAP4 SWAP3 POP POP POP JUMP JUMPDEST PUSH1 0x0 PUSH2 0x2BBE DUP4 DUP4 PUSH1 0x40 MLOAD DUP1 PUSH1 0x40 ADD PUSH1 0x40 MSTORE DUP1 PUSH1 0x1E DUP2 MSTORE PUSH1 0x20 ADD PUSH32 0x536166654D6174683A207375627472616374696F6E206F766572666C6F770000 DUP2 MSTORE POP PUSH2 0x2B42 JUMP JUMPDEST PUSH1 0x0 DUP3 PUSH2 0x2C16 JUMPI POP PUSH1 0x0 PUSH2 0xB66 JUMP JUMPDEST PUSH1 0x0 PUSH2 0x2C22 DUP4 DUP6 PUSH2 0x3ACE JUMP JUMPDEST SWAP1 POP DUP3 PUSH2 0x2C2F DUP6 DUP4 PUSH2 0x3ABA JUMP JUMPDEST EQ PUSH2 0x2BBE JUMPI PUSH1 0x40 MLOAD PUSH3 0x461BCD PUSH1 0xE5 SHL DUP2 MSTORE PUSH1 0x20 PUSH1 0x4 DUP3 ADD MSTORE PUSH1 0x21 PUSH1 0x24 DUP3 ADD MSTORE PUSH32 0x536166654D6174683A206D756C7469706C69636174696F6E206F766572666C6F PUSH1 0x44 DUP3 ADD MSTORE PUSH32 0x7700000000000000000000000000000000000000000000000000000000000000 PUSH1 0x64 DUP3 ADD MSTORE PUSH1 0x84 ADD PUSH2 0xBC2 JUMP JUMPDEST PUSH1 0x28 DUP1 SLOAD PUSH32 0xFFFFFFFFFFFFFFFFFFFFFFFFFFFFFFFFFFFFFFFFFFFFFFFFFFFFFFFFFFFF00FF AND PUSH2 0x100 OR SWAP1 SSTORE PUSH1 0x40 DUP1 MLOAD PUSH1 0x2 DUP1 DUP3 MSTORE PUSH1 0x60 DUP3 ADD DUP4 MSTORE PUSH1 0x0 SWAP3 PUSH1 0x20 DUP4 ADD SWAP1 DUP1 CALLDATASIZE DUP4 CALLDATACOPY ADD SWAP1 POP POP SWAP1 POP ADDRESS DUP2 PUSH1 0x0 DUP2 MLOAD DUP2 LT PUSH2 0x2D2A JUMPI PUSH32 0x4E487B7100000000000000000000000000000000000000000000000000000000 PUSH1 0x0 MSTORE PUSH1 0x32 PUSH1 0x4 MSTORE PUSH1 0x24 PUSH1 0x0 REVERT JUMPDEST PUSH1 0x1 PUSH1 0x1 PUSH1 0xA0 SHL SUB SWAP3 DUP4 AND PUSH1 0x20 SWAP2 DUP3 MUL SWAP3 SWAP1 SWAP3 ADD DUP2 ADD SWAP2 SWAP1 SWAP2 MSTORE PUSH1 0x25 SLOAD PUSH1 0x40 DUP1 MLOAD PUSH32 0xAD5C464800000000000000000000000000000000000000000000000000000000 DUP2 MSTORE SWAP1 MLOAD SWAP2 SWAP1 SWAP4 AND SWAP3 PUSH4 0xAD5C4648 SWAP3 PUSH1 0x4 DUP1 DUP4 ADD SWAP4 SWAP2 SWAP3 DUP3 SWAP1 SUB ADD DUP2 DUP7 DUP1 EXTCODESIZE ISZERO DUP1 ISZERO PUSH2 0x2D97 JUMPI PUSH1 0x0 DUP1 REVERT JUMPDEST POP GAS STATICCALL ISZERO DUP1 ISZERO PUSH2 0x2DAB JUMPI RETURNDATASIZE PUSH1 0x0 DUP1 RETURNDATACOPY RETURNDATASIZE PUSH1 0x0 REVERT JUMPDEST POP POP POP POP PUSH1 0x40 MLOAD RETURNDATASIZE PUSH1 0x1F NOT PUSH1 0x1F DUP3 ADD AND DUP3 ADD DUP1 PUSH1 0x40 MSTORE POP DUP2 ADD SWAP1 PUSH2 0x2DCF SWAP2 SWAP1 PUSH2 0x37B2 JUMP JUMPDEST DUP2 PUSH1 0x1 DUP2 MLOAD DUP2 LT PUSH2 0x2E09 JUMPI PUSH32 0x4E487B7100000000000000000000000000000000000000000000000000000000 PUSH1 0x0 MSTORE PUSH1 0x32 PUSH1 0x4 MSTORE PUSH1 0x24 PUSH1 0x0 REVERT JUMPDEST PUSH1 0x1 PUSH1 0x1 PUSH1 0xA0 SHL SUB SWAP3 DUP4 AND PUSH1 0x20 SWAP2 DUP3 MUL SWAP3 SWAP1 SWAP3 ADD ADD MSTORE PUSH1 0x25 SLOAD PUSH2 0x2E2F SWAP2 ADDRESS SWAP2 AND DUP5 PUSH2 0x22B5 JUMP JUMPDEST PUSH1 0x25 SLOAD PUSH1 0x40 MLOAD PUSH32 0x791AC94700000000000000000000000000000000000000000000000000000000 DUP2 MSTORE PUSH1 0x1 PUSH1 0x1 PUSH1 0xA0 SHL SUB SWAP1 SWAP2 AND SWAP1 PUSH4 0x791AC947 SWAP1 PUSH2 0x2E81 SWAP1 DUP6 SWAP1 PUSH1 0x0 SWAP1 DUP7 SWAP1 ADDRESS SWAP1 TIMESTAMP SWAP1 PUSH1 0x4 ADD PUSH2 0x3A32 JUMP JUMPDEST PUSH1 0x0 PUSH1 0x40 MLOAD DUP1 DUP4 SUB DUP2 PUSH1 0x0 DUP8 DUP1 EXTCODESIZE ISZERO DUP1 ISZERO PUSH2 0x2E9B JUMPI PUSH1 0x0 DUP1 REVERT JUMPDEST POP GAS CALL ISZERO DUP1 ISZERO PUSH2 0x2EAF JUMPI RETURNDATASIZE PUSH1 0x0 DUP1 RETURNDATACOPY RETURNDATASIZE PUSH1 0x0 REVERT JUMPDEST POP POP PUSH1 0x28 DUP1 SLOAD PUSH32 0xFFFFFFFFFFFFFFFFFFFFFFFFFFFFFFFFFFFFFFFFFFFFFFFFFFFFFFFFFFFF00FF AND SWAP1 SSTORE POP POP POP POP JUMP JUMPDEST PUSH1 0x0 DUP1 PUSH2 0x2EEC DUP4 DUP6 PUSH2 0x3AA2 JUMP JUMPDEST SWAP1 POP DUP4 DUP2 LT ISZERO PUSH2 0x2BBE JUMPI PUSH1 0x40 MLOAD PUSH3 0x461BCD PUSH1 0xE5 SHL DUP2 MSTORE PUSH1 0x20 PUSH1 0x4 DUP3 ADD MSTORE PUSH1 0x1B PUSH1 0x24 DUP3 ADD MSTORE PUSH32 0x536166654D6174683A206164646974696F6E206F766572666C6F770000000000 PUSH1 0x44 DUP3 ADD MSTORE PUSH1 0x64 ADD PUSH2 0xBC2 JUMP JUMPDEST PUSH1 0x0 DUP1 SLOAD PUSH1 0x1 PUSH1 0x1 PUSH1 0xA0 SHL SUB DUP4 DUP2 AND PUSH32 0xFFFFFFFFFFFFFFFFFFFFFFFF0000000000000000000000000000000000000000 DUP4 AND DUP2 OR DUP5 SSTORE PUSH1 0x40 MLOAD SWAP2 SWAP1 SWAP3 AND SWAP3 DUP4 SWAP2 PUSH32 0x8BE0079C531659141344CD1FD0A4F28419497F9722A3DAAFE3B4186F6B6457E0 SWAP2 SWAP1 LOG3 POP POP JUMP JUMPDEST PUSH1 0x0 PUSH2 0x2FB0 PUSH2 0x1539 JUMP JUMPDEST SWAP1 POP DUP1 PUSH2 0x2FBA JUMPI POP JUMP JUMPDEST PUSH1 0x1D SLOAD DUP2 GT ISZERO PUSH2 0x2FD3 JUMPI PUSH1 0x1D SSTORE PUSH1 0x1E DUP1 SLOAD PUSH1 0xFF NOT AND SWAP1 SSTORE JUMP JUMPDEST PUSH1 0x1C SLOAD PUSH1 0x1D SLOAD PUSH1 0x0 SWAP2 PUSH2 0x3003 SWAP2 PUSH2 0x3E8 SWAP2 PUSH2 0x149F SWAP2 PUSH2 0x100 SWAP1 SWAP2 DIV PUSH2 0xFFFF AND SWAP1 PUSH2 0x2FFD SWAP1 DUP5 PUSH2 0x2C07 JUMP JUMPDEST SWAP1 PUSH2 0x2BC5 JUMP JUMPDEST SWAP1 POP DUP1 DUP3 LT ISZERO PUSH2 0x3021 JUMPI PUSH1 0x1E DUP1 SLOAD PUSH1 0xFF NOT AND PUSH1 0x1 OR SWAP1 SSTORE PUSH1 0x1D SLOAD PUSH1 0x1F SSTORE JUMPDEST PUSH1 0x1E SLOAD PUSH1 0xFF AND DUP1 ISZERO PUSH2 0x3040 JUMPI POP PUSH1 0x1F SLOAD PUSH2 0x303C SWAP1 PUSH1 0x2 PUSH2 0x2C07 JUMP JUMPDEST DUP3 LT ISZERO JUMPDEST ISZERO PUSH2 0x12E9 JUMPI POP PUSH1 0x1E DUP1 SLOAD PUSH1 0xFF NOT AND SWAP1 SSTORE PUSH1 0x1D SSTORE JUMP JUMPDEST PUSH1 0x28 DUP1 SLOAD PUSH32 0xFFFFFFFFFFFFFFFFFFFFFFFFFFFFFFFFFFFFFFFFFFFFFFFFFFFFFFFFFFFF00FF AND PUSH2 0x100 OR SWAP1 SSTORE PUSH1 0x0 PUSH2 0x308E DUP4 PUSH1 0x2 PUSH2 0x2B7C JUMP JUMPDEST SWAP1 POP PUSH1 0x0 PUSH2 0x309C DUP5 DUP4 PUSH2 0x2BC5 JUMP JUMPDEST SWAP1 POP SELFBALANCE PUSH2 0x30B1 PUSH2 0x30AC DUP6 DUP6 PUSH2 0x2EDF JUMP JUMPDEST PUSH2 0x2CA2 JUMP JUMPDEST PUSH1 0x0 PUSH2 0x30BD SELFBALANCE DUP4 PUSH2 0x2BC5 JUMP JUMPDEST SWAP1 POP DUP3 ISZERO PUSH2 0x2EAF JUMPI PUSH2 0x2EAF DUP4 PUSH2 0x30E0 PUSH2 0x30D6 DUP9 DUP9 PUSH2 0x2EDF JUMP JUMPDEST PUSH2 0x149F DUP6 DUP10 PUSH2 0x2C07 JUMP JUMPDEST PUSH2 0x32F1 JUMP JUMPDEST PUSH1 0x0 PUSH2 0x3104 PUSH1 0x17 SLOAD PUSH2 0x1C06 PUSH1 0x13 SLOAD PUSH1 0x15 SLOAD PUSH2 0x2EDF SWAP1 SWAP2 SWAP1 PUSH4 0xFFFFFFFF AND JUMP JUMPDEST SWAP1 POP DUP1 ISZERO PUSH2 0x12E9 JUMPI PUSH1 0x0 PUSH2 0x3127 DUP3 PUSH2 0x149F PUSH1 0x15 SLOAD DUP7 PUSH2 0x2C07 SWAP1 SWAP2 SWAP1 PUSH4 0xFFFFFFFF AND JUMP JUMPDEST SWAP1 POP PUSH1 0x0 PUSH2 0x3144 DUP4 PUSH2 0x149F PUSH1 0x17 SLOAD DUP8 PUSH2 0x2C07 SWAP1 SWAP2 SWAP1 PUSH4 0xFFFFFFFF AND JUMP JUMPDEST SWAP1 POP PUSH1 0x0 PUSH2 0x3156 DUP3 PUSH2 0x2FFD DUP8 DUP7 PUSH2 0x2BC5 JUMP JUMPDEST SWAP1 POP DUP3 ISZERO PUSH2 0x319A JUMPI PUSH1 0x21 SLOAD PUSH1 0x40 MLOAD PUSH1 0x1 PUSH1 0x1 PUSH1 0xA0 SHL SUB SWAP1 SWAP2 AND SWAP1 DUP5 ISZERO PUSH2 0x8FC MUL SWAP1 DUP6 SWAP1 PUSH1 0x0 DUP2 DUP2 DUP2 DUP6 DUP9 DUP9 CALL SWAP4 POP POP POP POP ISZERO DUP1 ISZERO PUSH2 0x3198 JUMPI RETURNDATASIZE PUSH1 0x0 DUP1 RETURNDATACOPY RETURNDATASIZE PUSH1 0x0 REVERT JUMPDEST POP JUMPDEST DUP2 ISZERO PUSH2 0x31DC JUMPI PUSH1 0x22 SLOAD PUSH1 0x40 MLOAD PUSH1 0x1 PUSH1 0x1 PUSH1 0xA0 SHL SUB SWAP1 SWAP2 AND SWAP1 DUP4 ISZERO PUSH2 0x8FC MUL SWAP1 DUP5 SWAP1 PUSH1 0x0 DUP2 DUP2 DUP2 DUP6 DUP9 DUP9 CALL SWAP4 POP POP POP POP ISZERO DUP1 ISZERO PUSH2 0x31DA JUMPI RETURNDATASIZE PUSH1 0x0 DUP1 RETURNDATACOPY RETURNDATASIZE PUSH1 0x0 REVERT JUMPDEST POP JUMPDEST DUP1 ISZERO PUSH2 0x321E JUMPI PUSH1 0x23 SLOAD PUSH1 0x40 MLOAD PUSH1 0x1 PUSH1 0x1 PUSH1 0xA0 SHL SUB SWAP1 SWAP2 AND SWAP1 DUP3 ISZERO PUSH2 0x8FC MUL SWAP1 DUP4 SWAP1 PUSH1 0x0 DUP2 DUP2 DUP2 DUP6 DUP9 DUP9 CALL SWAP4 POP POP POP POP ISZERO DUP1 ISZERO PUSH2 0x321C JUMPI RETURNDATASIZE PUSH1 0x0 DUP1 RETURNDATACOPY RETURNDATASIZE PUSH1 0x0 REVERT JUMPDEST POP JUMPDEST POP POP POP POP POP JUMP JUMPDEST DUP1 PUSH2 0x3283 JUMPI PUSH2 0x3283 PUSH1 0xD DUP1 SLOAD PUSH1 0xE SSTORE PUSH1 0x9 DUP1 SLOAD PUSH1 0xA SSTORE PUSH1 0xF DUP1 SLOAD PUSH1 0x10 SSTORE PUSH1 0xB DUP1 SLOAD PUSH1 0xC SSTORE PUSH1 0x0 SWAP4 DUP5 SWAP1 SSTORE SWAP2 DUP4 SWAP1 SSTORE DUP3 SWAP1 SSTORE DUP2 SWAP1 SSTORE PUSH1 0x15 DUP1 SLOAD PUSH1 0x16 SSTORE PUSH1 0x11 DUP1 SLOAD PUSH1 0x12 SSTORE PUSH1 0x17 DUP1 SLOAD PUSH1 0x18 SSTORE PUSH1 0x13 DUP1 SLOAD PUSH1 0x14 SSTORE SWAP3 DUP5 SWAP1 SSTORE SWAP1 DUP4 SWAP1 SSTORE DUP3 SWAP1 SSTORE SSTORE JUMP JUMPDEST PUSH2 0x328E DUP5 DUP5 DUP5 PUSH2 0x33C7 JUMP JUMPDEST PUSH2 0x2B3C PUSH1 0xE SLOAD PUSH1 0xD SSTORE PUSH1 0xA SLOAD PUSH1 0x9 SSTORE PUSH1 0x10 SLOAD PUSH1 0xF SSTORE PUSH1 0xC SLOAD PUSH1 0xB SSTORE PUSH1 0x16 SLOAD PUSH1 0x15 SSTORE PUSH1 0x12 SLOAD PUSH1 0x11 SSTORE PUSH1 0x18 SLOAD PUSH1 0x17 SSTORE PUSH1 0x14 SLOAD PUSH1 0x13 SSTORE JUMP JUMPDEST PUSH1 0x0 DUP2 DUP4 PUSH2 0x32E4 JUMPI PUSH1 0x40 MLOAD PUSH3 0x461BCD PUSH1 0xE5 SHL DUP2 MSTORE PUSH1 0x4 ADD PUSH2 0xBC2 SWAP2 SWAP1 PUSH2 0x39C1 JUMP JUMPDEST POP PUSH1 0x0 PUSH2 0x2B73 DUP5 DUP7 PUSH2 0x3ABA JUMP JUMPDEST PUSH1 0x25 SLOAD PUSH2 0x3309 SWAP1 ADDRESS SWAP1 PUSH1 0x1 PUSH1 0x1 PUSH1 0xA0 SHL SUB AND DUP5 PUSH2 0x22B5 JUMP JUMPDEST PUSH1 0x25 SLOAD PUSH1 0x24 DUP1 SLOAD PUSH1 0x40 MLOAD PUSH32 0xF305D71900000000000000000000000000000000000000000000000000000000 DUP2 MSTORE ADDRESS PUSH1 0x4 DUP3 ADD MSTORE SWAP2 DUP3 ADD DUP6 SWAP1 MSTORE PUSH1 0x0 PUSH1 0x44 DUP4 ADD DUP2 SWAP1 MSTORE PUSH1 0x64 DUP4 ADD MSTORE PUSH1 0x1 PUSH1 0x1 PUSH1 0xA0 SHL SUB SWAP1 DUP2 AND PUSH1 0x84 DUP4 ADD MSTORE TIMESTAMP PUSH1 0xA4 DUP4 ADD MSTORE SWAP1 SWAP2 AND SWAP1 PUSH4 0xF305D719 SWAP1 DUP4 SWAP1 PUSH1 0xC4 ADD PUSH1 0x60 PUSH1 0x40 MLOAD DUP1 DUP4 SUB DUP2 DUP6 DUP9 DUP1 EXTCODESIZE ISZERO DUP1 ISZERO PUSH2 0x338E JUMPI PUSH1 0x0 DUP1 REVERT JUMPDEST POP GAS CALL ISZERO DUP1 ISZERO PUSH2 0x33A2 JUMPI RETURNDATASIZE PUSH1 0x0 DUP1 RETURNDATACOPY RETURNDATASIZE PUSH1 0x0 REVERT JUMPDEST POP POP POP POP POP PUSH1 0x40 MLOAD RETURNDATASIZE PUSH1 0x1F NOT PUSH1 0x1F DUP3 ADD AND DUP3 ADD DUP1 PUSH1 0x40 MSTORE POP DUP2 ADD SWAP1 PUSH2 0x321E SWAP2 SWAP1 PUSH2 0x3963 JUMP JUMPDEST PUSH2 0x33F9 PUSH1 0x40 MLOAD DUP1 PUSH1 0xA0 ADD PUSH1 0x40 MSTORE DUP1 PUSH1 0x0 DUP2 MSTORE PUSH1 0x20 ADD PUSH1 0x0 DUP2 MSTORE PUSH1 0x20 ADD PUSH1 0x0 DUP2 MSTORE PUSH1 0x20 ADD PUSH1 0x0 DUP2 MSTORE PUSH1 0x20 ADD PUSH1 0x0 DUP2 MSTORE POP SWAP1 JUMP JUMPDEST PUSH1 0x26 SLOAD PUSH1 0x1 PUSH1 0x1 PUSH1 0xA0 SHL SUB DUP6 DUP2 AND SWAP2 AND EQ DUP1 ISZERO PUSH2 0x3424 JUMPI POP PUSH1 0x25 SLOAD PUSH1 0x1 PUSH1 0x1 PUSH1 0xA0 SHL SUB DUP5 DUP2 AND SWAP2 AND EQ ISZERO JUMPDEST ISZERO PUSH2 0x3498 JUMPI PUSH2 0x3444 PUSH2 0x3E8 PUSH2 0x149F PUSH1 0xD SLOAD DUP6 PUSH2 0x2C07 SWAP1 SWAP2 SWAP1 PUSH4 0xFFFFFFFF AND JUMP JUMPDEST PUSH1 0x20 DUP3 ADD MSTORE PUSH1 0x9 SLOAD PUSH2 0x345F SWAP1 PUSH2 0x3E8 SWAP1 PUSH2 0x149F SWAP1 DUP6 SWAP1 PUSH2 0x2C07 JUMP JUMPDEST DUP2 MSTORE PUSH1 0xF SLOAD PUSH2 0x3477 SWAP1 PUSH2 0x3E8 SWAP1 PUSH2 0x149F SWAP1 DUP6 SWAP1 PUSH2 0x2C07 JUMP JUMPDEST PUSH1 0x40 DUP3 ADD MSTORE PUSH1 0xB SLOAD PUSH2 0x3492 SWAP1 PUSH2 0x3E8 SWAP1 PUSH2 0x149F SWAP1 DUP6 SWAP1 PUSH2 0x2C07 JUMP JUMPDEST PUSH1 0x60 DUP3 ADD MSTORE JUMPDEST PUSH1 0x26 SLOAD PUSH1 0x1 PUSH1 0x1 PUSH1 0xA0 SHL SUB DUP6 DUP2 AND SWAP2 AND EQ DUP1 ISZERO SWAP1 PUSH2 0x34C3 JUMPI POP PUSH1 0x26 SLOAD PUSH1 0x1 PUSH1 0x1 PUSH1 0xA0 SHL SUB DUP5 DUP2 AND SWAP2 AND EQ JUMPDEST ISZERO PUSH2 0x3537 JUMPI PUSH2 0x34E3 PUSH2 0x3E8 PUSH2 0x149F PUSH1 0x15 SLOAD DUP6 PUSH2 0x2C07 SWAP1 SWAP2 SWAP1 PUSH4 0xFFFFFFFF AND JUMP JUMPDEST PUSH1 0x20 DUP3 ADD MSTORE PUSH1 0x11 SLOAD PUSH2 0x34FE SWAP1 PUSH2 0x3E8 SWAP1 PUSH2 0x149F SWAP1 DUP6 SWAP1 PUSH2 0x2C07 JUMP JUMPDEST DUP2 MSTORE PUSH1 0x17 SLOAD PUSH2 0x3516 SWAP1 PUSH2 0x3E8 SWAP1 PUSH2 0x149F SWAP1 DUP6 SWAP1 PUSH2 0x2C07 JUMP JUMPDEST PUSH1 0x40 DUP3 ADD MSTORE PUSH1 0x13 SLOAD PUSH2 0x3531 SWAP1 PUSH2 0x3E8 SWAP1 PUSH2 0x149F SWAP1 DUP6 SWAP1 PUSH2 0x2C07 JUMP JUMPDEST PUSH1 0x60 DUP3 ADD MSTORE JUMPDEST PUSH1 0x26 SLOAD PUSH1 0x1 PUSH1 0x1 PUSH1 0xA0 SHL SUB DUP6 DUP2 AND SWAP2 AND EQ DUP1 ISZERO SWAP1 PUSH2 0x3563 JUMPI POP PUSH1 0x26 SLOAD PUSH1 0x1 PUSH1 0x1 PUSH1 0xA0 SHL SUB DUP5 DUP2 AND SWAP2 AND EQ ISZERO JUMPDEST ISZERO PUSH2 0x3617 JUMPI PUSH2 0x358E PUSH1 0x64 PUSH2 0x149F PUSH1 0x19 SLOAD PUSH2 0x1499 PUSH2 0x3E8 PUSH2 0x149F PUSH1 0x15 SLOAD DUP10 PUSH2 0x2C07 SWAP1 SWAP2 SWAP1 PUSH4 0xFFFFFFFF AND JUMP JUMPDEST DUP2 PUSH1 0x20 ADD DUP2 DUP2 MSTORE POP POP PUSH2 0x35BD PUSH1 0x64 PUSH2 0x149F PUSH1 0x19 SLOAD PUSH2 0x1499 PUSH2 0x3E8 PUSH2 0x149F PUSH1 0x11 SLOAD DUP10 PUSH2 0x2C07 SWAP1 SWAP2 SWAP1 PUSH4 0xFFFFFFFF AND JUMP JUMPDEST DUP2 MSTORE PUSH1 0x19 SLOAD PUSH1 0x17 SLOAD PUSH2 0x35E2 SWAP2 PUSH1 0x64 SWAP2 PUSH2 0x149F SWAP2 SWAP1 PUSH2 0x1499 SWAP1 PUSH2 0x3E8 SWAP1 DUP5 SWAP1 DUP10 SWAP1 PUSH2 0x2C07 JUMP JUMPDEST DUP2 PUSH1 0x40 ADD DUP2 DUP2 MSTORE POP POP PUSH2 0x3611 PUSH1 0x64 PUSH2 0x149F PUSH1 0x19 SLOAD PUSH2 0x1499 PUSH2 0x3E8 PUSH2 0x149F PUSH1 0x13 SLOAD DUP10 PUSH2 0x2C07 SWAP1 SWAP2 SWAP1 PUSH4 0xFFFFFFFF AND JUMP JUMPDEST PUSH1 0x60 DUP3 ADD MSTORE JUMPDEST PUSH2 0x3646 DUP2 PUSH1 0x60 ADD MLOAD PUSH2 0x2FFD DUP4 PUSH1 0x40 ADD MLOAD PUSH2 0x2FFD DUP6 PUSH1 0x0 ADD MLOAD PUSH2 0x2FFD DUP8 PUSH1 0x20 ADD MLOAD DUP10 PUSH2 0x2BC5 SWAP1 SWAP2 SWAP1 PUSH4 0xFFFFFFFF AND JUMP JUMPDEST PUSH1 0x80 DUP3 ADD MSTORE PUSH1 0x1 PUSH1 0x1 PUSH1 0xA0 SHL SUB DUP5 AND PUSH1 0x0 SWAP1 DUP2 MSTORE PUSH1 0x2 PUSH1 0x20 MSTORE PUSH1 0x40 SWAP1 KECCAK256 SLOAD PUSH2 0x366E SWAP1 DUP4 PUSH2 0x2BC5 JUMP JUMPDEST PUSH1 0x1 PUSH1 0x1 PUSH1 0xA0 SHL SUB DUP1 DUP7 AND PUSH1 0x0 SWAP1 DUP2 MSTORE PUSH1 0x2 PUSH1 0x20 MSTORE PUSH1 0x40 DUP1 DUP3 KECCAK256 SWAP4 SWAP1 SWAP4 SSTORE PUSH1 0x80 DUP5 ADD MLOAD SWAP2 DUP7 AND DUP2 MSTORE SWAP2 SWAP1 SWAP2 KECCAK256 SLOAD PUSH2 0x36A4 SWAP2 PUSH2 0x2EDF JUMP JUMPDEST PUSH1 0x2 PUSH1 0x0 DUP6 PUSH1 0x1 PUSH1 0x1 PUSH1 0xA0 SHL SUB AND PUSH1 0x1 PUSH1 0x1 PUSH1 0xA0 SHL SUB AND DUP2 MSTORE PUSH1 0x20 ADD SWAP1 DUP2 MSTORE PUSH1 0x20 ADD PUSH1 0x0 KECCAK256 DUP2 SWAP1 SSTORE POP PUSH2 0x3711 PUSH2 0x36FB DUP3 PUSH1 0x60 ADD MLOAD PUSH2 0x1C06 DUP5 PUSH1 0x40 ADD MLOAD PUSH2 0x1C06 DUP7 PUSH1 0x0 ADD MLOAD DUP8 PUSH1 0x20 ADD MLOAD PUSH2 0x2EDF SWAP1 SWAP2 SWAP1 PUSH4 0xFFFFFFFF AND JUMP JUMPDEST ADDRESS PUSH1 0x0 SWAP1 DUP2 MSTORE PUSH1 0x2 PUSH1 0x20 MSTORE PUSH1 0x40 SWAP1 KECCAK256 SLOAD SWAP1 PUSH2 0x2EDF JUMP JUMPDEST ADDRESS PUSH1 0x0 SWAP1 DUP2 MSTORE PUSH1 0x2 PUSH1 0x20 SWAP1 DUP2 MSTORE PUSH1 0x40 SWAP2 DUP3 SWAP1 KECCAK256 SWAP3 SWAP1 SWAP3 SSTORE PUSH1 0x80 DUP4 ADD MLOAD SWAP1 MLOAD SWAP1 DUP2 MSTORE PUSH1 0x1 PUSH1 0x1 PUSH1 0xA0 SHL SUB DUP6 DUP2 AND SWAP3 SWAP1 DUP8 AND SWAP2 PUSH32 0xDDF252AD1BE2C89B69C2B068FC378DAA952BA7F163C4A11628F55A4DF523B3EF SWAP2 ADD PUSH1 0x40 MLOAD DUP1 SWAP2 SUB SWAP1 LOG3 POP POP POP POP JUMP JUMPDEST DUP1 MLOAD PUSH14 0xFFFFFFFFFFFFFFFFFFFFFFFFFFFF DUP2 AND DUP2 EQ PUSH2 0x3791 JUMPI PUSH1 0x0 DUP1 REVERT JUMPDEST SWAP2 SWAP1 POP JUMP JUMPDEST PUSH1 0x0 PUSH1 0x20 DUP3 DUP5 SUB SLT ISZERO PUSH2 0x37A7 JUMPI DUP1 DUP2 REVERT JUMPDEST DUP2 CALLDATALOAD PUSH2 0x2BBE DUP2 PUSH2 0x3BF6 JUMP JUMPDEST PUSH1 0x0 PUSH1 0x20 DUP3 DUP5 SUB SLT ISZERO PUSH2 0x37C3 JUMPI DUP1 DUP2 REVERT JUMPDEST DUP2 MLOAD PUSH2 0x2BBE DUP2 PUSH2 0x3BF6 JUMP JUMPDEST PUSH1 0x0 DUP1 PUSH1 0x40 DUP4 DUP6 SUB SLT ISZERO PUSH2 0x37E0 JUMPI DUP1 DUP2 REVERT JUMPDEST DUP3 CALLDATALOAD PUSH2 0x37EB DUP2 PUSH2 0x3BF6 JUMP JUMPDEST SWAP2 POP PUSH1 0x20 DUP4 ADD CALLDATALOAD PUSH2 0x37FB DUP2 PUSH2 0x3BF6 JUMP JUMPDEST DUP1 SWAP2 POP POP SWAP3 POP SWAP3 SWAP1 POP JUMP JUMPDEST PUSH1 0x0 DUP1 PUSH1 0x0 PUSH1 0x60 DUP5 DUP7 SUB SLT ISZERO PUSH2 0x381A JUMPI DUP1 DUP2 REVERT JUMPDEST DUP4 CALLDATALOAD PUSH2 0x3825 DUP2 PUSH2 0x3BF6 JUMP JUMPDEST SWAP3 POP PUSH1 0x20 DUP5 ADD CALLDATALOAD PUSH2 0x3835 DUP2 PUSH2 0x3BF6 JUMP JUMPDEST SWAP3 SWAP6 SWAP3 SWAP5 POP POP POP PUSH1 0x40 SWAP2 SWAP1 SWAP2 ADD CALLDATALOAD SWAP1 JUMP JUMPDEST PUSH1 0x0 DUP1 PUSH1 0x40 DUP4 DUP6 SUB SLT ISZERO PUSH2 0x3858 JUMPI DUP2 DUP3 REVERT JUMPDEST DUP3 CALLDATALOAD PUSH2 0x3863 DUP2 PUSH2 0x3BF6 JUMP JUMPDEST SWAP5 PUSH1 0x20 SWAP4 SWAP1 SWAP4 ADD CALLDATALOAD SWAP4 POP POP POP JUMP JUMPDEST PUSH1 0x0 PUSH1 0x20 DUP3 DUP5 SUB SLT ISZERO PUSH2 0x3882 JUMPI DUP1 DUP2 REVERT JUMPDEST DUP2 MLOAD PUSH2 0x2BBE DUP2 PUSH2 0x3C0B JUMP JUMPDEST PUSH1 0x0 DUP1 PUSH1 0x40 DUP4 DUP6 SUB SLT ISZERO PUSH2 0x389F JUMPI DUP2 DUP3 REVERT JUMPDEST DUP3 CALLDATALOAD PUSH2 0x38AA DUP2 PUSH2 0x3C0B JUMP JUMPDEST SWAP2 POP PUSH1 0x20 DUP4 ADD CALLDATALOAD PUSH2 0xFFFF DUP2 AND DUP2 EQ PUSH2 0x37FB JUMPI DUP2 DUP3 REVERT JUMPDEST PUSH1 0x0 DUP1 PUSH1 0x40 DUP4 DUP6 SUB SLT ISZERO PUSH2 0x38D2 JUMPI DUP2 DUP3 REVERT JUMPDEST DUP3 CALLDATALOAD PUSH2 0x38DD DUP2 PUSH2 0x3C0B JUMP JUMPDEST SWAP2 POP PUSH1 0x20 DUP4 ADD CALLDATALOAD PUSH2 0x37FB DUP2 PUSH2 0x3C19 JUMP JUMPDEST PUSH1 0x0 DUP1 PUSH1 0x0 PUSH1 0x60 DUP5 DUP7 SUB SLT ISZERO PUSH2 0x3901 JUMPI DUP3 DUP4 REVERT JUMPDEST PUSH2 0x390A DUP5 PUSH2 0x3773 JUMP JUMPDEST SWAP3 POP PUSH2 0x3918 PUSH1 0x20 DUP6 ADD PUSH2 0x3773 JUMP JUMPDEST SWAP2 POP PUSH1 0x40 DUP5 ADD MLOAD PUSH2 0x3928 DUP2 PUSH2 0x3C19 JUMP JUMPDEST DUP1 SWAP2 POP POP SWAP3 POP SWAP3 POP SWAP3 JUMP JUMPDEST PUSH1 0x0 PUSH1 0x20 DUP3 DUP5 SUB SLT ISZERO PUSH2 0x3944 JUMPI DUP1 DUP2 REVERT JUMPDEST POP CALLDATALOAD SWAP2 SWAP1 POP JUMP JUMPDEST PUSH1 0x0 PUSH1 0x20 DUP3 DUP5 SUB SLT ISZERO PUSH2 0x395C JUMPI DUP1 DUP2 REVERT JUMPDEST POP MLOAD SWAP2 SWAP1 POP JUMP JUMPDEST PUSH1 0x0 DUP1 PUSH1 0x0 PUSH1 0x60 DUP5 DUP7 SUB SLT ISZERO PUSH2 0x3977 JUMPI DUP3 DUP4 REVERT JUMPDEST DUP4 MLOAD SWAP3 POP PUSH1 0x20 DUP5 ADD MLOAD SWAP2 POP PUSH1 0x40 DUP5 ADD MLOAD SWAP1 POP SWAP3 POP SWAP3 POP SWAP3 JUMP JUMPDEST PUSH1 0x0 DUP1 PUSH1 0x0 DUP1 PUSH1 0x80 DUP6 DUP8 SUB SLT ISZERO PUSH2 0x39A5 JUMPI DUP2 DUP3 REVERT JUMPDEST POP POP DUP3 CALLDATALOAD SWAP5 PUSH1 0x20 DUP5 ADD CALLDATALOAD SWAP5 POP PUSH1 0x40 DUP5 ADD CALLDATALOAD SWAP4 PUSH1 0x60 ADD CALLDATALOAD SWAP3 POP SWAP1 POP JUMP JUMPDEST PUSH1 0x0 PUSH1 0x20 DUP1 DUP4 MSTORE DUP4 MLOAD DUP1 DUP3 DUP6 ADD MSTORE DUP3 JUMPDEST DUP2 DUP2 LT ISZERO PUSH2 0x39ED JUMPI DUP6 DUP2 ADD DUP4 ADD MLOAD DUP6 DUP3 ADD PUSH1 0x40 ADD MSTORE DUP3 ADD PUSH2 0x39D1 JUMP JUMPDEST DUP2 DUP2 GT ISZERO PUSH2 0x39FE JUMPI DUP4 PUSH1 0x40 DUP4 DUP8 ADD ADD MSTORE JUMPDEST POP PUSH1 0x1F ADD PUSH32 0xFFFFFFFFFFFFFFFFFFFFFFFFFFFFFFFFFFFFFFFFFFFFFFFFFFFFFFFFFFFFFFE0 AND SWAP3 SWAP1 SWAP3 ADD PUSH1 0x40 ADD SWAP4 SWAP3 POP POP POP JUMP JUMPDEST PUSH1 0x0 PUSH1 0xA0 DUP3 ADD DUP8 DUP4 MSTORE PUSH1 0x20 DUP8 DUP2 DUP6 ADD MSTORE PUSH1 0xA0 PUSH1 0x40 DUP6 ADD MSTORE DUP2 DUP8 MLOAD DUP1 DUP5 MSTORE PUSH1 0xC0 DUP7 ADD SWAP2 POP DUP3 DUP10 ADD SWAP4 POP DUP5 JUMPDEST DUP2 DUP2 LT ISZERO PUSH2 0x3A81 JUMPI DUP5 MLOAD PUSH1 0x1 PUSH1 0x1 PUSH1 0xA0 SHL SUB AND DUP4 MSTORE SWAP4 DUP4 ADD SWAP4 SWAP2 DUP4 ADD SWAP2 PUSH1 0x1 ADD PUSH2 0x3A5C JUMP JUMPDEST POP POP PUSH1 0x1 PUSH1 0x1 PUSH1 0xA0 SHL SUB SWAP7 SWAP1 SWAP7 AND PUSH1 0x60 DUP6 ADD MSTORE POP POP POP PUSH1 0x80 ADD MSTORE SWAP4 SWAP3 POP POP POP JUMP JUMPDEST PUSH1 0x0 DUP3 NOT DUP3 GT ISZERO PUSH2 0x3AB5 JUMPI PUSH2 0x3AB5 PUSH2 0x3B98 JUMP JUMPDEST POP ADD SWAP1 JUMP JUMPDEST PUSH1 0x0 DUP3 PUSH2 0x3AC9 JUMPI PUSH2 0x3AC9 PUSH2 0x3BC7 JUMP JUMPDEST POP DIV SWAP1 JUMP JUMPDEST PUSH1 0x0 DUP2 PUSH32 0xFFFFFFFFFFFFFFFFFFFFFFFFFFFFFFFFFFFFFFFFFFFFFFFFFFFFFFFFFFFFFFFF DIV DUP4 GT DUP3 ISZERO ISZERO AND ISZERO PUSH2 0x3B06 JUMPI PUSH2 0x3B06 PUSH2 0x3B98 JUMP JUMPDEST POP MUL SWAP1 JUMP JUMPDEST PUSH1 0x0 PUSH4 0xFFFFFFFF DUP1 DUP4 AND DUP2 DUP6 AND DUP2 DUP4 DIV DUP2 GT DUP3 ISZERO ISZERO AND ISZERO PUSH2 0x3B2E JUMPI PUSH2 0x3B2E PUSH2 0x3B98 JUMP JUMPDEST MUL SWAP5 SWAP4 POP POP POP POP JUMP JUMPDEST PUSH1 0x0 DUP3 DUP3 LT ISZERO PUSH2 0x3B49 JUMPI PUSH2 0x3B49 PUSH2 0x3B98 JUMP JUMPDEST POP SUB SWAP1 JUMP JUMPDEST PUSH1 0x0 DUP3 PUSH2 0x3B5D JUMPI PUSH2 0x3B5D PUSH2 0x3BC7 JUMP JUMPDEST POP MOD SWAP1 JUMP JUMPDEST PUSH1 0x0 PUSH32 0x8000000000000000000000000000000000000000000000000000000000000000 DUP3 EQ ISZERO PUSH2 0x3B94 JUMPI PUSH2 0x3B94 PUSH2 0x3B98 JUMP JUMPDEST SUB SWAP1 JUMP JUMPDEST PUSH32 0x4E487B7100000000000000000000000000000000000000000000000000000000 PUSH1 0x0 MSTORE PUSH1 0x11 PUSH1 0x4 MSTORE PUSH1 0x24 PUSH1 0x0 REVERT JUMPDEST PUSH32 0x4E487B7100000000000000000000000000000000000000000000000000000000 PUSH1 0x0 MSTORE PUSH1 0x12 PUSH1 0x4 MSTORE PUSH1 0x24 PUSH1 0x0 REVERT JUMPDEST PUSH1 0x1 PUSH1 0x1 PUSH1 0xA0 SHL SUB DUP2 AND DUP2 EQ PUSH2 0x12EB JUMPI PUSH1 0x0 DUP1 REVERT JUMPDEST DUP1 ISZERO ISZERO DUP2 EQ PUSH2 0x12EB JUMPI PUSH1 0x0 DUP1 REVERT JUMPDEST PUSH4 0xFFFFFFFF DUP2 AND DUP2 EQ PUSH2 0x12EB JUMPI PUSH1 0x0 DUP1 REVERT INVALID GASLIMIT MSTORE NUMBER ORIGIN ADDRESS GASPRICE KECCAK256 PUSH21 0x72616E7366657220616D6F756E7420657863656564 PUSH20 0x20616C6C6F77616E6365A2646970667358221220 0xD4 GASLIMIT 0xBA 0x2F 0xDB 0xA5 SHR 0xB8 0xD3 0xEE 0x4B 0xED 0x2C 0xED 0xB6 0xE9 0xCD SHL PUSH10 0xC0317A471AD158AF8FC1 0x2F LT SWAP12 PUSH5 0x736F6C6343 STOP ADDMOD DIV STOP CALLER "
		},
		"gasEstimates": {
			"creation": {
				"codeDepositCost": "3099400",
				"executionCost": "infinite",
				"totalCost": "infinite"
			},
			"external": {
				"ATHvariance()": "infinite",
				"_buyEcosystemFee()": "1097",
				"_buyLiquidityFee()": "1095",
				"_buyMarketingFee()": "1073",
				"_buyTeamFee()": "1051",
				"_maxWalletAmount()": "1052",
				"_sellEcosystemFee()": "1053",
				"_sellLiquidityFee()": "1053",
				"_sellMarketingFee()": "1095",
				"_sellTeamFee()": "1052",
				"addBot(address)": "23010",
				"allowance(address,address)": "infinite",
				"approve(address,uint256)": "22605",
				"balanceOf(address)": "1332",
				"canBlackList()": "1111",
				"canChangeTax()": "1090",
				"canPause()": "1155",
				"configureDiamondFloor(bool,uint16)": "infinite",
				"configureStrongHands(bool,uint32)": "infinite",
				"cooldown()": "1171",
				"cooldownRemaining(address)": "infinite",
				"decimals()": "289",
				"diamondFloor()": "3689",
				"disableBlackListing()": "21866",
				"disablePauseAbility()": "21933",
				"disableTaxChange()": "21911",
				"disableToken()": "22749",
				"enableToken()": "21921",
				"excludeFromFee(address)": "22112",
				"includeInFee(address)": "22149",
				"isBot(address)": "1334",
				"manualSendToken(address)": "infinite",
				"manualsend()": "infinite",
				"manualswap()": "infinite",
				"name()": "infinite",
				"numTokensToSwap()": "1054",
				"openTrading(uint256)": "62005",
				"owner()": "1122",
				"pairPrice()": "infinite",
				"removeBot(address)": "22150",
				"renounceOwnership()": "24284",
				"setBuyTaxes(uint256,uint256,uint256,uint256)": "infinite",
				"setMaxWalletAmount(uint256)": "21442",
				"setSellTaxes(uint256,uint256,uint256,uint256)": "infinite",
				"setTransferTransactionMultiplier(uint256)": "21132",
				"symbol()": "infinite",
				"totalSupply()": "272",
				"tradingOpen()": "1120",
				"transfer(address,uint256)": "infinite",
				"transferFeeIncreaseFactor()": "1073",
				"transferFrom(address,address,uint256)": "infinite",
				"transferOwnership(address)": "infinite",
				"uniswapV2Pair()": "1127",
				"updateEcosystemAddress(address)": "22079",
				"updateLpRecipient(address)": "22080",
				"updateMarketingAddress(address)": "22103",
				"updateNumTokensToSwap(uint256)": "21131",
				"updateTeamAddress(address)": "22059"
			},
			"internal": {
				"_approve(address,address,uint256)": "infinite",
				"_checkPriceConditions()": "infinite",
				"_tokenTransfer(address,address,uint256,bool)": "infinite",
				"_transfer(address,address,uint256)": "infinite",
				"_transferStandard(address,address,uint256)": "infinite",
				"addLiquidity(uint256,uint256)": "infinite",
				"removeAllFee()": "infinite",
				"restoreAllFee()": "infinite",
				"sendETHToFee(uint256)": "infinite",
				"swapAndLiquify(uint256,uint256)": "infinite",
				"swapTokensForEth(uint256)": "infinite"
			}
		},
		"methodIdentifiers": {
			"ATHvariance()": "80670f3c",
			"_buyEcosystemFee()": "2843631d",
			"_buyLiquidityFee()": "dc44b6a0",
			"_buyMarketingFee()": "c5d24189",
			"_buyTeamFee()": "c469b6dd",
			"_maxWalletAmount()": "6c0a24eb",
			"_sellEcosystemFee()": "248dd232",
			"_sellLiquidityFee()": "88790a68",
			"_sellMarketingFee()": "c8607952",
			"_sellTeamFee()": "cab03471",
			"addBot(address)": "ffecf516",
			"allowance(address,address)": "dd62ed3e",
			"approve(address,uint256)": "095ea7b3",
			"balanceOf(address)": "70a08231",
			"canBlackList()": "301ad558",
			"canChangeTax()": "39a53c4e",
			"canPause()": "323be1c5",
			"configureDiamondFloor(bool,uint16)": "fe0bb982",
			"configureStrongHands(bool,uint32)": "729cb3f2",
			"cooldown()": "787a08a6",
			"cooldownRemaining(address)": "9d82190f",
			"decimals()": "313ce567",
			"diamondFloor()": "c95457ff",
			"disableBlackListing()": "d55cb78a",
			"disablePauseAbility()": "6aabff3f",
			"disableTaxChange()": "99a7b9bc",
			"disableToken()": "3e0f966d",
			"enableToken()": "8e360253",
			"excludeFromFee(address)": "437823ec",
			"includeInFee(address)": "ea2f0b37",
			"isBot(address)": "3bbac579",
			"manualSendToken(address)": "29409395",
			"manualsend()": "6fc3eaec",
			"manualswap()": "c3c8cd80",
			"name()": "06fdde03",
			"numTokensToSwap()": "01a6c43b",
			"openTrading(uint256)": "d1633649",
			"owner()": "8da5cb5b",
			"pairPrice()": "9491f94d",
			"removeBot(address)": "5fecd926",
			"renounceOwnership()": "715018a6",
			"setBuyTaxes(uint256,uint256,uint256,uint256)": "e4bf1bed",
			"setMaxWalletAmount(uint256)": "27a14fc2",
			"setSellTaxes(uint256,uint256,uint256,uint256)": "f480fec2",
			"setTransferTransactionMultiplier(uint256)": "a850673d",
			"symbol()": "95d89b41",
			"totalSupply()": "18160ddd",
			"tradingOpen()": "ffb54a99",
			"transfer(address,uint256)": "a9059cbb",
			"transferFeeIncreaseFactor()": "72b2aecc",
			"transferFrom(address,address,uint256)": "23b872dd",
			"transferOwnership(address)": "f2fde38b",
			"uniswapV2Pair()": "49bd5a5e",
			"updateEcosystemAddress(address)": "db0045ec",
			"updateLpRecipient(address)": "cdb3858f",
			"updateMarketingAddress(address)": "2369bf83",
			"updateNumTokensToSwap(uint256)": "e315a6da",
			"updateTeamAddress(address)": "14eb76ac"
		}
	},
	"abi": [
		{
			"inputs": [],
			"stateMutability": "nonpayable",
			"type": "constructor"
		},
		{
			"anonymous": false,
			"inputs": [
				{
					"indexed": true,
					"internalType": "address",
					"name": "owner",
					"type": "address"
				},
				{
					"indexed": true,
					"internalType": "address",
					"name": "spender",
					"type": "address"
				},
				{
					"indexed": false,
					"internalType": "uint256",
					"name": "value",
					"type": "uint256"
				}
			],
			"name": "Approval",
			"type": "event"
		},
		{
			"anonymous": false,
			"inputs": [
				{
					"indexed": false,
					"internalType": "uint256",
					"name": "_buyMarketingFee",
					"type": "uint256"
				},
				{
					"indexed": false,
					"internalType": "uint256",
					"name": "_buyLiquidityFee",
					"type": "uint256"
				},
				{
					"indexed": false,
					"internalType": "uint256",
					"name": "_buyTeamFee",
					"type": "uint256"
				},
				{
					"indexed": false,
					"internalType": "uint256",
					"name": "_buyEcosystemFee",
					"type": "uint256"
				}
			],
			"name": "BuyFeesUpdated",
			"type": "event"
		},
		{
			"anonymous": false,
			"inputs": [
				{
					"indexed": false,
					"internalType": "uint256",
					"name": "_maxTxAmount",
					"type": "uint256"
				}
			],
			"name": "MaxTxAmountUpdated",
			"type": "event"
		},
		{
			"anonymous": false,
			"inputs": [
				{
					"indexed": true,
					"internalType": "address",
					"name": "previousOwner",
					"type": "address"
				},
				{
					"indexed": true,
					"internalType": "address",
					"name": "newOwner",
					"type": "address"
				}
			],
			"name": "OwnershipTransferred",
			"type": "event"
		},
		{
			"anonymous": false,
			"inputs": [
				{
					"indexed": false,
					"internalType": "uint256",
					"name": "_sellMarketingFee",
					"type": "uint256"
				},
				{
					"indexed": false,
					"internalType": "uint256",
					"name": "_sellLiquidityFee",
					"type": "uint256"
				},
				{
					"indexed": false,
					"internalType": "uint256",
					"name": "_sellTeamFee",
					"type": "uint256"
				},
				{
					"indexed": false,
					"internalType": "uint256",
					"name": "_sellEcosystemFee",
					"type": "uint256"
				}
			],
			"name": "SellFeesUpdated",
			"type": "event"
		},
		{
			"anonymous": false,
			"inputs": [
				{
					"indexed": true,
					"internalType": "address",
					"name": "from",
					"type": "address"
				},
				{
					"indexed": true,
					"internalType": "address",
					"name": "to",
					"type": "address"
				},
				{
					"indexed": false,
					"internalType": "uint256",
					"name": "value",
					"type": "uint256"
				}
			],
			"name": "Transfer",
			"type": "event"
		},
		{
			"inputs": [],
			"name": "ATHvariance",
			"outputs": [
				{
					"internalType": "int256",
					"name": "",
					"type": "int256"
				}
			],
			"stateMutability": "view",
			"type": "function"
		},
		{
			"inputs": [],
			"name": "_buyEcosystemFee",
			"outputs": [
				{
					"internalType": "uint256",
					"name": "",
					"type": "uint256"
				}
			],
			"stateMutability": "view",
			"type": "function"
		},
		{
			"inputs": [],
			"name": "_buyLiquidityFee",
			"outputs": [
				{
					"internalType": "uint256",
					"name": "",
					"type": "uint256"
				}
			],
			"stateMutability": "view",
			"type": "function"
		},
		{
			"inputs": [],
			"name": "_buyMarketingFee",
			"outputs": [
				{
					"internalType": "uint256",
					"name": "",
					"type": "uint256"
				}
			],
			"stateMutability": "view",
			"type": "function"
		},
		{
			"inputs": [],
			"name": "_buyTeamFee",
			"outputs": [
				{
					"internalType": "uint256",
					"name": "",
					"type": "uint256"
				}
			],
			"stateMutability": "view",
			"type": "function"
		},
		{
			"inputs": [],
			"name": "_maxWalletAmount",
			"outputs": [
				{
					"internalType": "uint256",
					"name": "",
					"type": "uint256"
				}
			],
			"stateMutability": "view",
			"type": "function"
		},
		{
			"inputs": [],
			"name": "_sellEcosystemFee",
			"outputs": [
				{
					"internalType": "uint256",
					"name": "",
					"type": "uint256"
				}
			],
			"stateMutability": "view",
			"type": "function"
		},
		{
			"inputs": [],
			"name": "_sellLiquidityFee",
			"outputs": [
				{
					"internalType": "uint256",
					"name": "",
					"type": "uint256"
				}
			],
			"stateMutability": "view",
			"type": "function"
		},
		{
			"inputs": [],
			"name": "_sellMarketingFee",
			"outputs": [
				{
					"internalType": "uint256",
					"name": "",
					"type": "uint256"
				}
			],
			"stateMutability": "view",
			"type": "function"
		},
		{
			"inputs": [],
			"name": "_sellTeamFee",
			"outputs": [
				{
					"internalType": "uint256",
					"name": "",
					"type": "uint256"
				}
			],
			"stateMutability": "view",
			"type": "function"
		},
		{
			"inputs": [
				{
					"internalType": "address",
					"name": "account",
					"type": "address"
				}
			],
			"name": "addBot",
			"outputs": [],
			"stateMutability": "nonpayable",
			"type": "function"
		},
		{
			"inputs": [
				{
					"internalType": "address",
					"name": "owner",
					"type": "address"
				},
				{
					"internalType": "address",
					"name": "spender",
					"type": "address"
				}
			],
			"name": "allowance",
			"outputs": [
				{
					"internalType": "uint256",
					"name": "",
					"type": "uint256"
				}
			],
			"stateMutability": "view",
			"type": "function"
		},
		{
			"inputs": [
				{
					"internalType": "address",
					"name": "spender",
					"type": "address"
				},
				{
					"internalType": "uint256",
					"name": "amount",
					"type": "uint256"
				}
			],
			"name": "approve",
			"outputs": [
				{
					"internalType": "bool",
					"name": "",
					"type": "bool"
				}
			],
			"stateMutability": "nonpayable",
			"type": "function"
		},
		{
			"inputs": [
				{
					"internalType": "address",
					"name": "account",
					"type": "address"
				}
			],
			"name": "balanceOf",
			"outputs": [
				{
					"internalType": "uint256",
					"name": "",
					"type": "uint256"
				}
			],
			"stateMutability": "view",
			"type": "function"
		},
		{
			"inputs": [],
			"name": "canBlackList",
			"outputs": [
				{
					"internalType": "bool",
					"name": "",
					"type": "bool"
				}
			],
			"stateMutability": "view",
			"type": "function"
		},
		{
			"inputs": [],
			"name": "canChangeTax",
			"outputs": [
				{
					"internalType": "bool",
					"name": "",
					"type": "bool"
				}
			],
			"stateMutability": "view",
			"type": "function"
		},
		{
			"inputs": [],
			"name": "canPause",
			"outputs": [
				{
					"internalType": "bool",
					"name": "",
					"type": "bool"
				}
			],
			"stateMutability": "view",
			"type": "function"
		},
		{
			"inputs": [
				{
					"internalType": "bool",
					"name": "enabled",
					"type": "bool"
				},
				{
					"internalType": "uint16",
					"name": "triggerPercentage",
					"type": "uint16"
				}
			],
			"name": "configureDiamondFloor",
			"outputs": [],
			"stateMutability": "nonpayable",
			"type": "function"
		},
		{
			"inputs": [
				{
					"internalType": "bool",
					"name": "enabled",
					"type": "bool"
				},
				{
					"internalType": "uint32",
					"name": "duration",
					"type": "uint32"
				}
			],
			"name": "configureStrongHands",
			"outputs": [],
			"stateMutability": "nonpayable",
			"type": "function"
		},
		{
			"inputs": [],
			"name": "cooldown",
			"outputs": [
				{
					"internalType": "bool",
					"name": "enabled",
					"type": "bool"
				},
				{
					"internalType": "uint32",
					"name": "duration",
					"type": "uint32"
				}
			],
			"stateMutability": "view",
			"type": "function"
		},
		{
			"inputs": [
				{
					"internalType": "address",
					"name": "account",
					"type": "address"
				}
			],
			"name": "cooldownRemaining",
			"outputs": [
				{
					"internalType": "uint256",
					"name": "days_",
					"type": "uint256"
				},
				{
					"internalType": "uint256",
					"name": "hours_",
					"type": "uint256"
				},
				{
					"internalType": "uint256",
					"name": "minutes_",
					"type": "uint256"
				},
				{
					"internalType": "uint256",
					"name": "seconds_",
					"type": "uint256"
				}
			],
			"stateMutability": "view",
			"type": "function"
		},
		{
			"inputs": [],
			"name": "decimals",
			"outputs": [
				{
					"internalType": "uint8",
					"name": "",
					"type": "uint8"
				}
			],
			"stateMutability": "pure",
			"type": "function"
		},
		{
			"inputs": [],
			"name": "diamondFloor",
			"outputs": [
				{
					"internalType": "bool",
					"name": "enabled",
					"type": "bool"
				},
				{
					"internalType": "uint16",
					"name": "triggerPercentage",
					"type": "uint16"
				},
				{
					"internalType": "uint256",
					"name": "athPrice",
					"type": "uint256"
				},
				{
					"internalType": "bool",
					"name": "sellStopped",
					"type": "bool"
				},
				{
					"internalType": "uint256",
					"name": "blockedAth",
					"type": "uint256"
				}
			],
			"stateMutability": "view",
			"type": "function"
		},
		{
			"inputs": [],
			"name": "disableBlackListing",
			"outputs": [],
			"stateMutability": "nonpayable",
			"type": "function"
		},
		{
			"inputs": [],
			"name": "disablePauseAbility",
			"outputs": [],
			"stateMutability": "nonpayable",
			"type": "function"
		},
		{
			"inputs": [],
			"name": "disableTaxChange",
			"outputs": [],
			"stateMutability": "nonpayable",
			"type": "function"
		},
		{
			"inputs": [],
			"name": "disableToken",
			"outputs": [],
			"stateMutability": "nonpayable",
			"type": "function"
		},
		{
			"inputs": [],
			"name": "enableToken",
			"outputs": [],
			"stateMutability": "nonpayable",
			"type": "function"
		},
		{
			"inputs": [
				{
					"internalType": "address",
					"name": "account",
					"type": "address"
				}
			],
			"name": "excludeFromFee",
			"outputs": [],
			"stateMutability": "nonpayable",
			"type": "function"
		},
		{
			"inputs": [
				{
					"internalType": "address",
					"name": "account",
					"type": "address"
				}
			],
			"name": "includeInFee",
			"outputs": [],
			"stateMutability": "nonpayable",
			"type": "function"
		},
		{
			"inputs": [
				{
					"internalType": "address",
					"name": "account",
					"type": "address"
				}
			],
			"name": "isBot",
			"outputs": [
				{
					"internalType": "bool",
					"name": "",
					"type": "bool"
				}
			],
			"stateMutability": "view",
			"type": "function"
		},
		{
			"inputs": [
				{
					"internalType": "address",
					"name": "token",
					"type": "address"
				}
			],
			"name": "manualSendToken",
			"outputs": [],
			"stateMutability": "nonpayable",
			"type": "function"
		},
		{
			"inputs": [],
			"name": "manualsend",
			"outputs": [],
			"stateMutability": "nonpayable",
			"type": "function"
		},
		{
			"inputs": [],
			"name": "manualswap",
			"outputs": [],
			"stateMutability": "nonpayable",
			"type": "function"
		},
		{
			"inputs": [],
			"name": "name",
			"outputs": [
				{
					"internalType": "string",
					"name": "",
					"type": "string"
				}
			],
			"stateMutability": "pure",
			"type": "function"
		},
		{
			"inputs": [],
			"name": "numTokensToSwap",
			"outputs": [
				{
					"internalType": "uint256",
					"name": "",
					"type": "uint256"
				}
			],
			"stateMutability": "view",
			"type": "function"
		},
		{
			"inputs": [
				{
					"internalType": "uint256",
					"name": "botBlocks",
					"type": "uint256"
				}
			],
			"name": "openTrading",
			"outputs": [],
			"stateMutability": "nonpayable",
			"type": "function"
		},
		{
			"inputs": [],
			"name": "owner",
			"outputs": [
				{
					"internalType": "address",
					"name": "",
					"type": "address"
				}
			],
			"stateMutability": "view",
			"type": "function"
		},
		{
			"inputs": [],
			"name": "pairPrice",
			"outputs": [
				{
					"internalType": "uint256",
					"name": "",
					"type": "uint256"
				}
			],
			"stateMutability": "view",
			"type": "function"
		},
		{
			"inputs": [
				{
					"internalType": "address",
					"name": "account",
					"type": "address"
				}
			],
			"name": "removeBot",
			"outputs": [],
			"stateMutability": "nonpayable",
			"type": "function"
		},
		{
			"inputs": [],
			"name": "renounceOwnership",
			"outputs": [],
			"stateMutability": "nonpayable",
			"type": "function"
		},
		{
			"inputs": [
				{
					"internalType": "uint256",
					"name": "marketingFee",
					"type": "uint256"
				},
				{
					"internalType": "uint256",
					"name": "liquidityFee",
					"type": "uint256"
				},
				{
					"internalType": "uint256",
					"name": "teamFee",
					"type": "uint256"
				},
				{
					"internalType": "uint256",
					"name": "ecosystemFee",
					"type": "uint256"
				}
			],
			"name": "setBuyTaxes",
			"outputs": [],
			"stateMutability": "nonpayable",
			"type": "function"
		},
		{
			"inputs": [
				{
					"internalType": "uint256",
					"name": "maxWalletAmount",
					"type": "uint256"
				}
			],
			"name": "setMaxWalletAmount",
			"outputs": [],
			"stateMutability": "nonpayable",
			"type": "function"
		},
		{
			"inputs": [
				{
					"internalType": "uint256",
					"name": "marketingFee",
					"type": "uint256"
				},
				{
					"internalType": "uint256",
					"name": "liquidityFee",
					"type": "uint256"
				},
				{
					"internalType": "uint256",
					"name": "teamFee",
					"type": "uint256"
				},
				{
					"internalType": "uint256",
					"name": "ecosystemFee",
					"type": "uint256"
				}
			],
			"name": "setSellTaxes",
			"outputs": [],
			"stateMutability": "nonpayable",
			"type": "function"
		},
		{
			"inputs": [
				{
					"internalType": "uint256",
					"name": "_multiplier",
					"type": "uint256"
				}
			],
			"name": "setTransferTransactionMultiplier",
			"outputs": [],
			"stateMutability": "nonpayable",
			"type": "function"
		},
		{
			"inputs": [],
			"name": "symbol",
			"outputs": [
				{
					"internalType": "string",
					"name": "",
					"type": "string"
				}
			],
			"stateMutability": "pure",
			"type": "function"
		},
		{
			"inputs": [],
			"name": "totalSupply",
			"outputs": [
				{
					"internalType": "uint256",
					"name": "",
					"type": "uint256"
				}
			],
			"stateMutability": "pure",
			"type": "function"
		},
		{
			"inputs": [],
			"name": "tradingOpen",
			"outputs": [
				{
					"internalType": "bool",
					"name": "",
					"type": "bool"
				}
			],
			"stateMutability": "view",
			"type": "function"
		},
		{
			"inputs": [
				{
					"internalType": "address",
					"name": "recipient",
					"type": "address"
				},
				{
					"internalType": "uint256",
					"name": "amount",
					"type": "uint256"
				}
			],
			"name": "transfer",
			"outputs": [
				{
					"internalType": "bool",
					"name": "",
					"type": "bool"
				}
			],
			"stateMutability": "nonpayable",
			"type": "function"
		},
		{
			"inputs": [],
			"name": "transferFeeIncreaseFactor",
			"outputs": [
				{
					"internalType": "uint256",
					"name": "",
					"type": "uint256"
				}
			],
			"stateMutability": "view",
			"type": "function"
		},
		{
			"inputs": [
				{
					"internalType": "address",
					"name": "sender",
					"type": "address"
				},
				{
					"internalType": "address",
					"name": "recipient",
					"type": "address"
				},
				{
					"internalType": "uint256",
					"name": "amount",
					"type": "uint256"
				}
			],
			"name": "transferFrom",
			"outputs": [
				{
					"internalType": "bool",
					"name": "",
					"type": "bool"
				}
			],
			"stateMutability": "nonpayable",
			"type": "function"
		},
		{
			"inputs": [
				{
					"internalType": "address",
					"name": "newOwner",
					"type": "address"
				}
			],
			"name": "transferOwnership",
			"outputs": [],
			"stateMutability": "nonpayable",
			"type": "function"
		},
		{
			"inputs": [],
			"name": "uniswapV2Pair",
			"outputs": [
				{
					"internalType": "address",
					"name": "",
					"type": "address"
				}
			],
			"stateMutability": "view",
			"type": "function"
		},
		{
			"inputs": [
				{
					"internalType": "address payable",
					"name": "ecosystemAddress",
					"type": "address"
				}
			],
			"name": "updateEcosystemAddress",
			"outputs": [],
			"stateMutability": "nonpayable",
			"type": "function"
		},
		{
			"inputs": [
				{
					"internalType": "address payable",
					"name": "lpRecipient",
					"type": "address"
				}
			],
			"name": "updateLpRecipient",
			"outputs": [],
			"stateMutability": "nonpayable",
			"type": "function"
		},
		{
			"inputs": [
				{
					"internalType": "address payable",
					"name": "marketingAddress",
					"type": "address"
				}
			],
			"name": "updateMarketingAddress",
			"outputs": [],
			"stateMutability": "nonpayable",
			"type": "function"
		},
		{
			"inputs": [
				{
					"internalType": "uint256",
					"name": "numTokens",
					"type": "uint256"
				}
			],
			"name": "updateNumTokensToSwap",
			"outputs": [],
			"stateMutability": "nonpayable",
			"type": "function"
		},
		{
			"inputs": [
				{
					"internalType": "address payable",
					"name": "teamAddress",
					"type": "address"
				}
			],
			"name": "updateTeamAddress",
			"outputs": [],
			"stateMutability": "nonpayable",
			"type": "function"
		},
		{
			"stateMutability": "payable",
			"type": "receive"
		}
	]
}