{
	"data": {
		"bytecode": {
			"linkReferences": {},
			"object": "6080604052606460065560236008556100266103e86b033b2e3c9fd0803ce80000006103f2565b600955348015610034575f80fd5b506040518060400160405280600981526020016826b2b6b29021b7b4b760b91b815250604051806040016040528060048152602001634d454d4560e01b815250816003908161008391906104a8565b50600461009082826104a8565b5050506100a96100a461015060201b60201c565b610154565b6100bf336b033b2e3c9fd0803ce80000006101a5565b601380546001600160a01b0319167310ed43c718714eb63d5aa57b78b54704e256024e1790556100ed610266565b604080516080810182525f80825260208083018290528284018290526060909201819052600780546001600160401b03191690553381526015909152818120805460ff1990811660019081179092553083529290912080549092161790556105b9565b3390565b600580546001600160a01b038381166001600160a01b0319831681179093556040519116919082907f8be0079c531659141344cd1fd0a4f28419497f9722a3daafe3b4186f6b6457e0905f90a35050565b6001600160a01b0382166101ff5760405162461bcd60e51b815260206004820152601f60248201527f45524332303a206d696e7420746f20746865207a65726f206164647265737300604482015260640160405180910390fd5b8060025f8282546102109190610567565b90915550506001600160a01b0382165f81815260208181526040808320805486019055518481527fddf252ad1be2c89b69c2b068fc378daa952ba7f163c4a11628f55a4df523b3ef910160405180910390a35050565b60135f9054906101000a90046001600160a01b03166001600160a01b031663c45a01556040518163ffffffff1660e01b8152600401602060405180830381865afa1580156102b6573d5f803e3d5ffd5b505050506040513d601f19601f820116820180604052508101906102da919061058c565b6001600160a01b031663c9c653963060135f9054906101000a90046001600160a01b03166001600160a01b031663ad5c46486040518163ffffffff1660e01b8152600401602060405180830381865afa158015610339573d5f803e3d5ffd5b505050506040513d601f19601f8201168201806040525081019061035d919061058c565b6040516001600160e01b031960e085901b1681526001600160a01b039283166004820152911660248201526044016020604051808303815f875af11580156103a7573d5f803e3d5ffd5b505050506040513d601f19601f820116820180604052508101906103cb919061058c565b601480546001600160a01b0319166001600160a01b0392909216919091179055565b505050565b5f8261040c57634e487b7160e01b5f52601260045260245ffd5b500490565b634e487b7160e01b5f52604160045260245ffd5b600181811c9082168061043957607f821691505b60208210810361045757634e487b7160e01b5f52602260045260245ffd5b50919050565b601f8211156103ed57805f5260205f20601f840160051c810160208510156104825750805b601f840160051c820191505b818110156104a1575f815560010161048e565b5050505050565b81516001600160401b038111156104c1576104c1610411565b6104d5816104cf8454610425565b8461045d565b602080601f831160018114610508575f84156104f15750858301515b5f19600386901b1c1916600185901b17855561055f565b5f85815260208120601f198616915b8281101561053657888601518255948401946001909101908401610517565b508582101561055357878501515f19600388901b60f8161c191681555b505060018460011b0185555b505050505050565b8082018082111561058657634e487b7160e01b5f52601160045260245ffd5b92915050565b5f6020828403121561059c575f80fd5b81516001600160a01b03811681146105b2575f80fd5b9392505050565b6122e8806105c65f395ff3fe6080604052600436106101f4575f3560e01c80639491f94d11610108578063ad5dff731161009d578063d8d61c401161006d578063d8d61c401461064e578063dd62ed3e14610663578063f2fde38b14610682578063fe0bb982146106a1578063fe6b751e146106c0575f80fd5b8063ad5dff7314610588578063c0d78655146105b6578063c531b108146105d5578063c95457ff146105ea575f80fd5b80639fde54f5116100d85780639fde54f51461050c578063a457c2d71461052b578063a8b089821461054a578063a9059cbb14610569575f80fd5b80639491f94d1461048657806395d89b411461049a578063960bfe04146104ae5780639d82190f146104cd575f80fd5b8063333f4b3d11610189578063715018a611610159578063715018a6146103eb5780637773168f146103ff578063787a08a6146104135780638da5cb5b146104555780638f9a55c014610472575f80fd5b8063333f4b3d1461031d5780633950935114610383578063599ca397146103a257806370a08231146103b7575f80fd5b806318160ddd116101c457806318160ddd1461029857806323b872dd146102ac578063313ce567146102cb5780633268cc56146102e6575f80fd5b80630445b667146101ff57806306fdde0314610227578063095ea7b3146102485780631569d18114610277575f80fd5b366101fb57005b5f80fd5b34801561020a575f80fd5b5061021460095481565b6040519081526020015b60405180910390f35b348015610232575f80fd5b5061023b6106df565b60405161021e9190611d73565b348015610253575f80fd5b50610267610262366004611dbc565b61076f565b604051901515815260200161021e565b348015610282575f80fd5b50610296610291366004611dfc565b610788565b005b3480156102a3575f80fd5b50600254610214565b3480156102b7575f80fd5b506102676102c6366004611e4d565b6108b7565b3480156102d6575f80fd5b506040516012815260200161021e565b3480156102f1575f80fd5b50601354610305906001600160a01b031681565b6040516001600160a01b03909116815260200161021e565b348015610328575f80fd5b506007546103559061ffff80821691620100008104821691600160201b8204811691600160301b90041684565b6040805161ffff9586168152938516602085015291841691830191909152909116606082015260800161021e565b34801561038e575f80fd5b5061026761039d366004611dbc565b6108dc565b3480156103ad575f80fd5b5061021460065481565b3480156103c2575f80fd5b506102146103d1366004611e8b565b6001600160a01b03165f9081526020819052604090205490565b3480156103f6575f80fd5b506102966108fd565b34801561040a575f80fd5b50610214610910565b34801561041e575f80fd5b50600d546104399060ff811690610100900463ffffffff1682565b60408051921515835263ffffffff90911660208301520161021e565b348015610460575f80fd5b506005546001600160a01b0316610305565b34801561047d575f80fd5b5061021461098f565b348015610491575f80fd5b506102146109bc565b3480156104a5575f80fd5b5061023b610b16565b3480156104b9575f80fd5b506102966104c8366004611ea6565b610b25565b3480156104d8575f80fd5b506104ec6104e7366004611e8b565b610b32565b60408051948552602085019390935291830152606082015260800161021e565b348015610517575f80fd5b50610296610526366004611ecc565b610bde565b348015610536575f80fd5b50610267610545366004611dbc565b610c10565b348015610555575f80fd5b50601454610305906001600160a01b031681565b348015610574575f80fd5b50610267610583366004611dbc565b610c95565b348015610593575f80fd5b506102676105a2366004611e8b565b60156020525f908152604090205460ff1681565b3480156105c1575f80fd5b506102966105d0366004611e8b565b610ca2565b3480156105e0575f80fd5b50610214600b5481565b3480156105f5575f80fd5b50600f5460105460115460125461061f9360ff8082169461010090920461ffff1693919291169085565b60408051951515865261ffff90941660208601529284019190915215156060830152608082015260a00161021e565b348015610659575f80fd5b50610214600a5481565b34801561066e575f80fd5b5061021461067d366004611eff565b610d0c565b34801561068d575f80fd5b5061029661069c366004611e8b565b610d36565b3480156106ac575f80fd5b506102966106bb366004611f36565b610daf565b3480156106cb575f80fd5b506102966106da366004611f6f565b610de1565b6060600380546106ee90611f99565b80601f016020809104026020016040519081016040528092919081815260200182805461071a90611f99565b80156107655780601f1061073c57610100808354040283529160200191610765565b820191905f5260205f20905b81548152906001019060200180831161074857829003601f168201915b5050505050905090565b5f3361077c818585610e27565b60019150505b92915050565b610790610f4a565b6109c461079d8486611fe5565b61ffff1611156107e75760405162461bcd60e51b815260206004820152601060248201526f084eaf240e8c2f040e8dede40d0d2ced60831b60448201526064015b60405180910390fd5b6109c46107f48284611fe5565b61ffff16111561083a5760405162461bcd60e51b81526020600482015260116024820152700a6cad8d840e8c2f040e8dede40d0d2ced607b1b60448201526064016107de565b6040805160808101825261ffff958616808252948616602082018190529386169181018290529190941660609091018190526007805463ffffffff1916909317620100009092029190911767ffffffff000000001916600160201b90930267ffff000000000000191692909217600160301b909202919091179055565b5f336108c4858285610fa4565b6108cf85858561101c565b60019150505b9392505050565b5f3361077c8185856108ee8383610d0c565b6108f89190612007565b610e27565b610905610f4a565b61090e5f6112ec565b565b6010545f90810361092057505f90565b5f6109296109bc565b601054909150811161096c5760105461095e90610958670de0b6b3a7640000610952838661133d565b90611348565b90611353565b6109679061201a565b610989565b60105461098990610958670de0b6b3a7640000610952858461133d565b91505090565b5f6109b76127106109586006546b033b2e3c9fd0803ce800000061134890919063ffffffff16565b905090565b5f805f60145f9054906101000a90046001600160a01b03166001600160a01b0316630902f1ac6040518163ffffffff1660e01b8152600401606060405180830381865afa158015610a0f573d5f803e3d5ffd5b505050506040513d601f19601f82011682018060405250810190610a33919061204a565b5091509150306001600160a01b031660145f9054906101000a90046001600160a01b03166001600160a01b0316630dfe16816040518163ffffffff1660e01b8152600401602060405180830381865afa158015610a92573d5f803e3d5ffd5b505050506040513d601f19601f82011682018060405250810190610ab6919061208e565b6001600160a01b031614610aec57610ae76001600160701b0380831690610958908516670de0b6b3a7640000611348565b610b0f565b610b0f6001600160701b0380841690610958908416670de0b6b3a7640000611348565b9250505090565b6060600480546106ee90611f99565b610b2d610f4a565b600955565b6001600160a01b0381165f908152600e602052604081205481908190819081904210610b5e575f610b80565b6001600160a01b0386165f908152600e6020526040902054610b80904261133d565b9050610b8f8162015180611353565b9450610b9e62015180826120bd565b9050610bac81610e10611353565b9350610bba610e10826120bd565b9050610bc781603c611353565b9250610bd4603c826120bd565b9150509193509193565b610be6610f4a565b6001600160a01b03919091165f908152601560205260409020805460ff1916911515919091179055565b5f3381610c1d8286610d0c565b905083811015610c7d5760405162461bcd60e51b815260206004820152602560248201527f45524332303a2064656372656173656420616c6c6f77616e63652062656c6f77604482015264207a65726f60d81b60648201526084016107de565b610c8a8286868403610e27565b506001949350505050565b5f3361077c81858561101c565b610caa610f4a565b601380546001600160a01b0319166001600160a01b038316179055610ccd61135e565b6040516001600160a01b03821681527f7aed1d3e8155a07ccf395e44ea3109a0e2d6c9b29bbbe9f142d9790596f4dc809060200160405180910390a150565b6001600160a01b039182165f90815260016020908152604080832093909416825291909152205490565b610d3e610f4a565b6001600160a01b038116610da35760405162461bcd60e51b815260206004820152602660248201527f4f776e61626c653a206e6577206f776e657220697320746865207a65726f206160448201526564647265737360d01b60648201526084016107de565b610dac816112ec565b50565b610db7610f4a565b600f805462ffffff191692151562ffff0019169290921761010061ffff9290921691909102179055565b610de9610f4a565b600d805460ff1916831515179055610e0281603c6120d0565b600d805463ffffffff929092166101000264ffffffff00199092169190911790555050565b6001600160a01b038316610e895760405162461bcd60e51b8152602060048201526024808201527f45524332303a20617070726f76652066726f6d20746865207a65726f206164646044820152637265737360e01b60648201526084016107de565b6001600160a01b038216610eea5760405162461bcd60e51b815260206004820152602260248201527f45524332303a20617070726f766520746f20746865207a65726f206164647265604482015261737360f01b60648201526084016107de565b6001600160a01b038381165f8181526001602090815260408083209487168084529482529182902085905590518481527f8c5be1e5ebec7d5bd14f71427d1e84f3dd0314c0f7b2291e5b200ac8c7c3b925910160405180910390a3505050565b6005546001600160a01b0316331461090e5760405162461bcd60e51b815260206004820181905260248201527f4f776e61626c653a2063616c6c6572206973206e6f7420746865206f776e657260448201526064016107de565b5f610faf8484610d0c565b90505f19811461101657818110156110095760405162461bcd60e51b815260206004820152601d60248201527f45524332303a20696e73756666696369656e7420616c6c6f77616e636500000060448201526064016107de565b6110168484848403610e27565b50505050565b5f811161106b5760405162461bcd60e51b815260206004820152601a60248201527f5472616e7366657220616d6f756e74206d757374206265203e3000000000000060448201526064016107de565b6014545f906001600160a01b0385811691161480156110a257506001600160a01b0383165f9081526015602052604090205460ff16155b6014549091505f906001600160a01b0385811691161480156110dc57506001600160a01b0385165f9081526015602052604090205460ff16155b600f5490915060ff1680156110ee5750805b1561114e5760115460ff16156111465760405162461bcd60e51b815260206004820152601e60248201527f53656c6c732073746f70706564206279204469616d6f6e6420466c6f6f72000060448201526064016107de565b61114e6114e5565b600d5460ff16801561115d5750805b156111ec576001600160a01b0385165f908152600e60205260409020544210156111bb5760405162461bcd60e51b815260206004820152600f60248201526e436f6f6c646f776e2061637469766560881b60448201526064016107de565b600d546111d390610100900463ffffffff1642612007565b6001600160a01b0386165f908152600e60205260409020555b5f6111f886868661159b565b90505f611205858361133d565b6001600160a01b0387165f9081526015602052604090205490915060ff1615801561122e575082155b156112a75761123b61098f565b6112638261125d896001600160a01b03165f9081526020819052604090205490565b906116c7565b11156112a75760405162461bcd60e51b815260206004820152601360248201527213585e081dd85b1b195d08195e18d959591959606a1b60448201526064016107de565b81156112c3576112b88730846116d2565b6112c3828585611874565b6112ce8787836116d2565b6112d66119de565b156112e3576112e3611a1d565b50505050505050565b600580546001600160a01b038381166001600160a01b0319831681179093556040519116919082907f8be0079c531659141344cd1fd0a4f28419497f9722a3daafe3b4186f6b6457e0905f90a35050565b5f6108d582846120f8565b5f6108d5828461210b565b5f6108d58284612122565b60135f9054906101000a90046001600160a01b03166001600160a01b031663c45a01556040518163ffffffff1660e01b8152600401602060405180830381865afa1580156113ae573d5f803e3d5ffd5b505050506040513d601f19601f820116820180604052508101906113d2919061208e565b6001600160a01b031663c9c653963060135f9054906101000a90046001600160a01b03166001600160a01b031663ad5c46486040518163ffffffff1660e01b8152600401602060405180830381865afa158015611431573d5f803e3d5ffd5b505050506040513d601f19601f82011682018060405250810190611455919061208e565b6040516001600160e01b031960e085901b1681526001600160a01b039283166004820152911660248201526044016020604051808303815f875af115801561149f573d5f803e3d5ffd5b505050506040513d601f19601f820116820180604052508101906114c3919061208e565b601480546001600160a01b0319166001600160a01b0392909216919091179055565b5f6114ee6109bc565b60105490915081111561151857601081905560115460ff1615610dac576011805460ff1916905550565b600f545f9061154590612710906109589061153c90610100900461ffff16836120f8565b60105490611348565b905080821015611563576011805460ff191660011790556010546012555b60115460ff168015611582575060125461157e906002611348565b8210155b15611597576011805460ff1916905560108290555b5050565b6001600160a01b0383165f9081526015602052604081205460ff16806115d857506001600160a01b0383165f9081526015602052604090205460ff165b156115e457505f6108d5565b6014546001600160a01b0390811685821681149185161481156116375760075461162e9061271090610958906116279061ffff80821691620100009004166116c7565b8790611348565b925050506108d5565b801561166a5760075461162e9061271090610958906116279061ffff600160201b8204811691600160301b9004166116c7565b6007545f9061168d9061ffff600160201b8204811691600160301b9004166116c7565b90505f6116aa600a6109586008548561134890919063ffffffff16565b90506116bc6127106109588884611348565b9450505050506108d5565b5f6108d58284612007565b6001600160a01b0383166117365760405162461bcd60e51b815260206004820152602560248201527f45524332303a207472616e736665722066726f6d20746865207a65726f206164604482015264647265737360d81b60648201526084016107de565b6001600160a01b0382166117985760405162461bcd60e51b815260206004820152602360248201527f45524332303a207472616e7366657220746f20746865207a65726f206164647260448201526265737360e81b60648201526084016107de565b6001600160a01b0383165f908152602081905260409020548181101561180f5760405162461bcd60e51b815260206004820152602660248201527f45524332303a207472616e7366657220616d6f756e7420657863656564732062604482015265616c616e636560d01b60648201526084016107de565b6001600160a01b038481165f81815260208181526040808320878703905593871680835291849020805487019055925185815290927fddf252ad1be2c89b69c2b068fc378daa952ba7f163c4a11628f55a4df523b3ef910160405180910390a3611016565b5f8083156118b6576007546118af906118999061ffff62010000820481169116611fe5565b60075461ffff9182169161095891899116611348565b9150611964565b82156118ff576007546118af906118e19061ffff600160301b8204811691600160201b900416611fe5565b60075461ffff91821691610958918991600160201b90910416611348565b6007545f906119229061ffff600160301b8204811691600160201b900416611fe5565b61ffff169050611960600a6109586008546109528561095860075f0160049054906101000a900461ffff1661ffff168d61134890919063ffffffff16565b9250505b61196e82866120f8565b905081600a5f8282546119819190612007565b9250508190555080600b5f8282546119999190612007565b909155505060408051838152602081018390527ff2d9f3f00fc700757eb74f9aa3dba0e2eb1280e0c6e0cf65962cc055528d7a90910160405180910390a15050505050565b600c545f9060ff16158015611a035750600954600b54600a54611a00916116c7565b10155b80156109b75750506014546001600160a01b031633141590565b5f600b54600a54611a2e9190612007565b9050600954811015611a3d5750565b600c805460ff19166001179055600b544790611a5890611b07565b5f611a63478361133d565b9050611a776005546001600160a01b031690565b6001600160a01b03166108fc8290811502906040515f60405180830381858888f19350505050158015611aac573d5f803e3d5ffd5b50600a545f611abc826002611353565b9050611ac781611b07565b5f611ad2478561133d565b9050611ae7611ae1848461133d565b82611c68565b50505f600a819055600b555050600c805460ff191690555050565b505050565b6040805160028082526060820183525f9260208301908036833701905050905030815f81518110611b3a57611b3a612149565b6001600160a01b03928316602091820292909201810191909152601354604080516315ab88c960e31b81529051919093169263ad5c46489260048083019391928290030181865afa158015611b91573d5f803e3d5ffd5b505050506040513d601f19601f82011682018060405250810190611bb5919061208e565b81600181518110611bc857611bc8612149565b6001600160a01b039283166020918202929092010152601354611bee9130911684610e27565b6013546040516318cbafe560e01b81526001600160a01b03909116906318cbafe590611c269085905f9086903090429060040161215d565b5f604051808303815f875af1158015611c41573d5f803e3d5ffd5b505050506040513d5f823e601f3d908101601f19168201604052611b0291908101906121ce565b601354611c809030906001600160a01b031684610e27565b6013546001600160a01b031663f305d7198230855f80611ca86005546001600160a01b031690565b60405160e088901b6001600160e01b03191681526001600160a01b03958616600482015260248101949094526044840192909252606483015290911660848201524260a482015260c40160606040518083038185885af1158015611d0e573d5f803e3d5ffd5b50505050506040513d601f19601f82011682018060405250810190611d339190612287565b505060408051848152602081018490527f38f8a0c92f4c5b0b6877f878cb4c0c8d348a47b76d716c8e78f425043df9515b92500160405180910390a15050565b602081525f82518060208401528060208501604085015e5f604082850101526040601f19601f83011684010191505092915050565b6001600160a01b0381168114610dac575f80fd5b5f8060408385031215611dcd575f80fd5b8235611dd881611da8565b946020939093013593505050565b803561ffff81168114611df7575f80fd5b919050565b5f805f8060808587031215611e0f575f80fd5b611e1885611de6565b9350611e2660208601611de6565b9250611e3460408601611de6565b9150611e4260608601611de6565b905092959194509250565b5f805f60608486031215611e5f575f80fd5b8335611e6a81611da8565b92506020840135611e7a81611da8565b929592945050506040919091013590565b5f60208284031215611e9b575f80fd5b81356108d581611da8565b5f60208284031215611eb6575f80fd5b5035919050565b80358015158114611df7575f80fd5b5f8060408385031215611edd575f80fd5b8235611ee881611da8565b9150611ef660208401611ebd565b90509250929050565b5f8060408385031215611f10575f80fd5b8235611f1b81611da8565b91506020830135611f2b81611da8565b809150509250929050565b5f8060408385031215611f47575f80fd5b611f5083611ebd565b9150611ef660208401611de6565b63ffffffff81168114610dac575f80fd5b5f8060408385031215611f80575f80fd5b611f8983611ebd565b91506020830135611f2b81611f5e565b600181811c90821680611fad57607f821691505b602082108103611fcb57634e487b7160e01b5f52602260045260245ffd5b50919050565b634e487b7160e01b5f52601160045260245ffd5b61ffff81811683821601908082111561200057612000611fd1565b5092915050565b8082018082111561078257610782611fd1565b5f600160ff1b820161202e5761202e611fd1565b505f0390565b80516001600160701b0381168114611df7575f80fd5b5f805f6060848603121561205c575f80fd5b61206584612034565b925061207360208501612034565b9150604084015161208381611f5e565b809150509250925092565b5f6020828403121561209e575f80fd5b81516108d581611da8565b634e487b7160e01b5f52601260045260245ffd5b5f826120cb576120cb6120a9565b500690565b63ffffffff8181168382160280821691908281146120f0576120f0611fd1565b505092915050565b8181038181111561078257610782611fd1565b808202811582820484141761078257610782611fd1565b5f82612130576121306120a9565b500490565b634e487b7160e01b5f52604160045260245ffd5b634e487b7160e01b5f52603260045260245ffd5b5f60a08201878352602087602085015260a0604085015281875180845260c0860191506020890193505f5b818110156121ad5784516001600160a01b031683529383019391830191600101612188565b50506001600160a01b03969096166060850152505050608001529392505050565b5f60208083850312156121df575f80fd5b825167ffffffffffffffff808211156121f6575f80fd5b818501915085601f830112612209575f80fd5b81518181111561221b5761221b612135565b8060051b604051601f19603f8301168101818110858211171561224057612240612135565b60405291825284820192508381018501918883111561225d575f80fd5b938501935b8285101561227b57845184529385019392850192612262565b98975050505050505050565b5f805f60608486031215612299575f80fd5b835192506020840151915060408401519050925092509256fea264697066735822122058ff80e09a44ac810eca1f7ec706d8a9e4d48933c73aacb957ac449dba91ca2564736f6c63430008190033",
			"opcodes": "PUSH1 0x80 PUSH1 0x40 MSTORE PUSH1 0x64 PUSH1 0x6 SSTORE PUSH1 0x23 PUSH1 0x8 SSTORE PUSH2 0x26 PUSH2 0x3E8 PUSH12 0x33B2E3C9FD0803CE8000000 PUSH2 0x3F2 JUMP JUMPDEST PUSH1 0x9 SSTORE CALLVALUE DUP1 ISZERO PUSH2 0x34 JUMPI PUSH0 DUP1 REVERT JUMPDEST POP PUSH1 0x40 MLOAD DUP1 PUSH1 0x40 ADD PUSH1 0x40 MSTORE DUP1 PUSH1 0x9 DUP2 MSTORE PUSH1 0x20 ADD PUSH9 0x26B2B6B29021B7B4B7 PUSH1 0xB9 SHL DUP2 MSTORE POP PUSH1 0x40 MLOAD DUP1 PUSH1 0x40 ADD PUSH1 0x40 MSTORE DUP1 PUSH1 0x4 DUP2 MSTORE PUSH1 0x20 ADD PUSH4 0x4D454D45 PUSH1 0xE0 SHL DUP2 MSTORE POP DUP2 PUSH1 0x3 SWAP1 DUP2 PUSH2 0x83 SWAP2 SWAP1 PUSH2 0x4A8 JUMP JUMPDEST POP PUSH1 0x4 PUSH2 0x90 DUP3 DUP3 PUSH2 0x4A8 JUMP JUMPDEST POP POP POP PUSH2 0xA9 PUSH2 0xA4 PUSH2 0x150 PUSH1 0x20 SHL PUSH1 0x20 SHR JUMP JUMPDEST PUSH2 0x154 JUMP JUMPDEST PUSH2 0xBF CALLER PUSH12 0x33B2E3C9FD0803CE8000000 PUSH2 0x1A5 JUMP JUMPDEST PUSH1 0x13 DUP1 SLOAD PUSH1 0x1 PUSH1 0x1 PUSH1 0xA0 SHL SUB NOT AND PUSH20 0x10ED43C718714EB63D5AA57B78B54704E256024E OR SWAP1 SSTORE PUSH2 0xED PUSH2 0x266 JUMP JUMPDEST PUSH1 0x40 DUP1 MLOAD PUSH1 0x80 DUP2 ADD DUP3 MSTORE PUSH0 DUP1 DUP3 MSTORE PUSH1 0x20 DUP1 DUP4 ADD DUP3 SWAP1 MSTORE DUP3 DUP5 ADD DUP3 SWAP1 MSTORE PUSH1 0x60 SWAP1 SWAP3 ADD DUP2 SWAP1 MSTORE PUSH1 0x7 DUP1 SLOAD PUSH1 0x1 PUSH1 0x1 PUSH1 0x40 SHL SUB NOT AND SWAP1 SSTORE CALLER DUP2 MSTORE PUSH1 0x15 SWAP1 SWAP2 MSTORE DUP2 DUP2 KECCAK256 DUP1 SLOAD PUSH1 0xFF NOT SWAP1 DUP2 AND PUSH1 0x1 SWAP1 DUP2 OR SWAP1 SWAP3 SSTORE ADDRESS DUP4 MSTORE SWAP3 SWAP1 SWAP2 KECCAK256 DUP1 SLOAD SWAP1 SWAP3 AND OR SWAP1 SSTORE PUSH2 0x5B9 JUMP JUMPDEST CALLER SWAP1 JUMP JUMPDEST PUSH1 0x5 DUP1 SLOAD PUSH1 0x1 PUSH1 0x1 PUSH1 0xA0 SHL SUB DUP4 DUP2 AND PUSH1 0x1 PUSH1 0x1 PUSH1 0xA0 SHL SUB NOT DUP4 AND DUP2 OR SWAP1 SWAP4 SSTORE PUSH1 0x40 MLOAD SWAP2 AND SWAP2 SWAP1 DUP3 SWAP1 PUSH32 0x8BE0079C531659141344CD1FD0A4F28419497F9722A3DAAFE3B4186F6B6457E0 SWAP1 PUSH0 SWAP1 LOG3 POP POP JUMP JUMPDEST PUSH1 0x1 PUSH1 0x1 PUSH1 0xA0 SHL SUB DUP3 AND PUSH2 0x1FF JUMPI PUSH1 0x40 MLOAD PUSH3 0x461BCD PUSH1 0xE5 SHL DUP2 MSTORE PUSH1 0x20 PUSH1 0x4 DUP3 ADD MSTORE PUSH1 0x1F PUSH1 0x24 DUP3 ADD MSTORE PUSH32 0x45524332303A206D696E7420746F20746865207A65726F206164647265737300 PUSH1 0x44 DUP3 ADD MSTORE PUSH1 0x64 ADD PUSH1 0x40 MLOAD DUP1 SWAP2 SUB SWAP1 REVERT JUMPDEST DUP1 PUSH1 0x2 PUSH0 DUP3 DUP3 SLOAD PUSH2 0x210 SWAP2 SWAP1 PUSH2 0x567 JUMP JUMPDEST SWAP1 SWAP2 SSTORE POP POP PUSH1 0x1 PUSH1 0x1 PUSH1 0xA0 SHL SUB DUP3 AND PUSH0 DUP2 DUP2 MSTORE PUSH1 0x20 DUP2 DUP2 MSTORE PUSH1 0x40 DUP1 DUP4 KECCAK256 DUP1 SLOAD DUP7 ADD SWAP1 SSTORE MLOAD DUP5 DUP2 MSTORE PUSH32 0xDDF252AD1BE2C89B69C2B068FC378DAA952BA7F163C4A11628F55A4DF523B3EF SWAP2 ADD PUSH1 0x40 MLOAD DUP1 SWAP2 SUB SWAP1 LOG3 POP POP JUMP JUMPDEST PUSH1 0x13 PUSH0 SWAP1 SLOAD SWAP1 PUSH2 0x100 EXP SWAP1 DIV PUSH1 0x1 PUSH1 0x1 PUSH1 0xA0 SHL SUB AND PUSH1 0x1 PUSH1 0x1 PUSH1 0xA0 SHL SUB AND PUSH4 0xC45A0155 PUSH1 0x40 MLOAD DUP2 PUSH4 0xFFFFFFFF AND PUSH1 0xE0 SHL DUP2 MSTORE PUSH1 0x4 ADD PUSH1 0x20 PUSH1 0x40 MLOAD DUP1 DUP4 SUB DUP2 DUP7 GAS STATICCALL ISZERO DUP1 ISZERO PUSH2 0x2B6 JUMPI RETURNDATASIZE PUSH0 DUP1 RETURNDATACOPY RETURNDATASIZE PUSH0 REVERT JUMPDEST POP POP POP POP PUSH1 0x40 MLOAD RETURNDATASIZE PUSH1 0x1F NOT PUSH1 0x1F DUP3 ADD AND DUP3 ADD DUP1 PUSH1 0x40 MSTORE POP DUP2 ADD SWAP1 PUSH2 0x2DA SWAP2 SWAP1 PUSH2 0x58C JUMP JUMPDEST PUSH1 0x1 PUSH1 0x1 PUSH1 0xA0 SHL SUB AND PUSH4 0xC9C65396 ADDRESS PUSH1 0x13 PUSH0 SWAP1 SLOAD SWAP1 PUSH2 0x100 EXP SWAP1 DIV PUSH1 0x1 PUSH1 0x1 PUSH1 0xA0 SHL SUB AND PUSH1 0x1 PUSH1 0x1 PUSH1 0xA0 SHL SUB AND PUSH4 0xAD5C4648 PUSH1 0x40 MLOAD DUP2 PUSH4 0xFFFFFFFF AND PUSH1 0xE0 SHL DUP2 MSTORE PUSH1 0x4 ADD PUSH1 0x20 PUSH1 0x40 MLOAD DUP1 DUP4 SUB DUP2 DUP7 GAS STATICCALL ISZERO DUP1 ISZERO PUSH2 0x339 JUMPI RETURNDATASIZE PUSH0 DUP1 RETURNDATACOPY RETURNDATASIZE PUSH0 REVERT JUMPDEST POP POP POP POP PUSH1 0x40 MLOAD RETURNDATASIZE PUSH1 0x1F NOT PUSH1 0x1F DUP3 ADD AND DUP3 ADD DUP1 PUSH1 0x40 MSTORE POP DUP2 ADD SWAP1 PUSH2 0x35D SWAP2 SWAP1 PUSH2 0x58C JUMP JUMPDEST PUSH1 0x40 MLOAD PUSH1 0x1 PUSH1 0x1 PUSH1 0xE0 SHL SUB NOT PUSH1 0xE0 DUP6 SWAP1 SHL AND DUP2 MSTORE PUSH1 0x1 PUSH1 0x1 PUSH1 0xA0 SHL SUB SWAP3 DUP4 AND PUSH1 0x4 DUP3 ADD MSTORE SWAP2 AND PUSH1 0x24 DUP3 ADD MSTORE PUSH1 0x44 ADD PUSH1 0x20 PUSH1 0x40 MLOAD DUP1 DUP4 SUB DUP2 PUSH0 DUP8 GAS CALL ISZERO DUP1 ISZERO PUSH2 0x3A7 JUMPI RETURNDATASIZE PUSH0 DUP1 RETURNDATACOPY RETURNDATASIZE PUSH0 REVERT JUMPDEST POP POP POP POP PUSH1 0x40 MLOAD RETURNDATASIZE PUSH1 0x1F NOT PUSH1 0x1F DUP3 ADD AND DUP3 ADD DUP1 PUSH1 0x40 MSTORE POP DUP2 ADD SWAP1 PUSH2 0x3CB SWAP2 SWAP1 PUSH2 0x58C JUMP JUMPDEST PUSH1 0x14 DUP1 SLOAD PUSH1 0x1 PUSH1 0x1 PUSH1 0xA0 SHL SUB NOT AND PUSH1 0x1 PUSH1 0x1 PUSH1 0xA0 SHL SUB SWAP3 SWAP1 SWAP3 AND SWAP2 SWAP1 SWAP2 OR SWAP1 SSTORE JUMP JUMPDEST POP POP POP JUMP JUMPDEST PUSH0 DUP3 PUSH2 0x40C JUMPI PUSH4 0x4E487B71 PUSH1 0xE0 SHL PUSH0 MSTORE PUSH1 0x12 PUSH1 0x4 MSTORE PUSH1 0x24 PUSH0 REVERT JUMPDEST POP DIV SWAP1 JUMP JUMPDEST PUSH4 0x4E487B71 PUSH1 0xE0 SHL PUSH0 MSTORE PUSH1 0x41 PUSH1 0x4 MSTORE PUSH1 0x24 PUSH0 REVERT JUMPDEST PUSH1 0x1 DUP2 DUP2 SHR SWAP1 DUP3 AND DUP1 PUSH2 0x439 JUMPI PUSH1 0x7F DUP3 AND SWAP2 POP JUMPDEST PUSH1 0x20 DUP3 LT DUP2 SUB PUSH2 0x457 JUMPI PUSH4 0x4E487B71 PUSH1 0xE0 SHL PUSH0 MSTORE PUSH1 0x22 PUSH1 0x4 MSTORE PUSH1 0x24 PUSH0 REVERT JUMPDEST POP SWAP2 SWAP1 POP JUMP JUMPDEST PUSH1 0x1F DUP3 GT ISZERO PUSH2 0x3ED JUMPI DUP1 PUSH0 MSTORE PUSH1 0x20 PUSH0 KECCAK256 PUSH1 0x1F DUP5 ADD PUSH1 0x5 SHR DUP2 ADD PUSH1 0x20 DUP6 LT ISZERO PUSH2 0x482 JUMPI POP DUP1 JUMPDEST PUSH1 0x1F DUP5 ADD PUSH1 0x5 SHR DUP3 ADD SWAP2 POP JUMPDEST DUP2 DUP2 LT ISZERO PUSH2 0x4A1 JUMPI PUSH0 DUP2 SSTORE PUSH1 0x1 ADD PUSH2 0x48E JUMP JUMPDEST POP POP POP POP POP JUMP JUMPDEST DUP2 MLOAD PUSH1 0x1 PUSH1 0x1 PUSH1 0x40 SHL SUB DUP2 GT ISZERO PUSH2 0x4C1 JUMPI PUSH2 0x4C1 PUSH2 0x411 JUMP JUMPDEST PUSH2 0x4D5 DUP2 PUSH2 0x4CF DUP5 SLOAD PUSH2 0x425 JUMP JUMPDEST DUP5 PUSH2 0x45D JUMP JUMPDEST PUSH1 0x20 DUP1 PUSH1 0x1F DUP4 GT PUSH1 0x1 DUP2 EQ PUSH2 0x508 JUMPI PUSH0 DUP5 ISZERO PUSH2 0x4F1 JUMPI POP DUP6 DUP4 ADD MLOAD JUMPDEST PUSH0 NOT PUSH1 0x3 DUP7 SWAP1 SHL SHR NOT AND PUSH1 0x1 DUP6 SWAP1 SHL OR DUP6 SSTORE PUSH2 0x55F JUMP JUMPDEST PUSH0 DUP6 DUP2 MSTORE PUSH1 0x20 DUP2 KECCAK256 PUSH1 0x1F NOT DUP7 AND SWAP2 JUMPDEST DUP3 DUP2 LT ISZERO PUSH2 0x536 JUMPI DUP9 DUP7 ADD MLOAD DUP3 SSTORE SWAP5 DUP5 ADD SWAP5 PUSH1 0x1 SWAP1 SWAP2 ADD SWAP1 DUP5 ADD PUSH2 0x517 JUMP JUMPDEST POP DUP6 DUP3 LT ISZERO PUSH2 0x553 JUMPI DUP8 DUP6 ADD MLOAD PUSH0 NOT PUSH1 0x3 DUP9 SWAP1 SHL PUSH1 0xF8 AND SHR NOT AND DUP2 SSTORE JUMPDEST POP POP PUSH1 0x1 DUP5 PUSH1 0x1 SHL ADD DUP6 SSTORE JUMPDEST POP POP POP POP POP POP JUMP JUMPDEST DUP1 DUP3 ADD DUP1 DUP3 GT ISZERO PUSH2 0x586 JUMPI PUSH4 0x4E487B71 PUSH1 0xE0 SHL PUSH0 MSTORE PUSH1 0x11 PUSH1 0x4 MSTORE PUSH1 0x24 PUSH0 REVERT JUMPDEST SWAP3 SWAP2 POP POP JUMP JUMPDEST PUSH0 PUSH1 0x20 DUP3 DUP5 SUB SLT ISZERO PUSH2 0x59C JUMPI PUSH0 DUP1 REVERT JUMPDEST DUP2 MLOAD PUSH1 0x1 PUSH1 0x1 PUSH1 0xA0 SHL SUB DUP2 AND DUP2 EQ PUSH2 0x5B2 JUMPI PUSH0 DUP1 REVERT JUMPDEST SWAP4 SWAP3 POP POP POP JUMP JUMPDEST PUSH2 0x22E8 DUP1 PUSH2 0x5C6 PUSH0 CODECOPY PUSH0 RETURN INVALID PUSH1 0x80 PUSH1 0x40 MSTORE PUSH1 0x4 CALLDATASIZE LT PUSH2 0x1F4 JUMPI PUSH0 CALLDATALOAD PUSH1 0xE0 SHR DUP1 PUSH4 0x9491F94D GT PUSH2 0x108 JUMPI DUP1 PUSH4 0xAD5DFF73 GT PUSH2 0x9D JUMPI DUP1 PUSH4 0xD8D61C40 GT PUSH2 0x6D JUMPI DUP1 PUSH4 0xD8D61C40 EQ PUSH2 0x64E JUMPI DUP1 PUSH4 0xDD62ED3E EQ PUSH2 0x663 JUMPI DUP1 PUSH4 0xF2FDE38B EQ PUSH2 0x682 JUMPI DUP1 PUSH4 0xFE0BB982 EQ PUSH2 0x6A1 JUMPI DUP1 PUSH4 0xFE6B751E EQ PUSH2 0x6C0 JUMPI PUSH0 DUP1 REVERT JUMPDEST DUP1 PUSH4 0xAD5DFF73 EQ PUSH2 0x588 JUMPI DUP1 PUSH4 0xC0D78655 EQ PUSH2 0x5B6 JUMPI DUP1 PUSH4 0xC531B108 EQ PUSH2 0x5D5 JUMPI DUP1 PUSH4 0xC95457FF EQ PUSH2 0x5EA JUMPI PUSH0 DUP1 REVERT JUMPDEST DUP1 PUSH4 0x9FDE54F5 GT PUSH2 0xD8 JUMPI DUP1 PUSH4 0x9FDE54F5 EQ PUSH2 0x50C JUMPI DUP1 PUSH4 0xA457C2D7 EQ PUSH2 0x52B JUMPI DUP1 PUSH4 0xA8B08982 EQ PUSH2 0x54A JUMPI DUP1 PUSH4 0xA9059CBB EQ PUSH2 0x569 JUMPI PUSH0 DUP1 REVERT JUMPDEST DUP1 PUSH4 0x9491F94D EQ PUSH2 0x486 JUMPI DUP1 PUSH4 0x95D89B41 EQ PUSH2 0x49A JUMPI DUP1 PUSH4 0x960BFE04 EQ PUSH2 0x4AE JUMPI DUP1 PUSH4 0x9D82190F EQ PUSH2 0x4CD JUMPI PUSH0 DUP1 REVERT JUMPDEST DUP1 PUSH4 0x333F4B3D GT PUSH2 0x189 JUMPI DUP1 PUSH4 0x715018A6 GT PUSH2 0x159 JUMPI DUP1 PUSH4 0x715018A6 EQ PUSH2 0x3EB JUMPI DUP1 PUSH4 0x7773168F EQ PUSH2 0x3FF JUMPI DUP1 PUSH4 0x787A08A6 EQ PUSH2 0x413 JUMPI DUP1 PUSH4 0x8DA5CB5B EQ PUSH2 0x455 JUMPI DUP1 PUSH4 0x8F9A55C0 EQ PUSH2 0x472 JUMPI PUSH0 DUP1 REVERT JUMPDEST DUP1 PUSH4 0x333F4B3D EQ PUSH2 0x31D JUMPI DUP1 PUSH4 0x39509351 EQ PUSH2 0x383 JUMPI DUP1 PUSH4 0x599CA397 EQ PUSH2 0x3A2 JUMPI DUP1 PUSH4 0x70A08231 EQ PUSH2 0x3B7 JUMPI PUSH0 DUP1 REVERT JUMPDEST DUP1 PUSH4 0x18160DDD GT PUSH2 0x1C4 JUMPI DUP1 PUSH4 0x18160DDD EQ PUSH2 0x298 JUMPI DUP1 PUSH4 0x23B872DD EQ PUSH2 0x2AC JUMPI DUP1 PUSH4 0x313CE567 EQ PUSH2 0x2CB JUMPI DUP1 PUSH4 0x3268CC56 EQ PUSH2 0x2E6 JUMPI PUSH0 DUP1 REVERT JUMPDEST DUP1 PUSH4 0x445B667 EQ PUSH2 0x1FF JUMPI DUP1 PUSH4 0x6FDDE03 EQ PUSH2 0x227 JUMPI DUP1 PUSH4 0x95EA7B3 EQ PUSH2 0x248 JUMPI DUP1 PUSH4 0x1569D181 EQ PUSH2 0x277 JUMPI PUSH0 DUP1 REVERT JUMPDEST CALLDATASIZE PUSH2 0x1FB JUMPI STOP JUMPDEST PUSH0 DUP1 REVERT JUMPDEST CALLVALUE DUP1 ISZERO PUSH2 0x20A JUMPI PUSH0 DUP1 REVERT JUMPDEST POP PUSH2 0x214 PUSH1 0x9 SLOAD DUP2 JUMP JUMPDEST PUSH1 0x40 MLOAD SWAP1 DUP2 MSTORE PUSH1 0x20 ADD JUMPDEST PUSH1 0x40 MLOAD DUP1 SWAP2 SUB SWAP1 RETURN JUMPDEST CALLVALUE DUP1 ISZERO PUSH2 0x232 JUMPI PUSH0 DUP1 REVERT JUMPDEST POP PUSH2 0x23B PUSH2 0x6DF JUMP JUMPDEST PUSH1 0x40 MLOAD PUSH2 0x21E SWAP2 SWAP1 PUSH2 0x1D73 JUMP JUMPDEST CALLVALUE DUP1 ISZERO PUSH2 0x253 JUMPI PUSH0 DUP1 REVERT JUMPDEST POP PUSH2 0x267 PUSH2 0x262 CALLDATASIZE PUSH1 0x4 PUSH2 0x1DBC JUMP JUMPDEST PUSH2 0x76F JUMP JUMPDEST PUSH1 0x40 MLOAD SWAP1 ISZERO ISZERO DUP2 MSTORE PUSH1 0x20 ADD PUSH2 0x21E JUMP JUMPDEST CALLVALUE DUP1 ISZERO PUSH2 0x282 JUMPI PUSH0 DUP1 REVERT JUMPDEST POP PUSH2 0x296 PUSH2 0x291 CALLDATASIZE PUSH1 0x4 PUSH2 0x1DFC JUMP JUMPDEST PUSH2 0x788 JUMP JUMPDEST STOP JUMPDEST CALLVALUE DUP1 ISZERO PUSH2 0x2A3 JUMPI PUSH0 DUP1 REVERT JUMPDEST POP PUSH1 0x2 SLOAD PUSH2 0x214 JUMP JUMPDEST CALLVALUE DUP1 ISZERO PUSH2 0x2B7 JUMPI PUSH0 DUP1 REVERT JUMPDEST POP PUSH2 0x267 PUSH2 0x2C6 CALLDATASIZE PUSH1 0x4 PUSH2 0x1E4D JUMP JUMPDEST PUSH2 0x8B7 JUMP JUMPDEST CALLVALUE DUP1 ISZERO PUSH2 0x2D6 JUMPI PUSH0 DUP1 REVERT JUMPDEST POP PUSH1 0x40 MLOAD PUSH1 0x12 DUP2 MSTORE PUSH1 0x20 ADD PUSH2 0x21E JUMP JUMPDEST CALLVALUE DUP1 ISZERO PUSH2 0x2F1 JUMPI PUSH0 DUP1 REVERT JUMPDEST POP PUSH1 0x13 SLOAD PUSH2 0x305 SWAP1 PUSH1 0x1 PUSH1 0x1 PUSH1 0xA0 SHL SUB AND DUP2 JUMP JUMPDEST PUSH1 0x40 MLOAD PUSH1 0x1 PUSH1 0x1 PUSH1 0xA0 SHL SUB SWAP1 SWAP2 AND DUP2 MSTORE PUSH1 0x20 ADD PUSH2 0x21E JUMP JUMPDEST CALLVALUE DUP1 ISZERO PUSH2 0x328 JUMPI PUSH0 DUP1 REVERT JUMPDEST POP PUSH1 0x7 SLOAD PUSH2 0x355 SWAP1 PUSH2 0xFFFF DUP1 DUP3 AND SWAP2 PUSH3 0x10000 DUP2 DIV DUP3 AND SWAP2 PUSH1 0x1 PUSH1 0x20 SHL DUP3 DIV DUP2 AND SWAP2 PUSH1 0x1 PUSH1 0x30 SHL SWAP1 DIV AND DUP5 JUMP JUMPDEST PUSH1 0x40 DUP1 MLOAD PUSH2 0xFFFF SWAP6 DUP7 AND DUP2 MSTORE SWAP4 DUP6 AND PUSH1 0x20 DUP6 ADD MSTORE SWAP2 DUP5 AND SWAP2 DUP4 ADD SWAP2 SWAP1 SWAP2 MSTORE SWAP1 SWAP2 AND PUSH1 0x60 DUP3 ADD MSTORE PUSH1 0x80 ADD PUSH2 0x21E JUMP JUMPDEST CALLVALUE DUP1 ISZERO PUSH2 0x38E JUMPI PUSH0 DUP1 REVERT JUMPDEST POP PUSH2 0x267 PUSH2 0x39D CALLDATASIZE PUSH1 0x4 PUSH2 0x1DBC JUMP JUMPDEST PUSH2 0x8DC JUMP JUMPDEST CALLVALUE DUP1 ISZERO PUSH2 0x3AD JUMPI PUSH0 DUP1 REVERT JUMPDEST POP PUSH2 0x214 PUSH1 0x6 SLOAD DUP2 JUMP JUMPDEST CALLVALUE DUP1 ISZERO PUSH2 0x3C2 JUMPI PUSH0 DUP1 REVERT JUMPDEST POP PUSH2 0x214 PUSH2 0x3D1 CALLDATASIZE PUSH1 0x4 PUSH2 0x1E8B JUMP JUMPDEST PUSH1 0x1 PUSH1 0x1 PUSH1 0xA0 SHL SUB AND PUSH0 SWAP1 DUP2 MSTORE PUSH1 0x20 DUP2 SWAP1 MSTORE PUSH1 0x40 SWAP1 KECCAK256 SLOAD SWAP1 JUMP JUMPDEST CALLVALUE DUP1 ISZERO PUSH2 0x3F6 JUMPI PUSH0 DUP1 REVERT JUMPDEST POP PUSH2 0x296 PUSH2 0x8FD JUMP JUMPDEST CALLVALUE DUP1 ISZERO PUSH2 0x40A JUMPI PUSH0 DUP1 REVERT JUMPDEST POP PUSH2 0x214 PUSH2 0x910 JUMP JUMPDEST CALLVALUE DUP1 ISZERO PUSH2 0x41E JUMPI PUSH0 DUP1 REVERT JUMPDEST POP PUSH1 0xD SLOAD PUSH2 0x439 SWAP1 PUSH1 0xFF DUP2 AND SWAP1 PUSH2 0x100 SWAP1 DIV PUSH4 0xFFFFFFFF AND DUP3 JUMP JUMPDEST PUSH1 0x40 DUP1 MLOAD SWAP3 ISZERO ISZERO DUP4 MSTORE PUSH4 0xFFFFFFFF SWAP1 SWAP2 AND PUSH1 0x20 DUP4 ADD MSTORE ADD PUSH2 0x21E JUMP JUMPDEST CALLVALUE DUP1 ISZERO PUSH2 0x460 JUMPI PUSH0 DUP1 REVERT JUMPDEST POP PUSH1 0x5 SLOAD PUSH1 0x1 PUSH1 0x1 PUSH1 0xA0 SHL SUB AND PUSH2 0x305 JUMP JUMPDEST CALLVALUE DUP1 ISZERO PUSH2 0x47D JUMPI PUSH0 DUP1 REVERT JUMPDEST POP PUSH2 0x214 PUSH2 0x98F JUMP JUMPDEST CALLVALUE DUP1 ISZERO PUSH2 0x491 JUMPI PUSH0 DUP1 REVERT JUMPDEST POP PUSH2 0x214 PUSH2 0x9BC JUMP JUMPDEST CALLVALUE DUP1 ISZERO PUSH2 0x4A5 JUMPI PUSH0 DUP1 REVERT JUMPDEST POP PUSH2 0x23B PUSH2 0xB16 JUMP JUMPDEST CALLVALUE DUP1 ISZERO PUSH2 0x4B9 JUMPI PUSH0 DUP1 REVERT JUMPDEST POP PUSH2 0x296 PUSH2 0x4C8 CALLDATASIZE PUSH1 0x4 PUSH2 0x1EA6 JUMP JUMPDEST PUSH2 0xB25 JUMP JUMPDEST CALLVALUE DUP1 ISZERO PUSH2 0x4D8 JUMPI PUSH0 DUP1 REVERT JUMPDEST POP PUSH2 0x4EC PUSH2 0x4E7 CALLDATASIZE PUSH1 0x4 PUSH2 0x1E8B JUMP JUMPDEST PUSH2 0xB32 JUMP JUMPDEST PUSH1 0x40 DUP1 MLOAD SWAP5 DUP6 MSTORE PUSH1 0x20 DUP6 ADD SWAP4 SWAP1 SWAP4 MSTORE SWAP2 DUP4 ADD MSTORE PUSH1 0x60 DUP3 ADD MSTORE PUSH1 0x80 ADD PUSH2 0x21E JUMP JUMPDEST CALLVALUE DUP1 ISZERO PUSH2 0x517 JUMPI PUSH0 DUP1 REVERT JUMPDEST POP PUSH2 0x296 PUSH2 0x526 CALLDATASIZE PUSH1 0x4 PUSH2 0x1ECC JUMP JUMPDEST PUSH2 0xBDE JUMP JUMPDEST CALLVALUE DUP1 ISZERO PUSH2 0x536 JUMPI PUSH0 DUP1 REVERT JUMPDEST POP PUSH2 0x267 PUSH2 0x545 CALLDATASIZE PUSH1 0x4 PUSH2 0x1DBC JUMP JUMPDEST PUSH2 0xC10 JUMP JUMPDEST CALLVALUE DUP1 ISZERO PUSH2 0x555 JUMPI PUSH0 DUP1 REVERT JUMPDEST POP PUSH1 0x14 SLOAD PUSH2 0x305 SWAP1 PUSH1 0x1 PUSH1 0x1 PUSH1 0xA0 SHL SUB AND DUP2 JUMP JUMPDEST CALLVALUE DUP1 ISZERO PUSH2 0x574 JUMPI PUSH0 DUP1 REVERT JUMPDEST POP PUSH2 0x267 PUSH2 0x583 CALLDATASIZE PUSH1 0x4 PUSH2 0x1DBC JUMP JUMPDEST PUSH2 0xC95 JUMP JUMPDEST CALLVALUE DUP1 ISZERO PUSH2 0x593 JUMPI PUSH0 DUP1 REVERT JUMPDEST POP PUSH2 0x267 PUSH2 0x5A2 CALLDATASIZE PUSH1 0x4 PUSH2 0x1E8B JUMP JUMPDEST PUSH1 0x15 PUSH1 0x20 MSTORE PUSH0 SWAP1 DUP2 MSTORE PUSH1 0x40 SWAP1 KECCAK256 SLOAD PUSH1 0xFF AND DUP2 JUMP JUMPDEST CALLVALUE DUP1 ISZERO PUSH2 0x5C1 JUMPI PUSH0 DUP1 REVERT JUMPDEST POP PUSH2 0x296 PUSH2 0x5D0 CALLDATASIZE PUSH1 0x4 PUSH2 0x1E8B JUMP JUMPDEST PUSH2 0xCA2 JUMP JUMPDEST CALLVALUE DUP1 ISZERO PUSH2 0x5E0 JUMPI PUSH0 DUP1 REVERT JUMPDEST POP PUSH2 0x214 PUSH1 0xB SLOAD DUP2 JUMP JUMPDEST CALLVALUE DUP1 ISZERO PUSH2 0x5F5 JUMPI PUSH0 DUP1 REVERT JUMPDEST POP PUSH1 0xF SLOAD PUSH1 0x10 SLOAD PUSH1 0x11 SLOAD PUSH1 0x12 SLOAD PUSH2 0x61F SWAP4 PUSH1 0xFF DUP1 DUP3 AND SWAP5 PUSH2 0x100 SWAP1 SWAP3 DIV PUSH2 0xFFFF AND SWAP4 SWAP2 SWAP3 SWAP2 AND SWAP1 DUP6 JUMP JUMPDEST PUSH1 0x40 DUP1 MLOAD SWAP6 ISZERO ISZERO DUP7 MSTORE PUSH2 0xFFFF SWAP1 SWAP5 AND PUSH1 0x20 DUP7 ADD MSTORE SWAP3 DUP5 ADD SWAP2 SWAP1 SWAP2 MSTORE ISZERO ISZERO PUSH1 0x60 DUP4 ADD MSTORE PUSH1 0x80 DUP3 ADD MSTORE PUSH1 0xA0 ADD PUSH2 0x21E JUMP JUMPDEST CALLVALUE DUP1 ISZERO PUSH2 0x659 JUMPI PUSH0 DUP1 REVERT JUMPDEST POP PUSH2 0x214 PUSH1 0xA SLOAD DUP2 JUMP JUMPDEST CALLVALUE DUP1 ISZERO PUSH2 0x66E JUMPI PUSH0 DUP1 REVERT JUMPDEST POP PUSH2 0x214 PUSH2 0x67D CALLDATASIZE PUSH1 0x4 PUSH2 0x1EFF JUMP JUMPDEST PUSH2 0xD0C JUMP JUMPDEST CALLVALUE DUP1 ISZERO PUSH2 0x68D JUMPI PUSH0 DUP1 REVERT JUMPDEST POP PUSH2 0x296 PUSH2 0x69C CALLDATASIZE PUSH1 0x4 PUSH2 0x1E8B JUMP JUMPDEST PUSH2 0xD36 JUMP JUMPDEST CALLVALUE DUP1 ISZERO PUSH2 0x6AC JUMPI PUSH0 DUP1 REVERT JUMPDEST POP PUSH2 0x296 PUSH2 0x6BB CALLDATASIZE PUSH1 0x4 PUSH2 0x1F36 JUMP JUMPDEST PUSH2 0xDAF JUMP JUMPDEST CALLVALUE DUP1 ISZERO PUSH2 0x6CB JUMPI PUSH0 DUP1 REVERT JUMPDEST POP PUSH2 0x296 PUSH2 0x6DA CALLDATASIZE PUSH1 0x4 PUSH2 0x1F6F JUMP JUMPDEST PUSH2 0xDE1 JUMP JUMPDEST PUSH1 0x60 PUSH1 0x3 DUP1 SLOAD PUSH2 0x6EE SWAP1 PUSH2 0x1F99 JUMP JUMPDEST DUP1 PUSH1 0x1F ADD PUSH1 0x20 DUP1 SWAP2 DIV MUL PUSH1 0x20 ADD PUSH1 0x40 MLOAD SWAP1 DUP2 ADD PUSH1 0x40 MSTORE DUP1 SWAP3 SWAP2 SWAP1 DUP2 DUP2 MSTORE PUSH1 0x20 ADD DUP3 DUP1 SLOAD PUSH2 0x71A SWAP1 PUSH2 0x1F99 JUMP JUMPDEST DUP1 ISZERO PUSH2 0x765 JUMPI DUP1 PUSH1 0x1F LT PUSH2 0x73C JUMPI PUSH2 0x100 DUP1 DUP4 SLOAD DIV MUL DUP4 MSTORE SWAP2 PUSH1 0x20 ADD SWAP2 PUSH2 0x765 JUMP JUMPDEST DUP3 ADD SWAP2 SWAP1 PUSH0 MSTORE PUSH1 0x20 PUSH0 KECCAK256 SWAP1 JUMPDEST DUP2 SLOAD DUP2 MSTORE SWAP1 PUSH1 0x1 ADD SWAP1 PUSH1 0x20 ADD DUP1 DUP4 GT PUSH2 0x748 JUMPI DUP3 SWAP1 SUB PUSH1 0x1F AND DUP3 ADD SWAP2 JUMPDEST POP POP POP POP POP SWAP1 POP SWAP1 JUMP JUMPDEST PUSH0 CALLER PUSH2 0x77C DUP2 DUP6 DUP6 PUSH2 0xE27 JUMP JUMPDEST PUSH1 0x1 SWAP2 POP POP JUMPDEST SWAP3 SWAP2 POP POP JUMP JUMPDEST PUSH2 0x790 PUSH2 0xF4A JUMP JUMPDEST PUSH2 0x9C4 PUSH2 0x79D DUP5 DUP7 PUSH2 0x1FE5 JUMP JUMPDEST PUSH2 0xFFFF AND GT ISZERO PUSH2 0x7E7 JUMPI PUSH1 0x40 MLOAD PUSH3 0x461BCD PUSH1 0xE5 SHL DUP2 MSTORE PUSH1 0x20 PUSH1 0x4 DUP3 ADD MSTORE PUSH1 0x10 PUSH1 0x24 DUP3 ADD MSTORE PUSH16 0x84EAF240E8C2F040E8DEDE40D0D2CED PUSH1 0x83 SHL PUSH1 0x44 DUP3 ADD MSTORE PUSH1 0x64 ADD JUMPDEST PUSH1 0x40 MLOAD DUP1 SWAP2 SUB SWAP1 REVERT JUMPDEST PUSH2 0x9C4 PUSH2 0x7F4 DUP3 DUP5 PUSH2 0x1FE5 JUMP JUMPDEST PUSH2 0xFFFF AND GT ISZERO PUSH2 0x83A JUMPI PUSH1 0x40 MLOAD PUSH3 0x461BCD PUSH1 0xE5 SHL DUP2 MSTORE PUSH1 0x20 PUSH1 0x4 DUP3 ADD MSTORE PUSH1 0x11 PUSH1 0x24 DUP3 ADD MSTORE PUSH17 0xA6CAD8D840E8C2F040E8DEDE40D0D2CED PUSH1 0x7B SHL PUSH1 0x44 DUP3 ADD MSTORE PUSH1 0x64 ADD PUSH2 0x7DE JUMP JUMPDEST PUSH1 0x40 DUP1 MLOAD PUSH1 0x80 DUP2 ADD DUP3 MSTORE PUSH2 0xFFFF SWAP6 DUP7 AND DUP1 DUP3 MSTORE SWAP5 DUP7 AND PUSH1 0x20 DUP3 ADD DUP2 SWAP1 MSTORE SWAP4 DUP7 AND SWAP2 DUP2 ADD DUP3 SWAP1 MSTORE SWAP2 SWAP1 SWAP5 AND PUSH1 0x60 SWAP1 SWAP2 ADD DUP2 SWAP1 MSTORE PUSH1 0x7 DUP1 SLOAD PUSH4 0xFFFFFFFF NOT AND SWAP1 SWAP4 OR PUSH3 0x10000 SWAP1 SWAP3 MUL SWAP2 SWAP1 SWAP2 OR PUSH8 0xFFFFFFFF00000000 NOT AND PUSH1 0x1 PUSH1 0x20 SHL SWAP1 SWAP4 MUL PUSH8 0xFFFF000000000000 NOT AND SWAP3 SWAP1 SWAP3 OR PUSH1 0x1 PUSH1 0x30 SHL SWAP1 SWAP3 MUL SWAP2 SWAP1 SWAP2 OR SWAP1 SSTORE JUMP JUMPDEST PUSH0 CALLER PUSH2 0x8C4 DUP6 DUP3 DUP6 PUSH2 0xFA4 JUMP JUMPDEST PUSH2 0x8CF DUP6 DUP6 DUP6 PUSH2 0x101C JUMP JUMPDEST PUSH1 0x1 SWAP2 POP POP JUMPDEST SWAP4 SWAP3 POP POP POP JUMP JUMPDEST PUSH0 CALLER PUSH2 0x77C DUP2 DUP6 DUP6 PUSH2 0x8EE DUP4 DUP4 PUSH2 0xD0C JUMP JUMPDEST PUSH2 0x8F8 SWAP2 SWAP1 PUSH2 0x2007 JUMP JUMPDEST PUSH2 0xE27 JUMP JUMPDEST PUSH2 0x905 PUSH2 0xF4A JUMP JUMPDEST PUSH2 0x90E PUSH0 PUSH2 0x12EC JUMP JUMPDEST JUMP JUMPDEST PUSH1 0x10 SLOAD PUSH0 SWAP1 DUP2 SUB PUSH2 0x920 JUMPI POP PUSH0 SWAP1 JUMP JUMPDEST PUSH0 PUSH2 0x929 PUSH2 0x9BC JUMP JUMPDEST PUSH1 0x10 SLOAD SWAP1 SWAP2 POP DUP2 GT PUSH2 0x96C JUMPI PUSH1 0x10 SLOAD PUSH2 0x95E SWAP1 PUSH2 0x958 PUSH8 0xDE0B6B3A7640000 PUSH2 0x952 DUP4 DUP7 PUSH2 0x133D JUMP JUMPDEST SWAP1 PUSH2 0x1348 JUMP JUMPDEST SWAP1 PUSH2 0x1353 JUMP JUMPDEST PUSH2 0x967 SWAP1 PUSH2 0x201A JUMP JUMPDEST PUSH2 0x989 JUMP JUMPDEST PUSH1 0x10 SLOAD PUSH2 0x989 SWAP1 PUSH2 0x958 PUSH8 0xDE0B6B3A7640000 PUSH2 0x952 DUP6 DUP5 PUSH2 0x133D JUMP JUMPDEST SWAP2 POP POP SWAP1 JUMP JUMPDEST PUSH0 PUSH2 0x9B7 PUSH2 0x2710 PUSH2 0x958 PUSH1 0x6 SLOAD PUSH12 0x33B2E3C9FD0803CE8000000 PUSH2 0x1348 SWAP1 SWAP2 SWAP1 PUSH4 0xFFFFFFFF AND JUMP JUMPDEST SWAP1 POP SWAP1 JUMP JUMPDEST PUSH0 DUP1 PUSH0 PUSH1 0x14 PUSH0 SWAP1 SLOAD SWAP1 PUSH2 0x100 EXP SWAP1 DIV PUSH1 0x1 PUSH1 0x1 PUSH1 0xA0 SHL SUB AND PUSH1 0x1 PUSH1 0x1 PUSH1 0xA0 SHL SUB AND PUSH4 0x902F1AC PUSH1 0x40 MLOAD DUP2 PUSH4 0xFFFFFFFF AND PUSH1 0xE0 SHL DUP2 MSTORE PUSH1 0x4 ADD PUSH1 0x60 PUSH1 0x40 MLOAD DUP1 DUP4 SUB DUP2 DUP7 GAS STATICCALL ISZERO DUP1 ISZERO PUSH2 0xA0F JUMPI RETURNDATASIZE PUSH0 DUP1 RETURNDATACOPY RETURNDATASIZE PUSH0 REVERT JUMPDEST POP POP POP POP PUSH1 0x40 MLOAD RETURNDATASIZE PUSH1 0x1F NOT PUSH1 0x1F DUP3 ADD AND DUP3 ADD DUP1 PUSH1 0x40 MSTORE POP DUP2 ADD SWAP1 PUSH2 0xA33 SWAP2 SWAP1 PUSH2 0x204A JUMP JUMPDEST POP SWAP2 POP SWAP2 POP ADDRESS PUSH1 0x1 PUSH1 0x1 PUSH1 0xA0 SHL SUB AND PUSH1 0x14 PUSH0 SWAP1 SLOAD SWAP1 PUSH2 0x100 EXP SWAP1 DIV PUSH1 0x1 PUSH1 0x1 PUSH1 0xA0 SHL SUB AND PUSH1 0x1 PUSH1 0x1 PUSH1 0xA0 SHL SUB AND PUSH4 0xDFE1681 PUSH1 0x40 MLOAD DUP2 PUSH4 0xFFFFFFFF AND PUSH1 0xE0 SHL DUP2 MSTORE PUSH1 0x4 ADD PUSH1 0x20 PUSH1 0x40 MLOAD DUP1 DUP4 SUB DUP2 DUP7 GAS STATICCALL ISZERO DUP1 ISZERO PUSH2 0xA92 JUMPI RETURNDATASIZE PUSH0 DUP1 RETURNDATACOPY RETURNDATASIZE PUSH0 REVERT JUMPDEST POP POP POP POP PUSH1 0x40 MLOAD RETURNDATASIZE PUSH1 0x1F NOT PUSH1 0x1F DUP3 ADD AND DUP3 ADD DUP1 PUSH1 0x40 MSTORE POP DUP2 ADD SWAP1 PUSH2 0xAB6 SWAP2 SWAP1 PUSH2 0x208E JUMP JUMPDEST PUSH1 0x1 PUSH1 0x1 PUSH1 0xA0 SHL SUB AND EQ PUSH2 0xAEC JUMPI PUSH2 0xAE7 PUSH1 0x1 PUSH1 0x1 PUSH1 0x70 SHL SUB DUP1 DUP4 AND SWAP1 PUSH2 0x958 SWAP1 DUP6 AND PUSH8 0xDE0B6B3A7640000 PUSH2 0x1348 JUMP JUMPDEST PUSH2 0xB0F JUMP JUMPDEST PUSH2 0xB0F PUSH1 0x1 PUSH1 0x1 PUSH1 0x70 SHL SUB DUP1 DUP5 AND SWAP1 PUSH2 0x958 SWAP1 DUP5 AND PUSH8 0xDE0B6B3A7640000 PUSH2 0x1348 JUMP JUMPDEST SWAP3 POP POP POP SWAP1 JUMP JUMPDEST PUSH1 0x60 PUSH1 0x4 DUP1 SLOAD PUSH2 0x6EE SWAP1 PUSH2 0x1F99 JUMP JUMPDEST PUSH2 0xB2D PUSH2 0xF4A JUMP JUMPDEST PUSH1 0x9 SSTORE JUMP JUMPDEST PUSH1 0x1 PUSH1 0x1 PUSH1 0xA0 SHL SUB DUP2 AND PUSH0 SWAP1 DUP2 MSTORE PUSH1 0xE PUSH1 0x20 MSTORE PUSH1 0x40 DUP2 KECCAK256 SLOAD DUP2 SWAP1 DUP2 SWAP1 DUP2 SWAP1 DUP2 SWAP1 TIMESTAMP LT PUSH2 0xB5E JUMPI PUSH0 PUSH2 0xB80 JUMP JUMPDEST PUSH1 0x1 PUSH1 0x1 PUSH1 0xA0 SHL SUB DUP7 AND PUSH0 SWAP1 DUP2 MSTORE PUSH1 0xE PUSH1 0x20 MSTORE PUSH1 0x40 SWAP1 KECCAK256 SLOAD PUSH2 0xB80 SWAP1 TIMESTAMP PUSH2 0x133D JUMP JUMPDEST SWAP1 POP PUSH2 0xB8F DUP2 PUSH3 0x15180 PUSH2 0x1353 JUMP JUMPDEST SWAP5 POP PUSH2 0xB9E PUSH3 0x15180 DUP3 PUSH2 0x20BD JUMP JUMPDEST SWAP1 POP PUSH2 0xBAC DUP2 PUSH2 0xE10 PUSH2 0x1353 JUMP JUMPDEST SWAP4 POP PUSH2 0xBBA PUSH2 0xE10 DUP3 PUSH2 0x20BD JUMP JUMPDEST SWAP1 POP PUSH2 0xBC7 DUP2 PUSH1 0x3C PUSH2 0x1353 JUMP JUMPDEST SWAP3 POP PUSH2 0xBD4 PUSH1 0x3C DUP3 PUSH2 0x20BD JUMP JUMPDEST SWAP2 POP POP SWAP2 SWAP4 POP SWAP2 SWAP4 JUMP JUMPDEST PUSH2 0xBE6 PUSH2 0xF4A JUMP JUMPDEST PUSH1 0x1 PUSH1 0x1 PUSH1 0xA0 SHL SUB SWAP2 SWAP1 SWAP2 AND PUSH0 SWAP1 DUP2 MSTORE PUSH1 0x15 PUSH1 0x20 MSTORE PUSH1 0x40 SWAP1 KECCAK256 DUP1 SLOAD PUSH1 0xFF NOT AND SWAP2 ISZERO ISZERO SWAP2 SWAP1 SWAP2 OR SWAP1 SSTORE JUMP JUMPDEST PUSH0 CALLER DUP2 PUSH2 0xC1D DUP3 DUP7 PUSH2 0xD0C JUMP JUMPDEST SWAP1 POP DUP4 DUP2 LT ISZERO PUSH2 0xC7D JUMPI PUSH1 0x40 MLOAD PUSH3 0x461BCD PUSH1 0xE5 SHL DUP2 MSTORE PUSH1 0x20 PUSH1 0x4 DUP3 ADD MSTORE PUSH1 0x25 PUSH1 0x24 DUP3 ADD MSTORE PUSH32 0x45524332303A2064656372656173656420616C6C6F77616E63652062656C6F77 PUSH1 0x44 DUP3 ADD MSTORE PUSH5 0x207A65726F PUSH1 0xD8 SHL PUSH1 0x64 DUP3 ADD MSTORE PUSH1 0x84 ADD PUSH2 0x7DE JUMP JUMPDEST PUSH2 0xC8A DUP3 DUP7 DUP7 DUP5 SUB PUSH2 0xE27 JUMP JUMPDEST POP PUSH1 0x1 SWAP5 SWAP4 POP POP POP POP JUMP JUMPDEST PUSH0 CALLER PUSH2 0x77C DUP2 DUP6 DUP6 PUSH2 0x101C JUMP JUMPDEST PUSH2 0xCAA PUSH2 0xF4A JUMP JUMPDEST PUSH1 0x13 DUP1 SLOAD PUSH1 0x1 PUSH1 0x1 PUSH1 0xA0 SHL SUB NOT AND PUSH1 0x1 PUSH1 0x1 PUSH1 0xA0 SHL SUB DUP4 AND OR SWAP1 SSTORE PUSH2 0xCCD PUSH2 0x135E JUMP JUMPDEST PUSH1 0x40 MLOAD PUSH1 0x1 PUSH1 0x1 PUSH1 0xA0 SHL SUB DUP3 AND DUP2 MSTORE PUSH32 0x7AED1D3E8155A07CCF395E44EA3109A0E2D6C9B29BBBE9F142D9790596F4DC80 SWAP1 PUSH1 0x20 ADD PUSH1 0x40 MLOAD DUP1 SWAP2 SUB SWAP1 LOG1 POP JUMP JUMPDEST PUSH1 0x1 PUSH1 0x1 PUSH1 0xA0 SHL SUB SWAP2 DUP3 AND PUSH0 SWAP1 DUP2 MSTORE PUSH1 0x1 PUSH1 0x20 SWAP1 DUP2 MSTORE PUSH1 0x40 DUP1 DUP4 KECCAK256 SWAP4 SWAP1 SWAP5 AND DUP3 MSTORE SWAP2 SWAP1 SWAP2 MSTORE KECCAK256 SLOAD SWAP1 JUMP JUMPDEST PUSH2 0xD3E PUSH2 0xF4A JUMP JUMPDEST PUSH1 0x1 PUSH1 0x1 PUSH1 0xA0 SHL SUB DUP2 AND PUSH2 0xDA3 JUMPI PUSH1 0x40 MLOAD PUSH3 0x461BCD PUSH1 0xE5 SHL DUP2 MSTORE PUSH1 0x20 PUSH1 0x4 DUP3 ADD MSTORE PUSH1 0x26 PUSH1 0x24 DUP3 ADD MSTORE PUSH32 0x4F776E61626C653A206E6577206F776E657220697320746865207A65726F2061 PUSH1 0x44 DUP3 ADD MSTORE PUSH6 0x646472657373 PUSH1 0xD0 SHL PUSH1 0x64 DUP3 ADD MSTORE PUSH1 0x84 ADD PUSH2 0x7DE JUMP JUMPDEST PUSH2 0xDAC DUP2 PUSH2 0x12EC JUMP JUMPDEST POP JUMP JUMPDEST PUSH2 0xDB7 PUSH2 0xF4A JUMP JUMPDEST PUSH1 0xF DUP1 SLOAD PUSH3 0xFFFFFF NOT AND SWAP3 ISZERO ISZERO PUSH3 0xFFFF00 NOT AND SWAP3 SWAP1 SWAP3 OR PUSH2 0x100 PUSH2 0xFFFF SWAP3 SWAP1 SWAP3 AND SWAP2 SWAP1 SWAP2 MUL OR SWAP1 SSTORE JUMP JUMPDEST PUSH2 0xDE9 PUSH2 0xF4A JUMP JUMPDEST PUSH1 0xD DUP1 SLOAD PUSH1 0xFF NOT AND DUP4 ISZERO ISZERO OR SWAP1 SSTORE PUSH2 0xE02 DUP2 PUSH1 0x3C PUSH2 0x20D0 JUMP JUMPDEST PUSH1 0xD DUP1 SLOAD PUSH4 0xFFFFFFFF SWAP3 SWAP1 SWAP3 AND PUSH2 0x100 MUL PUSH5 0xFFFFFFFF00 NOT SWAP1 SWAP3 AND SWAP2 SWAP1 SWAP2 OR SWAP1 SSTORE POP POP JUMP JUMPDEST PUSH1 0x1 PUSH1 0x1 PUSH1 0xA0 SHL SUB DUP4 AND PUSH2 0xE89 JUMPI PUSH1 0x40 MLOAD PUSH3 0x461BCD PUSH1 0xE5 SHL DUP2 MSTORE PUSH1 0x20 PUSH1 0x4 DUP3 ADD MSTORE PUSH1 0x24 DUP1 DUP3 ADD MSTORE PUSH32 0x45524332303A20617070726F76652066726F6D20746865207A65726F20616464 PUSH1 0x44 DUP3 ADD MSTORE PUSH4 0x72657373 PUSH1 0xE0 SHL PUSH1 0x64 DUP3 ADD MSTORE PUSH1 0x84 ADD PUSH2 0x7DE JUMP JUMPDEST PUSH1 0x1 PUSH1 0x1 PUSH1 0xA0 SHL SUB DUP3 AND PUSH2 0xEEA JUMPI PUSH1 0x40 MLOAD PUSH3 0x461BCD PUSH1 0xE5 SHL DUP2 MSTORE PUSH1 0x20 PUSH1 0x4 DUP3 ADD MSTORE PUSH1 0x22 PUSH1 0x24 DUP3 ADD MSTORE PUSH32 0x45524332303A20617070726F766520746F20746865207A65726F206164647265 PUSH1 0x44 DUP3 ADD MSTORE PUSH2 0x7373 PUSH1 0xF0 SHL PUSH1 0x64 DUP3 ADD MSTORE PUSH1 0x84 ADD PUSH2 0x7DE JUMP JUMPDEST PUSH1 0x1 PUSH1 0x1 PUSH1 0xA0 SHL SUB DUP4 DUP2 AND PUSH0 DUP2 DUP2 MSTORE PUSH1 0x1 PUSH1 0x20 SWAP1 DUP2 MSTORE PUSH1 0x40 DUP1 DUP4 KECCAK256 SWAP5 DUP8 AND DUP1 DUP5 MSTORE SWAP5 DUP3 MSTORE SWAP2 DUP3 SWAP1 KECCAK256 DUP6 SWAP1 SSTORE SWAP1 MLOAD DUP5 DUP2 MSTORE PUSH32 0x8C5BE1E5EBEC7D5BD14F71427D1E84F3DD0314C0F7B2291E5B200AC8C7C3B925 SWAP2 ADD PUSH1 0x40 MLOAD DUP1 SWAP2 SUB SWAP1 LOG3 POP POP POP JUMP JUMPDEST PUSH1 0x5 SLOAD PUSH1 0x1 PUSH1 0x1 PUSH1 0xA0 SHL SUB AND CALLER EQ PUSH2 0x90E JUMPI PUSH1 0x40 MLOAD PUSH3 0x461BCD PUSH1 0xE5 SHL DUP2 MSTORE PUSH1 0x20 PUSH1 0x4 DUP3 ADD DUP2 SWAP1 MSTORE PUSH1 0x24 DUP3 ADD MSTORE PUSH32 0x4F776E61626C653A2063616C6C6572206973206E6F7420746865206F776E6572 PUSH1 0x44 DUP3 ADD MSTORE PUSH1 0x64 ADD PUSH2 0x7DE JUMP JUMPDEST PUSH0 PUSH2 0xFAF DUP5 DUP5 PUSH2 0xD0C JUMP JUMPDEST SWAP1 POP PUSH0 NOT DUP2 EQ PUSH2 0x1016 JUMPI DUP2 DUP2 LT ISZERO PUSH2 0x1009 JUMPI PUSH1 0x40 MLOAD PUSH3 0x461BCD PUSH1 0xE5 SHL DUP2 MSTORE PUSH1 0x20 PUSH1 0x4 DUP3 ADD MSTORE PUSH1 0x1D PUSH1 0x24 DUP3 ADD MSTORE PUSH32 0x45524332303A20696E73756666696369656E7420616C6C6F77616E6365000000 PUSH1 0x44 DUP3 ADD MSTORE PUSH1 0x64 ADD PUSH2 0x7DE JUMP JUMPDEST PUSH2 0x1016 DUP5 DUP5 DUP5 DUP5 SUB PUSH2 0xE27 JUMP JUMPDEST POP POP POP POP JUMP JUMPDEST PUSH0 DUP2 GT PUSH2 0x106B JUMPI PUSH1 0x40 MLOAD PUSH3 0x461BCD PUSH1 0xE5 SHL DUP2 MSTORE PUSH1 0x20 PUSH1 0x4 DUP3 ADD MSTORE PUSH1 0x1A PUSH1 0x24 DUP3 ADD MSTORE PUSH32 0x5472616E7366657220616D6F756E74206D757374206265203E30000000000000 PUSH1 0x44 DUP3 ADD MSTORE PUSH1 0x64 ADD PUSH2 0x7DE JUMP JUMPDEST PUSH1 0x14 SLOAD PUSH0 SWAP1 PUSH1 0x1 PUSH1 0x1 PUSH1 0xA0 SHL SUB DUP6 DUP2 AND SWAP2 AND EQ DUP1 ISZERO PUSH2 0x10A2 JUMPI POP PUSH1 0x1 PUSH1 0x1 PUSH1 0xA0 SHL SUB DUP4 AND PUSH0 SWAP1 DUP2 MSTORE PUSH1 0x15 PUSH1 0x20 MSTORE PUSH1 0x40 SWAP1 KECCAK256 SLOAD PUSH1 0xFF AND ISZERO JUMPDEST PUSH1 0x14 SLOAD SWAP1 SWAP2 POP PUSH0 SWAP1 PUSH1 0x1 PUSH1 0x1 PUSH1 0xA0 SHL SUB DUP6 DUP2 AND SWAP2 AND EQ DUP1 ISZERO PUSH2 0x10DC JUMPI POP PUSH1 0x1 PUSH1 0x1 PUSH1 0xA0 SHL SUB DUP6 AND PUSH0 SWAP1 DUP2 MSTORE PUSH1 0x15 PUSH1 0x20 MSTORE PUSH1 0x40 SWAP1 KECCAK256 SLOAD PUSH1 0xFF AND ISZERO JUMPDEST PUSH1 0xF SLOAD SWAP1 SWAP2 POP PUSH1 0xFF AND DUP1 ISZERO PUSH2 0x10EE JUMPI POP DUP1 JUMPDEST ISZERO PUSH2 0x114E JUMPI PUSH1 0x11 SLOAD PUSH1 0xFF AND ISZERO PUSH2 0x1146 JUMPI PUSH1 0x40 MLOAD PUSH3 0x461BCD PUSH1 0xE5 SHL DUP2 MSTORE PUSH1 0x20 PUSH1 0x4 DUP3 ADD MSTORE PUSH1 0x1E PUSH1 0x24 DUP3 ADD MSTORE PUSH32 0x53656C6C732073746F70706564206279204469616D6F6E6420466C6F6F720000 PUSH1 0x44 DUP3 ADD MSTORE PUSH1 0x64 ADD PUSH2 0x7DE JUMP JUMPDEST PUSH2 0x114E PUSH2 0x14E5 JUMP JUMPDEST PUSH1 0xD SLOAD PUSH1 0xFF AND DUP1 ISZERO PUSH2 0x115D JUMPI POP DUP1 JUMPDEST ISZERO PUSH2 0x11EC JUMPI PUSH1 0x1 PUSH1 0x1 PUSH1 0xA0 SHL SUB DUP6 AND PUSH0 SWAP1 DUP2 MSTORE PUSH1 0xE PUSH1 0x20 MSTORE PUSH1 0x40 SWAP1 KECCAK256 SLOAD TIMESTAMP LT ISZERO PUSH2 0x11BB JUMPI PUSH1 0x40 MLOAD PUSH3 0x461BCD PUSH1 0xE5 SHL DUP2 MSTORE PUSH1 0x20 PUSH1 0x4 DUP3 ADD MSTORE PUSH1 0xF PUSH1 0x24 DUP3 ADD MSTORE PUSH15 0x436F6F6C646F776E20616374697665 PUSH1 0x88 SHL PUSH1 0x44 DUP3 ADD MSTORE PUSH1 0x64 ADD PUSH2 0x7DE JUMP JUMPDEST PUSH1 0xD SLOAD PUSH2 0x11D3 SWAP1 PUSH2 0x100 SWAP1 DIV PUSH4 0xFFFFFFFF AND TIMESTAMP PUSH2 0x2007 JUMP JUMPDEST PUSH1 0x1 PUSH1 0x1 PUSH1 0xA0 SHL SUB DUP7 AND PUSH0 SWAP1 DUP2 MSTORE PUSH1 0xE PUSH1 0x20 MSTORE PUSH1 0x40 SWAP1 KECCAK256 SSTORE JUMPDEST PUSH0 PUSH2 0x11F8 DUP7 DUP7 DUP7 PUSH2 0x159B JUMP JUMPDEST SWAP1 POP PUSH0 PUSH2 0x1205 DUP6 DUP4 PUSH2 0x133D JUMP JUMPDEST PUSH1 0x1 PUSH1 0x1 PUSH1 0xA0 SHL SUB DUP8 AND PUSH0 SWAP1 DUP2 MSTORE PUSH1 0x15 PUSH1 0x20 MSTORE PUSH1 0x40 SWAP1 KECCAK256 SLOAD SWAP1 SWAP2 POP PUSH1 0xFF AND ISZERO DUP1 ISZERO PUSH2 0x122E JUMPI POP DUP3 ISZERO JUMPDEST ISZERO PUSH2 0x12A7 JUMPI PUSH2 0x123B PUSH2 0x98F JUMP JUMPDEST PUSH2 0x1263 DUP3 PUSH2 0x125D DUP10 PUSH1 0x1 PUSH1 0x1 PUSH1 0xA0 SHL SUB AND PUSH0 SWAP1 DUP2 MSTORE PUSH1 0x20 DUP2 SWAP1 MSTORE PUSH1 0x40 SWAP1 KECCAK256 SLOAD SWAP1 JUMP JUMPDEST SWAP1 PUSH2 0x16C7 JUMP JUMPDEST GT ISZERO PUSH2 0x12A7 JUMPI PUSH1 0x40 MLOAD PUSH3 0x461BCD PUSH1 0xE5 SHL DUP2 MSTORE PUSH1 0x20 PUSH1 0x4 DUP3 ADD MSTORE PUSH1 0x13 PUSH1 0x24 DUP3 ADD MSTORE PUSH19 0x13585E081DD85B1B195D08195E18D959591959 PUSH1 0x6A SHL PUSH1 0x44 DUP3 ADD MSTORE PUSH1 0x64 ADD PUSH2 0x7DE JUMP JUMPDEST DUP2 ISZERO PUSH2 0x12C3 JUMPI PUSH2 0x12B8 DUP8 ADDRESS DUP5 PUSH2 0x16D2 JUMP JUMPDEST PUSH2 0x12C3 DUP3 DUP6 DUP6 PUSH2 0x1874 JUMP JUMPDEST PUSH2 0x12CE DUP8 DUP8 DUP4 PUSH2 0x16D2 JUMP JUMPDEST PUSH2 0x12D6 PUSH2 0x19DE JUMP JUMPDEST ISZERO PUSH2 0x12E3 JUMPI PUSH2 0x12E3 PUSH2 0x1A1D JUMP JUMPDEST POP POP POP POP POP POP POP JUMP JUMPDEST PUSH1 0x5 DUP1 SLOAD PUSH1 0x1 PUSH1 0x1 PUSH1 0xA0 SHL SUB DUP4 DUP2 AND PUSH1 0x1 PUSH1 0x1 PUSH1 0xA0 SHL SUB NOT DUP4 AND DUP2 OR SWAP1 SWAP4 SSTORE PUSH1 0x40 MLOAD SWAP2 AND SWAP2 SWAP1 DUP3 SWAP1 PUSH32 0x8BE0079C531659141344CD1FD0A4F28419497F9722A3DAAFE3B4186F6B6457E0 SWAP1 PUSH0 SWAP1 LOG3 POP POP JUMP JUMPDEST PUSH0 PUSH2 0x8D5 DUP3 DUP5 PUSH2 0x20F8 JUMP JUMPDEST PUSH0 PUSH2 0x8D5 DUP3 DUP5 PUSH2 0x210B JUMP JUMPDEST PUSH0 PUSH2 0x8D5 DUP3 DUP5 PUSH2 0x2122 JUMP JUMPDEST PUSH1 0x13 PUSH0 SWAP1 SLOAD SWAP1 PUSH2 0x100 EXP SWAP1 DIV PUSH1 0x1 PUSH1 0x1 PUSH1 0xA0 SHL SUB AND PUSH1 0x1 PUSH1 0x1 PUSH1 0xA0 SHL SUB AND PUSH4 0xC45A0155 PUSH1 0x40 MLOAD DUP2 PUSH4 0xFFFFFFFF AND PUSH1 0xE0 SHL DUP2 MSTORE PUSH1 0x4 ADD PUSH1 0x20 PUSH1 0x40 MLOAD DUP1 DUP4 SUB DUP2 DUP7 GAS STATICCALL ISZERO DUP1 ISZERO PUSH2 0x13AE JUMPI RETURNDATASIZE PUSH0 DUP1 RETURNDATACOPY RETURNDATASIZE PUSH0 REVERT JUMPDEST POP POP POP POP PUSH1 0x40 MLOAD RETURNDATASIZE PUSH1 0x1F NOT PUSH1 0x1F DUP3 ADD AND DUP3 ADD DUP1 PUSH1 0x40 MSTORE POP DUP2 ADD SWAP1 PUSH2 0x13D2 SWAP2 SWAP1 PUSH2 0x208E JUMP JUMPDEST PUSH1 0x1 PUSH1 0x1 PUSH1 0xA0 SHL SUB AND PUSH4 0xC9C65396 ADDRESS PUSH1 0x13 PUSH0 SWAP1 SLOAD SWAP1 PUSH2 0x100 EXP SWAP1 DIV PUSH1 0x1 PUSH1 0x1 PUSH1 0xA0 SHL SUB AND PUSH1 0x1 PUSH1 0x1 PUSH1 0xA0 SHL SUB AND PUSH4 0xAD5C4648 PUSH1 0x40 MLOAD DUP2 PUSH4 0xFFFFFFFF AND PUSH1 0xE0 SHL DUP2 MSTORE PUSH1 0x4 ADD PUSH1 0x20 PUSH1 0x40 MLOAD DUP1 DUP4 SUB DUP2 DUP7 GAS STATICCALL ISZERO DUP1 ISZERO PUSH2 0x1431 JUMPI RETURNDATASIZE PUSH0 DUP1 RETURNDATACOPY RETURNDATASIZE PUSH0 REVERT JUMPDEST POP POP POP POP PUSH1 0x40 MLOAD RETURNDATASIZE PUSH1 0x1F NOT PUSH1 0x1F DUP3 ADD AND DUP3 ADD DUP1 PUSH1 0x40 MSTORE POP DUP2 ADD SWAP1 PUSH2 0x1455 SWAP2 SWAP1 PUSH2 0x208E JUMP JUMPDEST PUSH1 0x40 MLOAD PUSH1 0x1 PUSH1 0x1 PUSH1 0xE0 SHL SUB NOT PUSH1 0xE0 DUP6 SWAP1 SHL AND DUP2 MSTORE PUSH1 0x1 PUSH1 0x1 PUSH1 0xA0 SHL SUB SWAP3 DUP4 AND PUSH1 0x4 DUP3 ADD MSTORE SWAP2 AND PUSH1 0x24 DUP3 ADD MSTORE PUSH1 0x44 ADD PUSH1 0x20 PUSH1 0x40 MLOAD DUP1 DUP4 SUB DUP2 PUSH0 DUP8 GAS CALL ISZERO DUP1 ISZERO PUSH2 0x149F JUMPI RETURNDATASIZE PUSH0 DUP1 RETURNDATACOPY RETURNDATASIZE PUSH0 REVERT JUMPDEST POP POP POP POP PUSH1 0x40 MLOAD RETURNDATASIZE PUSH1 0x1F NOT PUSH1 0x1F DUP3 ADD AND DUP3 ADD DUP1 PUSH1 0x40 MSTORE POP DUP2 ADD SWAP1 PUSH2 0x14C3 SWAP2 SWAP1 PUSH2 0x208E JUMP JUMPDEST PUSH1 0x14 DUP1 SLOAD PUSH1 0x1 PUSH1 0x1 PUSH1 0xA0 SHL SUB NOT AND PUSH1 0x1 PUSH1 0x1 PUSH1 0xA0 SHL SUB SWAP3 SWAP1 SWAP3 AND SWAP2 SWAP1 SWAP2 OR SWAP1 SSTORE JUMP JUMPDEST PUSH0 PUSH2 0x14EE PUSH2 0x9BC JUMP JUMPDEST PUSH1 0x10 SLOAD SWAP1 SWAP2 POP DUP2 GT ISZERO PUSH2 0x1518 JUMPI PUSH1 0x10 DUP2 SWAP1 SSTORE PUSH1 0x11 SLOAD PUSH1 0xFF AND ISZERO PUSH2 0xDAC JUMPI PUSH1 0x11 DUP1 SLOAD PUSH1 0xFF NOT AND SWAP1 SSTORE POP JUMP JUMPDEST PUSH1 0xF SLOAD PUSH0 SWAP1 PUSH2 0x1545 SWAP1 PUSH2 0x2710 SWAP1 PUSH2 0x958 SWAP1 PUSH2 0x153C SWAP1 PUSH2 0x100 SWAP1 DIV PUSH2 0xFFFF AND DUP4 PUSH2 0x20F8 JUMP JUMPDEST PUSH1 0x10 SLOAD SWAP1 PUSH2 0x1348 JUMP JUMPDEST SWAP1 POP DUP1 DUP3 LT ISZERO PUSH2 0x1563 JUMPI PUSH1 0x11 DUP1 SLOAD PUSH1 0xFF NOT AND PUSH1 0x1 OR SWAP1 SSTORE PUSH1 0x10 SLOAD PUSH1 0x12 SSTORE JUMPDEST PUSH1 0x11 SLOAD PUSH1 0xFF AND DUP1 ISZERO PUSH2 0x1582 JUMPI POP PUSH1 0x12 SLOAD PUSH2 0x157E SWAP1 PUSH1 0x2 PUSH2 0x1348 JUMP JUMPDEST DUP3 LT ISZERO JUMPDEST ISZERO PUSH2 0x1597 JUMPI PUSH1 0x11 DUP1 SLOAD PUSH1 0xFF NOT AND SWAP1 SSTORE PUSH1 0x10 DUP3 SWAP1 SSTORE JUMPDEST POP POP JUMP JUMPDEST PUSH1 0x1 PUSH1 0x1 PUSH1 0xA0 SHL SUB DUP4 AND PUSH0 SWAP1 DUP2 MSTORE PUSH1 0x15 PUSH1 0x20 MSTORE PUSH1 0x40 DUP2 KECCAK256 SLOAD PUSH1 0xFF AND DUP1 PUSH2 0x15D8 JUMPI POP PUSH1 0x1 PUSH1 0x1 PUSH1 0xA0 SHL SUB DUP4 AND PUSH0 SWAP1 DUP2 MSTORE PUSH1 0x15 PUSH1 0x20 MSTORE PUSH1 0x40 SWAP1 KECCAK256 SLOAD PUSH1 0xFF AND JUMPDEST ISZERO PUSH2 0x15E4 JUMPI POP PUSH0 PUSH2 0x8D5 JUMP JUMPDEST PUSH1 0x14 SLOAD PUSH1 0x1 PUSH1 0x1 PUSH1 0xA0 SHL SUB SWAP1 DUP2 AND DUP6 DUP3 AND DUP2 EQ SWAP2 DUP6 AND EQ DUP2 ISZERO PUSH2 0x1637 JUMPI PUSH1 0x7 SLOAD PUSH2 0x162E SWAP1 PUSH2 0x2710 SWAP1 PUSH2 0x958 SWAP1 PUSH2 0x1627 SWAP1 PUSH2 0xFFFF DUP1 DUP3 AND SWAP2 PUSH3 0x10000 SWAP1 DIV AND PUSH2 0x16C7 JUMP JUMPDEST DUP8 SWAP1 PUSH2 0x1348 JUMP JUMPDEST SWAP3 POP POP POP PUSH2 0x8D5 JUMP JUMPDEST DUP1 ISZERO PUSH2 0x166A JUMPI PUSH1 0x7 SLOAD PUSH2 0x162E SWAP1 PUSH2 0x2710 SWAP1 PUSH2 0x958 SWAP1 PUSH2 0x1627 SWAP1 PUSH2 0xFFFF PUSH1 0x1 PUSH1 0x20 SHL DUP3 DIV DUP2 AND SWAP2 PUSH1 0x1 PUSH1 0x30 SHL SWAP1 DIV AND PUSH2 0x16C7 JUMP JUMPDEST PUSH1 0x7 SLOAD PUSH0 SWAP1 PUSH2 0x168D SWAP1 PUSH2 0xFFFF PUSH1 0x1 PUSH1 0x20 SHL DUP3 DIV DUP2 AND SWAP2 PUSH1 0x1 PUSH1 0x30 SHL SWAP1 DIV AND PUSH2 0x16C7 JUMP JUMPDEST SWAP1 POP PUSH0 PUSH2 0x16AA PUSH1 0xA PUSH2 0x958 PUSH1 0x8 SLOAD DUP6 PUSH2 0x1348 SWAP1 SWAP2 SWAP1 PUSH4 0xFFFFFFFF AND JUMP JUMPDEST SWAP1 POP PUSH2 0x16BC PUSH2 0x2710 PUSH2 0x958 DUP9 DUP5 PUSH2 0x1348 JUMP JUMPDEST SWAP5 POP POP POP POP POP PUSH2 0x8D5 JUMP JUMPDEST PUSH0 PUSH2 0x8D5 DUP3 DUP5 PUSH2 0x2007 JUMP JUMPDEST PUSH1 0x1 PUSH1 0x1 PUSH1 0xA0 SHL SUB DUP4 AND PUSH2 0x1736 JUMPI PUSH1 0x40 MLOAD PUSH3 0x461BCD PUSH1 0xE5 SHL DUP2 MSTORE PUSH1 0x20 PUSH1 0x4 DUP3 ADD MSTORE PUSH1 0x25 PUSH1 0x24 DUP3 ADD MSTORE PUSH32 0x45524332303A207472616E736665722066726F6D20746865207A65726F206164 PUSH1 0x44 DUP3 ADD MSTORE PUSH5 0x6472657373 PUSH1 0xD8 SHL PUSH1 0x64 DUP3 ADD MSTORE PUSH1 0x84 ADD PUSH2 0x7DE JUMP JUMPDEST PUSH1 0x1 PUSH1 0x1 PUSH1 0xA0 SHL SUB DUP3 AND PUSH2 0x1798 JUMPI PUSH1 0x40 MLOAD PUSH3 0x461BCD PUSH1 0xE5 SHL DUP2 MSTORE PUSH1 0x20 PUSH1 0x4 DUP3 ADD MSTORE PUSH1 0x23 PUSH1 0x24 DUP3 ADD MSTORE PUSH32 0x45524332303A207472616E7366657220746F20746865207A65726F2061646472 PUSH1 0x44 DUP3 ADD MSTORE PUSH3 0x657373 PUSH1 0xE8 SHL PUSH1 0x64 DUP3 ADD MSTORE PUSH1 0x84 ADD PUSH2 0x7DE JUMP JUMPDEST PUSH1 0x1 PUSH1 0x1 PUSH1 0xA0 SHL SUB DUP4 AND PUSH0 SWAP1 DUP2 MSTORE PUSH1 0x20 DUP2 SWAP1 MSTORE PUSH1 0x40 SWAP1 KECCAK256 SLOAD DUP2 DUP2 LT ISZERO PUSH2 0x180F JUMPI PUSH1 0x40 MLOAD PUSH3 0x461BCD PUSH1 0xE5 SHL DUP2 MSTORE PUSH1 0x20 PUSH1 0x4 DUP3 ADD MSTORE PUSH1 0x26 PUSH1 0x24 DUP3 ADD MSTORE PUSH32 0x45524332303A207472616E7366657220616D6F756E7420657863656564732062 PUSH1 0x44 DUP3 ADD MSTORE PUSH6 0x616C616E6365 PUSH1 0xD0 SHL PUSH1 0x64 DUP3 ADD MSTORE PUSH1 0x84 ADD PUSH2 0x7DE JUMP JUMPDEST PUSH1 0x1 PUSH1 0x1 PUSH1 0xA0 SHL SUB DUP5 DUP2 AND PUSH0 DUP2 DUP2 MSTORE PUSH1 0x20 DUP2 DUP2 MSTORE PUSH1 0x40 DUP1 DUP4 KECCAK256 DUP8 DUP8 SUB SWAP1 SSTORE SWAP4 DUP8 AND DUP1 DUP4 MSTORE SWAP2 DUP5 SWAP1 KECCAK256 DUP1 SLOAD DUP8 ADD SWAP1 SSTORE SWAP3 MLOAD DUP6 DUP2 MSTORE SWAP1 SWAP3 PUSH32 0xDDF252AD1BE2C89B69C2B068FC378DAA952BA7F163C4A11628F55A4DF523B3EF SWAP2 ADD PUSH1 0x40 MLOAD DUP1 SWAP2 SUB SWAP1 LOG3 PUSH2 0x1016 JUMP JUMPDEST PUSH0 DUP1 DUP4 ISZERO PUSH2 0x18B6 JUMPI PUSH1 0x7 SLOAD PUSH2 0x18AF SWAP1 PUSH2 0x1899 SWAP1 PUSH2 0xFFFF PUSH3 0x10000 DUP3 DIV DUP2 AND SWAP2 AND PUSH2 0x1FE5 JUMP JUMPDEST PUSH1 0x7 SLOAD PUSH2 0xFFFF SWAP2 DUP3 AND SWAP2 PUSH2 0x958 SWAP2 DUP10 SWAP2 AND PUSH2 0x1348 JUMP JUMPDEST SWAP2 POP PUSH2 0x1964 JUMP JUMPDEST DUP3 ISZERO PUSH2 0x18FF JUMPI PUSH1 0x7 SLOAD PUSH2 0x18AF SWAP1 PUSH2 0x18E1 SWAP1 PUSH2 0xFFFF PUSH1 0x1 PUSH1 0x30 SHL DUP3 DIV DUP2 AND SWAP2 PUSH1 0x1 PUSH1 0x20 SHL SWAP1 DIV AND PUSH2 0x1FE5 JUMP JUMPDEST PUSH1 0x7 SLOAD PUSH2 0xFFFF SWAP2 DUP3 AND SWAP2 PUSH2 0x958 SWAP2 DUP10 SWAP2 PUSH1 0x1 PUSH1 0x20 SHL SWAP1 SWAP2 DIV AND PUSH2 0x1348 JUMP JUMPDEST PUSH1 0x7 SLOAD PUSH0 SWAP1 PUSH2 0x1922 SWAP1 PUSH2 0xFFFF PUSH1 0x1 PUSH1 0x30 SHL DUP3 DIV DUP2 AND SWAP2 PUSH1 0x1 PUSH1 0x20 SHL SWAP1 DIV AND PUSH2 0x1FE5 JUMP JUMPDEST PUSH2 0xFFFF AND SWAP1 POP PUSH2 0x1960 PUSH1 0xA PUSH2 0x958 PUSH1 0x8 SLOAD PUSH2 0x952 DUP6 PUSH2 0x958 PUSH1 0x7 PUSH0 ADD PUSH1 0x4 SWAP1 SLOAD SWAP1 PUSH2 0x100 EXP SWAP1 DIV PUSH2 0xFFFF AND PUSH2 0xFFFF AND DUP14 PUSH2 0x1348 SWAP1 SWAP2 SWAP1 PUSH4 0xFFFFFFFF AND JUMP JUMPDEST SWAP3 POP POP JUMPDEST PUSH2 0x196E DUP3 DUP7 PUSH2 0x20F8 JUMP JUMPDEST SWAP1 POP DUP2 PUSH1 0xA PUSH0 DUP3 DUP3 SLOAD PUSH2 0x1981 SWAP2 SWAP1 PUSH2 0x2007 JUMP JUMPDEST SWAP3 POP POP DUP2 SWAP1 SSTORE POP DUP1 PUSH1 0xB PUSH0 DUP3 DUP3 SLOAD PUSH2 0x1999 SWAP2 SWAP1 PUSH2 0x2007 JUMP JUMPDEST SWAP1 SWAP2 SSTORE POP POP PUSH1 0x40 DUP1 MLOAD DUP4 DUP2 MSTORE PUSH1 0x20 DUP2 ADD DUP4 SWAP1 MSTORE PUSH32 0xF2D9F3F00FC700757EB74F9AA3DBA0E2EB1280E0C6E0CF65962CC055528D7A90 SWAP2 ADD PUSH1 0x40 MLOAD DUP1 SWAP2 SUB SWAP1 LOG1 POP POP POP POP POP JUMP JUMPDEST PUSH1 0xC SLOAD PUSH0 SWAP1 PUSH1 0xFF AND ISZERO DUP1 ISZERO PUSH2 0x1A03 JUMPI POP PUSH1 0x9 SLOAD PUSH1 0xB SLOAD PUSH1 0xA SLOAD PUSH2 0x1A00 SWAP2 PUSH2 0x16C7 JUMP JUMPDEST LT ISZERO JUMPDEST DUP1 ISZERO PUSH2 0x9B7 JUMPI POP POP PUSH1 0x14 SLOAD PUSH1 0x1 PUSH1 0x1 PUSH1 0xA0 SHL SUB AND CALLER EQ ISZERO SWAP1 JUMP JUMPDEST PUSH0 PUSH1 0xB SLOAD PUSH1 0xA SLOAD PUSH2 0x1A2E SWAP2 SWAP1 PUSH2 0x2007 JUMP JUMPDEST SWAP1 POP PUSH1 0x9 SLOAD DUP2 LT ISZERO PUSH2 0x1A3D JUMPI POP JUMP JUMPDEST PUSH1 0xC DUP1 SLOAD PUSH1 0xFF NOT AND PUSH1 0x1 OR SWAP1 SSTORE PUSH1 0xB SLOAD SELFBALANCE SWAP1 PUSH2 0x1A58 SWAP1 PUSH2 0x1B07 JUMP JUMPDEST PUSH0 PUSH2 0x1A63 SELFBALANCE DUP4 PUSH2 0x133D JUMP JUMPDEST SWAP1 POP PUSH2 0x1A77 PUSH1 0x5 SLOAD PUSH1 0x1 PUSH1 0x1 PUSH1 0xA0 SHL SUB AND SWAP1 JUMP JUMPDEST PUSH1 0x1 PUSH1 0x1 PUSH1 0xA0 SHL SUB AND PUSH2 0x8FC DUP3 SWAP1 DUP2 ISZERO MUL SWAP1 PUSH1 0x40 MLOAD PUSH0 PUSH1 0x40 MLOAD DUP1 DUP4 SUB DUP2 DUP6 DUP9 DUP9 CALL SWAP4 POP POP POP POP ISZERO DUP1 ISZERO PUSH2 0x1AAC JUMPI RETURNDATASIZE PUSH0 DUP1 RETURNDATACOPY RETURNDATASIZE PUSH0 REVERT JUMPDEST POP PUSH1 0xA SLOAD PUSH0 PUSH2 0x1ABC DUP3 PUSH1 0x2 PUSH2 0x1353 JUMP JUMPDEST SWAP1 POP PUSH2 0x1AC7 DUP2 PUSH2 0x1B07 JUMP JUMPDEST PUSH0 PUSH2 0x1AD2 SELFBALANCE DUP6 PUSH2 0x133D JUMP JUMPDEST SWAP1 POP PUSH2 0x1AE7 PUSH2 0x1AE1 DUP5 DUP5 PUSH2 0x133D JUMP JUMPDEST DUP3 PUSH2 0x1C68 JUMP JUMPDEST POP POP PUSH0 PUSH1 0xA DUP2 SWAP1 SSTORE PUSH1 0xB SSTORE POP POP PUSH1 0xC DUP1 SLOAD PUSH1 0xFF NOT AND SWAP1 SSTORE POP POP JUMP JUMPDEST POP POP POP JUMP JUMPDEST PUSH1 0x40 DUP1 MLOAD PUSH1 0x2 DUP1 DUP3 MSTORE PUSH1 0x60 DUP3 ADD DUP4 MSTORE PUSH0 SWAP3 PUSH1 0x20 DUP4 ADD SWAP1 DUP1 CALLDATASIZE DUP4 CALLDATACOPY ADD SWAP1 POP POP SWAP1 POP ADDRESS DUP2 PUSH0 DUP2 MLOAD DUP2 LT PUSH2 0x1B3A JUMPI PUSH2 0x1B3A PUSH2 0x2149 JUMP JUMPDEST PUSH1 0x1 PUSH1 0x1 PUSH1 0xA0 SHL SUB SWAP3 DUP4 AND PUSH1 0x20 SWAP2 DUP3 MUL SWAP3 SWAP1 SWAP3 ADD DUP2 ADD SWAP2 SWAP1 SWAP2 MSTORE PUSH1 0x13 SLOAD PUSH1 0x40 DUP1 MLOAD PUSH4 0x15AB88C9 PUSH1 0xE3 SHL DUP2 MSTORE SWAP1 MLOAD SWAP2 SWAP1 SWAP4 AND SWAP3 PUSH4 0xAD5C4648 SWAP3 PUSH1 0x4 DUP1 DUP4 ADD SWAP4 SWAP2 SWAP3 DUP3 SWAP1 SUB ADD DUP2 DUP7 GAS STATICCALL ISZERO DUP1 ISZERO PUSH2 0x1B91 JUMPI RETURNDATASIZE PUSH0 DUP1 RETURNDATACOPY RETURNDATASIZE PUSH0 REVERT JUMPDEST POP POP POP POP PUSH1 0x40 MLOAD RETURNDATASIZE PUSH1 0x1F NOT PUSH1 0x1F DUP3 ADD AND DUP3 ADD DUP1 PUSH1 0x40 MSTORE POP DUP2 ADD SWAP1 PUSH2 0x1BB5 SWAP2 SWAP1 PUSH2 0x208E JUMP JUMPDEST DUP2 PUSH1 0x1 DUP2 MLOAD DUP2 LT PUSH2 0x1BC8 JUMPI PUSH2 0x1BC8 PUSH2 0x2149 JUMP JUMPDEST PUSH1 0x1 PUSH1 0x1 PUSH1 0xA0 SHL SUB SWAP3 DUP4 AND PUSH1 0x20 SWAP2 DUP3 MUL SWAP3 SWAP1 SWAP3 ADD ADD MSTORE PUSH1 0x13 SLOAD PUSH2 0x1BEE SWAP2 ADDRESS SWAP2 AND DUP5 PUSH2 0xE27 JUMP JUMPDEST PUSH1 0x13 SLOAD PUSH1 0x40 MLOAD PUSH4 0x18CBAFE5 PUSH1 0xE0 SHL DUP2 MSTORE PUSH1 0x1 PUSH1 0x1 PUSH1 0xA0 SHL SUB SWAP1 SWAP2 AND SWAP1 PUSH4 0x18CBAFE5 SWAP1 PUSH2 0x1C26 SWAP1 DUP6 SWAP1 PUSH0 SWAP1 DUP7 SWAP1 ADDRESS SWAP1 TIMESTAMP SWAP1 PUSH1 0x4 ADD PUSH2 0x215D JUMP JUMPDEST PUSH0 PUSH1 0x40 MLOAD DUP1 DUP4 SUB DUP2 PUSH0 DUP8 GAS CALL ISZERO DUP1 ISZERO PUSH2 0x1C41 JUMPI RETURNDATASIZE PUSH0 DUP1 RETURNDATACOPY RETURNDATASIZE PUSH0 REVERT JUMPDEST POP POP POP POP PUSH1 0x40 MLOAD RETURNDATASIZE PUSH0 DUP3 RETURNDATACOPY PUSH1 0x1F RETURNDATASIZE SWAP1 DUP2 ADD PUSH1 0x1F NOT AND DUP3 ADD PUSH1 0x40 MSTORE PUSH2 0x1B02 SWAP2 SWAP1 DUP2 ADD SWAP1 PUSH2 0x21CE JUMP JUMPDEST PUSH1 0x13 SLOAD PUSH2 0x1C80 SWAP1 ADDRESS SWAP1 PUSH1 0x1 PUSH1 0x1 PUSH1 0xA0 SHL SUB AND DUP5 PUSH2 0xE27 JUMP JUMPDEST PUSH1 0x13 SLOAD PUSH1 0x1 PUSH1 0x1 PUSH1 0xA0 SHL SUB AND PUSH4 0xF305D719 DUP3 ADDRESS DUP6 PUSH0 DUP1 PUSH2 0x1CA8 PUSH1 0x5 SLOAD PUSH1 0x1 PUSH1 0x1 PUSH1 0xA0 SHL SUB AND SWAP1 JUMP JUMPDEST PUSH1 0x40 MLOAD PUSH1 0xE0 DUP9 SWAP1 SHL PUSH1 0x1 PUSH1 0x1 PUSH1 0xE0 SHL SUB NOT AND DUP2 MSTORE PUSH1 0x1 PUSH1 0x1 PUSH1 0xA0 SHL SUB SWAP6 DUP7 AND PUSH1 0x4 DUP3 ADD MSTORE PUSH1 0x24 DUP2 ADD SWAP5 SWAP1 SWAP5 MSTORE PUSH1 0x44 DUP5 ADD SWAP3 SWAP1 SWAP3 MSTORE PUSH1 0x64 DUP4 ADD MSTORE SWAP1 SWAP2 AND PUSH1 0x84 DUP3 ADD MSTORE TIMESTAMP PUSH1 0xA4 DUP3 ADD MSTORE PUSH1 0xC4 ADD PUSH1 0x60 PUSH1 0x40 MLOAD DUP1 DUP4 SUB DUP2 DUP6 DUP9 GAS CALL ISZERO DUP1 ISZERO PUSH2 0x1D0E JUMPI RETURNDATASIZE PUSH0 DUP1 RETURNDATACOPY RETURNDATASIZE PUSH0 REVERT JUMPDEST POP POP POP POP POP PUSH1 0x40 MLOAD RETURNDATASIZE PUSH1 0x1F NOT PUSH1 0x1F DUP3 ADD AND DUP3 ADD DUP1 PUSH1 0x40 MSTORE POP DUP2 ADD SWAP1 PUSH2 0x1D33 SWAP2 SWAP1 PUSH2 0x2287 JUMP JUMPDEST POP POP PUSH1 0x40 DUP1 MLOAD DUP5 DUP2 MSTORE PUSH1 0x20 DUP2 ADD DUP5 SWAP1 MSTORE PUSH32 0x38F8A0C92F4C5B0B6877F878CB4C0C8D348A47B76D716C8E78F425043DF9515B SWAP3 POP ADD PUSH1 0x40 MLOAD DUP1 SWAP2 SUB SWAP1 LOG1 POP POP JUMP JUMPDEST PUSH1 0x20 DUP2 MSTORE PUSH0 DUP3 MLOAD DUP1 PUSH1 0x20 DUP5 ADD MSTORE DUP1 PUSH1 0x20 DUP6 ADD PUSH1 0x40 DUP6 ADD MCOPY PUSH0 PUSH1 0x40 DUP3 DUP6 ADD ADD MSTORE PUSH1 0x40 PUSH1 0x1F NOT PUSH1 0x1F DUP4 ADD AND DUP5 ADD ADD SWAP2 POP POP SWAP3 SWAP2 POP POP JUMP JUMPDEST PUSH1 0x1 PUSH1 0x1 PUSH1 0xA0 SHL SUB DUP2 AND DUP2 EQ PUSH2 0xDAC JUMPI PUSH0 DUP1 REVERT JUMPDEST PUSH0 DUP1 PUSH1 0x40 DUP4 DUP6 SUB SLT ISZERO PUSH2 0x1DCD JUMPI PUSH0 DUP1 REVERT JUMPDEST DUP3 CALLDATALOAD PUSH2 0x1DD8 DUP2 PUSH2 0x1DA8 JUMP JUMPDEST SWAP5 PUSH1 0x20 SWAP4 SWAP1 SWAP4 ADD CALLDATALOAD SWAP4 POP POP POP JUMP JUMPDEST DUP1 CALLDATALOAD PUSH2 0xFFFF DUP2 AND DUP2 EQ PUSH2 0x1DF7 JUMPI PUSH0 DUP1 REVERT JUMPDEST SWAP2 SWAP1 POP JUMP JUMPDEST PUSH0 DUP1 PUSH0 DUP1 PUSH1 0x80 DUP6 DUP8 SUB SLT ISZERO PUSH2 0x1E0F JUMPI PUSH0 DUP1 REVERT JUMPDEST PUSH2 0x1E18 DUP6 PUSH2 0x1DE6 JUMP JUMPDEST SWAP4 POP PUSH2 0x1E26 PUSH1 0x20 DUP7 ADD PUSH2 0x1DE6 JUMP JUMPDEST SWAP3 POP PUSH2 0x1E34 PUSH1 0x40 DUP7 ADD PUSH2 0x1DE6 JUMP JUMPDEST SWAP2 POP PUSH2 0x1E42 PUSH1 0x60 DUP7 ADD PUSH2 0x1DE6 JUMP JUMPDEST SWAP1 POP SWAP3 SWAP6 SWAP2 SWAP5 POP SWAP3 POP JUMP JUMPDEST PUSH0 DUP1 PUSH0 PUSH1 0x60 DUP5 DUP7 SUB SLT ISZERO PUSH2 0x1E5F JUMPI PUSH0 DUP1 REVERT JUMPDEST DUP4 CALLDATALOAD PUSH2 0x1E6A DUP2 PUSH2 0x1DA8 JUMP JUMPDEST SWAP3 POP PUSH1 0x20 DUP5 ADD CALLDATALOAD PUSH2 0x1E7A DUP2 PUSH2 0x1DA8 JUMP JUMPDEST SWAP3 SWAP6 SWAP3 SWAP5 POP POP POP PUSH1 0x40 SWAP2 SWAP1 SWAP2 ADD CALLDATALOAD SWAP1 JUMP JUMPDEST PUSH0 PUSH1 0x20 DUP3 DUP5 SUB SLT ISZERO PUSH2 0x1E9B JUMPI PUSH0 DUP1 REVERT JUMPDEST DUP2 CALLDATALOAD PUSH2 0x8D5 DUP2 PUSH2 0x1DA8 JUMP JUMPDEST PUSH0 PUSH1 0x20 DUP3 DUP5 SUB SLT ISZERO PUSH2 0x1EB6 JUMPI PUSH0 DUP1 REVERT JUMPDEST POP CALLDATALOAD SWAP2 SWAP1 POP JUMP JUMPDEST DUP1 CALLDATALOAD DUP1 ISZERO ISZERO DUP2 EQ PUSH2 0x1DF7 JUMPI PUSH0 DUP1 REVERT JUMPDEST PUSH0 DUP1 PUSH1 0x40 DUP4 DUP6 SUB SLT ISZERO PUSH2 0x1EDD JUMPI PUSH0 DUP1 REVERT JUMPDEST DUP3 CALLDATALOAD PUSH2 0x1EE8 DUP2 PUSH2 0x1DA8 JUMP JUMPDEST SWAP2 POP PUSH2 0x1EF6 PUSH1 0x20 DUP5 ADD PUSH2 0x1EBD JUMP JUMPDEST SWAP1 POP SWAP3 POP SWAP3 SWAP1 POP JUMP JUMPDEST PUSH0 DUP1 PUSH1 0x40 DUP4 DUP6 SUB SLT ISZERO PUSH2 0x1F10 JUMPI PUSH0 DUP1 REVERT JUMPDEST DUP3 CALLDATALOAD PUSH2 0x1F1B DUP2 PUSH2 0x1DA8 JUMP JUMPDEST SWAP2 POP PUSH1 0x20 DUP4 ADD CALLDATALOAD PUSH2 0x1F2B DUP2 PUSH2 0x1DA8 JUMP JUMPDEST DUP1 SWAP2 POP POP SWAP3 POP SWAP3 SWAP1 POP JUMP JUMPDEST PUSH0 DUP1 PUSH1 0x40 DUP4 DUP6 SUB SLT ISZERO PUSH2 0x1F47 JUMPI PUSH0 DUP1 REVERT JUMPDEST PUSH2 0x1F50 DUP4 PUSH2 0x1EBD JUMP JUMPDEST SWAP2 POP PUSH2 0x1EF6 PUSH1 0x20 DUP5 ADD PUSH2 0x1DE6 JUMP JUMPDEST PUSH4 0xFFFFFFFF DUP2 AND DUP2 EQ PUSH2 0xDAC JUMPI PUSH0 DUP1 REVERT JUMPDEST PUSH0 DUP1 PUSH1 0x40 DUP4 DUP6 SUB SLT ISZERO PUSH2 0x1F80 JUMPI PUSH0 DUP1 REVERT JUMPDEST PUSH2 0x1F89 DUP4 PUSH2 0x1EBD JUMP JUMPDEST SWAP2 POP PUSH1 0x20 DUP4 ADD CALLDATALOAD PUSH2 0x1F2B DUP2 PUSH2 0x1F5E JUMP JUMPDEST PUSH1 0x1 DUP2 DUP2 SHR SWAP1 DUP3 AND DUP1 PUSH2 0x1FAD JUMPI PUSH1 0x7F DUP3 AND SWAP2 POP JUMPDEST PUSH1 0x20 DUP3 LT DUP2 SUB PUSH2 0x1FCB JUMPI PUSH4 0x4E487B71 PUSH1 0xE0 SHL PUSH0 MSTORE PUSH1 0x22 PUSH1 0x4 MSTORE PUSH1 0x24 PUSH0 REVERT JUMPDEST POP SWAP2 SWAP1 POP JUMP JUMPDEST PUSH4 0x4E487B71 PUSH1 0xE0 SHL PUSH0 MSTORE PUSH1 0x11 PUSH1 0x4 MSTORE PUSH1 0x24 PUSH0 REVERT JUMPDEST PUSH2 0xFFFF DUP2 DUP2 AND DUP4 DUP3 AND ADD SWAP1 DUP1 DUP3 GT ISZERO PUSH2 0x2000 JUMPI PUSH2 0x2000 PUSH2 0x1FD1 JUMP JUMPDEST POP SWAP3 SWAP2 POP POP JUMP JUMPDEST DUP1 DUP3 ADD DUP1 DUP3 GT ISZERO PUSH2 0x782 JUMPI PUSH2 0x782 PUSH2 0x1FD1 JUMP JUMPDEST PUSH0 PUSH1 0x1 PUSH1 0xFF SHL DUP3 ADD PUSH2 0x202E JUMPI PUSH2 0x202E PUSH2 0x1FD1 JUMP JUMPDEST POP PUSH0 SUB SWAP1 JUMP JUMPDEST DUP1 MLOAD PUSH1 0x1 PUSH1 0x1 PUSH1 0x70 SHL SUB DUP2 AND DUP2 EQ PUSH2 0x1DF7 JUMPI PUSH0 DUP1 REVERT JUMPDEST PUSH0 DUP1 PUSH0 PUSH1 0x60 DUP5 DUP7 SUB SLT ISZERO PUSH2 0x205C JUMPI PUSH0 DUP1 REVERT JUMPDEST PUSH2 0x2065 DUP5 PUSH2 0x2034 JUMP JUMPDEST SWAP3 POP PUSH2 0x2073 PUSH1 0x20 DUP6 ADD PUSH2 0x2034 JUMP JUMPDEST SWAP2 POP PUSH1 0x40 DUP5 ADD MLOAD PUSH2 0x2083 DUP2 PUSH2 0x1F5E JUMP JUMPDEST DUP1 SWAP2 POP POP SWAP3 POP SWAP3 POP SWAP3 JUMP JUMPDEST PUSH0 PUSH1 0x20 DUP3 DUP5 SUB SLT ISZERO PUSH2 0x209E JUMPI PUSH0 DUP1 REVERT JUMPDEST DUP2 MLOAD PUSH2 0x8D5 DUP2 PUSH2 0x1DA8 JUMP JUMPDEST PUSH4 0x4E487B71 PUSH1 0xE0 SHL PUSH0 MSTORE PUSH1 0x12 PUSH1 0x4 MSTORE PUSH1 0x24 PUSH0 REVERT JUMPDEST PUSH0 DUP3 PUSH2 0x20CB JUMPI PUSH2 0x20CB PUSH2 0x20A9 JUMP JUMPDEST POP MOD SWAP1 JUMP JUMPDEST PUSH4 0xFFFFFFFF DUP2 DUP2 AND DUP4 DUP3 AND MUL DUP1 DUP3 AND SWAP2 SWAP1 DUP3 DUP2 EQ PUSH2 0x20F0 JUMPI PUSH2 0x20F0 PUSH2 0x1FD1 JUMP JUMPDEST POP POP SWAP3 SWAP2 POP POP JUMP JUMPDEST DUP2 DUP2 SUB DUP2 DUP2 GT ISZERO PUSH2 0x782 JUMPI PUSH2 0x782 PUSH2 0x1FD1 JUMP JUMPDEST DUP1 DUP3 MUL DUP2 ISZERO DUP3 DUP3 DIV DUP5 EQ OR PUSH2 0x782 JUMPI PUSH2 0x782 PUSH2 0x1FD1 JUMP JUMPDEST PUSH0 DUP3 PUSH2 0x2130 JUMPI PUSH2 0x2130 PUSH2 0x20A9 JUMP JUMPDEST POP DIV SWAP1 JUMP JUMPDEST PUSH4 0x4E487B71 PUSH1 0xE0 SHL PUSH0 MSTORE PUSH1 0x41 PUSH1 0x4 MSTORE PUSH1 0x24 PUSH0 REVERT JUMPDEST PUSH4 0x4E487B71 PUSH1 0xE0 SHL PUSH0 MSTORE PUSH1 0x32 PUSH1 0x4 MSTORE PUSH1 0x24 PUSH0 REVERT JUMPDEST PUSH0 PUSH1 0xA0 DUP3 ADD DUP8 DUP4 MSTORE PUSH1 0x20 DUP8 PUSH1 0x20 DUP6 ADD MSTORE PUSH1 0xA0 PUSH1 0x40 DUP6 ADD MSTORE DUP2 DUP8 MLOAD DUP1 DUP5 MSTORE PUSH1 0xC0 DUP7 ADD SWAP2 POP PUSH1 0x20 DUP10 ADD SWAP4 POP PUSH0 JUMPDEST DUP2 DUP2 LT ISZERO PUSH2 0x21AD JUMPI DUP5 MLOAD PUSH1 0x1 PUSH1 0x1 PUSH1 0xA0 SHL SUB AND DUP4 MSTORE SWAP4 DUP4 ADD SWAP4 SWAP2 DUP4 ADD SWAP2 PUSH1 0x1 ADD PUSH2 0x2188 JUMP JUMPDEST POP POP PUSH1 0x1 PUSH1 0x1 PUSH1 0xA0 SHL SUB SWAP7 SWAP1 SWAP7 AND PUSH1 0x60 DUP6 ADD MSTORE POP POP POP PUSH1 0x80 ADD MSTORE SWAP4 SWAP3 POP POP POP JUMP JUMPDEST PUSH0 PUSH1 0x20 DUP1 DUP4 DUP6 SUB SLT ISZERO PUSH2 0x21DF JUMPI PUSH0 DUP1 REVERT JUMPDEST DUP3 MLOAD PUSH8 0xFFFFFFFFFFFFFFFF DUP1 DUP3 GT ISZERO PUSH2 0x21F6 JUMPI PUSH0 DUP1 REVERT JUMPDEST DUP2 DUP6 ADD SWAP2 POP DUP6 PUSH1 0x1F DUP4 ADD SLT PUSH2 0x2209 JUMPI PUSH0 DUP1 REVERT JUMPDEST DUP2 MLOAD DUP2 DUP2 GT ISZERO PUSH2 0x221B JUMPI PUSH2 0x221B PUSH2 0x2135 JUMP JUMPDEST DUP1 PUSH1 0x5 SHL PUSH1 0x40 MLOAD PUSH1 0x1F NOT PUSH1 0x3F DUP4 ADD AND DUP2 ADD DUP2 DUP2 LT DUP6 DUP3 GT OR ISZERO PUSH2 0x2240 JUMPI PUSH2 0x2240 PUSH2 0x2135 JUMP JUMPDEST PUSH1 0x40 MSTORE SWAP2 DUP3 MSTORE DUP5 DUP3 ADD SWAP3 POP DUP4 DUP2 ADD DUP6 ADD SWAP2 DUP9 DUP4 GT ISZERO PUSH2 0x225D JUMPI PUSH0 DUP1 REVERT JUMPDEST SWAP4 DUP6 ADD SWAP4 JUMPDEST DUP3 DUP6 LT ISZERO PUSH2 0x227B JUMPI DUP5 MLOAD DUP5 MSTORE SWAP4 DUP6 ADD SWAP4 SWAP3 DUP6 ADD SWAP3 PUSH2 0x2262 JUMP JUMPDEST SWAP9 SWAP8 POP POP POP POP POP POP POP POP JUMP JUMPDEST PUSH0 DUP1 PUSH0 PUSH1 0x60 DUP5 DUP7 SUB SLT ISZERO PUSH2 0x2299 JUMPI PUSH0 DUP1 REVERT JUMPDEST DUP4 MLOAD SWAP3 POP PUSH1 0x20 DUP5 ADD MLOAD SWAP2 POP PUSH1 0x40 DUP5 ADD MLOAD SWAP1 POP SWAP3 POP SWAP3 POP SWAP3 JUMP INVALID LOG2 PUSH5 0x6970667358 0x22 SLT KECCAK256 PC SELFDESTRUCT DUP1 0xE0 SWAP11 PREVRANDAO 0xAC DUP2 0xE 0xCA 0x1F PUSH31 0xC706D8A9E4D48933C73AACB957AC449DBA91CA2564736F6C63430008190033 "
		},
		"gasEstimates": {
			"creation": {
				"codeDepositCost": "1787200",
				"executionCost": "infinite",
				"totalCost": "infinite"
			},
			"external": {
				"_maxWalletSize()": "infinite",
				"accumulatedEco()": "2372",
				"accumulatedLp()": "2327",
				"allowance(address,address)": "infinite",
				"approve(address,uint256)": "24686",
				"balanceOf(address)": "2632",
				"configureCooldown(bool,uint32)": "51274",
				"configureDiamondFloor(bool,uint16)": "infinite",
				"cooldown()": "2448",
				"cooldownRemaining(address)": "infinite",
				"decimals()": "266",
				"decreaseAllowance(address,uint256)": "27006",
				"diamondFloor()": "8866",
				"increaseAllowance(address,uint256)": "infinite",
				"isExempt(address)": "2567",
				"maxWalletPercentage()": "2373",
				"name()": "infinite",
				"owner()": "2441",
				"pairAddress()": "2425",
				"pairPrice()": "infinite",
				"priceDeviation()": "infinite",
				"renounceOwnership()": "infinite",
				"routerAddress()": "2448",
				"setExempt(address,bool)": "26924",
				"setRouter(address)": "infinite",
				"setTaxRates(uint16,uint16,uint16,uint16)": "infinite",
				"setThreshold(uint256)": "24576",
				"swapThreshold()": "2330",
				"symbol()": "infinite",
				"taxRates()": "2517",
				"totalSupply()": "2326",
				"transfer(address,uint256)": "infinite",
				"transferFrom(address,address,uint256)": "infinite",
				"transferOwnership(address)": "infinite"
			},
			"internal": {
				"_addLiquidity(uint256,uint256)": "infinite",
				"_calculateTax(address,address,uint256)": "infinite",
				"_checkPriceConditions()": "infinite",
				"_distributeTax(uint256,bool,bool)": "infinite",
				"_setupPair()": "infinite",
				"_shouldSwapBack()": "10734",
				"_swapAndLiquify()": "infinite",
				"_swapTokensForETH(uint256)": "infinite",
				"_transfer(address,address,uint256)": "infinite"
			}
		},
		"methodIdentifiers": {
			"_maxWalletSize()": "8f9a55c0",
			"accumulatedEco()": "c531b108",
			"accumulatedLp()": "d8d61c40",
			"allowance(address,address)": "dd62ed3e",
			"approve(address,uint256)": "095ea7b3",
			"balanceOf(address)": "70a08231",
			"configureCooldown(bool,uint32)": "fe6b751e",
			"configureDiamondFloor(bool,uint16)": "fe0bb982",
			"cooldown()": "787a08a6",
			"cooldownRemaining(address)": "9d82190f",
			"decimals()": "313ce567",
			"decreaseAllowance(address,uint256)": "a457c2d7",
			"diamondFloor()": "c95457ff",
			"increaseAllowance(address,uint256)": "39509351",
			"isExempt(address)": "ad5dff73",
			"maxWalletPercentage()": "599ca397",
			"name()": "06fdde03",
			"owner()": "8da5cb5b",
			"pairAddress()": "a8b08982",
			"pairPrice()": "9491f94d",
			"priceDeviation()": "7773168f",
			"renounceOwnership()": "715018a6",
			"routerAddress()": "3268cc56",
			"setExempt(address,bool)": "9fde54f5",
			"setRouter(address)": "c0d78655",
			"setTaxRates(uint16,uint16,uint16,uint16)": "1569d181",
			"setThreshold(uint256)": "960bfe04",
			"swapThreshold()": "0445b667",
			"symbol()": "95d89b41",
			"taxRates()": "333f4b3d",
			"totalSupply()": "18160ddd",
			"transfer(address,uint256)": "a9059cbb",
			"transferFrom(address,address,uint256)": "23b872dd",
			"transferOwnership(address)": "f2fde38b"
		}
	},
	"abi": [
		{
			"inputs": [],
			"stateMutability": "nonpayable",
			"type": "constructor"
		},
		{
			"anonymous": false,
			"inputs": [
				{
					"indexed": true,
					"internalType": "address",
					"name": "owner",
					"type": "address"
				},
				{
					"indexed": true,
					"internalType": "address",
					"name": "spender",
					"type": "address"
				},
				{
					"indexed": false,
					"internalType": "uint256",
					"name": "value",
					"type": "uint256"
				}
			],
			"name": "Approval",
			"type": "event"
		},
		{
			"anonymous": false,
			"inputs": [
				{
					"indexed": false,
					"internalType": "uint256",
					"name": "tokenAmount",
					"type": "uint256"
				},
				{
					"indexed": false,
					"internalType": "uint256",
					"name": "ethAmount",
					"type": "uint256"
				}
			],
			"name": "LiquidityAdded",
			"type": "event"
		},
		{
			"anonymous": false,
			"inputs": [
				{
					"indexed": true,
					"internalType": "address",
					"name": "previousOwner",
					"type": "address"
				},
				{
					"indexed": true,
					"internalType": "address",
					"name": "newOwner",
					"type": "address"
				}
			],
			"name": "OwnershipTransferred",
			"type": "event"
		},
		{
			"anonymous": false,
			"inputs": [
				{
					"indexed": false,
					"internalType": "address",
					"name": "newRouter",
					"type": "address"
				}
			],
			"name": "RouterUpdated",
			"type": "event"
		},
		{
			"anonymous": false,
			"inputs": [
				{
					"indexed": false,
					"internalType": "uint256",
					"name": "lpAmount",
					"type": "uint256"
				},
				{
					"indexed": false,
					"internalType": "uint256",
					"name": "ecoAmount",
					"type": "uint256"
				}
			],
			"name": "TaxesCollected",
			"type": "event"
		},
		{
			"anonymous": false,
			"inputs": [
				{
					"indexed": true,
					"internalType": "address",
					"name": "from",
					"type": "address"
				},
				{
					"indexed": true,
					"internalType": "address",
					"name": "to",
					"type": "address"
				},
				{
					"indexed": false,
					"internalType": "uint256",
					"name": "value",
					"type": "uint256"
				}
			],
			"name": "Transfer",
			"type": "event"
		},
		{
			"inputs": [],
			"name": "_maxWalletSize",
			"outputs": [
				{
					"internalType": "uint256",
					"name": "",
					"type": "uint256"
				}
			],
			"stateMutability": "view",
			"type": "function"
		},
		{
			"inputs": [],
			"name": "accumulatedEco",
			"outputs": [
				{
					"internalType": "uint256",
					"name": "",
					"type": "uint256"
				}
			],
			"stateMutability": "view",
			"type": "function"
		},
		{
			"inputs": [],
			"name": "accumulatedLp",
			"outputs": [
				{
					"internalType": "uint256",
					"name": "",
					"type": "uint256"
				}
			],
			"stateMutability": "view",
			"type": "function"
		},
		{
			"inputs": [
				{
					"internalType": "address",
					"name": "owner",
					"type": "address"
				},
				{
					"internalType": "address",
					"name": "spender",
					"type": "address"
				}
			],
			"name": "allowance",
			"outputs": [
				{
					"internalType": "uint256",
					"name": "",
					"type": "uint256"
				}
			],
			"stateMutability": "view",
			"type": "function"
		},
		{
			"inputs": [
				{
					"internalType": "address",
					"name": "spender",
					"type": "address"
				},
				{
					"internalType": "uint256",
					"name": "amount",
					"type": "uint256"
				}
			],
			"name": "approve",
			"outputs": [
				{
					"internalType": "bool",
					"name": "",
					"type": "bool"
				}
			],
			"stateMutability": "nonpayable",
			"type": "function"
		},
		{
			"inputs": [
				{
					"internalType": "address",
					"name": "account",
					"type": "address"
				}
			],
			"name": "balanceOf",
			"outputs": [
				{
					"internalType": "uint256",
					"name": "",
					"type": "uint256"
				}
			],
			"stateMutability": "view",
			"type": "function"
		},
		{
			"inputs": [
				{
					"internalType": "bool",
					"name": "enabled",
					"type": "bool"
				},
				{
					"internalType": "uint32",
					"name": "duration",
					"type": "uint32"
				}
			],
			"name": "configureCooldown",
			"outputs": [],
			"stateMutability": "nonpayable",
			"type": "function"
		},
		{
			"inputs": [
				{
					"internalType": "bool",
					"name": "enabled",
					"type": "bool"
				},
				{
					"internalType": "uint16",
					"name": "triggerPercent",
					"type": "uint16"
				}
			],
			"name": "configureDiamondFloor",
			"outputs": [],
			"stateMutability": "nonpayable",
			"type": "function"
		},
		{
			"inputs": [],
			"name": "cooldown",
			"outputs": [
				{
					"internalType": "bool",
					"name": "enabled",
					"type": "bool"
				},
				{
					"internalType": "uint32",
					"name": "duration",
					"type": "uint32"
				}
			],
			"stateMutability": "view",
			"type": "function"
		},
		{
			"inputs": [
				{
					"internalType": "address",
					"name": "account",
					"type": "address"
				}
			],
			"name": "cooldownRemaining",
			"outputs": [
				{
					"internalType": "uint256",
					"name": "days_",
					"type": "uint256"
				},
				{
					"internalType": "uint256",
					"name": "hours_",
					"type": "uint256"
				},
				{
					"internalType": "uint256",
					"name": "minutes_",
					"type": "uint256"
				},
				{
					"internalType": "uint256",
					"name": "seconds_",
					"type": "uint256"
				}
			],
			"stateMutability": "view",
			"type": "function"
		},
		{
			"inputs": [],
			"name": "decimals",
			"outputs": [
				{
					"internalType": "uint8",
					"name": "",
					"type": "uint8"
				}
			],
			"stateMutability": "view",
			"type": "function"
		},
		{
			"inputs": [
				{
					"internalType": "address",
					"name": "spender",
					"type": "address"
				},
				{
					"internalType": "uint256",
					"name": "subtractedValue",
					"type": "uint256"
				}
			],
			"name": "decreaseAllowance",
			"outputs": [
				{
					"internalType": "bool",
					"name": "",
					"type": "bool"
				}
			],
			"stateMutability": "nonpayable",
			"type": "function"
		},
		{
			"inputs": [],
			"name": "diamondFloor",
			"outputs": [
				{
					"internalType": "bool",
					"name": "enabled",
					"type": "bool"
				},
				{
					"internalType": "uint16",
					"name": "triggerPercentage",
					"type": "uint16"
				},
				{
					"internalType": "uint256",
					"name": "athPrice",
					"type": "uint256"
				},
				{
					"internalType": "bool",
					"name": "sellStopped",
					"type": "bool"
				},
				{
					"internalType": "uint256",
					"name": "blockedAth",
					"type": "uint256"
				}
			],
			"stateMutability": "view",
			"type": "function"
		},
		{
			"inputs": [
				{
					"internalType": "address",
					"name": "spender",
					"type": "address"
				},
				{
					"internalType": "uint256",
					"name": "addedValue",
					"type": "uint256"
				}
			],
			"name": "increaseAllowance",
			"outputs": [
				{
					"internalType": "bool",
					"name": "",
					"type": "bool"
				}
			],
			"stateMutability": "nonpayable",
			"type": "function"
		},
		{
			"inputs": [
				{
					"internalType": "address",
					"name": "",
					"type": "address"
				}
			],
			"name": "isExempt",
			"outputs": [
				{
					"internalType": "bool",
					"name": "",
					"type": "bool"
				}
			],
			"stateMutability": "view",
			"type": "function"
		},
		{
			"inputs": [],
			"name": "maxWalletPercentage",
			"outputs": [
				{
					"internalType": "uint256",
					"name": "",
					"type": "uint256"
				}
			],
			"stateMutability": "view",
			"type": "function"
		},
		{
			"inputs": [],
			"name": "name",
			"outputs": [
				{
					"internalType": "string",
					"name": "",
					"type": "string"
				}
			],
			"stateMutability": "view",
			"type": "function"
		},
		{
			"inputs": [],
			"name": "owner",
			"outputs": [
				{
					"internalType": "address",
					"name": "",
					"type": "address"
				}
			],
			"stateMutability": "view",
			"type": "function"
		},
		{
			"inputs": [],
			"name": "pairAddress",
			"outputs": [
				{
					"internalType": "address",
					"name": "",
					"type": "address"
				}
			],
			"stateMutability": "view",
			"type": "function"
		},
		{
			"inputs": [],
			"name": "pairPrice",
			"outputs": [
				{
					"internalType": "uint256",
					"name": "",
					"type": "uint256"
				}
			],
			"stateMutability": "view",
			"type": "function"
		},
		{
			"inputs": [],
			"name": "priceDeviation",
			"outputs": [
				{
					"internalType": "int256",
					"name": "",
					"type": "int256"
				}
			],
			"stateMutability": "view",
			"type": "function"
		},
		{
			"inputs": [],
			"name": "renounceOwnership",
			"outputs": [],
			"stateMutability": "nonpayable",
			"type": "function"
		},
		{
			"inputs": [],
			"name": "routerAddress",
			"outputs": [
				{
					"internalType": "address",
					"name": "",
					"type": "address"
				}
			],
			"stateMutability": "view",
			"type": "function"
		},
		{
			"inputs": [
				{
					"internalType": "address",
					"name": "account",
					"type": "address"
				},
				{
					"internalType": "bool",
					"name": "exempt",
					"type": "bool"
				}
			],
			"name": "setExempt",
			"outputs": [],
			"stateMutability": "nonpayable",
			"type": "function"
		},
		{
			"inputs": [
				{
					"internalType": "address",
					"name": "newRouter",
					"type": "address"
				}
			],
			"name": "setRouter",
			"outputs": [],
			"stateMutability": "nonpayable",
			"type": "function"
		},
		{
			"inputs": [
				{
					"internalType": "uint16",
					"name": "buyLp",
					"type": "uint16"
				},
				{
					"internalType": "uint16",
					"name": "buyEco",
					"type": "uint16"
				},
				{
					"internalType": "uint16",
					"name": "sellLp",
					"type": "uint16"
				},
				{
					"internalType": "uint16",
					"name": "sellEco",
					"type": "uint16"
				}
			],
			"name": "setTaxRates",
			"outputs": [],
			"stateMutability": "nonpayable",
			"type": "function"
		},
		{
			"inputs": [
				{
					"internalType": "uint256",
					"name": "threshold",
					"type": "uint256"
				}
			],
			"name": "setThreshold",
			"outputs": [],
			"stateMutability": "nonpayable",
			"type": "function"
		},
		{
			"inputs": [],
			"name": "swapThreshold",
			"outputs": [
				{
					"internalType": "uint256",
					"name": "",
					"type": "uint256"
				}
			],
			"stateMutability": "view",
			"type": "function"
		},
		{
			"inputs": [],
			"name": "symbol",
			"outputs": [
				{
					"internalType": "string",
					"name": "",
					"type": "string"
				}
			],
			"stateMutability": "view",
			"type": "function"
		},
		{
			"inputs": [],
			"name": "taxRates",
			"outputs": [
				{
					"internalType": "uint16",
					"name": "buyLp",
					"type": "uint16"
				},
				{
					"internalType": "uint16",
					"name": "buyEco",
					"type": "uint16"
				},
				{
					"internalType": "uint16",
					"name": "sellLp",
					"type": "uint16"
				},
				{
					"internalType": "uint16",
					"name": "sellEco",
					"type": "uint16"
				}
			],
			"stateMutability": "view",
			"type": "function"
		},
		{
			"inputs": [],
			"name": "totalSupply",
			"outputs": [
				{
					"internalType": "uint256",
					"name": "",
					"type": "uint256"
				}
			],
			"stateMutability": "view",
			"type": "function"
		},
		{
			"inputs": [
				{
					"internalType": "address",
					"name": "to",
					"type": "address"
				},
				{
					"internalType": "uint256",
					"name": "amount",
					"type": "uint256"
				}
			],
			"name": "transfer",
			"outputs": [
				{
					"internalType": "bool",
					"name": "",
					"type": "bool"
				}
			],
			"stateMutability": "nonpayable",
			"type": "function"
		},
		{
			"inputs": [
				{
					"internalType": "address",
					"name": "from",
					"type": "address"
				},
				{
					"internalType": "address",
					"name": "to",
					"type": "address"
				},
				{
					"internalType": "uint256",
					"name": "amount",
					"type": "uint256"
				}
			],
			"name": "transferFrom",
			"outputs": [
				{
					"internalType": "bool",
					"name": "",
					"type": "bool"
				}
			],
			"stateMutability": "nonpayable",
			"type": "function"
		},
		{
			"inputs": [
				{
					"internalType": "address",
					"name": "newOwner",
					"type": "address"
				}
			],
			"name": "transferOwnership",
			"outputs": [],
			"stateMutability": "nonpayable",
			"type": "function"
		},
		{
			"stateMutability": "payable",
			"type": "receive"
		}
	]
}